{
	"contracts/ergasia.sol": {
		"Election": {
			"abi": [
				{
					"inputs": [],
					"stateMutability": "nonpayable",
					"type": "constructor"
				},
				{
					"anonymous": false,
					"inputs": [
						{
							"indexed": false,
							"internalType": "bool",
							"name": "voted",
							"type": "bool"
						},
						{
							"indexed": false,
							"internalType": "uint256",
							"name": "_choice",
							"type": "uint256"
						},
						{
							"indexed": false,
							"internalType": "uint256",
							"name": "_pollStationID",
							"type": "uint256"
						}
					],
					"name": "VoteCasted",
					"type": "event"
				},
				{
					"inputs": [
						{
							"internalType": "address",
							"name": "_voterAddress",
							"type": "address"
						},
						{
							"internalType": "uint256",
							"name": "_pollingStationID",
							"type": "uint256"
						}
					],
					"name": "addVoter",
					"outputs": [],
					"stateMutability": "nonpayable",
					"type": "function"
				},
				{
					"inputs": [
						{
							"internalType": "uint256",
							"name": "",
							"type": "uint256"
						}
					],
					"name": "candidates",
					"outputs": [
						{
							"internalType": "uint256",
							"name": "id",
							"type": "uint256"
						},
						{
							"internalType": "string",
							"name": "name",
							"type": "string"
						},
						{
							"internalType": "uint256",
							"name": "votes",
							"type": "uint256"
						}
					],
					"stateMutability": "view",
					"type": "function"
				},
				{
					"inputs": [],
					"name": "candidatesCount",
					"outputs": [
						{
							"internalType": "uint256",
							"name": "",
							"type": "uint256"
						}
					],
					"stateMutability": "view",
					"type": "function"
				},
				{
					"inputs": [
						{
							"internalType": "uint256",
							"name": "_choice",
							"type": "uint256"
						},
						{
							"internalType": "uint256",
							"name": "_pollingStationID",
							"type": "uint256"
						}
					],
					"name": "castVote",
					"outputs": [
						{
							"internalType": "bool",
							"name": "voted",
							"type": "bool"
						}
					],
					"stateMutability": "nonpayable",
					"type": "function"
				},
				{
					"inputs": [],
					"name": "electionOwner",
					"outputs": [
						{
							"internalType": "address",
							"name": "",
							"type": "address"
						}
					],
					"stateMutability": "view",
					"type": "function"
				},
				{
					"inputs": [],
					"name": "endVote",
					"outputs": [],
					"stateMutability": "nonpayable",
					"type": "function"
				},
				{
					"inputs": [],
					"name": "finalResult",
					"outputs": [
						{
							"internalType": "uint256",
							"name": "",
							"type": "uint256"
						}
					],
					"stateMutability": "view",
					"type": "function"
				},
				{
					"inputs": [
						{
							"internalType": "uint256",
							"name": "_pStationID",
							"type": "uint256"
						},
						{
							"internalType": "uint256",
							"name": "_candidateID",
							"type": "uint256"
						}
					],
					"name": "getResultsPerCandidatePerStation",
					"outputs": [
						{
							"internalType": "uint256",
							"name": "",
							"type": "uint256"
						}
					],
					"stateMutability": "view",
					"type": "function"
				},
				{
					"inputs": [
						{
							"internalType": "uint256",
							"name": "_pStationID",
							"type": "uint256"
						}
					],
					"name": "getResultsPerStation",
					"outputs": [
						{
							"internalType": "uint256[]",
							"name": "",
							"type": "uint256[]"
						}
					],
					"stateMutability": "view",
					"type": "function"
				},
				{
					"inputs": [
						{
							"internalType": "uint256",
							"name": "_pStationID",
							"type": "uint256"
						},
						{
							"internalType": "uint256",
							"name": "_candidateID",
							"type": "uint256"
						}
					],
					"name": "getResultsPerStation1",
					"outputs": [
						{
							"components": [
								{
									"internalType": "uint256",
									"name": "id",
									"type": "uint256"
								},
								{
									"internalType": "string",
									"name": "name",
									"type": "string"
								},
								{
									"internalType": "uint256",
									"name": "votes",
									"type": "uint256"
								}
							],
							"internalType": "struct Election.Candidate",
							"name": "",
							"type": "tuple"
						}
					],
					"stateMutability": "view",
					"type": "function"
				},
				{
					"inputs": [],
					"name": "pollingStationCount",
					"outputs": [
						{
							"internalType": "uint256",
							"name": "",
							"type": "uint256"
						}
					],
					"stateMutability": "view",
					"type": "function"
				},
				{
					"inputs": [
						{
							"internalType": "uint256",
							"name": "",
							"type": "uint256"
						}
					],
					"name": "pollingStations",
					"outputs": [
						{
							"internalType": "uint256",
							"name": "id",
							"type": "uint256"
						},
						{
							"internalType": "string",
							"name": "name",
							"type": "string"
						},
						{
							"internalType": "uint256",
							"name": "votersRegistered",
							"type": "uint256"
						},
						{
							"internalType": "uint256",
							"name": "votesCasted",
							"type": "uint256"
						}
					],
					"stateMutability": "view",
					"type": "function"
				},
				{
					"inputs": [],
					"name": "startVote",
					"outputs": [],
					"stateMutability": "nonpayable",
					"type": "function"
				},
				{
					"inputs": [],
					"name": "state",
					"outputs": [
						{
							"internalType": "enum Election.State",
							"name": "",
							"type": "uint8"
						}
					],
					"stateMutability": "view",
					"type": "function"
				},
				{
					"inputs": [],
					"name": "totalRegisteredVoters",
					"outputs": [
						{
							"internalType": "uint256",
							"name": "",
							"type": "uint256"
						}
					],
					"stateMutability": "view",
					"type": "function"
				},
				{
					"inputs": [
						{
							"internalType": "address",
							"name": "",
							"type": "address"
						}
					],
					"name": "voterRegistry",
					"outputs": [
						{
							"internalType": "bool",
							"name": "isEnrolled",
							"type": "bool"
						},
						{
							"internalType": "bool",
							"name": "hasVoted",
							"type": "bool"
						},
						{
							"internalType": "uint256",
							"name": "choice",
							"type": "uint256"
						},
						{
							"internalType": "uint256",
							"name": "enrolledPollingStationID",
							"type": "uint256"
						},
						{
							"internalType": "uint256",
							"name": "votedPollingStationID",
							"type": "uint256"
						}
					],
					"stateMutability": "view",
					"type": "function"
				},
				{
					"inputs": [
						{
							"internalType": "address",
							"name": "",
							"type": "address"
						}
					],
					"name": "voters",
					"outputs": [
						{
							"internalType": "bool",
							"name": "",
							"type": "bool"
						}
					],
					"stateMutability": "view",
					"type": "function"
				}
			],
			"devdoc": {
				"kind": "dev",
				"methods": {
					"addVoter(address,uint256)": {
						"details": "Adds a voter to the voter registry. May only be called by 'owner'.",
						"params": {
							"_pollingStationID": "polling station ID in which voter is registered.",
							"_voterAddress": "address of voter"
						}
					}
				},
				"version": 1
			},
			"evm": {
				"assembly": "    /* \"contracts/ergasia.sol\":70:8107  contract Election {... */\n  mstore(0x40, 0x80)\n    /* \"contracts/ergasia.sol\":2294:2569  constructor() {... */\n  callvalue\n  dup1\n  iszero\n  tag_1\n  jumpi\n  0x00\n  dup1\n  revert\ntag_1:\n  pop\n    /* \"contracts/ergasia.sol\":2334:2344  msg.sender */\n  caller\n    /* \"contracts/ergasia.sol\":2318:2331  electionOwner */\n  0x00\n  dup1\n    /* \"contracts/ergasia.sol\":2318:2344  electionOwner = msg.sender */\n  0x0100\n  exp\n  dup2\n  sload\n  dup2\n  0xffffffffffffffffffffffffffffffffffffffff\n  mul\n  not\n  and\n  swap1\n  dup4\n  0xffffffffffffffffffffffffffffffffffffffff\n  and\n  mul\n  or\n  swap1\n  sstore\n  pop\n    /* \"contracts/ergasia.sol\":2399:2420  initPollingStations() */\n  tag_4\n    /* \"contracts/ergasia.sol\":2399:2418  initPollingStations */\n  shl(0x20, tag_5)\n    /* \"contracts/ergasia.sol\":2399:2420  initPollingStations() */\n  0x20\n  shr\n  jump\t// in\ntag_4:\n    /* \"contracts/ergasia.sol\":2477:2493  initCandidates() */\n  tag_6\n    /* \"contracts/ergasia.sol\":2477:2491  initCandidates */\n  shl(0x20, tag_7)\n    /* \"contracts/ergasia.sol\":2477:2493  initCandidates() */\n  0x20\n  shr\n  jump\t// in\ntag_6:\n    /* \"contracts/ergasia.sol\":2547:2560  State.Created */\n  0x00\n    /* \"contracts/ergasia.sol\":2539:2544  state */\n  0x0b\n  0x00\n    /* \"contracts/ergasia.sol\":2539:2560  state = State.Created */\n  0x0100\n  exp\n  dup2\n  sload\n  dup2\n  0xff\n  mul\n  not\n  and\n  swap1\n  dup4\n  0x02\n  dup2\n  gt\n  iszero\n  tag_8\n  jumpi\n  tag_9\n  tag_10\n  jump\t// in\ntag_9:\ntag_8:\n  mul\n  or\n  swap1\n  sstore\n  pop\n    /* \"contracts/ergasia.sol\":70:8107  contract Election {... */\n  jump(tag_11)\n    /* \"contracts/ergasia.sol\":3374:3902  function initPollingStations() internal {... */\ntag_5:\n    /* \"contracts/ergasia.sol\":3424:3462  addPollingStation(\"Polling Station 1\") */\n  tag_13\n  mload(0x40)\n  dup1\n  0x40\n  add\n  0x40\n  mstore\n  dup1\n  0x11\n  dup2\n  mstore\n  0x20\n  add\n  0x506f6c6c696e672053746174696f6e2031000000000000000000000000000000\n  dup2\n  mstore\n  pop\n    /* \"contracts/ergasia.sol\":3424:3441  addPollingStation */\n  shl(0x20, tag_14)\n    /* \"contracts/ergasia.sol\":3424:3462  addPollingStation(\"Polling Station 1\") */\n  0x20\n  shr\n  jump\t// in\ntag_13:\n    /* \"contracts/ergasia.sol\":3472:3510  addPollingStation(\"Polling Station 2\") */\n  tag_15\n  mload(0x40)\n  dup1\n  0x40\n  add\n  0x40\n  mstore\n  dup1\n  0x11\n  dup2\n  mstore\n  0x20\n  add\n  0x506f6c6c696e672053746174696f6e2032000000000000000000000000000000\n  dup2\n  mstore\n  pop\n    /* \"contracts/ergasia.sol\":3472:3489  addPollingStation */\n  shl(0x20, tag_14)\n    /* \"contracts/ergasia.sol\":3472:3510  addPollingStation(\"Polling Station 2\") */\n  0x20\n  shr\n  jump\t// in\ntag_15:\n    /* \"contracts/ergasia.sol\":3520:3558  addPollingStation(\"Polling Station 3\") */\n  tag_16\n  mload(0x40)\n  dup1\n  0x40\n  add\n  0x40\n  mstore\n  dup1\n  0x11\n  dup2\n  mstore\n  0x20\n  add\n  0x506f6c6c696e672053746174696f6e2033000000000000000000000000000000\n  dup2\n  mstore\n  pop\n    /* \"contracts/ergasia.sol\":3520:3537  addPollingStation */\n  shl(0x20, tag_14)\n    /* \"contracts/ergasia.sol\":3520:3558  addPollingStation(\"Polling Station 3\") */\n  0x20\n  shr\n  jump\t// in\ntag_16:\n    /* \"contracts/ergasia.sol\":3568:3606  addPollingStation(\"Polling Station 4\") */\n  tag_17\n  mload(0x40)\n  dup1\n  0x40\n  add\n  0x40\n  mstore\n  dup1\n  0x11\n  dup2\n  mstore\n  0x20\n  add\n  0x506f6c6c696e672053746174696f6e2034000000000000000000000000000000\n  dup2\n  mstore\n  pop\n    /* \"contracts/ergasia.sol\":3568:3585  addPollingStation */\n  shl(0x20, tag_14)\n    /* \"contracts/ergasia.sol\":3568:3606  addPollingStation(\"Polling Station 4\") */\n  0x20\n  shr\n  jump\t// in\ntag_17:\n    /* \"contracts/ergasia.sol\":3616:3654  addPollingStation(\"Polling Station 5\") */\n  tag_18\n  mload(0x40)\n  dup1\n  0x40\n  add\n  0x40\n  mstore\n  dup1\n  0x11\n  dup2\n  mstore\n  0x20\n  add\n  0x506f6c6c696e672053746174696f6e2035000000000000000000000000000000\n  dup2\n  mstore\n  pop\n    /* \"contracts/ergasia.sol\":3616:3633  addPollingStation */\n  shl(0x20, tag_14)\n    /* \"contracts/ergasia.sol\":3616:3654  addPollingStation(\"Polling Station 5\") */\n  0x20\n  shr\n  jump\t// in\ntag_18:\n    /* \"contracts/ergasia.sol\":3664:3702  addPollingStation(\"Polling Station 6\") */\n  tag_19\n  mload(0x40)\n  dup1\n  0x40\n  add\n  0x40\n  mstore\n  dup1\n  0x11\n  dup2\n  mstore\n  0x20\n  add\n  0x506f6c6c696e672053746174696f6e2036000000000000000000000000000000\n  dup2\n  mstore\n  pop\n    /* \"contracts/ergasia.sol\":3664:3681  addPollingStation */\n  shl(0x20, tag_14)\n    /* \"contracts/ergasia.sol\":3664:3702  addPollingStation(\"Polling Station 6\") */\n  0x20\n  shr\n  jump\t// in\ntag_19:\n    /* \"contracts/ergasia.sol\":3712:3750  addPollingStation(\"Polling Station 7\") */\n  tag_20\n  mload(0x40)\n  dup1\n  0x40\n  add\n  0x40\n  mstore\n  dup1\n  0x11\n  dup2\n  mstore\n  0x20\n  add\n  0x506f6c6c696e672053746174696f6e2037000000000000000000000000000000\n  dup2\n  mstore\n  pop\n    /* \"contracts/ergasia.sol\":3712:3729  addPollingStation */\n  shl(0x20, tag_14)\n    /* \"contracts/ergasia.sol\":3712:3750  addPollingStation(\"Polling Station 7\") */\n  0x20\n  shr\n  jump\t// in\ntag_20:\n    /* \"contracts/ergasia.sol\":3760:3798  addPollingStation(\"Polling Station 8\") */\n  tag_21\n  mload(0x40)\n  dup1\n  0x40\n  add\n  0x40\n  mstore\n  dup1\n  0x11\n  dup2\n  mstore\n  0x20\n  add\n  0x506f6c6c696e672053746174696f6e2038000000000000000000000000000000\n  dup2\n  mstore\n  pop\n    /* \"contracts/ergasia.sol\":3760:3777  addPollingStation */\n  shl(0x20, tag_14)\n    /* \"contracts/ergasia.sol\":3760:3798  addPollingStation(\"Polling Station 8\") */\n  0x20\n  shr\n  jump\t// in\ntag_21:\n    /* \"contracts/ergasia.sol\":3808:3846  addPollingStation(\"Polling Station 9\") */\n  tag_22\n  mload(0x40)\n  dup1\n  0x40\n  add\n  0x40\n  mstore\n  dup1\n  0x11\n  dup2\n  mstore\n  0x20\n  add\n  0x506f6c6c696e672053746174696f6e2039000000000000000000000000000000\n  dup2\n  mstore\n  pop\n    /* \"contracts/ergasia.sol\":3808:3825  addPollingStation */\n  shl(0x20, tag_14)\n    /* \"contracts/ergasia.sol\":3808:3846  addPollingStation(\"Polling Station 9\") */\n  0x20\n  shr\n  jump\t// in\ntag_22:\n    /* \"contracts/ergasia.sol\":3856:3895  addPollingStation(\"Polling Station 10\") */\n  tag_23\n  mload(0x40)\n  dup1\n  0x40\n  add\n  0x40\n  mstore\n  dup1\n  0x12\n  dup2\n  mstore\n  0x20\n  add\n  0x506f6c6c696e672053746174696f6e2031300000000000000000000000000000\n  dup2\n  mstore\n  pop\n    /* \"contracts/ergasia.sol\":3856:3873  addPollingStation */\n  shl(0x20, tag_14)\n    /* \"contracts/ergasia.sol\":3856:3895  addPollingStation(\"Polling Station 10\") */\n  0x20\n  shr\n  jump\t// in\ntag_23:\n    /* \"contracts/ergasia.sol\":3374:3902  function initPollingStations() internal {... */\n  jump\t// out\n    /* \"contracts/ergasia.sol\":2628:2855  function initCandidates() internal {... */\ntag_7:\n    /* \"contracts/ergasia.sol\":2673:2700  addCandidate(\"Candidate 1\") */\n  tag_25\n  mload(0x40)\n  dup1\n  0x40\n  add\n  0x40\n  mstore\n  dup1\n  0x0b\n  dup2\n  mstore\n  0x20\n  add\n  0x43616e6469646174652031000000000000000000000000000000000000000000\n  dup2\n  mstore\n  pop\n    /* \"contracts/ergasia.sol\":2673:2685  addCandidate */\n  shl(0x20, tag_26)\n    /* \"contracts/ergasia.sol\":2673:2700  addCandidate(\"Candidate 1\") */\n  0x20\n  shr\n  jump\t// in\ntag_25:\n    /* \"contracts/ergasia.sol\":2710:2737  addCandidate(\"Candidate 2\") */\n  tag_27\n  mload(0x40)\n  dup1\n  0x40\n  add\n  0x40\n  mstore\n  dup1\n  0x0b\n  dup2\n  mstore\n  0x20\n  add\n  0x43616e6469646174652032000000000000000000000000000000000000000000\n  dup2\n  mstore\n  pop\n    /* \"contracts/ergasia.sol\":2710:2722  addCandidate */\n  shl(0x20, tag_26)\n    /* \"contracts/ergasia.sol\":2710:2737  addCandidate(\"Candidate 2\") */\n  0x20\n  shr\n  jump\t// in\ntag_27:\n    /* \"contracts/ergasia.sol\":2747:2774  addCandidate(\"Candidate 3\") */\n  tag_28\n  mload(0x40)\n  dup1\n  0x40\n  add\n  0x40\n  mstore\n  dup1\n  0x0b\n  dup2\n  mstore\n  0x20\n  add\n  0x43616e6469646174652033000000000000000000000000000000000000000000\n  dup2\n  mstore\n  pop\n    /* \"contracts/ergasia.sol\":2747:2759  addCandidate */\n  shl(0x20, tag_26)\n    /* \"contracts/ergasia.sol\":2747:2774  addCandidate(\"Candidate 3\") */\n  0x20\n  shr\n  jump\t// in\ntag_28:\n    /* \"contracts/ergasia.sol\":2784:2811  addCandidate(\"Candidate 4\") */\n  tag_29\n  mload(0x40)\n  dup1\n  0x40\n  add\n  0x40\n  mstore\n  dup1\n  0x0b\n  dup2\n  mstore\n  0x20\n  add\n  0x43616e6469646174652034000000000000000000000000000000000000000000\n  dup2\n  mstore\n  pop\n    /* \"contracts/ergasia.sol\":2784:2796  addCandidate */\n  shl(0x20, tag_26)\n    /* \"contracts/ergasia.sol\":2784:2811  addCandidate(\"Candidate 4\") */\n  0x20\n  shr\n  jump\t// in\ntag_29:\n    /* \"contracts/ergasia.sol\":2821:2848  addCandidate(\"Candidate 5\") */\n  tag_30\n  mload(0x40)\n  dup1\n  0x40\n  add\n  0x40\n  mstore\n  dup1\n  0x0b\n  dup2\n  mstore\n  0x20\n  add\n  0x43616e6469646174652035000000000000000000000000000000000000000000\n  dup2\n  mstore\n  pop\n    /* \"contracts/ergasia.sol\":2821:2833  addCandidate */\n  shl(0x20, tag_26)\n    /* \"contracts/ergasia.sol\":2821:2848  addCandidate(\"Candidate 5\") */\n  0x20\n  shr\n  jump\t// in\ntag_30:\n    /* \"contracts/ergasia.sol\":2628:2855  function initCandidates() internal {... */\n  jump\t// out\n    /* \"contracts/ergasia.sol\":4025:4686  function addPollingStation (string memory _name) private {... */\ntag_14:\n    /* \"contracts/ergasia.sol\":4092:4111  pollingStationCount */\n  0x02\n  0x00\n    /* \"contracts/ergasia.sol\":4092:4113  pollingStationCount++ */\n  dup2\n  sload\n  dup1\n  swap3\n  swap2\n  swap1\n  tag_32\n  swap1\n  tag_33\n  jump\t// in\ntag_32:\n  swap2\n  swap1\n  pop\n  sstore\n  pop\n    /* \"contracts/ergasia.sol\":4235:4269  PollingStation storage pollStation */\n  0x00\n    /* \"contracts/ergasia.sol\":4272:4287  pollingStations */\n  0x08\n    /* \"contracts/ergasia.sol\":4272:4308  pollingStations[pollingStationCount] */\n  0x00\n    /* \"contracts/ergasia.sol\":4288:4307  pollingStationCount */\n  sload(0x02)\n    /* \"contracts/ergasia.sol\":4272:4308  pollingStations[pollingStationCount] */\n  dup2\n  mstore\n  0x20\n  add\n  swap1\n  dup2\n  mstore\n  0x20\n  add\n  0x00\n  keccak256\n    /* \"contracts/ergasia.sol\":4235:4308  PollingStation storage pollStation = pollingStations[pollingStationCount] */\n  swap1\n  pop\n    /* \"contracts/ergasia.sol\":4335:4354  pollingStationCount */\n  sload(0x02)\n    /* \"contracts/ergasia.sol\":4318:4329  pollStation */\n  dup2\n    /* \"contracts/ergasia.sol\":4318:4332  pollStation.id */\n  0x00\n  add\n    /* \"contracts/ergasia.sol\":4318:4354  pollStation.id = pollingStationCount */\n  dup2\n  swap1\n  sstore\n  pop\n    /* \"contracts/ergasia.sol\":4383:4388  _name */\n  dup2\n    /* \"contracts/ergasia.sol\":4364:4375  pollStation */\n  dup2\n    /* \"contracts/ergasia.sol\":4364:4380  pollStation.name */\n  0x01\n  add\n    /* \"contracts/ergasia.sol\":4364:4388  pollStation.name = _name */\n  swap1\n  dup1\n  mload\n  swap1\n  0x20\n  add\n  swap1\n  tag_34\n  swap3\n  swap2\n  swap1\n  tag_35\n  jump\t// in\ntag_34:\n  pop\n    /* \"contracts/ergasia.sol\":4429:4430  0 */\n  0x00\n    /* \"contracts/ergasia.sol\":4398:4409  pollStation */\n  dup2\n    /* \"contracts/ergasia.sol\":4398:4426  pollStation.votersRegistered */\n  0x02\n  add\n    /* \"contracts/ergasia.sol\":4398:4430  pollStation.votersRegistered = 0 */\n  dup2\n  swap1\n  sstore\n  pop\n    /* \"contracts/ergasia.sol\":4466:4467  0 */\n  0x00\n    /* \"contracts/ergasia.sol\":4440:4451  pollStation */\n  dup2\n    /* \"contracts/ergasia.sol\":4440:4463  pollStation.votesCasted */\n  0x03\n  add\n    /* \"contracts/ergasia.sol\":4440:4467  pollStation.votesCasted = 0 */\n  dup2\n  swap1\n  sstore\n  pop\n    /* \"contracts/ergasia.sol\":4082:4686  {... */\n  pop\n    /* \"contracts/ergasia.sol\":4025:4686  function addPollingStation (string memory _name) private {... */\n  pop\n  jump\t// out\n    /* \"contracts/ergasia.sol\":2975:3313  function addCandidate (string memory _name) private {... */\ntag_26:\n    /* \"contracts/ergasia.sol\":3037:3052  candidatesCount */\n  0x01\n  0x00\n    /* \"contracts/ergasia.sol\":3037:3054  candidatesCount++ */\n  dup2\n  sload\n  dup1\n  swap3\n  swap2\n  swap1\n  tag_37\n  swap1\n  tag_33\n  jump\t// in\ntag_37:\n  swap2\n  swap1\n  pop\n  sstore\n  pop\n    /* \"contracts/ergasia.sol\":3094:3130  Candidate(candidatesCount, _name, 0) */\n  mload(0x40)\n  dup1\n  0x60\n  add\n  0x40\n  mstore\n  dup1\n    /* \"contracts/ergasia.sol\":3104:3119  candidatesCount */\n  sload(0x01)\n    /* \"contracts/ergasia.sol\":3094:3130  Candidate(candidatesCount, _name, 0) */\n  dup2\n  mstore\n  0x20\n  add\n    /* \"contracts/ergasia.sol\":3121:3126  _name */\n  dup3\n    /* \"contracts/ergasia.sol\":3094:3130  Candidate(candidatesCount, _name, 0) */\n  dup2\n  mstore\n  0x20\n  add\n    /* \"contracts/ergasia.sol\":3128:3129  0 */\n  0x00\n    /* \"contracts/ergasia.sol\":3094:3130  Candidate(candidatesCount, _name, 0) */\n  dup2\n  mstore\n  pop\n    /* \"contracts/ergasia.sol\":3064:3074  candidates */\n  0x06\n    /* \"contracts/ergasia.sol\":3064:3091  candidates[candidatesCount] */\n  0x00\n    /* \"contracts/ergasia.sol\":3075:3090  candidatesCount */\n  sload(0x01)\n    /* \"contracts/ergasia.sol\":3064:3091  candidates[candidatesCount] */\n  dup2\n  mstore\n  0x20\n  add\n  swap1\n  dup2\n  mstore\n  0x20\n  add\n  0x00\n  keccak256\n    /* \"contracts/ergasia.sol\":3064:3130  candidates[candidatesCount] = Candidate(candidatesCount, _name, 0) */\n  0x00\n  dup3\n  add\n  mload\n  dup2\n  0x00\n  add\n  sstore\n  0x20\n  dup3\n  add\n  mload\n  dup2\n  0x01\n  add\n  swap1\n  dup1\n  mload\n  swap1\n  0x20\n  add\n  swap1\n  tag_38\n  swap3\n  swap2\n  swap1\n  tag_35\n  jump\t// in\ntag_38:\n  pop\n  0x40\n  dup3\n  add\n  mload\n  dup2\n  0x02\n  add\n  sstore\n  swap1\n  pop\n  pop\n    /* \"contracts/ergasia.sol\":3146:3152  uint i */\n  0x00\n    /* \"contracts/ergasia.sol\":3155:3156  1 */\n  0x01\n    /* \"contracts/ergasia.sol\":3146:3156  uint i = 1 */\n  swap1\n  pop\n    /* \"contracts/ergasia.sol\":3141:3307  for (uint i = 1; i <= pollingStationCount; i++) {... */\ntag_39:\n    /* \"contracts/ergasia.sol\":3163:3182  pollingStationCount */\n  sload(0x02)\n    /* \"contracts/ergasia.sol\":3158:3159  i */\n  dup2\n    /* \"contracts/ergasia.sol\":3158:3182  i <= pollingStationCount */\n  gt\n    /* \"contracts/ergasia.sol\":3141:3307  for (uint i = 1; i <= pollingStationCount; i++) {... */\n  tag_40\n  jumpi\n    /* \"contracts/ergasia.sol\":3260:3296  Candidate(candidatesCount, _name, 0) */\n  mload(0x40)\n  dup1\n  0x60\n  add\n  0x40\n  mstore\n  dup1\n    /* \"contracts/ergasia.sol\":3270:3285  candidatesCount */\n  sload(0x01)\n    /* \"contracts/ergasia.sol\":3260:3296  Candidate(candidatesCount, _name, 0) */\n  dup2\n  mstore\n  0x20\n  add\n    /* \"contracts/ergasia.sol\":3287:3292  _name */\n  dup4\n    /* \"contracts/ergasia.sol\":3260:3296  Candidate(candidatesCount, _name, 0) */\n  dup2\n  mstore\n  0x20\n  add\n    /* \"contracts/ergasia.sol\":3294:3295  0 */\n  0x00\n    /* \"contracts/ergasia.sol\":3260:3296  Candidate(candidatesCount, _name, 0) */\n  dup2\n  mstore\n  pop\n    /* \"contracts/ergasia.sol\":3203:3218  pollingStations */\n  0x08\n    /* \"contracts/ergasia.sol\":3203:3221  pollingStations[i] */\n  0x00\n    /* \"contracts/ergasia.sol\":3219:3220  i */\n  dup4\n    /* \"contracts/ergasia.sol\":3203:3221  pollingStations[i] */\n  dup2\n  mstore\n  0x20\n  add\n  swap1\n  dup2\n  mstore\n  0x20\n  add\n  0x00\n  keccak256\n    /* \"contracts/ergasia.sol\":3203:3240  pollingStations[i].scoresPerCandidate */\n  0x04\n  add\n    /* \"contracts/ergasia.sol\":3203:3257  pollingStations[i].scoresPerCandidate[candidatesCount] */\n  0x00\n    /* \"contracts/ergasia.sol\":3241:3256  candidatesCount */\n  sload(0x01)\n    /* \"contracts/ergasia.sol\":3203:3257  pollingStations[i].scoresPerCandidate[candidatesCount] */\n  dup2\n  mstore\n  0x20\n  add\n  swap1\n  dup2\n  mstore\n  0x20\n  add\n  0x00\n  keccak256\n    /* \"contracts/ergasia.sol\":3203:3296  pollingStations[i].scoresPerCandidate[candidatesCount] = Candidate(candidatesCount, _name, 0) */\n  0x00\n  dup3\n  add\n  mload\n  dup2\n  0x00\n  add\n  sstore\n  0x20\n  dup3\n  add\n  mload\n  dup2\n  0x01\n  add\n  swap1\n  dup1\n  mload\n  swap1\n  0x20\n  add\n  swap1\n  tag_42\n  swap3\n  swap2\n  swap1\n  tag_35\n  jump\t// in\ntag_42:\n  pop\n  0x40\n  dup3\n  add\n  mload\n  dup2\n  0x02\n  add\n  sstore\n  swap1\n  pop\n  pop\n    /* \"contracts/ergasia.sol\":3184:3187  i++ */\n  dup1\n  dup1\n  tag_43\n  swap1\n  tag_33\n  jump\t// in\ntag_43:\n  swap2\n  pop\n  pop\n    /* \"contracts/ergasia.sol\":3141:3307  for (uint i = 1; i <= pollingStationCount; i++) {... */\n  jump(tag_39)\ntag_40:\n  pop\n    /* \"contracts/ergasia.sol\":2975:3313  function addCandidate (string memory _name) private {... */\n  pop\n  jump\t// out\n    /* \"contracts/ergasia.sol\":70:8107  contract Election {... */\ntag_35:\n  dup3\n  dup1\n  sload\n  tag_44\n  swap1\n  tag_45\n  jump\t// in\ntag_44:\n  swap1\n  0x00\n  mstore\n  keccak256(0x00, 0x20)\n  swap1\n  0x1f\n  add\n  0x20\n  swap1\n  div\n  dup2\n  add\n  swap3\n  dup3\n  tag_47\n  jumpi\n  0x00\n  dup6\n  sstore\n  jump(tag_46)\ntag_47:\n  dup3\n  0x1f\n  lt\n  tag_48\n  jumpi\n  dup1\n  mload\n  not(0xff)\n  and\n  dup4\n  dup1\n  add\n  or\n  dup6\n  sstore\n  jump(tag_46)\ntag_48:\n  dup3\n  dup1\n  add\n  0x01\n  add\n  dup6\n  sstore\n  dup3\n  iszero\n  tag_46\n  jumpi\n  swap2\n  dup3\n  add\ntag_49:\n  dup3\n  dup2\n  gt\n  iszero\n  tag_50\n  jumpi\n  dup3\n  mload\n  dup3\n  sstore\n  swap2\n  0x20\n  add\n  swap2\n  swap1\n  0x01\n  add\n  swap1\n  jump(tag_49)\ntag_50:\ntag_46:\n  pop\n  swap1\n  pop\n  tag_51\n  swap2\n  swap1\n  tag_52\n  jump\t// in\ntag_51:\n  pop\n  swap1\n  jump\t// out\ntag_52:\ntag_53:\n  dup1\n  dup3\n  gt\n  iszero\n  tag_54\n  jumpi\n  0x00\n  dup2\n  0x00\n  swap1\n  sstore\n  pop\n  0x01\n  add\n  jump(tag_53)\ntag_54:\n  pop\n  swap1\n  jump\t// out\n    /* \"#utility.yul\":7:84   */\ntag_56:\n    /* \"#utility.yul\":44:51   */\n  0x00\n    /* \"#utility.yul\":73:78   */\n  dup2\n    /* \"#utility.yul\":62:78   */\n  swap1\n  pop\n    /* \"#utility.yul\":7:84   */\n  swap2\n  swap1\n  pop\n  jump\t// out\n    /* \"#utility.yul\":90:410   */\ntag_45:\n    /* \"#utility.yul\":134:140   */\n  0x00\n    /* \"#utility.yul\":171:172   */\n  0x02\n    /* \"#utility.yul\":165:169   */\n  dup3\n    /* \"#utility.yul\":161:173   */\n  div\n    /* \"#utility.yul\":151:173   */\n  swap1\n  pop\n    /* \"#utility.yul\":218:219   */\n  0x01\n    /* \"#utility.yul\":212:216   */\n  dup3\n    /* \"#utility.yul\":208:220   */\n  and\n    /* \"#utility.yul\":239:257   */\n  dup1\n    /* \"#utility.yul\":229:310   */\n  tag_59\n  jumpi\n    /* \"#utility.yul\":295:299   */\n  0x7f\n    /* \"#utility.yul\":287:293   */\n  dup3\n    /* \"#utility.yul\":283:300   */\n  and\n    /* \"#utility.yul\":273:300   */\n  swap2\n  pop\n    /* \"#utility.yul\":229:310   */\ntag_59:\n    /* \"#utility.yul\":357:359   */\n  0x20\n    /* \"#utility.yul\":349:355   */\n  dup3\n    /* \"#utility.yul\":346:360   */\n  lt\n    /* \"#utility.yul\":326:344   */\n  dup2\n    /* \"#utility.yul\":323:361   */\n  eq\n    /* \"#utility.yul\":320:404   */\n  iszero\n  tag_60\n  jumpi\n    /* \"#utility.yul\":376:394   */\n  tag_61\n  tag_62\n  jump\t// in\ntag_61:\n    /* \"#utility.yul\":320:404   */\ntag_60:\n    /* \"#utility.yul\":141:410   */\n  pop\n    /* \"#utility.yul\":90:410   */\n  swap2\n  swap1\n  pop\n  jump\t// out\n    /* \"#utility.yul\":416:649   */\ntag_33:\n    /* \"#utility.yul\":455:458   */\n  0x00\n    /* \"#utility.yul\":478:502   */\n  tag_64\n    /* \"#utility.yul\":496:501   */\n  dup3\n    /* \"#utility.yul\":478:502   */\n  tag_56\n  jump\t// in\ntag_64:\n    /* \"#utility.yul\":469:502   */\n  swap2\n  pop\n    /* \"#utility.yul\":524:590   */\n  0xffffffffffffffffffffffffffffffffffffffffffffffffffffffffffffffff\n    /* \"#utility.yul\":517:522   */\n  dup3\n    /* \"#utility.yul\":514:591   */\n  eq\n    /* \"#utility.yul\":511:614   */\n  iszero\n  tag_65\n  jumpi\n    /* \"#utility.yul\":594:612   */\n  tag_66\n  tag_67\n  jump\t// in\ntag_66:\n    /* \"#utility.yul\":511:614   */\ntag_65:\n    /* \"#utility.yul\":641:642   */\n  0x01\n    /* \"#utility.yul\":634:639   */\n  dup3\n    /* \"#utility.yul\":630:643   */\n  add\n    /* \"#utility.yul\":623:643   */\n  swap1\n  pop\n    /* \"#utility.yul\":416:649   */\n  swap2\n  swap1\n  pop\n  jump\t// out\n    /* \"#utility.yul\":655:835   */\ntag_67:\n    /* \"#utility.yul\":703:780   */\n  0x4e487b7100000000000000000000000000000000000000000000000000000000\n    /* \"#utility.yul\":700:701   */\n  0x00\n    /* \"#utility.yul\":693:781   */\n  mstore\n    /* \"#utility.yul\":800:804   */\n  0x11\n    /* \"#utility.yul\":797:798   */\n  0x04\n    /* \"#utility.yul\":790:805   */\n  mstore\n    /* \"#utility.yul\":824:828   */\n  0x24\n    /* \"#utility.yul\":821:822   */\n  0x00\n    /* \"#utility.yul\":814:829   */\n  revert\n    /* \"#utility.yul\":841:1021   */\ntag_10:\n    /* \"#utility.yul\":889:966   */\n  0x4e487b7100000000000000000000000000000000000000000000000000000000\n    /* \"#utility.yul\":886:887   */\n  0x00\n    /* \"#utility.yul\":879:967   */\n  mstore\n    /* \"#utility.yul\":986:990   */\n  0x21\n    /* \"#utility.yul\":983:984   */\n  0x04\n    /* \"#utility.yul\":976:991   */\n  mstore\n    /* \"#utility.yul\":1010:1014   */\n  0x24\n    /* \"#utility.yul\":1007:1008   */\n  0x00\n    /* \"#utility.yul\":1000:1015   */\n  revert\n    /* \"#utility.yul\":1027:1207   */\ntag_62:\n    /* \"#utility.yul\":1075:1152   */\n  0x4e487b7100000000000000000000000000000000000000000000000000000000\n    /* \"#utility.yul\":1072:1073   */\n  0x00\n    /* \"#utility.yul\":1065:1153   */\n  mstore\n    /* \"#utility.yul\":1172:1176   */\n  0x22\n    /* \"#utility.yul\":1169:1170   */\n  0x04\n    /* \"#utility.yul\":1162:1177   */\n  mstore\n    /* \"#utility.yul\":1196:1200   */\n  0x24\n    /* \"#utility.yul\":1193:1194   */\n  0x00\n    /* \"#utility.yul\":1186:1201   */\n  revert\n    /* \"contracts/ergasia.sol\":70:8107  contract Election {... */\ntag_11:\n  dataSize(sub_0)\n  dup1\n  dataOffset(sub_0)\n  0x00\n  codecopy\n  0x00\n  return\nstop\n\nsub_0: assembly {\n        /* \"contracts/ergasia.sol\":70:8107  contract Election {... */\n      mstore(0x40, 0x80)\n      callvalue\n      dup1\n      iszero\n      tag_1\n      jumpi\n      0x00\n      dup1\n      revert\n    tag_1:\n      pop\n      jumpi(tag_2, lt(calldatasize, 0x04))\n      shr(0xe0, calldataload(0x00))\n      dup1\n      0x53357ad0\n      gt\n      tag_20\n      jumpi\n      dup1\n      0xc19d93fb\n      gt\n      tag_21\n      jumpi\n      dup1\n      0xc19d93fb\n      eq\n      tag_15\n      jumpi\n      dup1\n      0xd3808ae0\n      eq\n      tag_16\n      jumpi\n      dup1\n      0xdf9f1a07\n      eq\n      tag_17\n      jumpi\n      dup1\n      0xf3a8286f\n      eq\n      tag_18\n      jumpi\n      dup1\n      0xfe2442d7\n      eq\n      tag_19\n      jumpi\n      jump(tag_2)\n    tag_21:\n      dup1\n      0x53357ad0\n      eq\n      tag_11\n      jumpi\n      dup1\n      0xa3ec138d\n      eq\n      tag_12\n      jumpi\n      dup1\n      0xb9223946\n      eq\n      tag_13\n      jumpi\n      dup1\n      0xb9f05f2f\n      eq\n      tag_14\n      jumpi\n      jump(tag_2)\n    tag_20:\n      dup1\n      0x2d35a8a2\n      gt\n      tag_22\n      jumpi\n      dup1\n      0x2d35a8a2\n      eq\n      tag_7\n      jumpi\n      dup1\n      0x3477ee2e\n      eq\n      tag_8\n      jumpi\n      dup1\n      0x4763d4e7\n      eq\n      tag_9\n      jumpi\n      dup1\n      0x4c0a6af0\n      eq\n      tag_10\n      jumpi\n      jump(tag_2)\n    tag_22:\n      dup1\n      0xaa7464\n      eq\n      tag_3\n      jumpi\n      dup1\n      0x23a1b11c\n      eq\n      tag_4\n      jumpi\n      dup1\n      0x2a41742e\n      eq\n      tag_5\n      jumpi\n      dup1\n      0x2c0a3f89\n      eq\n      tag_6\n      jumpi\n    tag_2:\n      0x00\n      dup1\n      revert\n        /* \"contracts/ergasia.sol\":1418:1451  uint public totalRegisteredVoters */\n    tag_3:\n      tag_23\n      tag_24\n      jump\t// in\n    tag_23:\n      mload(0x40)\n      tag_25\n      swap2\n      swap1\n      tag_26\n      jump\t// in\n    tag_25:\n      mload(0x40)\n      dup1\n      swap2\n      sub\n      swap1\n      return\n        /* \"contracts/ergasia.sol\":7811:8104  function getResultsPerStation(uint _pStationID) public view returns (uint[] memory) {... */\n    tag_4:\n      tag_27\n      0x04\n      dup1\n      calldatasize\n      sub\n      dup2\n      add\n      swap1\n      tag_28\n      swap2\n      swap1\n      tag_29\n      jump\t// in\n    tag_28:\n      tag_30\n      jump\t// in\n    tag_27:\n      mload(0x40)\n      tag_31\n      swap2\n      swap1\n      tag_32\n      jump\t// in\n    tag_31:\n      mload(0x40)\n      dup1\n      swap2\n      sub\n      swap1\n      return\n        /* \"contracts/ergasia.sol\":7608:7805  function getResultsPerCandidatePerStation(uint _pStationID, uint _candidateID) public view returns (uint) {... */\n    tag_5:\n      tag_33\n      0x04\n      dup1\n      calldatasize\n      sub\n      dup2\n      add\n      swap1\n      tag_34\n      swap2\n      swap1\n      tag_35\n      jump\t// in\n    tag_34:\n      tag_36\n      jump\t// in\n    tag_33:\n      mload(0x40)\n      tag_37\n      swap2\n      swap1\n      tag_26\n      jump\t// in\n    tag_37:\n      mload(0x40)\n      dup1\n      swap2\n      sub\n      swap1\n      return\n        /* \"contracts/ergasia.sol\":6464:7272  function castVote(uint _choice, uint _pollingStationID) public inState(State.Voting) returns (bool voted) {... */\n    tag_6:\n      tag_38\n      0x04\n      dup1\n      calldatasize\n      sub\n      dup2\n      add\n      swap1\n      tag_39\n      swap2\n      swap1\n      tag_35\n      jump\t// in\n    tag_39:\n      tag_40\n      jump\t// in\n    tag_38:\n      mload(0x40)\n      tag_41\n      swap2\n      swap1\n      tag_42\n      jump\t// in\n    tag_41:\n      mload(0x40)\n      dup1\n      swap2\n      sub\n      swap1\n      return\n        /* \"contracts/ergasia.sol\":1276:1303  uint public candidatesCount */\n    tag_7:\n      tag_43\n      tag_44\n      jump\t// in\n    tag_43:\n      mload(0x40)\n      tag_45\n      swap2\n      swap1\n      tag_26\n      jump\t// in\n    tag_45:\n      mload(0x40)\n      dup1\n      swap2\n      sub\n      swap1\n      return\n        /* \"contracts/ergasia.sol\":1621:1665  mapping(uint => Candidate) public candidates */\n    tag_8:\n      tag_46\n      0x04\n      dup1\n      calldatasize\n      sub\n      dup2\n      add\n      swap1\n      tag_47\n      swap2\n      swap1\n      tag_29\n      jump\t// in\n    tag_47:\n      tag_48\n      jump\t// in\n    tag_46:\n      mload(0x40)\n      tag_49\n      swap4\n      swap3\n      swap2\n      swap1\n      tag_50\n      jump\t// in\n    tag_49:\n      mload(0x40)\n      dup1\n      swap2\n      sub\n      swap1\n      return\n        /* \"contracts/ergasia.sol\":1880:1926  mapping(address => Voter) public voterRegistry */\n    tag_9:\n      tag_51\n      0x04\n      dup1\n      calldatasize\n      sub\n      dup2\n      add\n      swap1\n      tag_52\n      swap2\n      swap1\n      tag_53\n      jump\t// in\n    tag_52:\n      tag_54\n      jump\t// in\n    tag_51:\n      mload(0x40)\n      tag_55\n      swap6\n      swap5\n      swap4\n      swap3\n      swap2\n      swap1\n      tag_56\n      jump\t// in\n    tag_55:\n      mload(0x40)\n      dup1\n      swap2\n      sub\n      swap1\n      return\n        /* \"contracts/ergasia.sol\":6364:6458  function startVote() public inState(State.Created) Owner {... */\n    tag_10:\n      tag_57\n      tag_58\n      jump\t// in\n    tag_57:\n      stop\n        /* \"contracts/ergasia.sol\":1242:1270  address public electionOwner */\n    tag_11:\n      tag_59\n      tag_60\n      jump\t// in\n    tag_59:\n      mload(0x40)\n      tag_61\n      swap2\n      swap1\n      tag_62\n      jump\t// in\n    tag_61:\n      mload(0x40)\n      dup1\n      swap2\n      sub\n      swap1\n      return\n        /* \"contracts/ergasia.sol\":1932:1970  mapping(address => bool) public voters */\n    tag_12:\n      tag_63\n      0x04\n      dup1\n      calldatasize\n      sub\n      dup2\n      add\n      swap1\n      tag_64\n      swap2\n      swap1\n      tag_53\n      jump\t// in\n    tag_64:\n      tag_65\n      jump\t// in\n    tag_63:\n      mload(0x40)\n      tag_66\n      swap2\n      swap1\n      tag_42\n      jump\t// in\n    tag_66:\n      mload(0x40)\n      dup1\n      swap2\n      sub\n      swap1\n      return\n        /* \"contracts/ergasia.sol\":7278:7404  function endVote() public inState(State.Voting) Owner { ... */\n    tag_13:\n      tag_67\n      tag_68\n      jump\t// in\n    tag_67:\n      stop\n        /* \"contracts/ergasia.sol\":4910:5830  function addVoter(address _voterAddress, uint _pollingStationID) public inState(State.Created) Owner {... */\n    tag_14:\n      tag_69\n      0x04\n      dup1\n      calldatasize\n      sub\n      dup2\n      add\n      swap1\n      tag_70\n      swap2\n      swap1\n      tag_71\n      jump\t// in\n    tag_70:\n      tag_72\n      jump\t// in\n    tag_69:\n      stop\n        /* \"contracts/ergasia.sol\":2023:2041  State public state */\n    tag_15:\n      tag_73\n      tag_74\n      jump\t// in\n    tag_73:\n      mload(0x40)\n      tag_75\n      swap2\n      swap1\n      tag_76\n      jump\t// in\n    tag_75:\n      mload(0x40)\n      dup1\n      swap2\n      sub\n      swap1\n      return\n        /* \"contracts/ergasia.sol\":7410:7602  function getResultsPerStation1(uint _pStationID, uint _candidateID) public view returns (Candidate memory) {... */\n    tag_16:\n      tag_77\n      0x04\n      dup1\n      calldatasize\n      sub\n      dup2\n      add\n      swap1\n      tag_78\n      swap2\n      swap1\n      tag_35\n      jump\t// in\n    tag_78:\n      tag_79\n      jump\t// in\n    tag_77:\n      mload(0x40)\n      tag_80\n      swap2\n      swap1\n      tag_81\n      jump\t// in\n    tag_80:\n      mload(0x40)\n      dup1\n      swap2\n      sub\n      swap1\n      return\n        /* \"contracts/ergasia.sol\":1344:1375  uint public pollingStationCount */\n    tag_17:\n      tag_82\n      tag_83\n      jump\t// in\n    tag_82:\n      mload(0x40)\n      tag_84\n      swap2\n      swap1\n      tag_26\n      jump\t// in\n    tag_84:\n      mload(0x40)\n      dup1\n      swap2\n      sub\n      swap1\n      return\n        /* \"contracts/ergasia.sol\":1539:1562  uint public finalResult */\n    tag_18:\n      tag_85\n      tag_86\n      jump\t// in\n    tag_85:\n      mload(0x40)\n      tag_87\n      swap2\n      swap1\n      tag_26\n      jump\t// in\n    tag_87:\n      mload(0x40)\n      dup1\n      swap2\n      sub\n      swap1\n      return\n        /* \"contracts/ergasia.sol\":1794:1848  mapping(uint => PollingStation) public pollingStations */\n    tag_19:\n      tag_88\n      0x04\n      dup1\n      calldatasize\n      sub\n      dup2\n      add\n      swap1\n      tag_89\n      swap2\n      swap1\n      tag_29\n      jump\t// in\n    tag_89:\n      tag_90\n      jump\t// in\n    tag_88:\n      mload(0x40)\n      tag_91\n      swap5\n      swap4\n      swap3\n      swap2\n      swap1\n      tag_92\n      jump\t// in\n    tag_91:\n      mload(0x40)\n      dup1\n      swap2\n      sub\n      swap1\n      return\n        /* \"contracts/ergasia.sol\":1418:1451  uint public totalRegisteredVoters */\n    tag_24:\n      sload(0x03)\n      dup2\n      jump\t// out\n        /* \"contracts/ergasia.sol\":7811:8104  function getResultsPerStation(uint _pStationID) public view returns (uint[] memory) {... */\n    tag_30:\n        /* \"contracts/ergasia.sol\":7880:7893  uint[] memory */\n      0x60\n        /* \"contracts/ergasia.sol\":7905:7923  uint[] memory list */\n      dup1\n        /* \"contracts/ergasia.sol\":7947:7953  uint i */\n      0x00\n        /* \"contracts/ergasia.sol\":7956:7957  1 */\n      0x01\n        /* \"contracts/ergasia.sol\":7947:7957  uint i = 1 */\n      swap1\n      pop\n        /* \"contracts/ergasia.sol\":7942:8077  for (uint i = 1; i <= candidatesCount; i++) {... */\n    tag_94:\n        /* \"contracts/ergasia.sol\":7964:7979  candidatesCount */\n      sload(0x01)\n        /* \"contracts/ergasia.sol\":7959:7960  i */\n      dup2\n        /* \"contracts/ergasia.sol\":7959:7979  i <= candidatesCount */\n      gt\n        /* \"contracts/ergasia.sol\":7942:8077  for (uint i = 1; i <= candidatesCount; i++) {... */\n      tag_95\n      jumpi\n        /* \"contracts/ergasia.sol\":8009:8024  pollingStations */\n      0x08\n        /* \"contracts/ergasia.sol\":8009:8037  pollingStations[_pStationID] */\n      0x00\n        /* \"contracts/ergasia.sol\":8025:8036  _pStationID */\n      dup6\n        /* \"contracts/ergasia.sol\":8009:8037  pollingStations[_pStationID] */\n      dup2\n      mstore\n      0x20\n      add\n      swap1\n      dup2\n      mstore\n      0x20\n      add\n      0x00\n      keccak256\n        /* \"contracts/ergasia.sol\":8009:8056  pollingStations[_pStationID].scoresPerCandidate */\n      0x04\n      add\n        /* \"contracts/ergasia.sol\":8009:8059  pollingStations[_pStationID].scoresPerCandidate[i] */\n      0x00\n        /* \"contracts/ergasia.sol\":8057:8058  i */\n      dup3\n        /* \"contracts/ergasia.sol\":8009:8059  pollingStations[_pStationID].scoresPerCandidate[i] */\n      dup2\n      mstore\n      0x20\n      add\n      swap1\n      dup2\n      mstore\n      0x20\n      add\n      0x00\n      keccak256\n        /* \"contracts/ergasia.sol\":8009:8065  pollingStations[_pStationID].scoresPerCandidate[i].votes */\n      0x02\n      add\n      sload\n        /* \"contracts/ergasia.sol\":7999:8003  list */\n      dup3\n        /* \"contracts/ergasia.sol\":8004:8005  i */\n      dup3\n        /* \"contracts/ergasia.sol\":7999:8006  list[i] */\n      dup2\n      mload\n      dup2\n      lt\n      tag_97\n      jumpi\n      tag_98\n      tag_99\n      jump\t// in\n    tag_98:\n    tag_97:\n      0x20\n      mul\n      0x20\n      add\n      add\n        /* \"contracts/ergasia.sol\":7999:8065  list[i] = pollingStations[_pStationID].scoresPerCandidate[i].votes */\n      dup2\n      dup2\n      mstore\n      pop\n      pop\n        /* \"contracts/ergasia.sol\":7981:7984  i++ */\n      dup1\n      dup1\n      tag_100\n      swap1\n      tag_101\n      jump\t// in\n    tag_100:\n      swap2\n      pop\n      pop\n        /* \"contracts/ergasia.sol\":7942:8077  for (uint i = 1; i <= candidatesCount; i++) {... */\n      jump(tag_94)\n    tag_95:\n      pop\n        /* \"contracts/ergasia.sol\":8093:8097  list */\n      dup1\n        /* \"contracts/ergasia.sol\":8086:8097  return list */\n      swap2\n      pop\n      pop\n        /* \"contracts/ergasia.sol\":7811:8104  function getResultsPerStation(uint _pStationID) public view returns (uint[] memory) {... */\n      swap2\n      swap1\n      pop\n      jump\t// out\n        /* \"contracts/ergasia.sol\":7608:7805  function getResultsPerCandidatePerStation(uint _pStationID, uint _candidateID) public view returns (uint) {... */\n    tag_36:\n        /* \"contracts/ergasia.sol\":7708:7712  uint */\n      0x00\n        /* \"contracts/ergasia.sol\":7731:7746  pollingStations */\n      0x08\n        /* \"contracts/ergasia.sol\":7731:7759  pollingStations[_pStationID] */\n      0x00\n        /* \"contracts/ergasia.sol\":7747:7758  _pStationID */\n      dup5\n        /* \"contracts/ergasia.sol\":7731:7759  pollingStations[_pStationID] */\n      dup2\n      mstore\n      0x20\n      add\n      swap1\n      dup2\n      mstore\n      0x20\n      add\n      0x00\n      keccak256\n        /* \"contracts/ergasia.sol\":7731:7778  pollingStations[_pStationID].scoresPerCandidate */\n      0x04\n      add\n        /* \"contracts/ergasia.sol\":7731:7792  pollingStations[_pStationID].scoresPerCandidate[_candidateID] */\n      0x00\n        /* \"contracts/ergasia.sol\":7779:7791  _candidateID */\n      dup4\n        /* \"contracts/ergasia.sol\":7731:7792  pollingStations[_pStationID].scoresPerCandidate[_candidateID] */\n      dup2\n      mstore\n      0x20\n      add\n      swap1\n      dup2\n      mstore\n      0x20\n      add\n      0x00\n      keccak256\n        /* \"contracts/ergasia.sol\":7731:7798  pollingStations[_pStationID].scoresPerCandidate[_candidateID].votes */\n      0x02\n      add\n      sload\n        /* \"contracts/ergasia.sol\":7724:7798  return pollingStations[_pStationID].scoresPerCandidate[_candidateID].votes */\n      swap1\n      pop\n        /* \"contracts/ergasia.sol\":7608:7805  function getResultsPerCandidatePerStation(uint _pStationID, uint _candidateID) public view returns (uint) {... */\n      swap3\n      swap2\n      pop\n      pop\n      jump\t// out\n        /* \"contracts/ergasia.sol\":6464:7272  function castVote(uint _choice, uint _pollingStationID) public inState(State.Voting) returns (bool voted) {... */\n    tag_40:\n        /* \"contracts/ergasia.sol\":6558:6568  bool voted */\n      0x00\n        /* \"contracts/ergasia.sol\":6535:6547  State.Voting */\n      0x01\n        /* \"contracts/ergasia.sol\":2193:2199  _state */\n      dup1\n        /* \"contracts/ergasia.sol\":2184:2199  state == _state */\n      0x02\n      dup2\n      gt\n      iszero\n      tag_104\n      jumpi\n      tag_105\n      tag_106\n      jump\t// in\n    tag_105:\n    tag_104:\n        /* \"contracts/ergasia.sol\":2184:2189  state */\n      0x0b\n      0x00\n      swap1\n      sload\n      swap1\n      0x0100\n      exp\n      swap1\n      div\n      0xff\n      and\n        /* \"contracts/ergasia.sol\":2184:2199  state == _state */\n      0x02\n      dup2\n      gt\n      iszero\n      tag_107\n      jumpi\n      tag_108\n      tag_106\n      jump\t// in\n    tag_108:\n    tag_107:\n      eq\n        /* \"contracts/ergasia.sol\":2176:2200  require(state == _state) */\n      tag_109\n      jumpi\n      0x00\n      dup1\n      revert\n    tag_109:\n        /* \"contracts/ergasia.sol\":6581:6591  bool found */\n      0x00\n        /* \"contracts/ergasia.sol\":6614:6627  voterRegistry */\n      0x09\n        /* \"contracts/ergasia.sol\":6614:6639  voterRegistry[msg.sender] */\n      0x00\n        /* \"contracts/ergasia.sol\":6628:6638  msg.sender */\n      caller\n        /* \"contracts/ergasia.sol\":6614:6639  voterRegistry[msg.sender] */\n      0xffffffffffffffffffffffffffffffffffffffff\n      and\n      0xffffffffffffffffffffffffffffffffffffffff\n      and\n      dup2\n      mstore\n      0x20\n      add\n      swap1\n      dup2\n      mstore\n      0x20\n      add\n      0x00\n      keccak256\n        /* \"contracts/ergasia.sol\":6614:6650  voterRegistry[msg.sender].isEnrolled */\n      0x00\n      add\n      0x00\n      swap1\n      sload\n      swap1\n      0x0100\n      exp\n      swap1\n      div\n      0xff\n      and\n        /* \"contracts/ergasia.sol\":6614:6689  voterRegistry[msg.sender].isEnrolled && !voterRegistry[msg.sender].hasVoted */\n      dup1\n      iszero\n      tag_111\n      jumpi\n      pop\n        /* \"contracts/ergasia.sol\":6655:6668  voterRegistry */\n      0x09\n        /* \"contracts/ergasia.sol\":6655:6680  voterRegistry[msg.sender] */\n      0x00\n        /* \"contracts/ergasia.sol\":6669:6679  msg.sender */\n      caller\n        /* \"contracts/ergasia.sol\":6655:6680  voterRegistry[msg.sender] */\n      0xffffffffffffffffffffffffffffffffffffffff\n      and\n      0xffffffffffffffffffffffffffffffffffffffff\n      and\n      dup2\n      mstore\n      0x20\n      add\n      swap1\n      dup2\n      mstore\n      0x20\n      add\n      0x00\n      keccak256\n        /* \"contracts/ergasia.sol\":6655:6689  voterRegistry[msg.sender].hasVoted */\n      0x00\n      add\n      0x01\n      swap1\n      sload\n      swap1\n      0x0100\n      exp\n      swap1\n      div\n      0xff\n      and\n        /* \"contracts/ergasia.sol\":6654:6689  !voterRegistry[msg.sender].hasVoted */\n      iszero\n        /* \"contracts/ergasia.sol\":6614:6689  voterRegistry[msg.sender].isEnrolled && !voterRegistry[msg.sender].hasVoted */\n    tag_111:\n        /* \"contracts/ergasia.sol\":6610:7244  if (voterRegistry[msg.sender].isEnrolled && !voterRegistry[msg.sender].hasVoted) {... */\n      iszero\n      tag_112\n      jumpi\n        /* \"contracts/ergasia.sol\":6741:6748  _choice */\n      dup5\n        /* \"contracts/ergasia.sol\":6706:6719  voterRegistry */\n      0x09\n        /* \"contracts/ergasia.sol\":6706:6731  voterRegistry[msg.sender] */\n      0x00\n        /* \"contracts/ergasia.sol\":6720:6730  msg.sender */\n      caller\n        /* \"contracts/ergasia.sol\":6706:6731  voterRegistry[msg.sender] */\n      0xffffffffffffffffffffffffffffffffffffffff\n      and\n      0xffffffffffffffffffffffffffffffffffffffff\n      and\n      dup2\n      mstore\n      0x20\n      add\n      swap1\n      dup2\n      mstore\n      0x20\n      add\n      0x00\n      keccak256\n        /* \"contracts/ergasia.sol\":6706:6738  voterRegistry[msg.sender].choice */\n      0x01\n      add\n        /* \"contracts/ergasia.sol\":6706:6748  voterRegistry[msg.sender].choice = _choice */\n      dup2\n      swap1\n      sstore\n      pop\n        /* \"contracts/ergasia.sol\":6812:6829  _pollingStationID */\n      dup4\n        /* \"contracts/ergasia.sol\":6762:6775  voterRegistry */\n      0x09\n        /* \"contracts/ergasia.sol\":6762:6787  voterRegistry[msg.sender] */\n      0x00\n        /* \"contracts/ergasia.sol\":6776:6786  msg.sender */\n      caller\n        /* \"contracts/ergasia.sol\":6762:6787  voterRegistry[msg.sender] */\n      0xffffffffffffffffffffffffffffffffffffffff\n      and\n      0xffffffffffffffffffffffffffffffffffffffff\n      and\n      dup2\n      mstore\n      0x20\n      add\n      swap1\n      dup2\n      mstore\n      0x20\n      add\n      0x00\n      keccak256\n        /* \"contracts/ergasia.sol\":6762:6809  voterRegistry[msg.sender].votedPollingStationID */\n      0x03\n      add\n        /* \"contracts/ergasia.sol\":6762:6829  voterRegistry[msg.sender].votedPollingStationID = _pollingStationID */\n      dup2\n      swap1\n      sstore\n      pop\n        /* \"contracts/ergasia.sol\":6880:6884  true */\n      0x01\n        /* \"contracts/ergasia.sol\":6843:6856  voterRegistry */\n      0x09\n        /* \"contracts/ergasia.sol\":6843:6868  voterRegistry[msg.sender] */\n      0x00\n        /* \"contracts/ergasia.sol\":6857:6867  msg.sender */\n      caller\n        /* \"contracts/ergasia.sol\":6843:6868  voterRegistry[msg.sender] */\n      0xffffffffffffffffffffffffffffffffffffffff\n      and\n      0xffffffffffffffffffffffffffffffffffffffff\n      and\n      dup2\n      mstore\n      0x20\n      add\n      swap1\n      dup2\n      mstore\n      0x20\n      add\n      0x00\n      keccak256\n        /* \"contracts/ergasia.sol\":6843:6877  voterRegistry[msg.sender].hasVoted */\n      0x00\n      add\n      0x01\n        /* \"contracts/ergasia.sol\":6843:6884  voterRegistry[msg.sender].hasVoted = true */\n      0x0100\n      exp\n      dup2\n      sload\n      dup2\n      0xff\n      mul\n      not\n      and\n      swap1\n      dup4\n      iszero\n      iszero\n      mul\n      or\n      swap1\n      sstore\n      pop\n        /* \"contracts/ergasia.sol\":6899:6914  pollingStations */\n      0x08\n        /* \"contracts/ergasia.sol\":6899:6933  pollingStations[_pollingStationID] */\n      0x00\n        /* \"contracts/ergasia.sol\":6915:6932  _pollingStationID */\n      dup6\n        /* \"contracts/ergasia.sol\":6899:6933  pollingStations[_pollingStationID] */\n      dup2\n      mstore\n      0x20\n      add\n      swap1\n      dup2\n      mstore\n      0x20\n      add\n      0x00\n      keccak256\n        /* \"contracts/ergasia.sol\":6899:6945  pollingStations[_pollingStationID].votesCasted */\n      0x03\n      add\n      0x00\n        /* \"contracts/ergasia.sol\":6899:6947  pollingStations[_pollingStationID].votesCasted++ */\n      dup2\n      sload\n      dup1\n      swap3\n      swap2\n      swap1\n      tag_113\n      swap1\n      tag_101\n      jump\t// in\n    tag_113:\n      swap2\n      swap1\n      pop\n      sstore\n      pop\n        /* \"contracts/ergasia.sol\":6962:6972  candidates */\n      0x06\n        /* \"contracts/ergasia.sol\":6962:6981  candidates[_choice] */\n      0x00\n        /* \"contracts/ergasia.sol\":6973:6980  _choice */\n      dup7\n        /* \"contracts/ergasia.sol\":6962:6981  candidates[_choice] */\n      dup2\n      mstore\n      0x20\n      add\n      swap1\n      dup2\n      mstore\n      0x20\n      add\n      0x00\n      keccak256\n        /* \"contracts/ergasia.sol\":6962:6987  candidates[_choice].votes */\n      0x02\n      add\n      0x00\n        /* \"contracts/ergasia.sol\":6962:6989  candidates[_choice].votes++ */\n      dup2\n      sload\n      dup1\n      swap3\n      swap2\n      swap1\n      tag_114\n      swap1\n      tag_101\n      jump\t// in\n    tag_114:\n      swap2\n      swap1\n      pop\n      sstore\n      pop\n        /* \"contracts/ergasia.sol\":7004:7015  countResult */\n      0x04\n      0x00\n        /* \"contracts/ergasia.sol\":7004:7017  countResult++ */\n      dup2\n      sload\n      dup1\n      swap3\n      swap2\n      swap1\n      tag_115\n      swap1\n      tag_101\n      jump\t// in\n    tag_115:\n      swap2\n      swap1\n      pop\n      sstore\n      pop\n        /* \"contracts/ergasia.sol\":7039:7043  true */\n      0x01\n        /* \"contracts/ergasia.sol\":7031:7043  found = true */\n      swap1\n      pop\n        /* \"contracts/ergasia.sol\":7078:7083  found */\n      dup1\n        /* \"contracts/ergasia.sol\":7057:7063  voters */\n      0x0a\n        /* \"contracts/ergasia.sol\":7057:7075  voters[msg.sender] */\n      0x00\n        /* \"contracts/ergasia.sol\":7064:7074  msg.sender */\n      caller\n        /* \"contracts/ergasia.sol\":7057:7075  voters[msg.sender] */\n      0xffffffffffffffffffffffffffffffffffffffff\n      and\n      0xffffffffffffffffffffffffffffffffffffffff\n      and\n      dup2\n      mstore\n      0x20\n      add\n      swap1\n      dup2\n      mstore\n      0x20\n      add\n      0x00\n      keccak256\n      0x00\n        /* \"contracts/ergasia.sol\":7057:7083  voters[msg.sender] = found */\n      0x0100\n      exp\n      dup2\n      sload\n      dup2\n      0xff\n      mul\n      not\n      and\n      swap1\n      dup4\n      iszero\n      iszero\n      mul\n      or\n      swap1\n      sstore\n      pop\n        /* \"contracts/ergasia.sol\":7098:7113  pollingStations */\n      0x08\n        /* \"contracts/ergasia.sol\":7098:7132  pollingStations[_pollingStationID] */\n      0x00\n        /* \"contracts/ergasia.sol\":7114:7131  _pollingStationID */\n      dup6\n        /* \"contracts/ergasia.sol\":7098:7132  pollingStations[_pollingStationID] */\n      dup2\n      mstore\n      0x20\n      add\n      swap1\n      dup2\n      mstore\n      0x20\n      add\n      0x00\n      keccak256\n        /* \"contracts/ergasia.sol\":7098:7151  pollingStations[_pollingStationID].scoresPerCandidate */\n      0x04\n      add\n        /* \"contracts/ergasia.sol\":7098:7160  pollingStations[_pollingStationID].scoresPerCandidate[_choice] */\n      0x00\n        /* \"contracts/ergasia.sol\":7152:7159  _choice */\n      dup7\n        /* \"contracts/ergasia.sol\":7098:7160  pollingStations[_pollingStationID].scoresPerCandidate[_choice] */\n      dup2\n      mstore\n      0x20\n      add\n      swap1\n      dup2\n      mstore\n      0x20\n      add\n      0x00\n      keccak256\n        /* \"contracts/ergasia.sol\":7098:7166  pollingStations[_pollingStationID].scoresPerCandidate[_choice].votes */\n      0x02\n      add\n      0x00\n        /* \"contracts/ergasia.sol\":7098:7168  pollingStations[_pollingStationID].scoresPerCandidate[_choice].votes++ */\n      dup2\n      sload\n      dup1\n      swap3\n      swap2\n      swap1\n      tag_116\n      swap1\n      tag_101\n      jump\t// in\n    tag_116:\n      swap2\n      swap1\n      pop\n      sstore\n      pop\n        /* \"contracts/ergasia.sol\":7188:7233  VoteCasted(found, _choice, _pollingStationID) */\n      0x29a25b3d0b6ff7e5de2a60a2e8e76d1bdaf4894ec18c598cc1687213f442c5cb\n        /* \"contracts/ergasia.sol\":7199:7204  found */\n      dup2\n        /* \"contracts/ergasia.sol\":7206:7213  _choice */\n      dup7\n        /* \"contracts/ergasia.sol\":7215:7232  _pollingStationID */\n      dup7\n        /* \"contracts/ergasia.sol\":7188:7233  VoteCasted(found, _choice, _pollingStationID) */\n      mload(0x40)\n      tag_117\n      swap4\n      swap3\n      swap2\n      swap1\n      tag_118\n      jump\t// in\n    tag_117:\n      mload(0x40)\n      dup1\n      swap2\n      sub\n      swap1\n      log1\n        /* \"contracts/ergasia.sol\":6610:7244  if (voterRegistry[msg.sender].isEnrolled && !voterRegistry[msg.sender].hasVoted) {... */\n    tag_112:\n        /* \"contracts/ergasia.sol\":7260:7265  found */\n      dup1\n        /* \"contracts/ergasia.sol\":7253:7265  return found */\n      swap3\n      pop\n      pop\n        /* \"contracts/ergasia.sol\":6464:7272  function castVote(uint _choice, uint _pollingStationID) public inState(State.Voting) returns (bool voted) {... */\n      pop\n      swap3\n      swap2\n      pop\n      pop\n      jump\t// out\n        /* \"contracts/ergasia.sol\":1276:1303  uint public candidatesCount */\n    tag_44:\n      sload(0x01)\n      dup2\n      jump\t// out\n        /* \"contracts/ergasia.sol\":1621:1665  mapping(uint => Candidate) public candidates */\n    tag_48:\n      mstore(0x20, 0x06)\n      dup1\n      0x00\n      mstore\n      keccak256(0x00, 0x40)\n      0x00\n      swap2\n      pop\n      swap1\n      pop\n      dup1\n      0x00\n      add\n      sload\n      swap1\n      dup1\n      0x01\n      add\n      dup1\n      sload\n      tag_119\n      swap1\n      tag_120\n      jump\t// in\n    tag_119:\n      dup1\n      0x1f\n      add\n      0x20\n      dup1\n      swap2\n      div\n      mul\n      0x20\n      add\n      mload(0x40)\n      swap1\n      dup2\n      add\n      0x40\n      mstore\n      dup1\n      swap3\n      swap2\n      swap1\n      dup2\n      dup2\n      mstore\n      0x20\n      add\n      dup3\n      dup1\n      sload\n      tag_121\n      swap1\n      tag_120\n      jump\t// in\n    tag_121:\n      dup1\n      iszero\n      tag_122\n      jumpi\n      dup1\n      0x1f\n      lt\n      tag_123\n      jumpi\n      0x0100\n      dup1\n      dup4\n      sload\n      div\n      mul\n      dup4\n      mstore\n      swap2\n      0x20\n      add\n      swap2\n      jump(tag_122)\n    tag_123:\n      dup3\n      add\n      swap2\n      swap1\n      0x00\n      mstore\n      keccak256(0x00, 0x20)\n      swap1\n    tag_124:\n      dup2\n      sload\n      dup2\n      mstore\n      swap1\n      0x01\n      add\n      swap1\n      0x20\n      add\n      dup1\n      dup4\n      gt\n      tag_124\n      jumpi\n      dup3\n      swap1\n      sub\n      0x1f\n      and\n      dup3\n      add\n      swap2\n    tag_122:\n      pop\n      pop\n      pop\n      pop\n      pop\n      swap1\n      dup1\n      0x02\n      add\n      sload\n      swap1\n      pop\n      dup4\n      jump\t// out\n        /* \"contracts/ergasia.sol\":1880:1926  mapping(address => Voter) public voterRegistry */\n    tag_54:\n      mstore(0x20, 0x09)\n      dup1\n      0x00\n      mstore\n      keccak256(0x00, 0x40)\n      0x00\n      swap2\n      pop\n      swap1\n      pop\n      dup1\n      0x00\n      add\n      0x00\n      swap1\n      sload\n      swap1\n      0x0100\n      exp\n      swap1\n      div\n      0xff\n      and\n      swap1\n      dup1\n      0x00\n      add\n      0x01\n      swap1\n      sload\n      swap1\n      0x0100\n      exp\n      swap1\n      div\n      0xff\n      and\n      swap1\n      dup1\n      0x01\n      add\n      sload\n      swap1\n      dup1\n      0x02\n      add\n      sload\n      swap1\n      dup1\n      0x03\n      add\n      sload\n      swap1\n      pop\n      dup6\n      jump\t// out\n        /* \"contracts/ergasia.sol\":6364:6458  function startVote() public inState(State.Created) Owner {... */\n    tag_58:\n        /* \"contracts/ergasia.sol\":6400:6413  State.Created */\n      0x00\n        /* \"contracts/ergasia.sol\":2193:2199  _state */\n      dup1\n        /* \"contracts/ergasia.sol\":2184:2199  state == _state */\n      0x02\n      dup2\n      gt\n      iszero\n      tag_126\n      jumpi\n      tag_127\n      tag_106\n      jump\t// in\n    tag_127:\n    tag_126:\n        /* \"contracts/ergasia.sol\":2184:2189  state */\n      0x0b\n      0x00\n      swap1\n      sload\n      swap1\n      0x0100\n      exp\n      swap1\n      div\n      0xff\n      and\n        /* \"contracts/ergasia.sol\":2184:2199  state == _state */\n      0x02\n      dup2\n      gt\n      iszero\n      tag_128\n      jumpi\n      tag_129\n      tag_106\n      jump\t// in\n    tag_129:\n    tag_128:\n      eq\n        /* \"contracts/ergasia.sol\":2176:2200  require(state == _state) */\n      tag_130\n      jumpi\n      0x00\n      dup1\n      revert\n    tag_130:\n        /* \"contracts/ergasia.sol\":2097:2110  electionOwner */\n      0x00\n      dup1\n      sload\n      swap1\n      0x0100\n      exp\n      swap1\n      div\n      0xffffffffffffffffffffffffffffffffffffffff\n      and\n        /* \"contracts/ergasia.sol\":2083:2110  msg.sender == electionOwner */\n      0xffffffffffffffffffffffffffffffffffffffff\n      and\n        /* \"contracts/ergasia.sol\":2083:2093  msg.sender */\n      caller\n        /* \"contracts/ergasia.sol\":2083:2110  msg.sender == electionOwner */\n      0xffffffffffffffffffffffffffffffffffffffff\n      and\n      eq\n        /* \"contracts/ergasia.sol\":2075:2111  require(msg.sender == electionOwner) */\n      tag_132\n      jumpi\n      0x00\n      dup1\n      revert\n    tag_132:\n        /* \"contracts/ergasia.sol\":6439:6451  State.Voting */\n      0x01\n        /* \"contracts/ergasia.sol\":6431:6436  state */\n      0x0b\n      0x00\n        /* \"contracts/ergasia.sol\":6431:6451  state = State.Voting */\n      0x0100\n      exp\n      dup2\n      sload\n      dup2\n      0xff\n      mul\n      not\n      and\n      swap1\n      dup4\n      0x02\n      dup2\n      gt\n      iszero\n      tag_134\n      jumpi\n      tag_135\n      tag_106\n      jump\t// in\n    tag_135:\n    tag_134:\n      mul\n      or\n      swap1\n      sstore\n      pop\n        /* \"contracts/ergasia.sol\":6364:6458  function startVote() public inState(State.Created) Owner {... */\n      pop\n      jump\t// out\n        /* \"contracts/ergasia.sol\":1242:1270  address public electionOwner */\n    tag_60:\n      0x00\n      dup1\n      sload\n      swap1\n      0x0100\n      exp\n      swap1\n      div\n      0xffffffffffffffffffffffffffffffffffffffff\n      and\n      dup2\n      jump\t// out\n        /* \"contracts/ergasia.sol\":1932:1970  mapping(address => bool) public voters */\n    tag_65:\n      mstore(0x20, 0x0a)\n      dup1\n      0x00\n      mstore\n      keccak256(0x00, 0x40)\n      0x00\n      swap2\n      pop\n      sload\n      swap1\n      0x0100\n      exp\n      swap1\n      div\n      0xff\n      and\n      dup2\n      jump\t// out\n        /* \"contracts/ergasia.sol\":7278:7404  function endVote() public inState(State.Voting) Owner { ... */\n    tag_68:\n        /* \"contracts/ergasia.sol\":7312:7324  State.Voting */\n      0x01\n        /* \"contracts/ergasia.sol\":2193:2199  _state */\n      dup1\n        /* \"contracts/ergasia.sol\":2184:2199  state == _state */\n      0x02\n      dup2\n      gt\n      iszero\n      tag_137\n      jumpi\n      tag_138\n      tag_106\n      jump\t// in\n    tag_138:\n    tag_137:\n        /* \"contracts/ergasia.sol\":2184:2189  state */\n      0x0b\n      0x00\n      swap1\n      sload\n      swap1\n      0x0100\n      exp\n      swap1\n      div\n      0xff\n      and\n        /* \"contracts/ergasia.sol\":2184:2199  state == _state */\n      0x02\n      dup2\n      gt\n      iszero\n      tag_139\n      jumpi\n      tag_140\n      tag_106\n      jump\t// in\n    tag_140:\n    tag_139:\n      eq\n        /* \"contracts/ergasia.sol\":2176:2200  require(state == _state) */\n      tag_141\n      jumpi\n      0x00\n      dup1\n      revert\n    tag_141:\n        /* \"contracts/ergasia.sol\":2097:2110  electionOwner */\n      0x00\n      dup1\n      sload\n      swap1\n      0x0100\n      exp\n      swap1\n      div\n      0xffffffffffffffffffffffffffffffffffffffff\n      and\n        /* \"contracts/ergasia.sol\":2083:2110  msg.sender == electionOwner */\n      0xffffffffffffffffffffffffffffffffffffffff\n      and\n        /* \"contracts/ergasia.sol\":2083:2093  msg.sender */\n      caller\n        /* \"contracts/ergasia.sol\":2083:2110  msg.sender == electionOwner */\n      0xffffffffffffffffffffffffffffffffffffffff\n      and\n      eq\n        /* \"contracts/ergasia.sol\":2075:2111  require(msg.sender == electionOwner) */\n      tag_143\n      jumpi\n      0x00\n      dup1\n      revert\n    tag_143:\n        /* \"contracts/ergasia.sol\":7351:7362  State.Ended */\n      0x02\n        /* \"contracts/ergasia.sol\":7343:7348  state */\n      0x0b\n      0x00\n        /* \"contracts/ergasia.sol\":7343:7362  state = State.Ended */\n      0x0100\n      exp\n      dup2\n      sload\n      dup2\n      0xff\n      mul\n      not\n      and\n      swap1\n      dup4\n      0x02\n      dup2\n      gt\n      iszero\n      tag_145\n      jumpi\n      tag_146\n      tag_106\n      jump\t// in\n    tag_146:\n    tag_145:\n      mul\n      or\n      swap1\n      sstore\n      pop\n        /* \"contracts/ergasia.sol\":7386:7397  countResult */\n      sload(0x04)\n        /* \"contracts/ergasia.sol\":7372:7383  finalResult */\n      0x05\n        /* \"contracts/ergasia.sol\":7372:7397  finalResult = countResult */\n      dup2\n      swap1\n      sstore\n      pop\n        /* \"contracts/ergasia.sol\":7278:7404  function endVote() public inState(State.Voting) Owner { ... */\n      pop\n      jump\t// out\n        /* \"contracts/ergasia.sol\":4910:5830  function addVoter(address _voterAddress, uint _pollingStationID) public inState(State.Created) Owner {... */\n    tag_72:\n        /* \"contracts/ergasia.sol\":4990:5003  State.Created */\n      0x00\n        /* \"contracts/ergasia.sol\":2193:2199  _state */\n      dup1\n        /* \"contracts/ergasia.sol\":2184:2199  state == _state */\n      0x02\n      dup2\n      gt\n      iszero\n      tag_148\n      jumpi\n      tag_149\n      tag_106\n      jump\t// in\n    tag_149:\n    tag_148:\n        /* \"contracts/ergasia.sol\":2184:2189  state */\n      0x0b\n      0x00\n      swap1\n      sload\n      swap1\n      0x0100\n      exp\n      swap1\n      div\n      0xff\n      and\n        /* \"contracts/ergasia.sol\":2184:2199  state == _state */\n      0x02\n      dup2\n      gt\n      iszero\n      tag_150\n      jumpi\n      tag_151\n      tag_106\n      jump\t// in\n    tag_151:\n    tag_150:\n      eq\n        /* \"contracts/ergasia.sol\":2176:2200  require(state == _state) */\n      tag_152\n      jumpi\n      0x00\n      dup1\n      revert\n    tag_152:\n        /* \"contracts/ergasia.sol\":2097:2110  electionOwner */\n      0x00\n      dup1\n      sload\n      swap1\n      0x0100\n      exp\n      swap1\n      div\n      0xffffffffffffffffffffffffffffffffffffffff\n      and\n        /* \"contracts/ergasia.sol\":2083:2110  msg.sender == electionOwner */\n      0xffffffffffffffffffffffffffffffffffffffff\n      and\n        /* \"contracts/ergasia.sol\":2083:2093  msg.sender */\n      caller\n        /* \"contracts/ergasia.sol\":2083:2110  msg.sender == electionOwner */\n      0xffffffffffffffffffffffffffffffffffffffff\n      and\n      eq\n        /* \"contracts/ergasia.sol\":2075:2111  require(msg.sender == electionOwner) */\n      tag_154\n      jumpi\n      0x00\n      dup1\n      revert\n    tag_154:\n        /* \"contracts/ergasia.sol\":5129:5134  false */\n      0x00\n        /* \"contracts/ergasia.sol\":5086:5134  voterRegistry[_voterAddress].isEnrolled == false */\n      iszero\n      iszero\n        /* \"contracts/ergasia.sol\":5086:5099  voterRegistry */\n      0x09\n        /* \"contracts/ergasia.sol\":5086:5114  voterRegistry[_voterAddress] */\n      0x00\n        /* \"contracts/ergasia.sol\":5100:5113  _voterAddress */\n      dup6\n        /* \"contracts/ergasia.sol\":5086:5114  voterRegistry[_voterAddress] */\n      0xffffffffffffffffffffffffffffffffffffffff\n      and\n      0xffffffffffffffffffffffffffffffffffffffff\n      and\n      dup2\n      mstore\n      0x20\n      add\n      swap1\n      dup2\n      mstore\n      0x20\n      add\n      0x00\n      keccak256\n        /* \"contracts/ergasia.sol\":5086:5125  voterRegistry[_voterAddress].isEnrolled */\n      0x00\n      add\n      0x00\n      swap1\n      sload\n      swap1\n      0x0100\n      exp\n      swap1\n      div\n      0xff\n      and\n        /* \"contracts/ergasia.sol\":5086:5134  voterRegistry[_voterAddress].isEnrolled == false */\n      iszero\n      iszero\n      eq\n        /* \"contracts/ergasia.sol\":5078:5167  require(voterRegistry[_voterAddress].isEnrolled == false, \"Voter is already registered.\") */\n      tag_156\n      jumpi\n      mload(0x40)\n      0x08c379a000000000000000000000000000000000000000000000000000000000\n      dup2\n      mstore\n      0x04\n      add\n      tag_157\n      swap1\n      tag_158\n      jump\t// in\n    tag_157:\n      mload(0x40)\n      dup1\n      swap2\n      sub\n      swap1\n      revert\n    tag_156:\n        /* \"contracts/ergasia.sol\":5406:5407  1 */\n      0x01\n        /* \"contracts/ergasia.sol\":5386:5403  _pollingStationID */\n      dup3\n        /* \"contracts/ergasia.sol\":5386:5407  _pollingStationID >=1 */\n      lt\n      iszero\n        /* \"contracts/ergasia.sol\":5386:5451  _pollingStationID >=1 && _pollingStationID <= pollingStationCount */\n      dup1\n      iszero\n      tag_159\n      jumpi\n      pop\n        /* \"contracts/ergasia.sol\":5432:5451  pollingStationCount */\n      sload(0x02)\n        /* \"contracts/ergasia.sol\":5411:5428  _pollingStationID */\n      dup3\n        /* \"contracts/ergasia.sol\":5411:5451  _pollingStationID <= pollingStationCount */\n      gt\n      iszero\n        /* \"contracts/ergasia.sol\":5386:5451  _pollingStationID >=1 && _pollingStationID <= pollingStationCount */\n    tag_159:\n        /* \"contracts/ergasia.sol\":5378:5498  require(_pollingStationID >=1 && _pollingStationID <= pollingStationCount, \"Please provide a valid polling station ID.\") */\n      tag_160\n      jumpi\n      mload(0x40)\n      0x08c379a000000000000000000000000000000000000000000000000000000000\n      dup2\n      mstore\n      0x04\n      add\n      tag_161\n      swap1\n      tag_162\n      jump\t// in\n    tag_161:\n      mload(0x40)\n      dup1\n      swap2\n      sub\n      swap1\n      revert\n    tag_160:\n        /* \"contracts/ergasia.sol\":5509:5523  Voter memory v */\n      tag_163\n      tag_164\n      jump\t// in\n    tag_163:\n        /* \"contracts/ergasia.sol\":5548:5552  true */\n      0x01\n        /* \"contracts/ergasia.sol\":5533:5534  v */\n      dup2\n        /* \"contracts/ergasia.sol\":5533:5545  v.isEnrolled */\n      0x00\n      add\n        /* \"contracts/ergasia.sol\":5533:5552  v.isEnrolled = true */\n      swap1\n      iszero\n      iszero\n      swap1\n      dup2\n      iszero\n      iszero\n      dup2\n      mstore\n      pop\n      pop\n        /* \"contracts/ergasia.sol\":5575:5580  false */\n      0x00\n        /* \"contracts/ergasia.sol\":5562:5563  v */\n      dup2\n        /* \"contracts/ergasia.sol\":5562:5572  v.hasVoted */\n      0x20\n      add\n        /* \"contracts/ergasia.sol\":5562:5580  v.hasVoted = false */\n      swap1\n      iszero\n      iszero\n      swap1\n      dup2\n      iszero\n      iszero\n      dup2\n      mstore\n      pop\n      pop\n        /* \"contracts/ergasia.sol\":5601:5602  0 */\n      0x00\n        /* \"contracts/ergasia.sol\":5590:5591  v */\n      dup2\n        /* \"contracts/ergasia.sol\":5590:5598  v.choice */\n      0x40\n      add\n        /* \"contracts/ergasia.sol\":5590:5602  v.choice = 0 */\n      dup2\n      dup2\n      mstore\n      pop\n      pop\n        /* \"contracts/ergasia.sol\":5641:5658  _pollingStationID */\n      dup3\n        /* \"contracts/ergasia.sol\":5612:5613  v */\n      dup2\n        /* \"contracts/ergasia.sol\":5612:5638  v.enrolledPollingStationID */\n      0x60\n      add\n        /* \"contracts/ergasia.sol\":5612:5658  v.enrolledPollingStationID = _pollingStationID */\n      dup2\n      dup2\n      mstore\n      pop\n      pop\n        /* \"contracts/ergasia.sol\":5694:5695  0 */\n      0x00\n        /* \"contracts/ergasia.sol\":5668:5669  v */\n      dup2\n        /* \"contracts/ergasia.sol\":5668:5691  v.votedPollingStationID */\n      0x80\n      add\n        /* \"contracts/ergasia.sol\":5668:5695  v.votedPollingStationID = 0 */\n      dup2\n      dup2\n      mstore\n      pop\n      pop\n        /* \"contracts/ergasia.sol\":5736:5737  v */\n      dup1\n        /* \"contracts/ergasia.sol\":5705:5718  voterRegistry */\n      0x09\n        /* \"contracts/ergasia.sol\":5705:5733  voterRegistry[_voterAddress] */\n      0x00\n        /* \"contracts/ergasia.sol\":5719:5732  _voterAddress */\n      dup7\n        /* \"contracts/ergasia.sol\":5705:5733  voterRegistry[_voterAddress] */\n      0xffffffffffffffffffffffffffffffffffffffff\n      and\n      0xffffffffffffffffffffffffffffffffffffffff\n      and\n      dup2\n      mstore\n      0x20\n      add\n      swap1\n      dup2\n      mstore\n      0x20\n      add\n      0x00\n      keccak256\n        /* \"contracts/ergasia.sol\":5705:5737  voterRegistry[_voterAddress] = v */\n      0x00\n      dup3\n      add\n      mload\n      dup2\n      0x00\n      add\n      exp(0x0100, 0x00)\n      dup2\n      sload\n      dup2\n      0xff\n      mul\n      not\n      and\n      swap1\n      dup4\n      iszero\n      iszero\n      mul\n      or\n      swap1\n      sstore\n      pop\n      0x20\n      dup3\n      add\n      mload\n      dup2\n      0x00\n      add\n      exp(0x0100, 0x01)\n      dup2\n      sload\n      dup2\n      0xff\n      mul\n      not\n      and\n      swap1\n      dup4\n      iszero\n      iszero\n      mul\n      or\n      swap1\n      sstore\n      pop\n      0x40\n      dup3\n      add\n      mload\n      dup2\n      0x01\n      add\n      sstore\n      0x60\n      dup3\n      add\n      mload\n      dup2\n      0x02\n      add\n      sstore\n      0x80\n      dup3\n      add\n      mload\n      dup2\n      0x03\n      add\n      sstore\n      swap1\n      pop\n      pop\n        /* \"contracts/ergasia.sol\":5747:5790  registerAtPollingStation(_pollingStationID) */\n      tag_165\n        /* \"contracts/ergasia.sol\":5772:5789  _pollingStationID */\n      dup4\n        /* \"contracts/ergasia.sol\":5747:5771  registerAtPollingStation */\n      tag_166\n        /* \"contracts/ergasia.sol\":5747:5790  registerAtPollingStation(_pollingStationID) */\n      jump\t// in\n    tag_165:\n        /* \"contracts/ergasia.sol\":5800:5821  totalRegisteredVoters */\n      0x03\n      0x00\n        /* \"contracts/ergasia.sol\":5800:5823  totalRegisteredVoters++ */\n      dup2\n      sload\n      dup1\n      swap3\n      swap2\n      swap1\n      tag_167\n      swap1\n      tag_101\n      jump\t// in\n    tag_167:\n      swap2\n      swap1\n      pop\n      sstore\n      pop\n        /* \"contracts/ergasia.sol\":5011:5830  {... */\n      pop\n        /* \"contracts/ergasia.sol\":4910:5830  function addVoter(address _voterAddress, uint _pollingStationID) public inState(State.Created) Owner {... */\n      pop\n      pop\n      pop\n      jump\t// out\n        /* \"contracts/ergasia.sol\":2023:2041  State public state */\n    tag_74:\n      0x0b\n      0x00\n      swap1\n      sload\n      swap1\n      0x0100\n      exp\n      swap1\n      div\n      0xff\n      and\n      dup2\n      jump\t// out\n        /* \"contracts/ergasia.sol\":7410:7602  function getResultsPerStation1(uint _pStationID, uint _candidateID) public view returns (Candidate memory) {... */\n    tag_79:\n        /* \"contracts/ergasia.sol\":7499:7515  Candidate memory */\n      tag_168\n      tag_169\n      jump\t// in\n    tag_168:\n        /* \"contracts/ergasia.sol\":7534:7549  pollingStations */\n      0x08\n        /* \"contracts/ergasia.sol\":7534:7562  pollingStations[_pStationID] */\n      0x00\n        /* \"contracts/ergasia.sol\":7550:7561  _pStationID */\n      dup5\n        /* \"contracts/ergasia.sol\":7534:7562  pollingStations[_pStationID] */\n      dup2\n      mstore\n      0x20\n      add\n      swap1\n      dup2\n      mstore\n      0x20\n      add\n      0x00\n      keccak256\n        /* \"contracts/ergasia.sol\":7534:7581  pollingStations[_pStationID].scoresPerCandidate */\n      0x04\n      add\n        /* \"contracts/ergasia.sol\":7534:7595  pollingStations[_pStationID].scoresPerCandidate[_candidateID] */\n      0x00\n        /* \"contracts/ergasia.sol\":7582:7594  _candidateID */\n      dup4\n        /* \"contracts/ergasia.sol\":7534:7595  pollingStations[_pStationID].scoresPerCandidate[_candidateID] */\n      dup2\n      mstore\n      0x20\n      add\n      swap1\n      dup2\n      mstore\n      0x20\n      add\n      0x00\n      keccak256\n        /* \"contracts/ergasia.sol\":7527:7595  return pollingStations[_pStationID].scoresPerCandidate[_candidateID] */\n      mload(0x40)\n      dup1\n      0x60\n      add\n      0x40\n      mstore\n      swap1\n      dup2\n      0x00\n      dup3\n      add\n      sload\n      dup2\n      mstore\n      0x20\n      add\n      0x01\n      dup3\n      add\n      dup1\n      sload\n      tag_171\n      swap1\n      tag_120\n      jump\t// in\n    tag_171:\n      dup1\n      0x1f\n      add\n      0x20\n      dup1\n      swap2\n      div\n      mul\n      0x20\n      add\n      mload(0x40)\n      swap1\n      dup2\n      add\n      0x40\n      mstore\n      dup1\n      swap3\n      swap2\n      swap1\n      dup2\n      dup2\n      mstore\n      0x20\n      add\n      dup3\n      dup1\n      sload\n      tag_172\n      swap1\n      tag_120\n      jump\t// in\n    tag_172:\n      dup1\n      iszero\n      tag_173\n      jumpi\n      dup1\n      0x1f\n      lt\n      tag_174\n      jumpi\n      0x0100\n      dup1\n      dup4\n      sload\n      div\n      mul\n      dup4\n      mstore\n      swap2\n      0x20\n      add\n      swap2\n      jump(tag_173)\n    tag_174:\n      dup3\n      add\n      swap2\n      swap1\n      0x00\n      mstore\n      keccak256(0x00, 0x20)\n      swap1\n    tag_175:\n      dup2\n      sload\n      dup2\n      mstore\n      swap1\n      0x01\n      add\n      swap1\n      0x20\n      add\n      dup1\n      dup4\n      gt\n      tag_175\n      jumpi\n      dup3\n      swap1\n      sub\n      0x1f\n      and\n      dup3\n      add\n      swap2\n    tag_173:\n      pop\n      pop\n      pop\n      pop\n      pop\n      dup2\n      mstore\n      0x20\n      add\n      0x02\n      dup3\n      add\n      sload\n      dup2\n      mstore\n      pop\n      pop\n      swap1\n      pop\n        /* \"contracts/ergasia.sol\":7410:7602  function getResultsPerStation1(uint _pStationID, uint _candidateID) public view returns (Candidate memory) {... */\n      swap3\n      swap2\n      pop\n      pop\n      jump\t// out\n        /* \"contracts/ergasia.sol\":1344:1375  uint public pollingStationCount */\n    tag_83:\n      sload(0x02)\n      dup2\n      jump\t// out\n        /* \"contracts/ergasia.sol\":1539:1562  uint public finalResult */\n    tag_86:\n      sload(0x05)\n      dup2\n      jump\t// out\n        /* \"contracts/ergasia.sol\":1794:1848  mapping(uint => PollingStation) public pollingStations */\n    tag_90:\n      mstore(0x20, 0x08)\n      dup1\n      0x00\n      mstore\n      keccak256(0x00, 0x40)\n      0x00\n      swap2\n      pop\n      swap1\n      pop\n      dup1\n      0x00\n      add\n      sload\n      swap1\n      dup1\n      0x01\n      add\n      dup1\n      sload\n      tag_176\n      swap1\n      tag_120\n      jump\t// in\n    tag_176:\n      dup1\n      0x1f\n      add\n      0x20\n      dup1\n      swap2\n      div\n      mul\n      0x20\n      add\n      mload(0x40)\n      swap1\n      dup2\n      add\n      0x40\n      mstore\n      dup1\n      swap3\n      swap2\n      swap1\n      dup2\n      dup2\n      mstore\n      0x20\n      add\n      dup3\n      dup1\n      sload\n      tag_177\n      swap1\n      tag_120\n      jump\t// in\n    tag_177:\n      dup1\n      iszero\n      tag_178\n      jumpi\n      dup1\n      0x1f\n      lt\n      tag_179\n      jumpi\n      0x0100\n      dup1\n      dup4\n      sload\n      div\n      mul\n      dup4\n      mstore\n      swap2\n      0x20\n      add\n      swap2\n      jump(tag_178)\n    tag_179:\n      dup3\n      add\n      swap2\n      swap1\n      0x00\n      mstore\n      keccak256(0x00, 0x20)\n      swap1\n    tag_180:\n      dup2\n      sload\n      dup2\n      mstore\n      swap1\n      0x01\n      add\n      swap1\n      0x20\n      add\n      dup1\n      dup4\n      gt\n      tag_180\n      jumpi\n      dup3\n      swap1\n      sub\n      0x1f\n      and\n      dup3\n      add\n      swap2\n    tag_178:\n      pop\n      pop\n      pop\n      pop\n      pop\n      swap1\n      dup1\n      0x02\n      add\n      sload\n      swap1\n      dup1\n      0x03\n      add\n      sload\n      swap1\n      pop\n      dup5\n      jump\t// out\n        /* \"contracts/ergasia.sol\":5968:6250  function registerAtPollingStation(uint _stationID) internal {... */\n    tag_166:\n        /* \"contracts/ergasia.sol\":6043:6049  uint i */\n      0x00\n        /* \"contracts/ergasia.sol\":6052:6053  1 */\n      0x01\n        /* \"contracts/ergasia.sol\":6043:6053  uint i = 1 */\n      swap1\n      pop\n        /* \"contracts/ergasia.sol\":6038:6244  for (uint i = 1; i <= pollingStationCount; i++) {... */\n    tag_182:\n        /* \"contracts/ergasia.sol\":6060:6079  pollingStationCount */\n      sload(0x02)\n        /* \"contracts/ergasia.sol\":6055:6056  i */\n      dup2\n        /* \"contracts/ergasia.sol\":6055:6079  i <= pollingStationCount */\n      gt\n        /* \"contracts/ergasia.sol\":6038:6244  for (uint i = 1; i <= pollingStationCount; i++) {... */\n      tag_183\n      jumpi\n        /* \"contracts/ergasia.sol\":6129:6139  _stationID */\n      dup2\n        /* \"contracts/ergasia.sol\":6104:6119  pollingStations */\n      0x08\n        /* \"contracts/ergasia.sol\":6104:6122  pollingStations[i] */\n      0x00\n        /* \"contracts/ergasia.sol\":6120:6121  i */\n      dup4\n        /* \"contracts/ergasia.sol\":6104:6122  pollingStations[i] */\n      dup2\n      mstore\n      0x20\n      add\n      swap1\n      dup2\n      mstore\n      0x20\n      add\n      0x00\n      keccak256\n        /* \"contracts/ergasia.sol\":6104:6125  pollingStations[i].id */\n      0x00\n      add\n      sload\n        /* \"contracts/ergasia.sol\":6104:6139  pollingStations[i].id == _stationID */\n      eq\n        /* \"contracts/ergasia.sol\":6100:6234  if (pollingStations[i].id == _stationID) {... */\n      iszero\n      tag_185\n      jumpi\n        /* \"contracts/ergasia.sol\":6159:6174  pollingStations */\n      0x08\n        /* \"contracts/ergasia.sol\":6159:6177  pollingStations[i] */\n      0x00\n        /* \"contracts/ergasia.sol\":6175:6176  i */\n      dup3\n        /* \"contracts/ergasia.sol\":6159:6177  pollingStations[i] */\n      dup2\n      mstore\n      0x20\n      add\n      swap1\n      dup2\n      mstore\n      0x20\n      add\n      0x00\n      keccak256\n        /* \"contracts/ergasia.sol\":6159:6194  pollingStations[i].votersRegistered */\n      0x02\n      add\n      0x00\n        /* \"contracts/ergasia.sol\":6159:6196  pollingStations[i].votersRegistered++ */\n      dup2\n      sload\n      dup1\n      swap3\n      swap2\n      swap1\n      tag_186\n      swap1\n      tag_101\n      jump\t// in\n    tag_186:\n      swap2\n      swap1\n      pop\n      sstore\n      pop\n        /* \"contracts/ergasia.sol\":6214:6219  break */\n      jump(tag_183)\n        /* \"contracts/ergasia.sol\":6100:6234  if (pollingStations[i].id == _stationID) {... */\n    tag_185:\n        /* \"contracts/ergasia.sol\":6081:6084  i++ */\n      dup1\n      dup1\n      tag_187\n      swap1\n      tag_101\n      jump\t// in\n    tag_187:\n      swap2\n      pop\n      pop\n        /* \"contracts/ergasia.sol\":6038:6244  for (uint i = 1; i <= pollingStationCount; i++) {... */\n      jump(tag_182)\n    tag_183:\n      pop\n        /* \"contracts/ergasia.sol\":5968:6250  function registerAtPollingStation(uint _stationID) internal {... */\n      pop\n      jump\t// out\n    tag_164:\n      mload(0x40)\n      dup1\n      0xa0\n      add\n      0x40\n      mstore\n      dup1\n      iszero(iszero(0x00))\n      dup2\n      mstore\n      0x20\n      add\n      iszero(iszero(0x00))\n      dup2\n      mstore\n      0x20\n      add\n      0x00\n      dup2\n      mstore\n      0x20\n      add\n      0x00\n      dup2\n      mstore\n      0x20\n      add\n      0x00\n      dup2\n      mstore\n      pop\n      swap1\n      jump\t// out\n    tag_169:\n      mload(0x40)\n      dup1\n      0x60\n      add\n      0x40\n      mstore\n      dup1\n      0x00\n      dup2\n      mstore\n      0x20\n      add\n      0x60\n      dup2\n      mstore\n      0x20\n      add\n      0x00\n      dup2\n      mstore\n      pop\n      swap1\n      jump\t// out\n        /* \"#utility.yul\":7:146   */\n    tag_189:\n        /* \"#utility.yul\":53:58   */\n      0x00\n        /* \"#utility.yul\":91:97   */\n      dup2\n        /* \"#utility.yul\":78:98   */\n      calldataload\n        /* \"#utility.yul\":69:98   */\n      swap1\n      pop\n        /* \"#utility.yul\":107:140   */\n      tag_191\n        /* \"#utility.yul\":134:139   */\n      dup2\n        /* \"#utility.yul\":107:140   */\n      tag_192\n      jump\t// in\n    tag_191:\n        /* \"#utility.yul\":7:146   */\n      swap3\n      swap2\n      pop\n      pop\n      jump\t// out\n        /* \"#utility.yul\":152:291   */\n    tag_193:\n        /* \"#utility.yul\":198:203   */\n      0x00\n        /* \"#utility.yul\":236:242   */\n      dup2\n        /* \"#utility.yul\":223:243   */\n      calldataload\n        /* \"#utility.yul\":214:243   */\n      swap1\n      pop\n        /* \"#utility.yul\":252:285   */\n      tag_195\n        /* \"#utility.yul\":279:284   */\n      dup2\n        /* \"#utility.yul\":252:285   */\n      tag_196\n      jump\t// in\n    tag_195:\n        /* \"#utility.yul\":152:291   */\n      swap3\n      swap2\n      pop\n      pop\n      jump\t// out\n        /* \"#utility.yul\":297:626   */\n    tag_53:\n        /* \"#utility.yul\":356:362   */\n      0x00\n        /* \"#utility.yul\":405:407   */\n      0x20\n        /* \"#utility.yul\":393:402   */\n      dup3\n        /* \"#utility.yul\":384:391   */\n      dup5\n        /* \"#utility.yul\":380:403   */\n      sub\n        /* \"#utility.yul\":376:408   */\n      slt\n        /* \"#utility.yul\":373:492   */\n      iszero\n      tag_198\n      jumpi\n        /* \"#utility.yul\":411:490   */\n      tag_199\n      tag_200\n      jump\t// in\n    tag_199:\n        /* \"#utility.yul\":373:492   */\n    tag_198:\n        /* \"#utility.yul\":531:532   */\n      0x00\n        /* \"#utility.yul\":556:609   */\n      tag_201\n        /* \"#utility.yul\":601:608   */\n      dup5\n        /* \"#utility.yul\":592:598   */\n      dup3\n        /* \"#utility.yul\":581:590   */\n      dup6\n        /* \"#utility.yul\":577:599   */\n      add\n        /* \"#utility.yul\":556:609   */\n      tag_189\n      jump\t// in\n    tag_201:\n        /* \"#utility.yul\":546:609   */\n      swap2\n      pop\n        /* \"#utility.yul\":502:619   */\n      pop\n        /* \"#utility.yul\":297:626   */\n      swap3\n      swap2\n      pop\n      pop\n      jump\t// out\n        /* \"#utility.yul\":632:1106   */\n    tag_71:\n        /* \"#utility.yul\":700:706   */\n      0x00\n        /* \"#utility.yul\":708:714   */\n      dup1\n        /* \"#utility.yul\":757:759   */\n      0x40\n        /* \"#utility.yul\":745:754   */\n      dup4\n        /* \"#utility.yul\":736:743   */\n      dup6\n        /* \"#utility.yul\":732:755   */\n      sub\n        /* \"#utility.yul\":728:760   */\n      slt\n        /* \"#utility.yul\":725:844   */\n      iszero\n      tag_203\n      jumpi\n        /* \"#utility.yul\":763:842   */\n      tag_204\n      tag_200\n      jump\t// in\n    tag_204:\n        /* \"#utility.yul\":725:844   */\n    tag_203:\n        /* \"#utility.yul\":883:884   */\n      0x00\n        /* \"#utility.yul\":908:961   */\n      tag_205\n        /* \"#utility.yul\":953:960   */\n      dup6\n        /* \"#utility.yul\":944:950   */\n      dup3\n        /* \"#utility.yul\":933:942   */\n      dup7\n        /* \"#utility.yul\":929:951   */\n      add\n        /* \"#utility.yul\":908:961   */\n      tag_189\n      jump\t// in\n    tag_205:\n        /* \"#utility.yul\":898:961   */\n      swap3\n      pop\n        /* \"#utility.yul\":854:971   */\n      pop\n        /* \"#utility.yul\":1010:1012   */\n      0x20\n        /* \"#utility.yul\":1036:1089   */\n      tag_206\n        /* \"#utility.yul\":1081:1088   */\n      dup6\n        /* \"#utility.yul\":1072:1078   */\n      dup3\n        /* \"#utility.yul\":1061:1070   */\n      dup7\n        /* \"#utility.yul\":1057:1079   */\n      add\n        /* \"#utility.yul\":1036:1089   */\n      tag_193\n      jump\t// in\n    tag_206:\n        /* \"#utility.yul\":1026:1089   */\n      swap2\n      pop\n        /* \"#utility.yul\":981:1099   */\n      pop\n        /* \"#utility.yul\":632:1106   */\n      swap3\n      pop\n      swap3\n      swap1\n      pop\n      jump\t// out\n        /* \"#utility.yul\":1112:1441   */\n    tag_29:\n        /* \"#utility.yul\":1171:1177   */\n      0x00\n        /* \"#utility.yul\":1220:1222   */\n      0x20\n        /* \"#utility.yul\":1208:1217   */\n      dup3\n        /* \"#utility.yul\":1199:1206   */\n      dup5\n        /* \"#utility.yul\":1195:1218   */\n      sub\n        /* \"#utility.yul\":1191:1223   */\n      slt\n        /* \"#utility.yul\":1188:1307   */\n      iszero\n      tag_208\n      jumpi\n        /* \"#utility.yul\":1226:1305   */\n      tag_209\n      tag_200\n      jump\t// in\n    tag_209:\n        /* \"#utility.yul\":1188:1307   */\n    tag_208:\n        /* \"#utility.yul\":1346:1347   */\n      0x00\n        /* \"#utility.yul\":1371:1424   */\n      tag_210\n        /* \"#utility.yul\":1416:1423   */\n      dup5\n        /* \"#utility.yul\":1407:1413   */\n      dup3\n        /* \"#utility.yul\":1396:1405   */\n      dup6\n        /* \"#utility.yul\":1392:1414   */\n      add\n        /* \"#utility.yul\":1371:1424   */\n      tag_193\n      jump\t// in\n    tag_210:\n        /* \"#utility.yul\":1361:1424   */\n      swap2\n      pop\n        /* \"#utility.yul\":1317:1434   */\n      pop\n        /* \"#utility.yul\":1112:1441   */\n      swap3\n      swap2\n      pop\n      pop\n      jump\t// out\n        /* \"#utility.yul\":1447:1921   */\n    tag_35:\n        /* \"#utility.yul\":1515:1521   */\n      0x00\n        /* \"#utility.yul\":1523:1529   */\n      dup1\n        /* \"#utility.yul\":1572:1574   */\n      0x40\n        /* \"#utility.yul\":1560:1569   */\n      dup4\n        /* \"#utility.yul\":1551:1558   */\n      dup6\n        /* \"#utility.yul\":1547:1570   */\n      sub\n        /* \"#utility.yul\":1543:1575   */\n      slt\n        /* \"#utility.yul\":1540:1659   */\n      iszero\n      tag_212\n      jumpi\n        /* \"#utility.yul\":1578:1657   */\n      tag_213\n      tag_200\n      jump\t// in\n    tag_213:\n        /* \"#utility.yul\":1540:1659   */\n    tag_212:\n        /* \"#utility.yul\":1698:1699   */\n      0x00\n        /* \"#utility.yul\":1723:1776   */\n      tag_214\n        /* \"#utility.yul\":1768:1775   */\n      dup6\n        /* \"#utility.yul\":1759:1765   */\n      dup3\n        /* \"#utility.yul\":1748:1757   */\n      dup7\n        /* \"#utility.yul\":1744:1766   */\n      add\n        /* \"#utility.yul\":1723:1776   */\n      tag_193\n      jump\t// in\n    tag_214:\n        /* \"#utility.yul\":1713:1776   */\n      swap3\n      pop\n        /* \"#utility.yul\":1669:1786   */\n      pop\n        /* \"#utility.yul\":1825:1827   */\n      0x20\n        /* \"#utility.yul\":1851:1904   */\n      tag_215\n        /* \"#utility.yul\":1896:1903   */\n      dup6\n        /* \"#utility.yul\":1887:1893   */\n      dup3\n        /* \"#utility.yul\":1876:1885   */\n      dup7\n        /* \"#utility.yul\":1872:1894   */\n      add\n        /* \"#utility.yul\":1851:1904   */\n      tag_193\n      jump\t// in\n    tag_215:\n        /* \"#utility.yul\":1841:1904   */\n      swap2\n      pop\n        /* \"#utility.yul\":1796:1914   */\n      pop\n        /* \"#utility.yul\":1447:1921   */\n      swap3\n      pop\n      swap3\n      swap1\n      pop\n      jump\t// out\n        /* \"#utility.yul\":1927:2106   */\n    tag_216:\n        /* \"#utility.yul\":1996:2006   */\n      0x00\n        /* \"#utility.yul\":2017:2063   */\n      tag_218\n        /* \"#utility.yul\":2059:2062   */\n      dup4\n        /* \"#utility.yul\":2051:2057   */\n      dup4\n        /* \"#utility.yul\":2017:2063   */\n      tag_219\n      jump\t// in\n    tag_218:\n        /* \"#utility.yul\":2095:2099   */\n      0x20\n        /* \"#utility.yul\":2090:2093   */\n      dup4\n        /* \"#utility.yul\":2086:2100   */\n      add\n        /* \"#utility.yul\":2072:2100   */\n      swap1\n      pop\n        /* \"#utility.yul\":1927:2106   */\n      swap3\n      swap2\n      pop\n      pop\n      jump\t// out\n        /* \"#utility.yul\":2112:2230   */\n    tag_220:\n        /* \"#utility.yul\":2199:2223   */\n      tag_222\n        /* \"#utility.yul\":2217:2222   */\n      dup2\n        /* \"#utility.yul\":2199:2223   */\n      tag_223\n      jump\t// in\n    tag_222:\n        /* \"#utility.yul\":2194:2197   */\n      dup3\n        /* \"#utility.yul\":2187:2224   */\n      mstore\n        /* \"#utility.yul\":2112:2230   */\n      pop\n      pop\n      jump\t// out\n        /* \"#utility.yul\":2266:2998   */\n    tag_224:\n        /* \"#utility.yul\":2385:2388   */\n      0x00\n        /* \"#utility.yul\":2414:2468   */\n      tag_226\n        /* \"#utility.yul\":2462:2467   */\n      dup3\n        /* \"#utility.yul\":2414:2468   */\n      tag_227\n      jump\t// in\n    tag_226:\n        /* \"#utility.yul\":2484:2570   */\n      tag_228\n        /* \"#utility.yul\":2563:2569   */\n      dup2\n        /* \"#utility.yul\":2558:2561   */\n      dup6\n        /* \"#utility.yul\":2484:2570   */\n      tag_229\n      jump\t// in\n    tag_228:\n        /* \"#utility.yul\":2477:2570   */\n      swap4\n      pop\n        /* \"#utility.yul\":2594:2650   */\n      tag_230\n        /* \"#utility.yul\":2644:2649   */\n      dup4\n        /* \"#utility.yul\":2594:2650   */\n      tag_231\n      jump\t// in\n    tag_230:\n        /* \"#utility.yul\":2673:2680   */\n      dup1\n        /* \"#utility.yul\":2704:2705   */\n      0x00\n        /* \"#utility.yul\":2689:2973   */\n    tag_232:\n        /* \"#utility.yul\":2714:2720   */\n      dup4\n        /* \"#utility.yul\":2711:2712   */\n      dup2\n        /* \"#utility.yul\":2708:2721   */\n      lt\n        /* \"#utility.yul\":2689:2973   */\n      iszero\n      tag_234\n      jumpi\n        /* \"#utility.yul\":2790:2796   */\n      dup2\n        /* \"#utility.yul\":2784:2797   */\n      mload\n        /* \"#utility.yul\":2817:2880   */\n      tag_235\n        /* \"#utility.yul\":2876:2879   */\n      dup9\n        /* \"#utility.yul\":2861:2874   */\n      dup3\n        /* \"#utility.yul\":2817:2880   */\n      tag_216\n      jump\t// in\n    tag_235:\n        /* \"#utility.yul\":2810:2880   */\n      swap8\n      pop\n        /* \"#utility.yul\":2903:2963   */\n      tag_236\n        /* \"#utility.yul\":2956:2962   */\n      dup4\n        /* \"#utility.yul\":2903:2963   */\n      tag_237\n      jump\t// in\n    tag_236:\n        /* \"#utility.yul\":2893:2963   */\n      swap3\n      pop\n        /* \"#utility.yul\":2749:2973   */\n      pop\n        /* \"#utility.yul\":2736:2737   */\n      0x01\n        /* \"#utility.yul\":2733:2734   */\n      dup2\n        /* \"#utility.yul\":2729:2738   */\n      add\n        /* \"#utility.yul\":2724:2738   */\n      swap1\n      pop\n        /* \"#utility.yul\":2689:2973   */\n      jump(tag_232)\n    tag_234:\n        /* \"#utility.yul\":2693:2707   */\n      pop\n        /* \"#utility.yul\":2989:2992   */\n      dup6\n        /* \"#utility.yul\":2982:2992   */\n      swap4\n      pop\n        /* \"#utility.yul\":2390:2998   */\n      pop\n      pop\n      pop\n        /* \"#utility.yul\":2266:2998   */\n      swap3\n      swap2\n      pop\n      pop\n      jump\t// out\n        /* \"#utility.yul\":3004:3113   */\n    tag_238:\n        /* \"#utility.yul\":3085:3106   */\n      tag_240\n        /* \"#utility.yul\":3100:3105   */\n      dup2\n        /* \"#utility.yul\":3085:3106   */\n      tag_241\n      jump\t// in\n    tag_240:\n        /* \"#utility.yul\":3080:3083   */\n      dup3\n        /* \"#utility.yul\":3073:3107   */\n      mstore\n        /* \"#utility.yul\":3004:3113   */\n      pop\n      pop\n      jump\t// out\n        /* \"#utility.yul\":3119:3262   */\n    tag_242:\n        /* \"#utility.yul\":3212:3255   */\n      tag_244\n        /* \"#utility.yul\":3249:3254   */\n      dup2\n        /* \"#utility.yul\":3212:3255   */\n      tag_245\n      jump\t// in\n    tag_244:\n        /* \"#utility.yul\":3207:3210   */\n      dup3\n        /* \"#utility.yul\":3200:3256   */\n      mstore\n        /* \"#utility.yul\":3119:3262   */\n      pop\n      pop\n      jump\t// out\n        /* \"#utility.yul\":3268:3612   */\n    tag_246:\n        /* \"#utility.yul\":3346:3349   */\n      0x00\n        /* \"#utility.yul\":3374:3413   */\n      tag_248\n        /* \"#utility.yul\":3407:3412   */\n      dup3\n        /* \"#utility.yul\":3374:3413   */\n      tag_249\n      jump\t// in\n    tag_248:\n        /* \"#utility.yul\":3429:3490   */\n      tag_250\n        /* \"#utility.yul\":3483:3489   */\n      dup2\n        /* \"#utility.yul\":3478:3481   */\n      dup6\n        /* \"#utility.yul\":3429:3490   */\n      tag_251\n      jump\t// in\n    tag_250:\n        /* \"#utility.yul\":3422:3490   */\n      swap4\n      pop\n        /* \"#utility.yul\":3499:3551   */\n      tag_252\n        /* \"#utility.yul\":3544:3550   */\n      dup2\n        /* \"#utility.yul\":3539:3542   */\n      dup6\n        /* \"#utility.yul\":3532:3536   */\n      0x20\n        /* \"#utility.yul\":3525:3530   */\n      dup7\n        /* \"#utility.yul\":3521:3537   */\n      add\n        /* \"#utility.yul\":3499:3551   */\n      tag_253\n      jump\t// in\n    tag_252:\n        /* \"#utility.yul\":3576:3605   */\n      tag_254\n        /* \"#utility.yul\":3598:3604   */\n      dup2\n        /* \"#utility.yul\":3576:3605   */\n      tag_255\n      jump\t// in\n    tag_254:\n        /* \"#utility.yul\":3571:3574   */\n      dup5\n        /* \"#utility.yul\":3567:3606   */\n      add\n        /* \"#utility.yul\":3560:3606   */\n      swap2\n      pop\n        /* \"#utility.yul\":3350:3612   */\n      pop\n        /* \"#utility.yul\":3268:3612   */\n      swap3\n      swap2\n      pop\n      pop\n      jump\t// out\n        /* \"#utility.yul\":3618:3982   */\n    tag_256:\n        /* \"#utility.yul\":3706:3709   */\n      0x00\n        /* \"#utility.yul\":3734:3773   */\n      tag_258\n        /* \"#utility.yul\":3767:3772   */\n      dup3\n        /* \"#utility.yul\":3734:3773   */\n      tag_249\n      jump\t// in\n    tag_258:\n        /* \"#utility.yul\":3789:3860   */\n      tag_259\n        /* \"#utility.yul\":3853:3859   */\n      dup2\n        /* \"#utility.yul\":3848:3851   */\n      dup6\n        /* \"#utility.yul\":3789:3860   */\n      tag_260\n      jump\t// in\n    tag_259:\n        /* \"#utility.yul\":3782:3860   */\n      swap4\n      pop\n        /* \"#utility.yul\":3869:3921   */\n      tag_261\n        /* \"#utility.yul\":3914:3920   */\n      dup2\n        /* \"#utility.yul\":3909:3912   */\n      dup6\n        /* \"#utility.yul\":3902:3906   */\n      0x20\n        /* \"#utility.yul\":3895:3900   */\n      dup7\n        /* \"#utility.yul\":3891:3907   */\n      add\n        /* \"#utility.yul\":3869:3921   */\n      tag_253\n      jump\t// in\n    tag_261:\n        /* \"#utility.yul\":3946:3975   */\n      tag_262\n        /* \"#utility.yul\":3968:3974   */\n      dup2\n        /* \"#utility.yul\":3946:3975   */\n      tag_255\n      jump\t// in\n    tag_262:\n        /* \"#utility.yul\":3941:3944   */\n      dup5\n        /* \"#utility.yul\":3937:3976   */\n      add\n        /* \"#utility.yul\":3930:3976   */\n      swap2\n      pop\n        /* \"#utility.yul\":3710:3982   */\n      pop\n        /* \"#utility.yul\":3618:3982   */\n      swap3\n      swap2\n      pop\n      pop\n      jump\t// out\n        /* \"#utility.yul\":3988:4354   */\n    tag_263:\n        /* \"#utility.yul\":4130:4133   */\n      0x00\n        /* \"#utility.yul\":4151:4218   */\n      tag_265\n        /* \"#utility.yul\":4215:4217   */\n      0x2a\n        /* \"#utility.yul\":4210:4213   */\n      dup4\n        /* \"#utility.yul\":4151:4218   */\n      tag_260\n      jump\t// in\n    tag_265:\n        /* \"#utility.yul\":4144:4218   */\n      swap2\n      pop\n        /* \"#utility.yul\":4227:4320   */\n      tag_266\n        /* \"#utility.yul\":4316:4319   */\n      dup3\n        /* \"#utility.yul\":4227:4320   */\n      tag_267\n      jump\t// in\n    tag_266:\n        /* \"#utility.yul\":4345:4347   */\n      0x40\n        /* \"#utility.yul\":4340:4343   */\n      dup3\n        /* \"#utility.yul\":4336:4348   */\n      add\n        /* \"#utility.yul\":4329:4348   */\n      swap1\n      pop\n        /* \"#utility.yul\":3988:4354   */\n      swap2\n      swap1\n      pop\n      jump\t// out\n        /* \"#utility.yul\":4360:4726   */\n    tag_268:\n        /* \"#utility.yul\":4502:4505   */\n      0x00\n        /* \"#utility.yul\":4523:4590   */\n      tag_270\n        /* \"#utility.yul\":4587:4589   */\n      0x1c\n        /* \"#utility.yul\":4582:4585   */\n      dup4\n        /* \"#utility.yul\":4523:4590   */\n      tag_260\n      jump\t// in\n    tag_270:\n        /* \"#utility.yul\":4516:4590   */\n      swap2\n      pop\n        /* \"#utility.yul\":4599:4692   */\n      tag_271\n        /* \"#utility.yul\":4688:4691   */\n      dup3\n        /* \"#utility.yul\":4599:4692   */\n      tag_272\n      jump\t// in\n    tag_271:\n        /* \"#utility.yul\":4717:4719   */\n      0x20\n        /* \"#utility.yul\":4712:4715   */\n      dup3\n        /* \"#utility.yul\":4708:4720   */\n      add\n        /* \"#utility.yul\":4701:4720   */\n      swap1\n      pop\n        /* \"#utility.yul\":4360:4726   */\n      swap2\n      swap1\n      pop\n      jump\t// out\n        /* \"#utility.yul\":4794:5571   */\n    tag_273:\n        /* \"#utility.yul\":4911:4914   */\n      0x00\n        /* \"#utility.yul\":4947:4951   */\n      0x60\n        /* \"#utility.yul\":4942:4945   */\n      dup4\n        /* \"#utility.yul\":4938:4952   */\n      add\n        /* \"#utility.yul\":5032:5036   */\n      0x00\n        /* \"#utility.yul\":5025:5030   */\n      dup4\n        /* \"#utility.yul\":5021:5037   */\n      add\n        /* \"#utility.yul\":5015:5038   */\n      mload\n        /* \"#utility.yul\":5051:5114   */\n      tag_275\n        /* \"#utility.yul\":5108:5112   */\n      0x00\n        /* \"#utility.yul\":5103:5106   */\n      dup7\n        /* \"#utility.yul\":5099:5113   */\n      add\n        /* \"#utility.yul\":5085:5097   */\n      dup3\n        /* \"#utility.yul\":5051:5114   */\n      tag_219\n      jump\t// in\n    tag_275:\n        /* \"#utility.yul\":4962:5124   */\n      pop\n        /* \"#utility.yul\":5206:5210   */\n      0x20\n        /* \"#utility.yul\":5199:5204   */\n      dup4\n        /* \"#utility.yul\":5195:5211   */\n      add\n        /* \"#utility.yul\":5189:5212   */\n      mload\n        /* \"#utility.yul\":5259:5262   */\n      dup5\n        /* \"#utility.yul\":5253:5257   */\n      dup3\n        /* \"#utility.yul\":5249:5263   */\n      sub\n        /* \"#utility.yul\":5242:5246   */\n      0x20\n        /* \"#utility.yul\":5237:5240   */\n      dup7\n        /* \"#utility.yul\":5233:5247   */\n      add\n        /* \"#utility.yul\":5226:5264   */\n      mstore\n        /* \"#utility.yul\":5285:5358   */\n      tag_276\n        /* \"#utility.yul\":5353:5357   */\n      dup3\n        /* \"#utility.yul\":5339:5351   */\n      dup3\n        /* \"#utility.yul\":5285:5358   */\n      tag_246\n      jump\t// in\n    tag_276:\n        /* \"#utility.yul\":5277:5358   */\n      swap2\n      pop\n        /* \"#utility.yul\":5134:5369   */\n      pop\n        /* \"#utility.yul\":5452:5456   */\n      0x40\n        /* \"#utility.yul\":5445:5450   */\n      dup4\n        /* \"#utility.yul\":5441:5457   */\n      add\n        /* \"#utility.yul\":5435:5458   */\n      mload\n        /* \"#utility.yul\":5471:5534   */\n      tag_277\n        /* \"#utility.yul\":5528:5532   */\n      0x40\n        /* \"#utility.yul\":5523:5526   */\n      dup7\n        /* \"#utility.yul\":5519:5533   */\n      add\n        /* \"#utility.yul\":5505:5517   */\n      dup3\n        /* \"#utility.yul\":5471:5534   */\n      tag_219\n      jump\t// in\n    tag_277:\n        /* \"#utility.yul\":5379:5544   */\n      pop\n        /* \"#utility.yul\":5561:5565   */\n      dup1\n        /* \"#utility.yul\":5554:5565   */\n      swap2\n      pop\n        /* \"#utility.yul\":4916:5571   */\n      pop\n        /* \"#utility.yul\":4794:5571   */\n      swap3\n      swap2\n      pop\n      pop\n      jump\t// out\n        /* \"#utility.yul\":5577:5685   */\n    tag_219:\n        /* \"#utility.yul\":5654:5678   */\n      tag_279\n        /* \"#utility.yul\":5672:5677   */\n      dup2\n        /* \"#utility.yul\":5654:5678   */\n      tag_280\n      jump\t// in\n    tag_279:\n        /* \"#utility.yul\":5649:5652   */\n      dup3\n        /* \"#utility.yul\":5642:5679   */\n      mstore\n        /* \"#utility.yul\":5577:5685   */\n      pop\n      pop\n      jump\t// out\n        /* \"#utility.yul\":5691:5809   */\n    tag_281:\n        /* \"#utility.yul\":5778:5802   */\n      tag_283\n        /* \"#utility.yul\":5796:5801   */\n      dup2\n        /* \"#utility.yul\":5778:5802   */\n      tag_280\n      jump\t// in\n    tag_283:\n        /* \"#utility.yul\":5773:5776   */\n      dup3\n        /* \"#utility.yul\":5766:5803   */\n      mstore\n        /* \"#utility.yul\":5691:5809   */\n      pop\n      pop\n      jump\t// out\n        /* \"#utility.yul\":5815:6037   */\n    tag_62:\n        /* \"#utility.yul\":5908:5912   */\n      0x00\n        /* \"#utility.yul\":5946:5948   */\n      0x20\n        /* \"#utility.yul\":5935:5944   */\n      dup3\n        /* \"#utility.yul\":5931:5949   */\n      add\n        /* \"#utility.yul\":5923:5949   */\n      swap1\n      pop\n        /* \"#utility.yul\":5959:6030   */\n      tag_285\n        /* \"#utility.yul\":6027:6028   */\n      0x00\n        /* \"#utility.yul\":6016:6025   */\n      dup4\n        /* \"#utility.yul\":6012:6029   */\n      add\n        /* \"#utility.yul\":6003:6009   */\n      dup5\n        /* \"#utility.yul\":5959:6030   */\n      tag_220\n      jump\t// in\n    tag_285:\n        /* \"#utility.yul\":5815:6037   */\n      swap3\n      swap2\n      pop\n      pop\n      jump\t// out\n        /* \"#utility.yul\":6043:6416   */\n    tag_32:\n        /* \"#utility.yul\":6186:6190   */\n      0x00\n        /* \"#utility.yul\":6224:6226   */\n      0x20\n        /* \"#utility.yul\":6213:6222   */\n      dup3\n        /* \"#utility.yul\":6209:6227   */\n      add\n        /* \"#utility.yul\":6201:6227   */\n      swap1\n      pop\n        /* \"#utility.yul\":6273:6282   */\n      dup2\n        /* \"#utility.yul\":6267:6271   */\n      dup2\n        /* \"#utility.yul\":6263:6283   */\n      sub\n        /* \"#utility.yul\":6259:6260   */\n      0x00\n        /* \"#utility.yul\":6248:6257   */\n      dup4\n        /* \"#utility.yul\":6244:6261   */\n      add\n        /* \"#utility.yul\":6237:6284   */\n      mstore\n        /* \"#utility.yul\":6301:6409   */\n      tag_287\n        /* \"#utility.yul\":6404:6408   */\n      dup2\n        /* \"#utility.yul\":6395:6401   */\n      dup5\n        /* \"#utility.yul\":6301:6409   */\n      tag_224\n      jump\t// in\n    tag_287:\n        /* \"#utility.yul\":6293:6409   */\n      swap1\n      pop\n        /* \"#utility.yul\":6043:6416   */\n      swap3\n      swap2\n      pop\n      pop\n      jump\t// out\n        /* \"#utility.yul\":6422:6632   */\n    tag_42:\n        /* \"#utility.yul\":6509:6513   */\n      0x00\n        /* \"#utility.yul\":6547:6549   */\n      0x20\n        /* \"#utility.yul\":6536:6545   */\n      dup3\n        /* \"#utility.yul\":6532:6550   */\n      add\n        /* \"#utility.yul\":6524:6550   */\n      swap1\n      pop\n        /* \"#utility.yul\":6560:6625   */\n      tag_289\n        /* \"#utility.yul\":6622:6623   */\n      0x00\n        /* \"#utility.yul\":6611:6620   */\n      dup4\n        /* \"#utility.yul\":6607:6624   */\n      add\n        /* \"#utility.yul\":6598:6604   */\n      dup5\n        /* \"#utility.yul\":6560:6625   */\n      tag_238\n      jump\t// in\n    tag_289:\n        /* \"#utility.yul\":6422:6632   */\n      swap3\n      swap2\n      pop\n      pop\n      jump\t// out\n        /* \"#utility.yul\":6638:7278   */\n    tag_56:\n        /* \"#utility.yul\":6831:6835   */\n      0x00\n        /* \"#utility.yul\":6869:6872   */\n      0xa0\n        /* \"#utility.yul\":6858:6867   */\n      dup3\n        /* \"#utility.yul\":6854:6873   */\n      add\n        /* \"#utility.yul\":6846:6873   */\n      swap1\n      pop\n        /* \"#utility.yul\":6883:6948   */\n      tag_291\n        /* \"#utility.yul\":6945:6946   */\n      0x00\n        /* \"#utility.yul\":6934:6943   */\n      dup4\n        /* \"#utility.yul\":6930:6947   */\n      add\n        /* \"#utility.yul\":6921:6927   */\n      dup9\n        /* \"#utility.yul\":6883:6948   */\n      tag_238\n      jump\t// in\n    tag_291:\n        /* \"#utility.yul\":6958:7024   */\n      tag_292\n        /* \"#utility.yul\":7020:7022   */\n      0x20\n        /* \"#utility.yul\":7009:7018   */\n      dup4\n        /* \"#utility.yul\":7005:7023   */\n      add\n        /* \"#utility.yul\":6996:7002   */\n      dup8\n        /* \"#utility.yul\":6958:7024   */\n      tag_238\n      jump\t// in\n    tag_292:\n        /* \"#utility.yul\":7034:7106   */\n      tag_293\n        /* \"#utility.yul\":7102:7104   */\n      0x40\n        /* \"#utility.yul\":7091:7100   */\n      dup4\n        /* \"#utility.yul\":7087:7105   */\n      add\n        /* \"#utility.yul\":7078:7084   */\n      dup7\n        /* \"#utility.yul\":7034:7106   */\n      tag_281\n      jump\t// in\n    tag_293:\n        /* \"#utility.yul\":7116:7188   */\n      tag_294\n        /* \"#utility.yul\":7184:7186   */\n      0x60\n        /* \"#utility.yul\":7173:7182   */\n      dup4\n        /* \"#utility.yul\":7169:7187   */\n      add\n        /* \"#utility.yul\":7160:7166   */\n      dup6\n        /* \"#utility.yul\":7116:7188   */\n      tag_281\n      jump\t// in\n    tag_294:\n        /* \"#utility.yul\":7198:7271   */\n      tag_295\n        /* \"#utility.yul\":7266:7269   */\n      0x80\n        /* \"#utility.yul\":7255:7264   */\n      dup4\n        /* \"#utility.yul\":7251:7270   */\n      add\n        /* \"#utility.yul\":7242:7248   */\n      dup5\n        /* \"#utility.yul\":7198:7271   */\n      tag_281\n      jump\t// in\n    tag_295:\n        /* \"#utility.yul\":6638:7278   */\n      swap7\n      swap6\n      pop\n      pop\n      pop\n      pop\n      pop\n      pop\n      jump\t// out\n        /* \"#utility.yul\":7284:7714   */\n    tag_118:\n        /* \"#utility.yul\":7427:7431   */\n      0x00\n        /* \"#utility.yul\":7465:7467   */\n      0x60\n        /* \"#utility.yul\":7454:7463   */\n      dup3\n        /* \"#utility.yul\":7450:7468   */\n      add\n        /* \"#utility.yul\":7442:7468   */\n      swap1\n      pop\n        /* \"#utility.yul\":7478:7543   */\n      tag_297\n        /* \"#utility.yul\":7540:7541   */\n      0x00\n        /* \"#utility.yul\":7529:7538   */\n      dup4\n        /* \"#utility.yul\":7525:7542   */\n      add\n        /* \"#utility.yul\":7516:7522   */\n      dup7\n        /* \"#utility.yul\":7478:7543   */\n      tag_238\n      jump\t// in\n    tag_297:\n        /* \"#utility.yul\":7553:7625   */\n      tag_298\n        /* \"#utility.yul\":7621:7623   */\n      0x20\n        /* \"#utility.yul\":7610:7619   */\n      dup4\n        /* \"#utility.yul\":7606:7624   */\n      add\n        /* \"#utility.yul\":7597:7603   */\n      dup6\n        /* \"#utility.yul\":7553:7625   */\n      tag_281\n      jump\t// in\n    tag_298:\n        /* \"#utility.yul\":7635:7707   */\n      tag_299\n        /* \"#utility.yul\":7703:7705   */\n      0x40\n        /* \"#utility.yul\":7692:7701   */\n      dup4\n        /* \"#utility.yul\":7688:7706   */\n      add\n        /* \"#utility.yul\":7679:7685   */\n      dup5\n        /* \"#utility.yul\":7635:7707   */\n      tag_281\n      jump\t// in\n    tag_299:\n        /* \"#utility.yul\":7284:7714   */\n      swap5\n      swap4\n      pop\n      pop\n      pop\n      pop\n      jump\t// out\n        /* \"#utility.yul\":7720:7954   */\n    tag_76:\n        /* \"#utility.yul\":7819:7823   */\n      0x00\n        /* \"#utility.yul\":7857:7859   */\n      0x20\n        /* \"#utility.yul\":7846:7855   */\n      dup3\n        /* \"#utility.yul\":7842:7860   */\n      add\n        /* \"#utility.yul\":7834:7860   */\n      swap1\n      pop\n        /* \"#utility.yul\":7870:7947   */\n      tag_301\n        /* \"#utility.yul\":7944:7945   */\n      0x00\n        /* \"#utility.yul\":7933:7942   */\n      dup4\n        /* \"#utility.yul\":7929:7946   */\n      add\n        /* \"#utility.yul\":7920:7926   */\n      dup5\n        /* \"#utility.yul\":7870:7947   */\n      tag_242\n      jump\t// in\n    tag_301:\n        /* \"#utility.yul\":7720:7954   */\n      swap3\n      swap2\n      pop\n      pop\n      jump\t// out\n        /* \"#utility.yul\":7960:8379   */\n    tag_162:\n        /* \"#utility.yul\":8126:8130   */\n      0x00\n        /* \"#utility.yul\":8164:8166   */\n      0x20\n        /* \"#utility.yul\":8153:8162   */\n      dup3\n        /* \"#utility.yul\":8149:8167   */\n      add\n        /* \"#utility.yul\":8141:8167   */\n      swap1\n      pop\n        /* \"#utility.yul\":8213:8222   */\n      dup2\n        /* \"#utility.yul\":8207:8211   */\n      dup2\n        /* \"#utility.yul\":8203:8223   */\n      sub\n        /* \"#utility.yul\":8199:8200   */\n      0x00\n        /* \"#utility.yul\":8188:8197   */\n      dup4\n        /* \"#utility.yul\":8184:8201   */\n      add\n        /* \"#utility.yul\":8177:8224   */\n      mstore\n        /* \"#utility.yul\":8241:8372   */\n      tag_303\n        /* \"#utility.yul\":8367:8371   */\n      dup2\n        /* \"#utility.yul\":8241:8372   */\n      tag_263\n      jump\t// in\n    tag_303:\n        /* \"#utility.yul\":8233:8372   */\n      swap1\n      pop\n        /* \"#utility.yul\":7960:8379   */\n      swap2\n      swap1\n      pop\n      jump\t// out\n        /* \"#utility.yul\":8385:8804   */\n    tag_158:\n        /* \"#utility.yul\":8551:8555   */\n      0x00\n        /* \"#utility.yul\":8589:8591   */\n      0x20\n        /* \"#utility.yul\":8578:8587   */\n      dup3\n        /* \"#utility.yul\":8574:8592   */\n      add\n        /* \"#utility.yul\":8566:8592   */\n      swap1\n      pop\n        /* \"#utility.yul\":8638:8647   */\n      dup2\n        /* \"#utility.yul\":8632:8636   */\n      dup2\n        /* \"#utility.yul\":8628:8648   */\n      sub\n        /* \"#utility.yul\":8624:8625   */\n      0x00\n        /* \"#utility.yul\":8613:8622   */\n      dup4\n        /* \"#utility.yul\":8609:8626   */\n      add\n        /* \"#utility.yul\":8602:8649   */\n      mstore\n        /* \"#utility.yul\":8666:8797   */\n      tag_305\n        /* \"#utility.yul\":8792:8796   */\n      dup2\n        /* \"#utility.yul\":8666:8797   */\n      tag_268\n      jump\t// in\n    tag_305:\n        /* \"#utility.yul\":8658:8797   */\n      swap1\n      pop\n        /* \"#utility.yul\":8385:8804   */\n      swap2\n      swap1\n      pop\n      jump\t// out\n        /* \"#utility.yul\":8810:9179   */\n    tag_81:\n        /* \"#utility.yul\":8951:8955   */\n      0x00\n        /* \"#utility.yul\":8989:8991   */\n      0x20\n        /* \"#utility.yul\":8978:8987   */\n      dup3\n        /* \"#utility.yul\":8974:8992   */\n      add\n        /* \"#utility.yul\":8966:8992   */\n      swap1\n      pop\n        /* \"#utility.yul\":9038:9047   */\n      dup2\n        /* \"#utility.yul\":9032:9036   */\n      dup2\n        /* \"#utility.yul\":9028:9048   */\n      sub\n        /* \"#utility.yul\":9024:9025   */\n      0x00\n        /* \"#utility.yul\":9013:9022   */\n      dup4\n        /* \"#utility.yul\":9009:9026   */\n      add\n        /* \"#utility.yul\":9002:9049   */\n      mstore\n        /* \"#utility.yul\":9066:9172   */\n      tag_307\n        /* \"#utility.yul\":9167:9171   */\n      dup2\n        /* \"#utility.yul\":9158:9164   */\n      dup5\n        /* \"#utility.yul\":9066:9172   */\n      tag_273\n      jump\t// in\n    tag_307:\n        /* \"#utility.yul\":9058:9172   */\n      swap1\n      pop\n        /* \"#utility.yul\":8810:9179   */\n      swap3\n      swap2\n      pop\n      pop\n      jump\t// out\n        /* \"#utility.yul\":9185:9407   */\n    tag_26:\n        /* \"#utility.yul\":9278:9282   */\n      0x00\n        /* \"#utility.yul\":9316:9318   */\n      0x20\n        /* \"#utility.yul\":9305:9314   */\n      dup3\n        /* \"#utility.yul\":9301:9319   */\n      add\n        /* \"#utility.yul\":9293:9319   */\n      swap1\n      pop\n        /* \"#utility.yul\":9329:9400   */\n      tag_309\n        /* \"#utility.yul\":9397:9398   */\n      0x00\n        /* \"#utility.yul\":9386:9395   */\n      dup4\n        /* \"#utility.yul\":9382:9399   */\n      add\n        /* \"#utility.yul\":9373:9379   */\n      dup5\n        /* \"#utility.yul\":9329:9400   */\n      tag_281\n      jump\t// in\n    tag_309:\n        /* \"#utility.yul\":9185:9407   */\n      swap3\n      swap2\n      pop\n      pop\n      jump\t// out\n        /* \"#utility.yul\":9413:9946   */\n    tag_50:\n        /* \"#utility.yul\":9582:9586   */\n      0x00\n        /* \"#utility.yul\":9620:9622   */\n      0x60\n        /* \"#utility.yul\":9609:9618   */\n      dup3\n        /* \"#utility.yul\":9605:9623   */\n      add\n        /* \"#utility.yul\":9597:9623   */\n      swap1\n      pop\n        /* \"#utility.yul\":9633:9704   */\n      tag_311\n        /* \"#utility.yul\":9701:9702   */\n      0x00\n        /* \"#utility.yul\":9690:9699   */\n      dup4\n        /* \"#utility.yul\":9686:9703   */\n      add\n        /* \"#utility.yul\":9677:9683   */\n      dup7\n        /* \"#utility.yul\":9633:9704   */\n      tag_281\n      jump\t// in\n    tag_311:\n        /* \"#utility.yul\":9751:9760   */\n      dup2\n        /* \"#utility.yul\":9745:9749   */\n      dup2\n        /* \"#utility.yul\":9741:9761   */\n      sub\n        /* \"#utility.yul\":9736:9738   */\n      0x20\n        /* \"#utility.yul\":9725:9734   */\n      dup4\n        /* \"#utility.yul\":9721:9739   */\n      add\n        /* \"#utility.yul\":9714:9762   */\n      mstore\n        /* \"#utility.yul\":9779:9857   */\n      tag_312\n        /* \"#utility.yul\":9852:9856   */\n      dup2\n        /* \"#utility.yul\":9843:9849   */\n      dup6\n        /* \"#utility.yul\":9779:9857   */\n      tag_256\n      jump\t// in\n    tag_312:\n        /* \"#utility.yul\":9771:9857   */\n      swap1\n      pop\n        /* \"#utility.yul\":9867:9939   */\n      tag_313\n        /* \"#utility.yul\":9935:9937   */\n      0x40\n        /* \"#utility.yul\":9924:9933   */\n      dup4\n        /* \"#utility.yul\":9920:9938   */\n      add\n        /* \"#utility.yul\":9911:9917   */\n      dup5\n        /* \"#utility.yul\":9867:9939   */\n      tag_281\n      jump\t// in\n    tag_313:\n        /* \"#utility.yul\":9413:9946   */\n      swap5\n      swap4\n      pop\n      pop\n      pop\n      pop\n      jump\t// out\n        /* \"#utility.yul\":9952:10596   */\n    tag_92:\n        /* \"#utility.yul\":10149:10153   */\n      0x00\n        /* \"#utility.yul\":10187:10190   */\n      0x80\n        /* \"#utility.yul\":10176:10185   */\n      dup3\n        /* \"#utility.yul\":10172:10191   */\n      add\n        /* \"#utility.yul\":10164:10191   */\n      swap1\n      pop\n        /* \"#utility.yul\":10201:10272   */\n      tag_315\n        /* \"#utility.yul\":10269:10270   */\n      0x00\n        /* \"#utility.yul\":10258:10267   */\n      dup4\n        /* \"#utility.yul\":10254:10271   */\n      add\n        /* \"#utility.yul\":10245:10251   */\n      dup8\n        /* \"#utility.yul\":10201:10272   */\n      tag_281\n      jump\t// in\n    tag_315:\n        /* \"#utility.yul\":10319:10328   */\n      dup2\n        /* \"#utility.yul\":10313:10317   */\n      dup2\n        /* \"#utility.yul\":10309:10329   */\n      sub\n        /* \"#utility.yul\":10304:10306   */\n      0x20\n        /* \"#utility.yul\":10293:10302   */\n      dup4\n        /* \"#utility.yul\":10289:10307   */\n      add\n        /* \"#utility.yul\":10282:10330   */\n      mstore\n        /* \"#utility.yul\":10347:10425   */\n      tag_316\n        /* \"#utility.yul\":10420:10424   */\n      dup2\n        /* \"#utility.yul\":10411:10417   */\n      dup7\n        /* \"#utility.yul\":10347:10425   */\n      tag_256\n      jump\t// in\n    tag_316:\n        /* \"#utility.yul\":10339:10425   */\n      swap1\n      pop\n        /* \"#utility.yul\":10435:10507   */\n      tag_317\n        /* \"#utility.yul\":10503:10505   */\n      0x40\n        /* \"#utility.yul\":10492:10501   */\n      dup4\n        /* \"#utility.yul\":10488:10506   */\n      add\n        /* \"#utility.yul\":10479:10485   */\n      dup6\n        /* \"#utility.yul\":10435:10507   */\n      tag_281\n      jump\t// in\n    tag_317:\n        /* \"#utility.yul\":10517:10589   */\n      tag_318\n        /* \"#utility.yul\":10585:10587   */\n      0x60\n        /* \"#utility.yul\":10574:10583   */\n      dup4\n        /* \"#utility.yul\":10570:10588   */\n      add\n        /* \"#utility.yul\":10561:10567   */\n      dup5\n        /* \"#utility.yul\":10517:10589   */\n      tag_281\n      jump\t// in\n    tag_318:\n        /* \"#utility.yul\":9952:10596   */\n      swap6\n      swap5\n      pop\n      pop\n      pop\n      pop\n      pop\n      jump\t// out\n        /* \"#utility.yul\":10683:10815   */\n    tag_231:\n        /* \"#utility.yul\":10750:10754   */\n      0x00\n        /* \"#utility.yul\":10773:10776   */\n      dup2\n        /* \"#utility.yul\":10765:10776   */\n      swap1\n      pop\n        /* \"#utility.yul\":10803:10807   */\n      0x20\n        /* \"#utility.yul\":10798:10801   */\n      dup3\n        /* \"#utility.yul\":10794:10808   */\n      add\n        /* \"#utility.yul\":10786:10808   */\n      swap1\n      pop\n        /* \"#utility.yul\":10683:10815   */\n      swap2\n      swap1\n      pop\n      jump\t// out\n        /* \"#utility.yul\":10821:10935   */\n    tag_227:\n        /* \"#utility.yul\":10888:10894   */\n      0x00\n        /* \"#utility.yul\":10922:10927   */\n      dup2\n        /* \"#utility.yul\":10916:10928   */\n      mload\n        /* \"#utility.yul\":10906:10928   */\n      swap1\n      pop\n        /* \"#utility.yul\":10821:10935   */\n      swap2\n      swap1\n      pop\n      jump\t// out\n        /* \"#utility.yul\":10941:11040   */\n    tag_249:\n        /* \"#utility.yul\":10993:10999   */\n      0x00\n        /* \"#utility.yul\":11027:11032   */\n      dup2\n        /* \"#utility.yul\":11021:11033   */\n      mload\n        /* \"#utility.yul\":11011:11033   */\n      swap1\n      pop\n        /* \"#utility.yul\":10941:11040   */\n      swap2\n      swap1\n      pop\n      jump\t// out\n        /* \"#utility.yul\":11046:11159   */\n    tag_237:\n        /* \"#utility.yul\":11116:11120   */\n      0x00\n        /* \"#utility.yul\":11148:11152   */\n      0x20\n        /* \"#utility.yul\":11143:11146   */\n      dup3\n        /* \"#utility.yul\":11139:11153   */\n      add\n        /* \"#utility.yul\":11131:11153   */\n      swap1\n      pop\n        /* \"#utility.yul\":11046:11159   */\n      swap2\n      swap1\n      pop\n      jump\t// out\n        /* \"#utility.yul\":11165:11349   */\n    tag_229:\n        /* \"#utility.yul\":11264:11275   */\n      0x00\n        /* \"#utility.yul\":11298:11304   */\n      dup3\n        /* \"#utility.yul\":11293:11296   */\n      dup3\n        /* \"#utility.yul\":11286:11305   */\n      mstore\n        /* \"#utility.yul\":11338:11342   */\n      0x20\n        /* \"#utility.yul\":11333:11336   */\n      dup3\n        /* \"#utility.yul\":11329:11343   */\n      add\n        /* \"#utility.yul\":11314:11343   */\n      swap1\n      pop\n        /* \"#utility.yul\":11165:11349   */\n      swap3\n      swap2\n      pop\n      pop\n      jump\t// out\n        /* \"#utility.yul\":11355:11514   */\n    tag_251:\n        /* \"#utility.yul\":11429:11440   */\n      0x00\n        /* \"#utility.yul\":11463:11469   */\n      dup3\n        /* \"#utility.yul\":11458:11461   */\n      dup3\n        /* \"#utility.yul\":11451:11470   */\n      mstore\n        /* \"#utility.yul\":11503:11507   */\n      0x20\n        /* \"#utility.yul\":11498:11501   */\n      dup3\n        /* \"#utility.yul\":11494:11508   */\n      add\n        /* \"#utility.yul\":11479:11508   */\n      swap1\n      pop\n        /* \"#utility.yul\":11355:11514   */\n      swap3\n      swap2\n      pop\n      pop\n      jump\t// out\n        /* \"#utility.yul\":11520:11689   */\n    tag_260:\n        /* \"#utility.yul\":11604:11615   */\n      0x00\n        /* \"#utility.yul\":11638:11644   */\n      dup3\n        /* \"#utility.yul\":11633:11636   */\n      dup3\n        /* \"#utility.yul\":11626:11645   */\n      mstore\n        /* \"#utility.yul\":11678:11682   */\n      0x20\n        /* \"#utility.yul\":11673:11676   */\n      dup3\n        /* \"#utility.yul\":11669:11683   */\n      add\n        /* \"#utility.yul\":11654:11683   */\n      swap1\n      pop\n        /* \"#utility.yul\":11520:11689   */\n      swap3\n      swap2\n      pop\n      pop\n      jump\t// out\n        /* \"#utility.yul\":11695:11791   */\n    tag_223:\n        /* \"#utility.yul\":11732:11739   */\n      0x00\n        /* \"#utility.yul\":11761:11785   */\n      tag_329\n        /* \"#utility.yul\":11779:11784   */\n      dup3\n        /* \"#utility.yul\":11761:11785   */\n      tag_330\n      jump\t// in\n    tag_329:\n        /* \"#utility.yul\":11750:11785   */\n      swap1\n      pop\n        /* \"#utility.yul\":11695:11791   */\n      swap2\n      swap1\n      pop\n      jump\t// out\n        /* \"#utility.yul\":11797:11887   */\n    tag_241:\n        /* \"#utility.yul\":11831:11838   */\n      0x00\n        /* \"#utility.yul\":11874:11879   */\n      dup2\n        /* \"#utility.yul\":11867:11880   */\n      iszero\n        /* \"#utility.yul\":11860:11881   */\n      iszero\n        /* \"#utility.yul\":11849:11881   */\n      swap1\n      pop\n        /* \"#utility.yul\":11797:11887   */\n      swap2\n      swap1\n      pop\n      jump\t// out\n        /* \"#utility.yul\":11893:12020   */\n    tag_332:\n        /* \"#utility.yul\":11938:11945   */\n      0x00\n        /* \"#utility.yul\":11967:11972   */\n      dup2\n        /* \"#utility.yul\":11956:11972   */\n      swap1\n      pop\n        /* \"#utility.yul\":11973:12014   */\n      tag_334\n        /* \"#utility.yul\":12008:12013   */\n      dup3\n        /* \"#utility.yul\":11973:12014   */\n      tag_335\n      jump\t// in\n    tag_334:\n        /* \"#utility.yul\":11893:12020   */\n      swap2\n      swap1\n      pop\n      jump\t// out\n        /* \"#utility.yul\":12026:12152   */\n    tag_330:\n        /* \"#utility.yul\":12063:12070   */\n      0x00\n        /* \"#utility.yul\":12103:12145   */\n      0xffffffffffffffffffffffffffffffffffffffff\n        /* \"#utility.yul\":12096:12101   */\n      dup3\n        /* \"#utility.yul\":12092:12146   */\n      and\n        /* \"#utility.yul\":12081:12146   */\n      swap1\n      pop\n        /* \"#utility.yul\":12026:12152   */\n      swap2\n      swap1\n      pop\n      jump\t// out\n        /* \"#utility.yul\":12158:12235   */\n    tag_280:\n        /* \"#utility.yul\":12195:12202   */\n      0x00\n        /* \"#utility.yul\":12224:12229   */\n      dup2\n        /* \"#utility.yul\":12213:12229   */\n      swap1\n      pop\n        /* \"#utility.yul\":12158:12235   */\n      swap2\n      swap1\n      pop\n      jump\t// out\n        /* \"#utility.yul\":12241:12368   */\n    tag_245:\n        /* \"#utility.yul\":12297:12306   */\n      0x00\n        /* \"#utility.yul\":12330:12362   */\n      tag_339\n        /* \"#utility.yul\":12356:12361   */\n      dup3\n        /* \"#utility.yul\":12330:12362   */\n      tag_332\n      jump\t// in\n    tag_339:\n        /* \"#utility.yul\":12317:12362   */\n      swap1\n      pop\n        /* \"#utility.yul\":12241:12368   */\n      swap2\n      swap1\n      pop\n      jump\t// out\n        /* \"#utility.yul\":12374:12681   */\n    tag_253:\n        /* \"#utility.yul\":12442:12443   */\n      0x00\n        /* \"#utility.yul\":12452:12565   */\n    tag_341:\n        /* \"#utility.yul\":12466:12472   */\n      dup4\n        /* \"#utility.yul\":12463:12464   */\n      dup2\n        /* \"#utility.yul\":12460:12473   */\n      lt\n        /* \"#utility.yul\":12452:12565   */\n      iszero\n      tag_343\n      jumpi\n        /* \"#utility.yul\":12551:12552   */\n      dup1\n        /* \"#utility.yul\":12546:12549   */\n      dup3\n        /* \"#utility.yul\":12542:12553   */\n      add\n        /* \"#utility.yul\":12536:12554   */\n      mload\n        /* \"#utility.yul\":12532:12533   */\n      dup2\n        /* \"#utility.yul\":12527:12530   */\n      dup5\n        /* \"#utility.yul\":12523:12534   */\n      add\n        /* \"#utility.yul\":12516:12555   */\n      mstore\n        /* \"#utility.yul\":12488:12490   */\n      0x20\n        /* \"#utility.yul\":12485:12486   */\n      dup2\n        /* \"#utility.yul\":12481:12491   */\n      add\n        /* \"#utility.yul\":12476:12491   */\n      swap1\n      pop\n        /* \"#utility.yul\":12452:12565   */\n      jump(tag_341)\n    tag_343:\n        /* \"#utility.yul\":12583:12589   */\n      dup4\n        /* \"#utility.yul\":12580:12581   */\n      dup2\n        /* \"#utility.yul\":12577:12590   */\n      gt\n        /* \"#utility.yul\":12574:12675   */\n      iszero\n      tag_344\n      jumpi\n        /* \"#utility.yul\":12663:12664   */\n      0x00\n        /* \"#utility.yul\":12654:12660   */\n      dup5\n        /* \"#utility.yul\":12649:12652   */\n      dup5\n        /* \"#utility.yul\":12645:12661   */\n      add\n        /* \"#utility.yul\":12638:12665   */\n      mstore\n        /* \"#utility.yul\":12574:12675   */\n    tag_344:\n        /* \"#utility.yul\":12423:12681   */\n      pop\n        /* \"#utility.yul\":12374:12681   */\n      pop\n      pop\n      pop\n      jump\t// out\n        /* \"#utility.yul\":12687:13007   */\n    tag_120:\n        /* \"#utility.yul\":12731:12737   */\n      0x00\n        /* \"#utility.yul\":12768:12769   */\n      0x02\n        /* \"#utility.yul\":12762:12766   */\n      dup3\n        /* \"#utility.yul\":12758:12770   */\n      div\n        /* \"#utility.yul\":12748:12770   */\n      swap1\n      pop\n        /* \"#utility.yul\":12815:12816   */\n      0x01\n        /* \"#utility.yul\":12809:12813   */\n      dup3\n        /* \"#utility.yul\":12805:12817   */\n      and\n        /* \"#utility.yul\":12836:12854   */\n      dup1\n        /* \"#utility.yul\":12826:12907   */\n      tag_346\n      jumpi\n        /* \"#utility.yul\":12892:12896   */\n      0x7f\n        /* \"#utility.yul\":12884:12890   */\n      dup3\n        /* \"#utility.yul\":12880:12897   */\n      and\n        /* \"#utility.yul\":12870:12897   */\n      swap2\n      pop\n        /* \"#utility.yul\":12826:12907   */\n    tag_346:\n        /* \"#utility.yul\":12954:12956   */\n      0x20\n        /* \"#utility.yul\":12946:12952   */\n      dup3\n        /* \"#utility.yul\":12943:12957   */\n      lt\n        /* \"#utility.yul\":12923:12941   */\n      dup2\n        /* \"#utility.yul\":12920:12958   */\n      eq\n        /* \"#utility.yul\":12917:13001   */\n      iszero\n      tag_347\n      jumpi\n        /* \"#utility.yul\":12973:12991   */\n      tag_348\n      tag_349\n      jump\t// in\n    tag_348:\n        /* \"#utility.yul\":12917:13001   */\n    tag_347:\n        /* \"#utility.yul\":12738:13007   */\n      pop\n        /* \"#utility.yul\":12687:13007   */\n      swap2\n      swap1\n      pop\n      jump\t// out\n        /* \"#utility.yul\":13013:13246   */\n    tag_101:\n        /* \"#utility.yul\":13052:13055   */\n      0x00\n        /* \"#utility.yul\":13075:13099   */\n      tag_351\n        /* \"#utility.yul\":13093:13098   */\n      dup3\n        /* \"#utility.yul\":13075:13099   */\n      tag_280\n      jump\t// in\n    tag_351:\n        /* \"#utility.yul\":13066:13099   */\n      swap2\n      pop\n        /* \"#utility.yul\":13121:13187   */\n      0xffffffffffffffffffffffffffffffffffffffffffffffffffffffffffffffff\n        /* \"#utility.yul\":13114:13119   */\n      dup3\n        /* \"#utility.yul\":13111:13188   */\n      eq\n        /* \"#utility.yul\":13108:13211   */\n      iszero\n      tag_352\n      jumpi\n        /* \"#utility.yul\":13191:13209   */\n      tag_353\n      tag_354\n      jump\t// in\n    tag_353:\n        /* \"#utility.yul\":13108:13211   */\n    tag_352:\n        /* \"#utility.yul\":13238:13239   */\n      0x01\n        /* \"#utility.yul\":13231:13236   */\n      dup3\n        /* \"#utility.yul\":13227:13240   */\n      add\n        /* \"#utility.yul\":13220:13240   */\n      swap1\n      pop\n        /* \"#utility.yul\":13013:13246   */\n      swap2\n      swap1\n      pop\n      jump\t// out\n        /* \"#utility.yul\":13252:13432   */\n    tag_354:\n        /* \"#utility.yul\":13300:13377   */\n      0x4e487b7100000000000000000000000000000000000000000000000000000000\n        /* \"#utility.yul\":13297:13298   */\n      0x00\n        /* \"#utility.yul\":13290:13378   */\n      mstore\n        /* \"#utility.yul\":13397:13401   */\n      0x11\n        /* \"#utility.yul\":13394:13395   */\n      0x04\n        /* \"#utility.yul\":13387:13402   */\n      mstore\n        /* \"#utility.yul\":13421:13425   */\n      0x24\n        /* \"#utility.yul\":13418:13419   */\n      0x00\n        /* \"#utility.yul\":13411:13426   */\n      revert\n        /* \"#utility.yul\":13438:13618   */\n    tag_106:\n        /* \"#utility.yul\":13486:13563   */\n      0x4e487b7100000000000000000000000000000000000000000000000000000000\n        /* \"#utility.yul\":13483:13484   */\n      0x00\n        /* \"#utility.yul\":13476:13564   */\n      mstore\n        /* \"#utility.yul\":13583:13587   */\n      0x21\n        /* \"#utility.yul\":13580:13581   */\n      0x04\n        /* \"#utility.yul\":13573:13588   */\n      mstore\n        /* \"#utility.yul\":13607:13611   */\n      0x24\n        /* \"#utility.yul\":13604:13605   */\n      0x00\n        /* \"#utility.yul\":13597:13612   */\n      revert\n        /* \"#utility.yul\":13624:13804   */\n    tag_349:\n        /* \"#utility.yul\":13672:13749   */\n      0x4e487b7100000000000000000000000000000000000000000000000000000000\n        /* \"#utility.yul\":13669:13670   */\n      0x00\n        /* \"#utility.yul\":13662:13750   */\n      mstore\n        /* \"#utility.yul\":13769:13773   */\n      0x22\n        /* \"#utility.yul\":13766:13767   */\n      0x04\n        /* \"#utility.yul\":13759:13774   */\n      mstore\n        /* \"#utility.yul\":13793:13797   */\n      0x24\n        /* \"#utility.yul\":13790:13791   */\n      0x00\n        /* \"#utility.yul\":13783:13798   */\n      revert\n        /* \"#utility.yul\":13810:13990   */\n    tag_99:\n        /* \"#utility.yul\":13858:13935   */\n      0x4e487b7100000000000000000000000000000000000000000000000000000000\n        /* \"#utility.yul\":13855:13856   */\n      0x00\n        /* \"#utility.yul\":13848:13936   */\n      mstore\n        /* \"#utility.yul\":13955:13959   */\n      0x32\n        /* \"#utility.yul\":13952:13953   */\n      0x04\n        /* \"#utility.yul\":13945:13960   */\n      mstore\n        /* \"#utility.yul\":13979:13983   */\n      0x24\n        /* \"#utility.yul\":13976:13977   */\n      0x00\n        /* \"#utility.yul\":13969:13984   */\n      revert\n        /* \"#utility.yul\":14119:14236   */\n    tag_200:\n        /* \"#utility.yul\":14228:14229   */\n      0x00\n        /* \"#utility.yul\":14225:14226   */\n      dup1\n        /* \"#utility.yul\":14218:14230   */\n      revert\n        /* \"#utility.yul\":14242:14344   */\n    tag_255:\n        /* \"#utility.yul\":14283:14289   */\n      0x00\n        /* \"#utility.yul\":14334:14336   */\n      0x1f\n        /* \"#utility.yul\":14330:14337   */\n      not\n        /* \"#utility.yul\":14325:14327   */\n      0x1f\n        /* \"#utility.yul\":14318:14323   */\n      dup4\n        /* \"#utility.yul\":14314:14328   */\n      add\n        /* \"#utility.yul\":14310:14338   */\n      and\n        /* \"#utility.yul\":14300:14338   */\n      swap1\n      pop\n        /* \"#utility.yul\":14242:14344   */\n      swap2\n      swap1\n      pop\n      jump\t// out\n        /* \"#utility.yul\":14350:14579   */\n    tag_267:\n        /* \"#utility.yul\":14490:14524   */\n      0x506c656173652070726f7669646520612076616c696420706f6c6c696e672073\n        /* \"#utility.yul\":14486:14487   */\n      0x00\n        /* \"#utility.yul\":14478:14484   */\n      dup3\n        /* \"#utility.yul\":14474:14488   */\n      add\n        /* \"#utility.yul\":14467:14525   */\n      mstore\n        /* \"#utility.yul\":14559:14571   */\n      0x746174696f6e2049442e00000000000000000000000000000000000000000000\n        /* \"#utility.yul\":14554:14556   */\n      0x20\n        /* \"#utility.yul\":14546:14552   */\n      dup3\n        /* \"#utility.yul\":14542:14557   */\n      add\n        /* \"#utility.yul\":14535:14572   */\n      mstore\n        /* \"#utility.yul\":14350:14579   */\n      pop\n      jump\t// out\n        /* \"#utility.yul\":14585:14763   */\n    tag_272:\n        /* \"#utility.yul\":14725:14755   */\n      0x566f74657220697320616c726561647920726567697374657265642e00000000\n        /* \"#utility.yul\":14721:14722   */\n      0x00\n        /* \"#utility.yul\":14713:14719   */\n      dup3\n        /* \"#utility.yul\":14709:14723   */\n      add\n        /* \"#utility.yul\":14702:14756   */\n      mstore\n        /* \"#utility.yul\":14585:14763   */\n      pop\n      jump\t// out\n        /* \"#utility.yul\":14769:14882   */\n    tag_335:\n        /* \"#utility.yul\":14850:14851   */\n      0x03\n        /* \"#utility.yul\":14843:14848   */\n      dup2\n        /* \"#utility.yul\":14840:14852   */\n      lt\n        /* \"#utility.yul\":14830:14876   */\n      tag_366\n      jumpi\n        /* \"#utility.yul\":14856:14874   */\n      tag_367\n      tag_106\n      jump\t// in\n    tag_367:\n        /* \"#utility.yul\":14830:14876   */\n    tag_366:\n        /* \"#utility.yul\":14769:14882   */\n      pop\n      jump\t// out\n        /* \"#utility.yul\":14888:15010   */\n    tag_192:\n        /* \"#utility.yul\":14961:14985   */\n      tag_369\n        /* \"#utility.yul\":14979:14984   */\n      dup2\n        /* \"#utility.yul\":14961:14985   */\n      tag_223\n      jump\t// in\n    tag_369:\n        /* \"#utility.yul\":14954:14959   */\n      dup2\n        /* \"#utility.yul\":14951:14986   */\n      eq\n        /* \"#utility.yul\":14941:15004   */\n      tag_370\n      jumpi\n        /* \"#utility.yul\":15000:15001   */\n      0x00\n        /* \"#utility.yul\":14997:14998   */\n      dup1\n        /* \"#utility.yul\":14990:15002   */\n      revert\n        /* \"#utility.yul\":14941:15004   */\n    tag_370:\n        /* \"#utility.yul\":14888:15010   */\n      pop\n      jump\t// out\n        /* \"#utility.yul\":15016:15138   */\n    tag_196:\n        /* \"#utility.yul\":15089:15113   */\n      tag_372\n        /* \"#utility.yul\":15107:15112   */\n      dup2\n        /* \"#utility.yul\":15089:15113   */\n      tag_280\n      jump\t// in\n    tag_372:\n        /* \"#utility.yul\":15082:15087   */\n      dup2\n        /* \"#utility.yul\":15079:15114   */\n      eq\n        /* \"#utility.yul\":15069:15132   */\n      tag_373\n      jumpi\n        /* \"#utility.yul\":15128:15129   */\n      0x00\n        /* \"#utility.yul\":15125:15126   */\n      dup1\n        /* \"#utility.yul\":15118:15130   */\n      revert\n        /* \"#utility.yul\":15069:15132   */\n    tag_373:\n        /* \"#utility.yul\":15016:15138   */\n      pop\n      jump\t// out\n\n    auxdata: 0xa2646970667358221220387d02033eaab4da59b5e6c1b42f3b5c9a4b4fc90cf441f39225a2bb35c35aec64736f6c63430008070033\n}\n",
				"bytecode": {
					"linkReferences": {},
					"object": "60806040523480156200001157600080fd5b50336000806101000a81548173ffffffffffffffffffffffffffffffffffffffff021916908373ffffffffffffffffffffffffffffffffffffffff16021790555062000062620000a660201b60201c565b620000726200036460201b60201c565b6000600b60006101000a81548160ff021916908360028111156200009b576200009a620007cd565b5b02179055506200082b565b620000ec6040518060400160405280601181526020017f506f6c6c696e672053746174696f6e2031000000000000000000000000000000815250620004c460201b60201c565b620001326040518060400160405280601181526020017f506f6c6c696e672053746174696f6e2032000000000000000000000000000000815250620004c460201b60201c565b620001786040518060400160405280601181526020017f506f6c6c696e672053746174696f6e2033000000000000000000000000000000815250620004c460201b60201c565b620001be6040518060400160405280601181526020017f506f6c6c696e672053746174696f6e2034000000000000000000000000000000815250620004c460201b60201c565b620002046040518060400160405280601181526020017f506f6c6c696e672053746174696f6e2035000000000000000000000000000000815250620004c460201b60201c565b6200024a6040518060400160405280601181526020017f506f6c6c696e672053746174696f6e2036000000000000000000000000000000815250620004c460201b60201c565b620002906040518060400160405280601181526020017f506f6c6c696e672053746174696f6e2037000000000000000000000000000000815250620004c460201b60201c565b620002d66040518060400160405280601181526020017f506f6c6c696e672053746174696f6e2038000000000000000000000000000000815250620004c460201b60201c565b6200031c6040518060400160405280601181526020017f506f6c6c696e672053746174696f6e2039000000000000000000000000000000815250620004c460201b60201c565b620003626040518060400160405280601281526020017f506f6c6c696e672053746174696f6e2031300000000000000000000000000000815250620004c460201b60201c565b565b620003aa6040518060400160405280600b81526020017f43616e64696461746520310000000000000000000000000000000000000000008152506200053560201b60201c565b620003f06040518060400160405280600b81526020017f43616e64696461746520320000000000000000000000000000000000000000008152506200053560201b60201c565b620004366040518060400160405280600b81526020017f43616e64696461746520330000000000000000000000000000000000000000008152506200053560201b60201c565b6200047c6040518060400160405280600b81526020017f43616e64696461746520340000000000000000000000000000000000000000008152506200053560201b60201c565b620004c26040518060400160405280600b81526020017f43616e64696461746520350000000000000000000000000000000000000000008152506200053560201b60201c565b565b60026000815480929190620004d99062000750565b9190505550600060086000600254815260200190815260200160002090506002548160000181905550818160010190805190602001906200051c92919062000660565b5060008160020181905550600081600301819055505050565b600160008154809291906200054a9062000750565b9190505550604051806060016040528060015481526020018281526020016000815250600660006001548152602001908152602001600020600082015181600001556020820151816001019080519060200190620005aa92919062000660565b50604082015181600201559050506000600190505b60025481116200065c5760405180606001604052806001548152602001838152602001600081525060086000838152602001908152602001600020600401600060015481526020019081526020016000206000820151816000015560208201518160010190805190602001906200063892919062000660565b50604082015181600201559050508080620006539062000750565b915050620005bf565b5050565b8280546200066e906200071a565b90600052602060002090601f016020900481019282620006925760008555620006de565b82601f10620006ad57805160ff1916838001178555620006de565b82800160010185558215620006de579182015b82811115620006dd578251825591602001919060010190620006c0565b5b509050620006ed9190620006f1565b5090565b5b808211156200070c576000816000905550600101620006f2565b5090565b6000819050919050565b600060028204905060018216806200073357607f821691505b602082108114156200074a5762000749620007fc565b5b50919050565b60006200075d8262000710565b91507fffffffffffffffffffffffffffffffffffffffffffffffffffffffffffffffff8214156200079357620007926200079e565b5b600182019050919050565b7f4e487b7100000000000000000000000000000000000000000000000000000000600052601160045260246000fd5b7f4e487b7100000000000000000000000000000000000000000000000000000000600052602160045260246000fd5b7f4e487b7100000000000000000000000000000000000000000000000000000000600052602260045260246000fd5b611772806200083b6000396000f3fe608060405234801561001057600080fd5b506004361061010a5760003560e01c806353357ad0116100a2578063c19d93fb11610071578063c19d93fb146102bf578063d3808ae0146102dd578063df9f1a071461030d578063f3a8286f1461032b578063fe2442d7146103495761010a565b806353357ad01461024b578063a3ec138d14610269578063b922394614610299578063b9f05f2f146102a35761010a565b80632d35a8a2116100de5780632d35a8a2146101bd5780633477ee2e146101db5780634763d4e71461020d5780634c0a6af0146102415761010a565b8062aa74641461010f57806323a1b11c1461012d5780632a41742e1461015d5780632c0a3f891461018d575b600080fd5b61011761037c565b604051610124919061138a565b60405180910390f35b61014760048036038101906101429190610ff5565b610382565b6040516101549190611246565b60405180910390f35b61017760048036038101906101729190611022565b6103fc565b604051610184919061138a565b60405180910390f35b6101a760048036038101906101a29190611022565b610431565b6040516101b49190611268565b60405180910390f35b6101c561075f565b6040516101d2919061138a565b60405180910390f35b6101f560048036038101906101f09190610ff5565b610765565b604051610204939291906113a5565b60405180910390f35b61022760048036038101906102229190610f88565b610817565b604051610238959493929190611283565b60405180910390f35b610249610867565b005b61025361092e565b604051610260919061122b565b60405180910390f35b610283600480360381019061027e9190610f88565b610952565b6040516102909190611268565b60405180910390f35b6102a1610972565b005b6102bd60048036038101906102b89190610fb5565b610a42565b005b6102c7610cd5565b6040516102d4919061130d565b60405180910390f35b6102f760048036038101906102f29190611022565b610ce8565b6040516103049190611368565b60405180910390f35b610315610dd0565b604051610322919061138a565b60405180910390f35b610333610dd6565b604051610340919061138a565b60405180910390f35b610363600480360381019061035e9190610ff5565b610ddc565b60405161037394939291906113e3565b60405180910390f35b60035481565b6060806000600190505b60015481116103f257600860008581526020019081526020016000206004016000828152602001908152602001600020600201548282815181106103d3576103d261163d565b5b60200260200101818152505080806103ea90611567565b91505061038c565b5080915050919050565b600060086000848152602001908152602001600020600401600083815260200190815260200160002060020154905092915050565b60006001806002811115610448576104476115df565b5b600b60009054906101000a900460ff16600281111561046a576104696115df565b5b1461047457600080fd5b6000600960003373ffffffffffffffffffffffffffffffffffffffff1673ffffffffffffffffffffffffffffffffffffffff16815260200190815260200160002060000160009054906101000a900460ff16801561051f5750600960003373ffffffffffffffffffffffffffffffffffffffff1673ffffffffffffffffffffffffffffffffffffffff16815260200190815260200160002060000160019054906101000a900460ff16155b156107545784600960003373ffffffffffffffffffffffffffffffffffffffff1673ffffffffffffffffffffffffffffffffffffffff1681526020019081526020016000206001018190555083600960003373ffffffffffffffffffffffffffffffffffffffff1673ffffffffffffffffffffffffffffffffffffffff168152602001908152602001600020600301819055506001600960003373ffffffffffffffffffffffffffffffffffffffff1673ffffffffffffffffffffffffffffffffffffffff16815260200190815260200160002060000160016101000a81548160ff02191690831515021790555060086000858152602001908152602001600020600301600081548092919061063490611567565b919050555060066000868152602001908152602001600020600201600081548092919061066090611567565b91905055506004600081548092919061067890611567565b91905055506001905080600a60003373ffffffffffffffffffffffffffffffffffffffff1673ffffffffffffffffffffffffffffffffffffffff16815260200190815260200160002060006101000a81548160ff021916908315150217905550600860008581526020019081526020016000206004016000868152602001908152602001600020600201600081548092919061071390611567565b91905055507f29a25b3d0b6ff7e5de2a60a2e8e76d1bdaf4894ec18c598cc1687213f442c5cb81868660405161074b939291906112d6565b60405180910390a15b809250505092915050565b60015481565b600660205280600052604060002060009150905080600001549080600101805461078e90611535565b80601f01602080910402602001604051908101604052809291908181526020018280546107ba90611535565b80156108075780601f106107dc57610100808354040283529160200191610807565b820191906000526020600020905b8154815290600101906020018083116107ea57829003601f168201915b5050505050908060020154905083565b60096020528060005260406000206000915090508060000160009054906101000a900460ff16908060000160019054906101000a900460ff16908060010154908060020154908060030154905085565b600080600281111561087c5761087b6115df565b5b600b60009054906101000a900460ff16600281111561089e5761089d6115df565b5b146108a857600080fd5b60008054906101000a900473ffffffffffffffffffffffffffffffffffffffff1673ffffffffffffffffffffffffffffffffffffffff163373ffffffffffffffffffffffffffffffffffffffff161461090057600080fd5b6001600b60006101000a81548160ff02191690836002811115610926576109256115df565b5b021790555050565b60008054906101000a900473ffffffffffffffffffffffffffffffffffffffff1681565b600a6020528060005260406000206000915054906101000a900460ff1681565b6001806002811115610987576109866115df565b5b600b60009054906101000a900460ff1660028111156109a9576109a86115df565b5b146109b357600080fd5b60008054906101000a900473ffffffffffffffffffffffffffffffffffffffff1673ffffffffffffffffffffffffffffffffffffffff163373ffffffffffffffffffffffffffffffffffffffff1614610a0b57600080fd5b6002600b60006101000a81548160ff02191690836002811115610a3157610a306115df565b5b021790555060045460058190555050565b6000806002811115610a5757610a566115df565b5b600b60009054906101000a900460ff166002811115610a7957610a786115df565b5b14610a8357600080fd5b60008054906101000a900473ffffffffffffffffffffffffffffffffffffffff1673ffffffffffffffffffffffffffffffffffffffff163373ffffffffffffffffffffffffffffffffffffffff1614610adb57600080fd5b60001515600960008573ffffffffffffffffffffffffffffffffffffffff1673ffffffffffffffffffffffffffffffffffffffff16815260200190815260200160002060000160009054906101000a900460ff16151514610b71576040517f08c379a0000000000000000000000000000000000000000000000000000000008152600401610b6890611348565b60405180910390fd5b60018210158015610b8457506002548211155b610bc3576040517f08c379a0000000000000000000000000000000000000000000000000000000008152600401610bba90611328565b60405180910390fd5b610bcb610f0a565b60018160000190151590811515815250506000816020019015159081151581525050600081604001818152505082816060018181525050600081608001818152505080600960008673ffffffffffffffffffffffffffffffffffffffff1673ffffffffffffffffffffffffffffffffffffffff16815260200190815260200160002060008201518160000160006101000a81548160ff02191690831515021790555060208201518160000160016101000a81548160ff021916908315150217905550604082015181600101556060820151816002015560808201518160030155905050610cb783610e94565b60036000815480929190610cca90611567565b919050555050505050565b600b60009054906101000a900460ff1681565b610cf0610f3d565b60086000848152602001908152602001600020600401600083815260200190815260200160002060405180606001604052908160008201548152602001600182018054610d3c90611535565b80601f0160208091040260200160405190810160405280929190818152602001828054610d6890611535565b8015610db55780601f10610d8a57610100808354040283529160200191610db5565b820191906000526020600020905b815481529060010190602001808311610d9857829003601f168201915b50505050508152602001600282015481525050905092915050565b60025481565b60055481565b6008602052806000526040600020600091509050806000015490806001018054610e0590611535565b80601f0160208091040260200160405190810160405280929190818152602001828054610e3190611535565b8015610e7e5780601f10610e5357610100808354040283529160200191610e7e565b820191906000526020600020905b815481529060010190602001808311610e6157829003601f168201915b5050505050908060020154908060030154905084565b6000600190505b6002548111610f06578160086000838152602001908152602001600020600001541415610ef357600860008281526020019081526020016000206002016000815480929190610ee990611567565b9190505550610f06565b8080610efe90611567565b915050610e9b565b5050565b6040518060a001604052806000151581526020016000151581526020016000815260200160008152602001600081525090565b60405180606001604052806000815260200160608152602001600081525090565b600081359050610f6d8161170e565b92915050565b600081359050610f8281611725565b92915050565b600060208284031215610f9e57610f9d61166c565b5b6000610fac84828501610f5e565b91505092915050565b60008060408385031215610fcc57610fcb61166c565b5b6000610fda85828601610f5e565b9250506020610feb85828601610f73565b9150509250929050565b60006020828403121561100b5761100a61166c565b5b600061101984828501610f73565b91505092915050565b600080604083850312156110395761103861166c565b5b600061104785828601610f73565b925050602061105885828601610f73565b9150509250929050565b600061106e838361120d565b60208301905092915050565b61108381611495565b82525050565b60006110948261143f565b61109e8185611462565b93506110a98361142f565b8060005b838110156110da5781516110c18882611062565b97506110cc83611455565b9250506001810190506110ad565b5085935050505092915050565b6110f0816114a7565b82525050565b6110ff816114f0565b82525050565b60006111108261144a565b61111a8185611473565b935061112a818560208601611502565b61113381611671565b840191505092915050565b60006111498261144a565b6111538185611484565b9350611163818560208601611502565b61116c81611671565b840191505092915050565b6000611184602a83611484565b915061118f82611682565b604082019050919050565b60006111a7601c83611484565b91506111b2826116d1565b602082019050919050565b60006060830160008301516111d5600086018261120d565b50602083015184820360208601526111ed8282611105565b9150506040830151611202604086018261120d565b508091505092915050565b611216816114e6565b82525050565b611225816114e6565b82525050565b6000602082019050611240600083018461107a565b92915050565b600060208201905081810360008301526112608184611089565b905092915050565b600060208201905061127d60008301846110e7565b92915050565b600060a08201905061129860008301886110e7565b6112a560208301876110e7565b6112b2604083018661121c565b6112bf606083018561121c565b6112cc608083018461121c565b9695505050505050565b60006060820190506112eb60008301866110e7565b6112f8602083018561121c565b611305604083018461121c565b949350505050565b600060208201905061132260008301846110f6565b92915050565b6000602082019050818103600083015261134181611177565b9050919050565b600060208201905081810360008301526113618161119a565b9050919050565b6000602082019050818103600083015261138281846111bd565b905092915050565b600060208201905061139f600083018461121c565b92915050565b60006060820190506113ba600083018661121c565b81810360208301526113cc818561113e565b90506113db604083018461121c565b949350505050565b60006080820190506113f8600083018761121c565b818103602083015261140a818661113e565b9050611419604083018561121c565b611426606083018461121c565b95945050505050565b6000819050602082019050919050565b600081519050919050565b600081519050919050565b6000602082019050919050565b600082825260208201905092915050565b600082825260208201905092915050565b600082825260208201905092915050565b60006114a0826114c6565b9050919050565b60008115159050919050565b60008190506114c1826116fa565b919050565b600073ffffffffffffffffffffffffffffffffffffffff82169050919050565b6000819050919050565b60006114fb826114b3565b9050919050565b60005b83811015611520578082015181840152602081019050611505565b8381111561152f576000848401525b50505050565b6000600282049050600182168061154d57607f821691505b602082108114156115615761156061160e565b5b50919050565b6000611572826114e6565b91507fffffffffffffffffffffffffffffffffffffffffffffffffffffffffffffffff8214156115a5576115a46115b0565b5b600182019050919050565b7f4e487b7100000000000000000000000000000000000000000000000000000000600052601160045260246000fd5b7f4e487b7100000000000000000000000000000000000000000000000000000000600052602160045260246000fd5b7f4e487b7100000000000000000000000000000000000000000000000000000000600052602260045260246000fd5b7f4e487b7100000000000000000000000000000000000000000000000000000000600052603260045260246000fd5b600080fd5b6000601f19601f8301169050919050565b7f506c656173652070726f7669646520612076616c696420706f6c6c696e67207360008201527f746174696f6e2049442e00000000000000000000000000000000000000000000602082015250565b7f566f74657220697320616c726561647920726567697374657265642e00000000600082015250565b6003811061170b5761170a6115df565b5b50565b61171781611495565b811461172257600080fd5b50565b61172e816114e6565b811461173957600080fd5b5056fea2646970667358221220387d02033eaab4da59b5e6c1b42f3b5c9a4b4fc90cf441f39225a2bb35c35aec64736f6c63430008070033",
					"opcodes": "PUSH1 0x80 PUSH1 0x40 MSTORE CALLVALUE DUP1 ISZERO PUSH3 0x11 JUMPI PUSH1 0x0 DUP1 REVERT JUMPDEST POP CALLER PUSH1 0x0 DUP1 PUSH2 0x100 EXP DUP2 SLOAD DUP2 PUSH20 0xFFFFFFFFFFFFFFFFFFFFFFFFFFFFFFFFFFFFFFFF MUL NOT AND SWAP1 DUP4 PUSH20 0xFFFFFFFFFFFFFFFFFFFFFFFFFFFFFFFFFFFFFFFF AND MUL OR SWAP1 SSTORE POP PUSH3 0x62 PUSH3 0xA6 PUSH1 0x20 SHL PUSH1 0x20 SHR JUMP JUMPDEST PUSH3 0x72 PUSH3 0x364 PUSH1 0x20 SHL PUSH1 0x20 SHR JUMP JUMPDEST PUSH1 0x0 PUSH1 0xB PUSH1 0x0 PUSH2 0x100 EXP DUP2 SLOAD DUP2 PUSH1 0xFF MUL NOT AND SWAP1 DUP4 PUSH1 0x2 DUP2 GT ISZERO PUSH3 0x9B JUMPI PUSH3 0x9A PUSH3 0x7CD JUMP JUMPDEST JUMPDEST MUL OR SWAP1 SSTORE POP PUSH3 0x82B JUMP JUMPDEST PUSH3 0xEC PUSH1 0x40 MLOAD DUP1 PUSH1 0x40 ADD PUSH1 0x40 MSTORE DUP1 PUSH1 0x11 DUP2 MSTORE PUSH1 0x20 ADD PUSH32 0x506F6C6C696E672053746174696F6E2031000000000000000000000000000000 DUP2 MSTORE POP PUSH3 0x4C4 PUSH1 0x20 SHL PUSH1 0x20 SHR JUMP JUMPDEST PUSH3 0x132 PUSH1 0x40 MLOAD DUP1 PUSH1 0x40 ADD PUSH1 0x40 MSTORE DUP1 PUSH1 0x11 DUP2 MSTORE PUSH1 0x20 ADD PUSH32 0x506F6C6C696E672053746174696F6E2032000000000000000000000000000000 DUP2 MSTORE POP PUSH3 0x4C4 PUSH1 0x20 SHL PUSH1 0x20 SHR JUMP JUMPDEST PUSH3 0x178 PUSH1 0x40 MLOAD DUP1 PUSH1 0x40 ADD PUSH1 0x40 MSTORE DUP1 PUSH1 0x11 DUP2 MSTORE PUSH1 0x20 ADD PUSH32 0x506F6C6C696E672053746174696F6E2033000000000000000000000000000000 DUP2 MSTORE POP PUSH3 0x4C4 PUSH1 0x20 SHL PUSH1 0x20 SHR JUMP JUMPDEST PUSH3 0x1BE PUSH1 0x40 MLOAD DUP1 PUSH1 0x40 ADD PUSH1 0x40 MSTORE DUP1 PUSH1 0x11 DUP2 MSTORE PUSH1 0x20 ADD PUSH32 0x506F6C6C696E672053746174696F6E2034000000000000000000000000000000 DUP2 MSTORE POP PUSH3 0x4C4 PUSH1 0x20 SHL PUSH1 0x20 SHR JUMP JUMPDEST PUSH3 0x204 PUSH1 0x40 MLOAD DUP1 PUSH1 0x40 ADD PUSH1 0x40 MSTORE DUP1 PUSH1 0x11 DUP2 MSTORE PUSH1 0x20 ADD PUSH32 0x506F6C6C696E672053746174696F6E2035000000000000000000000000000000 DUP2 MSTORE POP PUSH3 0x4C4 PUSH1 0x20 SHL PUSH1 0x20 SHR JUMP JUMPDEST PUSH3 0x24A PUSH1 0x40 MLOAD DUP1 PUSH1 0x40 ADD PUSH1 0x40 MSTORE DUP1 PUSH1 0x11 DUP2 MSTORE PUSH1 0x20 ADD PUSH32 0x506F6C6C696E672053746174696F6E2036000000000000000000000000000000 DUP2 MSTORE POP PUSH3 0x4C4 PUSH1 0x20 SHL PUSH1 0x20 SHR JUMP JUMPDEST PUSH3 0x290 PUSH1 0x40 MLOAD DUP1 PUSH1 0x40 ADD PUSH1 0x40 MSTORE DUP1 PUSH1 0x11 DUP2 MSTORE PUSH1 0x20 ADD PUSH32 0x506F6C6C696E672053746174696F6E2037000000000000000000000000000000 DUP2 MSTORE POP PUSH3 0x4C4 PUSH1 0x20 SHL PUSH1 0x20 SHR JUMP JUMPDEST PUSH3 0x2D6 PUSH1 0x40 MLOAD DUP1 PUSH1 0x40 ADD PUSH1 0x40 MSTORE DUP1 PUSH1 0x11 DUP2 MSTORE PUSH1 0x20 ADD PUSH32 0x506F6C6C696E672053746174696F6E2038000000000000000000000000000000 DUP2 MSTORE POP PUSH3 0x4C4 PUSH1 0x20 SHL PUSH1 0x20 SHR JUMP JUMPDEST PUSH3 0x31C PUSH1 0x40 MLOAD DUP1 PUSH1 0x40 ADD PUSH1 0x40 MSTORE DUP1 PUSH1 0x11 DUP2 MSTORE PUSH1 0x20 ADD PUSH32 0x506F6C6C696E672053746174696F6E2039000000000000000000000000000000 DUP2 MSTORE POP PUSH3 0x4C4 PUSH1 0x20 SHL PUSH1 0x20 SHR JUMP JUMPDEST PUSH3 0x362 PUSH1 0x40 MLOAD DUP1 PUSH1 0x40 ADD PUSH1 0x40 MSTORE DUP1 PUSH1 0x12 DUP2 MSTORE PUSH1 0x20 ADD PUSH32 0x506F6C6C696E672053746174696F6E2031300000000000000000000000000000 DUP2 MSTORE POP PUSH3 0x4C4 PUSH1 0x20 SHL PUSH1 0x20 SHR JUMP JUMPDEST JUMP JUMPDEST PUSH3 0x3AA PUSH1 0x40 MLOAD DUP1 PUSH1 0x40 ADD PUSH1 0x40 MSTORE DUP1 PUSH1 0xB DUP2 MSTORE PUSH1 0x20 ADD PUSH32 0x43616E6469646174652031000000000000000000000000000000000000000000 DUP2 MSTORE POP PUSH3 0x535 PUSH1 0x20 SHL PUSH1 0x20 SHR JUMP JUMPDEST PUSH3 0x3F0 PUSH1 0x40 MLOAD DUP1 PUSH1 0x40 ADD PUSH1 0x40 MSTORE DUP1 PUSH1 0xB DUP2 MSTORE PUSH1 0x20 ADD PUSH32 0x43616E6469646174652032000000000000000000000000000000000000000000 DUP2 MSTORE POP PUSH3 0x535 PUSH1 0x20 SHL PUSH1 0x20 SHR JUMP JUMPDEST PUSH3 0x436 PUSH1 0x40 MLOAD DUP1 PUSH1 0x40 ADD PUSH1 0x40 MSTORE DUP1 PUSH1 0xB DUP2 MSTORE PUSH1 0x20 ADD PUSH32 0x43616E6469646174652033000000000000000000000000000000000000000000 DUP2 MSTORE POP PUSH3 0x535 PUSH1 0x20 SHL PUSH1 0x20 SHR JUMP JUMPDEST PUSH3 0x47C PUSH1 0x40 MLOAD DUP1 PUSH1 0x40 ADD PUSH1 0x40 MSTORE DUP1 PUSH1 0xB DUP2 MSTORE PUSH1 0x20 ADD PUSH32 0x43616E6469646174652034000000000000000000000000000000000000000000 DUP2 MSTORE POP PUSH3 0x535 PUSH1 0x20 SHL PUSH1 0x20 SHR JUMP JUMPDEST PUSH3 0x4C2 PUSH1 0x40 MLOAD DUP1 PUSH1 0x40 ADD PUSH1 0x40 MSTORE DUP1 PUSH1 0xB DUP2 MSTORE PUSH1 0x20 ADD PUSH32 0x43616E6469646174652035000000000000000000000000000000000000000000 DUP2 MSTORE POP PUSH3 0x535 PUSH1 0x20 SHL PUSH1 0x20 SHR JUMP JUMPDEST JUMP JUMPDEST PUSH1 0x2 PUSH1 0x0 DUP2 SLOAD DUP1 SWAP3 SWAP2 SWAP1 PUSH3 0x4D9 SWAP1 PUSH3 0x750 JUMP JUMPDEST SWAP2 SWAP1 POP SSTORE POP PUSH1 0x0 PUSH1 0x8 PUSH1 0x0 PUSH1 0x2 SLOAD DUP2 MSTORE PUSH1 0x20 ADD SWAP1 DUP2 MSTORE PUSH1 0x20 ADD PUSH1 0x0 KECCAK256 SWAP1 POP PUSH1 0x2 SLOAD DUP2 PUSH1 0x0 ADD DUP2 SWAP1 SSTORE POP DUP2 DUP2 PUSH1 0x1 ADD SWAP1 DUP1 MLOAD SWAP1 PUSH1 0x20 ADD SWAP1 PUSH3 0x51C SWAP3 SWAP2 SWAP1 PUSH3 0x660 JUMP JUMPDEST POP PUSH1 0x0 DUP2 PUSH1 0x2 ADD DUP2 SWAP1 SSTORE POP PUSH1 0x0 DUP2 PUSH1 0x3 ADD DUP2 SWAP1 SSTORE POP POP POP JUMP JUMPDEST PUSH1 0x1 PUSH1 0x0 DUP2 SLOAD DUP1 SWAP3 SWAP2 SWAP1 PUSH3 0x54A SWAP1 PUSH3 0x750 JUMP JUMPDEST SWAP2 SWAP1 POP SSTORE POP PUSH1 0x40 MLOAD DUP1 PUSH1 0x60 ADD PUSH1 0x40 MSTORE DUP1 PUSH1 0x1 SLOAD DUP2 MSTORE PUSH1 0x20 ADD DUP3 DUP2 MSTORE PUSH1 0x20 ADD PUSH1 0x0 DUP2 MSTORE POP PUSH1 0x6 PUSH1 0x0 PUSH1 0x1 SLOAD DUP2 MSTORE PUSH1 0x20 ADD SWAP1 DUP2 MSTORE PUSH1 0x20 ADD PUSH1 0x0 KECCAK256 PUSH1 0x0 DUP3 ADD MLOAD DUP2 PUSH1 0x0 ADD SSTORE PUSH1 0x20 DUP3 ADD MLOAD DUP2 PUSH1 0x1 ADD SWAP1 DUP1 MLOAD SWAP1 PUSH1 0x20 ADD SWAP1 PUSH3 0x5AA SWAP3 SWAP2 SWAP1 PUSH3 0x660 JUMP JUMPDEST POP PUSH1 0x40 DUP3 ADD MLOAD DUP2 PUSH1 0x2 ADD SSTORE SWAP1 POP POP PUSH1 0x0 PUSH1 0x1 SWAP1 POP JUMPDEST PUSH1 0x2 SLOAD DUP2 GT PUSH3 0x65C JUMPI PUSH1 0x40 MLOAD DUP1 PUSH1 0x60 ADD PUSH1 0x40 MSTORE DUP1 PUSH1 0x1 SLOAD DUP2 MSTORE PUSH1 0x20 ADD DUP4 DUP2 MSTORE PUSH1 0x20 ADD PUSH1 0x0 DUP2 MSTORE POP PUSH1 0x8 PUSH1 0x0 DUP4 DUP2 MSTORE PUSH1 0x20 ADD SWAP1 DUP2 MSTORE PUSH1 0x20 ADD PUSH1 0x0 KECCAK256 PUSH1 0x4 ADD PUSH1 0x0 PUSH1 0x1 SLOAD DUP2 MSTORE PUSH1 0x20 ADD SWAP1 DUP2 MSTORE PUSH1 0x20 ADD PUSH1 0x0 KECCAK256 PUSH1 0x0 DUP3 ADD MLOAD DUP2 PUSH1 0x0 ADD SSTORE PUSH1 0x20 DUP3 ADD MLOAD DUP2 PUSH1 0x1 ADD SWAP1 DUP1 MLOAD SWAP1 PUSH1 0x20 ADD SWAP1 PUSH3 0x638 SWAP3 SWAP2 SWAP1 PUSH3 0x660 JUMP JUMPDEST POP PUSH1 0x40 DUP3 ADD MLOAD DUP2 PUSH1 0x2 ADD SSTORE SWAP1 POP POP DUP1 DUP1 PUSH3 0x653 SWAP1 PUSH3 0x750 JUMP JUMPDEST SWAP2 POP POP PUSH3 0x5BF JUMP JUMPDEST POP POP JUMP JUMPDEST DUP3 DUP1 SLOAD PUSH3 0x66E SWAP1 PUSH3 0x71A JUMP JUMPDEST SWAP1 PUSH1 0x0 MSTORE PUSH1 0x20 PUSH1 0x0 KECCAK256 SWAP1 PUSH1 0x1F ADD PUSH1 0x20 SWAP1 DIV DUP2 ADD SWAP3 DUP3 PUSH3 0x692 JUMPI PUSH1 0x0 DUP6 SSTORE PUSH3 0x6DE JUMP JUMPDEST DUP3 PUSH1 0x1F LT PUSH3 0x6AD JUMPI DUP1 MLOAD PUSH1 0xFF NOT AND DUP4 DUP1 ADD OR DUP6 SSTORE PUSH3 0x6DE JUMP JUMPDEST DUP3 DUP1 ADD PUSH1 0x1 ADD DUP6 SSTORE DUP3 ISZERO PUSH3 0x6DE JUMPI SWAP2 DUP3 ADD JUMPDEST DUP3 DUP2 GT ISZERO PUSH3 0x6DD JUMPI DUP3 MLOAD DUP3 SSTORE SWAP2 PUSH1 0x20 ADD SWAP2 SWAP1 PUSH1 0x1 ADD SWAP1 PUSH3 0x6C0 JUMP JUMPDEST JUMPDEST POP SWAP1 POP PUSH3 0x6ED SWAP2 SWAP1 PUSH3 0x6F1 JUMP JUMPDEST POP SWAP1 JUMP JUMPDEST JUMPDEST DUP1 DUP3 GT ISZERO PUSH3 0x70C JUMPI PUSH1 0x0 DUP2 PUSH1 0x0 SWAP1 SSTORE POP PUSH1 0x1 ADD PUSH3 0x6F2 JUMP JUMPDEST POP SWAP1 JUMP JUMPDEST PUSH1 0x0 DUP2 SWAP1 POP SWAP2 SWAP1 POP JUMP JUMPDEST PUSH1 0x0 PUSH1 0x2 DUP3 DIV SWAP1 POP PUSH1 0x1 DUP3 AND DUP1 PUSH3 0x733 JUMPI PUSH1 0x7F DUP3 AND SWAP2 POP JUMPDEST PUSH1 0x20 DUP3 LT DUP2 EQ ISZERO PUSH3 0x74A JUMPI PUSH3 0x749 PUSH3 0x7FC JUMP JUMPDEST JUMPDEST POP SWAP2 SWAP1 POP JUMP JUMPDEST PUSH1 0x0 PUSH3 0x75D DUP3 PUSH3 0x710 JUMP JUMPDEST SWAP2 POP PUSH32 0xFFFFFFFFFFFFFFFFFFFFFFFFFFFFFFFFFFFFFFFFFFFFFFFFFFFFFFFFFFFFFFFF DUP3 EQ ISZERO PUSH3 0x793 JUMPI PUSH3 0x792 PUSH3 0x79E JUMP JUMPDEST JUMPDEST PUSH1 0x1 DUP3 ADD SWAP1 POP SWAP2 SWAP1 POP JUMP JUMPDEST PUSH32 0x4E487B7100000000000000000000000000000000000000000000000000000000 PUSH1 0x0 MSTORE PUSH1 0x11 PUSH1 0x4 MSTORE PUSH1 0x24 PUSH1 0x0 REVERT JUMPDEST PUSH32 0x4E487B7100000000000000000000000000000000000000000000000000000000 PUSH1 0x0 MSTORE PUSH1 0x21 PUSH1 0x4 MSTORE PUSH1 0x24 PUSH1 0x0 REVERT JUMPDEST PUSH32 0x4E487B7100000000000000000000000000000000000000000000000000000000 PUSH1 0x0 MSTORE PUSH1 0x22 PUSH1 0x4 MSTORE PUSH1 0x24 PUSH1 0x0 REVERT JUMPDEST PUSH2 0x1772 DUP1 PUSH3 0x83B PUSH1 0x0 CODECOPY PUSH1 0x0 RETURN INVALID PUSH1 0x80 PUSH1 0x40 MSTORE CALLVALUE DUP1 ISZERO PUSH2 0x10 JUMPI PUSH1 0x0 DUP1 REVERT JUMPDEST POP PUSH1 0x4 CALLDATASIZE LT PUSH2 0x10A JUMPI PUSH1 0x0 CALLDATALOAD PUSH1 0xE0 SHR DUP1 PUSH4 0x53357AD0 GT PUSH2 0xA2 JUMPI DUP1 PUSH4 0xC19D93FB GT PUSH2 0x71 JUMPI DUP1 PUSH4 0xC19D93FB EQ PUSH2 0x2BF JUMPI DUP1 PUSH4 0xD3808AE0 EQ PUSH2 0x2DD JUMPI DUP1 PUSH4 0xDF9F1A07 EQ PUSH2 0x30D JUMPI DUP1 PUSH4 0xF3A8286F EQ PUSH2 0x32B JUMPI DUP1 PUSH4 0xFE2442D7 EQ PUSH2 0x349 JUMPI PUSH2 0x10A JUMP JUMPDEST DUP1 PUSH4 0x53357AD0 EQ PUSH2 0x24B JUMPI DUP1 PUSH4 0xA3EC138D EQ PUSH2 0x269 JUMPI DUP1 PUSH4 0xB9223946 EQ PUSH2 0x299 JUMPI DUP1 PUSH4 0xB9F05F2F EQ PUSH2 0x2A3 JUMPI PUSH2 0x10A JUMP JUMPDEST DUP1 PUSH4 0x2D35A8A2 GT PUSH2 0xDE JUMPI DUP1 PUSH4 0x2D35A8A2 EQ PUSH2 0x1BD JUMPI DUP1 PUSH4 0x3477EE2E EQ PUSH2 0x1DB JUMPI DUP1 PUSH4 0x4763D4E7 EQ PUSH2 0x20D JUMPI DUP1 PUSH4 0x4C0A6AF0 EQ PUSH2 0x241 JUMPI PUSH2 0x10A JUMP JUMPDEST DUP1 PUSH3 0xAA7464 EQ PUSH2 0x10F JUMPI DUP1 PUSH4 0x23A1B11C EQ PUSH2 0x12D JUMPI DUP1 PUSH4 0x2A41742E EQ PUSH2 0x15D JUMPI DUP1 PUSH4 0x2C0A3F89 EQ PUSH2 0x18D JUMPI JUMPDEST PUSH1 0x0 DUP1 REVERT JUMPDEST PUSH2 0x117 PUSH2 0x37C JUMP JUMPDEST PUSH1 0x40 MLOAD PUSH2 0x124 SWAP2 SWAP1 PUSH2 0x138A JUMP JUMPDEST PUSH1 0x40 MLOAD DUP1 SWAP2 SUB SWAP1 RETURN JUMPDEST PUSH2 0x147 PUSH1 0x4 DUP1 CALLDATASIZE SUB DUP2 ADD SWAP1 PUSH2 0x142 SWAP2 SWAP1 PUSH2 0xFF5 JUMP JUMPDEST PUSH2 0x382 JUMP JUMPDEST PUSH1 0x40 MLOAD PUSH2 0x154 SWAP2 SWAP1 PUSH2 0x1246 JUMP JUMPDEST PUSH1 0x40 MLOAD DUP1 SWAP2 SUB SWAP1 RETURN JUMPDEST PUSH2 0x177 PUSH1 0x4 DUP1 CALLDATASIZE SUB DUP2 ADD SWAP1 PUSH2 0x172 SWAP2 SWAP1 PUSH2 0x1022 JUMP JUMPDEST PUSH2 0x3FC JUMP JUMPDEST PUSH1 0x40 MLOAD PUSH2 0x184 SWAP2 SWAP1 PUSH2 0x138A JUMP JUMPDEST PUSH1 0x40 MLOAD DUP1 SWAP2 SUB SWAP1 RETURN JUMPDEST PUSH2 0x1A7 PUSH1 0x4 DUP1 CALLDATASIZE SUB DUP2 ADD SWAP1 PUSH2 0x1A2 SWAP2 SWAP1 PUSH2 0x1022 JUMP JUMPDEST PUSH2 0x431 JUMP JUMPDEST PUSH1 0x40 MLOAD PUSH2 0x1B4 SWAP2 SWAP1 PUSH2 0x1268 JUMP JUMPDEST PUSH1 0x40 MLOAD DUP1 SWAP2 SUB SWAP1 RETURN JUMPDEST PUSH2 0x1C5 PUSH2 0x75F JUMP JUMPDEST PUSH1 0x40 MLOAD PUSH2 0x1D2 SWAP2 SWAP1 PUSH2 0x138A JUMP JUMPDEST PUSH1 0x40 MLOAD DUP1 SWAP2 SUB SWAP1 RETURN JUMPDEST PUSH2 0x1F5 PUSH1 0x4 DUP1 CALLDATASIZE SUB DUP2 ADD SWAP1 PUSH2 0x1F0 SWAP2 SWAP1 PUSH2 0xFF5 JUMP JUMPDEST PUSH2 0x765 JUMP JUMPDEST PUSH1 0x40 MLOAD PUSH2 0x204 SWAP4 SWAP3 SWAP2 SWAP1 PUSH2 0x13A5 JUMP JUMPDEST PUSH1 0x40 MLOAD DUP1 SWAP2 SUB SWAP1 RETURN JUMPDEST PUSH2 0x227 PUSH1 0x4 DUP1 CALLDATASIZE SUB DUP2 ADD SWAP1 PUSH2 0x222 SWAP2 SWAP1 PUSH2 0xF88 JUMP JUMPDEST PUSH2 0x817 JUMP JUMPDEST PUSH1 0x40 MLOAD PUSH2 0x238 SWAP6 SWAP5 SWAP4 SWAP3 SWAP2 SWAP1 PUSH2 0x1283 JUMP JUMPDEST PUSH1 0x40 MLOAD DUP1 SWAP2 SUB SWAP1 RETURN JUMPDEST PUSH2 0x249 PUSH2 0x867 JUMP JUMPDEST STOP JUMPDEST PUSH2 0x253 PUSH2 0x92E JUMP JUMPDEST PUSH1 0x40 MLOAD PUSH2 0x260 SWAP2 SWAP1 PUSH2 0x122B JUMP JUMPDEST PUSH1 0x40 MLOAD DUP1 SWAP2 SUB SWAP1 RETURN JUMPDEST PUSH2 0x283 PUSH1 0x4 DUP1 CALLDATASIZE SUB DUP2 ADD SWAP1 PUSH2 0x27E SWAP2 SWAP1 PUSH2 0xF88 JUMP JUMPDEST PUSH2 0x952 JUMP JUMPDEST PUSH1 0x40 MLOAD PUSH2 0x290 SWAP2 SWAP1 PUSH2 0x1268 JUMP JUMPDEST PUSH1 0x40 MLOAD DUP1 SWAP2 SUB SWAP1 RETURN JUMPDEST PUSH2 0x2A1 PUSH2 0x972 JUMP JUMPDEST STOP JUMPDEST PUSH2 0x2BD PUSH1 0x4 DUP1 CALLDATASIZE SUB DUP2 ADD SWAP1 PUSH2 0x2B8 SWAP2 SWAP1 PUSH2 0xFB5 JUMP JUMPDEST PUSH2 0xA42 JUMP JUMPDEST STOP JUMPDEST PUSH2 0x2C7 PUSH2 0xCD5 JUMP JUMPDEST PUSH1 0x40 MLOAD PUSH2 0x2D4 SWAP2 SWAP1 PUSH2 0x130D JUMP JUMPDEST PUSH1 0x40 MLOAD DUP1 SWAP2 SUB SWAP1 RETURN JUMPDEST PUSH2 0x2F7 PUSH1 0x4 DUP1 CALLDATASIZE SUB DUP2 ADD SWAP1 PUSH2 0x2F2 SWAP2 SWAP1 PUSH2 0x1022 JUMP JUMPDEST PUSH2 0xCE8 JUMP JUMPDEST PUSH1 0x40 MLOAD PUSH2 0x304 SWAP2 SWAP1 PUSH2 0x1368 JUMP JUMPDEST PUSH1 0x40 MLOAD DUP1 SWAP2 SUB SWAP1 RETURN JUMPDEST PUSH2 0x315 PUSH2 0xDD0 JUMP JUMPDEST PUSH1 0x40 MLOAD PUSH2 0x322 SWAP2 SWAP1 PUSH2 0x138A JUMP JUMPDEST PUSH1 0x40 MLOAD DUP1 SWAP2 SUB SWAP1 RETURN JUMPDEST PUSH2 0x333 PUSH2 0xDD6 JUMP JUMPDEST PUSH1 0x40 MLOAD PUSH2 0x340 SWAP2 SWAP1 PUSH2 0x138A JUMP JUMPDEST PUSH1 0x40 MLOAD DUP1 SWAP2 SUB SWAP1 RETURN JUMPDEST PUSH2 0x363 PUSH1 0x4 DUP1 CALLDATASIZE SUB DUP2 ADD SWAP1 PUSH2 0x35E SWAP2 SWAP1 PUSH2 0xFF5 JUMP JUMPDEST PUSH2 0xDDC JUMP JUMPDEST PUSH1 0x40 MLOAD PUSH2 0x373 SWAP5 SWAP4 SWAP3 SWAP2 SWAP1 PUSH2 0x13E3 JUMP JUMPDEST PUSH1 0x40 MLOAD DUP1 SWAP2 SUB SWAP1 RETURN JUMPDEST PUSH1 0x3 SLOAD DUP2 JUMP JUMPDEST PUSH1 0x60 DUP1 PUSH1 0x0 PUSH1 0x1 SWAP1 POP JUMPDEST PUSH1 0x1 SLOAD DUP2 GT PUSH2 0x3F2 JUMPI PUSH1 0x8 PUSH1 0x0 DUP6 DUP2 MSTORE PUSH1 0x20 ADD SWAP1 DUP2 MSTORE PUSH1 0x20 ADD PUSH1 0x0 KECCAK256 PUSH1 0x4 ADD PUSH1 0x0 DUP3 DUP2 MSTORE PUSH1 0x20 ADD SWAP1 DUP2 MSTORE PUSH1 0x20 ADD PUSH1 0x0 KECCAK256 PUSH1 0x2 ADD SLOAD DUP3 DUP3 DUP2 MLOAD DUP2 LT PUSH2 0x3D3 JUMPI PUSH2 0x3D2 PUSH2 0x163D JUMP JUMPDEST JUMPDEST PUSH1 0x20 MUL PUSH1 0x20 ADD ADD DUP2 DUP2 MSTORE POP POP DUP1 DUP1 PUSH2 0x3EA SWAP1 PUSH2 0x1567 JUMP JUMPDEST SWAP2 POP POP PUSH2 0x38C JUMP JUMPDEST POP DUP1 SWAP2 POP POP SWAP2 SWAP1 POP JUMP JUMPDEST PUSH1 0x0 PUSH1 0x8 PUSH1 0x0 DUP5 DUP2 MSTORE PUSH1 0x20 ADD SWAP1 DUP2 MSTORE PUSH1 0x20 ADD PUSH1 0x0 KECCAK256 PUSH1 0x4 ADD PUSH1 0x0 DUP4 DUP2 MSTORE PUSH1 0x20 ADD SWAP1 DUP2 MSTORE PUSH1 0x20 ADD PUSH1 0x0 KECCAK256 PUSH1 0x2 ADD SLOAD SWAP1 POP SWAP3 SWAP2 POP POP JUMP JUMPDEST PUSH1 0x0 PUSH1 0x1 DUP1 PUSH1 0x2 DUP2 GT ISZERO PUSH2 0x448 JUMPI PUSH2 0x447 PUSH2 0x15DF JUMP JUMPDEST JUMPDEST PUSH1 0xB PUSH1 0x0 SWAP1 SLOAD SWAP1 PUSH2 0x100 EXP SWAP1 DIV PUSH1 0xFF AND PUSH1 0x2 DUP2 GT ISZERO PUSH2 0x46A JUMPI PUSH2 0x469 PUSH2 0x15DF JUMP JUMPDEST JUMPDEST EQ PUSH2 0x474 JUMPI PUSH1 0x0 DUP1 REVERT JUMPDEST PUSH1 0x0 PUSH1 0x9 PUSH1 0x0 CALLER PUSH20 0xFFFFFFFFFFFFFFFFFFFFFFFFFFFFFFFFFFFFFFFF AND PUSH20 0xFFFFFFFFFFFFFFFFFFFFFFFFFFFFFFFFFFFFFFFF AND DUP2 MSTORE PUSH1 0x20 ADD SWAP1 DUP2 MSTORE PUSH1 0x20 ADD PUSH1 0x0 KECCAK256 PUSH1 0x0 ADD PUSH1 0x0 SWAP1 SLOAD SWAP1 PUSH2 0x100 EXP SWAP1 DIV PUSH1 0xFF AND DUP1 ISZERO PUSH2 0x51F JUMPI POP PUSH1 0x9 PUSH1 0x0 CALLER PUSH20 0xFFFFFFFFFFFFFFFFFFFFFFFFFFFFFFFFFFFFFFFF AND PUSH20 0xFFFFFFFFFFFFFFFFFFFFFFFFFFFFFFFFFFFFFFFF AND DUP2 MSTORE PUSH1 0x20 ADD SWAP1 DUP2 MSTORE PUSH1 0x20 ADD PUSH1 0x0 KECCAK256 PUSH1 0x0 ADD PUSH1 0x1 SWAP1 SLOAD SWAP1 PUSH2 0x100 EXP SWAP1 DIV PUSH1 0xFF AND ISZERO JUMPDEST ISZERO PUSH2 0x754 JUMPI DUP5 PUSH1 0x9 PUSH1 0x0 CALLER PUSH20 0xFFFFFFFFFFFFFFFFFFFFFFFFFFFFFFFFFFFFFFFF AND PUSH20 0xFFFFFFFFFFFFFFFFFFFFFFFFFFFFFFFFFFFFFFFF AND DUP2 MSTORE PUSH1 0x20 ADD SWAP1 DUP2 MSTORE PUSH1 0x20 ADD PUSH1 0x0 KECCAK256 PUSH1 0x1 ADD DUP2 SWAP1 SSTORE POP DUP4 PUSH1 0x9 PUSH1 0x0 CALLER PUSH20 0xFFFFFFFFFFFFFFFFFFFFFFFFFFFFFFFFFFFFFFFF AND PUSH20 0xFFFFFFFFFFFFFFFFFFFFFFFFFFFFFFFFFFFFFFFF AND DUP2 MSTORE PUSH1 0x20 ADD SWAP1 DUP2 MSTORE PUSH1 0x20 ADD PUSH1 0x0 KECCAK256 PUSH1 0x3 ADD DUP2 SWAP1 SSTORE POP PUSH1 0x1 PUSH1 0x9 PUSH1 0x0 CALLER PUSH20 0xFFFFFFFFFFFFFFFFFFFFFFFFFFFFFFFFFFFFFFFF AND PUSH20 0xFFFFFFFFFFFFFFFFFFFFFFFFFFFFFFFFFFFFFFFF AND DUP2 MSTORE PUSH1 0x20 ADD SWAP1 DUP2 MSTORE PUSH1 0x20 ADD PUSH1 0x0 KECCAK256 PUSH1 0x0 ADD PUSH1 0x1 PUSH2 0x100 EXP DUP2 SLOAD DUP2 PUSH1 0xFF MUL NOT AND SWAP1 DUP4 ISZERO ISZERO MUL OR SWAP1 SSTORE POP PUSH1 0x8 PUSH1 0x0 DUP6 DUP2 MSTORE PUSH1 0x20 ADD SWAP1 DUP2 MSTORE PUSH1 0x20 ADD PUSH1 0x0 KECCAK256 PUSH1 0x3 ADD PUSH1 0x0 DUP2 SLOAD DUP1 SWAP3 SWAP2 SWAP1 PUSH2 0x634 SWAP1 PUSH2 0x1567 JUMP JUMPDEST SWAP2 SWAP1 POP SSTORE POP PUSH1 0x6 PUSH1 0x0 DUP7 DUP2 MSTORE PUSH1 0x20 ADD SWAP1 DUP2 MSTORE PUSH1 0x20 ADD PUSH1 0x0 KECCAK256 PUSH1 0x2 ADD PUSH1 0x0 DUP2 SLOAD DUP1 SWAP3 SWAP2 SWAP1 PUSH2 0x660 SWAP1 PUSH2 0x1567 JUMP JUMPDEST SWAP2 SWAP1 POP SSTORE POP PUSH1 0x4 PUSH1 0x0 DUP2 SLOAD DUP1 SWAP3 SWAP2 SWAP1 PUSH2 0x678 SWAP1 PUSH2 0x1567 JUMP JUMPDEST SWAP2 SWAP1 POP SSTORE POP PUSH1 0x1 SWAP1 POP DUP1 PUSH1 0xA PUSH1 0x0 CALLER PUSH20 0xFFFFFFFFFFFFFFFFFFFFFFFFFFFFFFFFFFFFFFFF AND PUSH20 0xFFFFFFFFFFFFFFFFFFFFFFFFFFFFFFFFFFFFFFFF AND DUP2 MSTORE PUSH1 0x20 ADD SWAP1 DUP2 MSTORE PUSH1 0x20 ADD PUSH1 0x0 KECCAK256 PUSH1 0x0 PUSH2 0x100 EXP DUP2 SLOAD DUP2 PUSH1 0xFF MUL NOT AND SWAP1 DUP4 ISZERO ISZERO MUL OR SWAP1 SSTORE POP PUSH1 0x8 PUSH1 0x0 DUP6 DUP2 MSTORE PUSH1 0x20 ADD SWAP1 DUP2 MSTORE PUSH1 0x20 ADD PUSH1 0x0 KECCAK256 PUSH1 0x4 ADD PUSH1 0x0 DUP7 DUP2 MSTORE PUSH1 0x20 ADD SWAP1 DUP2 MSTORE PUSH1 0x20 ADD PUSH1 0x0 KECCAK256 PUSH1 0x2 ADD PUSH1 0x0 DUP2 SLOAD DUP1 SWAP3 SWAP2 SWAP1 PUSH2 0x713 SWAP1 PUSH2 0x1567 JUMP JUMPDEST SWAP2 SWAP1 POP SSTORE POP PUSH32 0x29A25B3D0B6FF7E5DE2A60A2E8E76D1BDAF4894EC18C598CC1687213F442C5CB DUP2 DUP7 DUP7 PUSH1 0x40 MLOAD PUSH2 0x74B SWAP4 SWAP3 SWAP2 SWAP1 PUSH2 0x12D6 JUMP JUMPDEST PUSH1 0x40 MLOAD DUP1 SWAP2 SUB SWAP1 LOG1 JUMPDEST DUP1 SWAP3 POP POP POP SWAP3 SWAP2 POP POP JUMP JUMPDEST PUSH1 0x1 SLOAD DUP2 JUMP JUMPDEST PUSH1 0x6 PUSH1 0x20 MSTORE DUP1 PUSH1 0x0 MSTORE PUSH1 0x40 PUSH1 0x0 KECCAK256 PUSH1 0x0 SWAP2 POP SWAP1 POP DUP1 PUSH1 0x0 ADD SLOAD SWAP1 DUP1 PUSH1 0x1 ADD DUP1 SLOAD PUSH2 0x78E SWAP1 PUSH2 0x1535 JUMP JUMPDEST DUP1 PUSH1 0x1F ADD PUSH1 0x20 DUP1 SWAP2 DIV MUL PUSH1 0x20 ADD PUSH1 0x40 MLOAD SWAP1 DUP2 ADD PUSH1 0x40 MSTORE DUP1 SWAP3 SWAP2 SWAP1 DUP2 DUP2 MSTORE PUSH1 0x20 ADD DUP3 DUP1 SLOAD PUSH2 0x7BA SWAP1 PUSH2 0x1535 JUMP JUMPDEST DUP1 ISZERO PUSH2 0x807 JUMPI DUP1 PUSH1 0x1F LT PUSH2 0x7DC JUMPI PUSH2 0x100 DUP1 DUP4 SLOAD DIV MUL DUP4 MSTORE SWAP2 PUSH1 0x20 ADD SWAP2 PUSH2 0x807 JUMP JUMPDEST DUP3 ADD SWAP2 SWAP1 PUSH1 0x0 MSTORE PUSH1 0x20 PUSH1 0x0 KECCAK256 SWAP1 JUMPDEST DUP2 SLOAD DUP2 MSTORE SWAP1 PUSH1 0x1 ADD SWAP1 PUSH1 0x20 ADD DUP1 DUP4 GT PUSH2 0x7EA JUMPI DUP3 SWAP1 SUB PUSH1 0x1F AND DUP3 ADD SWAP2 JUMPDEST POP POP POP POP POP SWAP1 DUP1 PUSH1 0x2 ADD SLOAD SWAP1 POP DUP4 JUMP JUMPDEST PUSH1 0x9 PUSH1 0x20 MSTORE DUP1 PUSH1 0x0 MSTORE PUSH1 0x40 PUSH1 0x0 KECCAK256 PUSH1 0x0 SWAP2 POP SWAP1 POP DUP1 PUSH1 0x0 ADD PUSH1 0x0 SWAP1 SLOAD SWAP1 PUSH2 0x100 EXP SWAP1 DIV PUSH1 0xFF AND SWAP1 DUP1 PUSH1 0x0 ADD PUSH1 0x1 SWAP1 SLOAD SWAP1 PUSH2 0x100 EXP SWAP1 DIV PUSH1 0xFF AND SWAP1 DUP1 PUSH1 0x1 ADD SLOAD SWAP1 DUP1 PUSH1 0x2 ADD SLOAD SWAP1 DUP1 PUSH1 0x3 ADD SLOAD SWAP1 POP DUP6 JUMP JUMPDEST PUSH1 0x0 DUP1 PUSH1 0x2 DUP2 GT ISZERO PUSH2 0x87C JUMPI PUSH2 0x87B PUSH2 0x15DF JUMP JUMPDEST JUMPDEST PUSH1 0xB PUSH1 0x0 SWAP1 SLOAD SWAP1 PUSH2 0x100 EXP SWAP1 DIV PUSH1 0xFF AND PUSH1 0x2 DUP2 GT ISZERO PUSH2 0x89E JUMPI PUSH2 0x89D PUSH2 0x15DF JUMP JUMPDEST JUMPDEST EQ PUSH2 0x8A8 JUMPI PUSH1 0x0 DUP1 REVERT JUMPDEST PUSH1 0x0 DUP1 SLOAD SWAP1 PUSH2 0x100 EXP SWAP1 DIV PUSH20 0xFFFFFFFFFFFFFFFFFFFFFFFFFFFFFFFFFFFFFFFF AND PUSH20 0xFFFFFFFFFFFFFFFFFFFFFFFFFFFFFFFFFFFFFFFF AND CALLER PUSH20 0xFFFFFFFFFFFFFFFFFFFFFFFFFFFFFFFFFFFFFFFF AND EQ PUSH2 0x900 JUMPI PUSH1 0x0 DUP1 REVERT JUMPDEST PUSH1 0x1 PUSH1 0xB PUSH1 0x0 PUSH2 0x100 EXP DUP2 SLOAD DUP2 PUSH1 0xFF MUL NOT AND SWAP1 DUP4 PUSH1 0x2 DUP2 GT ISZERO PUSH2 0x926 JUMPI PUSH2 0x925 PUSH2 0x15DF JUMP JUMPDEST JUMPDEST MUL OR SWAP1 SSTORE POP POP JUMP JUMPDEST PUSH1 0x0 DUP1 SLOAD SWAP1 PUSH2 0x100 EXP SWAP1 DIV PUSH20 0xFFFFFFFFFFFFFFFFFFFFFFFFFFFFFFFFFFFFFFFF AND DUP2 JUMP JUMPDEST PUSH1 0xA PUSH1 0x20 MSTORE DUP1 PUSH1 0x0 MSTORE PUSH1 0x40 PUSH1 0x0 KECCAK256 PUSH1 0x0 SWAP2 POP SLOAD SWAP1 PUSH2 0x100 EXP SWAP1 DIV PUSH1 0xFF AND DUP2 JUMP JUMPDEST PUSH1 0x1 DUP1 PUSH1 0x2 DUP2 GT ISZERO PUSH2 0x987 JUMPI PUSH2 0x986 PUSH2 0x15DF JUMP JUMPDEST JUMPDEST PUSH1 0xB PUSH1 0x0 SWAP1 SLOAD SWAP1 PUSH2 0x100 EXP SWAP1 DIV PUSH1 0xFF AND PUSH1 0x2 DUP2 GT ISZERO PUSH2 0x9A9 JUMPI PUSH2 0x9A8 PUSH2 0x15DF JUMP JUMPDEST JUMPDEST EQ PUSH2 0x9B3 JUMPI PUSH1 0x0 DUP1 REVERT JUMPDEST PUSH1 0x0 DUP1 SLOAD SWAP1 PUSH2 0x100 EXP SWAP1 DIV PUSH20 0xFFFFFFFFFFFFFFFFFFFFFFFFFFFFFFFFFFFFFFFF AND PUSH20 0xFFFFFFFFFFFFFFFFFFFFFFFFFFFFFFFFFFFFFFFF AND CALLER PUSH20 0xFFFFFFFFFFFFFFFFFFFFFFFFFFFFFFFFFFFFFFFF AND EQ PUSH2 0xA0B JUMPI PUSH1 0x0 DUP1 REVERT JUMPDEST PUSH1 0x2 PUSH1 0xB PUSH1 0x0 PUSH2 0x100 EXP DUP2 SLOAD DUP2 PUSH1 0xFF MUL NOT AND SWAP1 DUP4 PUSH1 0x2 DUP2 GT ISZERO PUSH2 0xA31 JUMPI PUSH2 0xA30 PUSH2 0x15DF JUMP JUMPDEST JUMPDEST MUL OR SWAP1 SSTORE POP PUSH1 0x4 SLOAD PUSH1 0x5 DUP2 SWAP1 SSTORE POP POP JUMP JUMPDEST PUSH1 0x0 DUP1 PUSH1 0x2 DUP2 GT ISZERO PUSH2 0xA57 JUMPI PUSH2 0xA56 PUSH2 0x15DF JUMP JUMPDEST JUMPDEST PUSH1 0xB PUSH1 0x0 SWAP1 SLOAD SWAP1 PUSH2 0x100 EXP SWAP1 DIV PUSH1 0xFF AND PUSH1 0x2 DUP2 GT ISZERO PUSH2 0xA79 JUMPI PUSH2 0xA78 PUSH2 0x15DF JUMP JUMPDEST JUMPDEST EQ PUSH2 0xA83 JUMPI PUSH1 0x0 DUP1 REVERT JUMPDEST PUSH1 0x0 DUP1 SLOAD SWAP1 PUSH2 0x100 EXP SWAP1 DIV PUSH20 0xFFFFFFFFFFFFFFFFFFFFFFFFFFFFFFFFFFFFFFFF AND PUSH20 0xFFFFFFFFFFFFFFFFFFFFFFFFFFFFFFFFFFFFFFFF AND CALLER PUSH20 0xFFFFFFFFFFFFFFFFFFFFFFFFFFFFFFFFFFFFFFFF AND EQ PUSH2 0xADB JUMPI PUSH1 0x0 DUP1 REVERT JUMPDEST PUSH1 0x0 ISZERO ISZERO PUSH1 0x9 PUSH1 0x0 DUP6 PUSH20 0xFFFFFFFFFFFFFFFFFFFFFFFFFFFFFFFFFFFFFFFF AND PUSH20 0xFFFFFFFFFFFFFFFFFFFFFFFFFFFFFFFFFFFFFFFF AND DUP2 MSTORE PUSH1 0x20 ADD SWAP1 DUP2 MSTORE PUSH1 0x20 ADD PUSH1 0x0 KECCAK256 PUSH1 0x0 ADD PUSH1 0x0 SWAP1 SLOAD SWAP1 PUSH2 0x100 EXP SWAP1 DIV PUSH1 0xFF AND ISZERO ISZERO EQ PUSH2 0xB71 JUMPI PUSH1 0x40 MLOAD PUSH32 0x8C379A000000000000000000000000000000000000000000000000000000000 DUP2 MSTORE PUSH1 0x4 ADD PUSH2 0xB68 SWAP1 PUSH2 0x1348 JUMP JUMPDEST PUSH1 0x40 MLOAD DUP1 SWAP2 SUB SWAP1 REVERT JUMPDEST PUSH1 0x1 DUP3 LT ISZERO DUP1 ISZERO PUSH2 0xB84 JUMPI POP PUSH1 0x2 SLOAD DUP3 GT ISZERO JUMPDEST PUSH2 0xBC3 JUMPI PUSH1 0x40 MLOAD PUSH32 0x8C379A000000000000000000000000000000000000000000000000000000000 DUP2 MSTORE PUSH1 0x4 ADD PUSH2 0xBBA SWAP1 PUSH2 0x1328 JUMP JUMPDEST PUSH1 0x40 MLOAD DUP1 SWAP2 SUB SWAP1 REVERT JUMPDEST PUSH2 0xBCB PUSH2 0xF0A JUMP JUMPDEST PUSH1 0x1 DUP2 PUSH1 0x0 ADD SWAP1 ISZERO ISZERO SWAP1 DUP2 ISZERO ISZERO DUP2 MSTORE POP POP PUSH1 0x0 DUP2 PUSH1 0x20 ADD SWAP1 ISZERO ISZERO SWAP1 DUP2 ISZERO ISZERO DUP2 MSTORE POP POP PUSH1 0x0 DUP2 PUSH1 0x40 ADD DUP2 DUP2 MSTORE POP POP DUP3 DUP2 PUSH1 0x60 ADD DUP2 DUP2 MSTORE POP POP PUSH1 0x0 DUP2 PUSH1 0x80 ADD DUP2 DUP2 MSTORE POP POP DUP1 PUSH1 0x9 PUSH1 0x0 DUP7 PUSH20 0xFFFFFFFFFFFFFFFFFFFFFFFFFFFFFFFFFFFFFFFF AND PUSH20 0xFFFFFFFFFFFFFFFFFFFFFFFFFFFFFFFFFFFFFFFF AND DUP2 MSTORE PUSH1 0x20 ADD SWAP1 DUP2 MSTORE PUSH1 0x20 ADD PUSH1 0x0 KECCAK256 PUSH1 0x0 DUP3 ADD MLOAD DUP2 PUSH1 0x0 ADD PUSH1 0x0 PUSH2 0x100 EXP DUP2 SLOAD DUP2 PUSH1 0xFF MUL NOT AND SWAP1 DUP4 ISZERO ISZERO MUL OR SWAP1 SSTORE POP PUSH1 0x20 DUP3 ADD MLOAD DUP2 PUSH1 0x0 ADD PUSH1 0x1 PUSH2 0x100 EXP DUP2 SLOAD DUP2 PUSH1 0xFF MUL NOT AND SWAP1 DUP4 ISZERO ISZERO MUL OR SWAP1 SSTORE POP PUSH1 0x40 DUP3 ADD MLOAD DUP2 PUSH1 0x1 ADD SSTORE PUSH1 0x60 DUP3 ADD MLOAD DUP2 PUSH1 0x2 ADD SSTORE PUSH1 0x80 DUP3 ADD MLOAD DUP2 PUSH1 0x3 ADD SSTORE SWAP1 POP POP PUSH2 0xCB7 DUP4 PUSH2 0xE94 JUMP JUMPDEST PUSH1 0x3 PUSH1 0x0 DUP2 SLOAD DUP1 SWAP3 SWAP2 SWAP1 PUSH2 0xCCA SWAP1 PUSH2 0x1567 JUMP JUMPDEST SWAP2 SWAP1 POP SSTORE POP POP POP POP POP JUMP JUMPDEST PUSH1 0xB PUSH1 0x0 SWAP1 SLOAD SWAP1 PUSH2 0x100 EXP SWAP1 DIV PUSH1 0xFF AND DUP2 JUMP JUMPDEST PUSH2 0xCF0 PUSH2 0xF3D JUMP JUMPDEST PUSH1 0x8 PUSH1 0x0 DUP5 DUP2 MSTORE PUSH1 0x20 ADD SWAP1 DUP2 MSTORE PUSH1 0x20 ADD PUSH1 0x0 KECCAK256 PUSH1 0x4 ADD PUSH1 0x0 DUP4 DUP2 MSTORE PUSH1 0x20 ADD SWAP1 DUP2 MSTORE PUSH1 0x20 ADD PUSH1 0x0 KECCAK256 PUSH1 0x40 MLOAD DUP1 PUSH1 0x60 ADD PUSH1 0x40 MSTORE SWAP1 DUP2 PUSH1 0x0 DUP3 ADD SLOAD DUP2 MSTORE PUSH1 0x20 ADD PUSH1 0x1 DUP3 ADD DUP1 SLOAD PUSH2 0xD3C SWAP1 PUSH2 0x1535 JUMP JUMPDEST DUP1 PUSH1 0x1F ADD PUSH1 0x20 DUP1 SWAP2 DIV MUL PUSH1 0x20 ADD PUSH1 0x40 MLOAD SWAP1 DUP2 ADD PUSH1 0x40 MSTORE DUP1 SWAP3 SWAP2 SWAP1 DUP2 DUP2 MSTORE PUSH1 0x20 ADD DUP3 DUP1 SLOAD PUSH2 0xD68 SWAP1 PUSH2 0x1535 JUMP JUMPDEST DUP1 ISZERO PUSH2 0xDB5 JUMPI DUP1 PUSH1 0x1F LT PUSH2 0xD8A JUMPI PUSH2 0x100 DUP1 DUP4 SLOAD DIV MUL DUP4 MSTORE SWAP2 PUSH1 0x20 ADD SWAP2 PUSH2 0xDB5 JUMP JUMPDEST DUP3 ADD SWAP2 SWAP1 PUSH1 0x0 MSTORE PUSH1 0x20 PUSH1 0x0 KECCAK256 SWAP1 JUMPDEST DUP2 SLOAD DUP2 MSTORE SWAP1 PUSH1 0x1 ADD SWAP1 PUSH1 0x20 ADD DUP1 DUP4 GT PUSH2 0xD98 JUMPI DUP3 SWAP1 SUB PUSH1 0x1F AND DUP3 ADD SWAP2 JUMPDEST POP POP POP POP POP DUP2 MSTORE PUSH1 0x20 ADD PUSH1 0x2 DUP3 ADD SLOAD DUP2 MSTORE POP POP SWAP1 POP SWAP3 SWAP2 POP POP JUMP JUMPDEST PUSH1 0x2 SLOAD DUP2 JUMP JUMPDEST PUSH1 0x5 SLOAD DUP2 JUMP JUMPDEST PUSH1 0x8 PUSH1 0x20 MSTORE DUP1 PUSH1 0x0 MSTORE PUSH1 0x40 PUSH1 0x0 KECCAK256 PUSH1 0x0 SWAP2 POP SWAP1 POP DUP1 PUSH1 0x0 ADD SLOAD SWAP1 DUP1 PUSH1 0x1 ADD DUP1 SLOAD PUSH2 0xE05 SWAP1 PUSH2 0x1535 JUMP JUMPDEST DUP1 PUSH1 0x1F ADD PUSH1 0x20 DUP1 SWAP2 DIV MUL PUSH1 0x20 ADD PUSH1 0x40 MLOAD SWAP1 DUP2 ADD PUSH1 0x40 MSTORE DUP1 SWAP3 SWAP2 SWAP1 DUP2 DUP2 MSTORE PUSH1 0x20 ADD DUP3 DUP1 SLOAD PUSH2 0xE31 SWAP1 PUSH2 0x1535 JUMP JUMPDEST DUP1 ISZERO PUSH2 0xE7E JUMPI DUP1 PUSH1 0x1F LT PUSH2 0xE53 JUMPI PUSH2 0x100 DUP1 DUP4 SLOAD DIV MUL DUP4 MSTORE SWAP2 PUSH1 0x20 ADD SWAP2 PUSH2 0xE7E JUMP JUMPDEST DUP3 ADD SWAP2 SWAP1 PUSH1 0x0 MSTORE PUSH1 0x20 PUSH1 0x0 KECCAK256 SWAP1 JUMPDEST DUP2 SLOAD DUP2 MSTORE SWAP1 PUSH1 0x1 ADD SWAP1 PUSH1 0x20 ADD DUP1 DUP4 GT PUSH2 0xE61 JUMPI DUP3 SWAP1 SUB PUSH1 0x1F AND DUP3 ADD SWAP2 JUMPDEST POP POP POP POP POP SWAP1 DUP1 PUSH1 0x2 ADD SLOAD SWAP1 DUP1 PUSH1 0x3 ADD SLOAD SWAP1 POP DUP5 JUMP JUMPDEST PUSH1 0x0 PUSH1 0x1 SWAP1 POP JUMPDEST PUSH1 0x2 SLOAD DUP2 GT PUSH2 0xF06 JUMPI DUP2 PUSH1 0x8 PUSH1 0x0 DUP4 DUP2 MSTORE PUSH1 0x20 ADD SWAP1 DUP2 MSTORE PUSH1 0x20 ADD PUSH1 0x0 KECCAK256 PUSH1 0x0 ADD SLOAD EQ ISZERO PUSH2 0xEF3 JUMPI PUSH1 0x8 PUSH1 0x0 DUP3 DUP2 MSTORE PUSH1 0x20 ADD SWAP1 DUP2 MSTORE PUSH1 0x20 ADD PUSH1 0x0 KECCAK256 PUSH1 0x2 ADD PUSH1 0x0 DUP2 SLOAD DUP1 SWAP3 SWAP2 SWAP1 PUSH2 0xEE9 SWAP1 PUSH2 0x1567 JUMP JUMPDEST SWAP2 SWAP1 POP SSTORE POP PUSH2 0xF06 JUMP JUMPDEST DUP1 DUP1 PUSH2 0xEFE SWAP1 PUSH2 0x1567 JUMP JUMPDEST SWAP2 POP POP PUSH2 0xE9B JUMP JUMPDEST POP POP JUMP JUMPDEST PUSH1 0x40 MLOAD DUP1 PUSH1 0xA0 ADD PUSH1 0x40 MSTORE DUP1 PUSH1 0x0 ISZERO ISZERO DUP2 MSTORE PUSH1 0x20 ADD PUSH1 0x0 ISZERO ISZERO DUP2 MSTORE PUSH1 0x20 ADD PUSH1 0x0 DUP2 MSTORE PUSH1 0x20 ADD PUSH1 0x0 DUP2 MSTORE PUSH1 0x20 ADD PUSH1 0x0 DUP2 MSTORE POP SWAP1 JUMP JUMPDEST PUSH1 0x40 MLOAD DUP1 PUSH1 0x60 ADD PUSH1 0x40 MSTORE DUP1 PUSH1 0x0 DUP2 MSTORE PUSH1 0x20 ADD PUSH1 0x60 DUP2 MSTORE PUSH1 0x20 ADD PUSH1 0x0 DUP2 MSTORE POP SWAP1 JUMP JUMPDEST PUSH1 0x0 DUP2 CALLDATALOAD SWAP1 POP PUSH2 0xF6D DUP2 PUSH2 0x170E JUMP JUMPDEST SWAP3 SWAP2 POP POP JUMP JUMPDEST PUSH1 0x0 DUP2 CALLDATALOAD SWAP1 POP PUSH2 0xF82 DUP2 PUSH2 0x1725 JUMP JUMPDEST SWAP3 SWAP2 POP POP JUMP JUMPDEST PUSH1 0x0 PUSH1 0x20 DUP3 DUP5 SUB SLT ISZERO PUSH2 0xF9E JUMPI PUSH2 0xF9D PUSH2 0x166C JUMP JUMPDEST JUMPDEST PUSH1 0x0 PUSH2 0xFAC DUP5 DUP3 DUP6 ADD PUSH2 0xF5E JUMP JUMPDEST SWAP2 POP POP SWAP3 SWAP2 POP POP JUMP JUMPDEST PUSH1 0x0 DUP1 PUSH1 0x40 DUP4 DUP6 SUB SLT ISZERO PUSH2 0xFCC JUMPI PUSH2 0xFCB PUSH2 0x166C JUMP JUMPDEST JUMPDEST PUSH1 0x0 PUSH2 0xFDA DUP6 DUP3 DUP7 ADD PUSH2 0xF5E JUMP JUMPDEST SWAP3 POP POP PUSH1 0x20 PUSH2 0xFEB DUP6 DUP3 DUP7 ADD PUSH2 0xF73 JUMP JUMPDEST SWAP2 POP POP SWAP3 POP SWAP3 SWAP1 POP JUMP JUMPDEST PUSH1 0x0 PUSH1 0x20 DUP3 DUP5 SUB SLT ISZERO PUSH2 0x100B JUMPI PUSH2 0x100A PUSH2 0x166C JUMP JUMPDEST JUMPDEST PUSH1 0x0 PUSH2 0x1019 DUP5 DUP3 DUP6 ADD PUSH2 0xF73 JUMP JUMPDEST SWAP2 POP POP SWAP3 SWAP2 POP POP JUMP JUMPDEST PUSH1 0x0 DUP1 PUSH1 0x40 DUP4 DUP6 SUB SLT ISZERO PUSH2 0x1039 JUMPI PUSH2 0x1038 PUSH2 0x166C JUMP JUMPDEST JUMPDEST PUSH1 0x0 PUSH2 0x1047 DUP6 DUP3 DUP7 ADD PUSH2 0xF73 JUMP JUMPDEST SWAP3 POP POP PUSH1 0x20 PUSH2 0x1058 DUP6 DUP3 DUP7 ADD PUSH2 0xF73 JUMP JUMPDEST SWAP2 POP POP SWAP3 POP SWAP3 SWAP1 POP JUMP JUMPDEST PUSH1 0x0 PUSH2 0x106E DUP4 DUP4 PUSH2 0x120D JUMP JUMPDEST PUSH1 0x20 DUP4 ADD SWAP1 POP SWAP3 SWAP2 POP POP JUMP JUMPDEST PUSH2 0x1083 DUP2 PUSH2 0x1495 JUMP JUMPDEST DUP3 MSTORE POP POP JUMP JUMPDEST PUSH1 0x0 PUSH2 0x1094 DUP3 PUSH2 0x143F JUMP JUMPDEST PUSH2 0x109E DUP2 DUP6 PUSH2 0x1462 JUMP JUMPDEST SWAP4 POP PUSH2 0x10A9 DUP4 PUSH2 0x142F JUMP JUMPDEST DUP1 PUSH1 0x0 JUMPDEST DUP4 DUP2 LT ISZERO PUSH2 0x10DA JUMPI DUP2 MLOAD PUSH2 0x10C1 DUP9 DUP3 PUSH2 0x1062 JUMP JUMPDEST SWAP8 POP PUSH2 0x10CC DUP4 PUSH2 0x1455 JUMP JUMPDEST SWAP3 POP POP PUSH1 0x1 DUP2 ADD SWAP1 POP PUSH2 0x10AD JUMP JUMPDEST POP DUP6 SWAP4 POP POP POP POP SWAP3 SWAP2 POP POP JUMP JUMPDEST PUSH2 0x10F0 DUP2 PUSH2 0x14A7 JUMP JUMPDEST DUP3 MSTORE POP POP JUMP JUMPDEST PUSH2 0x10FF DUP2 PUSH2 0x14F0 JUMP JUMPDEST DUP3 MSTORE POP POP JUMP JUMPDEST PUSH1 0x0 PUSH2 0x1110 DUP3 PUSH2 0x144A JUMP JUMPDEST PUSH2 0x111A DUP2 DUP6 PUSH2 0x1473 JUMP JUMPDEST SWAP4 POP PUSH2 0x112A DUP2 DUP6 PUSH1 0x20 DUP7 ADD PUSH2 0x1502 JUMP JUMPDEST PUSH2 0x1133 DUP2 PUSH2 0x1671 JUMP JUMPDEST DUP5 ADD SWAP2 POP POP SWAP3 SWAP2 POP POP JUMP JUMPDEST PUSH1 0x0 PUSH2 0x1149 DUP3 PUSH2 0x144A JUMP JUMPDEST PUSH2 0x1153 DUP2 DUP6 PUSH2 0x1484 JUMP JUMPDEST SWAP4 POP PUSH2 0x1163 DUP2 DUP6 PUSH1 0x20 DUP7 ADD PUSH2 0x1502 JUMP JUMPDEST PUSH2 0x116C DUP2 PUSH2 0x1671 JUMP JUMPDEST DUP5 ADD SWAP2 POP POP SWAP3 SWAP2 POP POP JUMP JUMPDEST PUSH1 0x0 PUSH2 0x1184 PUSH1 0x2A DUP4 PUSH2 0x1484 JUMP JUMPDEST SWAP2 POP PUSH2 0x118F DUP3 PUSH2 0x1682 JUMP JUMPDEST PUSH1 0x40 DUP3 ADD SWAP1 POP SWAP2 SWAP1 POP JUMP JUMPDEST PUSH1 0x0 PUSH2 0x11A7 PUSH1 0x1C DUP4 PUSH2 0x1484 JUMP JUMPDEST SWAP2 POP PUSH2 0x11B2 DUP3 PUSH2 0x16D1 JUMP JUMPDEST PUSH1 0x20 DUP3 ADD SWAP1 POP SWAP2 SWAP1 POP JUMP JUMPDEST PUSH1 0x0 PUSH1 0x60 DUP4 ADD PUSH1 0x0 DUP4 ADD MLOAD PUSH2 0x11D5 PUSH1 0x0 DUP7 ADD DUP3 PUSH2 0x120D JUMP JUMPDEST POP PUSH1 0x20 DUP4 ADD MLOAD DUP5 DUP3 SUB PUSH1 0x20 DUP7 ADD MSTORE PUSH2 0x11ED DUP3 DUP3 PUSH2 0x1105 JUMP JUMPDEST SWAP2 POP POP PUSH1 0x40 DUP4 ADD MLOAD PUSH2 0x1202 PUSH1 0x40 DUP7 ADD DUP3 PUSH2 0x120D JUMP JUMPDEST POP DUP1 SWAP2 POP POP SWAP3 SWAP2 POP POP JUMP JUMPDEST PUSH2 0x1216 DUP2 PUSH2 0x14E6 JUMP JUMPDEST DUP3 MSTORE POP POP JUMP JUMPDEST PUSH2 0x1225 DUP2 PUSH2 0x14E6 JUMP JUMPDEST DUP3 MSTORE POP POP JUMP JUMPDEST PUSH1 0x0 PUSH1 0x20 DUP3 ADD SWAP1 POP PUSH2 0x1240 PUSH1 0x0 DUP4 ADD DUP5 PUSH2 0x107A JUMP JUMPDEST SWAP3 SWAP2 POP POP JUMP JUMPDEST PUSH1 0x0 PUSH1 0x20 DUP3 ADD SWAP1 POP DUP2 DUP2 SUB PUSH1 0x0 DUP4 ADD MSTORE PUSH2 0x1260 DUP2 DUP5 PUSH2 0x1089 JUMP JUMPDEST SWAP1 POP SWAP3 SWAP2 POP POP JUMP JUMPDEST PUSH1 0x0 PUSH1 0x20 DUP3 ADD SWAP1 POP PUSH2 0x127D PUSH1 0x0 DUP4 ADD DUP5 PUSH2 0x10E7 JUMP JUMPDEST SWAP3 SWAP2 POP POP JUMP JUMPDEST PUSH1 0x0 PUSH1 0xA0 DUP3 ADD SWAP1 POP PUSH2 0x1298 PUSH1 0x0 DUP4 ADD DUP9 PUSH2 0x10E7 JUMP JUMPDEST PUSH2 0x12A5 PUSH1 0x20 DUP4 ADD DUP8 PUSH2 0x10E7 JUMP JUMPDEST PUSH2 0x12B2 PUSH1 0x40 DUP4 ADD DUP7 PUSH2 0x121C JUMP JUMPDEST PUSH2 0x12BF PUSH1 0x60 DUP4 ADD DUP6 PUSH2 0x121C JUMP JUMPDEST PUSH2 0x12CC PUSH1 0x80 DUP4 ADD DUP5 PUSH2 0x121C JUMP JUMPDEST SWAP7 SWAP6 POP POP POP POP POP POP JUMP JUMPDEST PUSH1 0x0 PUSH1 0x60 DUP3 ADD SWAP1 POP PUSH2 0x12EB PUSH1 0x0 DUP4 ADD DUP7 PUSH2 0x10E7 JUMP JUMPDEST PUSH2 0x12F8 PUSH1 0x20 DUP4 ADD DUP6 PUSH2 0x121C JUMP JUMPDEST PUSH2 0x1305 PUSH1 0x40 DUP4 ADD DUP5 PUSH2 0x121C JUMP JUMPDEST SWAP5 SWAP4 POP POP POP POP JUMP JUMPDEST PUSH1 0x0 PUSH1 0x20 DUP3 ADD SWAP1 POP PUSH2 0x1322 PUSH1 0x0 DUP4 ADD DUP5 PUSH2 0x10F6 JUMP JUMPDEST SWAP3 SWAP2 POP POP JUMP JUMPDEST PUSH1 0x0 PUSH1 0x20 DUP3 ADD SWAP1 POP DUP2 DUP2 SUB PUSH1 0x0 DUP4 ADD MSTORE PUSH2 0x1341 DUP2 PUSH2 0x1177 JUMP JUMPDEST SWAP1 POP SWAP2 SWAP1 POP JUMP JUMPDEST PUSH1 0x0 PUSH1 0x20 DUP3 ADD SWAP1 POP DUP2 DUP2 SUB PUSH1 0x0 DUP4 ADD MSTORE PUSH2 0x1361 DUP2 PUSH2 0x119A JUMP JUMPDEST SWAP1 POP SWAP2 SWAP1 POP JUMP JUMPDEST PUSH1 0x0 PUSH1 0x20 DUP3 ADD SWAP1 POP DUP2 DUP2 SUB PUSH1 0x0 DUP4 ADD MSTORE PUSH2 0x1382 DUP2 DUP5 PUSH2 0x11BD JUMP JUMPDEST SWAP1 POP SWAP3 SWAP2 POP POP JUMP JUMPDEST PUSH1 0x0 PUSH1 0x20 DUP3 ADD SWAP1 POP PUSH2 0x139F PUSH1 0x0 DUP4 ADD DUP5 PUSH2 0x121C JUMP JUMPDEST SWAP3 SWAP2 POP POP JUMP JUMPDEST PUSH1 0x0 PUSH1 0x60 DUP3 ADD SWAP1 POP PUSH2 0x13BA PUSH1 0x0 DUP4 ADD DUP7 PUSH2 0x121C JUMP JUMPDEST DUP2 DUP2 SUB PUSH1 0x20 DUP4 ADD MSTORE PUSH2 0x13CC DUP2 DUP6 PUSH2 0x113E JUMP JUMPDEST SWAP1 POP PUSH2 0x13DB PUSH1 0x40 DUP4 ADD DUP5 PUSH2 0x121C JUMP JUMPDEST SWAP5 SWAP4 POP POP POP POP JUMP JUMPDEST PUSH1 0x0 PUSH1 0x80 DUP3 ADD SWAP1 POP PUSH2 0x13F8 PUSH1 0x0 DUP4 ADD DUP8 PUSH2 0x121C JUMP JUMPDEST DUP2 DUP2 SUB PUSH1 0x20 DUP4 ADD MSTORE PUSH2 0x140A DUP2 DUP7 PUSH2 0x113E JUMP JUMPDEST SWAP1 POP PUSH2 0x1419 PUSH1 0x40 DUP4 ADD DUP6 PUSH2 0x121C JUMP JUMPDEST PUSH2 0x1426 PUSH1 0x60 DUP4 ADD DUP5 PUSH2 0x121C JUMP JUMPDEST SWAP6 SWAP5 POP POP POP POP POP JUMP JUMPDEST PUSH1 0x0 DUP2 SWAP1 POP PUSH1 0x20 DUP3 ADD SWAP1 POP SWAP2 SWAP1 POP JUMP JUMPDEST PUSH1 0x0 DUP2 MLOAD SWAP1 POP SWAP2 SWAP1 POP JUMP JUMPDEST PUSH1 0x0 DUP2 MLOAD SWAP1 POP SWAP2 SWAP1 POP JUMP JUMPDEST PUSH1 0x0 PUSH1 0x20 DUP3 ADD SWAP1 POP SWAP2 SWAP1 POP JUMP JUMPDEST PUSH1 0x0 DUP3 DUP3 MSTORE PUSH1 0x20 DUP3 ADD SWAP1 POP SWAP3 SWAP2 POP POP JUMP JUMPDEST PUSH1 0x0 DUP3 DUP3 MSTORE PUSH1 0x20 DUP3 ADD SWAP1 POP SWAP3 SWAP2 POP POP JUMP JUMPDEST PUSH1 0x0 DUP3 DUP3 MSTORE PUSH1 0x20 DUP3 ADD SWAP1 POP SWAP3 SWAP2 POP POP JUMP JUMPDEST PUSH1 0x0 PUSH2 0x14A0 DUP3 PUSH2 0x14C6 JUMP JUMPDEST SWAP1 POP SWAP2 SWAP1 POP JUMP JUMPDEST PUSH1 0x0 DUP2 ISZERO ISZERO SWAP1 POP SWAP2 SWAP1 POP JUMP JUMPDEST PUSH1 0x0 DUP2 SWAP1 POP PUSH2 0x14C1 DUP3 PUSH2 0x16FA JUMP JUMPDEST SWAP2 SWAP1 POP JUMP JUMPDEST PUSH1 0x0 PUSH20 0xFFFFFFFFFFFFFFFFFFFFFFFFFFFFFFFFFFFFFFFF DUP3 AND SWAP1 POP SWAP2 SWAP1 POP JUMP JUMPDEST PUSH1 0x0 DUP2 SWAP1 POP SWAP2 SWAP1 POP JUMP JUMPDEST PUSH1 0x0 PUSH2 0x14FB DUP3 PUSH2 0x14B3 JUMP JUMPDEST SWAP1 POP SWAP2 SWAP1 POP JUMP JUMPDEST PUSH1 0x0 JUMPDEST DUP4 DUP2 LT ISZERO PUSH2 0x1520 JUMPI DUP1 DUP3 ADD MLOAD DUP2 DUP5 ADD MSTORE PUSH1 0x20 DUP2 ADD SWAP1 POP PUSH2 0x1505 JUMP JUMPDEST DUP4 DUP2 GT ISZERO PUSH2 0x152F JUMPI PUSH1 0x0 DUP5 DUP5 ADD MSTORE JUMPDEST POP POP POP POP JUMP JUMPDEST PUSH1 0x0 PUSH1 0x2 DUP3 DIV SWAP1 POP PUSH1 0x1 DUP3 AND DUP1 PUSH2 0x154D JUMPI PUSH1 0x7F DUP3 AND SWAP2 POP JUMPDEST PUSH1 0x20 DUP3 LT DUP2 EQ ISZERO PUSH2 0x1561 JUMPI PUSH2 0x1560 PUSH2 0x160E JUMP JUMPDEST JUMPDEST POP SWAP2 SWAP1 POP JUMP JUMPDEST PUSH1 0x0 PUSH2 0x1572 DUP3 PUSH2 0x14E6 JUMP JUMPDEST SWAP2 POP PUSH32 0xFFFFFFFFFFFFFFFFFFFFFFFFFFFFFFFFFFFFFFFFFFFFFFFFFFFFFFFFFFFFFFFF DUP3 EQ ISZERO PUSH2 0x15A5 JUMPI PUSH2 0x15A4 PUSH2 0x15B0 JUMP JUMPDEST JUMPDEST PUSH1 0x1 DUP3 ADD SWAP1 POP SWAP2 SWAP1 POP JUMP JUMPDEST PUSH32 0x4E487B7100000000000000000000000000000000000000000000000000000000 PUSH1 0x0 MSTORE PUSH1 0x11 PUSH1 0x4 MSTORE PUSH1 0x24 PUSH1 0x0 REVERT JUMPDEST PUSH32 0x4E487B7100000000000000000000000000000000000000000000000000000000 PUSH1 0x0 MSTORE PUSH1 0x21 PUSH1 0x4 MSTORE PUSH1 0x24 PUSH1 0x0 REVERT JUMPDEST PUSH32 0x4E487B7100000000000000000000000000000000000000000000000000000000 PUSH1 0x0 MSTORE PUSH1 0x22 PUSH1 0x4 MSTORE PUSH1 0x24 PUSH1 0x0 REVERT JUMPDEST PUSH32 0x4E487B7100000000000000000000000000000000000000000000000000000000 PUSH1 0x0 MSTORE PUSH1 0x32 PUSH1 0x4 MSTORE PUSH1 0x24 PUSH1 0x0 REVERT JUMPDEST PUSH1 0x0 DUP1 REVERT JUMPDEST PUSH1 0x0 PUSH1 0x1F NOT PUSH1 0x1F DUP4 ADD AND SWAP1 POP SWAP2 SWAP1 POP JUMP JUMPDEST PUSH32 0x506C656173652070726F7669646520612076616C696420706F6C6C696E672073 PUSH1 0x0 DUP3 ADD MSTORE PUSH32 0x746174696F6E2049442E00000000000000000000000000000000000000000000 PUSH1 0x20 DUP3 ADD MSTORE POP JUMP JUMPDEST PUSH32 0x566F74657220697320616C726561647920726567697374657265642E00000000 PUSH1 0x0 DUP3 ADD MSTORE POP JUMP JUMPDEST PUSH1 0x3 DUP2 LT PUSH2 0x170B JUMPI PUSH2 0x170A PUSH2 0x15DF JUMP JUMPDEST JUMPDEST POP JUMP JUMPDEST PUSH2 0x1717 DUP2 PUSH2 0x1495 JUMP JUMPDEST DUP2 EQ PUSH2 0x1722 JUMPI PUSH1 0x0 DUP1 REVERT JUMPDEST POP JUMP JUMPDEST PUSH2 0x172E DUP2 PUSH2 0x14E6 JUMP JUMPDEST DUP2 EQ PUSH2 0x1739 JUMPI PUSH1 0x0 DUP1 REVERT JUMPDEST POP JUMP INVALID LOG2 PUSH5 0x6970667358 0x22 SLT KECCAK256 CODESIZE PUSH30 0x2033EAAB4DA59B5E6C1B42F3B5C9A4B4FC90CF441F39225A2BB35C35AEC PUSH5 0x736F6C6343 STOP ADDMOD SMOD STOP CALLER "
				},
				"gasEstimates": {
					"creation": {
						"codeDepositCost": "1200400",
						"executionCost": "infinite",
						"totalCost": "infinite"
					},
					"external": {
						"addVoter(address,uint256)": "infinite",
						"candidates(uint256)": "infinite",
						"candidatesCount()": "2452",
						"castVote(uint256,uint256)": "infinite",
						"electionOwner()": "2534",
						"endVote()": "53095",
						"finalResult()": "2517",
						"getResultsPerCandidatePerStation(uint256,uint256)": "infinite",
						"getResultsPerStation(uint256)": "infinite",
						"getResultsPerStation1(uint256,uint256)": "infinite",
						"pollingStationCount()": "2495",
						"pollingStations(uint256)": "infinite",
						"startVote()": "28903",
						"state()": "2582",
						"totalRegisteredVoters()": "2453",
						"voterRegistry(address)": "infinite",
						"voters(address)": "2890"
					},
					"internal": {
						"addCandidate(string memory)": "infinite",
						"addPollingStation(string memory)": "infinite",
						"initCandidates()": "infinite",
						"initPollingStations()": "infinite",
						"registerAtPollingStation(uint256)": "28818"
					}
				},
				"methodIdentifiers": {
					"addVoter(address,uint256)": "b9f05f2f",
					"candidates(uint256)": "3477ee2e",
					"candidatesCount()": "2d35a8a2",
					"castVote(uint256,uint256)": "2c0a3f89",
					"electionOwner()": "53357ad0",
					"endVote()": "b9223946",
					"finalResult()": "f3a8286f",
					"getResultsPerCandidatePerStation(uint256,uint256)": "2a41742e",
					"getResultsPerStation(uint256)": "23a1b11c",
					"getResultsPerStation1(uint256,uint256)": "d3808ae0",
					"pollingStationCount()": "df9f1a07",
					"pollingStations(uint256)": "fe2442d7",
					"startVote()": "4c0a6af0",
					"state()": "c19d93fb",
					"totalRegisteredVoters()": "00aa7464",
					"voterRegistry(address)": "4763d4e7",
					"voters(address)": "a3ec138d"
				}
			},
			"storageLayout": {
				"storage": [
					{
						"astId": 35,
						"contract": "contracts/ergasia.sol:Election",
						"label": "electionOwner",
						"offset": 0,
						"slot": "0",
						"type": "t_address"
					},
					{
						"astId": 37,
						"contract": "contracts/ergasia.sol:Election",
						"label": "candidatesCount",
						"offset": 0,
						"slot": "1",
						"type": "t_uint256"
					},
					{
						"astId": 39,
						"contract": "contracts/ergasia.sol:Election",
						"label": "pollingStationCount",
						"offset": 0,
						"slot": "2",
						"type": "t_uint256"
					},
					{
						"astId": 41,
						"contract": "contracts/ergasia.sol:Election",
						"label": "totalRegisteredVoters",
						"offset": 0,
						"slot": "3",
						"type": "t_uint256"
					},
					{
						"astId": 43,
						"contract": "contracts/ergasia.sol:Election",
						"label": "countResult",
						"offset": 0,
						"slot": "4",
						"type": "t_uint256"
					},
					{
						"astId": 45,
						"contract": "contracts/ergasia.sol:Election",
						"label": "finalResult",
						"offset": 0,
						"slot": "5",
						"type": "t_uint256"
					},
					{
						"astId": 50,
						"contract": "contracts/ergasia.sol:Election",
						"label": "candidates",
						"offset": 0,
						"slot": "6",
						"type": "t_mapping(t_uint256,t_struct(Candidate)8_storage)"
					},
					{
						"astId": 56,
						"contract": "contracts/ergasia.sol:Election",
						"label": "candidatesPerStation",
						"offset": 0,
						"slot": "7",
						"type": "t_mapping(t_uint256,t_array(t_struct(Candidate)8_storage)dyn_storage)"
					},
					{
						"astId": 61,
						"contract": "contracts/ergasia.sol:Election",
						"label": "pollingStations",
						"offset": 0,
						"slot": "8",
						"type": "t_mapping(t_uint256,t_struct(PollingStation)22_storage)"
					},
					{
						"astId": 66,
						"contract": "contracts/ergasia.sol:Election",
						"label": "voterRegistry",
						"offset": 0,
						"slot": "9",
						"type": "t_mapping(t_address,t_struct(Voter)33_storage)"
					},
					{
						"astId": 70,
						"contract": "contracts/ergasia.sol:Election",
						"label": "voters",
						"offset": 0,
						"slot": "10",
						"type": "t_mapping(t_address,t_bool)"
					},
					{
						"astId": 77,
						"contract": "contracts/ergasia.sol:Election",
						"label": "state",
						"offset": 0,
						"slot": "11",
						"type": "t_enum(State)74"
					}
				],
				"types": {
					"t_address": {
						"encoding": "inplace",
						"label": "address",
						"numberOfBytes": "20"
					},
					"t_array(t_struct(Candidate)8_storage)dyn_storage": {
						"base": "t_struct(Candidate)8_storage",
						"encoding": "dynamic_array",
						"label": "struct Election.Candidate[]",
						"numberOfBytes": "32"
					},
					"t_bool": {
						"encoding": "inplace",
						"label": "bool",
						"numberOfBytes": "1"
					},
					"t_enum(State)74": {
						"encoding": "inplace",
						"label": "enum Election.State",
						"numberOfBytes": "1"
					},
					"t_mapping(t_address,t_bool)": {
						"encoding": "mapping",
						"key": "t_address",
						"label": "mapping(address => bool)",
						"numberOfBytes": "32",
						"value": "t_bool"
					},
					"t_mapping(t_address,t_struct(Voter)33_storage)": {
						"encoding": "mapping",
						"key": "t_address",
						"label": "mapping(address => struct Election.Voter)",
						"numberOfBytes": "32",
						"value": "t_struct(Voter)33_storage"
					},
					"t_mapping(t_uint256,t_array(t_struct(Candidate)8_storage)dyn_storage)": {
						"encoding": "mapping",
						"key": "t_uint256",
						"label": "mapping(uint256 => struct Election.Candidate[])",
						"numberOfBytes": "32",
						"value": "t_array(t_struct(Candidate)8_storage)dyn_storage"
					},
					"t_mapping(t_uint256,t_struct(Candidate)8_storage)": {
						"encoding": "mapping",
						"key": "t_uint256",
						"label": "mapping(uint256 => struct Election.Candidate)",
						"numberOfBytes": "32",
						"value": "t_struct(Candidate)8_storage"
					},
					"t_mapping(t_uint256,t_struct(PollingStation)22_storage)": {
						"encoding": "mapping",
						"key": "t_uint256",
						"label": "mapping(uint256 => struct Election.PollingStation)",
						"numberOfBytes": "32",
						"value": "t_struct(PollingStation)22_storage"
					},
					"t_string_storage": {
						"encoding": "bytes",
						"label": "string",
						"numberOfBytes": "32"
					},
					"t_struct(Candidate)8_storage": {
						"encoding": "inplace",
						"label": "struct Election.Candidate",
						"members": [
							{
								"astId": 3,
								"contract": "contracts/ergasia.sol:Election",
								"label": "id",
								"offset": 0,
								"slot": "0",
								"type": "t_uint256"
							},
							{
								"astId": 5,
								"contract": "contracts/ergasia.sol:Election",
								"label": "name",
								"offset": 0,
								"slot": "1",
								"type": "t_string_storage"
							},
							{
								"astId": 7,
								"contract": "contracts/ergasia.sol:Election",
								"label": "votes",
								"offset": 0,
								"slot": "2",
								"type": "t_uint256"
							}
						],
						"numberOfBytes": "96"
					},
					"t_struct(PollingStation)22_storage": {
						"encoding": "inplace",
						"label": "struct Election.PollingStation",
						"members": [
							{
								"astId": 10,
								"contract": "contracts/ergasia.sol:Election",
								"label": "id",
								"offset": 0,
								"slot": "0",
								"type": "t_uint256"
							},
							{
								"astId": 12,
								"contract": "contracts/ergasia.sol:Election",
								"label": "name",
								"offset": 0,
								"slot": "1",
								"type": "t_string_storage"
							},
							{
								"astId": 14,
								"contract": "contracts/ergasia.sol:Election",
								"label": "votersRegistered",
								"offset": 0,
								"slot": "2",
								"type": "t_uint256"
							},
							{
								"astId": 16,
								"contract": "contracts/ergasia.sol:Election",
								"label": "votesCasted",
								"offset": 0,
								"slot": "3",
								"type": "t_uint256"
							},
							{
								"astId": 21,
								"contract": "contracts/ergasia.sol:Election",
								"label": "scoresPerCandidate",
								"offset": 0,
								"slot": "4",
								"type": "t_mapping(t_uint256,t_struct(Candidate)8_storage)"
							}
						],
						"numberOfBytes": "160"
					},
					"t_struct(Voter)33_storage": {
						"encoding": "inplace",
						"label": "struct Election.Voter",
						"members": [
							{
								"astId": 24,
								"contract": "contracts/ergasia.sol:Election",
								"label": "isEnrolled",
								"offset": 0,
								"slot": "0",
								"type": "t_bool"
							},
							{
								"astId": 26,
								"contract": "contracts/ergasia.sol:Election",
								"label": "hasVoted",
								"offset": 1,
								"slot": "0",
								"type": "t_bool"
							},
							{
								"astId": 28,
								"contract": "contracts/ergasia.sol:Election",
								"label": "choice",
								"offset": 0,
								"slot": "1",
								"type": "t_uint256"
							},
							{
								"astId": 30,
								"contract": "contracts/ergasia.sol:Election",
								"label": "enrolledPollingStationID",
								"offset": 0,
								"slot": "2",
								"type": "t_uint256"
							},
							{
								"astId": 32,
								"contract": "contracts/ergasia.sol:Election",
								"label": "votedPollingStationID",
								"offset": 0,
								"slot": "3",
								"type": "t_uint256"
							}
						],
						"numberOfBytes": "128"
					},
					"t_uint256": {
						"encoding": "inplace",
						"label": "uint256",
						"numberOfBytes": "32"
					}
				}
			},
			"userdoc": {
				"kind": "user",
				"methods": {},
				"version": 1
			}
		}
	}
}