{
	"contracts/ergasia.sol": {
		"Election": {
			"abi": [
				{
					"inputs": [],
					"stateMutability": "nonpayable",
					"type": "constructor"
				},
				{
					"anonymous": false,
					"inputs": [
						{
							"indexed": false,
							"internalType": "bool",
							"name": "voted",
							"type": "bool"
						},
						{
							"indexed": false,
							"internalType": "uint256",
							"name": "_choice",
							"type": "uint256"
						},
						{
							"indexed": false,
							"internalType": "uint256",
							"name": "_pollStationID",
							"type": "uint256"
						}
					],
					"name": "VoteCasted",
					"type": "event"
				},
				{
					"inputs": [
						{
							"internalType": "address",
							"name": "_voterAddress",
							"type": "address"
						},
						{
							"internalType": "uint256",
							"name": "_pollingStationID",
							"type": "uint256"
						}
					],
					"name": "addVoter",
					"outputs": [],
					"stateMutability": "nonpayable",
					"type": "function"
				},
				{
					"inputs": [
						{
							"internalType": "uint256",
							"name": "",
							"type": "uint256"
						}
					],
					"name": "candidates",
					"outputs": [
						{
							"internalType": "uint256",
							"name": "id",
							"type": "uint256"
						},
						{
							"internalType": "string",
							"name": "name",
							"type": "string"
						},
						{
							"internalType": "uint256",
							"name": "votes",
							"type": "uint256"
						}
					],
					"stateMutability": "view",
					"type": "function"
				},
				{
					"inputs": [],
					"name": "candidatesCount",
					"outputs": [
						{
							"internalType": "uint256",
							"name": "",
							"type": "uint256"
						}
					],
					"stateMutability": "view",
					"type": "function"
				},
				{
					"inputs": [
						{
							"internalType": "uint256",
							"name": "_choice",
							"type": "uint256"
						},
						{
							"internalType": "uint256",
							"name": "_pollingStationID",
							"type": "uint256"
						}
					],
					"name": "castVote",
					"outputs": [
						{
							"internalType": "bool",
							"name": "voted",
							"type": "bool"
						}
					],
					"stateMutability": "nonpayable",
					"type": "function"
				},
				{
					"inputs": [],
					"name": "electionOwner",
					"outputs": [
						{
							"internalType": "address",
							"name": "",
							"type": "address"
						}
					],
					"stateMutability": "view",
					"type": "function"
				},
				{
					"inputs": [],
					"name": "endVote",
					"outputs": [],
					"stateMutability": "nonpayable",
					"type": "function"
				},
				{
					"inputs": [],
					"name": "finalResult",
					"outputs": [
						{
							"internalType": "uint256",
							"name": "",
							"type": "uint256"
						}
					],
					"stateMutability": "view",
					"type": "function"
				},
				{
					"inputs": [
						{
							"internalType": "uint256",
							"name": "_id",
							"type": "uint256"
						}
					],
					"name": "getResultsPerStation",
					"outputs": [
						{
							"internalType": "uint256[]",
							"name": "",
							"type": "uint256[]"
						}
					],
					"stateMutability": "nonpayable",
					"type": "function"
				},
				{
					"inputs": [],
					"name": "pollingStationCount",
					"outputs": [
						{
							"internalType": "uint256",
							"name": "",
							"type": "uint256"
						}
					],
					"stateMutability": "view",
					"type": "function"
				},
				{
					"inputs": [
						{
							"internalType": "uint256",
							"name": "",
							"type": "uint256"
						}
					],
					"name": "pollingStations",
					"outputs": [
						{
							"internalType": "uint256",
							"name": "id",
							"type": "uint256"
						},
						{
							"internalType": "string",
							"name": "name",
							"type": "string"
						},
						{
							"internalType": "uint256",
							"name": "votersRegistered",
							"type": "uint256"
						},
						{
							"internalType": "uint256",
							"name": "votesCasted",
							"type": "uint256"
						}
					],
					"stateMutability": "view",
					"type": "function"
				},
				{
					"inputs": [],
					"name": "startVote",
					"outputs": [],
					"stateMutability": "nonpayable",
					"type": "function"
				},
				{
					"inputs": [],
					"name": "state",
					"outputs": [
						{
							"internalType": "enum Election.State",
							"name": "",
							"type": "uint8"
						}
					],
					"stateMutability": "view",
					"type": "function"
				},
				{
					"inputs": [],
					"name": "totalRegisteredVoters",
					"outputs": [
						{
							"internalType": "uint256",
							"name": "",
							"type": "uint256"
						}
					],
					"stateMutability": "view",
					"type": "function"
				},
				{
					"inputs": [
						{
							"internalType": "address",
							"name": "",
							"type": "address"
						}
					],
					"name": "voterRegistry",
					"outputs": [
						{
							"internalType": "bool",
							"name": "isEnrolled",
							"type": "bool"
						},
						{
							"internalType": "bool",
							"name": "hasVoted",
							"type": "bool"
						},
						{
							"internalType": "uint256",
							"name": "choice",
							"type": "uint256"
						},
						{
							"internalType": "uint256",
							"name": "enrolledPollingStationID",
							"type": "uint256"
						},
						{
							"internalType": "uint256",
							"name": "votedPollingStationID",
							"type": "uint256"
						}
					],
					"stateMutability": "view",
					"type": "function"
				},
				{
					"inputs": [
						{
							"internalType": "address",
							"name": "",
							"type": "address"
						}
					],
					"name": "voters",
					"outputs": [
						{
							"internalType": "bool",
							"name": "",
							"type": "bool"
						}
					],
					"stateMutability": "view",
					"type": "function"
				}
			],
			"devdoc": {
				"kind": "dev",
				"methods": {
					"addVoter(address,uint256)": {
						"details": "Adds a voter to the voter registry. May only be called by 'owner'.",
						"params": {
							"_pollingStationID": "polling station ID in which voter is registered.",
							"_voterAddress": "address of voter"
						}
					}
				},
				"version": 1
			},
			"evm": {
				"assembly": "    /* \"contracts/ergasia.sol\":70:7657  contract Election {... */\n  mstore(0x40, 0x80)\n    /* \"contracts/ergasia.sol\":2193:2468  constructor() {... */\n  callvalue\n  dup1\n  iszero\n  tag_1\n  jumpi\n  0x00\n  dup1\n  revert\ntag_1:\n  pop\n    /* \"contracts/ergasia.sol\":2233:2243  msg.sender */\n  caller\n    /* \"contracts/ergasia.sol\":2217:2230  electionOwner */\n  0x00\n  dup1\n    /* \"contracts/ergasia.sol\":2217:2243  electionOwner = msg.sender */\n  0x0100\n  exp\n  dup2\n  sload\n  dup2\n  0xffffffffffffffffffffffffffffffffffffffff\n  mul\n  not\n  and\n  swap1\n  dup4\n  0xffffffffffffffffffffffffffffffffffffffff\n  and\n  mul\n  or\n  swap1\n  sstore\n  pop\n    /* \"contracts/ergasia.sol\":2298:2319  initPollingStations() */\n  tag_4\n    /* \"contracts/ergasia.sol\":2298:2317  initPollingStations */\n  shl(0x20, tag_5)\n    /* \"contracts/ergasia.sol\":2298:2319  initPollingStations() */\n  0x20\n  shr\n  jump\t// in\ntag_4:\n    /* \"contracts/ergasia.sol\":2376:2392  initCandidates() */\n  tag_6\n    /* \"contracts/ergasia.sol\":2376:2390  initCandidates */\n  shl(0x20, tag_7)\n    /* \"contracts/ergasia.sol\":2376:2392  initCandidates() */\n  0x20\n  shr\n  jump\t// in\ntag_6:\n    /* \"contracts/ergasia.sol\":2446:2459  State.Created */\n  0x00\n    /* \"contracts/ergasia.sol\":2438:2443  state */\n  0x0a\n  0x00\n    /* \"contracts/ergasia.sol\":2438:2459  state = State.Created */\n  0x0100\n  exp\n  dup2\n  sload\n  dup2\n  0xff\n  mul\n  not\n  and\n  swap1\n  dup4\n  0x02\n  dup2\n  gt\n  iszero\n  tag_8\n  jumpi\n  tag_9\n  tag_10\n  jump\t// in\ntag_9:\ntag_8:\n  mul\n  or\n  swap1\n  sstore\n  pop\n    /* \"contracts/ergasia.sol\":70:7657  contract Election {... */\n  jump(tag_11)\n    /* \"contracts/ergasia.sol\":3273:3801  function initPollingStations() internal {... */\ntag_5:\n    /* \"contracts/ergasia.sol\":3323:3361  addPollingStation(\"Polling Station 1\") */\n  tag_13\n  mload(0x40)\n  dup1\n  0x40\n  add\n  0x40\n  mstore\n  dup1\n  0x11\n  dup2\n  mstore\n  0x20\n  add\n  0x506f6c6c696e672053746174696f6e2031000000000000000000000000000000\n  dup2\n  mstore\n  pop\n    /* \"contracts/ergasia.sol\":3323:3340  addPollingStation */\n  shl(0x20, tag_14)\n    /* \"contracts/ergasia.sol\":3323:3361  addPollingStation(\"Polling Station 1\") */\n  0x20\n  shr\n  jump\t// in\ntag_13:\n    /* \"contracts/ergasia.sol\":3371:3409  addPollingStation(\"Polling Station 2\") */\n  tag_15\n  mload(0x40)\n  dup1\n  0x40\n  add\n  0x40\n  mstore\n  dup1\n  0x11\n  dup2\n  mstore\n  0x20\n  add\n  0x506f6c6c696e672053746174696f6e2032000000000000000000000000000000\n  dup2\n  mstore\n  pop\n    /* \"contracts/ergasia.sol\":3371:3388  addPollingStation */\n  shl(0x20, tag_14)\n    /* \"contracts/ergasia.sol\":3371:3409  addPollingStation(\"Polling Station 2\") */\n  0x20\n  shr\n  jump\t// in\ntag_15:\n    /* \"contracts/ergasia.sol\":3419:3457  addPollingStation(\"Polling Station 3\") */\n  tag_16\n  mload(0x40)\n  dup1\n  0x40\n  add\n  0x40\n  mstore\n  dup1\n  0x11\n  dup2\n  mstore\n  0x20\n  add\n  0x506f6c6c696e672053746174696f6e2033000000000000000000000000000000\n  dup2\n  mstore\n  pop\n    /* \"contracts/ergasia.sol\":3419:3436  addPollingStation */\n  shl(0x20, tag_14)\n    /* \"contracts/ergasia.sol\":3419:3457  addPollingStation(\"Polling Station 3\") */\n  0x20\n  shr\n  jump\t// in\ntag_16:\n    /* \"contracts/ergasia.sol\":3467:3505  addPollingStation(\"Polling Station 4\") */\n  tag_17\n  mload(0x40)\n  dup1\n  0x40\n  add\n  0x40\n  mstore\n  dup1\n  0x11\n  dup2\n  mstore\n  0x20\n  add\n  0x506f6c6c696e672053746174696f6e2034000000000000000000000000000000\n  dup2\n  mstore\n  pop\n    /* \"contracts/ergasia.sol\":3467:3484  addPollingStation */\n  shl(0x20, tag_14)\n    /* \"contracts/ergasia.sol\":3467:3505  addPollingStation(\"Polling Station 4\") */\n  0x20\n  shr\n  jump\t// in\ntag_17:\n    /* \"contracts/ergasia.sol\":3515:3553  addPollingStation(\"Polling Station 5\") */\n  tag_18\n  mload(0x40)\n  dup1\n  0x40\n  add\n  0x40\n  mstore\n  dup1\n  0x11\n  dup2\n  mstore\n  0x20\n  add\n  0x506f6c6c696e672053746174696f6e2035000000000000000000000000000000\n  dup2\n  mstore\n  pop\n    /* \"contracts/ergasia.sol\":3515:3532  addPollingStation */\n  shl(0x20, tag_14)\n    /* \"contracts/ergasia.sol\":3515:3553  addPollingStation(\"Polling Station 5\") */\n  0x20\n  shr\n  jump\t// in\ntag_18:\n    /* \"contracts/ergasia.sol\":3563:3601  addPollingStation(\"Polling Station 6\") */\n  tag_19\n  mload(0x40)\n  dup1\n  0x40\n  add\n  0x40\n  mstore\n  dup1\n  0x11\n  dup2\n  mstore\n  0x20\n  add\n  0x506f6c6c696e672053746174696f6e2036000000000000000000000000000000\n  dup2\n  mstore\n  pop\n    /* \"contracts/ergasia.sol\":3563:3580  addPollingStation */\n  shl(0x20, tag_14)\n    /* \"contracts/ergasia.sol\":3563:3601  addPollingStation(\"Polling Station 6\") */\n  0x20\n  shr\n  jump\t// in\ntag_19:\n    /* \"contracts/ergasia.sol\":3611:3649  addPollingStation(\"Polling Station 7\") */\n  tag_20\n  mload(0x40)\n  dup1\n  0x40\n  add\n  0x40\n  mstore\n  dup1\n  0x11\n  dup2\n  mstore\n  0x20\n  add\n  0x506f6c6c696e672053746174696f6e2037000000000000000000000000000000\n  dup2\n  mstore\n  pop\n    /* \"contracts/ergasia.sol\":3611:3628  addPollingStation */\n  shl(0x20, tag_14)\n    /* \"contracts/ergasia.sol\":3611:3649  addPollingStation(\"Polling Station 7\") */\n  0x20\n  shr\n  jump\t// in\ntag_20:\n    /* \"contracts/ergasia.sol\":3659:3697  addPollingStation(\"Polling Station 8\") */\n  tag_21\n  mload(0x40)\n  dup1\n  0x40\n  add\n  0x40\n  mstore\n  dup1\n  0x11\n  dup2\n  mstore\n  0x20\n  add\n  0x506f6c6c696e672053746174696f6e2038000000000000000000000000000000\n  dup2\n  mstore\n  pop\n    /* \"contracts/ergasia.sol\":3659:3676  addPollingStation */\n  shl(0x20, tag_14)\n    /* \"contracts/ergasia.sol\":3659:3697  addPollingStation(\"Polling Station 8\") */\n  0x20\n  shr\n  jump\t// in\ntag_21:\n    /* \"contracts/ergasia.sol\":3707:3745  addPollingStation(\"Polling Station 9\") */\n  tag_22\n  mload(0x40)\n  dup1\n  0x40\n  add\n  0x40\n  mstore\n  dup1\n  0x11\n  dup2\n  mstore\n  0x20\n  add\n  0x506f6c6c696e672053746174696f6e2039000000000000000000000000000000\n  dup2\n  mstore\n  pop\n    /* \"contracts/ergasia.sol\":3707:3724  addPollingStation */\n  shl(0x20, tag_14)\n    /* \"contracts/ergasia.sol\":3707:3745  addPollingStation(\"Polling Station 9\") */\n  0x20\n  shr\n  jump\t// in\ntag_22:\n    /* \"contracts/ergasia.sol\":3755:3794  addPollingStation(\"Polling Station 10\") */\n  tag_23\n  mload(0x40)\n  dup1\n  0x40\n  add\n  0x40\n  mstore\n  dup1\n  0x12\n  dup2\n  mstore\n  0x20\n  add\n  0x506f6c6c696e672053746174696f6e2031300000000000000000000000000000\n  dup2\n  mstore\n  pop\n    /* \"contracts/ergasia.sol\":3755:3772  addPollingStation */\n  shl(0x20, tag_14)\n    /* \"contracts/ergasia.sol\":3755:3794  addPollingStation(\"Polling Station 10\") */\n  0x20\n  shr\n  jump\t// in\ntag_23:\n    /* \"contracts/ergasia.sol\":3273:3801  function initPollingStations() internal {... */\n  jump\t// out\n    /* \"contracts/ergasia.sol\":2527:2754  function initCandidates() internal {... */\ntag_7:\n    /* \"contracts/ergasia.sol\":2572:2599  addCandidate(\"Candidate 1\") */\n  tag_25\n  mload(0x40)\n  dup1\n  0x40\n  add\n  0x40\n  mstore\n  dup1\n  0x0b\n  dup2\n  mstore\n  0x20\n  add\n  0x43616e6469646174652031000000000000000000000000000000000000000000\n  dup2\n  mstore\n  pop\n    /* \"contracts/ergasia.sol\":2572:2584  addCandidate */\n  shl(0x20, tag_26)\n    /* \"contracts/ergasia.sol\":2572:2599  addCandidate(\"Candidate 1\") */\n  0x20\n  shr\n  jump\t// in\ntag_25:\n    /* \"contracts/ergasia.sol\":2609:2636  addCandidate(\"Candidate 2\") */\n  tag_27\n  mload(0x40)\n  dup1\n  0x40\n  add\n  0x40\n  mstore\n  dup1\n  0x0b\n  dup2\n  mstore\n  0x20\n  add\n  0x43616e6469646174652032000000000000000000000000000000000000000000\n  dup2\n  mstore\n  pop\n    /* \"contracts/ergasia.sol\":2609:2621  addCandidate */\n  shl(0x20, tag_26)\n    /* \"contracts/ergasia.sol\":2609:2636  addCandidate(\"Candidate 2\") */\n  0x20\n  shr\n  jump\t// in\ntag_27:\n    /* \"contracts/ergasia.sol\":2646:2673  addCandidate(\"Candidate 3\") */\n  tag_28\n  mload(0x40)\n  dup1\n  0x40\n  add\n  0x40\n  mstore\n  dup1\n  0x0b\n  dup2\n  mstore\n  0x20\n  add\n  0x43616e6469646174652033000000000000000000000000000000000000000000\n  dup2\n  mstore\n  pop\n    /* \"contracts/ergasia.sol\":2646:2658  addCandidate */\n  shl(0x20, tag_26)\n    /* \"contracts/ergasia.sol\":2646:2673  addCandidate(\"Candidate 3\") */\n  0x20\n  shr\n  jump\t// in\ntag_28:\n    /* \"contracts/ergasia.sol\":2683:2710  addCandidate(\"Candidate 4\") */\n  tag_29\n  mload(0x40)\n  dup1\n  0x40\n  add\n  0x40\n  mstore\n  dup1\n  0x0b\n  dup2\n  mstore\n  0x20\n  add\n  0x43616e6469646174652034000000000000000000000000000000000000000000\n  dup2\n  mstore\n  pop\n    /* \"contracts/ergasia.sol\":2683:2695  addCandidate */\n  shl(0x20, tag_26)\n    /* \"contracts/ergasia.sol\":2683:2710  addCandidate(\"Candidate 4\") */\n  0x20\n  shr\n  jump\t// in\ntag_29:\n    /* \"contracts/ergasia.sol\":2720:2747  addCandidate(\"Candidate 5\") */\n  tag_30\n  mload(0x40)\n  dup1\n  0x40\n  add\n  0x40\n  mstore\n  dup1\n  0x0b\n  dup2\n  mstore\n  0x20\n  add\n  0x43616e6469646174652035000000000000000000000000000000000000000000\n  dup2\n  mstore\n  pop\n    /* \"contracts/ergasia.sol\":2720:2732  addCandidate */\n  shl(0x20, tag_26)\n    /* \"contracts/ergasia.sol\":2720:2747  addCandidate(\"Candidate 5\") */\n  0x20\n  shr\n  jump\t// in\ntag_30:\n    /* \"contracts/ergasia.sol\":2527:2754  function initCandidates() internal {... */\n  jump\t// out\n    /* \"contracts/ergasia.sol\":3924:4585  function addPollingStation (string memory _name) private {... */\ntag_14:\n    /* \"contracts/ergasia.sol\":3991:4010  pollingStationCount */\n  0x02\n  0x00\n    /* \"contracts/ergasia.sol\":3991:4012  pollingStationCount++ */\n  dup2\n  sload\n  dup1\n  swap3\n  swap2\n  swap1\n  tag_32\n  swap1\n  tag_33\n  jump\t// in\ntag_32:\n  swap2\n  swap1\n  pop\n  sstore\n  pop\n    /* \"contracts/ergasia.sol\":4134:4168  PollingStation storage pollStation */\n  0x00\n    /* \"contracts/ergasia.sol\":4171:4186  pollingStations */\n  0x07\n    /* \"contracts/ergasia.sol\":4171:4207  pollingStations[pollingStationCount] */\n  0x00\n    /* \"contracts/ergasia.sol\":4187:4206  pollingStationCount */\n  sload(0x02)\n    /* \"contracts/ergasia.sol\":4171:4207  pollingStations[pollingStationCount] */\n  dup2\n  mstore\n  0x20\n  add\n  swap1\n  dup2\n  mstore\n  0x20\n  add\n  0x00\n  keccak256\n    /* \"contracts/ergasia.sol\":4134:4207  PollingStation storage pollStation = pollingStations[pollingStationCount] */\n  swap1\n  pop\n    /* \"contracts/ergasia.sol\":4234:4253  pollingStationCount */\n  sload(0x02)\n    /* \"contracts/ergasia.sol\":4217:4228  pollStation */\n  dup2\n    /* \"contracts/ergasia.sol\":4217:4231  pollStation.id */\n  0x00\n  add\n    /* \"contracts/ergasia.sol\":4217:4253  pollStation.id = pollingStationCount */\n  dup2\n  swap1\n  sstore\n  pop\n    /* \"contracts/ergasia.sol\":4282:4287  _name */\n  dup2\n    /* \"contracts/ergasia.sol\":4263:4274  pollStation */\n  dup2\n    /* \"contracts/ergasia.sol\":4263:4279  pollStation.name */\n  0x01\n  add\n    /* \"contracts/ergasia.sol\":4263:4287  pollStation.name = _name */\n  swap1\n  dup1\n  mload\n  swap1\n  0x20\n  add\n  swap1\n  tag_34\n  swap3\n  swap2\n  swap1\n  tag_35\n  jump\t// in\ntag_34:\n  pop\n    /* \"contracts/ergasia.sol\":4328:4329  0 */\n  0x00\n    /* \"contracts/ergasia.sol\":4297:4308  pollStation */\n  dup2\n    /* \"contracts/ergasia.sol\":4297:4325  pollStation.votersRegistered */\n  0x02\n  add\n    /* \"contracts/ergasia.sol\":4297:4329  pollStation.votersRegistered = 0 */\n  dup2\n  swap1\n  sstore\n  pop\n    /* \"contracts/ergasia.sol\":4365:4366  0 */\n  0x00\n    /* \"contracts/ergasia.sol\":4339:4350  pollStation */\n  dup2\n    /* \"contracts/ergasia.sol\":4339:4362  pollStation.votesCasted */\n  0x03\n  add\n    /* \"contracts/ergasia.sol\":4339:4366  pollStation.votesCasted = 0 */\n  dup2\n  swap1\n  sstore\n  pop\n    /* \"contracts/ergasia.sol\":3981:4585  {... */\n  pop\n    /* \"contracts/ergasia.sol\":3924:4585  function addPollingStation (string memory _name) private {... */\n  pop\n  jump\t// out\n    /* \"contracts/ergasia.sol\":2874:3212  function addCandidate (string memory _name) private {... */\ntag_26:\n    /* \"contracts/ergasia.sol\":2936:2951  candidatesCount */\n  0x01\n  0x00\n    /* \"contracts/ergasia.sol\":2936:2953  candidatesCount++ */\n  dup2\n  sload\n  dup1\n  swap3\n  swap2\n  swap1\n  tag_37\n  swap1\n  tag_33\n  jump\t// in\ntag_37:\n  swap2\n  swap1\n  pop\n  sstore\n  pop\n    /* \"contracts/ergasia.sol\":2993:3029  Candidate(candidatesCount, _name, 0) */\n  mload(0x40)\n  dup1\n  0x60\n  add\n  0x40\n  mstore\n  dup1\n    /* \"contracts/ergasia.sol\":3003:3018  candidatesCount */\n  sload(0x01)\n    /* \"contracts/ergasia.sol\":2993:3029  Candidate(candidatesCount, _name, 0) */\n  dup2\n  mstore\n  0x20\n  add\n    /* \"contracts/ergasia.sol\":3020:3025  _name */\n  dup3\n    /* \"contracts/ergasia.sol\":2993:3029  Candidate(candidatesCount, _name, 0) */\n  dup2\n  mstore\n  0x20\n  add\n    /* \"contracts/ergasia.sol\":3027:3028  0 */\n  0x00\n    /* \"contracts/ergasia.sol\":2993:3029  Candidate(candidatesCount, _name, 0) */\n  dup2\n  mstore\n  pop\n    /* \"contracts/ergasia.sol\":2963:2973  candidates */\n  0x06\n    /* \"contracts/ergasia.sol\":2963:2990  candidates[candidatesCount] */\n  0x00\n    /* \"contracts/ergasia.sol\":2974:2989  candidatesCount */\n  sload(0x01)\n    /* \"contracts/ergasia.sol\":2963:2990  candidates[candidatesCount] */\n  dup2\n  mstore\n  0x20\n  add\n  swap1\n  dup2\n  mstore\n  0x20\n  add\n  0x00\n  keccak256\n    /* \"contracts/ergasia.sol\":2963:3029  candidates[candidatesCount] = Candidate(candidatesCount, _name, 0) */\n  0x00\n  dup3\n  add\n  mload\n  dup2\n  0x00\n  add\n  sstore\n  0x20\n  dup3\n  add\n  mload\n  dup2\n  0x01\n  add\n  swap1\n  dup1\n  mload\n  swap1\n  0x20\n  add\n  swap1\n  tag_38\n  swap3\n  swap2\n  swap1\n  tag_35\n  jump\t// in\ntag_38:\n  pop\n  0x40\n  dup3\n  add\n  mload\n  dup2\n  0x02\n  add\n  sstore\n  swap1\n  pop\n  pop\n    /* \"contracts/ergasia.sol\":3045:3051  uint i */\n  0x00\n    /* \"contracts/ergasia.sol\":3054:3055  1 */\n  0x01\n    /* \"contracts/ergasia.sol\":3045:3055  uint i = 1 */\n  swap1\n  pop\n    /* \"contracts/ergasia.sol\":3040:3206  for (uint i = 1; i <= pollingStationCount; i++) {... */\ntag_39:\n    /* \"contracts/ergasia.sol\":3062:3081  pollingStationCount */\n  sload(0x02)\n    /* \"contracts/ergasia.sol\":3057:3058  i */\n  dup2\n    /* \"contracts/ergasia.sol\":3057:3081  i <= pollingStationCount */\n  gt\n    /* \"contracts/ergasia.sol\":3040:3206  for (uint i = 1; i <= pollingStationCount; i++) {... */\n  tag_40\n  jumpi\n    /* \"contracts/ergasia.sol\":3159:3195  Candidate(candidatesCount, _name, 0) */\n  mload(0x40)\n  dup1\n  0x60\n  add\n  0x40\n  mstore\n  dup1\n    /* \"contracts/ergasia.sol\":3169:3184  candidatesCount */\n  sload(0x01)\n    /* \"contracts/ergasia.sol\":3159:3195  Candidate(candidatesCount, _name, 0) */\n  dup2\n  mstore\n  0x20\n  add\n    /* \"contracts/ergasia.sol\":3186:3191  _name */\n  dup4\n    /* \"contracts/ergasia.sol\":3159:3195  Candidate(candidatesCount, _name, 0) */\n  dup2\n  mstore\n  0x20\n  add\n    /* \"contracts/ergasia.sol\":3193:3194  0 */\n  0x00\n    /* \"contracts/ergasia.sol\":3159:3195  Candidate(candidatesCount, _name, 0) */\n  dup2\n  mstore\n  pop\n    /* \"contracts/ergasia.sol\":3102:3117  pollingStations */\n  0x07\n    /* \"contracts/ergasia.sol\":3102:3120  pollingStations[i] */\n  0x00\n    /* \"contracts/ergasia.sol\":3118:3119  i */\n  dup4\n    /* \"contracts/ergasia.sol\":3102:3120  pollingStations[i] */\n  dup2\n  mstore\n  0x20\n  add\n  swap1\n  dup2\n  mstore\n  0x20\n  add\n  0x00\n  keccak256\n    /* \"contracts/ergasia.sol\":3102:3139  pollingStations[i].scoresPerCandidate */\n  0x04\n  add\n    /* \"contracts/ergasia.sol\":3102:3156  pollingStations[i].scoresPerCandidate[candidatesCount] */\n  0x00\n    /* \"contracts/ergasia.sol\":3140:3155  candidatesCount */\n  sload(0x01)\n    /* \"contracts/ergasia.sol\":3102:3156  pollingStations[i].scoresPerCandidate[candidatesCount] */\n  dup2\n  mstore\n  0x20\n  add\n  swap1\n  dup2\n  mstore\n  0x20\n  add\n  0x00\n  keccak256\n    /* \"contracts/ergasia.sol\":3102:3195  pollingStations[i].scoresPerCandidate[candidatesCount] = Candidate(candidatesCount, _name, 0) */\n  0x00\n  dup3\n  add\n  mload\n  dup2\n  0x00\n  add\n  sstore\n  0x20\n  dup3\n  add\n  mload\n  dup2\n  0x01\n  add\n  swap1\n  dup1\n  mload\n  swap1\n  0x20\n  add\n  swap1\n  tag_42\n  swap3\n  swap2\n  swap1\n  tag_35\n  jump\t// in\ntag_42:\n  pop\n  0x40\n  dup3\n  add\n  mload\n  dup2\n  0x02\n  add\n  sstore\n  swap1\n  pop\n  pop\n    /* \"contracts/ergasia.sol\":3083:3086  i++ */\n  dup1\n  dup1\n  tag_43\n  swap1\n  tag_33\n  jump\t// in\ntag_43:\n  swap2\n  pop\n  pop\n    /* \"contracts/ergasia.sol\":3040:3206  for (uint i = 1; i <= pollingStationCount; i++) {... */\n  jump(tag_39)\ntag_40:\n  pop\n    /* \"contracts/ergasia.sol\":2874:3212  function addCandidate (string memory _name) private {... */\n  pop\n  jump\t// out\n    /* \"contracts/ergasia.sol\":70:7657  contract Election {... */\ntag_35:\n  dup3\n  dup1\n  sload\n  tag_44\n  swap1\n  tag_45\n  jump\t// in\ntag_44:\n  swap1\n  0x00\n  mstore\n  keccak256(0x00, 0x20)\n  swap1\n  0x1f\n  add\n  0x20\n  swap1\n  div\n  dup2\n  add\n  swap3\n  dup3\n  tag_47\n  jumpi\n  0x00\n  dup6\n  sstore\n  jump(tag_46)\ntag_47:\n  dup3\n  0x1f\n  lt\n  tag_48\n  jumpi\n  dup1\n  mload\n  not(0xff)\n  and\n  dup4\n  dup1\n  add\n  or\n  dup6\n  sstore\n  jump(tag_46)\ntag_48:\n  dup3\n  dup1\n  add\n  0x01\n  add\n  dup6\n  sstore\n  dup3\n  iszero\n  tag_46\n  jumpi\n  swap2\n  dup3\n  add\ntag_49:\n  dup3\n  dup2\n  gt\n  iszero\n  tag_50\n  jumpi\n  dup3\n  mload\n  dup3\n  sstore\n  swap2\n  0x20\n  add\n  swap2\n  swap1\n  0x01\n  add\n  swap1\n  jump(tag_49)\ntag_50:\ntag_46:\n  pop\n  swap1\n  pop\n  tag_51\n  swap2\n  swap1\n  tag_52\n  jump\t// in\ntag_51:\n  pop\n  swap1\n  jump\t// out\ntag_52:\ntag_53:\n  dup1\n  dup3\n  gt\n  iszero\n  tag_54\n  jumpi\n  0x00\n  dup2\n  0x00\n  swap1\n  sstore\n  pop\n  0x01\n  add\n  jump(tag_53)\ntag_54:\n  pop\n  swap1\n  jump\t// out\n    /* \"#utility.yul\":7:84   */\ntag_56:\n    /* \"#utility.yul\":44:51   */\n  0x00\n    /* \"#utility.yul\":73:78   */\n  dup2\n    /* \"#utility.yul\":62:78   */\n  swap1\n  pop\n    /* \"#utility.yul\":7:84   */\n  swap2\n  swap1\n  pop\n  jump\t// out\n    /* \"#utility.yul\":90:410   */\ntag_45:\n    /* \"#utility.yul\":134:140   */\n  0x00\n    /* \"#utility.yul\":171:172   */\n  0x02\n    /* \"#utility.yul\":165:169   */\n  dup3\n    /* \"#utility.yul\":161:173   */\n  div\n    /* \"#utility.yul\":151:173   */\n  swap1\n  pop\n    /* \"#utility.yul\":218:219   */\n  0x01\n    /* \"#utility.yul\":212:216   */\n  dup3\n    /* \"#utility.yul\":208:220   */\n  and\n    /* \"#utility.yul\":239:257   */\n  dup1\n    /* \"#utility.yul\":229:310   */\n  tag_59\n  jumpi\n    /* \"#utility.yul\":295:299   */\n  0x7f\n    /* \"#utility.yul\":287:293   */\n  dup3\n    /* \"#utility.yul\":283:300   */\n  and\n    /* \"#utility.yul\":273:300   */\n  swap2\n  pop\n    /* \"#utility.yul\":229:310   */\ntag_59:\n    /* \"#utility.yul\":357:359   */\n  0x20\n    /* \"#utility.yul\":349:355   */\n  dup3\n    /* \"#utility.yul\":346:360   */\n  lt\n    /* \"#utility.yul\":326:344   */\n  dup2\n    /* \"#utility.yul\":323:361   */\n  eq\n    /* \"#utility.yul\":320:404   */\n  iszero\n  tag_60\n  jumpi\n    /* \"#utility.yul\":376:394   */\n  tag_61\n  tag_62\n  jump\t// in\ntag_61:\n    /* \"#utility.yul\":320:404   */\ntag_60:\n    /* \"#utility.yul\":141:410   */\n  pop\n    /* \"#utility.yul\":90:410   */\n  swap2\n  swap1\n  pop\n  jump\t// out\n    /* \"#utility.yul\":416:649   */\ntag_33:\n    /* \"#utility.yul\":455:458   */\n  0x00\n    /* \"#utility.yul\":478:502   */\n  tag_64\n    /* \"#utility.yul\":496:501   */\n  dup3\n    /* \"#utility.yul\":478:502   */\n  tag_56\n  jump\t// in\ntag_64:\n    /* \"#utility.yul\":469:502   */\n  swap2\n  pop\n    /* \"#utility.yul\":524:590   */\n  0xffffffffffffffffffffffffffffffffffffffffffffffffffffffffffffffff\n    /* \"#utility.yul\":517:522   */\n  dup3\n    /* \"#utility.yul\":514:591   */\n  eq\n    /* \"#utility.yul\":511:614   */\n  iszero\n  tag_65\n  jumpi\n    /* \"#utility.yul\":594:612   */\n  tag_66\n  tag_67\n  jump\t// in\ntag_66:\n    /* \"#utility.yul\":511:614   */\ntag_65:\n    /* \"#utility.yul\":641:642   */\n  0x01\n    /* \"#utility.yul\":634:639   */\n  dup3\n    /* \"#utility.yul\":630:643   */\n  add\n    /* \"#utility.yul\":623:643   */\n  swap1\n  pop\n    /* \"#utility.yul\":416:649   */\n  swap2\n  swap1\n  pop\n  jump\t// out\n    /* \"#utility.yul\":655:835   */\ntag_67:\n    /* \"#utility.yul\":703:780   */\n  0x4e487b7100000000000000000000000000000000000000000000000000000000\n    /* \"#utility.yul\":700:701   */\n  0x00\n    /* \"#utility.yul\":693:781   */\n  mstore\n    /* \"#utility.yul\":800:804   */\n  0x11\n    /* \"#utility.yul\":797:798   */\n  0x04\n    /* \"#utility.yul\":790:805   */\n  mstore\n    /* \"#utility.yul\":824:828   */\n  0x24\n    /* \"#utility.yul\":821:822   */\n  0x00\n    /* \"#utility.yul\":814:829   */\n  revert\n    /* \"#utility.yul\":841:1021   */\ntag_10:\n    /* \"#utility.yul\":889:966   */\n  0x4e487b7100000000000000000000000000000000000000000000000000000000\n    /* \"#utility.yul\":886:887   */\n  0x00\n    /* \"#utility.yul\":879:967   */\n  mstore\n    /* \"#utility.yul\":986:990   */\n  0x21\n    /* \"#utility.yul\":983:984   */\n  0x04\n    /* \"#utility.yul\":976:991   */\n  mstore\n    /* \"#utility.yul\":1010:1014   */\n  0x24\n    /* \"#utility.yul\":1007:1008   */\n  0x00\n    /* \"#utility.yul\":1000:1015   */\n  revert\n    /* \"#utility.yul\":1027:1207   */\ntag_62:\n    /* \"#utility.yul\":1075:1152   */\n  0x4e487b7100000000000000000000000000000000000000000000000000000000\n    /* \"#utility.yul\":1072:1073   */\n  0x00\n    /* \"#utility.yul\":1065:1153   */\n  mstore\n    /* \"#utility.yul\":1172:1176   */\n  0x22\n    /* \"#utility.yul\":1169:1170   */\n  0x04\n    /* \"#utility.yul\":1162:1177   */\n  mstore\n    /* \"#utility.yul\":1196:1200   */\n  0x24\n    /* \"#utility.yul\":1193:1194   */\n  0x00\n    /* \"#utility.yul\":1186:1201   */\n  revert\n    /* \"contracts/ergasia.sol\":70:7657  contract Election {... */\ntag_11:\n  dataSize(sub_0)\n  dup1\n  dataOffset(sub_0)\n  0x00\n  codecopy\n  0x00\n  return\nstop\n\nsub_0: assembly {\n        /* \"contracts/ergasia.sol\":70:7657  contract Election {... */\n      mstore(0x40, 0x80)\n      callvalue\n      dup1\n      iszero\n      tag_1\n      jumpi\n      0x00\n      dup1\n      revert\n    tag_1:\n      pop\n      jumpi(tag_2, lt(calldatasize, 0x04))\n      shr(0xe0, calldataload(0x00))\n      dup1\n      0x53357ad0\n      gt\n      tag_18\n      jumpi\n      dup1\n      0xc19d93fb\n      gt\n      tag_19\n      jumpi\n      dup1\n      0xc19d93fb\n      eq\n      tag_14\n      jumpi\n      dup1\n      0xdf9f1a07\n      eq\n      tag_15\n      jumpi\n      dup1\n      0xf3a8286f\n      eq\n      tag_16\n      jumpi\n      dup1\n      0xfe2442d7\n      eq\n      tag_17\n      jumpi\n      jump(tag_2)\n    tag_19:\n      dup1\n      0x53357ad0\n      eq\n      tag_10\n      jumpi\n      dup1\n      0xa3ec138d\n      eq\n      tag_11\n      jumpi\n      dup1\n      0xb9223946\n      eq\n      tag_12\n      jumpi\n      dup1\n      0xb9f05f2f\n      eq\n      tag_13\n      jumpi\n      jump(tag_2)\n    tag_18:\n      dup1\n      0x2d35a8a2\n      gt\n      tag_20\n      jumpi\n      dup1\n      0x2d35a8a2\n      eq\n      tag_6\n      jumpi\n      dup1\n      0x3477ee2e\n      eq\n      tag_7\n      jumpi\n      dup1\n      0x4763d4e7\n      eq\n      tag_8\n      jumpi\n      dup1\n      0x4c0a6af0\n      eq\n      tag_9\n      jumpi\n      jump(tag_2)\n    tag_20:\n      dup1\n      0xaa7464\n      eq\n      tag_3\n      jumpi\n      dup1\n      0x23a1b11c\n      eq\n      tag_4\n      jumpi\n      dup1\n      0x2c0a3f89\n      eq\n      tag_5\n      jumpi\n    tag_2:\n      0x00\n      dup1\n      revert\n        /* \"contracts/ergasia.sol\":1418:1451  uint public totalRegisteredVoters */\n    tag_3:\n      tag_21\n      tag_22\n      jump\t// in\n    tag_21:\n      mload(0x40)\n      tag_23\n      swap2\n      swap1\n      tag_24\n      jump\t// in\n    tag_23:\n      mload(0x40)\n      dup1\n      swap2\n      sub\n      swap1\n      return\n        /* \"contracts/ergasia.sol\":7309:7654  function getResultsPerStation(uint _id) public returns (uint[] memory){... */\n    tag_4:\n      tag_25\n      0x04\n      dup1\n      calldatasize\n      sub\n      dup2\n      add\n      swap1\n      tag_26\n      swap2\n      swap1\n      tag_27\n      jump\t// in\n    tag_26:\n      tag_28\n      jump\t// in\n    tag_25:\n      mload(0x40)\n      tag_29\n      swap2\n      swap1\n      tag_30\n      jump\t// in\n    tag_29:\n      mload(0x40)\n      dup1\n      swap2\n      sub\n      swap1\n      return\n        /* \"contracts/ergasia.sol\":6363:7171  function castVote(uint _choice, uint _pollingStationID) public inState(State.Voting) returns (bool voted) {... */\n    tag_5:\n      tag_31\n      0x04\n      dup1\n      calldatasize\n      sub\n      dup2\n      add\n      swap1\n      tag_32\n      swap2\n      swap1\n      tag_33\n      jump\t// in\n    tag_32:\n      tag_34\n      jump\t// in\n    tag_31:\n      mload(0x40)\n      tag_35\n      swap2\n      swap1\n      tag_36\n      jump\t// in\n    tag_35:\n      mload(0x40)\n      dup1\n      swap2\n      sub\n      swap1\n      return\n        /* \"contracts/ergasia.sol\":1276:1303  uint public candidatesCount */\n    tag_6:\n      tag_37\n      tag_38\n      jump\t// in\n    tag_37:\n      mload(0x40)\n      tag_39\n      swap2\n      swap1\n      tag_24\n      jump\t// in\n    tag_39:\n      mload(0x40)\n      dup1\n      swap2\n      sub\n      swap1\n      return\n        /* \"contracts/ergasia.sol\":1621:1665  mapping(uint => Candidate) public candidates */\n    tag_7:\n      tag_40\n      0x04\n      dup1\n      calldatasize\n      sub\n      dup2\n      add\n      swap1\n      tag_41\n      swap2\n      swap1\n      tag_27\n      jump\t// in\n    tag_41:\n      tag_42\n      jump\t// in\n    tag_40:\n      mload(0x40)\n      tag_43\n      swap4\n      swap3\n      swap2\n      swap1\n      tag_44\n      jump\t// in\n    tag_43:\n      mload(0x40)\n      dup1\n      swap2\n      sub\n      swap1\n      return\n        /* \"contracts/ergasia.sol\":1779:1825  mapping(address => Voter) public voterRegistry */\n    tag_8:\n      tag_45\n      0x04\n      dup1\n      calldatasize\n      sub\n      dup2\n      add\n      swap1\n      tag_46\n      swap2\n      swap1\n      tag_47\n      jump\t// in\n    tag_46:\n      tag_48\n      jump\t// in\n    tag_45:\n      mload(0x40)\n      tag_49\n      swap6\n      swap5\n      swap4\n      swap3\n      swap2\n      swap1\n      tag_50\n      jump\t// in\n    tag_49:\n      mload(0x40)\n      dup1\n      swap2\n      sub\n      swap1\n      return\n        /* \"contracts/ergasia.sol\":6263:6357  function startVote() public inState(State.Created) Owner {... */\n    tag_9:\n      tag_51\n      tag_52\n      jump\t// in\n    tag_51:\n      stop\n        /* \"contracts/ergasia.sol\":1242:1270  address public electionOwner */\n    tag_10:\n      tag_53\n      tag_54\n      jump\t// in\n    tag_53:\n      mload(0x40)\n      tag_55\n      swap2\n      swap1\n      tag_56\n      jump\t// in\n    tag_55:\n      mload(0x40)\n      dup1\n      swap2\n      sub\n      swap1\n      return\n        /* \"contracts/ergasia.sol\":1831:1869  mapping(address => bool) public voters */\n    tag_11:\n      tag_57\n      0x04\n      dup1\n      calldatasize\n      sub\n      dup2\n      add\n      swap1\n      tag_58\n      swap2\n      swap1\n      tag_47\n      jump\t// in\n    tag_58:\n      tag_59\n      jump\t// in\n    tag_57:\n      mload(0x40)\n      tag_60\n      swap2\n      swap1\n      tag_36\n      jump\t// in\n    tag_60:\n      mload(0x40)\n      dup1\n      swap2\n      sub\n      swap1\n      return\n        /* \"contracts/ergasia.sol\":7177:7303  function endVote() public inState(State.Voting) Owner { ... */\n    tag_12:\n      tag_61\n      tag_62\n      jump\t// in\n    tag_61:\n      stop\n        /* \"contracts/ergasia.sol\":4809:5729  function addVoter(address _voterAddress, uint _pollingStationID) public inState(State.Created) Owner {... */\n    tag_13:\n      tag_63\n      0x04\n      dup1\n      calldatasize\n      sub\n      dup2\n      add\n      swap1\n      tag_64\n      swap2\n      swap1\n      tag_65\n      jump\t// in\n    tag_64:\n      tag_66\n      jump\t// in\n    tag_63:\n      stop\n        /* \"contracts/ergasia.sol\":1922:1940  State public state */\n    tag_14:\n      tag_67\n      tag_68\n      jump\t// in\n    tag_67:\n      mload(0x40)\n      tag_69\n      swap2\n      swap1\n      tag_70\n      jump\t// in\n    tag_69:\n      mload(0x40)\n      dup1\n      swap2\n      sub\n      swap1\n      return\n        /* \"contracts/ergasia.sol\":1344:1375  uint public pollingStationCount */\n    tag_15:\n      tag_71\n      tag_72\n      jump\t// in\n    tag_71:\n      mload(0x40)\n      tag_73\n      swap2\n      swap1\n      tag_24\n      jump\t// in\n    tag_73:\n      mload(0x40)\n      dup1\n      swap2\n      sub\n      swap1\n      return\n        /* \"contracts/ergasia.sol\":1539:1562  uint public finalResult */\n    tag_16:\n      tag_74\n      tag_75\n      jump\t// in\n    tag_74:\n      mload(0x40)\n      tag_76\n      swap2\n      swap1\n      tag_24\n      jump\t// in\n    tag_76:\n      mload(0x40)\n      dup1\n      swap2\n      sub\n      swap1\n      return\n        /* \"contracts/ergasia.sol\":1695:1749  mapping(uint => PollingStation) public pollingStations */\n    tag_17:\n      tag_77\n      0x04\n      dup1\n      calldatasize\n      sub\n      dup2\n      add\n      swap1\n      tag_78\n      swap2\n      swap1\n      tag_27\n      jump\t// in\n    tag_78:\n      tag_79\n      jump\t// in\n    tag_77:\n      mload(0x40)\n      tag_80\n      swap5\n      swap4\n      swap3\n      swap2\n      swap1\n      tag_81\n      jump\t// in\n    tag_80:\n      mload(0x40)\n      dup1\n      swap2\n      sub\n      swap1\n      return\n        /* \"contracts/ergasia.sol\":1418:1451  uint public totalRegisteredVoters */\n    tag_22:\n      sload(0x03)\n      dup2\n      jump\t// out\n        /* \"contracts/ergasia.sol\":7309:7654  function getResultsPerStation(uint _id) public returns (uint[] memory){... */\n    tag_28:\n        /* \"contracts/ergasia.sol\":7365:7378  uint[] memory */\n      0x60\n        /* \"contracts/ergasia.sol\":7389:7410  uint[] memory results */\n      0x00\n        /* \"contracts/ergasia.sol\":7424:7439  candidatesCount */\n      sload(0x01)\n        /* \"contracts/ergasia.sol\":7413:7440  new uint[](candidatesCount) */\n      0xffffffffffffffff\n      dup2\n      gt\n      iszero\n      tag_83\n      jumpi\n      tag_84\n      tag_85\n      jump\t// in\n    tag_84:\n    tag_83:\n      mload(0x40)\n      swap1\n      dup1\n      dup3\n      mstore\n      dup1\n      0x20\n      mul\n      0x20\n      add\n      dup3\n      add\n      0x40\n      mstore\n      dup1\n      iszero\n      tag_86\n      jumpi\n      dup2\n      0x20\n      add\n      0x20\n      dup3\n      mul\n      dup1\n      calldatasize\n      dup4\n      calldatacopy\n      dup1\n      dup3\n      add\n      swap2\n      pop\n      pop\n      swap1\n      pop\n    tag_86:\n      pop\n        /* \"contracts/ergasia.sol\":7389:7440  uint[] memory results = new uint[](candidatesCount) */\n      swap1\n      pop\n        /* \"contracts/ergasia.sol\":7456:7462  uint i */\n      0x00\n        /* \"contracts/ergasia.sol\":7465:7466  1 */\n      0x01\n        /* \"contracts/ergasia.sol\":7456:7466  uint i = 1 */\n      swap1\n      pop\n        /* \"contracts/ergasia.sol\":7451:7623  for (uint i = 1; i <= candidatesCount; i++) {... */\n    tag_87:\n        /* \"contracts/ergasia.sol\":7473:7488  candidatesCount */\n      sload(0x01)\n        /* \"contracts/ergasia.sol\":7468:7469  i */\n      dup2\n        /* \"contracts/ergasia.sol\":7468:7488  i <= candidatesCount */\n      gt\n        /* \"contracts/ergasia.sol\":7451:7623  for (uint i = 1; i <= candidatesCount; i++) {... */\n      tag_88\n      jumpi\n        /* \"contracts/ergasia.sol\":7509:7530  Candidate memory cand */\n      0x00\n        /* \"contracts/ergasia.sol\":7533:7548  pollingStations */\n      0x07\n        /* \"contracts/ergasia.sol\":7533:7553  pollingStations[_id] */\n      0x00\n        /* \"contracts/ergasia.sol\":7549:7552  _id */\n      dup7\n        /* \"contracts/ergasia.sol\":7533:7553  pollingStations[_id] */\n      dup2\n      mstore\n      0x20\n      add\n      swap1\n      dup2\n      mstore\n      0x20\n      add\n      0x00\n      keccak256\n        /* \"contracts/ergasia.sol\":7533:7572  pollingStations[_id].scoresPerCandidate */\n      0x04\n      add\n        /* \"contracts/ergasia.sol\":7533:7575  pollingStations[_id].scoresPerCandidate[i] */\n      0x00\n        /* \"contracts/ergasia.sol\":7573:7574  i */\n      dup4\n        /* \"contracts/ergasia.sol\":7533:7575  pollingStations[_id].scoresPerCandidate[i] */\n      dup2\n      mstore\n      0x20\n      add\n      swap1\n      dup2\n      mstore\n      0x20\n      add\n      0x00\n      keccak256\n        /* \"contracts/ergasia.sol\":7509:7575  Candidate memory cand = pollingStations[_id].scoresPerCandidate[i] */\n      mload(0x40)\n      dup1\n      0x60\n      add\n      0x40\n      mstore\n      swap1\n      dup2\n      0x00\n      dup3\n      add\n      sload\n      dup2\n      mstore\n      0x20\n      add\n      0x01\n      dup3\n      add\n      dup1\n      sload\n      tag_90\n      swap1\n      tag_91\n      jump\t// in\n    tag_90:\n      dup1\n      0x1f\n      add\n      0x20\n      dup1\n      swap2\n      div\n      mul\n      0x20\n      add\n      mload(0x40)\n      swap1\n      dup2\n      add\n      0x40\n      mstore\n      dup1\n      swap3\n      swap2\n      swap1\n      dup2\n      dup2\n      mstore\n      0x20\n      add\n      dup3\n      dup1\n      sload\n      tag_92\n      swap1\n      tag_91\n      jump\t// in\n    tag_92:\n      dup1\n      iszero\n      tag_93\n      jumpi\n      dup1\n      0x1f\n      lt\n      tag_94\n      jumpi\n      0x0100\n      dup1\n      dup4\n      sload\n      div\n      mul\n      dup4\n      mstore\n      swap2\n      0x20\n      add\n      swap2\n      jump(tag_93)\n    tag_94:\n      dup3\n      add\n      swap2\n      swap1\n      0x00\n      mstore\n      keccak256(0x00, 0x20)\n      swap1\n    tag_95:\n      dup2\n      sload\n      dup2\n      mstore\n      swap1\n      0x01\n      add\n      swap1\n      0x20\n      add\n      dup1\n      dup4\n      gt\n      tag_95\n      jumpi\n      dup3\n      swap1\n      sub\n      0x1f\n      and\n      dup3\n      add\n      swap2\n    tag_93:\n      pop\n      pop\n      pop\n      pop\n      pop\n      dup2\n      mstore\n      0x20\n      add\n      0x02\n      dup3\n      add\n      sload\n      dup2\n      mstore\n      pop\n      pop\n      swap1\n      pop\n        /* \"contracts/ergasia.sol\":7602:7606  cand */\n      dup1\n        /* \"contracts/ergasia.sol\":7602:7612  cand.votes */\n      0x40\n      add\n      mload\n        /* \"contracts/ergasia.sol\":7589:7596  results */\n      dup4\n        /* \"contracts/ergasia.sol\":7597:7598  i */\n      dup4\n        /* \"contracts/ergasia.sol\":7589:7599  results[i] */\n      dup2\n      mload\n      dup2\n      lt\n      tag_96\n      jumpi\n      tag_97\n      tag_98\n      jump\t// in\n    tag_97:\n    tag_96:\n      0x20\n      mul\n      0x20\n      add\n      add\n        /* \"contracts/ergasia.sol\":7589:7612  results[i] = cand.votes */\n      dup2\n      dup2\n      mstore\n      pop\n      pop\n        /* \"contracts/ergasia.sol\":7495:7623  {... */\n      pop\n        /* \"contracts/ergasia.sol\":7490:7493  i++ */\n      dup1\n      dup1\n      tag_99\n      swap1\n      tag_100\n      jump\t// in\n    tag_99:\n      swap2\n      pop\n      pop\n        /* \"contracts/ergasia.sol\":7451:7623  for (uint i = 1; i <= candidatesCount; i++) {... */\n      jump(tag_87)\n    tag_88:\n      pop\n        /* \"contracts/ergasia.sol\":7640:7647  results */\n      dup1\n        /* \"contracts/ergasia.sol\":7633:7647  return results */\n      swap2\n      pop\n      pop\n        /* \"contracts/ergasia.sol\":7309:7654  function getResultsPerStation(uint _id) public returns (uint[] memory){... */\n      swap2\n      swap1\n      pop\n      jump\t// out\n        /* \"contracts/ergasia.sol\":6363:7171  function castVote(uint _choice, uint _pollingStationID) public inState(State.Voting) returns (bool voted) {... */\n    tag_34:\n        /* \"contracts/ergasia.sol\":6457:6467  bool voted */\n      0x00\n        /* \"contracts/ergasia.sol\":6434:6446  State.Voting */\n      0x01\n        /* \"contracts/ergasia.sol\":2092:2098  _state */\n      dup1\n        /* \"contracts/ergasia.sol\":2083:2098  state == _state */\n      0x02\n      dup2\n      gt\n      iszero\n      tag_102\n      jumpi\n      tag_103\n      tag_104\n      jump\t// in\n    tag_103:\n    tag_102:\n        /* \"contracts/ergasia.sol\":2083:2088  state */\n      0x0a\n      0x00\n      swap1\n      sload\n      swap1\n      0x0100\n      exp\n      swap1\n      div\n      0xff\n      and\n        /* \"contracts/ergasia.sol\":2083:2098  state == _state */\n      0x02\n      dup2\n      gt\n      iszero\n      tag_105\n      jumpi\n      tag_106\n      tag_104\n      jump\t// in\n    tag_106:\n    tag_105:\n      eq\n        /* \"contracts/ergasia.sol\":2075:2099  require(state == _state) */\n      tag_107\n      jumpi\n      0x00\n      dup1\n      revert\n    tag_107:\n        /* \"contracts/ergasia.sol\":6480:6490  bool found */\n      0x00\n        /* \"contracts/ergasia.sol\":6513:6526  voterRegistry */\n      0x08\n        /* \"contracts/ergasia.sol\":6513:6538  voterRegistry[msg.sender] */\n      0x00\n        /* \"contracts/ergasia.sol\":6527:6537  msg.sender */\n      caller\n        /* \"contracts/ergasia.sol\":6513:6538  voterRegistry[msg.sender] */\n      0xffffffffffffffffffffffffffffffffffffffff\n      and\n      0xffffffffffffffffffffffffffffffffffffffff\n      and\n      dup2\n      mstore\n      0x20\n      add\n      swap1\n      dup2\n      mstore\n      0x20\n      add\n      0x00\n      keccak256\n        /* \"contracts/ergasia.sol\":6513:6549  voterRegistry[msg.sender].isEnrolled */\n      0x00\n      add\n      0x00\n      swap1\n      sload\n      swap1\n      0x0100\n      exp\n      swap1\n      div\n      0xff\n      and\n        /* \"contracts/ergasia.sol\":6513:6588  voterRegistry[msg.sender].isEnrolled && !voterRegistry[msg.sender].hasVoted */\n      dup1\n      iszero\n      tag_109\n      jumpi\n      pop\n        /* \"contracts/ergasia.sol\":6554:6567  voterRegistry */\n      0x08\n        /* \"contracts/ergasia.sol\":6554:6579  voterRegistry[msg.sender] */\n      0x00\n        /* \"contracts/ergasia.sol\":6568:6578  msg.sender */\n      caller\n        /* \"contracts/ergasia.sol\":6554:6579  voterRegistry[msg.sender] */\n      0xffffffffffffffffffffffffffffffffffffffff\n      and\n      0xffffffffffffffffffffffffffffffffffffffff\n      and\n      dup2\n      mstore\n      0x20\n      add\n      swap1\n      dup2\n      mstore\n      0x20\n      add\n      0x00\n      keccak256\n        /* \"contracts/ergasia.sol\":6554:6588  voterRegistry[msg.sender].hasVoted */\n      0x00\n      add\n      0x01\n      swap1\n      sload\n      swap1\n      0x0100\n      exp\n      swap1\n      div\n      0xff\n      and\n        /* \"contracts/ergasia.sol\":6553:6588  !voterRegistry[msg.sender].hasVoted */\n      iszero\n        /* \"contracts/ergasia.sol\":6513:6588  voterRegistry[msg.sender].isEnrolled && !voterRegistry[msg.sender].hasVoted */\n    tag_109:\n        /* \"contracts/ergasia.sol\":6509:7143  if (voterRegistry[msg.sender].isEnrolled && !voterRegistry[msg.sender].hasVoted) {... */\n      iszero\n      tag_110\n      jumpi\n        /* \"contracts/ergasia.sol\":6640:6647  _choice */\n      dup5\n        /* \"contracts/ergasia.sol\":6605:6618  voterRegistry */\n      0x08\n        /* \"contracts/ergasia.sol\":6605:6630  voterRegistry[msg.sender] */\n      0x00\n        /* \"contracts/ergasia.sol\":6619:6629  msg.sender */\n      caller\n        /* \"contracts/ergasia.sol\":6605:6630  voterRegistry[msg.sender] */\n      0xffffffffffffffffffffffffffffffffffffffff\n      and\n      0xffffffffffffffffffffffffffffffffffffffff\n      and\n      dup2\n      mstore\n      0x20\n      add\n      swap1\n      dup2\n      mstore\n      0x20\n      add\n      0x00\n      keccak256\n        /* \"contracts/ergasia.sol\":6605:6637  voterRegistry[msg.sender].choice */\n      0x01\n      add\n        /* \"contracts/ergasia.sol\":6605:6647  voterRegistry[msg.sender].choice = _choice */\n      dup2\n      swap1\n      sstore\n      pop\n        /* \"contracts/ergasia.sol\":6711:6728  _pollingStationID */\n      dup4\n        /* \"contracts/ergasia.sol\":6661:6674  voterRegistry */\n      0x08\n        /* \"contracts/ergasia.sol\":6661:6686  voterRegistry[msg.sender] */\n      0x00\n        /* \"contracts/ergasia.sol\":6675:6685  msg.sender */\n      caller\n        /* \"contracts/ergasia.sol\":6661:6686  voterRegistry[msg.sender] */\n      0xffffffffffffffffffffffffffffffffffffffff\n      and\n      0xffffffffffffffffffffffffffffffffffffffff\n      and\n      dup2\n      mstore\n      0x20\n      add\n      swap1\n      dup2\n      mstore\n      0x20\n      add\n      0x00\n      keccak256\n        /* \"contracts/ergasia.sol\":6661:6708  voterRegistry[msg.sender].votedPollingStationID */\n      0x03\n      add\n        /* \"contracts/ergasia.sol\":6661:6728  voterRegistry[msg.sender].votedPollingStationID = _pollingStationID */\n      dup2\n      swap1\n      sstore\n      pop\n        /* \"contracts/ergasia.sol\":6779:6783  true */\n      0x01\n        /* \"contracts/ergasia.sol\":6742:6755  voterRegistry */\n      0x08\n        /* \"contracts/ergasia.sol\":6742:6767  voterRegistry[msg.sender] */\n      0x00\n        /* \"contracts/ergasia.sol\":6756:6766  msg.sender */\n      caller\n        /* \"contracts/ergasia.sol\":6742:6767  voterRegistry[msg.sender] */\n      0xffffffffffffffffffffffffffffffffffffffff\n      and\n      0xffffffffffffffffffffffffffffffffffffffff\n      and\n      dup2\n      mstore\n      0x20\n      add\n      swap1\n      dup2\n      mstore\n      0x20\n      add\n      0x00\n      keccak256\n        /* \"contracts/ergasia.sol\":6742:6776  voterRegistry[msg.sender].hasVoted */\n      0x00\n      add\n      0x01\n        /* \"contracts/ergasia.sol\":6742:6783  voterRegistry[msg.sender].hasVoted = true */\n      0x0100\n      exp\n      dup2\n      sload\n      dup2\n      0xff\n      mul\n      not\n      and\n      swap1\n      dup4\n      iszero\n      iszero\n      mul\n      or\n      swap1\n      sstore\n      pop\n        /* \"contracts/ergasia.sol\":6798:6813  pollingStations */\n      0x07\n        /* \"contracts/ergasia.sol\":6798:6832  pollingStations[_pollingStationID] */\n      0x00\n        /* \"contracts/ergasia.sol\":6814:6831  _pollingStationID */\n      dup6\n        /* \"contracts/ergasia.sol\":6798:6832  pollingStations[_pollingStationID] */\n      dup2\n      mstore\n      0x20\n      add\n      swap1\n      dup2\n      mstore\n      0x20\n      add\n      0x00\n      keccak256\n        /* \"contracts/ergasia.sol\":6798:6844  pollingStations[_pollingStationID].votesCasted */\n      0x03\n      add\n      0x00\n        /* \"contracts/ergasia.sol\":6798:6846  pollingStations[_pollingStationID].votesCasted++ */\n      dup2\n      sload\n      dup1\n      swap3\n      swap2\n      swap1\n      tag_111\n      swap1\n      tag_100\n      jump\t// in\n    tag_111:\n      swap2\n      swap1\n      pop\n      sstore\n      pop\n        /* \"contracts/ergasia.sol\":6861:6871  candidates */\n      0x06\n        /* \"contracts/ergasia.sol\":6861:6880  candidates[_choice] */\n      0x00\n        /* \"contracts/ergasia.sol\":6872:6879  _choice */\n      dup7\n        /* \"contracts/ergasia.sol\":6861:6880  candidates[_choice] */\n      dup2\n      mstore\n      0x20\n      add\n      swap1\n      dup2\n      mstore\n      0x20\n      add\n      0x00\n      keccak256\n        /* \"contracts/ergasia.sol\":6861:6886  candidates[_choice].votes */\n      0x02\n      add\n      0x00\n        /* \"contracts/ergasia.sol\":6861:6888  candidates[_choice].votes++ */\n      dup2\n      sload\n      dup1\n      swap3\n      swap2\n      swap1\n      tag_112\n      swap1\n      tag_100\n      jump\t// in\n    tag_112:\n      swap2\n      swap1\n      pop\n      sstore\n      pop\n        /* \"contracts/ergasia.sol\":6903:6914  countResult */\n      0x04\n      0x00\n        /* \"contracts/ergasia.sol\":6903:6916  countResult++ */\n      dup2\n      sload\n      dup1\n      swap3\n      swap2\n      swap1\n      tag_113\n      swap1\n      tag_100\n      jump\t// in\n    tag_113:\n      swap2\n      swap1\n      pop\n      sstore\n      pop\n        /* \"contracts/ergasia.sol\":6938:6942  true */\n      0x01\n        /* \"contracts/ergasia.sol\":6930:6942  found = true */\n      swap1\n      pop\n        /* \"contracts/ergasia.sol\":6977:6982  found */\n      dup1\n        /* \"contracts/ergasia.sol\":6956:6962  voters */\n      0x09\n        /* \"contracts/ergasia.sol\":6956:6974  voters[msg.sender] */\n      0x00\n        /* \"contracts/ergasia.sol\":6963:6973  msg.sender */\n      caller\n        /* \"contracts/ergasia.sol\":6956:6974  voters[msg.sender] */\n      0xffffffffffffffffffffffffffffffffffffffff\n      and\n      0xffffffffffffffffffffffffffffffffffffffff\n      and\n      dup2\n      mstore\n      0x20\n      add\n      swap1\n      dup2\n      mstore\n      0x20\n      add\n      0x00\n      keccak256\n      0x00\n        /* \"contracts/ergasia.sol\":6956:6982  voters[msg.sender] = found */\n      0x0100\n      exp\n      dup2\n      sload\n      dup2\n      0xff\n      mul\n      not\n      and\n      swap1\n      dup4\n      iszero\n      iszero\n      mul\n      or\n      swap1\n      sstore\n      pop\n        /* \"contracts/ergasia.sol\":6997:7012  pollingStations */\n      0x07\n        /* \"contracts/ergasia.sol\":6997:7031  pollingStations[_pollingStationID] */\n      0x00\n        /* \"contracts/ergasia.sol\":7013:7030  _pollingStationID */\n      dup6\n        /* \"contracts/ergasia.sol\":6997:7031  pollingStations[_pollingStationID] */\n      dup2\n      mstore\n      0x20\n      add\n      swap1\n      dup2\n      mstore\n      0x20\n      add\n      0x00\n      keccak256\n        /* \"contracts/ergasia.sol\":6997:7050  pollingStations[_pollingStationID].scoresPerCandidate */\n      0x04\n      add\n        /* \"contracts/ergasia.sol\":6997:7059  pollingStations[_pollingStationID].scoresPerCandidate[_choice] */\n      0x00\n        /* \"contracts/ergasia.sol\":7051:7058  _choice */\n      dup7\n        /* \"contracts/ergasia.sol\":6997:7059  pollingStations[_pollingStationID].scoresPerCandidate[_choice] */\n      dup2\n      mstore\n      0x20\n      add\n      swap1\n      dup2\n      mstore\n      0x20\n      add\n      0x00\n      keccak256\n        /* \"contracts/ergasia.sol\":6997:7065  pollingStations[_pollingStationID].scoresPerCandidate[_choice].votes */\n      0x02\n      add\n      0x00\n        /* \"contracts/ergasia.sol\":6997:7067  pollingStations[_pollingStationID].scoresPerCandidate[_choice].votes++ */\n      dup2\n      sload\n      dup1\n      swap3\n      swap2\n      swap1\n      tag_114\n      swap1\n      tag_100\n      jump\t// in\n    tag_114:\n      swap2\n      swap1\n      pop\n      sstore\n      pop\n        /* \"contracts/ergasia.sol\":7087:7132  VoteCasted(found, _choice, _pollingStationID) */\n      0x29a25b3d0b6ff7e5de2a60a2e8e76d1bdaf4894ec18c598cc1687213f442c5cb\n        /* \"contracts/ergasia.sol\":7098:7103  found */\n      dup2\n        /* \"contracts/ergasia.sol\":7105:7112  _choice */\n      dup7\n        /* \"contracts/ergasia.sol\":7114:7131  _pollingStationID */\n      dup7\n        /* \"contracts/ergasia.sol\":7087:7132  VoteCasted(found, _choice, _pollingStationID) */\n      mload(0x40)\n      tag_115\n      swap4\n      swap3\n      swap2\n      swap1\n      tag_116\n      jump\t// in\n    tag_115:\n      mload(0x40)\n      dup1\n      swap2\n      sub\n      swap1\n      log1\n        /* \"contracts/ergasia.sol\":6509:7143  if (voterRegistry[msg.sender].isEnrolled && !voterRegistry[msg.sender].hasVoted) {... */\n    tag_110:\n        /* \"contracts/ergasia.sol\":7159:7164  found */\n      dup1\n        /* \"contracts/ergasia.sol\":7152:7164  return found */\n      swap3\n      pop\n      pop\n        /* \"contracts/ergasia.sol\":6363:7171  function castVote(uint _choice, uint _pollingStationID) public inState(State.Voting) returns (bool voted) {... */\n      pop\n      swap3\n      swap2\n      pop\n      pop\n      jump\t// out\n        /* \"contracts/ergasia.sol\":1276:1303  uint public candidatesCount */\n    tag_38:\n      sload(0x01)\n      dup2\n      jump\t// out\n        /* \"contracts/ergasia.sol\":1621:1665  mapping(uint => Candidate) public candidates */\n    tag_42:\n      mstore(0x20, 0x06)\n      dup1\n      0x00\n      mstore\n      keccak256(0x00, 0x40)\n      0x00\n      swap2\n      pop\n      swap1\n      pop\n      dup1\n      0x00\n      add\n      sload\n      swap1\n      dup1\n      0x01\n      add\n      dup1\n      sload\n      tag_117\n      swap1\n      tag_91\n      jump\t// in\n    tag_117:\n      dup1\n      0x1f\n      add\n      0x20\n      dup1\n      swap2\n      div\n      mul\n      0x20\n      add\n      mload(0x40)\n      swap1\n      dup2\n      add\n      0x40\n      mstore\n      dup1\n      swap3\n      swap2\n      swap1\n      dup2\n      dup2\n      mstore\n      0x20\n      add\n      dup3\n      dup1\n      sload\n      tag_118\n      swap1\n      tag_91\n      jump\t// in\n    tag_118:\n      dup1\n      iszero\n      tag_119\n      jumpi\n      dup1\n      0x1f\n      lt\n      tag_120\n      jumpi\n      0x0100\n      dup1\n      dup4\n      sload\n      div\n      mul\n      dup4\n      mstore\n      swap2\n      0x20\n      add\n      swap2\n      jump(tag_119)\n    tag_120:\n      dup3\n      add\n      swap2\n      swap1\n      0x00\n      mstore\n      keccak256(0x00, 0x20)\n      swap1\n    tag_121:\n      dup2\n      sload\n      dup2\n      mstore\n      swap1\n      0x01\n      add\n      swap1\n      0x20\n      add\n      dup1\n      dup4\n      gt\n      tag_121\n      jumpi\n      dup3\n      swap1\n      sub\n      0x1f\n      and\n      dup3\n      add\n      swap2\n    tag_119:\n      pop\n      pop\n      pop\n      pop\n      pop\n      swap1\n      dup1\n      0x02\n      add\n      sload\n      swap1\n      pop\n      dup4\n      jump\t// out\n        /* \"contracts/ergasia.sol\":1779:1825  mapping(address => Voter) public voterRegistry */\n    tag_48:\n      mstore(0x20, 0x08)\n      dup1\n      0x00\n      mstore\n      keccak256(0x00, 0x40)\n      0x00\n      swap2\n      pop\n      swap1\n      pop\n      dup1\n      0x00\n      add\n      0x00\n      swap1\n      sload\n      swap1\n      0x0100\n      exp\n      swap1\n      div\n      0xff\n      and\n      swap1\n      dup1\n      0x00\n      add\n      0x01\n      swap1\n      sload\n      swap1\n      0x0100\n      exp\n      swap1\n      div\n      0xff\n      and\n      swap1\n      dup1\n      0x01\n      add\n      sload\n      swap1\n      dup1\n      0x02\n      add\n      sload\n      swap1\n      dup1\n      0x03\n      add\n      sload\n      swap1\n      pop\n      dup6\n      jump\t// out\n        /* \"contracts/ergasia.sol\":6263:6357  function startVote() public inState(State.Created) Owner {... */\n    tag_52:\n        /* \"contracts/ergasia.sol\":6299:6312  State.Created */\n      0x00\n        /* \"contracts/ergasia.sol\":2092:2098  _state */\n      dup1\n        /* \"contracts/ergasia.sol\":2083:2098  state == _state */\n      0x02\n      dup2\n      gt\n      iszero\n      tag_123\n      jumpi\n      tag_124\n      tag_104\n      jump\t// in\n    tag_124:\n    tag_123:\n        /* \"contracts/ergasia.sol\":2083:2088  state */\n      0x0a\n      0x00\n      swap1\n      sload\n      swap1\n      0x0100\n      exp\n      swap1\n      div\n      0xff\n      and\n        /* \"contracts/ergasia.sol\":2083:2098  state == _state */\n      0x02\n      dup2\n      gt\n      iszero\n      tag_125\n      jumpi\n      tag_126\n      tag_104\n      jump\t// in\n    tag_126:\n    tag_125:\n      eq\n        /* \"contracts/ergasia.sol\":2075:2099  require(state == _state) */\n      tag_127\n      jumpi\n      0x00\n      dup1\n      revert\n    tag_127:\n        /* \"contracts/ergasia.sol\":1996:2009  electionOwner */\n      0x00\n      dup1\n      sload\n      swap1\n      0x0100\n      exp\n      swap1\n      div\n      0xffffffffffffffffffffffffffffffffffffffff\n      and\n        /* \"contracts/ergasia.sol\":1982:2009  msg.sender == electionOwner */\n      0xffffffffffffffffffffffffffffffffffffffff\n      and\n        /* \"contracts/ergasia.sol\":1982:1992  msg.sender */\n      caller\n        /* \"contracts/ergasia.sol\":1982:2009  msg.sender == electionOwner */\n      0xffffffffffffffffffffffffffffffffffffffff\n      and\n      eq\n        /* \"contracts/ergasia.sol\":1974:2010  require(msg.sender == electionOwner) */\n      tag_129\n      jumpi\n      0x00\n      dup1\n      revert\n    tag_129:\n        /* \"contracts/ergasia.sol\":6338:6350  State.Voting */\n      0x01\n        /* \"contracts/ergasia.sol\":6330:6335  state */\n      0x0a\n      0x00\n        /* \"contracts/ergasia.sol\":6330:6350  state = State.Voting */\n      0x0100\n      exp\n      dup2\n      sload\n      dup2\n      0xff\n      mul\n      not\n      and\n      swap1\n      dup4\n      0x02\n      dup2\n      gt\n      iszero\n      tag_131\n      jumpi\n      tag_132\n      tag_104\n      jump\t// in\n    tag_132:\n    tag_131:\n      mul\n      or\n      swap1\n      sstore\n      pop\n        /* \"contracts/ergasia.sol\":6263:6357  function startVote() public inState(State.Created) Owner {... */\n      pop\n      jump\t// out\n        /* \"contracts/ergasia.sol\":1242:1270  address public electionOwner */\n    tag_54:\n      0x00\n      dup1\n      sload\n      swap1\n      0x0100\n      exp\n      swap1\n      div\n      0xffffffffffffffffffffffffffffffffffffffff\n      and\n      dup2\n      jump\t// out\n        /* \"contracts/ergasia.sol\":1831:1869  mapping(address => bool) public voters */\n    tag_59:\n      mstore(0x20, 0x09)\n      dup1\n      0x00\n      mstore\n      keccak256(0x00, 0x40)\n      0x00\n      swap2\n      pop\n      sload\n      swap1\n      0x0100\n      exp\n      swap1\n      div\n      0xff\n      and\n      dup2\n      jump\t// out\n        /* \"contracts/ergasia.sol\":7177:7303  function endVote() public inState(State.Voting) Owner { ... */\n    tag_62:\n        /* \"contracts/ergasia.sol\":7211:7223  State.Voting */\n      0x01\n        /* \"contracts/ergasia.sol\":2092:2098  _state */\n      dup1\n        /* \"contracts/ergasia.sol\":2083:2098  state == _state */\n      0x02\n      dup2\n      gt\n      iszero\n      tag_134\n      jumpi\n      tag_135\n      tag_104\n      jump\t// in\n    tag_135:\n    tag_134:\n        /* \"contracts/ergasia.sol\":2083:2088  state */\n      0x0a\n      0x00\n      swap1\n      sload\n      swap1\n      0x0100\n      exp\n      swap1\n      div\n      0xff\n      and\n        /* \"contracts/ergasia.sol\":2083:2098  state == _state */\n      0x02\n      dup2\n      gt\n      iszero\n      tag_136\n      jumpi\n      tag_137\n      tag_104\n      jump\t// in\n    tag_137:\n    tag_136:\n      eq\n        /* \"contracts/ergasia.sol\":2075:2099  require(state == _state) */\n      tag_138\n      jumpi\n      0x00\n      dup1\n      revert\n    tag_138:\n        /* \"contracts/ergasia.sol\":1996:2009  electionOwner */\n      0x00\n      dup1\n      sload\n      swap1\n      0x0100\n      exp\n      swap1\n      div\n      0xffffffffffffffffffffffffffffffffffffffff\n      and\n        /* \"contracts/ergasia.sol\":1982:2009  msg.sender == electionOwner */\n      0xffffffffffffffffffffffffffffffffffffffff\n      and\n        /* \"contracts/ergasia.sol\":1982:1992  msg.sender */\n      caller\n        /* \"contracts/ergasia.sol\":1982:2009  msg.sender == electionOwner */\n      0xffffffffffffffffffffffffffffffffffffffff\n      and\n      eq\n        /* \"contracts/ergasia.sol\":1974:2010  require(msg.sender == electionOwner) */\n      tag_140\n      jumpi\n      0x00\n      dup1\n      revert\n    tag_140:\n        /* \"contracts/ergasia.sol\":7250:7261  State.Ended */\n      0x02\n        /* \"contracts/ergasia.sol\":7242:7247  state */\n      0x0a\n      0x00\n        /* \"contracts/ergasia.sol\":7242:7261  state = State.Ended */\n      0x0100\n      exp\n      dup2\n      sload\n      dup2\n      0xff\n      mul\n      not\n      and\n      swap1\n      dup4\n      0x02\n      dup2\n      gt\n      iszero\n      tag_142\n      jumpi\n      tag_143\n      tag_104\n      jump\t// in\n    tag_143:\n    tag_142:\n      mul\n      or\n      swap1\n      sstore\n      pop\n        /* \"contracts/ergasia.sol\":7285:7296  countResult */\n      sload(0x04)\n        /* \"contracts/ergasia.sol\":7271:7282  finalResult */\n      0x05\n        /* \"contracts/ergasia.sol\":7271:7296  finalResult = countResult */\n      dup2\n      swap1\n      sstore\n      pop\n        /* \"contracts/ergasia.sol\":7177:7303  function endVote() public inState(State.Voting) Owner { ... */\n      pop\n      jump\t// out\n        /* \"contracts/ergasia.sol\":4809:5729  function addVoter(address _voterAddress, uint _pollingStationID) public inState(State.Created) Owner {... */\n    tag_66:\n        /* \"contracts/ergasia.sol\":4889:4902  State.Created */\n      0x00\n        /* \"contracts/ergasia.sol\":2092:2098  _state */\n      dup1\n        /* \"contracts/ergasia.sol\":2083:2098  state == _state */\n      0x02\n      dup2\n      gt\n      iszero\n      tag_145\n      jumpi\n      tag_146\n      tag_104\n      jump\t// in\n    tag_146:\n    tag_145:\n        /* \"contracts/ergasia.sol\":2083:2088  state */\n      0x0a\n      0x00\n      swap1\n      sload\n      swap1\n      0x0100\n      exp\n      swap1\n      div\n      0xff\n      and\n        /* \"contracts/ergasia.sol\":2083:2098  state == _state */\n      0x02\n      dup2\n      gt\n      iszero\n      tag_147\n      jumpi\n      tag_148\n      tag_104\n      jump\t// in\n    tag_148:\n    tag_147:\n      eq\n        /* \"contracts/ergasia.sol\":2075:2099  require(state == _state) */\n      tag_149\n      jumpi\n      0x00\n      dup1\n      revert\n    tag_149:\n        /* \"contracts/ergasia.sol\":1996:2009  electionOwner */\n      0x00\n      dup1\n      sload\n      swap1\n      0x0100\n      exp\n      swap1\n      div\n      0xffffffffffffffffffffffffffffffffffffffff\n      and\n        /* \"contracts/ergasia.sol\":1982:2009  msg.sender == electionOwner */\n      0xffffffffffffffffffffffffffffffffffffffff\n      and\n        /* \"contracts/ergasia.sol\":1982:1992  msg.sender */\n      caller\n        /* \"contracts/ergasia.sol\":1982:2009  msg.sender == electionOwner */\n      0xffffffffffffffffffffffffffffffffffffffff\n      and\n      eq\n        /* \"contracts/ergasia.sol\":1974:2010  require(msg.sender == electionOwner) */\n      tag_151\n      jumpi\n      0x00\n      dup1\n      revert\n    tag_151:\n        /* \"contracts/ergasia.sol\":5028:5033  false */\n      0x00\n        /* \"contracts/ergasia.sol\":4985:5033  voterRegistry[_voterAddress].isEnrolled == false */\n      iszero\n      iszero\n        /* \"contracts/ergasia.sol\":4985:4998  voterRegistry */\n      0x08\n        /* \"contracts/ergasia.sol\":4985:5013  voterRegistry[_voterAddress] */\n      0x00\n        /* \"contracts/ergasia.sol\":4999:5012  _voterAddress */\n      dup6\n        /* \"contracts/ergasia.sol\":4985:5013  voterRegistry[_voterAddress] */\n      0xffffffffffffffffffffffffffffffffffffffff\n      and\n      0xffffffffffffffffffffffffffffffffffffffff\n      and\n      dup2\n      mstore\n      0x20\n      add\n      swap1\n      dup2\n      mstore\n      0x20\n      add\n      0x00\n      keccak256\n        /* \"contracts/ergasia.sol\":4985:5024  voterRegistry[_voterAddress].isEnrolled */\n      0x00\n      add\n      0x00\n      swap1\n      sload\n      swap1\n      0x0100\n      exp\n      swap1\n      div\n      0xff\n      and\n        /* \"contracts/ergasia.sol\":4985:5033  voterRegistry[_voterAddress].isEnrolled == false */\n      iszero\n      iszero\n      eq\n        /* \"contracts/ergasia.sol\":4977:5066  require(voterRegistry[_voterAddress].isEnrolled == false, \"Voter is already registered.\") */\n      tag_153\n      jumpi\n      mload(0x40)\n      0x08c379a000000000000000000000000000000000000000000000000000000000\n      dup2\n      mstore\n      0x04\n      add\n      tag_154\n      swap1\n      tag_155\n      jump\t// in\n    tag_154:\n      mload(0x40)\n      dup1\n      swap2\n      sub\n      swap1\n      revert\n    tag_153:\n        /* \"contracts/ergasia.sol\":5305:5306  1 */\n      0x01\n        /* \"contracts/ergasia.sol\":5285:5302  _pollingStationID */\n      dup3\n        /* \"contracts/ergasia.sol\":5285:5306  _pollingStationID >=1 */\n      lt\n      iszero\n        /* \"contracts/ergasia.sol\":5285:5350  _pollingStationID >=1 && _pollingStationID <= pollingStationCount */\n      dup1\n      iszero\n      tag_156\n      jumpi\n      pop\n        /* \"contracts/ergasia.sol\":5331:5350  pollingStationCount */\n      sload(0x02)\n        /* \"contracts/ergasia.sol\":5310:5327  _pollingStationID */\n      dup3\n        /* \"contracts/ergasia.sol\":5310:5350  _pollingStationID <= pollingStationCount */\n      gt\n      iszero\n        /* \"contracts/ergasia.sol\":5285:5350  _pollingStationID >=1 && _pollingStationID <= pollingStationCount */\n    tag_156:\n        /* \"contracts/ergasia.sol\":5277:5397  require(_pollingStationID >=1 && _pollingStationID <= pollingStationCount, \"Please provide a valid polling station ID.\") */\n      tag_157\n      jumpi\n      mload(0x40)\n      0x08c379a000000000000000000000000000000000000000000000000000000000\n      dup2\n      mstore\n      0x04\n      add\n      tag_158\n      swap1\n      tag_159\n      jump\t// in\n    tag_158:\n      mload(0x40)\n      dup1\n      swap2\n      sub\n      swap1\n      revert\n    tag_157:\n        /* \"contracts/ergasia.sol\":5408:5422  Voter memory v */\n      tag_160\n      tag_161\n      jump\t// in\n    tag_160:\n        /* \"contracts/ergasia.sol\":5447:5451  true */\n      0x01\n        /* \"contracts/ergasia.sol\":5432:5433  v */\n      dup2\n        /* \"contracts/ergasia.sol\":5432:5444  v.isEnrolled */\n      0x00\n      add\n        /* \"contracts/ergasia.sol\":5432:5451  v.isEnrolled = true */\n      swap1\n      iszero\n      iszero\n      swap1\n      dup2\n      iszero\n      iszero\n      dup2\n      mstore\n      pop\n      pop\n        /* \"contracts/ergasia.sol\":5474:5479  false */\n      0x00\n        /* \"contracts/ergasia.sol\":5461:5462  v */\n      dup2\n        /* \"contracts/ergasia.sol\":5461:5471  v.hasVoted */\n      0x20\n      add\n        /* \"contracts/ergasia.sol\":5461:5479  v.hasVoted = false */\n      swap1\n      iszero\n      iszero\n      swap1\n      dup2\n      iszero\n      iszero\n      dup2\n      mstore\n      pop\n      pop\n        /* \"contracts/ergasia.sol\":5500:5501  0 */\n      0x00\n        /* \"contracts/ergasia.sol\":5489:5490  v */\n      dup2\n        /* \"contracts/ergasia.sol\":5489:5497  v.choice */\n      0x40\n      add\n        /* \"contracts/ergasia.sol\":5489:5501  v.choice = 0 */\n      dup2\n      dup2\n      mstore\n      pop\n      pop\n        /* \"contracts/ergasia.sol\":5540:5557  _pollingStationID */\n      dup3\n        /* \"contracts/ergasia.sol\":5511:5512  v */\n      dup2\n        /* \"contracts/ergasia.sol\":5511:5537  v.enrolledPollingStationID */\n      0x60\n      add\n        /* \"contracts/ergasia.sol\":5511:5557  v.enrolledPollingStationID = _pollingStationID */\n      dup2\n      dup2\n      mstore\n      pop\n      pop\n        /* \"contracts/ergasia.sol\":5593:5594  0 */\n      0x00\n        /* \"contracts/ergasia.sol\":5567:5568  v */\n      dup2\n        /* \"contracts/ergasia.sol\":5567:5590  v.votedPollingStationID */\n      0x80\n      add\n        /* \"contracts/ergasia.sol\":5567:5594  v.votedPollingStationID = 0 */\n      dup2\n      dup2\n      mstore\n      pop\n      pop\n        /* \"contracts/ergasia.sol\":5635:5636  v */\n      dup1\n        /* \"contracts/ergasia.sol\":5604:5617  voterRegistry */\n      0x08\n        /* \"contracts/ergasia.sol\":5604:5632  voterRegistry[_voterAddress] */\n      0x00\n        /* \"contracts/ergasia.sol\":5618:5631  _voterAddress */\n      dup7\n        /* \"contracts/ergasia.sol\":5604:5632  voterRegistry[_voterAddress] */\n      0xffffffffffffffffffffffffffffffffffffffff\n      and\n      0xffffffffffffffffffffffffffffffffffffffff\n      and\n      dup2\n      mstore\n      0x20\n      add\n      swap1\n      dup2\n      mstore\n      0x20\n      add\n      0x00\n      keccak256\n        /* \"contracts/ergasia.sol\":5604:5636  voterRegistry[_voterAddress] = v */\n      0x00\n      dup3\n      add\n      mload\n      dup2\n      0x00\n      add\n      exp(0x0100, 0x00)\n      dup2\n      sload\n      dup2\n      0xff\n      mul\n      not\n      and\n      swap1\n      dup4\n      iszero\n      iszero\n      mul\n      or\n      swap1\n      sstore\n      pop\n      0x20\n      dup3\n      add\n      mload\n      dup2\n      0x00\n      add\n      exp(0x0100, 0x01)\n      dup2\n      sload\n      dup2\n      0xff\n      mul\n      not\n      and\n      swap1\n      dup4\n      iszero\n      iszero\n      mul\n      or\n      swap1\n      sstore\n      pop\n      0x40\n      dup3\n      add\n      mload\n      dup2\n      0x01\n      add\n      sstore\n      0x60\n      dup3\n      add\n      mload\n      dup2\n      0x02\n      add\n      sstore\n      0x80\n      dup3\n      add\n      mload\n      dup2\n      0x03\n      add\n      sstore\n      swap1\n      pop\n      pop\n        /* \"contracts/ergasia.sol\":5646:5689  registerAtPollingStation(_pollingStationID) */\n      tag_162\n        /* \"contracts/ergasia.sol\":5671:5688  _pollingStationID */\n      dup4\n        /* \"contracts/ergasia.sol\":5646:5670  registerAtPollingStation */\n      tag_163\n        /* \"contracts/ergasia.sol\":5646:5689  registerAtPollingStation(_pollingStationID) */\n      jump\t// in\n    tag_162:\n        /* \"contracts/ergasia.sol\":5699:5720  totalRegisteredVoters */\n      0x03\n      0x00\n        /* \"contracts/ergasia.sol\":5699:5722  totalRegisteredVoters++ */\n      dup2\n      sload\n      dup1\n      swap3\n      swap2\n      swap1\n      tag_164\n      swap1\n      tag_100\n      jump\t// in\n    tag_164:\n      swap2\n      swap1\n      pop\n      sstore\n      pop\n        /* \"contracts/ergasia.sol\":4910:5729  {... */\n      pop\n        /* \"contracts/ergasia.sol\":4809:5729  function addVoter(address _voterAddress, uint _pollingStationID) public inState(State.Created) Owner {... */\n      pop\n      pop\n      pop\n      jump\t// out\n        /* \"contracts/ergasia.sol\":1922:1940  State public state */\n    tag_68:\n      0x0a\n      0x00\n      swap1\n      sload\n      swap1\n      0x0100\n      exp\n      swap1\n      div\n      0xff\n      and\n      dup2\n      jump\t// out\n        /* \"contracts/ergasia.sol\":1344:1375  uint public pollingStationCount */\n    tag_72:\n      sload(0x02)\n      dup2\n      jump\t// out\n        /* \"contracts/ergasia.sol\":1539:1562  uint public finalResult */\n    tag_75:\n      sload(0x05)\n      dup2\n      jump\t// out\n        /* \"contracts/ergasia.sol\":1695:1749  mapping(uint => PollingStation) public pollingStations */\n    tag_79:\n      mstore(0x20, 0x07)\n      dup1\n      0x00\n      mstore\n      keccak256(0x00, 0x40)\n      0x00\n      swap2\n      pop\n      swap1\n      pop\n      dup1\n      0x00\n      add\n      sload\n      swap1\n      dup1\n      0x01\n      add\n      dup1\n      sload\n      tag_165\n      swap1\n      tag_91\n      jump\t// in\n    tag_165:\n      dup1\n      0x1f\n      add\n      0x20\n      dup1\n      swap2\n      div\n      mul\n      0x20\n      add\n      mload(0x40)\n      swap1\n      dup2\n      add\n      0x40\n      mstore\n      dup1\n      swap3\n      swap2\n      swap1\n      dup2\n      dup2\n      mstore\n      0x20\n      add\n      dup3\n      dup1\n      sload\n      tag_166\n      swap1\n      tag_91\n      jump\t// in\n    tag_166:\n      dup1\n      iszero\n      tag_167\n      jumpi\n      dup1\n      0x1f\n      lt\n      tag_168\n      jumpi\n      0x0100\n      dup1\n      dup4\n      sload\n      div\n      mul\n      dup4\n      mstore\n      swap2\n      0x20\n      add\n      swap2\n      jump(tag_167)\n    tag_168:\n      dup3\n      add\n      swap2\n      swap1\n      0x00\n      mstore\n      keccak256(0x00, 0x20)\n      swap1\n    tag_169:\n      dup2\n      sload\n      dup2\n      mstore\n      swap1\n      0x01\n      add\n      swap1\n      0x20\n      add\n      dup1\n      dup4\n      gt\n      tag_169\n      jumpi\n      dup3\n      swap1\n      sub\n      0x1f\n      and\n      dup3\n      add\n      swap2\n    tag_167:\n      pop\n      pop\n      pop\n      pop\n      pop\n      swap1\n      dup1\n      0x02\n      add\n      sload\n      swap1\n      dup1\n      0x03\n      add\n      sload\n      swap1\n      pop\n      dup5\n      jump\t// out\n        /* \"contracts/ergasia.sol\":5867:6149  function registerAtPollingStation(uint _stationID) internal {... */\n    tag_163:\n        /* \"contracts/ergasia.sol\":5942:5948  uint i */\n      0x00\n        /* \"contracts/ergasia.sol\":5951:5952  1 */\n      0x01\n        /* \"contracts/ergasia.sol\":5942:5952  uint i = 1 */\n      swap1\n      pop\n        /* \"contracts/ergasia.sol\":5937:6143  for (uint i = 1; i <= pollingStationCount; i++) {... */\n    tag_171:\n        /* \"contracts/ergasia.sol\":5959:5978  pollingStationCount */\n      sload(0x02)\n        /* \"contracts/ergasia.sol\":5954:5955  i */\n      dup2\n        /* \"contracts/ergasia.sol\":5954:5978  i <= pollingStationCount */\n      gt\n        /* \"contracts/ergasia.sol\":5937:6143  for (uint i = 1; i <= pollingStationCount; i++) {... */\n      tag_172\n      jumpi\n        /* \"contracts/ergasia.sol\":6028:6038  _stationID */\n      dup2\n        /* \"contracts/ergasia.sol\":6003:6018  pollingStations */\n      0x07\n        /* \"contracts/ergasia.sol\":6003:6021  pollingStations[i] */\n      0x00\n        /* \"contracts/ergasia.sol\":6019:6020  i */\n      dup4\n        /* \"contracts/ergasia.sol\":6003:6021  pollingStations[i] */\n      dup2\n      mstore\n      0x20\n      add\n      swap1\n      dup2\n      mstore\n      0x20\n      add\n      0x00\n      keccak256\n        /* \"contracts/ergasia.sol\":6003:6024  pollingStations[i].id */\n      0x00\n      add\n      sload\n        /* \"contracts/ergasia.sol\":6003:6038  pollingStations[i].id == _stationID */\n      eq\n        /* \"contracts/ergasia.sol\":5999:6133  if (pollingStations[i].id == _stationID) {... */\n      iszero\n      tag_174\n      jumpi\n        /* \"contracts/ergasia.sol\":6058:6073  pollingStations */\n      0x07\n        /* \"contracts/ergasia.sol\":6058:6076  pollingStations[i] */\n      0x00\n        /* \"contracts/ergasia.sol\":6074:6075  i */\n      dup3\n        /* \"contracts/ergasia.sol\":6058:6076  pollingStations[i] */\n      dup2\n      mstore\n      0x20\n      add\n      swap1\n      dup2\n      mstore\n      0x20\n      add\n      0x00\n      keccak256\n        /* \"contracts/ergasia.sol\":6058:6093  pollingStations[i].votersRegistered */\n      0x02\n      add\n      0x00\n        /* \"contracts/ergasia.sol\":6058:6095  pollingStations[i].votersRegistered++ */\n      dup2\n      sload\n      dup1\n      swap3\n      swap2\n      swap1\n      tag_175\n      swap1\n      tag_100\n      jump\t// in\n    tag_175:\n      swap2\n      swap1\n      pop\n      sstore\n      pop\n        /* \"contracts/ergasia.sol\":6113:6118  break */\n      jump(tag_172)\n        /* \"contracts/ergasia.sol\":5999:6133  if (pollingStations[i].id == _stationID) {... */\n    tag_174:\n        /* \"contracts/ergasia.sol\":5980:5983  i++ */\n      dup1\n      dup1\n      tag_176\n      swap1\n      tag_100\n      jump\t// in\n    tag_176:\n      swap2\n      pop\n      pop\n        /* \"contracts/ergasia.sol\":5937:6143  for (uint i = 1; i <= pollingStationCount; i++) {... */\n      jump(tag_171)\n    tag_172:\n      pop\n        /* \"contracts/ergasia.sol\":5867:6149  function registerAtPollingStation(uint _stationID) internal {... */\n      pop\n      jump\t// out\n    tag_161:\n      mload(0x40)\n      dup1\n      0xa0\n      add\n      0x40\n      mstore\n      dup1\n      iszero(iszero(0x00))\n      dup2\n      mstore\n      0x20\n      add\n      iszero(iszero(0x00))\n      dup2\n      mstore\n      0x20\n      add\n      0x00\n      dup2\n      mstore\n      0x20\n      add\n      0x00\n      dup2\n      mstore\n      0x20\n      add\n      0x00\n      dup2\n      mstore\n      pop\n      swap1\n      jump\t// out\n        /* \"#utility.yul\":7:146   */\n    tag_178:\n        /* \"#utility.yul\":53:58   */\n      0x00\n        /* \"#utility.yul\":91:97   */\n      dup2\n        /* \"#utility.yul\":78:98   */\n      calldataload\n        /* \"#utility.yul\":69:98   */\n      swap1\n      pop\n        /* \"#utility.yul\":107:140   */\n      tag_180\n        /* \"#utility.yul\":134:139   */\n      dup2\n        /* \"#utility.yul\":107:140   */\n      tag_181\n      jump\t// in\n    tag_180:\n        /* \"#utility.yul\":7:146   */\n      swap3\n      swap2\n      pop\n      pop\n      jump\t// out\n        /* \"#utility.yul\":152:291   */\n    tag_182:\n        /* \"#utility.yul\":198:203   */\n      0x00\n        /* \"#utility.yul\":236:242   */\n      dup2\n        /* \"#utility.yul\":223:243   */\n      calldataload\n        /* \"#utility.yul\":214:243   */\n      swap1\n      pop\n        /* \"#utility.yul\":252:285   */\n      tag_184\n        /* \"#utility.yul\":279:284   */\n      dup2\n        /* \"#utility.yul\":252:285   */\n      tag_185\n      jump\t// in\n    tag_184:\n        /* \"#utility.yul\":152:291   */\n      swap3\n      swap2\n      pop\n      pop\n      jump\t// out\n        /* \"#utility.yul\":297:626   */\n    tag_47:\n        /* \"#utility.yul\":356:362   */\n      0x00\n        /* \"#utility.yul\":405:407   */\n      0x20\n        /* \"#utility.yul\":393:402   */\n      dup3\n        /* \"#utility.yul\":384:391   */\n      dup5\n        /* \"#utility.yul\":380:403   */\n      sub\n        /* \"#utility.yul\":376:408   */\n      slt\n        /* \"#utility.yul\":373:492   */\n      iszero\n      tag_187\n      jumpi\n        /* \"#utility.yul\":411:490   */\n      tag_188\n      tag_189\n      jump\t// in\n    tag_188:\n        /* \"#utility.yul\":373:492   */\n    tag_187:\n        /* \"#utility.yul\":531:532   */\n      0x00\n        /* \"#utility.yul\":556:609   */\n      tag_190\n        /* \"#utility.yul\":601:608   */\n      dup5\n        /* \"#utility.yul\":592:598   */\n      dup3\n        /* \"#utility.yul\":581:590   */\n      dup6\n        /* \"#utility.yul\":577:599   */\n      add\n        /* \"#utility.yul\":556:609   */\n      tag_178\n      jump\t// in\n    tag_190:\n        /* \"#utility.yul\":546:609   */\n      swap2\n      pop\n        /* \"#utility.yul\":502:619   */\n      pop\n        /* \"#utility.yul\":297:626   */\n      swap3\n      swap2\n      pop\n      pop\n      jump\t// out\n        /* \"#utility.yul\":632:1106   */\n    tag_65:\n        /* \"#utility.yul\":700:706   */\n      0x00\n        /* \"#utility.yul\":708:714   */\n      dup1\n        /* \"#utility.yul\":757:759   */\n      0x40\n        /* \"#utility.yul\":745:754   */\n      dup4\n        /* \"#utility.yul\":736:743   */\n      dup6\n        /* \"#utility.yul\":732:755   */\n      sub\n        /* \"#utility.yul\":728:760   */\n      slt\n        /* \"#utility.yul\":725:844   */\n      iszero\n      tag_192\n      jumpi\n        /* \"#utility.yul\":763:842   */\n      tag_193\n      tag_189\n      jump\t// in\n    tag_193:\n        /* \"#utility.yul\":725:844   */\n    tag_192:\n        /* \"#utility.yul\":883:884   */\n      0x00\n        /* \"#utility.yul\":908:961   */\n      tag_194\n        /* \"#utility.yul\":953:960   */\n      dup6\n        /* \"#utility.yul\":944:950   */\n      dup3\n        /* \"#utility.yul\":933:942   */\n      dup7\n        /* \"#utility.yul\":929:951   */\n      add\n        /* \"#utility.yul\":908:961   */\n      tag_178\n      jump\t// in\n    tag_194:\n        /* \"#utility.yul\":898:961   */\n      swap3\n      pop\n        /* \"#utility.yul\":854:971   */\n      pop\n        /* \"#utility.yul\":1010:1012   */\n      0x20\n        /* \"#utility.yul\":1036:1089   */\n      tag_195\n        /* \"#utility.yul\":1081:1088   */\n      dup6\n        /* \"#utility.yul\":1072:1078   */\n      dup3\n        /* \"#utility.yul\":1061:1070   */\n      dup7\n        /* \"#utility.yul\":1057:1079   */\n      add\n        /* \"#utility.yul\":1036:1089   */\n      tag_182\n      jump\t// in\n    tag_195:\n        /* \"#utility.yul\":1026:1089   */\n      swap2\n      pop\n        /* \"#utility.yul\":981:1099   */\n      pop\n        /* \"#utility.yul\":632:1106   */\n      swap3\n      pop\n      swap3\n      swap1\n      pop\n      jump\t// out\n        /* \"#utility.yul\":1112:1441   */\n    tag_27:\n        /* \"#utility.yul\":1171:1177   */\n      0x00\n        /* \"#utility.yul\":1220:1222   */\n      0x20\n        /* \"#utility.yul\":1208:1217   */\n      dup3\n        /* \"#utility.yul\":1199:1206   */\n      dup5\n        /* \"#utility.yul\":1195:1218   */\n      sub\n        /* \"#utility.yul\":1191:1223   */\n      slt\n        /* \"#utility.yul\":1188:1307   */\n      iszero\n      tag_197\n      jumpi\n        /* \"#utility.yul\":1226:1305   */\n      tag_198\n      tag_189\n      jump\t// in\n    tag_198:\n        /* \"#utility.yul\":1188:1307   */\n    tag_197:\n        /* \"#utility.yul\":1346:1347   */\n      0x00\n        /* \"#utility.yul\":1371:1424   */\n      tag_199\n        /* \"#utility.yul\":1416:1423   */\n      dup5\n        /* \"#utility.yul\":1407:1413   */\n      dup3\n        /* \"#utility.yul\":1396:1405   */\n      dup6\n        /* \"#utility.yul\":1392:1414   */\n      add\n        /* \"#utility.yul\":1371:1424   */\n      tag_182\n      jump\t// in\n    tag_199:\n        /* \"#utility.yul\":1361:1424   */\n      swap2\n      pop\n        /* \"#utility.yul\":1317:1434   */\n      pop\n        /* \"#utility.yul\":1112:1441   */\n      swap3\n      swap2\n      pop\n      pop\n      jump\t// out\n        /* \"#utility.yul\":1447:1921   */\n    tag_33:\n        /* \"#utility.yul\":1515:1521   */\n      0x00\n        /* \"#utility.yul\":1523:1529   */\n      dup1\n        /* \"#utility.yul\":1572:1574   */\n      0x40\n        /* \"#utility.yul\":1560:1569   */\n      dup4\n        /* \"#utility.yul\":1551:1558   */\n      dup6\n        /* \"#utility.yul\":1547:1570   */\n      sub\n        /* \"#utility.yul\":1543:1575   */\n      slt\n        /* \"#utility.yul\":1540:1659   */\n      iszero\n      tag_201\n      jumpi\n        /* \"#utility.yul\":1578:1657   */\n      tag_202\n      tag_189\n      jump\t// in\n    tag_202:\n        /* \"#utility.yul\":1540:1659   */\n    tag_201:\n        /* \"#utility.yul\":1698:1699   */\n      0x00\n        /* \"#utility.yul\":1723:1776   */\n      tag_203\n        /* \"#utility.yul\":1768:1775   */\n      dup6\n        /* \"#utility.yul\":1759:1765   */\n      dup3\n        /* \"#utility.yul\":1748:1757   */\n      dup7\n        /* \"#utility.yul\":1744:1766   */\n      add\n        /* \"#utility.yul\":1723:1776   */\n      tag_182\n      jump\t// in\n    tag_203:\n        /* \"#utility.yul\":1713:1776   */\n      swap3\n      pop\n        /* \"#utility.yul\":1669:1786   */\n      pop\n        /* \"#utility.yul\":1825:1827   */\n      0x20\n        /* \"#utility.yul\":1851:1904   */\n      tag_204\n        /* \"#utility.yul\":1896:1903   */\n      dup6\n        /* \"#utility.yul\":1887:1893   */\n      dup3\n        /* \"#utility.yul\":1876:1885   */\n      dup7\n        /* \"#utility.yul\":1872:1894   */\n      add\n        /* \"#utility.yul\":1851:1904   */\n      tag_182\n      jump\t// in\n    tag_204:\n        /* \"#utility.yul\":1841:1904   */\n      swap2\n      pop\n        /* \"#utility.yul\":1796:1914   */\n      pop\n        /* \"#utility.yul\":1447:1921   */\n      swap3\n      pop\n      swap3\n      swap1\n      pop\n      jump\t// out\n        /* \"#utility.yul\":1927:2106   */\n    tag_205:\n        /* \"#utility.yul\":1996:2006   */\n      0x00\n        /* \"#utility.yul\":2017:2063   */\n      tag_207\n        /* \"#utility.yul\":2059:2062   */\n      dup4\n        /* \"#utility.yul\":2051:2057   */\n      dup4\n        /* \"#utility.yul\":2017:2063   */\n      tag_208\n      jump\t// in\n    tag_207:\n        /* \"#utility.yul\":2095:2099   */\n      0x20\n        /* \"#utility.yul\":2090:2093   */\n      dup4\n        /* \"#utility.yul\":2086:2100   */\n      add\n        /* \"#utility.yul\":2072:2100   */\n      swap1\n      pop\n        /* \"#utility.yul\":1927:2106   */\n      swap3\n      swap2\n      pop\n      pop\n      jump\t// out\n        /* \"#utility.yul\":2112:2230   */\n    tag_209:\n        /* \"#utility.yul\":2199:2223   */\n      tag_211\n        /* \"#utility.yul\":2217:2222   */\n      dup2\n        /* \"#utility.yul\":2199:2223   */\n      tag_212\n      jump\t// in\n    tag_211:\n        /* \"#utility.yul\":2194:2197   */\n      dup3\n        /* \"#utility.yul\":2187:2224   */\n      mstore\n        /* \"#utility.yul\":2112:2230   */\n      pop\n      pop\n      jump\t// out\n        /* \"#utility.yul\":2266:2998   */\n    tag_213:\n        /* \"#utility.yul\":2385:2388   */\n      0x00\n        /* \"#utility.yul\":2414:2468   */\n      tag_215\n        /* \"#utility.yul\":2462:2467   */\n      dup3\n        /* \"#utility.yul\":2414:2468   */\n      tag_216\n      jump\t// in\n    tag_215:\n        /* \"#utility.yul\":2484:2570   */\n      tag_217\n        /* \"#utility.yul\":2563:2569   */\n      dup2\n        /* \"#utility.yul\":2558:2561   */\n      dup6\n        /* \"#utility.yul\":2484:2570   */\n      tag_218\n      jump\t// in\n    tag_217:\n        /* \"#utility.yul\":2477:2570   */\n      swap4\n      pop\n        /* \"#utility.yul\":2594:2650   */\n      tag_219\n        /* \"#utility.yul\":2644:2649   */\n      dup4\n        /* \"#utility.yul\":2594:2650   */\n      tag_220\n      jump\t// in\n    tag_219:\n        /* \"#utility.yul\":2673:2680   */\n      dup1\n        /* \"#utility.yul\":2704:2705   */\n      0x00\n        /* \"#utility.yul\":2689:2973   */\n    tag_221:\n        /* \"#utility.yul\":2714:2720   */\n      dup4\n        /* \"#utility.yul\":2711:2712   */\n      dup2\n        /* \"#utility.yul\":2708:2721   */\n      lt\n        /* \"#utility.yul\":2689:2973   */\n      iszero\n      tag_223\n      jumpi\n        /* \"#utility.yul\":2790:2796   */\n      dup2\n        /* \"#utility.yul\":2784:2797   */\n      mload\n        /* \"#utility.yul\":2817:2880   */\n      tag_224\n        /* \"#utility.yul\":2876:2879   */\n      dup9\n        /* \"#utility.yul\":2861:2874   */\n      dup3\n        /* \"#utility.yul\":2817:2880   */\n      tag_205\n      jump\t// in\n    tag_224:\n        /* \"#utility.yul\":2810:2880   */\n      swap8\n      pop\n        /* \"#utility.yul\":2903:2963   */\n      tag_225\n        /* \"#utility.yul\":2956:2962   */\n      dup4\n        /* \"#utility.yul\":2903:2963   */\n      tag_226\n      jump\t// in\n    tag_225:\n        /* \"#utility.yul\":2893:2963   */\n      swap3\n      pop\n        /* \"#utility.yul\":2749:2973   */\n      pop\n        /* \"#utility.yul\":2736:2737   */\n      0x01\n        /* \"#utility.yul\":2733:2734   */\n      dup2\n        /* \"#utility.yul\":2729:2738   */\n      add\n        /* \"#utility.yul\":2724:2738   */\n      swap1\n      pop\n        /* \"#utility.yul\":2689:2973   */\n      jump(tag_221)\n    tag_223:\n        /* \"#utility.yul\":2693:2707   */\n      pop\n        /* \"#utility.yul\":2989:2992   */\n      dup6\n        /* \"#utility.yul\":2982:2992   */\n      swap4\n      pop\n        /* \"#utility.yul\":2390:2998   */\n      pop\n      pop\n      pop\n        /* \"#utility.yul\":2266:2998   */\n      swap3\n      swap2\n      pop\n      pop\n      jump\t// out\n        /* \"#utility.yul\":3004:3113   */\n    tag_227:\n        /* \"#utility.yul\":3085:3106   */\n      tag_229\n        /* \"#utility.yul\":3100:3105   */\n      dup2\n        /* \"#utility.yul\":3085:3106   */\n      tag_230\n      jump\t// in\n    tag_229:\n        /* \"#utility.yul\":3080:3083   */\n      dup3\n        /* \"#utility.yul\":3073:3107   */\n      mstore\n        /* \"#utility.yul\":3004:3113   */\n      pop\n      pop\n      jump\t// out\n        /* \"#utility.yul\":3119:3262   */\n    tag_231:\n        /* \"#utility.yul\":3212:3255   */\n      tag_233\n        /* \"#utility.yul\":3249:3254   */\n      dup2\n        /* \"#utility.yul\":3212:3255   */\n      tag_234\n      jump\t// in\n    tag_233:\n        /* \"#utility.yul\":3207:3210   */\n      dup3\n        /* \"#utility.yul\":3200:3256   */\n      mstore\n        /* \"#utility.yul\":3119:3262   */\n      pop\n      pop\n      jump\t// out\n        /* \"#utility.yul\":3268:3632   */\n    tag_235:\n        /* \"#utility.yul\":3356:3359   */\n      0x00\n        /* \"#utility.yul\":3384:3423   */\n      tag_237\n        /* \"#utility.yul\":3417:3422   */\n      dup3\n        /* \"#utility.yul\":3384:3423   */\n      tag_238\n      jump\t// in\n    tag_237:\n        /* \"#utility.yul\":3439:3510   */\n      tag_239\n        /* \"#utility.yul\":3503:3509   */\n      dup2\n        /* \"#utility.yul\":3498:3501   */\n      dup6\n        /* \"#utility.yul\":3439:3510   */\n      tag_240\n      jump\t// in\n    tag_239:\n        /* \"#utility.yul\":3432:3510   */\n      swap4\n      pop\n        /* \"#utility.yul\":3519:3571   */\n      tag_241\n        /* \"#utility.yul\":3564:3570   */\n      dup2\n        /* \"#utility.yul\":3559:3562   */\n      dup6\n        /* \"#utility.yul\":3552:3556   */\n      0x20\n        /* \"#utility.yul\":3545:3550   */\n      dup7\n        /* \"#utility.yul\":3541:3557   */\n      add\n        /* \"#utility.yul\":3519:3571   */\n      tag_242\n      jump\t// in\n    tag_241:\n        /* \"#utility.yul\":3596:3625   */\n      tag_243\n        /* \"#utility.yul\":3618:3624   */\n      dup2\n        /* \"#utility.yul\":3596:3625   */\n      tag_244\n      jump\t// in\n    tag_243:\n        /* \"#utility.yul\":3591:3594   */\n      dup5\n        /* \"#utility.yul\":3587:3626   */\n      add\n        /* \"#utility.yul\":3580:3626   */\n      swap2\n      pop\n        /* \"#utility.yul\":3360:3632   */\n      pop\n        /* \"#utility.yul\":3268:3632   */\n      swap3\n      swap2\n      pop\n      pop\n      jump\t// out\n        /* \"#utility.yul\":3638:4004   */\n    tag_245:\n        /* \"#utility.yul\":3780:3783   */\n      0x00\n        /* \"#utility.yul\":3801:3868   */\n      tag_247\n        /* \"#utility.yul\":3865:3867   */\n      0x2a\n        /* \"#utility.yul\":3860:3863   */\n      dup4\n        /* \"#utility.yul\":3801:3868   */\n      tag_240\n      jump\t// in\n    tag_247:\n        /* \"#utility.yul\":3794:3868   */\n      swap2\n      pop\n        /* \"#utility.yul\":3877:3970   */\n      tag_248\n        /* \"#utility.yul\":3966:3969   */\n      dup3\n        /* \"#utility.yul\":3877:3970   */\n      tag_249\n      jump\t// in\n    tag_248:\n        /* \"#utility.yul\":3995:3997   */\n      0x40\n        /* \"#utility.yul\":3990:3993   */\n      dup3\n        /* \"#utility.yul\":3986:3998   */\n      add\n        /* \"#utility.yul\":3979:3998   */\n      swap1\n      pop\n        /* \"#utility.yul\":3638:4004   */\n      swap2\n      swap1\n      pop\n      jump\t// out\n        /* \"#utility.yul\":4010:4376   */\n    tag_250:\n        /* \"#utility.yul\":4152:4155   */\n      0x00\n        /* \"#utility.yul\":4173:4240   */\n      tag_252\n        /* \"#utility.yul\":4237:4239   */\n      0x1c\n        /* \"#utility.yul\":4232:4235   */\n      dup4\n        /* \"#utility.yul\":4173:4240   */\n      tag_240\n      jump\t// in\n    tag_252:\n        /* \"#utility.yul\":4166:4240   */\n      swap2\n      pop\n        /* \"#utility.yul\":4249:4342   */\n      tag_253\n        /* \"#utility.yul\":4338:4341   */\n      dup3\n        /* \"#utility.yul\":4249:4342   */\n      tag_254\n      jump\t// in\n    tag_253:\n        /* \"#utility.yul\":4367:4369   */\n      0x20\n        /* \"#utility.yul\":4362:4365   */\n      dup3\n        /* \"#utility.yul\":4358:4370   */\n      add\n        /* \"#utility.yul\":4351:4370   */\n      swap1\n      pop\n        /* \"#utility.yul\":4010:4376   */\n      swap2\n      swap1\n      pop\n      jump\t// out\n        /* \"#utility.yul\":4382:4490   */\n    tag_208:\n        /* \"#utility.yul\":4459:4483   */\n      tag_256\n        /* \"#utility.yul\":4477:4482   */\n      dup2\n        /* \"#utility.yul\":4459:4483   */\n      tag_257\n      jump\t// in\n    tag_256:\n        /* \"#utility.yul\":4454:4457   */\n      dup3\n        /* \"#utility.yul\":4447:4484   */\n      mstore\n        /* \"#utility.yul\":4382:4490   */\n      pop\n      pop\n      jump\t// out\n        /* \"#utility.yul\":4496:4614   */\n    tag_258:\n        /* \"#utility.yul\":4583:4607   */\n      tag_260\n        /* \"#utility.yul\":4601:4606   */\n      dup2\n        /* \"#utility.yul\":4583:4607   */\n      tag_257\n      jump\t// in\n    tag_260:\n        /* \"#utility.yul\":4578:4581   */\n      dup3\n        /* \"#utility.yul\":4571:4608   */\n      mstore\n        /* \"#utility.yul\":4496:4614   */\n      pop\n      pop\n      jump\t// out\n        /* \"#utility.yul\":4620:4842   */\n    tag_56:\n        /* \"#utility.yul\":4713:4717   */\n      0x00\n        /* \"#utility.yul\":4751:4753   */\n      0x20\n        /* \"#utility.yul\":4740:4749   */\n      dup3\n        /* \"#utility.yul\":4736:4754   */\n      add\n        /* \"#utility.yul\":4728:4754   */\n      swap1\n      pop\n        /* \"#utility.yul\":4764:4835   */\n      tag_262\n        /* \"#utility.yul\":4832:4833   */\n      0x00\n        /* \"#utility.yul\":4821:4830   */\n      dup4\n        /* \"#utility.yul\":4817:4834   */\n      add\n        /* \"#utility.yul\":4808:4814   */\n      dup5\n        /* \"#utility.yul\":4764:4835   */\n      tag_209\n      jump\t// in\n    tag_262:\n        /* \"#utility.yul\":4620:4842   */\n      swap3\n      swap2\n      pop\n      pop\n      jump\t// out\n        /* \"#utility.yul\":4848:5221   */\n    tag_30:\n        /* \"#utility.yul\":4991:4995   */\n      0x00\n        /* \"#utility.yul\":5029:5031   */\n      0x20\n        /* \"#utility.yul\":5018:5027   */\n      dup3\n        /* \"#utility.yul\":5014:5032   */\n      add\n        /* \"#utility.yul\":5006:5032   */\n      swap1\n      pop\n        /* \"#utility.yul\":5078:5087   */\n      dup2\n        /* \"#utility.yul\":5072:5076   */\n      dup2\n        /* \"#utility.yul\":5068:5088   */\n      sub\n        /* \"#utility.yul\":5064:5065   */\n      0x00\n        /* \"#utility.yul\":5053:5062   */\n      dup4\n        /* \"#utility.yul\":5049:5066   */\n      add\n        /* \"#utility.yul\":5042:5089   */\n      mstore\n        /* \"#utility.yul\":5106:5214   */\n      tag_264\n        /* \"#utility.yul\":5209:5213   */\n      dup2\n        /* \"#utility.yul\":5200:5206   */\n      dup5\n        /* \"#utility.yul\":5106:5214   */\n      tag_213\n      jump\t// in\n    tag_264:\n        /* \"#utility.yul\":5098:5214   */\n      swap1\n      pop\n        /* \"#utility.yul\":4848:5221   */\n      swap3\n      swap2\n      pop\n      pop\n      jump\t// out\n        /* \"#utility.yul\":5227:5437   */\n    tag_36:\n        /* \"#utility.yul\":5314:5318   */\n      0x00\n        /* \"#utility.yul\":5352:5354   */\n      0x20\n        /* \"#utility.yul\":5341:5350   */\n      dup3\n        /* \"#utility.yul\":5337:5355   */\n      add\n        /* \"#utility.yul\":5329:5355   */\n      swap1\n      pop\n        /* \"#utility.yul\":5365:5430   */\n      tag_266\n        /* \"#utility.yul\":5427:5428   */\n      0x00\n        /* \"#utility.yul\":5416:5425   */\n      dup4\n        /* \"#utility.yul\":5412:5429   */\n      add\n        /* \"#utility.yul\":5403:5409   */\n      dup5\n        /* \"#utility.yul\":5365:5430   */\n      tag_227\n      jump\t// in\n    tag_266:\n        /* \"#utility.yul\":5227:5437   */\n      swap3\n      swap2\n      pop\n      pop\n      jump\t// out\n        /* \"#utility.yul\":5443:6083   */\n    tag_50:\n        /* \"#utility.yul\":5636:5640   */\n      0x00\n        /* \"#utility.yul\":5674:5677   */\n      0xa0\n        /* \"#utility.yul\":5663:5672   */\n      dup3\n        /* \"#utility.yul\":5659:5678   */\n      add\n        /* \"#utility.yul\":5651:5678   */\n      swap1\n      pop\n        /* \"#utility.yul\":5688:5753   */\n      tag_268\n        /* \"#utility.yul\":5750:5751   */\n      0x00\n        /* \"#utility.yul\":5739:5748   */\n      dup4\n        /* \"#utility.yul\":5735:5752   */\n      add\n        /* \"#utility.yul\":5726:5732   */\n      dup9\n        /* \"#utility.yul\":5688:5753   */\n      tag_227\n      jump\t// in\n    tag_268:\n        /* \"#utility.yul\":5763:5829   */\n      tag_269\n        /* \"#utility.yul\":5825:5827   */\n      0x20\n        /* \"#utility.yul\":5814:5823   */\n      dup4\n        /* \"#utility.yul\":5810:5828   */\n      add\n        /* \"#utility.yul\":5801:5807   */\n      dup8\n        /* \"#utility.yul\":5763:5829   */\n      tag_227\n      jump\t// in\n    tag_269:\n        /* \"#utility.yul\":5839:5911   */\n      tag_270\n        /* \"#utility.yul\":5907:5909   */\n      0x40\n        /* \"#utility.yul\":5896:5905   */\n      dup4\n        /* \"#utility.yul\":5892:5910   */\n      add\n        /* \"#utility.yul\":5883:5889   */\n      dup7\n        /* \"#utility.yul\":5839:5911   */\n      tag_258\n      jump\t// in\n    tag_270:\n        /* \"#utility.yul\":5921:5993   */\n      tag_271\n        /* \"#utility.yul\":5989:5991   */\n      0x60\n        /* \"#utility.yul\":5978:5987   */\n      dup4\n        /* \"#utility.yul\":5974:5992   */\n      add\n        /* \"#utility.yul\":5965:5971   */\n      dup6\n        /* \"#utility.yul\":5921:5993   */\n      tag_258\n      jump\t// in\n    tag_271:\n        /* \"#utility.yul\":6003:6076   */\n      tag_272\n        /* \"#utility.yul\":6071:6074   */\n      0x80\n        /* \"#utility.yul\":6060:6069   */\n      dup4\n        /* \"#utility.yul\":6056:6075   */\n      add\n        /* \"#utility.yul\":6047:6053   */\n      dup5\n        /* \"#utility.yul\":6003:6076   */\n      tag_258\n      jump\t// in\n    tag_272:\n        /* \"#utility.yul\":5443:6083   */\n      swap7\n      swap6\n      pop\n      pop\n      pop\n      pop\n      pop\n      pop\n      jump\t// out\n        /* \"#utility.yul\":6089:6519   */\n    tag_116:\n        /* \"#utility.yul\":6232:6236   */\n      0x00\n        /* \"#utility.yul\":6270:6272   */\n      0x60\n        /* \"#utility.yul\":6259:6268   */\n      dup3\n        /* \"#utility.yul\":6255:6273   */\n      add\n        /* \"#utility.yul\":6247:6273   */\n      swap1\n      pop\n        /* \"#utility.yul\":6283:6348   */\n      tag_274\n        /* \"#utility.yul\":6345:6346   */\n      0x00\n        /* \"#utility.yul\":6334:6343   */\n      dup4\n        /* \"#utility.yul\":6330:6347   */\n      add\n        /* \"#utility.yul\":6321:6327   */\n      dup7\n        /* \"#utility.yul\":6283:6348   */\n      tag_227\n      jump\t// in\n    tag_274:\n        /* \"#utility.yul\":6358:6430   */\n      tag_275\n        /* \"#utility.yul\":6426:6428   */\n      0x20\n        /* \"#utility.yul\":6415:6424   */\n      dup4\n        /* \"#utility.yul\":6411:6429   */\n      add\n        /* \"#utility.yul\":6402:6408   */\n      dup6\n        /* \"#utility.yul\":6358:6430   */\n      tag_258\n      jump\t// in\n    tag_275:\n        /* \"#utility.yul\":6440:6512   */\n      tag_276\n        /* \"#utility.yul\":6508:6510   */\n      0x40\n        /* \"#utility.yul\":6497:6506   */\n      dup4\n        /* \"#utility.yul\":6493:6511   */\n      add\n        /* \"#utility.yul\":6484:6490   */\n      dup5\n        /* \"#utility.yul\":6440:6512   */\n      tag_258\n      jump\t// in\n    tag_276:\n        /* \"#utility.yul\":6089:6519   */\n      swap5\n      swap4\n      pop\n      pop\n      pop\n      pop\n      jump\t// out\n        /* \"#utility.yul\":6525:6759   */\n    tag_70:\n        /* \"#utility.yul\":6624:6628   */\n      0x00\n        /* \"#utility.yul\":6662:6664   */\n      0x20\n        /* \"#utility.yul\":6651:6660   */\n      dup3\n        /* \"#utility.yul\":6647:6665   */\n      add\n        /* \"#utility.yul\":6639:6665   */\n      swap1\n      pop\n        /* \"#utility.yul\":6675:6752   */\n      tag_278\n        /* \"#utility.yul\":6749:6750   */\n      0x00\n        /* \"#utility.yul\":6738:6747   */\n      dup4\n        /* \"#utility.yul\":6734:6751   */\n      add\n        /* \"#utility.yul\":6725:6731   */\n      dup5\n        /* \"#utility.yul\":6675:6752   */\n      tag_231\n      jump\t// in\n    tag_278:\n        /* \"#utility.yul\":6525:6759   */\n      swap3\n      swap2\n      pop\n      pop\n      jump\t// out\n        /* \"#utility.yul\":6765:7184   */\n    tag_159:\n        /* \"#utility.yul\":6931:6935   */\n      0x00\n        /* \"#utility.yul\":6969:6971   */\n      0x20\n        /* \"#utility.yul\":6958:6967   */\n      dup3\n        /* \"#utility.yul\":6954:6972   */\n      add\n        /* \"#utility.yul\":6946:6972   */\n      swap1\n      pop\n        /* \"#utility.yul\":7018:7027   */\n      dup2\n        /* \"#utility.yul\":7012:7016   */\n      dup2\n        /* \"#utility.yul\":7008:7028   */\n      sub\n        /* \"#utility.yul\":7004:7005   */\n      0x00\n        /* \"#utility.yul\":6993:7002   */\n      dup4\n        /* \"#utility.yul\":6989:7006   */\n      add\n        /* \"#utility.yul\":6982:7029   */\n      mstore\n        /* \"#utility.yul\":7046:7177   */\n      tag_280\n        /* \"#utility.yul\":7172:7176   */\n      dup2\n        /* \"#utility.yul\":7046:7177   */\n      tag_245\n      jump\t// in\n    tag_280:\n        /* \"#utility.yul\":7038:7177   */\n      swap1\n      pop\n        /* \"#utility.yul\":6765:7184   */\n      swap2\n      swap1\n      pop\n      jump\t// out\n        /* \"#utility.yul\":7190:7609   */\n    tag_155:\n        /* \"#utility.yul\":7356:7360   */\n      0x00\n        /* \"#utility.yul\":7394:7396   */\n      0x20\n        /* \"#utility.yul\":7383:7392   */\n      dup3\n        /* \"#utility.yul\":7379:7397   */\n      add\n        /* \"#utility.yul\":7371:7397   */\n      swap1\n      pop\n        /* \"#utility.yul\":7443:7452   */\n      dup2\n        /* \"#utility.yul\":7437:7441   */\n      dup2\n        /* \"#utility.yul\":7433:7453   */\n      sub\n        /* \"#utility.yul\":7429:7430   */\n      0x00\n        /* \"#utility.yul\":7418:7427   */\n      dup4\n        /* \"#utility.yul\":7414:7431   */\n      add\n        /* \"#utility.yul\":7407:7454   */\n      mstore\n        /* \"#utility.yul\":7471:7602   */\n      tag_282\n        /* \"#utility.yul\":7597:7601   */\n      dup2\n        /* \"#utility.yul\":7471:7602   */\n      tag_250\n      jump\t// in\n    tag_282:\n        /* \"#utility.yul\":7463:7602   */\n      swap1\n      pop\n        /* \"#utility.yul\":7190:7609   */\n      swap2\n      swap1\n      pop\n      jump\t// out\n        /* \"#utility.yul\":7615:7837   */\n    tag_24:\n        /* \"#utility.yul\":7708:7712   */\n      0x00\n        /* \"#utility.yul\":7746:7748   */\n      0x20\n        /* \"#utility.yul\":7735:7744   */\n      dup3\n        /* \"#utility.yul\":7731:7749   */\n      add\n        /* \"#utility.yul\":7723:7749   */\n      swap1\n      pop\n        /* \"#utility.yul\":7759:7830   */\n      tag_284\n        /* \"#utility.yul\":7827:7828   */\n      0x00\n        /* \"#utility.yul\":7816:7825   */\n      dup4\n        /* \"#utility.yul\":7812:7829   */\n      add\n        /* \"#utility.yul\":7803:7809   */\n      dup5\n        /* \"#utility.yul\":7759:7830   */\n      tag_258\n      jump\t// in\n    tag_284:\n        /* \"#utility.yul\":7615:7837   */\n      swap3\n      swap2\n      pop\n      pop\n      jump\t// out\n        /* \"#utility.yul\":7843:8376   */\n    tag_44:\n        /* \"#utility.yul\":8012:8016   */\n      0x00\n        /* \"#utility.yul\":8050:8052   */\n      0x60\n        /* \"#utility.yul\":8039:8048   */\n      dup3\n        /* \"#utility.yul\":8035:8053   */\n      add\n        /* \"#utility.yul\":8027:8053   */\n      swap1\n      pop\n        /* \"#utility.yul\":8063:8134   */\n      tag_286\n        /* \"#utility.yul\":8131:8132   */\n      0x00\n        /* \"#utility.yul\":8120:8129   */\n      dup4\n        /* \"#utility.yul\":8116:8133   */\n      add\n        /* \"#utility.yul\":8107:8113   */\n      dup7\n        /* \"#utility.yul\":8063:8134   */\n      tag_258\n      jump\t// in\n    tag_286:\n        /* \"#utility.yul\":8181:8190   */\n      dup2\n        /* \"#utility.yul\":8175:8179   */\n      dup2\n        /* \"#utility.yul\":8171:8191   */\n      sub\n        /* \"#utility.yul\":8166:8168   */\n      0x20\n        /* \"#utility.yul\":8155:8164   */\n      dup4\n        /* \"#utility.yul\":8151:8169   */\n      add\n        /* \"#utility.yul\":8144:8192   */\n      mstore\n        /* \"#utility.yul\":8209:8287   */\n      tag_287\n        /* \"#utility.yul\":8282:8286   */\n      dup2\n        /* \"#utility.yul\":8273:8279   */\n      dup6\n        /* \"#utility.yul\":8209:8287   */\n      tag_235\n      jump\t// in\n    tag_287:\n        /* \"#utility.yul\":8201:8287   */\n      swap1\n      pop\n        /* \"#utility.yul\":8297:8369   */\n      tag_288\n        /* \"#utility.yul\":8365:8367   */\n      0x40\n        /* \"#utility.yul\":8354:8363   */\n      dup4\n        /* \"#utility.yul\":8350:8368   */\n      add\n        /* \"#utility.yul\":8341:8347   */\n      dup5\n        /* \"#utility.yul\":8297:8369   */\n      tag_258\n      jump\t// in\n    tag_288:\n        /* \"#utility.yul\":7843:8376   */\n      swap5\n      swap4\n      pop\n      pop\n      pop\n      pop\n      jump\t// out\n        /* \"#utility.yul\":8382:9026   */\n    tag_81:\n        /* \"#utility.yul\":8579:8583   */\n      0x00\n        /* \"#utility.yul\":8617:8620   */\n      0x80\n        /* \"#utility.yul\":8606:8615   */\n      dup3\n        /* \"#utility.yul\":8602:8621   */\n      add\n        /* \"#utility.yul\":8594:8621   */\n      swap1\n      pop\n        /* \"#utility.yul\":8631:8702   */\n      tag_290\n        /* \"#utility.yul\":8699:8700   */\n      0x00\n        /* \"#utility.yul\":8688:8697   */\n      dup4\n        /* \"#utility.yul\":8684:8701   */\n      add\n        /* \"#utility.yul\":8675:8681   */\n      dup8\n        /* \"#utility.yul\":8631:8702   */\n      tag_258\n      jump\t// in\n    tag_290:\n        /* \"#utility.yul\":8749:8758   */\n      dup2\n        /* \"#utility.yul\":8743:8747   */\n      dup2\n        /* \"#utility.yul\":8739:8759   */\n      sub\n        /* \"#utility.yul\":8734:8736   */\n      0x20\n        /* \"#utility.yul\":8723:8732   */\n      dup4\n        /* \"#utility.yul\":8719:8737   */\n      add\n        /* \"#utility.yul\":8712:8760   */\n      mstore\n        /* \"#utility.yul\":8777:8855   */\n      tag_291\n        /* \"#utility.yul\":8850:8854   */\n      dup2\n        /* \"#utility.yul\":8841:8847   */\n      dup7\n        /* \"#utility.yul\":8777:8855   */\n      tag_235\n      jump\t// in\n    tag_291:\n        /* \"#utility.yul\":8769:8855   */\n      swap1\n      pop\n        /* \"#utility.yul\":8865:8937   */\n      tag_292\n        /* \"#utility.yul\":8933:8935   */\n      0x40\n        /* \"#utility.yul\":8922:8931   */\n      dup4\n        /* \"#utility.yul\":8918:8936   */\n      add\n        /* \"#utility.yul\":8909:8915   */\n      dup6\n        /* \"#utility.yul\":8865:8937   */\n      tag_258\n      jump\t// in\n    tag_292:\n        /* \"#utility.yul\":8947:9019   */\n      tag_293\n        /* \"#utility.yul\":9015:9017   */\n      0x60\n        /* \"#utility.yul\":9004:9013   */\n      dup4\n        /* \"#utility.yul\":9000:9018   */\n      add\n        /* \"#utility.yul\":8991:8997   */\n      dup5\n        /* \"#utility.yul\":8947:9019   */\n      tag_258\n      jump\t// in\n    tag_293:\n        /* \"#utility.yul\":8382:9026   */\n      swap6\n      swap5\n      pop\n      pop\n      pop\n      pop\n      pop\n      jump\t// out\n        /* \"#utility.yul\":9113:9245   */\n    tag_220:\n        /* \"#utility.yul\":9180:9184   */\n      0x00\n        /* \"#utility.yul\":9203:9206   */\n      dup2\n        /* \"#utility.yul\":9195:9206   */\n      swap1\n      pop\n        /* \"#utility.yul\":9233:9237   */\n      0x20\n        /* \"#utility.yul\":9228:9231   */\n      dup3\n        /* \"#utility.yul\":9224:9238   */\n      add\n        /* \"#utility.yul\":9216:9238   */\n      swap1\n      pop\n        /* \"#utility.yul\":9113:9245   */\n      swap2\n      swap1\n      pop\n      jump\t// out\n        /* \"#utility.yul\":9251:9365   */\n    tag_216:\n        /* \"#utility.yul\":9318:9324   */\n      0x00\n        /* \"#utility.yul\":9352:9357   */\n      dup2\n        /* \"#utility.yul\":9346:9358   */\n      mload\n        /* \"#utility.yul\":9336:9358   */\n      swap1\n      pop\n        /* \"#utility.yul\":9251:9365   */\n      swap2\n      swap1\n      pop\n      jump\t// out\n        /* \"#utility.yul\":9371:9470   */\n    tag_238:\n        /* \"#utility.yul\":9423:9429   */\n      0x00\n        /* \"#utility.yul\":9457:9462   */\n      dup2\n        /* \"#utility.yul\":9451:9463   */\n      mload\n        /* \"#utility.yul\":9441:9463   */\n      swap1\n      pop\n        /* \"#utility.yul\":9371:9470   */\n      swap2\n      swap1\n      pop\n      jump\t// out\n        /* \"#utility.yul\":9476:9589   */\n    tag_226:\n        /* \"#utility.yul\":9546:9550   */\n      0x00\n        /* \"#utility.yul\":9578:9582   */\n      0x20\n        /* \"#utility.yul\":9573:9576   */\n      dup3\n        /* \"#utility.yul\":9569:9583   */\n      add\n        /* \"#utility.yul\":9561:9583   */\n      swap1\n      pop\n        /* \"#utility.yul\":9476:9589   */\n      swap2\n      swap1\n      pop\n      jump\t// out\n        /* \"#utility.yul\":9595:9779   */\n    tag_218:\n        /* \"#utility.yul\":9694:9705   */\n      0x00\n        /* \"#utility.yul\":9728:9734   */\n      dup3\n        /* \"#utility.yul\":9723:9726   */\n      dup3\n        /* \"#utility.yul\":9716:9735   */\n      mstore\n        /* \"#utility.yul\":9768:9772   */\n      0x20\n        /* \"#utility.yul\":9763:9766   */\n      dup3\n        /* \"#utility.yul\":9759:9773   */\n      add\n        /* \"#utility.yul\":9744:9773   */\n      swap1\n      pop\n        /* \"#utility.yul\":9595:9779   */\n      swap3\n      swap2\n      pop\n      pop\n      jump\t// out\n        /* \"#utility.yul\":9785:9954   */\n    tag_240:\n        /* \"#utility.yul\":9869:9880   */\n      0x00\n        /* \"#utility.yul\":9903:9909   */\n      dup3\n        /* \"#utility.yul\":9898:9901   */\n      dup3\n        /* \"#utility.yul\":9891:9910   */\n      mstore\n        /* \"#utility.yul\":9943:9947   */\n      0x20\n        /* \"#utility.yul\":9938:9941   */\n      dup3\n        /* \"#utility.yul\":9934:9948   */\n      add\n        /* \"#utility.yul\":9919:9948   */\n      swap1\n      pop\n        /* \"#utility.yul\":9785:9954   */\n      swap3\n      swap2\n      pop\n      pop\n      jump\t// out\n        /* \"#utility.yul\":9960:10056   */\n    tag_212:\n        /* \"#utility.yul\":9997:10004   */\n      0x00\n        /* \"#utility.yul\":10026:10050   */\n      tag_303\n        /* \"#utility.yul\":10044:10049   */\n      dup3\n        /* \"#utility.yul\":10026:10050   */\n      tag_304\n      jump\t// in\n    tag_303:\n        /* \"#utility.yul\":10015:10050   */\n      swap1\n      pop\n        /* \"#utility.yul\":9960:10056   */\n      swap2\n      swap1\n      pop\n      jump\t// out\n        /* \"#utility.yul\":10062:10152   */\n    tag_230:\n        /* \"#utility.yul\":10096:10103   */\n      0x00\n        /* \"#utility.yul\":10139:10144   */\n      dup2\n        /* \"#utility.yul\":10132:10145   */\n      iszero\n        /* \"#utility.yul\":10125:10146   */\n      iszero\n        /* \"#utility.yul\":10114:10146   */\n      swap1\n      pop\n        /* \"#utility.yul\":10062:10152   */\n      swap2\n      swap1\n      pop\n      jump\t// out\n        /* \"#utility.yul\":10158:10285   */\n    tag_306:\n        /* \"#utility.yul\":10203:10210   */\n      0x00\n        /* \"#utility.yul\":10232:10237   */\n      dup2\n        /* \"#utility.yul\":10221:10237   */\n      swap1\n      pop\n        /* \"#utility.yul\":10238:10279   */\n      tag_308\n        /* \"#utility.yul\":10273:10278   */\n      dup3\n        /* \"#utility.yul\":10238:10279   */\n      tag_309\n      jump\t// in\n    tag_308:\n        /* \"#utility.yul\":10158:10285   */\n      swap2\n      swap1\n      pop\n      jump\t// out\n        /* \"#utility.yul\":10291:10417   */\n    tag_304:\n        /* \"#utility.yul\":10328:10335   */\n      0x00\n        /* \"#utility.yul\":10368:10410   */\n      0xffffffffffffffffffffffffffffffffffffffff\n        /* \"#utility.yul\":10361:10366   */\n      dup3\n        /* \"#utility.yul\":10357:10411   */\n      and\n        /* \"#utility.yul\":10346:10411   */\n      swap1\n      pop\n        /* \"#utility.yul\":10291:10417   */\n      swap2\n      swap1\n      pop\n      jump\t// out\n        /* \"#utility.yul\":10423:10500   */\n    tag_257:\n        /* \"#utility.yul\":10460:10467   */\n      0x00\n        /* \"#utility.yul\":10489:10494   */\n      dup2\n        /* \"#utility.yul\":10478:10494   */\n      swap1\n      pop\n        /* \"#utility.yul\":10423:10500   */\n      swap2\n      swap1\n      pop\n      jump\t// out\n        /* \"#utility.yul\":10506:10633   */\n    tag_234:\n        /* \"#utility.yul\":10562:10571   */\n      0x00\n        /* \"#utility.yul\":10595:10627   */\n      tag_313\n        /* \"#utility.yul\":10621:10626   */\n      dup3\n        /* \"#utility.yul\":10595:10627   */\n      tag_306\n      jump\t// in\n    tag_313:\n        /* \"#utility.yul\":10582:10627   */\n      swap1\n      pop\n        /* \"#utility.yul\":10506:10633   */\n      swap2\n      swap1\n      pop\n      jump\t// out\n        /* \"#utility.yul\":10639:10946   */\n    tag_242:\n        /* \"#utility.yul\":10707:10708   */\n      0x00\n        /* \"#utility.yul\":10717:10830   */\n    tag_315:\n        /* \"#utility.yul\":10731:10737   */\n      dup4\n        /* \"#utility.yul\":10728:10729   */\n      dup2\n        /* \"#utility.yul\":10725:10738   */\n      lt\n        /* \"#utility.yul\":10717:10830   */\n      iszero\n      tag_317\n      jumpi\n        /* \"#utility.yul\":10816:10817   */\n      dup1\n        /* \"#utility.yul\":10811:10814   */\n      dup3\n        /* \"#utility.yul\":10807:10818   */\n      add\n        /* \"#utility.yul\":10801:10819   */\n      mload\n        /* \"#utility.yul\":10797:10798   */\n      dup2\n        /* \"#utility.yul\":10792:10795   */\n      dup5\n        /* \"#utility.yul\":10788:10799   */\n      add\n        /* \"#utility.yul\":10781:10820   */\n      mstore\n        /* \"#utility.yul\":10753:10755   */\n      0x20\n        /* \"#utility.yul\":10750:10751   */\n      dup2\n        /* \"#utility.yul\":10746:10756   */\n      add\n        /* \"#utility.yul\":10741:10756   */\n      swap1\n      pop\n        /* \"#utility.yul\":10717:10830   */\n      jump(tag_315)\n    tag_317:\n        /* \"#utility.yul\":10848:10854   */\n      dup4\n        /* \"#utility.yul\":10845:10846   */\n      dup2\n        /* \"#utility.yul\":10842:10855   */\n      gt\n        /* \"#utility.yul\":10839:10940   */\n      iszero\n      tag_318\n      jumpi\n        /* \"#utility.yul\":10928:10929   */\n      0x00\n        /* \"#utility.yul\":10919:10925   */\n      dup5\n        /* \"#utility.yul\":10914:10917   */\n      dup5\n        /* \"#utility.yul\":10910:10926   */\n      add\n        /* \"#utility.yul\":10903:10930   */\n      mstore\n        /* \"#utility.yul\":10839:10940   */\n    tag_318:\n        /* \"#utility.yul\":10688:10946   */\n      pop\n        /* \"#utility.yul\":10639:10946   */\n      pop\n      pop\n      pop\n      jump\t// out\n        /* \"#utility.yul\":10952:11272   */\n    tag_91:\n        /* \"#utility.yul\":10996:11002   */\n      0x00\n        /* \"#utility.yul\":11033:11034   */\n      0x02\n        /* \"#utility.yul\":11027:11031   */\n      dup3\n        /* \"#utility.yul\":11023:11035   */\n      div\n        /* \"#utility.yul\":11013:11035   */\n      swap1\n      pop\n        /* \"#utility.yul\":11080:11081   */\n      0x01\n        /* \"#utility.yul\":11074:11078   */\n      dup3\n        /* \"#utility.yul\":11070:11082   */\n      and\n        /* \"#utility.yul\":11101:11119   */\n      dup1\n        /* \"#utility.yul\":11091:11172   */\n      tag_320\n      jumpi\n        /* \"#utility.yul\":11157:11161   */\n      0x7f\n        /* \"#utility.yul\":11149:11155   */\n      dup3\n        /* \"#utility.yul\":11145:11162   */\n      and\n        /* \"#utility.yul\":11135:11162   */\n      swap2\n      pop\n        /* \"#utility.yul\":11091:11172   */\n    tag_320:\n        /* \"#utility.yul\":11219:11221   */\n      0x20\n        /* \"#utility.yul\":11211:11217   */\n      dup3\n        /* \"#utility.yul\":11208:11222   */\n      lt\n        /* \"#utility.yul\":11188:11206   */\n      dup2\n        /* \"#utility.yul\":11185:11223   */\n      eq\n        /* \"#utility.yul\":11182:11266   */\n      iszero\n      tag_321\n      jumpi\n        /* \"#utility.yul\":11238:11256   */\n      tag_322\n      tag_323\n      jump\t// in\n    tag_322:\n        /* \"#utility.yul\":11182:11266   */\n    tag_321:\n        /* \"#utility.yul\":11003:11272   */\n      pop\n        /* \"#utility.yul\":10952:11272   */\n      swap2\n      swap1\n      pop\n      jump\t// out\n        /* \"#utility.yul\":11278:11511   */\n    tag_100:\n        /* \"#utility.yul\":11317:11320   */\n      0x00\n        /* \"#utility.yul\":11340:11364   */\n      tag_325\n        /* \"#utility.yul\":11358:11363   */\n      dup3\n        /* \"#utility.yul\":11340:11364   */\n      tag_257\n      jump\t// in\n    tag_325:\n        /* \"#utility.yul\":11331:11364   */\n      swap2\n      pop\n        /* \"#utility.yul\":11386:11452   */\n      0xffffffffffffffffffffffffffffffffffffffffffffffffffffffffffffffff\n        /* \"#utility.yul\":11379:11384   */\n      dup3\n        /* \"#utility.yul\":11376:11453   */\n      eq\n        /* \"#utility.yul\":11373:11476   */\n      iszero\n      tag_326\n      jumpi\n        /* \"#utility.yul\":11456:11474   */\n      tag_327\n      tag_328\n      jump\t// in\n    tag_327:\n        /* \"#utility.yul\":11373:11476   */\n    tag_326:\n        /* \"#utility.yul\":11503:11504   */\n      0x01\n        /* \"#utility.yul\":11496:11501   */\n      dup3\n        /* \"#utility.yul\":11492:11505   */\n      add\n        /* \"#utility.yul\":11485:11505   */\n      swap1\n      pop\n        /* \"#utility.yul\":11278:11511   */\n      swap2\n      swap1\n      pop\n      jump\t// out\n        /* \"#utility.yul\":11517:11697   */\n    tag_328:\n        /* \"#utility.yul\":11565:11642   */\n      0x4e487b7100000000000000000000000000000000000000000000000000000000\n        /* \"#utility.yul\":11562:11563   */\n      0x00\n        /* \"#utility.yul\":11555:11643   */\n      mstore\n        /* \"#utility.yul\":11662:11666   */\n      0x11\n        /* \"#utility.yul\":11659:11660   */\n      0x04\n        /* \"#utility.yul\":11652:11667   */\n      mstore\n        /* \"#utility.yul\":11686:11690   */\n      0x24\n        /* \"#utility.yul\":11683:11684   */\n      0x00\n        /* \"#utility.yul\":11676:11691   */\n      revert\n        /* \"#utility.yul\":11703:11883   */\n    tag_104:\n        /* \"#utility.yul\":11751:11828   */\n      0x4e487b7100000000000000000000000000000000000000000000000000000000\n        /* \"#utility.yul\":11748:11749   */\n      0x00\n        /* \"#utility.yul\":11741:11829   */\n      mstore\n        /* \"#utility.yul\":11848:11852   */\n      0x21\n        /* \"#utility.yul\":11845:11846   */\n      0x04\n        /* \"#utility.yul\":11838:11853   */\n      mstore\n        /* \"#utility.yul\":11872:11876   */\n      0x24\n        /* \"#utility.yul\":11869:11870   */\n      0x00\n        /* \"#utility.yul\":11862:11877   */\n      revert\n        /* \"#utility.yul\":11889:12069   */\n    tag_323:\n        /* \"#utility.yul\":11937:12014   */\n      0x4e487b7100000000000000000000000000000000000000000000000000000000\n        /* \"#utility.yul\":11934:11935   */\n      0x00\n        /* \"#utility.yul\":11927:12015   */\n      mstore\n        /* \"#utility.yul\":12034:12038   */\n      0x22\n        /* \"#utility.yul\":12031:12032   */\n      0x04\n        /* \"#utility.yul\":12024:12039   */\n      mstore\n        /* \"#utility.yul\":12058:12062   */\n      0x24\n        /* \"#utility.yul\":12055:12056   */\n      0x00\n        /* \"#utility.yul\":12048:12063   */\n      revert\n        /* \"#utility.yul\":12075:12255   */\n    tag_98:\n        /* \"#utility.yul\":12123:12200   */\n      0x4e487b7100000000000000000000000000000000000000000000000000000000\n        /* \"#utility.yul\":12120:12121   */\n      0x00\n        /* \"#utility.yul\":12113:12201   */\n      mstore\n        /* \"#utility.yul\":12220:12224   */\n      0x32\n        /* \"#utility.yul\":12217:12218   */\n      0x04\n        /* \"#utility.yul\":12210:12225   */\n      mstore\n        /* \"#utility.yul\":12244:12248   */\n      0x24\n        /* \"#utility.yul\":12241:12242   */\n      0x00\n        /* \"#utility.yul\":12234:12249   */\n      revert\n        /* \"#utility.yul\":12261:12441   */\n    tag_85:\n        /* \"#utility.yul\":12309:12386   */\n      0x4e487b7100000000000000000000000000000000000000000000000000000000\n        /* \"#utility.yul\":12306:12307   */\n      0x00\n        /* \"#utility.yul\":12299:12387   */\n      mstore\n        /* \"#utility.yul\":12406:12410   */\n      0x41\n        /* \"#utility.yul\":12403:12404   */\n      0x04\n        /* \"#utility.yul\":12396:12411   */\n      mstore\n        /* \"#utility.yul\":12430:12434   */\n      0x24\n        /* \"#utility.yul\":12427:12428   */\n      0x00\n        /* \"#utility.yul\":12420:12435   */\n      revert\n        /* \"#utility.yul\":12570:12687   */\n    tag_189:\n        /* \"#utility.yul\":12679:12680   */\n      0x00\n        /* \"#utility.yul\":12676:12677   */\n      dup1\n        /* \"#utility.yul\":12669:12681   */\n      revert\n        /* \"#utility.yul\":12693:12795   */\n    tag_244:\n        /* \"#utility.yul\":12734:12740   */\n      0x00\n        /* \"#utility.yul\":12785:12787   */\n      0x1f\n        /* \"#utility.yul\":12781:12788   */\n      not\n        /* \"#utility.yul\":12776:12778   */\n      0x1f\n        /* \"#utility.yul\":12769:12774   */\n      dup4\n        /* \"#utility.yul\":12765:12779   */\n      add\n        /* \"#utility.yul\":12761:12789   */\n      and\n        /* \"#utility.yul\":12751:12789   */\n      swap1\n      pop\n        /* \"#utility.yul\":12693:12795   */\n      swap2\n      swap1\n      pop\n      jump\t// out\n        /* \"#utility.yul\":12801:13030   */\n    tag_249:\n        /* \"#utility.yul\":12941:12975   */\n      0x506c656173652070726f7669646520612076616c696420706f6c6c696e672073\n        /* \"#utility.yul\":12937:12938   */\n      0x00\n        /* \"#utility.yul\":12929:12935   */\n      dup3\n        /* \"#utility.yul\":12925:12939   */\n      add\n        /* \"#utility.yul\":12918:12976   */\n      mstore\n        /* \"#utility.yul\":13010:13022   */\n      0x746174696f6e2049442e00000000000000000000000000000000000000000000\n        /* \"#utility.yul\":13005:13007   */\n      0x20\n        /* \"#utility.yul\":12997:13003   */\n      dup3\n        /* \"#utility.yul\":12993:13008   */\n      add\n        /* \"#utility.yul\":12986:13023   */\n      mstore\n        /* \"#utility.yul\":12801:13030   */\n      pop\n      jump\t// out\n        /* \"#utility.yul\":13036:13214   */\n    tag_254:\n        /* \"#utility.yul\":13176:13206   */\n      0x566f74657220697320616c726561647920726567697374657265642e00000000\n        /* \"#utility.yul\":13172:13173   */\n      0x00\n        /* \"#utility.yul\":13164:13170   */\n      dup3\n        /* \"#utility.yul\":13160:13174   */\n      add\n        /* \"#utility.yul\":13153:13207   */\n      mstore\n        /* \"#utility.yul\":13036:13214   */\n      pop\n      jump\t// out\n        /* \"#utility.yul\":13220:13333   */\n    tag_309:\n        /* \"#utility.yul\":13301:13302   */\n      0x03\n        /* \"#utility.yul\":13294:13299   */\n      dup2\n        /* \"#utility.yul\":13291:13303   */\n      lt\n        /* \"#utility.yul\":13281:13327   */\n      tag_341\n      jumpi\n        /* \"#utility.yul\":13307:13325   */\n      tag_342\n      tag_104\n      jump\t// in\n    tag_342:\n        /* \"#utility.yul\":13281:13327   */\n    tag_341:\n        /* \"#utility.yul\":13220:13333   */\n      pop\n      jump\t// out\n        /* \"#utility.yul\":13339:13461   */\n    tag_181:\n        /* \"#utility.yul\":13412:13436   */\n      tag_344\n        /* \"#utility.yul\":13430:13435   */\n      dup2\n        /* \"#utility.yul\":13412:13436   */\n      tag_212\n      jump\t// in\n    tag_344:\n        /* \"#utility.yul\":13405:13410   */\n      dup2\n        /* \"#utility.yul\":13402:13437   */\n      eq\n        /* \"#utility.yul\":13392:13455   */\n      tag_345\n      jumpi\n        /* \"#utility.yul\":13451:13452   */\n      0x00\n        /* \"#utility.yul\":13448:13449   */\n      dup1\n        /* \"#utility.yul\":13441:13453   */\n      revert\n        /* \"#utility.yul\":13392:13455   */\n    tag_345:\n        /* \"#utility.yul\":13339:13461   */\n      pop\n      jump\t// out\n        /* \"#utility.yul\":13467:13589   */\n    tag_185:\n        /* \"#utility.yul\":13540:13564   */\n      tag_347\n        /* \"#utility.yul\":13558:13563   */\n      dup2\n        /* \"#utility.yul\":13540:13564   */\n      tag_257\n      jump\t// in\n    tag_347:\n        /* \"#utility.yul\":13533:13538   */\n      dup2\n        /* \"#utility.yul\":13530:13565   */\n      eq\n        /* \"#utility.yul\":13520:13583   */\n      tag_348\n      jumpi\n        /* \"#utility.yul\":13579:13580   */\n      0x00\n        /* \"#utility.yul\":13576:13577   */\n      dup1\n        /* \"#utility.yul\":13569:13581   */\n      revert\n        /* \"#utility.yul\":13520:13583   */\n    tag_348:\n        /* \"#utility.yul\":13467:13589   */\n      pop\n      jump\t// out\n\n    auxdata: 0xa2646970667358221220eb2839284739b99f83e33a28793ac96a0c9f698c6c4a2fe3c5e944b964fd4fab64736f6c63430008070033\n}\n",
				"bytecode": {
					"linkReferences": {},
					"object": "60806040523480156200001157600080fd5b50336000806101000a81548173ffffffffffffffffffffffffffffffffffffffff021916908373ffffffffffffffffffffffffffffffffffffffff16021790555062000062620000a660201b60201c565b620000726200036460201b60201c565b6000600a60006101000a81548160ff021916908360028111156200009b576200009a620007cd565b5b02179055506200082b565b620000ec6040518060400160405280601181526020017f506f6c6c696e672053746174696f6e2031000000000000000000000000000000815250620004c460201b60201c565b620001326040518060400160405280601181526020017f506f6c6c696e672053746174696f6e2032000000000000000000000000000000815250620004c460201b60201c565b620001786040518060400160405280601181526020017f506f6c6c696e672053746174696f6e2033000000000000000000000000000000815250620004c460201b60201c565b620001be6040518060400160405280601181526020017f506f6c6c696e672053746174696f6e2034000000000000000000000000000000815250620004c460201b60201c565b620002046040518060400160405280601181526020017f506f6c6c696e672053746174696f6e2035000000000000000000000000000000815250620004c460201b60201c565b6200024a6040518060400160405280601181526020017f506f6c6c696e672053746174696f6e2036000000000000000000000000000000815250620004c460201b60201c565b620002906040518060400160405280601181526020017f506f6c6c696e672053746174696f6e2037000000000000000000000000000000815250620004c460201b60201c565b620002d66040518060400160405280601181526020017f506f6c6c696e672053746174696f6e2038000000000000000000000000000000815250620004c460201b60201c565b6200031c6040518060400160405280601181526020017f506f6c6c696e672053746174696f6e2039000000000000000000000000000000815250620004c460201b60201c565b620003626040518060400160405280601281526020017f506f6c6c696e672053746174696f6e2031300000000000000000000000000000815250620004c460201b60201c565b565b620003aa6040518060400160405280600b81526020017f43616e64696461746520310000000000000000000000000000000000000000008152506200053560201b60201c565b620003f06040518060400160405280600b81526020017f43616e64696461746520320000000000000000000000000000000000000000008152506200053560201b60201c565b620004366040518060400160405280600b81526020017f43616e64696461746520330000000000000000000000000000000000000000008152506200053560201b60201c565b6200047c6040518060400160405280600b81526020017f43616e64696461746520340000000000000000000000000000000000000000008152506200053560201b60201c565b620004c26040518060400160405280600b81526020017f43616e64696461746520350000000000000000000000000000000000000000008152506200053560201b60201c565b565b60026000815480929190620004d99062000750565b9190505550600060076000600254815260200190815260200160002090506002548160000181905550818160010190805190602001906200051c92919062000660565b5060008160020181905550600081600301819055505050565b600160008154809291906200054a9062000750565b9190505550604051806060016040528060015481526020018281526020016000815250600660006001548152602001908152602001600020600082015181600001556020820151816001019080519060200190620005aa92919062000660565b50604082015181600201559050506000600190505b60025481116200065c5760405180606001604052806001548152602001838152602001600081525060076000838152602001908152602001600020600401600060015481526020019081526020016000206000820151816000015560208201518160010190805190602001906200063892919062000660565b50604082015181600201559050508080620006539062000750565b915050620005bf565b5050565b8280546200066e906200071a565b90600052602060002090601f016020900481019282620006925760008555620006de565b82601f10620006ad57805160ff1916838001178555620006de565b82800160010185558215620006de579182015b82811115620006dd578251825591602001919060010190620006c0565b5b509050620006ed9190620006f1565b5090565b5b808211156200070c576000816000905550600101620006f2565b5090565b6000819050919050565b600060028204905060018216806200073357607f821691505b602082108114156200074a5762000749620007fc565b5b50919050565b60006200075d8262000710565b91507fffffffffffffffffffffffffffffffffffffffffffffffffffffffffffffffff8214156200079357620007926200079e565b5b600182019050919050565b7f4e487b7100000000000000000000000000000000000000000000000000000000600052601160045260246000fd5b7f4e487b7100000000000000000000000000000000000000000000000000000000600052602160045260246000fd5b7f4e487b7100000000000000000000000000000000000000000000000000000000600052602260045260246000fd5b611636806200083b6000396000f3fe608060405234801561001057600080fd5b50600436106100f45760003560e01c806353357ad011610097578063c19d93fb11610066578063c19d93fb14610279578063df9f1a0714610297578063f3a8286f146102b5578063fe2442d7146102d3576100f4565b806353357ad014610205578063a3ec138d14610223578063b922394614610253578063b9f05f2f1461025d576100f4565b80632d35a8a2116100d35780632d35a8a2146101775780633477ee2e146101955780634763d4e7146101c75780634c0a6af0146101fb576100f4565b8062aa7464146100f957806323a1b11c146101175780632c0a3f8914610147575b600080fd5b610101610306565b60405161010e9190611230565b60405180910390f35b610131600480360381019061012c9190610f46565b61030c565b60405161013e919061110e565b60405180910390f35b610161600480360381019061015c9190610f73565b61048b565b60405161016e9190611130565b60405180910390f35b61017f6107b9565b60405161018c9190611230565b60405180910390f35b6101af60048036038101906101aa9190610f46565b6107bf565b6040516101be9392919061124b565b60405180910390f35b6101e160048036038101906101dc9190610ed9565b610871565b6040516101f295949392919061114b565b60405180910390f35b6102036108c1565b005b61020d610988565b60405161021a91906110f3565b60405180910390f35b61023d60048036038101906102389190610ed9565b6109ac565b60405161024a9190611130565b60405180910390f35b61025b6109cc565b005b61027760048036038101906102729190610f06565b610a9c565b005b610281610d2f565b60405161028e91906111d5565b60405180910390f35b61029f610d42565b6040516102ac9190611230565b60405180910390f35b6102bd610d48565b6040516102ca9190611230565b60405180910390f35b6102ed60048036038101906102e89190610f46565b610d4e565b6040516102fd9493929190611289565b60405180910390f35b60035481565b6060600060015467ffffffffffffffff81111561032c5761032b611501565b5b60405190808252806020026020018201604052801561035a5781602001602082028036833780820191505090505b5090506000600190505b6001548111610481576000600760008681526020019081526020016000206004016000838152602001908152602001600020604051806060016040529081600082015481526020016001820180546103bb906113ca565b80601f01602080910402602001604051908101604052809291908181526020018280546103e7906113ca565b80156104345780601f1061040957610100808354040283529160200191610434565b820191906000526020600020905b81548152906001019060200180831161041757829003601f168201915b5050505050815260200160028201548152505090508060400151838381518110610461576104606114d2565b5b602002602001018181525050508080610479906113fc565b915050610364565b5080915050919050565b600060018060028111156104a2576104a1611474565b5b600a60009054906101000a900460ff1660028111156104c4576104c3611474565b5b146104ce57600080fd5b6000600860003373ffffffffffffffffffffffffffffffffffffffff1673ffffffffffffffffffffffffffffffffffffffff16815260200190815260200160002060000160009054906101000a900460ff1680156105795750600860003373ffffffffffffffffffffffffffffffffffffffff1673ffffffffffffffffffffffffffffffffffffffff16815260200190815260200160002060000160019054906101000a900460ff16155b156107ae5784600860003373ffffffffffffffffffffffffffffffffffffffff1673ffffffffffffffffffffffffffffffffffffffff1681526020019081526020016000206001018190555083600860003373ffffffffffffffffffffffffffffffffffffffff1673ffffffffffffffffffffffffffffffffffffffff168152602001908152602001600020600301819055506001600860003373ffffffffffffffffffffffffffffffffffffffff1673ffffffffffffffffffffffffffffffffffffffff16815260200190815260200160002060000160016101000a81548160ff02191690831515021790555060076000858152602001908152602001600020600301600081548092919061068e906113fc565b91905055506006600086815260200190815260200160002060020160008154809291906106ba906113fc565b9190505550600460008154809291906106d2906113fc565b91905055506001905080600960003373ffffffffffffffffffffffffffffffffffffffff1673ffffffffffffffffffffffffffffffffffffffff16815260200190815260200160002060006101000a81548160ff021916908315150217905550600760008581526020019081526020016000206004016000868152602001908152602001600020600201600081548092919061076d906113fc565b91905055507f29a25b3d0b6ff7e5de2a60a2e8e76d1bdaf4894ec18c598cc1687213f442c5cb8186866040516107a59392919061119e565b60405180910390a15b809250505092915050565b60015481565b60066020528060005260406000206000915090508060000154908060010180546107e8906113ca565b80601f0160208091040260200160405190810160405280929190818152602001828054610814906113ca565b80156108615780601f1061083657610100808354040283529160200191610861565b820191906000526020600020905b81548152906001019060200180831161084457829003601f168201915b5050505050908060020154905083565b60086020528060005260406000206000915090508060000160009054906101000a900460ff16908060000160019054906101000a900460ff16908060010154908060020154908060030154905085565b60008060028111156108d6576108d5611474565b5b600a60009054906101000a900460ff1660028111156108f8576108f7611474565b5b1461090257600080fd5b60008054906101000a900473ffffffffffffffffffffffffffffffffffffffff1673ffffffffffffffffffffffffffffffffffffffff163373ffffffffffffffffffffffffffffffffffffffff161461095a57600080fd5b6001600a60006101000a81548160ff021916908360028111156109805761097f611474565b5b021790555050565b60008054906101000a900473ffffffffffffffffffffffffffffffffffffffff1681565b60096020528060005260406000206000915054906101000a900460ff1681565b60018060028111156109e1576109e0611474565b5b600a60009054906101000a900460ff166002811115610a0357610a02611474565b5b14610a0d57600080fd5b60008054906101000a900473ffffffffffffffffffffffffffffffffffffffff1673ffffffffffffffffffffffffffffffffffffffff163373ffffffffffffffffffffffffffffffffffffffff1614610a6557600080fd5b6002600a60006101000a81548160ff02191690836002811115610a8b57610a8a611474565b5b021790555060045460058190555050565b6000806002811115610ab157610ab0611474565b5b600a60009054906101000a900460ff166002811115610ad357610ad2611474565b5b14610add57600080fd5b60008054906101000a900473ffffffffffffffffffffffffffffffffffffffff1673ffffffffffffffffffffffffffffffffffffffff163373ffffffffffffffffffffffffffffffffffffffff1614610b3557600080fd5b60001515600860008573ffffffffffffffffffffffffffffffffffffffff1673ffffffffffffffffffffffffffffffffffffffff16815260200190815260200160002060000160009054906101000a900460ff16151514610bcb576040517f08c379a0000000000000000000000000000000000000000000000000000000008152600401610bc290611210565b60405180910390fd5b60018210158015610bde57506002548211155b610c1d576040517f08c379a0000000000000000000000000000000000000000000000000000000008152600401610c14906111f0565b60405180910390fd5b610c25610e7c565b60018160000190151590811515815250506000816020019015159081151581525050600081604001818152505082816060018181525050600081608001818152505080600860008673ffffffffffffffffffffffffffffffffffffffff1673ffffffffffffffffffffffffffffffffffffffff16815260200190815260200160002060008201518160000160006101000a81548160ff02191690831515021790555060208201518160000160016101000a81548160ff021916908315150217905550604082015181600101556060820151816002015560808201518160030155905050610d1183610e06565b60036000815480929190610d24906113fc565b919050555050505050565b600a60009054906101000a900460ff1681565b60025481565b60055481565b6007602052806000526040600020600091509050806000015490806001018054610d77906113ca565b80601f0160208091040260200160405190810160405280929190818152602001828054610da3906113ca565b8015610df05780601f10610dc557610100808354040283529160200191610df0565b820191906000526020600020905b815481529060010190602001808311610dd357829003601f168201915b5050505050908060020154908060030154905084565b6000600190505b6002548111610e78578160076000838152602001908152602001600020600001541415610e6557600760008281526020019081526020016000206002016000815480929190610e5b906113fc565b9190505550610e78565b8080610e70906113fc565b915050610e0d565b5050565b6040518060a001604052806000151581526020016000151581526020016000815260200160008152602001600081525090565b600081359050610ebe816115d2565b92915050565b600081359050610ed3816115e9565b92915050565b600060208284031215610eef57610eee611530565b5b6000610efd84828501610eaf565b91505092915050565b60008060408385031215610f1d57610f1c611530565b5b6000610f2b85828601610eaf565b9250506020610f3c85828601610ec4565b9150509250929050565b600060208284031215610f5c57610f5b611530565b5b6000610f6a84828501610ec4565b91505092915050565b60008060408385031215610f8a57610f89611530565b5b6000610f9885828601610ec4565b9250506020610fa985828601610ec4565b9150509250929050565b6000610fbf83836110d5565b60208301905092915050565b610fd48161132a565b82525050565b6000610fe5826112e5565b610fef8185611308565b9350610ffa836112d5565b8060005b8381101561102b5781516110128882610fb3565b975061101d836112fb565b925050600181019050610ffe565b5085935050505092915050565b6110418161133c565b82525050565b61105081611385565b82525050565b6000611061826112f0565b61106b8185611319565b935061107b818560208601611397565b61108481611535565b840191505092915050565b600061109c602a83611319565b91506110a782611546565b604082019050919050565b60006110bf601c83611319565b91506110ca82611595565b602082019050919050565b6110de8161137b565b82525050565b6110ed8161137b565b82525050565b60006020820190506111086000830184610fcb565b92915050565b600060208201905081810360008301526111288184610fda565b905092915050565b60006020820190506111456000830184611038565b92915050565b600060a0820190506111606000830188611038565b61116d6020830187611038565b61117a60408301866110e4565b61118760608301856110e4565b61119460808301846110e4565b9695505050505050565b60006060820190506111b36000830186611038565b6111c060208301856110e4565b6111cd60408301846110e4565b949350505050565b60006020820190506111ea6000830184611047565b92915050565b600060208201905081810360008301526112098161108f565b9050919050565b60006020820190508181036000830152611229816110b2565b9050919050565b600060208201905061124560008301846110e4565b92915050565b600060608201905061126060008301866110e4565b81810360208301526112728185611056565b905061128160408301846110e4565b949350505050565b600060808201905061129e60008301876110e4565b81810360208301526112b08186611056565b90506112bf60408301856110e4565b6112cc60608301846110e4565b95945050505050565b6000819050602082019050919050565b600081519050919050565b600081519050919050565b6000602082019050919050565b600082825260208201905092915050565b600082825260208201905092915050565b60006113358261135b565b9050919050565b60008115159050919050565b6000819050611356826115be565b919050565b600073ffffffffffffffffffffffffffffffffffffffff82169050919050565b6000819050919050565b600061139082611348565b9050919050565b60005b838110156113b557808201518184015260208101905061139a565b838111156113c4576000848401525b50505050565b600060028204905060018216806113e257607f821691505b602082108114156113f6576113f56114a3565b5b50919050565b60006114078261137b565b91507fffffffffffffffffffffffffffffffffffffffffffffffffffffffffffffffff82141561143a57611439611445565b5b600182019050919050565b7f4e487b7100000000000000000000000000000000000000000000000000000000600052601160045260246000fd5b7f4e487b7100000000000000000000000000000000000000000000000000000000600052602160045260246000fd5b7f4e487b7100000000000000000000000000000000000000000000000000000000600052602260045260246000fd5b7f4e487b7100000000000000000000000000000000000000000000000000000000600052603260045260246000fd5b7f4e487b7100000000000000000000000000000000000000000000000000000000600052604160045260246000fd5b600080fd5b6000601f19601f8301169050919050565b7f506c656173652070726f7669646520612076616c696420706f6c6c696e67207360008201527f746174696f6e2049442e00000000000000000000000000000000000000000000602082015250565b7f566f74657220697320616c726561647920726567697374657265642e00000000600082015250565b600381106115cf576115ce611474565b5b50565b6115db8161132a565b81146115e657600080fd5b50565b6115f28161137b565b81146115fd57600080fd5b5056fea2646970667358221220eb2839284739b99f83e33a28793ac96a0c9f698c6c4a2fe3c5e944b964fd4fab64736f6c63430008070033",
					"opcodes": "PUSH1 0x80 PUSH1 0x40 MSTORE CALLVALUE DUP1 ISZERO PUSH3 0x11 JUMPI PUSH1 0x0 DUP1 REVERT JUMPDEST POP CALLER PUSH1 0x0 DUP1 PUSH2 0x100 EXP DUP2 SLOAD DUP2 PUSH20 0xFFFFFFFFFFFFFFFFFFFFFFFFFFFFFFFFFFFFFFFF MUL NOT AND SWAP1 DUP4 PUSH20 0xFFFFFFFFFFFFFFFFFFFFFFFFFFFFFFFFFFFFFFFF AND MUL OR SWAP1 SSTORE POP PUSH3 0x62 PUSH3 0xA6 PUSH1 0x20 SHL PUSH1 0x20 SHR JUMP JUMPDEST PUSH3 0x72 PUSH3 0x364 PUSH1 0x20 SHL PUSH1 0x20 SHR JUMP JUMPDEST PUSH1 0x0 PUSH1 0xA PUSH1 0x0 PUSH2 0x100 EXP DUP2 SLOAD DUP2 PUSH1 0xFF MUL NOT AND SWAP1 DUP4 PUSH1 0x2 DUP2 GT ISZERO PUSH3 0x9B JUMPI PUSH3 0x9A PUSH3 0x7CD JUMP JUMPDEST JUMPDEST MUL OR SWAP1 SSTORE POP PUSH3 0x82B JUMP JUMPDEST PUSH3 0xEC PUSH1 0x40 MLOAD DUP1 PUSH1 0x40 ADD PUSH1 0x40 MSTORE DUP1 PUSH1 0x11 DUP2 MSTORE PUSH1 0x20 ADD PUSH32 0x506F6C6C696E672053746174696F6E2031000000000000000000000000000000 DUP2 MSTORE POP PUSH3 0x4C4 PUSH1 0x20 SHL PUSH1 0x20 SHR JUMP JUMPDEST PUSH3 0x132 PUSH1 0x40 MLOAD DUP1 PUSH1 0x40 ADD PUSH1 0x40 MSTORE DUP1 PUSH1 0x11 DUP2 MSTORE PUSH1 0x20 ADD PUSH32 0x506F6C6C696E672053746174696F6E2032000000000000000000000000000000 DUP2 MSTORE POP PUSH3 0x4C4 PUSH1 0x20 SHL PUSH1 0x20 SHR JUMP JUMPDEST PUSH3 0x178 PUSH1 0x40 MLOAD DUP1 PUSH1 0x40 ADD PUSH1 0x40 MSTORE DUP1 PUSH1 0x11 DUP2 MSTORE PUSH1 0x20 ADD PUSH32 0x506F6C6C696E672053746174696F6E2033000000000000000000000000000000 DUP2 MSTORE POP PUSH3 0x4C4 PUSH1 0x20 SHL PUSH1 0x20 SHR JUMP JUMPDEST PUSH3 0x1BE PUSH1 0x40 MLOAD DUP1 PUSH1 0x40 ADD PUSH1 0x40 MSTORE DUP1 PUSH1 0x11 DUP2 MSTORE PUSH1 0x20 ADD PUSH32 0x506F6C6C696E672053746174696F6E2034000000000000000000000000000000 DUP2 MSTORE POP PUSH3 0x4C4 PUSH1 0x20 SHL PUSH1 0x20 SHR JUMP JUMPDEST PUSH3 0x204 PUSH1 0x40 MLOAD DUP1 PUSH1 0x40 ADD PUSH1 0x40 MSTORE DUP1 PUSH1 0x11 DUP2 MSTORE PUSH1 0x20 ADD PUSH32 0x506F6C6C696E672053746174696F6E2035000000000000000000000000000000 DUP2 MSTORE POP PUSH3 0x4C4 PUSH1 0x20 SHL PUSH1 0x20 SHR JUMP JUMPDEST PUSH3 0x24A PUSH1 0x40 MLOAD DUP1 PUSH1 0x40 ADD PUSH1 0x40 MSTORE DUP1 PUSH1 0x11 DUP2 MSTORE PUSH1 0x20 ADD PUSH32 0x506F6C6C696E672053746174696F6E2036000000000000000000000000000000 DUP2 MSTORE POP PUSH3 0x4C4 PUSH1 0x20 SHL PUSH1 0x20 SHR JUMP JUMPDEST PUSH3 0x290 PUSH1 0x40 MLOAD DUP1 PUSH1 0x40 ADD PUSH1 0x40 MSTORE DUP1 PUSH1 0x11 DUP2 MSTORE PUSH1 0x20 ADD PUSH32 0x506F6C6C696E672053746174696F6E2037000000000000000000000000000000 DUP2 MSTORE POP PUSH3 0x4C4 PUSH1 0x20 SHL PUSH1 0x20 SHR JUMP JUMPDEST PUSH3 0x2D6 PUSH1 0x40 MLOAD DUP1 PUSH1 0x40 ADD PUSH1 0x40 MSTORE DUP1 PUSH1 0x11 DUP2 MSTORE PUSH1 0x20 ADD PUSH32 0x506F6C6C696E672053746174696F6E2038000000000000000000000000000000 DUP2 MSTORE POP PUSH3 0x4C4 PUSH1 0x20 SHL PUSH1 0x20 SHR JUMP JUMPDEST PUSH3 0x31C PUSH1 0x40 MLOAD DUP1 PUSH1 0x40 ADD PUSH1 0x40 MSTORE DUP1 PUSH1 0x11 DUP2 MSTORE PUSH1 0x20 ADD PUSH32 0x506F6C6C696E672053746174696F6E2039000000000000000000000000000000 DUP2 MSTORE POP PUSH3 0x4C4 PUSH1 0x20 SHL PUSH1 0x20 SHR JUMP JUMPDEST PUSH3 0x362 PUSH1 0x40 MLOAD DUP1 PUSH1 0x40 ADD PUSH1 0x40 MSTORE DUP1 PUSH1 0x12 DUP2 MSTORE PUSH1 0x20 ADD PUSH32 0x506F6C6C696E672053746174696F6E2031300000000000000000000000000000 DUP2 MSTORE POP PUSH3 0x4C4 PUSH1 0x20 SHL PUSH1 0x20 SHR JUMP JUMPDEST JUMP JUMPDEST PUSH3 0x3AA PUSH1 0x40 MLOAD DUP1 PUSH1 0x40 ADD PUSH1 0x40 MSTORE DUP1 PUSH1 0xB DUP2 MSTORE PUSH1 0x20 ADD PUSH32 0x43616E6469646174652031000000000000000000000000000000000000000000 DUP2 MSTORE POP PUSH3 0x535 PUSH1 0x20 SHL PUSH1 0x20 SHR JUMP JUMPDEST PUSH3 0x3F0 PUSH1 0x40 MLOAD DUP1 PUSH1 0x40 ADD PUSH1 0x40 MSTORE DUP1 PUSH1 0xB DUP2 MSTORE PUSH1 0x20 ADD PUSH32 0x43616E6469646174652032000000000000000000000000000000000000000000 DUP2 MSTORE POP PUSH3 0x535 PUSH1 0x20 SHL PUSH1 0x20 SHR JUMP JUMPDEST PUSH3 0x436 PUSH1 0x40 MLOAD DUP1 PUSH1 0x40 ADD PUSH1 0x40 MSTORE DUP1 PUSH1 0xB DUP2 MSTORE PUSH1 0x20 ADD PUSH32 0x43616E6469646174652033000000000000000000000000000000000000000000 DUP2 MSTORE POP PUSH3 0x535 PUSH1 0x20 SHL PUSH1 0x20 SHR JUMP JUMPDEST PUSH3 0x47C PUSH1 0x40 MLOAD DUP1 PUSH1 0x40 ADD PUSH1 0x40 MSTORE DUP1 PUSH1 0xB DUP2 MSTORE PUSH1 0x20 ADD PUSH32 0x43616E6469646174652034000000000000000000000000000000000000000000 DUP2 MSTORE POP PUSH3 0x535 PUSH1 0x20 SHL PUSH1 0x20 SHR JUMP JUMPDEST PUSH3 0x4C2 PUSH1 0x40 MLOAD DUP1 PUSH1 0x40 ADD PUSH1 0x40 MSTORE DUP1 PUSH1 0xB DUP2 MSTORE PUSH1 0x20 ADD PUSH32 0x43616E6469646174652035000000000000000000000000000000000000000000 DUP2 MSTORE POP PUSH3 0x535 PUSH1 0x20 SHL PUSH1 0x20 SHR JUMP JUMPDEST JUMP JUMPDEST PUSH1 0x2 PUSH1 0x0 DUP2 SLOAD DUP1 SWAP3 SWAP2 SWAP1 PUSH3 0x4D9 SWAP1 PUSH3 0x750 JUMP JUMPDEST SWAP2 SWAP1 POP SSTORE POP PUSH1 0x0 PUSH1 0x7 PUSH1 0x0 PUSH1 0x2 SLOAD DUP2 MSTORE PUSH1 0x20 ADD SWAP1 DUP2 MSTORE PUSH1 0x20 ADD PUSH1 0x0 KECCAK256 SWAP1 POP PUSH1 0x2 SLOAD DUP2 PUSH1 0x0 ADD DUP2 SWAP1 SSTORE POP DUP2 DUP2 PUSH1 0x1 ADD SWAP1 DUP1 MLOAD SWAP1 PUSH1 0x20 ADD SWAP1 PUSH3 0x51C SWAP3 SWAP2 SWAP1 PUSH3 0x660 JUMP JUMPDEST POP PUSH1 0x0 DUP2 PUSH1 0x2 ADD DUP2 SWAP1 SSTORE POP PUSH1 0x0 DUP2 PUSH1 0x3 ADD DUP2 SWAP1 SSTORE POP POP POP JUMP JUMPDEST PUSH1 0x1 PUSH1 0x0 DUP2 SLOAD DUP1 SWAP3 SWAP2 SWAP1 PUSH3 0x54A SWAP1 PUSH3 0x750 JUMP JUMPDEST SWAP2 SWAP1 POP SSTORE POP PUSH1 0x40 MLOAD DUP1 PUSH1 0x60 ADD PUSH1 0x40 MSTORE DUP1 PUSH1 0x1 SLOAD DUP2 MSTORE PUSH1 0x20 ADD DUP3 DUP2 MSTORE PUSH1 0x20 ADD PUSH1 0x0 DUP2 MSTORE POP PUSH1 0x6 PUSH1 0x0 PUSH1 0x1 SLOAD DUP2 MSTORE PUSH1 0x20 ADD SWAP1 DUP2 MSTORE PUSH1 0x20 ADD PUSH1 0x0 KECCAK256 PUSH1 0x0 DUP3 ADD MLOAD DUP2 PUSH1 0x0 ADD SSTORE PUSH1 0x20 DUP3 ADD MLOAD DUP2 PUSH1 0x1 ADD SWAP1 DUP1 MLOAD SWAP1 PUSH1 0x20 ADD SWAP1 PUSH3 0x5AA SWAP3 SWAP2 SWAP1 PUSH3 0x660 JUMP JUMPDEST POP PUSH1 0x40 DUP3 ADD MLOAD DUP2 PUSH1 0x2 ADD SSTORE SWAP1 POP POP PUSH1 0x0 PUSH1 0x1 SWAP1 POP JUMPDEST PUSH1 0x2 SLOAD DUP2 GT PUSH3 0x65C JUMPI PUSH1 0x40 MLOAD DUP1 PUSH1 0x60 ADD PUSH1 0x40 MSTORE DUP1 PUSH1 0x1 SLOAD DUP2 MSTORE PUSH1 0x20 ADD DUP4 DUP2 MSTORE PUSH1 0x20 ADD PUSH1 0x0 DUP2 MSTORE POP PUSH1 0x7 PUSH1 0x0 DUP4 DUP2 MSTORE PUSH1 0x20 ADD SWAP1 DUP2 MSTORE PUSH1 0x20 ADD PUSH1 0x0 KECCAK256 PUSH1 0x4 ADD PUSH1 0x0 PUSH1 0x1 SLOAD DUP2 MSTORE PUSH1 0x20 ADD SWAP1 DUP2 MSTORE PUSH1 0x20 ADD PUSH1 0x0 KECCAK256 PUSH1 0x0 DUP3 ADD MLOAD DUP2 PUSH1 0x0 ADD SSTORE PUSH1 0x20 DUP3 ADD MLOAD DUP2 PUSH1 0x1 ADD SWAP1 DUP1 MLOAD SWAP1 PUSH1 0x20 ADD SWAP1 PUSH3 0x638 SWAP3 SWAP2 SWAP1 PUSH3 0x660 JUMP JUMPDEST POP PUSH1 0x40 DUP3 ADD MLOAD DUP2 PUSH1 0x2 ADD SSTORE SWAP1 POP POP DUP1 DUP1 PUSH3 0x653 SWAP1 PUSH3 0x750 JUMP JUMPDEST SWAP2 POP POP PUSH3 0x5BF JUMP JUMPDEST POP POP JUMP JUMPDEST DUP3 DUP1 SLOAD PUSH3 0x66E SWAP1 PUSH3 0x71A JUMP JUMPDEST SWAP1 PUSH1 0x0 MSTORE PUSH1 0x20 PUSH1 0x0 KECCAK256 SWAP1 PUSH1 0x1F ADD PUSH1 0x20 SWAP1 DIV DUP2 ADD SWAP3 DUP3 PUSH3 0x692 JUMPI PUSH1 0x0 DUP6 SSTORE PUSH3 0x6DE JUMP JUMPDEST DUP3 PUSH1 0x1F LT PUSH3 0x6AD JUMPI DUP1 MLOAD PUSH1 0xFF NOT AND DUP4 DUP1 ADD OR DUP6 SSTORE PUSH3 0x6DE JUMP JUMPDEST DUP3 DUP1 ADD PUSH1 0x1 ADD DUP6 SSTORE DUP3 ISZERO PUSH3 0x6DE JUMPI SWAP2 DUP3 ADD JUMPDEST DUP3 DUP2 GT ISZERO PUSH3 0x6DD JUMPI DUP3 MLOAD DUP3 SSTORE SWAP2 PUSH1 0x20 ADD SWAP2 SWAP1 PUSH1 0x1 ADD SWAP1 PUSH3 0x6C0 JUMP JUMPDEST JUMPDEST POP SWAP1 POP PUSH3 0x6ED SWAP2 SWAP1 PUSH3 0x6F1 JUMP JUMPDEST POP SWAP1 JUMP JUMPDEST JUMPDEST DUP1 DUP3 GT ISZERO PUSH3 0x70C JUMPI PUSH1 0x0 DUP2 PUSH1 0x0 SWAP1 SSTORE POP PUSH1 0x1 ADD PUSH3 0x6F2 JUMP JUMPDEST POP SWAP1 JUMP JUMPDEST PUSH1 0x0 DUP2 SWAP1 POP SWAP2 SWAP1 POP JUMP JUMPDEST PUSH1 0x0 PUSH1 0x2 DUP3 DIV SWAP1 POP PUSH1 0x1 DUP3 AND DUP1 PUSH3 0x733 JUMPI PUSH1 0x7F DUP3 AND SWAP2 POP JUMPDEST PUSH1 0x20 DUP3 LT DUP2 EQ ISZERO PUSH3 0x74A JUMPI PUSH3 0x749 PUSH3 0x7FC JUMP JUMPDEST JUMPDEST POP SWAP2 SWAP1 POP JUMP JUMPDEST PUSH1 0x0 PUSH3 0x75D DUP3 PUSH3 0x710 JUMP JUMPDEST SWAP2 POP PUSH32 0xFFFFFFFFFFFFFFFFFFFFFFFFFFFFFFFFFFFFFFFFFFFFFFFFFFFFFFFFFFFFFFFF DUP3 EQ ISZERO PUSH3 0x793 JUMPI PUSH3 0x792 PUSH3 0x79E JUMP JUMPDEST JUMPDEST PUSH1 0x1 DUP3 ADD SWAP1 POP SWAP2 SWAP1 POP JUMP JUMPDEST PUSH32 0x4E487B7100000000000000000000000000000000000000000000000000000000 PUSH1 0x0 MSTORE PUSH1 0x11 PUSH1 0x4 MSTORE PUSH1 0x24 PUSH1 0x0 REVERT JUMPDEST PUSH32 0x4E487B7100000000000000000000000000000000000000000000000000000000 PUSH1 0x0 MSTORE PUSH1 0x21 PUSH1 0x4 MSTORE PUSH1 0x24 PUSH1 0x0 REVERT JUMPDEST PUSH32 0x4E487B7100000000000000000000000000000000000000000000000000000000 PUSH1 0x0 MSTORE PUSH1 0x22 PUSH1 0x4 MSTORE PUSH1 0x24 PUSH1 0x0 REVERT JUMPDEST PUSH2 0x1636 DUP1 PUSH3 0x83B PUSH1 0x0 CODECOPY PUSH1 0x0 RETURN INVALID PUSH1 0x80 PUSH1 0x40 MSTORE CALLVALUE DUP1 ISZERO PUSH2 0x10 JUMPI PUSH1 0x0 DUP1 REVERT JUMPDEST POP PUSH1 0x4 CALLDATASIZE LT PUSH2 0xF4 JUMPI PUSH1 0x0 CALLDATALOAD PUSH1 0xE0 SHR DUP1 PUSH4 0x53357AD0 GT PUSH2 0x97 JUMPI DUP1 PUSH4 0xC19D93FB GT PUSH2 0x66 JUMPI DUP1 PUSH4 0xC19D93FB EQ PUSH2 0x279 JUMPI DUP1 PUSH4 0xDF9F1A07 EQ PUSH2 0x297 JUMPI DUP1 PUSH4 0xF3A8286F EQ PUSH2 0x2B5 JUMPI DUP1 PUSH4 0xFE2442D7 EQ PUSH2 0x2D3 JUMPI PUSH2 0xF4 JUMP JUMPDEST DUP1 PUSH4 0x53357AD0 EQ PUSH2 0x205 JUMPI DUP1 PUSH4 0xA3EC138D EQ PUSH2 0x223 JUMPI DUP1 PUSH4 0xB9223946 EQ PUSH2 0x253 JUMPI DUP1 PUSH4 0xB9F05F2F EQ PUSH2 0x25D JUMPI PUSH2 0xF4 JUMP JUMPDEST DUP1 PUSH4 0x2D35A8A2 GT PUSH2 0xD3 JUMPI DUP1 PUSH4 0x2D35A8A2 EQ PUSH2 0x177 JUMPI DUP1 PUSH4 0x3477EE2E EQ PUSH2 0x195 JUMPI DUP1 PUSH4 0x4763D4E7 EQ PUSH2 0x1C7 JUMPI DUP1 PUSH4 0x4C0A6AF0 EQ PUSH2 0x1FB JUMPI PUSH2 0xF4 JUMP JUMPDEST DUP1 PUSH3 0xAA7464 EQ PUSH2 0xF9 JUMPI DUP1 PUSH4 0x23A1B11C EQ PUSH2 0x117 JUMPI DUP1 PUSH4 0x2C0A3F89 EQ PUSH2 0x147 JUMPI JUMPDEST PUSH1 0x0 DUP1 REVERT JUMPDEST PUSH2 0x101 PUSH2 0x306 JUMP JUMPDEST PUSH1 0x40 MLOAD PUSH2 0x10E SWAP2 SWAP1 PUSH2 0x1230 JUMP JUMPDEST PUSH1 0x40 MLOAD DUP1 SWAP2 SUB SWAP1 RETURN JUMPDEST PUSH2 0x131 PUSH1 0x4 DUP1 CALLDATASIZE SUB DUP2 ADD SWAP1 PUSH2 0x12C SWAP2 SWAP1 PUSH2 0xF46 JUMP JUMPDEST PUSH2 0x30C JUMP JUMPDEST PUSH1 0x40 MLOAD PUSH2 0x13E SWAP2 SWAP1 PUSH2 0x110E JUMP JUMPDEST PUSH1 0x40 MLOAD DUP1 SWAP2 SUB SWAP1 RETURN JUMPDEST PUSH2 0x161 PUSH1 0x4 DUP1 CALLDATASIZE SUB DUP2 ADD SWAP1 PUSH2 0x15C SWAP2 SWAP1 PUSH2 0xF73 JUMP JUMPDEST PUSH2 0x48B JUMP JUMPDEST PUSH1 0x40 MLOAD PUSH2 0x16E SWAP2 SWAP1 PUSH2 0x1130 JUMP JUMPDEST PUSH1 0x40 MLOAD DUP1 SWAP2 SUB SWAP1 RETURN JUMPDEST PUSH2 0x17F PUSH2 0x7B9 JUMP JUMPDEST PUSH1 0x40 MLOAD PUSH2 0x18C SWAP2 SWAP1 PUSH2 0x1230 JUMP JUMPDEST PUSH1 0x40 MLOAD DUP1 SWAP2 SUB SWAP1 RETURN JUMPDEST PUSH2 0x1AF PUSH1 0x4 DUP1 CALLDATASIZE SUB DUP2 ADD SWAP1 PUSH2 0x1AA SWAP2 SWAP1 PUSH2 0xF46 JUMP JUMPDEST PUSH2 0x7BF JUMP JUMPDEST PUSH1 0x40 MLOAD PUSH2 0x1BE SWAP4 SWAP3 SWAP2 SWAP1 PUSH2 0x124B JUMP JUMPDEST PUSH1 0x40 MLOAD DUP1 SWAP2 SUB SWAP1 RETURN JUMPDEST PUSH2 0x1E1 PUSH1 0x4 DUP1 CALLDATASIZE SUB DUP2 ADD SWAP1 PUSH2 0x1DC SWAP2 SWAP1 PUSH2 0xED9 JUMP JUMPDEST PUSH2 0x871 JUMP JUMPDEST PUSH1 0x40 MLOAD PUSH2 0x1F2 SWAP6 SWAP5 SWAP4 SWAP3 SWAP2 SWAP1 PUSH2 0x114B JUMP JUMPDEST PUSH1 0x40 MLOAD DUP1 SWAP2 SUB SWAP1 RETURN JUMPDEST PUSH2 0x203 PUSH2 0x8C1 JUMP JUMPDEST STOP JUMPDEST PUSH2 0x20D PUSH2 0x988 JUMP JUMPDEST PUSH1 0x40 MLOAD PUSH2 0x21A SWAP2 SWAP1 PUSH2 0x10F3 JUMP JUMPDEST PUSH1 0x40 MLOAD DUP1 SWAP2 SUB SWAP1 RETURN JUMPDEST PUSH2 0x23D PUSH1 0x4 DUP1 CALLDATASIZE SUB DUP2 ADD SWAP1 PUSH2 0x238 SWAP2 SWAP1 PUSH2 0xED9 JUMP JUMPDEST PUSH2 0x9AC JUMP JUMPDEST PUSH1 0x40 MLOAD PUSH2 0x24A SWAP2 SWAP1 PUSH2 0x1130 JUMP JUMPDEST PUSH1 0x40 MLOAD DUP1 SWAP2 SUB SWAP1 RETURN JUMPDEST PUSH2 0x25B PUSH2 0x9CC JUMP JUMPDEST STOP JUMPDEST PUSH2 0x277 PUSH1 0x4 DUP1 CALLDATASIZE SUB DUP2 ADD SWAP1 PUSH2 0x272 SWAP2 SWAP1 PUSH2 0xF06 JUMP JUMPDEST PUSH2 0xA9C JUMP JUMPDEST STOP JUMPDEST PUSH2 0x281 PUSH2 0xD2F JUMP JUMPDEST PUSH1 0x40 MLOAD PUSH2 0x28E SWAP2 SWAP1 PUSH2 0x11D5 JUMP JUMPDEST PUSH1 0x40 MLOAD DUP1 SWAP2 SUB SWAP1 RETURN JUMPDEST PUSH2 0x29F PUSH2 0xD42 JUMP JUMPDEST PUSH1 0x40 MLOAD PUSH2 0x2AC SWAP2 SWAP1 PUSH2 0x1230 JUMP JUMPDEST PUSH1 0x40 MLOAD DUP1 SWAP2 SUB SWAP1 RETURN JUMPDEST PUSH2 0x2BD PUSH2 0xD48 JUMP JUMPDEST PUSH1 0x40 MLOAD PUSH2 0x2CA SWAP2 SWAP1 PUSH2 0x1230 JUMP JUMPDEST PUSH1 0x40 MLOAD DUP1 SWAP2 SUB SWAP1 RETURN JUMPDEST PUSH2 0x2ED PUSH1 0x4 DUP1 CALLDATASIZE SUB DUP2 ADD SWAP1 PUSH2 0x2E8 SWAP2 SWAP1 PUSH2 0xF46 JUMP JUMPDEST PUSH2 0xD4E JUMP JUMPDEST PUSH1 0x40 MLOAD PUSH2 0x2FD SWAP5 SWAP4 SWAP3 SWAP2 SWAP1 PUSH2 0x1289 JUMP JUMPDEST PUSH1 0x40 MLOAD DUP1 SWAP2 SUB SWAP1 RETURN JUMPDEST PUSH1 0x3 SLOAD DUP2 JUMP JUMPDEST PUSH1 0x60 PUSH1 0x0 PUSH1 0x1 SLOAD PUSH8 0xFFFFFFFFFFFFFFFF DUP2 GT ISZERO PUSH2 0x32C JUMPI PUSH2 0x32B PUSH2 0x1501 JUMP JUMPDEST JUMPDEST PUSH1 0x40 MLOAD SWAP1 DUP1 DUP3 MSTORE DUP1 PUSH1 0x20 MUL PUSH1 0x20 ADD DUP3 ADD PUSH1 0x40 MSTORE DUP1 ISZERO PUSH2 0x35A JUMPI DUP2 PUSH1 0x20 ADD PUSH1 0x20 DUP3 MUL DUP1 CALLDATASIZE DUP4 CALLDATACOPY DUP1 DUP3 ADD SWAP2 POP POP SWAP1 POP JUMPDEST POP SWAP1 POP PUSH1 0x0 PUSH1 0x1 SWAP1 POP JUMPDEST PUSH1 0x1 SLOAD DUP2 GT PUSH2 0x481 JUMPI PUSH1 0x0 PUSH1 0x7 PUSH1 0x0 DUP7 DUP2 MSTORE PUSH1 0x20 ADD SWAP1 DUP2 MSTORE PUSH1 0x20 ADD PUSH1 0x0 KECCAK256 PUSH1 0x4 ADD PUSH1 0x0 DUP4 DUP2 MSTORE PUSH1 0x20 ADD SWAP1 DUP2 MSTORE PUSH1 0x20 ADD PUSH1 0x0 KECCAK256 PUSH1 0x40 MLOAD DUP1 PUSH1 0x60 ADD PUSH1 0x40 MSTORE SWAP1 DUP2 PUSH1 0x0 DUP3 ADD SLOAD DUP2 MSTORE PUSH1 0x20 ADD PUSH1 0x1 DUP3 ADD DUP1 SLOAD PUSH2 0x3BB SWAP1 PUSH2 0x13CA JUMP JUMPDEST DUP1 PUSH1 0x1F ADD PUSH1 0x20 DUP1 SWAP2 DIV MUL PUSH1 0x20 ADD PUSH1 0x40 MLOAD SWAP1 DUP2 ADD PUSH1 0x40 MSTORE DUP1 SWAP3 SWAP2 SWAP1 DUP2 DUP2 MSTORE PUSH1 0x20 ADD DUP3 DUP1 SLOAD PUSH2 0x3E7 SWAP1 PUSH2 0x13CA JUMP JUMPDEST DUP1 ISZERO PUSH2 0x434 JUMPI DUP1 PUSH1 0x1F LT PUSH2 0x409 JUMPI PUSH2 0x100 DUP1 DUP4 SLOAD DIV MUL DUP4 MSTORE SWAP2 PUSH1 0x20 ADD SWAP2 PUSH2 0x434 JUMP JUMPDEST DUP3 ADD SWAP2 SWAP1 PUSH1 0x0 MSTORE PUSH1 0x20 PUSH1 0x0 KECCAK256 SWAP1 JUMPDEST DUP2 SLOAD DUP2 MSTORE SWAP1 PUSH1 0x1 ADD SWAP1 PUSH1 0x20 ADD DUP1 DUP4 GT PUSH2 0x417 JUMPI DUP3 SWAP1 SUB PUSH1 0x1F AND DUP3 ADD SWAP2 JUMPDEST POP POP POP POP POP DUP2 MSTORE PUSH1 0x20 ADD PUSH1 0x2 DUP3 ADD SLOAD DUP2 MSTORE POP POP SWAP1 POP DUP1 PUSH1 0x40 ADD MLOAD DUP4 DUP4 DUP2 MLOAD DUP2 LT PUSH2 0x461 JUMPI PUSH2 0x460 PUSH2 0x14D2 JUMP JUMPDEST JUMPDEST PUSH1 0x20 MUL PUSH1 0x20 ADD ADD DUP2 DUP2 MSTORE POP POP POP DUP1 DUP1 PUSH2 0x479 SWAP1 PUSH2 0x13FC JUMP JUMPDEST SWAP2 POP POP PUSH2 0x364 JUMP JUMPDEST POP DUP1 SWAP2 POP POP SWAP2 SWAP1 POP JUMP JUMPDEST PUSH1 0x0 PUSH1 0x1 DUP1 PUSH1 0x2 DUP2 GT ISZERO PUSH2 0x4A2 JUMPI PUSH2 0x4A1 PUSH2 0x1474 JUMP JUMPDEST JUMPDEST PUSH1 0xA PUSH1 0x0 SWAP1 SLOAD SWAP1 PUSH2 0x100 EXP SWAP1 DIV PUSH1 0xFF AND PUSH1 0x2 DUP2 GT ISZERO PUSH2 0x4C4 JUMPI PUSH2 0x4C3 PUSH2 0x1474 JUMP JUMPDEST JUMPDEST EQ PUSH2 0x4CE JUMPI PUSH1 0x0 DUP1 REVERT JUMPDEST PUSH1 0x0 PUSH1 0x8 PUSH1 0x0 CALLER PUSH20 0xFFFFFFFFFFFFFFFFFFFFFFFFFFFFFFFFFFFFFFFF AND PUSH20 0xFFFFFFFFFFFFFFFFFFFFFFFFFFFFFFFFFFFFFFFF AND DUP2 MSTORE PUSH1 0x20 ADD SWAP1 DUP2 MSTORE PUSH1 0x20 ADD PUSH1 0x0 KECCAK256 PUSH1 0x0 ADD PUSH1 0x0 SWAP1 SLOAD SWAP1 PUSH2 0x100 EXP SWAP1 DIV PUSH1 0xFF AND DUP1 ISZERO PUSH2 0x579 JUMPI POP PUSH1 0x8 PUSH1 0x0 CALLER PUSH20 0xFFFFFFFFFFFFFFFFFFFFFFFFFFFFFFFFFFFFFFFF AND PUSH20 0xFFFFFFFFFFFFFFFFFFFFFFFFFFFFFFFFFFFFFFFF AND DUP2 MSTORE PUSH1 0x20 ADD SWAP1 DUP2 MSTORE PUSH1 0x20 ADD PUSH1 0x0 KECCAK256 PUSH1 0x0 ADD PUSH1 0x1 SWAP1 SLOAD SWAP1 PUSH2 0x100 EXP SWAP1 DIV PUSH1 0xFF AND ISZERO JUMPDEST ISZERO PUSH2 0x7AE JUMPI DUP5 PUSH1 0x8 PUSH1 0x0 CALLER PUSH20 0xFFFFFFFFFFFFFFFFFFFFFFFFFFFFFFFFFFFFFFFF AND PUSH20 0xFFFFFFFFFFFFFFFFFFFFFFFFFFFFFFFFFFFFFFFF AND DUP2 MSTORE PUSH1 0x20 ADD SWAP1 DUP2 MSTORE PUSH1 0x20 ADD PUSH1 0x0 KECCAK256 PUSH1 0x1 ADD DUP2 SWAP1 SSTORE POP DUP4 PUSH1 0x8 PUSH1 0x0 CALLER PUSH20 0xFFFFFFFFFFFFFFFFFFFFFFFFFFFFFFFFFFFFFFFF AND PUSH20 0xFFFFFFFFFFFFFFFFFFFFFFFFFFFFFFFFFFFFFFFF AND DUP2 MSTORE PUSH1 0x20 ADD SWAP1 DUP2 MSTORE PUSH1 0x20 ADD PUSH1 0x0 KECCAK256 PUSH1 0x3 ADD DUP2 SWAP1 SSTORE POP PUSH1 0x1 PUSH1 0x8 PUSH1 0x0 CALLER PUSH20 0xFFFFFFFFFFFFFFFFFFFFFFFFFFFFFFFFFFFFFFFF AND PUSH20 0xFFFFFFFFFFFFFFFFFFFFFFFFFFFFFFFFFFFFFFFF AND DUP2 MSTORE PUSH1 0x20 ADD SWAP1 DUP2 MSTORE PUSH1 0x20 ADD PUSH1 0x0 KECCAK256 PUSH1 0x0 ADD PUSH1 0x1 PUSH2 0x100 EXP DUP2 SLOAD DUP2 PUSH1 0xFF MUL NOT AND SWAP1 DUP4 ISZERO ISZERO MUL OR SWAP1 SSTORE POP PUSH1 0x7 PUSH1 0x0 DUP6 DUP2 MSTORE PUSH1 0x20 ADD SWAP1 DUP2 MSTORE PUSH1 0x20 ADD PUSH1 0x0 KECCAK256 PUSH1 0x3 ADD PUSH1 0x0 DUP2 SLOAD DUP1 SWAP3 SWAP2 SWAP1 PUSH2 0x68E SWAP1 PUSH2 0x13FC JUMP JUMPDEST SWAP2 SWAP1 POP SSTORE POP PUSH1 0x6 PUSH1 0x0 DUP7 DUP2 MSTORE PUSH1 0x20 ADD SWAP1 DUP2 MSTORE PUSH1 0x20 ADD PUSH1 0x0 KECCAK256 PUSH1 0x2 ADD PUSH1 0x0 DUP2 SLOAD DUP1 SWAP3 SWAP2 SWAP1 PUSH2 0x6BA SWAP1 PUSH2 0x13FC JUMP JUMPDEST SWAP2 SWAP1 POP SSTORE POP PUSH1 0x4 PUSH1 0x0 DUP2 SLOAD DUP1 SWAP3 SWAP2 SWAP1 PUSH2 0x6D2 SWAP1 PUSH2 0x13FC JUMP JUMPDEST SWAP2 SWAP1 POP SSTORE POP PUSH1 0x1 SWAP1 POP DUP1 PUSH1 0x9 PUSH1 0x0 CALLER PUSH20 0xFFFFFFFFFFFFFFFFFFFFFFFFFFFFFFFFFFFFFFFF AND PUSH20 0xFFFFFFFFFFFFFFFFFFFFFFFFFFFFFFFFFFFFFFFF AND DUP2 MSTORE PUSH1 0x20 ADD SWAP1 DUP2 MSTORE PUSH1 0x20 ADD PUSH1 0x0 KECCAK256 PUSH1 0x0 PUSH2 0x100 EXP DUP2 SLOAD DUP2 PUSH1 0xFF MUL NOT AND SWAP1 DUP4 ISZERO ISZERO MUL OR SWAP1 SSTORE POP PUSH1 0x7 PUSH1 0x0 DUP6 DUP2 MSTORE PUSH1 0x20 ADD SWAP1 DUP2 MSTORE PUSH1 0x20 ADD PUSH1 0x0 KECCAK256 PUSH1 0x4 ADD PUSH1 0x0 DUP7 DUP2 MSTORE PUSH1 0x20 ADD SWAP1 DUP2 MSTORE PUSH1 0x20 ADD PUSH1 0x0 KECCAK256 PUSH1 0x2 ADD PUSH1 0x0 DUP2 SLOAD DUP1 SWAP3 SWAP2 SWAP1 PUSH2 0x76D SWAP1 PUSH2 0x13FC JUMP JUMPDEST SWAP2 SWAP1 POP SSTORE POP PUSH32 0x29A25B3D0B6FF7E5DE2A60A2E8E76D1BDAF4894EC18C598CC1687213F442C5CB DUP2 DUP7 DUP7 PUSH1 0x40 MLOAD PUSH2 0x7A5 SWAP4 SWAP3 SWAP2 SWAP1 PUSH2 0x119E JUMP JUMPDEST PUSH1 0x40 MLOAD DUP1 SWAP2 SUB SWAP1 LOG1 JUMPDEST DUP1 SWAP3 POP POP POP SWAP3 SWAP2 POP POP JUMP JUMPDEST PUSH1 0x1 SLOAD DUP2 JUMP JUMPDEST PUSH1 0x6 PUSH1 0x20 MSTORE DUP1 PUSH1 0x0 MSTORE PUSH1 0x40 PUSH1 0x0 KECCAK256 PUSH1 0x0 SWAP2 POP SWAP1 POP DUP1 PUSH1 0x0 ADD SLOAD SWAP1 DUP1 PUSH1 0x1 ADD DUP1 SLOAD PUSH2 0x7E8 SWAP1 PUSH2 0x13CA JUMP JUMPDEST DUP1 PUSH1 0x1F ADD PUSH1 0x20 DUP1 SWAP2 DIV MUL PUSH1 0x20 ADD PUSH1 0x40 MLOAD SWAP1 DUP2 ADD PUSH1 0x40 MSTORE DUP1 SWAP3 SWAP2 SWAP1 DUP2 DUP2 MSTORE PUSH1 0x20 ADD DUP3 DUP1 SLOAD PUSH2 0x814 SWAP1 PUSH2 0x13CA JUMP JUMPDEST DUP1 ISZERO PUSH2 0x861 JUMPI DUP1 PUSH1 0x1F LT PUSH2 0x836 JUMPI PUSH2 0x100 DUP1 DUP4 SLOAD DIV MUL DUP4 MSTORE SWAP2 PUSH1 0x20 ADD SWAP2 PUSH2 0x861 JUMP JUMPDEST DUP3 ADD SWAP2 SWAP1 PUSH1 0x0 MSTORE PUSH1 0x20 PUSH1 0x0 KECCAK256 SWAP1 JUMPDEST DUP2 SLOAD DUP2 MSTORE SWAP1 PUSH1 0x1 ADD SWAP1 PUSH1 0x20 ADD DUP1 DUP4 GT PUSH2 0x844 JUMPI DUP3 SWAP1 SUB PUSH1 0x1F AND DUP3 ADD SWAP2 JUMPDEST POP POP POP POP POP SWAP1 DUP1 PUSH1 0x2 ADD SLOAD SWAP1 POP DUP4 JUMP JUMPDEST PUSH1 0x8 PUSH1 0x20 MSTORE DUP1 PUSH1 0x0 MSTORE PUSH1 0x40 PUSH1 0x0 KECCAK256 PUSH1 0x0 SWAP2 POP SWAP1 POP DUP1 PUSH1 0x0 ADD PUSH1 0x0 SWAP1 SLOAD SWAP1 PUSH2 0x100 EXP SWAP1 DIV PUSH1 0xFF AND SWAP1 DUP1 PUSH1 0x0 ADD PUSH1 0x1 SWAP1 SLOAD SWAP1 PUSH2 0x100 EXP SWAP1 DIV PUSH1 0xFF AND SWAP1 DUP1 PUSH1 0x1 ADD SLOAD SWAP1 DUP1 PUSH1 0x2 ADD SLOAD SWAP1 DUP1 PUSH1 0x3 ADD SLOAD SWAP1 POP DUP6 JUMP JUMPDEST PUSH1 0x0 DUP1 PUSH1 0x2 DUP2 GT ISZERO PUSH2 0x8D6 JUMPI PUSH2 0x8D5 PUSH2 0x1474 JUMP JUMPDEST JUMPDEST PUSH1 0xA PUSH1 0x0 SWAP1 SLOAD SWAP1 PUSH2 0x100 EXP SWAP1 DIV PUSH1 0xFF AND PUSH1 0x2 DUP2 GT ISZERO PUSH2 0x8F8 JUMPI PUSH2 0x8F7 PUSH2 0x1474 JUMP JUMPDEST JUMPDEST EQ PUSH2 0x902 JUMPI PUSH1 0x0 DUP1 REVERT JUMPDEST PUSH1 0x0 DUP1 SLOAD SWAP1 PUSH2 0x100 EXP SWAP1 DIV PUSH20 0xFFFFFFFFFFFFFFFFFFFFFFFFFFFFFFFFFFFFFFFF AND PUSH20 0xFFFFFFFFFFFFFFFFFFFFFFFFFFFFFFFFFFFFFFFF AND CALLER PUSH20 0xFFFFFFFFFFFFFFFFFFFFFFFFFFFFFFFFFFFFFFFF AND EQ PUSH2 0x95A JUMPI PUSH1 0x0 DUP1 REVERT JUMPDEST PUSH1 0x1 PUSH1 0xA PUSH1 0x0 PUSH2 0x100 EXP DUP2 SLOAD DUP2 PUSH1 0xFF MUL NOT AND SWAP1 DUP4 PUSH1 0x2 DUP2 GT ISZERO PUSH2 0x980 JUMPI PUSH2 0x97F PUSH2 0x1474 JUMP JUMPDEST JUMPDEST MUL OR SWAP1 SSTORE POP POP JUMP JUMPDEST PUSH1 0x0 DUP1 SLOAD SWAP1 PUSH2 0x100 EXP SWAP1 DIV PUSH20 0xFFFFFFFFFFFFFFFFFFFFFFFFFFFFFFFFFFFFFFFF AND DUP2 JUMP JUMPDEST PUSH1 0x9 PUSH1 0x20 MSTORE DUP1 PUSH1 0x0 MSTORE PUSH1 0x40 PUSH1 0x0 KECCAK256 PUSH1 0x0 SWAP2 POP SLOAD SWAP1 PUSH2 0x100 EXP SWAP1 DIV PUSH1 0xFF AND DUP2 JUMP JUMPDEST PUSH1 0x1 DUP1 PUSH1 0x2 DUP2 GT ISZERO PUSH2 0x9E1 JUMPI PUSH2 0x9E0 PUSH2 0x1474 JUMP JUMPDEST JUMPDEST PUSH1 0xA PUSH1 0x0 SWAP1 SLOAD SWAP1 PUSH2 0x100 EXP SWAP1 DIV PUSH1 0xFF AND PUSH1 0x2 DUP2 GT ISZERO PUSH2 0xA03 JUMPI PUSH2 0xA02 PUSH2 0x1474 JUMP JUMPDEST JUMPDEST EQ PUSH2 0xA0D JUMPI PUSH1 0x0 DUP1 REVERT JUMPDEST PUSH1 0x0 DUP1 SLOAD SWAP1 PUSH2 0x100 EXP SWAP1 DIV PUSH20 0xFFFFFFFFFFFFFFFFFFFFFFFFFFFFFFFFFFFFFFFF AND PUSH20 0xFFFFFFFFFFFFFFFFFFFFFFFFFFFFFFFFFFFFFFFF AND CALLER PUSH20 0xFFFFFFFFFFFFFFFFFFFFFFFFFFFFFFFFFFFFFFFF AND EQ PUSH2 0xA65 JUMPI PUSH1 0x0 DUP1 REVERT JUMPDEST PUSH1 0x2 PUSH1 0xA PUSH1 0x0 PUSH2 0x100 EXP DUP2 SLOAD DUP2 PUSH1 0xFF MUL NOT AND SWAP1 DUP4 PUSH1 0x2 DUP2 GT ISZERO PUSH2 0xA8B JUMPI PUSH2 0xA8A PUSH2 0x1474 JUMP JUMPDEST JUMPDEST MUL OR SWAP1 SSTORE POP PUSH1 0x4 SLOAD PUSH1 0x5 DUP2 SWAP1 SSTORE POP POP JUMP JUMPDEST PUSH1 0x0 DUP1 PUSH1 0x2 DUP2 GT ISZERO PUSH2 0xAB1 JUMPI PUSH2 0xAB0 PUSH2 0x1474 JUMP JUMPDEST JUMPDEST PUSH1 0xA PUSH1 0x0 SWAP1 SLOAD SWAP1 PUSH2 0x100 EXP SWAP1 DIV PUSH1 0xFF AND PUSH1 0x2 DUP2 GT ISZERO PUSH2 0xAD3 JUMPI PUSH2 0xAD2 PUSH2 0x1474 JUMP JUMPDEST JUMPDEST EQ PUSH2 0xADD JUMPI PUSH1 0x0 DUP1 REVERT JUMPDEST PUSH1 0x0 DUP1 SLOAD SWAP1 PUSH2 0x100 EXP SWAP1 DIV PUSH20 0xFFFFFFFFFFFFFFFFFFFFFFFFFFFFFFFFFFFFFFFF AND PUSH20 0xFFFFFFFFFFFFFFFFFFFFFFFFFFFFFFFFFFFFFFFF AND CALLER PUSH20 0xFFFFFFFFFFFFFFFFFFFFFFFFFFFFFFFFFFFFFFFF AND EQ PUSH2 0xB35 JUMPI PUSH1 0x0 DUP1 REVERT JUMPDEST PUSH1 0x0 ISZERO ISZERO PUSH1 0x8 PUSH1 0x0 DUP6 PUSH20 0xFFFFFFFFFFFFFFFFFFFFFFFFFFFFFFFFFFFFFFFF AND PUSH20 0xFFFFFFFFFFFFFFFFFFFFFFFFFFFFFFFFFFFFFFFF AND DUP2 MSTORE PUSH1 0x20 ADD SWAP1 DUP2 MSTORE PUSH1 0x20 ADD PUSH1 0x0 KECCAK256 PUSH1 0x0 ADD PUSH1 0x0 SWAP1 SLOAD SWAP1 PUSH2 0x100 EXP SWAP1 DIV PUSH1 0xFF AND ISZERO ISZERO EQ PUSH2 0xBCB JUMPI PUSH1 0x40 MLOAD PUSH32 0x8C379A000000000000000000000000000000000000000000000000000000000 DUP2 MSTORE PUSH1 0x4 ADD PUSH2 0xBC2 SWAP1 PUSH2 0x1210 JUMP JUMPDEST PUSH1 0x40 MLOAD DUP1 SWAP2 SUB SWAP1 REVERT JUMPDEST PUSH1 0x1 DUP3 LT ISZERO DUP1 ISZERO PUSH2 0xBDE JUMPI POP PUSH1 0x2 SLOAD DUP3 GT ISZERO JUMPDEST PUSH2 0xC1D JUMPI PUSH1 0x40 MLOAD PUSH32 0x8C379A000000000000000000000000000000000000000000000000000000000 DUP2 MSTORE PUSH1 0x4 ADD PUSH2 0xC14 SWAP1 PUSH2 0x11F0 JUMP JUMPDEST PUSH1 0x40 MLOAD DUP1 SWAP2 SUB SWAP1 REVERT JUMPDEST PUSH2 0xC25 PUSH2 0xE7C JUMP JUMPDEST PUSH1 0x1 DUP2 PUSH1 0x0 ADD SWAP1 ISZERO ISZERO SWAP1 DUP2 ISZERO ISZERO DUP2 MSTORE POP POP PUSH1 0x0 DUP2 PUSH1 0x20 ADD SWAP1 ISZERO ISZERO SWAP1 DUP2 ISZERO ISZERO DUP2 MSTORE POP POP PUSH1 0x0 DUP2 PUSH1 0x40 ADD DUP2 DUP2 MSTORE POP POP DUP3 DUP2 PUSH1 0x60 ADD DUP2 DUP2 MSTORE POP POP PUSH1 0x0 DUP2 PUSH1 0x80 ADD DUP2 DUP2 MSTORE POP POP DUP1 PUSH1 0x8 PUSH1 0x0 DUP7 PUSH20 0xFFFFFFFFFFFFFFFFFFFFFFFFFFFFFFFFFFFFFFFF AND PUSH20 0xFFFFFFFFFFFFFFFFFFFFFFFFFFFFFFFFFFFFFFFF AND DUP2 MSTORE PUSH1 0x20 ADD SWAP1 DUP2 MSTORE PUSH1 0x20 ADD PUSH1 0x0 KECCAK256 PUSH1 0x0 DUP3 ADD MLOAD DUP2 PUSH1 0x0 ADD PUSH1 0x0 PUSH2 0x100 EXP DUP2 SLOAD DUP2 PUSH1 0xFF MUL NOT AND SWAP1 DUP4 ISZERO ISZERO MUL OR SWAP1 SSTORE POP PUSH1 0x20 DUP3 ADD MLOAD DUP2 PUSH1 0x0 ADD PUSH1 0x1 PUSH2 0x100 EXP DUP2 SLOAD DUP2 PUSH1 0xFF MUL NOT AND SWAP1 DUP4 ISZERO ISZERO MUL OR SWAP1 SSTORE POP PUSH1 0x40 DUP3 ADD MLOAD DUP2 PUSH1 0x1 ADD SSTORE PUSH1 0x60 DUP3 ADD MLOAD DUP2 PUSH1 0x2 ADD SSTORE PUSH1 0x80 DUP3 ADD MLOAD DUP2 PUSH1 0x3 ADD SSTORE SWAP1 POP POP PUSH2 0xD11 DUP4 PUSH2 0xE06 JUMP JUMPDEST PUSH1 0x3 PUSH1 0x0 DUP2 SLOAD DUP1 SWAP3 SWAP2 SWAP1 PUSH2 0xD24 SWAP1 PUSH2 0x13FC JUMP JUMPDEST SWAP2 SWAP1 POP SSTORE POP POP POP POP POP JUMP JUMPDEST PUSH1 0xA PUSH1 0x0 SWAP1 SLOAD SWAP1 PUSH2 0x100 EXP SWAP1 DIV PUSH1 0xFF AND DUP2 JUMP JUMPDEST PUSH1 0x2 SLOAD DUP2 JUMP JUMPDEST PUSH1 0x5 SLOAD DUP2 JUMP JUMPDEST PUSH1 0x7 PUSH1 0x20 MSTORE DUP1 PUSH1 0x0 MSTORE PUSH1 0x40 PUSH1 0x0 KECCAK256 PUSH1 0x0 SWAP2 POP SWAP1 POP DUP1 PUSH1 0x0 ADD SLOAD SWAP1 DUP1 PUSH1 0x1 ADD DUP1 SLOAD PUSH2 0xD77 SWAP1 PUSH2 0x13CA JUMP JUMPDEST DUP1 PUSH1 0x1F ADD PUSH1 0x20 DUP1 SWAP2 DIV MUL PUSH1 0x20 ADD PUSH1 0x40 MLOAD SWAP1 DUP2 ADD PUSH1 0x40 MSTORE DUP1 SWAP3 SWAP2 SWAP1 DUP2 DUP2 MSTORE PUSH1 0x20 ADD DUP3 DUP1 SLOAD PUSH2 0xDA3 SWAP1 PUSH2 0x13CA JUMP JUMPDEST DUP1 ISZERO PUSH2 0xDF0 JUMPI DUP1 PUSH1 0x1F LT PUSH2 0xDC5 JUMPI PUSH2 0x100 DUP1 DUP4 SLOAD DIV MUL DUP4 MSTORE SWAP2 PUSH1 0x20 ADD SWAP2 PUSH2 0xDF0 JUMP JUMPDEST DUP3 ADD SWAP2 SWAP1 PUSH1 0x0 MSTORE PUSH1 0x20 PUSH1 0x0 KECCAK256 SWAP1 JUMPDEST DUP2 SLOAD DUP2 MSTORE SWAP1 PUSH1 0x1 ADD SWAP1 PUSH1 0x20 ADD DUP1 DUP4 GT PUSH2 0xDD3 JUMPI DUP3 SWAP1 SUB PUSH1 0x1F AND DUP3 ADD SWAP2 JUMPDEST POP POP POP POP POP SWAP1 DUP1 PUSH1 0x2 ADD SLOAD SWAP1 DUP1 PUSH1 0x3 ADD SLOAD SWAP1 POP DUP5 JUMP JUMPDEST PUSH1 0x0 PUSH1 0x1 SWAP1 POP JUMPDEST PUSH1 0x2 SLOAD DUP2 GT PUSH2 0xE78 JUMPI DUP2 PUSH1 0x7 PUSH1 0x0 DUP4 DUP2 MSTORE PUSH1 0x20 ADD SWAP1 DUP2 MSTORE PUSH1 0x20 ADD PUSH1 0x0 KECCAK256 PUSH1 0x0 ADD SLOAD EQ ISZERO PUSH2 0xE65 JUMPI PUSH1 0x7 PUSH1 0x0 DUP3 DUP2 MSTORE PUSH1 0x20 ADD SWAP1 DUP2 MSTORE PUSH1 0x20 ADD PUSH1 0x0 KECCAK256 PUSH1 0x2 ADD PUSH1 0x0 DUP2 SLOAD DUP1 SWAP3 SWAP2 SWAP1 PUSH2 0xE5B SWAP1 PUSH2 0x13FC JUMP JUMPDEST SWAP2 SWAP1 POP SSTORE POP PUSH2 0xE78 JUMP JUMPDEST DUP1 DUP1 PUSH2 0xE70 SWAP1 PUSH2 0x13FC JUMP JUMPDEST SWAP2 POP POP PUSH2 0xE0D JUMP JUMPDEST POP POP JUMP JUMPDEST PUSH1 0x40 MLOAD DUP1 PUSH1 0xA0 ADD PUSH1 0x40 MSTORE DUP1 PUSH1 0x0 ISZERO ISZERO DUP2 MSTORE PUSH1 0x20 ADD PUSH1 0x0 ISZERO ISZERO DUP2 MSTORE PUSH1 0x20 ADD PUSH1 0x0 DUP2 MSTORE PUSH1 0x20 ADD PUSH1 0x0 DUP2 MSTORE PUSH1 0x20 ADD PUSH1 0x0 DUP2 MSTORE POP SWAP1 JUMP JUMPDEST PUSH1 0x0 DUP2 CALLDATALOAD SWAP1 POP PUSH2 0xEBE DUP2 PUSH2 0x15D2 JUMP JUMPDEST SWAP3 SWAP2 POP POP JUMP JUMPDEST PUSH1 0x0 DUP2 CALLDATALOAD SWAP1 POP PUSH2 0xED3 DUP2 PUSH2 0x15E9 JUMP JUMPDEST SWAP3 SWAP2 POP POP JUMP JUMPDEST PUSH1 0x0 PUSH1 0x20 DUP3 DUP5 SUB SLT ISZERO PUSH2 0xEEF JUMPI PUSH2 0xEEE PUSH2 0x1530 JUMP JUMPDEST JUMPDEST PUSH1 0x0 PUSH2 0xEFD DUP5 DUP3 DUP6 ADD PUSH2 0xEAF JUMP JUMPDEST SWAP2 POP POP SWAP3 SWAP2 POP POP JUMP JUMPDEST PUSH1 0x0 DUP1 PUSH1 0x40 DUP4 DUP6 SUB SLT ISZERO PUSH2 0xF1D JUMPI PUSH2 0xF1C PUSH2 0x1530 JUMP JUMPDEST JUMPDEST PUSH1 0x0 PUSH2 0xF2B DUP6 DUP3 DUP7 ADD PUSH2 0xEAF JUMP JUMPDEST SWAP3 POP POP PUSH1 0x20 PUSH2 0xF3C DUP6 DUP3 DUP7 ADD PUSH2 0xEC4 JUMP JUMPDEST SWAP2 POP POP SWAP3 POP SWAP3 SWAP1 POP JUMP JUMPDEST PUSH1 0x0 PUSH1 0x20 DUP3 DUP5 SUB SLT ISZERO PUSH2 0xF5C JUMPI PUSH2 0xF5B PUSH2 0x1530 JUMP JUMPDEST JUMPDEST PUSH1 0x0 PUSH2 0xF6A DUP5 DUP3 DUP6 ADD PUSH2 0xEC4 JUMP JUMPDEST SWAP2 POP POP SWAP3 SWAP2 POP POP JUMP JUMPDEST PUSH1 0x0 DUP1 PUSH1 0x40 DUP4 DUP6 SUB SLT ISZERO PUSH2 0xF8A JUMPI PUSH2 0xF89 PUSH2 0x1530 JUMP JUMPDEST JUMPDEST PUSH1 0x0 PUSH2 0xF98 DUP6 DUP3 DUP7 ADD PUSH2 0xEC4 JUMP JUMPDEST SWAP3 POP POP PUSH1 0x20 PUSH2 0xFA9 DUP6 DUP3 DUP7 ADD PUSH2 0xEC4 JUMP JUMPDEST SWAP2 POP POP SWAP3 POP SWAP3 SWAP1 POP JUMP JUMPDEST PUSH1 0x0 PUSH2 0xFBF DUP4 DUP4 PUSH2 0x10D5 JUMP JUMPDEST PUSH1 0x20 DUP4 ADD SWAP1 POP SWAP3 SWAP2 POP POP JUMP JUMPDEST PUSH2 0xFD4 DUP2 PUSH2 0x132A JUMP JUMPDEST DUP3 MSTORE POP POP JUMP JUMPDEST PUSH1 0x0 PUSH2 0xFE5 DUP3 PUSH2 0x12E5 JUMP JUMPDEST PUSH2 0xFEF DUP2 DUP6 PUSH2 0x1308 JUMP JUMPDEST SWAP4 POP PUSH2 0xFFA DUP4 PUSH2 0x12D5 JUMP JUMPDEST DUP1 PUSH1 0x0 JUMPDEST DUP4 DUP2 LT ISZERO PUSH2 0x102B JUMPI DUP2 MLOAD PUSH2 0x1012 DUP9 DUP3 PUSH2 0xFB3 JUMP JUMPDEST SWAP8 POP PUSH2 0x101D DUP4 PUSH2 0x12FB JUMP JUMPDEST SWAP3 POP POP PUSH1 0x1 DUP2 ADD SWAP1 POP PUSH2 0xFFE JUMP JUMPDEST POP DUP6 SWAP4 POP POP POP POP SWAP3 SWAP2 POP POP JUMP JUMPDEST PUSH2 0x1041 DUP2 PUSH2 0x133C JUMP JUMPDEST DUP3 MSTORE POP POP JUMP JUMPDEST PUSH2 0x1050 DUP2 PUSH2 0x1385 JUMP JUMPDEST DUP3 MSTORE POP POP JUMP JUMPDEST PUSH1 0x0 PUSH2 0x1061 DUP3 PUSH2 0x12F0 JUMP JUMPDEST PUSH2 0x106B DUP2 DUP6 PUSH2 0x1319 JUMP JUMPDEST SWAP4 POP PUSH2 0x107B DUP2 DUP6 PUSH1 0x20 DUP7 ADD PUSH2 0x1397 JUMP JUMPDEST PUSH2 0x1084 DUP2 PUSH2 0x1535 JUMP JUMPDEST DUP5 ADD SWAP2 POP POP SWAP3 SWAP2 POP POP JUMP JUMPDEST PUSH1 0x0 PUSH2 0x109C PUSH1 0x2A DUP4 PUSH2 0x1319 JUMP JUMPDEST SWAP2 POP PUSH2 0x10A7 DUP3 PUSH2 0x1546 JUMP JUMPDEST PUSH1 0x40 DUP3 ADD SWAP1 POP SWAP2 SWAP1 POP JUMP JUMPDEST PUSH1 0x0 PUSH2 0x10BF PUSH1 0x1C DUP4 PUSH2 0x1319 JUMP JUMPDEST SWAP2 POP PUSH2 0x10CA DUP3 PUSH2 0x1595 JUMP JUMPDEST PUSH1 0x20 DUP3 ADD SWAP1 POP SWAP2 SWAP1 POP JUMP JUMPDEST PUSH2 0x10DE DUP2 PUSH2 0x137B JUMP JUMPDEST DUP3 MSTORE POP POP JUMP JUMPDEST PUSH2 0x10ED DUP2 PUSH2 0x137B JUMP JUMPDEST DUP3 MSTORE POP POP JUMP JUMPDEST PUSH1 0x0 PUSH1 0x20 DUP3 ADD SWAP1 POP PUSH2 0x1108 PUSH1 0x0 DUP4 ADD DUP5 PUSH2 0xFCB JUMP JUMPDEST SWAP3 SWAP2 POP POP JUMP JUMPDEST PUSH1 0x0 PUSH1 0x20 DUP3 ADD SWAP1 POP DUP2 DUP2 SUB PUSH1 0x0 DUP4 ADD MSTORE PUSH2 0x1128 DUP2 DUP5 PUSH2 0xFDA JUMP JUMPDEST SWAP1 POP SWAP3 SWAP2 POP POP JUMP JUMPDEST PUSH1 0x0 PUSH1 0x20 DUP3 ADD SWAP1 POP PUSH2 0x1145 PUSH1 0x0 DUP4 ADD DUP5 PUSH2 0x1038 JUMP JUMPDEST SWAP3 SWAP2 POP POP JUMP JUMPDEST PUSH1 0x0 PUSH1 0xA0 DUP3 ADD SWAP1 POP PUSH2 0x1160 PUSH1 0x0 DUP4 ADD DUP9 PUSH2 0x1038 JUMP JUMPDEST PUSH2 0x116D PUSH1 0x20 DUP4 ADD DUP8 PUSH2 0x1038 JUMP JUMPDEST PUSH2 0x117A PUSH1 0x40 DUP4 ADD DUP7 PUSH2 0x10E4 JUMP JUMPDEST PUSH2 0x1187 PUSH1 0x60 DUP4 ADD DUP6 PUSH2 0x10E4 JUMP JUMPDEST PUSH2 0x1194 PUSH1 0x80 DUP4 ADD DUP5 PUSH2 0x10E4 JUMP JUMPDEST SWAP7 SWAP6 POP POP POP POP POP POP JUMP JUMPDEST PUSH1 0x0 PUSH1 0x60 DUP3 ADD SWAP1 POP PUSH2 0x11B3 PUSH1 0x0 DUP4 ADD DUP7 PUSH2 0x1038 JUMP JUMPDEST PUSH2 0x11C0 PUSH1 0x20 DUP4 ADD DUP6 PUSH2 0x10E4 JUMP JUMPDEST PUSH2 0x11CD PUSH1 0x40 DUP4 ADD DUP5 PUSH2 0x10E4 JUMP JUMPDEST SWAP5 SWAP4 POP POP POP POP JUMP JUMPDEST PUSH1 0x0 PUSH1 0x20 DUP3 ADD SWAP1 POP PUSH2 0x11EA PUSH1 0x0 DUP4 ADD DUP5 PUSH2 0x1047 JUMP JUMPDEST SWAP3 SWAP2 POP POP JUMP JUMPDEST PUSH1 0x0 PUSH1 0x20 DUP3 ADD SWAP1 POP DUP2 DUP2 SUB PUSH1 0x0 DUP4 ADD MSTORE PUSH2 0x1209 DUP2 PUSH2 0x108F JUMP JUMPDEST SWAP1 POP SWAP2 SWAP1 POP JUMP JUMPDEST PUSH1 0x0 PUSH1 0x20 DUP3 ADD SWAP1 POP DUP2 DUP2 SUB PUSH1 0x0 DUP4 ADD MSTORE PUSH2 0x1229 DUP2 PUSH2 0x10B2 JUMP JUMPDEST SWAP1 POP SWAP2 SWAP1 POP JUMP JUMPDEST PUSH1 0x0 PUSH1 0x20 DUP3 ADD SWAP1 POP PUSH2 0x1245 PUSH1 0x0 DUP4 ADD DUP5 PUSH2 0x10E4 JUMP JUMPDEST SWAP3 SWAP2 POP POP JUMP JUMPDEST PUSH1 0x0 PUSH1 0x60 DUP3 ADD SWAP1 POP PUSH2 0x1260 PUSH1 0x0 DUP4 ADD DUP7 PUSH2 0x10E4 JUMP JUMPDEST DUP2 DUP2 SUB PUSH1 0x20 DUP4 ADD MSTORE PUSH2 0x1272 DUP2 DUP6 PUSH2 0x1056 JUMP JUMPDEST SWAP1 POP PUSH2 0x1281 PUSH1 0x40 DUP4 ADD DUP5 PUSH2 0x10E4 JUMP JUMPDEST SWAP5 SWAP4 POP POP POP POP JUMP JUMPDEST PUSH1 0x0 PUSH1 0x80 DUP3 ADD SWAP1 POP PUSH2 0x129E PUSH1 0x0 DUP4 ADD DUP8 PUSH2 0x10E4 JUMP JUMPDEST DUP2 DUP2 SUB PUSH1 0x20 DUP4 ADD MSTORE PUSH2 0x12B0 DUP2 DUP7 PUSH2 0x1056 JUMP JUMPDEST SWAP1 POP PUSH2 0x12BF PUSH1 0x40 DUP4 ADD DUP6 PUSH2 0x10E4 JUMP JUMPDEST PUSH2 0x12CC PUSH1 0x60 DUP4 ADD DUP5 PUSH2 0x10E4 JUMP JUMPDEST SWAP6 SWAP5 POP POP POP POP POP JUMP JUMPDEST PUSH1 0x0 DUP2 SWAP1 POP PUSH1 0x20 DUP3 ADD SWAP1 POP SWAP2 SWAP1 POP JUMP JUMPDEST PUSH1 0x0 DUP2 MLOAD SWAP1 POP SWAP2 SWAP1 POP JUMP JUMPDEST PUSH1 0x0 DUP2 MLOAD SWAP1 POP SWAP2 SWAP1 POP JUMP JUMPDEST PUSH1 0x0 PUSH1 0x20 DUP3 ADD SWAP1 POP SWAP2 SWAP1 POP JUMP JUMPDEST PUSH1 0x0 DUP3 DUP3 MSTORE PUSH1 0x20 DUP3 ADD SWAP1 POP SWAP3 SWAP2 POP POP JUMP JUMPDEST PUSH1 0x0 DUP3 DUP3 MSTORE PUSH1 0x20 DUP3 ADD SWAP1 POP SWAP3 SWAP2 POP POP JUMP JUMPDEST PUSH1 0x0 PUSH2 0x1335 DUP3 PUSH2 0x135B JUMP JUMPDEST SWAP1 POP SWAP2 SWAP1 POP JUMP JUMPDEST PUSH1 0x0 DUP2 ISZERO ISZERO SWAP1 POP SWAP2 SWAP1 POP JUMP JUMPDEST PUSH1 0x0 DUP2 SWAP1 POP PUSH2 0x1356 DUP3 PUSH2 0x15BE JUMP JUMPDEST SWAP2 SWAP1 POP JUMP JUMPDEST PUSH1 0x0 PUSH20 0xFFFFFFFFFFFFFFFFFFFFFFFFFFFFFFFFFFFFFFFF DUP3 AND SWAP1 POP SWAP2 SWAP1 POP JUMP JUMPDEST PUSH1 0x0 DUP2 SWAP1 POP SWAP2 SWAP1 POP JUMP JUMPDEST PUSH1 0x0 PUSH2 0x1390 DUP3 PUSH2 0x1348 JUMP JUMPDEST SWAP1 POP SWAP2 SWAP1 POP JUMP JUMPDEST PUSH1 0x0 JUMPDEST DUP4 DUP2 LT ISZERO PUSH2 0x13B5 JUMPI DUP1 DUP3 ADD MLOAD DUP2 DUP5 ADD MSTORE PUSH1 0x20 DUP2 ADD SWAP1 POP PUSH2 0x139A JUMP JUMPDEST DUP4 DUP2 GT ISZERO PUSH2 0x13C4 JUMPI PUSH1 0x0 DUP5 DUP5 ADD MSTORE JUMPDEST POP POP POP POP JUMP JUMPDEST PUSH1 0x0 PUSH1 0x2 DUP3 DIV SWAP1 POP PUSH1 0x1 DUP3 AND DUP1 PUSH2 0x13E2 JUMPI PUSH1 0x7F DUP3 AND SWAP2 POP JUMPDEST PUSH1 0x20 DUP3 LT DUP2 EQ ISZERO PUSH2 0x13F6 JUMPI PUSH2 0x13F5 PUSH2 0x14A3 JUMP JUMPDEST JUMPDEST POP SWAP2 SWAP1 POP JUMP JUMPDEST PUSH1 0x0 PUSH2 0x1407 DUP3 PUSH2 0x137B JUMP JUMPDEST SWAP2 POP PUSH32 0xFFFFFFFFFFFFFFFFFFFFFFFFFFFFFFFFFFFFFFFFFFFFFFFFFFFFFFFFFFFFFFFF DUP3 EQ ISZERO PUSH2 0x143A JUMPI PUSH2 0x1439 PUSH2 0x1445 JUMP JUMPDEST JUMPDEST PUSH1 0x1 DUP3 ADD SWAP1 POP SWAP2 SWAP1 POP JUMP JUMPDEST PUSH32 0x4E487B7100000000000000000000000000000000000000000000000000000000 PUSH1 0x0 MSTORE PUSH1 0x11 PUSH1 0x4 MSTORE PUSH1 0x24 PUSH1 0x0 REVERT JUMPDEST PUSH32 0x4E487B7100000000000000000000000000000000000000000000000000000000 PUSH1 0x0 MSTORE PUSH1 0x21 PUSH1 0x4 MSTORE PUSH1 0x24 PUSH1 0x0 REVERT JUMPDEST PUSH32 0x4E487B7100000000000000000000000000000000000000000000000000000000 PUSH1 0x0 MSTORE PUSH1 0x22 PUSH1 0x4 MSTORE PUSH1 0x24 PUSH1 0x0 REVERT JUMPDEST PUSH32 0x4E487B7100000000000000000000000000000000000000000000000000000000 PUSH1 0x0 MSTORE PUSH1 0x32 PUSH1 0x4 MSTORE PUSH1 0x24 PUSH1 0x0 REVERT JUMPDEST PUSH32 0x4E487B7100000000000000000000000000000000000000000000000000000000 PUSH1 0x0 MSTORE PUSH1 0x41 PUSH1 0x4 MSTORE PUSH1 0x24 PUSH1 0x0 REVERT JUMPDEST PUSH1 0x0 DUP1 REVERT JUMPDEST PUSH1 0x0 PUSH1 0x1F NOT PUSH1 0x1F DUP4 ADD AND SWAP1 POP SWAP2 SWAP1 POP JUMP JUMPDEST PUSH32 0x506C656173652070726F7669646520612076616C696420706F6C6C696E672073 PUSH1 0x0 DUP3 ADD MSTORE PUSH32 0x746174696F6E2049442E00000000000000000000000000000000000000000000 PUSH1 0x20 DUP3 ADD MSTORE POP JUMP JUMPDEST PUSH32 0x566F74657220697320616C726561647920726567697374657265642E00000000 PUSH1 0x0 DUP3 ADD MSTORE POP JUMP JUMPDEST PUSH1 0x3 DUP2 LT PUSH2 0x15CF JUMPI PUSH2 0x15CE PUSH2 0x1474 JUMP JUMPDEST JUMPDEST POP JUMP JUMPDEST PUSH2 0x15DB DUP2 PUSH2 0x132A JUMP JUMPDEST DUP2 EQ PUSH2 0x15E6 JUMPI PUSH1 0x0 DUP1 REVERT JUMPDEST POP JUMP JUMPDEST PUSH2 0x15F2 DUP2 PUSH2 0x137B JUMP JUMPDEST DUP2 EQ PUSH2 0x15FD JUMPI PUSH1 0x0 DUP1 REVERT JUMPDEST POP JUMP INVALID LOG2 PUSH5 0x6970667358 0x22 SLT KECCAK256 0xEB 0x28 CODECOPY 0x28 SELFBALANCE CODECOPY 0xB9 SWAP16 DUP4 0xE3 GASPRICE 0x28 PUSH26 0x3AC96A0C9F698C6C4A2FE3C5E944B964FD4FAB64736F6C634300 ADDMOD SMOD STOP CALLER "
				},
				"gasEstimates": {
					"creation": {
						"codeDepositCost": "1137200",
						"executionCost": "infinite",
						"totalCost": "infinite"
					},
					"external": {
						"addVoter(address,uint256)": "infinite",
						"candidates(uint256)": "infinite",
						"candidatesCount()": "2452",
						"castVote(uint256,uint256)": "infinite",
						"electionOwner()": "2534",
						"endVote()": "53095",
						"finalResult()": "2495",
						"getResultsPerStation(uint256)": "infinite",
						"pollingStationCount()": "2473",
						"pollingStations(uint256)": "infinite",
						"startVote()": "28903",
						"state()": "2582",
						"totalRegisteredVoters()": "2453",
						"voterRegistry(address)": "infinite",
						"voters(address)": "2890"
					},
					"internal": {
						"addCandidate(string memory)": "infinite",
						"addPollingStation(string memory)": "infinite",
						"initCandidates()": "infinite",
						"initPollingStations()": "infinite",
						"registerAtPollingStation(uint256)": "28818"
					}
				},
				"methodIdentifiers": {
					"addVoter(address,uint256)": "b9f05f2f",
					"candidates(uint256)": "3477ee2e",
					"candidatesCount()": "2d35a8a2",
					"castVote(uint256,uint256)": "2c0a3f89",
					"electionOwner()": "53357ad0",
					"endVote()": "b9223946",
					"finalResult()": "f3a8286f",
					"getResultsPerStation(uint256)": "23a1b11c",
					"pollingStationCount()": "df9f1a07",
					"pollingStations(uint256)": "fe2442d7",
					"startVote()": "4c0a6af0",
					"state()": "c19d93fb",
					"totalRegisteredVoters()": "00aa7464",
					"voterRegistry(address)": "4763d4e7",
					"voters(address)": "a3ec138d"
				}
			},
			"storageLayout": {
				"storage": [
					{
						"astId": 35,
						"contract": "contracts/ergasia.sol:Election",
						"label": "electionOwner",
						"offset": 0,
						"slot": "0",
						"type": "t_address"
					},
					{
						"astId": 37,
						"contract": "contracts/ergasia.sol:Election",
						"label": "candidatesCount",
						"offset": 0,
						"slot": "1",
						"type": "t_uint256"
					},
					{
						"astId": 39,
						"contract": "contracts/ergasia.sol:Election",
						"label": "pollingStationCount",
						"offset": 0,
						"slot": "2",
						"type": "t_uint256"
					},
					{
						"astId": 41,
						"contract": "contracts/ergasia.sol:Election",
						"label": "totalRegisteredVoters",
						"offset": 0,
						"slot": "3",
						"type": "t_uint256"
					},
					{
						"astId": 43,
						"contract": "contracts/ergasia.sol:Election",
						"label": "countResult",
						"offset": 0,
						"slot": "4",
						"type": "t_uint256"
					},
					{
						"astId": 45,
						"contract": "contracts/ergasia.sol:Election",
						"label": "finalResult",
						"offset": 0,
						"slot": "5",
						"type": "t_uint256"
					},
					{
						"astId": 50,
						"contract": "contracts/ergasia.sol:Election",
						"label": "candidates",
						"offset": 0,
						"slot": "6",
						"type": "t_mapping(t_uint256,t_struct(Candidate)8_storage)"
					},
					{
						"astId": 55,
						"contract": "contracts/ergasia.sol:Election",
						"label": "pollingStations",
						"offset": 0,
						"slot": "7",
						"type": "t_mapping(t_uint256,t_struct(PollingStation)22_storage)"
					},
					{
						"astId": 60,
						"contract": "contracts/ergasia.sol:Election",
						"label": "voterRegistry",
						"offset": 0,
						"slot": "8",
						"type": "t_mapping(t_address,t_struct(Voter)33_storage)"
					},
					{
						"astId": 64,
						"contract": "contracts/ergasia.sol:Election",
						"label": "voters",
						"offset": 0,
						"slot": "9",
						"type": "t_mapping(t_address,t_bool)"
					},
					{
						"astId": 71,
						"contract": "contracts/ergasia.sol:Election",
						"label": "state",
						"offset": 0,
						"slot": "10",
						"type": "t_enum(State)68"
					}
				],
				"types": {
					"t_address": {
						"encoding": "inplace",
						"label": "address",
						"numberOfBytes": "20"
					},
					"t_bool": {
						"encoding": "inplace",
						"label": "bool",
						"numberOfBytes": "1"
					},
					"t_enum(State)68": {
						"encoding": "inplace",
						"label": "enum Election.State",
						"numberOfBytes": "1"
					},
					"t_mapping(t_address,t_bool)": {
						"encoding": "mapping",
						"key": "t_address",
						"label": "mapping(address => bool)",
						"numberOfBytes": "32",
						"value": "t_bool"
					},
					"t_mapping(t_address,t_struct(Voter)33_storage)": {
						"encoding": "mapping",
						"key": "t_address",
						"label": "mapping(address => struct Election.Voter)",
						"numberOfBytes": "32",
						"value": "t_struct(Voter)33_storage"
					},
					"t_mapping(t_uint256,t_struct(Candidate)8_storage)": {
						"encoding": "mapping",
						"key": "t_uint256",
						"label": "mapping(uint256 => struct Election.Candidate)",
						"numberOfBytes": "32",
						"value": "t_struct(Candidate)8_storage"
					},
					"t_mapping(t_uint256,t_struct(PollingStation)22_storage)": {
						"encoding": "mapping",
						"key": "t_uint256",
						"label": "mapping(uint256 => struct Election.PollingStation)",
						"numberOfBytes": "32",
						"value": "t_struct(PollingStation)22_storage"
					},
					"t_string_storage": {
						"encoding": "bytes",
						"label": "string",
						"numberOfBytes": "32"
					},
					"t_struct(Candidate)8_storage": {
						"encoding": "inplace",
						"label": "struct Election.Candidate",
						"members": [
							{
								"astId": 3,
								"contract": "contracts/ergasia.sol:Election",
								"label": "id",
								"offset": 0,
								"slot": "0",
								"type": "t_uint256"
							},
							{
								"astId": 5,
								"contract": "contracts/ergasia.sol:Election",
								"label": "name",
								"offset": 0,
								"slot": "1",
								"type": "t_string_storage"
							},
							{
								"astId": 7,
								"contract": "contracts/ergasia.sol:Election",
								"label": "votes",
								"offset": 0,
								"slot": "2",
								"type": "t_uint256"
							}
						],
						"numberOfBytes": "96"
					},
					"t_struct(PollingStation)22_storage": {
						"encoding": "inplace",
						"label": "struct Election.PollingStation",
						"members": [
							{
								"astId": 10,
								"contract": "contracts/ergasia.sol:Election",
								"label": "id",
								"offset": 0,
								"slot": "0",
								"type": "t_uint256"
							},
							{
								"astId": 12,
								"contract": "contracts/ergasia.sol:Election",
								"label": "name",
								"offset": 0,
								"slot": "1",
								"type": "t_string_storage"
							},
							{
								"astId": 14,
								"contract": "contracts/ergasia.sol:Election",
								"label": "votersRegistered",
								"offset": 0,
								"slot": "2",
								"type": "t_uint256"
							},
							{
								"astId": 16,
								"contract": "contracts/ergasia.sol:Election",
								"label": "votesCasted",
								"offset": 0,
								"slot": "3",
								"type": "t_uint256"
							},
							{
								"astId": 21,
								"contract": "contracts/ergasia.sol:Election",
								"label": "scoresPerCandidate",
								"offset": 0,
								"slot": "4",
								"type": "t_mapping(t_uint256,t_struct(Candidate)8_storage)"
							}
						],
						"numberOfBytes": "160"
					},
					"t_struct(Voter)33_storage": {
						"encoding": "inplace",
						"label": "struct Election.Voter",
						"members": [
							{
								"astId": 24,
								"contract": "contracts/ergasia.sol:Election",
								"label": "isEnrolled",
								"offset": 0,
								"slot": "0",
								"type": "t_bool"
							},
							{
								"astId": 26,
								"contract": "contracts/ergasia.sol:Election",
								"label": "hasVoted",
								"offset": 1,
								"slot": "0",
								"type": "t_bool"
							},
							{
								"astId": 28,
								"contract": "contracts/ergasia.sol:Election",
								"label": "choice",
								"offset": 0,
								"slot": "1",
								"type": "t_uint256"
							},
							{
								"astId": 30,
								"contract": "contracts/ergasia.sol:Election",
								"label": "enrolledPollingStationID",
								"offset": 0,
								"slot": "2",
								"type": "t_uint256"
							},
							{
								"astId": 32,
								"contract": "contracts/ergasia.sol:Election",
								"label": "votedPollingStationID",
								"offset": 0,
								"slot": "3",
								"type": "t_uint256"
							}
						],
						"numberOfBytes": "128"
					},
					"t_uint256": {
						"encoding": "inplace",
						"label": "uint256",
						"numberOfBytes": "32"
					}
				}
			},
			"userdoc": {
				"kind": "user",
				"methods": {},
				"version": 1
			}
		}
	}
}