{
	"contracts/ergasia.sol": {
		"Ballot": {
			"abi": [
				{
					"inputs": [],
					"stateMutability": "nonpayable",
					"type": "constructor"
				},
				{
					"inputs": [
						{
							"internalType": "address",
							"name": "_voterAddress",
							"type": "address"
						},
						{
							"internalType": "uint256",
							"name": "_pollingStationID",
							"type": "uint256"
						}
					],
					"name": "addVoter",
					"outputs": [],
					"stateMutability": "nonpayable",
					"type": "function"
				},
				{
					"inputs": [],
					"name": "ballotOwner",
					"outputs": [
						{
							"internalType": "address",
							"name": "",
							"type": "address"
						}
					],
					"stateMutability": "view",
					"type": "function"
				},
				{
					"inputs": [],
					"name": "finalResult",
					"outputs": [
						{
							"internalType": "uint256",
							"name": "",
							"type": "uint256"
						}
					],
					"stateMutability": "view",
					"type": "function"
				},
				{
					"inputs": [
						{
							"internalType": "uint256",
							"name": "",
							"type": "uint256"
						}
					],
					"name": "proposals",
					"outputs": [
						{
							"internalType": "uint256",
							"name": "id",
							"type": "uint256"
						},
						{
							"internalType": "bytes32",
							"name": "name",
							"type": "bytes32"
						},
						{
							"internalType": "uint256",
							"name": "voteCount",
							"type": "uint256"
						}
					],
					"stateMutability": "view",
					"type": "function"
				},
				{
					"inputs": [],
					"name": "startVote",
					"outputs": [],
					"stateMutability": "nonpayable",
					"type": "function"
				},
				{
					"inputs": [],
					"name": "state",
					"outputs": [
						{
							"internalType": "enum Ballot.State",
							"name": "",
							"type": "uint8"
						}
					],
					"stateMutability": "view",
					"type": "function"
				},
				{
					"inputs": [
						{
							"internalType": "uint256",
							"name": "",
							"type": "uint256"
						}
					],
					"name": "stations",
					"outputs": [
						{
							"internalType": "uint256",
							"name": "stationID",
							"type": "uint256"
						},
						{
							"internalType": "uint256",
							"name": "pplEnrolled",
							"type": "uint256"
						},
						{
							"internalType": "uint256",
							"name": "votesCasted",
							"type": "uint256"
						}
					],
					"stateMutability": "view",
					"type": "function"
				},
				{
					"inputs": [],
					"name": "totalVoters",
					"outputs": [
						{
							"internalType": "uint256",
							"name": "",
							"type": "uint256"
						}
					],
					"stateMutability": "view",
					"type": "function"
				},
				{
					"inputs": [],
					"name": "totalVotes",
					"outputs": [
						{
							"internalType": "uint256",
							"name": "",
							"type": "uint256"
						}
					],
					"stateMutability": "view",
					"type": "function"
				},
				{
					"inputs": [
						{
							"internalType": "address",
							"name": "",
							"type": "address"
						}
					],
					"name": "voterRegister",
					"outputs": [
						{
							"internalType": "bool",
							"name": "enrolled",
							"type": "bool"
						},
						{
							"internalType": "bool",
							"name": "voted",
							"type": "bool"
						},
						{
							"internalType": "int256",
							"name": "indexProposal",
							"type": "int256"
						},
						{
							"internalType": "uint256",
							"name": "pollingStationID",
							"type": "uint256"
						}
					],
					"stateMutability": "view",
					"type": "function"
				}
			],
			"devdoc": {
				"kind": "dev",
				"methods": {},
				"version": 1
			},
			"evm": {
				"assembly": "    /* \"contracts/ergasia.sol\":70:6333  contract Ballot {... */\n  mstore(0x40, 0x80)\n    /* \"contracts/ergasia.sol\":1001:1002  5 */\n  0x05\n    /* \"contracts/ergasia.sol\":978:1002  uint numOfCandidates = 5 */\n  0x01\n  sstore\n    /* \"contracts/ergasia.sol\":1066:1068  10 */\n  0x0a\n    /* \"contracts/ergasia.sol\":1038:1068  uint numOfPollingStations = 10 */\n  0x02\n  sstore\n    /* \"contracts/ergasia.sol\":1141:1142  0 */\n  0x00\n    /* \"contracts/ergasia.sol\":1114:1142  uint private countResult = 0 */\n  0x03\n  sstore\n    /* \"contracts/ergasia.sol\":1214:1215  0 */\n  0x00\n    /* \"contracts/ergasia.sol\":1188:1215  uint public finalResult = 0 */\n  0x04\n  sstore\n    /* \"contracts/ergasia.sol\":1287:1288  0 */\n  0x00\n    /* \"contracts/ergasia.sol\":1261:1288  uint public totalVoters = 0 */\n  0x05\n  sstore\n    /* \"contracts/ergasia.sol\":1319:1320  0 */\n  0x00\n    /* \"contracts/ergasia.sol\":1294:1320  uint public totalVotes = 0 */\n  0x06\n  sstore\n    /* \"contracts/ergasia.sol\":1790:3316  constructor() {... */\n  callvalue\n  dup1\n  iszero\n  tag_1\n  jumpi\n  0x00\n  dup1\n  revert\ntag_1:\n  pop\n    /* \"contracts/ergasia.sol\":1828:1838  msg.sender */\n  caller\n    /* \"contracts/ergasia.sol\":1814:1825  ballotOwner */\n  0x00\n  dup1\n    /* \"contracts/ergasia.sol\":1814:1838  ballotOwner = msg.sender */\n  0x0100\n  exp\n  dup2\n  sload\n  dup2\n  0xffffffffffffffffffffffffffffffffffffffff\n  mul\n  not\n  and\n  swap1\n  dup4\n  0xffffffffffffffffffffffffffffffffffffffff\n  and\n  mul\n  or\n  swap1\n  sstore\n  pop\n    /* \"contracts/ergasia.sol\":3189:3205  initCandidates() */\n  tag_4\n    /* \"contracts/ergasia.sol\":3189:3203  initCandidates */\n  shl(0x20, tag_5)\n    /* \"contracts/ergasia.sol\":3189:3205  initCandidates() */\n  0x20\n  shr\n  jump\t// in\ntag_4:\n    /* \"contracts/ergasia.sol\":3216:3257  initPollingStations(numOfPollingStations) */\n  tag_6\n    /* \"contracts/ergasia.sol\":3236:3256  numOfPollingStations */\n  sload(0x02)\n    /* \"contracts/ergasia.sol\":3216:3235  initPollingStations */\n  shl(0x20, tag_7)\n    /* \"contracts/ergasia.sol\":3216:3257  initPollingStations(numOfPollingStations) */\n  0x20\n  shr\n  jump\t// in\ntag_6:\n    /* \"contracts/ergasia.sol\":3276:3289  State.Created */\n  0x00\n    /* \"contracts/ergasia.sol\":3268:3273  state */\n  0x0a\n  0x00\n    /* \"contracts/ergasia.sol\":3268:3289  state = State.Created */\n  0x0100\n  exp\n  dup2\n  sload\n  dup2\n  0xff\n  mul\n  not\n  and\n  swap1\n  dup4\n  0x02\n  dup2\n  gt\n  iszero\n  tag_8\n  jumpi\n  tag_9\n  tag_10\n  jump\t// in\ntag_9:\ntag_8:\n  mul\n  or\n  swap1\n  sstore\n  pop\n    /* \"contracts/ergasia.sol\":70:6333  contract Ballot {... */\n  jump(tag_11)\n    /* \"contracts/ergasia.sol\":3322:4251  function initCandidates() internal {... */\ntag_5:\n    /* \"contracts/ergasia.sol\":3368:3398  bytes32[] memory proposalNames */\n  0x00\n    /* \"contracts/ergasia.sol\":3415:3430  numOfCandidates */\n  sload(0x01)\n    /* \"contracts/ergasia.sol\":3401:3431  new bytes32[](numOfCandidates) */\n  0xffffffffffffffff\n  dup2\n  gt\n  iszero\n  tag_13\n  jumpi\n  tag_14\n  tag_15\n  jump\t// in\ntag_14:\ntag_13:\n  mload(0x40)\n  swap1\n  dup1\n  dup3\n  mstore\n  dup1\n  0x20\n  mul\n  0x20\n  add\n  dup3\n  add\n  0x40\n  mstore\n  dup1\n  iszero\n  tag_16\n  jumpi\n  dup2\n  0x20\n  add\n  0x20\n  dup3\n  mul\n  dup1\n  calldatasize\n  dup4\n  calldatacopy\n  dup1\n  dup3\n  add\n  swap2\n  pop\n  pop\n  swap1\n  pop\ntag_16:\n  pop\n    /* \"contracts/ergasia.sol\":3368:3431  bytes32[] memory proposalNames = new bytes32[](numOfCandidates) */\n  swap1\n  pop\n    /* \"contracts/ergasia.sol\":3460:3526  0x43616e6469646174652031000000000000000000000000000000000000000000 */\n  0x43616e6469646174652031000000000000000000000000000000000000000000\n    /* \"contracts/ergasia.sol\":3441:3526  proposalNames[0] = 0x43616e6469646174652031000000000000000000000000000000000000000000 */\n  0x00\n  shl\n    /* \"contracts/ergasia.sol\":3441:3454  proposalNames */\n  dup2\n    /* \"contracts/ergasia.sol\":3455:3456  0 */\n  0x00\n    /* \"contracts/ergasia.sol\":3441:3457  proposalNames[0] */\n  dup2\n  mload\n  dup2\n  lt\n  tag_17\n  jumpi\n  tag_18\n  tag_19\n  jump\t// in\ntag_18:\ntag_17:\n  0x20\n  mul\n  0x20\n  add\n  add\n    /* \"contracts/ergasia.sol\":3441:3526  proposalNames[0] = 0x43616e6469646174652031000000000000000000000000000000000000000000 */\n  dup2\n  dup2\n  mstore\n  pop\n  pop\n    /* \"contracts/ergasia.sol\":3571:3637  0x43616e6469646174652032000000000000000000000000000000000000000000 */\n  0x43616e6469646174652032000000000000000000000000000000000000000000\n    /* \"contracts/ergasia.sol\":3552:3637  proposalNames[1] = 0x43616e6469646174652032000000000000000000000000000000000000000000 */\n  0x00\n  shl\n    /* \"contracts/ergasia.sol\":3552:3565  proposalNames */\n  dup2\n    /* \"contracts/ergasia.sol\":3566:3567  1 */\n  0x01\n    /* \"contracts/ergasia.sol\":3552:3568  proposalNames[1] */\n  dup2\n  mload\n  dup2\n  lt\n  tag_20\n  jumpi\n  tag_21\n  tag_19\n  jump\t// in\ntag_21:\ntag_20:\n  0x20\n  mul\n  0x20\n  add\n  add\n    /* \"contracts/ergasia.sol\":3552:3637  proposalNames[1] = 0x43616e6469646174652032000000000000000000000000000000000000000000 */\n  dup2\n  dup2\n  mstore\n  pop\n  pop\n    /* \"contracts/ergasia.sol\":3682:3748  0x43616e6469646174652033000000000000000000000000000000000000000000 */\n  0x43616e6469646174652033000000000000000000000000000000000000000000\n    /* \"contracts/ergasia.sol\":3663:3748  proposalNames[2] = 0x43616e6469646174652033000000000000000000000000000000000000000000 */\n  0x00\n  shl\n    /* \"contracts/ergasia.sol\":3663:3676  proposalNames */\n  dup2\n    /* \"contracts/ergasia.sol\":3677:3678  2 */\n  0x02\n    /* \"contracts/ergasia.sol\":3663:3679  proposalNames[2] */\n  dup2\n  mload\n  dup2\n  lt\n  tag_22\n  jumpi\n  tag_23\n  tag_19\n  jump\t// in\ntag_23:\ntag_22:\n  0x20\n  mul\n  0x20\n  add\n  add\n    /* \"contracts/ergasia.sol\":3663:3748  proposalNames[2] = 0x43616e6469646174652033000000000000000000000000000000000000000000 */\n  dup2\n  dup2\n  mstore\n  pop\n  pop\n    /* \"contracts/ergasia.sol\":3793:3859  0x43616e6469646174652034000000000000000000000000000000000000000000 */\n  0x43616e6469646174652034000000000000000000000000000000000000000000\n    /* \"contracts/ergasia.sol\":3774:3859  proposalNames[3] = 0x43616e6469646174652034000000000000000000000000000000000000000000 */\n  0x00\n  shl\n    /* \"contracts/ergasia.sol\":3774:3787  proposalNames */\n  dup2\n    /* \"contracts/ergasia.sol\":3788:3789  3 */\n  0x03\n    /* \"contracts/ergasia.sol\":3774:3790  proposalNames[3] */\n  dup2\n  mload\n  dup2\n  lt\n  tag_24\n  jumpi\n  tag_25\n  tag_19\n  jump\t// in\ntag_25:\ntag_24:\n  0x20\n  mul\n  0x20\n  add\n  add\n    /* \"contracts/ergasia.sol\":3774:3859  proposalNames[3] = 0x43616e6469646174652034000000000000000000000000000000000000000000 */\n  dup2\n  dup2\n  mstore\n  pop\n  pop\n    /* \"contracts/ergasia.sol\":3904:3970  0x43616e6469646174652035000000000000000000000000000000000000000000 */\n  0x43616e6469646174652035000000000000000000000000000000000000000000\n    /* \"contracts/ergasia.sol\":3885:3970  proposalNames[4] = 0x43616e6469646174652035000000000000000000000000000000000000000000 */\n  0x00\n  shl\n    /* \"contracts/ergasia.sol\":3885:3898  proposalNames */\n  dup2\n    /* \"contracts/ergasia.sol\":3899:3900  4 */\n  0x04\n    /* \"contracts/ergasia.sol\":3885:3901  proposalNames[4] */\n  dup2\n  mload\n  dup2\n  lt\n  tag_26\n  jumpi\n  tag_27\n  tag_19\n  jump\t// in\ntag_27:\ntag_26:\n  0x20\n  mul\n  0x20\n  add\n  add\n    /* \"contracts/ergasia.sol\":3885:3970  proposalNames[4] = 0x43616e6469646174652035000000000000000000000000000000000000000000 */\n  dup2\n  dup2\n  mstore\n  pop\n  pop\n    /* \"contracts/ergasia.sol\":4003:4009  uint i */\n  0x00\n    /* \"contracts/ergasia.sol\":3998:4245  for (uint i = 0; i < proposalNames.length; i++) {... */\ntag_28:\n    /* \"contracts/ergasia.sol\":4019:4032  proposalNames */\n  dup2\n    /* \"contracts/ergasia.sol\":4019:4039  proposalNames.length */\n  mload\n    /* \"contracts/ergasia.sol\":4015:4016  i */\n  dup2\n    /* \"contracts/ergasia.sol\":4015:4039  i < proposalNames.length */\n  lt\n    /* \"contracts/ergasia.sol\":3998:4245  for (uint i = 0; i < proposalNames.length; i++) {... */\n  iszero\n  tag_29\n  jumpi\n    /* \"contracts/ergasia.sol\":4060:4072  uint counter */\n  0x00\n    /* \"contracts/ergasia.sol\":4079:4080  1 */\n  0x01\n    /* \"contracts/ergasia.sol\":4075:4076  i */\n  dup3\n    /* \"contracts/ergasia.sol\":4075:4080  i + 1 */\n  tag_31\n  swap2\n  swap1\n  tag_32\n  jump\t// in\ntag_31:\n    /* \"contracts/ergasia.sol\":4060:4080  uint counter = i + 1 */\n  swap1\n  pop\n    /* \"contracts/ergasia.sol\":4095:4104  proposals */\n  0x07\n    /* \"contracts/ergasia.sol\":4110:4233  Proposal({... */\n  mload(0x40)\n  dup1\n  0x60\n  add\n  0x40\n  mstore\n  dup1\n    /* \"contracts/ergasia.sol\":4141:4148  counter */\n  dup4\n    /* \"contracts/ergasia.sol\":4110:4233  Proposal({... */\n  dup2\n  mstore\n  0x20\n  add\n    /* \"contracts/ergasia.sol\":4172:4185  proposalNames */\n  dup6\n    /* \"contracts/ergasia.sol\":4186:4187  i */\n  dup6\n    /* \"contracts/ergasia.sol\":4172:4188  proposalNames[i] */\n  dup2\n  mload\n  dup2\n  lt\n  tag_33\n  jumpi\n  tag_34\n  tag_19\n  jump\t// in\ntag_34:\ntag_33:\n  0x20\n  mul\n  0x20\n  add\n  add\n  mload\n    /* \"contracts/ergasia.sol\":4110:4233  Proposal({... */\n  dup2\n  mstore\n  0x20\n  add\n    /* \"contracts/ergasia.sol\":4217:4218  0 */\n  0x00\n    /* \"contracts/ergasia.sol\":4110:4233  Proposal({... */\n  dup2\n  mstore\n  pop\n    /* \"contracts/ergasia.sol\":4095:4234  proposals.push(Proposal({... */\n  swap1\n  dup1\n  0x01\n  dup2\n  sload\n  add\n  dup1\n  dup3\n  sstore\n  dup1\n  swap2\n  pop\n  pop\n  0x01\n  swap1\n  sub\n  swap1\n  0x00\n  mstore\n  keccak256(0x00, 0x20)\n  swap1\n  0x03\n  mul\n  add\n  0x00\n  swap1\n  swap2\n  swap1\n  swap2\n  swap1\n  swap2\n  pop\n  0x00\n  dup3\n  add\n  mload\n  dup2\n  0x00\n  add\n  sstore\n  0x20\n  dup3\n  add\n  mload\n  dup2\n  0x01\n  add\n  sstore\n  0x40\n  dup3\n  add\n  mload\n  dup2\n  0x02\n  add\n  sstore\n  pop\n  pop\n    /* \"contracts/ergasia.sol\":4046:4245  {... */\n  pop\n    /* \"contracts/ergasia.sol\":4041:4044  i++ */\n  dup1\n  dup1\n  tag_36\n  swap1\n  tag_37\n  jump\t// in\ntag_36:\n  swap2\n  pop\n  pop\n    /* \"contracts/ergasia.sol\":3998:4245  for (uint i = 0; i < proposalNames.length; i++) {... */\n  jump(tag_28)\ntag_29:\n  pop\n    /* \"contracts/ergasia.sol\":3357:4251  {... */\n  pop\n    /* \"contracts/ergasia.sol\":3322:4251  function initCandidates() internal {... */\n  jump\t// out\n    /* \"contracts/ergasia.sol\":4257:4566  function initPollingStations(uint amount) internal {... */\ntag_7:\n    /* \"contracts/ergasia.sol\":4323:4329  uint i */\n  0x00\n    /* \"contracts/ergasia.sol\":4318:4560  for (uint i = 0; i < amount; i++) {... */\ntag_39:\n    /* \"contracts/ergasia.sol\":4339:4345  amount */\n  dup2\n    /* \"contracts/ergasia.sol\":4335:4336  i */\n  dup2\n    /* \"contracts/ergasia.sol\":4335:4345  i < amount */\n  lt\n    /* \"contracts/ergasia.sol\":4318:4560  for (uint i = 0; i < amount; i++) {... */\n  iszero\n  tag_40\n  jumpi\n    /* \"contracts/ergasia.sol\":4366:4374  stations */\n  0x08\n    /* \"contracts/ergasia.sol\":4380:4548  PollingStation({... */\n  mload(0x40)\n  dup1\n  0x60\n  add\n  0x40\n  mstore\n  dup1\n    /* \"contracts/ergasia.sol\":4427:4428  1 */\n  0x01\n    /* \"contracts/ergasia.sol\":4425:4426  i */\n  dup5\n    /* \"contracts/ergasia.sol\":4425:4428  i+1 */\n  tag_42\n  swap2\n  swap1\n  tag_32\n  jump\t// in\ntag_42:\n    /* \"contracts/ergasia.sol\":4380:4548  PollingStation({... */\n  dup2\n  mstore\n  0x20\n  add\n    /* \"contracts/ergasia.sol\":4488:4489  0 */\n  0x00\n    /* \"contracts/ergasia.sol\":4380:4548  PollingStation({... */\n  dup2\n  mstore\n  0x20\n  add\n    /* \"contracts/ergasia.sol\":4520:4521  0 */\n  0x00\n    /* \"contracts/ergasia.sol\":4380:4548  PollingStation({... */\n  dup2\n  mstore\n  pop\n    /* \"contracts/ergasia.sol\":4366:4549  stations.push(PollingStation({... */\n  swap1\n  dup1\n  0x01\n  dup2\n  sload\n  add\n  dup1\n  dup3\n  sstore\n  dup1\n  swap2\n  pop\n  pop\n  0x01\n  swap1\n  sub\n  swap1\n  0x00\n  mstore\n  keccak256(0x00, 0x20)\n  swap1\n  0x03\n  mul\n  add\n  0x00\n  swap1\n  swap2\n  swap1\n  swap2\n  swap1\n  swap2\n  pop\n  0x00\n  dup3\n  add\n  mload\n  dup2\n  0x00\n  add\n  sstore\n  0x20\n  dup3\n  add\n  mload\n  dup2\n  0x01\n  add\n  sstore\n  0x40\n  dup3\n  add\n  mload\n  dup2\n  0x02\n  add\n  sstore\n  pop\n  pop\n    /* \"contracts/ergasia.sol\":4347:4350  i++ */\n  dup1\n  dup1\n  tag_44\n  swap1\n  tag_37\n  jump\t// in\ntag_44:\n  swap2\n  pop\n  pop\n    /* \"contracts/ergasia.sol\":4318:4560  for (uint i = 0; i < amount; i++) {... */\n  jump(tag_39)\ntag_40:\n  pop\n    /* \"contracts/ergasia.sol\":4257:4566  function initPollingStations(uint amount) internal {... */\n  pop\n  jump\t// out\n    /* \"#utility.yul\":7:312   */\ntag_32:\n    /* \"#utility.yul\":47:50   */\n  0x00\n    /* \"#utility.yul\":66:86   */\n  tag_47\n    /* \"#utility.yul\":84:85   */\n  dup3\n    /* \"#utility.yul\":66:86   */\n  tag_48\n  jump\t// in\ntag_47:\n    /* \"#utility.yul\":61:86   */\n  swap2\n  pop\n    /* \"#utility.yul\":100:120   */\n  tag_49\n    /* \"#utility.yul\":118:119   */\n  dup4\n    /* \"#utility.yul\":100:120   */\n  tag_48\n  jump\t// in\ntag_49:\n    /* \"#utility.yul\":95:120   */\n  swap3\n  pop\n    /* \"#utility.yul\":254:255   */\n  dup3\n    /* \"#utility.yul\":186:252   */\n  0xffffffffffffffffffffffffffffffffffffffffffffffffffffffffffffffff\n    /* \"#utility.yul\":182:256   */\n  sub\n    /* \"#utility.yul\":179:180   */\n  dup3\n    /* \"#utility.yul\":176:257   */\n  gt\n    /* \"#utility.yul\":173:280   */\n  iszero\n  tag_50\n  jumpi\n    /* \"#utility.yul\":260:278   */\n  tag_51\n  tag_52\n  jump\t// in\ntag_51:\n    /* \"#utility.yul\":173:280   */\ntag_50:\n    /* \"#utility.yul\":304:305   */\n  dup3\n    /* \"#utility.yul\":301:302   */\n  dup3\n    /* \"#utility.yul\":297:306   */\n  add\n    /* \"#utility.yul\":290:306   */\n  swap1\n  pop\n    /* \"#utility.yul\":7:312   */\n  swap3\n  swap2\n  pop\n  pop\n  jump\t// out\n    /* \"#utility.yul\":318:395   */\ntag_48:\n    /* \"#utility.yul\":355:362   */\n  0x00\n    /* \"#utility.yul\":384:389   */\n  dup2\n    /* \"#utility.yul\":373:389   */\n  swap1\n  pop\n    /* \"#utility.yul\":318:395   */\n  swap2\n  swap1\n  pop\n  jump\t// out\n    /* \"#utility.yul\":401:634   */\ntag_37:\n    /* \"#utility.yul\":440:443   */\n  0x00\n    /* \"#utility.yul\":463:487   */\n  tag_55\n    /* \"#utility.yul\":481:486   */\n  dup3\n    /* \"#utility.yul\":463:487   */\n  tag_48\n  jump\t// in\ntag_55:\n    /* \"#utility.yul\":454:487   */\n  swap2\n  pop\n    /* \"#utility.yul\":509:575   */\n  0xffffffffffffffffffffffffffffffffffffffffffffffffffffffffffffffff\n    /* \"#utility.yul\":502:507   */\n  dup3\n    /* \"#utility.yul\":499:576   */\n  eq\n    /* \"#utility.yul\":496:599   */\n  iszero\n  tag_56\n  jumpi\n    /* \"#utility.yul\":579:597   */\n  tag_57\n  tag_52\n  jump\t// in\ntag_57:\n    /* \"#utility.yul\":496:599   */\ntag_56:\n    /* \"#utility.yul\":626:627   */\n  0x01\n    /* \"#utility.yul\":619:624   */\n  dup3\n    /* \"#utility.yul\":615:628   */\n  add\n    /* \"#utility.yul\":608:628   */\n  swap1\n  pop\n    /* \"#utility.yul\":401:634   */\n  swap2\n  swap1\n  pop\n  jump\t// out\n    /* \"#utility.yul\":640:820   */\ntag_52:\n    /* \"#utility.yul\":688:765   */\n  0x4e487b7100000000000000000000000000000000000000000000000000000000\n    /* \"#utility.yul\":685:686   */\n  0x00\n    /* \"#utility.yul\":678:766   */\n  mstore\n    /* \"#utility.yul\":785:789   */\n  0x11\n    /* \"#utility.yul\":782:783   */\n  0x04\n    /* \"#utility.yul\":775:790   */\n  mstore\n    /* \"#utility.yul\":809:813   */\n  0x24\n    /* \"#utility.yul\":806:807   */\n  0x00\n    /* \"#utility.yul\":799:814   */\n  revert\n    /* \"#utility.yul\":826:1006   */\ntag_10:\n    /* \"#utility.yul\":874:951   */\n  0x4e487b7100000000000000000000000000000000000000000000000000000000\n    /* \"#utility.yul\":871:872   */\n  0x00\n    /* \"#utility.yul\":864:952   */\n  mstore\n    /* \"#utility.yul\":971:975   */\n  0x21\n    /* \"#utility.yul\":968:969   */\n  0x04\n    /* \"#utility.yul\":961:976   */\n  mstore\n    /* \"#utility.yul\":995:999   */\n  0x24\n    /* \"#utility.yul\":992:993   */\n  0x00\n    /* \"#utility.yul\":985:1000   */\n  revert\n    /* \"#utility.yul\":1012:1192   */\ntag_19:\n    /* \"#utility.yul\":1060:1137   */\n  0x4e487b7100000000000000000000000000000000000000000000000000000000\n    /* \"#utility.yul\":1057:1058   */\n  0x00\n    /* \"#utility.yul\":1050:1138   */\n  mstore\n    /* \"#utility.yul\":1157:1161   */\n  0x32\n    /* \"#utility.yul\":1154:1155   */\n  0x04\n    /* \"#utility.yul\":1147:1162   */\n  mstore\n    /* \"#utility.yul\":1181:1185   */\n  0x24\n    /* \"#utility.yul\":1178:1179   */\n  0x00\n    /* \"#utility.yul\":1171:1186   */\n  revert\n    /* \"#utility.yul\":1198:1378   */\ntag_15:\n    /* \"#utility.yul\":1246:1323   */\n  0x4e487b7100000000000000000000000000000000000000000000000000000000\n    /* \"#utility.yul\":1243:1244   */\n  0x00\n    /* \"#utility.yul\":1236:1324   */\n  mstore\n    /* \"#utility.yul\":1343:1347   */\n  0x41\n    /* \"#utility.yul\":1340:1341   */\n  0x04\n    /* \"#utility.yul\":1333:1348   */\n  mstore\n    /* \"#utility.yul\":1367:1371   */\n  0x24\n    /* \"#utility.yul\":1364:1365   */\n  0x00\n    /* \"#utility.yul\":1357:1372   */\n  revert\n    /* \"contracts/ergasia.sol\":70:6333  contract Ballot {... */\ntag_11:\n  dataSize(sub_0)\n  dup1\n  dataOffset(sub_0)\n  0x00\n  codecopy\n  0x00\n  return\nstop\n\nsub_0: assembly {\n        /* \"contracts/ergasia.sol\":70:6333  contract Ballot {... */\n      mstore(0x40, 0x80)\n      callvalue\n      dup1\n      iszero\n      tag_1\n      jumpi\n      0x00\n      dup1\n      revert\n    tag_1:\n      pop\n      jumpi(tag_2, lt(calldatasize, 0x04))\n      shr(0xe0, calldataload(0x00))\n      dup1\n      0xaf154087\n      gt\n      tag_13\n      jumpi\n      dup1\n      0xaf154087\n      eq\n      tag_8\n      jumpi\n      dup1\n      0xb9f05f2f\n      eq\n      tag_9\n      jumpi\n      dup1\n      0xc19d93fb\n      eq\n      tag_10\n      jumpi\n      dup1\n      0xdca97183\n      eq\n      tag_11\n      jumpi\n      dup1\n      0xf3a8286f\n      eq\n      tag_12\n      jumpi\n      jump(tag_2)\n    tag_13:\n      dup1\n      0x013cf08b\n      eq\n      tag_3\n      jumpi\n      dup1\n      0x0d15fd77\n      eq\n      tag_4\n      jumpi\n      dup1\n      0x4c0a6af0\n      eq\n      tag_5\n      jumpi\n      dup1\n      0x5f5300ff\n      eq\n      tag_6\n      jumpi\n      dup1\n      0x92f859db\n      eq\n      tag_7\n      jumpi\n    tag_2:\n      0x00\n      dup1\n      revert\n        /* \"contracts/ergasia.sol\":1327:1354  Proposal[] public proposals */\n    tag_3:\n      tag_14\n      0x04\n      dup1\n      calldatasize\n      sub\n      dup2\n      add\n      swap1\n      tag_15\n      swap2\n      swap1\n      tag_16\n      jump\t// in\n    tag_15:\n      tag_17\n      jump\t// in\n    tag_14:\n      mload(0x40)\n      tag_18\n      swap4\n      swap3\n      swap2\n      swap1\n      tag_19\n      jump\t// in\n    tag_18:\n      mload(0x40)\n      dup1\n      swap2\n      sub\n      swap1\n      return\n        /* \"contracts/ergasia.sol\":1294:1320  uint public totalVotes = 0 */\n    tag_4:\n      tag_20\n      tag_21\n      jump\t// in\n    tag_20:\n      mload(0x40)\n      tag_22\n      swap2\n      swap1\n      tag_23\n      jump\t// in\n    tag_22:\n      mload(0x40)\n      dup1\n      swap2\n      sub\n      swap1\n      return\n        /* \"contracts/ergasia.sol\":5460:5554  function startVote() public inState(State.Created) Owner {... */\n    tag_5:\n      tag_24\n      tag_25\n      jump\t// in\n    tag_24:\n      stop\n        /* \"contracts/ergasia.sol\":1261:1288  uint public totalVoters = 0 */\n    tag_6:\n      tag_26\n      tag_27\n      jump\t// in\n    tag_26:\n      mload(0x40)\n      tag_28\n      swap2\n      swap1\n      tag_23\n      jump\t// in\n    tag_28:\n      mload(0x40)\n      dup1\n      swap2\n      sub\n      swap1\n      return\n        /* \"contracts/ergasia.sol\":1385:1417  PollingStation[] public stations */\n    tag_7:\n      tag_29\n      0x04\n      dup1\n      calldatasize\n      sub\n      dup2\n      add\n      swap1\n      tag_30\n      swap2\n      swap1\n      tag_16\n      jump\t// in\n    tag_30:\n      tag_31\n      jump\t// in\n    tag_29:\n      mload(0x40)\n      tag_32\n      swap4\n      swap3\n      swap2\n      swap1\n      tag_33\n      jump\t// in\n    tag_32:\n      mload(0x40)\n      dup1\n      swap2\n      sub\n      swap1\n      return\n        /* \"contracts/ergasia.sol\":1443:1489  mapping(address => Voter) public voterRegister */\n    tag_8:\n      tag_34\n      0x04\n      dup1\n      calldatasize\n      sub\n      dup2\n      add\n      swap1\n      tag_35\n      swap2\n      swap1\n      tag_36\n      jump\t// in\n    tag_35:\n      tag_37\n      jump\t// in\n    tag_34:\n      mload(0x40)\n      tag_38\n      swap5\n      swap4\n      swap3\n      swap2\n      swap1\n      tag_39\n      jump\t// in\n    tag_38:\n      mload(0x40)\n      dup1\n      swap2\n      sub\n      swap1\n      return\n        /* \"contracts/ergasia.sol\":4572:5183  function addVoter(address _voterAddress, uint _pollingStationID) public inState(State.Created) Owner {... */\n    tag_9:\n      tag_40\n      0x04\n      dup1\n      calldatasize\n      sub\n      dup2\n      add\n      swap1\n      tag_41\n      swap2\n      swap1\n      tag_42\n      jump\t// in\n    tag_41:\n      tag_43\n      jump\t// in\n    tag_40:\n      stop\n        /* \"contracts/ergasia.sol\":1538:1556  State public state */\n    tag_10:\n      tag_44\n      tag_45\n      jump\t// in\n    tag_44:\n      mload(0x40)\n      tag_46\n      swap2\n      swap1\n      tag_47\n      jump\t// in\n    tag_46:\n      mload(0x40)\n      dup1\n      swap2\n      sub\n      swap1\n      return\n        /* \"contracts/ergasia.sol\":945:971  address public ballotOwner */\n    tag_11:\n      tag_48\n      tag_49\n      jump\t// in\n    tag_48:\n      mload(0x40)\n      tag_50\n      swap2\n      swap1\n      tag_51\n      jump\t// in\n    tag_50:\n      mload(0x40)\n      dup1\n      swap2\n      sub\n      swap1\n      return\n        /* \"contracts/ergasia.sol\":1188:1215  uint public finalResult = 0 */\n    tag_12:\n      tag_52\n      tag_53\n      jump\t// in\n    tag_52:\n      mload(0x40)\n      tag_54\n      swap2\n      swap1\n      tag_23\n      jump\t// in\n    tag_54:\n      mload(0x40)\n      dup1\n      swap2\n      sub\n      swap1\n      return\n        /* \"contracts/ergasia.sol\":1327:1354  Proposal[] public proposals */\n    tag_17:\n      0x07\n      dup2\n      dup2\n      sload\n      dup2\n      lt\n      tag_55\n      jumpi\n      0x00\n      dup1\n      revert\n    tag_55:\n      swap1\n      0x00\n      mstore\n      keccak256(0x00, 0x20)\n      swap1\n      0x03\n      mul\n      add\n      0x00\n      swap2\n      pop\n      swap1\n      pop\n      dup1\n      0x00\n      add\n      sload\n      swap1\n      dup1\n      0x01\n      add\n      sload\n      swap1\n      dup1\n      0x02\n      add\n      sload\n      swap1\n      pop\n      dup4\n      jump\t// out\n        /* \"contracts/ergasia.sol\":1294:1320  uint public totalVotes = 0 */\n    tag_21:\n      sload(0x06)\n      dup2\n      jump\t// out\n        /* \"contracts/ergasia.sol\":5460:5554  function startVote() public inState(State.Created) Owner {... */\n    tag_25:\n        /* \"contracts/ergasia.sol\":5496:5509  State.Created */\n      0x00\n        /* \"contracts/ergasia.sol\":1706:1712  _state */\n      dup1\n        /* \"contracts/ergasia.sol\":1697:1712  state == _state */\n      0x02\n      dup2\n      gt\n      iszero\n      tag_58\n      jumpi\n      tag_59\n      tag_60\n      jump\t// in\n    tag_59:\n    tag_58:\n        /* \"contracts/ergasia.sol\":1697:1702  state */\n      0x0a\n      0x00\n      swap1\n      sload\n      swap1\n      0x0100\n      exp\n      swap1\n      div\n      0xff\n      and\n        /* \"contracts/ergasia.sol\":1697:1712  state == _state */\n      0x02\n      dup2\n      gt\n      iszero\n      tag_61\n      jumpi\n      tag_62\n      tag_60\n      jump\t// in\n    tag_62:\n    tag_61:\n      eq\n        /* \"contracts/ergasia.sol\":1689:1713  require(state == _state) */\n      tag_63\n      jumpi\n      0x00\n      dup1\n      revert\n    tag_63:\n        /* \"contracts/ergasia.sol\":1612:1623  ballotOwner */\n      0x00\n      dup1\n      sload\n      swap1\n      0x0100\n      exp\n      swap1\n      div\n      0xffffffffffffffffffffffffffffffffffffffff\n      and\n        /* \"contracts/ergasia.sol\":1598:1623  msg.sender == ballotOwner */\n      0xffffffffffffffffffffffffffffffffffffffff\n      and\n        /* \"contracts/ergasia.sol\":1598:1608  msg.sender */\n      caller\n        /* \"contracts/ergasia.sol\":1598:1623  msg.sender == ballotOwner */\n      0xffffffffffffffffffffffffffffffffffffffff\n      and\n      eq\n        /* \"contracts/ergasia.sol\":1590:1624  require(msg.sender == ballotOwner) */\n      tag_65\n      jumpi\n      0x00\n      dup1\n      revert\n    tag_65:\n        /* \"contracts/ergasia.sol\":5535:5547  State.Voting */\n      0x01\n        /* \"contracts/ergasia.sol\":5527:5532  state */\n      0x0a\n      0x00\n        /* \"contracts/ergasia.sol\":5527:5547  state = State.Voting */\n      0x0100\n      exp\n      dup2\n      sload\n      dup2\n      0xff\n      mul\n      not\n      and\n      swap1\n      dup4\n      0x02\n      dup2\n      gt\n      iszero\n      tag_67\n      jumpi\n      tag_68\n      tag_60\n      jump\t// in\n    tag_68:\n    tag_67:\n      mul\n      or\n      swap1\n      sstore\n      pop\n        /* \"contracts/ergasia.sol\":5460:5554  function startVote() public inState(State.Created) Owner {... */\n      pop\n      jump\t// out\n        /* \"contracts/ergasia.sol\":1261:1288  uint public totalVoters = 0 */\n    tag_27:\n      sload(0x05)\n      dup2\n      jump\t// out\n        /* \"contracts/ergasia.sol\":1385:1417  PollingStation[] public stations */\n    tag_31:\n      0x08\n      dup2\n      dup2\n      sload\n      dup2\n      lt\n      tag_69\n      jumpi\n      0x00\n      dup1\n      revert\n    tag_69:\n      swap1\n      0x00\n      mstore\n      keccak256(0x00, 0x20)\n      swap1\n      0x03\n      mul\n      add\n      0x00\n      swap2\n      pop\n      swap1\n      pop\n      dup1\n      0x00\n      add\n      sload\n      swap1\n      dup1\n      0x01\n      add\n      sload\n      swap1\n      dup1\n      0x02\n      add\n      sload\n      swap1\n      pop\n      dup4\n      jump\t// out\n        /* \"contracts/ergasia.sol\":1443:1489  mapping(address => Voter) public voterRegister */\n    tag_37:\n      mstore(0x20, 0x09)\n      dup1\n      0x00\n      mstore\n      keccak256(0x00, 0x40)\n      0x00\n      swap2\n      pop\n      swap1\n      pop\n      dup1\n      0x00\n      add\n      0x00\n      swap1\n      sload\n      swap1\n      0x0100\n      exp\n      swap1\n      div\n      0xff\n      and\n      swap1\n      dup1\n      0x00\n      add\n      0x01\n      swap1\n      sload\n      swap1\n      0x0100\n      exp\n      swap1\n      div\n      0xff\n      and\n      swap1\n      dup1\n      0x01\n      add\n      sload\n      swap1\n      dup1\n      0x02\n      add\n      sload\n      swap1\n      pop\n      dup5\n      jump\t// out\n        /* \"contracts/ergasia.sol\":4572:5183  function addVoter(address _voterAddress, uint _pollingStationID) public inState(State.Created) Owner {... */\n    tag_43:\n        /* \"contracts/ergasia.sol\":4652:4665  State.Created */\n      0x00\n        /* \"contracts/ergasia.sol\":1706:1712  _state */\n      dup1\n        /* \"contracts/ergasia.sol\":1697:1712  state == _state */\n      0x02\n      dup2\n      gt\n      iszero\n      tag_72\n      jumpi\n      tag_73\n      tag_60\n      jump\t// in\n    tag_73:\n    tag_72:\n        /* \"contracts/ergasia.sol\":1697:1702  state */\n      0x0a\n      0x00\n      swap1\n      sload\n      swap1\n      0x0100\n      exp\n      swap1\n      div\n      0xff\n      and\n        /* \"contracts/ergasia.sol\":1697:1712  state == _state */\n      0x02\n      dup2\n      gt\n      iszero\n      tag_74\n      jumpi\n      tag_75\n      tag_60\n      jump\t// in\n    tag_75:\n    tag_74:\n      eq\n        /* \"contracts/ergasia.sol\":1689:1713  require(state == _state) */\n      tag_76\n      jumpi\n      0x00\n      dup1\n      revert\n    tag_76:\n        /* \"contracts/ergasia.sol\":1612:1623  ballotOwner */\n      0x00\n      dup1\n      sload\n      swap1\n      0x0100\n      exp\n      swap1\n      div\n      0xffffffffffffffffffffffffffffffffffffffff\n      and\n        /* \"contracts/ergasia.sol\":1598:1623  msg.sender == ballotOwner */\n      0xffffffffffffffffffffffffffffffffffffffff\n      and\n        /* \"contracts/ergasia.sol\":1598:1608  msg.sender */\n      caller\n        /* \"contracts/ergasia.sol\":1598:1623  msg.sender == ballotOwner */\n      0xffffffffffffffffffffffffffffffffffffffff\n      and\n      eq\n        /* \"contracts/ergasia.sol\":1590:1624  require(msg.sender == ballotOwner) */\n      tag_78\n      jumpi\n      0x00\n      dup1\n      revert\n    tag_78:\n        /* \"contracts/ergasia.sol\":4737:4738  0 */\n      0x00\n        /* \"contracts/ergasia.sol\":4691:4704  voterRegister */\n      0x09\n        /* \"contracts/ergasia.sol\":4691:4719  voterRegister[_voterAddress] */\n      0x00\n        /* \"contracts/ergasia.sol\":4705:4718  _voterAddress */\n      dup6\n        /* \"contracts/ergasia.sol\":4691:4719  voterRegister[_voterAddress] */\n      0xffffffffffffffffffffffffffffffffffffffff\n      and\n      0xffffffffffffffffffffffffffffffffffffffff\n      and\n      dup2\n      mstore\n      0x20\n      add\n      swap1\n      dup2\n      mstore\n      0x20\n      add\n      0x00\n      keccak256\n        /* \"contracts/ergasia.sol\":4691:4733  voterRegister[_voterAddress].indexProposal */\n      0x01\n      add\n      sload\n        /* \"contracts/ergasia.sol\":4691:4738  voterRegister[_voterAddress].indexProposal == 0 */\n      eq\n        /* \"contracts/ergasia.sol\":4683:4771  require(voterRegister[_voterAddress].indexProposal == 0, \"Voter is already registered.\") */\n      tag_80\n      jumpi\n      mload(0x40)\n      0x08c379a000000000000000000000000000000000000000000000000000000000\n      dup2\n      mstore\n      0x04\n      add\n      tag_81\n      swap1\n      tag_82\n      jump\t// in\n    tag_81:\n      mload(0x40)\n      dup1\n      swap2\n      sub\n      swap1\n      revert\n    tag_80:\n        /* \"contracts/ergasia.sol\":4809:4810  1 */\n      0x01\n        /* \"contracts/ergasia.sol\":4789:4806  _pollingStationID */\n      dup3\n        /* \"contracts/ergasia.sol\":4789:4810  _pollingStationID >=1 */\n      lt\n      iszero\n        /* \"contracts/ergasia.sol\":4789:4855  _pollingStationID >=1 && _pollingStationID <= numOfPollingStations */\n      dup1\n      iszero\n      tag_83\n      jumpi\n      pop\n        /* \"contracts/ergasia.sol\":4835:4855  numOfPollingStations */\n      sload(0x02)\n        /* \"contracts/ergasia.sol\":4814:4831  _pollingStationID */\n      dup3\n        /* \"contracts/ergasia.sol\":4814:4855  _pollingStationID <= numOfPollingStations */\n      gt\n      iszero\n        /* \"contracts/ergasia.sol\":4789:4855  _pollingStationID >=1 && _pollingStationID <= numOfPollingStations */\n    tag_83:\n        /* \"contracts/ergasia.sol\":4781:4902  require(_pollingStationID >=1 && _pollingStationID <= numOfPollingStations, \"Please provide a valid polling station ID.\") */\n      tag_84\n      jumpi\n      mload(0x40)\n      0x08c379a000000000000000000000000000000000000000000000000000000000\n      dup2\n      mstore\n      0x04\n      add\n      tag_85\n      swap1\n      tag_86\n      jump\t// in\n    tag_85:\n      mload(0x40)\n      dup1\n      swap2\n      sub\n      swap1\n      revert\n    tag_84:\n        /* \"contracts/ergasia.sol\":4913:4927  Voter memory v */\n      tag_87\n      tag_88\n      jump\t// in\n    tag_87:\n        /* \"contracts/ergasia.sol\":4950:4954  true */\n      0x01\n        /* \"contracts/ergasia.sol\":4937:4938  v */\n      dup2\n        /* \"contracts/ergasia.sol\":4937:4947  v.enrolled */\n      0x00\n      add\n        /* \"contracts/ergasia.sol\":4937:4954  v.enrolled = true */\n      swap1\n      iszero\n      iszero\n      swap1\n      dup2\n      iszero\n      iszero\n      dup2\n      mstore\n      pop\n      pop\n        /* \"contracts/ergasia.sol\":4974:4979  false */\n      0x00\n        /* \"contracts/ergasia.sol\":4964:4965  v */\n      dup2\n        /* \"contracts/ergasia.sol\":4964:4971  v.voted */\n      0x20\n      add\n        /* \"contracts/ergasia.sol\":4964:4979  v.voted = false */\n      swap1\n      iszero\n      iszero\n      swap1\n      dup2\n      iszero\n      iszero\n      dup2\n      mstore\n      pop\n      pop\n        /* \"contracts/ergasia.sol\":5007:5009  -1 */\n      0xffffffffffffffffffffffffffffffffffffffffffffffffffffffffffffffff\n        /* \"contracts/ergasia.sol\":4989:4990  v */\n      dup2\n        /* \"contracts/ergasia.sol\":4989:5004  v.indexProposal */\n      0x40\n      add\n        /* \"contracts/ergasia.sol\":4989:5009  v.indexProposal = -1 */\n      dup2\n      dup2\n      mstore\n      pop\n      pop\n        /* \"contracts/ergasia.sol\":5040:5057  _pollingStationID */\n      dup3\n        /* \"contracts/ergasia.sol\":5019:5020  v */\n      dup2\n        /* \"contracts/ergasia.sol\":5019:5037  v.pollingStationID */\n      0x60\n      add\n        /* \"contracts/ergasia.sol\":5019:5057  v.pollingStationID = _pollingStationID */\n      dup2\n      dup2\n      mstore\n      pop\n      pop\n        /* \"contracts/ergasia.sol\":5098:5099  v */\n      dup1\n        /* \"contracts/ergasia.sol\":5067:5080  voterRegister */\n      0x09\n        /* \"contracts/ergasia.sol\":5067:5095  voterRegister[_voterAddress] */\n      0x00\n        /* \"contracts/ergasia.sol\":5081:5094  _voterAddress */\n      dup7\n        /* \"contracts/ergasia.sol\":5067:5095  voterRegister[_voterAddress] */\n      0xffffffffffffffffffffffffffffffffffffffff\n      and\n      0xffffffffffffffffffffffffffffffffffffffff\n      and\n      dup2\n      mstore\n      0x20\n      add\n      swap1\n      dup2\n      mstore\n      0x20\n      add\n      0x00\n      keccak256\n        /* \"contracts/ergasia.sol\":5067:5099  voterRegister[_voterAddress] = v */\n      0x00\n      dup3\n      add\n      mload\n      dup2\n      0x00\n      add\n      exp(0x0100, 0x00)\n      dup2\n      sload\n      dup2\n      0xff\n      mul\n      not\n      and\n      swap1\n      dup4\n      iszero\n      iszero\n      mul\n      or\n      swap1\n      sstore\n      pop\n      0x20\n      dup3\n      add\n      mload\n      dup2\n      0x00\n      add\n      exp(0x0100, 0x01)\n      dup2\n      sload\n      dup2\n      0xff\n      mul\n      not\n      and\n      swap1\n      dup4\n      iszero\n      iszero\n      mul\n      or\n      swap1\n      sstore\n      pop\n      0x40\n      dup3\n      add\n      mload\n      dup2\n      0x01\n      add\n      sstore\n      0x60\n      dup3\n      add\n      mload\n      dup2\n      0x02\n      add\n      sstore\n      swap1\n      pop\n      pop\n        /* \"contracts/ergasia.sol\":5109:5120  totalVoters */\n      0x05\n      0x00\n        /* \"contracts/ergasia.sol\":5109:5122  totalVoters++ */\n      dup2\n      sload\n      dup1\n      swap3\n      swap2\n      swap1\n      tag_89\n      swap1\n      tag_90\n      jump\t// in\n    tag_89:\n      swap2\n      swap1\n      pop\n      sstore\n      pop\n        /* \"contracts/ergasia.sol\":5133:5176  registerAtPollingStation(_pollingStationID) */\n      tag_91\n        /* \"contracts/ergasia.sol\":5158:5175  _pollingStationID */\n      dup4\n        /* \"contracts/ergasia.sol\":5133:5157  registerAtPollingStation */\n      tag_92\n        /* \"contracts/ergasia.sol\":5133:5176  registerAtPollingStation(_pollingStationID) */\n      jump\t// in\n    tag_91:\n        /* \"contracts/ergasia.sol\":4673:5183  {... */\n      pop\n        /* \"contracts/ergasia.sol\":4572:5183  function addVoter(address _voterAddress, uint _pollingStationID) public inState(State.Created) Owner {... */\n      pop\n      pop\n      pop\n      jump\t// out\n        /* \"contracts/ergasia.sol\":1538:1556  State public state */\n    tag_45:\n      0x0a\n      0x00\n      swap1\n      sload\n      swap1\n      0x0100\n      exp\n      swap1\n      div\n      0xff\n      and\n      dup2\n      jump\t// out\n        /* \"contracts/ergasia.sol\":945:971  address public ballotOwner */\n    tag_49:\n      0x00\n      dup1\n      sload\n      swap1\n      0x0100\n      exp\n      swap1\n      div\n      0xffffffffffffffffffffffffffffffffffffffff\n      and\n      dup2\n      jump\t// out\n        /* \"contracts/ergasia.sol\":1188:1215  uint public finalResult = 0 */\n    tag_53:\n      sload(0x04)\n      dup2\n      jump\t// out\n        /* \"contracts/ergasia.sol\":5189:5454  function registerAtPollingStation(uint _stationID) internal {... */\n    tag_92:\n        /* \"contracts/ergasia.sol\":5264:5270  uint i */\n      0x00\n        /* \"contracts/ergasia.sol\":5259:5448  for (uint i = 0; i < stations.length; i++) {... */\n    tag_94:\n        /* \"contracts/ergasia.sol\":5280:5288  stations */\n      0x08\n        /* \"contracts/ergasia.sol\":5280:5295  stations.length */\n      dup1\n      sload\n      swap1\n      pop\n        /* \"contracts/ergasia.sol\":5276:5277  i */\n      dup2\n        /* \"contracts/ergasia.sol\":5276:5295  i < stations.length */\n      lt\n        /* \"contracts/ergasia.sol\":5259:5448  for (uint i = 0; i < stations.length; i++) {... */\n      iszero\n      tag_95\n      jumpi\n        /* \"contracts/ergasia.sol\":5345:5355  _stationID */\n      dup2\n        /* \"contracts/ergasia.sol\":5320:5328  stations */\n      0x08\n        /* \"contracts/ergasia.sol\":5329:5330  i */\n      dup3\n        /* \"contracts/ergasia.sol\":5320:5331  stations[i] */\n      dup2\n      sload\n      dup2\n      lt\n      tag_97\n      jumpi\n      tag_98\n      tag_99\n      jump\t// in\n    tag_98:\n    tag_97:\n      swap1\n      0x00\n      mstore\n      keccak256(0x00, 0x20)\n      swap1\n      0x03\n      mul\n      add\n        /* \"contracts/ergasia.sol\":5320:5341  stations[i].stationID */\n      0x00\n      add\n      sload\n        /* \"contracts/ergasia.sol\":5320:5355  stations[i].stationID == _stationID */\n      eq\n        /* \"contracts/ergasia.sol\":5316:5438  if (stations[i].stationID == _stationID) {... */\n      iszero\n      tag_101\n      jumpi\n        /* \"contracts/ergasia.sol\":5375:5383  stations */\n      0x08\n        /* \"contracts/ergasia.sol\":5384:5385  i */\n      dup2\n        /* \"contracts/ergasia.sol\":5375:5386  stations[i] */\n      dup2\n      sload\n      dup2\n      lt\n      tag_102\n      jumpi\n      tag_103\n      tag_99\n      jump\t// in\n    tag_103:\n    tag_102:\n      swap1\n      0x00\n      mstore\n      keccak256(0x00, 0x20)\n      swap1\n      0x03\n      mul\n      add\n        /* \"contracts/ergasia.sol\":5375:5398  stations[i].pplEnrolled */\n      0x01\n      add\n      0x00\n        /* \"contracts/ergasia.sol\":5375:5400  stations[i].pplEnrolled++ */\n      dup2\n      sload\n      dup1\n      swap3\n      swap2\n      swap1\n      tag_105\n      swap1\n      tag_90\n      jump\t// in\n    tag_105:\n      swap2\n      swap1\n      pop\n      sstore\n      pop\n        /* \"contracts/ergasia.sol\":5418:5423  break */\n      jump(tag_95)\n        /* \"contracts/ergasia.sol\":5316:5438  if (stations[i].stationID == _stationID) {... */\n    tag_101:\n        /* \"contracts/ergasia.sol\":5297:5300  i++ */\n      dup1\n      dup1\n      tag_106\n      swap1\n      tag_90\n      jump\t// in\n    tag_106:\n      swap2\n      pop\n      pop\n        /* \"contracts/ergasia.sol\":5259:5448  for (uint i = 0; i < stations.length; i++) {... */\n      jump(tag_94)\n    tag_95:\n      pop\n        /* \"contracts/ergasia.sol\":5189:5454  function registerAtPollingStation(uint _stationID) internal {... */\n      pop\n      jump\t// out\n    tag_88:\n      mload(0x40)\n      dup1\n      0x80\n      add\n      0x40\n      mstore\n      dup1\n      iszero(iszero(0x00))\n      dup2\n      mstore\n      0x20\n      add\n      iszero(iszero(0x00))\n      dup2\n      mstore\n      0x20\n      add\n      0x00\n      dup2\n      mstore\n      0x20\n      add\n      0x00\n      dup2\n      mstore\n      pop\n      swap1\n      jump\t// out\n        /* \"#utility.yul\":7:146   */\n    tag_108:\n        /* \"#utility.yul\":53:58   */\n      0x00\n        /* \"#utility.yul\":91:97   */\n      dup2\n        /* \"#utility.yul\":78:98   */\n      calldataload\n        /* \"#utility.yul\":69:98   */\n      swap1\n      pop\n        /* \"#utility.yul\":107:140   */\n      tag_110\n        /* \"#utility.yul\":134:139   */\n      dup2\n        /* \"#utility.yul\":107:140   */\n      tag_111\n      jump\t// in\n    tag_110:\n        /* \"#utility.yul\":7:146   */\n      swap3\n      swap2\n      pop\n      pop\n      jump\t// out\n        /* \"#utility.yul\":152:291   */\n    tag_112:\n        /* \"#utility.yul\":198:203   */\n      0x00\n        /* \"#utility.yul\":236:242   */\n      dup2\n        /* \"#utility.yul\":223:243   */\n      calldataload\n        /* \"#utility.yul\":214:243   */\n      swap1\n      pop\n        /* \"#utility.yul\":252:285   */\n      tag_114\n        /* \"#utility.yul\":279:284   */\n      dup2\n        /* \"#utility.yul\":252:285   */\n      tag_115\n      jump\t// in\n    tag_114:\n        /* \"#utility.yul\":152:291   */\n      swap3\n      swap2\n      pop\n      pop\n      jump\t// out\n        /* \"#utility.yul\":297:626   */\n    tag_36:\n        /* \"#utility.yul\":356:362   */\n      0x00\n        /* \"#utility.yul\":405:407   */\n      0x20\n        /* \"#utility.yul\":393:402   */\n      dup3\n        /* \"#utility.yul\":384:391   */\n      dup5\n        /* \"#utility.yul\":380:403   */\n      sub\n        /* \"#utility.yul\":376:408   */\n      slt\n        /* \"#utility.yul\":373:492   */\n      iszero\n      tag_117\n      jumpi\n        /* \"#utility.yul\":411:490   */\n      tag_118\n      tag_119\n      jump\t// in\n    tag_118:\n        /* \"#utility.yul\":373:492   */\n    tag_117:\n        /* \"#utility.yul\":531:532   */\n      0x00\n        /* \"#utility.yul\":556:609   */\n      tag_120\n        /* \"#utility.yul\":601:608   */\n      dup5\n        /* \"#utility.yul\":592:598   */\n      dup3\n        /* \"#utility.yul\":581:590   */\n      dup6\n        /* \"#utility.yul\":577:599   */\n      add\n        /* \"#utility.yul\":556:609   */\n      tag_108\n      jump\t// in\n    tag_120:\n        /* \"#utility.yul\":546:609   */\n      swap2\n      pop\n        /* \"#utility.yul\":502:619   */\n      pop\n        /* \"#utility.yul\":297:626   */\n      swap3\n      swap2\n      pop\n      pop\n      jump\t// out\n        /* \"#utility.yul\":632:1106   */\n    tag_42:\n        /* \"#utility.yul\":700:706   */\n      0x00\n        /* \"#utility.yul\":708:714   */\n      dup1\n        /* \"#utility.yul\":757:759   */\n      0x40\n        /* \"#utility.yul\":745:754   */\n      dup4\n        /* \"#utility.yul\":736:743   */\n      dup6\n        /* \"#utility.yul\":732:755   */\n      sub\n        /* \"#utility.yul\":728:760   */\n      slt\n        /* \"#utility.yul\":725:844   */\n      iszero\n      tag_122\n      jumpi\n        /* \"#utility.yul\":763:842   */\n      tag_123\n      tag_119\n      jump\t// in\n    tag_123:\n        /* \"#utility.yul\":725:844   */\n    tag_122:\n        /* \"#utility.yul\":883:884   */\n      0x00\n        /* \"#utility.yul\":908:961   */\n      tag_124\n        /* \"#utility.yul\":953:960   */\n      dup6\n        /* \"#utility.yul\":944:950   */\n      dup3\n        /* \"#utility.yul\":933:942   */\n      dup7\n        /* \"#utility.yul\":929:951   */\n      add\n        /* \"#utility.yul\":908:961   */\n      tag_108\n      jump\t// in\n    tag_124:\n        /* \"#utility.yul\":898:961   */\n      swap3\n      pop\n        /* \"#utility.yul\":854:971   */\n      pop\n        /* \"#utility.yul\":1010:1012   */\n      0x20\n        /* \"#utility.yul\":1036:1089   */\n      tag_125\n        /* \"#utility.yul\":1081:1088   */\n      dup6\n        /* \"#utility.yul\":1072:1078   */\n      dup3\n        /* \"#utility.yul\":1061:1070   */\n      dup7\n        /* \"#utility.yul\":1057:1079   */\n      add\n        /* \"#utility.yul\":1036:1089   */\n      tag_112\n      jump\t// in\n    tag_125:\n        /* \"#utility.yul\":1026:1089   */\n      swap2\n      pop\n        /* \"#utility.yul\":981:1099   */\n      pop\n        /* \"#utility.yul\":632:1106   */\n      swap3\n      pop\n      swap3\n      swap1\n      pop\n      jump\t// out\n        /* \"#utility.yul\":1112:1441   */\n    tag_16:\n        /* \"#utility.yul\":1171:1177   */\n      0x00\n        /* \"#utility.yul\":1220:1222   */\n      0x20\n        /* \"#utility.yul\":1208:1217   */\n      dup3\n        /* \"#utility.yul\":1199:1206   */\n      dup5\n        /* \"#utility.yul\":1195:1218   */\n      sub\n        /* \"#utility.yul\":1191:1223   */\n      slt\n        /* \"#utility.yul\":1188:1307   */\n      iszero\n      tag_127\n      jumpi\n        /* \"#utility.yul\":1226:1305   */\n      tag_128\n      tag_119\n      jump\t// in\n    tag_128:\n        /* \"#utility.yul\":1188:1307   */\n    tag_127:\n        /* \"#utility.yul\":1346:1347   */\n      0x00\n        /* \"#utility.yul\":1371:1424   */\n      tag_129\n        /* \"#utility.yul\":1416:1423   */\n      dup5\n        /* \"#utility.yul\":1407:1413   */\n      dup3\n        /* \"#utility.yul\":1396:1405   */\n      dup6\n        /* \"#utility.yul\":1392:1414   */\n      add\n        /* \"#utility.yul\":1371:1424   */\n      tag_112\n      jump\t// in\n    tag_129:\n        /* \"#utility.yul\":1361:1424   */\n      swap2\n      pop\n        /* \"#utility.yul\":1317:1434   */\n      pop\n        /* \"#utility.yul\":1112:1441   */\n      swap3\n      swap2\n      pop\n      pop\n      jump\t// out\n        /* \"#utility.yul\":1447:1565   */\n    tag_130:\n        /* \"#utility.yul\":1534:1558   */\n      tag_132\n        /* \"#utility.yul\":1552:1557   */\n      dup2\n        /* \"#utility.yul\":1534:1558   */\n      tag_133\n      jump\t// in\n    tag_132:\n        /* \"#utility.yul\":1529:1532   */\n      dup3\n        /* \"#utility.yul\":1522:1559   */\n      mstore\n        /* \"#utility.yul\":1447:1565   */\n      pop\n      pop\n      jump\t// out\n        /* \"#utility.yul\":1571:1680   */\n    tag_134:\n        /* \"#utility.yul\":1652:1673   */\n      tag_136\n        /* \"#utility.yul\":1667:1672   */\n      dup2\n        /* \"#utility.yul\":1652:1673   */\n      tag_137\n      jump\t// in\n    tag_136:\n        /* \"#utility.yul\":1647:1650   */\n      dup3\n        /* \"#utility.yul\":1640:1674   */\n      mstore\n        /* \"#utility.yul\":1571:1680   */\n      pop\n      pop\n      jump\t// out\n        /* \"#utility.yul\":1686:1804   */\n    tag_138:\n        /* \"#utility.yul\":1773:1797   */\n      tag_140\n        /* \"#utility.yul\":1791:1796   */\n      dup2\n        /* \"#utility.yul\":1773:1797   */\n      tag_141\n      jump\t// in\n    tag_140:\n        /* \"#utility.yul\":1768:1771   */\n      dup3\n        /* \"#utility.yul\":1761:1798   */\n      mstore\n        /* \"#utility.yul\":1686:1804   */\n      pop\n      pop\n      jump\t// out\n        /* \"#utility.yul\":1810:1953   */\n    tag_142:\n        /* \"#utility.yul\":1903:1946   */\n      tag_144\n        /* \"#utility.yul\":1940:1945   */\n      dup2\n        /* \"#utility.yul\":1903:1946   */\n      tag_145\n      jump\t// in\n    tag_144:\n        /* \"#utility.yul\":1898:1901   */\n      dup3\n        /* \"#utility.yul\":1891:1947   */\n      mstore\n        /* \"#utility.yul\":1810:1953   */\n      pop\n      pop\n      jump\t// out\n        /* \"#utility.yul\":1959:2074   */\n    tag_146:\n        /* \"#utility.yul\":2044:2067   */\n      tag_148\n        /* \"#utility.yul\":2061:2066   */\n      dup2\n        /* \"#utility.yul\":2044:2067   */\n      tag_149\n      jump\t// in\n    tag_148:\n        /* \"#utility.yul\":2039:2042   */\n      dup3\n        /* \"#utility.yul\":2032:2068   */\n      mstore\n        /* \"#utility.yul\":1959:2074   */\n      pop\n      pop\n      jump\t// out\n        /* \"#utility.yul\":2080:2446   */\n    tag_150:\n        /* \"#utility.yul\":2222:2225   */\n      0x00\n        /* \"#utility.yul\":2243:2310   */\n      tag_152\n        /* \"#utility.yul\":2307:2309   */\n      0x2a\n        /* \"#utility.yul\":2302:2305   */\n      dup4\n        /* \"#utility.yul\":2243:2310   */\n      tag_153\n      jump\t// in\n    tag_152:\n        /* \"#utility.yul\":2236:2310   */\n      swap2\n      pop\n        /* \"#utility.yul\":2319:2412   */\n      tag_154\n        /* \"#utility.yul\":2408:2411   */\n      dup3\n        /* \"#utility.yul\":2319:2412   */\n      tag_155\n      jump\t// in\n    tag_154:\n        /* \"#utility.yul\":2437:2439   */\n      0x40\n        /* \"#utility.yul\":2432:2435   */\n      dup3\n        /* \"#utility.yul\":2428:2440   */\n      add\n        /* \"#utility.yul\":2421:2440   */\n      swap1\n      pop\n        /* \"#utility.yul\":2080:2446   */\n      swap2\n      swap1\n      pop\n      jump\t// out\n        /* \"#utility.yul\":2452:2818   */\n    tag_156:\n        /* \"#utility.yul\":2594:2597   */\n      0x00\n        /* \"#utility.yul\":2615:2682   */\n      tag_158\n        /* \"#utility.yul\":2679:2681   */\n      0x1c\n        /* \"#utility.yul\":2674:2677   */\n      dup4\n        /* \"#utility.yul\":2615:2682   */\n      tag_153\n      jump\t// in\n    tag_158:\n        /* \"#utility.yul\":2608:2682   */\n      swap2\n      pop\n        /* \"#utility.yul\":2691:2784   */\n      tag_159\n        /* \"#utility.yul\":2780:2783   */\n      dup3\n        /* \"#utility.yul\":2691:2784   */\n      tag_160\n      jump\t// in\n    tag_159:\n        /* \"#utility.yul\":2809:2811   */\n      0x20\n        /* \"#utility.yul\":2804:2807   */\n      dup3\n        /* \"#utility.yul\":2800:2812   */\n      add\n        /* \"#utility.yul\":2793:2812   */\n      swap1\n      pop\n        /* \"#utility.yul\":2452:2818   */\n      swap2\n      swap1\n      pop\n      jump\t// out\n        /* \"#utility.yul\":2824:2942   */\n    tag_161:\n        /* \"#utility.yul\":2911:2935   */\n      tag_163\n        /* \"#utility.yul\":2929:2934   */\n      dup2\n        /* \"#utility.yul\":2911:2935   */\n      tag_164\n      jump\t// in\n    tag_163:\n        /* \"#utility.yul\":2906:2909   */\n      dup3\n        /* \"#utility.yul\":2899:2936   */\n      mstore\n        /* \"#utility.yul\":2824:2942   */\n      pop\n      pop\n      jump\t// out\n        /* \"#utility.yul\":2948:3170   */\n    tag_51:\n        /* \"#utility.yul\":3041:3045   */\n      0x00\n        /* \"#utility.yul\":3079:3081   */\n      0x20\n        /* \"#utility.yul\":3068:3077   */\n      dup3\n        /* \"#utility.yul\":3064:3082   */\n      add\n        /* \"#utility.yul\":3056:3082   */\n      swap1\n      pop\n        /* \"#utility.yul\":3092:3163   */\n      tag_166\n        /* \"#utility.yul\":3160:3161   */\n      0x00\n        /* \"#utility.yul\":3149:3158   */\n      dup4\n        /* \"#utility.yul\":3145:3162   */\n      add\n        /* \"#utility.yul\":3136:3142   */\n      dup5\n        /* \"#utility.yul\":3092:3163   */\n      tag_130\n      jump\t// in\n    tag_166:\n        /* \"#utility.yul\":2948:3170   */\n      swap3\n      swap2\n      pop\n      pop\n      jump\t// out\n        /* \"#utility.yul\":3176:3701   */\n    tag_39:\n        /* \"#utility.yul\":3339:3343   */\n      0x00\n        /* \"#utility.yul\":3377:3380   */\n      0x80\n        /* \"#utility.yul\":3366:3375   */\n      dup3\n        /* \"#utility.yul\":3362:3381   */\n      add\n        /* \"#utility.yul\":3354:3381   */\n      swap1\n      pop\n        /* \"#utility.yul\":3391:3456   */\n      tag_168\n        /* \"#utility.yul\":3453:3454   */\n      0x00\n        /* \"#utility.yul\":3442:3451   */\n      dup4\n        /* \"#utility.yul\":3438:3455   */\n      add\n        /* \"#utility.yul\":3429:3435   */\n      dup8\n        /* \"#utility.yul\":3391:3456   */\n      tag_134\n      jump\t// in\n    tag_168:\n        /* \"#utility.yul\":3466:3532   */\n      tag_169\n        /* \"#utility.yul\":3528:3530   */\n      0x20\n        /* \"#utility.yul\":3517:3526   */\n      dup4\n        /* \"#utility.yul\":3513:3531   */\n      add\n        /* \"#utility.yul\":3504:3510   */\n      dup7\n        /* \"#utility.yul\":3466:3532   */\n      tag_134\n      jump\t// in\n    tag_169:\n        /* \"#utility.yul\":3542:3612   */\n      tag_170\n        /* \"#utility.yul\":3608:3610   */\n      0x40\n        /* \"#utility.yul\":3597:3606   */\n      dup4\n        /* \"#utility.yul\":3593:3611   */\n      add\n        /* \"#utility.yul\":3584:3590   */\n      dup6\n        /* \"#utility.yul\":3542:3612   */\n      tag_146\n      jump\t// in\n    tag_170:\n        /* \"#utility.yul\":3622:3694   */\n      tag_171\n        /* \"#utility.yul\":3690:3692   */\n      0x60\n        /* \"#utility.yul\":3679:3688   */\n      dup4\n        /* \"#utility.yul\":3675:3693   */\n      add\n        /* \"#utility.yul\":3666:3672   */\n      dup5\n        /* \"#utility.yul\":3622:3694   */\n      tag_161\n      jump\t// in\n    tag_171:\n        /* \"#utility.yul\":3176:3701   */\n      swap6\n      swap5\n      pop\n      pop\n      pop\n      pop\n      pop\n      jump\t// out\n        /* \"#utility.yul\":3707:3941   */\n    tag_47:\n        /* \"#utility.yul\":3806:3810   */\n      0x00\n        /* \"#utility.yul\":3844:3846   */\n      0x20\n        /* \"#utility.yul\":3833:3842   */\n      dup3\n        /* \"#utility.yul\":3829:3847   */\n      add\n        /* \"#utility.yul\":3821:3847   */\n      swap1\n      pop\n        /* \"#utility.yul\":3857:3934   */\n      tag_173\n        /* \"#utility.yul\":3931:3932   */\n      0x00\n        /* \"#utility.yul\":3920:3929   */\n      dup4\n        /* \"#utility.yul\":3916:3933   */\n      add\n        /* \"#utility.yul\":3907:3913   */\n      dup5\n        /* \"#utility.yul\":3857:3934   */\n      tag_142\n      jump\t// in\n    tag_173:\n        /* \"#utility.yul\":3707:3941   */\n      swap3\n      swap2\n      pop\n      pop\n      jump\t// out\n        /* \"#utility.yul\":3947:4366   */\n    tag_86:\n        /* \"#utility.yul\":4113:4117   */\n      0x00\n        /* \"#utility.yul\":4151:4153   */\n      0x20\n        /* \"#utility.yul\":4140:4149   */\n      dup3\n        /* \"#utility.yul\":4136:4154   */\n      add\n        /* \"#utility.yul\":4128:4154   */\n      swap1\n      pop\n        /* \"#utility.yul\":4200:4209   */\n      dup2\n        /* \"#utility.yul\":4194:4198   */\n      dup2\n        /* \"#utility.yul\":4190:4210   */\n      sub\n        /* \"#utility.yul\":4186:4187   */\n      0x00\n        /* \"#utility.yul\":4175:4184   */\n      dup4\n        /* \"#utility.yul\":4171:4188   */\n      add\n        /* \"#utility.yul\":4164:4211   */\n      mstore\n        /* \"#utility.yul\":4228:4359   */\n      tag_175\n        /* \"#utility.yul\":4354:4358   */\n      dup2\n        /* \"#utility.yul\":4228:4359   */\n      tag_150\n      jump\t// in\n    tag_175:\n        /* \"#utility.yul\":4220:4359   */\n      swap1\n      pop\n        /* \"#utility.yul\":3947:4366   */\n      swap2\n      swap1\n      pop\n      jump\t// out\n        /* \"#utility.yul\":4372:4791   */\n    tag_82:\n        /* \"#utility.yul\":4538:4542   */\n      0x00\n        /* \"#utility.yul\":4576:4578   */\n      0x20\n        /* \"#utility.yul\":4565:4574   */\n      dup3\n        /* \"#utility.yul\":4561:4579   */\n      add\n        /* \"#utility.yul\":4553:4579   */\n      swap1\n      pop\n        /* \"#utility.yul\":4625:4634   */\n      dup2\n        /* \"#utility.yul\":4619:4623   */\n      dup2\n        /* \"#utility.yul\":4615:4635   */\n      sub\n        /* \"#utility.yul\":4611:4612   */\n      0x00\n        /* \"#utility.yul\":4600:4609   */\n      dup4\n        /* \"#utility.yul\":4596:4613   */\n      add\n        /* \"#utility.yul\":4589:4636   */\n      mstore\n        /* \"#utility.yul\":4653:4784   */\n      tag_177\n        /* \"#utility.yul\":4779:4783   */\n      dup2\n        /* \"#utility.yul\":4653:4784   */\n      tag_156\n      jump\t// in\n    tag_177:\n        /* \"#utility.yul\":4645:4784   */\n      swap1\n      pop\n        /* \"#utility.yul\":4372:4791   */\n      swap2\n      swap1\n      pop\n      jump\t// out\n        /* \"#utility.yul\":4797:5019   */\n    tag_23:\n        /* \"#utility.yul\":4890:4894   */\n      0x00\n        /* \"#utility.yul\":4928:4930   */\n      0x20\n        /* \"#utility.yul\":4917:4926   */\n      dup3\n        /* \"#utility.yul\":4913:4931   */\n      add\n        /* \"#utility.yul\":4905:4931   */\n      swap1\n      pop\n        /* \"#utility.yul\":4941:5012   */\n      tag_179\n        /* \"#utility.yul\":5009:5010   */\n      0x00\n        /* \"#utility.yul\":4998:5007   */\n      dup4\n        /* \"#utility.yul\":4994:5011   */\n      add\n        /* \"#utility.yul\":4985:4991   */\n      dup5\n        /* \"#utility.yul\":4941:5012   */\n      tag_161\n      jump\t// in\n    tag_179:\n        /* \"#utility.yul\":4797:5019   */\n      swap3\n      swap2\n      pop\n      pop\n      jump\t// out\n        /* \"#utility.yul\":5025:5467   */\n    tag_19:\n        /* \"#utility.yul\":5174:5178   */\n      0x00\n        /* \"#utility.yul\":5212:5214   */\n      0x60\n        /* \"#utility.yul\":5201:5210   */\n      dup3\n        /* \"#utility.yul\":5197:5215   */\n      add\n        /* \"#utility.yul\":5189:5215   */\n      swap1\n      pop\n        /* \"#utility.yul\":5225:5296   */\n      tag_181\n        /* \"#utility.yul\":5293:5294   */\n      0x00\n        /* \"#utility.yul\":5282:5291   */\n      dup4\n        /* \"#utility.yul\":5278:5295   */\n      add\n        /* \"#utility.yul\":5269:5275   */\n      dup7\n        /* \"#utility.yul\":5225:5296   */\n      tag_161\n      jump\t// in\n    tag_181:\n        /* \"#utility.yul\":5306:5378   */\n      tag_182\n        /* \"#utility.yul\":5374:5376   */\n      0x20\n        /* \"#utility.yul\":5363:5372   */\n      dup4\n        /* \"#utility.yul\":5359:5377   */\n      add\n        /* \"#utility.yul\":5350:5356   */\n      dup6\n        /* \"#utility.yul\":5306:5378   */\n      tag_138\n      jump\t// in\n    tag_182:\n        /* \"#utility.yul\":5388:5460   */\n      tag_183\n        /* \"#utility.yul\":5456:5458   */\n      0x40\n        /* \"#utility.yul\":5445:5454   */\n      dup4\n        /* \"#utility.yul\":5441:5459   */\n      add\n        /* \"#utility.yul\":5432:5438   */\n      dup5\n        /* \"#utility.yul\":5388:5460   */\n      tag_161\n      jump\t// in\n    tag_183:\n        /* \"#utility.yul\":5025:5467   */\n      swap5\n      swap4\n      pop\n      pop\n      pop\n      pop\n      jump\t// out\n        /* \"#utility.yul\":5473:5915   */\n    tag_33:\n        /* \"#utility.yul\":5622:5626   */\n      0x00\n        /* \"#utility.yul\":5660:5662   */\n      0x60\n        /* \"#utility.yul\":5649:5658   */\n      dup3\n        /* \"#utility.yul\":5645:5663   */\n      add\n        /* \"#utility.yul\":5637:5663   */\n      swap1\n      pop\n        /* \"#utility.yul\":5673:5744   */\n      tag_185\n        /* \"#utility.yul\":5741:5742   */\n      0x00\n        /* \"#utility.yul\":5730:5739   */\n      dup4\n        /* \"#utility.yul\":5726:5743   */\n      add\n        /* \"#utility.yul\":5717:5723   */\n      dup7\n        /* \"#utility.yul\":5673:5744   */\n      tag_161\n      jump\t// in\n    tag_185:\n        /* \"#utility.yul\":5754:5826   */\n      tag_186\n        /* \"#utility.yul\":5822:5824   */\n      0x20\n        /* \"#utility.yul\":5811:5820   */\n      dup4\n        /* \"#utility.yul\":5807:5825   */\n      add\n        /* \"#utility.yul\":5798:5804   */\n      dup6\n        /* \"#utility.yul\":5754:5826   */\n      tag_161\n      jump\t// in\n    tag_186:\n        /* \"#utility.yul\":5836:5908   */\n      tag_187\n        /* \"#utility.yul\":5904:5906   */\n      0x40\n        /* \"#utility.yul\":5893:5902   */\n      dup4\n        /* \"#utility.yul\":5889:5907   */\n      add\n        /* \"#utility.yul\":5880:5886   */\n      dup5\n        /* \"#utility.yul\":5836:5908   */\n      tag_161\n      jump\t// in\n    tag_187:\n        /* \"#utility.yul\":5473:5915   */\n      swap5\n      swap4\n      pop\n      pop\n      pop\n      pop\n      jump\t// out\n        /* \"#utility.yul\":6002:6171   */\n    tag_153:\n        /* \"#utility.yul\":6086:6097   */\n      0x00\n        /* \"#utility.yul\":6120:6126   */\n      dup3\n        /* \"#utility.yul\":6115:6118   */\n      dup3\n        /* \"#utility.yul\":6108:6127   */\n      mstore\n        /* \"#utility.yul\":6160:6164   */\n      0x20\n        /* \"#utility.yul\":6155:6158   */\n      dup3\n        /* \"#utility.yul\":6151:6165   */\n      add\n        /* \"#utility.yul\":6136:6165   */\n      swap1\n      pop\n        /* \"#utility.yul\":6002:6171   */\n      swap3\n      swap2\n      pop\n      pop\n      jump\t// out\n        /* \"#utility.yul\":6177:6273   */\n    tag_133:\n        /* \"#utility.yul\":6214:6221   */\n      0x00\n        /* \"#utility.yul\":6243:6267   */\n      tag_192\n        /* \"#utility.yul\":6261:6266   */\n      dup3\n        /* \"#utility.yul\":6243:6267   */\n      tag_193\n      jump\t// in\n    tag_192:\n        /* \"#utility.yul\":6232:6267   */\n      swap1\n      pop\n        /* \"#utility.yul\":6177:6273   */\n      swap2\n      swap1\n      pop\n      jump\t// out\n        /* \"#utility.yul\":6279:6369   */\n    tag_137:\n        /* \"#utility.yul\":6313:6320   */\n      0x00\n        /* \"#utility.yul\":6356:6361   */\n      dup2\n        /* \"#utility.yul\":6349:6362   */\n      iszero\n        /* \"#utility.yul\":6342:6363   */\n      iszero\n        /* \"#utility.yul\":6331:6363   */\n      swap1\n      pop\n        /* \"#utility.yul\":6279:6369   */\n      swap2\n      swap1\n      pop\n      jump\t// out\n        /* \"#utility.yul\":6375:6452   */\n    tag_141:\n        /* \"#utility.yul\":6412:6419   */\n      0x00\n        /* \"#utility.yul\":6441:6446   */\n      dup2\n        /* \"#utility.yul\":6430:6446   */\n      swap1\n      pop\n        /* \"#utility.yul\":6375:6452   */\n      swap2\n      swap1\n      pop\n      jump\t// out\n        /* \"#utility.yul\":6458:6585   */\n    tag_196:\n        /* \"#utility.yul\":6503:6510   */\n      0x00\n        /* \"#utility.yul\":6532:6537   */\n      dup2\n        /* \"#utility.yul\":6521:6537   */\n      swap1\n      pop\n        /* \"#utility.yul\":6538:6579   */\n      tag_198\n        /* \"#utility.yul\":6573:6578   */\n      dup3\n        /* \"#utility.yul\":6538:6579   */\n      tag_199\n      jump\t// in\n    tag_198:\n        /* \"#utility.yul\":6458:6585   */\n      swap2\n      swap1\n      pop\n      jump\t// out\n        /* \"#utility.yul\":6591:6667   */\n    tag_149:\n        /* \"#utility.yul\":6627:6634   */\n      0x00\n        /* \"#utility.yul\":6656:6661   */\n      dup2\n        /* \"#utility.yul\":6645:6661   */\n      swap1\n      pop\n        /* \"#utility.yul\":6591:6667   */\n      swap2\n      swap1\n      pop\n      jump\t// out\n        /* \"#utility.yul\":6673:6799   */\n    tag_193:\n        /* \"#utility.yul\":6710:6717   */\n      0x00\n        /* \"#utility.yul\":6750:6792   */\n      0xffffffffffffffffffffffffffffffffffffffff\n        /* \"#utility.yul\":6743:6748   */\n      dup3\n        /* \"#utility.yul\":6739:6793   */\n      and\n        /* \"#utility.yul\":6728:6793   */\n      swap1\n      pop\n        /* \"#utility.yul\":6673:6799   */\n      swap2\n      swap1\n      pop\n      jump\t// out\n        /* \"#utility.yul\":6805:6882   */\n    tag_164:\n        /* \"#utility.yul\":6842:6849   */\n      0x00\n        /* \"#utility.yul\":6871:6876   */\n      dup2\n        /* \"#utility.yul\":6860:6876   */\n      swap1\n      pop\n        /* \"#utility.yul\":6805:6882   */\n      swap2\n      swap1\n      pop\n      jump\t// out\n        /* \"#utility.yul\":6888:7015   */\n    tag_145:\n        /* \"#utility.yul\":6944:6953   */\n      0x00\n        /* \"#utility.yul\":6977:7009   */\n      tag_204\n        /* \"#utility.yul\":7003:7008   */\n      dup3\n        /* \"#utility.yul\":6977:7009   */\n      tag_196\n      jump\t// in\n    tag_204:\n        /* \"#utility.yul\":6964:7009   */\n      swap1\n      pop\n        /* \"#utility.yul\":6888:7015   */\n      swap2\n      swap1\n      pop\n      jump\t// out\n        /* \"#utility.yul\":7021:7254   */\n    tag_90:\n        /* \"#utility.yul\":7060:7063   */\n      0x00\n        /* \"#utility.yul\":7083:7107   */\n      tag_206\n        /* \"#utility.yul\":7101:7106   */\n      dup3\n        /* \"#utility.yul\":7083:7107   */\n      tag_164\n      jump\t// in\n    tag_206:\n        /* \"#utility.yul\":7074:7107   */\n      swap2\n      pop\n        /* \"#utility.yul\":7129:7195   */\n      0xffffffffffffffffffffffffffffffffffffffffffffffffffffffffffffffff\n        /* \"#utility.yul\":7122:7127   */\n      dup3\n        /* \"#utility.yul\":7119:7196   */\n      eq\n        /* \"#utility.yul\":7116:7219   */\n      iszero\n      tag_207\n      jumpi\n        /* \"#utility.yul\":7199:7217   */\n      tag_208\n      tag_209\n      jump\t// in\n    tag_208:\n        /* \"#utility.yul\":7116:7219   */\n    tag_207:\n        /* \"#utility.yul\":7246:7247   */\n      0x01\n        /* \"#utility.yul\":7239:7244   */\n      dup3\n        /* \"#utility.yul\":7235:7248   */\n      add\n        /* \"#utility.yul\":7228:7248   */\n      swap1\n      pop\n        /* \"#utility.yul\":7021:7254   */\n      swap2\n      swap1\n      pop\n      jump\t// out\n        /* \"#utility.yul\":7260:7440   */\n    tag_209:\n        /* \"#utility.yul\":7308:7385   */\n      0x4e487b7100000000000000000000000000000000000000000000000000000000\n        /* \"#utility.yul\":7305:7306   */\n      0x00\n        /* \"#utility.yul\":7298:7386   */\n      mstore\n        /* \"#utility.yul\":7405:7409   */\n      0x11\n        /* \"#utility.yul\":7402:7403   */\n      0x04\n        /* \"#utility.yul\":7395:7410   */\n      mstore\n        /* \"#utility.yul\":7429:7433   */\n      0x24\n        /* \"#utility.yul\":7426:7427   */\n      0x00\n        /* \"#utility.yul\":7419:7434   */\n      revert\n        /* \"#utility.yul\":7446:7626   */\n    tag_60:\n        /* \"#utility.yul\":7494:7571   */\n      0x4e487b7100000000000000000000000000000000000000000000000000000000\n        /* \"#utility.yul\":7491:7492   */\n      0x00\n        /* \"#utility.yul\":7484:7572   */\n      mstore\n        /* \"#utility.yul\":7591:7595   */\n      0x21\n        /* \"#utility.yul\":7588:7589   */\n      0x04\n        /* \"#utility.yul\":7581:7596   */\n      mstore\n        /* \"#utility.yul\":7615:7619   */\n      0x24\n        /* \"#utility.yul\":7612:7613   */\n      0x00\n        /* \"#utility.yul\":7605:7620   */\n      revert\n        /* \"#utility.yul\":7632:7812   */\n    tag_99:\n        /* \"#utility.yul\":7680:7757   */\n      0x4e487b7100000000000000000000000000000000000000000000000000000000\n        /* \"#utility.yul\":7677:7678   */\n      0x00\n        /* \"#utility.yul\":7670:7758   */\n      mstore\n        /* \"#utility.yul\":7777:7781   */\n      0x32\n        /* \"#utility.yul\":7774:7775   */\n      0x04\n        /* \"#utility.yul\":7767:7782   */\n      mstore\n        /* \"#utility.yul\":7801:7805   */\n      0x24\n        /* \"#utility.yul\":7798:7799   */\n      0x00\n        /* \"#utility.yul\":7791:7806   */\n      revert\n        /* \"#utility.yul\":7941:8058   */\n    tag_119:\n        /* \"#utility.yul\":8050:8051   */\n      0x00\n        /* \"#utility.yul\":8047:8048   */\n      dup1\n        /* \"#utility.yul\":8040:8052   */\n      revert\n        /* \"#utility.yul\":8064:8293   */\n    tag_155:\n        /* \"#utility.yul\":8204:8238   */\n      0x506c656173652070726f7669646520612076616c696420706f6c6c696e672073\n        /* \"#utility.yul\":8200:8201   */\n      0x00\n        /* \"#utility.yul\":8192:8198   */\n      dup3\n        /* \"#utility.yul\":8188:8202   */\n      add\n        /* \"#utility.yul\":8181:8239   */\n      mstore\n        /* \"#utility.yul\":8273:8285   */\n      0x746174696f6e2049442e00000000000000000000000000000000000000000000\n        /* \"#utility.yul\":8268:8270   */\n      0x20\n        /* \"#utility.yul\":8260:8266   */\n      dup3\n        /* \"#utility.yul\":8256:8271   */\n      add\n        /* \"#utility.yul\":8249:8286   */\n      mstore\n        /* \"#utility.yul\":8064:8293   */\n      pop\n      jump\t// out\n        /* \"#utility.yul\":8299:8477   */\n    tag_160:\n        /* \"#utility.yul\":8439:8469   */\n      0x566f74657220697320616c726561647920726567697374657265642e00000000\n        /* \"#utility.yul\":8435:8436   */\n      0x00\n        /* \"#utility.yul\":8427:8433   */\n      dup3\n        /* \"#utility.yul\":8423:8437   */\n      add\n        /* \"#utility.yul\":8416:8470   */\n      mstore\n        /* \"#utility.yul\":8299:8477   */\n      pop\n      jump\t// out\n        /* \"#utility.yul\":8483:8596   */\n    tag_199:\n        /* \"#utility.yul\":8564:8565   */\n      0x03\n        /* \"#utility.yul\":8557:8562   */\n      dup2\n        /* \"#utility.yul\":8554:8566   */\n      lt\n        /* \"#utility.yul\":8544:8590   */\n      tag_219\n      jumpi\n        /* \"#utility.yul\":8570:8588   */\n      tag_220\n      tag_60\n      jump\t// in\n    tag_220:\n        /* \"#utility.yul\":8544:8590   */\n    tag_219:\n        /* \"#utility.yul\":8483:8596   */\n      pop\n      jump\t// out\n        /* \"#utility.yul\":8602:8724   */\n    tag_111:\n        /* \"#utility.yul\":8675:8699   */\n      tag_222\n        /* \"#utility.yul\":8693:8698   */\n      dup2\n        /* \"#utility.yul\":8675:8699   */\n      tag_133\n      jump\t// in\n    tag_222:\n        /* \"#utility.yul\":8668:8673   */\n      dup2\n        /* \"#utility.yul\":8665:8700   */\n      eq\n        /* \"#utility.yul\":8655:8718   */\n      tag_223\n      jumpi\n        /* \"#utility.yul\":8714:8715   */\n      0x00\n        /* \"#utility.yul\":8711:8712   */\n      dup1\n        /* \"#utility.yul\":8704:8716   */\n      revert\n        /* \"#utility.yul\":8655:8718   */\n    tag_223:\n        /* \"#utility.yul\":8602:8724   */\n      pop\n      jump\t// out\n        /* \"#utility.yul\":8730:8852   */\n    tag_115:\n        /* \"#utility.yul\":8803:8827   */\n      tag_225\n        /* \"#utility.yul\":8821:8826   */\n      dup2\n        /* \"#utility.yul\":8803:8827   */\n      tag_164\n      jump\t// in\n    tag_225:\n        /* \"#utility.yul\":8796:8801   */\n      dup2\n        /* \"#utility.yul\":8793:8828   */\n      eq\n        /* \"#utility.yul\":8783:8846   */\n      tag_226\n      jumpi\n        /* \"#utility.yul\":8842:8843   */\n      0x00\n        /* \"#utility.yul\":8839:8840   */\n      dup1\n        /* \"#utility.yul\":8832:8844   */\n      revert\n        /* \"#utility.yul\":8783:8846   */\n    tag_226:\n        /* \"#utility.yul\":8730:8852   */\n      pop\n      jump\t// out\n\n    auxdata: 0xa264697066735822122089a25ef190b67c87284ecfaf963e5df114cfd20867c586701ce0353dddd7902764736f6c63430008070033\n}\n",
				"bytecode": {
					"linkReferences": {},
					"object": "60806040526005600155600a60025560006003556000600455600060055560006006553480156200002f57600080fd5b50336000806101000a81548173ffffffffffffffffffffffffffffffffffffffff021916908373ffffffffffffffffffffffffffffffffffffffff16021790555062000080620000c760201b60201c565b620000936002546200033c60201b60201c565b6000600a60006101000a81548160ff02191690836002811115620000bc57620000bb620004bc565b5b021790555062000549565b600060015467ffffffffffffffff811115620000e857620000e76200051a565b5b604051908082528060200260200182016040528015620001175781602001602082028036833780820191505090505b5090507f43616e646964617465203100000000000000000000000000000000000000000060001b81600081518110620001555762000154620004eb565b5b6020026020010181815250507f43616e646964617465203200000000000000000000000000000000000000000060001b816001815181106200019c576200019b620004eb565b5b6020026020010181815250507f43616e646964617465203300000000000000000000000000000000000000000060001b81600281518110620001e357620001e2620004eb565b5b6020026020010181815250507f43616e646964617465203400000000000000000000000000000000000000000060001b816003815181106200022a5762000229620004eb565b5b6020026020010181815250507f43616e646964617465203500000000000000000000000000000000000000000060001b81600481518110620002715762000270620004eb565b5b60200260200101818152505060005b8151811015620003385760006001826200029b9190620003d8565b905060076040518060600160405280838152602001858581518110620002c657620002c5620004eb565b5b602002602001015181526020016000815250908060018154018082558091505060019003906000526020600020906003020160009091909190915060008201518160000155602082015181600101556040820151816002015550505080806200032f906200043f565b91505062000280565b5050565b60005b81811015620003d45760086040518060600160405280600184620003649190620003d8565b8152602001600081526020016000815250908060018154018082558091505060019003906000526020600020906003020160009091909190915060008201518160000155602082015181600101556040820151816002015550508080620003cb906200043f565b9150506200033f565b5050565b6000620003e58262000435565b9150620003f28362000435565b9250827fffffffffffffffffffffffffffffffffffffffffffffffffffffffffffffffff038211156200042a57620004296200048d565b5b828201905092915050565b6000819050919050565b60006200044c8262000435565b91507fffffffffffffffffffffffffffffffffffffffffffffffffffffffffffffffff8214156200048257620004816200048d565b5b600182019050919050565b7f4e487b7100000000000000000000000000000000000000000000000000000000600052601160045260246000fd5b7f4e487b7100000000000000000000000000000000000000000000000000000000600052602160045260246000fd5b7f4e487b7100000000000000000000000000000000000000000000000000000000600052603260045260246000fd5b7f4e487b7100000000000000000000000000000000000000000000000000000000600052604160045260246000fd5b610c1580620005596000396000f3fe608060405234801561001057600080fd5b506004361061009e5760003560e01c8063af15408711610066578063af1540871461014d578063b9f05f2f14610180578063c19d93fb1461019c578063dca97183146101ba578063f3a8286f146101d85761009e565b8063013cf08b146100a35780630d15fd77146100d55780634c0a6af0146100f35780635f5300ff146100fd57806392f859db1461011b575b600080fd5b6100bd60048036038101906100b891906107a7565b6101f6565b6040516100cc9392919061094a565b60405180910390f35b6100dd610230565b6040516100ea919061092f565b60405180910390f35b6100fb610236565b005b6101056102fd565b604051610112919061092f565b60405180910390f35b610135600480360381019061013091906107a7565b610303565b60405161014493929190610981565b60405180910390f35b6101676004803603810190610162919061073a565b61033d565b604051610177949392919061088f565b60405180910390f35b61019a60048036038101906101959190610767565b610387565b005b6101a4610613565b6040516101b191906108d4565b60405180910390f35b6101c2610626565b6040516101cf9190610874565b60405180910390f35b6101e061064a565b6040516101ed919061092f565b60405180910390f35b6007818154811061020657600080fd5b90600052602060002090600302016000915090508060000154908060010154908060020154905083565b60065481565b600080600281111561024b5761024a610ac2565b5b600a60009054906101000a900460ff16600281111561026d5761026c610ac2565b5b1461027757600080fd5b60008054906101000a900473ffffffffffffffffffffffffffffffffffffffff1673ffffffffffffffffffffffffffffffffffffffff163373ffffffffffffffffffffffffffffffffffffffff16146102cf57600080fd5b6001600a60006101000a81548160ff021916908360028111156102f5576102f4610ac2565b5b021790555050565b60055481565b6008818154811061031357600080fd5b90600052602060002090600302016000915090508060000154908060010154908060020154905083565b60096020528060005260406000206000915090508060000160009054906101000a900460ff16908060000160019054906101000a900460ff16908060010154908060020154905084565b600080600281111561039c5761039b610ac2565b5b600a60009054906101000a900460ff1660028111156103be576103bd610ac2565b5b146103c857600080fd5b60008054906101000a900473ffffffffffffffffffffffffffffffffffffffff1673ffffffffffffffffffffffffffffffffffffffff163373ffffffffffffffffffffffffffffffffffffffff161461042057600080fd5b6000600960008573ffffffffffffffffffffffffffffffffffffffff1673ffffffffffffffffffffffffffffffffffffffff16815260200190815260200160002060010154146104a5576040517f08c379a000000000000000000000000000000000000000000000000000000000815260040161049c9061090f565b60405180910390fd5b600182101580156104b857506002548211155b6104f7576040517f08c379a00000000000000000000000000000000000000000000000000000000081526004016104ee906108ef565b60405180910390fd5b6104ff6106e4565b600181600001901515908115158152505060008160200190151590811515815250507fffffffffffffffffffffffffffffffffffffffffffffffffffffffffffffffff8160400181815250508281606001818152505080600960008673ffffffffffffffffffffffffffffffffffffffff1673ffffffffffffffffffffffffffffffffffffffff16815260200190815260200160002060008201518160000160006101000a81548160ff02191690831515021790555060208201518160000160016101000a81548160ff0219169083151502179055506040820151816001015560608201518160020155905050600560008154809291906105ff90610a4a565b919050555061060d83610650565b50505050565b600a60009054906101000a900460ff1681565b60008054906101000a900473ffffffffffffffffffffffffffffffffffffffff1681565b60045481565b60005b6008805490508110156106e057816008828154811061067557610674610af1565b5b90600052602060002090600302016000015414156106cd57600881815481106106a1576106a0610af1565b5b906000526020600020906003020160010160008154809291906106c390610a4a565b91905055506106e0565b80806106d890610a4a565b915050610653565b5050565b604051806080016040528060001515815260200160001515815260200160008152602001600081525090565b60008135905061071f81610bb1565b92915050565b60008135905061073481610bc8565b92915050565b6000602082840312156107505761074f610b20565b5b600061075e84828501610710565b91505092915050565b6000806040838503121561077e5761077d610b20565b5b600061078c85828601610710565b925050602061079d85828601610725565b9150509250929050565b6000602082840312156107bd576107bc610b20565b5b60006107cb84828501610725565b91505092915050565b6107dd816109c9565b82525050565b6107ec816109db565b82525050565b6107fb816109e7565b82525050565b61080a81610a38565b82525050565b61081981610a04565b82525050565b600061082c602a836109b8565b915061083782610b25565b604082019050919050565b600061084f601c836109b8565b915061085a82610b74565b602082019050919050565b61086e81610a2e565b82525050565b600060208201905061088960008301846107d4565b92915050565b60006080820190506108a460008301876107e3565b6108b160208301866107e3565b6108be6040830185610810565b6108cb6060830184610865565b95945050505050565b60006020820190506108e96000830184610801565b92915050565b600060208201905081810360008301526109088161081f565b9050919050565b6000602082019050818103600083015261092881610842565b9050919050565b60006020820190506109446000830184610865565b92915050565b600060608201905061095f6000830186610865565b61096c60208301856107f2565b6109796040830184610865565b949350505050565b60006060820190506109966000830186610865565b6109a36020830185610865565b6109b06040830184610865565b949350505050565b600082825260208201905092915050565b60006109d482610a0e565b9050919050565b60008115159050919050565b6000819050919050565b60008190506109ff82610b9d565b919050565b6000819050919050565b600073ffffffffffffffffffffffffffffffffffffffff82169050919050565b6000819050919050565b6000610a43826109f1565b9050919050565b6000610a5582610a2e565b91507fffffffffffffffffffffffffffffffffffffffffffffffffffffffffffffffff821415610a8857610a87610a93565b5b600182019050919050565b7f4e487b7100000000000000000000000000000000000000000000000000000000600052601160045260246000fd5b7f4e487b7100000000000000000000000000000000000000000000000000000000600052602160045260246000fd5b7f4e487b7100000000000000000000000000000000000000000000000000000000600052603260045260246000fd5b600080fd5b7f506c656173652070726f7669646520612076616c696420706f6c6c696e67207360008201527f746174696f6e2049442e00000000000000000000000000000000000000000000602082015250565b7f566f74657220697320616c726561647920726567697374657265642e00000000600082015250565b60038110610bae57610bad610ac2565b5b50565b610bba816109c9565b8114610bc557600080fd5b50565b610bd181610a2e565b8114610bdc57600080fd5b5056fea264697066735822122089a25ef190b67c87284ecfaf963e5df114cfd20867c586701ce0353dddd7902764736f6c63430008070033",
					"opcodes": "PUSH1 0x80 PUSH1 0x40 MSTORE PUSH1 0x5 PUSH1 0x1 SSTORE PUSH1 0xA PUSH1 0x2 SSTORE PUSH1 0x0 PUSH1 0x3 SSTORE PUSH1 0x0 PUSH1 0x4 SSTORE PUSH1 0x0 PUSH1 0x5 SSTORE PUSH1 0x0 PUSH1 0x6 SSTORE CALLVALUE DUP1 ISZERO PUSH3 0x2F JUMPI PUSH1 0x0 DUP1 REVERT JUMPDEST POP CALLER PUSH1 0x0 DUP1 PUSH2 0x100 EXP DUP2 SLOAD DUP2 PUSH20 0xFFFFFFFFFFFFFFFFFFFFFFFFFFFFFFFFFFFFFFFF MUL NOT AND SWAP1 DUP4 PUSH20 0xFFFFFFFFFFFFFFFFFFFFFFFFFFFFFFFFFFFFFFFF AND MUL OR SWAP1 SSTORE POP PUSH3 0x80 PUSH3 0xC7 PUSH1 0x20 SHL PUSH1 0x20 SHR JUMP JUMPDEST PUSH3 0x93 PUSH1 0x2 SLOAD PUSH3 0x33C PUSH1 0x20 SHL PUSH1 0x20 SHR JUMP JUMPDEST PUSH1 0x0 PUSH1 0xA PUSH1 0x0 PUSH2 0x100 EXP DUP2 SLOAD DUP2 PUSH1 0xFF MUL NOT AND SWAP1 DUP4 PUSH1 0x2 DUP2 GT ISZERO PUSH3 0xBC JUMPI PUSH3 0xBB PUSH3 0x4BC JUMP JUMPDEST JUMPDEST MUL OR SWAP1 SSTORE POP PUSH3 0x549 JUMP JUMPDEST PUSH1 0x0 PUSH1 0x1 SLOAD PUSH8 0xFFFFFFFFFFFFFFFF DUP2 GT ISZERO PUSH3 0xE8 JUMPI PUSH3 0xE7 PUSH3 0x51A JUMP JUMPDEST JUMPDEST PUSH1 0x40 MLOAD SWAP1 DUP1 DUP3 MSTORE DUP1 PUSH1 0x20 MUL PUSH1 0x20 ADD DUP3 ADD PUSH1 0x40 MSTORE DUP1 ISZERO PUSH3 0x117 JUMPI DUP2 PUSH1 0x20 ADD PUSH1 0x20 DUP3 MUL DUP1 CALLDATASIZE DUP4 CALLDATACOPY DUP1 DUP3 ADD SWAP2 POP POP SWAP1 POP JUMPDEST POP SWAP1 POP PUSH32 0x43616E6469646174652031000000000000000000000000000000000000000000 PUSH1 0x0 SHL DUP2 PUSH1 0x0 DUP2 MLOAD DUP2 LT PUSH3 0x155 JUMPI PUSH3 0x154 PUSH3 0x4EB JUMP JUMPDEST JUMPDEST PUSH1 0x20 MUL PUSH1 0x20 ADD ADD DUP2 DUP2 MSTORE POP POP PUSH32 0x43616E6469646174652032000000000000000000000000000000000000000000 PUSH1 0x0 SHL DUP2 PUSH1 0x1 DUP2 MLOAD DUP2 LT PUSH3 0x19C JUMPI PUSH3 0x19B PUSH3 0x4EB JUMP JUMPDEST JUMPDEST PUSH1 0x20 MUL PUSH1 0x20 ADD ADD DUP2 DUP2 MSTORE POP POP PUSH32 0x43616E6469646174652033000000000000000000000000000000000000000000 PUSH1 0x0 SHL DUP2 PUSH1 0x2 DUP2 MLOAD DUP2 LT PUSH3 0x1E3 JUMPI PUSH3 0x1E2 PUSH3 0x4EB JUMP JUMPDEST JUMPDEST PUSH1 0x20 MUL PUSH1 0x20 ADD ADD DUP2 DUP2 MSTORE POP POP PUSH32 0x43616E6469646174652034000000000000000000000000000000000000000000 PUSH1 0x0 SHL DUP2 PUSH1 0x3 DUP2 MLOAD DUP2 LT PUSH3 0x22A JUMPI PUSH3 0x229 PUSH3 0x4EB JUMP JUMPDEST JUMPDEST PUSH1 0x20 MUL PUSH1 0x20 ADD ADD DUP2 DUP2 MSTORE POP POP PUSH32 0x43616E6469646174652035000000000000000000000000000000000000000000 PUSH1 0x0 SHL DUP2 PUSH1 0x4 DUP2 MLOAD DUP2 LT PUSH3 0x271 JUMPI PUSH3 0x270 PUSH3 0x4EB JUMP JUMPDEST JUMPDEST PUSH1 0x20 MUL PUSH1 0x20 ADD ADD DUP2 DUP2 MSTORE POP POP PUSH1 0x0 JUMPDEST DUP2 MLOAD DUP2 LT ISZERO PUSH3 0x338 JUMPI PUSH1 0x0 PUSH1 0x1 DUP3 PUSH3 0x29B SWAP2 SWAP1 PUSH3 0x3D8 JUMP JUMPDEST SWAP1 POP PUSH1 0x7 PUSH1 0x40 MLOAD DUP1 PUSH1 0x60 ADD PUSH1 0x40 MSTORE DUP1 DUP4 DUP2 MSTORE PUSH1 0x20 ADD DUP6 DUP6 DUP2 MLOAD DUP2 LT PUSH3 0x2C6 JUMPI PUSH3 0x2C5 PUSH3 0x4EB JUMP JUMPDEST JUMPDEST PUSH1 0x20 MUL PUSH1 0x20 ADD ADD MLOAD DUP2 MSTORE PUSH1 0x20 ADD PUSH1 0x0 DUP2 MSTORE POP SWAP1 DUP1 PUSH1 0x1 DUP2 SLOAD ADD DUP1 DUP3 SSTORE DUP1 SWAP2 POP POP PUSH1 0x1 SWAP1 SUB SWAP1 PUSH1 0x0 MSTORE PUSH1 0x20 PUSH1 0x0 KECCAK256 SWAP1 PUSH1 0x3 MUL ADD PUSH1 0x0 SWAP1 SWAP2 SWAP1 SWAP2 SWAP1 SWAP2 POP PUSH1 0x0 DUP3 ADD MLOAD DUP2 PUSH1 0x0 ADD SSTORE PUSH1 0x20 DUP3 ADD MLOAD DUP2 PUSH1 0x1 ADD SSTORE PUSH1 0x40 DUP3 ADD MLOAD DUP2 PUSH1 0x2 ADD SSTORE POP POP POP DUP1 DUP1 PUSH3 0x32F SWAP1 PUSH3 0x43F JUMP JUMPDEST SWAP2 POP POP PUSH3 0x280 JUMP JUMPDEST POP POP JUMP JUMPDEST PUSH1 0x0 JUMPDEST DUP2 DUP2 LT ISZERO PUSH3 0x3D4 JUMPI PUSH1 0x8 PUSH1 0x40 MLOAD DUP1 PUSH1 0x60 ADD PUSH1 0x40 MSTORE DUP1 PUSH1 0x1 DUP5 PUSH3 0x364 SWAP2 SWAP1 PUSH3 0x3D8 JUMP JUMPDEST DUP2 MSTORE PUSH1 0x20 ADD PUSH1 0x0 DUP2 MSTORE PUSH1 0x20 ADD PUSH1 0x0 DUP2 MSTORE POP SWAP1 DUP1 PUSH1 0x1 DUP2 SLOAD ADD DUP1 DUP3 SSTORE DUP1 SWAP2 POP POP PUSH1 0x1 SWAP1 SUB SWAP1 PUSH1 0x0 MSTORE PUSH1 0x20 PUSH1 0x0 KECCAK256 SWAP1 PUSH1 0x3 MUL ADD PUSH1 0x0 SWAP1 SWAP2 SWAP1 SWAP2 SWAP1 SWAP2 POP PUSH1 0x0 DUP3 ADD MLOAD DUP2 PUSH1 0x0 ADD SSTORE PUSH1 0x20 DUP3 ADD MLOAD DUP2 PUSH1 0x1 ADD SSTORE PUSH1 0x40 DUP3 ADD MLOAD DUP2 PUSH1 0x2 ADD SSTORE POP POP DUP1 DUP1 PUSH3 0x3CB SWAP1 PUSH3 0x43F JUMP JUMPDEST SWAP2 POP POP PUSH3 0x33F JUMP JUMPDEST POP POP JUMP JUMPDEST PUSH1 0x0 PUSH3 0x3E5 DUP3 PUSH3 0x435 JUMP JUMPDEST SWAP2 POP PUSH3 0x3F2 DUP4 PUSH3 0x435 JUMP JUMPDEST SWAP3 POP DUP3 PUSH32 0xFFFFFFFFFFFFFFFFFFFFFFFFFFFFFFFFFFFFFFFFFFFFFFFFFFFFFFFFFFFFFFFF SUB DUP3 GT ISZERO PUSH3 0x42A JUMPI PUSH3 0x429 PUSH3 0x48D JUMP JUMPDEST JUMPDEST DUP3 DUP3 ADD SWAP1 POP SWAP3 SWAP2 POP POP JUMP JUMPDEST PUSH1 0x0 DUP2 SWAP1 POP SWAP2 SWAP1 POP JUMP JUMPDEST PUSH1 0x0 PUSH3 0x44C DUP3 PUSH3 0x435 JUMP JUMPDEST SWAP2 POP PUSH32 0xFFFFFFFFFFFFFFFFFFFFFFFFFFFFFFFFFFFFFFFFFFFFFFFFFFFFFFFFFFFFFFFF DUP3 EQ ISZERO PUSH3 0x482 JUMPI PUSH3 0x481 PUSH3 0x48D JUMP JUMPDEST JUMPDEST PUSH1 0x1 DUP3 ADD SWAP1 POP SWAP2 SWAP1 POP JUMP JUMPDEST PUSH32 0x4E487B7100000000000000000000000000000000000000000000000000000000 PUSH1 0x0 MSTORE PUSH1 0x11 PUSH1 0x4 MSTORE PUSH1 0x24 PUSH1 0x0 REVERT JUMPDEST PUSH32 0x4E487B7100000000000000000000000000000000000000000000000000000000 PUSH1 0x0 MSTORE PUSH1 0x21 PUSH1 0x4 MSTORE PUSH1 0x24 PUSH1 0x0 REVERT JUMPDEST PUSH32 0x4E487B7100000000000000000000000000000000000000000000000000000000 PUSH1 0x0 MSTORE PUSH1 0x32 PUSH1 0x4 MSTORE PUSH1 0x24 PUSH1 0x0 REVERT JUMPDEST PUSH32 0x4E487B7100000000000000000000000000000000000000000000000000000000 PUSH1 0x0 MSTORE PUSH1 0x41 PUSH1 0x4 MSTORE PUSH1 0x24 PUSH1 0x0 REVERT JUMPDEST PUSH2 0xC15 DUP1 PUSH3 0x559 PUSH1 0x0 CODECOPY PUSH1 0x0 RETURN INVALID PUSH1 0x80 PUSH1 0x40 MSTORE CALLVALUE DUP1 ISZERO PUSH2 0x10 JUMPI PUSH1 0x0 DUP1 REVERT JUMPDEST POP PUSH1 0x4 CALLDATASIZE LT PUSH2 0x9E JUMPI PUSH1 0x0 CALLDATALOAD PUSH1 0xE0 SHR DUP1 PUSH4 0xAF154087 GT PUSH2 0x66 JUMPI DUP1 PUSH4 0xAF154087 EQ PUSH2 0x14D JUMPI DUP1 PUSH4 0xB9F05F2F EQ PUSH2 0x180 JUMPI DUP1 PUSH4 0xC19D93FB EQ PUSH2 0x19C JUMPI DUP1 PUSH4 0xDCA97183 EQ PUSH2 0x1BA JUMPI DUP1 PUSH4 0xF3A8286F EQ PUSH2 0x1D8 JUMPI PUSH2 0x9E JUMP JUMPDEST DUP1 PUSH4 0x13CF08B EQ PUSH2 0xA3 JUMPI DUP1 PUSH4 0xD15FD77 EQ PUSH2 0xD5 JUMPI DUP1 PUSH4 0x4C0A6AF0 EQ PUSH2 0xF3 JUMPI DUP1 PUSH4 0x5F5300FF EQ PUSH2 0xFD JUMPI DUP1 PUSH4 0x92F859DB EQ PUSH2 0x11B JUMPI JUMPDEST PUSH1 0x0 DUP1 REVERT JUMPDEST PUSH2 0xBD PUSH1 0x4 DUP1 CALLDATASIZE SUB DUP2 ADD SWAP1 PUSH2 0xB8 SWAP2 SWAP1 PUSH2 0x7A7 JUMP JUMPDEST PUSH2 0x1F6 JUMP JUMPDEST PUSH1 0x40 MLOAD PUSH2 0xCC SWAP4 SWAP3 SWAP2 SWAP1 PUSH2 0x94A JUMP JUMPDEST PUSH1 0x40 MLOAD DUP1 SWAP2 SUB SWAP1 RETURN JUMPDEST PUSH2 0xDD PUSH2 0x230 JUMP JUMPDEST PUSH1 0x40 MLOAD PUSH2 0xEA SWAP2 SWAP1 PUSH2 0x92F JUMP JUMPDEST PUSH1 0x40 MLOAD DUP1 SWAP2 SUB SWAP1 RETURN JUMPDEST PUSH2 0xFB PUSH2 0x236 JUMP JUMPDEST STOP JUMPDEST PUSH2 0x105 PUSH2 0x2FD JUMP JUMPDEST PUSH1 0x40 MLOAD PUSH2 0x112 SWAP2 SWAP1 PUSH2 0x92F JUMP JUMPDEST PUSH1 0x40 MLOAD DUP1 SWAP2 SUB SWAP1 RETURN JUMPDEST PUSH2 0x135 PUSH1 0x4 DUP1 CALLDATASIZE SUB DUP2 ADD SWAP1 PUSH2 0x130 SWAP2 SWAP1 PUSH2 0x7A7 JUMP JUMPDEST PUSH2 0x303 JUMP JUMPDEST PUSH1 0x40 MLOAD PUSH2 0x144 SWAP4 SWAP3 SWAP2 SWAP1 PUSH2 0x981 JUMP JUMPDEST PUSH1 0x40 MLOAD DUP1 SWAP2 SUB SWAP1 RETURN JUMPDEST PUSH2 0x167 PUSH1 0x4 DUP1 CALLDATASIZE SUB DUP2 ADD SWAP1 PUSH2 0x162 SWAP2 SWAP1 PUSH2 0x73A JUMP JUMPDEST PUSH2 0x33D JUMP JUMPDEST PUSH1 0x40 MLOAD PUSH2 0x177 SWAP5 SWAP4 SWAP3 SWAP2 SWAP1 PUSH2 0x88F JUMP JUMPDEST PUSH1 0x40 MLOAD DUP1 SWAP2 SUB SWAP1 RETURN JUMPDEST PUSH2 0x19A PUSH1 0x4 DUP1 CALLDATASIZE SUB DUP2 ADD SWAP1 PUSH2 0x195 SWAP2 SWAP1 PUSH2 0x767 JUMP JUMPDEST PUSH2 0x387 JUMP JUMPDEST STOP JUMPDEST PUSH2 0x1A4 PUSH2 0x613 JUMP JUMPDEST PUSH1 0x40 MLOAD PUSH2 0x1B1 SWAP2 SWAP1 PUSH2 0x8D4 JUMP JUMPDEST PUSH1 0x40 MLOAD DUP1 SWAP2 SUB SWAP1 RETURN JUMPDEST PUSH2 0x1C2 PUSH2 0x626 JUMP JUMPDEST PUSH1 0x40 MLOAD PUSH2 0x1CF SWAP2 SWAP1 PUSH2 0x874 JUMP JUMPDEST PUSH1 0x40 MLOAD DUP1 SWAP2 SUB SWAP1 RETURN JUMPDEST PUSH2 0x1E0 PUSH2 0x64A JUMP JUMPDEST PUSH1 0x40 MLOAD PUSH2 0x1ED SWAP2 SWAP1 PUSH2 0x92F JUMP JUMPDEST PUSH1 0x40 MLOAD DUP1 SWAP2 SUB SWAP1 RETURN JUMPDEST PUSH1 0x7 DUP2 DUP2 SLOAD DUP2 LT PUSH2 0x206 JUMPI PUSH1 0x0 DUP1 REVERT JUMPDEST SWAP1 PUSH1 0x0 MSTORE PUSH1 0x20 PUSH1 0x0 KECCAK256 SWAP1 PUSH1 0x3 MUL ADD PUSH1 0x0 SWAP2 POP SWAP1 POP DUP1 PUSH1 0x0 ADD SLOAD SWAP1 DUP1 PUSH1 0x1 ADD SLOAD SWAP1 DUP1 PUSH1 0x2 ADD SLOAD SWAP1 POP DUP4 JUMP JUMPDEST PUSH1 0x6 SLOAD DUP2 JUMP JUMPDEST PUSH1 0x0 DUP1 PUSH1 0x2 DUP2 GT ISZERO PUSH2 0x24B JUMPI PUSH2 0x24A PUSH2 0xAC2 JUMP JUMPDEST JUMPDEST PUSH1 0xA PUSH1 0x0 SWAP1 SLOAD SWAP1 PUSH2 0x100 EXP SWAP1 DIV PUSH1 0xFF AND PUSH1 0x2 DUP2 GT ISZERO PUSH2 0x26D JUMPI PUSH2 0x26C PUSH2 0xAC2 JUMP JUMPDEST JUMPDEST EQ PUSH2 0x277 JUMPI PUSH1 0x0 DUP1 REVERT JUMPDEST PUSH1 0x0 DUP1 SLOAD SWAP1 PUSH2 0x100 EXP SWAP1 DIV PUSH20 0xFFFFFFFFFFFFFFFFFFFFFFFFFFFFFFFFFFFFFFFF AND PUSH20 0xFFFFFFFFFFFFFFFFFFFFFFFFFFFFFFFFFFFFFFFF AND CALLER PUSH20 0xFFFFFFFFFFFFFFFFFFFFFFFFFFFFFFFFFFFFFFFF AND EQ PUSH2 0x2CF JUMPI PUSH1 0x0 DUP1 REVERT JUMPDEST PUSH1 0x1 PUSH1 0xA PUSH1 0x0 PUSH2 0x100 EXP DUP2 SLOAD DUP2 PUSH1 0xFF MUL NOT AND SWAP1 DUP4 PUSH1 0x2 DUP2 GT ISZERO PUSH2 0x2F5 JUMPI PUSH2 0x2F4 PUSH2 0xAC2 JUMP JUMPDEST JUMPDEST MUL OR SWAP1 SSTORE POP POP JUMP JUMPDEST PUSH1 0x5 SLOAD DUP2 JUMP JUMPDEST PUSH1 0x8 DUP2 DUP2 SLOAD DUP2 LT PUSH2 0x313 JUMPI PUSH1 0x0 DUP1 REVERT JUMPDEST SWAP1 PUSH1 0x0 MSTORE PUSH1 0x20 PUSH1 0x0 KECCAK256 SWAP1 PUSH1 0x3 MUL ADD PUSH1 0x0 SWAP2 POP SWAP1 POP DUP1 PUSH1 0x0 ADD SLOAD SWAP1 DUP1 PUSH1 0x1 ADD SLOAD SWAP1 DUP1 PUSH1 0x2 ADD SLOAD SWAP1 POP DUP4 JUMP JUMPDEST PUSH1 0x9 PUSH1 0x20 MSTORE DUP1 PUSH1 0x0 MSTORE PUSH1 0x40 PUSH1 0x0 KECCAK256 PUSH1 0x0 SWAP2 POP SWAP1 POP DUP1 PUSH1 0x0 ADD PUSH1 0x0 SWAP1 SLOAD SWAP1 PUSH2 0x100 EXP SWAP1 DIV PUSH1 0xFF AND SWAP1 DUP1 PUSH1 0x0 ADD PUSH1 0x1 SWAP1 SLOAD SWAP1 PUSH2 0x100 EXP SWAP1 DIV PUSH1 0xFF AND SWAP1 DUP1 PUSH1 0x1 ADD SLOAD SWAP1 DUP1 PUSH1 0x2 ADD SLOAD SWAP1 POP DUP5 JUMP JUMPDEST PUSH1 0x0 DUP1 PUSH1 0x2 DUP2 GT ISZERO PUSH2 0x39C JUMPI PUSH2 0x39B PUSH2 0xAC2 JUMP JUMPDEST JUMPDEST PUSH1 0xA PUSH1 0x0 SWAP1 SLOAD SWAP1 PUSH2 0x100 EXP SWAP1 DIV PUSH1 0xFF AND PUSH1 0x2 DUP2 GT ISZERO PUSH2 0x3BE JUMPI PUSH2 0x3BD PUSH2 0xAC2 JUMP JUMPDEST JUMPDEST EQ PUSH2 0x3C8 JUMPI PUSH1 0x0 DUP1 REVERT JUMPDEST PUSH1 0x0 DUP1 SLOAD SWAP1 PUSH2 0x100 EXP SWAP1 DIV PUSH20 0xFFFFFFFFFFFFFFFFFFFFFFFFFFFFFFFFFFFFFFFF AND PUSH20 0xFFFFFFFFFFFFFFFFFFFFFFFFFFFFFFFFFFFFFFFF AND CALLER PUSH20 0xFFFFFFFFFFFFFFFFFFFFFFFFFFFFFFFFFFFFFFFF AND EQ PUSH2 0x420 JUMPI PUSH1 0x0 DUP1 REVERT JUMPDEST PUSH1 0x0 PUSH1 0x9 PUSH1 0x0 DUP6 PUSH20 0xFFFFFFFFFFFFFFFFFFFFFFFFFFFFFFFFFFFFFFFF AND PUSH20 0xFFFFFFFFFFFFFFFFFFFFFFFFFFFFFFFFFFFFFFFF AND DUP2 MSTORE PUSH1 0x20 ADD SWAP1 DUP2 MSTORE PUSH1 0x20 ADD PUSH1 0x0 KECCAK256 PUSH1 0x1 ADD SLOAD EQ PUSH2 0x4A5 JUMPI PUSH1 0x40 MLOAD PUSH32 0x8C379A000000000000000000000000000000000000000000000000000000000 DUP2 MSTORE PUSH1 0x4 ADD PUSH2 0x49C SWAP1 PUSH2 0x90F JUMP JUMPDEST PUSH1 0x40 MLOAD DUP1 SWAP2 SUB SWAP1 REVERT JUMPDEST PUSH1 0x1 DUP3 LT ISZERO DUP1 ISZERO PUSH2 0x4B8 JUMPI POP PUSH1 0x2 SLOAD DUP3 GT ISZERO JUMPDEST PUSH2 0x4F7 JUMPI PUSH1 0x40 MLOAD PUSH32 0x8C379A000000000000000000000000000000000000000000000000000000000 DUP2 MSTORE PUSH1 0x4 ADD PUSH2 0x4EE SWAP1 PUSH2 0x8EF JUMP JUMPDEST PUSH1 0x40 MLOAD DUP1 SWAP2 SUB SWAP1 REVERT JUMPDEST PUSH2 0x4FF PUSH2 0x6E4 JUMP JUMPDEST PUSH1 0x1 DUP2 PUSH1 0x0 ADD SWAP1 ISZERO ISZERO SWAP1 DUP2 ISZERO ISZERO DUP2 MSTORE POP POP PUSH1 0x0 DUP2 PUSH1 0x20 ADD SWAP1 ISZERO ISZERO SWAP1 DUP2 ISZERO ISZERO DUP2 MSTORE POP POP PUSH32 0xFFFFFFFFFFFFFFFFFFFFFFFFFFFFFFFFFFFFFFFFFFFFFFFFFFFFFFFFFFFFFFFF DUP2 PUSH1 0x40 ADD DUP2 DUP2 MSTORE POP POP DUP3 DUP2 PUSH1 0x60 ADD DUP2 DUP2 MSTORE POP POP DUP1 PUSH1 0x9 PUSH1 0x0 DUP7 PUSH20 0xFFFFFFFFFFFFFFFFFFFFFFFFFFFFFFFFFFFFFFFF AND PUSH20 0xFFFFFFFFFFFFFFFFFFFFFFFFFFFFFFFFFFFFFFFF AND DUP2 MSTORE PUSH1 0x20 ADD SWAP1 DUP2 MSTORE PUSH1 0x20 ADD PUSH1 0x0 KECCAK256 PUSH1 0x0 DUP3 ADD MLOAD DUP2 PUSH1 0x0 ADD PUSH1 0x0 PUSH2 0x100 EXP DUP2 SLOAD DUP2 PUSH1 0xFF MUL NOT AND SWAP1 DUP4 ISZERO ISZERO MUL OR SWAP1 SSTORE POP PUSH1 0x20 DUP3 ADD MLOAD DUP2 PUSH1 0x0 ADD PUSH1 0x1 PUSH2 0x100 EXP DUP2 SLOAD DUP2 PUSH1 0xFF MUL NOT AND SWAP1 DUP4 ISZERO ISZERO MUL OR SWAP1 SSTORE POP PUSH1 0x40 DUP3 ADD MLOAD DUP2 PUSH1 0x1 ADD SSTORE PUSH1 0x60 DUP3 ADD MLOAD DUP2 PUSH1 0x2 ADD SSTORE SWAP1 POP POP PUSH1 0x5 PUSH1 0x0 DUP2 SLOAD DUP1 SWAP3 SWAP2 SWAP1 PUSH2 0x5FF SWAP1 PUSH2 0xA4A JUMP JUMPDEST SWAP2 SWAP1 POP SSTORE POP PUSH2 0x60D DUP4 PUSH2 0x650 JUMP JUMPDEST POP POP POP POP JUMP JUMPDEST PUSH1 0xA PUSH1 0x0 SWAP1 SLOAD SWAP1 PUSH2 0x100 EXP SWAP1 DIV PUSH1 0xFF AND DUP2 JUMP JUMPDEST PUSH1 0x0 DUP1 SLOAD SWAP1 PUSH2 0x100 EXP SWAP1 DIV PUSH20 0xFFFFFFFFFFFFFFFFFFFFFFFFFFFFFFFFFFFFFFFF AND DUP2 JUMP JUMPDEST PUSH1 0x4 SLOAD DUP2 JUMP JUMPDEST PUSH1 0x0 JUMPDEST PUSH1 0x8 DUP1 SLOAD SWAP1 POP DUP2 LT ISZERO PUSH2 0x6E0 JUMPI DUP2 PUSH1 0x8 DUP3 DUP2 SLOAD DUP2 LT PUSH2 0x675 JUMPI PUSH2 0x674 PUSH2 0xAF1 JUMP JUMPDEST JUMPDEST SWAP1 PUSH1 0x0 MSTORE PUSH1 0x20 PUSH1 0x0 KECCAK256 SWAP1 PUSH1 0x3 MUL ADD PUSH1 0x0 ADD SLOAD EQ ISZERO PUSH2 0x6CD JUMPI PUSH1 0x8 DUP2 DUP2 SLOAD DUP2 LT PUSH2 0x6A1 JUMPI PUSH2 0x6A0 PUSH2 0xAF1 JUMP JUMPDEST JUMPDEST SWAP1 PUSH1 0x0 MSTORE PUSH1 0x20 PUSH1 0x0 KECCAK256 SWAP1 PUSH1 0x3 MUL ADD PUSH1 0x1 ADD PUSH1 0x0 DUP2 SLOAD DUP1 SWAP3 SWAP2 SWAP1 PUSH2 0x6C3 SWAP1 PUSH2 0xA4A JUMP JUMPDEST SWAP2 SWAP1 POP SSTORE POP PUSH2 0x6E0 JUMP JUMPDEST DUP1 DUP1 PUSH2 0x6D8 SWAP1 PUSH2 0xA4A JUMP JUMPDEST SWAP2 POP POP PUSH2 0x653 JUMP JUMPDEST POP POP JUMP JUMPDEST PUSH1 0x40 MLOAD DUP1 PUSH1 0x80 ADD PUSH1 0x40 MSTORE DUP1 PUSH1 0x0 ISZERO ISZERO DUP2 MSTORE PUSH1 0x20 ADD PUSH1 0x0 ISZERO ISZERO DUP2 MSTORE PUSH1 0x20 ADD PUSH1 0x0 DUP2 MSTORE PUSH1 0x20 ADD PUSH1 0x0 DUP2 MSTORE POP SWAP1 JUMP JUMPDEST PUSH1 0x0 DUP2 CALLDATALOAD SWAP1 POP PUSH2 0x71F DUP2 PUSH2 0xBB1 JUMP JUMPDEST SWAP3 SWAP2 POP POP JUMP JUMPDEST PUSH1 0x0 DUP2 CALLDATALOAD SWAP1 POP PUSH2 0x734 DUP2 PUSH2 0xBC8 JUMP JUMPDEST SWAP3 SWAP2 POP POP JUMP JUMPDEST PUSH1 0x0 PUSH1 0x20 DUP3 DUP5 SUB SLT ISZERO PUSH2 0x750 JUMPI PUSH2 0x74F PUSH2 0xB20 JUMP JUMPDEST JUMPDEST PUSH1 0x0 PUSH2 0x75E DUP5 DUP3 DUP6 ADD PUSH2 0x710 JUMP JUMPDEST SWAP2 POP POP SWAP3 SWAP2 POP POP JUMP JUMPDEST PUSH1 0x0 DUP1 PUSH1 0x40 DUP4 DUP6 SUB SLT ISZERO PUSH2 0x77E JUMPI PUSH2 0x77D PUSH2 0xB20 JUMP JUMPDEST JUMPDEST PUSH1 0x0 PUSH2 0x78C DUP6 DUP3 DUP7 ADD PUSH2 0x710 JUMP JUMPDEST SWAP3 POP POP PUSH1 0x20 PUSH2 0x79D DUP6 DUP3 DUP7 ADD PUSH2 0x725 JUMP JUMPDEST SWAP2 POP POP SWAP3 POP SWAP3 SWAP1 POP JUMP JUMPDEST PUSH1 0x0 PUSH1 0x20 DUP3 DUP5 SUB SLT ISZERO PUSH2 0x7BD JUMPI PUSH2 0x7BC PUSH2 0xB20 JUMP JUMPDEST JUMPDEST PUSH1 0x0 PUSH2 0x7CB DUP5 DUP3 DUP6 ADD PUSH2 0x725 JUMP JUMPDEST SWAP2 POP POP SWAP3 SWAP2 POP POP JUMP JUMPDEST PUSH2 0x7DD DUP2 PUSH2 0x9C9 JUMP JUMPDEST DUP3 MSTORE POP POP JUMP JUMPDEST PUSH2 0x7EC DUP2 PUSH2 0x9DB JUMP JUMPDEST DUP3 MSTORE POP POP JUMP JUMPDEST PUSH2 0x7FB DUP2 PUSH2 0x9E7 JUMP JUMPDEST DUP3 MSTORE POP POP JUMP JUMPDEST PUSH2 0x80A DUP2 PUSH2 0xA38 JUMP JUMPDEST DUP3 MSTORE POP POP JUMP JUMPDEST PUSH2 0x819 DUP2 PUSH2 0xA04 JUMP JUMPDEST DUP3 MSTORE POP POP JUMP JUMPDEST PUSH1 0x0 PUSH2 0x82C PUSH1 0x2A DUP4 PUSH2 0x9B8 JUMP JUMPDEST SWAP2 POP PUSH2 0x837 DUP3 PUSH2 0xB25 JUMP JUMPDEST PUSH1 0x40 DUP3 ADD SWAP1 POP SWAP2 SWAP1 POP JUMP JUMPDEST PUSH1 0x0 PUSH2 0x84F PUSH1 0x1C DUP4 PUSH2 0x9B8 JUMP JUMPDEST SWAP2 POP PUSH2 0x85A DUP3 PUSH2 0xB74 JUMP JUMPDEST PUSH1 0x20 DUP3 ADD SWAP1 POP SWAP2 SWAP1 POP JUMP JUMPDEST PUSH2 0x86E DUP2 PUSH2 0xA2E JUMP JUMPDEST DUP3 MSTORE POP POP JUMP JUMPDEST PUSH1 0x0 PUSH1 0x20 DUP3 ADD SWAP1 POP PUSH2 0x889 PUSH1 0x0 DUP4 ADD DUP5 PUSH2 0x7D4 JUMP JUMPDEST SWAP3 SWAP2 POP POP JUMP JUMPDEST PUSH1 0x0 PUSH1 0x80 DUP3 ADD SWAP1 POP PUSH2 0x8A4 PUSH1 0x0 DUP4 ADD DUP8 PUSH2 0x7E3 JUMP JUMPDEST PUSH2 0x8B1 PUSH1 0x20 DUP4 ADD DUP7 PUSH2 0x7E3 JUMP JUMPDEST PUSH2 0x8BE PUSH1 0x40 DUP4 ADD DUP6 PUSH2 0x810 JUMP JUMPDEST PUSH2 0x8CB PUSH1 0x60 DUP4 ADD DUP5 PUSH2 0x865 JUMP JUMPDEST SWAP6 SWAP5 POP POP POP POP POP JUMP JUMPDEST PUSH1 0x0 PUSH1 0x20 DUP3 ADD SWAP1 POP PUSH2 0x8E9 PUSH1 0x0 DUP4 ADD DUP5 PUSH2 0x801 JUMP JUMPDEST SWAP3 SWAP2 POP POP JUMP JUMPDEST PUSH1 0x0 PUSH1 0x20 DUP3 ADD SWAP1 POP DUP2 DUP2 SUB PUSH1 0x0 DUP4 ADD MSTORE PUSH2 0x908 DUP2 PUSH2 0x81F JUMP JUMPDEST SWAP1 POP SWAP2 SWAP1 POP JUMP JUMPDEST PUSH1 0x0 PUSH1 0x20 DUP3 ADD SWAP1 POP DUP2 DUP2 SUB PUSH1 0x0 DUP4 ADD MSTORE PUSH2 0x928 DUP2 PUSH2 0x842 JUMP JUMPDEST SWAP1 POP SWAP2 SWAP1 POP JUMP JUMPDEST PUSH1 0x0 PUSH1 0x20 DUP3 ADD SWAP1 POP PUSH2 0x944 PUSH1 0x0 DUP4 ADD DUP5 PUSH2 0x865 JUMP JUMPDEST SWAP3 SWAP2 POP POP JUMP JUMPDEST PUSH1 0x0 PUSH1 0x60 DUP3 ADD SWAP1 POP PUSH2 0x95F PUSH1 0x0 DUP4 ADD DUP7 PUSH2 0x865 JUMP JUMPDEST PUSH2 0x96C PUSH1 0x20 DUP4 ADD DUP6 PUSH2 0x7F2 JUMP JUMPDEST PUSH2 0x979 PUSH1 0x40 DUP4 ADD DUP5 PUSH2 0x865 JUMP JUMPDEST SWAP5 SWAP4 POP POP POP POP JUMP JUMPDEST PUSH1 0x0 PUSH1 0x60 DUP3 ADD SWAP1 POP PUSH2 0x996 PUSH1 0x0 DUP4 ADD DUP7 PUSH2 0x865 JUMP JUMPDEST PUSH2 0x9A3 PUSH1 0x20 DUP4 ADD DUP6 PUSH2 0x865 JUMP JUMPDEST PUSH2 0x9B0 PUSH1 0x40 DUP4 ADD DUP5 PUSH2 0x865 JUMP JUMPDEST SWAP5 SWAP4 POP POP POP POP JUMP JUMPDEST PUSH1 0x0 DUP3 DUP3 MSTORE PUSH1 0x20 DUP3 ADD SWAP1 POP SWAP3 SWAP2 POP POP JUMP JUMPDEST PUSH1 0x0 PUSH2 0x9D4 DUP3 PUSH2 0xA0E JUMP JUMPDEST SWAP1 POP SWAP2 SWAP1 POP JUMP JUMPDEST PUSH1 0x0 DUP2 ISZERO ISZERO SWAP1 POP SWAP2 SWAP1 POP JUMP JUMPDEST PUSH1 0x0 DUP2 SWAP1 POP SWAP2 SWAP1 POP JUMP JUMPDEST PUSH1 0x0 DUP2 SWAP1 POP PUSH2 0x9FF DUP3 PUSH2 0xB9D JUMP JUMPDEST SWAP2 SWAP1 POP JUMP JUMPDEST PUSH1 0x0 DUP2 SWAP1 POP SWAP2 SWAP1 POP JUMP JUMPDEST PUSH1 0x0 PUSH20 0xFFFFFFFFFFFFFFFFFFFFFFFFFFFFFFFFFFFFFFFF DUP3 AND SWAP1 POP SWAP2 SWAP1 POP JUMP JUMPDEST PUSH1 0x0 DUP2 SWAP1 POP SWAP2 SWAP1 POP JUMP JUMPDEST PUSH1 0x0 PUSH2 0xA43 DUP3 PUSH2 0x9F1 JUMP JUMPDEST SWAP1 POP SWAP2 SWAP1 POP JUMP JUMPDEST PUSH1 0x0 PUSH2 0xA55 DUP3 PUSH2 0xA2E JUMP JUMPDEST SWAP2 POP PUSH32 0xFFFFFFFFFFFFFFFFFFFFFFFFFFFFFFFFFFFFFFFFFFFFFFFFFFFFFFFFFFFFFFFF DUP3 EQ ISZERO PUSH2 0xA88 JUMPI PUSH2 0xA87 PUSH2 0xA93 JUMP JUMPDEST JUMPDEST PUSH1 0x1 DUP3 ADD SWAP1 POP SWAP2 SWAP1 POP JUMP JUMPDEST PUSH32 0x4E487B7100000000000000000000000000000000000000000000000000000000 PUSH1 0x0 MSTORE PUSH1 0x11 PUSH1 0x4 MSTORE PUSH1 0x24 PUSH1 0x0 REVERT JUMPDEST PUSH32 0x4E487B7100000000000000000000000000000000000000000000000000000000 PUSH1 0x0 MSTORE PUSH1 0x21 PUSH1 0x4 MSTORE PUSH1 0x24 PUSH1 0x0 REVERT JUMPDEST PUSH32 0x4E487B7100000000000000000000000000000000000000000000000000000000 PUSH1 0x0 MSTORE PUSH1 0x32 PUSH1 0x4 MSTORE PUSH1 0x24 PUSH1 0x0 REVERT JUMPDEST PUSH1 0x0 DUP1 REVERT JUMPDEST PUSH32 0x506C656173652070726F7669646520612076616C696420706F6C6C696E672073 PUSH1 0x0 DUP3 ADD MSTORE PUSH32 0x746174696F6E2049442E00000000000000000000000000000000000000000000 PUSH1 0x20 DUP3 ADD MSTORE POP JUMP JUMPDEST PUSH32 0x566F74657220697320616C726561647920726567697374657265642E00000000 PUSH1 0x0 DUP3 ADD MSTORE POP JUMP JUMPDEST PUSH1 0x3 DUP2 LT PUSH2 0xBAE JUMPI PUSH2 0xBAD PUSH2 0xAC2 JUMP JUMPDEST JUMPDEST POP JUMP JUMPDEST PUSH2 0xBBA DUP2 PUSH2 0x9C9 JUMP JUMPDEST DUP2 EQ PUSH2 0xBC5 JUMPI PUSH1 0x0 DUP1 REVERT JUMPDEST POP JUMP JUMPDEST PUSH2 0xBD1 DUP2 PUSH2 0xA2E JUMP JUMPDEST DUP2 EQ PUSH2 0xBDC JUMPI PUSH1 0x0 DUP1 REVERT JUMPDEST POP JUMP INVALID LOG2 PUSH5 0x6970667358 0x22 SLT KECCAK256 DUP10 LOG2 0x5E CALL SWAP1 0xB6 PUSH29 0x87284ECFAF963E5DF114CFD20867C586701CE0353DDDD7902764736F6C PUSH4 0x43000807 STOP CALLER "
				},
				"gasEstimates": {
					"creation": {
						"codeDepositCost": "618600",
						"executionCost": "infinite",
						"totalCost": "infinite"
					},
					"external": {
						"addVoter(address,uint256)": "infinite",
						"ballotOwner()": "2577",
						"finalResult()": "2517",
						"proposals(uint256)": "infinite",
						"startVote()": "28859",
						"state()": "2604",
						"stations(uint256)": "infinite",
						"totalVoters()": "2496",
						"totalVotes()": "2452",
						"voterRegister(address)": "infinite"
					},
					"internal": {
						"initCandidates()": "infinite",
						"initPollingStations(uint256)": "infinite",
						"registerAtPollingStation(uint256)": "infinite"
					}
				},
				"methodIdentifiers": {
					"addVoter(address,uint256)": "b9f05f2f",
					"ballotOwner()": "dca97183",
					"finalResult()": "f3a8286f",
					"proposals(uint256)": "013cf08b",
					"startVote()": "4c0a6af0",
					"state()": "c19d93fb",
					"stations(uint256)": "92f859db",
					"totalVoters()": "5f5300ff",
					"totalVotes()": "0d15fd77",
					"voterRegister(address)": "af154087"
				}
			},
			"storageLayout": {
				"storage": [
					{
						"astId": 26,
						"contract": "contracts/ergasia.sol:Ballot",
						"label": "ballotOwner",
						"offset": 0,
						"slot": "0",
						"type": "t_address"
					},
					{
						"astId": 29,
						"contract": "contracts/ergasia.sol:Ballot",
						"label": "numOfCandidates",
						"offset": 0,
						"slot": "1",
						"type": "t_uint256"
					},
					{
						"astId": 32,
						"contract": "contracts/ergasia.sol:Ballot",
						"label": "numOfPollingStations",
						"offset": 0,
						"slot": "2",
						"type": "t_uint256"
					},
					{
						"astId": 35,
						"contract": "contracts/ergasia.sol:Ballot",
						"label": "countResult",
						"offset": 0,
						"slot": "3",
						"type": "t_uint256"
					},
					{
						"astId": 38,
						"contract": "contracts/ergasia.sol:Ballot",
						"label": "finalResult",
						"offset": 0,
						"slot": "4",
						"type": "t_uint256"
					},
					{
						"astId": 41,
						"contract": "contracts/ergasia.sol:Ballot",
						"label": "totalVoters",
						"offset": 0,
						"slot": "5",
						"type": "t_uint256"
					},
					{
						"astId": 44,
						"contract": "contracts/ergasia.sol:Ballot",
						"label": "totalVotes",
						"offset": 0,
						"slot": "6",
						"type": "t_uint256"
					},
					{
						"astId": 48,
						"contract": "contracts/ergasia.sol:Ballot",
						"label": "proposals",
						"offset": 0,
						"slot": "7",
						"type": "t_array(t_struct(Proposal)17_storage)dyn_storage"
					},
					{
						"astId": 52,
						"contract": "contracts/ergasia.sol:Ballot",
						"label": "stations",
						"offset": 0,
						"slot": "8",
						"type": "t_array(t_struct(PollingStation)24_storage)dyn_storage"
					},
					{
						"astId": 57,
						"contract": "contracts/ergasia.sol:Ballot",
						"label": "voterRegister",
						"offset": 0,
						"slot": "9",
						"type": "t_mapping(t_address,t_struct(Voter)10_storage)"
					},
					{
						"astId": 64,
						"contract": "contracts/ergasia.sol:Ballot",
						"label": "state",
						"offset": 0,
						"slot": "10",
						"type": "t_enum(State)61"
					}
				],
				"types": {
					"t_address": {
						"encoding": "inplace",
						"label": "address",
						"numberOfBytes": "20"
					},
					"t_array(t_struct(PollingStation)24_storage)dyn_storage": {
						"base": "t_struct(PollingStation)24_storage",
						"encoding": "dynamic_array",
						"label": "struct Ballot.PollingStation[]",
						"numberOfBytes": "32"
					},
					"t_array(t_struct(Proposal)17_storage)dyn_storage": {
						"base": "t_struct(Proposal)17_storage",
						"encoding": "dynamic_array",
						"label": "struct Ballot.Proposal[]",
						"numberOfBytes": "32"
					},
					"t_bool": {
						"encoding": "inplace",
						"label": "bool",
						"numberOfBytes": "1"
					},
					"t_bytes32": {
						"encoding": "inplace",
						"label": "bytes32",
						"numberOfBytes": "32"
					},
					"t_enum(State)61": {
						"encoding": "inplace",
						"label": "enum Ballot.State",
						"numberOfBytes": "1"
					},
					"t_int256": {
						"encoding": "inplace",
						"label": "int256",
						"numberOfBytes": "32"
					},
					"t_mapping(t_address,t_struct(Voter)10_storage)": {
						"encoding": "mapping",
						"key": "t_address",
						"label": "mapping(address => struct Ballot.Voter)",
						"numberOfBytes": "32",
						"value": "t_struct(Voter)10_storage"
					},
					"t_struct(PollingStation)24_storage": {
						"encoding": "inplace",
						"label": "struct Ballot.PollingStation",
						"members": [
							{
								"astId": 19,
								"contract": "contracts/ergasia.sol:Ballot",
								"label": "stationID",
								"offset": 0,
								"slot": "0",
								"type": "t_uint256"
							},
							{
								"astId": 21,
								"contract": "contracts/ergasia.sol:Ballot",
								"label": "pplEnrolled",
								"offset": 0,
								"slot": "1",
								"type": "t_uint256"
							},
							{
								"astId": 23,
								"contract": "contracts/ergasia.sol:Ballot",
								"label": "votesCasted",
								"offset": 0,
								"slot": "2",
								"type": "t_uint256"
							}
						],
						"numberOfBytes": "96"
					},
					"t_struct(Proposal)17_storage": {
						"encoding": "inplace",
						"label": "struct Ballot.Proposal",
						"members": [
							{
								"astId": 12,
								"contract": "contracts/ergasia.sol:Ballot",
								"label": "id",
								"offset": 0,
								"slot": "0",
								"type": "t_uint256"
							},
							{
								"astId": 14,
								"contract": "contracts/ergasia.sol:Ballot",
								"label": "name",
								"offset": 0,
								"slot": "1",
								"type": "t_bytes32"
							},
							{
								"astId": 16,
								"contract": "contracts/ergasia.sol:Ballot",
								"label": "voteCount",
								"offset": 0,
								"slot": "2",
								"type": "t_uint256"
							}
						],
						"numberOfBytes": "96"
					},
					"t_struct(Voter)10_storage": {
						"encoding": "inplace",
						"label": "struct Ballot.Voter",
						"members": [
							{
								"astId": 3,
								"contract": "contracts/ergasia.sol:Ballot",
								"label": "enrolled",
								"offset": 0,
								"slot": "0",
								"type": "t_bool"
							},
							{
								"astId": 5,
								"contract": "contracts/ergasia.sol:Ballot",
								"label": "voted",
								"offset": 1,
								"slot": "0",
								"type": "t_bool"
							},
							{
								"astId": 7,
								"contract": "contracts/ergasia.sol:Ballot",
								"label": "indexProposal",
								"offset": 0,
								"slot": "1",
								"type": "t_int256"
							},
							{
								"astId": 9,
								"contract": "contracts/ergasia.sol:Ballot",
								"label": "pollingStationID",
								"offset": 0,
								"slot": "2",
								"type": "t_uint256"
							}
						],
						"numberOfBytes": "96"
					},
					"t_uint256": {
						"encoding": "inplace",
						"label": "uint256",
						"numberOfBytes": "32"
					}
				}
			},
			"userdoc": {
				"kind": "user",
				"methods": {},
				"version": 1
			}
		}
	}
}