{
	"contracts/ergasia.sol": {
		"Election": {
			"abi": [
				{
					"inputs": [],
					"stateMutability": "nonpayable",
					"type": "constructor"
				},
				{
					"inputs": [
						{
							"internalType": "address",
							"name": "_voterAddress",
							"type": "address"
						},
						{
							"internalType": "uint256",
							"name": "_pollingStationID",
							"type": "uint256"
						}
					],
					"name": "addVoter",
					"outputs": [],
					"stateMutability": "nonpayable",
					"type": "function"
				},
				{
					"inputs": [
						{
							"internalType": "uint256",
							"name": "",
							"type": "uint256"
						}
					],
					"name": "candidates",
					"outputs": [
						{
							"internalType": "uint256",
							"name": "id",
							"type": "uint256"
						},
						{
							"internalType": "string",
							"name": "name",
							"type": "string"
						},
						{
							"internalType": "uint256",
							"name": "votes",
							"type": "uint256"
						}
					],
					"stateMutability": "view",
					"type": "function"
				},
				{
					"inputs": [],
					"name": "candidatesCount",
					"outputs": [
						{
							"internalType": "uint256",
							"name": "",
							"type": "uint256"
						}
					],
					"stateMutability": "view",
					"type": "function"
				},
				{
					"inputs": [
						{
							"internalType": "address",
							"name": "_voterAddress",
							"type": "address"
						},
						{
							"internalType": "uint256",
							"name": "_choice",
							"type": "uint256"
						},
						{
							"internalType": "uint256",
							"name": "_pollingStationID",
							"type": "uint256"
						}
					],
					"name": "castVote",
					"outputs": [
						{
							"internalType": "bool",
							"name": "voted",
							"type": "bool"
						}
					],
					"stateMutability": "nonpayable",
					"type": "function"
				},
				{
					"inputs": [],
					"name": "electionOwner",
					"outputs": [
						{
							"internalType": "address",
							"name": "",
							"type": "address"
						}
					],
					"stateMutability": "view",
					"type": "function"
				},
				{
					"inputs": [],
					"name": "finalResult",
					"outputs": [
						{
							"internalType": "uint256",
							"name": "",
							"type": "uint256"
						}
					],
					"stateMutability": "view",
					"type": "function"
				},
				{
					"inputs": [],
					"name": "pollingStationCount",
					"outputs": [
						{
							"internalType": "uint256",
							"name": "",
							"type": "uint256"
						}
					],
					"stateMutability": "view",
					"type": "function"
				},
				{
					"inputs": [
						{
							"internalType": "uint256",
							"name": "",
							"type": "uint256"
						}
					],
					"name": "pollingStations",
					"outputs": [
						{
							"internalType": "uint256",
							"name": "id",
							"type": "uint256"
						},
						{
							"internalType": "string",
							"name": "name",
							"type": "string"
						},
						{
							"internalType": "uint256",
							"name": "votersRegistered",
							"type": "uint256"
						},
						{
							"internalType": "uint256",
							"name": "votesCasted",
							"type": "uint256"
						}
					],
					"stateMutability": "view",
					"type": "function"
				},
				{
					"inputs": [],
					"name": "startVote",
					"outputs": [],
					"stateMutability": "nonpayable",
					"type": "function"
				},
				{
					"inputs": [],
					"name": "state",
					"outputs": [
						{
							"internalType": "enum Election.State",
							"name": "",
							"type": "uint8"
						}
					],
					"stateMutability": "view",
					"type": "function"
				},
				{
					"inputs": [],
					"name": "totalRegisteredVoters",
					"outputs": [
						{
							"internalType": "uint256",
							"name": "",
							"type": "uint256"
						}
					],
					"stateMutability": "view",
					"type": "function"
				},
				{
					"inputs": [],
					"name": "totalVotes",
					"outputs": [
						{
							"internalType": "uint256",
							"name": "",
							"type": "uint256"
						}
					],
					"stateMutability": "view",
					"type": "function"
				},
				{
					"inputs": [
						{
							"internalType": "address",
							"name": "",
							"type": "address"
						}
					],
					"name": "voterRegistry",
					"outputs": [
						{
							"internalType": "bool",
							"name": "isEnrolled",
							"type": "bool"
						},
						{
							"internalType": "bool",
							"name": "hasVoted",
							"type": "bool"
						},
						{
							"internalType": "uint256",
							"name": "choice",
							"type": "uint256"
						},
						{
							"internalType": "uint256",
							"name": "enrolledPollingStationID",
							"type": "uint256"
						},
						{
							"internalType": "uint256",
							"name": "votedPollingStationID",
							"type": "uint256"
						}
					],
					"stateMutability": "view",
					"type": "function"
				},
				{
					"inputs": [
						{
							"internalType": "address",
							"name": "",
							"type": "address"
						}
					],
					"name": "voters",
					"outputs": [
						{
							"internalType": "bool",
							"name": "",
							"type": "bool"
						}
					],
					"stateMutability": "view",
					"type": "function"
				}
			],
			"devdoc": {
				"kind": "dev",
				"methods": {
					"addVoter(address,uint256)": {
						"details": "Adds a voter to the voter registry. May only be called by 'owner'.",
						"params": {
							"_pollingStationID": "polling station ID in which voter is registered.",
							"_voterAddress": "address of voter"
						}
					}
				},
				"version": 1
			},
			"evm": {
				"assembly": "    /* \"contracts/ergasia.sol\":70:7014  contract Election {... */\n  mstore(0x40, 0x80)\n    /* \"contracts/ergasia.sol\":1435:1436  0 */\n  0x00\n    /* \"contracts/ergasia.sol\":1408:1436  uint private countResult = 0 */\n  0x04\n  sstore\n    /* \"contracts/ergasia.sol\":1516:1517  0 */\n  0x00\n    /* \"contracts/ergasia.sol\":1490:1517  uint public finalResult = 0 */\n  0x05\n  sstore\n    /* \"contracts/ergasia.sol\":1596:1597  0 */\n  0x00\n    /* \"contracts/ergasia.sol\":1571:1597  uint public totalVotes = 0 */\n  0x06\n  sstore\n    /* \"contracts/ergasia.sol\":2115:2382  constructor() {... */\n  callvalue\n  dup1\n  iszero\n  tag_1\n  jumpi\n  0x00\n  dup1\n  revert\ntag_1:\n  pop\n    /* \"contracts/ergasia.sol\":2155:2165  msg.sender */\n  caller\n    /* \"contracts/ergasia.sol\":2139:2152  electionOwner */\n  0x00\n  dup1\n    /* \"contracts/ergasia.sol\":2139:2165  electionOwner = msg.sender */\n  0x0100\n  exp\n  dup2\n  sload\n  dup2\n  0xffffffffffffffffffffffffffffffffffffffff\n  mul\n  not\n  and\n  swap1\n  dup4\n  0xffffffffffffffffffffffffffffffffffffffff\n  and\n  mul\n  or\n  swap1\n  sstore\n  pop\n    /* \"contracts/ergasia.sol\":2214:2230  initCandidates() */\n  tag_4\n    /* \"contracts/ergasia.sol\":2214:2228  initCandidates */\n  shl(0x20, tag_5)\n    /* \"contracts/ergasia.sol\":2214:2230  initCandidates() */\n  0x20\n  shr\n  jump\t// in\ntag_4:\n    /* \"contracts/ergasia.sol\":2285:2306  initPollingStations() */\n  tag_6\n    /* \"contracts/ergasia.sol\":2285:2304  initPollingStations */\n  shl(0x20, tag_7)\n    /* \"contracts/ergasia.sol\":2285:2306  initPollingStations() */\n  0x20\n  shr\n  jump\t// in\ntag_6:\n    /* \"contracts/ergasia.sol\":2360:2373  State.Created */\n  0x00\n    /* \"contracts/ergasia.sol\":2352:2357  state */\n  0x0b\n  0x00\n    /* \"contracts/ergasia.sol\":2352:2373  state = State.Created */\n  0x0100\n  exp\n  dup2\n  sload\n  dup2\n  0xff\n  mul\n  not\n  and\n  swap1\n  dup4\n  0x02\n  dup2\n  gt\n  iszero\n  tag_8\n  jumpi\n  tag_9\n  tag_10\n  jump\t// in\ntag_9:\ntag_8:\n  mul\n  or\n  swap1\n  sstore\n  pop\n    /* \"contracts/ergasia.sol\":70:7014  contract Election {... */\n  jump(tag_11)\n    /* \"contracts/ergasia.sol\":2441:2668  function initCandidates() internal {... */\ntag_5:\n    /* \"contracts/ergasia.sol\":2486:2513  addCandidate(\"Candidate 1\") */\n  tag_13\n  mload(0x40)\n  dup1\n  0x40\n  add\n  0x40\n  mstore\n  dup1\n  0x0b\n  dup2\n  mstore\n  0x20\n  add\n  0x43616e6469646174652031000000000000000000000000000000000000000000\n  dup2\n  mstore\n  pop\n    /* \"contracts/ergasia.sol\":2486:2498  addCandidate */\n  shl(0x20, tag_14)\n    /* \"contracts/ergasia.sol\":2486:2513  addCandidate(\"Candidate 1\") */\n  0x20\n  shr\n  jump\t// in\ntag_13:\n    /* \"contracts/ergasia.sol\":2523:2550  addCandidate(\"Candidate 2\") */\n  tag_15\n  mload(0x40)\n  dup1\n  0x40\n  add\n  0x40\n  mstore\n  dup1\n  0x0b\n  dup2\n  mstore\n  0x20\n  add\n  0x43616e6469646174652032000000000000000000000000000000000000000000\n  dup2\n  mstore\n  pop\n    /* \"contracts/ergasia.sol\":2523:2535  addCandidate */\n  shl(0x20, tag_14)\n    /* \"contracts/ergasia.sol\":2523:2550  addCandidate(\"Candidate 2\") */\n  0x20\n  shr\n  jump\t// in\ntag_15:\n    /* \"contracts/ergasia.sol\":2560:2587  addCandidate(\"Candidate 3\") */\n  tag_16\n  mload(0x40)\n  dup1\n  0x40\n  add\n  0x40\n  mstore\n  dup1\n  0x0b\n  dup2\n  mstore\n  0x20\n  add\n  0x43616e6469646174652033000000000000000000000000000000000000000000\n  dup2\n  mstore\n  pop\n    /* \"contracts/ergasia.sol\":2560:2572  addCandidate */\n  shl(0x20, tag_14)\n    /* \"contracts/ergasia.sol\":2560:2587  addCandidate(\"Candidate 3\") */\n  0x20\n  shr\n  jump\t// in\ntag_16:\n    /* \"contracts/ergasia.sol\":2597:2624  addCandidate(\"Candidate 4\") */\n  tag_17\n  mload(0x40)\n  dup1\n  0x40\n  add\n  0x40\n  mstore\n  dup1\n  0x0b\n  dup2\n  mstore\n  0x20\n  add\n  0x43616e6469646174652034000000000000000000000000000000000000000000\n  dup2\n  mstore\n  pop\n    /* \"contracts/ergasia.sol\":2597:2609  addCandidate */\n  shl(0x20, tag_14)\n    /* \"contracts/ergasia.sol\":2597:2624  addCandidate(\"Candidate 4\") */\n  0x20\n  shr\n  jump\t// in\ntag_17:\n    /* \"contracts/ergasia.sol\":2634:2661  addCandidate(\"Candidate 5\") */\n  tag_18\n  mload(0x40)\n  dup1\n  0x40\n  add\n  0x40\n  mstore\n  dup1\n  0x0b\n  dup2\n  mstore\n  0x20\n  add\n  0x43616e6469646174652035000000000000000000000000000000000000000000\n  dup2\n  mstore\n  pop\n    /* \"contracts/ergasia.sol\":2634:2646  addCandidate */\n  shl(0x20, tag_14)\n    /* \"contracts/ergasia.sol\":2634:2661  addCandidate(\"Candidate 5\") */\n  0x20\n  shr\n  jump\t// in\ntag_18:\n    /* \"contracts/ergasia.sol\":2441:2668  function initCandidates() internal {... */\n  jump\t// out\n    /* \"contracts/ergasia.sol\":3011:3539  function initPollingStations() internal {... */\ntag_7:\n    /* \"contracts/ergasia.sol\":3061:3099  addPollingStation(\"Polling Station 1\") */\n  tag_20\n  mload(0x40)\n  dup1\n  0x40\n  add\n  0x40\n  mstore\n  dup1\n  0x11\n  dup2\n  mstore\n  0x20\n  add\n  0x506f6c6c696e672053746174696f6e2031000000000000000000000000000000\n  dup2\n  mstore\n  pop\n    /* \"contracts/ergasia.sol\":3061:3078  addPollingStation */\n  shl(0x20, tag_21)\n    /* \"contracts/ergasia.sol\":3061:3099  addPollingStation(\"Polling Station 1\") */\n  0x20\n  shr\n  jump\t// in\ntag_20:\n    /* \"contracts/ergasia.sol\":3109:3147  addPollingStation(\"Polling Station 2\") */\n  tag_22\n  mload(0x40)\n  dup1\n  0x40\n  add\n  0x40\n  mstore\n  dup1\n  0x11\n  dup2\n  mstore\n  0x20\n  add\n  0x506f6c6c696e672053746174696f6e2032000000000000000000000000000000\n  dup2\n  mstore\n  pop\n    /* \"contracts/ergasia.sol\":3109:3126  addPollingStation */\n  shl(0x20, tag_21)\n    /* \"contracts/ergasia.sol\":3109:3147  addPollingStation(\"Polling Station 2\") */\n  0x20\n  shr\n  jump\t// in\ntag_22:\n    /* \"contracts/ergasia.sol\":3157:3195  addPollingStation(\"Polling Station 3\") */\n  tag_23\n  mload(0x40)\n  dup1\n  0x40\n  add\n  0x40\n  mstore\n  dup1\n  0x11\n  dup2\n  mstore\n  0x20\n  add\n  0x506f6c6c696e672053746174696f6e2033000000000000000000000000000000\n  dup2\n  mstore\n  pop\n    /* \"contracts/ergasia.sol\":3157:3174  addPollingStation */\n  shl(0x20, tag_21)\n    /* \"contracts/ergasia.sol\":3157:3195  addPollingStation(\"Polling Station 3\") */\n  0x20\n  shr\n  jump\t// in\ntag_23:\n    /* \"contracts/ergasia.sol\":3205:3243  addPollingStation(\"Polling Station 4\") */\n  tag_24\n  mload(0x40)\n  dup1\n  0x40\n  add\n  0x40\n  mstore\n  dup1\n  0x11\n  dup2\n  mstore\n  0x20\n  add\n  0x506f6c6c696e672053746174696f6e2034000000000000000000000000000000\n  dup2\n  mstore\n  pop\n    /* \"contracts/ergasia.sol\":3205:3222  addPollingStation */\n  shl(0x20, tag_21)\n    /* \"contracts/ergasia.sol\":3205:3243  addPollingStation(\"Polling Station 4\") */\n  0x20\n  shr\n  jump\t// in\ntag_24:\n    /* \"contracts/ergasia.sol\":3253:3291  addPollingStation(\"Polling Station 5\") */\n  tag_25\n  mload(0x40)\n  dup1\n  0x40\n  add\n  0x40\n  mstore\n  dup1\n  0x11\n  dup2\n  mstore\n  0x20\n  add\n  0x506f6c6c696e672053746174696f6e2035000000000000000000000000000000\n  dup2\n  mstore\n  pop\n    /* \"contracts/ergasia.sol\":3253:3270  addPollingStation */\n  shl(0x20, tag_21)\n    /* \"contracts/ergasia.sol\":3253:3291  addPollingStation(\"Polling Station 5\") */\n  0x20\n  shr\n  jump\t// in\ntag_25:\n    /* \"contracts/ergasia.sol\":3301:3339  addPollingStation(\"Polling Station 6\") */\n  tag_26\n  mload(0x40)\n  dup1\n  0x40\n  add\n  0x40\n  mstore\n  dup1\n  0x11\n  dup2\n  mstore\n  0x20\n  add\n  0x506f6c6c696e672053746174696f6e2036000000000000000000000000000000\n  dup2\n  mstore\n  pop\n    /* \"contracts/ergasia.sol\":3301:3318  addPollingStation */\n  shl(0x20, tag_21)\n    /* \"contracts/ergasia.sol\":3301:3339  addPollingStation(\"Polling Station 6\") */\n  0x20\n  shr\n  jump\t// in\ntag_26:\n    /* \"contracts/ergasia.sol\":3349:3387  addPollingStation(\"Polling Station 7\") */\n  tag_27\n  mload(0x40)\n  dup1\n  0x40\n  add\n  0x40\n  mstore\n  dup1\n  0x11\n  dup2\n  mstore\n  0x20\n  add\n  0x506f6c6c696e672053746174696f6e2037000000000000000000000000000000\n  dup2\n  mstore\n  pop\n    /* \"contracts/ergasia.sol\":3349:3366  addPollingStation */\n  shl(0x20, tag_21)\n    /* \"contracts/ergasia.sol\":3349:3387  addPollingStation(\"Polling Station 7\") */\n  0x20\n  shr\n  jump\t// in\ntag_27:\n    /* \"contracts/ergasia.sol\":3397:3435  addPollingStation(\"Polling Station 8\") */\n  tag_28\n  mload(0x40)\n  dup1\n  0x40\n  add\n  0x40\n  mstore\n  dup1\n  0x11\n  dup2\n  mstore\n  0x20\n  add\n  0x506f6c6c696e672053746174696f6e2038000000000000000000000000000000\n  dup2\n  mstore\n  pop\n    /* \"contracts/ergasia.sol\":3397:3414  addPollingStation */\n  shl(0x20, tag_21)\n    /* \"contracts/ergasia.sol\":3397:3435  addPollingStation(\"Polling Station 8\") */\n  0x20\n  shr\n  jump\t// in\ntag_28:\n    /* \"contracts/ergasia.sol\":3445:3483  addPollingStation(\"Polling Station 9\") */\n  tag_29\n  mload(0x40)\n  dup1\n  0x40\n  add\n  0x40\n  mstore\n  dup1\n  0x11\n  dup2\n  mstore\n  0x20\n  add\n  0x506f6c6c696e672053746174696f6e2039000000000000000000000000000000\n  dup2\n  mstore\n  pop\n    /* \"contracts/ergasia.sol\":3445:3462  addPollingStation */\n  shl(0x20, tag_21)\n    /* \"contracts/ergasia.sol\":3445:3483  addPollingStation(\"Polling Station 9\") */\n  0x20\n  shr\n  jump\t// in\ntag_29:\n    /* \"contracts/ergasia.sol\":3493:3532  addPollingStation(\"Polling Station 10\") */\n  tag_30\n  mload(0x40)\n  dup1\n  0x40\n  add\n  0x40\n  mstore\n  dup1\n  0x12\n  dup2\n  mstore\n  0x20\n  add\n  0x506f6c6c696e672053746174696f6e2031300000000000000000000000000000\n  dup2\n  mstore\n  pop\n    /* \"contracts/ergasia.sol\":3493:3510  addPollingStation */\n  shl(0x20, tag_21)\n    /* \"contracts/ergasia.sol\":3493:3532  addPollingStation(\"Polling Station 10\") */\n  0x20\n  shr\n  jump\t// in\ntag_30:\n    /* \"contracts/ergasia.sol\":3011:3539  function initPollingStations() internal {... */\n  jump\t// out\n    /* \"contracts/ergasia.sol\":2788:2950  function addCandidate (string memory _name) private {... */\ntag_14:\n    /* \"contracts/ergasia.sol\":2850:2865  candidatesCount */\n  0x01\n  0x00\n    /* \"contracts/ergasia.sol\":2850:2867  candidatesCount++ */\n  dup2\n  sload\n  dup1\n  swap3\n  swap2\n  swap1\n  tag_32\n  swap1\n  tag_33\n  jump\t// in\ntag_32:\n  swap2\n  swap1\n  pop\n  sstore\n  pop\n    /* \"contracts/ergasia.sol\":2907:2943  Candidate(candidatesCount, _name, 0) */\n  mload(0x40)\n  dup1\n  0x60\n  add\n  0x40\n  mstore\n  dup1\n    /* \"contracts/ergasia.sol\":2917:2932  candidatesCount */\n  sload(0x01)\n    /* \"contracts/ergasia.sol\":2907:2943  Candidate(candidatesCount, _name, 0) */\n  dup2\n  mstore\n  0x20\n  add\n    /* \"contracts/ergasia.sol\":2934:2939  _name */\n  dup3\n    /* \"contracts/ergasia.sol\":2907:2943  Candidate(candidatesCount, _name, 0) */\n  dup2\n  mstore\n  0x20\n  add\n    /* \"contracts/ergasia.sol\":2941:2942  0 */\n  0x00\n    /* \"contracts/ergasia.sol\":2907:2943  Candidate(candidatesCount, _name, 0) */\n  dup2\n  mstore\n  pop\n    /* \"contracts/ergasia.sol\":2877:2887  candidates */\n  0x07\n    /* \"contracts/ergasia.sol\":2877:2904  candidates[candidatesCount] */\n  0x00\n    /* \"contracts/ergasia.sol\":2888:2903  candidatesCount */\n  sload(0x01)\n    /* \"contracts/ergasia.sol\":2877:2904  candidates[candidatesCount] */\n  dup2\n  mstore\n  0x20\n  add\n  swap1\n  dup2\n  mstore\n  0x20\n  add\n  0x00\n  keccak256\n    /* \"contracts/ergasia.sol\":2877:2943  candidates[candidatesCount] = Candidate(candidatesCount, _name, 0) */\n  0x00\n  dup3\n  add\n  mload\n  dup2\n  0x00\n  add\n  sstore\n  0x20\n  dup3\n  add\n  mload\n  dup2\n  0x01\n  add\n  swap1\n  dup1\n  mload\n  swap1\n  0x20\n  add\n  swap1\n  tag_34\n  swap3\n  swap2\n  swap1\n  tag_35\n  jump\t// in\ntag_34:\n  pop\n  0x40\n  dup3\n  add\n  mload\n  dup2\n  0x02\n  add\n  sstore\n  swap1\n  pop\n  pop\n    /* \"contracts/ergasia.sol\":2788:2950  function addCandidate (string memory _name) private {... */\n  pop\n  jump\t// out\n    /* \"contracts/ergasia.sol\":3662:3854  function addPollingStation (string memory _name) private {... */\ntag_21:\n    /* \"contracts/ergasia.sol\":3729:3748  pollingStationCount */\n  0x02\n  0x00\n    /* \"contracts/ergasia.sol\":3729:3750  pollingStationCount++ */\n  dup2\n  sload\n  dup1\n  swap3\n  swap2\n  swap1\n  tag_37\n  swap1\n  tag_33\n  jump\t// in\ntag_37:\n  swap2\n  swap1\n  pop\n  sstore\n  pop\n    /* \"contracts/ergasia.sol\":3799:3847  PollingStation(pollingStationCount, _name, 0, 0) */\n  mload(0x40)\n  dup1\n  0x80\n  add\n  0x40\n  mstore\n  dup1\n    /* \"contracts/ergasia.sol\":3814:3833  pollingStationCount */\n  sload(0x02)\n    /* \"contracts/ergasia.sol\":3799:3847  PollingStation(pollingStationCount, _name, 0, 0) */\n  dup2\n  mstore\n  0x20\n  add\n    /* \"contracts/ergasia.sol\":3835:3840  _name */\n  dup3\n    /* \"contracts/ergasia.sol\":3799:3847  PollingStation(pollingStationCount, _name, 0, 0) */\n  dup2\n  mstore\n  0x20\n  add\n    /* \"contracts/ergasia.sol\":3842:3843  0 */\n  0x00\n    /* \"contracts/ergasia.sol\":3799:3847  PollingStation(pollingStationCount, _name, 0, 0) */\n  dup2\n  mstore\n  0x20\n  add\n    /* \"contracts/ergasia.sol\":3845:3846  0 */\n  0x00\n    /* \"contracts/ergasia.sol\":3799:3847  PollingStation(pollingStationCount, _name, 0, 0) */\n  dup2\n  mstore\n  pop\n    /* \"contracts/ergasia.sol\":3760:3775  pollingStations */\n  0x08\n    /* \"contracts/ergasia.sol\":3760:3796  pollingStations[pollingStationCount] */\n  0x00\n    /* \"contracts/ergasia.sol\":3776:3795  pollingStationCount */\n  sload(0x02)\n    /* \"contracts/ergasia.sol\":3760:3796  pollingStations[pollingStationCount] */\n  dup2\n  mstore\n  0x20\n  add\n  swap1\n  dup2\n  mstore\n  0x20\n  add\n  0x00\n  keccak256\n    /* \"contracts/ergasia.sol\":3760:3847  pollingStations[pollingStationCount] = PollingStation(pollingStationCount, _name, 0, 0) */\n  0x00\n  dup3\n  add\n  mload\n  dup2\n  0x00\n  add\n  sstore\n  0x20\n  dup3\n  add\n  mload\n  dup2\n  0x01\n  add\n  swap1\n  dup1\n  mload\n  swap1\n  0x20\n  add\n  swap1\n  tag_38\n  swap3\n  swap2\n  swap1\n  tag_35\n  jump\t// in\ntag_38:\n  pop\n  0x40\n  dup3\n  add\n  mload\n  dup2\n  0x02\n  add\n  sstore\n  0x60\n  dup3\n  add\n  mload\n  dup2\n  0x03\n  add\n  sstore\n  swap1\n  pop\n  pop\n    /* \"contracts/ergasia.sol\":3662:3854  function addPollingStation (string memory _name) private {... */\n  pop\n  jump\t// out\n    /* \"contracts/ergasia.sol\":70:7014  contract Election {... */\ntag_35:\n  dup3\n  dup1\n  sload\n  tag_39\n  swap1\n  tag_40\n  jump\t// in\ntag_39:\n  swap1\n  0x00\n  mstore\n  keccak256(0x00, 0x20)\n  swap1\n  0x1f\n  add\n  0x20\n  swap1\n  div\n  dup2\n  add\n  swap3\n  dup3\n  tag_42\n  jumpi\n  0x00\n  dup6\n  sstore\n  jump(tag_41)\ntag_42:\n  dup3\n  0x1f\n  lt\n  tag_43\n  jumpi\n  dup1\n  mload\n  not(0xff)\n  and\n  dup4\n  dup1\n  add\n  or\n  dup6\n  sstore\n  jump(tag_41)\ntag_43:\n  dup3\n  dup1\n  add\n  0x01\n  add\n  dup6\n  sstore\n  dup3\n  iszero\n  tag_41\n  jumpi\n  swap2\n  dup3\n  add\ntag_44:\n  dup3\n  dup2\n  gt\n  iszero\n  tag_45\n  jumpi\n  dup3\n  mload\n  dup3\n  sstore\n  swap2\n  0x20\n  add\n  swap2\n  swap1\n  0x01\n  add\n  swap1\n  jump(tag_44)\ntag_45:\ntag_41:\n  pop\n  swap1\n  pop\n  tag_46\n  swap2\n  swap1\n  tag_47\n  jump\t// in\ntag_46:\n  pop\n  swap1\n  jump\t// out\ntag_47:\ntag_48:\n  dup1\n  dup3\n  gt\n  iszero\n  tag_49\n  jumpi\n  0x00\n  dup2\n  0x00\n  swap1\n  sstore\n  pop\n  0x01\n  add\n  jump(tag_48)\ntag_49:\n  pop\n  swap1\n  jump\t// out\n    /* \"#utility.yul\":7:84   */\ntag_51:\n    /* \"#utility.yul\":44:51   */\n  0x00\n    /* \"#utility.yul\":73:78   */\n  dup2\n    /* \"#utility.yul\":62:78   */\n  swap1\n  pop\n    /* \"#utility.yul\":7:84   */\n  swap2\n  swap1\n  pop\n  jump\t// out\n    /* \"#utility.yul\":90:410   */\ntag_40:\n    /* \"#utility.yul\":134:140   */\n  0x00\n    /* \"#utility.yul\":171:172   */\n  0x02\n    /* \"#utility.yul\":165:169   */\n  dup3\n    /* \"#utility.yul\":161:173   */\n  div\n    /* \"#utility.yul\":151:173   */\n  swap1\n  pop\n    /* \"#utility.yul\":218:219   */\n  0x01\n    /* \"#utility.yul\":212:216   */\n  dup3\n    /* \"#utility.yul\":208:220   */\n  and\n    /* \"#utility.yul\":239:257   */\n  dup1\n    /* \"#utility.yul\":229:310   */\n  tag_54\n  jumpi\n    /* \"#utility.yul\":295:299   */\n  0x7f\n    /* \"#utility.yul\":287:293   */\n  dup3\n    /* \"#utility.yul\":283:300   */\n  and\n    /* \"#utility.yul\":273:300   */\n  swap2\n  pop\n    /* \"#utility.yul\":229:310   */\ntag_54:\n    /* \"#utility.yul\":357:359   */\n  0x20\n    /* \"#utility.yul\":349:355   */\n  dup3\n    /* \"#utility.yul\":346:360   */\n  lt\n    /* \"#utility.yul\":326:344   */\n  dup2\n    /* \"#utility.yul\":323:361   */\n  eq\n    /* \"#utility.yul\":320:404   */\n  iszero\n  tag_55\n  jumpi\n    /* \"#utility.yul\":376:394   */\n  tag_56\n  tag_57\n  jump\t// in\ntag_56:\n    /* \"#utility.yul\":320:404   */\ntag_55:\n    /* \"#utility.yul\":141:410   */\n  pop\n    /* \"#utility.yul\":90:410   */\n  swap2\n  swap1\n  pop\n  jump\t// out\n    /* \"#utility.yul\":416:649   */\ntag_33:\n    /* \"#utility.yul\":455:458   */\n  0x00\n    /* \"#utility.yul\":478:502   */\n  tag_59\n    /* \"#utility.yul\":496:501   */\n  dup3\n    /* \"#utility.yul\":478:502   */\n  tag_51\n  jump\t// in\ntag_59:\n    /* \"#utility.yul\":469:502   */\n  swap2\n  pop\n    /* \"#utility.yul\":524:590   */\n  0xffffffffffffffffffffffffffffffffffffffffffffffffffffffffffffffff\n    /* \"#utility.yul\":517:522   */\n  dup3\n    /* \"#utility.yul\":514:591   */\n  eq\n    /* \"#utility.yul\":511:614   */\n  iszero\n  tag_60\n  jumpi\n    /* \"#utility.yul\":594:612   */\n  tag_61\n  tag_62\n  jump\t// in\ntag_61:\n    /* \"#utility.yul\":511:614   */\ntag_60:\n    /* \"#utility.yul\":641:642   */\n  0x01\n    /* \"#utility.yul\":634:639   */\n  dup3\n    /* \"#utility.yul\":630:643   */\n  add\n    /* \"#utility.yul\":623:643   */\n  swap1\n  pop\n    /* \"#utility.yul\":416:649   */\n  swap2\n  swap1\n  pop\n  jump\t// out\n    /* \"#utility.yul\":655:835   */\ntag_62:\n    /* \"#utility.yul\":703:780   */\n  0x4e487b7100000000000000000000000000000000000000000000000000000000\n    /* \"#utility.yul\":700:701   */\n  0x00\n    /* \"#utility.yul\":693:781   */\n  mstore\n    /* \"#utility.yul\":800:804   */\n  0x11\n    /* \"#utility.yul\":797:798   */\n  0x04\n    /* \"#utility.yul\":790:805   */\n  mstore\n    /* \"#utility.yul\":824:828   */\n  0x24\n    /* \"#utility.yul\":821:822   */\n  0x00\n    /* \"#utility.yul\":814:829   */\n  revert\n    /* \"#utility.yul\":841:1021   */\ntag_10:\n    /* \"#utility.yul\":889:966   */\n  0x4e487b7100000000000000000000000000000000000000000000000000000000\n    /* \"#utility.yul\":886:887   */\n  0x00\n    /* \"#utility.yul\":879:967   */\n  mstore\n    /* \"#utility.yul\":986:990   */\n  0x21\n    /* \"#utility.yul\":983:984   */\n  0x04\n    /* \"#utility.yul\":976:991   */\n  mstore\n    /* \"#utility.yul\":1010:1014   */\n  0x24\n    /* \"#utility.yul\":1007:1008   */\n  0x00\n    /* \"#utility.yul\":1000:1015   */\n  revert\n    /* \"#utility.yul\":1027:1207   */\ntag_57:\n    /* \"#utility.yul\":1075:1152   */\n  0x4e487b7100000000000000000000000000000000000000000000000000000000\n    /* \"#utility.yul\":1072:1073   */\n  0x00\n    /* \"#utility.yul\":1065:1153   */\n  mstore\n    /* \"#utility.yul\":1172:1176   */\n  0x22\n    /* \"#utility.yul\":1169:1170   */\n  0x04\n    /* \"#utility.yul\":1162:1177   */\n  mstore\n    /* \"#utility.yul\":1196:1200   */\n  0x24\n    /* \"#utility.yul\":1193:1194   */\n  0x00\n    /* \"#utility.yul\":1186:1201   */\n  revert\n    /* \"contracts/ergasia.sol\":70:7014  contract Election {... */\ntag_11:\n  dataSize(sub_0)\n  dup1\n  dataOffset(sub_0)\n  0x00\n  codecopy\n  0x00\n  return\nstop\n\nsub_0: assembly {\n        /* \"contracts/ergasia.sol\":70:7014  contract Election {... */\n      mstore(0x40, 0x80)\n      callvalue\n      dup1\n      iszero\n      tag_1\n      jumpi\n      0x00\n      dup1\n      revert\n    tag_1:\n      pop\n      jumpi(tag_2, lt(calldatasize, 0x04))\n      shr(0xe0, calldataload(0x00))\n      dup1\n      0xa3ec138d\n      gt\n      tag_17\n      jumpi\n      dup1\n      0xcab2d76e\n      gt\n      tag_18\n      jumpi\n      dup1\n      0xcab2d76e\n      eq\n      tag_13\n      jumpi\n      dup1\n      0xdf9f1a07\n      eq\n      tag_14\n      jumpi\n      dup1\n      0xf3a8286f\n      eq\n      tag_15\n      jumpi\n      dup1\n      0xfe2442d7\n      eq\n      tag_16\n      jumpi\n      jump(tag_2)\n    tag_18:\n      dup1\n      0xa3ec138d\n      eq\n      tag_10\n      jumpi\n      dup1\n      0xb9f05f2f\n      eq\n      tag_11\n      jumpi\n      dup1\n      0xc19d93fb\n      eq\n      tag_12\n      jumpi\n      jump(tag_2)\n    tag_17:\n      dup1\n      0x3477ee2e\n      gt\n      tag_19\n      jumpi\n      dup1\n      0x3477ee2e\n      eq\n      tag_6\n      jumpi\n      dup1\n      0x4763d4e7\n      eq\n      tag_7\n      jumpi\n      dup1\n      0x4c0a6af0\n      eq\n      tag_8\n      jumpi\n      dup1\n      0x53357ad0\n      eq\n      tag_9\n      jumpi\n      jump(tag_2)\n    tag_19:\n      dup1\n      0xaa7464\n      eq\n      tag_3\n      jumpi\n      dup1\n      0x0d15fd77\n      eq\n      tag_4\n      jumpi\n      dup1\n      0x2d35a8a2\n      eq\n      tag_5\n      jumpi\n    tag_2:\n      0x00\n      dup1\n      revert\n        /* \"contracts/ergasia.sol\":1369:1402  uint public totalRegisteredVoters */\n    tag_3:\n      tag_20\n      tag_21\n      jump\t// in\n    tag_20:\n      mload(0x40)\n      tag_22\n      swap2\n      swap1\n      tag_23\n      jump\t// in\n    tag_22:\n      mload(0x40)\n      dup1\n      swap2\n      sub\n      swap1\n      return\n        /* \"contracts/ergasia.sol\":1571:1597  uint public totalVotes = 0 */\n    tag_4:\n      tag_24\n      tag_25\n      jump\t// in\n    tag_24:\n      mload(0x40)\n      tag_26\n      swap2\n      swap1\n      tag_23\n      jump\t// in\n    tag_26:\n      mload(0x40)\n      dup1\n      swap2\n      sub\n      swap1\n      return\n        /* \"contracts/ergasia.sol\":1221:1248  uint public candidatesCount */\n    tag_5:\n      tag_27\n      tag_28\n      jump\t// in\n    tag_27:\n      mload(0x40)\n      tag_29\n      swap2\n      swap1\n      tag_23\n      jump\t// in\n    tag_29:\n      mload(0x40)\n      dup1\n      swap2\n      sub\n      swap1\n      return\n        /* \"contracts/ergasia.sol\":1613:1657  mapping(uint => Candidate) public candidates */\n    tag_6:\n      tag_30\n      0x04\n      dup1\n      calldatasize\n      sub\n      dup2\n      add\n      swap1\n      tag_31\n      swap2\n      swap1\n      tag_32\n      jump\t// in\n    tag_31:\n      tag_33\n      jump\t// in\n    tag_30:\n      mload(0x40)\n      tag_34\n      swap4\n      swap3\n      swap2\n      swap1\n      tag_35\n      jump\t// in\n    tag_34:\n      mload(0x40)\n      dup1\n      swap2\n      sub\n      swap1\n      return\n        /* \"contracts/ergasia.sol\":1771:1817  mapping(address => Voter) public voterRegistry */\n    tag_7:\n      tag_36\n      0x04\n      dup1\n      calldatasize\n      sub\n      dup2\n      add\n      swap1\n      tag_37\n      swap2\n      swap1\n      tag_38\n      jump\t// in\n    tag_37:\n      tag_39\n      jump\t// in\n    tag_36:\n      mload(0x40)\n      tag_40\n      swap6\n      swap5\n      swap4\n      swap3\n      swap2\n      swap1\n      tag_41\n      jump\t// in\n    tag_40:\n      mload(0x40)\n      dup1\n      swap2\n      sub\n      swap1\n      return\n        /* \"contracts/ergasia.sol\":5547:5641  function startVote() public inState(State.Created) Owner {... */\n    tag_8:\n      tag_42\n      tag_43\n      jump\t// in\n    tag_42:\n      stop\n        /* \"contracts/ergasia.sol\":1187:1215  address public electionOwner */\n    tag_9:\n      tag_44\n      tag_45\n      jump\t// in\n    tag_44:\n      mload(0x40)\n      tag_46\n      swap2\n      swap1\n      tag_47\n      jump\t// in\n    tag_46:\n      mload(0x40)\n      dup1\n      swap2\n      sub\n      swap1\n      return\n        /* \"contracts/ergasia.sol\":1823:1861  mapping(address => bool) public voters */\n    tag_10:\n      tag_48\n      0x04\n      dup1\n      calldatasize\n      sub\n      dup2\n      add\n      swap1\n      tag_49\n      swap2\n      swap1\n      tag_38\n      jump\t// in\n    tag_49:\n      tag_50\n      jump\t// in\n    tag_48:\n      mload(0x40)\n      tag_51\n      swap2\n      swap1\n      tag_52\n      jump\t// in\n    tag_51:\n      mload(0x40)\n      dup1\n      swap2\n      sub\n      swap1\n      return\n        /* \"contracts/ergasia.sol\":4078:4998  function addVoter(address _voterAddress, uint _pollingStationID) public inState(State.Created) Owner {... */\n    tag_11:\n      tag_53\n      0x04\n      dup1\n      calldatasize\n      sub\n      dup2\n      add\n      swap1\n      tag_54\n      swap2\n      swap1\n      tag_55\n      jump\t// in\n    tag_54:\n      tag_56\n      jump\t// in\n    tag_53:\n      stop\n        /* \"contracts/ergasia.sol\":1914:1932  State public state */\n    tag_12:\n      tag_57\n      tag_58\n      jump\t// in\n    tag_57:\n      mload(0x40)\n      tag_59\n      swap2\n      swap1\n      tag_60\n      jump\t// in\n    tag_59:\n      mload(0x40)\n      dup1\n      swap2\n      sub\n      swap1\n      return\n        /* \"contracts/ergasia.sol\":5647:6868  function castVote(address _voterAddress, uint _choice, uint _pollingStationID) public inState(State.Voting) returns (bool voted){... */\n    tag_13:\n      tag_61\n      0x04\n      dup1\n      calldatasize\n      sub\n      dup2\n      add\n      swap1\n      tag_62\n      swap2\n      swap1\n      tag_63\n      jump\t// in\n    tag_62:\n      tag_64\n      jump\t// in\n    tag_61:\n      mload(0x40)\n      tag_65\n      swap2\n      swap1\n      tag_52\n      jump\t// in\n    tag_65:\n      mload(0x40)\n      dup1\n      swap2\n      sub\n      swap1\n      return\n        /* \"contracts/ergasia.sol\":1292:1323  uint public pollingStationCount */\n    tag_14:\n      tag_66\n      tag_67\n      jump\t// in\n    tag_66:\n      mload(0x40)\n      tag_68\n      swap2\n      swap1\n      tag_23\n      jump\t// in\n    tag_68:\n      mload(0x40)\n      dup1\n      swap2\n      sub\n      swap1\n      return\n        /* \"contracts/ergasia.sol\":1490:1517  uint public finalResult = 0 */\n    tag_15:\n      tag_69\n      tag_70\n      jump\t// in\n    tag_69:\n      mload(0x40)\n      tag_71\n      swap2\n      swap1\n      tag_23\n      jump\t// in\n    tag_71:\n      mload(0x40)\n      dup1\n      swap2\n      sub\n      swap1\n      return\n        /* \"contracts/ergasia.sol\":1687:1741  mapping(uint => PollingStation) public pollingStations */\n    tag_16:\n      tag_72\n      0x04\n      dup1\n      calldatasize\n      sub\n      dup2\n      add\n      swap1\n      tag_73\n      swap2\n      swap1\n      tag_32\n      jump\t// in\n    tag_73:\n      tag_74\n      jump\t// in\n    tag_72:\n      mload(0x40)\n      tag_75\n      swap5\n      swap4\n      swap3\n      swap2\n      swap1\n      tag_76\n      jump\t// in\n    tag_75:\n      mload(0x40)\n      dup1\n      swap2\n      sub\n      swap1\n      return\n        /* \"contracts/ergasia.sol\":1369:1402  uint public totalRegisteredVoters */\n    tag_21:\n      sload(0x03)\n      dup2\n      jump\t// out\n        /* \"contracts/ergasia.sol\":1571:1597  uint public totalVotes = 0 */\n    tag_25:\n      sload(0x06)\n      dup2\n      jump\t// out\n        /* \"contracts/ergasia.sol\":1221:1248  uint public candidatesCount */\n    tag_28:\n      sload(0x01)\n      dup2\n      jump\t// out\n        /* \"contracts/ergasia.sol\":1613:1657  mapping(uint => Candidate) public candidates */\n    tag_33:\n      mstore(0x20, 0x07)\n      dup1\n      0x00\n      mstore\n      keccak256(0x00, 0x40)\n      0x00\n      swap2\n      pop\n      swap1\n      pop\n      dup1\n      0x00\n      add\n      sload\n      swap1\n      dup1\n      0x01\n      add\n      dup1\n      sload\n      tag_77\n      swap1\n      tag_78\n      jump\t// in\n    tag_77:\n      dup1\n      0x1f\n      add\n      0x20\n      dup1\n      swap2\n      div\n      mul\n      0x20\n      add\n      mload(0x40)\n      swap1\n      dup2\n      add\n      0x40\n      mstore\n      dup1\n      swap3\n      swap2\n      swap1\n      dup2\n      dup2\n      mstore\n      0x20\n      add\n      dup3\n      dup1\n      sload\n      tag_79\n      swap1\n      tag_78\n      jump\t// in\n    tag_79:\n      dup1\n      iszero\n      tag_80\n      jumpi\n      dup1\n      0x1f\n      lt\n      tag_81\n      jumpi\n      0x0100\n      dup1\n      dup4\n      sload\n      div\n      mul\n      dup4\n      mstore\n      swap2\n      0x20\n      add\n      swap2\n      jump(tag_80)\n    tag_81:\n      dup3\n      add\n      swap2\n      swap1\n      0x00\n      mstore\n      keccak256(0x00, 0x20)\n      swap1\n    tag_82:\n      dup2\n      sload\n      dup2\n      mstore\n      swap1\n      0x01\n      add\n      swap1\n      0x20\n      add\n      dup1\n      dup4\n      gt\n      tag_82\n      jumpi\n      dup3\n      swap1\n      sub\n      0x1f\n      and\n      dup3\n      add\n      swap2\n    tag_80:\n      pop\n      pop\n      pop\n      pop\n      pop\n      swap1\n      dup1\n      0x02\n      add\n      sload\n      swap1\n      pop\n      dup4\n      jump\t// out\n        /* \"contracts/ergasia.sol\":1771:1817  mapping(address => Voter) public voterRegistry */\n    tag_39:\n      mstore(0x20, 0x09)\n      dup1\n      0x00\n      mstore\n      keccak256(0x00, 0x40)\n      0x00\n      swap2\n      pop\n      swap1\n      pop\n      dup1\n      0x00\n      add\n      0x00\n      swap1\n      sload\n      swap1\n      0x0100\n      exp\n      swap1\n      div\n      0xff\n      and\n      swap1\n      dup1\n      0x00\n      add\n      0x01\n      swap1\n      sload\n      swap1\n      0x0100\n      exp\n      swap1\n      div\n      0xff\n      and\n      swap1\n      dup1\n      0x01\n      add\n      sload\n      swap1\n      dup1\n      0x02\n      add\n      sload\n      swap1\n      dup1\n      0x03\n      add\n      sload\n      swap1\n      pop\n      dup6\n      jump\t// out\n        /* \"contracts/ergasia.sol\":5547:5641  function startVote() public inState(State.Created) Owner {... */\n    tag_43:\n        /* \"contracts/ergasia.sol\":5583:5596  State.Created */\n      0x00\n        /* \"contracts/ergasia.sol\":2084:2090  _state */\n      dup1\n        /* \"contracts/ergasia.sol\":2075:2090  state == _state */\n      0x02\n      dup2\n      gt\n      iszero\n      tag_84\n      jumpi\n      tag_85\n      tag_86\n      jump\t// in\n    tag_85:\n    tag_84:\n        /* \"contracts/ergasia.sol\":2075:2080  state */\n      0x0b\n      0x00\n      swap1\n      sload\n      swap1\n      0x0100\n      exp\n      swap1\n      div\n      0xff\n      and\n        /* \"contracts/ergasia.sol\":2075:2090  state == _state */\n      0x02\n      dup2\n      gt\n      iszero\n      tag_87\n      jumpi\n      tag_88\n      tag_86\n      jump\t// in\n    tag_88:\n    tag_87:\n      eq\n        /* \"contracts/ergasia.sol\":2067:2091  require(state == _state) */\n      tag_89\n      jumpi\n      0x00\n      dup1\n      revert\n    tag_89:\n        /* \"contracts/ergasia.sol\":1988:2001  electionOwner */\n      0x00\n      dup1\n      sload\n      swap1\n      0x0100\n      exp\n      swap1\n      div\n      0xffffffffffffffffffffffffffffffffffffffff\n      and\n        /* \"contracts/ergasia.sol\":1974:2001  msg.sender == electionOwner */\n      0xffffffffffffffffffffffffffffffffffffffff\n      and\n        /* \"contracts/ergasia.sol\":1974:1984  msg.sender */\n      caller\n        /* \"contracts/ergasia.sol\":1974:2001  msg.sender == electionOwner */\n      0xffffffffffffffffffffffffffffffffffffffff\n      and\n      eq\n        /* \"contracts/ergasia.sol\":1966:2002  require(msg.sender == electionOwner) */\n      tag_91\n      jumpi\n      0x00\n      dup1\n      revert\n    tag_91:\n        /* \"contracts/ergasia.sol\":5622:5634  State.Voting */\n      0x01\n        /* \"contracts/ergasia.sol\":5614:5619  state */\n      0x0b\n      0x00\n        /* \"contracts/ergasia.sol\":5614:5634  state = State.Voting */\n      0x0100\n      exp\n      dup2\n      sload\n      dup2\n      0xff\n      mul\n      not\n      and\n      swap1\n      dup4\n      0x02\n      dup2\n      gt\n      iszero\n      tag_93\n      jumpi\n      tag_94\n      tag_86\n      jump\t// in\n    tag_94:\n    tag_93:\n      mul\n      or\n      swap1\n      sstore\n      pop\n        /* \"contracts/ergasia.sol\":5547:5641  function startVote() public inState(State.Created) Owner {... */\n      pop\n      jump\t// out\n        /* \"contracts/ergasia.sol\":1187:1215  address public electionOwner */\n    tag_45:\n      0x00\n      dup1\n      sload\n      swap1\n      0x0100\n      exp\n      swap1\n      div\n      0xffffffffffffffffffffffffffffffffffffffff\n      and\n      dup2\n      jump\t// out\n        /* \"contracts/ergasia.sol\":1823:1861  mapping(address => bool) public voters */\n    tag_50:\n      mstore(0x20, 0x0a)\n      dup1\n      0x00\n      mstore\n      keccak256(0x00, 0x40)\n      0x00\n      swap2\n      pop\n      sload\n      swap1\n      0x0100\n      exp\n      swap1\n      div\n      0xff\n      and\n      dup2\n      jump\t// out\n        /* \"contracts/ergasia.sol\":4078:4998  function addVoter(address _voterAddress, uint _pollingStationID) public inState(State.Created) Owner {... */\n    tag_56:\n        /* \"contracts/ergasia.sol\":4158:4171  State.Created */\n      0x00\n        /* \"contracts/ergasia.sol\":2084:2090  _state */\n      dup1\n        /* \"contracts/ergasia.sol\":2075:2090  state == _state */\n      0x02\n      dup2\n      gt\n      iszero\n      tag_96\n      jumpi\n      tag_97\n      tag_86\n      jump\t// in\n    tag_97:\n    tag_96:\n        /* \"contracts/ergasia.sol\":2075:2080  state */\n      0x0b\n      0x00\n      swap1\n      sload\n      swap1\n      0x0100\n      exp\n      swap1\n      div\n      0xff\n      and\n        /* \"contracts/ergasia.sol\":2075:2090  state == _state */\n      0x02\n      dup2\n      gt\n      iszero\n      tag_98\n      jumpi\n      tag_99\n      tag_86\n      jump\t// in\n    tag_99:\n    tag_98:\n      eq\n        /* \"contracts/ergasia.sol\":2067:2091  require(state == _state) */\n      tag_100\n      jumpi\n      0x00\n      dup1\n      revert\n    tag_100:\n        /* \"contracts/ergasia.sol\":1988:2001  electionOwner */\n      0x00\n      dup1\n      sload\n      swap1\n      0x0100\n      exp\n      swap1\n      div\n      0xffffffffffffffffffffffffffffffffffffffff\n      and\n        /* \"contracts/ergasia.sol\":1974:2001  msg.sender == electionOwner */\n      0xffffffffffffffffffffffffffffffffffffffff\n      and\n        /* \"contracts/ergasia.sol\":1974:1984  msg.sender */\n      caller\n        /* \"contracts/ergasia.sol\":1974:2001  msg.sender == electionOwner */\n      0xffffffffffffffffffffffffffffffffffffffff\n      and\n      eq\n        /* \"contracts/ergasia.sol\":1966:2002  require(msg.sender == electionOwner) */\n      tag_102\n      jumpi\n      0x00\n      dup1\n      revert\n    tag_102:\n        /* \"contracts/ergasia.sol\":4297:4302  false */\n      0x00\n        /* \"contracts/ergasia.sol\":4254:4302  voterRegistry[_voterAddress].isEnrolled == false */\n      iszero\n      iszero\n        /* \"contracts/ergasia.sol\":4254:4267  voterRegistry */\n      0x09\n        /* \"contracts/ergasia.sol\":4254:4282  voterRegistry[_voterAddress] */\n      0x00\n        /* \"contracts/ergasia.sol\":4268:4281  _voterAddress */\n      dup6\n        /* \"contracts/ergasia.sol\":4254:4282  voterRegistry[_voterAddress] */\n      0xffffffffffffffffffffffffffffffffffffffff\n      and\n      0xffffffffffffffffffffffffffffffffffffffff\n      and\n      dup2\n      mstore\n      0x20\n      add\n      swap1\n      dup2\n      mstore\n      0x20\n      add\n      0x00\n      keccak256\n        /* \"contracts/ergasia.sol\":4254:4293  voterRegistry[_voterAddress].isEnrolled */\n      0x00\n      add\n      0x00\n      swap1\n      sload\n      swap1\n      0x0100\n      exp\n      swap1\n      div\n      0xff\n      and\n        /* \"contracts/ergasia.sol\":4254:4302  voterRegistry[_voterAddress].isEnrolled == false */\n      iszero\n      iszero\n      eq\n        /* \"contracts/ergasia.sol\":4246:4335  require(voterRegistry[_voterAddress].isEnrolled == false, \"Voter is already registered.\") */\n      tag_104\n      jumpi\n      mload(0x40)\n      0x08c379a000000000000000000000000000000000000000000000000000000000\n      dup2\n      mstore\n      0x04\n      add\n      tag_105\n      swap1\n      tag_106\n      jump\t// in\n    tag_105:\n      mload(0x40)\n      dup1\n      swap2\n      sub\n      swap1\n      revert\n    tag_104:\n        /* \"contracts/ergasia.sol\":4574:4575  1 */\n      0x01\n        /* \"contracts/ergasia.sol\":4554:4571  _pollingStationID */\n      dup3\n        /* \"contracts/ergasia.sol\":4554:4575  _pollingStationID >=1 */\n      lt\n      iszero\n        /* \"contracts/ergasia.sol\":4554:4619  _pollingStationID >=1 && _pollingStationID <= pollingStationCount */\n      dup1\n      iszero\n      tag_107\n      jumpi\n      pop\n        /* \"contracts/ergasia.sol\":4600:4619  pollingStationCount */\n      sload(0x02)\n        /* \"contracts/ergasia.sol\":4579:4596  _pollingStationID */\n      dup3\n        /* \"contracts/ergasia.sol\":4579:4619  _pollingStationID <= pollingStationCount */\n      gt\n      iszero\n        /* \"contracts/ergasia.sol\":4554:4619  _pollingStationID >=1 && _pollingStationID <= pollingStationCount */\n    tag_107:\n        /* \"contracts/ergasia.sol\":4546:4666  require(_pollingStationID >=1 && _pollingStationID <= pollingStationCount, \"Please provide a valid polling station ID.\") */\n      tag_108\n      jumpi\n      mload(0x40)\n      0x08c379a000000000000000000000000000000000000000000000000000000000\n      dup2\n      mstore\n      0x04\n      add\n      tag_109\n      swap1\n      tag_110\n      jump\t// in\n    tag_109:\n      mload(0x40)\n      dup1\n      swap2\n      sub\n      swap1\n      revert\n    tag_108:\n        /* \"contracts/ergasia.sol\":4677:4691  Voter memory v */\n      tag_111\n      tag_112\n      jump\t// in\n    tag_111:\n        /* \"contracts/ergasia.sol\":4716:4720  true */\n      0x01\n        /* \"contracts/ergasia.sol\":4701:4702  v */\n      dup2\n        /* \"contracts/ergasia.sol\":4701:4713  v.isEnrolled */\n      0x00\n      add\n        /* \"contracts/ergasia.sol\":4701:4720  v.isEnrolled = true */\n      swap1\n      iszero\n      iszero\n      swap1\n      dup2\n      iszero\n      iszero\n      dup2\n      mstore\n      pop\n      pop\n        /* \"contracts/ergasia.sol\":4743:4748  false */\n      0x00\n        /* \"contracts/ergasia.sol\":4730:4731  v */\n      dup2\n        /* \"contracts/ergasia.sol\":4730:4740  v.hasVoted */\n      0x20\n      add\n        /* \"contracts/ergasia.sol\":4730:4748  v.hasVoted = false */\n      swap1\n      iszero\n      iszero\n      swap1\n      dup2\n      iszero\n      iszero\n      dup2\n      mstore\n      pop\n      pop\n        /* \"contracts/ergasia.sol\":4769:4770  0 */\n      0x00\n        /* \"contracts/ergasia.sol\":4758:4759  v */\n      dup2\n        /* \"contracts/ergasia.sol\":4758:4766  v.choice */\n      0x40\n      add\n        /* \"contracts/ergasia.sol\":4758:4770  v.choice = 0 */\n      dup2\n      dup2\n      mstore\n      pop\n      pop\n        /* \"contracts/ergasia.sol\":4809:4826  _pollingStationID */\n      dup3\n        /* \"contracts/ergasia.sol\":4780:4781  v */\n      dup2\n        /* \"contracts/ergasia.sol\":4780:4806  v.enrolledPollingStationID */\n      0x60\n      add\n        /* \"contracts/ergasia.sol\":4780:4826  v.enrolledPollingStationID = _pollingStationID */\n      dup2\n      dup2\n      mstore\n      pop\n      pop\n        /* \"contracts/ergasia.sol\":4862:4863  0 */\n      0x00\n        /* \"contracts/ergasia.sol\":4836:4837  v */\n      dup2\n        /* \"contracts/ergasia.sol\":4836:4859  v.votedPollingStationID */\n      0x80\n      add\n        /* \"contracts/ergasia.sol\":4836:4863  v.votedPollingStationID = 0 */\n      dup2\n      dup2\n      mstore\n      pop\n      pop\n        /* \"contracts/ergasia.sol\":4904:4905  v */\n      dup1\n        /* \"contracts/ergasia.sol\":4873:4886  voterRegistry */\n      0x09\n        /* \"contracts/ergasia.sol\":4873:4901  voterRegistry[_voterAddress] */\n      0x00\n        /* \"contracts/ergasia.sol\":4887:4900  _voterAddress */\n      dup7\n        /* \"contracts/ergasia.sol\":4873:4901  voterRegistry[_voterAddress] */\n      0xffffffffffffffffffffffffffffffffffffffff\n      and\n      0xffffffffffffffffffffffffffffffffffffffff\n      and\n      dup2\n      mstore\n      0x20\n      add\n      swap1\n      dup2\n      mstore\n      0x20\n      add\n      0x00\n      keccak256\n        /* \"contracts/ergasia.sol\":4873:4905  voterRegistry[_voterAddress] = v */\n      0x00\n      dup3\n      add\n      mload\n      dup2\n      0x00\n      add\n      exp(0x0100, 0x00)\n      dup2\n      sload\n      dup2\n      0xff\n      mul\n      not\n      and\n      swap1\n      dup4\n      iszero\n      iszero\n      mul\n      or\n      swap1\n      sstore\n      pop\n      0x20\n      dup3\n      add\n      mload\n      dup2\n      0x00\n      add\n      exp(0x0100, 0x01)\n      dup2\n      sload\n      dup2\n      0xff\n      mul\n      not\n      and\n      swap1\n      dup4\n      iszero\n      iszero\n      mul\n      or\n      swap1\n      sstore\n      pop\n      0x40\n      dup3\n      add\n      mload\n      dup2\n      0x01\n      add\n      sstore\n      0x60\n      dup3\n      add\n      mload\n      dup2\n      0x02\n      add\n      sstore\n      0x80\n      dup3\n      add\n      mload\n      dup2\n      0x03\n      add\n      sstore\n      swap1\n      pop\n      pop\n        /* \"contracts/ergasia.sol\":4915:4958  registerAtPollingStation(_pollingStationID) */\n      tag_113\n        /* \"contracts/ergasia.sol\":4940:4957  _pollingStationID */\n      dup4\n        /* \"contracts/ergasia.sol\":4915:4939  registerAtPollingStation */\n      tag_114\n        /* \"contracts/ergasia.sol\":4915:4958  registerAtPollingStation(_pollingStationID) */\n      jump\t// in\n    tag_113:\n        /* \"contracts/ergasia.sol\":4968:4989  totalRegisteredVoters */\n      0x03\n      0x00\n        /* \"contracts/ergasia.sol\":4968:4991  totalRegisteredVoters++ */\n      dup2\n      sload\n      dup1\n      swap3\n      swap2\n      swap1\n      tag_115\n      swap1\n      tag_116\n      jump\t// in\n    tag_115:\n      swap2\n      swap1\n      pop\n      sstore\n      pop\n        /* \"contracts/ergasia.sol\":4179:4998  {... */\n      pop\n        /* \"contracts/ergasia.sol\":4078:4998  function addVoter(address _voterAddress, uint _pollingStationID) public inState(State.Created) Owner {... */\n      pop\n      pop\n      pop\n      jump\t// out\n        /* \"contracts/ergasia.sol\":1914:1932  State public state */\n    tag_58:\n      0x0b\n      0x00\n      swap1\n      sload\n      swap1\n      0x0100\n      exp\n      swap1\n      div\n      0xff\n      and\n      dup2\n      jump\t// out\n        /* \"contracts/ergasia.sol\":5647:6868  function castVote(address _voterAddress, uint _choice, uint _pollingStationID) public inState(State.Voting) returns (bool voted){... */\n    tag_64:\n        /* \"contracts/ergasia.sol\":5764:5774  bool voted */\n      0x00\n        /* \"contracts/ergasia.sol\":5741:5753  State.Voting */\n      0x01\n        /* \"contracts/ergasia.sol\":2084:2090  _state */\n      dup1\n        /* \"contracts/ergasia.sol\":2075:2090  state == _state */\n      0x02\n      dup2\n      gt\n      iszero\n      tag_118\n      jumpi\n      tag_119\n      tag_86\n      jump\t// in\n    tag_119:\n    tag_118:\n        /* \"contracts/ergasia.sol\":2075:2080  state */\n      0x0b\n      0x00\n      swap1\n      sload\n      swap1\n      0x0100\n      exp\n      swap1\n      div\n      0xff\n      and\n        /* \"contracts/ergasia.sol\":2075:2090  state == _state */\n      0x02\n      dup2\n      gt\n      iszero\n      tag_120\n      jumpi\n      tag_121\n      tag_86\n      jump\t// in\n    tag_121:\n    tag_120:\n      eq\n        /* \"contracts/ergasia.sol\":2067:2091  require(state == _state) */\n      tag_122\n      jumpi\n      0x00\n      dup1\n      revert\n    tag_122:\n        /* \"contracts/ergasia.sol\":5792:5802  bool found */\n      0x00\n        /* \"contracts/ergasia.sol\":5925:5938  voterRegistry */\n      0x09\n        /* \"contracts/ergasia.sol\":5925:5950  voterRegistry[msg.sender] */\n      0x00\n        /* \"contracts/ergasia.sol\":5939:5949  msg.sender */\n      caller\n        /* \"contracts/ergasia.sol\":5925:5950  voterRegistry[msg.sender] */\n      0xffffffffffffffffffffffffffffffffffffffff\n      and\n      0xffffffffffffffffffffffffffffffffffffffff\n      and\n      dup2\n      mstore\n      0x20\n      add\n      swap1\n      dup2\n      mstore\n      0x20\n      add\n      0x00\n      keccak256\n        /* \"contracts/ergasia.sol\":5925:5961  voterRegistry[msg.sender].isEnrolled */\n      0x00\n      add\n      0x00\n      swap1\n      sload\n      swap1\n      0x0100\n      exp\n      swap1\n      div\n      0xff\n      and\n        /* \"contracts/ergasia.sol\":5925:6000  voterRegistry[msg.sender].isEnrolled && !voterRegistry[msg.sender].hasVoted */\n      dup1\n      iszero\n      tag_124\n      jumpi\n      pop\n        /* \"contracts/ergasia.sol\":5966:5979  voterRegistry */\n      0x09\n        /* \"contracts/ergasia.sol\":5966:5991  voterRegistry[msg.sender] */\n      0x00\n        /* \"contracts/ergasia.sol\":5980:5990  msg.sender */\n      caller\n        /* \"contracts/ergasia.sol\":5966:5991  voterRegistry[msg.sender] */\n      0xffffffffffffffffffffffffffffffffffffffff\n      and\n      0xffffffffffffffffffffffffffffffffffffffff\n      and\n      dup2\n      mstore\n      0x20\n      add\n      swap1\n      dup2\n      mstore\n      0x20\n      add\n      0x00\n      keccak256\n        /* \"contracts/ergasia.sol\":5966:6000  voterRegistry[msg.sender].hasVoted */\n      0x00\n      add\n      0x01\n      swap1\n      sload\n      swap1\n      0x0100\n      exp\n      swap1\n      div\n      0xff\n      and\n        /* \"contracts/ergasia.sol\":5965:6000  !voterRegistry[msg.sender].hasVoted */\n      iszero\n        /* \"contracts/ergasia.sol\":5925:6000  voterRegistry[msg.sender].isEnrolled && !voterRegistry[msg.sender].hasVoted */\n    tag_124:\n        /* \"contracts/ergasia.sol\":5921:6364  if (voterRegistry[msg.sender].isEnrolled && !voterRegistry[msg.sender].hasVoted) {... */\n      iszero\n      tag_125\n      jumpi\n        /* \"contracts/ergasia.sol\":6052:6059  _choice */\n      dup5\n        /* \"contracts/ergasia.sol\":6017:6030  voterRegistry */\n      0x09\n        /* \"contracts/ergasia.sol\":6017:6042  voterRegistry[msg.sender] */\n      0x00\n        /* \"contracts/ergasia.sol\":6031:6041  msg.sender */\n      caller\n        /* \"contracts/ergasia.sol\":6017:6042  voterRegistry[msg.sender] */\n      0xffffffffffffffffffffffffffffffffffffffff\n      and\n      0xffffffffffffffffffffffffffffffffffffffff\n      and\n      dup2\n      mstore\n      0x20\n      add\n      swap1\n      dup2\n      mstore\n      0x20\n      add\n      0x00\n      keccak256\n        /* \"contracts/ergasia.sol\":6017:6049  voterRegistry[msg.sender].choice */\n      0x01\n      add\n        /* \"contracts/ergasia.sol\":6017:6059  voterRegistry[msg.sender].choice = _choice */\n      dup2\n      swap1\n      sstore\n      pop\n        /* \"contracts/ergasia.sol\":6123:6140  _pollingStationID */\n      dup4\n        /* \"contracts/ergasia.sol\":6073:6086  voterRegistry */\n      0x09\n        /* \"contracts/ergasia.sol\":6073:6098  voterRegistry[msg.sender] */\n      0x00\n        /* \"contracts/ergasia.sol\":6087:6097  msg.sender */\n      caller\n        /* \"contracts/ergasia.sol\":6073:6098  voterRegistry[msg.sender] */\n      0xffffffffffffffffffffffffffffffffffffffff\n      and\n      0xffffffffffffffffffffffffffffffffffffffff\n      and\n      dup2\n      mstore\n      0x20\n      add\n      swap1\n      dup2\n      mstore\n      0x20\n      add\n      0x00\n      keccak256\n        /* \"contracts/ergasia.sol\":6073:6120  voterRegistry[msg.sender].votedPollingStationID */\n      0x03\n      add\n        /* \"contracts/ergasia.sol\":6073:6140  voterRegistry[msg.sender].votedPollingStationID = _pollingStationID */\n      dup2\n      swap1\n      sstore\n      pop\n        /* \"contracts/ergasia.sol\":6191:6195  true */\n      0x01\n        /* \"contracts/ergasia.sol\":6154:6167  voterRegistry */\n      0x09\n        /* \"contracts/ergasia.sol\":6154:6179  voterRegistry[msg.sender] */\n      0x00\n        /* \"contracts/ergasia.sol\":6168:6178  msg.sender */\n      caller\n        /* \"contracts/ergasia.sol\":6154:6179  voterRegistry[msg.sender] */\n      0xffffffffffffffffffffffffffffffffffffffff\n      and\n      0xffffffffffffffffffffffffffffffffffffffff\n      and\n      dup2\n      mstore\n      0x20\n      add\n      swap1\n      dup2\n      mstore\n      0x20\n      add\n      0x00\n      keccak256\n        /* \"contracts/ergasia.sol\":6154:6188  voterRegistry[msg.sender].hasVoted */\n      0x00\n      add\n      0x01\n        /* \"contracts/ergasia.sol\":6154:6195  voterRegistry[msg.sender].hasVoted = true */\n      0x0100\n      exp\n      dup2\n      sload\n      dup2\n      0xff\n      mul\n      not\n      and\n      swap1\n      dup4\n      iszero\n      iszero\n      mul\n      or\n      swap1\n      sstore\n      pop\n        /* \"contracts/ergasia.sol\":6210:6225  pollingStations */\n      0x08\n        /* \"contracts/ergasia.sol\":6210:6244  pollingStations[_pollingStationID] */\n      0x00\n        /* \"contracts/ergasia.sol\":6226:6243  _pollingStationID */\n      dup6\n        /* \"contracts/ergasia.sol\":6210:6244  pollingStations[_pollingStationID] */\n      dup2\n      mstore\n      0x20\n      add\n      swap1\n      dup2\n      mstore\n      0x20\n      add\n      0x00\n      keccak256\n        /* \"contracts/ergasia.sol\":6210:6256  pollingStations[_pollingStationID].votesCasted */\n      0x03\n      add\n      0x00\n        /* \"contracts/ergasia.sol\":6210:6258  pollingStations[_pollingStationID].votesCasted++ */\n      dup2\n      sload\n      dup1\n      swap3\n      swap2\n      swap1\n      tag_126\n      swap1\n      tag_116\n      jump\t// in\n    tag_126:\n      swap2\n      swap1\n      pop\n      sstore\n      pop\n        /* \"contracts/ergasia.sol\":6273:6283  candidates */\n      0x07\n        /* \"contracts/ergasia.sol\":6273:6292  candidates[_choice] */\n      0x00\n        /* \"contracts/ergasia.sol\":6284:6291  _choice */\n      dup7\n        /* \"contracts/ergasia.sol\":6273:6292  candidates[_choice] */\n      dup2\n      mstore\n      0x20\n      add\n      swap1\n      dup2\n      mstore\n      0x20\n      add\n      0x00\n      keccak256\n        /* \"contracts/ergasia.sol\":6273:6298  candidates[_choice].votes */\n      0x02\n      add\n      0x00\n        /* \"contracts/ergasia.sol\":6273:6300  candidates[_choice].votes++ */\n      dup2\n      sload\n      dup1\n      swap3\n      swap2\n      swap1\n      tag_127\n      swap1\n      tag_116\n      jump\t// in\n    tag_127:\n      swap2\n      swap1\n      pop\n      sstore\n      pop\n        /* \"contracts/ergasia.sol\":6315:6325  totalVotes */\n      0x06\n      0x00\n        /* \"contracts/ergasia.sol\":6315:6327  totalVotes++ */\n      dup2\n      sload\n      dup1\n      swap3\n      swap2\n      swap1\n      tag_128\n      swap1\n      tag_116\n      jump\t// in\n    tag_128:\n      swap2\n      swap1\n      pop\n      sstore\n      pop\n        /* \"contracts/ergasia.sol\":6349:6353  true */\n      0x01\n        /* \"contracts/ergasia.sol\":6341:6353  found = true */\n      swap1\n      pop\n        /* \"contracts/ergasia.sol\":5921:6364  if (voterRegistry[msg.sender].isEnrolled && !voterRegistry[msg.sender].hasVoted) {... */\n    tag_125:\n        /* \"contracts/ergasia.sol\":6856:6861  found */\n      dup1\n        /* \"contracts/ergasia.sol\":6849:6861  return found */\n      swap3\n      pop\n      pop\n        /* \"contracts/ergasia.sol\":5647:6868  function castVote(address _voterAddress, uint _choice, uint _pollingStationID) public inState(State.Voting) returns (bool voted){... */\n      pop\n      swap4\n      swap3\n      pop\n      pop\n      pop\n      jump\t// out\n        /* \"contracts/ergasia.sol\":1292:1323  uint public pollingStationCount */\n    tag_67:\n      sload(0x02)\n      dup2\n      jump\t// out\n        /* \"contracts/ergasia.sol\":1490:1517  uint public finalResult = 0 */\n    tag_70:\n      sload(0x05)\n      dup2\n      jump\t// out\n        /* \"contracts/ergasia.sol\":1687:1741  mapping(uint => PollingStation) public pollingStations */\n    tag_74:\n      mstore(0x20, 0x08)\n      dup1\n      0x00\n      mstore\n      keccak256(0x00, 0x40)\n      0x00\n      swap2\n      pop\n      swap1\n      pop\n      dup1\n      0x00\n      add\n      sload\n      swap1\n      dup1\n      0x01\n      add\n      dup1\n      sload\n      tag_129\n      swap1\n      tag_78\n      jump\t// in\n    tag_129:\n      dup1\n      0x1f\n      add\n      0x20\n      dup1\n      swap2\n      div\n      mul\n      0x20\n      add\n      mload(0x40)\n      swap1\n      dup2\n      add\n      0x40\n      mstore\n      dup1\n      swap3\n      swap2\n      swap1\n      dup2\n      dup2\n      mstore\n      0x20\n      add\n      dup3\n      dup1\n      sload\n      tag_130\n      swap1\n      tag_78\n      jump\t// in\n    tag_130:\n      dup1\n      iszero\n      tag_131\n      jumpi\n      dup1\n      0x1f\n      lt\n      tag_132\n      jumpi\n      0x0100\n      dup1\n      dup4\n      sload\n      div\n      mul\n      dup4\n      mstore\n      swap2\n      0x20\n      add\n      swap2\n      jump(tag_131)\n    tag_132:\n      dup3\n      add\n      swap2\n      swap1\n      0x00\n      mstore\n      keccak256(0x00, 0x20)\n      swap1\n    tag_133:\n      dup2\n      sload\n      dup2\n      mstore\n      swap1\n      0x01\n      add\n      swap1\n      0x20\n      add\n      dup1\n      dup4\n      gt\n      tag_133\n      jumpi\n      dup3\n      swap1\n      sub\n      0x1f\n      and\n      dup3\n      add\n      swap2\n    tag_131:\n      pop\n      pop\n      pop\n      pop\n      pop\n      swap1\n      dup1\n      0x02\n      add\n      sload\n      swap1\n      dup1\n      0x03\n      add\n      sload\n      swap1\n      pop\n      dup5\n      jump\t// out\n        /* \"contracts/ergasia.sol\":5136:5418  function registerAtPollingStation(uint _stationID) internal {... */\n    tag_114:\n        /* \"contracts/ergasia.sol\":5211:5217  uint i */\n      0x00\n        /* \"contracts/ergasia.sol\":5220:5221  1 */\n      0x01\n        /* \"contracts/ergasia.sol\":5211:5221  uint i = 1 */\n      swap1\n      pop\n        /* \"contracts/ergasia.sol\":5206:5412  for (uint i = 1; i <= pollingStationCount; i++) {... */\n    tag_135:\n        /* \"contracts/ergasia.sol\":5228:5247  pollingStationCount */\n      sload(0x02)\n        /* \"contracts/ergasia.sol\":5223:5224  i */\n      dup2\n        /* \"contracts/ergasia.sol\":5223:5247  i <= pollingStationCount */\n      gt\n        /* \"contracts/ergasia.sol\":5206:5412  for (uint i = 1; i <= pollingStationCount; i++) {... */\n      tag_136\n      jumpi\n        /* \"contracts/ergasia.sol\":5297:5307  _stationID */\n      dup2\n        /* \"contracts/ergasia.sol\":5272:5287  pollingStations */\n      0x08\n        /* \"contracts/ergasia.sol\":5272:5290  pollingStations[i] */\n      0x00\n        /* \"contracts/ergasia.sol\":5288:5289  i */\n      dup4\n        /* \"contracts/ergasia.sol\":5272:5290  pollingStations[i] */\n      dup2\n      mstore\n      0x20\n      add\n      swap1\n      dup2\n      mstore\n      0x20\n      add\n      0x00\n      keccak256\n        /* \"contracts/ergasia.sol\":5272:5293  pollingStations[i].id */\n      0x00\n      add\n      sload\n        /* \"contracts/ergasia.sol\":5272:5307  pollingStations[i].id == _stationID */\n      eq\n        /* \"contracts/ergasia.sol\":5268:5402  if (pollingStations[i].id == _stationID) {... */\n      iszero\n      tag_138\n      jumpi\n        /* \"contracts/ergasia.sol\":5327:5342  pollingStations */\n      0x08\n        /* \"contracts/ergasia.sol\":5327:5345  pollingStations[i] */\n      0x00\n        /* \"contracts/ergasia.sol\":5343:5344  i */\n      dup3\n        /* \"contracts/ergasia.sol\":5327:5345  pollingStations[i] */\n      dup2\n      mstore\n      0x20\n      add\n      swap1\n      dup2\n      mstore\n      0x20\n      add\n      0x00\n      keccak256\n        /* \"contracts/ergasia.sol\":5327:5362  pollingStations[i].votersRegistered */\n      0x02\n      add\n      0x00\n        /* \"contracts/ergasia.sol\":5327:5364  pollingStations[i].votersRegistered++ */\n      dup2\n      sload\n      dup1\n      swap3\n      swap2\n      swap1\n      tag_139\n      swap1\n      tag_116\n      jump\t// in\n    tag_139:\n      swap2\n      swap1\n      pop\n      sstore\n      pop\n        /* \"contracts/ergasia.sol\":5382:5387  break */\n      jump(tag_136)\n        /* \"contracts/ergasia.sol\":5268:5402  if (pollingStations[i].id == _stationID) {... */\n    tag_138:\n        /* \"contracts/ergasia.sol\":5249:5252  i++ */\n      dup1\n      dup1\n      tag_140\n      swap1\n      tag_116\n      jump\t// in\n    tag_140:\n      swap2\n      pop\n      pop\n        /* \"contracts/ergasia.sol\":5206:5412  for (uint i = 1; i <= pollingStationCount; i++) {... */\n      jump(tag_135)\n    tag_136:\n      pop\n        /* \"contracts/ergasia.sol\":5136:5418  function registerAtPollingStation(uint _stationID) internal {... */\n      pop\n      jump\t// out\n    tag_112:\n      mload(0x40)\n      dup1\n      0xa0\n      add\n      0x40\n      mstore\n      dup1\n      iszero(iszero(0x00))\n      dup2\n      mstore\n      0x20\n      add\n      iszero(iszero(0x00))\n      dup2\n      mstore\n      0x20\n      add\n      0x00\n      dup2\n      mstore\n      0x20\n      add\n      0x00\n      dup2\n      mstore\n      0x20\n      add\n      0x00\n      dup2\n      mstore\n      pop\n      swap1\n      jump\t// out\n        /* \"#utility.yul\":7:146   */\n    tag_142:\n        /* \"#utility.yul\":53:58   */\n      0x00\n        /* \"#utility.yul\":91:97   */\n      dup2\n        /* \"#utility.yul\":78:98   */\n      calldataload\n        /* \"#utility.yul\":69:98   */\n      swap1\n      pop\n        /* \"#utility.yul\":107:140   */\n      tag_144\n        /* \"#utility.yul\":134:139   */\n      dup2\n        /* \"#utility.yul\":107:140   */\n      tag_145\n      jump\t// in\n    tag_144:\n        /* \"#utility.yul\":7:146   */\n      swap3\n      swap2\n      pop\n      pop\n      jump\t// out\n        /* \"#utility.yul\":152:291   */\n    tag_146:\n        /* \"#utility.yul\":198:203   */\n      0x00\n        /* \"#utility.yul\":236:242   */\n      dup2\n        /* \"#utility.yul\":223:243   */\n      calldataload\n        /* \"#utility.yul\":214:243   */\n      swap1\n      pop\n        /* \"#utility.yul\":252:285   */\n      tag_148\n        /* \"#utility.yul\":279:284   */\n      dup2\n        /* \"#utility.yul\":252:285   */\n      tag_149\n      jump\t// in\n    tag_148:\n        /* \"#utility.yul\":152:291   */\n      swap3\n      swap2\n      pop\n      pop\n      jump\t// out\n        /* \"#utility.yul\":297:626   */\n    tag_38:\n        /* \"#utility.yul\":356:362   */\n      0x00\n        /* \"#utility.yul\":405:407   */\n      0x20\n        /* \"#utility.yul\":393:402   */\n      dup3\n        /* \"#utility.yul\":384:391   */\n      dup5\n        /* \"#utility.yul\":380:403   */\n      sub\n        /* \"#utility.yul\":376:408   */\n      slt\n        /* \"#utility.yul\":373:492   */\n      iszero\n      tag_151\n      jumpi\n        /* \"#utility.yul\":411:490   */\n      tag_152\n      tag_153\n      jump\t// in\n    tag_152:\n        /* \"#utility.yul\":373:492   */\n    tag_151:\n        /* \"#utility.yul\":531:532   */\n      0x00\n        /* \"#utility.yul\":556:609   */\n      tag_154\n        /* \"#utility.yul\":601:608   */\n      dup5\n        /* \"#utility.yul\":592:598   */\n      dup3\n        /* \"#utility.yul\":581:590   */\n      dup6\n        /* \"#utility.yul\":577:599   */\n      add\n        /* \"#utility.yul\":556:609   */\n      tag_142\n      jump\t// in\n    tag_154:\n        /* \"#utility.yul\":546:609   */\n      swap2\n      pop\n        /* \"#utility.yul\":502:619   */\n      pop\n        /* \"#utility.yul\":297:626   */\n      swap3\n      swap2\n      pop\n      pop\n      jump\t// out\n        /* \"#utility.yul\":632:1106   */\n    tag_55:\n        /* \"#utility.yul\":700:706   */\n      0x00\n        /* \"#utility.yul\":708:714   */\n      dup1\n        /* \"#utility.yul\":757:759   */\n      0x40\n        /* \"#utility.yul\":745:754   */\n      dup4\n        /* \"#utility.yul\":736:743   */\n      dup6\n        /* \"#utility.yul\":732:755   */\n      sub\n        /* \"#utility.yul\":728:760   */\n      slt\n        /* \"#utility.yul\":725:844   */\n      iszero\n      tag_156\n      jumpi\n        /* \"#utility.yul\":763:842   */\n      tag_157\n      tag_153\n      jump\t// in\n    tag_157:\n        /* \"#utility.yul\":725:844   */\n    tag_156:\n        /* \"#utility.yul\":883:884   */\n      0x00\n        /* \"#utility.yul\":908:961   */\n      tag_158\n        /* \"#utility.yul\":953:960   */\n      dup6\n        /* \"#utility.yul\":944:950   */\n      dup3\n        /* \"#utility.yul\":933:942   */\n      dup7\n        /* \"#utility.yul\":929:951   */\n      add\n        /* \"#utility.yul\":908:961   */\n      tag_142\n      jump\t// in\n    tag_158:\n        /* \"#utility.yul\":898:961   */\n      swap3\n      pop\n        /* \"#utility.yul\":854:971   */\n      pop\n        /* \"#utility.yul\":1010:1012   */\n      0x20\n        /* \"#utility.yul\":1036:1089   */\n      tag_159\n        /* \"#utility.yul\":1081:1088   */\n      dup6\n        /* \"#utility.yul\":1072:1078   */\n      dup3\n        /* \"#utility.yul\":1061:1070   */\n      dup7\n        /* \"#utility.yul\":1057:1079   */\n      add\n        /* \"#utility.yul\":1036:1089   */\n      tag_146\n      jump\t// in\n    tag_159:\n        /* \"#utility.yul\":1026:1089   */\n      swap2\n      pop\n        /* \"#utility.yul\":981:1099   */\n      pop\n        /* \"#utility.yul\":632:1106   */\n      swap3\n      pop\n      swap3\n      swap1\n      pop\n      jump\t// out\n        /* \"#utility.yul\":1112:1731   */\n    tag_63:\n        /* \"#utility.yul\":1189:1195   */\n      0x00\n        /* \"#utility.yul\":1197:1203   */\n      dup1\n        /* \"#utility.yul\":1205:1211   */\n      0x00\n        /* \"#utility.yul\":1254:1256   */\n      0x60\n        /* \"#utility.yul\":1242:1251   */\n      dup5\n        /* \"#utility.yul\":1233:1240   */\n      dup7\n        /* \"#utility.yul\":1229:1252   */\n      sub\n        /* \"#utility.yul\":1225:1257   */\n      slt\n        /* \"#utility.yul\":1222:1341   */\n      iszero\n      tag_161\n      jumpi\n        /* \"#utility.yul\":1260:1339   */\n      tag_162\n      tag_153\n      jump\t// in\n    tag_162:\n        /* \"#utility.yul\":1222:1341   */\n    tag_161:\n        /* \"#utility.yul\":1380:1381   */\n      0x00\n        /* \"#utility.yul\":1405:1458   */\n      tag_163\n        /* \"#utility.yul\":1450:1457   */\n      dup7\n        /* \"#utility.yul\":1441:1447   */\n      dup3\n        /* \"#utility.yul\":1430:1439   */\n      dup8\n        /* \"#utility.yul\":1426:1448   */\n      add\n        /* \"#utility.yul\":1405:1458   */\n      tag_142\n      jump\t// in\n    tag_163:\n        /* \"#utility.yul\":1395:1458   */\n      swap4\n      pop\n        /* \"#utility.yul\":1351:1468   */\n      pop\n        /* \"#utility.yul\":1507:1509   */\n      0x20\n        /* \"#utility.yul\":1533:1586   */\n      tag_164\n        /* \"#utility.yul\":1578:1585   */\n      dup7\n        /* \"#utility.yul\":1569:1575   */\n      dup3\n        /* \"#utility.yul\":1558:1567   */\n      dup8\n        /* \"#utility.yul\":1554:1576   */\n      add\n        /* \"#utility.yul\":1533:1586   */\n      tag_146\n      jump\t// in\n    tag_164:\n        /* \"#utility.yul\":1523:1586   */\n      swap3\n      pop\n        /* \"#utility.yul\":1478:1596   */\n      pop\n        /* \"#utility.yul\":1635:1637   */\n      0x40\n        /* \"#utility.yul\":1661:1714   */\n      tag_165\n        /* \"#utility.yul\":1706:1713   */\n      dup7\n        /* \"#utility.yul\":1697:1703   */\n      dup3\n        /* \"#utility.yul\":1686:1695   */\n      dup8\n        /* \"#utility.yul\":1682:1704   */\n      add\n        /* \"#utility.yul\":1661:1714   */\n      tag_146\n      jump\t// in\n    tag_165:\n        /* \"#utility.yul\":1651:1714   */\n      swap2\n      pop\n        /* \"#utility.yul\":1606:1724   */\n      pop\n        /* \"#utility.yul\":1112:1731   */\n      swap3\n      pop\n      swap3\n      pop\n      swap3\n      jump\t// out\n        /* \"#utility.yul\":1737:2066   */\n    tag_32:\n        /* \"#utility.yul\":1796:1802   */\n      0x00\n        /* \"#utility.yul\":1845:1847   */\n      0x20\n        /* \"#utility.yul\":1833:1842   */\n      dup3\n        /* \"#utility.yul\":1824:1831   */\n      dup5\n        /* \"#utility.yul\":1820:1843   */\n      sub\n        /* \"#utility.yul\":1816:1848   */\n      slt\n        /* \"#utility.yul\":1813:1932   */\n      iszero\n      tag_167\n      jumpi\n        /* \"#utility.yul\":1851:1930   */\n      tag_168\n      tag_153\n      jump\t// in\n    tag_168:\n        /* \"#utility.yul\":1813:1932   */\n    tag_167:\n        /* \"#utility.yul\":1971:1972   */\n      0x00\n        /* \"#utility.yul\":1996:2049   */\n      tag_169\n        /* \"#utility.yul\":2041:2048   */\n      dup5\n        /* \"#utility.yul\":2032:2038   */\n      dup3\n        /* \"#utility.yul\":2021:2030   */\n      dup6\n        /* \"#utility.yul\":2017:2039   */\n      add\n        /* \"#utility.yul\":1996:2049   */\n      tag_146\n      jump\t// in\n    tag_169:\n        /* \"#utility.yul\":1986:2049   */\n      swap2\n      pop\n        /* \"#utility.yul\":1942:2059   */\n      pop\n        /* \"#utility.yul\":1737:2066   */\n      swap3\n      swap2\n      pop\n      pop\n      jump\t// out\n        /* \"#utility.yul\":2072:2190   */\n    tag_170:\n        /* \"#utility.yul\":2159:2183   */\n      tag_172\n        /* \"#utility.yul\":2177:2182   */\n      dup2\n        /* \"#utility.yul\":2159:2183   */\n      tag_173\n      jump\t// in\n    tag_172:\n        /* \"#utility.yul\":2154:2157   */\n      dup3\n        /* \"#utility.yul\":2147:2184   */\n      mstore\n        /* \"#utility.yul\":2072:2190   */\n      pop\n      pop\n      jump\t// out\n        /* \"#utility.yul\":2196:2305   */\n    tag_174:\n        /* \"#utility.yul\":2277:2298   */\n      tag_176\n        /* \"#utility.yul\":2292:2297   */\n      dup2\n        /* \"#utility.yul\":2277:2298   */\n      tag_177\n      jump\t// in\n    tag_176:\n        /* \"#utility.yul\":2272:2275   */\n      dup3\n        /* \"#utility.yul\":2265:2299   */\n      mstore\n        /* \"#utility.yul\":2196:2305   */\n      pop\n      pop\n      jump\t// out\n        /* \"#utility.yul\":2311:2454   */\n    tag_178:\n        /* \"#utility.yul\":2404:2447   */\n      tag_180\n        /* \"#utility.yul\":2441:2446   */\n      dup2\n        /* \"#utility.yul\":2404:2447   */\n      tag_181\n      jump\t// in\n    tag_180:\n        /* \"#utility.yul\":2399:2402   */\n      dup3\n        /* \"#utility.yul\":2392:2448   */\n      mstore\n        /* \"#utility.yul\":2311:2454   */\n      pop\n      pop\n      jump\t// out\n        /* \"#utility.yul\":2460:2824   */\n    tag_182:\n        /* \"#utility.yul\":2548:2551   */\n      0x00\n        /* \"#utility.yul\":2576:2615   */\n      tag_184\n        /* \"#utility.yul\":2609:2614   */\n      dup3\n        /* \"#utility.yul\":2576:2615   */\n      tag_185\n      jump\t// in\n    tag_184:\n        /* \"#utility.yul\":2631:2702   */\n      tag_186\n        /* \"#utility.yul\":2695:2701   */\n      dup2\n        /* \"#utility.yul\":2690:2693   */\n      dup6\n        /* \"#utility.yul\":2631:2702   */\n      tag_187\n      jump\t// in\n    tag_186:\n        /* \"#utility.yul\":2624:2702   */\n      swap4\n      pop\n        /* \"#utility.yul\":2711:2763   */\n      tag_188\n        /* \"#utility.yul\":2756:2762   */\n      dup2\n        /* \"#utility.yul\":2751:2754   */\n      dup6\n        /* \"#utility.yul\":2744:2748   */\n      0x20\n        /* \"#utility.yul\":2737:2742   */\n      dup7\n        /* \"#utility.yul\":2733:2749   */\n      add\n        /* \"#utility.yul\":2711:2763   */\n      tag_189\n      jump\t// in\n    tag_188:\n        /* \"#utility.yul\":2788:2817   */\n      tag_190\n        /* \"#utility.yul\":2810:2816   */\n      dup2\n        /* \"#utility.yul\":2788:2817   */\n      tag_191\n      jump\t// in\n    tag_190:\n        /* \"#utility.yul\":2783:2786   */\n      dup5\n        /* \"#utility.yul\":2779:2818   */\n      add\n        /* \"#utility.yul\":2772:2818   */\n      swap2\n      pop\n        /* \"#utility.yul\":2552:2824   */\n      pop\n        /* \"#utility.yul\":2460:2824   */\n      swap3\n      swap2\n      pop\n      pop\n      jump\t// out\n        /* \"#utility.yul\":2830:3196   */\n    tag_192:\n        /* \"#utility.yul\":2972:2975   */\n      0x00\n        /* \"#utility.yul\":2993:3060   */\n      tag_194\n        /* \"#utility.yul\":3057:3059   */\n      0x2a\n        /* \"#utility.yul\":3052:3055   */\n      dup4\n        /* \"#utility.yul\":2993:3060   */\n      tag_187\n      jump\t// in\n    tag_194:\n        /* \"#utility.yul\":2986:3060   */\n      swap2\n      pop\n        /* \"#utility.yul\":3069:3162   */\n      tag_195\n        /* \"#utility.yul\":3158:3161   */\n      dup3\n        /* \"#utility.yul\":3069:3162   */\n      tag_196\n      jump\t// in\n    tag_195:\n        /* \"#utility.yul\":3187:3189   */\n      0x40\n        /* \"#utility.yul\":3182:3185   */\n      dup3\n        /* \"#utility.yul\":3178:3190   */\n      add\n        /* \"#utility.yul\":3171:3190   */\n      swap1\n      pop\n        /* \"#utility.yul\":2830:3196   */\n      swap2\n      swap1\n      pop\n      jump\t// out\n        /* \"#utility.yul\":3202:3568   */\n    tag_197:\n        /* \"#utility.yul\":3344:3347   */\n      0x00\n        /* \"#utility.yul\":3365:3432   */\n      tag_199\n        /* \"#utility.yul\":3429:3431   */\n      0x1c\n        /* \"#utility.yul\":3424:3427   */\n      dup4\n        /* \"#utility.yul\":3365:3432   */\n      tag_187\n      jump\t// in\n    tag_199:\n        /* \"#utility.yul\":3358:3432   */\n      swap2\n      pop\n        /* \"#utility.yul\":3441:3534   */\n      tag_200\n        /* \"#utility.yul\":3530:3533   */\n      dup3\n        /* \"#utility.yul\":3441:3534   */\n      tag_201\n      jump\t// in\n    tag_200:\n        /* \"#utility.yul\":3559:3561   */\n      0x20\n        /* \"#utility.yul\":3554:3557   */\n      dup3\n        /* \"#utility.yul\":3550:3562   */\n      add\n        /* \"#utility.yul\":3543:3562   */\n      swap1\n      pop\n        /* \"#utility.yul\":3202:3568   */\n      swap2\n      swap1\n      pop\n      jump\t// out\n        /* \"#utility.yul\":3574:3692   */\n    tag_202:\n        /* \"#utility.yul\":3661:3685   */\n      tag_204\n        /* \"#utility.yul\":3679:3684   */\n      dup2\n        /* \"#utility.yul\":3661:3685   */\n      tag_205\n      jump\t// in\n    tag_204:\n        /* \"#utility.yul\":3656:3659   */\n      dup3\n        /* \"#utility.yul\":3649:3686   */\n      mstore\n        /* \"#utility.yul\":3574:3692   */\n      pop\n      pop\n      jump\t// out\n        /* \"#utility.yul\":3698:3920   */\n    tag_47:\n        /* \"#utility.yul\":3791:3795   */\n      0x00\n        /* \"#utility.yul\":3829:3831   */\n      0x20\n        /* \"#utility.yul\":3818:3827   */\n      dup3\n        /* \"#utility.yul\":3814:3832   */\n      add\n        /* \"#utility.yul\":3806:3832   */\n      swap1\n      pop\n        /* \"#utility.yul\":3842:3913   */\n      tag_207\n        /* \"#utility.yul\":3910:3911   */\n      0x00\n        /* \"#utility.yul\":3899:3908   */\n      dup4\n        /* \"#utility.yul\":3895:3912   */\n      add\n        /* \"#utility.yul\":3886:3892   */\n      dup5\n        /* \"#utility.yul\":3842:3913   */\n      tag_170\n      jump\t// in\n    tag_207:\n        /* \"#utility.yul\":3698:3920   */\n      swap3\n      swap2\n      pop\n      pop\n      jump\t// out\n        /* \"#utility.yul\":3926:4136   */\n    tag_52:\n        /* \"#utility.yul\":4013:4017   */\n      0x00\n        /* \"#utility.yul\":4051:4053   */\n      0x20\n        /* \"#utility.yul\":4040:4049   */\n      dup3\n        /* \"#utility.yul\":4036:4054   */\n      add\n        /* \"#utility.yul\":4028:4054   */\n      swap1\n      pop\n        /* \"#utility.yul\":4064:4129   */\n      tag_209\n        /* \"#utility.yul\":4126:4127   */\n      0x00\n        /* \"#utility.yul\":4115:4124   */\n      dup4\n        /* \"#utility.yul\":4111:4128   */\n      add\n        /* \"#utility.yul\":4102:4108   */\n      dup5\n        /* \"#utility.yul\":4064:4129   */\n      tag_174\n      jump\t// in\n    tag_209:\n        /* \"#utility.yul\":3926:4136   */\n      swap3\n      swap2\n      pop\n      pop\n      jump\t// out\n        /* \"#utility.yul\":4142:4782   */\n    tag_41:\n        /* \"#utility.yul\":4335:4339   */\n      0x00\n        /* \"#utility.yul\":4373:4376   */\n      0xa0\n        /* \"#utility.yul\":4362:4371   */\n      dup3\n        /* \"#utility.yul\":4358:4377   */\n      add\n        /* \"#utility.yul\":4350:4377   */\n      swap1\n      pop\n        /* \"#utility.yul\":4387:4452   */\n      tag_211\n        /* \"#utility.yul\":4449:4450   */\n      0x00\n        /* \"#utility.yul\":4438:4447   */\n      dup4\n        /* \"#utility.yul\":4434:4451   */\n      add\n        /* \"#utility.yul\":4425:4431   */\n      dup9\n        /* \"#utility.yul\":4387:4452   */\n      tag_174\n      jump\t// in\n    tag_211:\n        /* \"#utility.yul\":4462:4528   */\n      tag_212\n        /* \"#utility.yul\":4524:4526   */\n      0x20\n        /* \"#utility.yul\":4513:4522   */\n      dup4\n        /* \"#utility.yul\":4509:4527   */\n      add\n        /* \"#utility.yul\":4500:4506   */\n      dup8\n        /* \"#utility.yul\":4462:4528   */\n      tag_174\n      jump\t// in\n    tag_212:\n        /* \"#utility.yul\":4538:4610   */\n      tag_213\n        /* \"#utility.yul\":4606:4608   */\n      0x40\n        /* \"#utility.yul\":4595:4604   */\n      dup4\n        /* \"#utility.yul\":4591:4609   */\n      add\n        /* \"#utility.yul\":4582:4588   */\n      dup7\n        /* \"#utility.yul\":4538:4610   */\n      tag_202\n      jump\t// in\n    tag_213:\n        /* \"#utility.yul\":4620:4692   */\n      tag_214\n        /* \"#utility.yul\":4688:4690   */\n      0x60\n        /* \"#utility.yul\":4677:4686   */\n      dup4\n        /* \"#utility.yul\":4673:4691   */\n      add\n        /* \"#utility.yul\":4664:4670   */\n      dup6\n        /* \"#utility.yul\":4620:4692   */\n      tag_202\n      jump\t// in\n    tag_214:\n        /* \"#utility.yul\":4702:4775   */\n      tag_215\n        /* \"#utility.yul\":4770:4773   */\n      0x80\n        /* \"#utility.yul\":4759:4768   */\n      dup4\n        /* \"#utility.yul\":4755:4774   */\n      add\n        /* \"#utility.yul\":4746:4752   */\n      dup5\n        /* \"#utility.yul\":4702:4775   */\n      tag_202\n      jump\t// in\n    tag_215:\n        /* \"#utility.yul\":4142:4782   */\n      swap7\n      swap6\n      pop\n      pop\n      pop\n      pop\n      pop\n      pop\n      jump\t// out\n        /* \"#utility.yul\":4788:5022   */\n    tag_60:\n        /* \"#utility.yul\":4887:4891   */\n      0x00\n        /* \"#utility.yul\":4925:4927   */\n      0x20\n        /* \"#utility.yul\":4914:4923   */\n      dup3\n        /* \"#utility.yul\":4910:4928   */\n      add\n        /* \"#utility.yul\":4902:4928   */\n      swap1\n      pop\n        /* \"#utility.yul\":4938:5015   */\n      tag_217\n        /* \"#utility.yul\":5012:5013   */\n      0x00\n        /* \"#utility.yul\":5001:5010   */\n      dup4\n        /* \"#utility.yul\":4997:5014   */\n      add\n        /* \"#utility.yul\":4988:4994   */\n      dup5\n        /* \"#utility.yul\":4938:5015   */\n      tag_178\n      jump\t// in\n    tag_217:\n        /* \"#utility.yul\":4788:5022   */\n      swap3\n      swap2\n      pop\n      pop\n      jump\t// out\n        /* \"#utility.yul\":5028:5447   */\n    tag_110:\n        /* \"#utility.yul\":5194:5198   */\n      0x00\n        /* \"#utility.yul\":5232:5234   */\n      0x20\n        /* \"#utility.yul\":5221:5230   */\n      dup3\n        /* \"#utility.yul\":5217:5235   */\n      add\n        /* \"#utility.yul\":5209:5235   */\n      swap1\n      pop\n        /* \"#utility.yul\":5281:5290   */\n      dup2\n        /* \"#utility.yul\":5275:5279   */\n      dup2\n        /* \"#utility.yul\":5271:5291   */\n      sub\n        /* \"#utility.yul\":5267:5268   */\n      0x00\n        /* \"#utility.yul\":5256:5265   */\n      dup4\n        /* \"#utility.yul\":5252:5269   */\n      add\n        /* \"#utility.yul\":5245:5292   */\n      mstore\n        /* \"#utility.yul\":5309:5440   */\n      tag_219\n        /* \"#utility.yul\":5435:5439   */\n      dup2\n        /* \"#utility.yul\":5309:5440   */\n      tag_192\n      jump\t// in\n    tag_219:\n        /* \"#utility.yul\":5301:5440   */\n      swap1\n      pop\n        /* \"#utility.yul\":5028:5447   */\n      swap2\n      swap1\n      pop\n      jump\t// out\n        /* \"#utility.yul\":5453:5872   */\n    tag_106:\n        /* \"#utility.yul\":5619:5623   */\n      0x00\n        /* \"#utility.yul\":5657:5659   */\n      0x20\n        /* \"#utility.yul\":5646:5655   */\n      dup3\n        /* \"#utility.yul\":5642:5660   */\n      add\n        /* \"#utility.yul\":5634:5660   */\n      swap1\n      pop\n        /* \"#utility.yul\":5706:5715   */\n      dup2\n        /* \"#utility.yul\":5700:5704   */\n      dup2\n        /* \"#utility.yul\":5696:5716   */\n      sub\n        /* \"#utility.yul\":5692:5693   */\n      0x00\n        /* \"#utility.yul\":5681:5690   */\n      dup4\n        /* \"#utility.yul\":5677:5694   */\n      add\n        /* \"#utility.yul\":5670:5717   */\n      mstore\n        /* \"#utility.yul\":5734:5865   */\n      tag_221\n        /* \"#utility.yul\":5860:5864   */\n      dup2\n        /* \"#utility.yul\":5734:5865   */\n      tag_197\n      jump\t// in\n    tag_221:\n        /* \"#utility.yul\":5726:5865   */\n      swap1\n      pop\n        /* \"#utility.yul\":5453:5872   */\n      swap2\n      swap1\n      pop\n      jump\t// out\n        /* \"#utility.yul\":5878:6100   */\n    tag_23:\n        /* \"#utility.yul\":5971:5975   */\n      0x00\n        /* \"#utility.yul\":6009:6011   */\n      0x20\n        /* \"#utility.yul\":5998:6007   */\n      dup3\n        /* \"#utility.yul\":5994:6012   */\n      add\n        /* \"#utility.yul\":5986:6012   */\n      swap1\n      pop\n        /* \"#utility.yul\":6022:6093   */\n      tag_223\n        /* \"#utility.yul\":6090:6091   */\n      0x00\n        /* \"#utility.yul\":6079:6088   */\n      dup4\n        /* \"#utility.yul\":6075:6092   */\n      add\n        /* \"#utility.yul\":6066:6072   */\n      dup5\n        /* \"#utility.yul\":6022:6093   */\n      tag_202\n      jump\t// in\n    tag_223:\n        /* \"#utility.yul\":5878:6100   */\n      swap3\n      swap2\n      pop\n      pop\n      jump\t// out\n        /* \"#utility.yul\":6106:6639   */\n    tag_35:\n        /* \"#utility.yul\":6275:6279   */\n      0x00\n        /* \"#utility.yul\":6313:6315   */\n      0x60\n        /* \"#utility.yul\":6302:6311   */\n      dup3\n        /* \"#utility.yul\":6298:6316   */\n      add\n        /* \"#utility.yul\":6290:6316   */\n      swap1\n      pop\n        /* \"#utility.yul\":6326:6397   */\n      tag_225\n        /* \"#utility.yul\":6394:6395   */\n      0x00\n        /* \"#utility.yul\":6383:6392   */\n      dup4\n        /* \"#utility.yul\":6379:6396   */\n      add\n        /* \"#utility.yul\":6370:6376   */\n      dup7\n        /* \"#utility.yul\":6326:6397   */\n      tag_202\n      jump\t// in\n    tag_225:\n        /* \"#utility.yul\":6444:6453   */\n      dup2\n        /* \"#utility.yul\":6438:6442   */\n      dup2\n        /* \"#utility.yul\":6434:6454   */\n      sub\n        /* \"#utility.yul\":6429:6431   */\n      0x20\n        /* \"#utility.yul\":6418:6427   */\n      dup4\n        /* \"#utility.yul\":6414:6432   */\n      add\n        /* \"#utility.yul\":6407:6455   */\n      mstore\n        /* \"#utility.yul\":6472:6550   */\n      tag_226\n        /* \"#utility.yul\":6545:6549   */\n      dup2\n        /* \"#utility.yul\":6536:6542   */\n      dup6\n        /* \"#utility.yul\":6472:6550   */\n      tag_182\n      jump\t// in\n    tag_226:\n        /* \"#utility.yul\":6464:6550   */\n      swap1\n      pop\n        /* \"#utility.yul\":6560:6632   */\n      tag_227\n        /* \"#utility.yul\":6628:6630   */\n      0x40\n        /* \"#utility.yul\":6617:6626   */\n      dup4\n        /* \"#utility.yul\":6613:6631   */\n      add\n        /* \"#utility.yul\":6604:6610   */\n      dup5\n        /* \"#utility.yul\":6560:6632   */\n      tag_202\n      jump\t// in\n    tag_227:\n        /* \"#utility.yul\":6106:6639   */\n      swap5\n      swap4\n      pop\n      pop\n      pop\n      pop\n      jump\t// out\n        /* \"#utility.yul\":6645:7289   */\n    tag_76:\n        /* \"#utility.yul\":6842:6846   */\n      0x00\n        /* \"#utility.yul\":6880:6883   */\n      0x80\n        /* \"#utility.yul\":6869:6878   */\n      dup3\n        /* \"#utility.yul\":6865:6884   */\n      add\n        /* \"#utility.yul\":6857:6884   */\n      swap1\n      pop\n        /* \"#utility.yul\":6894:6965   */\n      tag_229\n        /* \"#utility.yul\":6962:6963   */\n      0x00\n        /* \"#utility.yul\":6951:6960   */\n      dup4\n        /* \"#utility.yul\":6947:6964   */\n      add\n        /* \"#utility.yul\":6938:6944   */\n      dup8\n        /* \"#utility.yul\":6894:6965   */\n      tag_202\n      jump\t// in\n    tag_229:\n        /* \"#utility.yul\":7012:7021   */\n      dup2\n        /* \"#utility.yul\":7006:7010   */\n      dup2\n        /* \"#utility.yul\":7002:7022   */\n      sub\n        /* \"#utility.yul\":6997:6999   */\n      0x20\n        /* \"#utility.yul\":6986:6995   */\n      dup4\n        /* \"#utility.yul\":6982:7000   */\n      add\n        /* \"#utility.yul\":6975:7023   */\n      mstore\n        /* \"#utility.yul\":7040:7118   */\n      tag_230\n        /* \"#utility.yul\":7113:7117   */\n      dup2\n        /* \"#utility.yul\":7104:7110   */\n      dup7\n        /* \"#utility.yul\":7040:7118   */\n      tag_182\n      jump\t// in\n    tag_230:\n        /* \"#utility.yul\":7032:7118   */\n      swap1\n      pop\n        /* \"#utility.yul\":7128:7200   */\n      tag_231\n        /* \"#utility.yul\":7196:7198   */\n      0x40\n        /* \"#utility.yul\":7185:7194   */\n      dup4\n        /* \"#utility.yul\":7181:7199   */\n      add\n        /* \"#utility.yul\":7172:7178   */\n      dup6\n        /* \"#utility.yul\":7128:7200   */\n      tag_202\n      jump\t// in\n    tag_231:\n        /* \"#utility.yul\":7210:7282   */\n      tag_232\n        /* \"#utility.yul\":7278:7280   */\n      0x60\n        /* \"#utility.yul\":7267:7276   */\n      dup4\n        /* \"#utility.yul\":7263:7281   */\n      add\n        /* \"#utility.yul\":7254:7260   */\n      dup5\n        /* \"#utility.yul\":7210:7282   */\n      tag_202\n      jump\t// in\n    tag_232:\n        /* \"#utility.yul\":6645:7289   */\n      swap6\n      swap5\n      pop\n      pop\n      pop\n      pop\n      pop\n      jump\t// out\n        /* \"#utility.yul\":7376:7475   */\n    tag_185:\n        /* \"#utility.yul\":7428:7434   */\n      0x00\n        /* \"#utility.yul\":7462:7467   */\n      dup2\n        /* \"#utility.yul\":7456:7468   */\n      mload\n        /* \"#utility.yul\":7446:7468   */\n      swap1\n      pop\n        /* \"#utility.yul\":7376:7475   */\n      swap2\n      swap1\n      pop\n      jump\t// out\n        /* \"#utility.yul\":7481:7650   */\n    tag_187:\n        /* \"#utility.yul\":7565:7576   */\n      0x00\n        /* \"#utility.yul\":7599:7605   */\n      dup3\n        /* \"#utility.yul\":7594:7597   */\n      dup3\n        /* \"#utility.yul\":7587:7606   */\n      mstore\n        /* \"#utility.yul\":7639:7643   */\n      0x20\n        /* \"#utility.yul\":7634:7637   */\n      dup3\n        /* \"#utility.yul\":7630:7644   */\n      add\n        /* \"#utility.yul\":7615:7644   */\n      swap1\n      pop\n        /* \"#utility.yul\":7481:7650   */\n      swap3\n      swap2\n      pop\n      pop\n      jump\t// out\n        /* \"#utility.yul\":7656:7752   */\n    tag_173:\n        /* \"#utility.yul\":7693:7700   */\n      0x00\n        /* \"#utility.yul\":7722:7746   */\n      tag_238\n        /* \"#utility.yul\":7740:7745   */\n      dup3\n        /* \"#utility.yul\":7722:7746   */\n      tag_239\n      jump\t// in\n    tag_238:\n        /* \"#utility.yul\":7711:7746   */\n      swap1\n      pop\n        /* \"#utility.yul\":7656:7752   */\n      swap2\n      swap1\n      pop\n      jump\t// out\n        /* \"#utility.yul\":7758:7848   */\n    tag_177:\n        /* \"#utility.yul\":7792:7799   */\n      0x00\n        /* \"#utility.yul\":7835:7840   */\n      dup2\n        /* \"#utility.yul\":7828:7841   */\n      iszero\n        /* \"#utility.yul\":7821:7842   */\n      iszero\n        /* \"#utility.yul\":7810:7842   */\n      swap1\n      pop\n        /* \"#utility.yul\":7758:7848   */\n      swap2\n      swap1\n      pop\n      jump\t// out\n        /* \"#utility.yul\":7854:7981   */\n    tag_241:\n        /* \"#utility.yul\":7899:7906   */\n      0x00\n        /* \"#utility.yul\":7928:7933   */\n      dup2\n        /* \"#utility.yul\":7917:7933   */\n      swap1\n      pop\n        /* \"#utility.yul\":7934:7975   */\n      tag_243\n        /* \"#utility.yul\":7969:7974   */\n      dup3\n        /* \"#utility.yul\":7934:7975   */\n      tag_244\n      jump\t// in\n    tag_243:\n        /* \"#utility.yul\":7854:7981   */\n      swap2\n      swap1\n      pop\n      jump\t// out\n        /* \"#utility.yul\":7987:8113   */\n    tag_239:\n        /* \"#utility.yul\":8024:8031   */\n      0x00\n        /* \"#utility.yul\":8064:8106   */\n      0xffffffffffffffffffffffffffffffffffffffff\n        /* \"#utility.yul\":8057:8062   */\n      dup3\n        /* \"#utility.yul\":8053:8107   */\n      and\n        /* \"#utility.yul\":8042:8107   */\n      swap1\n      pop\n        /* \"#utility.yul\":7987:8113   */\n      swap2\n      swap1\n      pop\n      jump\t// out\n        /* \"#utility.yul\":8119:8196   */\n    tag_205:\n        /* \"#utility.yul\":8156:8163   */\n      0x00\n        /* \"#utility.yul\":8185:8190   */\n      dup2\n        /* \"#utility.yul\":8174:8190   */\n      swap1\n      pop\n        /* \"#utility.yul\":8119:8196   */\n      swap2\n      swap1\n      pop\n      jump\t// out\n        /* \"#utility.yul\":8202:8329   */\n    tag_181:\n        /* \"#utility.yul\":8258:8267   */\n      0x00\n        /* \"#utility.yul\":8291:8323   */\n      tag_248\n        /* \"#utility.yul\":8317:8322   */\n      dup3\n        /* \"#utility.yul\":8291:8323   */\n      tag_241\n      jump\t// in\n    tag_248:\n        /* \"#utility.yul\":8278:8323   */\n      swap1\n      pop\n        /* \"#utility.yul\":8202:8329   */\n      swap2\n      swap1\n      pop\n      jump\t// out\n        /* \"#utility.yul\":8335:8642   */\n    tag_189:\n        /* \"#utility.yul\":8403:8404   */\n      0x00\n        /* \"#utility.yul\":8413:8526   */\n    tag_250:\n        /* \"#utility.yul\":8427:8433   */\n      dup4\n        /* \"#utility.yul\":8424:8425   */\n      dup2\n        /* \"#utility.yul\":8421:8434   */\n      lt\n        /* \"#utility.yul\":8413:8526   */\n      iszero\n      tag_252\n      jumpi\n        /* \"#utility.yul\":8512:8513   */\n      dup1\n        /* \"#utility.yul\":8507:8510   */\n      dup3\n        /* \"#utility.yul\":8503:8514   */\n      add\n        /* \"#utility.yul\":8497:8515   */\n      mload\n        /* \"#utility.yul\":8493:8494   */\n      dup2\n        /* \"#utility.yul\":8488:8491   */\n      dup5\n        /* \"#utility.yul\":8484:8495   */\n      add\n        /* \"#utility.yul\":8477:8516   */\n      mstore\n        /* \"#utility.yul\":8449:8451   */\n      0x20\n        /* \"#utility.yul\":8446:8447   */\n      dup2\n        /* \"#utility.yul\":8442:8452   */\n      add\n        /* \"#utility.yul\":8437:8452   */\n      swap1\n      pop\n        /* \"#utility.yul\":8413:8526   */\n      jump(tag_250)\n    tag_252:\n        /* \"#utility.yul\":8544:8550   */\n      dup4\n        /* \"#utility.yul\":8541:8542   */\n      dup2\n        /* \"#utility.yul\":8538:8551   */\n      gt\n        /* \"#utility.yul\":8535:8636   */\n      iszero\n      tag_253\n      jumpi\n        /* \"#utility.yul\":8624:8625   */\n      0x00\n        /* \"#utility.yul\":8615:8621   */\n      dup5\n        /* \"#utility.yul\":8610:8613   */\n      dup5\n        /* \"#utility.yul\":8606:8622   */\n      add\n        /* \"#utility.yul\":8599:8626   */\n      mstore\n        /* \"#utility.yul\":8535:8636   */\n    tag_253:\n        /* \"#utility.yul\":8384:8642   */\n      pop\n        /* \"#utility.yul\":8335:8642   */\n      pop\n      pop\n      pop\n      jump\t// out\n        /* \"#utility.yul\":8648:8968   */\n    tag_78:\n        /* \"#utility.yul\":8692:8698   */\n      0x00\n        /* \"#utility.yul\":8729:8730   */\n      0x02\n        /* \"#utility.yul\":8723:8727   */\n      dup3\n        /* \"#utility.yul\":8719:8731   */\n      div\n        /* \"#utility.yul\":8709:8731   */\n      swap1\n      pop\n        /* \"#utility.yul\":8776:8777   */\n      0x01\n        /* \"#utility.yul\":8770:8774   */\n      dup3\n        /* \"#utility.yul\":8766:8778   */\n      and\n        /* \"#utility.yul\":8797:8815   */\n      dup1\n        /* \"#utility.yul\":8787:8868   */\n      tag_255\n      jumpi\n        /* \"#utility.yul\":8853:8857   */\n      0x7f\n        /* \"#utility.yul\":8845:8851   */\n      dup3\n        /* \"#utility.yul\":8841:8858   */\n      and\n        /* \"#utility.yul\":8831:8858   */\n      swap2\n      pop\n        /* \"#utility.yul\":8787:8868   */\n    tag_255:\n        /* \"#utility.yul\":8915:8917   */\n      0x20\n        /* \"#utility.yul\":8907:8913   */\n      dup3\n        /* \"#utility.yul\":8904:8918   */\n      lt\n        /* \"#utility.yul\":8884:8902   */\n      dup2\n        /* \"#utility.yul\":8881:8919   */\n      eq\n        /* \"#utility.yul\":8878:8962   */\n      iszero\n      tag_256\n      jumpi\n        /* \"#utility.yul\":8934:8952   */\n      tag_257\n      tag_258\n      jump\t// in\n    tag_257:\n        /* \"#utility.yul\":8878:8962   */\n    tag_256:\n        /* \"#utility.yul\":8699:8968   */\n      pop\n        /* \"#utility.yul\":8648:8968   */\n      swap2\n      swap1\n      pop\n      jump\t// out\n        /* \"#utility.yul\":8974:9207   */\n    tag_116:\n        /* \"#utility.yul\":9013:9016   */\n      0x00\n        /* \"#utility.yul\":9036:9060   */\n      tag_260\n        /* \"#utility.yul\":9054:9059   */\n      dup3\n        /* \"#utility.yul\":9036:9060   */\n      tag_205\n      jump\t// in\n    tag_260:\n        /* \"#utility.yul\":9027:9060   */\n      swap2\n      pop\n        /* \"#utility.yul\":9082:9148   */\n      0xffffffffffffffffffffffffffffffffffffffffffffffffffffffffffffffff\n        /* \"#utility.yul\":9075:9080   */\n      dup3\n        /* \"#utility.yul\":9072:9149   */\n      eq\n        /* \"#utility.yul\":9069:9172   */\n      iszero\n      tag_261\n      jumpi\n        /* \"#utility.yul\":9152:9170   */\n      tag_262\n      tag_263\n      jump\t// in\n    tag_262:\n        /* \"#utility.yul\":9069:9172   */\n    tag_261:\n        /* \"#utility.yul\":9199:9200   */\n      0x01\n        /* \"#utility.yul\":9192:9197   */\n      dup3\n        /* \"#utility.yul\":9188:9201   */\n      add\n        /* \"#utility.yul\":9181:9201   */\n      swap1\n      pop\n        /* \"#utility.yul\":8974:9207   */\n      swap2\n      swap1\n      pop\n      jump\t// out\n        /* \"#utility.yul\":9213:9393   */\n    tag_263:\n        /* \"#utility.yul\":9261:9338   */\n      0x4e487b7100000000000000000000000000000000000000000000000000000000\n        /* \"#utility.yul\":9258:9259   */\n      0x00\n        /* \"#utility.yul\":9251:9339   */\n      mstore\n        /* \"#utility.yul\":9358:9362   */\n      0x11\n        /* \"#utility.yul\":9355:9356   */\n      0x04\n        /* \"#utility.yul\":9348:9363   */\n      mstore\n        /* \"#utility.yul\":9382:9386   */\n      0x24\n        /* \"#utility.yul\":9379:9380   */\n      0x00\n        /* \"#utility.yul\":9372:9387   */\n      revert\n        /* \"#utility.yul\":9399:9579   */\n    tag_86:\n        /* \"#utility.yul\":9447:9524   */\n      0x4e487b7100000000000000000000000000000000000000000000000000000000\n        /* \"#utility.yul\":9444:9445   */\n      0x00\n        /* \"#utility.yul\":9437:9525   */\n      mstore\n        /* \"#utility.yul\":9544:9548   */\n      0x21\n        /* \"#utility.yul\":9541:9542   */\n      0x04\n        /* \"#utility.yul\":9534:9549   */\n      mstore\n        /* \"#utility.yul\":9568:9572   */\n      0x24\n        /* \"#utility.yul\":9565:9566   */\n      0x00\n        /* \"#utility.yul\":9558:9573   */\n      revert\n        /* \"#utility.yul\":9585:9765   */\n    tag_258:\n        /* \"#utility.yul\":9633:9710   */\n      0x4e487b7100000000000000000000000000000000000000000000000000000000\n        /* \"#utility.yul\":9630:9631   */\n      0x00\n        /* \"#utility.yul\":9623:9711   */\n      mstore\n        /* \"#utility.yul\":9730:9734   */\n      0x22\n        /* \"#utility.yul\":9727:9728   */\n      0x04\n        /* \"#utility.yul\":9720:9735   */\n      mstore\n        /* \"#utility.yul\":9754:9758   */\n      0x24\n        /* \"#utility.yul\":9751:9752   */\n      0x00\n        /* \"#utility.yul\":9744:9759   */\n      revert\n        /* \"#utility.yul\":9894:10011   */\n    tag_153:\n        /* \"#utility.yul\":10003:10004   */\n      0x00\n        /* \"#utility.yul\":10000:10001   */\n      dup1\n        /* \"#utility.yul\":9993:10005   */\n      revert\n        /* \"#utility.yul\":10017:10119   */\n    tag_191:\n        /* \"#utility.yul\":10058:10064   */\n      0x00\n        /* \"#utility.yul\":10109:10111   */\n      0x1f\n        /* \"#utility.yul\":10105:10112   */\n      not\n        /* \"#utility.yul\":10100:10102   */\n      0x1f\n        /* \"#utility.yul\":10093:10098   */\n      dup4\n        /* \"#utility.yul\":10089:10103   */\n      add\n        /* \"#utility.yul\":10085:10113   */\n      and\n        /* \"#utility.yul\":10075:10113   */\n      swap1\n      pop\n        /* \"#utility.yul\":10017:10119   */\n      swap2\n      swap1\n      pop\n      jump\t// out\n        /* \"#utility.yul\":10125:10354   */\n    tag_196:\n        /* \"#utility.yul\":10265:10299   */\n      0x506c656173652070726f7669646520612076616c696420706f6c6c696e672073\n        /* \"#utility.yul\":10261:10262   */\n      0x00\n        /* \"#utility.yul\":10253:10259   */\n      dup3\n        /* \"#utility.yul\":10249:10263   */\n      add\n        /* \"#utility.yul\":10242:10300   */\n      mstore\n        /* \"#utility.yul\":10334:10346   */\n      0x746174696f6e2049442e00000000000000000000000000000000000000000000\n        /* \"#utility.yul\":10329:10331   */\n      0x20\n        /* \"#utility.yul\":10321:10327   */\n      dup3\n        /* \"#utility.yul\":10317:10332   */\n      add\n        /* \"#utility.yul\":10310:10347   */\n      mstore\n        /* \"#utility.yul\":10125:10354   */\n      pop\n      jump\t// out\n        /* \"#utility.yul\":10360:10538   */\n    tag_201:\n        /* \"#utility.yul\":10500:10530   */\n      0x566f74657220697320616c726561647920726567697374657265642e00000000\n        /* \"#utility.yul\":10496:10497   */\n      0x00\n        /* \"#utility.yul\":10488:10494   */\n      dup3\n        /* \"#utility.yul\":10484:10498   */\n      add\n        /* \"#utility.yul\":10477:10531   */\n      mstore\n        /* \"#utility.yul\":10360:10538   */\n      pop\n      jump\t// out\n        /* \"#utility.yul\":10544:10657   */\n    tag_244:\n        /* \"#utility.yul\":10625:10626   */\n      0x03\n        /* \"#utility.yul\":10618:10623   */\n      dup2\n        /* \"#utility.yul\":10615:10627   */\n      lt\n        /* \"#utility.yul\":10605:10651   */\n      tag_274\n      jumpi\n        /* \"#utility.yul\":10631:10649   */\n      tag_275\n      tag_86\n      jump\t// in\n    tag_275:\n        /* \"#utility.yul\":10605:10651   */\n    tag_274:\n        /* \"#utility.yul\":10544:10657   */\n      pop\n      jump\t// out\n        /* \"#utility.yul\":10663:10785   */\n    tag_145:\n        /* \"#utility.yul\":10736:10760   */\n      tag_277\n        /* \"#utility.yul\":10754:10759   */\n      dup2\n        /* \"#utility.yul\":10736:10760   */\n      tag_173\n      jump\t// in\n    tag_277:\n        /* \"#utility.yul\":10729:10734   */\n      dup2\n        /* \"#utility.yul\":10726:10761   */\n      eq\n        /* \"#utility.yul\":10716:10779   */\n      tag_278\n      jumpi\n        /* \"#utility.yul\":10775:10776   */\n      0x00\n        /* \"#utility.yul\":10772:10773   */\n      dup1\n        /* \"#utility.yul\":10765:10777   */\n      revert\n        /* \"#utility.yul\":10716:10779   */\n    tag_278:\n        /* \"#utility.yul\":10663:10785   */\n      pop\n      jump\t// out\n        /* \"#utility.yul\":10791:10913   */\n    tag_149:\n        /* \"#utility.yul\":10864:10888   */\n      tag_280\n        /* \"#utility.yul\":10882:10887   */\n      dup2\n        /* \"#utility.yul\":10864:10888   */\n      tag_205\n      jump\t// in\n    tag_280:\n        /* \"#utility.yul\":10857:10862   */\n      dup2\n        /* \"#utility.yul\":10854:10889   */\n      eq\n        /* \"#utility.yul\":10844:10907   */\n      tag_281\n      jumpi\n        /* \"#utility.yul\":10903:10904   */\n      0x00\n        /* \"#utility.yul\":10900:10901   */\n      dup1\n        /* \"#utility.yul\":10893:10905   */\n      revert\n        /* \"#utility.yul\":10844:10907   */\n    tag_281:\n        /* \"#utility.yul\":10791:10913   */\n      pop\n      jump\t// out\n\n    auxdata: 0xa2646970667358221220b46fc8d5ca23a19290515a790ef763a11bf932dbadf134f1b0925ab72ff43d2964736f6c63430008070033\n}\n",
				"bytecode": {
					"linkReferences": {},
					"object": "60806040526000600455600060055560006006553480156200002057600080fd5b50336000806101000a81548173ffffffffffffffffffffffffffffffffffffffff021916908373ffffffffffffffffffffffffffffffffffffffff16021790555062000071620000b560201b60201c565b620000816200021560201b60201c565b6000600b60006101000a81548160ff02191690836002811115620000aa57620000a96200075d565b5b0217905550620007bb565b620000fb6040518060400160405280600b81526020017f43616e6469646174652031000000000000000000000000000000000000000000815250620004d360201b60201c565b620001416040518060400160405280600b81526020017f43616e6469646174652032000000000000000000000000000000000000000000815250620004d360201b60201c565b620001876040518060400160405280600b81526020017f43616e6469646174652033000000000000000000000000000000000000000000815250620004d360201b60201c565b620001cd6040518060400160405280600b81526020017f43616e6469646174652034000000000000000000000000000000000000000000815250620004d360201b60201c565b620002136040518060400160405280600b81526020017f43616e6469646174652035000000000000000000000000000000000000000000815250620004d360201b60201c565b565b6200025b6040518060400160405280601181526020017f506f6c6c696e672053746174696f6e20310000000000000000000000000000008152506200055960201b60201c565b620002a16040518060400160405280601181526020017f506f6c6c696e672053746174696f6e20320000000000000000000000000000008152506200055960201b60201c565b620002e76040518060400160405280601181526020017f506f6c6c696e672053746174696f6e20330000000000000000000000000000008152506200055960201b60201c565b6200032d6040518060400160405280601181526020017f506f6c6c696e672053746174696f6e20340000000000000000000000000000008152506200055960201b60201c565b620003736040518060400160405280601181526020017f506f6c6c696e672053746174696f6e20350000000000000000000000000000008152506200055960201b60201c565b620003b96040518060400160405280601181526020017f506f6c6c696e672053746174696f6e20360000000000000000000000000000008152506200055960201b60201c565b620003ff6040518060400160405280601181526020017f506f6c6c696e672053746174696f6e20370000000000000000000000000000008152506200055960201b60201c565b620004456040518060400160405280601181526020017f506f6c6c696e672053746174696f6e20380000000000000000000000000000008152506200055960201b60201c565b6200048b6040518060400160405280601181526020017f506f6c6c696e672053746174696f6e20390000000000000000000000000000008152506200055960201b60201c565b620004d16040518060400160405280601281526020017f506f6c6c696e672053746174696f6e20313000000000000000000000000000008152506200055960201b60201c565b565b60016000815480929190620004e890620006e0565b919050555060405180606001604052806001548152602001828152602001600081525060076000600154815260200190815260200160002060008201518160000155602082015181600101908051906020019062000548929190620005f0565b506040820151816002015590505050565b600260008154809291906200056e90620006e0565b919050555060405180608001604052806002548152602001828152602001600081526020016000815250600860006002548152602001908152602001600020600082015181600001556020820151816001019080519060200190620005d5929190620005f0565b50604082015181600201556060820151816003015590505050565b828054620005fe90620006aa565b90600052602060002090601f0160209004810192826200062257600085556200066e565b82601f106200063d57805160ff19168380011785556200066e565b828001600101855582156200066e579182015b828111156200066d57825182559160200191906001019062000650565b5b5090506200067d919062000681565b5090565b5b808211156200069c57600081600090555060010162000682565b5090565b6000819050919050565b60006002820490506001821680620006c357607f821691505b60208210811415620006da57620006d96200078c565b5b50919050565b6000620006ed82620006a0565b91507fffffffffffffffffffffffffffffffffffffffffffffffffffffffffffffffff8214156200072357620007226200072e565b5b600182019050919050565b7f4e487b7100000000000000000000000000000000000000000000000000000000600052601160045260246000fd5b7f4e487b7100000000000000000000000000000000000000000000000000000000600052602160045260246000fd5b7f4e487b7100000000000000000000000000000000000000000000000000000000600052602260045260246000fd5b61119380620007cb6000396000f3fe608060405234801561001057600080fd5b50600436106100e95760003560e01c8063a3ec138d1161008c578063cab2d76e11610066578063cab2d76e14610240578063df9f1a0714610270578063f3a8286f1461028e578063fe2442d7146102ac576100e9565b8063a3ec138d146101d6578063b9f05f2f14610206578063c19d93fb14610222576100e9565b80633477ee2e116100c85780633477ee2e146101485780634763d4e71461017a5780634c0a6af0146101ae57806353357ad0146101b8576100e9565b8062aa7464146100ee5780630d15fd771461010c5780632d35a8a21461012a575b600080fd5b6100f66102df565b6040516101039190610e24565b60405180910390f35b6101146102e5565b6040516101219190610e24565b60405180910390f35b6101326102eb565b60405161013f9190610e24565b60405180910390f35b610162600480360381019061015d9190610c58565b6102f1565b60405161017193929190610e3f565b60405180910390f35b610194600480360381019061018f9190610b98565b6103a3565b6040516101a5959493929190610d76565b60405180910390f35b6101b66103f3565b005b6101c06104ba565b6040516101cd9190610d40565b60405180910390f35b6101f060048036038101906101eb9190610b98565b6104de565b6040516101fd9190610d5b565b60405180910390f35b610220600480360381019061021b9190610bc5565b6104fe565b005b61022a610791565b6040516102379190610dc9565b60405180910390f35b61025a60048036038101906102559190610c05565b6107a4565b6040516102679190610d5b565b60405180910390f35b610278610a01565b6040516102859190610e24565b60405180910390f35b610296610a07565b6040516102a39190610e24565b60405180910390f35b6102c660048036038101906102c19190610c58565b610a0d565b6040516102d69493929190610e7d565b60405180910390f35b60035481565b60065481565b60015481565b600760205280600052604060002060009150905080600001549080600101805461031a90610f85565b80601f016020809104026020016040519081016040528092919081815260200182805461034690610f85565b80156103935780601f1061036857610100808354040283529160200191610393565b820191906000526020600020905b81548152906001019060200180831161037657829003601f168201915b5050505050908060020154905083565b60096020528060005260406000206000915090508060000160009054906101000a900460ff16908060000160019054906101000a900460ff16908060010154908060020154908060030154905085565b60008060028111156104085761040761102f565b5b600b60009054906101000a900460ff16600281111561042a5761042961102f565b5b1461043457600080fd5b60008054906101000a900473ffffffffffffffffffffffffffffffffffffffff1673ffffffffffffffffffffffffffffffffffffffff163373ffffffffffffffffffffffffffffffffffffffff161461048c57600080fd5b6001600b60006101000a81548160ff021916908360028111156104b2576104b161102f565b5b021790555050565b60008054906101000a900473ffffffffffffffffffffffffffffffffffffffff1681565b600a6020528060005260406000206000915054906101000a900460ff1681565b60008060028111156105135761051261102f565b5b600b60009054906101000a900460ff1660028111156105355761053461102f565b5b1461053f57600080fd5b60008054906101000a900473ffffffffffffffffffffffffffffffffffffffff1673ffffffffffffffffffffffffffffffffffffffff163373ffffffffffffffffffffffffffffffffffffffff161461059757600080fd5b60001515600960008573ffffffffffffffffffffffffffffffffffffffff1673ffffffffffffffffffffffffffffffffffffffff16815260200190815260200160002060000160009054906101000a900460ff1615151461062d576040517f08c379a000000000000000000000000000000000000000000000000000000000815260040161062490610e04565b60405180910390fd5b6001821015801561064057506002548211155b61067f576040517f08c379a000000000000000000000000000000000000000000000000000000000815260040161067690610de4565b60405180910390fd5b610687610b3b565b60018160000190151590811515815250506000816020019015159081151581525050600081604001818152505082816060018181525050600081608001818152505080600960008673ffffffffffffffffffffffffffffffffffffffff1673ffffffffffffffffffffffffffffffffffffffff16815260200190815260200160002060008201518160000160006101000a81548160ff02191690831515021790555060208201518160000160016101000a81548160ff02191690831515021790555060408201518160010155606082015181600201556080820151816003015590505061077383610ac5565b6003600081548092919061078690610fb7565b919050555050505050565b600b60009054906101000a900460ff1681565b600060018060028111156107bb576107ba61102f565b5b600b60009054906101000a900460ff1660028111156107dd576107dc61102f565b5b146107e757600080fd5b6000600960003373ffffffffffffffffffffffffffffffffffffffff1673ffffffffffffffffffffffffffffffffffffffff16815260200190815260200160002060000160009054906101000a900460ff1680156108925750600960003373ffffffffffffffffffffffffffffffffffffffff1673ffffffffffffffffffffffffffffffffffffffff16815260200190815260200160002060000160019054906101000a900460ff16155b156109f55784600960003373ffffffffffffffffffffffffffffffffffffffff1673ffffffffffffffffffffffffffffffffffffffff1681526020019081526020016000206001018190555083600960003373ffffffffffffffffffffffffffffffffffffffff1673ffffffffffffffffffffffffffffffffffffffff168152602001908152602001600020600301819055506001600960003373ffffffffffffffffffffffffffffffffffffffff1673ffffffffffffffffffffffffffffffffffffffff16815260200190815260200160002060000160016101000a81548160ff0219169083151502179055506008600085815260200190815260200160002060030160008154809291906109a790610fb7565b91905055506007600086815260200190815260200160002060020160008154809291906109d390610fb7565b9190505550600660008154809291906109eb90610fb7565b9190505550600190505b80925050509392505050565b60025481565b60055481565b6008602052806000526040600020600091509050806000015490806001018054610a3690610f85565b80601f0160208091040260200160405190810160405280929190818152602001828054610a6290610f85565b8015610aaf5780601f10610a8457610100808354040283529160200191610aaf565b820191906000526020600020905b815481529060010190602001808311610a9257829003601f168201915b5050505050908060020154908060030154905084565b6000600190505b6002548111610b37578160086000838152602001908152602001600020600001541415610b2457600860008281526020019081526020016000206002016000815480929190610b1a90610fb7565b9190505550610b37565b8080610b2f90610fb7565b915050610acc565b5050565b6040518060a001604052806000151581526020016000151581526020016000815260200160008152602001600081525090565b600081359050610b7d8161112f565b92915050565b600081359050610b9281611146565b92915050565b600060208284031215610bae57610bad61108d565b5b6000610bbc84828501610b6e565b91505092915050565b60008060408385031215610bdc57610bdb61108d565b5b6000610bea85828601610b6e565b9250506020610bfb85828601610b83565b9150509250929050565b600080600060608486031215610c1e57610c1d61108d565b5b6000610c2c86828701610b6e565b9350506020610c3d86828701610b83565b9250506040610c4e86828701610b83565b9150509250925092565b600060208284031215610c6e57610c6d61108d565b5b6000610c7c84828501610b83565b91505092915050565b610c8e81610ee5565b82525050565b610c9d81610ef7565b82525050565b610cac81610f40565b82525050565b6000610cbd82610ec9565b610cc78185610ed4565b9350610cd7818560208601610f52565b610ce081611092565b840191505092915050565b6000610cf8602a83610ed4565b9150610d03826110a3565b604082019050919050565b6000610d1b601c83610ed4565b9150610d26826110f2565b602082019050919050565b610d3a81610f36565b82525050565b6000602082019050610d556000830184610c85565b92915050565b6000602082019050610d706000830184610c94565b92915050565b600060a082019050610d8b6000830188610c94565b610d986020830187610c94565b610da56040830186610d31565b610db26060830185610d31565b610dbf6080830184610d31565b9695505050505050565b6000602082019050610dde6000830184610ca3565b92915050565b60006020820190508181036000830152610dfd81610ceb565b9050919050565b60006020820190508181036000830152610e1d81610d0e565b9050919050565b6000602082019050610e396000830184610d31565b92915050565b6000606082019050610e546000830186610d31565b8181036020830152610e668185610cb2565b9050610e756040830184610d31565b949350505050565b6000608082019050610e926000830187610d31565b8181036020830152610ea48186610cb2565b9050610eb36040830185610d31565b610ec06060830184610d31565b95945050505050565b600081519050919050565b600082825260208201905092915050565b6000610ef082610f16565b9050919050565b60008115159050919050565b6000819050610f118261111b565b919050565b600073ffffffffffffffffffffffffffffffffffffffff82169050919050565b6000819050919050565b6000610f4b82610f03565b9050919050565b60005b83811015610f70578082015181840152602081019050610f55565b83811115610f7f576000848401525b50505050565b60006002820490506001821680610f9d57607f821691505b60208210811415610fb157610fb061105e565b5b50919050565b6000610fc282610f36565b91507fffffffffffffffffffffffffffffffffffffffffffffffffffffffffffffffff821415610ff557610ff4611000565b5b600182019050919050565b7f4e487b7100000000000000000000000000000000000000000000000000000000600052601160045260246000fd5b7f4e487b7100000000000000000000000000000000000000000000000000000000600052602160045260246000fd5b7f4e487b7100000000000000000000000000000000000000000000000000000000600052602260045260246000fd5b600080fd5b6000601f19601f8301169050919050565b7f506c656173652070726f7669646520612076616c696420706f6c6c696e67207360008201527f746174696f6e2049442e00000000000000000000000000000000000000000000602082015250565b7f566f74657220697320616c726561647920726567697374657265642e00000000600082015250565b6003811061112c5761112b61102f565b5b50565b61113881610ee5565b811461114357600080fd5b50565b61114f81610f36565b811461115a57600080fd5b5056fea2646970667358221220b46fc8d5ca23a19290515a790ef763a11bf932dbadf134f1b0925ab72ff43d2964736f6c63430008070033",
					"opcodes": "PUSH1 0x80 PUSH1 0x40 MSTORE PUSH1 0x0 PUSH1 0x4 SSTORE PUSH1 0x0 PUSH1 0x5 SSTORE PUSH1 0x0 PUSH1 0x6 SSTORE CALLVALUE DUP1 ISZERO PUSH3 0x20 JUMPI PUSH1 0x0 DUP1 REVERT JUMPDEST POP CALLER PUSH1 0x0 DUP1 PUSH2 0x100 EXP DUP2 SLOAD DUP2 PUSH20 0xFFFFFFFFFFFFFFFFFFFFFFFFFFFFFFFFFFFFFFFF MUL NOT AND SWAP1 DUP4 PUSH20 0xFFFFFFFFFFFFFFFFFFFFFFFFFFFFFFFFFFFFFFFF AND MUL OR SWAP1 SSTORE POP PUSH3 0x71 PUSH3 0xB5 PUSH1 0x20 SHL PUSH1 0x20 SHR JUMP JUMPDEST PUSH3 0x81 PUSH3 0x215 PUSH1 0x20 SHL PUSH1 0x20 SHR JUMP JUMPDEST PUSH1 0x0 PUSH1 0xB PUSH1 0x0 PUSH2 0x100 EXP DUP2 SLOAD DUP2 PUSH1 0xFF MUL NOT AND SWAP1 DUP4 PUSH1 0x2 DUP2 GT ISZERO PUSH3 0xAA JUMPI PUSH3 0xA9 PUSH3 0x75D JUMP JUMPDEST JUMPDEST MUL OR SWAP1 SSTORE POP PUSH3 0x7BB JUMP JUMPDEST PUSH3 0xFB PUSH1 0x40 MLOAD DUP1 PUSH1 0x40 ADD PUSH1 0x40 MSTORE DUP1 PUSH1 0xB DUP2 MSTORE PUSH1 0x20 ADD PUSH32 0x43616E6469646174652031000000000000000000000000000000000000000000 DUP2 MSTORE POP PUSH3 0x4D3 PUSH1 0x20 SHL PUSH1 0x20 SHR JUMP JUMPDEST PUSH3 0x141 PUSH1 0x40 MLOAD DUP1 PUSH1 0x40 ADD PUSH1 0x40 MSTORE DUP1 PUSH1 0xB DUP2 MSTORE PUSH1 0x20 ADD PUSH32 0x43616E6469646174652032000000000000000000000000000000000000000000 DUP2 MSTORE POP PUSH3 0x4D3 PUSH1 0x20 SHL PUSH1 0x20 SHR JUMP JUMPDEST PUSH3 0x187 PUSH1 0x40 MLOAD DUP1 PUSH1 0x40 ADD PUSH1 0x40 MSTORE DUP1 PUSH1 0xB DUP2 MSTORE PUSH1 0x20 ADD PUSH32 0x43616E6469646174652033000000000000000000000000000000000000000000 DUP2 MSTORE POP PUSH3 0x4D3 PUSH1 0x20 SHL PUSH1 0x20 SHR JUMP JUMPDEST PUSH3 0x1CD PUSH1 0x40 MLOAD DUP1 PUSH1 0x40 ADD PUSH1 0x40 MSTORE DUP1 PUSH1 0xB DUP2 MSTORE PUSH1 0x20 ADD PUSH32 0x43616E6469646174652034000000000000000000000000000000000000000000 DUP2 MSTORE POP PUSH3 0x4D3 PUSH1 0x20 SHL PUSH1 0x20 SHR JUMP JUMPDEST PUSH3 0x213 PUSH1 0x40 MLOAD DUP1 PUSH1 0x40 ADD PUSH1 0x40 MSTORE DUP1 PUSH1 0xB DUP2 MSTORE PUSH1 0x20 ADD PUSH32 0x43616E6469646174652035000000000000000000000000000000000000000000 DUP2 MSTORE POP PUSH3 0x4D3 PUSH1 0x20 SHL PUSH1 0x20 SHR JUMP JUMPDEST JUMP JUMPDEST PUSH3 0x25B PUSH1 0x40 MLOAD DUP1 PUSH1 0x40 ADD PUSH1 0x40 MSTORE DUP1 PUSH1 0x11 DUP2 MSTORE PUSH1 0x20 ADD PUSH32 0x506F6C6C696E672053746174696F6E2031000000000000000000000000000000 DUP2 MSTORE POP PUSH3 0x559 PUSH1 0x20 SHL PUSH1 0x20 SHR JUMP JUMPDEST PUSH3 0x2A1 PUSH1 0x40 MLOAD DUP1 PUSH1 0x40 ADD PUSH1 0x40 MSTORE DUP1 PUSH1 0x11 DUP2 MSTORE PUSH1 0x20 ADD PUSH32 0x506F6C6C696E672053746174696F6E2032000000000000000000000000000000 DUP2 MSTORE POP PUSH3 0x559 PUSH1 0x20 SHL PUSH1 0x20 SHR JUMP JUMPDEST PUSH3 0x2E7 PUSH1 0x40 MLOAD DUP1 PUSH1 0x40 ADD PUSH1 0x40 MSTORE DUP1 PUSH1 0x11 DUP2 MSTORE PUSH1 0x20 ADD PUSH32 0x506F6C6C696E672053746174696F6E2033000000000000000000000000000000 DUP2 MSTORE POP PUSH3 0x559 PUSH1 0x20 SHL PUSH1 0x20 SHR JUMP JUMPDEST PUSH3 0x32D PUSH1 0x40 MLOAD DUP1 PUSH1 0x40 ADD PUSH1 0x40 MSTORE DUP1 PUSH1 0x11 DUP2 MSTORE PUSH1 0x20 ADD PUSH32 0x506F6C6C696E672053746174696F6E2034000000000000000000000000000000 DUP2 MSTORE POP PUSH3 0x559 PUSH1 0x20 SHL PUSH1 0x20 SHR JUMP JUMPDEST PUSH3 0x373 PUSH1 0x40 MLOAD DUP1 PUSH1 0x40 ADD PUSH1 0x40 MSTORE DUP1 PUSH1 0x11 DUP2 MSTORE PUSH1 0x20 ADD PUSH32 0x506F6C6C696E672053746174696F6E2035000000000000000000000000000000 DUP2 MSTORE POP PUSH3 0x559 PUSH1 0x20 SHL PUSH1 0x20 SHR JUMP JUMPDEST PUSH3 0x3B9 PUSH1 0x40 MLOAD DUP1 PUSH1 0x40 ADD PUSH1 0x40 MSTORE DUP1 PUSH1 0x11 DUP2 MSTORE PUSH1 0x20 ADD PUSH32 0x506F6C6C696E672053746174696F6E2036000000000000000000000000000000 DUP2 MSTORE POP PUSH3 0x559 PUSH1 0x20 SHL PUSH1 0x20 SHR JUMP JUMPDEST PUSH3 0x3FF PUSH1 0x40 MLOAD DUP1 PUSH1 0x40 ADD PUSH1 0x40 MSTORE DUP1 PUSH1 0x11 DUP2 MSTORE PUSH1 0x20 ADD PUSH32 0x506F6C6C696E672053746174696F6E2037000000000000000000000000000000 DUP2 MSTORE POP PUSH3 0x559 PUSH1 0x20 SHL PUSH1 0x20 SHR JUMP JUMPDEST PUSH3 0x445 PUSH1 0x40 MLOAD DUP1 PUSH1 0x40 ADD PUSH1 0x40 MSTORE DUP1 PUSH1 0x11 DUP2 MSTORE PUSH1 0x20 ADD PUSH32 0x506F6C6C696E672053746174696F6E2038000000000000000000000000000000 DUP2 MSTORE POP PUSH3 0x559 PUSH1 0x20 SHL PUSH1 0x20 SHR JUMP JUMPDEST PUSH3 0x48B PUSH1 0x40 MLOAD DUP1 PUSH1 0x40 ADD PUSH1 0x40 MSTORE DUP1 PUSH1 0x11 DUP2 MSTORE PUSH1 0x20 ADD PUSH32 0x506F6C6C696E672053746174696F6E2039000000000000000000000000000000 DUP2 MSTORE POP PUSH3 0x559 PUSH1 0x20 SHL PUSH1 0x20 SHR JUMP JUMPDEST PUSH3 0x4D1 PUSH1 0x40 MLOAD DUP1 PUSH1 0x40 ADD PUSH1 0x40 MSTORE DUP1 PUSH1 0x12 DUP2 MSTORE PUSH1 0x20 ADD PUSH32 0x506F6C6C696E672053746174696F6E2031300000000000000000000000000000 DUP2 MSTORE POP PUSH3 0x559 PUSH1 0x20 SHL PUSH1 0x20 SHR JUMP JUMPDEST JUMP JUMPDEST PUSH1 0x1 PUSH1 0x0 DUP2 SLOAD DUP1 SWAP3 SWAP2 SWAP1 PUSH3 0x4E8 SWAP1 PUSH3 0x6E0 JUMP JUMPDEST SWAP2 SWAP1 POP SSTORE POP PUSH1 0x40 MLOAD DUP1 PUSH1 0x60 ADD PUSH1 0x40 MSTORE DUP1 PUSH1 0x1 SLOAD DUP2 MSTORE PUSH1 0x20 ADD DUP3 DUP2 MSTORE PUSH1 0x20 ADD PUSH1 0x0 DUP2 MSTORE POP PUSH1 0x7 PUSH1 0x0 PUSH1 0x1 SLOAD DUP2 MSTORE PUSH1 0x20 ADD SWAP1 DUP2 MSTORE PUSH1 0x20 ADD PUSH1 0x0 KECCAK256 PUSH1 0x0 DUP3 ADD MLOAD DUP2 PUSH1 0x0 ADD SSTORE PUSH1 0x20 DUP3 ADD MLOAD DUP2 PUSH1 0x1 ADD SWAP1 DUP1 MLOAD SWAP1 PUSH1 0x20 ADD SWAP1 PUSH3 0x548 SWAP3 SWAP2 SWAP1 PUSH3 0x5F0 JUMP JUMPDEST POP PUSH1 0x40 DUP3 ADD MLOAD DUP2 PUSH1 0x2 ADD SSTORE SWAP1 POP POP POP JUMP JUMPDEST PUSH1 0x2 PUSH1 0x0 DUP2 SLOAD DUP1 SWAP3 SWAP2 SWAP1 PUSH3 0x56E SWAP1 PUSH3 0x6E0 JUMP JUMPDEST SWAP2 SWAP1 POP SSTORE POP PUSH1 0x40 MLOAD DUP1 PUSH1 0x80 ADD PUSH1 0x40 MSTORE DUP1 PUSH1 0x2 SLOAD DUP2 MSTORE PUSH1 0x20 ADD DUP3 DUP2 MSTORE PUSH1 0x20 ADD PUSH1 0x0 DUP2 MSTORE PUSH1 0x20 ADD PUSH1 0x0 DUP2 MSTORE POP PUSH1 0x8 PUSH1 0x0 PUSH1 0x2 SLOAD DUP2 MSTORE PUSH1 0x20 ADD SWAP1 DUP2 MSTORE PUSH1 0x20 ADD PUSH1 0x0 KECCAK256 PUSH1 0x0 DUP3 ADD MLOAD DUP2 PUSH1 0x0 ADD SSTORE PUSH1 0x20 DUP3 ADD MLOAD DUP2 PUSH1 0x1 ADD SWAP1 DUP1 MLOAD SWAP1 PUSH1 0x20 ADD SWAP1 PUSH3 0x5D5 SWAP3 SWAP2 SWAP1 PUSH3 0x5F0 JUMP JUMPDEST POP PUSH1 0x40 DUP3 ADD MLOAD DUP2 PUSH1 0x2 ADD SSTORE PUSH1 0x60 DUP3 ADD MLOAD DUP2 PUSH1 0x3 ADD SSTORE SWAP1 POP POP POP JUMP JUMPDEST DUP3 DUP1 SLOAD PUSH3 0x5FE SWAP1 PUSH3 0x6AA JUMP JUMPDEST SWAP1 PUSH1 0x0 MSTORE PUSH1 0x20 PUSH1 0x0 KECCAK256 SWAP1 PUSH1 0x1F ADD PUSH1 0x20 SWAP1 DIV DUP2 ADD SWAP3 DUP3 PUSH3 0x622 JUMPI PUSH1 0x0 DUP6 SSTORE PUSH3 0x66E JUMP JUMPDEST DUP3 PUSH1 0x1F LT PUSH3 0x63D JUMPI DUP1 MLOAD PUSH1 0xFF NOT AND DUP4 DUP1 ADD OR DUP6 SSTORE PUSH3 0x66E JUMP JUMPDEST DUP3 DUP1 ADD PUSH1 0x1 ADD DUP6 SSTORE DUP3 ISZERO PUSH3 0x66E JUMPI SWAP2 DUP3 ADD JUMPDEST DUP3 DUP2 GT ISZERO PUSH3 0x66D JUMPI DUP3 MLOAD DUP3 SSTORE SWAP2 PUSH1 0x20 ADD SWAP2 SWAP1 PUSH1 0x1 ADD SWAP1 PUSH3 0x650 JUMP JUMPDEST JUMPDEST POP SWAP1 POP PUSH3 0x67D SWAP2 SWAP1 PUSH3 0x681 JUMP JUMPDEST POP SWAP1 JUMP JUMPDEST JUMPDEST DUP1 DUP3 GT ISZERO PUSH3 0x69C JUMPI PUSH1 0x0 DUP2 PUSH1 0x0 SWAP1 SSTORE POP PUSH1 0x1 ADD PUSH3 0x682 JUMP JUMPDEST POP SWAP1 JUMP JUMPDEST PUSH1 0x0 DUP2 SWAP1 POP SWAP2 SWAP1 POP JUMP JUMPDEST PUSH1 0x0 PUSH1 0x2 DUP3 DIV SWAP1 POP PUSH1 0x1 DUP3 AND DUP1 PUSH3 0x6C3 JUMPI PUSH1 0x7F DUP3 AND SWAP2 POP JUMPDEST PUSH1 0x20 DUP3 LT DUP2 EQ ISZERO PUSH3 0x6DA JUMPI PUSH3 0x6D9 PUSH3 0x78C JUMP JUMPDEST JUMPDEST POP SWAP2 SWAP1 POP JUMP JUMPDEST PUSH1 0x0 PUSH3 0x6ED DUP3 PUSH3 0x6A0 JUMP JUMPDEST SWAP2 POP PUSH32 0xFFFFFFFFFFFFFFFFFFFFFFFFFFFFFFFFFFFFFFFFFFFFFFFFFFFFFFFFFFFFFFFF DUP3 EQ ISZERO PUSH3 0x723 JUMPI PUSH3 0x722 PUSH3 0x72E JUMP JUMPDEST JUMPDEST PUSH1 0x1 DUP3 ADD SWAP1 POP SWAP2 SWAP1 POP JUMP JUMPDEST PUSH32 0x4E487B7100000000000000000000000000000000000000000000000000000000 PUSH1 0x0 MSTORE PUSH1 0x11 PUSH1 0x4 MSTORE PUSH1 0x24 PUSH1 0x0 REVERT JUMPDEST PUSH32 0x4E487B7100000000000000000000000000000000000000000000000000000000 PUSH1 0x0 MSTORE PUSH1 0x21 PUSH1 0x4 MSTORE PUSH1 0x24 PUSH1 0x0 REVERT JUMPDEST PUSH32 0x4E487B7100000000000000000000000000000000000000000000000000000000 PUSH1 0x0 MSTORE PUSH1 0x22 PUSH1 0x4 MSTORE PUSH1 0x24 PUSH1 0x0 REVERT JUMPDEST PUSH2 0x1193 DUP1 PUSH3 0x7CB PUSH1 0x0 CODECOPY PUSH1 0x0 RETURN INVALID PUSH1 0x80 PUSH1 0x40 MSTORE CALLVALUE DUP1 ISZERO PUSH2 0x10 JUMPI PUSH1 0x0 DUP1 REVERT JUMPDEST POP PUSH1 0x4 CALLDATASIZE LT PUSH2 0xE9 JUMPI PUSH1 0x0 CALLDATALOAD PUSH1 0xE0 SHR DUP1 PUSH4 0xA3EC138D GT PUSH2 0x8C JUMPI DUP1 PUSH4 0xCAB2D76E GT PUSH2 0x66 JUMPI DUP1 PUSH4 0xCAB2D76E EQ PUSH2 0x240 JUMPI DUP1 PUSH4 0xDF9F1A07 EQ PUSH2 0x270 JUMPI DUP1 PUSH4 0xF3A8286F EQ PUSH2 0x28E JUMPI DUP1 PUSH4 0xFE2442D7 EQ PUSH2 0x2AC JUMPI PUSH2 0xE9 JUMP JUMPDEST DUP1 PUSH4 0xA3EC138D EQ PUSH2 0x1D6 JUMPI DUP1 PUSH4 0xB9F05F2F EQ PUSH2 0x206 JUMPI DUP1 PUSH4 0xC19D93FB EQ PUSH2 0x222 JUMPI PUSH2 0xE9 JUMP JUMPDEST DUP1 PUSH4 0x3477EE2E GT PUSH2 0xC8 JUMPI DUP1 PUSH4 0x3477EE2E EQ PUSH2 0x148 JUMPI DUP1 PUSH4 0x4763D4E7 EQ PUSH2 0x17A JUMPI DUP1 PUSH4 0x4C0A6AF0 EQ PUSH2 0x1AE JUMPI DUP1 PUSH4 0x53357AD0 EQ PUSH2 0x1B8 JUMPI PUSH2 0xE9 JUMP JUMPDEST DUP1 PUSH3 0xAA7464 EQ PUSH2 0xEE JUMPI DUP1 PUSH4 0xD15FD77 EQ PUSH2 0x10C JUMPI DUP1 PUSH4 0x2D35A8A2 EQ PUSH2 0x12A JUMPI JUMPDEST PUSH1 0x0 DUP1 REVERT JUMPDEST PUSH2 0xF6 PUSH2 0x2DF JUMP JUMPDEST PUSH1 0x40 MLOAD PUSH2 0x103 SWAP2 SWAP1 PUSH2 0xE24 JUMP JUMPDEST PUSH1 0x40 MLOAD DUP1 SWAP2 SUB SWAP1 RETURN JUMPDEST PUSH2 0x114 PUSH2 0x2E5 JUMP JUMPDEST PUSH1 0x40 MLOAD PUSH2 0x121 SWAP2 SWAP1 PUSH2 0xE24 JUMP JUMPDEST PUSH1 0x40 MLOAD DUP1 SWAP2 SUB SWAP1 RETURN JUMPDEST PUSH2 0x132 PUSH2 0x2EB JUMP JUMPDEST PUSH1 0x40 MLOAD PUSH2 0x13F SWAP2 SWAP1 PUSH2 0xE24 JUMP JUMPDEST PUSH1 0x40 MLOAD DUP1 SWAP2 SUB SWAP1 RETURN JUMPDEST PUSH2 0x162 PUSH1 0x4 DUP1 CALLDATASIZE SUB DUP2 ADD SWAP1 PUSH2 0x15D SWAP2 SWAP1 PUSH2 0xC58 JUMP JUMPDEST PUSH2 0x2F1 JUMP JUMPDEST PUSH1 0x40 MLOAD PUSH2 0x171 SWAP4 SWAP3 SWAP2 SWAP1 PUSH2 0xE3F JUMP JUMPDEST PUSH1 0x40 MLOAD DUP1 SWAP2 SUB SWAP1 RETURN JUMPDEST PUSH2 0x194 PUSH1 0x4 DUP1 CALLDATASIZE SUB DUP2 ADD SWAP1 PUSH2 0x18F SWAP2 SWAP1 PUSH2 0xB98 JUMP JUMPDEST PUSH2 0x3A3 JUMP JUMPDEST PUSH1 0x40 MLOAD PUSH2 0x1A5 SWAP6 SWAP5 SWAP4 SWAP3 SWAP2 SWAP1 PUSH2 0xD76 JUMP JUMPDEST PUSH1 0x40 MLOAD DUP1 SWAP2 SUB SWAP1 RETURN JUMPDEST PUSH2 0x1B6 PUSH2 0x3F3 JUMP JUMPDEST STOP JUMPDEST PUSH2 0x1C0 PUSH2 0x4BA JUMP JUMPDEST PUSH1 0x40 MLOAD PUSH2 0x1CD SWAP2 SWAP1 PUSH2 0xD40 JUMP JUMPDEST PUSH1 0x40 MLOAD DUP1 SWAP2 SUB SWAP1 RETURN JUMPDEST PUSH2 0x1F0 PUSH1 0x4 DUP1 CALLDATASIZE SUB DUP2 ADD SWAP1 PUSH2 0x1EB SWAP2 SWAP1 PUSH2 0xB98 JUMP JUMPDEST PUSH2 0x4DE JUMP JUMPDEST PUSH1 0x40 MLOAD PUSH2 0x1FD SWAP2 SWAP1 PUSH2 0xD5B JUMP JUMPDEST PUSH1 0x40 MLOAD DUP1 SWAP2 SUB SWAP1 RETURN JUMPDEST PUSH2 0x220 PUSH1 0x4 DUP1 CALLDATASIZE SUB DUP2 ADD SWAP1 PUSH2 0x21B SWAP2 SWAP1 PUSH2 0xBC5 JUMP JUMPDEST PUSH2 0x4FE JUMP JUMPDEST STOP JUMPDEST PUSH2 0x22A PUSH2 0x791 JUMP JUMPDEST PUSH1 0x40 MLOAD PUSH2 0x237 SWAP2 SWAP1 PUSH2 0xDC9 JUMP JUMPDEST PUSH1 0x40 MLOAD DUP1 SWAP2 SUB SWAP1 RETURN JUMPDEST PUSH2 0x25A PUSH1 0x4 DUP1 CALLDATASIZE SUB DUP2 ADD SWAP1 PUSH2 0x255 SWAP2 SWAP1 PUSH2 0xC05 JUMP JUMPDEST PUSH2 0x7A4 JUMP JUMPDEST PUSH1 0x40 MLOAD PUSH2 0x267 SWAP2 SWAP1 PUSH2 0xD5B JUMP JUMPDEST PUSH1 0x40 MLOAD DUP1 SWAP2 SUB SWAP1 RETURN JUMPDEST PUSH2 0x278 PUSH2 0xA01 JUMP JUMPDEST PUSH1 0x40 MLOAD PUSH2 0x285 SWAP2 SWAP1 PUSH2 0xE24 JUMP JUMPDEST PUSH1 0x40 MLOAD DUP1 SWAP2 SUB SWAP1 RETURN JUMPDEST PUSH2 0x296 PUSH2 0xA07 JUMP JUMPDEST PUSH1 0x40 MLOAD PUSH2 0x2A3 SWAP2 SWAP1 PUSH2 0xE24 JUMP JUMPDEST PUSH1 0x40 MLOAD DUP1 SWAP2 SUB SWAP1 RETURN JUMPDEST PUSH2 0x2C6 PUSH1 0x4 DUP1 CALLDATASIZE SUB DUP2 ADD SWAP1 PUSH2 0x2C1 SWAP2 SWAP1 PUSH2 0xC58 JUMP JUMPDEST PUSH2 0xA0D JUMP JUMPDEST PUSH1 0x40 MLOAD PUSH2 0x2D6 SWAP5 SWAP4 SWAP3 SWAP2 SWAP1 PUSH2 0xE7D JUMP JUMPDEST PUSH1 0x40 MLOAD DUP1 SWAP2 SUB SWAP1 RETURN JUMPDEST PUSH1 0x3 SLOAD DUP2 JUMP JUMPDEST PUSH1 0x6 SLOAD DUP2 JUMP JUMPDEST PUSH1 0x1 SLOAD DUP2 JUMP JUMPDEST PUSH1 0x7 PUSH1 0x20 MSTORE DUP1 PUSH1 0x0 MSTORE PUSH1 0x40 PUSH1 0x0 KECCAK256 PUSH1 0x0 SWAP2 POP SWAP1 POP DUP1 PUSH1 0x0 ADD SLOAD SWAP1 DUP1 PUSH1 0x1 ADD DUP1 SLOAD PUSH2 0x31A SWAP1 PUSH2 0xF85 JUMP JUMPDEST DUP1 PUSH1 0x1F ADD PUSH1 0x20 DUP1 SWAP2 DIV MUL PUSH1 0x20 ADD PUSH1 0x40 MLOAD SWAP1 DUP2 ADD PUSH1 0x40 MSTORE DUP1 SWAP3 SWAP2 SWAP1 DUP2 DUP2 MSTORE PUSH1 0x20 ADD DUP3 DUP1 SLOAD PUSH2 0x346 SWAP1 PUSH2 0xF85 JUMP JUMPDEST DUP1 ISZERO PUSH2 0x393 JUMPI DUP1 PUSH1 0x1F LT PUSH2 0x368 JUMPI PUSH2 0x100 DUP1 DUP4 SLOAD DIV MUL DUP4 MSTORE SWAP2 PUSH1 0x20 ADD SWAP2 PUSH2 0x393 JUMP JUMPDEST DUP3 ADD SWAP2 SWAP1 PUSH1 0x0 MSTORE PUSH1 0x20 PUSH1 0x0 KECCAK256 SWAP1 JUMPDEST DUP2 SLOAD DUP2 MSTORE SWAP1 PUSH1 0x1 ADD SWAP1 PUSH1 0x20 ADD DUP1 DUP4 GT PUSH2 0x376 JUMPI DUP3 SWAP1 SUB PUSH1 0x1F AND DUP3 ADD SWAP2 JUMPDEST POP POP POP POP POP SWAP1 DUP1 PUSH1 0x2 ADD SLOAD SWAP1 POP DUP4 JUMP JUMPDEST PUSH1 0x9 PUSH1 0x20 MSTORE DUP1 PUSH1 0x0 MSTORE PUSH1 0x40 PUSH1 0x0 KECCAK256 PUSH1 0x0 SWAP2 POP SWAP1 POP DUP1 PUSH1 0x0 ADD PUSH1 0x0 SWAP1 SLOAD SWAP1 PUSH2 0x100 EXP SWAP1 DIV PUSH1 0xFF AND SWAP1 DUP1 PUSH1 0x0 ADD PUSH1 0x1 SWAP1 SLOAD SWAP1 PUSH2 0x100 EXP SWAP1 DIV PUSH1 0xFF AND SWAP1 DUP1 PUSH1 0x1 ADD SLOAD SWAP1 DUP1 PUSH1 0x2 ADD SLOAD SWAP1 DUP1 PUSH1 0x3 ADD SLOAD SWAP1 POP DUP6 JUMP JUMPDEST PUSH1 0x0 DUP1 PUSH1 0x2 DUP2 GT ISZERO PUSH2 0x408 JUMPI PUSH2 0x407 PUSH2 0x102F JUMP JUMPDEST JUMPDEST PUSH1 0xB PUSH1 0x0 SWAP1 SLOAD SWAP1 PUSH2 0x100 EXP SWAP1 DIV PUSH1 0xFF AND PUSH1 0x2 DUP2 GT ISZERO PUSH2 0x42A JUMPI PUSH2 0x429 PUSH2 0x102F JUMP JUMPDEST JUMPDEST EQ PUSH2 0x434 JUMPI PUSH1 0x0 DUP1 REVERT JUMPDEST PUSH1 0x0 DUP1 SLOAD SWAP1 PUSH2 0x100 EXP SWAP1 DIV PUSH20 0xFFFFFFFFFFFFFFFFFFFFFFFFFFFFFFFFFFFFFFFF AND PUSH20 0xFFFFFFFFFFFFFFFFFFFFFFFFFFFFFFFFFFFFFFFF AND CALLER PUSH20 0xFFFFFFFFFFFFFFFFFFFFFFFFFFFFFFFFFFFFFFFF AND EQ PUSH2 0x48C JUMPI PUSH1 0x0 DUP1 REVERT JUMPDEST PUSH1 0x1 PUSH1 0xB PUSH1 0x0 PUSH2 0x100 EXP DUP2 SLOAD DUP2 PUSH1 0xFF MUL NOT AND SWAP1 DUP4 PUSH1 0x2 DUP2 GT ISZERO PUSH2 0x4B2 JUMPI PUSH2 0x4B1 PUSH2 0x102F JUMP JUMPDEST JUMPDEST MUL OR SWAP1 SSTORE POP POP JUMP JUMPDEST PUSH1 0x0 DUP1 SLOAD SWAP1 PUSH2 0x100 EXP SWAP1 DIV PUSH20 0xFFFFFFFFFFFFFFFFFFFFFFFFFFFFFFFFFFFFFFFF AND DUP2 JUMP JUMPDEST PUSH1 0xA PUSH1 0x20 MSTORE DUP1 PUSH1 0x0 MSTORE PUSH1 0x40 PUSH1 0x0 KECCAK256 PUSH1 0x0 SWAP2 POP SLOAD SWAP1 PUSH2 0x100 EXP SWAP1 DIV PUSH1 0xFF AND DUP2 JUMP JUMPDEST PUSH1 0x0 DUP1 PUSH1 0x2 DUP2 GT ISZERO PUSH2 0x513 JUMPI PUSH2 0x512 PUSH2 0x102F JUMP JUMPDEST JUMPDEST PUSH1 0xB PUSH1 0x0 SWAP1 SLOAD SWAP1 PUSH2 0x100 EXP SWAP1 DIV PUSH1 0xFF AND PUSH1 0x2 DUP2 GT ISZERO PUSH2 0x535 JUMPI PUSH2 0x534 PUSH2 0x102F JUMP JUMPDEST JUMPDEST EQ PUSH2 0x53F JUMPI PUSH1 0x0 DUP1 REVERT JUMPDEST PUSH1 0x0 DUP1 SLOAD SWAP1 PUSH2 0x100 EXP SWAP1 DIV PUSH20 0xFFFFFFFFFFFFFFFFFFFFFFFFFFFFFFFFFFFFFFFF AND PUSH20 0xFFFFFFFFFFFFFFFFFFFFFFFFFFFFFFFFFFFFFFFF AND CALLER PUSH20 0xFFFFFFFFFFFFFFFFFFFFFFFFFFFFFFFFFFFFFFFF AND EQ PUSH2 0x597 JUMPI PUSH1 0x0 DUP1 REVERT JUMPDEST PUSH1 0x0 ISZERO ISZERO PUSH1 0x9 PUSH1 0x0 DUP6 PUSH20 0xFFFFFFFFFFFFFFFFFFFFFFFFFFFFFFFFFFFFFFFF AND PUSH20 0xFFFFFFFFFFFFFFFFFFFFFFFFFFFFFFFFFFFFFFFF AND DUP2 MSTORE PUSH1 0x20 ADD SWAP1 DUP2 MSTORE PUSH1 0x20 ADD PUSH1 0x0 KECCAK256 PUSH1 0x0 ADD PUSH1 0x0 SWAP1 SLOAD SWAP1 PUSH2 0x100 EXP SWAP1 DIV PUSH1 0xFF AND ISZERO ISZERO EQ PUSH2 0x62D JUMPI PUSH1 0x40 MLOAD PUSH32 0x8C379A000000000000000000000000000000000000000000000000000000000 DUP2 MSTORE PUSH1 0x4 ADD PUSH2 0x624 SWAP1 PUSH2 0xE04 JUMP JUMPDEST PUSH1 0x40 MLOAD DUP1 SWAP2 SUB SWAP1 REVERT JUMPDEST PUSH1 0x1 DUP3 LT ISZERO DUP1 ISZERO PUSH2 0x640 JUMPI POP PUSH1 0x2 SLOAD DUP3 GT ISZERO JUMPDEST PUSH2 0x67F JUMPI PUSH1 0x40 MLOAD PUSH32 0x8C379A000000000000000000000000000000000000000000000000000000000 DUP2 MSTORE PUSH1 0x4 ADD PUSH2 0x676 SWAP1 PUSH2 0xDE4 JUMP JUMPDEST PUSH1 0x40 MLOAD DUP1 SWAP2 SUB SWAP1 REVERT JUMPDEST PUSH2 0x687 PUSH2 0xB3B JUMP JUMPDEST PUSH1 0x1 DUP2 PUSH1 0x0 ADD SWAP1 ISZERO ISZERO SWAP1 DUP2 ISZERO ISZERO DUP2 MSTORE POP POP PUSH1 0x0 DUP2 PUSH1 0x20 ADD SWAP1 ISZERO ISZERO SWAP1 DUP2 ISZERO ISZERO DUP2 MSTORE POP POP PUSH1 0x0 DUP2 PUSH1 0x40 ADD DUP2 DUP2 MSTORE POP POP DUP3 DUP2 PUSH1 0x60 ADD DUP2 DUP2 MSTORE POP POP PUSH1 0x0 DUP2 PUSH1 0x80 ADD DUP2 DUP2 MSTORE POP POP DUP1 PUSH1 0x9 PUSH1 0x0 DUP7 PUSH20 0xFFFFFFFFFFFFFFFFFFFFFFFFFFFFFFFFFFFFFFFF AND PUSH20 0xFFFFFFFFFFFFFFFFFFFFFFFFFFFFFFFFFFFFFFFF AND DUP2 MSTORE PUSH1 0x20 ADD SWAP1 DUP2 MSTORE PUSH1 0x20 ADD PUSH1 0x0 KECCAK256 PUSH1 0x0 DUP3 ADD MLOAD DUP2 PUSH1 0x0 ADD PUSH1 0x0 PUSH2 0x100 EXP DUP2 SLOAD DUP2 PUSH1 0xFF MUL NOT AND SWAP1 DUP4 ISZERO ISZERO MUL OR SWAP1 SSTORE POP PUSH1 0x20 DUP3 ADD MLOAD DUP2 PUSH1 0x0 ADD PUSH1 0x1 PUSH2 0x100 EXP DUP2 SLOAD DUP2 PUSH1 0xFF MUL NOT AND SWAP1 DUP4 ISZERO ISZERO MUL OR SWAP1 SSTORE POP PUSH1 0x40 DUP3 ADD MLOAD DUP2 PUSH1 0x1 ADD SSTORE PUSH1 0x60 DUP3 ADD MLOAD DUP2 PUSH1 0x2 ADD SSTORE PUSH1 0x80 DUP3 ADD MLOAD DUP2 PUSH1 0x3 ADD SSTORE SWAP1 POP POP PUSH2 0x773 DUP4 PUSH2 0xAC5 JUMP JUMPDEST PUSH1 0x3 PUSH1 0x0 DUP2 SLOAD DUP1 SWAP3 SWAP2 SWAP1 PUSH2 0x786 SWAP1 PUSH2 0xFB7 JUMP JUMPDEST SWAP2 SWAP1 POP SSTORE POP POP POP POP POP JUMP JUMPDEST PUSH1 0xB PUSH1 0x0 SWAP1 SLOAD SWAP1 PUSH2 0x100 EXP SWAP1 DIV PUSH1 0xFF AND DUP2 JUMP JUMPDEST PUSH1 0x0 PUSH1 0x1 DUP1 PUSH1 0x2 DUP2 GT ISZERO PUSH2 0x7BB JUMPI PUSH2 0x7BA PUSH2 0x102F JUMP JUMPDEST JUMPDEST PUSH1 0xB PUSH1 0x0 SWAP1 SLOAD SWAP1 PUSH2 0x100 EXP SWAP1 DIV PUSH1 0xFF AND PUSH1 0x2 DUP2 GT ISZERO PUSH2 0x7DD JUMPI PUSH2 0x7DC PUSH2 0x102F JUMP JUMPDEST JUMPDEST EQ PUSH2 0x7E7 JUMPI PUSH1 0x0 DUP1 REVERT JUMPDEST PUSH1 0x0 PUSH1 0x9 PUSH1 0x0 CALLER PUSH20 0xFFFFFFFFFFFFFFFFFFFFFFFFFFFFFFFFFFFFFFFF AND PUSH20 0xFFFFFFFFFFFFFFFFFFFFFFFFFFFFFFFFFFFFFFFF AND DUP2 MSTORE PUSH1 0x20 ADD SWAP1 DUP2 MSTORE PUSH1 0x20 ADD PUSH1 0x0 KECCAK256 PUSH1 0x0 ADD PUSH1 0x0 SWAP1 SLOAD SWAP1 PUSH2 0x100 EXP SWAP1 DIV PUSH1 0xFF AND DUP1 ISZERO PUSH2 0x892 JUMPI POP PUSH1 0x9 PUSH1 0x0 CALLER PUSH20 0xFFFFFFFFFFFFFFFFFFFFFFFFFFFFFFFFFFFFFFFF AND PUSH20 0xFFFFFFFFFFFFFFFFFFFFFFFFFFFFFFFFFFFFFFFF AND DUP2 MSTORE PUSH1 0x20 ADD SWAP1 DUP2 MSTORE PUSH1 0x20 ADD PUSH1 0x0 KECCAK256 PUSH1 0x0 ADD PUSH1 0x1 SWAP1 SLOAD SWAP1 PUSH2 0x100 EXP SWAP1 DIV PUSH1 0xFF AND ISZERO JUMPDEST ISZERO PUSH2 0x9F5 JUMPI DUP5 PUSH1 0x9 PUSH1 0x0 CALLER PUSH20 0xFFFFFFFFFFFFFFFFFFFFFFFFFFFFFFFFFFFFFFFF AND PUSH20 0xFFFFFFFFFFFFFFFFFFFFFFFFFFFFFFFFFFFFFFFF AND DUP2 MSTORE PUSH1 0x20 ADD SWAP1 DUP2 MSTORE PUSH1 0x20 ADD PUSH1 0x0 KECCAK256 PUSH1 0x1 ADD DUP2 SWAP1 SSTORE POP DUP4 PUSH1 0x9 PUSH1 0x0 CALLER PUSH20 0xFFFFFFFFFFFFFFFFFFFFFFFFFFFFFFFFFFFFFFFF AND PUSH20 0xFFFFFFFFFFFFFFFFFFFFFFFFFFFFFFFFFFFFFFFF AND DUP2 MSTORE PUSH1 0x20 ADD SWAP1 DUP2 MSTORE PUSH1 0x20 ADD PUSH1 0x0 KECCAK256 PUSH1 0x3 ADD DUP2 SWAP1 SSTORE POP PUSH1 0x1 PUSH1 0x9 PUSH1 0x0 CALLER PUSH20 0xFFFFFFFFFFFFFFFFFFFFFFFFFFFFFFFFFFFFFFFF AND PUSH20 0xFFFFFFFFFFFFFFFFFFFFFFFFFFFFFFFFFFFFFFFF AND DUP2 MSTORE PUSH1 0x20 ADD SWAP1 DUP2 MSTORE PUSH1 0x20 ADD PUSH1 0x0 KECCAK256 PUSH1 0x0 ADD PUSH1 0x1 PUSH2 0x100 EXP DUP2 SLOAD DUP2 PUSH1 0xFF MUL NOT AND SWAP1 DUP4 ISZERO ISZERO MUL OR SWAP1 SSTORE POP PUSH1 0x8 PUSH1 0x0 DUP6 DUP2 MSTORE PUSH1 0x20 ADD SWAP1 DUP2 MSTORE PUSH1 0x20 ADD PUSH1 0x0 KECCAK256 PUSH1 0x3 ADD PUSH1 0x0 DUP2 SLOAD DUP1 SWAP3 SWAP2 SWAP1 PUSH2 0x9A7 SWAP1 PUSH2 0xFB7 JUMP JUMPDEST SWAP2 SWAP1 POP SSTORE POP PUSH1 0x7 PUSH1 0x0 DUP7 DUP2 MSTORE PUSH1 0x20 ADD SWAP1 DUP2 MSTORE PUSH1 0x20 ADD PUSH1 0x0 KECCAK256 PUSH1 0x2 ADD PUSH1 0x0 DUP2 SLOAD DUP1 SWAP3 SWAP2 SWAP1 PUSH2 0x9D3 SWAP1 PUSH2 0xFB7 JUMP JUMPDEST SWAP2 SWAP1 POP SSTORE POP PUSH1 0x6 PUSH1 0x0 DUP2 SLOAD DUP1 SWAP3 SWAP2 SWAP1 PUSH2 0x9EB SWAP1 PUSH2 0xFB7 JUMP JUMPDEST SWAP2 SWAP1 POP SSTORE POP PUSH1 0x1 SWAP1 POP JUMPDEST DUP1 SWAP3 POP POP POP SWAP4 SWAP3 POP POP POP JUMP JUMPDEST PUSH1 0x2 SLOAD DUP2 JUMP JUMPDEST PUSH1 0x5 SLOAD DUP2 JUMP JUMPDEST PUSH1 0x8 PUSH1 0x20 MSTORE DUP1 PUSH1 0x0 MSTORE PUSH1 0x40 PUSH1 0x0 KECCAK256 PUSH1 0x0 SWAP2 POP SWAP1 POP DUP1 PUSH1 0x0 ADD SLOAD SWAP1 DUP1 PUSH1 0x1 ADD DUP1 SLOAD PUSH2 0xA36 SWAP1 PUSH2 0xF85 JUMP JUMPDEST DUP1 PUSH1 0x1F ADD PUSH1 0x20 DUP1 SWAP2 DIV MUL PUSH1 0x20 ADD PUSH1 0x40 MLOAD SWAP1 DUP2 ADD PUSH1 0x40 MSTORE DUP1 SWAP3 SWAP2 SWAP1 DUP2 DUP2 MSTORE PUSH1 0x20 ADD DUP3 DUP1 SLOAD PUSH2 0xA62 SWAP1 PUSH2 0xF85 JUMP JUMPDEST DUP1 ISZERO PUSH2 0xAAF JUMPI DUP1 PUSH1 0x1F LT PUSH2 0xA84 JUMPI PUSH2 0x100 DUP1 DUP4 SLOAD DIV MUL DUP4 MSTORE SWAP2 PUSH1 0x20 ADD SWAP2 PUSH2 0xAAF JUMP JUMPDEST DUP3 ADD SWAP2 SWAP1 PUSH1 0x0 MSTORE PUSH1 0x20 PUSH1 0x0 KECCAK256 SWAP1 JUMPDEST DUP2 SLOAD DUP2 MSTORE SWAP1 PUSH1 0x1 ADD SWAP1 PUSH1 0x20 ADD DUP1 DUP4 GT PUSH2 0xA92 JUMPI DUP3 SWAP1 SUB PUSH1 0x1F AND DUP3 ADD SWAP2 JUMPDEST POP POP POP POP POP SWAP1 DUP1 PUSH1 0x2 ADD SLOAD SWAP1 DUP1 PUSH1 0x3 ADD SLOAD SWAP1 POP DUP5 JUMP JUMPDEST PUSH1 0x0 PUSH1 0x1 SWAP1 POP JUMPDEST PUSH1 0x2 SLOAD DUP2 GT PUSH2 0xB37 JUMPI DUP2 PUSH1 0x8 PUSH1 0x0 DUP4 DUP2 MSTORE PUSH1 0x20 ADD SWAP1 DUP2 MSTORE PUSH1 0x20 ADD PUSH1 0x0 KECCAK256 PUSH1 0x0 ADD SLOAD EQ ISZERO PUSH2 0xB24 JUMPI PUSH1 0x8 PUSH1 0x0 DUP3 DUP2 MSTORE PUSH1 0x20 ADD SWAP1 DUP2 MSTORE PUSH1 0x20 ADD PUSH1 0x0 KECCAK256 PUSH1 0x2 ADD PUSH1 0x0 DUP2 SLOAD DUP1 SWAP3 SWAP2 SWAP1 PUSH2 0xB1A SWAP1 PUSH2 0xFB7 JUMP JUMPDEST SWAP2 SWAP1 POP SSTORE POP PUSH2 0xB37 JUMP JUMPDEST DUP1 DUP1 PUSH2 0xB2F SWAP1 PUSH2 0xFB7 JUMP JUMPDEST SWAP2 POP POP PUSH2 0xACC JUMP JUMPDEST POP POP JUMP JUMPDEST PUSH1 0x40 MLOAD DUP1 PUSH1 0xA0 ADD PUSH1 0x40 MSTORE DUP1 PUSH1 0x0 ISZERO ISZERO DUP2 MSTORE PUSH1 0x20 ADD PUSH1 0x0 ISZERO ISZERO DUP2 MSTORE PUSH1 0x20 ADD PUSH1 0x0 DUP2 MSTORE PUSH1 0x20 ADD PUSH1 0x0 DUP2 MSTORE PUSH1 0x20 ADD PUSH1 0x0 DUP2 MSTORE POP SWAP1 JUMP JUMPDEST PUSH1 0x0 DUP2 CALLDATALOAD SWAP1 POP PUSH2 0xB7D DUP2 PUSH2 0x112F JUMP JUMPDEST SWAP3 SWAP2 POP POP JUMP JUMPDEST PUSH1 0x0 DUP2 CALLDATALOAD SWAP1 POP PUSH2 0xB92 DUP2 PUSH2 0x1146 JUMP JUMPDEST SWAP3 SWAP2 POP POP JUMP JUMPDEST PUSH1 0x0 PUSH1 0x20 DUP3 DUP5 SUB SLT ISZERO PUSH2 0xBAE JUMPI PUSH2 0xBAD PUSH2 0x108D JUMP JUMPDEST JUMPDEST PUSH1 0x0 PUSH2 0xBBC DUP5 DUP3 DUP6 ADD PUSH2 0xB6E JUMP JUMPDEST SWAP2 POP POP SWAP3 SWAP2 POP POP JUMP JUMPDEST PUSH1 0x0 DUP1 PUSH1 0x40 DUP4 DUP6 SUB SLT ISZERO PUSH2 0xBDC JUMPI PUSH2 0xBDB PUSH2 0x108D JUMP JUMPDEST JUMPDEST PUSH1 0x0 PUSH2 0xBEA DUP6 DUP3 DUP7 ADD PUSH2 0xB6E JUMP JUMPDEST SWAP3 POP POP PUSH1 0x20 PUSH2 0xBFB DUP6 DUP3 DUP7 ADD PUSH2 0xB83 JUMP JUMPDEST SWAP2 POP POP SWAP3 POP SWAP3 SWAP1 POP JUMP JUMPDEST PUSH1 0x0 DUP1 PUSH1 0x0 PUSH1 0x60 DUP5 DUP7 SUB SLT ISZERO PUSH2 0xC1E JUMPI PUSH2 0xC1D PUSH2 0x108D JUMP JUMPDEST JUMPDEST PUSH1 0x0 PUSH2 0xC2C DUP7 DUP3 DUP8 ADD PUSH2 0xB6E JUMP JUMPDEST SWAP4 POP POP PUSH1 0x20 PUSH2 0xC3D DUP7 DUP3 DUP8 ADD PUSH2 0xB83 JUMP JUMPDEST SWAP3 POP POP PUSH1 0x40 PUSH2 0xC4E DUP7 DUP3 DUP8 ADD PUSH2 0xB83 JUMP JUMPDEST SWAP2 POP POP SWAP3 POP SWAP3 POP SWAP3 JUMP JUMPDEST PUSH1 0x0 PUSH1 0x20 DUP3 DUP5 SUB SLT ISZERO PUSH2 0xC6E JUMPI PUSH2 0xC6D PUSH2 0x108D JUMP JUMPDEST JUMPDEST PUSH1 0x0 PUSH2 0xC7C DUP5 DUP3 DUP6 ADD PUSH2 0xB83 JUMP JUMPDEST SWAP2 POP POP SWAP3 SWAP2 POP POP JUMP JUMPDEST PUSH2 0xC8E DUP2 PUSH2 0xEE5 JUMP JUMPDEST DUP3 MSTORE POP POP JUMP JUMPDEST PUSH2 0xC9D DUP2 PUSH2 0xEF7 JUMP JUMPDEST DUP3 MSTORE POP POP JUMP JUMPDEST PUSH2 0xCAC DUP2 PUSH2 0xF40 JUMP JUMPDEST DUP3 MSTORE POP POP JUMP JUMPDEST PUSH1 0x0 PUSH2 0xCBD DUP3 PUSH2 0xEC9 JUMP JUMPDEST PUSH2 0xCC7 DUP2 DUP6 PUSH2 0xED4 JUMP JUMPDEST SWAP4 POP PUSH2 0xCD7 DUP2 DUP6 PUSH1 0x20 DUP7 ADD PUSH2 0xF52 JUMP JUMPDEST PUSH2 0xCE0 DUP2 PUSH2 0x1092 JUMP JUMPDEST DUP5 ADD SWAP2 POP POP SWAP3 SWAP2 POP POP JUMP JUMPDEST PUSH1 0x0 PUSH2 0xCF8 PUSH1 0x2A DUP4 PUSH2 0xED4 JUMP JUMPDEST SWAP2 POP PUSH2 0xD03 DUP3 PUSH2 0x10A3 JUMP JUMPDEST PUSH1 0x40 DUP3 ADD SWAP1 POP SWAP2 SWAP1 POP JUMP JUMPDEST PUSH1 0x0 PUSH2 0xD1B PUSH1 0x1C DUP4 PUSH2 0xED4 JUMP JUMPDEST SWAP2 POP PUSH2 0xD26 DUP3 PUSH2 0x10F2 JUMP JUMPDEST PUSH1 0x20 DUP3 ADD SWAP1 POP SWAP2 SWAP1 POP JUMP JUMPDEST PUSH2 0xD3A DUP2 PUSH2 0xF36 JUMP JUMPDEST DUP3 MSTORE POP POP JUMP JUMPDEST PUSH1 0x0 PUSH1 0x20 DUP3 ADD SWAP1 POP PUSH2 0xD55 PUSH1 0x0 DUP4 ADD DUP5 PUSH2 0xC85 JUMP JUMPDEST SWAP3 SWAP2 POP POP JUMP JUMPDEST PUSH1 0x0 PUSH1 0x20 DUP3 ADD SWAP1 POP PUSH2 0xD70 PUSH1 0x0 DUP4 ADD DUP5 PUSH2 0xC94 JUMP JUMPDEST SWAP3 SWAP2 POP POP JUMP JUMPDEST PUSH1 0x0 PUSH1 0xA0 DUP3 ADD SWAP1 POP PUSH2 0xD8B PUSH1 0x0 DUP4 ADD DUP9 PUSH2 0xC94 JUMP JUMPDEST PUSH2 0xD98 PUSH1 0x20 DUP4 ADD DUP8 PUSH2 0xC94 JUMP JUMPDEST PUSH2 0xDA5 PUSH1 0x40 DUP4 ADD DUP7 PUSH2 0xD31 JUMP JUMPDEST PUSH2 0xDB2 PUSH1 0x60 DUP4 ADD DUP6 PUSH2 0xD31 JUMP JUMPDEST PUSH2 0xDBF PUSH1 0x80 DUP4 ADD DUP5 PUSH2 0xD31 JUMP JUMPDEST SWAP7 SWAP6 POP POP POP POP POP POP JUMP JUMPDEST PUSH1 0x0 PUSH1 0x20 DUP3 ADD SWAP1 POP PUSH2 0xDDE PUSH1 0x0 DUP4 ADD DUP5 PUSH2 0xCA3 JUMP JUMPDEST SWAP3 SWAP2 POP POP JUMP JUMPDEST PUSH1 0x0 PUSH1 0x20 DUP3 ADD SWAP1 POP DUP2 DUP2 SUB PUSH1 0x0 DUP4 ADD MSTORE PUSH2 0xDFD DUP2 PUSH2 0xCEB JUMP JUMPDEST SWAP1 POP SWAP2 SWAP1 POP JUMP JUMPDEST PUSH1 0x0 PUSH1 0x20 DUP3 ADD SWAP1 POP DUP2 DUP2 SUB PUSH1 0x0 DUP4 ADD MSTORE PUSH2 0xE1D DUP2 PUSH2 0xD0E JUMP JUMPDEST SWAP1 POP SWAP2 SWAP1 POP JUMP JUMPDEST PUSH1 0x0 PUSH1 0x20 DUP3 ADD SWAP1 POP PUSH2 0xE39 PUSH1 0x0 DUP4 ADD DUP5 PUSH2 0xD31 JUMP JUMPDEST SWAP3 SWAP2 POP POP JUMP JUMPDEST PUSH1 0x0 PUSH1 0x60 DUP3 ADD SWAP1 POP PUSH2 0xE54 PUSH1 0x0 DUP4 ADD DUP7 PUSH2 0xD31 JUMP JUMPDEST DUP2 DUP2 SUB PUSH1 0x20 DUP4 ADD MSTORE PUSH2 0xE66 DUP2 DUP6 PUSH2 0xCB2 JUMP JUMPDEST SWAP1 POP PUSH2 0xE75 PUSH1 0x40 DUP4 ADD DUP5 PUSH2 0xD31 JUMP JUMPDEST SWAP5 SWAP4 POP POP POP POP JUMP JUMPDEST PUSH1 0x0 PUSH1 0x80 DUP3 ADD SWAP1 POP PUSH2 0xE92 PUSH1 0x0 DUP4 ADD DUP8 PUSH2 0xD31 JUMP JUMPDEST DUP2 DUP2 SUB PUSH1 0x20 DUP4 ADD MSTORE PUSH2 0xEA4 DUP2 DUP7 PUSH2 0xCB2 JUMP JUMPDEST SWAP1 POP PUSH2 0xEB3 PUSH1 0x40 DUP4 ADD DUP6 PUSH2 0xD31 JUMP JUMPDEST PUSH2 0xEC0 PUSH1 0x60 DUP4 ADD DUP5 PUSH2 0xD31 JUMP JUMPDEST SWAP6 SWAP5 POP POP POP POP POP JUMP JUMPDEST PUSH1 0x0 DUP2 MLOAD SWAP1 POP SWAP2 SWAP1 POP JUMP JUMPDEST PUSH1 0x0 DUP3 DUP3 MSTORE PUSH1 0x20 DUP3 ADD SWAP1 POP SWAP3 SWAP2 POP POP JUMP JUMPDEST PUSH1 0x0 PUSH2 0xEF0 DUP3 PUSH2 0xF16 JUMP JUMPDEST SWAP1 POP SWAP2 SWAP1 POP JUMP JUMPDEST PUSH1 0x0 DUP2 ISZERO ISZERO SWAP1 POP SWAP2 SWAP1 POP JUMP JUMPDEST PUSH1 0x0 DUP2 SWAP1 POP PUSH2 0xF11 DUP3 PUSH2 0x111B JUMP JUMPDEST SWAP2 SWAP1 POP JUMP JUMPDEST PUSH1 0x0 PUSH20 0xFFFFFFFFFFFFFFFFFFFFFFFFFFFFFFFFFFFFFFFF DUP3 AND SWAP1 POP SWAP2 SWAP1 POP JUMP JUMPDEST PUSH1 0x0 DUP2 SWAP1 POP SWAP2 SWAP1 POP JUMP JUMPDEST PUSH1 0x0 PUSH2 0xF4B DUP3 PUSH2 0xF03 JUMP JUMPDEST SWAP1 POP SWAP2 SWAP1 POP JUMP JUMPDEST PUSH1 0x0 JUMPDEST DUP4 DUP2 LT ISZERO PUSH2 0xF70 JUMPI DUP1 DUP3 ADD MLOAD DUP2 DUP5 ADD MSTORE PUSH1 0x20 DUP2 ADD SWAP1 POP PUSH2 0xF55 JUMP JUMPDEST DUP4 DUP2 GT ISZERO PUSH2 0xF7F JUMPI PUSH1 0x0 DUP5 DUP5 ADD MSTORE JUMPDEST POP POP POP POP JUMP JUMPDEST PUSH1 0x0 PUSH1 0x2 DUP3 DIV SWAP1 POP PUSH1 0x1 DUP3 AND DUP1 PUSH2 0xF9D JUMPI PUSH1 0x7F DUP3 AND SWAP2 POP JUMPDEST PUSH1 0x20 DUP3 LT DUP2 EQ ISZERO PUSH2 0xFB1 JUMPI PUSH2 0xFB0 PUSH2 0x105E JUMP JUMPDEST JUMPDEST POP SWAP2 SWAP1 POP JUMP JUMPDEST PUSH1 0x0 PUSH2 0xFC2 DUP3 PUSH2 0xF36 JUMP JUMPDEST SWAP2 POP PUSH32 0xFFFFFFFFFFFFFFFFFFFFFFFFFFFFFFFFFFFFFFFFFFFFFFFFFFFFFFFFFFFFFFFF DUP3 EQ ISZERO PUSH2 0xFF5 JUMPI PUSH2 0xFF4 PUSH2 0x1000 JUMP JUMPDEST JUMPDEST PUSH1 0x1 DUP3 ADD SWAP1 POP SWAP2 SWAP1 POP JUMP JUMPDEST PUSH32 0x4E487B7100000000000000000000000000000000000000000000000000000000 PUSH1 0x0 MSTORE PUSH1 0x11 PUSH1 0x4 MSTORE PUSH1 0x24 PUSH1 0x0 REVERT JUMPDEST PUSH32 0x4E487B7100000000000000000000000000000000000000000000000000000000 PUSH1 0x0 MSTORE PUSH1 0x21 PUSH1 0x4 MSTORE PUSH1 0x24 PUSH1 0x0 REVERT JUMPDEST PUSH32 0x4E487B7100000000000000000000000000000000000000000000000000000000 PUSH1 0x0 MSTORE PUSH1 0x22 PUSH1 0x4 MSTORE PUSH1 0x24 PUSH1 0x0 REVERT JUMPDEST PUSH1 0x0 DUP1 REVERT JUMPDEST PUSH1 0x0 PUSH1 0x1F NOT PUSH1 0x1F DUP4 ADD AND SWAP1 POP SWAP2 SWAP1 POP JUMP JUMPDEST PUSH32 0x506C656173652070726F7669646520612076616C696420706F6C6C696E672073 PUSH1 0x0 DUP3 ADD MSTORE PUSH32 0x746174696F6E2049442E00000000000000000000000000000000000000000000 PUSH1 0x20 DUP3 ADD MSTORE POP JUMP JUMPDEST PUSH32 0x566F74657220697320616C726561647920726567697374657265642E00000000 PUSH1 0x0 DUP3 ADD MSTORE POP JUMP JUMPDEST PUSH1 0x3 DUP2 LT PUSH2 0x112C JUMPI PUSH2 0x112B PUSH2 0x102F JUMP JUMPDEST JUMPDEST POP JUMP JUMPDEST PUSH2 0x1138 DUP2 PUSH2 0xEE5 JUMP JUMPDEST DUP2 EQ PUSH2 0x1143 JUMPI PUSH1 0x0 DUP1 REVERT JUMPDEST POP JUMP JUMPDEST PUSH2 0x114F DUP2 PUSH2 0xF36 JUMP JUMPDEST DUP2 EQ PUSH2 0x115A JUMPI PUSH1 0x0 DUP1 REVERT JUMPDEST POP JUMP INVALID LOG2 PUSH5 0x6970667358 0x22 SLT KECCAK256 0xB4 PUSH16 0xC8D5CA23A19290515A790EF763A11BF9 ORIGIN 0xDB 0xAD CALL CALLVALUE CALL 0xB0 SWAP3 GAS 0xB7 0x2F DELEGATECALL RETURNDATASIZE 0x29 PUSH5 0x736F6C6343 STOP ADDMOD SMOD STOP CALLER "
				},
				"gasEstimates": {
					"creation": {
						"codeDepositCost": "899800",
						"executionCost": "infinite",
						"totalCost": "infinite"
					},
					"external": {
						"addVoter(address,uint256)": "infinite",
						"candidates(uint256)": "infinite",
						"candidatesCount()": "2497",
						"castVote(address,uint256,uint256)": "infinite",
						"electionOwner()": "2600",
						"finalResult()": "2495",
						"pollingStationCount()": "2473",
						"pollingStations(uint256)": "infinite",
						"startVote()": "28881",
						"state()": "2627",
						"totalRegisteredVoters()": "2453",
						"totalVotes()": "2475",
						"voterRegistry(address)": "infinite",
						"voters(address)": "2868"
					},
					"internal": {
						"addCandidate(string memory)": "infinite",
						"addPollingStation(string memory)": "infinite",
						"initCandidates()": "infinite",
						"initPollingStations()": "infinite",
						"registerAtPollingStation(uint256)": "28818"
					}
				},
				"methodIdentifiers": {
					"addVoter(address,uint256)": "b9f05f2f",
					"candidates(uint256)": "3477ee2e",
					"candidatesCount()": "2d35a8a2",
					"castVote(address,uint256,uint256)": "cab2d76e",
					"electionOwner()": "53357ad0",
					"finalResult()": "f3a8286f",
					"pollingStationCount()": "df9f1a07",
					"pollingStations(uint256)": "fe2442d7",
					"startVote()": "4c0a6af0",
					"state()": "c19d93fb",
					"totalRegisteredVoters()": "00aa7464",
					"totalVotes()": "0d15fd77",
					"voterRegistry(address)": "4763d4e7",
					"voters(address)": "a3ec138d"
				}
			},
			"storageLayout": {
				"storage": [
					{
						"astId": 30,
						"contract": "contracts/ergasia.sol:Election",
						"label": "electionOwner",
						"offset": 0,
						"slot": "0",
						"type": "t_address"
					},
					{
						"astId": 32,
						"contract": "contracts/ergasia.sol:Election",
						"label": "candidatesCount",
						"offset": 0,
						"slot": "1",
						"type": "t_uint256"
					},
					{
						"astId": 34,
						"contract": "contracts/ergasia.sol:Election",
						"label": "pollingStationCount",
						"offset": 0,
						"slot": "2",
						"type": "t_uint256"
					},
					{
						"astId": 36,
						"contract": "contracts/ergasia.sol:Election",
						"label": "totalRegisteredVoters",
						"offset": 0,
						"slot": "3",
						"type": "t_uint256"
					},
					{
						"astId": 39,
						"contract": "contracts/ergasia.sol:Election",
						"label": "countResult",
						"offset": 0,
						"slot": "4",
						"type": "t_uint256"
					},
					{
						"astId": 42,
						"contract": "contracts/ergasia.sol:Election",
						"label": "finalResult",
						"offset": 0,
						"slot": "5",
						"type": "t_uint256"
					},
					{
						"astId": 45,
						"contract": "contracts/ergasia.sol:Election",
						"label": "totalVotes",
						"offset": 0,
						"slot": "6",
						"type": "t_uint256"
					},
					{
						"astId": 50,
						"contract": "contracts/ergasia.sol:Election",
						"label": "candidates",
						"offset": 0,
						"slot": "7",
						"type": "t_mapping(t_uint256,t_struct(Candidate)8_storage)"
					},
					{
						"astId": 55,
						"contract": "contracts/ergasia.sol:Election",
						"label": "pollingStations",
						"offset": 0,
						"slot": "8",
						"type": "t_mapping(t_uint256,t_struct(PollingStation)17_storage)"
					},
					{
						"astId": 60,
						"contract": "contracts/ergasia.sol:Election",
						"label": "voterRegistry",
						"offset": 0,
						"slot": "9",
						"type": "t_mapping(t_address,t_struct(Voter)28_storage)"
					},
					{
						"astId": 64,
						"contract": "contracts/ergasia.sol:Election",
						"label": "voters",
						"offset": 0,
						"slot": "10",
						"type": "t_mapping(t_address,t_bool)"
					},
					{
						"astId": 71,
						"contract": "contracts/ergasia.sol:Election",
						"label": "state",
						"offset": 0,
						"slot": "11",
						"type": "t_enum(State)68"
					}
				],
				"types": {
					"t_address": {
						"encoding": "inplace",
						"label": "address",
						"numberOfBytes": "20"
					},
					"t_bool": {
						"encoding": "inplace",
						"label": "bool",
						"numberOfBytes": "1"
					},
					"t_enum(State)68": {
						"encoding": "inplace",
						"label": "enum Election.State",
						"numberOfBytes": "1"
					},
					"t_mapping(t_address,t_bool)": {
						"encoding": "mapping",
						"key": "t_address",
						"label": "mapping(address => bool)",
						"numberOfBytes": "32",
						"value": "t_bool"
					},
					"t_mapping(t_address,t_struct(Voter)28_storage)": {
						"encoding": "mapping",
						"key": "t_address",
						"label": "mapping(address => struct Election.Voter)",
						"numberOfBytes": "32",
						"value": "t_struct(Voter)28_storage"
					},
					"t_mapping(t_uint256,t_struct(Candidate)8_storage)": {
						"encoding": "mapping",
						"key": "t_uint256",
						"label": "mapping(uint256 => struct Election.Candidate)",
						"numberOfBytes": "32",
						"value": "t_struct(Candidate)8_storage"
					},
					"t_mapping(t_uint256,t_struct(PollingStation)17_storage)": {
						"encoding": "mapping",
						"key": "t_uint256",
						"label": "mapping(uint256 => struct Election.PollingStation)",
						"numberOfBytes": "32",
						"value": "t_struct(PollingStation)17_storage"
					},
					"t_string_storage": {
						"encoding": "bytes",
						"label": "string",
						"numberOfBytes": "32"
					},
					"t_struct(Candidate)8_storage": {
						"encoding": "inplace",
						"label": "struct Election.Candidate",
						"members": [
							{
								"astId": 3,
								"contract": "contracts/ergasia.sol:Election",
								"label": "id",
								"offset": 0,
								"slot": "0",
								"type": "t_uint256"
							},
							{
								"astId": 5,
								"contract": "contracts/ergasia.sol:Election",
								"label": "name",
								"offset": 0,
								"slot": "1",
								"type": "t_string_storage"
							},
							{
								"astId": 7,
								"contract": "contracts/ergasia.sol:Election",
								"label": "votes",
								"offset": 0,
								"slot": "2",
								"type": "t_uint256"
							}
						],
						"numberOfBytes": "96"
					},
					"t_struct(PollingStation)17_storage": {
						"encoding": "inplace",
						"label": "struct Election.PollingStation",
						"members": [
							{
								"astId": 10,
								"contract": "contracts/ergasia.sol:Election",
								"label": "id",
								"offset": 0,
								"slot": "0",
								"type": "t_uint256"
							},
							{
								"astId": 12,
								"contract": "contracts/ergasia.sol:Election",
								"label": "name",
								"offset": 0,
								"slot": "1",
								"type": "t_string_storage"
							},
							{
								"astId": 14,
								"contract": "contracts/ergasia.sol:Election",
								"label": "votersRegistered",
								"offset": 0,
								"slot": "2",
								"type": "t_uint256"
							},
							{
								"astId": 16,
								"contract": "contracts/ergasia.sol:Election",
								"label": "votesCasted",
								"offset": 0,
								"slot": "3",
								"type": "t_uint256"
							}
						],
						"numberOfBytes": "128"
					},
					"t_struct(Voter)28_storage": {
						"encoding": "inplace",
						"label": "struct Election.Voter",
						"members": [
							{
								"astId": 19,
								"contract": "contracts/ergasia.sol:Election",
								"label": "isEnrolled",
								"offset": 0,
								"slot": "0",
								"type": "t_bool"
							},
							{
								"astId": 21,
								"contract": "contracts/ergasia.sol:Election",
								"label": "hasVoted",
								"offset": 1,
								"slot": "0",
								"type": "t_bool"
							},
							{
								"astId": 23,
								"contract": "contracts/ergasia.sol:Election",
								"label": "choice",
								"offset": 0,
								"slot": "1",
								"type": "t_uint256"
							},
							{
								"astId": 25,
								"contract": "contracts/ergasia.sol:Election",
								"label": "enrolledPollingStationID",
								"offset": 0,
								"slot": "2",
								"type": "t_uint256"
							},
							{
								"astId": 27,
								"contract": "contracts/ergasia.sol:Election",
								"label": "votedPollingStationID",
								"offset": 0,
								"slot": "3",
								"type": "t_uint256"
							}
						],
						"numberOfBytes": "128"
					},
					"t_uint256": {
						"encoding": "inplace",
						"label": "uint256",
						"numberOfBytes": "32"
					}
				}
			},
			"userdoc": {
				"kind": "user",
				"methods": {},
				"version": 1
			}
		}
	}
}