{
	"contracts/ergasia.sol": {
		"Election": {
			"abi": [
				{
					"inputs": [],
					"stateMutability": "nonpayable",
					"type": "constructor"
				},
				{
					"anonymous": false,
					"inputs": [
						{
							"indexed": false,
							"internalType": "bool",
							"name": "voted",
							"type": "bool"
						},
						{
							"indexed": false,
							"internalType": "uint256",
							"name": "_choice",
							"type": "uint256"
						},
						{
							"indexed": false,
							"internalType": "uint256",
							"name": "_pollStationID",
							"type": "uint256"
						}
					],
					"name": "VoteCasted",
					"type": "event"
				},
				{
					"inputs": [
						{
							"internalType": "address",
							"name": "_voterAddress",
							"type": "address"
						},
						{
							"internalType": "uint256",
							"name": "_pollingStationID",
							"type": "uint256"
						}
					],
					"name": "addVoter",
					"outputs": [],
					"stateMutability": "nonpayable",
					"type": "function"
				},
				{
					"inputs": [
						{
							"internalType": "uint256",
							"name": "",
							"type": "uint256"
						}
					],
					"name": "candidates",
					"outputs": [
						{
							"internalType": "uint256",
							"name": "id",
							"type": "uint256"
						},
						{
							"internalType": "string",
							"name": "name",
							"type": "string"
						},
						{
							"internalType": "uint256",
							"name": "votes",
							"type": "uint256"
						}
					],
					"stateMutability": "view",
					"type": "function"
				},
				{
					"inputs": [],
					"name": "candidatesCount",
					"outputs": [
						{
							"internalType": "uint256",
							"name": "",
							"type": "uint256"
						}
					],
					"stateMutability": "view",
					"type": "function"
				},
				{
					"inputs": [
						{
							"internalType": "uint256",
							"name": "_choice",
							"type": "uint256"
						},
						{
							"internalType": "uint256",
							"name": "_pollingStationID",
							"type": "uint256"
						}
					],
					"name": "castVote",
					"outputs": [
						{
							"internalType": "bool",
							"name": "voted",
							"type": "bool"
						}
					],
					"stateMutability": "nonpayable",
					"type": "function"
				},
				{
					"inputs": [],
					"name": "electionOwner",
					"outputs": [
						{
							"internalType": "address",
							"name": "",
							"type": "address"
						}
					],
					"stateMutability": "view",
					"type": "function"
				},
				{
					"inputs": [],
					"name": "endVote",
					"outputs": [],
					"stateMutability": "nonpayable",
					"type": "function"
				},
				{
					"inputs": [],
					"name": "finalResult",
					"outputs": [
						{
							"internalType": "uint256",
							"name": "",
							"type": "uint256"
						}
					],
					"stateMutability": "view",
					"type": "function"
				},
				{
					"inputs": [
						{
							"internalType": "uint256",
							"name": "_pStationID",
							"type": "uint256"
						}
					],
					"name": "getResultsPerStation",
					"outputs": [
						{
							"internalType": "uint256[]",
							"name": "",
							"type": "uint256[]"
						}
					],
					"stateMutability": "view",
					"type": "function"
				},
				{
					"inputs": [
						{
							"internalType": "uint256",
							"name": "_pStationID",
							"type": "uint256"
						},
						{
							"internalType": "uint256",
							"name": "_candidateID",
							"type": "uint256"
						}
					],
					"name": "getResultsPerStation1",
					"outputs": [
						{
							"components": [
								{
									"internalType": "uint256",
									"name": "id",
									"type": "uint256"
								},
								{
									"internalType": "string",
									"name": "name",
									"type": "string"
								},
								{
									"internalType": "uint256",
									"name": "votes",
									"type": "uint256"
								}
							],
							"internalType": "struct Election.Candidate",
							"name": "",
							"type": "tuple"
						}
					],
					"stateMutability": "view",
					"type": "function"
				},
				{
					"inputs": [],
					"name": "pollingStationCount",
					"outputs": [
						{
							"internalType": "uint256",
							"name": "",
							"type": "uint256"
						}
					],
					"stateMutability": "view",
					"type": "function"
				},
				{
					"inputs": [
						{
							"internalType": "uint256",
							"name": "",
							"type": "uint256"
						}
					],
					"name": "pollingStations",
					"outputs": [
						{
							"internalType": "uint256",
							"name": "id",
							"type": "uint256"
						},
						{
							"internalType": "string",
							"name": "name",
							"type": "string"
						},
						{
							"internalType": "uint256",
							"name": "votersRegistered",
							"type": "uint256"
						},
						{
							"internalType": "uint256",
							"name": "votesCasted",
							"type": "uint256"
						}
					],
					"stateMutability": "view",
					"type": "function"
				},
				{
					"inputs": [],
					"name": "startVote",
					"outputs": [],
					"stateMutability": "nonpayable",
					"type": "function"
				},
				{
					"inputs": [],
					"name": "state",
					"outputs": [
						{
							"internalType": "enum Election.State",
							"name": "",
							"type": "uint8"
						}
					],
					"stateMutability": "view",
					"type": "function"
				},
				{
					"inputs": [],
					"name": "totalRegisteredVoters",
					"outputs": [
						{
							"internalType": "uint256",
							"name": "",
							"type": "uint256"
						}
					],
					"stateMutability": "view",
					"type": "function"
				},
				{
					"inputs": [
						{
							"internalType": "address",
							"name": "",
							"type": "address"
						}
					],
					"name": "voterRegistry",
					"outputs": [
						{
							"internalType": "bool",
							"name": "isEnrolled",
							"type": "bool"
						},
						{
							"internalType": "bool",
							"name": "hasVoted",
							"type": "bool"
						},
						{
							"internalType": "uint256",
							"name": "choice",
							"type": "uint256"
						},
						{
							"internalType": "uint256",
							"name": "enrolledPollingStationID",
							"type": "uint256"
						},
						{
							"internalType": "uint256",
							"name": "votedPollingStationID",
							"type": "uint256"
						}
					],
					"stateMutability": "view",
					"type": "function"
				},
				{
					"inputs": [
						{
							"internalType": "address",
							"name": "",
							"type": "address"
						}
					],
					"name": "voters",
					"outputs": [
						{
							"internalType": "bool",
							"name": "",
							"type": "bool"
						}
					],
					"stateMutability": "view",
					"type": "function"
				}
			],
			"devdoc": {
				"kind": "dev",
				"methods": {
					"addVoter(address,uint256)": {
						"details": "Adds a voter to the voter registry. May only be called by 'owner'.",
						"params": {
							"_pollingStationID": "polling station ID in which voter is registered.",
							"_voterAddress": "address of voter"
						}
					}
				},
				"version": 1
			},
			"evm": {
				"assembly": "    /* \"contracts/ergasia.sol\":70:7964  contract Election {... */\n  mstore(0x40, 0x80)\n    /* \"contracts/ergasia.sol\":2193:2468  constructor() {... */\n  callvalue\n  dup1\n  iszero\n  tag_1\n  jumpi\n  0x00\n  dup1\n  revert\ntag_1:\n  pop\n    /* \"contracts/ergasia.sol\":2233:2243  msg.sender */\n  caller\n    /* \"contracts/ergasia.sol\":2217:2230  electionOwner */\n  0x00\n  dup1\n    /* \"contracts/ergasia.sol\":2217:2243  electionOwner = msg.sender */\n  0x0100\n  exp\n  dup2\n  sload\n  dup2\n  0xffffffffffffffffffffffffffffffffffffffff\n  mul\n  not\n  and\n  swap1\n  dup4\n  0xffffffffffffffffffffffffffffffffffffffff\n  and\n  mul\n  or\n  swap1\n  sstore\n  pop\n    /* \"contracts/ergasia.sol\":2298:2319  initPollingStations() */\n  tag_4\n    /* \"contracts/ergasia.sol\":2298:2317  initPollingStations */\n  shl(0x20, tag_5)\n    /* \"contracts/ergasia.sol\":2298:2319  initPollingStations() */\n  0x20\n  shr\n  jump\t// in\ntag_4:\n    /* \"contracts/ergasia.sol\":2376:2392  initCandidates() */\n  tag_6\n    /* \"contracts/ergasia.sol\":2376:2390  initCandidates */\n  shl(0x20, tag_7)\n    /* \"contracts/ergasia.sol\":2376:2392  initCandidates() */\n  0x20\n  shr\n  jump\t// in\ntag_6:\n    /* \"contracts/ergasia.sol\":2446:2459  State.Created */\n  0x00\n    /* \"contracts/ergasia.sol\":2438:2443  state */\n  0x0a\n  0x00\n    /* \"contracts/ergasia.sol\":2438:2459  state = State.Created */\n  0x0100\n  exp\n  dup2\n  sload\n  dup2\n  0xff\n  mul\n  not\n  and\n  swap1\n  dup4\n  0x02\n  dup2\n  gt\n  iszero\n  tag_8\n  jumpi\n  tag_9\n  tag_10\n  jump\t// in\ntag_9:\ntag_8:\n  mul\n  or\n  swap1\n  sstore\n  pop\n    /* \"contracts/ergasia.sol\":70:7964  contract Election {... */\n  jump(tag_11)\n    /* \"contracts/ergasia.sol\":3273:3801  function initPollingStations() internal {... */\ntag_5:\n    /* \"contracts/ergasia.sol\":3323:3361  addPollingStation(\"Polling Station 1\") */\n  tag_13\n  mload(0x40)\n  dup1\n  0x40\n  add\n  0x40\n  mstore\n  dup1\n  0x11\n  dup2\n  mstore\n  0x20\n  add\n  0x506f6c6c696e672053746174696f6e2031000000000000000000000000000000\n  dup2\n  mstore\n  pop\n    /* \"contracts/ergasia.sol\":3323:3340  addPollingStation */\n  shl(0x20, tag_14)\n    /* \"contracts/ergasia.sol\":3323:3361  addPollingStation(\"Polling Station 1\") */\n  0x20\n  shr\n  jump\t// in\ntag_13:\n    /* \"contracts/ergasia.sol\":3371:3409  addPollingStation(\"Polling Station 2\") */\n  tag_15\n  mload(0x40)\n  dup1\n  0x40\n  add\n  0x40\n  mstore\n  dup1\n  0x11\n  dup2\n  mstore\n  0x20\n  add\n  0x506f6c6c696e672053746174696f6e2032000000000000000000000000000000\n  dup2\n  mstore\n  pop\n    /* \"contracts/ergasia.sol\":3371:3388  addPollingStation */\n  shl(0x20, tag_14)\n    /* \"contracts/ergasia.sol\":3371:3409  addPollingStation(\"Polling Station 2\") */\n  0x20\n  shr\n  jump\t// in\ntag_15:\n    /* \"contracts/ergasia.sol\":3419:3457  addPollingStation(\"Polling Station 3\") */\n  tag_16\n  mload(0x40)\n  dup1\n  0x40\n  add\n  0x40\n  mstore\n  dup1\n  0x11\n  dup2\n  mstore\n  0x20\n  add\n  0x506f6c6c696e672053746174696f6e2033000000000000000000000000000000\n  dup2\n  mstore\n  pop\n    /* \"contracts/ergasia.sol\":3419:3436  addPollingStation */\n  shl(0x20, tag_14)\n    /* \"contracts/ergasia.sol\":3419:3457  addPollingStation(\"Polling Station 3\") */\n  0x20\n  shr\n  jump\t// in\ntag_16:\n    /* \"contracts/ergasia.sol\":3467:3505  addPollingStation(\"Polling Station 4\") */\n  tag_17\n  mload(0x40)\n  dup1\n  0x40\n  add\n  0x40\n  mstore\n  dup1\n  0x11\n  dup2\n  mstore\n  0x20\n  add\n  0x506f6c6c696e672053746174696f6e2034000000000000000000000000000000\n  dup2\n  mstore\n  pop\n    /* \"contracts/ergasia.sol\":3467:3484  addPollingStation */\n  shl(0x20, tag_14)\n    /* \"contracts/ergasia.sol\":3467:3505  addPollingStation(\"Polling Station 4\") */\n  0x20\n  shr\n  jump\t// in\ntag_17:\n    /* \"contracts/ergasia.sol\":3515:3553  addPollingStation(\"Polling Station 5\") */\n  tag_18\n  mload(0x40)\n  dup1\n  0x40\n  add\n  0x40\n  mstore\n  dup1\n  0x11\n  dup2\n  mstore\n  0x20\n  add\n  0x506f6c6c696e672053746174696f6e2035000000000000000000000000000000\n  dup2\n  mstore\n  pop\n    /* \"contracts/ergasia.sol\":3515:3532  addPollingStation */\n  shl(0x20, tag_14)\n    /* \"contracts/ergasia.sol\":3515:3553  addPollingStation(\"Polling Station 5\") */\n  0x20\n  shr\n  jump\t// in\ntag_18:\n    /* \"contracts/ergasia.sol\":3563:3601  addPollingStation(\"Polling Station 6\") */\n  tag_19\n  mload(0x40)\n  dup1\n  0x40\n  add\n  0x40\n  mstore\n  dup1\n  0x11\n  dup2\n  mstore\n  0x20\n  add\n  0x506f6c6c696e672053746174696f6e2036000000000000000000000000000000\n  dup2\n  mstore\n  pop\n    /* \"contracts/ergasia.sol\":3563:3580  addPollingStation */\n  shl(0x20, tag_14)\n    /* \"contracts/ergasia.sol\":3563:3601  addPollingStation(\"Polling Station 6\") */\n  0x20\n  shr\n  jump\t// in\ntag_19:\n    /* \"contracts/ergasia.sol\":3611:3649  addPollingStation(\"Polling Station 7\") */\n  tag_20\n  mload(0x40)\n  dup1\n  0x40\n  add\n  0x40\n  mstore\n  dup1\n  0x11\n  dup2\n  mstore\n  0x20\n  add\n  0x506f6c6c696e672053746174696f6e2037000000000000000000000000000000\n  dup2\n  mstore\n  pop\n    /* \"contracts/ergasia.sol\":3611:3628  addPollingStation */\n  shl(0x20, tag_14)\n    /* \"contracts/ergasia.sol\":3611:3649  addPollingStation(\"Polling Station 7\") */\n  0x20\n  shr\n  jump\t// in\ntag_20:\n    /* \"contracts/ergasia.sol\":3659:3697  addPollingStation(\"Polling Station 8\") */\n  tag_21\n  mload(0x40)\n  dup1\n  0x40\n  add\n  0x40\n  mstore\n  dup1\n  0x11\n  dup2\n  mstore\n  0x20\n  add\n  0x506f6c6c696e672053746174696f6e2038000000000000000000000000000000\n  dup2\n  mstore\n  pop\n    /* \"contracts/ergasia.sol\":3659:3676  addPollingStation */\n  shl(0x20, tag_14)\n    /* \"contracts/ergasia.sol\":3659:3697  addPollingStation(\"Polling Station 8\") */\n  0x20\n  shr\n  jump\t// in\ntag_21:\n    /* \"contracts/ergasia.sol\":3707:3745  addPollingStation(\"Polling Station 9\") */\n  tag_22\n  mload(0x40)\n  dup1\n  0x40\n  add\n  0x40\n  mstore\n  dup1\n  0x11\n  dup2\n  mstore\n  0x20\n  add\n  0x506f6c6c696e672053746174696f6e2039000000000000000000000000000000\n  dup2\n  mstore\n  pop\n    /* \"contracts/ergasia.sol\":3707:3724  addPollingStation */\n  shl(0x20, tag_14)\n    /* \"contracts/ergasia.sol\":3707:3745  addPollingStation(\"Polling Station 9\") */\n  0x20\n  shr\n  jump\t// in\ntag_22:\n    /* \"contracts/ergasia.sol\":3755:3794  addPollingStation(\"Polling Station 10\") */\n  tag_23\n  mload(0x40)\n  dup1\n  0x40\n  add\n  0x40\n  mstore\n  dup1\n  0x12\n  dup2\n  mstore\n  0x20\n  add\n  0x506f6c6c696e672053746174696f6e2031300000000000000000000000000000\n  dup2\n  mstore\n  pop\n    /* \"contracts/ergasia.sol\":3755:3772  addPollingStation */\n  shl(0x20, tag_14)\n    /* \"contracts/ergasia.sol\":3755:3794  addPollingStation(\"Polling Station 10\") */\n  0x20\n  shr\n  jump\t// in\ntag_23:\n    /* \"contracts/ergasia.sol\":3273:3801  function initPollingStations() internal {... */\n  jump\t// out\n    /* \"contracts/ergasia.sol\":2527:2754  function initCandidates() internal {... */\ntag_7:\n    /* \"contracts/ergasia.sol\":2572:2599  addCandidate(\"Candidate 1\") */\n  tag_25\n  mload(0x40)\n  dup1\n  0x40\n  add\n  0x40\n  mstore\n  dup1\n  0x0b\n  dup2\n  mstore\n  0x20\n  add\n  0x43616e6469646174652031000000000000000000000000000000000000000000\n  dup2\n  mstore\n  pop\n    /* \"contracts/ergasia.sol\":2572:2584  addCandidate */\n  shl(0x20, tag_26)\n    /* \"contracts/ergasia.sol\":2572:2599  addCandidate(\"Candidate 1\") */\n  0x20\n  shr\n  jump\t// in\ntag_25:\n    /* \"contracts/ergasia.sol\":2609:2636  addCandidate(\"Candidate 2\") */\n  tag_27\n  mload(0x40)\n  dup1\n  0x40\n  add\n  0x40\n  mstore\n  dup1\n  0x0b\n  dup2\n  mstore\n  0x20\n  add\n  0x43616e6469646174652032000000000000000000000000000000000000000000\n  dup2\n  mstore\n  pop\n    /* \"contracts/ergasia.sol\":2609:2621  addCandidate */\n  shl(0x20, tag_26)\n    /* \"contracts/ergasia.sol\":2609:2636  addCandidate(\"Candidate 2\") */\n  0x20\n  shr\n  jump\t// in\ntag_27:\n    /* \"contracts/ergasia.sol\":2646:2673  addCandidate(\"Candidate 3\") */\n  tag_28\n  mload(0x40)\n  dup1\n  0x40\n  add\n  0x40\n  mstore\n  dup1\n  0x0b\n  dup2\n  mstore\n  0x20\n  add\n  0x43616e6469646174652033000000000000000000000000000000000000000000\n  dup2\n  mstore\n  pop\n    /* \"contracts/ergasia.sol\":2646:2658  addCandidate */\n  shl(0x20, tag_26)\n    /* \"contracts/ergasia.sol\":2646:2673  addCandidate(\"Candidate 3\") */\n  0x20\n  shr\n  jump\t// in\ntag_28:\n    /* \"contracts/ergasia.sol\":2683:2710  addCandidate(\"Candidate 4\") */\n  tag_29\n  mload(0x40)\n  dup1\n  0x40\n  add\n  0x40\n  mstore\n  dup1\n  0x0b\n  dup2\n  mstore\n  0x20\n  add\n  0x43616e6469646174652034000000000000000000000000000000000000000000\n  dup2\n  mstore\n  pop\n    /* \"contracts/ergasia.sol\":2683:2695  addCandidate */\n  shl(0x20, tag_26)\n    /* \"contracts/ergasia.sol\":2683:2710  addCandidate(\"Candidate 4\") */\n  0x20\n  shr\n  jump\t// in\ntag_29:\n    /* \"contracts/ergasia.sol\":2720:2747  addCandidate(\"Candidate 5\") */\n  tag_30\n  mload(0x40)\n  dup1\n  0x40\n  add\n  0x40\n  mstore\n  dup1\n  0x0b\n  dup2\n  mstore\n  0x20\n  add\n  0x43616e6469646174652035000000000000000000000000000000000000000000\n  dup2\n  mstore\n  pop\n    /* \"contracts/ergasia.sol\":2720:2732  addCandidate */\n  shl(0x20, tag_26)\n    /* \"contracts/ergasia.sol\":2720:2747  addCandidate(\"Candidate 5\") */\n  0x20\n  shr\n  jump\t// in\ntag_30:\n    /* \"contracts/ergasia.sol\":2527:2754  function initCandidates() internal {... */\n  jump\t// out\n    /* \"contracts/ergasia.sol\":3924:4585  function addPollingStation (string memory _name) private {... */\ntag_14:\n    /* \"contracts/ergasia.sol\":3991:4010  pollingStationCount */\n  0x02\n  0x00\n    /* \"contracts/ergasia.sol\":3991:4012  pollingStationCount++ */\n  dup2\n  sload\n  dup1\n  swap3\n  swap2\n  swap1\n  tag_32\n  swap1\n  tag_33\n  jump\t// in\ntag_32:\n  swap2\n  swap1\n  pop\n  sstore\n  pop\n    /* \"contracts/ergasia.sol\":4134:4168  PollingStation storage pollStation */\n  0x00\n    /* \"contracts/ergasia.sol\":4171:4186  pollingStations */\n  0x07\n    /* \"contracts/ergasia.sol\":4171:4207  pollingStations[pollingStationCount] */\n  0x00\n    /* \"contracts/ergasia.sol\":4187:4206  pollingStationCount */\n  sload(0x02)\n    /* \"contracts/ergasia.sol\":4171:4207  pollingStations[pollingStationCount] */\n  dup2\n  mstore\n  0x20\n  add\n  swap1\n  dup2\n  mstore\n  0x20\n  add\n  0x00\n  keccak256\n    /* \"contracts/ergasia.sol\":4134:4207  PollingStation storage pollStation = pollingStations[pollingStationCount] */\n  swap1\n  pop\n    /* \"contracts/ergasia.sol\":4234:4253  pollingStationCount */\n  sload(0x02)\n    /* \"contracts/ergasia.sol\":4217:4228  pollStation */\n  dup2\n    /* \"contracts/ergasia.sol\":4217:4231  pollStation.id */\n  0x00\n  add\n    /* \"contracts/ergasia.sol\":4217:4253  pollStation.id = pollingStationCount */\n  dup2\n  swap1\n  sstore\n  pop\n    /* \"contracts/ergasia.sol\":4282:4287  _name */\n  dup2\n    /* \"contracts/ergasia.sol\":4263:4274  pollStation */\n  dup2\n    /* \"contracts/ergasia.sol\":4263:4279  pollStation.name */\n  0x01\n  add\n    /* \"contracts/ergasia.sol\":4263:4287  pollStation.name = _name */\n  swap1\n  dup1\n  mload\n  swap1\n  0x20\n  add\n  swap1\n  tag_34\n  swap3\n  swap2\n  swap1\n  tag_35\n  jump\t// in\ntag_34:\n  pop\n    /* \"contracts/ergasia.sol\":4328:4329  0 */\n  0x00\n    /* \"contracts/ergasia.sol\":4297:4308  pollStation */\n  dup2\n    /* \"contracts/ergasia.sol\":4297:4325  pollStation.votersRegistered */\n  0x02\n  add\n    /* \"contracts/ergasia.sol\":4297:4329  pollStation.votersRegistered = 0 */\n  dup2\n  swap1\n  sstore\n  pop\n    /* \"contracts/ergasia.sol\":4365:4366  0 */\n  0x00\n    /* \"contracts/ergasia.sol\":4339:4350  pollStation */\n  dup2\n    /* \"contracts/ergasia.sol\":4339:4362  pollStation.votesCasted */\n  0x03\n  add\n    /* \"contracts/ergasia.sol\":4339:4366  pollStation.votesCasted = 0 */\n  dup2\n  swap1\n  sstore\n  pop\n    /* \"contracts/ergasia.sol\":3981:4585  {... */\n  pop\n    /* \"contracts/ergasia.sol\":3924:4585  function addPollingStation (string memory _name) private {... */\n  pop\n  jump\t// out\n    /* \"contracts/ergasia.sol\":2874:3212  function addCandidate (string memory _name) private {... */\ntag_26:\n    /* \"contracts/ergasia.sol\":2936:2951  candidatesCount */\n  0x01\n  0x00\n    /* \"contracts/ergasia.sol\":2936:2953  candidatesCount++ */\n  dup2\n  sload\n  dup1\n  swap3\n  swap2\n  swap1\n  tag_37\n  swap1\n  tag_33\n  jump\t// in\ntag_37:\n  swap2\n  swap1\n  pop\n  sstore\n  pop\n    /* \"contracts/ergasia.sol\":2993:3029  Candidate(candidatesCount, _name, 0) */\n  mload(0x40)\n  dup1\n  0x60\n  add\n  0x40\n  mstore\n  dup1\n    /* \"contracts/ergasia.sol\":3003:3018  candidatesCount */\n  sload(0x01)\n    /* \"contracts/ergasia.sol\":2993:3029  Candidate(candidatesCount, _name, 0) */\n  dup2\n  mstore\n  0x20\n  add\n    /* \"contracts/ergasia.sol\":3020:3025  _name */\n  dup3\n    /* \"contracts/ergasia.sol\":2993:3029  Candidate(candidatesCount, _name, 0) */\n  dup2\n  mstore\n  0x20\n  add\n    /* \"contracts/ergasia.sol\":3027:3028  0 */\n  0x00\n    /* \"contracts/ergasia.sol\":2993:3029  Candidate(candidatesCount, _name, 0) */\n  dup2\n  mstore\n  pop\n    /* \"contracts/ergasia.sol\":2963:2973  candidates */\n  0x06\n    /* \"contracts/ergasia.sol\":2963:2990  candidates[candidatesCount] */\n  0x00\n    /* \"contracts/ergasia.sol\":2974:2989  candidatesCount */\n  sload(0x01)\n    /* \"contracts/ergasia.sol\":2963:2990  candidates[candidatesCount] */\n  dup2\n  mstore\n  0x20\n  add\n  swap1\n  dup2\n  mstore\n  0x20\n  add\n  0x00\n  keccak256\n    /* \"contracts/ergasia.sol\":2963:3029  candidates[candidatesCount] = Candidate(candidatesCount, _name, 0) */\n  0x00\n  dup3\n  add\n  mload\n  dup2\n  0x00\n  add\n  sstore\n  0x20\n  dup3\n  add\n  mload\n  dup2\n  0x01\n  add\n  swap1\n  dup1\n  mload\n  swap1\n  0x20\n  add\n  swap1\n  tag_38\n  swap3\n  swap2\n  swap1\n  tag_35\n  jump\t// in\ntag_38:\n  pop\n  0x40\n  dup3\n  add\n  mload\n  dup2\n  0x02\n  add\n  sstore\n  swap1\n  pop\n  pop\n    /* \"contracts/ergasia.sol\":3045:3051  uint i */\n  0x00\n    /* \"contracts/ergasia.sol\":3054:3055  1 */\n  0x01\n    /* \"contracts/ergasia.sol\":3045:3055  uint i = 1 */\n  swap1\n  pop\n    /* \"contracts/ergasia.sol\":3040:3206  for (uint i = 1; i <= pollingStationCount; i++) {... */\ntag_39:\n    /* \"contracts/ergasia.sol\":3062:3081  pollingStationCount */\n  sload(0x02)\n    /* \"contracts/ergasia.sol\":3057:3058  i */\n  dup2\n    /* \"contracts/ergasia.sol\":3057:3081  i <= pollingStationCount */\n  gt\n    /* \"contracts/ergasia.sol\":3040:3206  for (uint i = 1; i <= pollingStationCount; i++) {... */\n  tag_40\n  jumpi\n    /* \"contracts/ergasia.sol\":3159:3195  Candidate(candidatesCount, _name, 0) */\n  mload(0x40)\n  dup1\n  0x60\n  add\n  0x40\n  mstore\n  dup1\n    /* \"contracts/ergasia.sol\":3169:3184  candidatesCount */\n  sload(0x01)\n    /* \"contracts/ergasia.sol\":3159:3195  Candidate(candidatesCount, _name, 0) */\n  dup2\n  mstore\n  0x20\n  add\n    /* \"contracts/ergasia.sol\":3186:3191  _name */\n  dup4\n    /* \"contracts/ergasia.sol\":3159:3195  Candidate(candidatesCount, _name, 0) */\n  dup2\n  mstore\n  0x20\n  add\n    /* \"contracts/ergasia.sol\":3193:3194  0 */\n  0x00\n    /* \"contracts/ergasia.sol\":3159:3195  Candidate(candidatesCount, _name, 0) */\n  dup2\n  mstore\n  pop\n    /* \"contracts/ergasia.sol\":3102:3117  pollingStations */\n  0x07\n    /* \"contracts/ergasia.sol\":3102:3120  pollingStations[i] */\n  0x00\n    /* \"contracts/ergasia.sol\":3118:3119  i */\n  dup4\n    /* \"contracts/ergasia.sol\":3102:3120  pollingStations[i] */\n  dup2\n  mstore\n  0x20\n  add\n  swap1\n  dup2\n  mstore\n  0x20\n  add\n  0x00\n  keccak256\n    /* \"contracts/ergasia.sol\":3102:3139  pollingStations[i].scoresPerCandidate */\n  0x04\n  add\n    /* \"contracts/ergasia.sol\":3102:3156  pollingStations[i].scoresPerCandidate[candidatesCount] */\n  0x00\n    /* \"contracts/ergasia.sol\":3140:3155  candidatesCount */\n  sload(0x01)\n    /* \"contracts/ergasia.sol\":3102:3156  pollingStations[i].scoresPerCandidate[candidatesCount] */\n  dup2\n  mstore\n  0x20\n  add\n  swap1\n  dup2\n  mstore\n  0x20\n  add\n  0x00\n  keccak256\n    /* \"contracts/ergasia.sol\":3102:3195  pollingStations[i].scoresPerCandidate[candidatesCount] = Candidate(candidatesCount, _name, 0) */\n  0x00\n  dup3\n  add\n  mload\n  dup2\n  0x00\n  add\n  sstore\n  0x20\n  dup3\n  add\n  mload\n  dup2\n  0x01\n  add\n  swap1\n  dup1\n  mload\n  swap1\n  0x20\n  add\n  swap1\n  tag_42\n  swap3\n  swap2\n  swap1\n  tag_35\n  jump\t// in\ntag_42:\n  pop\n  0x40\n  dup3\n  add\n  mload\n  dup2\n  0x02\n  add\n  sstore\n  swap1\n  pop\n  pop\n    /* \"contracts/ergasia.sol\":3083:3086  i++ */\n  dup1\n  dup1\n  tag_43\n  swap1\n  tag_33\n  jump\t// in\ntag_43:\n  swap2\n  pop\n  pop\n    /* \"contracts/ergasia.sol\":3040:3206  for (uint i = 1; i <= pollingStationCount; i++) {... */\n  jump(tag_39)\ntag_40:\n  pop\n    /* \"contracts/ergasia.sol\":2874:3212  function addCandidate (string memory _name) private {... */\n  pop\n  jump\t// out\n    /* \"contracts/ergasia.sol\":70:7964  contract Election {... */\ntag_35:\n  dup3\n  dup1\n  sload\n  tag_44\n  swap1\n  tag_45\n  jump\t// in\ntag_44:\n  swap1\n  0x00\n  mstore\n  keccak256(0x00, 0x20)\n  swap1\n  0x1f\n  add\n  0x20\n  swap1\n  div\n  dup2\n  add\n  swap3\n  dup3\n  tag_47\n  jumpi\n  0x00\n  dup6\n  sstore\n  jump(tag_46)\ntag_47:\n  dup3\n  0x1f\n  lt\n  tag_48\n  jumpi\n  dup1\n  mload\n  not(0xff)\n  and\n  dup4\n  dup1\n  add\n  or\n  dup6\n  sstore\n  jump(tag_46)\ntag_48:\n  dup3\n  dup1\n  add\n  0x01\n  add\n  dup6\n  sstore\n  dup3\n  iszero\n  tag_46\n  jumpi\n  swap2\n  dup3\n  add\ntag_49:\n  dup3\n  dup2\n  gt\n  iszero\n  tag_50\n  jumpi\n  dup3\n  mload\n  dup3\n  sstore\n  swap2\n  0x20\n  add\n  swap2\n  swap1\n  0x01\n  add\n  swap1\n  jump(tag_49)\ntag_50:\ntag_46:\n  pop\n  swap1\n  pop\n  tag_51\n  swap2\n  swap1\n  tag_52\n  jump\t// in\ntag_51:\n  pop\n  swap1\n  jump\t// out\ntag_52:\ntag_53:\n  dup1\n  dup3\n  gt\n  iszero\n  tag_54\n  jumpi\n  0x00\n  dup2\n  0x00\n  swap1\n  sstore\n  pop\n  0x01\n  add\n  jump(tag_53)\ntag_54:\n  pop\n  swap1\n  jump\t// out\n    /* \"#utility.yul\":7:84   */\ntag_56:\n    /* \"#utility.yul\":44:51   */\n  0x00\n    /* \"#utility.yul\":73:78   */\n  dup2\n    /* \"#utility.yul\":62:78   */\n  swap1\n  pop\n    /* \"#utility.yul\":7:84   */\n  swap2\n  swap1\n  pop\n  jump\t// out\n    /* \"#utility.yul\":90:410   */\ntag_45:\n    /* \"#utility.yul\":134:140   */\n  0x00\n    /* \"#utility.yul\":171:172   */\n  0x02\n    /* \"#utility.yul\":165:169   */\n  dup3\n    /* \"#utility.yul\":161:173   */\n  div\n    /* \"#utility.yul\":151:173   */\n  swap1\n  pop\n    /* \"#utility.yul\":218:219   */\n  0x01\n    /* \"#utility.yul\":212:216   */\n  dup3\n    /* \"#utility.yul\":208:220   */\n  and\n    /* \"#utility.yul\":239:257   */\n  dup1\n    /* \"#utility.yul\":229:310   */\n  tag_59\n  jumpi\n    /* \"#utility.yul\":295:299   */\n  0x7f\n    /* \"#utility.yul\":287:293   */\n  dup3\n    /* \"#utility.yul\":283:300   */\n  and\n    /* \"#utility.yul\":273:300   */\n  swap2\n  pop\n    /* \"#utility.yul\":229:310   */\ntag_59:\n    /* \"#utility.yul\":357:359   */\n  0x20\n    /* \"#utility.yul\":349:355   */\n  dup3\n    /* \"#utility.yul\":346:360   */\n  lt\n    /* \"#utility.yul\":326:344   */\n  dup2\n    /* \"#utility.yul\":323:361   */\n  eq\n    /* \"#utility.yul\":320:404   */\n  iszero\n  tag_60\n  jumpi\n    /* \"#utility.yul\":376:394   */\n  tag_61\n  tag_62\n  jump\t// in\ntag_61:\n    /* \"#utility.yul\":320:404   */\ntag_60:\n    /* \"#utility.yul\":141:410   */\n  pop\n    /* \"#utility.yul\":90:410   */\n  swap2\n  swap1\n  pop\n  jump\t// out\n    /* \"#utility.yul\":416:649   */\ntag_33:\n    /* \"#utility.yul\":455:458   */\n  0x00\n    /* \"#utility.yul\":478:502   */\n  tag_64\n    /* \"#utility.yul\":496:501   */\n  dup3\n    /* \"#utility.yul\":478:502   */\n  tag_56\n  jump\t// in\ntag_64:\n    /* \"#utility.yul\":469:502   */\n  swap2\n  pop\n    /* \"#utility.yul\":524:590   */\n  0xffffffffffffffffffffffffffffffffffffffffffffffffffffffffffffffff\n    /* \"#utility.yul\":517:522   */\n  dup3\n    /* \"#utility.yul\":514:591   */\n  eq\n    /* \"#utility.yul\":511:614   */\n  iszero\n  tag_65\n  jumpi\n    /* \"#utility.yul\":594:612   */\n  tag_66\n  tag_67\n  jump\t// in\ntag_66:\n    /* \"#utility.yul\":511:614   */\ntag_65:\n    /* \"#utility.yul\":641:642   */\n  0x01\n    /* \"#utility.yul\":634:639   */\n  dup3\n    /* \"#utility.yul\":630:643   */\n  add\n    /* \"#utility.yul\":623:643   */\n  swap1\n  pop\n    /* \"#utility.yul\":416:649   */\n  swap2\n  swap1\n  pop\n  jump\t// out\n    /* \"#utility.yul\":655:835   */\ntag_67:\n    /* \"#utility.yul\":703:780   */\n  0x4e487b7100000000000000000000000000000000000000000000000000000000\n    /* \"#utility.yul\":700:701   */\n  0x00\n    /* \"#utility.yul\":693:781   */\n  mstore\n    /* \"#utility.yul\":800:804   */\n  0x11\n    /* \"#utility.yul\":797:798   */\n  0x04\n    /* \"#utility.yul\":790:805   */\n  mstore\n    /* \"#utility.yul\":824:828   */\n  0x24\n    /* \"#utility.yul\":821:822   */\n  0x00\n    /* \"#utility.yul\":814:829   */\n  revert\n    /* \"#utility.yul\":841:1021   */\ntag_10:\n    /* \"#utility.yul\":889:966   */\n  0x4e487b7100000000000000000000000000000000000000000000000000000000\n    /* \"#utility.yul\":886:887   */\n  0x00\n    /* \"#utility.yul\":879:967   */\n  mstore\n    /* \"#utility.yul\":986:990   */\n  0x21\n    /* \"#utility.yul\":983:984   */\n  0x04\n    /* \"#utility.yul\":976:991   */\n  mstore\n    /* \"#utility.yul\":1010:1014   */\n  0x24\n    /* \"#utility.yul\":1007:1008   */\n  0x00\n    /* \"#utility.yul\":1000:1015   */\n  revert\n    /* \"#utility.yul\":1027:1207   */\ntag_62:\n    /* \"#utility.yul\":1075:1152   */\n  0x4e487b7100000000000000000000000000000000000000000000000000000000\n    /* \"#utility.yul\":1072:1073   */\n  0x00\n    /* \"#utility.yul\":1065:1153   */\n  mstore\n    /* \"#utility.yul\":1172:1176   */\n  0x22\n    /* \"#utility.yul\":1169:1170   */\n  0x04\n    /* \"#utility.yul\":1162:1177   */\n  mstore\n    /* \"#utility.yul\":1196:1200   */\n  0x24\n    /* \"#utility.yul\":1193:1194   */\n  0x00\n    /* \"#utility.yul\":1186:1201   */\n  revert\n    /* \"contracts/ergasia.sol\":70:7964  contract Election {... */\ntag_11:\n  dataSize(sub_0)\n  dup1\n  dataOffset(sub_0)\n  0x00\n  codecopy\n  0x00\n  return\nstop\n\nsub_0: assembly {\n        /* \"contracts/ergasia.sol\":70:7964  contract Election {... */\n      mstore(0x40, 0x80)\n      callvalue\n      dup1\n      iszero\n      tag_1\n      jumpi\n      0x00\n      dup1\n      revert\n    tag_1:\n      pop\n      jumpi(tag_2, lt(calldatasize, 0x04))\n      shr(0xe0, calldataload(0x00))\n      dup1\n      0xa3ec138d\n      gt\n      tag_19\n      jumpi\n      dup1\n      0xd3808ae0\n      gt\n      tag_20\n      jumpi\n      dup1\n      0xd3808ae0\n      eq\n      tag_15\n      jumpi\n      dup1\n      0xdf9f1a07\n      eq\n      tag_16\n      jumpi\n      dup1\n      0xf3a8286f\n      eq\n      tag_17\n      jumpi\n      dup1\n      0xfe2442d7\n      eq\n      tag_18\n      jumpi\n      jump(tag_2)\n    tag_20:\n      dup1\n      0xa3ec138d\n      eq\n      tag_11\n      jumpi\n      dup1\n      0xb9223946\n      eq\n      tag_12\n      jumpi\n      dup1\n      0xb9f05f2f\n      eq\n      tag_13\n      jumpi\n      dup1\n      0xc19d93fb\n      eq\n      tag_14\n      jumpi\n      jump(tag_2)\n    tag_19:\n      dup1\n      0x3477ee2e\n      gt\n      tag_21\n      jumpi\n      dup1\n      0x3477ee2e\n      eq\n      tag_7\n      jumpi\n      dup1\n      0x4763d4e7\n      eq\n      tag_8\n      jumpi\n      dup1\n      0x4c0a6af0\n      eq\n      tag_9\n      jumpi\n      dup1\n      0x53357ad0\n      eq\n      tag_10\n      jumpi\n      jump(tag_2)\n    tag_21:\n      dup1\n      0xaa7464\n      eq\n      tag_3\n      jumpi\n      dup1\n      0x23a1b11c\n      eq\n      tag_4\n      jumpi\n      dup1\n      0x2c0a3f89\n      eq\n      tag_5\n      jumpi\n      dup1\n      0x2d35a8a2\n      eq\n      tag_6\n      jumpi\n    tag_2:\n      0x00\n      dup1\n      revert\n        /* \"contracts/ergasia.sol\":1418:1451  uint public totalRegisteredVoters */\n    tag_3:\n      tag_22\n      tag_23\n      jump\t// in\n    tag_22:\n      mload(0x40)\n      tag_24\n      swap2\n      swap1\n      tag_25\n      jump\t// in\n    tag_24:\n      mload(0x40)\n      dup1\n      swap2\n      sub\n      swap1\n      return\n        /* \"contracts/ergasia.sol\":7507:7961  function getResultsPerStation(uint _pStationID) public view returns (uint[] memory) {... */\n    tag_4:\n      tag_26\n      0x04\n      dup1\n      calldatasize\n      sub\n      dup2\n      add\n      swap1\n      tag_27\n      swap2\n      swap1\n      tag_28\n      jump\t// in\n    tag_27:\n      tag_29\n      jump\t// in\n    tag_26:\n      mload(0x40)\n      tag_30\n      swap2\n      swap1\n      tag_31\n      jump\t// in\n    tag_30:\n      mload(0x40)\n      dup1\n      swap2\n      sub\n      swap1\n      return\n        /* \"contracts/ergasia.sol\":6363:7171  function castVote(uint _choice, uint _pollingStationID) public inState(State.Voting) returns (bool voted) {... */\n    tag_5:\n      tag_32\n      0x04\n      dup1\n      calldatasize\n      sub\n      dup2\n      add\n      swap1\n      tag_33\n      swap2\n      swap1\n      tag_34\n      jump\t// in\n    tag_33:\n      tag_35\n      jump\t// in\n    tag_32:\n      mload(0x40)\n      tag_36\n      swap2\n      swap1\n      tag_37\n      jump\t// in\n    tag_36:\n      mload(0x40)\n      dup1\n      swap2\n      sub\n      swap1\n      return\n        /* \"contracts/ergasia.sol\":1276:1303  uint public candidatesCount */\n    tag_6:\n      tag_38\n      tag_39\n      jump\t// in\n    tag_38:\n      mload(0x40)\n      tag_40\n      swap2\n      swap1\n      tag_25\n      jump\t// in\n    tag_40:\n      mload(0x40)\n      dup1\n      swap2\n      sub\n      swap1\n      return\n        /* \"contracts/ergasia.sol\":1621:1665  mapping(uint => Candidate) public candidates */\n    tag_7:\n      tag_41\n      0x04\n      dup1\n      calldatasize\n      sub\n      dup2\n      add\n      swap1\n      tag_42\n      swap2\n      swap1\n      tag_28\n      jump\t// in\n    tag_42:\n      tag_43\n      jump\t// in\n    tag_41:\n      mload(0x40)\n      tag_44\n      swap4\n      swap3\n      swap2\n      swap1\n      tag_45\n      jump\t// in\n    tag_44:\n      mload(0x40)\n      dup1\n      swap2\n      sub\n      swap1\n      return\n        /* \"contracts/ergasia.sol\":1779:1825  mapping(address => Voter) public voterRegistry */\n    tag_8:\n      tag_46\n      0x04\n      dup1\n      calldatasize\n      sub\n      dup2\n      add\n      swap1\n      tag_47\n      swap2\n      swap1\n      tag_48\n      jump\t// in\n    tag_47:\n      tag_49\n      jump\t// in\n    tag_46:\n      mload(0x40)\n      tag_50\n      swap6\n      swap5\n      swap4\n      swap3\n      swap2\n      swap1\n      tag_51\n      jump\t// in\n    tag_50:\n      mload(0x40)\n      dup1\n      swap2\n      sub\n      swap1\n      return\n        /* \"contracts/ergasia.sol\":6263:6357  function startVote() public inState(State.Created) Owner {... */\n    tag_9:\n      tag_52\n      tag_53\n      jump\t// in\n    tag_52:\n      stop\n        /* \"contracts/ergasia.sol\":1242:1270  address public electionOwner */\n    tag_10:\n      tag_54\n      tag_55\n      jump\t// in\n    tag_54:\n      mload(0x40)\n      tag_56\n      swap2\n      swap1\n      tag_57\n      jump\t// in\n    tag_56:\n      mload(0x40)\n      dup1\n      swap2\n      sub\n      swap1\n      return\n        /* \"contracts/ergasia.sol\":1831:1869  mapping(address => bool) public voters */\n    tag_11:\n      tag_58\n      0x04\n      dup1\n      calldatasize\n      sub\n      dup2\n      add\n      swap1\n      tag_59\n      swap2\n      swap1\n      tag_48\n      jump\t// in\n    tag_59:\n      tag_60\n      jump\t// in\n    tag_58:\n      mload(0x40)\n      tag_61\n      swap2\n      swap1\n      tag_37\n      jump\t// in\n    tag_61:\n      mload(0x40)\n      dup1\n      swap2\n      sub\n      swap1\n      return\n        /* \"contracts/ergasia.sol\":7177:7303  function endVote() public inState(State.Voting) Owner { ... */\n    tag_12:\n      tag_62\n      tag_63\n      jump\t// in\n    tag_62:\n      stop\n        /* \"contracts/ergasia.sol\":4809:5729  function addVoter(address _voterAddress, uint _pollingStationID) public inState(State.Created) Owner {... */\n    tag_13:\n      tag_64\n      0x04\n      dup1\n      calldatasize\n      sub\n      dup2\n      add\n      swap1\n      tag_65\n      swap2\n      swap1\n      tag_66\n      jump\t// in\n    tag_65:\n      tag_67\n      jump\t// in\n    tag_64:\n      stop\n        /* \"contracts/ergasia.sol\":1922:1940  State public state */\n    tag_14:\n      tag_68\n      tag_69\n      jump\t// in\n    tag_68:\n      mload(0x40)\n      tag_70\n      swap2\n      swap1\n      tag_71\n      jump\t// in\n    tag_70:\n      mload(0x40)\n      dup1\n      swap2\n      sub\n      swap1\n      return\n        /* \"contracts/ergasia.sol\":7309:7501  function getResultsPerStation1(uint _pStationID, uint _candidateID) public view returns (Candidate memory) {... */\n    tag_15:\n      tag_72\n      0x04\n      dup1\n      calldatasize\n      sub\n      dup2\n      add\n      swap1\n      tag_73\n      swap2\n      swap1\n      tag_34\n      jump\t// in\n    tag_73:\n      tag_74\n      jump\t// in\n    tag_72:\n      mload(0x40)\n      tag_75\n      swap2\n      swap1\n      tag_76\n      jump\t// in\n    tag_75:\n      mload(0x40)\n      dup1\n      swap2\n      sub\n      swap1\n      return\n        /* \"contracts/ergasia.sol\":1344:1375  uint public pollingStationCount */\n    tag_16:\n      tag_77\n      tag_78\n      jump\t// in\n    tag_77:\n      mload(0x40)\n      tag_79\n      swap2\n      swap1\n      tag_25\n      jump\t// in\n    tag_79:\n      mload(0x40)\n      dup1\n      swap2\n      sub\n      swap1\n      return\n        /* \"contracts/ergasia.sol\":1539:1562  uint public finalResult */\n    tag_17:\n      tag_80\n      tag_81\n      jump\t// in\n    tag_80:\n      mload(0x40)\n      tag_82\n      swap2\n      swap1\n      tag_25\n      jump\t// in\n    tag_82:\n      mload(0x40)\n      dup1\n      swap2\n      sub\n      swap1\n      return\n        /* \"contracts/ergasia.sol\":1695:1749  mapping(uint => PollingStation) public pollingStations */\n    tag_18:\n      tag_83\n      0x04\n      dup1\n      calldatasize\n      sub\n      dup2\n      add\n      swap1\n      tag_84\n      swap2\n      swap1\n      tag_28\n      jump\t// in\n    tag_84:\n      tag_85\n      jump\t// in\n    tag_83:\n      mload(0x40)\n      tag_86\n      swap5\n      swap4\n      swap3\n      swap2\n      swap1\n      tag_87\n      jump\t// in\n    tag_86:\n      mload(0x40)\n      dup1\n      swap2\n      sub\n      swap1\n      return\n        /* \"contracts/ergasia.sol\":1418:1451  uint public totalRegisteredVoters */\n    tag_23:\n      sload(0x03)\n      dup2\n      jump\t// out\n        /* \"contracts/ergasia.sol\":7507:7961  function getResultsPerStation(uint _pStationID) public view returns (uint[] memory) {... */\n    tag_29:\n        /* \"contracts/ergasia.sol\":7576:7589  uint[] memory */\n      0x60\n        /* \"contracts/ergasia.sol\":7601:7632  PollingStation storage pStation */\n      0x00\n        /* \"contracts/ergasia.sol\":7635:7650  pollingStations */\n      0x07\n        /* \"contracts/ergasia.sol\":7635:7663  pollingStations[_pStationID] */\n      0x00\n        /* \"contracts/ergasia.sol\":7651:7662  _pStationID */\n      dup5\n        /* \"contracts/ergasia.sol\":7635:7663  pollingStations[_pStationID] */\n      dup2\n      mstore\n      0x20\n      add\n      swap1\n      dup2\n      mstore\n      0x20\n      add\n      0x00\n      keccak256\n        /* \"contracts/ergasia.sol\":7601:7663  PollingStation storage pStation = pollingStations[_pStationID] */\n      swap1\n      pop\n        /* \"contracts/ergasia.sol\":7674:7700  uint[] memory countedVotes */\n      0x60\n        /* \"contracts/ergasia.sol\":7716:7722  uint i */\n      0x00\n        /* \"contracts/ergasia.sol\":7725:7726  1 */\n      0x01\n        /* \"contracts/ergasia.sol\":7716:7726  uint i = 1 */\n      swap1\n      pop\n        /* \"contracts/ergasia.sol\":7711:7925  for (uint i = 1; i <= candidatesCount; i++) {... */\n    tag_89:\n        /* \"contracts/ergasia.sol\":7733:7748  candidatesCount */\n      sload(0x01)\n        /* \"contracts/ergasia.sol\":7728:7729  i */\n      dup2\n        /* \"contracts/ergasia.sol\":7728:7748  i <= candidatesCount */\n      gt\n        /* \"contracts/ergasia.sol\":7711:7925  for (uint i = 1; i <= candidatesCount; i++) {... */\n      tag_90\n      jumpi\n        /* \"contracts/ergasia.sol\":7787:7795  pStation */\n      dup3\n        /* \"contracts/ergasia.sol\":7787:7814  pStation.scoresPerCandidate */\n      0x04\n      add\n        /* \"contracts/ergasia.sol\":7787:7817  pStation.scoresPerCandidate[i] */\n      0x00\n        /* \"contracts/ergasia.sol\":7815:7816  i */\n      dup3\n        /* \"contracts/ergasia.sol\":7787:7817  pStation.scoresPerCandidate[i] */\n      dup2\n      mstore\n      0x20\n      add\n      swap1\n      dup2\n      mstore\n      0x20\n      add\n      0x00\n      keccak256\n        /* \"contracts/ergasia.sol\":7787:7823  pStation.scoresPerCandidate[i].votes */\n      0x02\n      add\n      sload\n        /* \"contracts/ergasia.sol\":7769:7781  countedVotes */\n      dup3\n        /* \"contracts/ergasia.sol\":7782:7783  i */\n      dup3\n        /* \"contracts/ergasia.sol\":7769:7784  countedVotes[i] */\n      dup2\n      mload\n      dup2\n      lt\n      tag_92\n      jumpi\n      tag_93\n      tag_94\n      jump\t// in\n    tag_93:\n    tag_92:\n      0x20\n      mul\n      0x20\n      add\n      add\n        /* \"contracts/ergasia.sol\":7769:7823  countedVotes[i] = pStation.scoresPerCandidate[i].votes */\n      dup2\n      dup2\n      mstore\n      pop\n      pop\n        /* \"contracts/ergasia.sol\":7750:7753  i++ */\n      dup1\n      dup1\n      tag_95\n      swap1\n      tag_96\n      jump\t// in\n    tag_95:\n      swap2\n      pop\n      pop\n        /* \"contracts/ergasia.sol\":7711:7925  for (uint i = 1; i <= candidatesCount; i++) {... */\n      jump(tag_89)\n    tag_90:\n      pop\n        /* \"contracts/ergasia.sol\":7942:7954  countedVotes */\n      dup1\n        /* \"contracts/ergasia.sol\":7935:7954  return countedVotes */\n      swap3\n      pop\n      pop\n      pop\n        /* \"contracts/ergasia.sol\":7507:7961  function getResultsPerStation(uint _pStationID) public view returns (uint[] memory) {... */\n      swap2\n      swap1\n      pop\n      jump\t// out\n        /* \"contracts/ergasia.sol\":6363:7171  function castVote(uint _choice, uint _pollingStationID) public inState(State.Voting) returns (bool voted) {... */\n    tag_35:\n        /* \"contracts/ergasia.sol\":6457:6467  bool voted */\n      0x00\n        /* \"contracts/ergasia.sol\":6434:6446  State.Voting */\n      0x01\n        /* \"contracts/ergasia.sol\":2092:2098  _state */\n      dup1\n        /* \"contracts/ergasia.sol\":2083:2098  state == _state */\n      0x02\n      dup2\n      gt\n      iszero\n      tag_98\n      jumpi\n      tag_99\n      tag_100\n      jump\t// in\n    tag_99:\n    tag_98:\n        /* \"contracts/ergasia.sol\":2083:2088  state */\n      0x0a\n      0x00\n      swap1\n      sload\n      swap1\n      0x0100\n      exp\n      swap1\n      div\n      0xff\n      and\n        /* \"contracts/ergasia.sol\":2083:2098  state == _state */\n      0x02\n      dup2\n      gt\n      iszero\n      tag_101\n      jumpi\n      tag_102\n      tag_100\n      jump\t// in\n    tag_102:\n    tag_101:\n      eq\n        /* \"contracts/ergasia.sol\":2075:2099  require(state == _state) */\n      tag_103\n      jumpi\n      0x00\n      dup1\n      revert\n    tag_103:\n        /* \"contracts/ergasia.sol\":6480:6490  bool found */\n      0x00\n        /* \"contracts/ergasia.sol\":6513:6526  voterRegistry */\n      0x08\n        /* \"contracts/ergasia.sol\":6513:6538  voterRegistry[msg.sender] */\n      0x00\n        /* \"contracts/ergasia.sol\":6527:6537  msg.sender */\n      caller\n        /* \"contracts/ergasia.sol\":6513:6538  voterRegistry[msg.sender] */\n      0xffffffffffffffffffffffffffffffffffffffff\n      and\n      0xffffffffffffffffffffffffffffffffffffffff\n      and\n      dup2\n      mstore\n      0x20\n      add\n      swap1\n      dup2\n      mstore\n      0x20\n      add\n      0x00\n      keccak256\n        /* \"contracts/ergasia.sol\":6513:6549  voterRegistry[msg.sender].isEnrolled */\n      0x00\n      add\n      0x00\n      swap1\n      sload\n      swap1\n      0x0100\n      exp\n      swap1\n      div\n      0xff\n      and\n        /* \"contracts/ergasia.sol\":6513:6588  voterRegistry[msg.sender].isEnrolled && !voterRegistry[msg.sender].hasVoted */\n      dup1\n      iszero\n      tag_105\n      jumpi\n      pop\n        /* \"contracts/ergasia.sol\":6554:6567  voterRegistry */\n      0x08\n        /* \"contracts/ergasia.sol\":6554:6579  voterRegistry[msg.sender] */\n      0x00\n        /* \"contracts/ergasia.sol\":6568:6578  msg.sender */\n      caller\n        /* \"contracts/ergasia.sol\":6554:6579  voterRegistry[msg.sender] */\n      0xffffffffffffffffffffffffffffffffffffffff\n      and\n      0xffffffffffffffffffffffffffffffffffffffff\n      and\n      dup2\n      mstore\n      0x20\n      add\n      swap1\n      dup2\n      mstore\n      0x20\n      add\n      0x00\n      keccak256\n        /* \"contracts/ergasia.sol\":6554:6588  voterRegistry[msg.sender].hasVoted */\n      0x00\n      add\n      0x01\n      swap1\n      sload\n      swap1\n      0x0100\n      exp\n      swap1\n      div\n      0xff\n      and\n        /* \"contracts/ergasia.sol\":6553:6588  !voterRegistry[msg.sender].hasVoted */\n      iszero\n        /* \"contracts/ergasia.sol\":6513:6588  voterRegistry[msg.sender].isEnrolled && !voterRegistry[msg.sender].hasVoted */\n    tag_105:\n        /* \"contracts/ergasia.sol\":6509:7143  if (voterRegistry[msg.sender].isEnrolled && !voterRegistry[msg.sender].hasVoted) {... */\n      iszero\n      tag_106\n      jumpi\n        /* \"contracts/ergasia.sol\":6640:6647  _choice */\n      dup5\n        /* \"contracts/ergasia.sol\":6605:6618  voterRegistry */\n      0x08\n        /* \"contracts/ergasia.sol\":6605:6630  voterRegistry[msg.sender] */\n      0x00\n        /* \"contracts/ergasia.sol\":6619:6629  msg.sender */\n      caller\n        /* \"contracts/ergasia.sol\":6605:6630  voterRegistry[msg.sender] */\n      0xffffffffffffffffffffffffffffffffffffffff\n      and\n      0xffffffffffffffffffffffffffffffffffffffff\n      and\n      dup2\n      mstore\n      0x20\n      add\n      swap1\n      dup2\n      mstore\n      0x20\n      add\n      0x00\n      keccak256\n        /* \"contracts/ergasia.sol\":6605:6637  voterRegistry[msg.sender].choice */\n      0x01\n      add\n        /* \"contracts/ergasia.sol\":6605:6647  voterRegistry[msg.sender].choice = _choice */\n      dup2\n      swap1\n      sstore\n      pop\n        /* \"contracts/ergasia.sol\":6711:6728  _pollingStationID */\n      dup4\n        /* \"contracts/ergasia.sol\":6661:6674  voterRegistry */\n      0x08\n        /* \"contracts/ergasia.sol\":6661:6686  voterRegistry[msg.sender] */\n      0x00\n        /* \"contracts/ergasia.sol\":6675:6685  msg.sender */\n      caller\n        /* \"contracts/ergasia.sol\":6661:6686  voterRegistry[msg.sender] */\n      0xffffffffffffffffffffffffffffffffffffffff\n      and\n      0xffffffffffffffffffffffffffffffffffffffff\n      and\n      dup2\n      mstore\n      0x20\n      add\n      swap1\n      dup2\n      mstore\n      0x20\n      add\n      0x00\n      keccak256\n        /* \"contracts/ergasia.sol\":6661:6708  voterRegistry[msg.sender].votedPollingStationID */\n      0x03\n      add\n        /* \"contracts/ergasia.sol\":6661:6728  voterRegistry[msg.sender].votedPollingStationID = _pollingStationID */\n      dup2\n      swap1\n      sstore\n      pop\n        /* \"contracts/ergasia.sol\":6779:6783  true */\n      0x01\n        /* \"contracts/ergasia.sol\":6742:6755  voterRegistry */\n      0x08\n        /* \"contracts/ergasia.sol\":6742:6767  voterRegistry[msg.sender] */\n      0x00\n        /* \"contracts/ergasia.sol\":6756:6766  msg.sender */\n      caller\n        /* \"contracts/ergasia.sol\":6742:6767  voterRegistry[msg.sender] */\n      0xffffffffffffffffffffffffffffffffffffffff\n      and\n      0xffffffffffffffffffffffffffffffffffffffff\n      and\n      dup2\n      mstore\n      0x20\n      add\n      swap1\n      dup2\n      mstore\n      0x20\n      add\n      0x00\n      keccak256\n        /* \"contracts/ergasia.sol\":6742:6776  voterRegistry[msg.sender].hasVoted */\n      0x00\n      add\n      0x01\n        /* \"contracts/ergasia.sol\":6742:6783  voterRegistry[msg.sender].hasVoted = true */\n      0x0100\n      exp\n      dup2\n      sload\n      dup2\n      0xff\n      mul\n      not\n      and\n      swap1\n      dup4\n      iszero\n      iszero\n      mul\n      or\n      swap1\n      sstore\n      pop\n        /* \"contracts/ergasia.sol\":6798:6813  pollingStations */\n      0x07\n        /* \"contracts/ergasia.sol\":6798:6832  pollingStations[_pollingStationID] */\n      0x00\n        /* \"contracts/ergasia.sol\":6814:6831  _pollingStationID */\n      dup6\n        /* \"contracts/ergasia.sol\":6798:6832  pollingStations[_pollingStationID] */\n      dup2\n      mstore\n      0x20\n      add\n      swap1\n      dup2\n      mstore\n      0x20\n      add\n      0x00\n      keccak256\n        /* \"contracts/ergasia.sol\":6798:6844  pollingStations[_pollingStationID].votesCasted */\n      0x03\n      add\n      0x00\n        /* \"contracts/ergasia.sol\":6798:6846  pollingStations[_pollingStationID].votesCasted++ */\n      dup2\n      sload\n      dup1\n      swap3\n      swap2\n      swap1\n      tag_107\n      swap1\n      tag_96\n      jump\t// in\n    tag_107:\n      swap2\n      swap1\n      pop\n      sstore\n      pop\n        /* \"contracts/ergasia.sol\":6861:6871  candidates */\n      0x06\n        /* \"contracts/ergasia.sol\":6861:6880  candidates[_choice] */\n      0x00\n        /* \"contracts/ergasia.sol\":6872:6879  _choice */\n      dup7\n        /* \"contracts/ergasia.sol\":6861:6880  candidates[_choice] */\n      dup2\n      mstore\n      0x20\n      add\n      swap1\n      dup2\n      mstore\n      0x20\n      add\n      0x00\n      keccak256\n        /* \"contracts/ergasia.sol\":6861:6886  candidates[_choice].votes */\n      0x02\n      add\n      0x00\n        /* \"contracts/ergasia.sol\":6861:6888  candidates[_choice].votes++ */\n      dup2\n      sload\n      dup1\n      swap3\n      swap2\n      swap1\n      tag_108\n      swap1\n      tag_96\n      jump\t// in\n    tag_108:\n      swap2\n      swap1\n      pop\n      sstore\n      pop\n        /* \"contracts/ergasia.sol\":6903:6914  countResult */\n      0x04\n      0x00\n        /* \"contracts/ergasia.sol\":6903:6916  countResult++ */\n      dup2\n      sload\n      dup1\n      swap3\n      swap2\n      swap1\n      tag_109\n      swap1\n      tag_96\n      jump\t// in\n    tag_109:\n      swap2\n      swap1\n      pop\n      sstore\n      pop\n        /* \"contracts/ergasia.sol\":6938:6942  true */\n      0x01\n        /* \"contracts/ergasia.sol\":6930:6942  found = true */\n      swap1\n      pop\n        /* \"contracts/ergasia.sol\":6977:6982  found */\n      dup1\n        /* \"contracts/ergasia.sol\":6956:6962  voters */\n      0x09\n        /* \"contracts/ergasia.sol\":6956:6974  voters[msg.sender] */\n      0x00\n        /* \"contracts/ergasia.sol\":6963:6973  msg.sender */\n      caller\n        /* \"contracts/ergasia.sol\":6956:6974  voters[msg.sender] */\n      0xffffffffffffffffffffffffffffffffffffffff\n      and\n      0xffffffffffffffffffffffffffffffffffffffff\n      and\n      dup2\n      mstore\n      0x20\n      add\n      swap1\n      dup2\n      mstore\n      0x20\n      add\n      0x00\n      keccak256\n      0x00\n        /* \"contracts/ergasia.sol\":6956:6982  voters[msg.sender] = found */\n      0x0100\n      exp\n      dup2\n      sload\n      dup2\n      0xff\n      mul\n      not\n      and\n      swap1\n      dup4\n      iszero\n      iszero\n      mul\n      or\n      swap1\n      sstore\n      pop\n        /* \"contracts/ergasia.sol\":6997:7012  pollingStations */\n      0x07\n        /* \"contracts/ergasia.sol\":6997:7031  pollingStations[_pollingStationID] */\n      0x00\n        /* \"contracts/ergasia.sol\":7013:7030  _pollingStationID */\n      dup6\n        /* \"contracts/ergasia.sol\":6997:7031  pollingStations[_pollingStationID] */\n      dup2\n      mstore\n      0x20\n      add\n      swap1\n      dup2\n      mstore\n      0x20\n      add\n      0x00\n      keccak256\n        /* \"contracts/ergasia.sol\":6997:7050  pollingStations[_pollingStationID].scoresPerCandidate */\n      0x04\n      add\n        /* \"contracts/ergasia.sol\":6997:7059  pollingStations[_pollingStationID].scoresPerCandidate[_choice] */\n      0x00\n        /* \"contracts/ergasia.sol\":7051:7058  _choice */\n      dup7\n        /* \"contracts/ergasia.sol\":6997:7059  pollingStations[_pollingStationID].scoresPerCandidate[_choice] */\n      dup2\n      mstore\n      0x20\n      add\n      swap1\n      dup2\n      mstore\n      0x20\n      add\n      0x00\n      keccak256\n        /* \"contracts/ergasia.sol\":6997:7065  pollingStations[_pollingStationID].scoresPerCandidate[_choice].votes */\n      0x02\n      add\n      0x00\n        /* \"contracts/ergasia.sol\":6997:7067  pollingStations[_pollingStationID].scoresPerCandidate[_choice].votes++ */\n      dup2\n      sload\n      dup1\n      swap3\n      swap2\n      swap1\n      tag_110\n      swap1\n      tag_96\n      jump\t// in\n    tag_110:\n      swap2\n      swap1\n      pop\n      sstore\n      pop\n        /* \"contracts/ergasia.sol\":7087:7132  VoteCasted(found, _choice, _pollingStationID) */\n      0x29a25b3d0b6ff7e5de2a60a2e8e76d1bdaf4894ec18c598cc1687213f442c5cb\n        /* \"contracts/ergasia.sol\":7098:7103  found */\n      dup2\n        /* \"contracts/ergasia.sol\":7105:7112  _choice */\n      dup7\n        /* \"contracts/ergasia.sol\":7114:7131  _pollingStationID */\n      dup7\n        /* \"contracts/ergasia.sol\":7087:7132  VoteCasted(found, _choice, _pollingStationID) */\n      mload(0x40)\n      tag_111\n      swap4\n      swap3\n      swap2\n      swap1\n      tag_112\n      jump\t// in\n    tag_111:\n      mload(0x40)\n      dup1\n      swap2\n      sub\n      swap1\n      log1\n        /* \"contracts/ergasia.sol\":6509:7143  if (voterRegistry[msg.sender].isEnrolled && !voterRegistry[msg.sender].hasVoted) {... */\n    tag_106:\n        /* \"contracts/ergasia.sol\":7159:7164  found */\n      dup1\n        /* \"contracts/ergasia.sol\":7152:7164  return found */\n      swap3\n      pop\n      pop\n        /* \"contracts/ergasia.sol\":6363:7171  function castVote(uint _choice, uint _pollingStationID) public inState(State.Voting) returns (bool voted) {... */\n      pop\n      swap3\n      swap2\n      pop\n      pop\n      jump\t// out\n        /* \"contracts/ergasia.sol\":1276:1303  uint public candidatesCount */\n    tag_39:\n      sload(0x01)\n      dup2\n      jump\t// out\n        /* \"contracts/ergasia.sol\":1621:1665  mapping(uint => Candidate) public candidates */\n    tag_43:\n      mstore(0x20, 0x06)\n      dup1\n      0x00\n      mstore\n      keccak256(0x00, 0x40)\n      0x00\n      swap2\n      pop\n      swap1\n      pop\n      dup1\n      0x00\n      add\n      sload\n      swap1\n      dup1\n      0x01\n      add\n      dup1\n      sload\n      tag_113\n      swap1\n      tag_114\n      jump\t// in\n    tag_113:\n      dup1\n      0x1f\n      add\n      0x20\n      dup1\n      swap2\n      div\n      mul\n      0x20\n      add\n      mload(0x40)\n      swap1\n      dup2\n      add\n      0x40\n      mstore\n      dup1\n      swap3\n      swap2\n      swap1\n      dup2\n      dup2\n      mstore\n      0x20\n      add\n      dup3\n      dup1\n      sload\n      tag_115\n      swap1\n      tag_114\n      jump\t// in\n    tag_115:\n      dup1\n      iszero\n      tag_116\n      jumpi\n      dup1\n      0x1f\n      lt\n      tag_117\n      jumpi\n      0x0100\n      dup1\n      dup4\n      sload\n      div\n      mul\n      dup4\n      mstore\n      swap2\n      0x20\n      add\n      swap2\n      jump(tag_116)\n    tag_117:\n      dup3\n      add\n      swap2\n      swap1\n      0x00\n      mstore\n      keccak256(0x00, 0x20)\n      swap1\n    tag_118:\n      dup2\n      sload\n      dup2\n      mstore\n      swap1\n      0x01\n      add\n      swap1\n      0x20\n      add\n      dup1\n      dup4\n      gt\n      tag_118\n      jumpi\n      dup3\n      swap1\n      sub\n      0x1f\n      and\n      dup3\n      add\n      swap2\n    tag_116:\n      pop\n      pop\n      pop\n      pop\n      pop\n      swap1\n      dup1\n      0x02\n      add\n      sload\n      swap1\n      pop\n      dup4\n      jump\t// out\n        /* \"contracts/ergasia.sol\":1779:1825  mapping(address => Voter) public voterRegistry */\n    tag_49:\n      mstore(0x20, 0x08)\n      dup1\n      0x00\n      mstore\n      keccak256(0x00, 0x40)\n      0x00\n      swap2\n      pop\n      swap1\n      pop\n      dup1\n      0x00\n      add\n      0x00\n      swap1\n      sload\n      swap1\n      0x0100\n      exp\n      swap1\n      div\n      0xff\n      and\n      swap1\n      dup1\n      0x00\n      add\n      0x01\n      swap1\n      sload\n      swap1\n      0x0100\n      exp\n      swap1\n      div\n      0xff\n      and\n      swap1\n      dup1\n      0x01\n      add\n      sload\n      swap1\n      dup1\n      0x02\n      add\n      sload\n      swap1\n      dup1\n      0x03\n      add\n      sload\n      swap1\n      pop\n      dup6\n      jump\t// out\n        /* \"contracts/ergasia.sol\":6263:6357  function startVote() public inState(State.Created) Owner {... */\n    tag_53:\n        /* \"contracts/ergasia.sol\":6299:6312  State.Created */\n      0x00\n        /* \"contracts/ergasia.sol\":2092:2098  _state */\n      dup1\n        /* \"contracts/ergasia.sol\":2083:2098  state == _state */\n      0x02\n      dup2\n      gt\n      iszero\n      tag_120\n      jumpi\n      tag_121\n      tag_100\n      jump\t// in\n    tag_121:\n    tag_120:\n        /* \"contracts/ergasia.sol\":2083:2088  state */\n      0x0a\n      0x00\n      swap1\n      sload\n      swap1\n      0x0100\n      exp\n      swap1\n      div\n      0xff\n      and\n        /* \"contracts/ergasia.sol\":2083:2098  state == _state */\n      0x02\n      dup2\n      gt\n      iszero\n      tag_122\n      jumpi\n      tag_123\n      tag_100\n      jump\t// in\n    tag_123:\n    tag_122:\n      eq\n        /* \"contracts/ergasia.sol\":2075:2099  require(state == _state) */\n      tag_124\n      jumpi\n      0x00\n      dup1\n      revert\n    tag_124:\n        /* \"contracts/ergasia.sol\":1996:2009  electionOwner */\n      0x00\n      dup1\n      sload\n      swap1\n      0x0100\n      exp\n      swap1\n      div\n      0xffffffffffffffffffffffffffffffffffffffff\n      and\n        /* \"contracts/ergasia.sol\":1982:2009  msg.sender == electionOwner */\n      0xffffffffffffffffffffffffffffffffffffffff\n      and\n        /* \"contracts/ergasia.sol\":1982:1992  msg.sender */\n      caller\n        /* \"contracts/ergasia.sol\":1982:2009  msg.sender == electionOwner */\n      0xffffffffffffffffffffffffffffffffffffffff\n      and\n      eq\n        /* \"contracts/ergasia.sol\":1974:2010  require(msg.sender == electionOwner) */\n      tag_126\n      jumpi\n      0x00\n      dup1\n      revert\n    tag_126:\n        /* \"contracts/ergasia.sol\":6338:6350  State.Voting */\n      0x01\n        /* \"contracts/ergasia.sol\":6330:6335  state */\n      0x0a\n      0x00\n        /* \"contracts/ergasia.sol\":6330:6350  state = State.Voting */\n      0x0100\n      exp\n      dup2\n      sload\n      dup2\n      0xff\n      mul\n      not\n      and\n      swap1\n      dup4\n      0x02\n      dup2\n      gt\n      iszero\n      tag_128\n      jumpi\n      tag_129\n      tag_100\n      jump\t// in\n    tag_129:\n    tag_128:\n      mul\n      or\n      swap1\n      sstore\n      pop\n        /* \"contracts/ergasia.sol\":6263:6357  function startVote() public inState(State.Created) Owner {... */\n      pop\n      jump\t// out\n        /* \"contracts/ergasia.sol\":1242:1270  address public electionOwner */\n    tag_55:\n      0x00\n      dup1\n      sload\n      swap1\n      0x0100\n      exp\n      swap1\n      div\n      0xffffffffffffffffffffffffffffffffffffffff\n      and\n      dup2\n      jump\t// out\n        /* \"contracts/ergasia.sol\":1831:1869  mapping(address => bool) public voters */\n    tag_60:\n      mstore(0x20, 0x09)\n      dup1\n      0x00\n      mstore\n      keccak256(0x00, 0x40)\n      0x00\n      swap2\n      pop\n      sload\n      swap1\n      0x0100\n      exp\n      swap1\n      div\n      0xff\n      and\n      dup2\n      jump\t// out\n        /* \"contracts/ergasia.sol\":7177:7303  function endVote() public inState(State.Voting) Owner { ... */\n    tag_63:\n        /* \"contracts/ergasia.sol\":7211:7223  State.Voting */\n      0x01\n        /* \"contracts/ergasia.sol\":2092:2098  _state */\n      dup1\n        /* \"contracts/ergasia.sol\":2083:2098  state == _state */\n      0x02\n      dup2\n      gt\n      iszero\n      tag_131\n      jumpi\n      tag_132\n      tag_100\n      jump\t// in\n    tag_132:\n    tag_131:\n        /* \"contracts/ergasia.sol\":2083:2088  state */\n      0x0a\n      0x00\n      swap1\n      sload\n      swap1\n      0x0100\n      exp\n      swap1\n      div\n      0xff\n      and\n        /* \"contracts/ergasia.sol\":2083:2098  state == _state */\n      0x02\n      dup2\n      gt\n      iszero\n      tag_133\n      jumpi\n      tag_134\n      tag_100\n      jump\t// in\n    tag_134:\n    tag_133:\n      eq\n        /* \"contracts/ergasia.sol\":2075:2099  require(state == _state) */\n      tag_135\n      jumpi\n      0x00\n      dup1\n      revert\n    tag_135:\n        /* \"contracts/ergasia.sol\":1996:2009  electionOwner */\n      0x00\n      dup1\n      sload\n      swap1\n      0x0100\n      exp\n      swap1\n      div\n      0xffffffffffffffffffffffffffffffffffffffff\n      and\n        /* \"contracts/ergasia.sol\":1982:2009  msg.sender == electionOwner */\n      0xffffffffffffffffffffffffffffffffffffffff\n      and\n        /* \"contracts/ergasia.sol\":1982:1992  msg.sender */\n      caller\n        /* \"contracts/ergasia.sol\":1982:2009  msg.sender == electionOwner */\n      0xffffffffffffffffffffffffffffffffffffffff\n      and\n      eq\n        /* \"contracts/ergasia.sol\":1974:2010  require(msg.sender == electionOwner) */\n      tag_137\n      jumpi\n      0x00\n      dup1\n      revert\n    tag_137:\n        /* \"contracts/ergasia.sol\":7250:7261  State.Ended */\n      0x02\n        /* \"contracts/ergasia.sol\":7242:7247  state */\n      0x0a\n      0x00\n        /* \"contracts/ergasia.sol\":7242:7261  state = State.Ended */\n      0x0100\n      exp\n      dup2\n      sload\n      dup2\n      0xff\n      mul\n      not\n      and\n      swap1\n      dup4\n      0x02\n      dup2\n      gt\n      iszero\n      tag_139\n      jumpi\n      tag_140\n      tag_100\n      jump\t// in\n    tag_140:\n    tag_139:\n      mul\n      or\n      swap1\n      sstore\n      pop\n        /* \"contracts/ergasia.sol\":7285:7296  countResult */\n      sload(0x04)\n        /* \"contracts/ergasia.sol\":7271:7282  finalResult */\n      0x05\n        /* \"contracts/ergasia.sol\":7271:7296  finalResult = countResult */\n      dup2\n      swap1\n      sstore\n      pop\n        /* \"contracts/ergasia.sol\":7177:7303  function endVote() public inState(State.Voting) Owner { ... */\n      pop\n      jump\t// out\n        /* \"contracts/ergasia.sol\":4809:5729  function addVoter(address _voterAddress, uint _pollingStationID) public inState(State.Created) Owner {... */\n    tag_67:\n        /* \"contracts/ergasia.sol\":4889:4902  State.Created */\n      0x00\n        /* \"contracts/ergasia.sol\":2092:2098  _state */\n      dup1\n        /* \"contracts/ergasia.sol\":2083:2098  state == _state */\n      0x02\n      dup2\n      gt\n      iszero\n      tag_142\n      jumpi\n      tag_143\n      tag_100\n      jump\t// in\n    tag_143:\n    tag_142:\n        /* \"contracts/ergasia.sol\":2083:2088  state */\n      0x0a\n      0x00\n      swap1\n      sload\n      swap1\n      0x0100\n      exp\n      swap1\n      div\n      0xff\n      and\n        /* \"contracts/ergasia.sol\":2083:2098  state == _state */\n      0x02\n      dup2\n      gt\n      iszero\n      tag_144\n      jumpi\n      tag_145\n      tag_100\n      jump\t// in\n    tag_145:\n    tag_144:\n      eq\n        /* \"contracts/ergasia.sol\":2075:2099  require(state == _state) */\n      tag_146\n      jumpi\n      0x00\n      dup1\n      revert\n    tag_146:\n        /* \"contracts/ergasia.sol\":1996:2009  electionOwner */\n      0x00\n      dup1\n      sload\n      swap1\n      0x0100\n      exp\n      swap1\n      div\n      0xffffffffffffffffffffffffffffffffffffffff\n      and\n        /* \"contracts/ergasia.sol\":1982:2009  msg.sender == electionOwner */\n      0xffffffffffffffffffffffffffffffffffffffff\n      and\n        /* \"contracts/ergasia.sol\":1982:1992  msg.sender */\n      caller\n        /* \"contracts/ergasia.sol\":1982:2009  msg.sender == electionOwner */\n      0xffffffffffffffffffffffffffffffffffffffff\n      and\n      eq\n        /* \"contracts/ergasia.sol\":1974:2010  require(msg.sender == electionOwner) */\n      tag_148\n      jumpi\n      0x00\n      dup1\n      revert\n    tag_148:\n        /* \"contracts/ergasia.sol\":5028:5033  false */\n      0x00\n        /* \"contracts/ergasia.sol\":4985:5033  voterRegistry[_voterAddress].isEnrolled == false */\n      iszero\n      iszero\n        /* \"contracts/ergasia.sol\":4985:4998  voterRegistry */\n      0x08\n        /* \"contracts/ergasia.sol\":4985:5013  voterRegistry[_voterAddress] */\n      0x00\n        /* \"contracts/ergasia.sol\":4999:5012  _voterAddress */\n      dup6\n        /* \"contracts/ergasia.sol\":4985:5013  voterRegistry[_voterAddress] */\n      0xffffffffffffffffffffffffffffffffffffffff\n      and\n      0xffffffffffffffffffffffffffffffffffffffff\n      and\n      dup2\n      mstore\n      0x20\n      add\n      swap1\n      dup2\n      mstore\n      0x20\n      add\n      0x00\n      keccak256\n        /* \"contracts/ergasia.sol\":4985:5024  voterRegistry[_voterAddress].isEnrolled */\n      0x00\n      add\n      0x00\n      swap1\n      sload\n      swap1\n      0x0100\n      exp\n      swap1\n      div\n      0xff\n      and\n        /* \"contracts/ergasia.sol\":4985:5033  voterRegistry[_voterAddress].isEnrolled == false */\n      iszero\n      iszero\n      eq\n        /* \"contracts/ergasia.sol\":4977:5066  require(voterRegistry[_voterAddress].isEnrolled == false, \"Voter is already registered.\") */\n      tag_150\n      jumpi\n      mload(0x40)\n      0x08c379a000000000000000000000000000000000000000000000000000000000\n      dup2\n      mstore\n      0x04\n      add\n      tag_151\n      swap1\n      tag_152\n      jump\t// in\n    tag_151:\n      mload(0x40)\n      dup1\n      swap2\n      sub\n      swap1\n      revert\n    tag_150:\n        /* \"contracts/ergasia.sol\":5305:5306  1 */\n      0x01\n        /* \"contracts/ergasia.sol\":5285:5302  _pollingStationID */\n      dup3\n        /* \"contracts/ergasia.sol\":5285:5306  _pollingStationID >=1 */\n      lt\n      iszero\n        /* \"contracts/ergasia.sol\":5285:5350  _pollingStationID >=1 && _pollingStationID <= pollingStationCount */\n      dup1\n      iszero\n      tag_153\n      jumpi\n      pop\n        /* \"contracts/ergasia.sol\":5331:5350  pollingStationCount */\n      sload(0x02)\n        /* \"contracts/ergasia.sol\":5310:5327  _pollingStationID */\n      dup3\n        /* \"contracts/ergasia.sol\":5310:5350  _pollingStationID <= pollingStationCount */\n      gt\n      iszero\n        /* \"contracts/ergasia.sol\":5285:5350  _pollingStationID >=1 && _pollingStationID <= pollingStationCount */\n    tag_153:\n        /* \"contracts/ergasia.sol\":5277:5397  require(_pollingStationID >=1 && _pollingStationID <= pollingStationCount, \"Please provide a valid polling station ID.\") */\n      tag_154\n      jumpi\n      mload(0x40)\n      0x08c379a000000000000000000000000000000000000000000000000000000000\n      dup2\n      mstore\n      0x04\n      add\n      tag_155\n      swap1\n      tag_156\n      jump\t// in\n    tag_155:\n      mload(0x40)\n      dup1\n      swap2\n      sub\n      swap1\n      revert\n    tag_154:\n        /* \"contracts/ergasia.sol\":5408:5422  Voter memory v */\n      tag_157\n      tag_158\n      jump\t// in\n    tag_157:\n        /* \"contracts/ergasia.sol\":5447:5451  true */\n      0x01\n        /* \"contracts/ergasia.sol\":5432:5433  v */\n      dup2\n        /* \"contracts/ergasia.sol\":5432:5444  v.isEnrolled */\n      0x00\n      add\n        /* \"contracts/ergasia.sol\":5432:5451  v.isEnrolled = true */\n      swap1\n      iszero\n      iszero\n      swap1\n      dup2\n      iszero\n      iszero\n      dup2\n      mstore\n      pop\n      pop\n        /* \"contracts/ergasia.sol\":5474:5479  false */\n      0x00\n        /* \"contracts/ergasia.sol\":5461:5462  v */\n      dup2\n        /* \"contracts/ergasia.sol\":5461:5471  v.hasVoted */\n      0x20\n      add\n        /* \"contracts/ergasia.sol\":5461:5479  v.hasVoted = false */\n      swap1\n      iszero\n      iszero\n      swap1\n      dup2\n      iszero\n      iszero\n      dup2\n      mstore\n      pop\n      pop\n        /* \"contracts/ergasia.sol\":5500:5501  0 */\n      0x00\n        /* \"contracts/ergasia.sol\":5489:5490  v */\n      dup2\n        /* \"contracts/ergasia.sol\":5489:5497  v.choice */\n      0x40\n      add\n        /* \"contracts/ergasia.sol\":5489:5501  v.choice = 0 */\n      dup2\n      dup2\n      mstore\n      pop\n      pop\n        /* \"contracts/ergasia.sol\":5540:5557  _pollingStationID */\n      dup3\n        /* \"contracts/ergasia.sol\":5511:5512  v */\n      dup2\n        /* \"contracts/ergasia.sol\":5511:5537  v.enrolledPollingStationID */\n      0x60\n      add\n        /* \"contracts/ergasia.sol\":5511:5557  v.enrolledPollingStationID = _pollingStationID */\n      dup2\n      dup2\n      mstore\n      pop\n      pop\n        /* \"contracts/ergasia.sol\":5593:5594  0 */\n      0x00\n        /* \"contracts/ergasia.sol\":5567:5568  v */\n      dup2\n        /* \"contracts/ergasia.sol\":5567:5590  v.votedPollingStationID */\n      0x80\n      add\n        /* \"contracts/ergasia.sol\":5567:5594  v.votedPollingStationID = 0 */\n      dup2\n      dup2\n      mstore\n      pop\n      pop\n        /* \"contracts/ergasia.sol\":5635:5636  v */\n      dup1\n        /* \"contracts/ergasia.sol\":5604:5617  voterRegistry */\n      0x08\n        /* \"contracts/ergasia.sol\":5604:5632  voterRegistry[_voterAddress] */\n      0x00\n        /* \"contracts/ergasia.sol\":5618:5631  _voterAddress */\n      dup7\n        /* \"contracts/ergasia.sol\":5604:5632  voterRegistry[_voterAddress] */\n      0xffffffffffffffffffffffffffffffffffffffff\n      and\n      0xffffffffffffffffffffffffffffffffffffffff\n      and\n      dup2\n      mstore\n      0x20\n      add\n      swap1\n      dup2\n      mstore\n      0x20\n      add\n      0x00\n      keccak256\n        /* \"contracts/ergasia.sol\":5604:5636  voterRegistry[_voterAddress] = v */\n      0x00\n      dup3\n      add\n      mload\n      dup2\n      0x00\n      add\n      exp(0x0100, 0x00)\n      dup2\n      sload\n      dup2\n      0xff\n      mul\n      not\n      and\n      swap1\n      dup4\n      iszero\n      iszero\n      mul\n      or\n      swap1\n      sstore\n      pop\n      0x20\n      dup3\n      add\n      mload\n      dup2\n      0x00\n      add\n      exp(0x0100, 0x01)\n      dup2\n      sload\n      dup2\n      0xff\n      mul\n      not\n      and\n      swap1\n      dup4\n      iszero\n      iszero\n      mul\n      or\n      swap1\n      sstore\n      pop\n      0x40\n      dup3\n      add\n      mload\n      dup2\n      0x01\n      add\n      sstore\n      0x60\n      dup3\n      add\n      mload\n      dup2\n      0x02\n      add\n      sstore\n      0x80\n      dup3\n      add\n      mload\n      dup2\n      0x03\n      add\n      sstore\n      swap1\n      pop\n      pop\n        /* \"contracts/ergasia.sol\":5646:5689  registerAtPollingStation(_pollingStationID) */\n      tag_159\n        /* \"contracts/ergasia.sol\":5671:5688  _pollingStationID */\n      dup4\n        /* \"contracts/ergasia.sol\":5646:5670  registerAtPollingStation */\n      tag_160\n        /* \"contracts/ergasia.sol\":5646:5689  registerAtPollingStation(_pollingStationID) */\n      jump\t// in\n    tag_159:\n        /* \"contracts/ergasia.sol\":5699:5720  totalRegisteredVoters */\n      0x03\n      0x00\n        /* \"contracts/ergasia.sol\":5699:5722  totalRegisteredVoters++ */\n      dup2\n      sload\n      dup1\n      swap3\n      swap2\n      swap1\n      tag_161\n      swap1\n      tag_96\n      jump\t// in\n    tag_161:\n      swap2\n      swap1\n      pop\n      sstore\n      pop\n        /* \"contracts/ergasia.sol\":4910:5729  {... */\n      pop\n        /* \"contracts/ergasia.sol\":4809:5729  function addVoter(address _voterAddress, uint _pollingStationID) public inState(State.Created) Owner {... */\n      pop\n      pop\n      pop\n      jump\t// out\n        /* \"contracts/ergasia.sol\":1922:1940  State public state */\n    tag_69:\n      0x0a\n      0x00\n      swap1\n      sload\n      swap1\n      0x0100\n      exp\n      swap1\n      div\n      0xff\n      and\n      dup2\n      jump\t// out\n        /* \"contracts/ergasia.sol\":7309:7501  function getResultsPerStation1(uint _pStationID, uint _candidateID) public view returns (Candidate memory) {... */\n    tag_74:\n        /* \"contracts/ergasia.sol\":7398:7414  Candidate memory */\n      tag_162\n      tag_163\n      jump\t// in\n    tag_162:\n        /* \"contracts/ergasia.sol\":7433:7448  pollingStations */\n      0x07\n        /* \"contracts/ergasia.sol\":7433:7461  pollingStations[_pStationID] */\n      0x00\n        /* \"contracts/ergasia.sol\":7449:7460  _pStationID */\n      dup5\n        /* \"contracts/ergasia.sol\":7433:7461  pollingStations[_pStationID] */\n      dup2\n      mstore\n      0x20\n      add\n      swap1\n      dup2\n      mstore\n      0x20\n      add\n      0x00\n      keccak256\n        /* \"contracts/ergasia.sol\":7433:7480  pollingStations[_pStationID].scoresPerCandidate */\n      0x04\n      add\n        /* \"contracts/ergasia.sol\":7433:7494  pollingStations[_pStationID].scoresPerCandidate[_candidateID] */\n      0x00\n        /* \"contracts/ergasia.sol\":7481:7493  _candidateID */\n      dup4\n        /* \"contracts/ergasia.sol\":7433:7494  pollingStations[_pStationID].scoresPerCandidate[_candidateID] */\n      dup2\n      mstore\n      0x20\n      add\n      swap1\n      dup2\n      mstore\n      0x20\n      add\n      0x00\n      keccak256\n        /* \"contracts/ergasia.sol\":7426:7494  return pollingStations[_pStationID].scoresPerCandidate[_candidateID] */\n      mload(0x40)\n      dup1\n      0x60\n      add\n      0x40\n      mstore\n      swap1\n      dup2\n      0x00\n      dup3\n      add\n      sload\n      dup2\n      mstore\n      0x20\n      add\n      0x01\n      dup3\n      add\n      dup1\n      sload\n      tag_165\n      swap1\n      tag_114\n      jump\t// in\n    tag_165:\n      dup1\n      0x1f\n      add\n      0x20\n      dup1\n      swap2\n      div\n      mul\n      0x20\n      add\n      mload(0x40)\n      swap1\n      dup2\n      add\n      0x40\n      mstore\n      dup1\n      swap3\n      swap2\n      swap1\n      dup2\n      dup2\n      mstore\n      0x20\n      add\n      dup3\n      dup1\n      sload\n      tag_166\n      swap1\n      tag_114\n      jump\t// in\n    tag_166:\n      dup1\n      iszero\n      tag_167\n      jumpi\n      dup1\n      0x1f\n      lt\n      tag_168\n      jumpi\n      0x0100\n      dup1\n      dup4\n      sload\n      div\n      mul\n      dup4\n      mstore\n      swap2\n      0x20\n      add\n      swap2\n      jump(tag_167)\n    tag_168:\n      dup3\n      add\n      swap2\n      swap1\n      0x00\n      mstore\n      keccak256(0x00, 0x20)\n      swap1\n    tag_169:\n      dup2\n      sload\n      dup2\n      mstore\n      swap1\n      0x01\n      add\n      swap1\n      0x20\n      add\n      dup1\n      dup4\n      gt\n      tag_169\n      jumpi\n      dup3\n      swap1\n      sub\n      0x1f\n      and\n      dup3\n      add\n      swap2\n    tag_167:\n      pop\n      pop\n      pop\n      pop\n      pop\n      dup2\n      mstore\n      0x20\n      add\n      0x02\n      dup3\n      add\n      sload\n      dup2\n      mstore\n      pop\n      pop\n      swap1\n      pop\n        /* \"contracts/ergasia.sol\":7309:7501  function getResultsPerStation1(uint _pStationID, uint _candidateID) public view returns (Candidate memory) {... */\n      swap3\n      swap2\n      pop\n      pop\n      jump\t// out\n        /* \"contracts/ergasia.sol\":1344:1375  uint public pollingStationCount */\n    tag_78:\n      sload(0x02)\n      dup2\n      jump\t// out\n        /* \"contracts/ergasia.sol\":1539:1562  uint public finalResult */\n    tag_81:\n      sload(0x05)\n      dup2\n      jump\t// out\n        /* \"contracts/ergasia.sol\":1695:1749  mapping(uint => PollingStation) public pollingStations */\n    tag_85:\n      mstore(0x20, 0x07)\n      dup1\n      0x00\n      mstore\n      keccak256(0x00, 0x40)\n      0x00\n      swap2\n      pop\n      swap1\n      pop\n      dup1\n      0x00\n      add\n      sload\n      swap1\n      dup1\n      0x01\n      add\n      dup1\n      sload\n      tag_170\n      swap1\n      tag_114\n      jump\t// in\n    tag_170:\n      dup1\n      0x1f\n      add\n      0x20\n      dup1\n      swap2\n      div\n      mul\n      0x20\n      add\n      mload(0x40)\n      swap1\n      dup2\n      add\n      0x40\n      mstore\n      dup1\n      swap3\n      swap2\n      swap1\n      dup2\n      dup2\n      mstore\n      0x20\n      add\n      dup3\n      dup1\n      sload\n      tag_171\n      swap1\n      tag_114\n      jump\t// in\n    tag_171:\n      dup1\n      iszero\n      tag_172\n      jumpi\n      dup1\n      0x1f\n      lt\n      tag_173\n      jumpi\n      0x0100\n      dup1\n      dup4\n      sload\n      div\n      mul\n      dup4\n      mstore\n      swap2\n      0x20\n      add\n      swap2\n      jump(tag_172)\n    tag_173:\n      dup3\n      add\n      swap2\n      swap1\n      0x00\n      mstore\n      keccak256(0x00, 0x20)\n      swap1\n    tag_174:\n      dup2\n      sload\n      dup2\n      mstore\n      swap1\n      0x01\n      add\n      swap1\n      0x20\n      add\n      dup1\n      dup4\n      gt\n      tag_174\n      jumpi\n      dup3\n      swap1\n      sub\n      0x1f\n      and\n      dup3\n      add\n      swap2\n    tag_172:\n      pop\n      pop\n      pop\n      pop\n      pop\n      swap1\n      dup1\n      0x02\n      add\n      sload\n      swap1\n      dup1\n      0x03\n      add\n      sload\n      swap1\n      pop\n      dup5\n      jump\t// out\n        /* \"contracts/ergasia.sol\":5867:6149  function registerAtPollingStation(uint _stationID) internal {... */\n    tag_160:\n        /* \"contracts/ergasia.sol\":5942:5948  uint i */\n      0x00\n        /* \"contracts/ergasia.sol\":5951:5952  1 */\n      0x01\n        /* \"contracts/ergasia.sol\":5942:5952  uint i = 1 */\n      swap1\n      pop\n        /* \"contracts/ergasia.sol\":5937:6143  for (uint i = 1; i <= pollingStationCount; i++) {... */\n    tag_176:\n        /* \"contracts/ergasia.sol\":5959:5978  pollingStationCount */\n      sload(0x02)\n        /* \"contracts/ergasia.sol\":5954:5955  i */\n      dup2\n        /* \"contracts/ergasia.sol\":5954:5978  i <= pollingStationCount */\n      gt\n        /* \"contracts/ergasia.sol\":5937:6143  for (uint i = 1; i <= pollingStationCount; i++) {... */\n      tag_177\n      jumpi\n        /* \"contracts/ergasia.sol\":6028:6038  _stationID */\n      dup2\n        /* \"contracts/ergasia.sol\":6003:6018  pollingStations */\n      0x07\n        /* \"contracts/ergasia.sol\":6003:6021  pollingStations[i] */\n      0x00\n        /* \"contracts/ergasia.sol\":6019:6020  i */\n      dup4\n        /* \"contracts/ergasia.sol\":6003:6021  pollingStations[i] */\n      dup2\n      mstore\n      0x20\n      add\n      swap1\n      dup2\n      mstore\n      0x20\n      add\n      0x00\n      keccak256\n        /* \"contracts/ergasia.sol\":6003:6024  pollingStations[i].id */\n      0x00\n      add\n      sload\n        /* \"contracts/ergasia.sol\":6003:6038  pollingStations[i].id == _stationID */\n      eq\n        /* \"contracts/ergasia.sol\":5999:6133  if (pollingStations[i].id == _stationID) {... */\n      iszero\n      tag_179\n      jumpi\n        /* \"contracts/ergasia.sol\":6058:6073  pollingStations */\n      0x07\n        /* \"contracts/ergasia.sol\":6058:6076  pollingStations[i] */\n      0x00\n        /* \"contracts/ergasia.sol\":6074:6075  i */\n      dup3\n        /* \"contracts/ergasia.sol\":6058:6076  pollingStations[i] */\n      dup2\n      mstore\n      0x20\n      add\n      swap1\n      dup2\n      mstore\n      0x20\n      add\n      0x00\n      keccak256\n        /* \"contracts/ergasia.sol\":6058:6093  pollingStations[i].votersRegistered */\n      0x02\n      add\n      0x00\n        /* \"contracts/ergasia.sol\":6058:6095  pollingStations[i].votersRegistered++ */\n      dup2\n      sload\n      dup1\n      swap3\n      swap2\n      swap1\n      tag_180\n      swap1\n      tag_96\n      jump\t// in\n    tag_180:\n      swap2\n      swap1\n      pop\n      sstore\n      pop\n        /* \"contracts/ergasia.sol\":6113:6118  break */\n      jump(tag_177)\n        /* \"contracts/ergasia.sol\":5999:6133  if (pollingStations[i].id == _stationID) {... */\n    tag_179:\n        /* \"contracts/ergasia.sol\":5980:5983  i++ */\n      dup1\n      dup1\n      tag_181\n      swap1\n      tag_96\n      jump\t// in\n    tag_181:\n      swap2\n      pop\n      pop\n        /* \"contracts/ergasia.sol\":5937:6143  for (uint i = 1; i <= pollingStationCount; i++) {... */\n      jump(tag_176)\n    tag_177:\n      pop\n        /* \"contracts/ergasia.sol\":5867:6149  function registerAtPollingStation(uint _stationID) internal {... */\n      pop\n      jump\t// out\n    tag_158:\n      mload(0x40)\n      dup1\n      0xa0\n      add\n      0x40\n      mstore\n      dup1\n      iszero(iszero(0x00))\n      dup2\n      mstore\n      0x20\n      add\n      iszero(iszero(0x00))\n      dup2\n      mstore\n      0x20\n      add\n      0x00\n      dup2\n      mstore\n      0x20\n      add\n      0x00\n      dup2\n      mstore\n      0x20\n      add\n      0x00\n      dup2\n      mstore\n      pop\n      swap1\n      jump\t// out\n    tag_163:\n      mload(0x40)\n      dup1\n      0x60\n      add\n      0x40\n      mstore\n      dup1\n      0x00\n      dup2\n      mstore\n      0x20\n      add\n      0x60\n      dup2\n      mstore\n      0x20\n      add\n      0x00\n      dup2\n      mstore\n      pop\n      swap1\n      jump\t// out\n        /* \"#utility.yul\":7:146   */\n    tag_183:\n        /* \"#utility.yul\":53:58   */\n      0x00\n        /* \"#utility.yul\":91:97   */\n      dup2\n        /* \"#utility.yul\":78:98   */\n      calldataload\n        /* \"#utility.yul\":69:98   */\n      swap1\n      pop\n        /* \"#utility.yul\":107:140   */\n      tag_185\n        /* \"#utility.yul\":134:139   */\n      dup2\n        /* \"#utility.yul\":107:140   */\n      tag_186\n      jump\t// in\n    tag_185:\n        /* \"#utility.yul\":7:146   */\n      swap3\n      swap2\n      pop\n      pop\n      jump\t// out\n        /* \"#utility.yul\":152:291   */\n    tag_187:\n        /* \"#utility.yul\":198:203   */\n      0x00\n        /* \"#utility.yul\":236:242   */\n      dup2\n        /* \"#utility.yul\":223:243   */\n      calldataload\n        /* \"#utility.yul\":214:243   */\n      swap1\n      pop\n        /* \"#utility.yul\":252:285   */\n      tag_189\n        /* \"#utility.yul\":279:284   */\n      dup2\n        /* \"#utility.yul\":252:285   */\n      tag_190\n      jump\t// in\n    tag_189:\n        /* \"#utility.yul\":152:291   */\n      swap3\n      swap2\n      pop\n      pop\n      jump\t// out\n        /* \"#utility.yul\":297:626   */\n    tag_48:\n        /* \"#utility.yul\":356:362   */\n      0x00\n        /* \"#utility.yul\":405:407   */\n      0x20\n        /* \"#utility.yul\":393:402   */\n      dup3\n        /* \"#utility.yul\":384:391   */\n      dup5\n        /* \"#utility.yul\":380:403   */\n      sub\n        /* \"#utility.yul\":376:408   */\n      slt\n        /* \"#utility.yul\":373:492   */\n      iszero\n      tag_192\n      jumpi\n        /* \"#utility.yul\":411:490   */\n      tag_193\n      tag_194\n      jump\t// in\n    tag_193:\n        /* \"#utility.yul\":373:492   */\n    tag_192:\n        /* \"#utility.yul\":531:532   */\n      0x00\n        /* \"#utility.yul\":556:609   */\n      tag_195\n        /* \"#utility.yul\":601:608   */\n      dup5\n        /* \"#utility.yul\":592:598   */\n      dup3\n        /* \"#utility.yul\":581:590   */\n      dup6\n        /* \"#utility.yul\":577:599   */\n      add\n        /* \"#utility.yul\":556:609   */\n      tag_183\n      jump\t// in\n    tag_195:\n        /* \"#utility.yul\":546:609   */\n      swap2\n      pop\n        /* \"#utility.yul\":502:619   */\n      pop\n        /* \"#utility.yul\":297:626   */\n      swap3\n      swap2\n      pop\n      pop\n      jump\t// out\n        /* \"#utility.yul\":632:1106   */\n    tag_66:\n        /* \"#utility.yul\":700:706   */\n      0x00\n        /* \"#utility.yul\":708:714   */\n      dup1\n        /* \"#utility.yul\":757:759   */\n      0x40\n        /* \"#utility.yul\":745:754   */\n      dup4\n        /* \"#utility.yul\":736:743   */\n      dup6\n        /* \"#utility.yul\":732:755   */\n      sub\n        /* \"#utility.yul\":728:760   */\n      slt\n        /* \"#utility.yul\":725:844   */\n      iszero\n      tag_197\n      jumpi\n        /* \"#utility.yul\":763:842   */\n      tag_198\n      tag_194\n      jump\t// in\n    tag_198:\n        /* \"#utility.yul\":725:844   */\n    tag_197:\n        /* \"#utility.yul\":883:884   */\n      0x00\n        /* \"#utility.yul\":908:961   */\n      tag_199\n        /* \"#utility.yul\":953:960   */\n      dup6\n        /* \"#utility.yul\":944:950   */\n      dup3\n        /* \"#utility.yul\":933:942   */\n      dup7\n        /* \"#utility.yul\":929:951   */\n      add\n        /* \"#utility.yul\":908:961   */\n      tag_183\n      jump\t// in\n    tag_199:\n        /* \"#utility.yul\":898:961   */\n      swap3\n      pop\n        /* \"#utility.yul\":854:971   */\n      pop\n        /* \"#utility.yul\":1010:1012   */\n      0x20\n        /* \"#utility.yul\":1036:1089   */\n      tag_200\n        /* \"#utility.yul\":1081:1088   */\n      dup6\n        /* \"#utility.yul\":1072:1078   */\n      dup3\n        /* \"#utility.yul\":1061:1070   */\n      dup7\n        /* \"#utility.yul\":1057:1079   */\n      add\n        /* \"#utility.yul\":1036:1089   */\n      tag_187\n      jump\t// in\n    tag_200:\n        /* \"#utility.yul\":1026:1089   */\n      swap2\n      pop\n        /* \"#utility.yul\":981:1099   */\n      pop\n        /* \"#utility.yul\":632:1106   */\n      swap3\n      pop\n      swap3\n      swap1\n      pop\n      jump\t// out\n        /* \"#utility.yul\":1112:1441   */\n    tag_28:\n        /* \"#utility.yul\":1171:1177   */\n      0x00\n        /* \"#utility.yul\":1220:1222   */\n      0x20\n        /* \"#utility.yul\":1208:1217   */\n      dup3\n        /* \"#utility.yul\":1199:1206   */\n      dup5\n        /* \"#utility.yul\":1195:1218   */\n      sub\n        /* \"#utility.yul\":1191:1223   */\n      slt\n        /* \"#utility.yul\":1188:1307   */\n      iszero\n      tag_202\n      jumpi\n        /* \"#utility.yul\":1226:1305   */\n      tag_203\n      tag_194\n      jump\t// in\n    tag_203:\n        /* \"#utility.yul\":1188:1307   */\n    tag_202:\n        /* \"#utility.yul\":1346:1347   */\n      0x00\n        /* \"#utility.yul\":1371:1424   */\n      tag_204\n        /* \"#utility.yul\":1416:1423   */\n      dup5\n        /* \"#utility.yul\":1407:1413   */\n      dup3\n        /* \"#utility.yul\":1396:1405   */\n      dup6\n        /* \"#utility.yul\":1392:1414   */\n      add\n        /* \"#utility.yul\":1371:1424   */\n      tag_187\n      jump\t// in\n    tag_204:\n        /* \"#utility.yul\":1361:1424   */\n      swap2\n      pop\n        /* \"#utility.yul\":1317:1434   */\n      pop\n        /* \"#utility.yul\":1112:1441   */\n      swap3\n      swap2\n      pop\n      pop\n      jump\t// out\n        /* \"#utility.yul\":1447:1921   */\n    tag_34:\n        /* \"#utility.yul\":1515:1521   */\n      0x00\n        /* \"#utility.yul\":1523:1529   */\n      dup1\n        /* \"#utility.yul\":1572:1574   */\n      0x40\n        /* \"#utility.yul\":1560:1569   */\n      dup4\n        /* \"#utility.yul\":1551:1558   */\n      dup6\n        /* \"#utility.yul\":1547:1570   */\n      sub\n        /* \"#utility.yul\":1543:1575   */\n      slt\n        /* \"#utility.yul\":1540:1659   */\n      iszero\n      tag_206\n      jumpi\n        /* \"#utility.yul\":1578:1657   */\n      tag_207\n      tag_194\n      jump\t// in\n    tag_207:\n        /* \"#utility.yul\":1540:1659   */\n    tag_206:\n        /* \"#utility.yul\":1698:1699   */\n      0x00\n        /* \"#utility.yul\":1723:1776   */\n      tag_208\n        /* \"#utility.yul\":1768:1775   */\n      dup6\n        /* \"#utility.yul\":1759:1765   */\n      dup3\n        /* \"#utility.yul\":1748:1757   */\n      dup7\n        /* \"#utility.yul\":1744:1766   */\n      add\n        /* \"#utility.yul\":1723:1776   */\n      tag_187\n      jump\t// in\n    tag_208:\n        /* \"#utility.yul\":1713:1776   */\n      swap3\n      pop\n        /* \"#utility.yul\":1669:1786   */\n      pop\n        /* \"#utility.yul\":1825:1827   */\n      0x20\n        /* \"#utility.yul\":1851:1904   */\n      tag_209\n        /* \"#utility.yul\":1896:1903   */\n      dup6\n        /* \"#utility.yul\":1887:1893   */\n      dup3\n        /* \"#utility.yul\":1876:1885   */\n      dup7\n        /* \"#utility.yul\":1872:1894   */\n      add\n        /* \"#utility.yul\":1851:1904   */\n      tag_187\n      jump\t// in\n    tag_209:\n        /* \"#utility.yul\":1841:1904   */\n      swap2\n      pop\n        /* \"#utility.yul\":1796:1914   */\n      pop\n        /* \"#utility.yul\":1447:1921   */\n      swap3\n      pop\n      swap3\n      swap1\n      pop\n      jump\t// out\n        /* \"#utility.yul\":1927:2106   */\n    tag_210:\n        /* \"#utility.yul\":1996:2006   */\n      0x00\n        /* \"#utility.yul\":2017:2063   */\n      tag_212\n        /* \"#utility.yul\":2059:2062   */\n      dup4\n        /* \"#utility.yul\":2051:2057   */\n      dup4\n        /* \"#utility.yul\":2017:2063   */\n      tag_213\n      jump\t// in\n    tag_212:\n        /* \"#utility.yul\":2095:2099   */\n      0x20\n        /* \"#utility.yul\":2090:2093   */\n      dup4\n        /* \"#utility.yul\":2086:2100   */\n      add\n        /* \"#utility.yul\":2072:2100   */\n      swap1\n      pop\n        /* \"#utility.yul\":1927:2106   */\n      swap3\n      swap2\n      pop\n      pop\n      jump\t// out\n        /* \"#utility.yul\":2112:2230   */\n    tag_214:\n        /* \"#utility.yul\":2199:2223   */\n      tag_216\n        /* \"#utility.yul\":2217:2222   */\n      dup2\n        /* \"#utility.yul\":2199:2223   */\n      tag_217\n      jump\t// in\n    tag_216:\n        /* \"#utility.yul\":2194:2197   */\n      dup3\n        /* \"#utility.yul\":2187:2224   */\n      mstore\n        /* \"#utility.yul\":2112:2230   */\n      pop\n      pop\n      jump\t// out\n        /* \"#utility.yul\":2266:2998   */\n    tag_218:\n        /* \"#utility.yul\":2385:2388   */\n      0x00\n        /* \"#utility.yul\":2414:2468   */\n      tag_220\n        /* \"#utility.yul\":2462:2467   */\n      dup3\n        /* \"#utility.yul\":2414:2468   */\n      tag_221\n      jump\t// in\n    tag_220:\n        /* \"#utility.yul\":2484:2570   */\n      tag_222\n        /* \"#utility.yul\":2563:2569   */\n      dup2\n        /* \"#utility.yul\":2558:2561   */\n      dup6\n        /* \"#utility.yul\":2484:2570   */\n      tag_223\n      jump\t// in\n    tag_222:\n        /* \"#utility.yul\":2477:2570   */\n      swap4\n      pop\n        /* \"#utility.yul\":2594:2650   */\n      tag_224\n        /* \"#utility.yul\":2644:2649   */\n      dup4\n        /* \"#utility.yul\":2594:2650   */\n      tag_225\n      jump\t// in\n    tag_224:\n        /* \"#utility.yul\":2673:2680   */\n      dup1\n        /* \"#utility.yul\":2704:2705   */\n      0x00\n        /* \"#utility.yul\":2689:2973   */\n    tag_226:\n        /* \"#utility.yul\":2714:2720   */\n      dup4\n        /* \"#utility.yul\":2711:2712   */\n      dup2\n        /* \"#utility.yul\":2708:2721   */\n      lt\n        /* \"#utility.yul\":2689:2973   */\n      iszero\n      tag_228\n      jumpi\n        /* \"#utility.yul\":2790:2796   */\n      dup2\n        /* \"#utility.yul\":2784:2797   */\n      mload\n        /* \"#utility.yul\":2817:2880   */\n      tag_229\n        /* \"#utility.yul\":2876:2879   */\n      dup9\n        /* \"#utility.yul\":2861:2874   */\n      dup3\n        /* \"#utility.yul\":2817:2880   */\n      tag_210\n      jump\t// in\n    tag_229:\n        /* \"#utility.yul\":2810:2880   */\n      swap8\n      pop\n        /* \"#utility.yul\":2903:2963   */\n      tag_230\n        /* \"#utility.yul\":2956:2962   */\n      dup4\n        /* \"#utility.yul\":2903:2963   */\n      tag_231\n      jump\t// in\n    tag_230:\n        /* \"#utility.yul\":2893:2963   */\n      swap3\n      pop\n        /* \"#utility.yul\":2749:2973   */\n      pop\n        /* \"#utility.yul\":2736:2737   */\n      0x01\n        /* \"#utility.yul\":2733:2734   */\n      dup2\n        /* \"#utility.yul\":2729:2738   */\n      add\n        /* \"#utility.yul\":2724:2738   */\n      swap1\n      pop\n        /* \"#utility.yul\":2689:2973   */\n      jump(tag_226)\n    tag_228:\n        /* \"#utility.yul\":2693:2707   */\n      pop\n        /* \"#utility.yul\":2989:2992   */\n      dup6\n        /* \"#utility.yul\":2982:2992   */\n      swap4\n      pop\n        /* \"#utility.yul\":2390:2998   */\n      pop\n      pop\n      pop\n        /* \"#utility.yul\":2266:2998   */\n      swap3\n      swap2\n      pop\n      pop\n      jump\t// out\n        /* \"#utility.yul\":3004:3113   */\n    tag_232:\n        /* \"#utility.yul\":3085:3106   */\n      tag_234\n        /* \"#utility.yul\":3100:3105   */\n      dup2\n        /* \"#utility.yul\":3085:3106   */\n      tag_235\n      jump\t// in\n    tag_234:\n        /* \"#utility.yul\":3080:3083   */\n      dup3\n        /* \"#utility.yul\":3073:3107   */\n      mstore\n        /* \"#utility.yul\":3004:3113   */\n      pop\n      pop\n      jump\t// out\n        /* \"#utility.yul\":3119:3262   */\n    tag_236:\n        /* \"#utility.yul\":3212:3255   */\n      tag_238\n        /* \"#utility.yul\":3249:3254   */\n      dup2\n        /* \"#utility.yul\":3212:3255   */\n      tag_239\n      jump\t// in\n    tag_238:\n        /* \"#utility.yul\":3207:3210   */\n      dup3\n        /* \"#utility.yul\":3200:3256   */\n      mstore\n        /* \"#utility.yul\":3119:3262   */\n      pop\n      pop\n      jump\t// out\n        /* \"#utility.yul\":3268:3612   */\n    tag_240:\n        /* \"#utility.yul\":3346:3349   */\n      0x00\n        /* \"#utility.yul\":3374:3413   */\n      tag_242\n        /* \"#utility.yul\":3407:3412   */\n      dup3\n        /* \"#utility.yul\":3374:3413   */\n      tag_243\n      jump\t// in\n    tag_242:\n        /* \"#utility.yul\":3429:3490   */\n      tag_244\n        /* \"#utility.yul\":3483:3489   */\n      dup2\n        /* \"#utility.yul\":3478:3481   */\n      dup6\n        /* \"#utility.yul\":3429:3490   */\n      tag_245\n      jump\t// in\n    tag_244:\n        /* \"#utility.yul\":3422:3490   */\n      swap4\n      pop\n        /* \"#utility.yul\":3499:3551   */\n      tag_246\n        /* \"#utility.yul\":3544:3550   */\n      dup2\n        /* \"#utility.yul\":3539:3542   */\n      dup6\n        /* \"#utility.yul\":3532:3536   */\n      0x20\n        /* \"#utility.yul\":3525:3530   */\n      dup7\n        /* \"#utility.yul\":3521:3537   */\n      add\n        /* \"#utility.yul\":3499:3551   */\n      tag_247\n      jump\t// in\n    tag_246:\n        /* \"#utility.yul\":3576:3605   */\n      tag_248\n        /* \"#utility.yul\":3598:3604   */\n      dup2\n        /* \"#utility.yul\":3576:3605   */\n      tag_249\n      jump\t// in\n    tag_248:\n        /* \"#utility.yul\":3571:3574   */\n      dup5\n        /* \"#utility.yul\":3567:3606   */\n      add\n        /* \"#utility.yul\":3560:3606   */\n      swap2\n      pop\n        /* \"#utility.yul\":3350:3612   */\n      pop\n        /* \"#utility.yul\":3268:3612   */\n      swap3\n      swap2\n      pop\n      pop\n      jump\t// out\n        /* \"#utility.yul\":3618:3982   */\n    tag_250:\n        /* \"#utility.yul\":3706:3709   */\n      0x00\n        /* \"#utility.yul\":3734:3773   */\n      tag_252\n        /* \"#utility.yul\":3767:3772   */\n      dup3\n        /* \"#utility.yul\":3734:3773   */\n      tag_243\n      jump\t// in\n    tag_252:\n        /* \"#utility.yul\":3789:3860   */\n      tag_253\n        /* \"#utility.yul\":3853:3859   */\n      dup2\n        /* \"#utility.yul\":3848:3851   */\n      dup6\n        /* \"#utility.yul\":3789:3860   */\n      tag_254\n      jump\t// in\n    tag_253:\n        /* \"#utility.yul\":3782:3860   */\n      swap4\n      pop\n        /* \"#utility.yul\":3869:3921   */\n      tag_255\n        /* \"#utility.yul\":3914:3920   */\n      dup2\n        /* \"#utility.yul\":3909:3912   */\n      dup6\n        /* \"#utility.yul\":3902:3906   */\n      0x20\n        /* \"#utility.yul\":3895:3900   */\n      dup7\n        /* \"#utility.yul\":3891:3907   */\n      add\n        /* \"#utility.yul\":3869:3921   */\n      tag_247\n      jump\t// in\n    tag_255:\n        /* \"#utility.yul\":3946:3975   */\n      tag_256\n        /* \"#utility.yul\":3968:3974   */\n      dup2\n        /* \"#utility.yul\":3946:3975   */\n      tag_249\n      jump\t// in\n    tag_256:\n        /* \"#utility.yul\":3941:3944   */\n      dup5\n        /* \"#utility.yul\":3937:3976   */\n      add\n        /* \"#utility.yul\":3930:3976   */\n      swap2\n      pop\n        /* \"#utility.yul\":3710:3982   */\n      pop\n        /* \"#utility.yul\":3618:3982   */\n      swap3\n      swap2\n      pop\n      pop\n      jump\t// out\n        /* \"#utility.yul\":3988:4354   */\n    tag_257:\n        /* \"#utility.yul\":4130:4133   */\n      0x00\n        /* \"#utility.yul\":4151:4218   */\n      tag_259\n        /* \"#utility.yul\":4215:4217   */\n      0x2a\n        /* \"#utility.yul\":4210:4213   */\n      dup4\n        /* \"#utility.yul\":4151:4218   */\n      tag_254\n      jump\t// in\n    tag_259:\n        /* \"#utility.yul\":4144:4218   */\n      swap2\n      pop\n        /* \"#utility.yul\":4227:4320   */\n      tag_260\n        /* \"#utility.yul\":4316:4319   */\n      dup3\n        /* \"#utility.yul\":4227:4320   */\n      tag_261\n      jump\t// in\n    tag_260:\n        /* \"#utility.yul\":4345:4347   */\n      0x40\n        /* \"#utility.yul\":4340:4343   */\n      dup3\n        /* \"#utility.yul\":4336:4348   */\n      add\n        /* \"#utility.yul\":4329:4348   */\n      swap1\n      pop\n        /* \"#utility.yul\":3988:4354   */\n      swap2\n      swap1\n      pop\n      jump\t// out\n        /* \"#utility.yul\":4360:4726   */\n    tag_262:\n        /* \"#utility.yul\":4502:4505   */\n      0x00\n        /* \"#utility.yul\":4523:4590   */\n      tag_264\n        /* \"#utility.yul\":4587:4589   */\n      0x1c\n        /* \"#utility.yul\":4582:4585   */\n      dup4\n        /* \"#utility.yul\":4523:4590   */\n      tag_254\n      jump\t// in\n    tag_264:\n        /* \"#utility.yul\":4516:4590   */\n      swap2\n      pop\n        /* \"#utility.yul\":4599:4692   */\n      tag_265\n        /* \"#utility.yul\":4688:4691   */\n      dup3\n        /* \"#utility.yul\":4599:4692   */\n      tag_266\n      jump\t// in\n    tag_265:\n        /* \"#utility.yul\":4717:4719   */\n      0x20\n        /* \"#utility.yul\":4712:4715   */\n      dup3\n        /* \"#utility.yul\":4708:4720   */\n      add\n        /* \"#utility.yul\":4701:4720   */\n      swap1\n      pop\n        /* \"#utility.yul\":4360:4726   */\n      swap2\n      swap1\n      pop\n      jump\t// out\n        /* \"#utility.yul\":4794:5571   */\n    tag_267:\n        /* \"#utility.yul\":4911:4914   */\n      0x00\n        /* \"#utility.yul\":4947:4951   */\n      0x60\n        /* \"#utility.yul\":4942:4945   */\n      dup4\n        /* \"#utility.yul\":4938:4952   */\n      add\n        /* \"#utility.yul\":5032:5036   */\n      0x00\n        /* \"#utility.yul\":5025:5030   */\n      dup4\n        /* \"#utility.yul\":5021:5037   */\n      add\n        /* \"#utility.yul\":5015:5038   */\n      mload\n        /* \"#utility.yul\":5051:5114   */\n      tag_269\n        /* \"#utility.yul\":5108:5112   */\n      0x00\n        /* \"#utility.yul\":5103:5106   */\n      dup7\n        /* \"#utility.yul\":5099:5113   */\n      add\n        /* \"#utility.yul\":5085:5097   */\n      dup3\n        /* \"#utility.yul\":5051:5114   */\n      tag_213\n      jump\t// in\n    tag_269:\n        /* \"#utility.yul\":4962:5124   */\n      pop\n        /* \"#utility.yul\":5206:5210   */\n      0x20\n        /* \"#utility.yul\":5199:5204   */\n      dup4\n        /* \"#utility.yul\":5195:5211   */\n      add\n        /* \"#utility.yul\":5189:5212   */\n      mload\n        /* \"#utility.yul\":5259:5262   */\n      dup5\n        /* \"#utility.yul\":5253:5257   */\n      dup3\n        /* \"#utility.yul\":5249:5263   */\n      sub\n        /* \"#utility.yul\":5242:5246   */\n      0x20\n        /* \"#utility.yul\":5237:5240   */\n      dup7\n        /* \"#utility.yul\":5233:5247   */\n      add\n        /* \"#utility.yul\":5226:5264   */\n      mstore\n        /* \"#utility.yul\":5285:5358   */\n      tag_270\n        /* \"#utility.yul\":5353:5357   */\n      dup3\n        /* \"#utility.yul\":5339:5351   */\n      dup3\n        /* \"#utility.yul\":5285:5358   */\n      tag_240\n      jump\t// in\n    tag_270:\n        /* \"#utility.yul\":5277:5358   */\n      swap2\n      pop\n        /* \"#utility.yul\":5134:5369   */\n      pop\n        /* \"#utility.yul\":5452:5456   */\n      0x40\n        /* \"#utility.yul\":5445:5450   */\n      dup4\n        /* \"#utility.yul\":5441:5457   */\n      add\n        /* \"#utility.yul\":5435:5458   */\n      mload\n        /* \"#utility.yul\":5471:5534   */\n      tag_271\n        /* \"#utility.yul\":5528:5532   */\n      0x40\n        /* \"#utility.yul\":5523:5526   */\n      dup7\n        /* \"#utility.yul\":5519:5533   */\n      add\n        /* \"#utility.yul\":5505:5517   */\n      dup3\n        /* \"#utility.yul\":5471:5534   */\n      tag_213\n      jump\t// in\n    tag_271:\n        /* \"#utility.yul\":5379:5544   */\n      pop\n        /* \"#utility.yul\":5561:5565   */\n      dup1\n        /* \"#utility.yul\":5554:5565   */\n      swap2\n      pop\n        /* \"#utility.yul\":4916:5571   */\n      pop\n        /* \"#utility.yul\":4794:5571   */\n      swap3\n      swap2\n      pop\n      pop\n      jump\t// out\n        /* \"#utility.yul\":5577:5685   */\n    tag_213:\n        /* \"#utility.yul\":5654:5678   */\n      tag_273\n        /* \"#utility.yul\":5672:5677   */\n      dup2\n        /* \"#utility.yul\":5654:5678   */\n      tag_274\n      jump\t// in\n    tag_273:\n        /* \"#utility.yul\":5649:5652   */\n      dup3\n        /* \"#utility.yul\":5642:5679   */\n      mstore\n        /* \"#utility.yul\":5577:5685   */\n      pop\n      pop\n      jump\t// out\n        /* \"#utility.yul\":5691:5809   */\n    tag_275:\n        /* \"#utility.yul\":5778:5802   */\n      tag_277\n        /* \"#utility.yul\":5796:5801   */\n      dup2\n        /* \"#utility.yul\":5778:5802   */\n      tag_274\n      jump\t// in\n    tag_277:\n        /* \"#utility.yul\":5773:5776   */\n      dup3\n        /* \"#utility.yul\":5766:5803   */\n      mstore\n        /* \"#utility.yul\":5691:5809   */\n      pop\n      pop\n      jump\t// out\n        /* \"#utility.yul\":5815:6037   */\n    tag_57:\n        /* \"#utility.yul\":5908:5912   */\n      0x00\n        /* \"#utility.yul\":5946:5948   */\n      0x20\n        /* \"#utility.yul\":5935:5944   */\n      dup3\n        /* \"#utility.yul\":5931:5949   */\n      add\n        /* \"#utility.yul\":5923:5949   */\n      swap1\n      pop\n        /* \"#utility.yul\":5959:6030   */\n      tag_279\n        /* \"#utility.yul\":6027:6028   */\n      0x00\n        /* \"#utility.yul\":6016:6025   */\n      dup4\n        /* \"#utility.yul\":6012:6029   */\n      add\n        /* \"#utility.yul\":6003:6009   */\n      dup5\n        /* \"#utility.yul\":5959:6030   */\n      tag_214\n      jump\t// in\n    tag_279:\n        /* \"#utility.yul\":5815:6037   */\n      swap3\n      swap2\n      pop\n      pop\n      jump\t// out\n        /* \"#utility.yul\":6043:6416   */\n    tag_31:\n        /* \"#utility.yul\":6186:6190   */\n      0x00\n        /* \"#utility.yul\":6224:6226   */\n      0x20\n        /* \"#utility.yul\":6213:6222   */\n      dup3\n        /* \"#utility.yul\":6209:6227   */\n      add\n        /* \"#utility.yul\":6201:6227   */\n      swap1\n      pop\n        /* \"#utility.yul\":6273:6282   */\n      dup2\n        /* \"#utility.yul\":6267:6271   */\n      dup2\n        /* \"#utility.yul\":6263:6283   */\n      sub\n        /* \"#utility.yul\":6259:6260   */\n      0x00\n        /* \"#utility.yul\":6248:6257   */\n      dup4\n        /* \"#utility.yul\":6244:6261   */\n      add\n        /* \"#utility.yul\":6237:6284   */\n      mstore\n        /* \"#utility.yul\":6301:6409   */\n      tag_281\n        /* \"#utility.yul\":6404:6408   */\n      dup2\n        /* \"#utility.yul\":6395:6401   */\n      dup5\n        /* \"#utility.yul\":6301:6409   */\n      tag_218\n      jump\t// in\n    tag_281:\n        /* \"#utility.yul\":6293:6409   */\n      swap1\n      pop\n        /* \"#utility.yul\":6043:6416   */\n      swap3\n      swap2\n      pop\n      pop\n      jump\t// out\n        /* \"#utility.yul\":6422:6632   */\n    tag_37:\n        /* \"#utility.yul\":6509:6513   */\n      0x00\n        /* \"#utility.yul\":6547:6549   */\n      0x20\n        /* \"#utility.yul\":6536:6545   */\n      dup3\n        /* \"#utility.yul\":6532:6550   */\n      add\n        /* \"#utility.yul\":6524:6550   */\n      swap1\n      pop\n        /* \"#utility.yul\":6560:6625   */\n      tag_283\n        /* \"#utility.yul\":6622:6623   */\n      0x00\n        /* \"#utility.yul\":6611:6620   */\n      dup4\n        /* \"#utility.yul\":6607:6624   */\n      add\n        /* \"#utility.yul\":6598:6604   */\n      dup5\n        /* \"#utility.yul\":6560:6625   */\n      tag_232\n      jump\t// in\n    tag_283:\n        /* \"#utility.yul\":6422:6632   */\n      swap3\n      swap2\n      pop\n      pop\n      jump\t// out\n        /* \"#utility.yul\":6638:7278   */\n    tag_51:\n        /* \"#utility.yul\":6831:6835   */\n      0x00\n        /* \"#utility.yul\":6869:6872   */\n      0xa0\n        /* \"#utility.yul\":6858:6867   */\n      dup3\n        /* \"#utility.yul\":6854:6873   */\n      add\n        /* \"#utility.yul\":6846:6873   */\n      swap1\n      pop\n        /* \"#utility.yul\":6883:6948   */\n      tag_285\n        /* \"#utility.yul\":6945:6946   */\n      0x00\n        /* \"#utility.yul\":6934:6943   */\n      dup4\n        /* \"#utility.yul\":6930:6947   */\n      add\n        /* \"#utility.yul\":6921:6927   */\n      dup9\n        /* \"#utility.yul\":6883:6948   */\n      tag_232\n      jump\t// in\n    tag_285:\n        /* \"#utility.yul\":6958:7024   */\n      tag_286\n        /* \"#utility.yul\":7020:7022   */\n      0x20\n        /* \"#utility.yul\":7009:7018   */\n      dup4\n        /* \"#utility.yul\":7005:7023   */\n      add\n        /* \"#utility.yul\":6996:7002   */\n      dup8\n        /* \"#utility.yul\":6958:7024   */\n      tag_232\n      jump\t// in\n    tag_286:\n        /* \"#utility.yul\":7034:7106   */\n      tag_287\n        /* \"#utility.yul\":7102:7104   */\n      0x40\n        /* \"#utility.yul\":7091:7100   */\n      dup4\n        /* \"#utility.yul\":7087:7105   */\n      add\n        /* \"#utility.yul\":7078:7084   */\n      dup7\n        /* \"#utility.yul\":7034:7106   */\n      tag_275\n      jump\t// in\n    tag_287:\n        /* \"#utility.yul\":7116:7188   */\n      tag_288\n        /* \"#utility.yul\":7184:7186   */\n      0x60\n        /* \"#utility.yul\":7173:7182   */\n      dup4\n        /* \"#utility.yul\":7169:7187   */\n      add\n        /* \"#utility.yul\":7160:7166   */\n      dup6\n        /* \"#utility.yul\":7116:7188   */\n      tag_275\n      jump\t// in\n    tag_288:\n        /* \"#utility.yul\":7198:7271   */\n      tag_289\n        /* \"#utility.yul\":7266:7269   */\n      0x80\n        /* \"#utility.yul\":7255:7264   */\n      dup4\n        /* \"#utility.yul\":7251:7270   */\n      add\n        /* \"#utility.yul\":7242:7248   */\n      dup5\n        /* \"#utility.yul\":7198:7271   */\n      tag_275\n      jump\t// in\n    tag_289:\n        /* \"#utility.yul\":6638:7278   */\n      swap7\n      swap6\n      pop\n      pop\n      pop\n      pop\n      pop\n      pop\n      jump\t// out\n        /* \"#utility.yul\":7284:7714   */\n    tag_112:\n        /* \"#utility.yul\":7427:7431   */\n      0x00\n        /* \"#utility.yul\":7465:7467   */\n      0x60\n        /* \"#utility.yul\":7454:7463   */\n      dup3\n        /* \"#utility.yul\":7450:7468   */\n      add\n        /* \"#utility.yul\":7442:7468   */\n      swap1\n      pop\n        /* \"#utility.yul\":7478:7543   */\n      tag_291\n        /* \"#utility.yul\":7540:7541   */\n      0x00\n        /* \"#utility.yul\":7529:7538   */\n      dup4\n        /* \"#utility.yul\":7525:7542   */\n      add\n        /* \"#utility.yul\":7516:7522   */\n      dup7\n        /* \"#utility.yul\":7478:7543   */\n      tag_232\n      jump\t// in\n    tag_291:\n        /* \"#utility.yul\":7553:7625   */\n      tag_292\n        /* \"#utility.yul\":7621:7623   */\n      0x20\n        /* \"#utility.yul\":7610:7619   */\n      dup4\n        /* \"#utility.yul\":7606:7624   */\n      add\n        /* \"#utility.yul\":7597:7603   */\n      dup6\n        /* \"#utility.yul\":7553:7625   */\n      tag_275\n      jump\t// in\n    tag_292:\n        /* \"#utility.yul\":7635:7707   */\n      tag_293\n        /* \"#utility.yul\":7703:7705   */\n      0x40\n        /* \"#utility.yul\":7692:7701   */\n      dup4\n        /* \"#utility.yul\":7688:7706   */\n      add\n        /* \"#utility.yul\":7679:7685   */\n      dup5\n        /* \"#utility.yul\":7635:7707   */\n      tag_275\n      jump\t// in\n    tag_293:\n        /* \"#utility.yul\":7284:7714   */\n      swap5\n      swap4\n      pop\n      pop\n      pop\n      pop\n      jump\t// out\n        /* \"#utility.yul\":7720:7954   */\n    tag_71:\n        /* \"#utility.yul\":7819:7823   */\n      0x00\n        /* \"#utility.yul\":7857:7859   */\n      0x20\n        /* \"#utility.yul\":7846:7855   */\n      dup3\n        /* \"#utility.yul\":7842:7860   */\n      add\n        /* \"#utility.yul\":7834:7860   */\n      swap1\n      pop\n        /* \"#utility.yul\":7870:7947   */\n      tag_295\n        /* \"#utility.yul\":7944:7945   */\n      0x00\n        /* \"#utility.yul\":7933:7942   */\n      dup4\n        /* \"#utility.yul\":7929:7946   */\n      add\n        /* \"#utility.yul\":7920:7926   */\n      dup5\n        /* \"#utility.yul\":7870:7947   */\n      tag_236\n      jump\t// in\n    tag_295:\n        /* \"#utility.yul\":7720:7954   */\n      swap3\n      swap2\n      pop\n      pop\n      jump\t// out\n        /* \"#utility.yul\":7960:8379   */\n    tag_156:\n        /* \"#utility.yul\":8126:8130   */\n      0x00\n        /* \"#utility.yul\":8164:8166   */\n      0x20\n        /* \"#utility.yul\":8153:8162   */\n      dup3\n        /* \"#utility.yul\":8149:8167   */\n      add\n        /* \"#utility.yul\":8141:8167   */\n      swap1\n      pop\n        /* \"#utility.yul\":8213:8222   */\n      dup2\n        /* \"#utility.yul\":8207:8211   */\n      dup2\n        /* \"#utility.yul\":8203:8223   */\n      sub\n        /* \"#utility.yul\":8199:8200   */\n      0x00\n        /* \"#utility.yul\":8188:8197   */\n      dup4\n        /* \"#utility.yul\":8184:8201   */\n      add\n        /* \"#utility.yul\":8177:8224   */\n      mstore\n        /* \"#utility.yul\":8241:8372   */\n      tag_297\n        /* \"#utility.yul\":8367:8371   */\n      dup2\n        /* \"#utility.yul\":8241:8372   */\n      tag_257\n      jump\t// in\n    tag_297:\n        /* \"#utility.yul\":8233:8372   */\n      swap1\n      pop\n        /* \"#utility.yul\":7960:8379   */\n      swap2\n      swap1\n      pop\n      jump\t// out\n        /* \"#utility.yul\":8385:8804   */\n    tag_152:\n        /* \"#utility.yul\":8551:8555   */\n      0x00\n        /* \"#utility.yul\":8589:8591   */\n      0x20\n        /* \"#utility.yul\":8578:8587   */\n      dup3\n        /* \"#utility.yul\":8574:8592   */\n      add\n        /* \"#utility.yul\":8566:8592   */\n      swap1\n      pop\n        /* \"#utility.yul\":8638:8647   */\n      dup2\n        /* \"#utility.yul\":8632:8636   */\n      dup2\n        /* \"#utility.yul\":8628:8648   */\n      sub\n        /* \"#utility.yul\":8624:8625   */\n      0x00\n        /* \"#utility.yul\":8613:8622   */\n      dup4\n        /* \"#utility.yul\":8609:8626   */\n      add\n        /* \"#utility.yul\":8602:8649   */\n      mstore\n        /* \"#utility.yul\":8666:8797   */\n      tag_299\n        /* \"#utility.yul\":8792:8796   */\n      dup2\n        /* \"#utility.yul\":8666:8797   */\n      tag_262\n      jump\t// in\n    tag_299:\n        /* \"#utility.yul\":8658:8797   */\n      swap1\n      pop\n        /* \"#utility.yul\":8385:8804   */\n      swap2\n      swap1\n      pop\n      jump\t// out\n        /* \"#utility.yul\":8810:9179   */\n    tag_76:\n        /* \"#utility.yul\":8951:8955   */\n      0x00\n        /* \"#utility.yul\":8989:8991   */\n      0x20\n        /* \"#utility.yul\":8978:8987   */\n      dup3\n        /* \"#utility.yul\":8974:8992   */\n      add\n        /* \"#utility.yul\":8966:8992   */\n      swap1\n      pop\n        /* \"#utility.yul\":9038:9047   */\n      dup2\n        /* \"#utility.yul\":9032:9036   */\n      dup2\n        /* \"#utility.yul\":9028:9048   */\n      sub\n        /* \"#utility.yul\":9024:9025   */\n      0x00\n        /* \"#utility.yul\":9013:9022   */\n      dup4\n        /* \"#utility.yul\":9009:9026   */\n      add\n        /* \"#utility.yul\":9002:9049   */\n      mstore\n        /* \"#utility.yul\":9066:9172   */\n      tag_301\n        /* \"#utility.yul\":9167:9171   */\n      dup2\n        /* \"#utility.yul\":9158:9164   */\n      dup5\n        /* \"#utility.yul\":9066:9172   */\n      tag_267\n      jump\t// in\n    tag_301:\n        /* \"#utility.yul\":9058:9172   */\n      swap1\n      pop\n        /* \"#utility.yul\":8810:9179   */\n      swap3\n      swap2\n      pop\n      pop\n      jump\t// out\n        /* \"#utility.yul\":9185:9407   */\n    tag_25:\n        /* \"#utility.yul\":9278:9282   */\n      0x00\n        /* \"#utility.yul\":9316:9318   */\n      0x20\n        /* \"#utility.yul\":9305:9314   */\n      dup3\n        /* \"#utility.yul\":9301:9319   */\n      add\n        /* \"#utility.yul\":9293:9319   */\n      swap1\n      pop\n        /* \"#utility.yul\":9329:9400   */\n      tag_303\n        /* \"#utility.yul\":9397:9398   */\n      0x00\n        /* \"#utility.yul\":9386:9395   */\n      dup4\n        /* \"#utility.yul\":9382:9399   */\n      add\n        /* \"#utility.yul\":9373:9379   */\n      dup5\n        /* \"#utility.yul\":9329:9400   */\n      tag_275\n      jump\t// in\n    tag_303:\n        /* \"#utility.yul\":9185:9407   */\n      swap3\n      swap2\n      pop\n      pop\n      jump\t// out\n        /* \"#utility.yul\":9413:9946   */\n    tag_45:\n        /* \"#utility.yul\":9582:9586   */\n      0x00\n        /* \"#utility.yul\":9620:9622   */\n      0x60\n        /* \"#utility.yul\":9609:9618   */\n      dup3\n        /* \"#utility.yul\":9605:9623   */\n      add\n        /* \"#utility.yul\":9597:9623   */\n      swap1\n      pop\n        /* \"#utility.yul\":9633:9704   */\n      tag_305\n        /* \"#utility.yul\":9701:9702   */\n      0x00\n        /* \"#utility.yul\":9690:9699   */\n      dup4\n        /* \"#utility.yul\":9686:9703   */\n      add\n        /* \"#utility.yul\":9677:9683   */\n      dup7\n        /* \"#utility.yul\":9633:9704   */\n      tag_275\n      jump\t// in\n    tag_305:\n        /* \"#utility.yul\":9751:9760   */\n      dup2\n        /* \"#utility.yul\":9745:9749   */\n      dup2\n        /* \"#utility.yul\":9741:9761   */\n      sub\n        /* \"#utility.yul\":9736:9738   */\n      0x20\n        /* \"#utility.yul\":9725:9734   */\n      dup4\n        /* \"#utility.yul\":9721:9739   */\n      add\n        /* \"#utility.yul\":9714:9762   */\n      mstore\n        /* \"#utility.yul\":9779:9857   */\n      tag_306\n        /* \"#utility.yul\":9852:9856   */\n      dup2\n        /* \"#utility.yul\":9843:9849   */\n      dup6\n        /* \"#utility.yul\":9779:9857   */\n      tag_250\n      jump\t// in\n    tag_306:\n        /* \"#utility.yul\":9771:9857   */\n      swap1\n      pop\n        /* \"#utility.yul\":9867:9939   */\n      tag_307\n        /* \"#utility.yul\":9935:9937   */\n      0x40\n        /* \"#utility.yul\":9924:9933   */\n      dup4\n        /* \"#utility.yul\":9920:9938   */\n      add\n        /* \"#utility.yul\":9911:9917   */\n      dup5\n        /* \"#utility.yul\":9867:9939   */\n      tag_275\n      jump\t// in\n    tag_307:\n        /* \"#utility.yul\":9413:9946   */\n      swap5\n      swap4\n      pop\n      pop\n      pop\n      pop\n      jump\t// out\n        /* \"#utility.yul\":9952:10596   */\n    tag_87:\n        /* \"#utility.yul\":10149:10153   */\n      0x00\n        /* \"#utility.yul\":10187:10190   */\n      0x80\n        /* \"#utility.yul\":10176:10185   */\n      dup3\n        /* \"#utility.yul\":10172:10191   */\n      add\n        /* \"#utility.yul\":10164:10191   */\n      swap1\n      pop\n        /* \"#utility.yul\":10201:10272   */\n      tag_309\n        /* \"#utility.yul\":10269:10270   */\n      0x00\n        /* \"#utility.yul\":10258:10267   */\n      dup4\n        /* \"#utility.yul\":10254:10271   */\n      add\n        /* \"#utility.yul\":10245:10251   */\n      dup8\n        /* \"#utility.yul\":10201:10272   */\n      tag_275\n      jump\t// in\n    tag_309:\n        /* \"#utility.yul\":10319:10328   */\n      dup2\n        /* \"#utility.yul\":10313:10317   */\n      dup2\n        /* \"#utility.yul\":10309:10329   */\n      sub\n        /* \"#utility.yul\":10304:10306   */\n      0x20\n        /* \"#utility.yul\":10293:10302   */\n      dup4\n        /* \"#utility.yul\":10289:10307   */\n      add\n        /* \"#utility.yul\":10282:10330   */\n      mstore\n        /* \"#utility.yul\":10347:10425   */\n      tag_310\n        /* \"#utility.yul\":10420:10424   */\n      dup2\n        /* \"#utility.yul\":10411:10417   */\n      dup7\n        /* \"#utility.yul\":10347:10425   */\n      tag_250\n      jump\t// in\n    tag_310:\n        /* \"#utility.yul\":10339:10425   */\n      swap1\n      pop\n        /* \"#utility.yul\":10435:10507   */\n      tag_311\n        /* \"#utility.yul\":10503:10505   */\n      0x40\n        /* \"#utility.yul\":10492:10501   */\n      dup4\n        /* \"#utility.yul\":10488:10506   */\n      add\n        /* \"#utility.yul\":10479:10485   */\n      dup6\n        /* \"#utility.yul\":10435:10507   */\n      tag_275\n      jump\t// in\n    tag_311:\n        /* \"#utility.yul\":10517:10589   */\n      tag_312\n        /* \"#utility.yul\":10585:10587   */\n      0x60\n        /* \"#utility.yul\":10574:10583   */\n      dup4\n        /* \"#utility.yul\":10570:10588   */\n      add\n        /* \"#utility.yul\":10561:10567   */\n      dup5\n        /* \"#utility.yul\":10517:10589   */\n      tag_275\n      jump\t// in\n    tag_312:\n        /* \"#utility.yul\":9952:10596   */\n      swap6\n      swap5\n      pop\n      pop\n      pop\n      pop\n      pop\n      jump\t// out\n        /* \"#utility.yul\":10683:10815   */\n    tag_225:\n        /* \"#utility.yul\":10750:10754   */\n      0x00\n        /* \"#utility.yul\":10773:10776   */\n      dup2\n        /* \"#utility.yul\":10765:10776   */\n      swap1\n      pop\n        /* \"#utility.yul\":10803:10807   */\n      0x20\n        /* \"#utility.yul\":10798:10801   */\n      dup3\n        /* \"#utility.yul\":10794:10808   */\n      add\n        /* \"#utility.yul\":10786:10808   */\n      swap1\n      pop\n        /* \"#utility.yul\":10683:10815   */\n      swap2\n      swap1\n      pop\n      jump\t// out\n        /* \"#utility.yul\":10821:10935   */\n    tag_221:\n        /* \"#utility.yul\":10888:10894   */\n      0x00\n        /* \"#utility.yul\":10922:10927   */\n      dup2\n        /* \"#utility.yul\":10916:10928   */\n      mload\n        /* \"#utility.yul\":10906:10928   */\n      swap1\n      pop\n        /* \"#utility.yul\":10821:10935   */\n      swap2\n      swap1\n      pop\n      jump\t// out\n        /* \"#utility.yul\":10941:11040   */\n    tag_243:\n        /* \"#utility.yul\":10993:10999   */\n      0x00\n        /* \"#utility.yul\":11027:11032   */\n      dup2\n        /* \"#utility.yul\":11021:11033   */\n      mload\n        /* \"#utility.yul\":11011:11033   */\n      swap1\n      pop\n        /* \"#utility.yul\":10941:11040   */\n      swap2\n      swap1\n      pop\n      jump\t// out\n        /* \"#utility.yul\":11046:11159   */\n    tag_231:\n        /* \"#utility.yul\":11116:11120   */\n      0x00\n        /* \"#utility.yul\":11148:11152   */\n      0x20\n        /* \"#utility.yul\":11143:11146   */\n      dup3\n        /* \"#utility.yul\":11139:11153   */\n      add\n        /* \"#utility.yul\":11131:11153   */\n      swap1\n      pop\n        /* \"#utility.yul\":11046:11159   */\n      swap2\n      swap1\n      pop\n      jump\t// out\n        /* \"#utility.yul\":11165:11349   */\n    tag_223:\n        /* \"#utility.yul\":11264:11275   */\n      0x00\n        /* \"#utility.yul\":11298:11304   */\n      dup3\n        /* \"#utility.yul\":11293:11296   */\n      dup3\n        /* \"#utility.yul\":11286:11305   */\n      mstore\n        /* \"#utility.yul\":11338:11342   */\n      0x20\n        /* \"#utility.yul\":11333:11336   */\n      dup3\n        /* \"#utility.yul\":11329:11343   */\n      add\n        /* \"#utility.yul\":11314:11343   */\n      swap1\n      pop\n        /* \"#utility.yul\":11165:11349   */\n      swap3\n      swap2\n      pop\n      pop\n      jump\t// out\n        /* \"#utility.yul\":11355:11514   */\n    tag_245:\n        /* \"#utility.yul\":11429:11440   */\n      0x00\n        /* \"#utility.yul\":11463:11469   */\n      dup3\n        /* \"#utility.yul\":11458:11461   */\n      dup3\n        /* \"#utility.yul\":11451:11470   */\n      mstore\n        /* \"#utility.yul\":11503:11507   */\n      0x20\n        /* \"#utility.yul\":11498:11501   */\n      dup3\n        /* \"#utility.yul\":11494:11508   */\n      add\n        /* \"#utility.yul\":11479:11508   */\n      swap1\n      pop\n        /* \"#utility.yul\":11355:11514   */\n      swap3\n      swap2\n      pop\n      pop\n      jump\t// out\n        /* \"#utility.yul\":11520:11689   */\n    tag_254:\n        /* \"#utility.yul\":11604:11615   */\n      0x00\n        /* \"#utility.yul\":11638:11644   */\n      dup3\n        /* \"#utility.yul\":11633:11636   */\n      dup3\n        /* \"#utility.yul\":11626:11645   */\n      mstore\n        /* \"#utility.yul\":11678:11682   */\n      0x20\n        /* \"#utility.yul\":11673:11676   */\n      dup3\n        /* \"#utility.yul\":11669:11683   */\n      add\n        /* \"#utility.yul\":11654:11683   */\n      swap1\n      pop\n        /* \"#utility.yul\":11520:11689   */\n      swap3\n      swap2\n      pop\n      pop\n      jump\t// out\n        /* \"#utility.yul\":11695:11791   */\n    tag_217:\n        /* \"#utility.yul\":11732:11739   */\n      0x00\n        /* \"#utility.yul\":11761:11785   */\n      tag_323\n        /* \"#utility.yul\":11779:11784   */\n      dup3\n        /* \"#utility.yul\":11761:11785   */\n      tag_324\n      jump\t// in\n    tag_323:\n        /* \"#utility.yul\":11750:11785   */\n      swap1\n      pop\n        /* \"#utility.yul\":11695:11791   */\n      swap2\n      swap1\n      pop\n      jump\t// out\n        /* \"#utility.yul\":11797:11887   */\n    tag_235:\n        /* \"#utility.yul\":11831:11838   */\n      0x00\n        /* \"#utility.yul\":11874:11879   */\n      dup2\n        /* \"#utility.yul\":11867:11880   */\n      iszero\n        /* \"#utility.yul\":11860:11881   */\n      iszero\n        /* \"#utility.yul\":11849:11881   */\n      swap1\n      pop\n        /* \"#utility.yul\":11797:11887   */\n      swap2\n      swap1\n      pop\n      jump\t// out\n        /* \"#utility.yul\":11893:12020   */\n    tag_326:\n        /* \"#utility.yul\":11938:11945   */\n      0x00\n        /* \"#utility.yul\":11967:11972   */\n      dup2\n        /* \"#utility.yul\":11956:11972   */\n      swap1\n      pop\n        /* \"#utility.yul\":11973:12014   */\n      tag_328\n        /* \"#utility.yul\":12008:12013   */\n      dup3\n        /* \"#utility.yul\":11973:12014   */\n      tag_329\n      jump\t// in\n    tag_328:\n        /* \"#utility.yul\":11893:12020   */\n      swap2\n      swap1\n      pop\n      jump\t// out\n        /* \"#utility.yul\":12026:12152   */\n    tag_324:\n        /* \"#utility.yul\":12063:12070   */\n      0x00\n        /* \"#utility.yul\":12103:12145   */\n      0xffffffffffffffffffffffffffffffffffffffff\n        /* \"#utility.yul\":12096:12101   */\n      dup3\n        /* \"#utility.yul\":12092:12146   */\n      and\n        /* \"#utility.yul\":12081:12146   */\n      swap1\n      pop\n        /* \"#utility.yul\":12026:12152   */\n      swap2\n      swap1\n      pop\n      jump\t// out\n        /* \"#utility.yul\":12158:12235   */\n    tag_274:\n        /* \"#utility.yul\":12195:12202   */\n      0x00\n        /* \"#utility.yul\":12224:12229   */\n      dup2\n        /* \"#utility.yul\":12213:12229   */\n      swap1\n      pop\n        /* \"#utility.yul\":12158:12235   */\n      swap2\n      swap1\n      pop\n      jump\t// out\n        /* \"#utility.yul\":12241:12368   */\n    tag_239:\n        /* \"#utility.yul\":12297:12306   */\n      0x00\n        /* \"#utility.yul\":12330:12362   */\n      tag_333\n        /* \"#utility.yul\":12356:12361   */\n      dup3\n        /* \"#utility.yul\":12330:12362   */\n      tag_326\n      jump\t// in\n    tag_333:\n        /* \"#utility.yul\":12317:12362   */\n      swap1\n      pop\n        /* \"#utility.yul\":12241:12368   */\n      swap2\n      swap1\n      pop\n      jump\t// out\n        /* \"#utility.yul\":12374:12681   */\n    tag_247:\n        /* \"#utility.yul\":12442:12443   */\n      0x00\n        /* \"#utility.yul\":12452:12565   */\n    tag_335:\n        /* \"#utility.yul\":12466:12472   */\n      dup4\n        /* \"#utility.yul\":12463:12464   */\n      dup2\n        /* \"#utility.yul\":12460:12473   */\n      lt\n        /* \"#utility.yul\":12452:12565   */\n      iszero\n      tag_337\n      jumpi\n        /* \"#utility.yul\":12551:12552   */\n      dup1\n        /* \"#utility.yul\":12546:12549   */\n      dup3\n        /* \"#utility.yul\":12542:12553   */\n      add\n        /* \"#utility.yul\":12536:12554   */\n      mload\n        /* \"#utility.yul\":12532:12533   */\n      dup2\n        /* \"#utility.yul\":12527:12530   */\n      dup5\n        /* \"#utility.yul\":12523:12534   */\n      add\n        /* \"#utility.yul\":12516:12555   */\n      mstore\n        /* \"#utility.yul\":12488:12490   */\n      0x20\n        /* \"#utility.yul\":12485:12486   */\n      dup2\n        /* \"#utility.yul\":12481:12491   */\n      add\n        /* \"#utility.yul\":12476:12491   */\n      swap1\n      pop\n        /* \"#utility.yul\":12452:12565   */\n      jump(tag_335)\n    tag_337:\n        /* \"#utility.yul\":12583:12589   */\n      dup4\n        /* \"#utility.yul\":12580:12581   */\n      dup2\n        /* \"#utility.yul\":12577:12590   */\n      gt\n        /* \"#utility.yul\":12574:12675   */\n      iszero\n      tag_338\n      jumpi\n        /* \"#utility.yul\":12663:12664   */\n      0x00\n        /* \"#utility.yul\":12654:12660   */\n      dup5\n        /* \"#utility.yul\":12649:12652   */\n      dup5\n        /* \"#utility.yul\":12645:12661   */\n      add\n        /* \"#utility.yul\":12638:12665   */\n      mstore\n        /* \"#utility.yul\":12574:12675   */\n    tag_338:\n        /* \"#utility.yul\":12423:12681   */\n      pop\n        /* \"#utility.yul\":12374:12681   */\n      pop\n      pop\n      pop\n      jump\t// out\n        /* \"#utility.yul\":12687:13007   */\n    tag_114:\n        /* \"#utility.yul\":12731:12737   */\n      0x00\n        /* \"#utility.yul\":12768:12769   */\n      0x02\n        /* \"#utility.yul\":12762:12766   */\n      dup3\n        /* \"#utility.yul\":12758:12770   */\n      div\n        /* \"#utility.yul\":12748:12770   */\n      swap1\n      pop\n        /* \"#utility.yul\":12815:12816   */\n      0x01\n        /* \"#utility.yul\":12809:12813   */\n      dup3\n        /* \"#utility.yul\":12805:12817   */\n      and\n        /* \"#utility.yul\":12836:12854   */\n      dup1\n        /* \"#utility.yul\":12826:12907   */\n      tag_340\n      jumpi\n        /* \"#utility.yul\":12892:12896   */\n      0x7f\n        /* \"#utility.yul\":12884:12890   */\n      dup3\n        /* \"#utility.yul\":12880:12897   */\n      and\n        /* \"#utility.yul\":12870:12897   */\n      swap2\n      pop\n        /* \"#utility.yul\":12826:12907   */\n    tag_340:\n        /* \"#utility.yul\":12954:12956   */\n      0x20\n        /* \"#utility.yul\":12946:12952   */\n      dup3\n        /* \"#utility.yul\":12943:12957   */\n      lt\n        /* \"#utility.yul\":12923:12941   */\n      dup2\n        /* \"#utility.yul\":12920:12958   */\n      eq\n        /* \"#utility.yul\":12917:13001   */\n      iszero\n      tag_341\n      jumpi\n        /* \"#utility.yul\":12973:12991   */\n      tag_342\n      tag_343\n      jump\t// in\n    tag_342:\n        /* \"#utility.yul\":12917:13001   */\n    tag_341:\n        /* \"#utility.yul\":12738:13007   */\n      pop\n        /* \"#utility.yul\":12687:13007   */\n      swap2\n      swap1\n      pop\n      jump\t// out\n        /* \"#utility.yul\":13013:13246   */\n    tag_96:\n        /* \"#utility.yul\":13052:13055   */\n      0x00\n        /* \"#utility.yul\":13075:13099   */\n      tag_345\n        /* \"#utility.yul\":13093:13098   */\n      dup3\n        /* \"#utility.yul\":13075:13099   */\n      tag_274\n      jump\t// in\n    tag_345:\n        /* \"#utility.yul\":13066:13099   */\n      swap2\n      pop\n        /* \"#utility.yul\":13121:13187   */\n      0xffffffffffffffffffffffffffffffffffffffffffffffffffffffffffffffff\n        /* \"#utility.yul\":13114:13119   */\n      dup3\n        /* \"#utility.yul\":13111:13188   */\n      eq\n        /* \"#utility.yul\":13108:13211   */\n      iszero\n      tag_346\n      jumpi\n        /* \"#utility.yul\":13191:13209   */\n      tag_347\n      tag_348\n      jump\t// in\n    tag_347:\n        /* \"#utility.yul\":13108:13211   */\n    tag_346:\n        /* \"#utility.yul\":13238:13239   */\n      0x01\n        /* \"#utility.yul\":13231:13236   */\n      dup3\n        /* \"#utility.yul\":13227:13240   */\n      add\n        /* \"#utility.yul\":13220:13240   */\n      swap1\n      pop\n        /* \"#utility.yul\":13013:13246   */\n      swap2\n      swap1\n      pop\n      jump\t// out\n        /* \"#utility.yul\":13252:13432   */\n    tag_348:\n        /* \"#utility.yul\":13300:13377   */\n      0x4e487b7100000000000000000000000000000000000000000000000000000000\n        /* \"#utility.yul\":13297:13298   */\n      0x00\n        /* \"#utility.yul\":13290:13378   */\n      mstore\n        /* \"#utility.yul\":13397:13401   */\n      0x11\n        /* \"#utility.yul\":13394:13395   */\n      0x04\n        /* \"#utility.yul\":13387:13402   */\n      mstore\n        /* \"#utility.yul\":13421:13425   */\n      0x24\n        /* \"#utility.yul\":13418:13419   */\n      0x00\n        /* \"#utility.yul\":13411:13426   */\n      revert\n        /* \"#utility.yul\":13438:13618   */\n    tag_100:\n        /* \"#utility.yul\":13486:13563   */\n      0x4e487b7100000000000000000000000000000000000000000000000000000000\n        /* \"#utility.yul\":13483:13484   */\n      0x00\n        /* \"#utility.yul\":13476:13564   */\n      mstore\n        /* \"#utility.yul\":13583:13587   */\n      0x21\n        /* \"#utility.yul\":13580:13581   */\n      0x04\n        /* \"#utility.yul\":13573:13588   */\n      mstore\n        /* \"#utility.yul\":13607:13611   */\n      0x24\n        /* \"#utility.yul\":13604:13605   */\n      0x00\n        /* \"#utility.yul\":13597:13612   */\n      revert\n        /* \"#utility.yul\":13624:13804   */\n    tag_343:\n        /* \"#utility.yul\":13672:13749   */\n      0x4e487b7100000000000000000000000000000000000000000000000000000000\n        /* \"#utility.yul\":13669:13670   */\n      0x00\n        /* \"#utility.yul\":13662:13750   */\n      mstore\n        /* \"#utility.yul\":13769:13773   */\n      0x22\n        /* \"#utility.yul\":13766:13767   */\n      0x04\n        /* \"#utility.yul\":13759:13774   */\n      mstore\n        /* \"#utility.yul\":13793:13797   */\n      0x24\n        /* \"#utility.yul\":13790:13791   */\n      0x00\n        /* \"#utility.yul\":13783:13798   */\n      revert\n        /* \"#utility.yul\":13810:13990   */\n    tag_94:\n        /* \"#utility.yul\":13858:13935   */\n      0x4e487b7100000000000000000000000000000000000000000000000000000000\n        /* \"#utility.yul\":13855:13856   */\n      0x00\n        /* \"#utility.yul\":13848:13936   */\n      mstore\n        /* \"#utility.yul\":13955:13959   */\n      0x32\n        /* \"#utility.yul\":13952:13953   */\n      0x04\n        /* \"#utility.yul\":13945:13960   */\n      mstore\n        /* \"#utility.yul\":13979:13983   */\n      0x24\n        /* \"#utility.yul\":13976:13977   */\n      0x00\n        /* \"#utility.yul\":13969:13984   */\n      revert\n        /* \"#utility.yul\":14119:14236   */\n    tag_194:\n        /* \"#utility.yul\":14228:14229   */\n      0x00\n        /* \"#utility.yul\":14225:14226   */\n      dup1\n        /* \"#utility.yul\":14218:14230   */\n      revert\n        /* \"#utility.yul\":14242:14344   */\n    tag_249:\n        /* \"#utility.yul\":14283:14289   */\n      0x00\n        /* \"#utility.yul\":14334:14336   */\n      0x1f\n        /* \"#utility.yul\":14330:14337   */\n      not\n        /* \"#utility.yul\":14325:14327   */\n      0x1f\n        /* \"#utility.yul\":14318:14323   */\n      dup4\n        /* \"#utility.yul\":14314:14328   */\n      add\n        /* \"#utility.yul\":14310:14338   */\n      and\n        /* \"#utility.yul\":14300:14338   */\n      swap1\n      pop\n        /* \"#utility.yul\":14242:14344   */\n      swap2\n      swap1\n      pop\n      jump\t// out\n        /* \"#utility.yul\":14350:14579   */\n    tag_261:\n        /* \"#utility.yul\":14490:14524   */\n      0x506c656173652070726f7669646520612076616c696420706f6c6c696e672073\n        /* \"#utility.yul\":14486:14487   */\n      0x00\n        /* \"#utility.yul\":14478:14484   */\n      dup3\n        /* \"#utility.yul\":14474:14488   */\n      add\n        /* \"#utility.yul\":14467:14525   */\n      mstore\n        /* \"#utility.yul\":14559:14571   */\n      0x746174696f6e2049442e00000000000000000000000000000000000000000000\n        /* \"#utility.yul\":14554:14556   */\n      0x20\n        /* \"#utility.yul\":14546:14552   */\n      dup3\n        /* \"#utility.yul\":14542:14557   */\n      add\n        /* \"#utility.yul\":14535:14572   */\n      mstore\n        /* \"#utility.yul\":14350:14579   */\n      pop\n      jump\t// out\n        /* \"#utility.yul\":14585:14763   */\n    tag_266:\n        /* \"#utility.yul\":14725:14755   */\n      0x566f74657220697320616c726561647920726567697374657265642e00000000\n        /* \"#utility.yul\":14721:14722   */\n      0x00\n        /* \"#utility.yul\":14713:14719   */\n      dup3\n        /* \"#utility.yul\":14709:14723   */\n      add\n        /* \"#utility.yul\":14702:14756   */\n      mstore\n        /* \"#utility.yul\":14585:14763   */\n      pop\n      jump\t// out\n        /* \"#utility.yul\":14769:14882   */\n    tag_329:\n        /* \"#utility.yul\":14850:14851   */\n      0x03\n        /* \"#utility.yul\":14843:14848   */\n      dup2\n        /* \"#utility.yul\":14840:14852   */\n      lt\n        /* \"#utility.yul\":14830:14876   */\n      tag_360\n      jumpi\n        /* \"#utility.yul\":14856:14874   */\n      tag_361\n      tag_100\n      jump\t// in\n    tag_361:\n        /* \"#utility.yul\":14830:14876   */\n    tag_360:\n        /* \"#utility.yul\":14769:14882   */\n      pop\n      jump\t// out\n        /* \"#utility.yul\":14888:15010   */\n    tag_186:\n        /* \"#utility.yul\":14961:14985   */\n      tag_363\n        /* \"#utility.yul\":14979:14984   */\n      dup2\n        /* \"#utility.yul\":14961:14985   */\n      tag_217\n      jump\t// in\n    tag_363:\n        /* \"#utility.yul\":14954:14959   */\n      dup2\n        /* \"#utility.yul\":14951:14986   */\n      eq\n        /* \"#utility.yul\":14941:15004   */\n      tag_364\n      jumpi\n        /* \"#utility.yul\":15000:15001   */\n      0x00\n        /* \"#utility.yul\":14997:14998   */\n      dup1\n        /* \"#utility.yul\":14990:15002   */\n      revert\n        /* \"#utility.yul\":14941:15004   */\n    tag_364:\n        /* \"#utility.yul\":14888:15010   */\n      pop\n      jump\t// out\n        /* \"#utility.yul\":15016:15138   */\n    tag_190:\n        /* \"#utility.yul\":15089:15113   */\n      tag_366\n        /* \"#utility.yul\":15107:15112   */\n      dup2\n        /* \"#utility.yul\":15089:15113   */\n      tag_274\n      jump\t// in\n    tag_366:\n        /* \"#utility.yul\":15082:15087   */\n      dup2\n        /* \"#utility.yul\":15079:15114   */\n      eq\n        /* \"#utility.yul\":15069:15132   */\n      tag_367\n      jumpi\n        /* \"#utility.yul\":15128:15129   */\n      0x00\n        /* \"#utility.yul\":15125:15126   */\n      dup1\n        /* \"#utility.yul\":15118:15130   */\n      revert\n        /* \"#utility.yul\":15069:15132   */\n    tag_367:\n        /* \"#utility.yul\":15016:15138   */\n      pop\n      jump\t// out\n\n    auxdata: 0xa2646970667358221220fa68e89892df8bb1e4733645e015bee655134c60096d55c0c19149da0da8b21b64736f6c63430008070033\n}\n",
				"bytecode": {
					"linkReferences": {},
					"object": "60806040523480156200001157600080fd5b50336000806101000a81548173ffffffffffffffffffffffffffffffffffffffff021916908373ffffffffffffffffffffffffffffffffffffffff16021790555062000062620000a660201b60201c565b620000726200036460201b60201c565b6000600a60006101000a81548160ff021916908360028111156200009b576200009a620007cd565b5b02179055506200082b565b620000ec6040518060400160405280601181526020017f506f6c6c696e672053746174696f6e2031000000000000000000000000000000815250620004c460201b60201c565b620001326040518060400160405280601181526020017f506f6c6c696e672053746174696f6e2032000000000000000000000000000000815250620004c460201b60201c565b620001786040518060400160405280601181526020017f506f6c6c696e672053746174696f6e2033000000000000000000000000000000815250620004c460201b60201c565b620001be6040518060400160405280601181526020017f506f6c6c696e672053746174696f6e2034000000000000000000000000000000815250620004c460201b60201c565b620002046040518060400160405280601181526020017f506f6c6c696e672053746174696f6e2035000000000000000000000000000000815250620004c460201b60201c565b6200024a6040518060400160405280601181526020017f506f6c6c696e672053746174696f6e2036000000000000000000000000000000815250620004c460201b60201c565b620002906040518060400160405280601181526020017f506f6c6c696e672053746174696f6e2037000000000000000000000000000000815250620004c460201b60201c565b620002d66040518060400160405280601181526020017f506f6c6c696e672053746174696f6e2038000000000000000000000000000000815250620004c460201b60201c565b6200031c6040518060400160405280601181526020017f506f6c6c696e672053746174696f6e2039000000000000000000000000000000815250620004c460201b60201c565b620003626040518060400160405280601281526020017f506f6c6c696e672053746174696f6e2031300000000000000000000000000000815250620004c460201b60201c565b565b620003aa6040518060400160405280600b81526020017f43616e64696461746520310000000000000000000000000000000000000000008152506200053560201b60201c565b620003f06040518060400160405280600b81526020017f43616e64696461746520320000000000000000000000000000000000000000008152506200053560201b60201c565b620004366040518060400160405280600b81526020017f43616e64696461746520330000000000000000000000000000000000000000008152506200053560201b60201c565b6200047c6040518060400160405280600b81526020017f43616e64696461746520340000000000000000000000000000000000000000008152506200053560201b60201c565b620004c26040518060400160405280600b81526020017f43616e64696461746520350000000000000000000000000000000000000000008152506200053560201b60201c565b565b60026000815480929190620004d99062000750565b9190505550600060076000600254815260200190815260200160002090506002548160000181905550818160010190805190602001906200051c92919062000660565b5060008160020181905550600081600301819055505050565b600160008154809291906200054a9062000750565b9190505550604051806060016040528060015481526020018281526020016000815250600660006001548152602001908152602001600020600082015181600001556020820151816001019080519060200190620005aa92919062000660565b50604082015181600201559050506000600190505b60025481116200065c5760405180606001604052806001548152602001838152602001600081525060076000838152602001908152602001600020600401600060015481526020019081526020016000206000820151816000015560208201518160010190805190602001906200063892919062000660565b50604082015181600201559050508080620006539062000750565b915050620005bf565b5050565b8280546200066e906200071a565b90600052602060002090601f016020900481019282620006925760008555620006de565b82601f10620006ad57805160ff1916838001178555620006de565b82800160010185558215620006de579182015b82811115620006dd578251825591602001919060010190620006c0565b5b509050620006ed9190620006f1565b5090565b5b808211156200070c576000816000905550600101620006f2565b5090565b6000819050919050565b600060028204905060018216806200073357607f821691505b602082108114156200074a5762000749620007fc565b5b50919050565b60006200075d8262000710565b91507fffffffffffffffffffffffffffffffffffffffffffffffffffffffffffffffff8214156200079357620007926200079e565b5b600182019050919050565b7f4e487b7100000000000000000000000000000000000000000000000000000000600052601160045260246000fd5b7f4e487b7100000000000000000000000000000000000000000000000000000000600052602160045260246000fd5b7f4e487b7100000000000000000000000000000000000000000000000000000000600052602260045260246000fd5b611709806200083b6000396000f3fe608060405234801561001057600080fd5b50600436106100ff5760003560e01c8063a3ec138d11610097578063d3808ae011610066578063d3808ae0146102a2578063df9f1a07146102d2578063f3a8286f146102f0578063fe2442d71461030e576100ff565b8063a3ec138d1461022e578063b92239461461025e578063b9f05f2f14610268578063c19d93fb14610284576100ff565b80633477ee2e116100d35780633477ee2e146101a05780634763d4e7146101d25780634c0a6af01461020657806353357ad014610210576100ff565b8062aa74641461010457806323a1b11c146101225780632c0a3f89146101525780632d35a8a214610182575b600080fd5b61010c610341565b6040516101199190611321565b60405180910390f35b61013c60048036038101906101379190610f8c565b610347565b60405161014991906111dd565b60405180910390f35b61016c60048036038101906101679190610fb9565b6103c8565b60405161017991906111ff565b60405180910390f35b61018a6106f6565b6040516101979190611321565b60405180910390f35b6101ba60048036038101906101b59190610f8c565b6106fc565b6040516101c99392919061133c565b60405180910390f35b6101ec60048036038101906101e79190610f1f565b6107ae565b6040516101fd95949392919061121a565b60405180910390f35b61020e6107fe565b005b6102186108c5565b60405161022591906111c2565b60405180910390f35b61024860048036038101906102439190610f1f565b6108e9565b60405161025591906111ff565b60405180910390f35b610266610909565b005b610282600480360381019061027d9190610f4c565b6109d9565b005b61028c610c6c565b60405161029991906112a4565b60405180910390f35b6102bc60048036038101906102b79190610fb9565b610c7f565b6040516102c991906112ff565b60405180910390f35b6102da610d67565b6040516102e79190611321565b60405180910390f35b6102f8610d6d565b6040516103059190611321565b60405180910390f35b61032860048036038101906103239190610f8c565b610d73565b604051610338949392919061137a565b60405180910390f35b60035481565b6060600060076000848152602001908152602001600020905060606000600190505b60015481116103bd578260040160008281526020019081526020016000206002015482828151811061039e5761039d6115d4565b5b60200260200101818152505080806103b5906114fe565b915050610369565b508092505050919050565b600060018060028111156103df576103de611576565b5b600a60009054906101000a900460ff16600281111561040157610400611576565b5b1461040b57600080fd5b6000600860003373ffffffffffffffffffffffffffffffffffffffff1673ffffffffffffffffffffffffffffffffffffffff16815260200190815260200160002060000160009054906101000a900460ff1680156104b65750600860003373ffffffffffffffffffffffffffffffffffffffff1673ffffffffffffffffffffffffffffffffffffffff16815260200190815260200160002060000160019054906101000a900460ff16155b156106eb5784600860003373ffffffffffffffffffffffffffffffffffffffff1673ffffffffffffffffffffffffffffffffffffffff1681526020019081526020016000206001018190555083600860003373ffffffffffffffffffffffffffffffffffffffff1673ffffffffffffffffffffffffffffffffffffffff168152602001908152602001600020600301819055506001600860003373ffffffffffffffffffffffffffffffffffffffff1673ffffffffffffffffffffffffffffffffffffffff16815260200190815260200160002060000160016101000a81548160ff0219169083151502179055506007600085815260200190815260200160002060030160008154809291906105cb906114fe565b91905055506006600086815260200190815260200160002060020160008154809291906105f7906114fe565b91905055506004600081548092919061060f906114fe565b91905055506001905080600960003373ffffffffffffffffffffffffffffffffffffffff1673ffffffffffffffffffffffffffffffffffffffff16815260200190815260200160002060006101000a81548160ff02191690831515021790555060076000858152602001908152602001600020600401600086815260200190815260200160002060020160008154809291906106aa906114fe565b91905055507f29a25b3d0b6ff7e5de2a60a2e8e76d1bdaf4894ec18c598cc1687213f442c5cb8186866040516106e29392919061126d565b60405180910390a15b809250505092915050565b60015481565b6006602052806000526040600020600091509050806000015490806001018054610725906114cc565b80601f0160208091040260200160405190810160405280929190818152602001828054610751906114cc565b801561079e5780601f106107735761010080835404028352916020019161079e565b820191906000526020600020905b81548152906001019060200180831161078157829003601f168201915b5050505050908060020154905083565b60086020528060005260406000206000915090508060000160009054906101000a900460ff16908060000160019054906101000a900460ff16908060010154908060020154908060030154905085565b600080600281111561081357610812611576565b5b600a60009054906101000a900460ff16600281111561083557610834611576565b5b1461083f57600080fd5b60008054906101000a900473ffffffffffffffffffffffffffffffffffffffff1673ffffffffffffffffffffffffffffffffffffffff163373ffffffffffffffffffffffffffffffffffffffff161461089757600080fd5b6001600a60006101000a81548160ff021916908360028111156108bd576108bc611576565b5b021790555050565b60008054906101000a900473ffffffffffffffffffffffffffffffffffffffff1681565b60096020528060005260406000206000915054906101000a900460ff1681565b600180600281111561091e5761091d611576565b5b600a60009054906101000a900460ff1660028111156109405761093f611576565b5b1461094a57600080fd5b60008054906101000a900473ffffffffffffffffffffffffffffffffffffffff1673ffffffffffffffffffffffffffffffffffffffff163373ffffffffffffffffffffffffffffffffffffffff16146109a257600080fd5b6002600a60006101000a81548160ff021916908360028111156109c8576109c7611576565b5b021790555060045460058190555050565b60008060028111156109ee576109ed611576565b5b600a60009054906101000a900460ff166002811115610a1057610a0f611576565b5b14610a1a57600080fd5b60008054906101000a900473ffffffffffffffffffffffffffffffffffffffff1673ffffffffffffffffffffffffffffffffffffffff163373ffffffffffffffffffffffffffffffffffffffff1614610a7257600080fd5b60001515600860008573ffffffffffffffffffffffffffffffffffffffff1673ffffffffffffffffffffffffffffffffffffffff16815260200190815260200160002060000160009054906101000a900460ff16151514610b08576040517f08c379a0000000000000000000000000000000000000000000000000000000008152600401610aff906112df565b60405180910390fd5b60018210158015610b1b57506002548211155b610b5a576040517f08c379a0000000000000000000000000000000000000000000000000000000008152600401610b51906112bf565b60405180910390fd5b610b62610ea1565b60018160000190151590811515815250506000816020019015159081151581525050600081604001818152505082816060018181525050600081608001818152505080600860008673ffffffffffffffffffffffffffffffffffffffff1673ffffffffffffffffffffffffffffffffffffffff16815260200190815260200160002060008201518160000160006101000a81548160ff02191690831515021790555060208201518160000160016101000a81548160ff021916908315150217905550604082015181600101556060820151816002015560808201518160030155905050610c4e83610e2b565b60036000815480929190610c61906114fe565b919050555050505050565b600a60009054906101000a900460ff1681565b610c87610ed4565b60076000848152602001908152602001600020600401600083815260200190815260200160002060405180606001604052908160008201548152602001600182018054610cd3906114cc565b80601f0160208091040260200160405190810160405280929190818152602001828054610cff906114cc565b8015610d4c5780601f10610d2157610100808354040283529160200191610d4c565b820191906000526020600020905b815481529060010190602001808311610d2f57829003601f168201915b50505050508152602001600282015481525050905092915050565b60025481565b60055481565b6007602052806000526040600020600091509050806000015490806001018054610d9c906114cc565b80601f0160208091040260200160405190810160405280929190818152602001828054610dc8906114cc565b8015610e155780601f10610dea57610100808354040283529160200191610e15565b820191906000526020600020905b815481529060010190602001808311610df857829003601f168201915b5050505050908060020154908060030154905084565b6000600190505b6002548111610e9d578160076000838152602001908152602001600020600001541415610e8a57600760008281526020019081526020016000206002016000815480929190610e80906114fe565b9190505550610e9d565b8080610e95906114fe565b915050610e32565b5050565b6040518060a001604052806000151581526020016000151581526020016000815260200160008152602001600081525090565b60405180606001604052806000815260200160608152602001600081525090565b600081359050610f04816116a5565b92915050565b600081359050610f19816116bc565b92915050565b600060208284031215610f3557610f34611603565b5b6000610f4384828501610ef5565b91505092915050565b60008060408385031215610f6357610f62611603565b5b6000610f7185828601610ef5565b9250506020610f8285828601610f0a565b9150509250929050565b600060208284031215610fa257610fa1611603565b5b6000610fb084828501610f0a565b91505092915050565b60008060408385031215610fd057610fcf611603565b5b6000610fde85828601610f0a565b9250506020610fef85828601610f0a565b9150509250929050565b600061100583836111a4565b60208301905092915050565b61101a8161142c565b82525050565b600061102b826113d6565b61103581856113f9565b9350611040836113c6565b8060005b838110156110715781516110588882610ff9565b9750611063836113ec565b925050600181019050611044565b5085935050505092915050565b6110878161143e565b82525050565b61109681611487565b82525050565b60006110a7826113e1565b6110b1818561140a565b93506110c1818560208601611499565b6110ca81611608565b840191505092915050565b60006110e0826113e1565b6110ea818561141b565b93506110fa818560208601611499565b61110381611608565b840191505092915050565b600061111b602a8361141b565b915061112682611619565b604082019050919050565b600061113e601c8361141b565b915061114982611668565b602082019050919050565b600060608301600083015161116c60008601826111a4565b5060208301518482036020860152611184828261109c565b915050604083015161119960408601826111a4565b508091505092915050565b6111ad8161147d565b82525050565b6111bc8161147d565b82525050565b60006020820190506111d76000830184611011565b92915050565b600060208201905081810360008301526111f78184611020565b905092915050565b6000602082019050611214600083018461107e565b92915050565b600060a08201905061122f600083018861107e565b61123c602083018761107e565b61124960408301866111b3565b61125660608301856111b3565b61126360808301846111b3565b9695505050505050565b6000606082019050611282600083018661107e565b61128f60208301856111b3565b61129c60408301846111b3565b949350505050565b60006020820190506112b9600083018461108d565b92915050565b600060208201905081810360008301526112d88161110e565b9050919050565b600060208201905081810360008301526112f881611131565b9050919050565b600060208201905081810360008301526113198184611154565b905092915050565b600060208201905061133660008301846111b3565b92915050565b600060608201905061135160008301866111b3565b818103602083015261136381856110d5565b905061137260408301846111b3565b949350505050565b600060808201905061138f60008301876111b3565b81810360208301526113a181866110d5565b90506113b060408301856111b3565b6113bd60608301846111b3565b95945050505050565b6000819050602082019050919050565b600081519050919050565b600081519050919050565b6000602082019050919050565b600082825260208201905092915050565b600082825260208201905092915050565b600082825260208201905092915050565b60006114378261145d565b9050919050565b60008115159050919050565b600081905061145882611691565b919050565b600073ffffffffffffffffffffffffffffffffffffffff82169050919050565b6000819050919050565b60006114928261144a565b9050919050565b60005b838110156114b757808201518184015260208101905061149c565b838111156114c6576000848401525b50505050565b600060028204905060018216806114e457607f821691505b602082108114156114f8576114f76115a5565b5b50919050565b60006115098261147d565b91507fffffffffffffffffffffffffffffffffffffffffffffffffffffffffffffffff82141561153c5761153b611547565b5b600182019050919050565b7f4e487b7100000000000000000000000000000000000000000000000000000000600052601160045260246000fd5b7f4e487b7100000000000000000000000000000000000000000000000000000000600052602160045260246000fd5b7f4e487b7100000000000000000000000000000000000000000000000000000000600052602260045260246000fd5b7f4e487b7100000000000000000000000000000000000000000000000000000000600052603260045260246000fd5b600080fd5b6000601f19601f8301169050919050565b7f506c656173652070726f7669646520612076616c696420706f6c6c696e67207360008201527f746174696f6e2049442e00000000000000000000000000000000000000000000602082015250565b7f566f74657220697320616c726561647920726567697374657265642e00000000600082015250565b600381106116a2576116a1611576565b5b50565b6116ae8161142c565b81146116b957600080fd5b50565b6116c58161147d565b81146116d057600080fd5b5056fea2646970667358221220fa68e89892df8bb1e4733645e015bee655134c60096d55c0c19149da0da8b21b64736f6c63430008070033",
					"opcodes": "PUSH1 0x80 PUSH1 0x40 MSTORE CALLVALUE DUP1 ISZERO PUSH3 0x11 JUMPI PUSH1 0x0 DUP1 REVERT JUMPDEST POP CALLER PUSH1 0x0 DUP1 PUSH2 0x100 EXP DUP2 SLOAD DUP2 PUSH20 0xFFFFFFFFFFFFFFFFFFFFFFFFFFFFFFFFFFFFFFFF MUL NOT AND SWAP1 DUP4 PUSH20 0xFFFFFFFFFFFFFFFFFFFFFFFFFFFFFFFFFFFFFFFF AND MUL OR SWAP1 SSTORE POP PUSH3 0x62 PUSH3 0xA6 PUSH1 0x20 SHL PUSH1 0x20 SHR JUMP JUMPDEST PUSH3 0x72 PUSH3 0x364 PUSH1 0x20 SHL PUSH1 0x20 SHR JUMP JUMPDEST PUSH1 0x0 PUSH1 0xA PUSH1 0x0 PUSH2 0x100 EXP DUP2 SLOAD DUP2 PUSH1 0xFF MUL NOT AND SWAP1 DUP4 PUSH1 0x2 DUP2 GT ISZERO PUSH3 0x9B JUMPI PUSH3 0x9A PUSH3 0x7CD JUMP JUMPDEST JUMPDEST MUL OR SWAP1 SSTORE POP PUSH3 0x82B JUMP JUMPDEST PUSH3 0xEC PUSH1 0x40 MLOAD DUP1 PUSH1 0x40 ADD PUSH1 0x40 MSTORE DUP1 PUSH1 0x11 DUP2 MSTORE PUSH1 0x20 ADD PUSH32 0x506F6C6C696E672053746174696F6E2031000000000000000000000000000000 DUP2 MSTORE POP PUSH3 0x4C4 PUSH1 0x20 SHL PUSH1 0x20 SHR JUMP JUMPDEST PUSH3 0x132 PUSH1 0x40 MLOAD DUP1 PUSH1 0x40 ADD PUSH1 0x40 MSTORE DUP1 PUSH1 0x11 DUP2 MSTORE PUSH1 0x20 ADD PUSH32 0x506F6C6C696E672053746174696F6E2032000000000000000000000000000000 DUP2 MSTORE POP PUSH3 0x4C4 PUSH1 0x20 SHL PUSH1 0x20 SHR JUMP JUMPDEST PUSH3 0x178 PUSH1 0x40 MLOAD DUP1 PUSH1 0x40 ADD PUSH1 0x40 MSTORE DUP1 PUSH1 0x11 DUP2 MSTORE PUSH1 0x20 ADD PUSH32 0x506F6C6C696E672053746174696F6E2033000000000000000000000000000000 DUP2 MSTORE POP PUSH3 0x4C4 PUSH1 0x20 SHL PUSH1 0x20 SHR JUMP JUMPDEST PUSH3 0x1BE PUSH1 0x40 MLOAD DUP1 PUSH1 0x40 ADD PUSH1 0x40 MSTORE DUP1 PUSH1 0x11 DUP2 MSTORE PUSH1 0x20 ADD PUSH32 0x506F6C6C696E672053746174696F6E2034000000000000000000000000000000 DUP2 MSTORE POP PUSH3 0x4C4 PUSH1 0x20 SHL PUSH1 0x20 SHR JUMP JUMPDEST PUSH3 0x204 PUSH1 0x40 MLOAD DUP1 PUSH1 0x40 ADD PUSH1 0x40 MSTORE DUP1 PUSH1 0x11 DUP2 MSTORE PUSH1 0x20 ADD PUSH32 0x506F6C6C696E672053746174696F6E2035000000000000000000000000000000 DUP2 MSTORE POP PUSH3 0x4C4 PUSH1 0x20 SHL PUSH1 0x20 SHR JUMP JUMPDEST PUSH3 0x24A PUSH1 0x40 MLOAD DUP1 PUSH1 0x40 ADD PUSH1 0x40 MSTORE DUP1 PUSH1 0x11 DUP2 MSTORE PUSH1 0x20 ADD PUSH32 0x506F6C6C696E672053746174696F6E2036000000000000000000000000000000 DUP2 MSTORE POP PUSH3 0x4C4 PUSH1 0x20 SHL PUSH1 0x20 SHR JUMP JUMPDEST PUSH3 0x290 PUSH1 0x40 MLOAD DUP1 PUSH1 0x40 ADD PUSH1 0x40 MSTORE DUP1 PUSH1 0x11 DUP2 MSTORE PUSH1 0x20 ADD PUSH32 0x506F6C6C696E672053746174696F6E2037000000000000000000000000000000 DUP2 MSTORE POP PUSH3 0x4C4 PUSH1 0x20 SHL PUSH1 0x20 SHR JUMP JUMPDEST PUSH3 0x2D6 PUSH1 0x40 MLOAD DUP1 PUSH1 0x40 ADD PUSH1 0x40 MSTORE DUP1 PUSH1 0x11 DUP2 MSTORE PUSH1 0x20 ADD PUSH32 0x506F6C6C696E672053746174696F6E2038000000000000000000000000000000 DUP2 MSTORE POP PUSH3 0x4C4 PUSH1 0x20 SHL PUSH1 0x20 SHR JUMP JUMPDEST PUSH3 0x31C PUSH1 0x40 MLOAD DUP1 PUSH1 0x40 ADD PUSH1 0x40 MSTORE DUP1 PUSH1 0x11 DUP2 MSTORE PUSH1 0x20 ADD PUSH32 0x506F6C6C696E672053746174696F6E2039000000000000000000000000000000 DUP2 MSTORE POP PUSH3 0x4C4 PUSH1 0x20 SHL PUSH1 0x20 SHR JUMP JUMPDEST PUSH3 0x362 PUSH1 0x40 MLOAD DUP1 PUSH1 0x40 ADD PUSH1 0x40 MSTORE DUP1 PUSH1 0x12 DUP2 MSTORE PUSH1 0x20 ADD PUSH32 0x506F6C6C696E672053746174696F6E2031300000000000000000000000000000 DUP2 MSTORE POP PUSH3 0x4C4 PUSH1 0x20 SHL PUSH1 0x20 SHR JUMP JUMPDEST JUMP JUMPDEST PUSH3 0x3AA PUSH1 0x40 MLOAD DUP1 PUSH1 0x40 ADD PUSH1 0x40 MSTORE DUP1 PUSH1 0xB DUP2 MSTORE PUSH1 0x20 ADD PUSH32 0x43616E6469646174652031000000000000000000000000000000000000000000 DUP2 MSTORE POP PUSH3 0x535 PUSH1 0x20 SHL PUSH1 0x20 SHR JUMP JUMPDEST PUSH3 0x3F0 PUSH1 0x40 MLOAD DUP1 PUSH1 0x40 ADD PUSH1 0x40 MSTORE DUP1 PUSH1 0xB DUP2 MSTORE PUSH1 0x20 ADD PUSH32 0x43616E6469646174652032000000000000000000000000000000000000000000 DUP2 MSTORE POP PUSH3 0x535 PUSH1 0x20 SHL PUSH1 0x20 SHR JUMP JUMPDEST PUSH3 0x436 PUSH1 0x40 MLOAD DUP1 PUSH1 0x40 ADD PUSH1 0x40 MSTORE DUP1 PUSH1 0xB DUP2 MSTORE PUSH1 0x20 ADD PUSH32 0x43616E6469646174652033000000000000000000000000000000000000000000 DUP2 MSTORE POP PUSH3 0x535 PUSH1 0x20 SHL PUSH1 0x20 SHR JUMP JUMPDEST PUSH3 0x47C PUSH1 0x40 MLOAD DUP1 PUSH1 0x40 ADD PUSH1 0x40 MSTORE DUP1 PUSH1 0xB DUP2 MSTORE PUSH1 0x20 ADD PUSH32 0x43616E6469646174652034000000000000000000000000000000000000000000 DUP2 MSTORE POP PUSH3 0x535 PUSH1 0x20 SHL PUSH1 0x20 SHR JUMP JUMPDEST PUSH3 0x4C2 PUSH1 0x40 MLOAD DUP1 PUSH1 0x40 ADD PUSH1 0x40 MSTORE DUP1 PUSH1 0xB DUP2 MSTORE PUSH1 0x20 ADD PUSH32 0x43616E6469646174652035000000000000000000000000000000000000000000 DUP2 MSTORE POP PUSH3 0x535 PUSH1 0x20 SHL PUSH1 0x20 SHR JUMP JUMPDEST JUMP JUMPDEST PUSH1 0x2 PUSH1 0x0 DUP2 SLOAD DUP1 SWAP3 SWAP2 SWAP1 PUSH3 0x4D9 SWAP1 PUSH3 0x750 JUMP JUMPDEST SWAP2 SWAP1 POP SSTORE POP PUSH1 0x0 PUSH1 0x7 PUSH1 0x0 PUSH1 0x2 SLOAD DUP2 MSTORE PUSH1 0x20 ADD SWAP1 DUP2 MSTORE PUSH1 0x20 ADD PUSH1 0x0 KECCAK256 SWAP1 POP PUSH1 0x2 SLOAD DUP2 PUSH1 0x0 ADD DUP2 SWAP1 SSTORE POP DUP2 DUP2 PUSH1 0x1 ADD SWAP1 DUP1 MLOAD SWAP1 PUSH1 0x20 ADD SWAP1 PUSH3 0x51C SWAP3 SWAP2 SWAP1 PUSH3 0x660 JUMP JUMPDEST POP PUSH1 0x0 DUP2 PUSH1 0x2 ADD DUP2 SWAP1 SSTORE POP PUSH1 0x0 DUP2 PUSH1 0x3 ADD DUP2 SWAP1 SSTORE POP POP POP JUMP JUMPDEST PUSH1 0x1 PUSH1 0x0 DUP2 SLOAD DUP1 SWAP3 SWAP2 SWAP1 PUSH3 0x54A SWAP1 PUSH3 0x750 JUMP JUMPDEST SWAP2 SWAP1 POP SSTORE POP PUSH1 0x40 MLOAD DUP1 PUSH1 0x60 ADD PUSH1 0x40 MSTORE DUP1 PUSH1 0x1 SLOAD DUP2 MSTORE PUSH1 0x20 ADD DUP3 DUP2 MSTORE PUSH1 0x20 ADD PUSH1 0x0 DUP2 MSTORE POP PUSH1 0x6 PUSH1 0x0 PUSH1 0x1 SLOAD DUP2 MSTORE PUSH1 0x20 ADD SWAP1 DUP2 MSTORE PUSH1 0x20 ADD PUSH1 0x0 KECCAK256 PUSH1 0x0 DUP3 ADD MLOAD DUP2 PUSH1 0x0 ADD SSTORE PUSH1 0x20 DUP3 ADD MLOAD DUP2 PUSH1 0x1 ADD SWAP1 DUP1 MLOAD SWAP1 PUSH1 0x20 ADD SWAP1 PUSH3 0x5AA SWAP3 SWAP2 SWAP1 PUSH3 0x660 JUMP JUMPDEST POP PUSH1 0x40 DUP3 ADD MLOAD DUP2 PUSH1 0x2 ADD SSTORE SWAP1 POP POP PUSH1 0x0 PUSH1 0x1 SWAP1 POP JUMPDEST PUSH1 0x2 SLOAD DUP2 GT PUSH3 0x65C JUMPI PUSH1 0x40 MLOAD DUP1 PUSH1 0x60 ADD PUSH1 0x40 MSTORE DUP1 PUSH1 0x1 SLOAD DUP2 MSTORE PUSH1 0x20 ADD DUP4 DUP2 MSTORE PUSH1 0x20 ADD PUSH1 0x0 DUP2 MSTORE POP PUSH1 0x7 PUSH1 0x0 DUP4 DUP2 MSTORE PUSH1 0x20 ADD SWAP1 DUP2 MSTORE PUSH1 0x20 ADD PUSH1 0x0 KECCAK256 PUSH1 0x4 ADD PUSH1 0x0 PUSH1 0x1 SLOAD DUP2 MSTORE PUSH1 0x20 ADD SWAP1 DUP2 MSTORE PUSH1 0x20 ADD PUSH1 0x0 KECCAK256 PUSH1 0x0 DUP3 ADD MLOAD DUP2 PUSH1 0x0 ADD SSTORE PUSH1 0x20 DUP3 ADD MLOAD DUP2 PUSH1 0x1 ADD SWAP1 DUP1 MLOAD SWAP1 PUSH1 0x20 ADD SWAP1 PUSH3 0x638 SWAP3 SWAP2 SWAP1 PUSH3 0x660 JUMP JUMPDEST POP PUSH1 0x40 DUP3 ADD MLOAD DUP2 PUSH1 0x2 ADD SSTORE SWAP1 POP POP DUP1 DUP1 PUSH3 0x653 SWAP1 PUSH3 0x750 JUMP JUMPDEST SWAP2 POP POP PUSH3 0x5BF JUMP JUMPDEST POP POP JUMP JUMPDEST DUP3 DUP1 SLOAD PUSH3 0x66E SWAP1 PUSH3 0x71A JUMP JUMPDEST SWAP1 PUSH1 0x0 MSTORE PUSH1 0x20 PUSH1 0x0 KECCAK256 SWAP1 PUSH1 0x1F ADD PUSH1 0x20 SWAP1 DIV DUP2 ADD SWAP3 DUP3 PUSH3 0x692 JUMPI PUSH1 0x0 DUP6 SSTORE PUSH3 0x6DE JUMP JUMPDEST DUP3 PUSH1 0x1F LT PUSH3 0x6AD JUMPI DUP1 MLOAD PUSH1 0xFF NOT AND DUP4 DUP1 ADD OR DUP6 SSTORE PUSH3 0x6DE JUMP JUMPDEST DUP3 DUP1 ADD PUSH1 0x1 ADD DUP6 SSTORE DUP3 ISZERO PUSH3 0x6DE JUMPI SWAP2 DUP3 ADD JUMPDEST DUP3 DUP2 GT ISZERO PUSH3 0x6DD JUMPI DUP3 MLOAD DUP3 SSTORE SWAP2 PUSH1 0x20 ADD SWAP2 SWAP1 PUSH1 0x1 ADD SWAP1 PUSH3 0x6C0 JUMP JUMPDEST JUMPDEST POP SWAP1 POP PUSH3 0x6ED SWAP2 SWAP1 PUSH3 0x6F1 JUMP JUMPDEST POP SWAP1 JUMP JUMPDEST JUMPDEST DUP1 DUP3 GT ISZERO PUSH3 0x70C JUMPI PUSH1 0x0 DUP2 PUSH1 0x0 SWAP1 SSTORE POP PUSH1 0x1 ADD PUSH3 0x6F2 JUMP JUMPDEST POP SWAP1 JUMP JUMPDEST PUSH1 0x0 DUP2 SWAP1 POP SWAP2 SWAP1 POP JUMP JUMPDEST PUSH1 0x0 PUSH1 0x2 DUP3 DIV SWAP1 POP PUSH1 0x1 DUP3 AND DUP1 PUSH3 0x733 JUMPI PUSH1 0x7F DUP3 AND SWAP2 POP JUMPDEST PUSH1 0x20 DUP3 LT DUP2 EQ ISZERO PUSH3 0x74A JUMPI PUSH3 0x749 PUSH3 0x7FC JUMP JUMPDEST JUMPDEST POP SWAP2 SWAP1 POP JUMP JUMPDEST PUSH1 0x0 PUSH3 0x75D DUP3 PUSH3 0x710 JUMP JUMPDEST SWAP2 POP PUSH32 0xFFFFFFFFFFFFFFFFFFFFFFFFFFFFFFFFFFFFFFFFFFFFFFFFFFFFFFFFFFFFFFFF DUP3 EQ ISZERO PUSH3 0x793 JUMPI PUSH3 0x792 PUSH3 0x79E JUMP JUMPDEST JUMPDEST PUSH1 0x1 DUP3 ADD SWAP1 POP SWAP2 SWAP1 POP JUMP JUMPDEST PUSH32 0x4E487B7100000000000000000000000000000000000000000000000000000000 PUSH1 0x0 MSTORE PUSH1 0x11 PUSH1 0x4 MSTORE PUSH1 0x24 PUSH1 0x0 REVERT JUMPDEST PUSH32 0x4E487B7100000000000000000000000000000000000000000000000000000000 PUSH1 0x0 MSTORE PUSH1 0x21 PUSH1 0x4 MSTORE PUSH1 0x24 PUSH1 0x0 REVERT JUMPDEST PUSH32 0x4E487B7100000000000000000000000000000000000000000000000000000000 PUSH1 0x0 MSTORE PUSH1 0x22 PUSH1 0x4 MSTORE PUSH1 0x24 PUSH1 0x0 REVERT JUMPDEST PUSH2 0x1709 DUP1 PUSH3 0x83B PUSH1 0x0 CODECOPY PUSH1 0x0 RETURN INVALID PUSH1 0x80 PUSH1 0x40 MSTORE CALLVALUE DUP1 ISZERO PUSH2 0x10 JUMPI PUSH1 0x0 DUP1 REVERT JUMPDEST POP PUSH1 0x4 CALLDATASIZE LT PUSH2 0xFF JUMPI PUSH1 0x0 CALLDATALOAD PUSH1 0xE0 SHR DUP1 PUSH4 0xA3EC138D GT PUSH2 0x97 JUMPI DUP1 PUSH4 0xD3808AE0 GT PUSH2 0x66 JUMPI DUP1 PUSH4 0xD3808AE0 EQ PUSH2 0x2A2 JUMPI DUP1 PUSH4 0xDF9F1A07 EQ PUSH2 0x2D2 JUMPI DUP1 PUSH4 0xF3A8286F EQ PUSH2 0x2F0 JUMPI DUP1 PUSH4 0xFE2442D7 EQ PUSH2 0x30E JUMPI PUSH2 0xFF JUMP JUMPDEST DUP1 PUSH4 0xA3EC138D EQ PUSH2 0x22E JUMPI DUP1 PUSH4 0xB9223946 EQ PUSH2 0x25E JUMPI DUP1 PUSH4 0xB9F05F2F EQ PUSH2 0x268 JUMPI DUP1 PUSH4 0xC19D93FB EQ PUSH2 0x284 JUMPI PUSH2 0xFF JUMP JUMPDEST DUP1 PUSH4 0x3477EE2E GT PUSH2 0xD3 JUMPI DUP1 PUSH4 0x3477EE2E EQ PUSH2 0x1A0 JUMPI DUP1 PUSH4 0x4763D4E7 EQ PUSH2 0x1D2 JUMPI DUP1 PUSH4 0x4C0A6AF0 EQ PUSH2 0x206 JUMPI DUP1 PUSH4 0x53357AD0 EQ PUSH2 0x210 JUMPI PUSH2 0xFF JUMP JUMPDEST DUP1 PUSH3 0xAA7464 EQ PUSH2 0x104 JUMPI DUP1 PUSH4 0x23A1B11C EQ PUSH2 0x122 JUMPI DUP1 PUSH4 0x2C0A3F89 EQ PUSH2 0x152 JUMPI DUP1 PUSH4 0x2D35A8A2 EQ PUSH2 0x182 JUMPI JUMPDEST PUSH1 0x0 DUP1 REVERT JUMPDEST PUSH2 0x10C PUSH2 0x341 JUMP JUMPDEST PUSH1 0x40 MLOAD PUSH2 0x119 SWAP2 SWAP1 PUSH2 0x1321 JUMP JUMPDEST PUSH1 0x40 MLOAD DUP1 SWAP2 SUB SWAP1 RETURN JUMPDEST PUSH2 0x13C PUSH1 0x4 DUP1 CALLDATASIZE SUB DUP2 ADD SWAP1 PUSH2 0x137 SWAP2 SWAP1 PUSH2 0xF8C JUMP JUMPDEST PUSH2 0x347 JUMP JUMPDEST PUSH1 0x40 MLOAD PUSH2 0x149 SWAP2 SWAP1 PUSH2 0x11DD JUMP JUMPDEST PUSH1 0x40 MLOAD DUP1 SWAP2 SUB SWAP1 RETURN JUMPDEST PUSH2 0x16C PUSH1 0x4 DUP1 CALLDATASIZE SUB DUP2 ADD SWAP1 PUSH2 0x167 SWAP2 SWAP1 PUSH2 0xFB9 JUMP JUMPDEST PUSH2 0x3C8 JUMP JUMPDEST PUSH1 0x40 MLOAD PUSH2 0x179 SWAP2 SWAP1 PUSH2 0x11FF JUMP JUMPDEST PUSH1 0x40 MLOAD DUP1 SWAP2 SUB SWAP1 RETURN JUMPDEST PUSH2 0x18A PUSH2 0x6F6 JUMP JUMPDEST PUSH1 0x40 MLOAD PUSH2 0x197 SWAP2 SWAP1 PUSH2 0x1321 JUMP JUMPDEST PUSH1 0x40 MLOAD DUP1 SWAP2 SUB SWAP1 RETURN JUMPDEST PUSH2 0x1BA PUSH1 0x4 DUP1 CALLDATASIZE SUB DUP2 ADD SWAP1 PUSH2 0x1B5 SWAP2 SWAP1 PUSH2 0xF8C JUMP JUMPDEST PUSH2 0x6FC JUMP JUMPDEST PUSH1 0x40 MLOAD PUSH2 0x1C9 SWAP4 SWAP3 SWAP2 SWAP1 PUSH2 0x133C JUMP JUMPDEST PUSH1 0x40 MLOAD DUP1 SWAP2 SUB SWAP1 RETURN JUMPDEST PUSH2 0x1EC PUSH1 0x4 DUP1 CALLDATASIZE SUB DUP2 ADD SWAP1 PUSH2 0x1E7 SWAP2 SWAP1 PUSH2 0xF1F JUMP JUMPDEST PUSH2 0x7AE JUMP JUMPDEST PUSH1 0x40 MLOAD PUSH2 0x1FD SWAP6 SWAP5 SWAP4 SWAP3 SWAP2 SWAP1 PUSH2 0x121A JUMP JUMPDEST PUSH1 0x40 MLOAD DUP1 SWAP2 SUB SWAP1 RETURN JUMPDEST PUSH2 0x20E PUSH2 0x7FE JUMP JUMPDEST STOP JUMPDEST PUSH2 0x218 PUSH2 0x8C5 JUMP JUMPDEST PUSH1 0x40 MLOAD PUSH2 0x225 SWAP2 SWAP1 PUSH2 0x11C2 JUMP JUMPDEST PUSH1 0x40 MLOAD DUP1 SWAP2 SUB SWAP1 RETURN JUMPDEST PUSH2 0x248 PUSH1 0x4 DUP1 CALLDATASIZE SUB DUP2 ADD SWAP1 PUSH2 0x243 SWAP2 SWAP1 PUSH2 0xF1F JUMP JUMPDEST PUSH2 0x8E9 JUMP JUMPDEST PUSH1 0x40 MLOAD PUSH2 0x255 SWAP2 SWAP1 PUSH2 0x11FF JUMP JUMPDEST PUSH1 0x40 MLOAD DUP1 SWAP2 SUB SWAP1 RETURN JUMPDEST PUSH2 0x266 PUSH2 0x909 JUMP JUMPDEST STOP JUMPDEST PUSH2 0x282 PUSH1 0x4 DUP1 CALLDATASIZE SUB DUP2 ADD SWAP1 PUSH2 0x27D SWAP2 SWAP1 PUSH2 0xF4C JUMP JUMPDEST PUSH2 0x9D9 JUMP JUMPDEST STOP JUMPDEST PUSH2 0x28C PUSH2 0xC6C JUMP JUMPDEST PUSH1 0x40 MLOAD PUSH2 0x299 SWAP2 SWAP1 PUSH2 0x12A4 JUMP JUMPDEST PUSH1 0x40 MLOAD DUP1 SWAP2 SUB SWAP1 RETURN JUMPDEST PUSH2 0x2BC PUSH1 0x4 DUP1 CALLDATASIZE SUB DUP2 ADD SWAP1 PUSH2 0x2B7 SWAP2 SWAP1 PUSH2 0xFB9 JUMP JUMPDEST PUSH2 0xC7F JUMP JUMPDEST PUSH1 0x40 MLOAD PUSH2 0x2C9 SWAP2 SWAP1 PUSH2 0x12FF JUMP JUMPDEST PUSH1 0x40 MLOAD DUP1 SWAP2 SUB SWAP1 RETURN JUMPDEST PUSH2 0x2DA PUSH2 0xD67 JUMP JUMPDEST PUSH1 0x40 MLOAD PUSH2 0x2E7 SWAP2 SWAP1 PUSH2 0x1321 JUMP JUMPDEST PUSH1 0x40 MLOAD DUP1 SWAP2 SUB SWAP1 RETURN JUMPDEST PUSH2 0x2F8 PUSH2 0xD6D JUMP JUMPDEST PUSH1 0x40 MLOAD PUSH2 0x305 SWAP2 SWAP1 PUSH2 0x1321 JUMP JUMPDEST PUSH1 0x40 MLOAD DUP1 SWAP2 SUB SWAP1 RETURN JUMPDEST PUSH2 0x328 PUSH1 0x4 DUP1 CALLDATASIZE SUB DUP2 ADD SWAP1 PUSH2 0x323 SWAP2 SWAP1 PUSH2 0xF8C JUMP JUMPDEST PUSH2 0xD73 JUMP JUMPDEST PUSH1 0x40 MLOAD PUSH2 0x338 SWAP5 SWAP4 SWAP3 SWAP2 SWAP1 PUSH2 0x137A JUMP JUMPDEST PUSH1 0x40 MLOAD DUP1 SWAP2 SUB SWAP1 RETURN JUMPDEST PUSH1 0x3 SLOAD DUP2 JUMP JUMPDEST PUSH1 0x60 PUSH1 0x0 PUSH1 0x7 PUSH1 0x0 DUP5 DUP2 MSTORE PUSH1 0x20 ADD SWAP1 DUP2 MSTORE PUSH1 0x20 ADD PUSH1 0x0 KECCAK256 SWAP1 POP PUSH1 0x60 PUSH1 0x0 PUSH1 0x1 SWAP1 POP JUMPDEST PUSH1 0x1 SLOAD DUP2 GT PUSH2 0x3BD JUMPI DUP3 PUSH1 0x4 ADD PUSH1 0x0 DUP3 DUP2 MSTORE PUSH1 0x20 ADD SWAP1 DUP2 MSTORE PUSH1 0x20 ADD PUSH1 0x0 KECCAK256 PUSH1 0x2 ADD SLOAD DUP3 DUP3 DUP2 MLOAD DUP2 LT PUSH2 0x39E JUMPI PUSH2 0x39D PUSH2 0x15D4 JUMP JUMPDEST JUMPDEST PUSH1 0x20 MUL PUSH1 0x20 ADD ADD DUP2 DUP2 MSTORE POP POP DUP1 DUP1 PUSH2 0x3B5 SWAP1 PUSH2 0x14FE JUMP JUMPDEST SWAP2 POP POP PUSH2 0x369 JUMP JUMPDEST POP DUP1 SWAP3 POP POP POP SWAP2 SWAP1 POP JUMP JUMPDEST PUSH1 0x0 PUSH1 0x1 DUP1 PUSH1 0x2 DUP2 GT ISZERO PUSH2 0x3DF JUMPI PUSH2 0x3DE PUSH2 0x1576 JUMP JUMPDEST JUMPDEST PUSH1 0xA PUSH1 0x0 SWAP1 SLOAD SWAP1 PUSH2 0x100 EXP SWAP1 DIV PUSH1 0xFF AND PUSH1 0x2 DUP2 GT ISZERO PUSH2 0x401 JUMPI PUSH2 0x400 PUSH2 0x1576 JUMP JUMPDEST JUMPDEST EQ PUSH2 0x40B JUMPI PUSH1 0x0 DUP1 REVERT JUMPDEST PUSH1 0x0 PUSH1 0x8 PUSH1 0x0 CALLER PUSH20 0xFFFFFFFFFFFFFFFFFFFFFFFFFFFFFFFFFFFFFFFF AND PUSH20 0xFFFFFFFFFFFFFFFFFFFFFFFFFFFFFFFFFFFFFFFF AND DUP2 MSTORE PUSH1 0x20 ADD SWAP1 DUP2 MSTORE PUSH1 0x20 ADD PUSH1 0x0 KECCAK256 PUSH1 0x0 ADD PUSH1 0x0 SWAP1 SLOAD SWAP1 PUSH2 0x100 EXP SWAP1 DIV PUSH1 0xFF AND DUP1 ISZERO PUSH2 0x4B6 JUMPI POP PUSH1 0x8 PUSH1 0x0 CALLER PUSH20 0xFFFFFFFFFFFFFFFFFFFFFFFFFFFFFFFFFFFFFFFF AND PUSH20 0xFFFFFFFFFFFFFFFFFFFFFFFFFFFFFFFFFFFFFFFF AND DUP2 MSTORE PUSH1 0x20 ADD SWAP1 DUP2 MSTORE PUSH1 0x20 ADD PUSH1 0x0 KECCAK256 PUSH1 0x0 ADD PUSH1 0x1 SWAP1 SLOAD SWAP1 PUSH2 0x100 EXP SWAP1 DIV PUSH1 0xFF AND ISZERO JUMPDEST ISZERO PUSH2 0x6EB JUMPI DUP5 PUSH1 0x8 PUSH1 0x0 CALLER PUSH20 0xFFFFFFFFFFFFFFFFFFFFFFFFFFFFFFFFFFFFFFFF AND PUSH20 0xFFFFFFFFFFFFFFFFFFFFFFFFFFFFFFFFFFFFFFFF AND DUP2 MSTORE PUSH1 0x20 ADD SWAP1 DUP2 MSTORE PUSH1 0x20 ADD PUSH1 0x0 KECCAK256 PUSH1 0x1 ADD DUP2 SWAP1 SSTORE POP DUP4 PUSH1 0x8 PUSH1 0x0 CALLER PUSH20 0xFFFFFFFFFFFFFFFFFFFFFFFFFFFFFFFFFFFFFFFF AND PUSH20 0xFFFFFFFFFFFFFFFFFFFFFFFFFFFFFFFFFFFFFFFF AND DUP2 MSTORE PUSH1 0x20 ADD SWAP1 DUP2 MSTORE PUSH1 0x20 ADD PUSH1 0x0 KECCAK256 PUSH1 0x3 ADD DUP2 SWAP1 SSTORE POP PUSH1 0x1 PUSH1 0x8 PUSH1 0x0 CALLER PUSH20 0xFFFFFFFFFFFFFFFFFFFFFFFFFFFFFFFFFFFFFFFF AND PUSH20 0xFFFFFFFFFFFFFFFFFFFFFFFFFFFFFFFFFFFFFFFF AND DUP2 MSTORE PUSH1 0x20 ADD SWAP1 DUP2 MSTORE PUSH1 0x20 ADD PUSH1 0x0 KECCAK256 PUSH1 0x0 ADD PUSH1 0x1 PUSH2 0x100 EXP DUP2 SLOAD DUP2 PUSH1 0xFF MUL NOT AND SWAP1 DUP4 ISZERO ISZERO MUL OR SWAP1 SSTORE POP PUSH1 0x7 PUSH1 0x0 DUP6 DUP2 MSTORE PUSH1 0x20 ADD SWAP1 DUP2 MSTORE PUSH1 0x20 ADD PUSH1 0x0 KECCAK256 PUSH1 0x3 ADD PUSH1 0x0 DUP2 SLOAD DUP1 SWAP3 SWAP2 SWAP1 PUSH2 0x5CB SWAP1 PUSH2 0x14FE JUMP JUMPDEST SWAP2 SWAP1 POP SSTORE POP PUSH1 0x6 PUSH1 0x0 DUP7 DUP2 MSTORE PUSH1 0x20 ADD SWAP1 DUP2 MSTORE PUSH1 0x20 ADD PUSH1 0x0 KECCAK256 PUSH1 0x2 ADD PUSH1 0x0 DUP2 SLOAD DUP1 SWAP3 SWAP2 SWAP1 PUSH2 0x5F7 SWAP1 PUSH2 0x14FE JUMP JUMPDEST SWAP2 SWAP1 POP SSTORE POP PUSH1 0x4 PUSH1 0x0 DUP2 SLOAD DUP1 SWAP3 SWAP2 SWAP1 PUSH2 0x60F SWAP1 PUSH2 0x14FE JUMP JUMPDEST SWAP2 SWAP1 POP SSTORE POP PUSH1 0x1 SWAP1 POP DUP1 PUSH1 0x9 PUSH1 0x0 CALLER PUSH20 0xFFFFFFFFFFFFFFFFFFFFFFFFFFFFFFFFFFFFFFFF AND PUSH20 0xFFFFFFFFFFFFFFFFFFFFFFFFFFFFFFFFFFFFFFFF AND DUP2 MSTORE PUSH1 0x20 ADD SWAP1 DUP2 MSTORE PUSH1 0x20 ADD PUSH1 0x0 KECCAK256 PUSH1 0x0 PUSH2 0x100 EXP DUP2 SLOAD DUP2 PUSH1 0xFF MUL NOT AND SWAP1 DUP4 ISZERO ISZERO MUL OR SWAP1 SSTORE POP PUSH1 0x7 PUSH1 0x0 DUP6 DUP2 MSTORE PUSH1 0x20 ADD SWAP1 DUP2 MSTORE PUSH1 0x20 ADD PUSH1 0x0 KECCAK256 PUSH1 0x4 ADD PUSH1 0x0 DUP7 DUP2 MSTORE PUSH1 0x20 ADD SWAP1 DUP2 MSTORE PUSH1 0x20 ADD PUSH1 0x0 KECCAK256 PUSH1 0x2 ADD PUSH1 0x0 DUP2 SLOAD DUP1 SWAP3 SWAP2 SWAP1 PUSH2 0x6AA SWAP1 PUSH2 0x14FE JUMP JUMPDEST SWAP2 SWAP1 POP SSTORE POP PUSH32 0x29A25B3D0B6FF7E5DE2A60A2E8E76D1BDAF4894EC18C598CC1687213F442C5CB DUP2 DUP7 DUP7 PUSH1 0x40 MLOAD PUSH2 0x6E2 SWAP4 SWAP3 SWAP2 SWAP1 PUSH2 0x126D JUMP JUMPDEST PUSH1 0x40 MLOAD DUP1 SWAP2 SUB SWAP1 LOG1 JUMPDEST DUP1 SWAP3 POP POP POP SWAP3 SWAP2 POP POP JUMP JUMPDEST PUSH1 0x1 SLOAD DUP2 JUMP JUMPDEST PUSH1 0x6 PUSH1 0x20 MSTORE DUP1 PUSH1 0x0 MSTORE PUSH1 0x40 PUSH1 0x0 KECCAK256 PUSH1 0x0 SWAP2 POP SWAP1 POP DUP1 PUSH1 0x0 ADD SLOAD SWAP1 DUP1 PUSH1 0x1 ADD DUP1 SLOAD PUSH2 0x725 SWAP1 PUSH2 0x14CC JUMP JUMPDEST DUP1 PUSH1 0x1F ADD PUSH1 0x20 DUP1 SWAP2 DIV MUL PUSH1 0x20 ADD PUSH1 0x40 MLOAD SWAP1 DUP2 ADD PUSH1 0x40 MSTORE DUP1 SWAP3 SWAP2 SWAP1 DUP2 DUP2 MSTORE PUSH1 0x20 ADD DUP3 DUP1 SLOAD PUSH2 0x751 SWAP1 PUSH2 0x14CC JUMP JUMPDEST DUP1 ISZERO PUSH2 0x79E JUMPI DUP1 PUSH1 0x1F LT PUSH2 0x773 JUMPI PUSH2 0x100 DUP1 DUP4 SLOAD DIV MUL DUP4 MSTORE SWAP2 PUSH1 0x20 ADD SWAP2 PUSH2 0x79E JUMP JUMPDEST DUP3 ADD SWAP2 SWAP1 PUSH1 0x0 MSTORE PUSH1 0x20 PUSH1 0x0 KECCAK256 SWAP1 JUMPDEST DUP2 SLOAD DUP2 MSTORE SWAP1 PUSH1 0x1 ADD SWAP1 PUSH1 0x20 ADD DUP1 DUP4 GT PUSH2 0x781 JUMPI DUP3 SWAP1 SUB PUSH1 0x1F AND DUP3 ADD SWAP2 JUMPDEST POP POP POP POP POP SWAP1 DUP1 PUSH1 0x2 ADD SLOAD SWAP1 POP DUP4 JUMP JUMPDEST PUSH1 0x8 PUSH1 0x20 MSTORE DUP1 PUSH1 0x0 MSTORE PUSH1 0x40 PUSH1 0x0 KECCAK256 PUSH1 0x0 SWAP2 POP SWAP1 POP DUP1 PUSH1 0x0 ADD PUSH1 0x0 SWAP1 SLOAD SWAP1 PUSH2 0x100 EXP SWAP1 DIV PUSH1 0xFF AND SWAP1 DUP1 PUSH1 0x0 ADD PUSH1 0x1 SWAP1 SLOAD SWAP1 PUSH2 0x100 EXP SWAP1 DIV PUSH1 0xFF AND SWAP1 DUP1 PUSH1 0x1 ADD SLOAD SWAP1 DUP1 PUSH1 0x2 ADD SLOAD SWAP1 DUP1 PUSH1 0x3 ADD SLOAD SWAP1 POP DUP6 JUMP JUMPDEST PUSH1 0x0 DUP1 PUSH1 0x2 DUP2 GT ISZERO PUSH2 0x813 JUMPI PUSH2 0x812 PUSH2 0x1576 JUMP JUMPDEST JUMPDEST PUSH1 0xA PUSH1 0x0 SWAP1 SLOAD SWAP1 PUSH2 0x100 EXP SWAP1 DIV PUSH1 0xFF AND PUSH1 0x2 DUP2 GT ISZERO PUSH2 0x835 JUMPI PUSH2 0x834 PUSH2 0x1576 JUMP JUMPDEST JUMPDEST EQ PUSH2 0x83F JUMPI PUSH1 0x0 DUP1 REVERT JUMPDEST PUSH1 0x0 DUP1 SLOAD SWAP1 PUSH2 0x100 EXP SWAP1 DIV PUSH20 0xFFFFFFFFFFFFFFFFFFFFFFFFFFFFFFFFFFFFFFFF AND PUSH20 0xFFFFFFFFFFFFFFFFFFFFFFFFFFFFFFFFFFFFFFFF AND CALLER PUSH20 0xFFFFFFFFFFFFFFFFFFFFFFFFFFFFFFFFFFFFFFFF AND EQ PUSH2 0x897 JUMPI PUSH1 0x0 DUP1 REVERT JUMPDEST PUSH1 0x1 PUSH1 0xA PUSH1 0x0 PUSH2 0x100 EXP DUP2 SLOAD DUP2 PUSH1 0xFF MUL NOT AND SWAP1 DUP4 PUSH1 0x2 DUP2 GT ISZERO PUSH2 0x8BD JUMPI PUSH2 0x8BC PUSH2 0x1576 JUMP JUMPDEST JUMPDEST MUL OR SWAP1 SSTORE POP POP JUMP JUMPDEST PUSH1 0x0 DUP1 SLOAD SWAP1 PUSH2 0x100 EXP SWAP1 DIV PUSH20 0xFFFFFFFFFFFFFFFFFFFFFFFFFFFFFFFFFFFFFFFF AND DUP2 JUMP JUMPDEST PUSH1 0x9 PUSH1 0x20 MSTORE DUP1 PUSH1 0x0 MSTORE PUSH1 0x40 PUSH1 0x0 KECCAK256 PUSH1 0x0 SWAP2 POP SLOAD SWAP1 PUSH2 0x100 EXP SWAP1 DIV PUSH1 0xFF AND DUP2 JUMP JUMPDEST PUSH1 0x1 DUP1 PUSH1 0x2 DUP2 GT ISZERO PUSH2 0x91E JUMPI PUSH2 0x91D PUSH2 0x1576 JUMP JUMPDEST JUMPDEST PUSH1 0xA PUSH1 0x0 SWAP1 SLOAD SWAP1 PUSH2 0x100 EXP SWAP1 DIV PUSH1 0xFF AND PUSH1 0x2 DUP2 GT ISZERO PUSH2 0x940 JUMPI PUSH2 0x93F PUSH2 0x1576 JUMP JUMPDEST JUMPDEST EQ PUSH2 0x94A JUMPI PUSH1 0x0 DUP1 REVERT JUMPDEST PUSH1 0x0 DUP1 SLOAD SWAP1 PUSH2 0x100 EXP SWAP1 DIV PUSH20 0xFFFFFFFFFFFFFFFFFFFFFFFFFFFFFFFFFFFFFFFF AND PUSH20 0xFFFFFFFFFFFFFFFFFFFFFFFFFFFFFFFFFFFFFFFF AND CALLER PUSH20 0xFFFFFFFFFFFFFFFFFFFFFFFFFFFFFFFFFFFFFFFF AND EQ PUSH2 0x9A2 JUMPI PUSH1 0x0 DUP1 REVERT JUMPDEST PUSH1 0x2 PUSH1 0xA PUSH1 0x0 PUSH2 0x100 EXP DUP2 SLOAD DUP2 PUSH1 0xFF MUL NOT AND SWAP1 DUP4 PUSH1 0x2 DUP2 GT ISZERO PUSH2 0x9C8 JUMPI PUSH2 0x9C7 PUSH2 0x1576 JUMP JUMPDEST JUMPDEST MUL OR SWAP1 SSTORE POP PUSH1 0x4 SLOAD PUSH1 0x5 DUP2 SWAP1 SSTORE POP POP JUMP JUMPDEST PUSH1 0x0 DUP1 PUSH1 0x2 DUP2 GT ISZERO PUSH2 0x9EE JUMPI PUSH2 0x9ED PUSH2 0x1576 JUMP JUMPDEST JUMPDEST PUSH1 0xA PUSH1 0x0 SWAP1 SLOAD SWAP1 PUSH2 0x100 EXP SWAP1 DIV PUSH1 0xFF AND PUSH1 0x2 DUP2 GT ISZERO PUSH2 0xA10 JUMPI PUSH2 0xA0F PUSH2 0x1576 JUMP JUMPDEST JUMPDEST EQ PUSH2 0xA1A JUMPI PUSH1 0x0 DUP1 REVERT JUMPDEST PUSH1 0x0 DUP1 SLOAD SWAP1 PUSH2 0x100 EXP SWAP1 DIV PUSH20 0xFFFFFFFFFFFFFFFFFFFFFFFFFFFFFFFFFFFFFFFF AND PUSH20 0xFFFFFFFFFFFFFFFFFFFFFFFFFFFFFFFFFFFFFFFF AND CALLER PUSH20 0xFFFFFFFFFFFFFFFFFFFFFFFFFFFFFFFFFFFFFFFF AND EQ PUSH2 0xA72 JUMPI PUSH1 0x0 DUP1 REVERT JUMPDEST PUSH1 0x0 ISZERO ISZERO PUSH1 0x8 PUSH1 0x0 DUP6 PUSH20 0xFFFFFFFFFFFFFFFFFFFFFFFFFFFFFFFFFFFFFFFF AND PUSH20 0xFFFFFFFFFFFFFFFFFFFFFFFFFFFFFFFFFFFFFFFF AND DUP2 MSTORE PUSH1 0x20 ADD SWAP1 DUP2 MSTORE PUSH1 0x20 ADD PUSH1 0x0 KECCAK256 PUSH1 0x0 ADD PUSH1 0x0 SWAP1 SLOAD SWAP1 PUSH2 0x100 EXP SWAP1 DIV PUSH1 0xFF AND ISZERO ISZERO EQ PUSH2 0xB08 JUMPI PUSH1 0x40 MLOAD PUSH32 0x8C379A000000000000000000000000000000000000000000000000000000000 DUP2 MSTORE PUSH1 0x4 ADD PUSH2 0xAFF SWAP1 PUSH2 0x12DF JUMP JUMPDEST PUSH1 0x40 MLOAD DUP1 SWAP2 SUB SWAP1 REVERT JUMPDEST PUSH1 0x1 DUP3 LT ISZERO DUP1 ISZERO PUSH2 0xB1B JUMPI POP PUSH1 0x2 SLOAD DUP3 GT ISZERO JUMPDEST PUSH2 0xB5A JUMPI PUSH1 0x40 MLOAD PUSH32 0x8C379A000000000000000000000000000000000000000000000000000000000 DUP2 MSTORE PUSH1 0x4 ADD PUSH2 0xB51 SWAP1 PUSH2 0x12BF JUMP JUMPDEST PUSH1 0x40 MLOAD DUP1 SWAP2 SUB SWAP1 REVERT JUMPDEST PUSH2 0xB62 PUSH2 0xEA1 JUMP JUMPDEST PUSH1 0x1 DUP2 PUSH1 0x0 ADD SWAP1 ISZERO ISZERO SWAP1 DUP2 ISZERO ISZERO DUP2 MSTORE POP POP PUSH1 0x0 DUP2 PUSH1 0x20 ADD SWAP1 ISZERO ISZERO SWAP1 DUP2 ISZERO ISZERO DUP2 MSTORE POP POP PUSH1 0x0 DUP2 PUSH1 0x40 ADD DUP2 DUP2 MSTORE POP POP DUP3 DUP2 PUSH1 0x60 ADD DUP2 DUP2 MSTORE POP POP PUSH1 0x0 DUP2 PUSH1 0x80 ADD DUP2 DUP2 MSTORE POP POP DUP1 PUSH1 0x8 PUSH1 0x0 DUP7 PUSH20 0xFFFFFFFFFFFFFFFFFFFFFFFFFFFFFFFFFFFFFFFF AND PUSH20 0xFFFFFFFFFFFFFFFFFFFFFFFFFFFFFFFFFFFFFFFF AND DUP2 MSTORE PUSH1 0x20 ADD SWAP1 DUP2 MSTORE PUSH1 0x20 ADD PUSH1 0x0 KECCAK256 PUSH1 0x0 DUP3 ADD MLOAD DUP2 PUSH1 0x0 ADD PUSH1 0x0 PUSH2 0x100 EXP DUP2 SLOAD DUP2 PUSH1 0xFF MUL NOT AND SWAP1 DUP4 ISZERO ISZERO MUL OR SWAP1 SSTORE POP PUSH1 0x20 DUP3 ADD MLOAD DUP2 PUSH1 0x0 ADD PUSH1 0x1 PUSH2 0x100 EXP DUP2 SLOAD DUP2 PUSH1 0xFF MUL NOT AND SWAP1 DUP4 ISZERO ISZERO MUL OR SWAP1 SSTORE POP PUSH1 0x40 DUP3 ADD MLOAD DUP2 PUSH1 0x1 ADD SSTORE PUSH1 0x60 DUP3 ADD MLOAD DUP2 PUSH1 0x2 ADD SSTORE PUSH1 0x80 DUP3 ADD MLOAD DUP2 PUSH1 0x3 ADD SSTORE SWAP1 POP POP PUSH2 0xC4E DUP4 PUSH2 0xE2B JUMP JUMPDEST PUSH1 0x3 PUSH1 0x0 DUP2 SLOAD DUP1 SWAP3 SWAP2 SWAP1 PUSH2 0xC61 SWAP1 PUSH2 0x14FE JUMP JUMPDEST SWAP2 SWAP1 POP SSTORE POP POP POP POP POP JUMP JUMPDEST PUSH1 0xA PUSH1 0x0 SWAP1 SLOAD SWAP1 PUSH2 0x100 EXP SWAP1 DIV PUSH1 0xFF AND DUP2 JUMP JUMPDEST PUSH2 0xC87 PUSH2 0xED4 JUMP JUMPDEST PUSH1 0x7 PUSH1 0x0 DUP5 DUP2 MSTORE PUSH1 0x20 ADD SWAP1 DUP2 MSTORE PUSH1 0x20 ADD PUSH1 0x0 KECCAK256 PUSH1 0x4 ADD PUSH1 0x0 DUP4 DUP2 MSTORE PUSH1 0x20 ADD SWAP1 DUP2 MSTORE PUSH1 0x20 ADD PUSH1 0x0 KECCAK256 PUSH1 0x40 MLOAD DUP1 PUSH1 0x60 ADD PUSH1 0x40 MSTORE SWAP1 DUP2 PUSH1 0x0 DUP3 ADD SLOAD DUP2 MSTORE PUSH1 0x20 ADD PUSH1 0x1 DUP3 ADD DUP1 SLOAD PUSH2 0xCD3 SWAP1 PUSH2 0x14CC JUMP JUMPDEST DUP1 PUSH1 0x1F ADD PUSH1 0x20 DUP1 SWAP2 DIV MUL PUSH1 0x20 ADD PUSH1 0x40 MLOAD SWAP1 DUP2 ADD PUSH1 0x40 MSTORE DUP1 SWAP3 SWAP2 SWAP1 DUP2 DUP2 MSTORE PUSH1 0x20 ADD DUP3 DUP1 SLOAD PUSH2 0xCFF SWAP1 PUSH2 0x14CC JUMP JUMPDEST DUP1 ISZERO PUSH2 0xD4C JUMPI DUP1 PUSH1 0x1F LT PUSH2 0xD21 JUMPI PUSH2 0x100 DUP1 DUP4 SLOAD DIV MUL DUP4 MSTORE SWAP2 PUSH1 0x20 ADD SWAP2 PUSH2 0xD4C JUMP JUMPDEST DUP3 ADD SWAP2 SWAP1 PUSH1 0x0 MSTORE PUSH1 0x20 PUSH1 0x0 KECCAK256 SWAP1 JUMPDEST DUP2 SLOAD DUP2 MSTORE SWAP1 PUSH1 0x1 ADD SWAP1 PUSH1 0x20 ADD DUP1 DUP4 GT PUSH2 0xD2F JUMPI DUP3 SWAP1 SUB PUSH1 0x1F AND DUP3 ADD SWAP2 JUMPDEST POP POP POP POP POP DUP2 MSTORE PUSH1 0x20 ADD PUSH1 0x2 DUP3 ADD SLOAD DUP2 MSTORE POP POP SWAP1 POP SWAP3 SWAP2 POP POP JUMP JUMPDEST PUSH1 0x2 SLOAD DUP2 JUMP JUMPDEST PUSH1 0x5 SLOAD DUP2 JUMP JUMPDEST PUSH1 0x7 PUSH1 0x20 MSTORE DUP1 PUSH1 0x0 MSTORE PUSH1 0x40 PUSH1 0x0 KECCAK256 PUSH1 0x0 SWAP2 POP SWAP1 POP DUP1 PUSH1 0x0 ADD SLOAD SWAP1 DUP1 PUSH1 0x1 ADD DUP1 SLOAD PUSH2 0xD9C SWAP1 PUSH2 0x14CC JUMP JUMPDEST DUP1 PUSH1 0x1F ADD PUSH1 0x20 DUP1 SWAP2 DIV MUL PUSH1 0x20 ADD PUSH1 0x40 MLOAD SWAP1 DUP2 ADD PUSH1 0x40 MSTORE DUP1 SWAP3 SWAP2 SWAP1 DUP2 DUP2 MSTORE PUSH1 0x20 ADD DUP3 DUP1 SLOAD PUSH2 0xDC8 SWAP1 PUSH2 0x14CC JUMP JUMPDEST DUP1 ISZERO PUSH2 0xE15 JUMPI DUP1 PUSH1 0x1F LT PUSH2 0xDEA JUMPI PUSH2 0x100 DUP1 DUP4 SLOAD DIV MUL DUP4 MSTORE SWAP2 PUSH1 0x20 ADD SWAP2 PUSH2 0xE15 JUMP JUMPDEST DUP3 ADD SWAP2 SWAP1 PUSH1 0x0 MSTORE PUSH1 0x20 PUSH1 0x0 KECCAK256 SWAP1 JUMPDEST DUP2 SLOAD DUP2 MSTORE SWAP1 PUSH1 0x1 ADD SWAP1 PUSH1 0x20 ADD DUP1 DUP4 GT PUSH2 0xDF8 JUMPI DUP3 SWAP1 SUB PUSH1 0x1F AND DUP3 ADD SWAP2 JUMPDEST POP POP POP POP POP SWAP1 DUP1 PUSH1 0x2 ADD SLOAD SWAP1 DUP1 PUSH1 0x3 ADD SLOAD SWAP1 POP DUP5 JUMP JUMPDEST PUSH1 0x0 PUSH1 0x1 SWAP1 POP JUMPDEST PUSH1 0x2 SLOAD DUP2 GT PUSH2 0xE9D JUMPI DUP2 PUSH1 0x7 PUSH1 0x0 DUP4 DUP2 MSTORE PUSH1 0x20 ADD SWAP1 DUP2 MSTORE PUSH1 0x20 ADD PUSH1 0x0 KECCAK256 PUSH1 0x0 ADD SLOAD EQ ISZERO PUSH2 0xE8A JUMPI PUSH1 0x7 PUSH1 0x0 DUP3 DUP2 MSTORE PUSH1 0x20 ADD SWAP1 DUP2 MSTORE PUSH1 0x20 ADD PUSH1 0x0 KECCAK256 PUSH1 0x2 ADD PUSH1 0x0 DUP2 SLOAD DUP1 SWAP3 SWAP2 SWAP1 PUSH2 0xE80 SWAP1 PUSH2 0x14FE JUMP JUMPDEST SWAP2 SWAP1 POP SSTORE POP PUSH2 0xE9D JUMP JUMPDEST DUP1 DUP1 PUSH2 0xE95 SWAP1 PUSH2 0x14FE JUMP JUMPDEST SWAP2 POP POP PUSH2 0xE32 JUMP JUMPDEST POP POP JUMP JUMPDEST PUSH1 0x40 MLOAD DUP1 PUSH1 0xA0 ADD PUSH1 0x40 MSTORE DUP1 PUSH1 0x0 ISZERO ISZERO DUP2 MSTORE PUSH1 0x20 ADD PUSH1 0x0 ISZERO ISZERO DUP2 MSTORE PUSH1 0x20 ADD PUSH1 0x0 DUP2 MSTORE PUSH1 0x20 ADD PUSH1 0x0 DUP2 MSTORE PUSH1 0x20 ADD PUSH1 0x0 DUP2 MSTORE POP SWAP1 JUMP JUMPDEST PUSH1 0x40 MLOAD DUP1 PUSH1 0x60 ADD PUSH1 0x40 MSTORE DUP1 PUSH1 0x0 DUP2 MSTORE PUSH1 0x20 ADD PUSH1 0x60 DUP2 MSTORE PUSH1 0x20 ADD PUSH1 0x0 DUP2 MSTORE POP SWAP1 JUMP JUMPDEST PUSH1 0x0 DUP2 CALLDATALOAD SWAP1 POP PUSH2 0xF04 DUP2 PUSH2 0x16A5 JUMP JUMPDEST SWAP3 SWAP2 POP POP JUMP JUMPDEST PUSH1 0x0 DUP2 CALLDATALOAD SWAP1 POP PUSH2 0xF19 DUP2 PUSH2 0x16BC JUMP JUMPDEST SWAP3 SWAP2 POP POP JUMP JUMPDEST PUSH1 0x0 PUSH1 0x20 DUP3 DUP5 SUB SLT ISZERO PUSH2 0xF35 JUMPI PUSH2 0xF34 PUSH2 0x1603 JUMP JUMPDEST JUMPDEST PUSH1 0x0 PUSH2 0xF43 DUP5 DUP3 DUP6 ADD PUSH2 0xEF5 JUMP JUMPDEST SWAP2 POP POP SWAP3 SWAP2 POP POP JUMP JUMPDEST PUSH1 0x0 DUP1 PUSH1 0x40 DUP4 DUP6 SUB SLT ISZERO PUSH2 0xF63 JUMPI PUSH2 0xF62 PUSH2 0x1603 JUMP JUMPDEST JUMPDEST PUSH1 0x0 PUSH2 0xF71 DUP6 DUP3 DUP7 ADD PUSH2 0xEF5 JUMP JUMPDEST SWAP3 POP POP PUSH1 0x20 PUSH2 0xF82 DUP6 DUP3 DUP7 ADD PUSH2 0xF0A JUMP JUMPDEST SWAP2 POP POP SWAP3 POP SWAP3 SWAP1 POP JUMP JUMPDEST PUSH1 0x0 PUSH1 0x20 DUP3 DUP5 SUB SLT ISZERO PUSH2 0xFA2 JUMPI PUSH2 0xFA1 PUSH2 0x1603 JUMP JUMPDEST JUMPDEST PUSH1 0x0 PUSH2 0xFB0 DUP5 DUP3 DUP6 ADD PUSH2 0xF0A JUMP JUMPDEST SWAP2 POP POP SWAP3 SWAP2 POP POP JUMP JUMPDEST PUSH1 0x0 DUP1 PUSH1 0x40 DUP4 DUP6 SUB SLT ISZERO PUSH2 0xFD0 JUMPI PUSH2 0xFCF PUSH2 0x1603 JUMP JUMPDEST JUMPDEST PUSH1 0x0 PUSH2 0xFDE DUP6 DUP3 DUP7 ADD PUSH2 0xF0A JUMP JUMPDEST SWAP3 POP POP PUSH1 0x20 PUSH2 0xFEF DUP6 DUP3 DUP7 ADD PUSH2 0xF0A JUMP JUMPDEST SWAP2 POP POP SWAP3 POP SWAP3 SWAP1 POP JUMP JUMPDEST PUSH1 0x0 PUSH2 0x1005 DUP4 DUP4 PUSH2 0x11A4 JUMP JUMPDEST PUSH1 0x20 DUP4 ADD SWAP1 POP SWAP3 SWAP2 POP POP JUMP JUMPDEST PUSH2 0x101A DUP2 PUSH2 0x142C JUMP JUMPDEST DUP3 MSTORE POP POP JUMP JUMPDEST PUSH1 0x0 PUSH2 0x102B DUP3 PUSH2 0x13D6 JUMP JUMPDEST PUSH2 0x1035 DUP2 DUP6 PUSH2 0x13F9 JUMP JUMPDEST SWAP4 POP PUSH2 0x1040 DUP4 PUSH2 0x13C6 JUMP JUMPDEST DUP1 PUSH1 0x0 JUMPDEST DUP4 DUP2 LT ISZERO PUSH2 0x1071 JUMPI DUP2 MLOAD PUSH2 0x1058 DUP9 DUP3 PUSH2 0xFF9 JUMP JUMPDEST SWAP8 POP PUSH2 0x1063 DUP4 PUSH2 0x13EC JUMP JUMPDEST SWAP3 POP POP PUSH1 0x1 DUP2 ADD SWAP1 POP PUSH2 0x1044 JUMP JUMPDEST POP DUP6 SWAP4 POP POP POP POP SWAP3 SWAP2 POP POP JUMP JUMPDEST PUSH2 0x1087 DUP2 PUSH2 0x143E JUMP JUMPDEST DUP3 MSTORE POP POP JUMP JUMPDEST PUSH2 0x1096 DUP2 PUSH2 0x1487 JUMP JUMPDEST DUP3 MSTORE POP POP JUMP JUMPDEST PUSH1 0x0 PUSH2 0x10A7 DUP3 PUSH2 0x13E1 JUMP JUMPDEST PUSH2 0x10B1 DUP2 DUP6 PUSH2 0x140A JUMP JUMPDEST SWAP4 POP PUSH2 0x10C1 DUP2 DUP6 PUSH1 0x20 DUP7 ADD PUSH2 0x1499 JUMP JUMPDEST PUSH2 0x10CA DUP2 PUSH2 0x1608 JUMP JUMPDEST DUP5 ADD SWAP2 POP POP SWAP3 SWAP2 POP POP JUMP JUMPDEST PUSH1 0x0 PUSH2 0x10E0 DUP3 PUSH2 0x13E1 JUMP JUMPDEST PUSH2 0x10EA DUP2 DUP6 PUSH2 0x141B JUMP JUMPDEST SWAP4 POP PUSH2 0x10FA DUP2 DUP6 PUSH1 0x20 DUP7 ADD PUSH2 0x1499 JUMP JUMPDEST PUSH2 0x1103 DUP2 PUSH2 0x1608 JUMP JUMPDEST DUP5 ADD SWAP2 POP POP SWAP3 SWAP2 POP POP JUMP JUMPDEST PUSH1 0x0 PUSH2 0x111B PUSH1 0x2A DUP4 PUSH2 0x141B JUMP JUMPDEST SWAP2 POP PUSH2 0x1126 DUP3 PUSH2 0x1619 JUMP JUMPDEST PUSH1 0x40 DUP3 ADD SWAP1 POP SWAP2 SWAP1 POP JUMP JUMPDEST PUSH1 0x0 PUSH2 0x113E PUSH1 0x1C DUP4 PUSH2 0x141B JUMP JUMPDEST SWAP2 POP PUSH2 0x1149 DUP3 PUSH2 0x1668 JUMP JUMPDEST PUSH1 0x20 DUP3 ADD SWAP1 POP SWAP2 SWAP1 POP JUMP JUMPDEST PUSH1 0x0 PUSH1 0x60 DUP4 ADD PUSH1 0x0 DUP4 ADD MLOAD PUSH2 0x116C PUSH1 0x0 DUP7 ADD DUP3 PUSH2 0x11A4 JUMP JUMPDEST POP PUSH1 0x20 DUP4 ADD MLOAD DUP5 DUP3 SUB PUSH1 0x20 DUP7 ADD MSTORE PUSH2 0x1184 DUP3 DUP3 PUSH2 0x109C JUMP JUMPDEST SWAP2 POP POP PUSH1 0x40 DUP4 ADD MLOAD PUSH2 0x1199 PUSH1 0x40 DUP7 ADD DUP3 PUSH2 0x11A4 JUMP JUMPDEST POP DUP1 SWAP2 POP POP SWAP3 SWAP2 POP POP JUMP JUMPDEST PUSH2 0x11AD DUP2 PUSH2 0x147D JUMP JUMPDEST DUP3 MSTORE POP POP JUMP JUMPDEST PUSH2 0x11BC DUP2 PUSH2 0x147D JUMP JUMPDEST DUP3 MSTORE POP POP JUMP JUMPDEST PUSH1 0x0 PUSH1 0x20 DUP3 ADD SWAP1 POP PUSH2 0x11D7 PUSH1 0x0 DUP4 ADD DUP5 PUSH2 0x1011 JUMP JUMPDEST SWAP3 SWAP2 POP POP JUMP JUMPDEST PUSH1 0x0 PUSH1 0x20 DUP3 ADD SWAP1 POP DUP2 DUP2 SUB PUSH1 0x0 DUP4 ADD MSTORE PUSH2 0x11F7 DUP2 DUP5 PUSH2 0x1020 JUMP JUMPDEST SWAP1 POP SWAP3 SWAP2 POP POP JUMP JUMPDEST PUSH1 0x0 PUSH1 0x20 DUP3 ADD SWAP1 POP PUSH2 0x1214 PUSH1 0x0 DUP4 ADD DUP5 PUSH2 0x107E JUMP JUMPDEST SWAP3 SWAP2 POP POP JUMP JUMPDEST PUSH1 0x0 PUSH1 0xA0 DUP3 ADD SWAP1 POP PUSH2 0x122F PUSH1 0x0 DUP4 ADD DUP9 PUSH2 0x107E JUMP JUMPDEST PUSH2 0x123C PUSH1 0x20 DUP4 ADD DUP8 PUSH2 0x107E JUMP JUMPDEST PUSH2 0x1249 PUSH1 0x40 DUP4 ADD DUP7 PUSH2 0x11B3 JUMP JUMPDEST PUSH2 0x1256 PUSH1 0x60 DUP4 ADD DUP6 PUSH2 0x11B3 JUMP JUMPDEST PUSH2 0x1263 PUSH1 0x80 DUP4 ADD DUP5 PUSH2 0x11B3 JUMP JUMPDEST SWAP7 SWAP6 POP POP POP POP POP POP JUMP JUMPDEST PUSH1 0x0 PUSH1 0x60 DUP3 ADD SWAP1 POP PUSH2 0x1282 PUSH1 0x0 DUP4 ADD DUP7 PUSH2 0x107E JUMP JUMPDEST PUSH2 0x128F PUSH1 0x20 DUP4 ADD DUP6 PUSH2 0x11B3 JUMP JUMPDEST PUSH2 0x129C PUSH1 0x40 DUP4 ADD DUP5 PUSH2 0x11B3 JUMP JUMPDEST SWAP5 SWAP4 POP POP POP POP JUMP JUMPDEST PUSH1 0x0 PUSH1 0x20 DUP3 ADD SWAP1 POP PUSH2 0x12B9 PUSH1 0x0 DUP4 ADD DUP5 PUSH2 0x108D JUMP JUMPDEST SWAP3 SWAP2 POP POP JUMP JUMPDEST PUSH1 0x0 PUSH1 0x20 DUP3 ADD SWAP1 POP DUP2 DUP2 SUB PUSH1 0x0 DUP4 ADD MSTORE PUSH2 0x12D8 DUP2 PUSH2 0x110E JUMP JUMPDEST SWAP1 POP SWAP2 SWAP1 POP JUMP JUMPDEST PUSH1 0x0 PUSH1 0x20 DUP3 ADD SWAP1 POP DUP2 DUP2 SUB PUSH1 0x0 DUP4 ADD MSTORE PUSH2 0x12F8 DUP2 PUSH2 0x1131 JUMP JUMPDEST SWAP1 POP SWAP2 SWAP1 POP JUMP JUMPDEST PUSH1 0x0 PUSH1 0x20 DUP3 ADD SWAP1 POP DUP2 DUP2 SUB PUSH1 0x0 DUP4 ADD MSTORE PUSH2 0x1319 DUP2 DUP5 PUSH2 0x1154 JUMP JUMPDEST SWAP1 POP SWAP3 SWAP2 POP POP JUMP JUMPDEST PUSH1 0x0 PUSH1 0x20 DUP3 ADD SWAP1 POP PUSH2 0x1336 PUSH1 0x0 DUP4 ADD DUP5 PUSH2 0x11B3 JUMP JUMPDEST SWAP3 SWAP2 POP POP JUMP JUMPDEST PUSH1 0x0 PUSH1 0x60 DUP3 ADD SWAP1 POP PUSH2 0x1351 PUSH1 0x0 DUP4 ADD DUP7 PUSH2 0x11B3 JUMP JUMPDEST DUP2 DUP2 SUB PUSH1 0x20 DUP4 ADD MSTORE PUSH2 0x1363 DUP2 DUP6 PUSH2 0x10D5 JUMP JUMPDEST SWAP1 POP PUSH2 0x1372 PUSH1 0x40 DUP4 ADD DUP5 PUSH2 0x11B3 JUMP JUMPDEST SWAP5 SWAP4 POP POP POP POP JUMP JUMPDEST PUSH1 0x0 PUSH1 0x80 DUP3 ADD SWAP1 POP PUSH2 0x138F PUSH1 0x0 DUP4 ADD DUP8 PUSH2 0x11B3 JUMP JUMPDEST DUP2 DUP2 SUB PUSH1 0x20 DUP4 ADD MSTORE PUSH2 0x13A1 DUP2 DUP7 PUSH2 0x10D5 JUMP JUMPDEST SWAP1 POP PUSH2 0x13B0 PUSH1 0x40 DUP4 ADD DUP6 PUSH2 0x11B3 JUMP JUMPDEST PUSH2 0x13BD PUSH1 0x60 DUP4 ADD DUP5 PUSH2 0x11B3 JUMP JUMPDEST SWAP6 SWAP5 POP POP POP POP POP JUMP JUMPDEST PUSH1 0x0 DUP2 SWAP1 POP PUSH1 0x20 DUP3 ADD SWAP1 POP SWAP2 SWAP1 POP JUMP JUMPDEST PUSH1 0x0 DUP2 MLOAD SWAP1 POP SWAP2 SWAP1 POP JUMP JUMPDEST PUSH1 0x0 DUP2 MLOAD SWAP1 POP SWAP2 SWAP1 POP JUMP JUMPDEST PUSH1 0x0 PUSH1 0x20 DUP3 ADD SWAP1 POP SWAP2 SWAP1 POP JUMP JUMPDEST PUSH1 0x0 DUP3 DUP3 MSTORE PUSH1 0x20 DUP3 ADD SWAP1 POP SWAP3 SWAP2 POP POP JUMP JUMPDEST PUSH1 0x0 DUP3 DUP3 MSTORE PUSH1 0x20 DUP3 ADD SWAP1 POP SWAP3 SWAP2 POP POP JUMP JUMPDEST PUSH1 0x0 DUP3 DUP3 MSTORE PUSH1 0x20 DUP3 ADD SWAP1 POP SWAP3 SWAP2 POP POP JUMP JUMPDEST PUSH1 0x0 PUSH2 0x1437 DUP3 PUSH2 0x145D JUMP JUMPDEST SWAP1 POP SWAP2 SWAP1 POP JUMP JUMPDEST PUSH1 0x0 DUP2 ISZERO ISZERO SWAP1 POP SWAP2 SWAP1 POP JUMP JUMPDEST PUSH1 0x0 DUP2 SWAP1 POP PUSH2 0x1458 DUP3 PUSH2 0x1691 JUMP JUMPDEST SWAP2 SWAP1 POP JUMP JUMPDEST PUSH1 0x0 PUSH20 0xFFFFFFFFFFFFFFFFFFFFFFFFFFFFFFFFFFFFFFFF DUP3 AND SWAP1 POP SWAP2 SWAP1 POP JUMP JUMPDEST PUSH1 0x0 DUP2 SWAP1 POP SWAP2 SWAP1 POP JUMP JUMPDEST PUSH1 0x0 PUSH2 0x1492 DUP3 PUSH2 0x144A JUMP JUMPDEST SWAP1 POP SWAP2 SWAP1 POP JUMP JUMPDEST PUSH1 0x0 JUMPDEST DUP4 DUP2 LT ISZERO PUSH2 0x14B7 JUMPI DUP1 DUP3 ADD MLOAD DUP2 DUP5 ADD MSTORE PUSH1 0x20 DUP2 ADD SWAP1 POP PUSH2 0x149C JUMP JUMPDEST DUP4 DUP2 GT ISZERO PUSH2 0x14C6 JUMPI PUSH1 0x0 DUP5 DUP5 ADD MSTORE JUMPDEST POP POP POP POP JUMP JUMPDEST PUSH1 0x0 PUSH1 0x2 DUP3 DIV SWAP1 POP PUSH1 0x1 DUP3 AND DUP1 PUSH2 0x14E4 JUMPI PUSH1 0x7F DUP3 AND SWAP2 POP JUMPDEST PUSH1 0x20 DUP3 LT DUP2 EQ ISZERO PUSH2 0x14F8 JUMPI PUSH2 0x14F7 PUSH2 0x15A5 JUMP JUMPDEST JUMPDEST POP SWAP2 SWAP1 POP JUMP JUMPDEST PUSH1 0x0 PUSH2 0x1509 DUP3 PUSH2 0x147D JUMP JUMPDEST SWAP2 POP PUSH32 0xFFFFFFFFFFFFFFFFFFFFFFFFFFFFFFFFFFFFFFFFFFFFFFFFFFFFFFFFFFFFFFFF DUP3 EQ ISZERO PUSH2 0x153C JUMPI PUSH2 0x153B PUSH2 0x1547 JUMP JUMPDEST JUMPDEST PUSH1 0x1 DUP3 ADD SWAP1 POP SWAP2 SWAP1 POP JUMP JUMPDEST PUSH32 0x4E487B7100000000000000000000000000000000000000000000000000000000 PUSH1 0x0 MSTORE PUSH1 0x11 PUSH1 0x4 MSTORE PUSH1 0x24 PUSH1 0x0 REVERT JUMPDEST PUSH32 0x4E487B7100000000000000000000000000000000000000000000000000000000 PUSH1 0x0 MSTORE PUSH1 0x21 PUSH1 0x4 MSTORE PUSH1 0x24 PUSH1 0x0 REVERT JUMPDEST PUSH32 0x4E487B7100000000000000000000000000000000000000000000000000000000 PUSH1 0x0 MSTORE PUSH1 0x22 PUSH1 0x4 MSTORE PUSH1 0x24 PUSH1 0x0 REVERT JUMPDEST PUSH32 0x4E487B7100000000000000000000000000000000000000000000000000000000 PUSH1 0x0 MSTORE PUSH1 0x32 PUSH1 0x4 MSTORE PUSH1 0x24 PUSH1 0x0 REVERT JUMPDEST PUSH1 0x0 DUP1 REVERT JUMPDEST PUSH1 0x0 PUSH1 0x1F NOT PUSH1 0x1F DUP4 ADD AND SWAP1 POP SWAP2 SWAP1 POP JUMP JUMPDEST PUSH32 0x506C656173652070726F7669646520612076616C696420706F6C6C696E672073 PUSH1 0x0 DUP3 ADD MSTORE PUSH32 0x746174696F6E2049442E00000000000000000000000000000000000000000000 PUSH1 0x20 DUP3 ADD MSTORE POP JUMP JUMPDEST PUSH32 0x566F74657220697320616C726561647920726567697374657265642E00000000 PUSH1 0x0 DUP3 ADD MSTORE POP JUMP JUMPDEST PUSH1 0x3 DUP2 LT PUSH2 0x16A2 JUMPI PUSH2 0x16A1 PUSH2 0x1576 JUMP JUMPDEST JUMPDEST POP JUMP JUMPDEST PUSH2 0x16AE DUP2 PUSH2 0x142C JUMP JUMPDEST DUP2 EQ PUSH2 0x16B9 JUMPI PUSH1 0x0 DUP1 REVERT JUMPDEST POP JUMP JUMPDEST PUSH2 0x16C5 DUP2 PUSH2 0x147D JUMP JUMPDEST DUP2 EQ PUSH2 0x16D0 JUMPI PUSH1 0x0 DUP1 REVERT JUMPDEST POP JUMP INVALID LOG2 PUSH5 0x6970667358 0x22 SLT KECCAK256 STATICCALL PUSH9 0xE89892DF8BB1E47336 GASLIMIT 0xE0 ISZERO 0xBE 0xE6 SSTORE SGT 0x4C PUSH1 0x9 PUSH14 0x55C0C19149DA0DA8B21B64736F6C PUSH4 0x43000807 STOP CALLER "
				},
				"gasEstimates": {
					"creation": {
						"codeDepositCost": "1179400",
						"executionCost": "infinite",
						"totalCost": "infinite"
					},
					"external": {
						"addVoter(address,uint256)": "infinite",
						"candidates(uint256)": "infinite",
						"candidatesCount()": "2519",
						"castVote(uint256,uint256)": "infinite",
						"electionOwner()": "2600",
						"endVote()": "53073",
						"finalResult()": "2495",
						"getResultsPerStation(uint256)": "infinite",
						"getResultsPerStation1(uint256,uint256)": "infinite",
						"pollingStationCount()": "2473",
						"pollingStations(uint256)": "infinite",
						"startVote()": "28881",
						"state()": "2649",
						"totalRegisteredVoters()": "2453",
						"voterRegistry(address)": "infinite",
						"voters(address)": "2868"
					},
					"internal": {
						"addCandidate(string memory)": "infinite",
						"addPollingStation(string memory)": "infinite",
						"initCandidates()": "infinite",
						"initPollingStations()": "infinite",
						"registerAtPollingStation(uint256)": "28818"
					}
				},
				"methodIdentifiers": {
					"addVoter(address,uint256)": "b9f05f2f",
					"candidates(uint256)": "3477ee2e",
					"candidatesCount()": "2d35a8a2",
					"castVote(uint256,uint256)": "2c0a3f89",
					"electionOwner()": "53357ad0",
					"endVote()": "b9223946",
					"finalResult()": "f3a8286f",
					"getResultsPerStation(uint256)": "23a1b11c",
					"getResultsPerStation1(uint256,uint256)": "d3808ae0",
					"pollingStationCount()": "df9f1a07",
					"pollingStations(uint256)": "fe2442d7",
					"startVote()": "4c0a6af0",
					"state()": "c19d93fb",
					"totalRegisteredVoters()": "00aa7464",
					"voterRegistry(address)": "4763d4e7",
					"voters(address)": "a3ec138d"
				}
			},
			"storageLayout": {
				"storage": [
					{
						"astId": 35,
						"contract": "contracts/ergasia.sol:Election",
						"label": "electionOwner",
						"offset": 0,
						"slot": "0",
						"type": "t_address"
					},
					{
						"astId": 37,
						"contract": "contracts/ergasia.sol:Election",
						"label": "candidatesCount",
						"offset": 0,
						"slot": "1",
						"type": "t_uint256"
					},
					{
						"astId": 39,
						"contract": "contracts/ergasia.sol:Election",
						"label": "pollingStationCount",
						"offset": 0,
						"slot": "2",
						"type": "t_uint256"
					},
					{
						"astId": 41,
						"contract": "contracts/ergasia.sol:Election",
						"label": "totalRegisteredVoters",
						"offset": 0,
						"slot": "3",
						"type": "t_uint256"
					},
					{
						"astId": 43,
						"contract": "contracts/ergasia.sol:Election",
						"label": "countResult",
						"offset": 0,
						"slot": "4",
						"type": "t_uint256"
					},
					{
						"astId": 45,
						"contract": "contracts/ergasia.sol:Election",
						"label": "finalResult",
						"offset": 0,
						"slot": "5",
						"type": "t_uint256"
					},
					{
						"astId": 50,
						"contract": "contracts/ergasia.sol:Election",
						"label": "candidates",
						"offset": 0,
						"slot": "6",
						"type": "t_mapping(t_uint256,t_struct(Candidate)8_storage)"
					},
					{
						"astId": 55,
						"contract": "contracts/ergasia.sol:Election",
						"label": "pollingStations",
						"offset": 0,
						"slot": "7",
						"type": "t_mapping(t_uint256,t_struct(PollingStation)22_storage)"
					},
					{
						"astId": 60,
						"contract": "contracts/ergasia.sol:Election",
						"label": "voterRegistry",
						"offset": 0,
						"slot": "8",
						"type": "t_mapping(t_address,t_struct(Voter)33_storage)"
					},
					{
						"astId": 64,
						"contract": "contracts/ergasia.sol:Election",
						"label": "voters",
						"offset": 0,
						"slot": "9",
						"type": "t_mapping(t_address,t_bool)"
					},
					{
						"astId": 71,
						"contract": "contracts/ergasia.sol:Election",
						"label": "state",
						"offset": 0,
						"slot": "10",
						"type": "t_enum(State)68"
					}
				],
				"types": {
					"t_address": {
						"encoding": "inplace",
						"label": "address",
						"numberOfBytes": "20"
					},
					"t_bool": {
						"encoding": "inplace",
						"label": "bool",
						"numberOfBytes": "1"
					},
					"t_enum(State)68": {
						"encoding": "inplace",
						"label": "enum Election.State",
						"numberOfBytes": "1"
					},
					"t_mapping(t_address,t_bool)": {
						"encoding": "mapping",
						"key": "t_address",
						"label": "mapping(address => bool)",
						"numberOfBytes": "32",
						"value": "t_bool"
					},
					"t_mapping(t_address,t_struct(Voter)33_storage)": {
						"encoding": "mapping",
						"key": "t_address",
						"label": "mapping(address => struct Election.Voter)",
						"numberOfBytes": "32",
						"value": "t_struct(Voter)33_storage"
					},
					"t_mapping(t_uint256,t_struct(Candidate)8_storage)": {
						"encoding": "mapping",
						"key": "t_uint256",
						"label": "mapping(uint256 => struct Election.Candidate)",
						"numberOfBytes": "32",
						"value": "t_struct(Candidate)8_storage"
					},
					"t_mapping(t_uint256,t_struct(PollingStation)22_storage)": {
						"encoding": "mapping",
						"key": "t_uint256",
						"label": "mapping(uint256 => struct Election.PollingStation)",
						"numberOfBytes": "32",
						"value": "t_struct(PollingStation)22_storage"
					},
					"t_string_storage": {
						"encoding": "bytes",
						"label": "string",
						"numberOfBytes": "32"
					},
					"t_struct(Candidate)8_storage": {
						"encoding": "inplace",
						"label": "struct Election.Candidate",
						"members": [
							{
								"astId": 3,
								"contract": "contracts/ergasia.sol:Election",
								"label": "id",
								"offset": 0,
								"slot": "0",
								"type": "t_uint256"
							},
							{
								"astId": 5,
								"contract": "contracts/ergasia.sol:Election",
								"label": "name",
								"offset": 0,
								"slot": "1",
								"type": "t_string_storage"
							},
							{
								"astId": 7,
								"contract": "contracts/ergasia.sol:Election",
								"label": "votes",
								"offset": 0,
								"slot": "2",
								"type": "t_uint256"
							}
						],
						"numberOfBytes": "96"
					},
					"t_struct(PollingStation)22_storage": {
						"encoding": "inplace",
						"label": "struct Election.PollingStation",
						"members": [
							{
								"astId": 10,
								"contract": "contracts/ergasia.sol:Election",
								"label": "id",
								"offset": 0,
								"slot": "0",
								"type": "t_uint256"
							},
							{
								"astId": 12,
								"contract": "contracts/ergasia.sol:Election",
								"label": "name",
								"offset": 0,
								"slot": "1",
								"type": "t_string_storage"
							},
							{
								"astId": 14,
								"contract": "contracts/ergasia.sol:Election",
								"label": "votersRegistered",
								"offset": 0,
								"slot": "2",
								"type": "t_uint256"
							},
							{
								"astId": 16,
								"contract": "contracts/ergasia.sol:Election",
								"label": "votesCasted",
								"offset": 0,
								"slot": "3",
								"type": "t_uint256"
							},
							{
								"astId": 21,
								"contract": "contracts/ergasia.sol:Election",
								"label": "scoresPerCandidate",
								"offset": 0,
								"slot": "4",
								"type": "t_mapping(t_uint256,t_struct(Candidate)8_storage)"
							}
						],
						"numberOfBytes": "160"
					},
					"t_struct(Voter)33_storage": {
						"encoding": "inplace",
						"label": "struct Election.Voter",
						"members": [
							{
								"astId": 24,
								"contract": "contracts/ergasia.sol:Election",
								"label": "isEnrolled",
								"offset": 0,
								"slot": "0",
								"type": "t_bool"
							},
							{
								"astId": 26,
								"contract": "contracts/ergasia.sol:Election",
								"label": "hasVoted",
								"offset": 1,
								"slot": "0",
								"type": "t_bool"
							},
							{
								"astId": 28,
								"contract": "contracts/ergasia.sol:Election",
								"label": "choice",
								"offset": 0,
								"slot": "1",
								"type": "t_uint256"
							},
							{
								"astId": 30,
								"contract": "contracts/ergasia.sol:Election",
								"label": "enrolledPollingStationID",
								"offset": 0,
								"slot": "2",
								"type": "t_uint256"
							},
							{
								"astId": 32,
								"contract": "contracts/ergasia.sol:Election",
								"label": "votedPollingStationID",
								"offset": 0,
								"slot": "3",
								"type": "t_uint256"
							}
						],
						"numberOfBytes": "128"
					},
					"t_uint256": {
						"encoding": "inplace",
						"label": "uint256",
						"numberOfBytes": "32"
					}
				}
			},
			"userdoc": {
				"kind": "user",
				"methods": {},
				"version": 1
			}
		}
	}
}