{
	"contracts/ergasia.sol": {
		"Election": {
			"abi": [
				{
					"inputs": [],
					"stateMutability": "nonpayable",
					"type": "constructor"
				},
				{
					"inputs": [
						{
							"internalType": "address",
							"name": "_voterAddress",
							"type": "address"
						},
						{
							"internalType": "uint256",
							"name": "_pollingStationID",
							"type": "uint256"
						}
					],
					"name": "addVoter",
					"outputs": [],
					"stateMutability": "nonpayable",
					"type": "function"
				},
				{
					"inputs": [
						{
							"internalType": "uint256",
							"name": "",
							"type": "uint256"
						}
					],
					"name": "candidates",
					"outputs": [
						{
							"internalType": "uint256",
							"name": "id",
							"type": "uint256"
						},
						{
							"internalType": "string",
							"name": "name",
							"type": "string"
						},
						{
							"internalType": "uint256",
							"name": "voteCount",
							"type": "uint256"
						}
					],
					"stateMutability": "view",
					"type": "function"
				},
				{
					"inputs": [],
					"name": "candidatesCount",
					"outputs": [
						{
							"internalType": "uint256",
							"name": "",
							"type": "uint256"
						}
					],
					"stateMutability": "view",
					"type": "function"
				},
				{
					"inputs": [],
					"name": "electionOwner",
					"outputs": [
						{
							"internalType": "address",
							"name": "",
							"type": "address"
						}
					],
					"stateMutability": "view",
					"type": "function"
				},
				{
					"inputs": [],
					"name": "pollingStationCount",
					"outputs": [
						{
							"internalType": "uint256",
							"name": "",
							"type": "uint256"
						}
					],
					"stateMutability": "view",
					"type": "function"
				},
				{
					"inputs": [
						{
							"internalType": "uint256",
							"name": "",
							"type": "uint256"
						}
					],
					"name": "pollingStations",
					"outputs": [
						{
							"internalType": "uint256",
							"name": "id",
							"type": "uint256"
						},
						{
							"internalType": "string",
							"name": "name",
							"type": "string"
						},
						{
							"internalType": "uint256",
							"name": "votersRegistered",
							"type": "uint256"
						},
						{
							"internalType": "uint256",
							"name": "votesCasted",
							"type": "uint256"
						}
					],
					"stateMutability": "view",
					"type": "function"
				},
				{
					"inputs": [],
					"name": "startVote",
					"outputs": [],
					"stateMutability": "nonpayable",
					"type": "function"
				},
				{
					"inputs": [],
					"name": "state",
					"outputs": [
						{
							"internalType": "enum Election.State",
							"name": "",
							"type": "uint8"
						}
					],
					"stateMutability": "view",
					"type": "function"
				},
				{
					"inputs": [],
					"name": "totalRegisteredVoters",
					"outputs": [
						{
							"internalType": "uint256",
							"name": "",
							"type": "uint256"
						}
					],
					"stateMutability": "view",
					"type": "function"
				},
				{
					"inputs": [
						{
							"internalType": "address",
							"name": "",
							"type": "address"
						}
					],
					"name": "voterRegistry",
					"outputs": [
						{
							"internalType": "bool",
							"name": "isEnrolled",
							"type": "bool"
						},
						{
							"internalType": "bool",
							"name": "hasVoted",
							"type": "bool"
						},
						{
							"internalType": "int256",
							"name": "indexProposal",
							"type": "int256"
						},
						{
							"internalType": "uint256",
							"name": "enrolledPollingStationID",
							"type": "uint256"
						},
						{
							"internalType": "uint256",
							"name": "votedPollingStationID",
							"type": "uint256"
						}
					],
					"stateMutability": "view",
					"type": "function"
				},
				{
					"inputs": [
						{
							"internalType": "address",
							"name": "",
							"type": "address"
						}
					],
					"name": "voters",
					"outputs": [
						{
							"internalType": "bool",
							"name": "",
							"type": "bool"
						}
					],
					"stateMutability": "view",
					"type": "function"
				}
			],
			"devdoc": {
				"kind": "dev",
				"methods": {
					"addVoter(address,uint256)": {
						"details": "Adds a voter to the voter registry. May only be called by 'owner'.",
						"params": {
							"_pollingStationID": "polling station ID in which voter is registered.",
							"_voterAddress": "address of voter"
						}
					}
				},
				"version": 1
			},
			"evm": {
				"assembly": "    /* \"contracts/ergasia.sol\":70:7210  contract Election {... */\n  mstore(0x40, 0x80)\n    /* \"contracts/ergasia.sol\":2124:2391  constructor() {... */\n  callvalue\n  dup1\n  iszero\n  tag_1\n  jumpi\n  0x00\n  dup1\n  revert\ntag_1:\n  pop\n    /* \"contracts/ergasia.sol\":2164:2174  msg.sender */\n  caller\n    /* \"contracts/ergasia.sol\":2148:2161  electionOwner */\n  0x00\n  dup1\n    /* \"contracts/ergasia.sol\":2148:2174  electionOwner = msg.sender */\n  0x0100\n  exp\n  dup2\n  sload\n  dup2\n  0xffffffffffffffffffffffffffffffffffffffff\n  mul\n  not\n  and\n  swap1\n  dup4\n  0xffffffffffffffffffffffffffffffffffffffff\n  and\n  mul\n  or\n  swap1\n  sstore\n  pop\n    /* \"contracts/ergasia.sol\":2223:2239  initCandidates() */\n  tag_4\n    /* \"contracts/ergasia.sol\":2223:2237  initCandidates */\n  shl(0x20, tag_5)\n    /* \"contracts/ergasia.sol\":2223:2239  initCandidates() */\n  0x20\n  shr\n  jump\t// in\ntag_4:\n    /* \"contracts/ergasia.sol\":2294:2315  initPollingStations() */\n  tag_6\n    /* \"contracts/ergasia.sol\":2294:2313  initPollingStations */\n  shl(0x20, tag_7)\n    /* \"contracts/ergasia.sol\":2294:2315  initPollingStations() */\n  0x20\n  shr\n  jump\t// in\ntag_6:\n    /* \"contracts/ergasia.sol\":2369:2382  State.Created */\n  0x00\n    /* \"contracts/ergasia.sol\":2361:2366  state */\n  0x08\n  0x00\n    /* \"contracts/ergasia.sol\":2361:2382  state = State.Created */\n  0x0100\n  exp\n  dup2\n  sload\n  dup2\n  0xff\n  mul\n  not\n  and\n  swap1\n  dup4\n  0x02\n  dup2\n  gt\n  iszero\n  tag_8\n  jumpi\n  tag_9\n  tag_10\n  jump\t// in\ntag_9:\ntag_8:\n  mul\n  or\n  swap1\n  sstore\n  pop\n    /* \"contracts/ergasia.sol\":70:7210  contract Election {... */\n  jump(tag_11)\n    /* \"contracts/ergasia.sol\":2450:2677  function initCandidates() internal {... */\ntag_5:\n    /* \"contracts/ergasia.sol\":2495:2522  addCandidate(\"Candidate 1\") */\n  tag_13\n  mload(0x40)\n  dup1\n  0x40\n  add\n  0x40\n  mstore\n  dup1\n  0x0b\n  dup2\n  mstore\n  0x20\n  add\n  0x43616e6469646174652031000000000000000000000000000000000000000000\n  dup2\n  mstore\n  pop\n    /* \"contracts/ergasia.sol\":2495:2507  addCandidate */\n  shl(0x20, tag_14)\n    /* \"contracts/ergasia.sol\":2495:2522  addCandidate(\"Candidate 1\") */\n  0x20\n  shr\n  jump\t// in\ntag_13:\n    /* \"contracts/ergasia.sol\":2532:2559  addCandidate(\"Candidate 2\") */\n  tag_15\n  mload(0x40)\n  dup1\n  0x40\n  add\n  0x40\n  mstore\n  dup1\n  0x0b\n  dup2\n  mstore\n  0x20\n  add\n  0x43616e6469646174652032000000000000000000000000000000000000000000\n  dup2\n  mstore\n  pop\n    /* \"contracts/ergasia.sol\":2532:2544  addCandidate */\n  shl(0x20, tag_14)\n    /* \"contracts/ergasia.sol\":2532:2559  addCandidate(\"Candidate 2\") */\n  0x20\n  shr\n  jump\t// in\ntag_15:\n    /* \"contracts/ergasia.sol\":2569:2596  addCandidate(\"Candidate 3\") */\n  tag_16\n  mload(0x40)\n  dup1\n  0x40\n  add\n  0x40\n  mstore\n  dup1\n  0x0b\n  dup2\n  mstore\n  0x20\n  add\n  0x43616e6469646174652033000000000000000000000000000000000000000000\n  dup2\n  mstore\n  pop\n    /* \"contracts/ergasia.sol\":2569:2581  addCandidate */\n  shl(0x20, tag_14)\n    /* \"contracts/ergasia.sol\":2569:2596  addCandidate(\"Candidate 3\") */\n  0x20\n  shr\n  jump\t// in\ntag_16:\n    /* \"contracts/ergasia.sol\":2606:2633  addCandidate(\"Candidate 4\") */\n  tag_17\n  mload(0x40)\n  dup1\n  0x40\n  add\n  0x40\n  mstore\n  dup1\n  0x0b\n  dup2\n  mstore\n  0x20\n  add\n  0x43616e6469646174652034000000000000000000000000000000000000000000\n  dup2\n  mstore\n  pop\n    /* \"contracts/ergasia.sol\":2606:2618  addCandidate */\n  shl(0x20, tag_14)\n    /* \"contracts/ergasia.sol\":2606:2633  addCandidate(\"Candidate 4\") */\n  0x20\n  shr\n  jump\t// in\ntag_17:\n    /* \"contracts/ergasia.sol\":2643:2670  addCandidate(\"Candidate 5\") */\n  tag_18\n  mload(0x40)\n  dup1\n  0x40\n  add\n  0x40\n  mstore\n  dup1\n  0x0b\n  dup2\n  mstore\n  0x20\n  add\n  0x43616e6469646174652035000000000000000000000000000000000000000000\n  dup2\n  mstore\n  pop\n    /* \"contracts/ergasia.sol\":2643:2655  addCandidate */\n  shl(0x20, tag_14)\n    /* \"contracts/ergasia.sol\":2643:2670  addCandidate(\"Candidate 5\") */\n  0x20\n  shr\n  jump\t// in\ntag_18:\n    /* \"contracts/ergasia.sol\":2450:2677  function initCandidates() internal {... */\n  jump\t// out\n    /* \"contracts/ergasia.sol\":3020:3548  function initPollingStations() internal {... */\ntag_7:\n    /* \"contracts/ergasia.sol\":3070:3108  addPollingStation(\"Polling Station 1\") */\n  tag_20\n  mload(0x40)\n  dup1\n  0x40\n  add\n  0x40\n  mstore\n  dup1\n  0x11\n  dup2\n  mstore\n  0x20\n  add\n  0x506f6c6c696e672053746174696f6e2031000000000000000000000000000000\n  dup2\n  mstore\n  pop\n    /* \"contracts/ergasia.sol\":3070:3087  addPollingStation */\n  shl(0x20, tag_21)\n    /* \"contracts/ergasia.sol\":3070:3108  addPollingStation(\"Polling Station 1\") */\n  0x20\n  shr\n  jump\t// in\ntag_20:\n    /* \"contracts/ergasia.sol\":3118:3156  addPollingStation(\"Polling Station 2\") */\n  tag_22\n  mload(0x40)\n  dup1\n  0x40\n  add\n  0x40\n  mstore\n  dup1\n  0x11\n  dup2\n  mstore\n  0x20\n  add\n  0x506f6c6c696e672053746174696f6e2032000000000000000000000000000000\n  dup2\n  mstore\n  pop\n    /* \"contracts/ergasia.sol\":3118:3135  addPollingStation */\n  shl(0x20, tag_21)\n    /* \"contracts/ergasia.sol\":3118:3156  addPollingStation(\"Polling Station 2\") */\n  0x20\n  shr\n  jump\t// in\ntag_22:\n    /* \"contracts/ergasia.sol\":3166:3204  addPollingStation(\"Polling Station 3\") */\n  tag_23\n  mload(0x40)\n  dup1\n  0x40\n  add\n  0x40\n  mstore\n  dup1\n  0x11\n  dup2\n  mstore\n  0x20\n  add\n  0x506f6c6c696e672053746174696f6e2033000000000000000000000000000000\n  dup2\n  mstore\n  pop\n    /* \"contracts/ergasia.sol\":3166:3183  addPollingStation */\n  shl(0x20, tag_21)\n    /* \"contracts/ergasia.sol\":3166:3204  addPollingStation(\"Polling Station 3\") */\n  0x20\n  shr\n  jump\t// in\ntag_23:\n    /* \"contracts/ergasia.sol\":3214:3252  addPollingStation(\"Polling Station 4\") */\n  tag_24\n  mload(0x40)\n  dup1\n  0x40\n  add\n  0x40\n  mstore\n  dup1\n  0x11\n  dup2\n  mstore\n  0x20\n  add\n  0x506f6c6c696e672053746174696f6e2034000000000000000000000000000000\n  dup2\n  mstore\n  pop\n    /* \"contracts/ergasia.sol\":3214:3231  addPollingStation */\n  shl(0x20, tag_21)\n    /* \"contracts/ergasia.sol\":3214:3252  addPollingStation(\"Polling Station 4\") */\n  0x20\n  shr\n  jump\t// in\ntag_24:\n    /* \"contracts/ergasia.sol\":3262:3300  addPollingStation(\"Polling Station 5\") */\n  tag_25\n  mload(0x40)\n  dup1\n  0x40\n  add\n  0x40\n  mstore\n  dup1\n  0x11\n  dup2\n  mstore\n  0x20\n  add\n  0x506f6c6c696e672053746174696f6e2035000000000000000000000000000000\n  dup2\n  mstore\n  pop\n    /* \"contracts/ergasia.sol\":3262:3279  addPollingStation */\n  shl(0x20, tag_21)\n    /* \"contracts/ergasia.sol\":3262:3300  addPollingStation(\"Polling Station 5\") */\n  0x20\n  shr\n  jump\t// in\ntag_25:\n    /* \"contracts/ergasia.sol\":3310:3348  addPollingStation(\"Polling Station 6\") */\n  tag_26\n  mload(0x40)\n  dup1\n  0x40\n  add\n  0x40\n  mstore\n  dup1\n  0x11\n  dup2\n  mstore\n  0x20\n  add\n  0x506f6c6c696e672053746174696f6e2036000000000000000000000000000000\n  dup2\n  mstore\n  pop\n    /* \"contracts/ergasia.sol\":3310:3327  addPollingStation */\n  shl(0x20, tag_21)\n    /* \"contracts/ergasia.sol\":3310:3348  addPollingStation(\"Polling Station 6\") */\n  0x20\n  shr\n  jump\t// in\ntag_26:\n    /* \"contracts/ergasia.sol\":3358:3396  addPollingStation(\"Polling Station 7\") */\n  tag_27\n  mload(0x40)\n  dup1\n  0x40\n  add\n  0x40\n  mstore\n  dup1\n  0x11\n  dup2\n  mstore\n  0x20\n  add\n  0x506f6c6c696e672053746174696f6e2037000000000000000000000000000000\n  dup2\n  mstore\n  pop\n    /* \"contracts/ergasia.sol\":3358:3375  addPollingStation */\n  shl(0x20, tag_21)\n    /* \"contracts/ergasia.sol\":3358:3396  addPollingStation(\"Polling Station 7\") */\n  0x20\n  shr\n  jump\t// in\ntag_27:\n    /* \"contracts/ergasia.sol\":3406:3444  addPollingStation(\"Polling Station 8\") */\n  tag_28\n  mload(0x40)\n  dup1\n  0x40\n  add\n  0x40\n  mstore\n  dup1\n  0x11\n  dup2\n  mstore\n  0x20\n  add\n  0x506f6c6c696e672053746174696f6e2038000000000000000000000000000000\n  dup2\n  mstore\n  pop\n    /* \"contracts/ergasia.sol\":3406:3423  addPollingStation */\n  shl(0x20, tag_21)\n    /* \"contracts/ergasia.sol\":3406:3444  addPollingStation(\"Polling Station 8\") */\n  0x20\n  shr\n  jump\t// in\ntag_28:\n    /* \"contracts/ergasia.sol\":3454:3492  addPollingStation(\"Polling Station 9\") */\n  tag_29\n  mload(0x40)\n  dup1\n  0x40\n  add\n  0x40\n  mstore\n  dup1\n  0x11\n  dup2\n  mstore\n  0x20\n  add\n  0x506f6c6c696e672053746174696f6e2039000000000000000000000000000000\n  dup2\n  mstore\n  pop\n    /* \"contracts/ergasia.sol\":3454:3471  addPollingStation */\n  shl(0x20, tag_21)\n    /* \"contracts/ergasia.sol\":3454:3492  addPollingStation(\"Polling Station 9\") */\n  0x20\n  shr\n  jump\t// in\ntag_29:\n    /* \"contracts/ergasia.sol\":3502:3541  addPollingStation(\"Polling Station 10\") */\n  tag_30\n  mload(0x40)\n  dup1\n  0x40\n  add\n  0x40\n  mstore\n  dup1\n  0x12\n  dup2\n  mstore\n  0x20\n  add\n  0x506f6c6c696e672053746174696f6e2031300000000000000000000000000000\n  dup2\n  mstore\n  pop\n    /* \"contracts/ergasia.sol\":3502:3519  addPollingStation */\n  shl(0x20, tag_21)\n    /* \"contracts/ergasia.sol\":3502:3541  addPollingStation(\"Polling Station 10\") */\n  0x20\n  shr\n  jump\t// in\ntag_30:\n    /* \"contracts/ergasia.sol\":3020:3548  function initPollingStations() internal {... */\n  jump\t// out\n    /* \"contracts/ergasia.sol\":2797:2959  function addCandidate (string memory _name) private {... */\ntag_14:\n    /* \"contracts/ergasia.sol\":2859:2874  candidatesCount */\n  0x01\n  0x00\n    /* \"contracts/ergasia.sol\":2859:2876  candidatesCount++ */\n  dup2\n  sload\n  dup1\n  swap3\n  swap2\n  swap1\n  tag_32\n  swap1\n  tag_33\n  jump\t// in\ntag_32:\n  swap2\n  swap1\n  pop\n  sstore\n  pop\n    /* \"contracts/ergasia.sol\":2916:2952  Candidate(candidatesCount, _name, 0) */\n  mload(0x40)\n  dup1\n  0x60\n  add\n  0x40\n  mstore\n  dup1\n    /* \"contracts/ergasia.sol\":2926:2941  candidatesCount */\n  sload(0x01)\n    /* \"contracts/ergasia.sol\":2916:2952  Candidate(candidatesCount, _name, 0) */\n  dup2\n  mstore\n  0x20\n  add\n    /* \"contracts/ergasia.sol\":2943:2948  _name */\n  dup3\n    /* \"contracts/ergasia.sol\":2916:2952  Candidate(candidatesCount, _name, 0) */\n  dup2\n  mstore\n  0x20\n  add\n    /* \"contracts/ergasia.sol\":2950:2951  0 */\n  0x00\n    /* \"contracts/ergasia.sol\":2916:2952  Candidate(candidatesCount, _name, 0) */\n  dup2\n  mstore\n  pop\n    /* \"contracts/ergasia.sol\":2886:2896  candidates */\n  0x04\n    /* \"contracts/ergasia.sol\":2886:2913  candidates[candidatesCount] */\n  0x00\n    /* \"contracts/ergasia.sol\":2897:2912  candidatesCount */\n  sload(0x01)\n    /* \"contracts/ergasia.sol\":2886:2913  candidates[candidatesCount] */\n  dup2\n  mstore\n  0x20\n  add\n  swap1\n  dup2\n  mstore\n  0x20\n  add\n  0x00\n  keccak256\n    /* \"contracts/ergasia.sol\":2886:2952  candidates[candidatesCount] = Candidate(candidatesCount, _name, 0) */\n  0x00\n  dup3\n  add\n  mload\n  dup2\n  0x00\n  add\n  sstore\n  0x20\n  dup3\n  add\n  mload\n  dup2\n  0x01\n  add\n  swap1\n  dup1\n  mload\n  swap1\n  0x20\n  add\n  swap1\n  tag_34\n  swap3\n  swap2\n  swap1\n  tag_35\n  jump\t// in\ntag_34:\n  pop\n  0x40\n  dup3\n  add\n  mload\n  dup2\n  0x02\n  add\n  sstore\n  swap1\n  pop\n  pop\n    /* \"contracts/ergasia.sol\":2797:2959  function addCandidate (string memory _name) private {... */\n  pop\n  jump\t// out\n    /* \"contracts/ergasia.sol\":3671:3863  function addPollingStation (string memory _name) private {... */\ntag_21:\n    /* \"contracts/ergasia.sol\":3738:3757  pollingStationCount */\n  0x02\n  0x00\n    /* \"contracts/ergasia.sol\":3738:3759  pollingStationCount++ */\n  dup2\n  sload\n  dup1\n  swap3\n  swap2\n  swap1\n  tag_37\n  swap1\n  tag_33\n  jump\t// in\ntag_37:\n  swap2\n  swap1\n  pop\n  sstore\n  pop\n    /* \"contracts/ergasia.sol\":3808:3856  PollingStation(pollingStationCount, _name, 0, 0) */\n  mload(0x40)\n  dup1\n  0x80\n  add\n  0x40\n  mstore\n  dup1\n    /* \"contracts/ergasia.sol\":3823:3842  pollingStationCount */\n  sload(0x02)\n    /* \"contracts/ergasia.sol\":3808:3856  PollingStation(pollingStationCount, _name, 0, 0) */\n  dup2\n  mstore\n  0x20\n  add\n    /* \"contracts/ergasia.sol\":3844:3849  _name */\n  dup3\n    /* \"contracts/ergasia.sol\":3808:3856  PollingStation(pollingStationCount, _name, 0, 0) */\n  dup2\n  mstore\n  0x20\n  add\n    /* \"contracts/ergasia.sol\":3851:3852  0 */\n  0x00\n    /* \"contracts/ergasia.sol\":3808:3856  PollingStation(pollingStationCount, _name, 0, 0) */\n  dup2\n  mstore\n  0x20\n  add\n    /* \"contracts/ergasia.sol\":3854:3855  0 */\n  0x00\n    /* \"contracts/ergasia.sol\":3808:3856  PollingStation(pollingStationCount, _name, 0, 0) */\n  dup2\n  mstore\n  pop\n    /* \"contracts/ergasia.sol\":3769:3784  pollingStations */\n  0x05\n    /* \"contracts/ergasia.sol\":3769:3805  pollingStations[pollingStationCount] */\n  0x00\n    /* \"contracts/ergasia.sol\":3785:3804  pollingStationCount */\n  sload(0x02)\n    /* \"contracts/ergasia.sol\":3769:3805  pollingStations[pollingStationCount] */\n  dup2\n  mstore\n  0x20\n  add\n  swap1\n  dup2\n  mstore\n  0x20\n  add\n  0x00\n  keccak256\n    /* \"contracts/ergasia.sol\":3769:3856  pollingStations[pollingStationCount] = PollingStation(pollingStationCount, _name, 0, 0) */\n  0x00\n  dup3\n  add\n  mload\n  dup2\n  0x00\n  add\n  sstore\n  0x20\n  dup3\n  add\n  mload\n  dup2\n  0x01\n  add\n  swap1\n  dup1\n  mload\n  swap1\n  0x20\n  add\n  swap1\n  tag_38\n  swap3\n  swap2\n  swap1\n  tag_35\n  jump\t// in\ntag_38:\n  pop\n  0x40\n  dup3\n  add\n  mload\n  dup2\n  0x02\n  add\n  sstore\n  0x60\n  dup3\n  add\n  mload\n  dup2\n  0x03\n  add\n  sstore\n  swap1\n  pop\n  pop\n    /* \"contracts/ergasia.sol\":3671:3863  function addPollingStation (string memory _name) private {... */\n  pop\n  jump\t// out\n    /* \"contracts/ergasia.sol\":70:7210  contract Election {... */\ntag_35:\n  dup3\n  dup1\n  sload\n  tag_39\n  swap1\n  tag_40\n  jump\t// in\ntag_39:\n  swap1\n  0x00\n  mstore\n  keccak256(0x00, 0x20)\n  swap1\n  0x1f\n  add\n  0x20\n  swap1\n  div\n  dup2\n  add\n  swap3\n  dup3\n  tag_42\n  jumpi\n  0x00\n  dup6\n  sstore\n  jump(tag_41)\ntag_42:\n  dup3\n  0x1f\n  lt\n  tag_43\n  jumpi\n  dup1\n  mload\n  not(0xff)\n  and\n  dup4\n  dup1\n  add\n  or\n  dup6\n  sstore\n  jump(tag_41)\ntag_43:\n  dup3\n  dup1\n  add\n  0x01\n  add\n  dup6\n  sstore\n  dup3\n  iszero\n  tag_41\n  jumpi\n  swap2\n  dup3\n  add\ntag_44:\n  dup3\n  dup2\n  gt\n  iszero\n  tag_45\n  jumpi\n  dup3\n  mload\n  dup3\n  sstore\n  swap2\n  0x20\n  add\n  swap2\n  swap1\n  0x01\n  add\n  swap1\n  jump(tag_44)\ntag_45:\ntag_41:\n  pop\n  swap1\n  pop\n  tag_46\n  swap2\n  swap1\n  tag_47\n  jump\t// in\ntag_46:\n  pop\n  swap1\n  jump\t// out\ntag_47:\ntag_48:\n  dup1\n  dup3\n  gt\n  iszero\n  tag_49\n  jumpi\n  0x00\n  dup2\n  0x00\n  swap1\n  sstore\n  pop\n  0x01\n  add\n  jump(tag_48)\ntag_49:\n  pop\n  swap1\n  jump\t// out\n    /* \"#utility.yul\":7:84   */\ntag_51:\n    /* \"#utility.yul\":44:51   */\n  0x00\n    /* \"#utility.yul\":73:78   */\n  dup2\n    /* \"#utility.yul\":62:78   */\n  swap1\n  pop\n    /* \"#utility.yul\":7:84   */\n  swap2\n  swap1\n  pop\n  jump\t// out\n    /* \"#utility.yul\":90:410   */\ntag_40:\n    /* \"#utility.yul\":134:140   */\n  0x00\n    /* \"#utility.yul\":171:172   */\n  0x02\n    /* \"#utility.yul\":165:169   */\n  dup3\n    /* \"#utility.yul\":161:173   */\n  div\n    /* \"#utility.yul\":151:173   */\n  swap1\n  pop\n    /* \"#utility.yul\":218:219   */\n  0x01\n    /* \"#utility.yul\":212:216   */\n  dup3\n    /* \"#utility.yul\":208:220   */\n  and\n    /* \"#utility.yul\":239:257   */\n  dup1\n    /* \"#utility.yul\":229:310   */\n  tag_54\n  jumpi\n    /* \"#utility.yul\":295:299   */\n  0x7f\n    /* \"#utility.yul\":287:293   */\n  dup3\n    /* \"#utility.yul\":283:300   */\n  and\n    /* \"#utility.yul\":273:300   */\n  swap2\n  pop\n    /* \"#utility.yul\":229:310   */\ntag_54:\n    /* \"#utility.yul\":357:359   */\n  0x20\n    /* \"#utility.yul\":349:355   */\n  dup3\n    /* \"#utility.yul\":346:360   */\n  lt\n    /* \"#utility.yul\":326:344   */\n  dup2\n    /* \"#utility.yul\":323:361   */\n  eq\n    /* \"#utility.yul\":320:404   */\n  iszero\n  tag_55\n  jumpi\n    /* \"#utility.yul\":376:394   */\n  tag_56\n  tag_57\n  jump\t// in\ntag_56:\n    /* \"#utility.yul\":320:404   */\ntag_55:\n    /* \"#utility.yul\":141:410   */\n  pop\n    /* \"#utility.yul\":90:410   */\n  swap2\n  swap1\n  pop\n  jump\t// out\n    /* \"#utility.yul\":416:649   */\ntag_33:\n    /* \"#utility.yul\":455:458   */\n  0x00\n    /* \"#utility.yul\":478:502   */\n  tag_59\n    /* \"#utility.yul\":496:501   */\n  dup3\n    /* \"#utility.yul\":478:502   */\n  tag_51\n  jump\t// in\ntag_59:\n    /* \"#utility.yul\":469:502   */\n  swap2\n  pop\n    /* \"#utility.yul\":524:590   */\n  0xffffffffffffffffffffffffffffffffffffffffffffffffffffffffffffffff\n    /* \"#utility.yul\":517:522   */\n  dup3\n    /* \"#utility.yul\":514:591   */\n  eq\n    /* \"#utility.yul\":511:614   */\n  iszero\n  tag_60\n  jumpi\n    /* \"#utility.yul\":594:612   */\n  tag_61\n  tag_62\n  jump\t// in\ntag_61:\n    /* \"#utility.yul\":511:614   */\ntag_60:\n    /* \"#utility.yul\":641:642   */\n  0x01\n    /* \"#utility.yul\":634:639   */\n  dup3\n    /* \"#utility.yul\":630:643   */\n  add\n    /* \"#utility.yul\":623:643   */\n  swap1\n  pop\n    /* \"#utility.yul\":416:649   */\n  swap2\n  swap1\n  pop\n  jump\t// out\n    /* \"#utility.yul\":655:835   */\ntag_62:\n    /* \"#utility.yul\":703:780   */\n  0x4e487b7100000000000000000000000000000000000000000000000000000000\n    /* \"#utility.yul\":700:701   */\n  0x00\n    /* \"#utility.yul\":693:781   */\n  mstore\n    /* \"#utility.yul\":800:804   */\n  0x11\n    /* \"#utility.yul\":797:798   */\n  0x04\n    /* \"#utility.yul\":790:805   */\n  mstore\n    /* \"#utility.yul\":824:828   */\n  0x24\n    /* \"#utility.yul\":821:822   */\n  0x00\n    /* \"#utility.yul\":814:829   */\n  revert\n    /* \"#utility.yul\":841:1021   */\ntag_10:\n    /* \"#utility.yul\":889:966   */\n  0x4e487b7100000000000000000000000000000000000000000000000000000000\n    /* \"#utility.yul\":886:887   */\n  0x00\n    /* \"#utility.yul\":879:967   */\n  mstore\n    /* \"#utility.yul\":986:990   */\n  0x21\n    /* \"#utility.yul\":983:984   */\n  0x04\n    /* \"#utility.yul\":976:991   */\n  mstore\n    /* \"#utility.yul\":1010:1014   */\n  0x24\n    /* \"#utility.yul\":1007:1008   */\n  0x00\n    /* \"#utility.yul\":1000:1015   */\n  revert\n    /* \"#utility.yul\":1027:1207   */\ntag_57:\n    /* \"#utility.yul\":1075:1152   */\n  0x4e487b7100000000000000000000000000000000000000000000000000000000\n    /* \"#utility.yul\":1072:1073   */\n  0x00\n    /* \"#utility.yul\":1065:1153   */\n  mstore\n    /* \"#utility.yul\":1172:1176   */\n  0x22\n    /* \"#utility.yul\":1169:1170   */\n  0x04\n    /* \"#utility.yul\":1162:1177   */\n  mstore\n    /* \"#utility.yul\":1196:1200   */\n  0x24\n    /* \"#utility.yul\":1193:1194   */\n  0x00\n    /* \"#utility.yul\":1186:1201   */\n  revert\n    /* \"contracts/ergasia.sol\":70:7210  contract Election {... */\ntag_11:\n  dataSize(sub_0)\n  dup1\n  dataOffset(sub_0)\n  0x00\n  codecopy\n  0x00\n  return\nstop\n\nsub_0: assembly {\n        /* \"contracts/ergasia.sol\":70:7210  contract Election {... */\n      mstore(0x40, 0x80)\n      callvalue\n      dup1\n      iszero\n      tag_1\n      jumpi\n      0x00\n      dup1\n      revert\n    tag_1:\n      pop\n      jumpi(tag_2, lt(calldatasize, 0x04))\n      shr(0xe0, calldataload(0x00))\n      dup1\n      0x53357ad0\n      gt\n      tag_14\n      jumpi\n      dup1\n      0x53357ad0\n      eq\n      tag_8\n      jumpi\n      dup1\n      0xa3ec138d\n      eq\n      tag_9\n      jumpi\n      dup1\n      0xb9f05f2f\n      eq\n      tag_10\n      jumpi\n      dup1\n      0xc19d93fb\n      eq\n      tag_11\n      jumpi\n      dup1\n      0xdf9f1a07\n      eq\n      tag_12\n      jumpi\n      dup1\n      0xfe2442d7\n      eq\n      tag_13\n      jumpi\n      jump(tag_2)\n    tag_14:\n      dup1\n      0xaa7464\n      eq\n      tag_3\n      jumpi\n      dup1\n      0x2d35a8a2\n      eq\n      tag_4\n      jumpi\n      dup1\n      0x3477ee2e\n      eq\n      tag_5\n      jumpi\n      dup1\n      0x4763d4e7\n      eq\n      tag_6\n      jumpi\n      dup1\n      0x4c0a6af0\n      eq\n      tag_7\n      jumpi\n    tag_2:\n      0x00\n      dup1\n      revert\n        /* \"contracts/ergasia.sol\":1369:1402  uint public totalRegisteredVoters */\n    tag_3:\n      tag_15\n      tag_16\n      jump\t// in\n    tag_15:\n      mload(0x40)\n      tag_17\n      swap2\n      swap1\n      tag_18\n      jump\t// in\n    tag_17:\n      mload(0x40)\n      dup1\n      swap2\n      sub\n      swap1\n      return\n        /* \"contracts/ergasia.sol\":1221:1248  uint public candidatesCount */\n    tag_4:\n      tag_19\n      tag_20\n      jump\t// in\n    tag_19:\n      mload(0x40)\n      tag_21\n      swap2\n      swap1\n      tag_18\n      jump\t// in\n    tag_21:\n      mload(0x40)\n      dup1\n      swap2\n      sub\n      swap1\n      return\n        /* \"contracts/ergasia.sol\":1622:1666  mapping(uint => Candidate) public candidates */\n    tag_5:\n      tag_22\n      0x04\n      dup1\n      calldatasize\n      sub\n      dup2\n      add\n      swap1\n      tag_23\n      swap2\n      swap1\n      tag_24\n      jump\t// in\n    tag_23:\n      tag_25\n      jump\t// in\n    tag_22:\n      mload(0x40)\n      tag_26\n      swap4\n      swap3\n      swap2\n      swap1\n      tag_27\n      jump\t// in\n    tag_26:\n      mload(0x40)\n      dup1\n      swap2\n      sub\n      swap1\n      return\n        /* \"contracts/ergasia.sol\":1780:1826  mapping(address => Voter) public voterRegistry */\n    tag_6:\n      tag_28\n      0x04\n      dup1\n      calldatasize\n      sub\n      dup2\n      add\n      swap1\n      tag_29\n      swap2\n      swap1\n      tag_30\n      jump\t// in\n    tag_29:\n      tag_31\n      jump\t// in\n    tag_28:\n      mload(0x40)\n      tag_32\n      swap6\n      swap5\n      swap4\n      swap3\n      swap2\n      swap1\n      tag_33\n      jump\t// in\n    tag_32:\n      mload(0x40)\n      dup1\n      swap2\n      sub\n      swap1\n      return\n        /* \"contracts/ergasia.sol\":5772:5866  function startVote() public inState(State.Created) Owner {... */\n    tag_7:\n      tag_34\n      tag_35\n      jump\t// in\n    tag_34:\n      stop\n        /* \"contracts/ergasia.sol\":1187:1215  address public electionOwner */\n    tag_8:\n      tag_36\n      tag_37\n      jump\t// in\n    tag_36:\n      mload(0x40)\n      tag_38\n      swap2\n      swap1\n      tag_39\n      jump\t// in\n    tag_38:\n      mload(0x40)\n      dup1\n      swap2\n      sub\n      swap1\n      return\n        /* \"contracts/ergasia.sol\":1832:1870  mapping(address => bool) public voters */\n    tag_9:\n      tag_40\n      0x04\n      dup1\n      calldatasize\n      sub\n      dup2\n      add\n      swap1\n      tag_41\n      swap2\n      swap1\n      tag_30\n      jump\t// in\n    tag_41:\n      tag_42\n      jump\t// in\n    tag_40:\n      mload(0x40)\n      tag_43\n      swap2\n      swap1\n      tag_44\n      jump\t// in\n    tag_43:\n      mload(0x40)\n      dup1\n      swap2\n      sub\n      swap1\n      return\n        /* \"contracts/ergasia.sol\":4087:5223  function addVoter(address _voterAddress, uint _pollingStationID) public inState(State.Created) Owner {... */\n    tag_10:\n      tag_45\n      0x04\n      dup1\n      calldatasize\n      sub\n      dup2\n      add\n      swap1\n      tag_46\n      swap2\n      swap1\n      tag_47\n      jump\t// in\n    tag_46:\n      tag_48\n      jump\t// in\n    tag_45:\n      stop\n        /* \"contracts/ergasia.sol\":1923:1941  State public state */\n    tag_11:\n      tag_49\n      tag_50\n      jump\t// in\n    tag_49:\n      mload(0x40)\n      tag_51\n      swap2\n      swap1\n      tag_52\n      jump\t// in\n    tag_51:\n      mload(0x40)\n      dup1\n      swap2\n      sub\n      swap1\n      return\n        /* \"contracts/ergasia.sol\":1292:1323  uint public pollingStationCount */\n    tag_12:\n      tag_53\n      tag_54\n      jump\t// in\n    tag_53:\n      mload(0x40)\n      tag_55\n      swap2\n      swap1\n      tag_18\n      jump\t// in\n    tag_55:\n      mload(0x40)\n      dup1\n      swap2\n      sub\n      swap1\n      return\n        /* \"contracts/ergasia.sol\":1696:1750  mapping(uint => PollingStation) public pollingStations */\n    tag_13:\n      tag_56\n      0x04\n      dup1\n      calldatasize\n      sub\n      dup2\n      add\n      swap1\n      tag_57\n      swap2\n      swap1\n      tag_24\n      jump\t// in\n    tag_57:\n      tag_58\n      jump\t// in\n    tag_56:\n      mload(0x40)\n      tag_59\n      swap5\n      swap4\n      swap3\n      swap2\n      swap1\n      tag_60\n      jump\t// in\n    tag_59:\n      mload(0x40)\n      dup1\n      swap2\n      sub\n      swap1\n      return\n        /* \"contracts/ergasia.sol\":1369:1402  uint public totalRegisteredVoters */\n    tag_16:\n      sload(0x03)\n      dup2\n      jump\t// out\n        /* \"contracts/ergasia.sol\":1221:1248  uint public candidatesCount */\n    tag_20:\n      sload(0x01)\n      dup2\n      jump\t// out\n        /* \"contracts/ergasia.sol\":1622:1666  mapping(uint => Candidate) public candidates */\n    tag_25:\n      mstore(0x20, 0x04)\n      dup1\n      0x00\n      mstore\n      keccak256(0x00, 0x40)\n      0x00\n      swap2\n      pop\n      swap1\n      pop\n      dup1\n      0x00\n      add\n      sload\n      swap1\n      dup1\n      0x01\n      add\n      dup1\n      sload\n      tag_61\n      swap1\n      tag_62\n      jump\t// in\n    tag_61:\n      dup1\n      0x1f\n      add\n      0x20\n      dup1\n      swap2\n      div\n      mul\n      0x20\n      add\n      mload(0x40)\n      swap1\n      dup2\n      add\n      0x40\n      mstore\n      dup1\n      swap3\n      swap2\n      swap1\n      dup2\n      dup2\n      mstore\n      0x20\n      add\n      dup3\n      dup1\n      sload\n      tag_63\n      swap1\n      tag_62\n      jump\t// in\n    tag_63:\n      dup1\n      iszero\n      tag_64\n      jumpi\n      dup1\n      0x1f\n      lt\n      tag_65\n      jumpi\n      0x0100\n      dup1\n      dup4\n      sload\n      div\n      mul\n      dup4\n      mstore\n      swap2\n      0x20\n      add\n      swap2\n      jump(tag_64)\n    tag_65:\n      dup3\n      add\n      swap2\n      swap1\n      0x00\n      mstore\n      keccak256(0x00, 0x20)\n      swap1\n    tag_66:\n      dup2\n      sload\n      dup2\n      mstore\n      swap1\n      0x01\n      add\n      swap1\n      0x20\n      add\n      dup1\n      dup4\n      gt\n      tag_66\n      jumpi\n      dup3\n      swap1\n      sub\n      0x1f\n      and\n      dup3\n      add\n      swap2\n    tag_64:\n      pop\n      pop\n      pop\n      pop\n      pop\n      swap1\n      dup1\n      0x02\n      add\n      sload\n      swap1\n      pop\n      dup4\n      jump\t// out\n        /* \"contracts/ergasia.sol\":1780:1826  mapping(address => Voter) public voterRegistry */\n    tag_31:\n      mstore(0x20, 0x06)\n      dup1\n      0x00\n      mstore\n      keccak256(0x00, 0x40)\n      0x00\n      swap2\n      pop\n      swap1\n      pop\n      dup1\n      0x00\n      add\n      0x00\n      swap1\n      sload\n      swap1\n      0x0100\n      exp\n      swap1\n      div\n      0xff\n      and\n      swap1\n      dup1\n      0x00\n      add\n      0x01\n      swap1\n      sload\n      swap1\n      0x0100\n      exp\n      swap1\n      div\n      0xff\n      and\n      swap1\n      dup1\n      0x01\n      add\n      sload\n      swap1\n      dup1\n      0x02\n      add\n      sload\n      swap1\n      dup1\n      0x03\n      add\n      sload\n      swap1\n      pop\n      dup6\n      jump\t// out\n        /* \"contracts/ergasia.sol\":5772:5866  function startVote() public inState(State.Created) Owner {... */\n    tag_35:\n        /* \"contracts/ergasia.sol\":5808:5821  State.Created */\n      0x00\n        /* \"contracts/ergasia.sol\":2093:2099  _state */\n      dup1\n        /* \"contracts/ergasia.sol\":2084:2099  state == _state */\n      0x02\n      dup2\n      gt\n      iszero\n      tag_68\n      jumpi\n      tag_69\n      tag_70\n      jump\t// in\n    tag_69:\n    tag_68:\n        /* \"contracts/ergasia.sol\":2084:2089  state */\n      0x08\n      0x00\n      swap1\n      sload\n      swap1\n      0x0100\n      exp\n      swap1\n      div\n      0xff\n      and\n        /* \"contracts/ergasia.sol\":2084:2099  state == _state */\n      0x02\n      dup2\n      gt\n      iszero\n      tag_71\n      jumpi\n      tag_72\n      tag_70\n      jump\t// in\n    tag_72:\n    tag_71:\n      eq\n        /* \"contracts/ergasia.sol\":2076:2100  require(state == _state) */\n      tag_73\n      jumpi\n      0x00\n      dup1\n      revert\n    tag_73:\n        /* \"contracts/ergasia.sol\":1997:2010  electionOwner */\n      0x00\n      dup1\n      sload\n      swap1\n      0x0100\n      exp\n      swap1\n      div\n      0xffffffffffffffffffffffffffffffffffffffff\n      and\n        /* \"contracts/ergasia.sol\":1983:2010  msg.sender == electionOwner */\n      0xffffffffffffffffffffffffffffffffffffffff\n      and\n        /* \"contracts/ergasia.sol\":1983:1993  msg.sender */\n      caller\n        /* \"contracts/ergasia.sol\":1983:2010  msg.sender == electionOwner */\n      0xffffffffffffffffffffffffffffffffffffffff\n      and\n      eq\n        /* \"contracts/ergasia.sol\":1975:2011  require(msg.sender == electionOwner) */\n      tag_75\n      jumpi\n      0x00\n      dup1\n      revert\n    tag_75:\n        /* \"contracts/ergasia.sol\":5847:5859  State.Voting */\n      0x01\n        /* \"contracts/ergasia.sol\":5839:5844  state */\n      0x08\n      0x00\n        /* \"contracts/ergasia.sol\":5839:5859  state = State.Voting */\n      0x0100\n      exp\n      dup2\n      sload\n      dup2\n      0xff\n      mul\n      not\n      and\n      swap1\n      dup4\n      0x02\n      dup2\n      gt\n      iszero\n      tag_77\n      jumpi\n      tag_78\n      tag_70\n      jump\t// in\n    tag_78:\n    tag_77:\n      mul\n      or\n      swap1\n      sstore\n      pop\n        /* \"contracts/ergasia.sol\":5772:5866  function startVote() public inState(State.Created) Owner {... */\n      pop\n      jump\t// out\n        /* \"contracts/ergasia.sol\":1187:1215  address public electionOwner */\n    tag_37:\n      0x00\n      dup1\n      sload\n      swap1\n      0x0100\n      exp\n      swap1\n      div\n      0xffffffffffffffffffffffffffffffffffffffff\n      and\n      dup2\n      jump\t// out\n        /* \"contracts/ergasia.sol\":1832:1870  mapping(address => bool) public voters */\n    tag_42:\n      mstore(0x20, 0x07)\n      dup1\n      0x00\n      mstore\n      keccak256(0x00, 0x40)\n      0x00\n      swap2\n      pop\n      sload\n      swap1\n      0x0100\n      exp\n      swap1\n      div\n      0xff\n      and\n      dup2\n      jump\t// out\n        /* \"contracts/ergasia.sol\":4087:5223  function addVoter(address _voterAddress, uint _pollingStationID) public inState(State.Created) Owner {... */\n    tag_48:\n        /* \"contracts/ergasia.sol\":4167:4180  State.Created */\n      0x00\n        /* \"contracts/ergasia.sol\":2093:2099  _state */\n      dup1\n        /* \"contracts/ergasia.sol\":2084:2099  state == _state */\n      0x02\n      dup2\n      gt\n      iszero\n      tag_80\n      jumpi\n      tag_81\n      tag_70\n      jump\t// in\n    tag_81:\n    tag_80:\n        /* \"contracts/ergasia.sol\":2084:2089  state */\n      0x08\n      0x00\n      swap1\n      sload\n      swap1\n      0x0100\n      exp\n      swap1\n      div\n      0xff\n      and\n        /* \"contracts/ergasia.sol\":2084:2099  state == _state */\n      0x02\n      dup2\n      gt\n      iszero\n      tag_82\n      jumpi\n      tag_83\n      tag_70\n      jump\t// in\n    tag_83:\n    tag_82:\n      eq\n        /* \"contracts/ergasia.sol\":2076:2100  require(state == _state) */\n      tag_84\n      jumpi\n      0x00\n      dup1\n      revert\n    tag_84:\n        /* \"contracts/ergasia.sol\":1997:2010  electionOwner */\n      0x00\n      dup1\n      sload\n      swap1\n      0x0100\n      exp\n      swap1\n      div\n      0xffffffffffffffffffffffffffffffffffffffff\n      and\n        /* \"contracts/ergasia.sol\":1983:2010  msg.sender == electionOwner */\n      0xffffffffffffffffffffffffffffffffffffffff\n      and\n        /* \"contracts/ergasia.sol\":1983:1993  msg.sender */\n      caller\n        /* \"contracts/ergasia.sol\":1983:2010  msg.sender == electionOwner */\n      0xffffffffffffffffffffffffffffffffffffffff\n      and\n      eq\n        /* \"contracts/ergasia.sol\":1975:2011  require(msg.sender == electionOwner) */\n      tag_86\n      jumpi\n      0x00\n      dup1\n      revert\n    tag_86:\n        /* \"contracts/ergasia.sol\":4306:4311  false */\n      0x00\n        /* \"contracts/ergasia.sol\":4263:4311  voterRegistry[_voterAddress].isEnrolled == false */\n      iszero\n      iszero\n        /* \"contracts/ergasia.sol\":4263:4276  voterRegistry */\n      0x06\n        /* \"contracts/ergasia.sol\":4263:4291  voterRegistry[_voterAddress] */\n      0x00\n        /* \"contracts/ergasia.sol\":4277:4290  _voterAddress */\n      dup6\n        /* \"contracts/ergasia.sol\":4263:4291  voterRegistry[_voterAddress] */\n      0xffffffffffffffffffffffffffffffffffffffff\n      and\n      0xffffffffffffffffffffffffffffffffffffffff\n      and\n      dup2\n      mstore\n      0x20\n      add\n      swap1\n      dup2\n      mstore\n      0x20\n      add\n      0x00\n      keccak256\n        /* \"contracts/ergasia.sol\":4263:4302  voterRegistry[_voterAddress].isEnrolled */\n      0x00\n      add\n      0x00\n      swap1\n      sload\n      swap1\n      0x0100\n      exp\n      swap1\n      div\n      0xff\n      and\n        /* \"contracts/ergasia.sol\":4263:4311  voterRegistry[_voterAddress].isEnrolled == false */\n      iszero\n      iszero\n      eq\n        /* \"contracts/ergasia.sol\":4255:4344  require(voterRegistry[_voterAddress].isEnrolled == false, \"Voter is already registered.\") */\n      tag_88\n      jumpi\n      mload(0x40)\n      0x08c379a000000000000000000000000000000000000000000000000000000000\n      dup2\n      mstore\n      0x04\n      add\n      tag_89\n      swap1\n      tag_90\n      jump\t// in\n    tag_89:\n      mload(0x40)\n      dup1\n      swap2\n      sub\n      swap1\n      revert\n    tag_88:\n        /* \"contracts/ergasia.sol\":4616:4617  0 */\n      0x00\n        /* \"contracts/ergasia.sol\":4559:4572  voterRegistry */\n      0x06\n        /* \"contracts/ergasia.sol\":4559:4587  voterRegistry[_voterAddress] */\n      0x00\n        /* \"contracts/ergasia.sol\":4573:4586  _voterAddress */\n      dup6\n        /* \"contracts/ergasia.sol\":4559:4587  voterRegistry[_voterAddress] */\n      0xffffffffffffffffffffffffffffffffffffffff\n      and\n      0xffffffffffffffffffffffffffffffffffffffff\n      and\n      dup2\n      mstore\n      0x20\n      add\n      swap1\n      dup2\n      mstore\n      0x20\n      add\n      0x00\n      keccak256\n        /* \"contracts/ergasia.sol\":4559:4612  voterRegistry[_voterAddress].enrolledPollingStationID */\n      0x02\n      add\n      sload\n        /* \"contracts/ergasia.sol\":4559:4617  voterRegistry[_voterAddress].enrolledPollingStationID != 0 */\n      eq\n      iszero\n        /* \"contracts/ergasia.sol\":4551:4655  require(voterRegistry[_voterAddress].enrolledPollingStationID != 0, \"User has already been registered.\") */\n      tag_91\n      jumpi\n      mload(0x40)\n      0x08c379a000000000000000000000000000000000000000000000000000000000\n      dup2\n      mstore\n      0x04\n      add\n      tag_92\n      swap1\n      tag_93\n      jump\t// in\n    tag_92:\n      mload(0x40)\n      dup1\n      swap2\n      sub\n      swap1\n      revert\n    tag_91:\n        /* \"contracts/ergasia.sol\":4792:4793  1 */\n      0x01\n        /* \"contracts/ergasia.sol\":4772:4789  _pollingStationID */\n      dup3\n        /* \"contracts/ergasia.sol\":4772:4793  _pollingStationID >=1 */\n      lt\n      iszero\n        /* \"contracts/ergasia.sol\":4772:4837  _pollingStationID >=1 && _pollingStationID <= pollingStationCount */\n      dup1\n      iszero\n      tag_94\n      jumpi\n      pop\n        /* \"contracts/ergasia.sol\":4818:4837  pollingStationCount */\n      sload(0x02)\n        /* \"contracts/ergasia.sol\":4797:4814  _pollingStationID */\n      dup3\n        /* \"contracts/ergasia.sol\":4797:4837  _pollingStationID <= pollingStationCount */\n      gt\n      iszero\n        /* \"contracts/ergasia.sol\":4772:4837  _pollingStationID >=1 && _pollingStationID <= pollingStationCount */\n    tag_94:\n        /* \"contracts/ergasia.sol\":4764:4884  require(_pollingStationID >=1 && _pollingStationID <= pollingStationCount, \"Please provide a valid polling station ID.\") */\n      tag_95\n      jumpi\n      mload(0x40)\n      0x08c379a000000000000000000000000000000000000000000000000000000000\n      dup2\n      mstore\n      0x04\n      add\n      tag_96\n      swap1\n      tag_97\n      jump\t// in\n    tag_96:\n      mload(0x40)\n      dup1\n      swap2\n      sub\n      swap1\n      revert\n    tag_95:\n        /* \"contracts/ergasia.sol\":4895:4909  Voter memory v */\n      tag_98\n      tag_99\n      jump\t// in\n    tag_98:\n        /* \"contracts/ergasia.sol\":4934:4938  true */\n      0x01\n        /* \"contracts/ergasia.sol\":4919:4920  v */\n      dup2\n        /* \"contracts/ergasia.sol\":4919:4931  v.isEnrolled */\n      0x00\n      add\n        /* \"contracts/ergasia.sol\":4919:4938  v.isEnrolled = true */\n      swap1\n      iszero\n      iszero\n      swap1\n      dup2\n      iszero\n      iszero\n      dup2\n      mstore\n      pop\n      pop\n        /* \"contracts/ergasia.sol\":4961:4966  false */\n      0x00\n        /* \"contracts/ergasia.sol\":4948:4949  v */\n      dup2\n        /* \"contracts/ergasia.sol\":4948:4958  v.hasVoted */\n      0x20\n      add\n        /* \"contracts/ergasia.sol\":4948:4966  v.hasVoted = false */\n      swap1\n      iszero\n      iszero\n      swap1\n      dup2\n      iszero\n      iszero\n      dup2\n      mstore\n      pop\n      pop\n        /* \"contracts/ergasia.sol\":4994:4995  0 */\n      0x00\n        /* \"contracts/ergasia.sol\":4976:4977  v */\n      dup2\n        /* \"contracts/ergasia.sol\":4976:4991  v.indexProposal */\n      0x40\n      add\n        /* \"contracts/ergasia.sol\":4976:4995  v.indexProposal = 0 */\n      dup2\n      dup2\n      mstore\n      pop\n      pop\n        /* \"contracts/ergasia.sol\":5034:5051  _pollingStationID */\n      dup3\n        /* \"contracts/ergasia.sol\":5005:5006  v */\n      dup2\n        /* \"contracts/ergasia.sol\":5005:5031  v.enrolledPollingStationID */\n      0x60\n      add\n        /* \"contracts/ergasia.sol\":5005:5051  v.enrolledPollingStationID = _pollingStationID */\n      dup2\n      dup2\n      mstore\n      pop\n      pop\n        /* \"contracts/ergasia.sol\":5087:5088  0 */\n      0x00\n        /* \"contracts/ergasia.sol\":5061:5062  v */\n      dup2\n        /* \"contracts/ergasia.sol\":5061:5084  v.votedPollingStationID */\n      0x80\n      add\n        /* \"contracts/ergasia.sol\":5061:5088  v.votedPollingStationID = 0 */\n      dup2\n      dup2\n      mstore\n      pop\n      pop\n        /* \"contracts/ergasia.sol\":5129:5130  v */\n      dup1\n        /* \"contracts/ergasia.sol\":5098:5111  voterRegistry */\n      0x06\n        /* \"contracts/ergasia.sol\":5098:5126  voterRegistry[_voterAddress] */\n      0x00\n        /* \"contracts/ergasia.sol\":5112:5125  _voterAddress */\n      dup7\n        /* \"contracts/ergasia.sol\":5098:5126  voterRegistry[_voterAddress] */\n      0xffffffffffffffffffffffffffffffffffffffff\n      and\n      0xffffffffffffffffffffffffffffffffffffffff\n      and\n      dup2\n      mstore\n      0x20\n      add\n      swap1\n      dup2\n      mstore\n      0x20\n      add\n      0x00\n      keccak256\n        /* \"contracts/ergasia.sol\":5098:5130  voterRegistry[_voterAddress] = v */\n      0x00\n      dup3\n      add\n      mload\n      dup2\n      0x00\n      add\n      exp(0x0100, 0x00)\n      dup2\n      sload\n      dup2\n      0xff\n      mul\n      not\n      and\n      swap1\n      dup4\n      iszero\n      iszero\n      mul\n      or\n      swap1\n      sstore\n      pop\n      0x20\n      dup3\n      add\n      mload\n      dup2\n      0x00\n      add\n      exp(0x0100, 0x01)\n      dup2\n      sload\n      dup2\n      0xff\n      mul\n      not\n      and\n      swap1\n      dup4\n      iszero\n      iszero\n      mul\n      or\n      swap1\n      sstore\n      pop\n      0x40\n      dup3\n      add\n      mload\n      dup2\n      0x01\n      add\n      sstore\n      0x60\n      dup3\n      add\n      mload\n      dup2\n      0x02\n      add\n      sstore\n      0x80\n      dup3\n      add\n      mload\n      dup2\n      0x03\n      add\n      sstore\n      swap1\n      pop\n      pop\n        /* \"contracts/ergasia.sol\":5140:5183  registerAtPollingStation(_pollingStationID) */\n      tag_100\n        /* \"contracts/ergasia.sol\":5165:5182  _pollingStationID */\n      dup4\n        /* \"contracts/ergasia.sol\":5140:5164  registerAtPollingStation */\n      tag_101\n        /* \"contracts/ergasia.sol\":5140:5183  registerAtPollingStation(_pollingStationID) */\n      jump\t// in\n    tag_100:\n        /* \"contracts/ergasia.sol\":5193:5214  totalRegisteredVoters */\n      0x03\n      0x00\n        /* \"contracts/ergasia.sol\":5193:5216  totalRegisteredVoters++ */\n      dup2\n      sload\n      dup1\n      swap3\n      swap2\n      swap1\n      tag_102\n      swap1\n      tag_103\n      jump\t// in\n    tag_102:\n      swap2\n      swap1\n      pop\n      sstore\n      pop\n        /* \"contracts/ergasia.sol\":4188:5223  {... */\n      pop\n        /* \"contracts/ergasia.sol\":4087:5223  function addVoter(address _voterAddress, uint _pollingStationID) public inState(State.Created) Owner {... */\n      pop\n      pop\n      pop\n      jump\t// out\n        /* \"contracts/ergasia.sol\":1923:1941  State public state */\n    tag_50:\n      0x08\n      0x00\n      swap1\n      sload\n      swap1\n      0x0100\n      exp\n      swap1\n      div\n      0xff\n      and\n      dup2\n      jump\t// out\n        /* \"contracts/ergasia.sol\":1292:1323  uint public pollingStationCount */\n    tag_54:\n      sload(0x02)\n      dup2\n      jump\t// out\n        /* \"contracts/ergasia.sol\":1696:1750  mapping(uint => PollingStation) public pollingStations */\n    tag_58:\n      mstore(0x20, 0x05)\n      dup1\n      0x00\n      mstore\n      keccak256(0x00, 0x40)\n      0x00\n      swap2\n      pop\n      swap1\n      pop\n      dup1\n      0x00\n      add\n      sload\n      swap1\n      dup1\n      0x01\n      add\n      dup1\n      sload\n      tag_104\n      swap1\n      tag_62\n      jump\t// in\n    tag_104:\n      dup1\n      0x1f\n      add\n      0x20\n      dup1\n      swap2\n      div\n      mul\n      0x20\n      add\n      mload(0x40)\n      swap1\n      dup2\n      add\n      0x40\n      mstore\n      dup1\n      swap3\n      swap2\n      swap1\n      dup2\n      dup2\n      mstore\n      0x20\n      add\n      dup3\n      dup1\n      sload\n      tag_105\n      swap1\n      tag_62\n      jump\t// in\n    tag_105:\n      dup1\n      iszero\n      tag_106\n      jumpi\n      dup1\n      0x1f\n      lt\n      tag_107\n      jumpi\n      0x0100\n      dup1\n      dup4\n      sload\n      div\n      mul\n      dup4\n      mstore\n      swap2\n      0x20\n      add\n      swap2\n      jump(tag_106)\n    tag_107:\n      dup3\n      add\n      swap2\n      swap1\n      0x00\n      mstore\n      keccak256(0x00, 0x20)\n      swap1\n    tag_108:\n      dup2\n      sload\n      dup2\n      mstore\n      swap1\n      0x01\n      add\n      swap1\n      0x20\n      add\n      dup1\n      dup4\n      gt\n      tag_108\n      jumpi\n      dup3\n      swap1\n      sub\n      0x1f\n      and\n      dup3\n      add\n      swap2\n    tag_106:\n      pop\n      pop\n      pop\n      pop\n      pop\n      swap1\n      dup1\n      0x02\n      add\n      sload\n      swap1\n      dup1\n      0x03\n      add\n      sload\n      swap1\n      pop\n      dup5\n      jump\t// out\n        /* \"contracts/ergasia.sol\":5361:5643  function registerAtPollingStation(uint _stationID) internal {... */\n    tag_101:\n        /* \"contracts/ergasia.sol\":5436:5442  uint i */\n      0x00\n        /* \"contracts/ergasia.sol\":5445:5446  1 */\n      0x01\n        /* \"contracts/ergasia.sol\":5436:5446  uint i = 1 */\n      swap1\n      pop\n        /* \"contracts/ergasia.sol\":5431:5637  for (uint i = 1; i <= pollingStationCount; i++) {... */\n    tag_110:\n        /* \"contracts/ergasia.sol\":5453:5472  pollingStationCount */\n      sload(0x02)\n        /* \"contracts/ergasia.sol\":5448:5449  i */\n      dup2\n        /* \"contracts/ergasia.sol\":5448:5472  i <= pollingStationCount */\n      gt\n        /* \"contracts/ergasia.sol\":5431:5637  for (uint i = 1; i <= pollingStationCount; i++) {... */\n      tag_111\n      jumpi\n        /* \"contracts/ergasia.sol\":5522:5532  _stationID */\n      dup2\n        /* \"contracts/ergasia.sol\":5497:5512  pollingStations */\n      0x05\n        /* \"contracts/ergasia.sol\":5497:5515  pollingStations[i] */\n      0x00\n        /* \"contracts/ergasia.sol\":5513:5514  i */\n      dup4\n        /* \"contracts/ergasia.sol\":5497:5515  pollingStations[i] */\n      dup2\n      mstore\n      0x20\n      add\n      swap1\n      dup2\n      mstore\n      0x20\n      add\n      0x00\n      keccak256\n        /* \"contracts/ergasia.sol\":5497:5518  pollingStations[i].id */\n      0x00\n      add\n      sload\n        /* \"contracts/ergasia.sol\":5497:5532  pollingStations[i].id == _stationID */\n      eq\n        /* \"contracts/ergasia.sol\":5493:5627  if (pollingStations[i].id == _stationID) {... */\n      iszero\n      tag_113\n      jumpi\n        /* \"contracts/ergasia.sol\":5552:5567  pollingStations */\n      0x05\n        /* \"contracts/ergasia.sol\":5552:5570  pollingStations[i] */\n      0x00\n        /* \"contracts/ergasia.sol\":5568:5569  i */\n      dup3\n        /* \"contracts/ergasia.sol\":5552:5570  pollingStations[i] */\n      dup2\n      mstore\n      0x20\n      add\n      swap1\n      dup2\n      mstore\n      0x20\n      add\n      0x00\n      keccak256\n        /* \"contracts/ergasia.sol\":5552:5587  pollingStations[i].votersRegistered */\n      0x02\n      add\n      0x00\n        /* \"contracts/ergasia.sol\":5552:5589  pollingStations[i].votersRegistered++ */\n      dup2\n      sload\n      dup1\n      swap3\n      swap2\n      swap1\n      tag_114\n      swap1\n      tag_103\n      jump\t// in\n    tag_114:\n      swap2\n      swap1\n      pop\n      sstore\n      pop\n        /* \"contracts/ergasia.sol\":5607:5612  break */\n      jump(tag_111)\n        /* \"contracts/ergasia.sol\":5493:5627  if (pollingStations[i].id == _stationID) {... */\n    tag_113:\n        /* \"contracts/ergasia.sol\":5474:5477  i++ */\n      dup1\n      dup1\n      tag_115\n      swap1\n      tag_103\n      jump\t// in\n    tag_115:\n      swap2\n      pop\n      pop\n        /* \"contracts/ergasia.sol\":5431:5637  for (uint i = 1; i <= pollingStationCount; i++) {... */\n      jump(tag_110)\n    tag_111:\n      pop\n        /* \"contracts/ergasia.sol\":5361:5643  function registerAtPollingStation(uint _stationID) internal {... */\n      pop\n      jump\t// out\n    tag_99:\n      mload(0x40)\n      dup1\n      0xa0\n      add\n      0x40\n      mstore\n      dup1\n      iszero(iszero(0x00))\n      dup2\n      mstore\n      0x20\n      add\n      iszero(iszero(0x00))\n      dup2\n      mstore\n      0x20\n      add\n      0x00\n      dup2\n      mstore\n      0x20\n      add\n      0x00\n      dup2\n      mstore\n      0x20\n      add\n      0x00\n      dup2\n      mstore\n      pop\n      swap1\n      jump\t// out\n        /* \"#utility.yul\":7:146   */\n    tag_117:\n        /* \"#utility.yul\":53:58   */\n      0x00\n        /* \"#utility.yul\":91:97   */\n      dup2\n        /* \"#utility.yul\":78:98   */\n      calldataload\n        /* \"#utility.yul\":69:98   */\n      swap1\n      pop\n        /* \"#utility.yul\":107:140   */\n      tag_119\n        /* \"#utility.yul\":134:139   */\n      dup2\n        /* \"#utility.yul\":107:140   */\n      tag_120\n      jump\t// in\n    tag_119:\n        /* \"#utility.yul\":7:146   */\n      swap3\n      swap2\n      pop\n      pop\n      jump\t// out\n        /* \"#utility.yul\":152:291   */\n    tag_121:\n        /* \"#utility.yul\":198:203   */\n      0x00\n        /* \"#utility.yul\":236:242   */\n      dup2\n        /* \"#utility.yul\":223:243   */\n      calldataload\n        /* \"#utility.yul\":214:243   */\n      swap1\n      pop\n        /* \"#utility.yul\":252:285   */\n      tag_123\n        /* \"#utility.yul\":279:284   */\n      dup2\n        /* \"#utility.yul\":252:285   */\n      tag_124\n      jump\t// in\n    tag_123:\n        /* \"#utility.yul\":152:291   */\n      swap3\n      swap2\n      pop\n      pop\n      jump\t// out\n        /* \"#utility.yul\":297:626   */\n    tag_30:\n        /* \"#utility.yul\":356:362   */\n      0x00\n        /* \"#utility.yul\":405:407   */\n      0x20\n        /* \"#utility.yul\":393:402   */\n      dup3\n        /* \"#utility.yul\":384:391   */\n      dup5\n        /* \"#utility.yul\":380:403   */\n      sub\n        /* \"#utility.yul\":376:408   */\n      slt\n        /* \"#utility.yul\":373:492   */\n      iszero\n      tag_126\n      jumpi\n        /* \"#utility.yul\":411:490   */\n      tag_127\n      tag_128\n      jump\t// in\n    tag_127:\n        /* \"#utility.yul\":373:492   */\n    tag_126:\n        /* \"#utility.yul\":531:532   */\n      0x00\n        /* \"#utility.yul\":556:609   */\n      tag_129\n        /* \"#utility.yul\":601:608   */\n      dup5\n        /* \"#utility.yul\":592:598   */\n      dup3\n        /* \"#utility.yul\":581:590   */\n      dup6\n        /* \"#utility.yul\":577:599   */\n      add\n        /* \"#utility.yul\":556:609   */\n      tag_117\n      jump\t// in\n    tag_129:\n        /* \"#utility.yul\":546:609   */\n      swap2\n      pop\n        /* \"#utility.yul\":502:619   */\n      pop\n        /* \"#utility.yul\":297:626   */\n      swap3\n      swap2\n      pop\n      pop\n      jump\t// out\n        /* \"#utility.yul\":632:1106   */\n    tag_47:\n        /* \"#utility.yul\":700:706   */\n      0x00\n        /* \"#utility.yul\":708:714   */\n      dup1\n        /* \"#utility.yul\":757:759   */\n      0x40\n        /* \"#utility.yul\":745:754   */\n      dup4\n        /* \"#utility.yul\":736:743   */\n      dup6\n        /* \"#utility.yul\":732:755   */\n      sub\n        /* \"#utility.yul\":728:760   */\n      slt\n        /* \"#utility.yul\":725:844   */\n      iszero\n      tag_131\n      jumpi\n        /* \"#utility.yul\":763:842   */\n      tag_132\n      tag_128\n      jump\t// in\n    tag_132:\n        /* \"#utility.yul\":725:844   */\n    tag_131:\n        /* \"#utility.yul\":883:884   */\n      0x00\n        /* \"#utility.yul\":908:961   */\n      tag_133\n        /* \"#utility.yul\":953:960   */\n      dup6\n        /* \"#utility.yul\":944:950   */\n      dup3\n        /* \"#utility.yul\":933:942   */\n      dup7\n        /* \"#utility.yul\":929:951   */\n      add\n        /* \"#utility.yul\":908:961   */\n      tag_117\n      jump\t// in\n    tag_133:\n        /* \"#utility.yul\":898:961   */\n      swap3\n      pop\n        /* \"#utility.yul\":854:971   */\n      pop\n        /* \"#utility.yul\":1010:1012   */\n      0x20\n        /* \"#utility.yul\":1036:1089   */\n      tag_134\n        /* \"#utility.yul\":1081:1088   */\n      dup6\n        /* \"#utility.yul\":1072:1078   */\n      dup3\n        /* \"#utility.yul\":1061:1070   */\n      dup7\n        /* \"#utility.yul\":1057:1079   */\n      add\n        /* \"#utility.yul\":1036:1089   */\n      tag_121\n      jump\t// in\n    tag_134:\n        /* \"#utility.yul\":1026:1089   */\n      swap2\n      pop\n        /* \"#utility.yul\":981:1099   */\n      pop\n        /* \"#utility.yul\":632:1106   */\n      swap3\n      pop\n      swap3\n      swap1\n      pop\n      jump\t// out\n        /* \"#utility.yul\":1112:1441   */\n    tag_24:\n        /* \"#utility.yul\":1171:1177   */\n      0x00\n        /* \"#utility.yul\":1220:1222   */\n      0x20\n        /* \"#utility.yul\":1208:1217   */\n      dup3\n        /* \"#utility.yul\":1199:1206   */\n      dup5\n        /* \"#utility.yul\":1195:1218   */\n      sub\n        /* \"#utility.yul\":1191:1223   */\n      slt\n        /* \"#utility.yul\":1188:1307   */\n      iszero\n      tag_136\n      jumpi\n        /* \"#utility.yul\":1226:1305   */\n      tag_137\n      tag_128\n      jump\t// in\n    tag_137:\n        /* \"#utility.yul\":1188:1307   */\n    tag_136:\n        /* \"#utility.yul\":1346:1347   */\n      0x00\n        /* \"#utility.yul\":1371:1424   */\n      tag_138\n        /* \"#utility.yul\":1416:1423   */\n      dup5\n        /* \"#utility.yul\":1407:1413   */\n      dup3\n        /* \"#utility.yul\":1396:1405   */\n      dup6\n        /* \"#utility.yul\":1392:1414   */\n      add\n        /* \"#utility.yul\":1371:1424   */\n      tag_121\n      jump\t// in\n    tag_138:\n        /* \"#utility.yul\":1361:1424   */\n      swap2\n      pop\n        /* \"#utility.yul\":1317:1434   */\n      pop\n        /* \"#utility.yul\":1112:1441   */\n      swap3\n      swap2\n      pop\n      pop\n      jump\t// out\n        /* \"#utility.yul\":1447:1565   */\n    tag_139:\n        /* \"#utility.yul\":1534:1558   */\n      tag_141\n        /* \"#utility.yul\":1552:1557   */\n      dup2\n        /* \"#utility.yul\":1534:1558   */\n      tag_142\n      jump\t// in\n    tag_141:\n        /* \"#utility.yul\":1529:1532   */\n      dup3\n        /* \"#utility.yul\":1522:1559   */\n      mstore\n        /* \"#utility.yul\":1447:1565   */\n      pop\n      pop\n      jump\t// out\n        /* \"#utility.yul\":1571:1680   */\n    tag_143:\n        /* \"#utility.yul\":1652:1673   */\n      tag_145\n        /* \"#utility.yul\":1667:1672   */\n      dup2\n        /* \"#utility.yul\":1652:1673   */\n      tag_146\n      jump\t// in\n    tag_145:\n        /* \"#utility.yul\":1647:1650   */\n      dup3\n        /* \"#utility.yul\":1640:1674   */\n      mstore\n        /* \"#utility.yul\":1571:1680   */\n      pop\n      pop\n      jump\t// out\n        /* \"#utility.yul\":1686:1829   */\n    tag_147:\n        /* \"#utility.yul\":1779:1822   */\n      tag_149\n        /* \"#utility.yul\":1816:1821   */\n      dup2\n        /* \"#utility.yul\":1779:1822   */\n      tag_150\n      jump\t// in\n    tag_149:\n        /* \"#utility.yul\":1774:1777   */\n      dup3\n        /* \"#utility.yul\":1767:1823   */\n      mstore\n        /* \"#utility.yul\":1686:1829   */\n      pop\n      pop\n      jump\t// out\n        /* \"#utility.yul\":1835:1950   */\n    tag_151:\n        /* \"#utility.yul\":1920:1943   */\n      tag_153\n        /* \"#utility.yul\":1937:1942   */\n      dup2\n        /* \"#utility.yul\":1920:1943   */\n      tag_154\n      jump\t// in\n    tag_153:\n        /* \"#utility.yul\":1915:1918   */\n      dup3\n        /* \"#utility.yul\":1908:1944   */\n      mstore\n        /* \"#utility.yul\":1835:1950   */\n      pop\n      pop\n      jump\t// out\n        /* \"#utility.yul\":1956:2320   */\n    tag_155:\n        /* \"#utility.yul\":2044:2047   */\n      0x00\n        /* \"#utility.yul\":2072:2111   */\n      tag_157\n        /* \"#utility.yul\":2105:2110   */\n      dup3\n        /* \"#utility.yul\":2072:2111   */\n      tag_158\n      jump\t// in\n    tag_157:\n        /* \"#utility.yul\":2127:2198   */\n      tag_159\n        /* \"#utility.yul\":2191:2197   */\n      dup2\n        /* \"#utility.yul\":2186:2189   */\n      dup6\n        /* \"#utility.yul\":2127:2198   */\n      tag_160\n      jump\t// in\n    tag_159:\n        /* \"#utility.yul\":2120:2198   */\n      swap4\n      pop\n        /* \"#utility.yul\":2207:2259   */\n      tag_161\n        /* \"#utility.yul\":2252:2258   */\n      dup2\n        /* \"#utility.yul\":2247:2250   */\n      dup6\n        /* \"#utility.yul\":2240:2244   */\n      0x20\n        /* \"#utility.yul\":2233:2238   */\n      dup7\n        /* \"#utility.yul\":2229:2245   */\n      add\n        /* \"#utility.yul\":2207:2259   */\n      tag_162\n      jump\t// in\n    tag_161:\n        /* \"#utility.yul\":2284:2313   */\n      tag_163\n        /* \"#utility.yul\":2306:2312   */\n      dup2\n        /* \"#utility.yul\":2284:2313   */\n      tag_164\n      jump\t// in\n    tag_163:\n        /* \"#utility.yul\":2279:2282   */\n      dup5\n        /* \"#utility.yul\":2275:2314   */\n      add\n        /* \"#utility.yul\":2268:2314   */\n      swap2\n      pop\n        /* \"#utility.yul\":2048:2320   */\n      pop\n        /* \"#utility.yul\":1956:2320   */\n      swap3\n      swap2\n      pop\n      pop\n      jump\t// out\n        /* \"#utility.yul\":2326:2692   */\n    tag_165:\n        /* \"#utility.yul\":2468:2471   */\n      0x00\n        /* \"#utility.yul\":2489:2556   */\n      tag_167\n        /* \"#utility.yul\":2553:2555   */\n      0x21\n        /* \"#utility.yul\":2548:2551   */\n      dup4\n        /* \"#utility.yul\":2489:2556   */\n      tag_160\n      jump\t// in\n    tag_167:\n        /* \"#utility.yul\":2482:2556   */\n      swap2\n      pop\n        /* \"#utility.yul\":2565:2658   */\n      tag_168\n        /* \"#utility.yul\":2654:2657   */\n      dup3\n        /* \"#utility.yul\":2565:2658   */\n      tag_169\n      jump\t// in\n    tag_168:\n        /* \"#utility.yul\":2683:2685   */\n      0x40\n        /* \"#utility.yul\":2678:2681   */\n      dup3\n        /* \"#utility.yul\":2674:2686   */\n      add\n        /* \"#utility.yul\":2667:2686   */\n      swap1\n      pop\n        /* \"#utility.yul\":2326:2692   */\n      swap2\n      swap1\n      pop\n      jump\t// out\n        /* \"#utility.yul\":2698:3064   */\n    tag_170:\n        /* \"#utility.yul\":2840:2843   */\n      0x00\n        /* \"#utility.yul\":2861:2928   */\n      tag_172\n        /* \"#utility.yul\":2925:2927   */\n      0x2a\n        /* \"#utility.yul\":2920:2923   */\n      dup4\n        /* \"#utility.yul\":2861:2928   */\n      tag_160\n      jump\t// in\n    tag_172:\n        /* \"#utility.yul\":2854:2928   */\n      swap2\n      pop\n        /* \"#utility.yul\":2937:3030   */\n      tag_173\n        /* \"#utility.yul\":3026:3029   */\n      dup3\n        /* \"#utility.yul\":2937:3030   */\n      tag_174\n      jump\t// in\n    tag_173:\n        /* \"#utility.yul\":3055:3057   */\n      0x40\n        /* \"#utility.yul\":3050:3053   */\n      dup3\n        /* \"#utility.yul\":3046:3058   */\n      add\n        /* \"#utility.yul\":3039:3058   */\n      swap1\n      pop\n        /* \"#utility.yul\":2698:3064   */\n      swap2\n      swap1\n      pop\n      jump\t// out\n        /* \"#utility.yul\":3070:3436   */\n    tag_175:\n        /* \"#utility.yul\":3212:3215   */\n      0x00\n        /* \"#utility.yul\":3233:3300   */\n      tag_177\n        /* \"#utility.yul\":3297:3299   */\n      0x1c\n        /* \"#utility.yul\":3292:3295   */\n      dup4\n        /* \"#utility.yul\":3233:3300   */\n      tag_160\n      jump\t// in\n    tag_177:\n        /* \"#utility.yul\":3226:3300   */\n      swap2\n      pop\n        /* \"#utility.yul\":3309:3402   */\n      tag_178\n        /* \"#utility.yul\":3398:3401   */\n      dup3\n        /* \"#utility.yul\":3309:3402   */\n      tag_179\n      jump\t// in\n    tag_178:\n        /* \"#utility.yul\":3427:3429   */\n      0x20\n        /* \"#utility.yul\":3422:3425   */\n      dup3\n        /* \"#utility.yul\":3418:3430   */\n      add\n        /* \"#utility.yul\":3411:3430   */\n      swap1\n      pop\n        /* \"#utility.yul\":3070:3436   */\n      swap2\n      swap1\n      pop\n      jump\t// out\n        /* \"#utility.yul\":3442:3560   */\n    tag_180:\n        /* \"#utility.yul\":3529:3553   */\n      tag_182\n        /* \"#utility.yul\":3547:3552   */\n      dup2\n        /* \"#utility.yul\":3529:3553   */\n      tag_183\n      jump\t// in\n    tag_182:\n        /* \"#utility.yul\":3524:3527   */\n      dup3\n        /* \"#utility.yul\":3517:3554   */\n      mstore\n        /* \"#utility.yul\":3442:3560   */\n      pop\n      pop\n      jump\t// out\n        /* \"#utility.yul\":3566:3788   */\n    tag_39:\n        /* \"#utility.yul\":3659:3663   */\n      0x00\n        /* \"#utility.yul\":3697:3699   */\n      0x20\n        /* \"#utility.yul\":3686:3695   */\n      dup3\n        /* \"#utility.yul\":3682:3700   */\n      add\n        /* \"#utility.yul\":3674:3700   */\n      swap1\n      pop\n        /* \"#utility.yul\":3710:3781   */\n      tag_185\n        /* \"#utility.yul\":3778:3779   */\n      0x00\n        /* \"#utility.yul\":3767:3776   */\n      dup4\n        /* \"#utility.yul\":3763:3780   */\n      add\n        /* \"#utility.yul\":3754:3760   */\n      dup5\n        /* \"#utility.yul\":3710:3781   */\n      tag_139\n      jump\t// in\n    tag_185:\n        /* \"#utility.yul\":3566:3788   */\n      swap3\n      swap2\n      pop\n      pop\n      jump\t// out\n        /* \"#utility.yul\":3794:4004   */\n    tag_44:\n        /* \"#utility.yul\":3881:3885   */\n      0x00\n        /* \"#utility.yul\":3919:3921   */\n      0x20\n        /* \"#utility.yul\":3908:3917   */\n      dup3\n        /* \"#utility.yul\":3904:3922   */\n      add\n        /* \"#utility.yul\":3896:3922   */\n      swap1\n      pop\n        /* \"#utility.yul\":3932:3997   */\n      tag_187\n        /* \"#utility.yul\":3994:3995   */\n      0x00\n        /* \"#utility.yul\":3983:3992   */\n      dup4\n        /* \"#utility.yul\":3979:3996   */\n      add\n        /* \"#utility.yul\":3970:3976   */\n      dup5\n        /* \"#utility.yul\":3932:3997   */\n      tag_143\n      jump\t// in\n    tag_187:\n        /* \"#utility.yul\":3794:4004   */\n      swap3\n      swap2\n      pop\n      pop\n      jump\t// out\n        /* \"#utility.yul\":4010:4646   */\n    tag_33:\n        /* \"#utility.yul\":4201:4205   */\n      0x00\n        /* \"#utility.yul\":4239:4242   */\n      0xa0\n        /* \"#utility.yul\":4228:4237   */\n      dup3\n        /* \"#utility.yul\":4224:4243   */\n      add\n        /* \"#utility.yul\":4216:4243   */\n      swap1\n      pop\n        /* \"#utility.yul\":4253:4318   */\n      tag_189\n        /* \"#utility.yul\":4315:4316   */\n      0x00\n        /* \"#utility.yul\":4304:4313   */\n      dup4\n        /* \"#utility.yul\":4300:4317   */\n      add\n        /* \"#utility.yul\":4291:4297   */\n      dup9\n        /* \"#utility.yul\":4253:4318   */\n      tag_143\n      jump\t// in\n    tag_189:\n        /* \"#utility.yul\":4328:4394   */\n      tag_190\n        /* \"#utility.yul\":4390:4392   */\n      0x20\n        /* \"#utility.yul\":4379:4388   */\n      dup4\n        /* \"#utility.yul\":4375:4393   */\n      add\n        /* \"#utility.yul\":4366:4372   */\n      dup8\n        /* \"#utility.yul\":4328:4394   */\n      tag_143\n      jump\t// in\n    tag_190:\n        /* \"#utility.yul\":4404:4474   */\n      tag_191\n        /* \"#utility.yul\":4470:4472   */\n      0x40\n        /* \"#utility.yul\":4459:4468   */\n      dup4\n        /* \"#utility.yul\":4455:4473   */\n      add\n        /* \"#utility.yul\":4446:4452   */\n      dup7\n        /* \"#utility.yul\":4404:4474   */\n      tag_151\n      jump\t// in\n    tag_191:\n        /* \"#utility.yul\":4484:4556   */\n      tag_192\n        /* \"#utility.yul\":4552:4554   */\n      0x60\n        /* \"#utility.yul\":4541:4550   */\n      dup4\n        /* \"#utility.yul\":4537:4555   */\n      add\n        /* \"#utility.yul\":4528:4534   */\n      dup6\n        /* \"#utility.yul\":4484:4556   */\n      tag_180\n      jump\t// in\n    tag_192:\n        /* \"#utility.yul\":4566:4639   */\n      tag_193\n        /* \"#utility.yul\":4634:4637   */\n      0x80\n        /* \"#utility.yul\":4623:4632   */\n      dup4\n        /* \"#utility.yul\":4619:4638   */\n      add\n        /* \"#utility.yul\":4610:4616   */\n      dup5\n        /* \"#utility.yul\":4566:4639   */\n      tag_180\n      jump\t// in\n    tag_193:\n        /* \"#utility.yul\":4010:4646   */\n      swap7\n      swap6\n      pop\n      pop\n      pop\n      pop\n      pop\n      pop\n      jump\t// out\n        /* \"#utility.yul\":4652:4886   */\n    tag_52:\n        /* \"#utility.yul\":4751:4755   */\n      0x00\n        /* \"#utility.yul\":4789:4791   */\n      0x20\n        /* \"#utility.yul\":4778:4787   */\n      dup3\n        /* \"#utility.yul\":4774:4792   */\n      add\n        /* \"#utility.yul\":4766:4792   */\n      swap1\n      pop\n        /* \"#utility.yul\":4802:4879   */\n      tag_195\n        /* \"#utility.yul\":4876:4877   */\n      0x00\n        /* \"#utility.yul\":4865:4874   */\n      dup4\n        /* \"#utility.yul\":4861:4878   */\n      add\n        /* \"#utility.yul\":4852:4858   */\n      dup5\n        /* \"#utility.yul\":4802:4879   */\n      tag_147\n      jump\t// in\n    tag_195:\n        /* \"#utility.yul\":4652:4886   */\n      swap3\n      swap2\n      pop\n      pop\n      jump\t// out\n        /* \"#utility.yul\":4892:5311   */\n    tag_93:\n        /* \"#utility.yul\":5058:5062   */\n      0x00\n        /* \"#utility.yul\":5096:5098   */\n      0x20\n        /* \"#utility.yul\":5085:5094   */\n      dup3\n        /* \"#utility.yul\":5081:5099   */\n      add\n        /* \"#utility.yul\":5073:5099   */\n      swap1\n      pop\n        /* \"#utility.yul\":5145:5154   */\n      dup2\n        /* \"#utility.yul\":5139:5143   */\n      dup2\n        /* \"#utility.yul\":5135:5155   */\n      sub\n        /* \"#utility.yul\":5131:5132   */\n      0x00\n        /* \"#utility.yul\":5120:5129   */\n      dup4\n        /* \"#utility.yul\":5116:5133   */\n      add\n        /* \"#utility.yul\":5109:5156   */\n      mstore\n        /* \"#utility.yul\":5173:5304   */\n      tag_197\n        /* \"#utility.yul\":5299:5303   */\n      dup2\n        /* \"#utility.yul\":5173:5304   */\n      tag_165\n      jump\t// in\n    tag_197:\n        /* \"#utility.yul\":5165:5304   */\n      swap1\n      pop\n        /* \"#utility.yul\":4892:5311   */\n      swap2\n      swap1\n      pop\n      jump\t// out\n        /* \"#utility.yul\":5317:5736   */\n    tag_97:\n        /* \"#utility.yul\":5483:5487   */\n      0x00\n        /* \"#utility.yul\":5521:5523   */\n      0x20\n        /* \"#utility.yul\":5510:5519   */\n      dup3\n        /* \"#utility.yul\":5506:5524   */\n      add\n        /* \"#utility.yul\":5498:5524   */\n      swap1\n      pop\n        /* \"#utility.yul\":5570:5579   */\n      dup2\n        /* \"#utility.yul\":5564:5568   */\n      dup2\n        /* \"#utility.yul\":5560:5580   */\n      sub\n        /* \"#utility.yul\":5556:5557   */\n      0x00\n        /* \"#utility.yul\":5545:5554   */\n      dup4\n        /* \"#utility.yul\":5541:5558   */\n      add\n        /* \"#utility.yul\":5534:5581   */\n      mstore\n        /* \"#utility.yul\":5598:5729   */\n      tag_199\n        /* \"#utility.yul\":5724:5728   */\n      dup2\n        /* \"#utility.yul\":5598:5729   */\n      tag_170\n      jump\t// in\n    tag_199:\n        /* \"#utility.yul\":5590:5729   */\n      swap1\n      pop\n        /* \"#utility.yul\":5317:5736   */\n      swap2\n      swap1\n      pop\n      jump\t// out\n        /* \"#utility.yul\":5742:6161   */\n    tag_90:\n        /* \"#utility.yul\":5908:5912   */\n      0x00\n        /* \"#utility.yul\":5946:5948   */\n      0x20\n        /* \"#utility.yul\":5935:5944   */\n      dup3\n        /* \"#utility.yul\":5931:5949   */\n      add\n        /* \"#utility.yul\":5923:5949   */\n      swap1\n      pop\n        /* \"#utility.yul\":5995:6004   */\n      dup2\n        /* \"#utility.yul\":5989:5993   */\n      dup2\n        /* \"#utility.yul\":5985:6005   */\n      sub\n        /* \"#utility.yul\":5981:5982   */\n      0x00\n        /* \"#utility.yul\":5970:5979   */\n      dup4\n        /* \"#utility.yul\":5966:5983   */\n      add\n        /* \"#utility.yul\":5959:6006   */\n      mstore\n        /* \"#utility.yul\":6023:6154   */\n      tag_201\n        /* \"#utility.yul\":6149:6153   */\n      dup2\n        /* \"#utility.yul\":6023:6154   */\n      tag_175\n      jump\t// in\n    tag_201:\n        /* \"#utility.yul\":6015:6154   */\n      swap1\n      pop\n        /* \"#utility.yul\":5742:6161   */\n      swap2\n      swap1\n      pop\n      jump\t// out\n        /* \"#utility.yul\":6167:6389   */\n    tag_18:\n        /* \"#utility.yul\":6260:6264   */\n      0x00\n        /* \"#utility.yul\":6298:6300   */\n      0x20\n        /* \"#utility.yul\":6287:6296   */\n      dup3\n        /* \"#utility.yul\":6283:6301   */\n      add\n        /* \"#utility.yul\":6275:6301   */\n      swap1\n      pop\n        /* \"#utility.yul\":6311:6382   */\n      tag_203\n        /* \"#utility.yul\":6379:6380   */\n      0x00\n        /* \"#utility.yul\":6368:6377   */\n      dup4\n        /* \"#utility.yul\":6364:6381   */\n      add\n        /* \"#utility.yul\":6355:6361   */\n      dup5\n        /* \"#utility.yul\":6311:6382   */\n      tag_180\n      jump\t// in\n    tag_203:\n        /* \"#utility.yul\":6167:6389   */\n      swap3\n      swap2\n      pop\n      pop\n      jump\t// out\n        /* \"#utility.yul\":6395:6928   */\n    tag_27:\n        /* \"#utility.yul\":6564:6568   */\n      0x00\n        /* \"#utility.yul\":6602:6604   */\n      0x60\n        /* \"#utility.yul\":6591:6600   */\n      dup3\n        /* \"#utility.yul\":6587:6605   */\n      add\n        /* \"#utility.yul\":6579:6605   */\n      swap1\n      pop\n        /* \"#utility.yul\":6615:6686   */\n      tag_205\n        /* \"#utility.yul\":6683:6684   */\n      0x00\n        /* \"#utility.yul\":6672:6681   */\n      dup4\n        /* \"#utility.yul\":6668:6685   */\n      add\n        /* \"#utility.yul\":6659:6665   */\n      dup7\n        /* \"#utility.yul\":6615:6686   */\n      tag_180\n      jump\t// in\n    tag_205:\n        /* \"#utility.yul\":6733:6742   */\n      dup2\n        /* \"#utility.yul\":6727:6731   */\n      dup2\n        /* \"#utility.yul\":6723:6743   */\n      sub\n        /* \"#utility.yul\":6718:6720   */\n      0x20\n        /* \"#utility.yul\":6707:6716   */\n      dup4\n        /* \"#utility.yul\":6703:6721   */\n      add\n        /* \"#utility.yul\":6696:6744   */\n      mstore\n        /* \"#utility.yul\":6761:6839   */\n      tag_206\n        /* \"#utility.yul\":6834:6838   */\n      dup2\n        /* \"#utility.yul\":6825:6831   */\n      dup6\n        /* \"#utility.yul\":6761:6839   */\n      tag_155\n      jump\t// in\n    tag_206:\n        /* \"#utility.yul\":6753:6839   */\n      swap1\n      pop\n        /* \"#utility.yul\":6849:6921   */\n      tag_207\n        /* \"#utility.yul\":6917:6919   */\n      0x40\n        /* \"#utility.yul\":6906:6915   */\n      dup4\n        /* \"#utility.yul\":6902:6920   */\n      add\n        /* \"#utility.yul\":6893:6899   */\n      dup5\n        /* \"#utility.yul\":6849:6921   */\n      tag_180\n      jump\t// in\n    tag_207:\n        /* \"#utility.yul\":6395:6928   */\n      swap5\n      swap4\n      pop\n      pop\n      pop\n      pop\n      jump\t// out\n        /* \"#utility.yul\":6934:7578   */\n    tag_60:\n        /* \"#utility.yul\":7131:7135   */\n      0x00\n        /* \"#utility.yul\":7169:7172   */\n      0x80\n        /* \"#utility.yul\":7158:7167   */\n      dup3\n        /* \"#utility.yul\":7154:7173   */\n      add\n        /* \"#utility.yul\":7146:7173   */\n      swap1\n      pop\n        /* \"#utility.yul\":7183:7254   */\n      tag_209\n        /* \"#utility.yul\":7251:7252   */\n      0x00\n        /* \"#utility.yul\":7240:7249   */\n      dup4\n        /* \"#utility.yul\":7236:7253   */\n      add\n        /* \"#utility.yul\":7227:7233   */\n      dup8\n        /* \"#utility.yul\":7183:7254   */\n      tag_180\n      jump\t// in\n    tag_209:\n        /* \"#utility.yul\":7301:7310   */\n      dup2\n        /* \"#utility.yul\":7295:7299   */\n      dup2\n        /* \"#utility.yul\":7291:7311   */\n      sub\n        /* \"#utility.yul\":7286:7288   */\n      0x20\n        /* \"#utility.yul\":7275:7284   */\n      dup4\n        /* \"#utility.yul\":7271:7289   */\n      add\n        /* \"#utility.yul\":7264:7312   */\n      mstore\n        /* \"#utility.yul\":7329:7407   */\n      tag_210\n        /* \"#utility.yul\":7402:7406   */\n      dup2\n        /* \"#utility.yul\":7393:7399   */\n      dup7\n        /* \"#utility.yul\":7329:7407   */\n      tag_155\n      jump\t// in\n    tag_210:\n        /* \"#utility.yul\":7321:7407   */\n      swap1\n      pop\n        /* \"#utility.yul\":7417:7489   */\n      tag_211\n        /* \"#utility.yul\":7485:7487   */\n      0x40\n        /* \"#utility.yul\":7474:7483   */\n      dup4\n        /* \"#utility.yul\":7470:7488   */\n      add\n        /* \"#utility.yul\":7461:7467   */\n      dup6\n        /* \"#utility.yul\":7417:7489   */\n      tag_180\n      jump\t// in\n    tag_211:\n        /* \"#utility.yul\":7499:7571   */\n      tag_212\n        /* \"#utility.yul\":7567:7569   */\n      0x60\n        /* \"#utility.yul\":7556:7565   */\n      dup4\n        /* \"#utility.yul\":7552:7570   */\n      add\n        /* \"#utility.yul\":7543:7549   */\n      dup5\n        /* \"#utility.yul\":7499:7571   */\n      tag_180\n      jump\t// in\n    tag_212:\n        /* \"#utility.yul\":6934:7578   */\n      swap6\n      swap5\n      pop\n      pop\n      pop\n      pop\n      pop\n      jump\t// out\n        /* \"#utility.yul\":7665:7764   */\n    tag_158:\n        /* \"#utility.yul\":7717:7723   */\n      0x00\n        /* \"#utility.yul\":7751:7756   */\n      dup2\n        /* \"#utility.yul\":7745:7757   */\n      mload\n        /* \"#utility.yul\":7735:7757   */\n      swap1\n      pop\n        /* \"#utility.yul\":7665:7764   */\n      swap2\n      swap1\n      pop\n      jump\t// out\n        /* \"#utility.yul\":7770:7939   */\n    tag_160:\n        /* \"#utility.yul\":7854:7865   */\n      0x00\n        /* \"#utility.yul\":7888:7894   */\n      dup3\n        /* \"#utility.yul\":7883:7886   */\n      dup3\n        /* \"#utility.yul\":7876:7895   */\n      mstore\n        /* \"#utility.yul\":7928:7932   */\n      0x20\n        /* \"#utility.yul\":7923:7926   */\n      dup3\n        /* \"#utility.yul\":7919:7933   */\n      add\n        /* \"#utility.yul\":7904:7933   */\n      swap1\n      pop\n        /* \"#utility.yul\":7770:7939   */\n      swap3\n      swap2\n      pop\n      pop\n      jump\t// out\n        /* \"#utility.yul\":7945:8041   */\n    tag_142:\n        /* \"#utility.yul\":7982:7989   */\n      0x00\n        /* \"#utility.yul\":8011:8035   */\n      tag_218\n        /* \"#utility.yul\":8029:8034   */\n      dup3\n        /* \"#utility.yul\":8011:8035   */\n      tag_219\n      jump\t// in\n    tag_218:\n        /* \"#utility.yul\":8000:8035   */\n      swap1\n      pop\n        /* \"#utility.yul\":7945:8041   */\n      swap2\n      swap1\n      pop\n      jump\t// out\n        /* \"#utility.yul\":8047:8137   */\n    tag_146:\n        /* \"#utility.yul\":8081:8088   */\n      0x00\n        /* \"#utility.yul\":8124:8129   */\n      dup2\n        /* \"#utility.yul\":8117:8130   */\n      iszero\n        /* \"#utility.yul\":8110:8131   */\n      iszero\n        /* \"#utility.yul\":8099:8131   */\n      swap1\n      pop\n        /* \"#utility.yul\":8047:8137   */\n      swap2\n      swap1\n      pop\n      jump\t// out\n        /* \"#utility.yul\":8143:8270   */\n    tag_221:\n        /* \"#utility.yul\":8188:8195   */\n      0x00\n        /* \"#utility.yul\":8217:8222   */\n      dup2\n        /* \"#utility.yul\":8206:8222   */\n      swap1\n      pop\n        /* \"#utility.yul\":8223:8264   */\n      tag_223\n        /* \"#utility.yul\":8258:8263   */\n      dup3\n        /* \"#utility.yul\":8223:8264   */\n      tag_224\n      jump\t// in\n    tag_223:\n        /* \"#utility.yul\":8143:8270   */\n      swap2\n      swap1\n      pop\n      jump\t// out\n        /* \"#utility.yul\":8276:8352   */\n    tag_154:\n        /* \"#utility.yul\":8312:8319   */\n      0x00\n        /* \"#utility.yul\":8341:8346   */\n      dup2\n        /* \"#utility.yul\":8330:8346   */\n      swap1\n      pop\n        /* \"#utility.yul\":8276:8352   */\n      swap2\n      swap1\n      pop\n      jump\t// out\n        /* \"#utility.yul\":8358:8484   */\n    tag_219:\n        /* \"#utility.yul\":8395:8402   */\n      0x00\n        /* \"#utility.yul\":8435:8477   */\n      0xffffffffffffffffffffffffffffffffffffffff\n        /* \"#utility.yul\":8428:8433   */\n      dup3\n        /* \"#utility.yul\":8424:8478   */\n      and\n        /* \"#utility.yul\":8413:8478   */\n      swap1\n      pop\n        /* \"#utility.yul\":8358:8484   */\n      swap2\n      swap1\n      pop\n      jump\t// out\n        /* \"#utility.yul\":8490:8567   */\n    tag_183:\n        /* \"#utility.yul\":8527:8534   */\n      0x00\n        /* \"#utility.yul\":8556:8561   */\n      dup2\n        /* \"#utility.yul\":8545:8561   */\n      swap1\n      pop\n        /* \"#utility.yul\":8490:8567   */\n      swap2\n      swap1\n      pop\n      jump\t// out\n        /* \"#utility.yul\":8573:8700   */\n    tag_150:\n        /* \"#utility.yul\":8629:8638   */\n      0x00\n        /* \"#utility.yul\":8662:8694   */\n      tag_229\n        /* \"#utility.yul\":8688:8693   */\n      dup3\n        /* \"#utility.yul\":8662:8694   */\n      tag_221\n      jump\t// in\n    tag_229:\n        /* \"#utility.yul\":8649:8694   */\n      swap1\n      pop\n        /* \"#utility.yul\":8573:8700   */\n      swap2\n      swap1\n      pop\n      jump\t// out\n        /* \"#utility.yul\":8706:9013   */\n    tag_162:\n        /* \"#utility.yul\":8774:8775   */\n      0x00\n        /* \"#utility.yul\":8784:8897   */\n    tag_231:\n        /* \"#utility.yul\":8798:8804   */\n      dup4\n        /* \"#utility.yul\":8795:8796   */\n      dup2\n        /* \"#utility.yul\":8792:8805   */\n      lt\n        /* \"#utility.yul\":8784:8897   */\n      iszero\n      tag_233\n      jumpi\n        /* \"#utility.yul\":8883:8884   */\n      dup1\n        /* \"#utility.yul\":8878:8881   */\n      dup3\n        /* \"#utility.yul\":8874:8885   */\n      add\n        /* \"#utility.yul\":8868:8886   */\n      mload\n        /* \"#utility.yul\":8864:8865   */\n      dup2\n        /* \"#utility.yul\":8859:8862   */\n      dup5\n        /* \"#utility.yul\":8855:8866   */\n      add\n        /* \"#utility.yul\":8848:8887   */\n      mstore\n        /* \"#utility.yul\":8820:8822   */\n      0x20\n        /* \"#utility.yul\":8817:8818   */\n      dup2\n        /* \"#utility.yul\":8813:8823   */\n      add\n        /* \"#utility.yul\":8808:8823   */\n      swap1\n      pop\n        /* \"#utility.yul\":8784:8897   */\n      jump(tag_231)\n    tag_233:\n        /* \"#utility.yul\":8915:8921   */\n      dup4\n        /* \"#utility.yul\":8912:8913   */\n      dup2\n        /* \"#utility.yul\":8909:8922   */\n      gt\n        /* \"#utility.yul\":8906:9007   */\n      iszero\n      tag_234\n      jumpi\n        /* \"#utility.yul\":8995:8996   */\n      0x00\n        /* \"#utility.yul\":8986:8992   */\n      dup5\n        /* \"#utility.yul\":8981:8984   */\n      dup5\n        /* \"#utility.yul\":8977:8993   */\n      add\n        /* \"#utility.yul\":8970:8997   */\n      mstore\n        /* \"#utility.yul\":8906:9007   */\n    tag_234:\n        /* \"#utility.yul\":8755:9013   */\n      pop\n        /* \"#utility.yul\":8706:9013   */\n      pop\n      pop\n      pop\n      jump\t// out\n        /* \"#utility.yul\":9019:9339   */\n    tag_62:\n        /* \"#utility.yul\":9063:9069   */\n      0x00\n        /* \"#utility.yul\":9100:9101   */\n      0x02\n        /* \"#utility.yul\":9094:9098   */\n      dup3\n        /* \"#utility.yul\":9090:9102   */\n      div\n        /* \"#utility.yul\":9080:9102   */\n      swap1\n      pop\n        /* \"#utility.yul\":9147:9148   */\n      0x01\n        /* \"#utility.yul\":9141:9145   */\n      dup3\n        /* \"#utility.yul\":9137:9149   */\n      and\n        /* \"#utility.yul\":9168:9186   */\n      dup1\n        /* \"#utility.yul\":9158:9239   */\n      tag_236\n      jumpi\n        /* \"#utility.yul\":9224:9228   */\n      0x7f\n        /* \"#utility.yul\":9216:9222   */\n      dup3\n        /* \"#utility.yul\":9212:9229   */\n      and\n        /* \"#utility.yul\":9202:9229   */\n      swap2\n      pop\n        /* \"#utility.yul\":9158:9239   */\n    tag_236:\n        /* \"#utility.yul\":9286:9288   */\n      0x20\n        /* \"#utility.yul\":9278:9284   */\n      dup3\n        /* \"#utility.yul\":9275:9289   */\n      lt\n        /* \"#utility.yul\":9255:9273   */\n      dup2\n        /* \"#utility.yul\":9252:9290   */\n      eq\n        /* \"#utility.yul\":9249:9333   */\n      iszero\n      tag_237\n      jumpi\n        /* \"#utility.yul\":9305:9323   */\n      tag_238\n      tag_239\n      jump\t// in\n    tag_238:\n        /* \"#utility.yul\":9249:9333   */\n    tag_237:\n        /* \"#utility.yul\":9070:9339   */\n      pop\n        /* \"#utility.yul\":9019:9339   */\n      swap2\n      swap1\n      pop\n      jump\t// out\n        /* \"#utility.yul\":9345:9578   */\n    tag_103:\n        /* \"#utility.yul\":9384:9387   */\n      0x00\n        /* \"#utility.yul\":9407:9431   */\n      tag_241\n        /* \"#utility.yul\":9425:9430   */\n      dup3\n        /* \"#utility.yul\":9407:9431   */\n      tag_183\n      jump\t// in\n    tag_241:\n        /* \"#utility.yul\":9398:9431   */\n      swap2\n      pop\n        /* \"#utility.yul\":9453:9519   */\n      0xffffffffffffffffffffffffffffffffffffffffffffffffffffffffffffffff\n        /* \"#utility.yul\":9446:9451   */\n      dup3\n        /* \"#utility.yul\":9443:9520   */\n      eq\n        /* \"#utility.yul\":9440:9543   */\n      iszero\n      tag_242\n      jumpi\n        /* \"#utility.yul\":9523:9541   */\n      tag_243\n      tag_244\n      jump\t// in\n    tag_243:\n        /* \"#utility.yul\":9440:9543   */\n    tag_242:\n        /* \"#utility.yul\":9570:9571   */\n      0x01\n        /* \"#utility.yul\":9563:9568   */\n      dup3\n        /* \"#utility.yul\":9559:9572   */\n      add\n        /* \"#utility.yul\":9552:9572   */\n      swap1\n      pop\n        /* \"#utility.yul\":9345:9578   */\n      swap2\n      swap1\n      pop\n      jump\t// out\n        /* \"#utility.yul\":9584:9764   */\n    tag_244:\n        /* \"#utility.yul\":9632:9709   */\n      0x4e487b7100000000000000000000000000000000000000000000000000000000\n        /* \"#utility.yul\":9629:9630   */\n      0x00\n        /* \"#utility.yul\":9622:9710   */\n      mstore\n        /* \"#utility.yul\":9729:9733   */\n      0x11\n        /* \"#utility.yul\":9726:9727   */\n      0x04\n        /* \"#utility.yul\":9719:9734   */\n      mstore\n        /* \"#utility.yul\":9753:9757   */\n      0x24\n        /* \"#utility.yul\":9750:9751   */\n      0x00\n        /* \"#utility.yul\":9743:9758   */\n      revert\n        /* \"#utility.yul\":9770:9950   */\n    tag_70:\n        /* \"#utility.yul\":9818:9895   */\n      0x4e487b7100000000000000000000000000000000000000000000000000000000\n        /* \"#utility.yul\":9815:9816   */\n      0x00\n        /* \"#utility.yul\":9808:9896   */\n      mstore\n        /* \"#utility.yul\":9915:9919   */\n      0x21\n        /* \"#utility.yul\":9912:9913   */\n      0x04\n        /* \"#utility.yul\":9905:9920   */\n      mstore\n        /* \"#utility.yul\":9939:9943   */\n      0x24\n        /* \"#utility.yul\":9936:9937   */\n      0x00\n        /* \"#utility.yul\":9929:9944   */\n      revert\n        /* \"#utility.yul\":9956:10136   */\n    tag_239:\n        /* \"#utility.yul\":10004:10081   */\n      0x4e487b7100000000000000000000000000000000000000000000000000000000\n        /* \"#utility.yul\":10001:10002   */\n      0x00\n        /* \"#utility.yul\":9994:10082   */\n      mstore\n        /* \"#utility.yul\":10101:10105   */\n      0x22\n        /* \"#utility.yul\":10098:10099   */\n      0x04\n        /* \"#utility.yul\":10091:10106   */\n      mstore\n        /* \"#utility.yul\":10125:10129   */\n      0x24\n        /* \"#utility.yul\":10122:10123   */\n      0x00\n        /* \"#utility.yul\":10115:10130   */\n      revert\n        /* \"#utility.yul\":10265:10382   */\n    tag_128:\n        /* \"#utility.yul\":10374:10375   */\n      0x00\n        /* \"#utility.yul\":10371:10372   */\n      dup1\n        /* \"#utility.yul\":10364:10376   */\n      revert\n        /* \"#utility.yul\":10388:10490   */\n    tag_164:\n        /* \"#utility.yul\":10429:10435   */\n      0x00\n        /* \"#utility.yul\":10480:10482   */\n      0x1f\n        /* \"#utility.yul\":10476:10483   */\n      not\n        /* \"#utility.yul\":10471:10473   */\n      0x1f\n        /* \"#utility.yul\":10464:10469   */\n      dup4\n        /* \"#utility.yul\":10460:10474   */\n      add\n        /* \"#utility.yul\":10456:10484   */\n      and\n        /* \"#utility.yul\":10446:10484   */\n      swap1\n      pop\n        /* \"#utility.yul\":10388:10490   */\n      swap2\n      swap1\n      pop\n      jump\t// out\n        /* \"#utility.yul\":10496:10716   */\n    tag_169:\n        /* \"#utility.yul\":10636:10670   */\n      0x557365722068617320616c7265616479206265656e2072656769737465726564\n        /* \"#utility.yul\":10632:10633   */\n      0x00\n        /* \"#utility.yul\":10624:10630   */\n      dup3\n        /* \"#utility.yul\":10620:10634   */\n      add\n        /* \"#utility.yul\":10613:10671   */\n      mstore\n        /* \"#utility.yul\":10705:10708   */\n      0x2e00000000000000000000000000000000000000000000000000000000000000\n        /* \"#utility.yul\":10700:10702   */\n      0x20\n        /* \"#utility.yul\":10692:10698   */\n      dup3\n        /* \"#utility.yul\":10688:10703   */\n      add\n        /* \"#utility.yul\":10681:10709   */\n      mstore\n        /* \"#utility.yul\":10496:10716   */\n      pop\n      jump\t// out\n        /* \"#utility.yul\":10722:10951   */\n    tag_174:\n        /* \"#utility.yul\":10862:10896   */\n      0x506c656173652070726f7669646520612076616c696420706f6c6c696e672073\n        /* \"#utility.yul\":10858:10859   */\n      0x00\n        /* \"#utility.yul\":10850:10856   */\n      dup3\n        /* \"#utility.yul\":10846:10860   */\n      add\n        /* \"#utility.yul\":10839:10897   */\n      mstore\n        /* \"#utility.yul\":10931:10943   */\n      0x746174696f6e2049442e00000000000000000000000000000000000000000000\n        /* \"#utility.yul\":10926:10928   */\n      0x20\n        /* \"#utility.yul\":10918:10924   */\n      dup3\n        /* \"#utility.yul\":10914:10929   */\n      add\n        /* \"#utility.yul\":10907:10944   */\n      mstore\n        /* \"#utility.yul\":10722:10951   */\n      pop\n      jump\t// out\n        /* \"#utility.yul\":10957:11135   */\n    tag_179:\n        /* \"#utility.yul\":11097:11127   */\n      0x566f74657220697320616c726561647920726567697374657265642e00000000\n        /* \"#utility.yul\":11093:11094   */\n      0x00\n        /* \"#utility.yul\":11085:11091   */\n      dup3\n        /* \"#utility.yul\":11081:11095   */\n      add\n        /* \"#utility.yul\":11074:11128   */\n      mstore\n        /* \"#utility.yul\":10957:11135   */\n      pop\n      jump\t// out\n        /* \"#utility.yul\":11141:11254   */\n    tag_224:\n        /* \"#utility.yul\":11222:11223   */\n      0x03\n        /* \"#utility.yul\":11215:11220   */\n      dup2\n        /* \"#utility.yul\":11212:11224   */\n      lt\n        /* \"#utility.yul\":11202:11248   */\n      tag_256\n      jumpi\n        /* \"#utility.yul\":11228:11246   */\n      tag_257\n      tag_70\n      jump\t// in\n    tag_257:\n        /* \"#utility.yul\":11202:11248   */\n    tag_256:\n        /* \"#utility.yul\":11141:11254   */\n      pop\n      jump\t// out\n        /* \"#utility.yul\":11260:11382   */\n    tag_120:\n        /* \"#utility.yul\":11333:11357   */\n      tag_259\n        /* \"#utility.yul\":11351:11356   */\n      dup2\n        /* \"#utility.yul\":11333:11357   */\n      tag_142\n      jump\t// in\n    tag_259:\n        /* \"#utility.yul\":11326:11331   */\n      dup2\n        /* \"#utility.yul\":11323:11358   */\n      eq\n        /* \"#utility.yul\":11313:11376   */\n      tag_260\n      jumpi\n        /* \"#utility.yul\":11372:11373   */\n      0x00\n        /* \"#utility.yul\":11369:11370   */\n      dup1\n        /* \"#utility.yul\":11362:11374   */\n      revert\n        /* \"#utility.yul\":11313:11376   */\n    tag_260:\n        /* \"#utility.yul\":11260:11382   */\n      pop\n      jump\t// out\n        /* \"#utility.yul\":11388:11510   */\n    tag_124:\n        /* \"#utility.yul\":11461:11485   */\n      tag_262\n        /* \"#utility.yul\":11479:11484   */\n      dup2\n        /* \"#utility.yul\":11461:11485   */\n      tag_183\n      jump\t// in\n    tag_262:\n        /* \"#utility.yul\":11454:11459   */\n      dup2\n        /* \"#utility.yul\":11451:11486   */\n      eq\n        /* \"#utility.yul\":11441:11504   */\n      tag_263\n      jumpi\n        /* \"#utility.yul\":11500:11501   */\n      0x00\n        /* \"#utility.yul\":11497:11498   */\n      dup1\n        /* \"#utility.yul\":11490:11502   */\n      revert\n        /* \"#utility.yul\":11441:11504   */\n    tag_263:\n        /* \"#utility.yul\":11388:11510   */\n      pop\n      jump\t// out\n\n    auxdata: 0xa264697066735822122031a0e207a0da1848273b0dc5d0db6ae78db670a877acf4e859848b93d1697c5464736f6c63430008070033\n}\n",
				"bytecode": {
					"linkReferences": {},
					"object": "60806040523480156200001157600080fd5b50336000806101000a81548173ffffffffffffffffffffffffffffffffffffffff021916908373ffffffffffffffffffffffffffffffffffffffff16021790555062000062620000a660201b60201c565b620000726200020660201b60201c565b6000600860006101000a81548160ff021916908360028111156200009b576200009a6200074e565b5b0217905550620007ac565b620000ec6040518060400160405280600b81526020017f43616e6469646174652031000000000000000000000000000000000000000000815250620004c460201b60201c565b620001326040518060400160405280600b81526020017f43616e6469646174652032000000000000000000000000000000000000000000815250620004c460201b60201c565b620001786040518060400160405280600b81526020017f43616e6469646174652033000000000000000000000000000000000000000000815250620004c460201b60201c565b620001be6040518060400160405280600b81526020017f43616e6469646174652034000000000000000000000000000000000000000000815250620004c460201b60201c565b620002046040518060400160405280600b81526020017f43616e6469646174652035000000000000000000000000000000000000000000815250620004c460201b60201c565b565b6200024c6040518060400160405280601181526020017f506f6c6c696e672053746174696f6e20310000000000000000000000000000008152506200054a60201b60201c565b620002926040518060400160405280601181526020017f506f6c6c696e672053746174696f6e20320000000000000000000000000000008152506200054a60201b60201c565b620002d86040518060400160405280601181526020017f506f6c6c696e672053746174696f6e20330000000000000000000000000000008152506200054a60201b60201c565b6200031e6040518060400160405280601181526020017f506f6c6c696e672053746174696f6e20340000000000000000000000000000008152506200054a60201b60201c565b620003646040518060400160405280601181526020017f506f6c6c696e672053746174696f6e20350000000000000000000000000000008152506200054a60201b60201c565b620003aa6040518060400160405280601181526020017f506f6c6c696e672053746174696f6e20360000000000000000000000000000008152506200054a60201b60201c565b620003f06040518060400160405280601181526020017f506f6c6c696e672053746174696f6e20370000000000000000000000000000008152506200054a60201b60201c565b620004366040518060400160405280601181526020017f506f6c6c696e672053746174696f6e20380000000000000000000000000000008152506200054a60201b60201c565b6200047c6040518060400160405280601181526020017f506f6c6c696e672053746174696f6e20390000000000000000000000000000008152506200054a60201b60201c565b620004c26040518060400160405280601281526020017f506f6c6c696e672053746174696f6e20313000000000000000000000000000008152506200054a60201b60201c565b565b60016000815480929190620004d990620006d1565b919050555060405180606001604052806001548152602001828152602001600081525060046000600154815260200190815260200160002060008201518160000155602082015181600101908051906020019062000539929190620005e1565b506040820151816002015590505050565b600260008154809291906200055f90620006d1565b919050555060405180608001604052806002548152602001828152602001600081526020016000815250600560006002548152602001908152602001600020600082015181600001556020820151816001019080519060200190620005c6929190620005e1565b50604082015181600201556060820151816003015590505050565b828054620005ef906200069b565b90600052602060002090601f0160209004810192826200061357600085556200065f565b82601f106200062e57805160ff19168380011785556200065f565b828001600101855582156200065f579182015b828111156200065e57825182559160200191906001019062000641565b5b5090506200066e919062000672565b5090565b5b808211156200068d57600081600090555060010162000673565b5090565b6000819050919050565b60006002820490506001821680620006b457607f821691505b60208210811415620006cb57620006ca6200077d565b5b50919050565b6000620006de8262000691565b91507fffffffffffffffffffffffffffffffffffffffffffffffffffffffffffffffff8214156200071457620007136200071f565b5b600182019050919050565b7f4e487b7100000000000000000000000000000000000000000000000000000000600052601160045260246000fd5b7f4e487b7100000000000000000000000000000000000000000000000000000000600052602160045260246000fd5b7f4e487b7100000000000000000000000000000000000000000000000000000000600052602260045260246000fd5b610f5b80620007bc6000396000f3fe608060405234801561001057600080fd5b50600436106100a85760003560e01c806353357ad01161007157806353357ad014610159578063a3ec138d14610177578063b9f05f2f146101a7578063c19d93fb146101c3578063df9f1a07146101e1578063fe2442d7146101ff576100a8565b8062aa7464146100ad5780632d35a8a2146100cb5780633477ee2e146100e95780634763d4e71461011b5780634c0a6af01461014f575b600080fd5b6100b5610232565b6040516100c29190610b93565b60405180910390f35b6100d3610238565b6040516100e09190610b93565b60405180910390f35b61010360048036038101906100fe9190610975565b61023e565b60405161011293929190610bae565b60405180910390f35b61013560048036038101906101309190610908565b6102f0565b604051610146959493929190610ac5565b60405180910390f35b610157610340565b005b610161610407565b60405161016e9190610a8f565b60405180910390f35b610191600480360381019061018c9190610908565b61042b565b60405161019e9190610aaa565b60405180910390f35b6101c160048036038101906101bc9190610935565b61044b565b005b6101cb610764565b6040516101d89190610b18565b60405180910390f35b6101e9610777565b6040516101f69190610b93565b60405180910390f35b61021960048036038101906102149190610975565b61077d565b6040516102299493929190610bec565b60405180910390f35b60035481565b60015481565b600460205280600052604060002060009150905080600001549080600101805461026790610cfe565b80601f016020809104026020016040519081016040528092919081815260200182805461029390610cfe565b80156102e05780601f106102b5576101008083540402835291602001916102e0565b820191906000526020600020905b8154815290600101906020018083116102c357829003601f168201915b5050505050908060020154905083565b60066020528060005260406000206000915090508060000160009054906101000a900460ff16908060000160019054906101000a900460ff16908060010154908060020154908060030154905085565b600080600281111561035557610354610da8565b5b600860009054906101000a900460ff16600281111561037757610376610da8565b5b1461038157600080fd5b60008054906101000a900473ffffffffffffffffffffffffffffffffffffffff1673ffffffffffffffffffffffffffffffffffffffff163373ffffffffffffffffffffffffffffffffffffffff16146103d957600080fd5b6001600860006101000a81548160ff021916908360028111156103ff576103fe610da8565b5b021790555050565b60008054906101000a900473ffffffffffffffffffffffffffffffffffffffff1681565b60076020528060005260406000206000915054906101000a900460ff1681565b60008060028111156104605761045f610da8565b5b600860009054906101000a900460ff16600281111561048257610481610da8565b5b1461048c57600080fd5b60008054906101000a900473ffffffffffffffffffffffffffffffffffffffff1673ffffffffffffffffffffffffffffffffffffffff163373ffffffffffffffffffffffffffffffffffffffff16146104e457600080fd5b60001515600660008573ffffffffffffffffffffffffffffffffffffffff1673ffffffffffffffffffffffffffffffffffffffff16815260200190815260200160002060000160009054906101000a900460ff1615151461057a576040517f08c379a000000000000000000000000000000000000000000000000000000000815260040161057190610b73565b60405180910390fd5b6000600660008573ffffffffffffffffffffffffffffffffffffffff1673ffffffffffffffffffffffffffffffffffffffff168152602001908152602001600020600201541415610600576040517f08c379a00000000000000000000000000000000000000000000000000000000081526004016105f790610b33565b60405180910390fd5b6001821015801561061357506002548211155b610652576040517f08c379a000000000000000000000000000000000000000000000000000000000815260040161064990610b53565b60405180910390fd5b61065a6108ab565b60018160000190151590811515815250506000816020019015159081151581525050600081604001818152505082816060018181525050600081608001818152505080600660008673ffffffffffffffffffffffffffffffffffffffff1673ffffffffffffffffffffffffffffffffffffffff16815260200190815260200160002060008201518160000160006101000a81548160ff02191690831515021790555060208201518160000160016101000a81548160ff02191690831515021790555060408201518160010155606082015181600201556080820151816003015590505061074683610835565b6003600081548092919061075990610d30565b919050555050505050565b600860009054906101000a900460ff1681565b60025481565b60056020528060005260406000206000915090508060000154908060010180546107a690610cfe565b80601f01602080910402602001604051908101604052809291908181526020018280546107d290610cfe565b801561081f5780601f106107f45761010080835404028352916020019161081f565b820191906000526020600020905b81548152906001019060200180831161080257829003601f168201915b5050505050908060020154908060030154905084565b6000600190505b60025481116108a75781600560008381526020019081526020016000206000015414156108945760056000828152602001908152602001600020600201600081548092919061088a90610d30565b91905055506108a7565b808061089f90610d30565b91505061083c565b5050565b6040518060a001604052806000151581526020016000151581526020016000815260200160008152602001600081525090565b6000813590506108ed81610ef7565b92915050565b60008135905061090281610f0e565b92915050565b60006020828403121561091e5761091d610e06565b5b600061092c848285016108de565b91505092915050565b6000806040838503121561094c5761094b610e06565b5b600061095a858286016108de565b925050602061096b858286016108f3565b9150509250929050565b60006020828403121561098b5761098a610e06565b5b6000610999848285016108f3565b91505092915050565b6109ab81610c54565b82525050565b6109ba81610c66565b82525050565b6109c981610cb9565b82525050565b6109d881610c85565b82525050565b60006109e982610c38565b6109f38185610c43565b9350610a03818560208601610ccb565b610a0c81610e0b565b840191505092915050565b6000610a24602183610c43565b9150610a2f82610e1c565b604082019050919050565b6000610a47602a83610c43565b9150610a5282610e6b565b604082019050919050565b6000610a6a601c83610c43565b9150610a7582610eba565b602082019050919050565b610a8981610caf565b82525050565b6000602082019050610aa460008301846109a2565b92915050565b6000602082019050610abf60008301846109b1565b92915050565b600060a082019050610ada60008301886109b1565b610ae760208301876109b1565b610af460408301866109cf565b610b016060830185610a80565b610b0e6080830184610a80565b9695505050505050565b6000602082019050610b2d60008301846109c0565b92915050565b60006020820190508181036000830152610b4c81610a17565b9050919050565b60006020820190508181036000830152610b6c81610a3a565b9050919050565b60006020820190508181036000830152610b8c81610a5d565b9050919050565b6000602082019050610ba86000830184610a80565b92915050565b6000606082019050610bc36000830186610a80565b8181036020830152610bd581856109de565b9050610be46040830184610a80565b949350505050565b6000608082019050610c016000830187610a80565b8181036020830152610c1381866109de565b9050610c226040830185610a80565b610c2f6060830184610a80565b95945050505050565b600081519050919050565b600082825260208201905092915050565b6000610c5f82610c8f565b9050919050565b60008115159050919050565b6000819050610c8082610ee3565b919050565b6000819050919050565b600073ffffffffffffffffffffffffffffffffffffffff82169050919050565b6000819050919050565b6000610cc482610c72565b9050919050565b60005b83811015610ce9578082015181840152602081019050610cce565b83811115610cf8576000848401525b50505050565b60006002820490506001821680610d1657607f821691505b60208210811415610d2a57610d29610dd7565b5b50919050565b6000610d3b82610caf565b91507fffffffffffffffffffffffffffffffffffffffffffffffffffffffffffffffff821415610d6e57610d6d610d79565b5b600182019050919050565b7f4e487b7100000000000000000000000000000000000000000000000000000000600052601160045260246000fd5b7f4e487b7100000000000000000000000000000000000000000000000000000000600052602160045260246000fd5b7f4e487b7100000000000000000000000000000000000000000000000000000000600052602260045260246000fd5b600080fd5b6000601f19601f8301169050919050565b7f557365722068617320616c7265616479206265656e207265676973746572656460008201527f2e00000000000000000000000000000000000000000000000000000000000000602082015250565b7f506c656173652070726f7669646520612076616c696420706f6c6c696e67207360008201527f746174696f6e2049442e00000000000000000000000000000000000000000000602082015250565b7f566f74657220697320616c726561647920726567697374657265642e00000000600082015250565b60038110610ef457610ef3610da8565b5b50565b610f0081610c54565b8114610f0b57600080fd5b50565b610f1781610caf565b8114610f2257600080fd5b5056fea264697066735822122031a0e207a0da1848273b0dc5d0db6ae78db670a877acf4e859848b93d1697c5464736f6c63430008070033",
					"opcodes": "PUSH1 0x80 PUSH1 0x40 MSTORE CALLVALUE DUP1 ISZERO PUSH3 0x11 JUMPI PUSH1 0x0 DUP1 REVERT JUMPDEST POP CALLER PUSH1 0x0 DUP1 PUSH2 0x100 EXP DUP2 SLOAD DUP2 PUSH20 0xFFFFFFFFFFFFFFFFFFFFFFFFFFFFFFFFFFFFFFFF MUL NOT AND SWAP1 DUP4 PUSH20 0xFFFFFFFFFFFFFFFFFFFFFFFFFFFFFFFFFFFFFFFF AND MUL OR SWAP1 SSTORE POP PUSH3 0x62 PUSH3 0xA6 PUSH1 0x20 SHL PUSH1 0x20 SHR JUMP JUMPDEST PUSH3 0x72 PUSH3 0x206 PUSH1 0x20 SHL PUSH1 0x20 SHR JUMP JUMPDEST PUSH1 0x0 PUSH1 0x8 PUSH1 0x0 PUSH2 0x100 EXP DUP2 SLOAD DUP2 PUSH1 0xFF MUL NOT AND SWAP1 DUP4 PUSH1 0x2 DUP2 GT ISZERO PUSH3 0x9B JUMPI PUSH3 0x9A PUSH3 0x74E JUMP JUMPDEST JUMPDEST MUL OR SWAP1 SSTORE POP PUSH3 0x7AC JUMP JUMPDEST PUSH3 0xEC PUSH1 0x40 MLOAD DUP1 PUSH1 0x40 ADD PUSH1 0x40 MSTORE DUP1 PUSH1 0xB DUP2 MSTORE PUSH1 0x20 ADD PUSH32 0x43616E6469646174652031000000000000000000000000000000000000000000 DUP2 MSTORE POP PUSH3 0x4C4 PUSH1 0x20 SHL PUSH1 0x20 SHR JUMP JUMPDEST PUSH3 0x132 PUSH1 0x40 MLOAD DUP1 PUSH1 0x40 ADD PUSH1 0x40 MSTORE DUP1 PUSH1 0xB DUP2 MSTORE PUSH1 0x20 ADD PUSH32 0x43616E6469646174652032000000000000000000000000000000000000000000 DUP2 MSTORE POP PUSH3 0x4C4 PUSH1 0x20 SHL PUSH1 0x20 SHR JUMP JUMPDEST PUSH3 0x178 PUSH1 0x40 MLOAD DUP1 PUSH1 0x40 ADD PUSH1 0x40 MSTORE DUP1 PUSH1 0xB DUP2 MSTORE PUSH1 0x20 ADD PUSH32 0x43616E6469646174652033000000000000000000000000000000000000000000 DUP2 MSTORE POP PUSH3 0x4C4 PUSH1 0x20 SHL PUSH1 0x20 SHR JUMP JUMPDEST PUSH3 0x1BE PUSH1 0x40 MLOAD DUP1 PUSH1 0x40 ADD PUSH1 0x40 MSTORE DUP1 PUSH1 0xB DUP2 MSTORE PUSH1 0x20 ADD PUSH32 0x43616E6469646174652034000000000000000000000000000000000000000000 DUP2 MSTORE POP PUSH3 0x4C4 PUSH1 0x20 SHL PUSH1 0x20 SHR JUMP JUMPDEST PUSH3 0x204 PUSH1 0x40 MLOAD DUP1 PUSH1 0x40 ADD PUSH1 0x40 MSTORE DUP1 PUSH1 0xB DUP2 MSTORE PUSH1 0x20 ADD PUSH32 0x43616E6469646174652035000000000000000000000000000000000000000000 DUP2 MSTORE POP PUSH3 0x4C4 PUSH1 0x20 SHL PUSH1 0x20 SHR JUMP JUMPDEST JUMP JUMPDEST PUSH3 0x24C PUSH1 0x40 MLOAD DUP1 PUSH1 0x40 ADD PUSH1 0x40 MSTORE DUP1 PUSH1 0x11 DUP2 MSTORE PUSH1 0x20 ADD PUSH32 0x506F6C6C696E672053746174696F6E2031000000000000000000000000000000 DUP2 MSTORE POP PUSH3 0x54A PUSH1 0x20 SHL PUSH1 0x20 SHR JUMP JUMPDEST PUSH3 0x292 PUSH1 0x40 MLOAD DUP1 PUSH1 0x40 ADD PUSH1 0x40 MSTORE DUP1 PUSH1 0x11 DUP2 MSTORE PUSH1 0x20 ADD PUSH32 0x506F6C6C696E672053746174696F6E2032000000000000000000000000000000 DUP2 MSTORE POP PUSH3 0x54A PUSH1 0x20 SHL PUSH1 0x20 SHR JUMP JUMPDEST PUSH3 0x2D8 PUSH1 0x40 MLOAD DUP1 PUSH1 0x40 ADD PUSH1 0x40 MSTORE DUP1 PUSH1 0x11 DUP2 MSTORE PUSH1 0x20 ADD PUSH32 0x506F6C6C696E672053746174696F6E2033000000000000000000000000000000 DUP2 MSTORE POP PUSH3 0x54A PUSH1 0x20 SHL PUSH1 0x20 SHR JUMP JUMPDEST PUSH3 0x31E PUSH1 0x40 MLOAD DUP1 PUSH1 0x40 ADD PUSH1 0x40 MSTORE DUP1 PUSH1 0x11 DUP2 MSTORE PUSH1 0x20 ADD PUSH32 0x506F6C6C696E672053746174696F6E2034000000000000000000000000000000 DUP2 MSTORE POP PUSH3 0x54A PUSH1 0x20 SHL PUSH1 0x20 SHR JUMP JUMPDEST PUSH3 0x364 PUSH1 0x40 MLOAD DUP1 PUSH1 0x40 ADD PUSH1 0x40 MSTORE DUP1 PUSH1 0x11 DUP2 MSTORE PUSH1 0x20 ADD PUSH32 0x506F6C6C696E672053746174696F6E2035000000000000000000000000000000 DUP2 MSTORE POP PUSH3 0x54A PUSH1 0x20 SHL PUSH1 0x20 SHR JUMP JUMPDEST PUSH3 0x3AA PUSH1 0x40 MLOAD DUP1 PUSH1 0x40 ADD PUSH1 0x40 MSTORE DUP1 PUSH1 0x11 DUP2 MSTORE PUSH1 0x20 ADD PUSH32 0x506F6C6C696E672053746174696F6E2036000000000000000000000000000000 DUP2 MSTORE POP PUSH3 0x54A PUSH1 0x20 SHL PUSH1 0x20 SHR JUMP JUMPDEST PUSH3 0x3F0 PUSH1 0x40 MLOAD DUP1 PUSH1 0x40 ADD PUSH1 0x40 MSTORE DUP1 PUSH1 0x11 DUP2 MSTORE PUSH1 0x20 ADD PUSH32 0x506F6C6C696E672053746174696F6E2037000000000000000000000000000000 DUP2 MSTORE POP PUSH3 0x54A PUSH1 0x20 SHL PUSH1 0x20 SHR JUMP JUMPDEST PUSH3 0x436 PUSH1 0x40 MLOAD DUP1 PUSH1 0x40 ADD PUSH1 0x40 MSTORE DUP1 PUSH1 0x11 DUP2 MSTORE PUSH1 0x20 ADD PUSH32 0x506F6C6C696E672053746174696F6E2038000000000000000000000000000000 DUP2 MSTORE POP PUSH3 0x54A PUSH1 0x20 SHL PUSH1 0x20 SHR JUMP JUMPDEST PUSH3 0x47C PUSH1 0x40 MLOAD DUP1 PUSH1 0x40 ADD PUSH1 0x40 MSTORE DUP1 PUSH1 0x11 DUP2 MSTORE PUSH1 0x20 ADD PUSH32 0x506F6C6C696E672053746174696F6E2039000000000000000000000000000000 DUP2 MSTORE POP PUSH3 0x54A PUSH1 0x20 SHL PUSH1 0x20 SHR JUMP JUMPDEST PUSH3 0x4C2 PUSH1 0x40 MLOAD DUP1 PUSH1 0x40 ADD PUSH1 0x40 MSTORE DUP1 PUSH1 0x12 DUP2 MSTORE PUSH1 0x20 ADD PUSH32 0x506F6C6C696E672053746174696F6E2031300000000000000000000000000000 DUP2 MSTORE POP PUSH3 0x54A PUSH1 0x20 SHL PUSH1 0x20 SHR JUMP JUMPDEST JUMP JUMPDEST PUSH1 0x1 PUSH1 0x0 DUP2 SLOAD DUP1 SWAP3 SWAP2 SWAP1 PUSH3 0x4D9 SWAP1 PUSH3 0x6D1 JUMP JUMPDEST SWAP2 SWAP1 POP SSTORE POP PUSH1 0x40 MLOAD DUP1 PUSH1 0x60 ADD PUSH1 0x40 MSTORE DUP1 PUSH1 0x1 SLOAD DUP2 MSTORE PUSH1 0x20 ADD DUP3 DUP2 MSTORE PUSH1 0x20 ADD PUSH1 0x0 DUP2 MSTORE POP PUSH1 0x4 PUSH1 0x0 PUSH1 0x1 SLOAD DUP2 MSTORE PUSH1 0x20 ADD SWAP1 DUP2 MSTORE PUSH1 0x20 ADD PUSH1 0x0 KECCAK256 PUSH1 0x0 DUP3 ADD MLOAD DUP2 PUSH1 0x0 ADD SSTORE PUSH1 0x20 DUP3 ADD MLOAD DUP2 PUSH1 0x1 ADD SWAP1 DUP1 MLOAD SWAP1 PUSH1 0x20 ADD SWAP1 PUSH3 0x539 SWAP3 SWAP2 SWAP1 PUSH3 0x5E1 JUMP JUMPDEST POP PUSH1 0x40 DUP3 ADD MLOAD DUP2 PUSH1 0x2 ADD SSTORE SWAP1 POP POP POP JUMP JUMPDEST PUSH1 0x2 PUSH1 0x0 DUP2 SLOAD DUP1 SWAP3 SWAP2 SWAP1 PUSH3 0x55F SWAP1 PUSH3 0x6D1 JUMP JUMPDEST SWAP2 SWAP1 POP SSTORE POP PUSH1 0x40 MLOAD DUP1 PUSH1 0x80 ADD PUSH1 0x40 MSTORE DUP1 PUSH1 0x2 SLOAD DUP2 MSTORE PUSH1 0x20 ADD DUP3 DUP2 MSTORE PUSH1 0x20 ADD PUSH1 0x0 DUP2 MSTORE PUSH1 0x20 ADD PUSH1 0x0 DUP2 MSTORE POP PUSH1 0x5 PUSH1 0x0 PUSH1 0x2 SLOAD DUP2 MSTORE PUSH1 0x20 ADD SWAP1 DUP2 MSTORE PUSH1 0x20 ADD PUSH1 0x0 KECCAK256 PUSH1 0x0 DUP3 ADD MLOAD DUP2 PUSH1 0x0 ADD SSTORE PUSH1 0x20 DUP3 ADD MLOAD DUP2 PUSH1 0x1 ADD SWAP1 DUP1 MLOAD SWAP1 PUSH1 0x20 ADD SWAP1 PUSH3 0x5C6 SWAP3 SWAP2 SWAP1 PUSH3 0x5E1 JUMP JUMPDEST POP PUSH1 0x40 DUP3 ADD MLOAD DUP2 PUSH1 0x2 ADD SSTORE PUSH1 0x60 DUP3 ADD MLOAD DUP2 PUSH1 0x3 ADD SSTORE SWAP1 POP POP POP JUMP JUMPDEST DUP3 DUP1 SLOAD PUSH3 0x5EF SWAP1 PUSH3 0x69B JUMP JUMPDEST SWAP1 PUSH1 0x0 MSTORE PUSH1 0x20 PUSH1 0x0 KECCAK256 SWAP1 PUSH1 0x1F ADD PUSH1 0x20 SWAP1 DIV DUP2 ADD SWAP3 DUP3 PUSH3 0x613 JUMPI PUSH1 0x0 DUP6 SSTORE PUSH3 0x65F JUMP JUMPDEST DUP3 PUSH1 0x1F LT PUSH3 0x62E JUMPI DUP1 MLOAD PUSH1 0xFF NOT AND DUP4 DUP1 ADD OR DUP6 SSTORE PUSH3 0x65F JUMP JUMPDEST DUP3 DUP1 ADD PUSH1 0x1 ADD DUP6 SSTORE DUP3 ISZERO PUSH3 0x65F JUMPI SWAP2 DUP3 ADD JUMPDEST DUP3 DUP2 GT ISZERO PUSH3 0x65E JUMPI DUP3 MLOAD DUP3 SSTORE SWAP2 PUSH1 0x20 ADD SWAP2 SWAP1 PUSH1 0x1 ADD SWAP1 PUSH3 0x641 JUMP JUMPDEST JUMPDEST POP SWAP1 POP PUSH3 0x66E SWAP2 SWAP1 PUSH3 0x672 JUMP JUMPDEST POP SWAP1 JUMP JUMPDEST JUMPDEST DUP1 DUP3 GT ISZERO PUSH3 0x68D JUMPI PUSH1 0x0 DUP2 PUSH1 0x0 SWAP1 SSTORE POP PUSH1 0x1 ADD PUSH3 0x673 JUMP JUMPDEST POP SWAP1 JUMP JUMPDEST PUSH1 0x0 DUP2 SWAP1 POP SWAP2 SWAP1 POP JUMP JUMPDEST PUSH1 0x0 PUSH1 0x2 DUP3 DIV SWAP1 POP PUSH1 0x1 DUP3 AND DUP1 PUSH3 0x6B4 JUMPI PUSH1 0x7F DUP3 AND SWAP2 POP JUMPDEST PUSH1 0x20 DUP3 LT DUP2 EQ ISZERO PUSH3 0x6CB JUMPI PUSH3 0x6CA PUSH3 0x77D JUMP JUMPDEST JUMPDEST POP SWAP2 SWAP1 POP JUMP JUMPDEST PUSH1 0x0 PUSH3 0x6DE DUP3 PUSH3 0x691 JUMP JUMPDEST SWAP2 POP PUSH32 0xFFFFFFFFFFFFFFFFFFFFFFFFFFFFFFFFFFFFFFFFFFFFFFFFFFFFFFFFFFFFFFFF DUP3 EQ ISZERO PUSH3 0x714 JUMPI PUSH3 0x713 PUSH3 0x71F JUMP JUMPDEST JUMPDEST PUSH1 0x1 DUP3 ADD SWAP1 POP SWAP2 SWAP1 POP JUMP JUMPDEST PUSH32 0x4E487B7100000000000000000000000000000000000000000000000000000000 PUSH1 0x0 MSTORE PUSH1 0x11 PUSH1 0x4 MSTORE PUSH1 0x24 PUSH1 0x0 REVERT JUMPDEST PUSH32 0x4E487B7100000000000000000000000000000000000000000000000000000000 PUSH1 0x0 MSTORE PUSH1 0x21 PUSH1 0x4 MSTORE PUSH1 0x24 PUSH1 0x0 REVERT JUMPDEST PUSH32 0x4E487B7100000000000000000000000000000000000000000000000000000000 PUSH1 0x0 MSTORE PUSH1 0x22 PUSH1 0x4 MSTORE PUSH1 0x24 PUSH1 0x0 REVERT JUMPDEST PUSH2 0xF5B DUP1 PUSH3 0x7BC PUSH1 0x0 CODECOPY PUSH1 0x0 RETURN INVALID PUSH1 0x80 PUSH1 0x40 MSTORE CALLVALUE DUP1 ISZERO PUSH2 0x10 JUMPI PUSH1 0x0 DUP1 REVERT JUMPDEST POP PUSH1 0x4 CALLDATASIZE LT PUSH2 0xA8 JUMPI PUSH1 0x0 CALLDATALOAD PUSH1 0xE0 SHR DUP1 PUSH4 0x53357AD0 GT PUSH2 0x71 JUMPI DUP1 PUSH4 0x53357AD0 EQ PUSH2 0x159 JUMPI DUP1 PUSH4 0xA3EC138D EQ PUSH2 0x177 JUMPI DUP1 PUSH4 0xB9F05F2F EQ PUSH2 0x1A7 JUMPI DUP1 PUSH4 0xC19D93FB EQ PUSH2 0x1C3 JUMPI DUP1 PUSH4 0xDF9F1A07 EQ PUSH2 0x1E1 JUMPI DUP1 PUSH4 0xFE2442D7 EQ PUSH2 0x1FF JUMPI PUSH2 0xA8 JUMP JUMPDEST DUP1 PUSH3 0xAA7464 EQ PUSH2 0xAD JUMPI DUP1 PUSH4 0x2D35A8A2 EQ PUSH2 0xCB JUMPI DUP1 PUSH4 0x3477EE2E EQ PUSH2 0xE9 JUMPI DUP1 PUSH4 0x4763D4E7 EQ PUSH2 0x11B JUMPI DUP1 PUSH4 0x4C0A6AF0 EQ PUSH2 0x14F JUMPI JUMPDEST PUSH1 0x0 DUP1 REVERT JUMPDEST PUSH2 0xB5 PUSH2 0x232 JUMP JUMPDEST PUSH1 0x40 MLOAD PUSH2 0xC2 SWAP2 SWAP1 PUSH2 0xB93 JUMP JUMPDEST PUSH1 0x40 MLOAD DUP1 SWAP2 SUB SWAP1 RETURN JUMPDEST PUSH2 0xD3 PUSH2 0x238 JUMP JUMPDEST PUSH1 0x40 MLOAD PUSH2 0xE0 SWAP2 SWAP1 PUSH2 0xB93 JUMP JUMPDEST PUSH1 0x40 MLOAD DUP1 SWAP2 SUB SWAP1 RETURN JUMPDEST PUSH2 0x103 PUSH1 0x4 DUP1 CALLDATASIZE SUB DUP2 ADD SWAP1 PUSH2 0xFE SWAP2 SWAP1 PUSH2 0x975 JUMP JUMPDEST PUSH2 0x23E JUMP JUMPDEST PUSH1 0x40 MLOAD PUSH2 0x112 SWAP4 SWAP3 SWAP2 SWAP1 PUSH2 0xBAE JUMP JUMPDEST PUSH1 0x40 MLOAD DUP1 SWAP2 SUB SWAP1 RETURN JUMPDEST PUSH2 0x135 PUSH1 0x4 DUP1 CALLDATASIZE SUB DUP2 ADD SWAP1 PUSH2 0x130 SWAP2 SWAP1 PUSH2 0x908 JUMP JUMPDEST PUSH2 0x2F0 JUMP JUMPDEST PUSH1 0x40 MLOAD PUSH2 0x146 SWAP6 SWAP5 SWAP4 SWAP3 SWAP2 SWAP1 PUSH2 0xAC5 JUMP JUMPDEST PUSH1 0x40 MLOAD DUP1 SWAP2 SUB SWAP1 RETURN JUMPDEST PUSH2 0x157 PUSH2 0x340 JUMP JUMPDEST STOP JUMPDEST PUSH2 0x161 PUSH2 0x407 JUMP JUMPDEST PUSH1 0x40 MLOAD PUSH2 0x16E SWAP2 SWAP1 PUSH2 0xA8F JUMP JUMPDEST PUSH1 0x40 MLOAD DUP1 SWAP2 SUB SWAP1 RETURN JUMPDEST PUSH2 0x191 PUSH1 0x4 DUP1 CALLDATASIZE SUB DUP2 ADD SWAP1 PUSH2 0x18C SWAP2 SWAP1 PUSH2 0x908 JUMP JUMPDEST PUSH2 0x42B JUMP JUMPDEST PUSH1 0x40 MLOAD PUSH2 0x19E SWAP2 SWAP1 PUSH2 0xAAA JUMP JUMPDEST PUSH1 0x40 MLOAD DUP1 SWAP2 SUB SWAP1 RETURN JUMPDEST PUSH2 0x1C1 PUSH1 0x4 DUP1 CALLDATASIZE SUB DUP2 ADD SWAP1 PUSH2 0x1BC SWAP2 SWAP1 PUSH2 0x935 JUMP JUMPDEST PUSH2 0x44B JUMP JUMPDEST STOP JUMPDEST PUSH2 0x1CB PUSH2 0x764 JUMP JUMPDEST PUSH1 0x40 MLOAD PUSH2 0x1D8 SWAP2 SWAP1 PUSH2 0xB18 JUMP JUMPDEST PUSH1 0x40 MLOAD DUP1 SWAP2 SUB SWAP1 RETURN JUMPDEST PUSH2 0x1E9 PUSH2 0x777 JUMP JUMPDEST PUSH1 0x40 MLOAD PUSH2 0x1F6 SWAP2 SWAP1 PUSH2 0xB93 JUMP JUMPDEST PUSH1 0x40 MLOAD DUP1 SWAP2 SUB SWAP1 RETURN JUMPDEST PUSH2 0x219 PUSH1 0x4 DUP1 CALLDATASIZE SUB DUP2 ADD SWAP1 PUSH2 0x214 SWAP2 SWAP1 PUSH2 0x975 JUMP JUMPDEST PUSH2 0x77D JUMP JUMPDEST PUSH1 0x40 MLOAD PUSH2 0x229 SWAP5 SWAP4 SWAP3 SWAP2 SWAP1 PUSH2 0xBEC JUMP JUMPDEST PUSH1 0x40 MLOAD DUP1 SWAP2 SUB SWAP1 RETURN JUMPDEST PUSH1 0x3 SLOAD DUP2 JUMP JUMPDEST PUSH1 0x1 SLOAD DUP2 JUMP JUMPDEST PUSH1 0x4 PUSH1 0x20 MSTORE DUP1 PUSH1 0x0 MSTORE PUSH1 0x40 PUSH1 0x0 KECCAK256 PUSH1 0x0 SWAP2 POP SWAP1 POP DUP1 PUSH1 0x0 ADD SLOAD SWAP1 DUP1 PUSH1 0x1 ADD DUP1 SLOAD PUSH2 0x267 SWAP1 PUSH2 0xCFE JUMP JUMPDEST DUP1 PUSH1 0x1F ADD PUSH1 0x20 DUP1 SWAP2 DIV MUL PUSH1 0x20 ADD PUSH1 0x40 MLOAD SWAP1 DUP2 ADD PUSH1 0x40 MSTORE DUP1 SWAP3 SWAP2 SWAP1 DUP2 DUP2 MSTORE PUSH1 0x20 ADD DUP3 DUP1 SLOAD PUSH2 0x293 SWAP1 PUSH2 0xCFE JUMP JUMPDEST DUP1 ISZERO PUSH2 0x2E0 JUMPI DUP1 PUSH1 0x1F LT PUSH2 0x2B5 JUMPI PUSH2 0x100 DUP1 DUP4 SLOAD DIV MUL DUP4 MSTORE SWAP2 PUSH1 0x20 ADD SWAP2 PUSH2 0x2E0 JUMP JUMPDEST DUP3 ADD SWAP2 SWAP1 PUSH1 0x0 MSTORE PUSH1 0x20 PUSH1 0x0 KECCAK256 SWAP1 JUMPDEST DUP2 SLOAD DUP2 MSTORE SWAP1 PUSH1 0x1 ADD SWAP1 PUSH1 0x20 ADD DUP1 DUP4 GT PUSH2 0x2C3 JUMPI DUP3 SWAP1 SUB PUSH1 0x1F AND DUP3 ADD SWAP2 JUMPDEST POP POP POP POP POP SWAP1 DUP1 PUSH1 0x2 ADD SLOAD SWAP1 POP DUP4 JUMP JUMPDEST PUSH1 0x6 PUSH1 0x20 MSTORE DUP1 PUSH1 0x0 MSTORE PUSH1 0x40 PUSH1 0x0 KECCAK256 PUSH1 0x0 SWAP2 POP SWAP1 POP DUP1 PUSH1 0x0 ADD PUSH1 0x0 SWAP1 SLOAD SWAP1 PUSH2 0x100 EXP SWAP1 DIV PUSH1 0xFF AND SWAP1 DUP1 PUSH1 0x0 ADD PUSH1 0x1 SWAP1 SLOAD SWAP1 PUSH2 0x100 EXP SWAP1 DIV PUSH1 0xFF AND SWAP1 DUP1 PUSH1 0x1 ADD SLOAD SWAP1 DUP1 PUSH1 0x2 ADD SLOAD SWAP1 DUP1 PUSH1 0x3 ADD SLOAD SWAP1 POP DUP6 JUMP JUMPDEST PUSH1 0x0 DUP1 PUSH1 0x2 DUP2 GT ISZERO PUSH2 0x355 JUMPI PUSH2 0x354 PUSH2 0xDA8 JUMP JUMPDEST JUMPDEST PUSH1 0x8 PUSH1 0x0 SWAP1 SLOAD SWAP1 PUSH2 0x100 EXP SWAP1 DIV PUSH1 0xFF AND PUSH1 0x2 DUP2 GT ISZERO PUSH2 0x377 JUMPI PUSH2 0x376 PUSH2 0xDA8 JUMP JUMPDEST JUMPDEST EQ PUSH2 0x381 JUMPI PUSH1 0x0 DUP1 REVERT JUMPDEST PUSH1 0x0 DUP1 SLOAD SWAP1 PUSH2 0x100 EXP SWAP1 DIV PUSH20 0xFFFFFFFFFFFFFFFFFFFFFFFFFFFFFFFFFFFFFFFF AND PUSH20 0xFFFFFFFFFFFFFFFFFFFFFFFFFFFFFFFFFFFFFFFF AND CALLER PUSH20 0xFFFFFFFFFFFFFFFFFFFFFFFFFFFFFFFFFFFFFFFF AND EQ PUSH2 0x3D9 JUMPI PUSH1 0x0 DUP1 REVERT JUMPDEST PUSH1 0x1 PUSH1 0x8 PUSH1 0x0 PUSH2 0x100 EXP DUP2 SLOAD DUP2 PUSH1 0xFF MUL NOT AND SWAP1 DUP4 PUSH1 0x2 DUP2 GT ISZERO PUSH2 0x3FF JUMPI PUSH2 0x3FE PUSH2 0xDA8 JUMP JUMPDEST JUMPDEST MUL OR SWAP1 SSTORE POP POP JUMP JUMPDEST PUSH1 0x0 DUP1 SLOAD SWAP1 PUSH2 0x100 EXP SWAP1 DIV PUSH20 0xFFFFFFFFFFFFFFFFFFFFFFFFFFFFFFFFFFFFFFFF AND DUP2 JUMP JUMPDEST PUSH1 0x7 PUSH1 0x20 MSTORE DUP1 PUSH1 0x0 MSTORE PUSH1 0x40 PUSH1 0x0 KECCAK256 PUSH1 0x0 SWAP2 POP SLOAD SWAP1 PUSH2 0x100 EXP SWAP1 DIV PUSH1 0xFF AND DUP2 JUMP JUMPDEST PUSH1 0x0 DUP1 PUSH1 0x2 DUP2 GT ISZERO PUSH2 0x460 JUMPI PUSH2 0x45F PUSH2 0xDA8 JUMP JUMPDEST JUMPDEST PUSH1 0x8 PUSH1 0x0 SWAP1 SLOAD SWAP1 PUSH2 0x100 EXP SWAP1 DIV PUSH1 0xFF AND PUSH1 0x2 DUP2 GT ISZERO PUSH2 0x482 JUMPI PUSH2 0x481 PUSH2 0xDA8 JUMP JUMPDEST JUMPDEST EQ PUSH2 0x48C JUMPI PUSH1 0x0 DUP1 REVERT JUMPDEST PUSH1 0x0 DUP1 SLOAD SWAP1 PUSH2 0x100 EXP SWAP1 DIV PUSH20 0xFFFFFFFFFFFFFFFFFFFFFFFFFFFFFFFFFFFFFFFF AND PUSH20 0xFFFFFFFFFFFFFFFFFFFFFFFFFFFFFFFFFFFFFFFF AND CALLER PUSH20 0xFFFFFFFFFFFFFFFFFFFFFFFFFFFFFFFFFFFFFFFF AND EQ PUSH2 0x4E4 JUMPI PUSH1 0x0 DUP1 REVERT JUMPDEST PUSH1 0x0 ISZERO ISZERO PUSH1 0x6 PUSH1 0x0 DUP6 PUSH20 0xFFFFFFFFFFFFFFFFFFFFFFFFFFFFFFFFFFFFFFFF AND PUSH20 0xFFFFFFFFFFFFFFFFFFFFFFFFFFFFFFFFFFFFFFFF AND DUP2 MSTORE PUSH1 0x20 ADD SWAP1 DUP2 MSTORE PUSH1 0x20 ADD PUSH1 0x0 KECCAK256 PUSH1 0x0 ADD PUSH1 0x0 SWAP1 SLOAD SWAP1 PUSH2 0x100 EXP SWAP1 DIV PUSH1 0xFF AND ISZERO ISZERO EQ PUSH2 0x57A JUMPI PUSH1 0x40 MLOAD PUSH32 0x8C379A000000000000000000000000000000000000000000000000000000000 DUP2 MSTORE PUSH1 0x4 ADD PUSH2 0x571 SWAP1 PUSH2 0xB73 JUMP JUMPDEST PUSH1 0x40 MLOAD DUP1 SWAP2 SUB SWAP1 REVERT JUMPDEST PUSH1 0x0 PUSH1 0x6 PUSH1 0x0 DUP6 PUSH20 0xFFFFFFFFFFFFFFFFFFFFFFFFFFFFFFFFFFFFFFFF AND PUSH20 0xFFFFFFFFFFFFFFFFFFFFFFFFFFFFFFFFFFFFFFFF AND DUP2 MSTORE PUSH1 0x20 ADD SWAP1 DUP2 MSTORE PUSH1 0x20 ADD PUSH1 0x0 KECCAK256 PUSH1 0x2 ADD SLOAD EQ ISZERO PUSH2 0x600 JUMPI PUSH1 0x40 MLOAD PUSH32 0x8C379A000000000000000000000000000000000000000000000000000000000 DUP2 MSTORE PUSH1 0x4 ADD PUSH2 0x5F7 SWAP1 PUSH2 0xB33 JUMP JUMPDEST PUSH1 0x40 MLOAD DUP1 SWAP2 SUB SWAP1 REVERT JUMPDEST PUSH1 0x1 DUP3 LT ISZERO DUP1 ISZERO PUSH2 0x613 JUMPI POP PUSH1 0x2 SLOAD DUP3 GT ISZERO JUMPDEST PUSH2 0x652 JUMPI PUSH1 0x40 MLOAD PUSH32 0x8C379A000000000000000000000000000000000000000000000000000000000 DUP2 MSTORE PUSH1 0x4 ADD PUSH2 0x649 SWAP1 PUSH2 0xB53 JUMP JUMPDEST PUSH1 0x40 MLOAD DUP1 SWAP2 SUB SWAP1 REVERT JUMPDEST PUSH2 0x65A PUSH2 0x8AB JUMP JUMPDEST PUSH1 0x1 DUP2 PUSH1 0x0 ADD SWAP1 ISZERO ISZERO SWAP1 DUP2 ISZERO ISZERO DUP2 MSTORE POP POP PUSH1 0x0 DUP2 PUSH1 0x20 ADD SWAP1 ISZERO ISZERO SWAP1 DUP2 ISZERO ISZERO DUP2 MSTORE POP POP PUSH1 0x0 DUP2 PUSH1 0x40 ADD DUP2 DUP2 MSTORE POP POP DUP3 DUP2 PUSH1 0x60 ADD DUP2 DUP2 MSTORE POP POP PUSH1 0x0 DUP2 PUSH1 0x80 ADD DUP2 DUP2 MSTORE POP POP DUP1 PUSH1 0x6 PUSH1 0x0 DUP7 PUSH20 0xFFFFFFFFFFFFFFFFFFFFFFFFFFFFFFFFFFFFFFFF AND PUSH20 0xFFFFFFFFFFFFFFFFFFFFFFFFFFFFFFFFFFFFFFFF AND DUP2 MSTORE PUSH1 0x20 ADD SWAP1 DUP2 MSTORE PUSH1 0x20 ADD PUSH1 0x0 KECCAK256 PUSH1 0x0 DUP3 ADD MLOAD DUP2 PUSH1 0x0 ADD PUSH1 0x0 PUSH2 0x100 EXP DUP2 SLOAD DUP2 PUSH1 0xFF MUL NOT AND SWAP1 DUP4 ISZERO ISZERO MUL OR SWAP1 SSTORE POP PUSH1 0x20 DUP3 ADD MLOAD DUP2 PUSH1 0x0 ADD PUSH1 0x1 PUSH2 0x100 EXP DUP2 SLOAD DUP2 PUSH1 0xFF MUL NOT AND SWAP1 DUP4 ISZERO ISZERO MUL OR SWAP1 SSTORE POP PUSH1 0x40 DUP3 ADD MLOAD DUP2 PUSH1 0x1 ADD SSTORE PUSH1 0x60 DUP3 ADD MLOAD DUP2 PUSH1 0x2 ADD SSTORE PUSH1 0x80 DUP3 ADD MLOAD DUP2 PUSH1 0x3 ADD SSTORE SWAP1 POP POP PUSH2 0x746 DUP4 PUSH2 0x835 JUMP JUMPDEST PUSH1 0x3 PUSH1 0x0 DUP2 SLOAD DUP1 SWAP3 SWAP2 SWAP1 PUSH2 0x759 SWAP1 PUSH2 0xD30 JUMP JUMPDEST SWAP2 SWAP1 POP SSTORE POP POP POP POP POP JUMP JUMPDEST PUSH1 0x8 PUSH1 0x0 SWAP1 SLOAD SWAP1 PUSH2 0x100 EXP SWAP1 DIV PUSH1 0xFF AND DUP2 JUMP JUMPDEST PUSH1 0x2 SLOAD DUP2 JUMP JUMPDEST PUSH1 0x5 PUSH1 0x20 MSTORE DUP1 PUSH1 0x0 MSTORE PUSH1 0x40 PUSH1 0x0 KECCAK256 PUSH1 0x0 SWAP2 POP SWAP1 POP DUP1 PUSH1 0x0 ADD SLOAD SWAP1 DUP1 PUSH1 0x1 ADD DUP1 SLOAD PUSH2 0x7A6 SWAP1 PUSH2 0xCFE JUMP JUMPDEST DUP1 PUSH1 0x1F ADD PUSH1 0x20 DUP1 SWAP2 DIV MUL PUSH1 0x20 ADD PUSH1 0x40 MLOAD SWAP1 DUP2 ADD PUSH1 0x40 MSTORE DUP1 SWAP3 SWAP2 SWAP1 DUP2 DUP2 MSTORE PUSH1 0x20 ADD DUP3 DUP1 SLOAD PUSH2 0x7D2 SWAP1 PUSH2 0xCFE JUMP JUMPDEST DUP1 ISZERO PUSH2 0x81F JUMPI DUP1 PUSH1 0x1F LT PUSH2 0x7F4 JUMPI PUSH2 0x100 DUP1 DUP4 SLOAD DIV MUL DUP4 MSTORE SWAP2 PUSH1 0x20 ADD SWAP2 PUSH2 0x81F JUMP JUMPDEST DUP3 ADD SWAP2 SWAP1 PUSH1 0x0 MSTORE PUSH1 0x20 PUSH1 0x0 KECCAK256 SWAP1 JUMPDEST DUP2 SLOAD DUP2 MSTORE SWAP1 PUSH1 0x1 ADD SWAP1 PUSH1 0x20 ADD DUP1 DUP4 GT PUSH2 0x802 JUMPI DUP3 SWAP1 SUB PUSH1 0x1F AND DUP3 ADD SWAP2 JUMPDEST POP POP POP POP POP SWAP1 DUP1 PUSH1 0x2 ADD SLOAD SWAP1 DUP1 PUSH1 0x3 ADD SLOAD SWAP1 POP DUP5 JUMP JUMPDEST PUSH1 0x0 PUSH1 0x1 SWAP1 POP JUMPDEST PUSH1 0x2 SLOAD DUP2 GT PUSH2 0x8A7 JUMPI DUP2 PUSH1 0x5 PUSH1 0x0 DUP4 DUP2 MSTORE PUSH1 0x20 ADD SWAP1 DUP2 MSTORE PUSH1 0x20 ADD PUSH1 0x0 KECCAK256 PUSH1 0x0 ADD SLOAD EQ ISZERO PUSH2 0x894 JUMPI PUSH1 0x5 PUSH1 0x0 DUP3 DUP2 MSTORE PUSH1 0x20 ADD SWAP1 DUP2 MSTORE PUSH1 0x20 ADD PUSH1 0x0 KECCAK256 PUSH1 0x2 ADD PUSH1 0x0 DUP2 SLOAD DUP1 SWAP3 SWAP2 SWAP1 PUSH2 0x88A SWAP1 PUSH2 0xD30 JUMP JUMPDEST SWAP2 SWAP1 POP SSTORE POP PUSH2 0x8A7 JUMP JUMPDEST DUP1 DUP1 PUSH2 0x89F SWAP1 PUSH2 0xD30 JUMP JUMPDEST SWAP2 POP POP PUSH2 0x83C JUMP JUMPDEST POP POP JUMP JUMPDEST PUSH1 0x40 MLOAD DUP1 PUSH1 0xA0 ADD PUSH1 0x40 MSTORE DUP1 PUSH1 0x0 ISZERO ISZERO DUP2 MSTORE PUSH1 0x20 ADD PUSH1 0x0 ISZERO ISZERO DUP2 MSTORE PUSH1 0x20 ADD PUSH1 0x0 DUP2 MSTORE PUSH1 0x20 ADD PUSH1 0x0 DUP2 MSTORE PUSH1 0x20 ADD PUSH1 0x0 DUP2 MSTORE POP SWAP1 JUMP JUMPDEST PUSH1 0x0 DUP2 CALLDATALOAD SWAP1 POP PUSH2 0x8ED DUP2 PUSH2 0xEF7 JUMP JUMPDEST SWAP3 SWAP2 POP POP JUMP JUMPDEST PUSH1 0x0 DUP2 CALLDATALOAD SWAP1 POP PUSH2 0x902 DUP2 PUSH2 0xF0E JUMP JUMPDEST SWAP3 SWAP2 POP POP JUMP JUMPDEST PUSH1 0x0 PUSH1 0x20 DUP3 DUP5 SUB SLT ISZERO PUSH2 0x91E JUMPI PUSH2 0x91D PUSH2 0xE06 JUMP JUMPDEST JUMPDEST PUSH1 0x0 PUSH2 0x92C DUP5 DUP3 DUP6 ADD PUSH2 0x8DE JUMP JUMPDEST SWAP2 POP POP SWAP3 SWAP2 POP POP JUMP JUMPDEST PUSH1 0x0 DUP1 PUSH1 0x40 DUP4 DUP6 SUB SLT ISZERO PUSH2 0x94C JUMPI PUSH2 0x94B PUSH2 0xE06 JUMP JUMPDEST JUMPDEST PUSH1 0x0 PUSH2 0x95A DUP6 DUP3 DUP7 ADD PUSH2 0x8DE JUMP JUMPDEST SWAP3 POP POP PUSH1 0x20 PUSH2 0x96B DUP6 DUP3 DUP7 ADD PUSH2 0x8F3 JUMP JUMPDEST SWAP2 POP POP SWAP3 POP SWAP3 SWAP1 POP JUMP JUMPDEST PUSH1 0x0 PUSH1 0x20 DUP3 DUP5 SUB SLT ISZERO PUSH2 0x98B JUMPI PUSH2 0x98A PUSH2 0xE06 JUMP JUMPDEST JUMPDEST PUSH1 0x0 PUSH2 0x999 DUP5 DUP3 DUP6 ADD PUSH2 0x8F3 JUMP JUMPDEST SWAP2 POP POP SWAP3 SWAP2 POP POP JUMP JUMPDEST PUSH2 0x9AB DUP2 PUSH2 0xC54 JUMP JUMPDEST DUP3 MSTORE POP POP JUMP JUMPDEST PUSH2 0x9BA DUP2 PUSH2 0xC66 JUMP JUMPDEST DUP3 MSTORE POP POP JUMP JUMPDEST PUSH2 0x9C9 DUP2 PUSH2 0xCB9 JUMP JUMPDEST DUP3 MSTORE POP POP JUMP JUMPDEST PUSH2 0x9D8 DUP2 PUSH2 0xC85 JUMP JUMPDEST DUP3 MSTORE POP POP JUMP JUMPDEST PUSH1 0x0 PUSH2 0x9E9 DUP3 PUSH2 0xC38 JUMP JUMPDEST PUSH2 0x9F3 DUP2 DUP6 PUSH2 0xC43 JUMP JUMPDEST SWAP4 POP PUSH2 0xA03 DUP2 DUP6 PUSH1 0x20 DUP7 ADD PUSH2 0xCCB JUMP JUMPDEST PUSH2 0xA0C DUP2 PUSH2 0xE0B JUMP JUMPDEST DUP5 ADD SWAP2 POP POP SWAP3 SWAP2 POP POP JUMP JUMPDEST PUSH1 0x0 PUSH2 0xA24 PUSH1 0x21 DUP4 PUSH2 0xC43 JUMP JUMPDEST SWAP2 POP PUSH2 0xA2F DUP3 PUSH2 0xE1C JUMP JUMPDEST PUSH1 0x40 DUP3 ADD SWAP1 POP SWAP2 SWAP1 POP JUMP JUMPDEST PUSH1 0x0 PUSH2 0xA47 PUSH1 0x2A DUP4 PUSH2 0xC43 JUMP JUMPDEST SWAP2 POP PUSH2 0xA52 DUP3 PUSH2 0xE6B JUMP JUMPDEST PUSH1 0x40 DUP3 ADD SWAP1 POP SWAP2 SWAP1 POP JUMP JUMPDEST PUSH1 0x0 PUSH2 0xA6A PUSH1 0x1C DUP4 PUSH2 0xC43 JUMP JUMPDEST SWAP2 POP PUSH2 0xA75 DUP3 PUSH2 0xEBA JUMP JUMPDEST PUSH1 0x20 DUP3 ADD SWAP1 POP SWAP2 SWAP1 POP JUMP JUMPDEST PUSH2 0xA89 DUP2 PUSH2 0xCAF JUMP JUMPDEST DUP3 MSTORE POP POP JUMP JUMPDEST PUSH1 0x0 PUSH1 0x20 DUP3 ADD SWAP1 POP PUSH2 0xAA4 PUSH1 0x0 DUP4 ADD DUP5 PUSH2 0x9A2 JUMP JUMPDEST SWAP3 SWAP2 POP POP JUMP JUMPDEST PUSH1 0x0 PUSH1 0x20 DUP3 ADD SWAP1 POP PUSH2 0xABF PUSH1 0x0 DUP4 ADD DUP5 PUSH2 0x9B1 JUMP JUMPDEST SWAP3 SWAP2 POP POP JUMP JUMPDEST PUSH1 0x0 PUSH1 0xA0 DUP3 ADD SWAP1 POP PUSH2 0xADA PUSH1 0x0 DUP4 ADD DUP9 PUSH2 0x9B1 JUMP JUMPDEST PUSH2 0xAE7 PUSH1 0x20 DUP4 ADD DUP8 PUSH2 0x9B1 JUMP JUMPDEST PUSH2 0xAF4 PUSH1 0x40 DUP4 ADD DUP7 PUSH2 0x9CF JUMP JUMPDEST PUSH2 0xB01 PUSH1 0x60 DUP4 ADD DUP6 PUSH2 0xA80 JUMP JUMPDEST PUSH2 0xB0E PUSH1 0x80 DUP4 ADD DUP5 PUSH2 0xA80 JUMP JUMPDEST SWAP7 SWAP6 POP POP POP POP POP POP JUMP JUMPDEST PUSH1 0x0 PUSH1 0x20 DUP3 ADD SWAP1 POP PUSH2 0xB2D PUSH1 0x0 DUP4 ADD DUP5 PUSH2 0x9C0 JUMP JUMPDEST SWAP3 SWAP2 POP POP JUMP JUMPDEST PUSH1 0x0 PUSH1 0x20 DUP3 ADD SWAP1 POP DUP2 DUP2 SUB PUSH1 0x0 DUP4 ADD MSTORE PUSH2 0xB4C DUP2 PUSH2 0xA17 JUMP JUMPDEST SWAP1 POP SWAP2 SWAP1 POP JUMP JUMPDEST PUSH1 0x0 PUSH1 0x20 DUP3 ADD SWAP1 POP DUP2 DUP2 SUB PUSH1 0x0 DUP4 ADD MSTORE PUSH2 0xB6C DUP2 PUSH2 0xA3A JUMP JUMPDEST SWAP1 POP SWAP2 SWAP1 POP JUMP JUMPDEST PUSH1 0x0 PUSH1 0x20 DUP3 ADD SWAP1 POP DUP2 DUP2 SUB PUSH1 0x0 DUP4 ADD MSTORE PUSH2 0xB8C DUP2 PUSH2 0xA5D JUMP JUMPDEST SWAP1 POP SWAP2 SWAP1 POP JUMP JUMPDEST PUSH1 0x0 PUSH1 0x20 DUP3 ADD SWAP1 POP PUSH2 0xBA8 PUSH1 0x0 DUP4 ADD DUP5 PUSH2 0xA80 JUMP JUMPDEST SWAP3 SWAP2 POP POP JUMP JUMPDEST PUSH1 0x0 PUSH1 0x60 DUP3 ADD SWAP1 POP PUSH2 0xBC3 PUSH1 0x0 DUP4 ADD DUP7 PUSH2 0xA80 JUMP JUMPDEST DUP2 DUP2 SUB PUSH1 0x20 DUP4 ADD MSTORE PUSH2 0xBD5 DUP2 DUP6 PUSH2 0x9DE JUMP JUMPDEST SWAP1 POP PUSH2 0xBE4 PUSH1 0x40 DUP4 ADD DUP5 PUSH2 0xA80 JUMP JUMPDEST SWAP5 SWAP4 POP POP POP POP JUMP JUMPDEST PUSH1 0x0 PUSH1 0x80 DUP3 ADD SWAP1 POP PUSH2 0xC01 PUSH1 0x0 DUP4 ADD DUP8 PUSH2 0xA80 JUMP JUMPDEST DUP2 DUP2 SUB PUSH1 0x20 DUP4 ADD MSTORE PUSH2 0xC13 DUP2 DUP7 PUSH2 0x9DE JUMP JUMPDEST SWAP1 POP PUSH2 0xC22 PUSH1 0x40 DUP4 ADD DUP6 PUSH2 0xA80 JUMP JUMPDEST PUSH2 0xC2F PUSH1 0x60 DUP4 ADD DUP5 PUSH2 0xA80 JUMP JUMPDEST SWAP6 SWAP5 POP POP POP POP POP JUMP JUMPDEST PUSH1 0x0 DUP2 MLOAD SWAP1 POP SWAP2 SWAP1 POP JUMP JUMPDEST PUSH1 0x0 DUP3 DUP3 MSTORE PUSH1 0x20 DUP3 ADD SWAP1 POP SWAP3 SWAP2 POP POP JUMP JUMPDEST PUSH1 0x0 PUSH2 0xC5F DUP3 PUSH2 0xC8F JUMP JUMPDEST SWAP1 POP SWAP2 SWAP1 POP JUMP JUMPDEST PUSH1 0x0 DUP2 ISZERO ISZERO SWAP1 POP SWAP2 SWAP1 POP JUMP JUMPDEST PUSH1 0x0 DUP2 SWAP1 POP PUSH2 0xC80 DUP3 PUSH2 0xEE3 JUMP JUMPDEST SWAP2 SWAP1 POP JUMP JUMPDEST PUSH1 0x0 DUP2 SWAP1 POP SWAP2 SWAP1 POP JUMP JUMPDEST PUSH1 0x0 PUSH20 0xFFFFFFFFFFFFFFFFFFFFFFFFFFFFFFFFFFFFFFFF DUP3 AND SWAP1 POP SWAP2 SWAP1 POP JUMP JUMPDEST PUSH1 0x0 DUP2 SWAP1 POP SWAP2 SWAP1 POP JUMP JUMPDEST PUSH1 0x0 PUSH2 0xCC4 DUP3 PUSH2 0xC72 JUMP JUMPDEST SWAP1 POP SWAP2 SWAP1 POP JUMP JUMPDEST PUSH1 0x0 JUMPDEST DUP4 DUP2 LT ISZERO PUSH2 0xCE9 JUMPI DUP1 DUP3 ADD MLOAD DUP2 DUP5 ADD MSTORE PUSH1 0x20 DUP2 ADD SWAP1 POP PUSH2 0xCCE JUMP JUMPDEST DUP4 DUP2 GT ISZERO PUSH2 0xCF8 JUMPI PUSH1 0x0 DUP5 DUP5 ADD MSTORE JUMPDEST POP POP POP POP JUMP JUMPDEST PUSH1 0x0 PUSH1 0x2 DUP3 DIV SWAP1 POP PUSH1 0x1 DUP3 AND DUP1 PUSH2 0xD16 JUMPI PUSH1 0x7F DUP3 AND SWAP2 POP JUMPDEST PUSH1 0x20 DUP3 LT DUP2 EQ ISZERO PUSH2 0xD2A JUMPI PUSH2 0xD29 PUSH2 0xDD7 JUMP JUMPDEST JUMPDEST POP SWAP2 SWAP1 POP JUMP JUMPDEST PUSH1 0x0 PUSH2 0xD3B DUP3 PUSH2 0xCAF JUMP JUMPDEST SWAP2 POP PUSH32 0xFFFFFFFFFFFFFFFFFFFFFFFFFFFFFFFFFFFFFFFFFFFFFFFFFFFFFFFFFFFFFFFF DUP3 EQ ISZERO PUSH2 0xD6E JUMPI PUSH2 0xD6D PUSH2 0xD79 JUMP JUMPDEST JUMPDEST PUSH1 0x1 DUP3 ADD SWAP1 POP SWAP2 SWAP1 POP JUMP JUMPDEST PUSH32 0x4E487B7100000000000000000000000000000000000000000000000000000000 PUSH1 0x0 MSTORE PUSH1 0x11 PUSH1 0x4 MSTORE PUSH1 0x24 PUSH1 0x0 REVERT JUMPDEST PUSH32 0x4E487B7100000000000000000000000000000000000000000000000000000000 PUSH1 0x0 MSTORE PUSH1 0x21 PUSH1 0x4 MSTORE PUSH1 0x24 PUSH1 0x0 REVERT JUMPDEST PUSH32 0x4E487B7100000000000000000000000000000000000000000000000000000000 PUSH1 0x0 MSTORE PUSH1 0x22 PUSH1 0x4 MSTORE PUSH1 0x24 PUSH1 0x0 REVERT JUMPDEST PUSH1 0x0 DUP1 REVERT JUMPDEST PUSH1 0x0 PUSH1 0x1F NOT PUSH1 0x1F DUP4 ADD AND SWAP1 POP SWAP2 SWAP1 POP JUMP JUMPDEST PUSH32 0x557365722068617320616C7265616479206265656E2072656769737465726564 PUSH1 0x0 DUP3 ADD MSTORE PUSH32 0x2E00000000000000000000000000000000000000000000000000000000000000 PUSH1 0x20 DUP3 ADD MSTORE POP JUMP JUMPDEST PUSH32 0x506C656173652070726F7669646520612076616C696420706F6C6C696E672073 PUSH1 0x0 DUP3 ADD MSTORE PUSH32 0x746174696F6E2049442E00000000000000000000000000000000000000000000 PUSH1 0x20 DUP3 ADD MSTORE POP JUMP JUMPDEST PUSH32 0x566F74657220697320616C726561647920726567697374657265642E00000000 PUSH1 0x0 DUP3 ADD MSTORE POP JUMP JUMPDEST PUSH1 0x3 DUP2 LT PUSH2 0xEF4 JUMPI PUSH2 0xEF3 PUSH2 0xDA8 JUMP JUMPDEST JUMPDEST POP JUMP JUMPDEST PUSH2 0xF00 DUP2 PUSH2 0xC54 JUMP JUMPDEST DUP2 EQ PUSH2 0xF0B JUMPI PUSH1 0x0 DUP1 REVERT JUMPDEST POP JUMP JUMPDEST PUSH2 0xF17 DUP2 PUSH2 0xCAF JUMP JUMPDEST DUP2 EQ PUSH2 0xF22 JUMPI PUSH1 0x0 DUP1 REVERT JUMPDEST POP JUMP INVALID LOG2 PUSH5 0x6970667358 0x22 SLT KECCAK256 BALANCE LOG0 0xE2 SMOD LOG0 0xDA XOR BASEFEE 0x27 EXTCODESIZE 0xD 0xC5 0xD0 0xDB PUSH11 0xE78DB670A877ACF4E85984 DUP12 SWAP4 0xD1 PUSH10 0x7C5464736F6C63430008 SMOD STOP CALLER "
				},
				"gasEstimates": {
					"creation": {
						"codeDepositCost": "786200",
						"executionCost": "infinite",
						"totalCost": "infinite"
					},
					"external": {
						"addVoter(address,uint256)": "infinite",
						"candidates(uint256)": "infinite",
						"candidatesCount()": "2452",
						"electionOwner()": "2511",
						"pollingStationCount()": "2517",
						"pollingStations(uint256)": "infinite",
						"startVote()": "28903",
						"state()": "2626",
						"totalRegisteredVoters()": "2430",
						"voterRegistry(address)": "infinite",
						"voters(address)": "2867"
					},
					"internal": {
						"addCandidate(string memory)": "infinite",
						"addPollingStation(string memory)": "infinite",
						"initCandidates()": "infinite",
						"initPollingStations()": "infinite",
						"registerAtPollingStation(uint256)": "28818"
					}
				},
				"methodIdentifiers": {
					"addVoter(address,uint256)": "b9f05f2f",
					"candidates(uint256)": "3477ee2e",
					"candidatesCount()": "2d35a8a2",
					"electionOwner()": "53357ad0",
					"pollingStationCount()": "df9f1a07",
					"pollingStations(uint256)": "fe2442d7",
					"startVote()": "4c0a6af0",
					"state()": "c19d93fb",
					"totalRegisteredVoters()": "00aa7464",
					"voterRegistry(address)": "4763d4e7",
					"voters(address)": "a3ec138d"
				}
			},
			"storageLayout": {
				"storage": [
					{
						"astId": 30,
						"contract": "contracts/ergasia.sol:Election",
						"label": "electionOwner",
						"offset": 0,
						"slot": "0",
						"type": "t_address"
					},
					{
						"astId": 32,
						"contract": "contracts/ergasia.sol:Election",
						"label": "candidatesCount",
						"offset": 0,
						"slot": "1",
						"type": "t_uint256"
					},
					{
						"astId": 34,
						"contract": "contracts/ergasia.sol:Election",
						"label": "pollingStationCount",
						"offset": 0,
						"slot": "2",
						"type": "t_uint256"
					},
					{
						"astId": 36,
						"contract": "contracts/ergasia.sol:Election",
						"label": "totalRegisteredVoters",
						"offset": 0,
						"slot": "3",
						"type": "t_uint256"
					},
					{
						"astId": 41,
						"contract": "contracts/ergasia.sol:Election",
						"label": "candidates",
						"offset": 0,
						"slot": "4",
						"type": "t_mapping(t_uint256,t_struct(Candidate)8_storage)"
					},
					{
						"astId": 46,
						"contract": "contracts/ergasia.sol:Election",
						"label": "pollingStations",
						"offset": 0,
						"slot": "5",
						"type": "t_mapping(t_uint256,t_struct(PollingStation)17_storage)"
					},
					{
						"astId": 51,
						"contract": "contracts/ergasia.sol:Election",
						"label": "voterRegistry",
						"offset": 0,
						"slot": "6",
						"type": "t_mapping(t_address,t_struct(Voter)28_storage)"
					},
					{
						"astId": 55,
						"contract": "contracts/ergasia.sol:Election",
						"label": "voters",
						"offset": 0,
						"slot": "7",
						"type": "t_mapping(t_address,t_bool)"
					},
					{
						"astId": 62,
						"contract": "contracts/ergasia.sol:Election",
						"label": "state",
						"offset": 0,
						"slot": "8",
						"type": "t_enum(State)59"
					}
				],
				"types": {
					"t_address": {
						"encoding": "inplace",
						"label": "address",
						"numberOfBytes": "20"
					},
					"t_bool": {
						"encoding": "inplace",
						"label": "bool",
						"numberOfBytes": "1"
					},
					"t_enum(State)59": {
						"encoding": "inplace",
						"label": "enum Election.State",
						"numberOfBytes": "1"
					},
					"t_int256": {
						"encoding": "inplace",
						"label": "int256",
						"numberOfBytes": "32"
					},
					"t_mapping(t_address,t_bool)": {
						"encoding": "mapping",
						"key": "t_address",
						"label": "mapping(address => bool)",
						"numberOfBytes": "32",
						"value": "t_bool"
					},
					"t_mapping(t_address,t_struct(Voter)28_storage)": {
						"encoding": "mapping",
						"key": "t_address",
						"label": "mapping(address => struct Election.Voter)",
						"numberOfBytes": "32",
						"value": "t_struct(Voter)28_storage"
					},
					"t_mapping(t_uint256,t_struct(Candidate)8_storage)": {
						"encoding": "mapping",
						"key": "t_uint256",
						"label": "mapping(uint256 => struct Election.Candidate)",
						"numberOfBytes": "32",
						"value": "t_struct(Candidate)8_storage"
					},
					"t_mapping(t_uint256,t_struct(PollingStation)17_storage)": {
						"encoding": "mapping",
						"key": "t_uint256",
						"label": "mapping(uint256 => struct Election.PollingStation)",
						"numberOfBytes": "32",
						"value": "t_struct(PollingStation)17_storage"
					},
					"t_string_storage": {
						"encoding": "bytes",
						"label": "string",
						"numberOfBytes": "32"
					},
					"t_struct(Candidate)8_storage": {
						"encoding": "inplace",
						"label": "struct Election.Candidate",
						"members": [
							{
								"astId": 3,
								"contract": "contracts/ergasia.sol:Election",
								"label": "id",
								"offset": 0,
								"slot": "0",
								"type": "t_uint256"
							},
							{
								"astId": 5,
								"contract": "contracts/ergasia.sol:Election",
								"label": "name",
								"offset": 0,
								"slot": "1",
								"type": "t_string_storage"
							},
							{
								"astId": 7,
								"contract": "contracts/ergasia.sol:Election",
								"label": "voteCount",
								"offset": 0,
								"slot": "2",
								"type": "t_uint256"
							}
						],
						"numberOfBytes": "96"
					},
					"t_struct(PollingStation)17_storage": {
						"encoding": "inplace",
						"label": "struct Election.PollingStation",
						"members": [
							{
								"astId": 10,
								"contract": "contracts/ergasia.sol:Election",
								"label": "id",
								"offset": 0,
								"slot": "0",
								"type": "t_uint256"
							},
							{
								"astId": 12,
								"contract": "contracts/ergasia.sol:Election",
								"label": "name",
								"offset": 0,
								"slot": "1",
								"type": "t_string_storage"
							},
							{
								"astId": 14,
								"contract": "contracts/ergasia.sol:Election",
								"label": "votersRegistered",
								"offset": 0,
								"slot": "2",
								"type": "t_uint256"
							},
							{
								"astId": 16,
								"contract": "contracts/ergasia.sol:Election",
								"label": "votesCasted",
								"offset": 0,
								"slot": "3",
								"type": "t_uint256"
							}
						],
						"numberOfBytes": "128"
					},
					"t_struct(Voter)28_storage": {
						"encoding": "inplace",
						"label": "struct Election.Voter",
						"members": [
							{
								"astId": 19,
								"contract": "contracts/ergasia.sol:Election",
								"label": "isEnrolled",
								"offset": 0,
								"slot": "0",
								"type": "t_bool"
							},
							{
								"astId": 21,
								"contract": "contracts/ergasia.sol:Election",
								"label": "hasVoted",
								"offset": 1,
								"slot": "0",
								"type": "t_bool"
							},
							{
								"astId": 23,
								"contract": "contracts/ergasia.sol:Election",
								"label": "indexProposal",
								"offset": 0,
								"slot": "1",
								"type": "t_int256"
							},
							{
								"astId": 25,
								"contract": "contracts/ergasia.sol:Election",
								"label": "enrolledPollingStationID",
								"offset": 0,
								"slot": "2",
								"type": "t_uint256"
							},
							{
								"astId": 27,
								"contract": "contracts/ergasia.sol:Election",
								"label": "votedPollingStationID",
								"offset": 0,
								"slot": "3",
								"type": "t_uint256"
							}
						],
						"numberOfBytes": "128"
					},
					"t_uint256": {
						"encoding": "inplace",
						"label": "uint256",
						"numberOfBytes": "32"
					}
				}
			},
			"userdoc": {
				"kind": "user",
				"methods": {},
				"version": 1
			}
		}
	}
}