{
	"contracts/ergasia.sol": {
		"Election": {
			"abi": [
				{
					"inputs": [],
					"stateMutability": "nonpayable",
					"type": "constructor"
				},
				{
					"inputs": [
						{
							"internalType": "address",
							"name": "_voterAddress",
							"type": "address"
						},
						{
							"internalType": "uint256",
							"name": "_pollingStationID",
							"type": "uint256"
						}
					],
					"name": "addVoter",
					"outputs": [],
					"stateMutability": "nonpayable",
					"type": "function"
				},
				{
					"inputs": [
						{
							"internalType": "uint256",
							"name": "",
							"type": "uint256"
						}
					],
					"name": "candidates",
					"outputs": [
						{
							"internalType": "uint256",
							"name": "id",
							"type": "uint256"
						},
						{
							"internalType": "string",
							"name": "name",
							"type": "string"
						},
						{
							"internalType": "uint256",
							"name": "votes",
							"type": "uint256"
						}
					],
					"stateMutability": "view",
					"type": "function"
				},
				{
					"inputs": [],
					"name": "candidatesCount",
					"outputs": [
						{
							"internalType": "uint256",
							"name": "",
							"type": "uint256"
						}
					],
					"stateMutability": "view",
					"type": "function"
				},
				{
					"inputs": [
						{
							"internalType": "uint256",
							"name": "_choice",
							"type": "uint256"
						},
						{
							"internalType": "uint256",
							"name": "_pollingStationID",
							"type": "uint256"
						}
					],
					"name": "castVote",
					"outputs": [],
					"stateMutability": "nonpayable",
					"type": "function"
				},
				{
					"inputs": [],
					"name": "electionOwner",
					"outputs": [
						{
							"internalType": "address",
							"name": "",
							"type": "address"
						}
					],
					"stateMutability": "view",
					"type": "function"
				},
				{
					"inputs": [],
					"name": "finalResult",
					"outputs": [
						{
							"internalType": "uint256",
							"name": "",
							"type": "uint256"
						}
					],
					"stateMutability": "view",
					"type": "function"
				},
				{
					"inputs": [],
					"name": "pollingStationCount",
					"outputs": [
						{
							"internalType": "uint256",
							"name": "",
							"type": "uint256"
						}
					],
					"stateMutability": "view",
					"type": "function"
				},
				{
					"inputs": [
						{
							"internalType": "uint256",
							"name": "",
							"type": "uint256"
						}
					],
					"name": "pollingStations",
					"outputs": [
						{
							"internalType": "uint256",
							"name": "id",
							"type": "uint256"
						},
						{
							"internalType": "string",
							"name": "name",
							"type": "string"
						},
						{
							"internalType": "uint256",
							"name": "votersRegistered",
							"type": "uint256"
						},
						{
							"internalType": "uint256",
							"name": "votesCasted",
							"type": "uint256"
						}
					],
					"stateMutability": "view",
					"type": "function"
				},
				{
					"inputs": [],
					"name": "startVote",
					"outputs": [],
					"stateMutability": "nonpayable",
					"type": "function"
				},
				{
					"inputs": [],
					"name": "state",
					"outputs": [
						{
							"internalType": "enum Election.State",
							"name": "",
							"type": "uint8"
						}
					],
					"stateMutability": "view",
					"type": "function"
				},
				{
					"inputs": [],
					"name": "totalRegisteredVoters",
					"outputs": [
						{
							"internalType": "uint256",
							"name": "",
							"type": "uint256"
						}
					],
					"stateMutability": "view",
					"type": "function"
				},
				{
					"inputs": [],
					"name": "totalVotes",
					"outputs": [
						{
							"internalType": "uint256",
							"name": "",
							"type": "uint256"
						}
					],
					"stateMutability": "view",
					"type": "function"
				},
				{
					"inputs": [
						{
							"internalType": "address",
							"name": "",
							"type": "address"
						}
					],
					"name": "voterRegistry",
					"outputs": [
						{
							"internalType": "bool",
							"name": "isEnrolled",
							"type": "bool"
						},
						{
							"internalType": "bool",
							"name": "hasVoted",
							"type": "bool"
						},
						{
							"internalType": "uint256",
							"name": "choice",
							"type": "uint256"
						},
						{
							"internalType": "uint256",
							"name": "enrolledPollingStationID",
							"type": "uint256"
						},
						{
							"internalType": "uint256",
							"name": "votedPollingStationID",
							"type": "uint256"
						}
					],
					"stateMutability": "view",
					"type": "function"
				},
				{
					"inputs": [
						{
							"internalType": "address",
							"name": "",
							"type": "address"
						}
					],
					"name": "voters",
					"outputs": [
						{
							"internalType": "bool",
							"name": "",
							"type": "bool"
						}
					],
					"stateMutability": "view",
					"type": "function"
				}
			],
			"devdoc": {
				"kind": "dev",
				"methods": {
					"addVoter(address,uint256)": {
						"details": "Adds a voter to the voter registry. May only be called by 'owner'.",
						"params": {
							"_pollingStationID": "polling station ID in which voter is registered.",
							"_voterAddress": "address of voter"
						}
					}
				},
				"version": 1
			},
			"evm": {
				"assembly": "    /* \"contracts/ergasia.sol\":70:7219  contract Election {... */\n  mstore(0x40, 0x80)\n    /* \"contracts/ergasia.sol\":1435:1436  0 */\n  0x00\n    /* \"contracts/ergasia.sol\":1408:1436  uint private countResult = 0 */\n  0x04\n  sstore\n    /* \"contracts/ergasia.sol\":1516:1517  0 */\n  0x00\n    /* \"contracts/ergasia.sol\":1490:1517  uint public finalResult = 0 */\n  0x05\n  sstore\n    /* \"contracts/ergasia.sol\":1596:1597  0 */\n  0x00\n    /* \"contracts/ergasia.sol\":1571:1597  uint public totalVotes = 0 */\n  0x06\n  sstore\n    /* \"contracts/ergasia.sol\":2115:2382  constructor() {... */\n  callvalue\n  dup1\n  iszero\n  tag_1\n  jumpi\n  0x00\n  dup1\n  revert\ntag_1:\n  pop\n    /* \"contracts/ergasia.sol\":2155:2165  msg.sender */\n  caller\n    /* \"contracts/ergasia.sol\":2139:2152  electionOwner */\n  0x00\n  dup1\n    /* \"contracts/ergasia.sol\":2139:2165  electionOwner = msg.sender */\n  0x0100\n  exp\n  dup2\n  sload\n  dup2\n  0xffffffffffffffffffffffffffffffffffffffff\n  mul\n  not\n  and\n  swap1\n  dup4\n  0xffffffffffffffffffffffffffffffffffffffff\n  and\n  mul\n  or\n  swap1\n  sstore\n  pop\n    /* \"contracts/ergasia.sol\":2214:2230  initCandidates() */\n  tag_4\n    /* \"contracts/ergasia.sol\":2214:2228  initCandidates */\n  shl(0x20, tag_5)\n    /* \"contracts/ergasia.sol\":2214:2230  initCandidates() */\n  0x20\n  shr\n  jump\t// in\ntag_4:\n    /* \"contracts/ergasia.sol\":2285:2306  initPollingStations() */\n  tag_6\n    /* \"contracts/ergasia.sol\":2285:2304  initPollingStations */\n  shl(0x20, tag_7)\n    /* \"contracts/ergasia.sol\":2285:2306  initPollingStations() */\n  0x20\n  shr\n  jump\t// in\ntag_6:\n    /* \"contracts/ergasia.sol\":2360:2373  State.Created */\n  0x00\n    /* \"contracts/ergasia.sol\":2352:2357  state */\n  0x0b\n  0x00\n    /* \"contracts/ergasia.sol\":2352:2373  state = State.Created */\n  0x0100\n  exp\n  dup2\n  sload\n  dup2\n  0xff\n  mul\n  not\n  and\n  swap1\n  dup4\n  0x02\n  dup2\n  gt\n  iszero\n  tag_8\n  jumpi\n  tag_9\n  tag_10\n  jump\t// in\ntag_9:\ntag_8:\n  mul\n  or\n  swap1\n  sstore\n  pop\n    /* \"contracts/ergasia.sol\":70:7219  contract Election {... */\n  jump(tag_11)\n    /* \"contracts/ergasia.sol\":2441:2668  function initCandidates() internal {... */\ntag_5:\n    /* \"contracts/ergasia.sol\":2486:2513  addCandidate(\"Candidate 1\") */\n  tag_13\n  mload(0x40)\n  dup1\n  0x40\n  add\n  0x40\n  mstore\n  dup1\n  0x0b\n  dup2\n  mstore\n  0x20\n  add\n  0x43616e6469646174652031000000000000000000000000000000000000000000\n  dup2\n  mstore\n  pop\n    /* \"contracts/ergasia.sol\":2486:2498  addCandidate */\n  shl(0x20, tag_14)\n    /* \"contracts/ergasia.sol\":2486:2513  addCandidate(\"Candidate 1\") */\n  0x20\n  shr\n  jump\t// in\ntag_13:\n    /* \"contracts/ergasia.sol\":2523:2550  addCandidate(\"Candidate 2\") */\n  tag_15\n  mload(0x40)\n  dup1\n  0x40\n  add\n  0x40\n  mstore\n  dup1\n  0x0b\n  dup2\n  mstore\n  0x20\n  add\n  0x43616e6469646174652032000000000000000000000000000000000000000000\n  dup2\n  mstore\n  pop\n    /* \"contracts/ergasia.sol\":2523:2535  addCandidate */\n  shl(0x20, tag_14)\n    /* \"contracts/ergasia.sol\":2523:2550  addCandidate(\"Candidate 2\") */\n  0x20\n  shr\n  jump\t// in\ntag_15:\n    /* \"contracts/ergasia.sol\":2560:2587  addCandidate(\"Candidate 3\") */\n  tag_16\n  mload(0x40)\n  dup1\n  0x40\n  add\n  0x40\n  mstore\n  dup1\n  0x0b\n  dup2\n  mstore\n  0x20\n  add\n  0x43616e6469646174652033000000000000000000000000000000000000000000\n  dup2\n  mstore\n  pop\n    /* \"contracts/ergasia.sol\":2560:2572  addCandidate */\n  shl(0x20, tag_14)\n    /* \"contracts/ergasia.sol\":2560:2587  addCandidate(\"Candidate 3\") */\n  0x20\n  shr\n  jump\t// in\ntag_16:\n    /* \"contracts/ergasia.sol\":2597:2624  addCandidate(\"Candidate 4\") */\n  tag_17\n  mload(0x40)\n  dup1\n  0x40\n  add\n  0x40\n  mstore\n  dup1\n  0x0b\n  dup2\n  mstore\n  0x20\n  add\n  0x43616e6469646174652034000000000000000000000000000000000000000000\n  dup2\n  mstore\n  pop\n    /* \"contracts/ergasia.sol\":2597:2609  addCandidate */\n  shl(0x20, tag_14)\n    /* \"contracts/ergasia.sol\":2597:2624  addCandidate(\"Candidate 4\") */\n  0x20\n  shr\n  jump\t// in\ntag_17:\n    /* \"contracts/ergasia.sol\":2634:2661  addCandidate(\"Candidate 5\") */\n  tag_18\n  mload(0x40)\n  dup1\n  0x40\n  add\n  0x40\n  mstore\n  dup1\n  0x0b\n  dup2\n  mstore\n  0x20\n  add\n  0x43616e6469646174652035000000000000000000000000000000000000000000\n  dup2\n  mstore\n  pop\n    /* \"contracts/ergasia.sol\":2634:2646  addCandidate */\n  shl(0x20, tag_14)\n    /* \"contracts/ergasia.sol\":2634:2661  addCandidate(\"Candidate 5\") */\n  0x20\n  shr\n  jump\t// in\ntag_18:\n    /* \"contracts/ergasia.sol\":2441:2668  function initCandidates() internal {... */\n  jump\t// out\n    /* \"contracts/ergasia.sol\":3011:3539  function initPollingStations() internal {... */\ntag_7:\n    /* \"contracts/ergasia.sol\":3061:3099  addPollingStation(\"Polling Station 1\") */\n  tag_20\n  mload(0x40)\n  dup1\n  0x40\n  add\n  0x40\n  mstore\n  dup1\n  0x11\n  dup2\n  mstore\n  0x20\n  add\n  0x506f6c6c696e672053746174696f6e2031000000000000000000000000000000\n  dup2\n  mstore\n  pop\n    /* \"contracts/ergasia.sol\":3061:3078  addPollingStation */\n  shl(0x20, tag_21)\n    /* \"contracts/ergasia.sol\":3061:3099  addPollingStation(\"Polling Station 1\") */\n  0x20\n  shr\n  jump\t// in\ntag_20:\n    /* \"contracts/ergasia.sol\":3109:3147  addPollingStation(\"Polling Station 2\") */\n  tag_22\n  mload(0x40)\n  dup1\n  0x40\n  add\n  0x40\n  mstore\n  dup1\n  0x11\n  dup2\n  mstore\n  0x20\n  add\n  0x506f6c6c696e672053746174696f6e2032000000000000000000000000000000\n  dup2\n  mstore\n  pop\n    /* \"contracts/ergasia.sol\":3109:3126  addPollingStation */\n  shl(0x20, tag_21)\n    /* \"contracts/ergasia.sol\":3109:3147  addPollingStation(\"Polling Station 2\") */\n  0x20\n  shr\n  jump\t// in\ntag_22:\n    /* \"contracts/ergasia.sol\":3157:3195  addPollingStation(\"Polling Station 3\") */\n  tag_23\n  mload(0x40)\n  dup1\n  0x40\n  add\n  0x40\n  mstore\n  dup1\n  0x11\n  dup2\n  mstore\n  0x20\n  add\n  0x506f6c6c696e672053746174696f6e2033000000000000000000000000000000\n  dup2\n  mstore\n  pop\n    /* \"contracts/ergasia.sol\":3157:3174  addPollingStation */\n  shl(0x20, tag_21)\n    /* \"contracts/ergasia.sol\":3157:3195  addPollingStation(\"Polling Station 3\") */\n  0x20\n  shr\n  jump\t// in\ntag_23:\n    /* \"contracts/ergasia.sol\":3205:3243  addPollingStation(\"Polling Station 4\") */\n  tag_24\n  mload(0x40)\n  dup1\n  0x40\n  add\n  0x40\n  mstore\n  dup1\n  0x11\n  dup2\n  mstore\n  0x20\n  add\n  0x506f6c6c696e672053746174696f6e2034000000000000000000000000000000\n  dup2\n  mstore\n  pop\n    /* \"contracts/ergasia.sol\":3205:3222  addPollingStation */\n  shl(0x20, tag_21)\n    /* \"contracts/ergasia.sol\":3205:3243  addPollingStation(\"Polling Station 4\") */\n  0x20\n  shr\n  jump\t// in\ntag_24:\n    /* \"contracts/ergasia.sol\":3253:3291  addPollingStation(\"Polling Station 5\") */\n  tag_25\n  mload(0x40)\n  dup1\n  0x40\n  add\n  0x40\n  mstore\n  dup1\n  0x11\n  dup2\n  mstore\n  0x20\n  add\n  0x506f6c6c696e672053746174696f6e2035000000000000000000000000000000\n  dup2\n  mstore\n  pop\n    /* \"contracts/ergasia.sol\":3253:3270  addPollingStation */\n  shl(0x20, tag_21)\n    /* \"contracts/ergasia.sol\":3253:3291  addPollingStation(\"Polling Station 5\") */\n  0x20\n  shr\n  jump\t// in\ntag_25:\n    /* \"contracts/ergasia.sol\":3301:3339  addPollingStation(\"Polling Station 6\") */\n  tag_26\n  mload(0x40)\n  dup1\n  0x40\n  add\n  0x40\n  mstore\n  dup1\n  0x11\n  dup2\n  mstore\n  0x20\n  add\n  0x506f6c6c696e672053746174696f6e2036000000000000000000000000000000\n  dup2\n  mstore\n  pop\n    /* \"contracts/ergasia.sol\":3301:3318  addPollingStation */\n  shl(0x20, tag_21)\n    /* \"contracts/ergasia.sol\":3301:3339  addPollingStation(\"Polling Station 6\") */\n  0x20\n  shr\n  jump\t// in\ntag_26:\n    /* \"contracts/ergasia.sol\":3349:3387  addPollingStation(\"Polling Station 7\") */\n  tag_27\n  mload(0x40)\n  dup1\n  0x40\n  add\n  0x40\n  mstore\n  dup1\n  0x11\n  dup2\n  mstore\n  0x20\n  add\n  0x506f6c6c696e672053746174696f6e2037000000000000000000000000000000\n  dup2\n  mstore\n  pop\n    /* \"contracts/ergasia.sol\":3349:3366  addPollingStation */\n  shl(0x20, tag_21)\n    /* \"contracts/ergasia.sol\":3349:3387  addPollingStation(\"Polling Station 7\") */\n  0x20\n  shr\n  jump\t// in\ntag_27:\n    /* \"contracts/ergasia.sol\":3397:3435  addPollingStation(\"Polling Station 8\") */\n  tag_28\n  mload(0x40)\n  dup1\n  0x40\n  add\n  0x40\n  mstore\n  dup1\n  0x11\n  dup2\n  mstore\n  0x20\n  add\n  0x506f6c6c696e672053746174696f6e2038000000000000000000000000000000\n  dup2\n  mstore\n  pop\n    /* \"contracts/ergasia.sol\":3397:3414  addPollingStation */\n  shl(0x20, tag_21)\n    /* \"contracts/ergasia.sol\":3397:3435  addPollingStation(\"Polling Station 8\") */\n  0x20\n  shr\n  jump\t// in\ntag_28:\n    /* \"contracts/ergasia.sol\":3445:3483  addPollingStation(\"Polling Station 9\") */\n  tag_29\n  mload(0x40)\n  dup1\n  0x40\n  add\n  0x40\n  mstore\n  dup1\n  0x11\n  dup2\n  mstore\n  0x20\n  add\n  0x506f6c6c696e672053746174696f6e2039000000000000000000000000000000\n  dup2\n  mstore\n  pop\n    /* \"contracts/ergasia.sol\":3445:3462  addPollingStation */\n  shl(0x20, tag_21)\n    /* \"contracts/ergasia.sol\":3445:3483  addPollingStation(\"Polling Station 9\") */\n  0x20\n  shr\n  jump\t// in\ntag_29:\n    /* \"contracts/ergasia.sol\":3493:3532  addPollingStation(\"Polling Station 10\") */\n  tag_30\n  mload(0x40)\n  dup1\n  0x40\n  add\n  0x40\n  mstore\n  dup1\n  0x12\n  dup2\n  mstore\n  0x20\n  add\n  0x506f6c6c696e672053746174696f6e2031300000000000000000000000000000\n  dup2\n  mstore\n  pop\n    /* \"contracts/ergasia.sol\":3493:3510  addPollingStation */\n  shl(0x20, tag_21)\n    /* \"contracts/ergasia.sol\":3493:3532  addPollingStation(\"Polling Station 10\") */\n  0x20\n  shr\n  jump\t// in\ntag_30:\n    /* \"contracts/ergasia.sol\":3011:3539  function initPollingStations() internal {... */\n  jump\t// out\n    /* \"contracts/ergasia.sol\":2788:2950  function addCandidate (string memory _name) private {... */\ntag_14:\n    /* \"contracts/ergasia.sol\":2850:2865  candidatesCount */\n  0x01\n  0x00\n    /* \"contracts/ergasia.sol\":2850:2867  candidatesCount++ */\n  dup2\n  sload\n  dup1\n  swap3\n  swap2\n  swap1\n  tag_32\n  swap1\n  tag_33\n  jump\t// in\ntag_32:\n  swap2\n  swap1\n  pop\n  sstore\n  pop\n    /* \"contracts/ergasia.sol\":2907:2943  Candidate(candidatesCount, _name, 0) */\n  mload(0x40)\n  dup1\n  0x60\n  add\n  0x40\n  mstore\n  dup1\n    /* \"contracts/ergasia.sol\":2917:2932  candidatesCount */\n  sload(0x01)\n    /* \"contracts/ergasia.sol\":2907:2943  Candidate(candidatesCount, _name, 0) */\n  dup2\n  mstore\n  0x20\n  add\n    /* \"contracts/ergasia.sol\":2934:2939  _name */\n  dup3\n    /* \"contracts/ergasia.sol\":2907:2943  Candidate(candidatesCount, _name, 0) */\n  dup2\n  mstore\n  0x20\n  add\n    /* \"contracts/ergasia.sol\":2941:2942  0 */\n  0x00\n    /* \"contracts/ergasia.sol\":2907:2943  Candidate(candidatesCount, _name, 0) */\n  dup2\n  mstore\n  pop\n    /* \"contracts/ergasia.sol\":2877:2887  candidates */\n  0x07\n    /* \"contracts/ergasia.sol\":2877:2904  candidates[candidatesCount] */\n  0x00\n    /* \"contracts/ergasia.sol\":2888:2903  candidatesCount */\n  sload(0x01)\n    /* \"contracts/ergasia.sol\":2877:2904  candidates[candidatesCount] */\n  dup2\n  mstore\n  0x20\n  add\n  swap1\n  dup2\n  mstore\n  0x20\n  add\n  0x00\n  keccak256\n    /* \"contracts/ergasia.sol\":2877:2943  candidates[candidatesCount] = Candidate(candidatesCount, _name, 0) */\n  0x00\n  dup3\n  add\n  mload\n  dup2\n  0x00\n  add\n  sstore\n  0x20\n  dup3\n  add\n  mload\n  dup2\n  0x01\n  add\n  swap1\n  dup1\n  mload\n  swap1\n  0x20\n  add\n  swap1\n  tag_34\n  swap3\n  swap2\n  swap1\n  tag_35\n  jump\t// in\ntag_34:\n  pop\n  0x40\n  dup3\n  add\n  mload\n  dup2\n  0x02\n  add\n  sstore\n  swap1\n  pop\n  pop\n    /* \"contracts/ergasia.sol\":2788:2950  function addCandidate (string memory _name) private {... */\n  pop\n  jump\t// out\n    /* \"contracts/ergasia.sol\":3662:3854  function addPollingStation (string memory _name) private {... */\ntag_21:\n    /* \"contracts/ergasia.sol\":3729:3748  pollingStationCount */\n  0x02\n  0x00\n    /* \"contracts/ergasia.sol\":3729:3750  pollingStationCount++ */\n  dup2\n  sload\n  dup1\n  swap3\n  swap2\n  swap1\n  tag_37\n  swap1\n  tag_33\n  jump\t// in\ntag_37:\n  swap2\n  swap1\n  pop\n  sstore\n  pop\n    /* \"contracts/ergasia.sol\":3799:3847  PollingStation(pollingStationCount, _name, 0, 0) */\n  mload(0x40)\n  dup1\n  0x80\n  add\n  0x40\n  mstore\n  dup1\n    /* \"contracts/ergasia.sol\":3814:3833  pollingStationCount */\n  sload(0x02)\n    /* \"contracts/ergasia.sol\":3799:3847  PollingStation(pollingStationCount, _name, 0, 0) */\n  dup2\n  mstore\n  0x20\n  add\n    /* \"contracts/ergasia.sol\":3835:3840  _name */\n  dup3\n    /* \"contracts/ergasia.sol\":3799:3847  PollingStation(pollingStationCount, _name, 0, 0) */\n  dup2\n  mstore\n  0x20\n  add\n    /* \"contracts/ergasia.sol\":3842:3843  0 */\n  0x00\n    /* \"contracts/ergasia.sol\":3799:3847  PollingStation(pollingStationCount, _name, 0, 0) */\n  dup2\n  mstore\n  0x20\n  add\n    /* \"contracts/ergasia.sol\":3845:3846  0 */\n  0x00\n    /* \"contracts/ergasia.sol\":3799:3847  PollingStation(pollingStationCount, _name, 0, 0) */\n  dup2\n  mstore\n  pop\n    /* \"contracts/ergasia.sol\":3760:3775  pollingStations */\n  0x08\n    /* \"contracts/ergasia.sol\":3760:3796  pollingStations[pollingStationCount] */\n  0x00\n    /* \"contracts/ergasia.sol\":3776:3795  pollingStationCount */\n  sload(0x02)\n    /* \"contracts/ergasia.sol\":3760:3796  pollingStations[pollingStationCount] */\n  dup2\n  mstore\n  0x20\n  add\n  swap1\n  dup2\n  mstore\n  0x20\n  add\n  0x00\n  keccak256\n    /* \"contracts/ergasia.sol\":3760:3847  pollingStations[pollingStationCount] = PollingStation(pollingStationCount, _name, 0, 0) */\n  0x00\n  dup3\n  add\n  mload\n  dup2\n  0x00\n  add\n  sstore\n  0x20\n  dup3\n  add\n  mload\n  dup2\n  0x01\n  add\n  swap1\n  dup1\n  mload\n  swap1\n  0x20\n  add\n  swap1\n  tag_38\n  swap3\n  swap2\n  swap1\n  tag_35\n  jump\t// in\ntag_38:\n  pop\n  0x40\n  dup3\n  add\n  mload\n  dup2\n  0x02\n  add\n  sstore\n  0x60\n  dup3\n  add\n  mload\n  dup2\n  0x03\n  add\n  sstore\n  swap1\n  pop\n  pop\n    /* \"contracts/ergasia.sol\":3662:3854  function addPollingStation (string memory _name) private {... */\n  pop\n  jump\t// out\n    /* \"contracts/ergasia.sol\":70:7219  contract Election {... */\ntag_35:\n  dup3\n  dup1\n  sload\n  tag_39\n  swap1\n  tag_40\n  jump\t// in\ntag_39:\n  swap1\n  0x00\n  mstore\n  keccak256(0x00, 0x20)\n  swap1\n  0x1f\n  add\n  0x20\n  swap1\n  div\n  dup2\n  add\n  swap3\n  dup3\n  tag_42\n  jumpi\n  0x00\n  dup6\n  sstore\n  jump(tag_41)\ntag_42:\n  dup3\n  0x1f\n  lt\n  tag_43\n  jumpi\n  dup1\n  mload\n  not(0xff)\n  and\n  dup4\n  dup1\n  add\n  or\n  dup6\n  sstore\n  jump(tag_41)\ntag_43:\n  dup3\n  dup1\n  add\n  0x01\n  add\n  dup6\n  sstore\n  dup3\n  iszero\n  tag_41\n  jumpi\n  swap2\n  dup3\n  add\ntag_44:\n  dup3\n  dup2\n  gt\n  iszero\n  tag_45\n  jumpi\n  dup3\n  mload\n  dup3\n  sstore\n  swap2\n  0x20\n  add\n  swap2\n  swap1\n  0x01\n  add\n  swap1\n  jump(tag_44)\ntag_45:\ntag_41:\n  pop\n  swap1\n  pop\n  tag_46\n  swap2\n  swap1\n  tag_47\n  jump\t// in\ntag_46:\n  pop\n  swap1\n  jump\t// out\ntag_47:\ntag_48:\n  dup1\n  dup3\n  gt\n  iszero\n  tag_49\n  jumpi\n  0x00\n  dup2\n  0x00\n  swap1\n  sstore\n  pop\n  0x01\n  add\n  jump(tag_48)\ntag_49:\n  pop\n  swap1\n  jump\t// out\n    /* \"#utility.yul\":7:84   */\ntag_51:\n    /* \"#utility.yul\":44:51   */\n  0x00\n    /* \"#utility.yul\":73:78   */\n  dup2\n    /* \"#utility.yul\":62:78   */\n  swap1\n  pop\n    /* \"#utility.yul\":7:84   */\n  swap2\n  swap1\n  pop\n  jump\t// out\n    /* \"#utility.yul\":90:410   */\ntag_40:\n    /* \"#utility.yul\":134:140   */\n  0x00\n    /* \"#utility.yul\":171:172   */\n  0x02\n    /* \"#utility.yul\":165:169   */\n  dup3\n    /* \"#utility.yul\":161:173   */\n  div\n    /* \"#utility.yul\":151:173   */\n  swap1\n  pop\n    /* \"#utility.yul\":218:219   */\n  0x01\n    /* \"#utility.yul\":212:216   */\n  dup3\n    /* \"#utility.yul\":208:220   */\n  and\n    /* \"#utility.yul\":239:257   */\n  dup1\n    /* \"#utility.yul\":229:310   */\n  tag_54\n  jumpi\n    /* \"#utility.yul\":295:299   */\n  0x7f\n    /* \"#utility.yul\":287:293   */\n  dup3\n    /* \"#utility.yul\":283:300   */\n  and\n    /* \"#utility.yul\":273:300   */\n  swap2\n  pop\n    /* \"#utility.yul\":229:310   */\ntag_54:\n    /* \"#utility.yul\":357:359   */\n  0x20\n    /* \"#utility.yul\":349:355   */\n  dup3\n    /* \"#utility.yul\":346:360   */\n  lt\n    /* \"#utility.yul\":326:344   */\n  dup2\n    /* \"#utility.yul\":323:361   */\n  eq\n    /* \"#utility.yul\":320:404   */\n  iszero\n  tag_55\n  jumpi\n    /* \"#utility.yul\":376:394   */\n  tag_56\n  tag_57\n  jump\t// in\ntag_56:\n    /* \"#utility.yul\":320:404   */\ntag_55:\n    /* \"#utility.yul\":141:410   */\n  pop\n    /* \"#utility.yul\":90:410   */\n  swap2\n  swap1\n  pop\n  jump\t// out\n    /* \"#utility.yul\":416:649   */\ntag_33:\n    /* \"#utility.yul\":455:458   */\n  0x00\n    /* \"#utility.yul\":478:502   */\n  tag_59\n    /* \"#utility.yul\":496:501   */\n  dup3\n    /* \"#utility.yul\":478:502   */\n  tag_51\n  jump\t// in\ntag_59:\n    /* \"#utility.yul\":469:502   */\n  swap2\n  pop\n    /* \"#utility.yul\":524:590   */\n  0xffffffffffffffffffffffffffffffffffffffffffffffffffffffffffffffff\n    /* \"#utility.yul\":517:522   */\n  dup3\n    /* \"#utility.yul\":514:591   */\n  eq\n    /* \"#utility.yul\":511:614   */\n  iszero\n  tag_60\n  jumpi\n    /* \"#utility.yul\":594:612   */\n  tag_61\n  tag_62\n  jump\t// in\ntag_61:\n    /* \"#utility.yul\":511:614   */\ntag_60:\n    /* \"#utility.yul\":641:642   */\n  0x01\n    /* \"#utility.yul\":634:639   */\n  dup3\n    /* \"#utility.yul\":630:643   */\n  add\n    /* \"#utility.yul\":623:643   */\n  swap1\n  pop\n    /* \"#utility.yul\":416:649   */\n  swap2\n  swap1\n  pop\n  jump\t// out\n    /* \"#utility.yul\":655:835   */\ntag_62:\n    /* \"#utility.yul\":703:780   */\n  0x4e487b7100000000000000000000000000000000000000000000000000000000\n    /* \"#utility.yul\":700:701   */\n  0x00\n    /* \"#utility.yul\":693:781   */\n  mstore\n    /* \"#utility.yul\":800:804   */\n  0x11\n    /* \"#utility.yul\":797:798   */\n  0x04\n    /* \"#utility.yul\":790:805   */\n  mstore\n    /* \"#utility.yul\":824:828   */\n  0x24\n    /* \"#utility.yul\":821:822   */\n  0x00\n    /* \"#utility.yul\":814:829   */\n  revert\n    /* \"#utility.yul\":841:1021   */\ntag_10:\n    /* \"#utility.yul\":889:966   */\n  0x4e487b7100000000000000000000000000000000000000000000000000000000\n    /* \"#utility.yul\":886:887   */\n  0x00\n    /* \"#utility.yul\":879:967   */\n  mstore\n    /* \"#utility.yul\":986:990   */\n  0x21\n    /* \"#utility.yul\":983:984   */\n  0x04\n    /* \"#utility.yul\":976:991   */\n  mstore\n    /* \"#utility.yul\":1010:1014   */\n  0x24\n    /* \"#utility.yul\":1007:1008   */\n  0x00\n    /* \"#utility.yul\":1000:1015   */\n  revert\n    /* \"#utility.yul\":1027:1207   */\ntag_57:\n    /* \"#utility.yul\":1075:1152   */\n  0x4e487b7100000000000000000000000000000000000000000000000000000000\n    /* \"#utility.yul\":1072:1073   */\n  0x00\n    /* \"#utility.yul\":1065:1153   */\n  mstore\n    /* \"#utility.yul\":1172:1176   */\n  0x22\n    /* \"#utility.yul\":1169:1170   */\n  0x04\n    /* \"#utility.yul\":1162:1177   */\n  mstore\n    /* \"#utility.yul\":1196:1200   */\n  0x24\n    /* \"#utility.yul\":1193:1194   */\n  0x00\n    /* \"#utility.yul\":1186:1201   */\n  revert\n    /* \"contracts/ergasia.sol\":70:7219  contract Election {... */\ntag_11:\n  dataSize(sub_0)\n  dup1\n  dataOffset(sub_0)\n  0x00\n  codecopy\n  0x00\n  return\nstop\n\nsub_0: assembly {\n        /* \"contracts/ergasia.sol\":70:7219  contract Election {... */\n      mstore(0x40, 0x80)\n      callvalue\n      dup1\n      iszero\n      tag_1\n      jumpi\n      0x00\n      dup1\n      revert\n    tag_1:\n      pop\n      jumpi(tag_2, lt(calldatasize, 0x04))\n      shr(0xe0, calldataload(0x00))\n      dup1\n      0x53357ad0\n      gt\n      tag_17\n      jumpi\n      dup1\n      0xc19d93fb\n      gt\n      tag_18\n      jumpi\n      dup1\n      0xc19d93fb\n      eq\n      tag_13\n      jumpi\n      dup1\n      0xdf9f1a07\n      eq\n      tag_14\n      jumpi\n      dup1\n      0xf3a8286f\n      eq\n      tag_15\n      jumpi\n      dup1\n      0xfe2442d7\n      eq\n      tag_16\n      jumpi\n      jump(tag_2)\n    tag_18:\n      dup1\n      0x53357ad0\n      eq\n      tag_10\n      jumpi\n      dup1\n      0xa3ec138d\n      eq\n      tag_11\n      jumpi\n      dup1\n      0xb9f05f2f\n      eq\n      tag_12\n      jumpi\n      jump(tag_2)\n    tag_17:\n      dup1\n      0x2d35a8a2\n      gt\n      tag_19\n      jumpi\n      dup1\n      0x2d35a8a2\n      eq\n      tag_6\n      jumpi\n      dup1\n      0x3477ee2e\n      eq\n      tag_7\n      jumpi\n      dup1\n      0x4763d4e7\n      eq\n      tag_8\n      jumpi\n      dup1\n      0x4c0a6af0\n      eq\n      tag_9\n      jumpi\n      jump(tag_2)\n    tag_19:\n      dup1\n      0xaa7464\n      eq\n      tag_3\n      jumpi\n      dup1\n      0x0d15fd77\n      eq\n      tag_4\n      jumpi\n      dup1\n      0x2c0a3f89\n      eq\n      tag_5\n      jumpi\n    tag_2:\n      0x00\n      dup1\n      revert\n        /* \"contracts/ergasia.sol\":1369:1402  uint public totalRegisteredVoters */\n    tag_3:\n      tag_20\n      tag_21\n      jump\t// in\n    tag_20:\n      mload(0x40)\n      tag_22\n      swap2\n      swap1\n      tag_23\n      jump\t// in\n    tag_22:\n      mload(0x40)\n      dup1\n      swap2\n      sub\n      swap1\n      return\n        /* \"contracts/ergasia.sol\":1571:1597  uint public totalVotes = 0 */\n    tag_4:\n      tag_24\n      tag_25\n      jump\t// in\n    tag_24:\n      mload(0x40)\n      tag_26\n      swap2\n      swap1\n      tag_23\n      jump\t// in\n    tag_26:\n      mload(0x40)\n      dup1\n      swap2\n      sub\n      swap1\n      return\n        /* \"contracts/ergasia.sol\":5898:7073  function castVote(uint _choice, uint _pollingStationID) public inState(State.Voting) {... */\n    tag_5:\n      tag_27\n      0x04\n      dup1\n      calldatasize\n      sub\n      dup2\n      add\n      swap1\n      tag_28\n      swap2\n      swap1\n      tag_29\n      jump\t// in\n    tag_28:\n      tag_30\n      jump\t// in\n    tag_27:\n      stop\n        /* \"contracts/ergasia.sol\":1221:1248  uint public candidatesCount */\n    tag_6:\n      tag_31\n      tag_32\n      jump\t// in\n    tag_31:\n      mload(0x40)\n      tag_33\n      swap2\n      swap1\n      tag_23\n      jump\t// in\n    tag_33:\n      mload(0x40)\n      dup1\n      swap2\n      sub\n      swap1\n      return\n        /* \"contracts/ergasia.sol\":1613:1657  mapping(uint => Candidate) public candidates */\n    tag_7:\n      tag_34\n      0x04\n      dup1\n      calldatasize\n      sub\n      dup2\n      add\n      swap1\n      tag_35\n      swap2\n      swap1\n      tag_36\n      jump\t// in\n    tag_35:\n      tag_37\n      jump\t// in\n    tag_34:\n      mload(0x40)\n      tag_38\n      swap4\n      swap3\n      swap2\n      swap1\n      tag_39\n      jump\t// in\n    tag_38:\n      mload(0x40)\n      dup1\n      swap2\n      sub\n      swap1\n      return\n        /* \"contracts/ergasia.sol\":1771:1817  mapping(address => Voter) public voterRegistry */\n    tag_8:\n      tag_40\n      0x04\n      dup1\n      calldatasize\n      sub\n      dup2\n      add\n      swap1\n      tag_41\n      swap2\n      swap1\n      tag_42\n      jump\t// in\n    tag_41:\n      tag_43\n      jump\t// in\n    tag_40:\n      mload(0x40)\n      tag_44\n      swap6\n      swap5\n      swap4\n      swap3\n      swap2\n      swap1\n      tag_45\n      jump\t// in\n    tag_44:\n      mload(0x40)\n      dup1\n      swap2\n      sub\n      swap1\n      return\n        /* \"contracts/ergasia.sol\":5547:5641  function startVote() public inState(State.Created) Owner {... */\n    tag_9:\n      tag_46\n      tag_47\n      jump\t// in\n    tag_46:\n      stop\n        /* \"contracts/ergasia.sol\":1187:1215  address public electionOwner */\n    tag_10:\n      tag_48\n      tag_49\n      jump\t// in\n    tag_48:\n      mload(0x40)\n      tag_50\n      swap2\n      swap1\n      tag_51\n      jump\t// in\n    tag_50:\n      mload(0x40)\n      dup1\n      swap2\n      sub\n      swap1\n      return\n        /* \"contracts/ergasia.sol\":1823:1861  mapping(address => bool) public voters */\n    tag_11:\n      tag_52\n      0x04\n      dup1\n      calldatasize\n      sub\n      dup2\n      add\n      swap1\n      tag_53\n      swap2\n      swap1\n      tag_42\n      jump\t// in\n    tag_53:\n      tag_54\n      jump\t// in\n    tag_52:\n      mload(0x40)\n      tag_55\n      swap2\n      swap1\n      tag_56\n      jump\t// in\n    tag_55:\n      mload(0x40)\n      dup1\n      swap2\n      sub\n      swap1\n      return\n        /* \"contracts/ergasia.sol\":4078:4998  function addVoter(address _voterAddress, uint _pollingStationID) public inState(State.Created) Owner {... */\n    tag_12:\n      tag_57\n      0x04\n      dup1\n      calldatasize\n      sub\n      dup2\n      add\n      swap1\n      tag_58\n      swap2\n      swap1\n      tag_59\n      jump\t// in\n    tag_58:\n      tag_60\n      jump\t// in\n    tag_57:\n      stop\n        /* \"contracts/ergasia.sol\":1914:1932  State public state */\n    tag_13:\n      tag_61\n      tag_62\n      jump\t// in\n    tag_61:\n      mload(0x40)\n      tag_63\n      swap2\n      swap1\n      tag_64\n      jump\t// in\n    tag_63:\n      mload(0x40)\n      dup1\n      swap2\n      sub\n      swap1\n      return\n        /* \"contracts/ergasia.sol\":1292:1323  uint public pollingStationCount */\n    tag_14:\n      tag_65\n      tag_66\n      jump\t// in\n    tag_65:\n      mload(0x40)\n      tag_67\n      swap2\n      swap1\n      tag_23\n      jump\t// in\n    tag_67:\n      mload(0x40)\n      dup1\n      swap2\n      sub\n      swap1\n      return\n        /* \"contracts/ergasia.sol\":1490:1517  uint public finalResult = 0 */\n    tag_15:\n      tag_68\n      tag_69\n      jump\t// in\n    tag_68:\n      mload(0x40)\n      tag_70\n      swap2\n      swap1\n      tag_23\n      jump\t// in\n    tag_70:\n      mload(0x40)\n      dup1\n      swap2\n      sub\n      swap1\n      return\n        /* \"contracts/ergasia.sol\":1687:1741  mapping(uint => PollingStation) public pollingStations */\n    tag_16:\n      tag_71\n      0x04\n      dup1\n      calldatasize\n      sub\n      dup2\n      add\n      swap1\n      tag_72\n      swap2\n      swap1\n      tag_36\n      jump\t// in\n    tag_72:\n      tag_73\n      jump\t// in\n    tag_71:\n      mload(0x40)\n      tag_74\n      swap5\n      swap4\n      swap3\n      swap2\n      swap1\n      tag_75\n      jump\t// in\n    tag_74:\n      mload(0x40)\n      dup1\n      swap2\n      sub\n      swap1\n      return\n        /* \"contracts/ergasia.sol\":1369:1402  uint public totalRegisteredVoters */\n    tag_21:\n      sload(0x03)\n      dup2\n      jump\t// out\n        /* \"contracts/ergasia.sol\":1571:1597  uint public totalVotes = 0 */\n    tag_25:\n      sload(0x06)\n      dup2\n      jump\t// out\n        /* \"contracts/ergasia.sol\":5898:7073  function castVote(uint _choice, uint _pollingStationID) public inState(State.Voting) {... */\n    tag_30:\n        /* \"contracts/ergasia.sol\":5969:5981  State.Voting */\n      0x01\n        /* \"contracts/ergasia.sol\":2084:2090  _state */\n      dup1\n        /* \"contracts/ergasia.sol\":2075:2090  state == _state */\n      0x02\n      dup2\n      gt\n      iszero\n      tag_77\n      jumpi\n      tag_78\n      tag_79\n      jump\t// in\n    tag_78:\n    tag_77:\n        /* \"contracts/ergasia.sol\":2075:2080  state */\n      0x0b\n      0x00\n      swap1\n      sload\n      swap1\n      0x0100\n      exp\n      swap1\n      div\n      0xff\n      and\n        /* \"contracts/ergasia.sol\":2075:2090  state == _state */\n      0x02\n      dup2\n      gt\n      iszero\n      tag_80\n      jumpi\n      tag_81\n      tag_79\n      jump\t// in\n    tag_81:\n    tag_80:\n      eq\n        /* \"contracts/ergasia.sol\":2067:2091  require(state == _state) */\n      tag_82\n      jumpi\n      0x00\n      dup1\n      revert\n    tag_82:\n        /* \"contracts/ergasia.sol\":5994:6004  bool found */\n      0x00\n        /* \"contracts/ergasia.sol\":6127:6140  voterRegistry */\n      0x09\n        /* \"contracts/ergasia.sol\":6127:6152  voterRegistry[msg.sender] */\n      0x00\n        /* \"contracts/ergasia.sol\":6141:6151  msg.sender */\n      caller\n        /* \"contracts/ergasia.sol\":6127:6152  voterRegistry[msg.sender] */\n      0xffffffffffffffffffffffffffffffffffffffff\n      and\n      0xffffffffffffffffffffffffffffffffffffffff\n      and\n      dup2\n      mstore\n      0x20\n      add\n      swap1\n      dup2\n      mstore\n      0x20\n      add\n      0x00\n      keccak256\n        /* \"contracts/ergasia.sol\":6127:6163  voterRegistry[msg.sender].isEnrolled */\n      0x00\n      add\n      0x00\n      swap1\n      sload\n      swap1\n      0x0100\n      exp\n      swap1\n      div\n      0xff\n      and\n        /* \"contracts/ergasia.sol\":6127:6202  voterRegistry[msg.sender].isEnrolled && !voterRegistry[msg.sender].hasVoted */\n      dup1\n      iszero\n      tag_84\n      jumpi\n      pop\n        /* \"contracts/ergasia.sol\":6168:6181  voterRegistry */\n      0x09\n        /* \"contracts/ergasia.sol\":6168:6193  voterRegistry[msg.sender] */\n      0x00\n        /* \"contracts/ergasia.sol\":6182:6192  msg.sender */\n      caller\n        /* \"contracts/ergasia.sol\":6168:6193  voterRegistry[msg.sender] */\n      0xffffffffffffffffffffffffffffffffffffffff\n      and\n      0xffffffffffffffffffffffffffffffffffffffff\n      and\n      dup2\n      mstore\n      0x20\n      add\n      swap1\n      dup2\n      mstore\n      0x20\n      add\n      0x00\n      keccak256\n        /* \"contracts/ergasia.sol\":6168:6202  voterRegistry[msg.sender].hasVoted */\n      0x00\n      add\n      0x01\n      swap1\n      sload\n      swap1\n      0x0100\n      exp\n      swap1\n      div\n      0xff\n      and\n        /* \"contracts/ergasia.sol\":6167:6202  !voterRegistry[msg.sender].hasVoted */\n      iszero\n        /* \"contracts/ergasia.sol\":6127:6202  voterRegistry[msg.sender].isEnrolled && !voterRegistry[msg.sender].hasVoted */\n    tag_84:\n        /* \"contracts/ergasia.sol\":6123:6566  if (voterRegistry[msg.sender].isEnrolled && !voterRegistry[msg.sender].hasVoted) {... */\n      iszero\n      tag_85\n      jumpi\n        /* \"contracts/ergasia.sol\":6254:6261  _choice */\n      dup4\n        /* \"contracts/ergasia.sol\":6219:6232  voterRegistry */\n      0x09\n        /* \"contracts/ergasia.sol\":6219:6244  voterRegistry[msg.sender] */\n      0x00\n        /* \"contracts/ergasia.sol\":6233:6243  msg.sender */\n      caller\n        /* \"contracts/ergasia.sol\":6219:6244  voterRegistry[msg.sender] */\n      0xffffffffffffffffffffffffffffffffffffffff\n      and\n      0xffffffffffffffffffffffffffffffffffffffff\n      and\n      dup2\n      mstore\n      0x20\n      add\n      swap1\n      dup2\n      mstore\n      0x20\n      add\n      0x00\n      keccak256\n        /* \"contracts/ergasia.sol\":6219:6251  voterRegistry[msg.sender].choice */\n      0x01\n      add\n        /* \"contracts/ergasia.sol\":6219:6261  voterRegistry[msg.sender].choice = _choice */\n      dup2\n      swap1\n      sstore\n      pop\n        /* \"contracts/ergasia.sol\":6325:6342  _pollingStationID */\n      dup3\n        /* \"contracts/ergasia.sol\":6275:6288  voterRegistry */\n      0x09\n        /* \"contracts/ergasia.sol\":6275:6300  voterRegistry[msg.sender] */\n      0x00\n        /* \"contracts/ergasia.sol\":6289:6299  msg.sender */\n      caller\n        /* \"contracts/ergasia.sol\":6275:6300  voterRegistry[msg.sender] */\n      0xffffffffffffffffffffffffffffffffffffffff\n      and\n      0xffffffffffffffffffffffffffffffffffffffff\n      and\n      dup2\n      mstore\n      0x20\n      add\n      swap1\n      dup2\n      mstore\n      0x20\n      add\n      0x00\n      keccak256\n        /* \"contracts/ergasia.sol\":6275:6322  voterRegistry[msg.sender].votedPollingStationID */\n      0x03\n      add\n        /* \"contracts/ergasia.sol\":6275:6342  voterRegistry[msg.sender].votedPollingStationID = _pollingStationID */\n      dup2\n      swap1\n      sstore\n      pop\n        /* \"contracts/ergasia.sol\":6393:6397  true */\n      0x01\n        /* \"contracts/ergasia.sol\":6356:6369  voterRegistry */\n      0x09\n        /* \"contracts/ergasia.sol\":6356:6381  voterRegistry[msg.sender] */\n      0x00\n        /* \"contracts/ergasia.sol\":6370:6380  msg.sender */\n      caller\n        /* \"contracts/ergasia.sol\":6356:6381  voterRegistry[msg.sender] */\n      0xffffffffffffffffffffffffffffffffffffffff\n      and\n      0xffffffffffffffffffffffffffffffffffffffff\n      and\n      dup2\n      mstore\n      0x20\n      add\n      swap1\n      dup2\n      mstore\n      0x20\n      add\n      0x00\n      keccak256\n        /* \"contracts/ergasia.sol\":6356:6390  voterRegistry[msg.sender].hasVoted */\n      0x00\n      add\n      0x01\n        /* \"contracts/ergasia.sol\":6356:6397  voterRegistry[msg.sender].hasVoted = true */\n      0x0100\n      exp\n      dup2\n      sload\n      dup2\n      0xff\n      mul\n      not\n      and\n      swap1\n      dup4\n      iszero\n      iszero\n      mul\n      or\n      swap1\n      sstore\n      pop\n        /* \"contracts/ergasia.sol\":6412:6427  pollingStations */\n      0x08\n        /* \"contracts/ergasia.sol\":6412:6446  pollingStations[_pollingStationID] */\n      0x00\n        /* \"contracts/ergasia.sol\":6428:6445  _pollingStationID */\n      dup5\n        /* \"contracts/ergasia.sol\":6412:6446  pollingStations[_pollingStationID] */\n      dup2\n      mstore\n      0x20\n      add\n      swap1\n      dup2\n      mstore\n      0x20\n      add\n      0x00\n      keccak256\n        /* \"contracts/ergasia.sol\":6412:6458  pollingStations[_pollingStationID].votesCasted */\n      0x03\n      add\n      0x00\n        /* \"contracts/ergasia.sol\":6412:6460  pollingStations[_pollingStationID].votesCasted++ */\n      dup2\n      sload\n      dup1\n      swap3\n      swap2\n      swap1\n      tag_86\n      swap1\n      tag_87\n      jump\t// in\n    tag_86:\n      swap2\n      swap1\n      pop\n      sstore\n      pop\n        /* \"contracts/ergasia.sol\":6475:6485  candidates */\n      0x07\n        /* \"contracts/ergasia.sol\":6475:6494  candidates[_choice] */\n      0x00\n        /* \"contracts/ergasia.sol\":6486:6493  _choice */\n      dup6\n        /* \"contracts/ergasia.sol\":6475:6494  candidates[_choice] */\n      dup2\n      mstore\n      0x20\n      add\n      swap1\n      dup2\n      mstore\n      0x20\n      add\n      0x00\n      keccak256\n        /* \"contracts/ergasia.sol\":6475:6500  candidates[_choice].votes */\n      0x02\n      add\n      0x00\n        /* \"contracts/ergasia.sol\":6475:6502  candidates[_choice].votes++ */\n      dup2\n      sload\n      dup1\n      swap3\n      swap2\n      swap1\n      tag_88\n      swap1\n      tag_87\n      jump\t// in\n    tag_88:\n      swap2\n      swap1\n      pop\n      sstore\n      pop\n        /* \"contracts/ergasia.sol\":6517:6527  totalVotes */\n      0x06\n      0x00\n        /* \"contracts/ergasia.sol\":6517:6529  totalVotes++ */\n      dup2\n      sload\n      dup1\n      swap3\n      swap2\n      swap1\n      tag_89\n      swap1\n      tag_87\n      jump\t// in\n    tag_89:\n      swap2\n      swap1\n      pop\n      sstore\n      pop\n        /* \"contracts/ergasia.sol\":6551:6555  true */\n      0x01\n        /* \"contracts/ergasia.sol\":6543:6555  found = true */\n      swap1\n      pop\n        /* \"contracts/ergasia.sol\":6123:6566  if (voterRegistry[msg.sender].isEnrolled && !voterRegistry[msg.sender].hasVoted) {... */\n    tag_85:\n        /* \"contracts/ergasia.sol\":5983:7073  {... */\n      pop\n        /* \"contracts/ergasia.sol\":5898:7073  function castVote(uint _choice, uint _pollingStationID) public inState(State.Voting) {... */\n      pop\n      pop\n      pop\n      jump\t// out\n        /* \"contracts/ergasia.sol\":1221:1248  uint public candidatesCount */\n    tag_32:\n      sload(0x01)\n      dup2\n      jump\t// out\n        /* \"contracts/ergasia.sol\":1613:1657  mapping(uint => Candidate) public candidates */\n    tag_37:\n      mstore(0x20, 0x07)\n      dup1\n      0x00\n      mstore\n      keccak256(0x00, 0x40)\n      0x00\n      swap2\n      pop\n      swap1\n      pop\n      dup1\n      0x00\n      add\n      sload\n      swap1\n      dup1\n      0x01\n      add\n      dup1\n      sload\n      tag_90\n      swap1\n      tag_91\n      jump\t// in\n    tag_90:\n      dup1\n      0x1f\n      add\n      0x20\n      dup1\n      swap2\n      div\n      mul\n      0x20\n      add\n      mload(0x40)\n      swap1\n      dup2\n      add\n      0x40\n      mstore\n      dup1\n      swap3\n      swap2\n      swap1\n      dup2\n      dup2\n      mstore\n      0x20\n      add\n      dup3\n      dup1\n      sload\n      tag_92\n      swap1\n      tag_91\n      jump\t// in\n    tag_92:\n      dup1\n      iszero\n      tag_93\n      jumpi\n      dup1\n      0x1f\n      lt\n      tag_94\n      jumpi\n      0x0100\n      dup1\n      dup4\n      sload\n      div\n      mul\n      dup4\n      mstore\n      swap2\n      0x20\n      add\n      swap2\n      jump(tag_93)\n    tag_94:\n      dup3\n      add\n      swap2\n      swap1\n      0x00\n      mstore\n      keccak256(0x00, 0x20)\n      swap1\n    tag_95:\n      dup2\n      sload\n      dup2\n      mstore\n      swap1\n      0x01\n      add\n      swap1\n      0x20\n      add\n      dup1\n      dup4\n      gt\n      tag_95\n      jumpi\n      dup3\n      swap1\n      sub\n      0x1f\n      and\n      dup3\n      add\n      swap2\n    tag_93:\n      pop\n      pop\n      pop\n      pop\n      pop\n      swap1\n      dup1\n      0x02\n      add\n      sload\n      swap1\n      pop\n      dup4\n      jump\t// out\n        /* \"contracts/ergasia.sol\":1771:1817  mapping(address => Voter) public voterRegistry */\n    tag_43:\n      mstore(0x20, 0x09)\n      dup1\n      0x00\n      mstore\n      keccak256(0x00, 0x40)\n      0x00\n      swap2\n      pop\n      swap1\n      pop\n      dup1\n      0x00\n      add\n      0x00\n      swap1\n      sload\n      swap1\n      0x0100\n      exp\n      swap1\n      div\n      0xff\n      and\n      swap1\n      dup1\n      0x00\n      add\n      0x01\n      swap1\n      sload\n      swap1\n      0x0100\n      exp\n      swap1\n      div\n      0xff\n      and\n      swap1\n      dup1\n      0x01\n      add\n      sload\n      swap1\n      dup1\n      0x02\n      add\n      sload\n      swap1\n      dup1\n      0x03\n      add\n      sload\n      swap1\n      pop\n      dup6\n      jump\t// out\n        /* \"contracts/ergasia.sol\":5547:5641  function startVote() public inState(State.Created) Owner {... */\n    tag_47:\n        /* \"contracts/ergasia.sol\":5583:5596  State.Created */\n      0x00\n        /* \"contracts/ergasia.sol\":2084:2090  _state */\n      dup1\n        /* \"contracts/ergasia.sol\":2075:2090  state == _state */\n      0x02\n      dup2\n      gt\n      iszero\n      tag_97\n      jumpi\n      tag_98\n      tag_79\n      jump\t// in\n    tag_98:\n    tag_97:\n        /* \"contracts/ergasia.sol\":2075:2080  state */\n      0x0b\n      0x00\n      swap1\n      sload\n      swap1\n      0x0100\n      exp\n      swap1\n      div\n      0xff\n      and\n        /* \"contracts/ergasia.sol\":2075:2090  state == _state */\n      0x02\n      dup2\n      gt\n      iszero\n      tag_99\n      jumpi\n      tag_100\n      tag_79\n      jump\t// in\n    tag_100:\n    tag_99:\n      eq\n        /* \"contracts/ergasia.sol\":2067:2091  require(state == _state) */\n      tag_101\n      jumpi\n      0x00\n      dup1\n      revert\n    tag_101:\n        /* \"contracts/ergasia.sol\":1988:2001  electionOwner */\n      0x00\n      dup1\n      sload\n      swap1\n      0x0100\n      exp\n      swap1\n      div\n      0xffffffffffffffffffffffffffffffffffffffff\n      and\n        /* \"contracts/ergasia.sol\":1974:2001  msg.sender == electionOwner */\n      0xffffffffffffffffffffffffffffffffffffffff\n      and\n        /* \"contracts/ergasia.sol\":1974:1984  msg.sender */\n      caller\n        /* \"contracts/ergasia.sol\":1974:2001  msg.sender == electionOwner */\n      0xffffffffffffffffffffffffffffffffffffffff\n      and\n      eq\n        /* \"contracts/ergasia.sol\":1966:2002  require(msg.sender == electionOwner) */\n      tag_103\n      jumpi\n      0x00\n      dup1\n      revert\n    tag_103:\n        /* \"contracts/ergasia.sol\":5622:5634  State.Voting */\n      0x01\n        /* \"contracts/ergasia.sol\":5614:5619  state */\n      0x0b\n      0x00\n        /* \"contracts/ergasia.sol\":5614:5634  state = State.Voting */\n      0x0100\n      exp\n      dup2\n      sload\n      dup2\n      0xff\n      mul\n      not\n      and\n      swap1\n      dup4\n      0x02\n      dup2\n      gt\n      iszero\n      tag_105\n      jumpi\n      tag_106\n      tag_79\n      jump\t// in\n    tag_106:\n    tag_105:\n      mul\n      or\n      swap1\n      sstore\n      pop\n        /* \"contracts/ergasia.sol\":5547:5641  function startVote() public inState(State.Created) Owner {... */\n      pop\n      jump\t// out\n        /* \"contracts/ergasia.sol\":1187:1215  address public electionOwner */\n    tag_49:\n      0x00\n      dup1\n      sload\n      swap1\n      0x0100\n      exp\n      swap1\n      div\n      0xffffffffffffffffffffffffffffffffffffffff\n      and\n      dup2\n      jump\t// out\n        /* \"contracts/ergasia.sol\":1823:1861  mapping(address => bool) public voters */\n    tag_54:\n      mstore(0x20, 0x0a)\n      dup1\n      0x00\n      mstore\n      keccak256(0x00, 0x40)\n      0x00\n      swap2\n      pop\n      sload\n      swap1\n      0x0100\n      exp\n      swap1\n      div\n      0xff\n      and\n      dup2\n      jump\t// out\n        /* \"contracts/ergasia.sol\":4078:4998  function addVoter(address _voterAddress, uint _pollingStationID) public inState(State.Created) Owner {... */\n    tag_60:\n        /* \"contracts/ergasia.sol\":4158:4171  State.Created */\n      0x00\n        /* \"contracts/ergasia.sol\":2084:2090  _state */\n      dup1\n        /* \"contracts/ergasia.sol\":2075:2090  state == _state */\n      0x02\n      dup2\n      gt\n      iszero\n      tag_108\n      jumpi\n      tag_109\n      tag_79\n      jump\t// in\n    tag_109:\n    tag_108:\n        /* \"contracts/ergasia.sol\":2075:2080  state */\n      0x0b\n      0x00\n      swap1\n      sload\n      swap1\n      0x0100\n      exp\n      swap1\n      div\n      0xff\n      and\n        /* \"contracts/ergasia.sol\":2075:2090  state == _state */\n      0x02\n      dup2\n      gt\n      iszero\n      tag_110\n      jumpi\n      tag_111\n      tag_79\n      jump\t// in\n    tag_111:\n    tag_110:\n      eq\n        /* \"contracts/ergasia.sol\":2067:2091  require(state == _state) */\n      tag_112\n      jumpi\n      0x00\n      dup1\n      revert\n    tag_112:\n        /* \"contracts/ergasia.sol\":1988:2001  electionOwner */\n      0x00\n      dup1\n      sload\n      swap1\n      0x0100\n      exp\n      swap1\n      div\n      0xffffffffffffffffffffffffffffffffffffffff\n      and\n        /* \"contracts/ergasia.sol\":1974:2001  msg.sender == electionOwner */\n      0xffffffffffffffffffffffffffffffffffffffff\n      and\n        /* \"contracts/ergasia.sol\":1974:1984  msg.sender */\n      caller\n        /* \"contracts/ergasia.sol\":1974:2001  msg.sender == electionOwner */\n      0xffffffffffffffffffffffffffffffffffffffff\n      and\n      eq\n        /* \"contracts/ergasia.sol\":1966:2002  require(msg.sender == electionOwner) */\n      tag_114\n      jumpi\n      0x00\n      dup1\n      revert\n    tag_114:\n        /* \"contracts/ergasia.sol\":4297:4302  false */\n      0x00\n        /* \"contracts/ergasia.sol\":4254:4302  voterRegistry[_voterAddress].isEnrolled == false */\n      iszero\n      iszero\n        /* \"contracts/ergasia.sol\":4254:4267  voterRegistry */\n      0x09\n        /* \"contracts/ergasia.sol\":4254:4282  voterRegistry[_voterAddress] */\n      0x00\n        /* \"contracts/ergasia.sol\":4268:4281  _voterAddress */\n      dup6\n        /* \"contracts/ergasia.sol\":4254:4282  voterRegistry[_voterAddress] */\n      0xffffffffffffffffffffffffffffffffffffffff\n      and\n      0xffffffffffffffffffffffffffffffffffffffff\n      and\n      dup2\n      mstore\n      0x20\n      add\n      swap1\n      dup2\n      mstore\n      0x20\n      add\n      0x00\n      keccak256\n        /* \"contracts/ergasia.sol\":4254:4293  voterRegistry[_voterAddress].isEnrolled */\n      0x00\n      add\n      0x00\n      swap1\n      sload\n      swap1\n      0x0100\n      exp\n      swap1\n      div\n      0xff\n      and\n        /* \"contracts/ergasia.sol\":4254:4302  voterRegistry[_voterAddress].isEnrolled == false */\n      iszero\n      iszero\n      eq\n        /* \"contracts/ergasia.sol\":4246:4335  require(voterRegistry[_voterAddress].isEnrolled == false, \"Voter is already registered.\") */\n      tag_116\n      jumpi\n      mload(0x40)\n      0x08c379a000000000000000000000000000000000000000000000000000000000\n      dup2\n      mstore\n      0x04\n      add\n      tag_117\n      swap1\n      tag_118\n      jump\t// in\n    tag_117:\n      mload(0x40)\n      dup1\n      swap2\n      sub\n      swap1\n      revert\n    tag_116:\n        /* \"contracts/ergasia.sol\":4574:4575  1 */\n      0x01\n        /* \"contracts/ergasia.sol\":4554:4571  _pollingStationID */\n      dup3\n        /* \"contracts/ergasia.sol\":4554:4575  _pollingStationID >=1 */\n      lt\n      iszero\n        /* \"contracts/ergasia.sol\":4554:4619  _pollingStationID >=1 && _pollingStationID <= pollingStationCount */\n      dup1\n      iszero\n      tag_119\n      jumpi\n      pop\n        /* \"contracts/ergasia.sol\":4600:4619  pollingStationCount */\n      sload(0x02)\n        /* \"contracts/ergasia.sol\":4579:4596  _pollingStationID */\n      dup3\n        /* \"contracts/ergasia.sol\":4579:4619  _pollingStationID <= pollingStationCount */\n      gt\n      iszero\n        /* \"contracts/ergasia.sol\":4554:4619  _pollingStationID >=1 && _pollingStationID <= pollingStationCount */\n    tag_119:\n        /* \"contracts/ergasia.sol\":4546:4666  require(_pollingStationID >=1 && _pollingStationID <= pollingStationCount, \"Please provide a valid polling station ID.\") */\n      tag_120\n      jumpi\n      mload(0x40)\n      0x08c379a000000000000000000000000000000000000000000000000000000000\n      dup2\n      mstore\n      0x04\n      add\n      tag_121\n      swap1\n      tag_122\n      jump\t// in\n    tag_121:\n      mload(0x40)\n      dup1\n      swap2\n      sub\n      swap1\n      revert\n    tag_120:\n        /* \"contracts/ergasia.sol\":4677:4691  Voter memory v */\n      tag_123\n      tag_124\n      jump\t// in\n    tag_123:\n        /* \"contracts/ergasia.sol\":4716:4720  true */\n      0x01\n        /* \"contracts/ergasia.sol\":4701:4702  v */\n      dup2\n        /* \"contracts/ergasia.sol\":4701:4713  v.isEnrolled */\n      0x00\n      add\n        /* \"contracts/ergasia.sol\":4701:4720  v.isEnrolled = true */\n      swap1\n      iszero\n      iszero\n      swap1\n      dup2\n      iszero\n      iszero\n      dup2\n      mstore\n      pop\n      pop\n        /* \"contracts/ergasia.sol\":4743:4748  false */\n      0x00\n        /* \"contracts/ergasia.sol\":4730:4731  v */\n      dup2\n        /* \"contracts/ergasia.sol\":4730:4740  v.hasVoted */\n      0x20\n      add\n        /* \"contracts/ergasia.sol\":4730:4748  v.hasVoted = false */\n      swap1\n      iszero\n      iszero\n      swap1\n      dup2\n      iszero\n      iszero\n      dup2\n      mstore\n      pop\n      pop\n        /* \"contracts/ergasia.sol\":4769:4770  0 */\n      0x00\n        /* \"contracts/ergasia.sol\":4758:4759  v */\n      dup2\n        /* \"contracts/ergasia.sol\":4758:4766  v.choice */\n      0x40\n      add\n        /* \"contracts/ergasia.sol\":4758:4770  v.choice = 0 */\n      dup2\n      dup2\n      mstore\n      pop\n      pop\n        /* \"contracts/ergasia.sol\":4809:4826  _pollingStationID */\n      dup3\n        /* \"contracts/ergasia.sol\":4780:4781  v */\n      dup2\n        /* \"contracts/ergasia.sol\":4780:4806  v.enrolledPollingStationID */\n      0x60\n      add\n        /* \"contracts/ergasia.sol\":4780:4826  v.enrolledPollingStationID = _pollingStationID */\n      dup2\n      dup2\n      mstore\n      pop\n      pop\n        /* \"contracts/ergasia.sol\":4862:4863  0 */\n      0x00\n        /* \"contracts/ergasia.sol\":4836:4837  v */\n      dup2\n        /* \"contracts/ergasia.sol\":4836:4859  v.votedPollingStationID */\n      0x80\n      add\n        /* \"contracts/ergasia.sol\":4836:4863  v.votedPollingStationID = 0 */\n      dup2\n      dup2\n      mstore\n      pop\n      pop\n        /* \"contracts/ergasia.sol\":4904:4905  v */\n      dup1\n        /* \"contracts/ergasia.sol\":4873:4886  voterRegistry */\n      0x09\n        /* \"contracts/ergasia.sol\":4873:4901  voterRegistry[_voterAddress] */\n      0x00\n        /* \"contracts/ergasia.sol\":4887:4900  _voterAddress */\n      dup7\n        /* \"contracts/ergasia.sol\":4873:4901  voterRegistry[_voterAddress] */\n      0xffffffffffffffffffffffffffffffffffffffff\n      and\n      0xffffffffffffffffffffffffffffffffffffffff\n      and\n      dup2\n      mstore\n      0x20\n      add\n      swap1\n      dup2\n      mstore\n      0x20\n      add\n      0x00\n      keccak256\n        /* \"contracts/ergasia.sol\":4873:4905  voterRegistry[_voterAddress] = v */\n      0x00\n      dup3\n      add\n      mload\n      dup2\n      0x00\n      add\n      exp(0x0100, 0x00)\n      dup2\n      sload\n      dup2\n      0xff\n      mul\n      not\n      and\n      swap1\n      dup4\n      iszero\n      iszero\n      mul\n      or\n      swap1\n      sstore\n      pop\n      0x20\n      dup3\n      add\n      mload\n      dup2\n      0x00\n      add\n      exp(0x0100, 0x01)\n      dup2\n      sload\n      dup2\n      0xff\n      mul\n      not\n      and\n      swap1\n      dup4\n      iszero\n      iszero\n      mul\n      or\n      swap1\n      sstore\n      pop\n      0x40\n      dup3\n      add\n      mload\n      dup2\n      0x01\n      add\n      sstore\n      0x60\n      dup3\n      add\n      mload\n      dup2\n      0x02\n      add\n      sstore\n      0x80\n      dup3\n      add\n      mload\n      dup2\n      0x03\n      add\n      sstore\n      swap1\n      pop\n      pop\n        /* \"contracts/ergasia.sol\":4915:4958  registerAtPollingStation(_pollingStationID) */\n      tag_125\n        /* \"contracts/ergasia.sol\":4940:4957  _pollingStationID */\n      dup4\n        /* \"contracts/ergasia.sol\":4915:4939  registerAtPollingStation */\n      tag_126\n        /* \"contracts/ergasia.sol\":4915:4958  registerAtPollingStation(_pollingStationID) */\n      jump\t// in\n    tag_125:\n        /* \"contracts/ergasia.sol\":4968:4989  totalRegisteredVoters */\n      0x03\n      0x00\n        /* \"contracts/ergasia.sol\":4968:4991  totalRegisteredVoters++ */\n      dup2\n      sload\n      dup1\n      swap3\n      swap2\n      swap1\n      tag_127\n      swap1\n      tag_87\n      jump\t// in\n    tag_127:\n      swap2\n      swap1\n      pop\n      sstore\n      pop\n        /* \"contracts/ergasia.sol\":4179:4998  {... */\n      pop\n        /* \"contracts/ergasia.sol\":4078:4998  function addVoter(address _voterAddress, uint _pollingStationID) public inState(State.Created) Owner {... */\n      pop\n      pop\n      pop\n      jump\t// out\n        /* \"contracts/ergasia.sol\":1914:1932  State public state */\n    tag_62:\n      0x0b\n      0x00\n      swap1\n      sload\n      swap1\n      0x0100\n      exp\n      swap1\n      div\n      0xff\n      and\n      dup2\n      jump\t// out\n        /* \"contracts/ergasia.sol\":1292:1323  uint public pollingStationCount */\n    tag_66:\n      sload(0x02)\n      dup2\n      jump\t// out\n        /* \"contracts/ergasia.sol\":1490:1517  uint public finalResult = 0 */\n    tag_69:\n      sload(0x05)\n      dup2\n      jump\t// out\n        /* \"contracts/ergasia.sol\":1687:1741  mapping(uint => PollingStation) public pollingStations */\n    tag_73:\n      mstore(0x20, 0x08)\n      dup1\n      0x00\n      mstore\n      keccak256(0x00, 0x40)\n      0x00\n      swap2\n      pop\n      swap1\n      pop\n      dup1\n      0x00\n      add\n      sload\n      swap1\n      dup1\n      0x01\n      add\n      dup1\n      sload\n      tag_128\n      swap1\n      tag_91\n      jump\t// in\n    tag_128:\n      dup1\n      0x1f\n      add\n      0x20\n      dup1\n      swap2\n      div\n      mul\n      0x20\n      add\n      mload(0x40)\n      swap1\n      dup2\n      add\n      0x40\n      mstore\n      dup1\n      swap3\n      swap2\n      swap1\n      dup2\n      dup2\n      mstore\n      0x20\n      add\n      dup3\n      dup1\n      sload\n      tag_129\n      swap1\n      tag_91\n      jump\t// in\n    tag_129:\n      dup1\n      iszero\n      tag_130\n      jumpi\n      dup1\n      0x1f\n      lt\n      tag_131\n      jumpi\n      0x0100\n      dup1\n      dup4\n      sload\n      div\n      mul\n      dup4\n      mstore\n      swap2\n      0x20\n      add\n      swap2\n      jump(tag_130)\n    tag_131:\n      dup3\n      add\n      swap2\n      swap1\n      0x00\n      mstore\n      keccak256(0x00, 0x20)\n      swap1\n    tag_132:\n      dup2\n      sload\n      dup2\n      mstore\n      swap1\n      0x01\n      add\n      swap1\n      0x20\n      add\n      dup1\n      dup4\n      gt\n      tag_132\n      jumpi\n      dup3\n      swap1\n      sub\n      0x1f\n      and\n      dup3\n      add\n      swap2\n    tag_130:\n      pop\n      pop\n      pop\n      pop\n      pop\n      swap1\n      dup1\n      0x02\n      add\n      sload\n      swap1\n      dup1\n      0x03\n      add\n      sload\n      swap1\n      pop\n      dup5\n      jump\t// out\n        /* \"contracts/ergasia.sol\":5136:5418  function registerAtPollingStation(uint _stationID) internal {... */\n    tag_126:\n        /* \"contracts/ergasia.sol\":5211:5217  uint i */\n      0x00\n        /* \"contracts/ergasia.sol\":5220:5221  1 */\n      0x01\n        /* \"contracts/ergasia.sol\":5211:5221  uint i = 1 */\n      swap1\n      pop\n        /* \"contracts/ergasia.sol\":5206:5412  for (uint i = 1; i <= pollingStationCount; i++) {... */\n    tag_134:\n        /* \"contracts/ergasia.sol\":5228:5247  pollingStationCount */\n      sload(0x02)\n        /* \"contracts/ergasia.sol\":5223:5224  i */\n      dup2\n        /* \"contracts/ergasia.sol\":5223:5247  i <= pollingStationCount */\n      gt\n        /* \"contracts/ergasia.sol\":5206:5412  for (uint i = 1; i <= pollingStationCount; i++) {... */\n      tag_135\n      jumpi\n        /* \"contracts/ergasia.sol\":5297:5307  _stationID */\n      dup2\n        /* \"contracts/ergasia.sol\":5272:5287  pollingStations */\n      0x08\n        /* \"contracts/ergasia.sol\":5272:5290  pollingStations[i] */\n      0x00\n        /* \"contracts/ergasia.sol\":5288:5289  i */\n      dup4\n        /* \"contracts/ergasia.sol\":5272:5290  pollingStations[i] */\n      dup2\n      mstore\n      0x20\n      add\n      swap1\n      dup2\n      mstore\n      0x20\n      add\n      0x00\n      keccak256\n        /* \"contracts/ergasia.sol\":5272:5293  pollingStations[i].id */\n      0x00\n      add\n      sload\n        /* \"contracts/ergasia.sol\":5272:5307  pollingStations[i].id == _stationID */\n      eq\n        /* \"contracts/ergasia.sol\":5268:5402  if (pollingStations[i].id == _stationID) {... */\n      iszero\n      tag_137\n      jumpi\n        /* \"contracts/ergasia.sol\":5327:5342  pollingStations */\n      0x08\n        /* \"contracts/ergasia.sol\":5327:5345  pollingStations[i] */\n      0x00\n        /* \"contracts/ergasia.sol\":5343:5344  i */\n      dup3\n        /* \"contracts/ergasia.sol\":5327:5345  pollingStations[i] */\n      dup2\n      mstore\n      0x20\n      add\n      swap1\n      dup2\n      mstore\n      0x20\n      add\n      0x00\n      keccak256\n        /* \"contracts/ergasia.sol\":5327:5362  pollingStations[i].votersRegistered */\n      0x02\n      add\n      0x00\n        /* \"contracts/ergasia.sol\":5327:5364  pollingStations[i].votersRegistered++ */\n      dup2\n      sload\n      dup1\n      swap3\n      swap2\n      swap1\n      tag_138\n      swap1\n      tag_87\n      jump\t// in\n    tag_138:\n      swap2\n      swap1\n      pop\n      sstore\n      pop\n        /* \"contracts/ergasia.sol\":5382:5387  break */\n      jump(tag_135)\n        /* \"contracts/ergasia.sol\":5268:5402  if (pollingStations[i].id == _stationID) {... */\n    tag_137:\n        /* \"contracts/ergasia.sol\":5249:5252  i++ */\n      dup1\n      dup1\n      tag_139\n      swap1\n      tag_87\n      jump\t// in\n    tag_139:\n      swap2\n      pop\n      pop\n        /* \"contracts/ergasia.sol\":5206:5412  for (uint i = 1; i <= pollingStationCount; i++) {... */\n      jump(tag_134)\n    tag_135:\n      pop\n        /* \"contracts/ergasia.sol\":5136:5418  function registerAtPollingStation(uint _stationID) internal {... */\n      pop\n      jump\t// out\n    tag_124:\n      mload(0x40)\n      dup1\n      0xa0\n      add\n      0x40\n      mstore\n      dup1\n      iszero(iszero(0x00))\n      dup2\n      mstore\n      0x20\n      add\n      iszero(iszero(0x00))\n      dup2\n      mstore\n      0x20\n      add\n      0x00\n      dup2\n      mstore\n      0x20\n      add\n      0x00\n      dup2\n      mstore\n      0x20\n      add\n      0x00\n      dup2\n      mstore\n      pop\n      swap1\n      jump\t// out\n        /* \"#utility.yul\":7:146   */\n    tag_141:\n        /* \"#utility.yul\":53:58   */\n      0x00\n        /* \"#utility.yul\":91:97   */\n      dup2\n        /* \"#utility.yul\":78:98   */\n      calldataload\n        /* \"#utility.yul\":69:98   */\n      swap1\n      pop\n        /* \"#utility.yul\":107:140   */\n      tag_143\n        /* \"#utility.yul\":134:139   */\n      dup2\n        /* \"#utility.yul\":107:140   */\n      tag_144\n      jump\t// in\n    tag_143:\n        /* \"#utility.yul\":7:146   */\n      swap3\n      swap2\n      pop\n      pop\n      jump\t// out\n        /* \"#utility.yul\":152:291   */\n    tag_145:\n        /* \"#utility.yul\":198:203   */\n      0x00\n        /* \"#utility.yul\":236:242   */\n      dup2\n        /* \"#utility.yul\":223:243   */\n      calldataload\n        /* \"#utility.yul\":214:243   */\n      swap1\n      pop\n        /* \"#utility.yul\":252:285   */\n      tag_147\n        /* \"#utility.yul\":279:284   */\n      dup2\n        /* \"#utility.yul\":252:285   */\n      tag_148\n      jump\t// in\n    tag_147:\n        /* \"#utility.yul\":152:291   */\n      swap3\n      swap2\n      pop\n      pop\n      jump\t// out\n        /* \"#utility.yul\":297:626   */\n    tag_42:\n        /* \"#utility.yul\":356:362   */\n      0x00\n        /* \"#utility.yul\":405:407   */\n      0x20\n        /* \"#utility.yul\":393:402   */\n      dup3\n        /* \"#utility.yul\":384:391   */\n      dup5\n        /* \"#utility.yul\":380:403   */\n      sub\n        /* \"#utility.yul\":376:408   */\n      slt\n        /* \"#utility.yul\":373:492   */\n      iszero\n      tag_150\n      jumpi\n        /* \"#utility.yul\":411:490   */\n      tag_151\n      tag_152\n      jump\t// in\n    tag_151:\n        /* \"#utility.yul\":373:492   */\n    tag_150:\n        /* \"#utility.yul\":531:532   */\n      0x00\n        /* \"#utility.yul\":556:609   */\n      tag_153\n        /* \"#utility.yul\":601:608   */\n      dup5\n        /* \"#utility.yul\":592:598   */\n      dup3\n        /* \"#utility.yul\":581:590   */\n      dup6\n        /* \"#utility.yul\":577:599   */\n      add\n        /* \"#utility.yul\":556:609   */\n      tag_141\n      jump\t// in\n    tag_153:\n        /* \"#utility.yul\":546:609   */\n      swap2\n      pop\n        /* \"#utility.yul\":502:619   */\n      pop\n        /* \"#utility.yul\":297:626   */\n      swap3\n      swap2\n      pop\n      pop\n      jump\t// out\n        /* \"#utility.yul\":632:1106   */\n    tag_59:\n        /* \"#utility.yul\":700:706   */\n      0x00\n        /* \"#utility.yul\":708:714   */\n      dup1\n        /* \"#utility.yul\":757:759   */\n      0x40\n        /* \"#utility.yul\":745:754   */\n      dup4\n        /* \"#utility.yul\":736:743   */\n      dup6\n        /* \"#utility.yul\":732:755   */\n      sub\n        /* \"#utility.yul\":728:760   */\n      slt\n        /* \"#utility.yul\":725:844   */\n      iszero\n      tag_155\n      jumpi\n        /* \"#utility.yul\":763:842   */\n      tag_156\n      tag_152\n      jump\t// in\n    tag_156:\n        /* \"#utility.yul\":725:844   */\n    tag_155:\n        /* \"#utility.yul\":883:884   */\n      0x00\n        /* \"#utility.yul\":908:961   */\n      tag_157\n        /* \"#utility.yul\":953:960   */\n      dup6\n        /* \"#utility.yul\":944:950   */\n      dup3\n        /* \"#utility.yul\":933:942   */\n      dup7\n        /* \"#utility.yul\":929:951   */\n      add\n        /* \"#utility.yul\":908:961   */\n      tag_141\n      jump\t// in\n    tag_157:\n        /* \"#utility.yul\":898:961   */\n      swap3\n      pop\n        /* \"#utility.yul\":854:971   */\n      pop\n        /* \"#utility.yul\":1010:1012   */\n      0x20\n        /* \"#utility.yul\":1036:1089   */\n      tag_158\n        /* \"#utility.yul\":1081:1088   */\n      dup6\n        /* \"#utility.yul\":1072:1078   */\n      dup3\n        /* \"#utility.yul\":1061:1070   */\n      dup7\n        /* \"#utility.yul\":1057:1079   */\n      add\n        /* \"#utility.yul\":1036:1089   */\n      tag_145\n      jump\t// in\n    tag_158:\n        /* \"#utility.yul\":1026:1089   */\n      swap2\n      pop\n        /* \"#utility.yul\":981:1099   */\n      pop\n        /* \"#utility.yul\":632:1106   */\n      swap3\n      pop\n      swap3\n      swap1\n      pop\n      jump\t// out\n        /* \"#utility.yul\":1112:1441   */\n    tag_36:\n        /* \"#utility.yul\":1171:1177   */\n      0x00\n        /* \"#utility.yul\":1220:1222   */\n      0x20\n        /* \"#utility.yul\":1208:1217   */\n      dup3\n        /* \"#utility.yul\":1199:1206   */\n      dup5\n        /* \"#utility.yul\":1195:1218   */\n      sub\n        /* \"#utility.yul\":1191:1223   */\n      slt\n        /* \"#utility.yul\":1188:1307   */\n      iszero\n      tag_160\n      jumpi\n        /* \"#utility.yul\":1226:1305   */\n      tag_161\n      tag_152\n      jump\t// in\n    tag_161:\n        /* \"#utility.yul\":1188:1307   */\n    tag_160:\n        /* \"#utility.yul\":1346:1347   */\n      0x00\n        /* \"#utility.yul\":1371:1424   */\n      tag_162\n        /* \"#utility.yul\":1416:1423   */\n      dup5\n        /* \"#utility.yul\":1407:1413   */\n      dup3\n        /* \"#utility.yul\":1396:1405   */\n      dup6\n        /* \"#utility.yul\":1392:1414   */\n      add\n        /* \"#utility.yul\":1371:1424   */\n      tag_145\n      jump\t// in\n    tag_162:\n        /* \"#utility.yul\":1361:1424   */\n      swap2\n      pop\n        /* \"#utility.yul\":1317:1434   */\n      pop\n        /* \"#utility.yul\":1112:1441   */\n      swap3\n      swap2\n      pop\n      pop\n      jump\t// out\n        /* \"#utility.yul\":1447:1921   */\n    tag_29:\n        /* \"#utility.yul\":1515:1521   */\n      0x00\n        /* \"#utility.yul\":1523:1529   */\n      dup1\n        /* \"#utility.yul\":1572:1574   */\n      0x40\n        /* \"#utility.yul\":1560:1569   */\n      dup4\n        /* \"#utility.yul\":1551:1558   */\n      dup6\n        /* \"#utility.yul\":1547:1570   */\n      sub\n        /* \"#utility.yul\":1543:1575   */\n      slt\n        /* \"#utility.yul\":1540:1659   */\n      iszero\n      tag_164\n      jumpi\n        /* \"#utility.yul\":1578:1657   */\n      tag_165\n      tag_152\n      jump\t// in\n    tag_165:\n        /* \"#utility.yul\":1540:1659   */\n    tag_164:\n        /* \"#utility.yul\":1698:1699   */\n      0x00\n        /* \"#utility.yul\":1723:1776   */\n      tag_166\n        /* \"#utility.yul\":1768:1775   */\n      dup6\n        /* \"#utility.yul\":1759:1765   */\n      dup3\n        /* \"#utility.yul\":1748:1757   */\n      dup7\n        /* \"#utility.yul\":1744:1766   */\n      add\n        /* \"#utility.yul\":1723:1776   */\n      tag_145\n      jump\t// in\n    tag_166:\n        /* \"#utility.yul\":1713:1776   */\n      swap3\n      pop\n        /* \"#utility.yul\":1669:1786   */\n      pop\n        /* \"#utility.yul\":1825:1827   */\n      0x20\n        /* \"#utility.yul\":1851:1904   */\n      tag_167\n        /* \"#utility.yul\":1896:1903   */\n      dup6\n        /* \"#utility.yul\":1887:1893   */\n      dup3\n        /* \"#utility.yul\":1876:1885   */\n      dup7\n        /* \"#utility.yul\":1872:1894   */\n      add\n        /* \"#utility.yul\":1851:1904   */\n      tag_145\n      jump\t// in\n    tag_167:\n        /* \"#utility.yul\":1841:1904   */\n      swap2\n      pop\n        /* \"#utility.yul\":1796:1914   */\n      pop\n        /* \"#utility.yul\":1447:1921   */\n      swap3\n      pop\n      swap3\n      swap1\n      pop\n      jump\t// out\n        /* \"#utility.yul\":1927:2045   */\n    tag_168:\n        /* \"#utility.yul\":2014:2038   */\n      tag_170\n        /* \"#utility.yul\":2032:2037   */\n      dup2\n        /* \"#utility.yul\":2014:2038   */\n      tag_171\n      jump\t// in\n    tag_170:\n        /* \"#utility.yul\":2009:2012   */\n      dup3\n        /* \"#utility.yul\":2002:2039   */\n      mstore\n        /* \"#utility.yul\":1927:2045   */\n      pop\n      pop\n      jump\t// out\n        /* \"#utility.yul\":2051:2160   */\n    tag_172:\n        /* \"#utility.yul\":2132:2153   */\n      tag_174\n        /* \"#utility.yul\":2147:2152   */\n      dup2\n        /* \"#utility.yul\":2132:2153   */\n      tag_175\n      jump\t// in\n    tag_174:\n        /* \"#utility.yul\":2127:2130   */\n      dup3\n        /* \"#utility.yul\":2120:2154   */\n      mstore\n        /* \"#utility.yul\":2051:2160   */\n      pop\n      pop\n      jump\t// out\n        /* \"#utility.yul\":2166:2309   */\n    tag_176:\n        /* \"#utility.yul\":2259:2302   */\n      tag_178\n        /* \"#utility.yul\":2296:2301   */\n      dup2\n        /* \"#utility.yul\":2259:2302   */\n      tag_179\n      jump\t// in\n    tag_178:\n        /* \"#utility.yul\":2254:2257   */\n      dup3\n        /* \"#utility.yul\":2247:2303   */\n      mstore\n        /* \"#utility.yul\":2166:2309   */\n      pop\n      pop\n      jump\t// out\n        /* \"#utility.yul\":2315:2679   */\n    tag_180:\n        /* \"#utility.yul\":2403:2406   */\n      0x00\n        /* \"#utility.yul\":2431:2470   */\n      tag_182\n        /* \"#utility.yul\":2464:2469   */\n      dup3\n        /* \"#utility.yul\":2431:2470   */\n      tag_183\n      jump\t// in\n    tag_182:\n        /* \"#utility.yul\":2486:2557   */\n      tag_184\n        /* \"#utility.yul\":2550:2556   */\n      dup2\n        /* \"#utility.yul\":2545:2548   */\n      dup6\n        /* \"#utility.yul\":2486:2557   */\n      tag_185\n      jump\t// in\n    tag_184:\n        /* \"#utility.yul\":2479:2557   */\n      swap4\n      pop\n        /* \"#utility.yul\":2566:2618   */\n      tag_186\n        /* \"#utility.yul\":2611:2617   */\n      dup2\n        /* \"#utility.yul\":2606:2609   */\n      dup6\n        /* \"#utility.yul\":2599:2603   */\n      0x20\n        /* \"#utility.yul\":2592:2597   */\n      dup7\n        /* \"#utility.yul\":2588:2604   */\n      add\n        /* \"#utility.yul\":2566:2618   */\n      tag_187\n      jump\t// in\n    tag_186:\n        /* \"#utility.yul\":2643:2672   */\n      tag_188\n        /* \"#utility.yul\":2665:2671   */\n      dup2\n        /* \"#utility.yul\":2643:2672   */\n      tag_189\n      jump\t// in\n    tag_188:\n        /* \"#utility.yul\":2638:2641   */\n      dup5\n        /* \"#utility.yul\":2634:2673   */\n      add\n        /* \"#utility.yul\":2627:2673   */\n      swap2\n      pop\n        /* \"#utility.yul\":2407:2679   */\n      pop\n        /* \"#utility.yul\":2315:2679   */\n      swap3\n      swap2\n      pop\n      pop\n      jump\t// out\n        /* \"#utility.yul\":2685:3051   */\n    tag_190:\n        /* \"#utility.yul\":2827:2830   */\n      0x00\n        /* \"#utility.yul\":2848:2915   */\n      tag_192\n        /* \"#utility.yul\":2912:2914   */\n      0x2a\n        /* \"#utility.yul\":2907:2910   */\n      dup4\n        /* \"#utility.yul\":2848:2915   */\n      tag_185\n      jump\t// in\n    tag_192:\n        /* \"#utility.yul\":2841:2915   */\n      swap2\n      pop\n        /* \"#utility.yul\":2924:3017   */\n      tag_193\n        /* \"#utility.yul\":3013:3016   */\n      dup3\n        /* \"#utility.yul\":2924:3017   */\n      tag_194\n      jump\t// in\n    tag_193:\n        /* \"#utility.yul\":3042:3044   */\n      0x40\n        /* \"#utility.yul\":3037:3040   */\n      dup3\n        /* \"#utility.yul\":3033:3045   */\n      add\n        /* \"#utility.yul\":3026:3045   */\n      swap1\n      pop\n        /* \"#utility.yul\":2685:3051   */\n      swap2\n      swap1\n      pop\n      jump\t// out\n        /* \"#utility.yul\":3057:3423   */\n    tag_195:\n        /* \"#utility.yul\":3199:3202   */\n      0x00\n        /* \"#utility.yul\":3220:3287   */\n      tag_197\n        /* \"#utility.yul\":3284:3286   */\n      0x1c\n        /* \"#utility.yul\":3279:3282   */\n      dup4\n        /* \"#utility.yul\":3220:3287   */\n      tag_185\n      jump\t// in\n    tag_197:\n        /* \"#utility.yul\":3213:3287   */\n      swap2\n      pop\n        /* \"#utility.yul\":3296:3389   */\n      tag_198\n        /* \"#utility.yul\":3385:3388   */\n      dup3\n        /* \"#utility.yul\":3296:3389   */\n      tag_199\n      jump\t// in\n    tag_198:\n        /* \"#utility.yul\":3414:3416   */\n      0x20\n        /* \"#utility.yul\":3409:3412   */\n      dup3\n        /* \"#utility.yul\":3405:3417   */\n      add\n        /* \"#utility.yul\":3398:3417   */\n      swap1\n      pop\n        /* \"#utility.yul\":3057:3423   */\n      swap2\n      swap1\n      pop\n      jump\t// out\n        /* \"#utility.yul\":3429:3547   */\n    tag_200:\n        /* \"#utility.yul\":3516:3540   */\n      tag_202\n        /* \"#utility.yul\":3534:3539   */\n      dup2\n        /* \"#utility.yul\":3516:3540   */\n      tag_203\n      jump\t// in\n    tag_202:\n        /* \"#utility.yul\":3511:3514   */\n      dup3\n        /* \"#utility.yul\":3504:3541   */\n      mstore\n        /* \"#utility.yul\":3429:3547   */\n      pop\n      pop\n      jump\t// out\n        /* \"#utility.yul\":3553:3775   */\n    tag_51:\n        /* \"#utility.yul\":3646:3650   */\n      0x00\n        /* \"#utility.yul\":3684:3686   */\n      0x20\n        /* \"#utility.yul\":3673:3682   */\n      dup3\n        /* \"#utility.yul\":3669:3687   */\n      add\n        /* \"#utility.yul\":3661:3687   */\n      swap1\n      pop\n        /* \"#utility.yul\":3697:3768   */\n      tag_205\n        /* \"#utility.yul\":3765:3766   */\n      0x00\n        /* \"#utility.yul\":3754:3763   */\n      dup4\n        /* \"#utility.yul\":3750:3767   */\n      add\n        /* \"#utility.yul\":3741:3747   */\n      dup5\n        /* \"#utility.yul\":3697:3768   */\n      tag_168\n      jump\t// in\n    tag_205:\n        /* \"#utility.yul\":3553:3775   */\n      swap3\n      swap2\n      pop\n      pop\n      jump\t// out\n        /* \"#utility.yul\":3781:3991   */\n    tag_56:\n        /* \"#utility.yul\":3868:3872   */\n      0x00\n        /* \"#utility.yul\":3906:3908   */\n      0x20\n        /* \"#utility.yul\":3895:3904   */\n      dup3\n        /* \"#utility.yul\":3891:3909   */\n      add\n        /* \"#utility.yul\":3883:3909   */\n      swap1\n      pop\n        /* \"#utility.yul\":3919:3984   */\n      tag_207\n        /* \"#utility.yul\":3981:3982   */\n      0x00\n        /* \"#utility.yul\":3970:3979   */\n      dup4\n        /* \"#utility.yul\":3966:3983   */\n      add\n        /* \"#utility.yul\":3957:3963   */\n      dup5\n        /* \"#utility.yul\":3919:3984   */\n      tag_172\n      jump\t// in\n    tag_207:\n        /* \"#utility.yul\":3781:3991   */\n      swap3\n      swap2\n      pop\n      pop\n      jump\t// out\n        /* \"#utility.yul\":3997:4637   */\n    tag_45:\n        /* \"#utility.yul\":4190:4194   */\n      0x00\n        /* \"#utility.yul\":4228:4231   */\n      0xa0\n        /* \"#utility.yul\":4217:4226   */\n      dup3\n        /* \"#utility.yul\":4213:4232   */\n      add\n        /* \"#utility.yul\":4205:4232   */\n      swap1\n      pop\n        /* \"#utility.yul\":4242:4307   */\n      tag_209\n        /* \"#utility.yul\":4304:4305   */\n      0x00\n        /* \"#utility.yul\":4293:4302   */\n      dup4\n        /* \"#utility.yul\":4289:4306   */\n      add\n        /* \"#utility.yul\":4280:4286   */\n      dup9\n        /* \"#utility.yul\":4242:4307   */\n      tag_172\n      jump\t// in\n    tag_209:\n        /* \"#utility.yul\":4317:4383   */\n      tag_210\n        /* \"#utility.yul\":4379:4381   */\n      0x20\n        /* \"#utility.yul\":4368:4377   */\n      dup4\n        /* \"#utility.yul\":4364:4382   */\n      add\n        /* \"#utility.yul\":4355:4361   */\n      dup8\n        /* \"#utility.yul\":4317:4383   */\n      tag_172\n      jump\t// in\n    tag_210:\n        /* \"#utility.yul\":4393:4465   */\n      tag_211\n        /* \"#utility.yul\":4461:4463   */\n      0x40\n        /* \"#utility.yul\":4450:4459   */\n      dup4\n        /* \"#utility.yul\":4446:4464   */\n      add\n        /* \"#utility.yul\":4437:4443   */\n      dup7\n        /* \"#utility.yul\":4393:4465   */\n      tag_200\n      jump\t// in\n    tag_211:\n        /* \"#utility.yul\":4475:4547   */\n      tag_212\n        /* \"#utility.yul\":4543:4545   */\n      0x60\n        /* \"#utility.yul\":4532:4541   */\n      dup4\n        /* \"#utility.yul\":4528:4546   */\n      add\n        /* \"#utility.yul\":4519:4525   */\n      dup6\n        /* \"#utility.yul\":4475:4547   */\n      tag_200\n      jump\t// in\n    tag_212:\n        /* \"#utility.yul\":4557:4630   */\n      tag_213\n        /* \"#utility.yul\":4625:4628   */\n      0x80\n        /* \"#utility.yul\":4614:4623   */\n      dup4\n        /* \"#utility.yul\":4610:4629   */\n      add\n        /* \"#utility.yul\":4601:4607   */\n      dup5\n        /* \"#utility.yul\":4557:4630   */\n      tag_200\n      jump\t// in\n    tag_213:\n        /* \"#utility.yul\":3997:4637   */\n      swap7\n      swap6\n      pop\n      pop\n      pop\n      pop\n      pop\n      pop\n      jump\t// out\n        /* \"#utility.yul\":4643:4877   */\n    tag_64:\n        /* \"#utility.yul\":4742:4746   */\n      0x00\n        /* \"#utility.yul\":4780:4782   */\n      0x20\n        /* \"#utility.yul\":4769:4778   */\n      dup3\n        /* \"#utility.yul\":4765:4783   */\n      add\n        /* \"#utility.yul\":4757:4783   */\n      swap1\n      pop\n        /* \"#utility.yul\":4793:4870   */\n      tag_215\n        /* \"#utility.yul\":4867:4868   */\n      0x00\n        /* \"#utility.yul\":4856:4865   */\n      dup4\n        /* \"#utility.yul\":4852:4869   */\n      add\n        /* \"#utility.yul\":4843:4849   */\n      dup5\n        /* \"#utility.yul\":4793:4870   */\n      tag_176\n      jump\t// in\n    tag_215:\n        /* \"#utility.yul\":4643:4877   */\n      swap3\n      swap2\n      pop\n      pop\n      jump\t// out\n        /* \"#utility.yul\":4883:5302   */\n    tag_122:\n        /* \"#utility.yul\":5049:5053   */\n      0x00\n        /* \"#utility.yul\":5087:5089   */\n      0x20\n        /* \"#utility.yul\":5076:5085   */\n      dup3\n        /* \"#utility.yul\":5072:5090   */\n      add\n        /* \"#utility.yul\":5064:5090   */\n      swap1\n      pop\n        /* \"#utility.yul\":5136:5145   */\n      dup2\n        /* \"#utility.yul\":5130:5134   */\n      dup2\n        /* \"#utility.yul\":5126:5146   */\n      sub\n        /* \"#utility.yul\":5122:5123   */\n      0x00\n        /* \"#utility.yul\":5111:5120   */\n      dup4\n        /* \"#utility.yul\":5107:5124   */\n      add\n        /* \"#utility.yul\":5100:5147   */\n      mstore\n        /* \"#utility.yul\":5164:5295   */\n      tag_217\n        /* \"#utility.yul\":5290:5294   */\n      dup2\n        /* \"#utility.yul\":5164:5295   */\n      tag_190\n      jump\t// in\n    tag_217:\n        /* \"#utility.yul\":5156:5295   */\n      swap1\n      pop\n        /* \"#utility.yul\":4883:5302   */\n      swap2\n      swap1\n      pop\n      jump\t// out\n        /* \"#utility.yul\":5308:5727   */\n    tag_118:\n        /* \"#utility.yul\":5474:5478   */\n      0x00\n        /* \"#utility.yul\":5512:5514   */\n      0x20\n        /* \"#utility.yul\":5501:5510   */\n      dup3\n        /* \"#utility.yul\":5497:5515   */\n      add\n        /* \"#utility.yul\":5489:5515   */\n      swap1\n      pop\n        /* \"#utility.yul\":5561:5570   */\n      dup2\n        /* \"#utility.yul\":5555:5559   */\n      dup2\n        /* \"#utility.yul\":5551:5571   */\n      sub\n        /* \"#utility.yul\":5547:5548   */\n      0x00\n        /* \"#utility.yul\":5536:5545   */\n      dup4\n        /* \"#utility.yul\":5532:5549   */\n      add\n        /* \"#utility.yul\":5525:5572   */\n      mstore\n        /* \"#utility.yul\":5589:5720   */\n      tag_219\n        /* \"#utility.yul\":5715:5719   */\n      dup2\n        /* \"#utility.yul\":5589:5720   */\n      tag_195\n      jump\t// in\n    tag_219:\n        /* \"#utility.yul\":5581:5720   */\n      swap1\n      pop\n        /* \"#utility.yul\":5308:5727   */\n      swap2\n      swap1\n      pop\n      jump\t// out\n        /* \"#utility.yul\":5733:5955   */\n    tag_23:\n        /* \"#utility.yul\":5826:5830   */\n      0x00\n        /* \"#utility.yul\":5864:5866   */\n      0x20\n        /* \"#utility.yul\":5853:5862   */\n      dup3\n        /* \"#utility.yul\":5849:5867   */\n      add\n        /* \"#utility.yul\":5841:5867   */\n      swap1\n      pop\n        /* \"#utility.yul\":5877:5948   */\n      tag_221\n        /* \"#utility.yul\":5945:5946   */\n      0x00\n        /* \"#utility.yul\":5934:5943   */\n      dup4\n        /* \"#utility.yul\":5930:5947   */\n      add\n        /* \"#utility.yul\":5921:5927   */\n      dup5\n        /* \"#utility.yul\":5877:5948   */\n      tag_200\n      jump\t// in\n    tag_221:\n        /* \"#utility.yul\":5733:5955   */\n      swap3\n      swap2\n      pop\n      pop\n      jump\t// out\n        /* \"#utility.yul\":5961:6494   */\n    tag_39:\n        /* \"#utility.yul\":6130:6134   */\n      0x00\n        /* \"#utility.yul\":6168:6170   */\n      0x60\n        /* \"#utility.yul\":6157:6166   */\n      dup3\n        /* \"#utility.yul\":6153:6171   */\n      add\n        /* \"#utility.yul\":6145:6171   */\n      swap1\n      pop\n        /* \"#utility.yul\":6181:6252   */\n      tag_223\n        /* \"#utility.yul\":6249:6250   */\n      0x00\n        /* \"#utility.yul\":6238:6247   */\n      dup4\n        /* \"#utility.yul\":6234:6251   */\n      add\n        /* \"#utility.yul\":6225:6231   */\n      dup7\n        /* \"#utility.yul\":6181:6252   */\n      tag_200\n      jump\t// in\n    tag_223:\n        /* \"#utility.yul\":6299:6308   */\n      dup2\n        /* \"#utility.yul\":6293:6297   */\n      dup2\n        /* \"#utility.yul\":6289:6309   */\n      sub\n        /* \"#utility.yul\":6284:6286   */\n      0x20\n        /* \"#utility.yul\":6273:6282   */\n      dup4\n        /* \"#utility.yul\":6269:6287   */\n      add\n        /* \"#utility.yul\":6262:6310   */\n      mstore\n        /* \"#utility.yul\":6327:6405   */\n      tag_224\n        /* \"#utility.yul\":6400:6404   */\n      dup2\n        /* \"#utility.yul\":6391:6397   */\n      dup6\n        /* \"#utility.yul\":6327:6405   */\n      tag_180\n      jump\t// in\n    tag_224:\n        /* \"#utility.yul\":6319:6405   */\n      swap1\n      pop\n        /* \"#utility.yul\":6415:6487   */\n      tag_225\n        /* \"#utility.yul\":6483:6485   */\n      0x40\n        /* \"#utility.yul\":6472:6481   */\n      dup4\n        /* \"#utility.yul\":6468:6486   */\n      add\n        /* \"#utility.yul\":6459:6465   */\n      dup5\n        /* \"#utility.yul\":6415:6487   */\n      tag_200\n      jump\t// in\n    tag_225:\n        /* \"#utility.yul\":5961:6494   */\n      swap5\n      swap4\n      pop\n      pop\n      pop\n      pop\n      jump\t// out\n        /* \"#utility.yul\":6500:7144   */\n    tag_75:\n        /* \"#utility.yul\":6697:6701   */\n      0x00\n        /* \"#utility.yul\":6735:6738   */\n      0x80\n        /* \"#utility.yul\":6724:6733   */\n      dup3\n        /* \"#utility.yul\":6720:6739   */\n      add\n        /* \"#utility.yul\":6712:6739   */\n      swap1\n      pop\n        /* \"#utility.yul\":6749:6820   */\n      tag_227\n        /* \"#utility.yul\":6817:6818   */\n      0x00\n        /* \"#utility.yul\":6806:6815   */\n      dup4\n        /* \"#utility.yul\":6802:6819   */\n      add\n        /* \"#utility.yul\":6793:6799   */\n      dup8\n        /* \"#utility.yul\":6749:6820   */\n      tag_200\n      jump\t// in\n    tag_227:\n        /* \"#utility.yul\":6867:6876   */\n      dup2\n        /* \"#utility.yul\":6861:6865   */\n      dup2\n        /* \"#utility.yul\":6857:6877   */\n      sub\n        /* \"#utility.yul\":6852:6854   */\n      0x20\n        /* \"#utility.yul\":6841:6850   */\n      dup4\n        /* \"#utility.yul\":6837:6855   */\n      add\n        /* \"#utility.yul\":6830:6878   */\n      mstore\n        /* \"#utility.yul\":6895:6973   */\n      tag_228\n        /* \"#utility.yul\":6968:6972   */\n      dup2\n        /* \"#utility.yul\":6959:6965   */\n      dup7\n        /* \"#utility.yul\":6895:6973   */\n      tag_180\n      jump\t// in\n    tag_228:\n        /* \"#utility.yul\":6887:6973   */\n      swap1\n      pop\n        /* \"#utility.yul\":6983:7055   */\n      tag_229\n        /* \"#utility.yul\":7051:7053   */\n      0x40\n        /* \"#utility.yul\":7040:7049   */\n      dup4\n        /* \"#utility.yul\":7036:7054   */\n      add\n        /* \"#utility.yul\":7027:7033   */\n      dup6\n        /* \"#utility.yul\":6983:7055   */\n      tag_200\n      jump\t// in\n    tag_229:\n        /* \"#utility.yul\":7065:7137   */\n      tag_230\n        /* \"#utility.yul\":7133:7135   */\n      0x60\n        /* \"#utility.yul\":7122:7131   */\n      dup4\n        /* \"#utility.yul\":7118:7136   */\n      add\n        /* \"#utility.yul\":7109:7115   */\n      dup5\n        /* \"#utility.yul\":7065:7137   */\n      tag_200\n      jump\t// in\n    tag_230:\n        /* \"#utility.yul\":6500:7144   */\n      swap6\n      swap5\n      pop\n      pop\n      pop\n      pop\n      pop\n      jump\t// out\n        /* \"#utility.yul\":7231:7330   */\n    tag_183:\n        /* \"#utility.yul\":7283:7289   */\n      0x00\n        /* \"#utility.yul\":7317:7322   */\n      dup2\n        /* \"#utility.yul\":7311:7323   */\n      mload\n        /* \"#utility.yul\":7301:7323   */\n      swap1\n      pop\n        /* \"#utility.yul\":7231:7330   */\n      swap2\n      swap1\n      pop\n      jump\t// out\n        /* \"#utility.yul\":7336:7505   */\n    tag_185:\n        /* \"#utility.yul\":7420:7431   */\n      0x00\n        /* \"#utility.yul\":7454:7460   */\n      dup3\n        /* \"#utility.yul\":7449:7452   */\n      dup3\n        /* \"#utility.yul\":7442:7461   */\n      mstore\n        /* \"#utility.yul\":7494:7498   */\n      0x20\n        /* \"#utility.yul\":7489:7492   */\n      dup3\n        /* \"#utility.yul\":7485:7499   */\n      add\n        /* \"#utility.yul\":7470:7499   */\n      swap1\n      pop\n        /* \"#utility.yul\":7336:7505   */\n      swap3\n      swap2\n      pop\n      pop\n      jump\t// out\n        /* \"#utility.yul\":7511:7607   */\n    tag_171:\n        /* \"#utility.yul\":7548:7555   */\n      0x00\n        /* \"#utility.yul\":7577:7601   */\n      tag_236\n        /* \"#utility.yul\":7595:7600   */\n      dup3\n        /* \"#utility.yul\":7577:7601   */\n      tag_237\n      jump\t// in\n    tag_236:\n        /* \"#utility.yul\":7566:7601   */\n      swap1\n      pop\n        /* \"#utility.yul\":7511:7607   */\n      swap2\n      swap1\n      pop\n      jump\t// out\n        /* \"#utility.yul\":7613:7703   */\n    tag_175:\n        /* \"#utility.yul\":7647:7654   */\n      0x00\n        /* \"#utility.yul\":7690:7695   */\n      dup2\n        /* \"#utility.yul\":7683:7696   */\n      iszero\n        /* \"#utility.yul\":7676:7697   */\n      iszero\n        /* \"#utility.yul\":7665:7697   */\n      swap1\n      pop\n        /* \"#utility.yul\":7613:7703   */\n      swap2\n      swap1\n      pop\n      jump\t// out\n        /* \"#utility.yul\":7709:7836   */\n    tag_239:\n        /* \"#utility.yul\":7754:7761   */\n      0x00\n        /* \"#utility.yul\":7783:7788   */\n      dup2\n        /* \"#utility.yul\":7772:7788   */\n      swap1\n      pop\n        /* \"#utility.yul\":7789:7830   */\n      tag_241\n        /* \"#utility.yul\":7824:7829   */\n      dup3\n        /* \"#utility.yul\":7789:7830   */\n      tag_242\n      jump\t// in\n    tag_241:\n        /* \"#utility.yul\":7709:7836   */\n      swap2\n      swap1\n      pop\n      jump\t// out\n        /* \"#utility.yul\":7842:7968   */\n    tag_237:\n        /* \"#utility.yul\":7879:7886   */\n      0x00\n        /* \"#utility.yul\":7919:7961   */\n      0xffffffffffffffffffffffffffffffffffffffff\n        /* \"#utility.yul\":7912:7917   */\n      dup3\n        /* \"#utility.yul\":7908:7962   */\n      and\n        /* \"#utility.yul\":7897:7962   */\n      swap1\n      pop\n        /* \"#utility.yul\":7842:7968   */\n      swap2\n      swap1\n      pop\n      jump\t// out\n        /* \"#utility.yul\":7974:8051   */\n    tag_203:\n        /* \"#utility.yul\":8011:8018   */\n      0x00\n        /* \"#utility.yul\":8040:8045   */\n      dup2\n        /* \"#utility.yul\":8029:8045   */\n      swap1\n      pop\n        /* \"#utility.yul\":7974:8051   */\n      swap2\n      swap1\n      pop\n      jump\t// out\n        /* \"#utility.yul\":8057:8184   */\n    tag_179:\n        /* \"#utility.yul\":8113:8122   */\n      0x00\n        /* \"#utility.yul\":8146:8178   */\n      tag_246\n        /* \"#utility.yul\":8172:8177   */\n      dup3\n        /* \"#utility.yul\":8146:8178   */\n      tag_239\n      jump\t// in\n    tag_246:\n        /* \"#utility.yul\":8133:8178   */\n      swap1\n      pop\n        /* \"#utility.yul\":8057:8184   */\n      swap2\n      swap1\n      pop\n      jump\t// out\n        /* \"#utility.yul\":8190:8497   */\n    tag_187:\n        /* \"#utility.yul\":8258:8259   */\n      0x00\n        /* \"#utility.yul\":8268:8381   */\n    tag_248:\n        /* \"#utility.yul\":8282:8288   */\n      dup4\n        /* \"#utility.yul\":8279:8280   */\n      dup2\n        /* \"#utility.yul\":8276:8289   */\n      lt\n        /* \"#utility.yul\":8268:8381   */\n      iszero\n      tag_250\n      jumpi\n        /* \"#utility.yul\":8367:8368   */\n      dup1\n        /* \"#utility.yul\":8362:8365   */\n      dup3\n        /* \"#utility.yul\":8358:8369   */\n      add\n        /* \"#utility.yul\":8352:8370   */\n      mload\n        /* \"#utility.yul\":8348:8349   */\n      dup2\n        /* \"#utility.yul\":8343:8346   */\n      dup5\n        /* \"#utility.yul\":8339:8350   */\n      add\n        /* \"#utility.yul\":8332:8371   */\n      mstore\n        /* \"#utility.yul\":8304:8306   */\n      0x20\n        /* \"#utility.yul\":8301:8302   */\n      dup2\n        /* \"#utility.yul\":8297:8307   */\n      add\n        /* \"#utility.yul\":8292:8307   */\n      swap1\n      pop\n        /* \"#utility.yul\":8268:8381   */\n      jump(tag_248)\n    tag_250:\n        /* \"#utility.yul\":8399:8405   */\n      dup4\n        /* \"#utility.yul\":8396:8397   */\n      dup2\n        /* \"#utility.yul\":8393:8406   */\n      gt\n        /* \"#utility.yul\":8390:8491   */\n      iszero\n      tag_251\n      jumpi\n        /* \"#utility.yul\":8479:8480   */\n      0x00\n        /* \"#utility.yul\":8470:8476   */\n      dup5\n        /* \"#utility.yul\":8465:8468   */\n      dup5\n        /* \"#utility.yul\":8461:8477   */\n      add\n        /* \"#utility.yul\":8454:8481   */\n      mstore\n        /* \"#utility.yul\":8390:8491   */\n    tag_251:\n        /* \"#utility.yul\":8239:8497   */\n      pop\n        /* \"#utility.yul\":8190:8497   */\n      pop\n      pop\n      pop\n      jump\t// out\n        /* \"#utility.yul\":8503:8823   */\n    tag_91:\n        /* \"#utility.yul\":8547:8553   */\n      0x00\n        /* \"#utility.yul\":8584:8585   */\n      0x02\n        /* \"#utility.yul\":8578:8582   */\n      dup3\n        /* \"#utility.yul\":8574:8586   */\n      div\n        /* \"#utility.yul\":8564:8586   */\n      swap1\n      pop\n        /* \"#utility.yul\":8631:8632   */\n      0x01\n        /* \"#utility.yul\":8625:8629   */\n      dup3\n        /* \"#utility.yul\":8621:8633   */\n      and\n        /* \"#utility.yul\":8652:8670   */\n      dup1\n        /* \"#utility.yul\":8642:8723   */\n      tag_253\n      jumpi\n        /* \"#utility.yul\":8708:8712   */\n      0x7f\n        /* \"#utility.yul\":8700:8706   */\n      dup3\n        /* \"#utility.yul\":8696:8713   */\n      and\n        /* \"#utility.yul\":8686:8713   */\n      swap2\n      pop\n        /* \"#utility.yul\":8642:8723   */\n    tag_253:\n        /* \"#utility.yul\":8770:8772   */\n      0x20\n        /* \"#utility.yul\":8762:8768   */\n      dup3\n        /* \"#utility.yul\":8759:8773   */\n      lt\n        /* \"#utility.yul\":8739:8757   */\n      dup2\n        /* \"#utility.yul\":8736:8774   */\n      eq\n        /* \"#utility.yul\":8733:8817   */\n      iszero\n      tag_254\n      jumpi\n        /* \"#utility.yul\":8789:8807   */\n      tag_255\n      tag_256\n      jump\t// in\n    tag_255:\n        /* \"#utility.yul\":8733:8817   */\n    tag_254:\n        /* \"#utility.yul\":8554:8823   */\n      pop\n        /* \"#utility.yul\":8503:8823   */\n      swap2\n      swap1\n      pop\n      jump\t// out\n        /* \"#utility.yul\":8829:9062   */\n    tag_87:\n        /* \"#utility.yul\":8868:8871   */\n      0x00\n        /* \"#utility.yul\":8891:8915   */\n      tag_258\n        /* \"#utility.yul\":8909:8914   */\n      dup3\n        /* \"#utility.yul\":8891:8915   */\n      tag_203\n      jump\t// in\n    tag_258:\n        /* \"#utility.yul\":8882:8915   */\n      swap2\n      pop\n        /* \"#utility.yul\":8937:9003   */\n      0xffffffffffffffffffffffffffffffffffffffffffffffffffffffffffffffff\n        /* \"#utility.yul\":8930:8935   */\n      dup3\n        /* \"#utility.yul\":8927:9004   */\n      eq\n        /* \"#utility.yul\":8924:9027   */\n      iszero\n      tag_259\n      jumpi\n        /* \"#utility.yul\":9007:9025   */\n      tag_260\n      tag_261\n      jump\t// in\n    tag_260:\n        /* \"#utility.yul\":8924:9027   */\n    tag_259:\n        /* \"#utility.yul\":9054:9055   */\n      0x01\n        /* \"#utility.yul\":9047:9052   */\n      dup3\n        /* \"#utility.yul\":9043:9056   */\n      add\n        /* \"#utility.yul\":9036:9056   */\n      swap1\n      pop\n        /* \"#utility.yul\":8829:9062   */\n      swap2\n      swap1\n      pop\n      jump\t// out\n        /* \"#utility.yul\":9068:9248   */\n    tag_261:\n        /* \"#utility.yul\":9116:9193   */\n      0x4e487b7100000000000000000000000000000000000000000000000000000000\n        /* \"#utility.yul\":9113:9114   */\n      0x00\n        /* \"#utility.yul\":9106:9194   */\n      mstore\n        /* \"#utility.yul\":9213:9217   */\n      0x11\n        /* \"#utility.yul\":9210:9211   */\n      0x04\n        /* \"#utility.yul\":9203:9218   */\n      mstore\n        /* \"#utility.yul\":9237:9241   */\n      0x24\n        /* \"#utility.yul\":9234:9235   */\n      0x00\n        /* \"#utility.yul\":9227:9242   */\n      revert\n        /* \"#utility.yul\":9254:9434   */\n    tag_79:\n        /* \"#utility.yul\":9302:9379   */\n      0x4e487b7100000000000000000000000000000000000000000000000000000000\n        /* \"#utility.yul\":9299:9300   */\n      0x00\n        /* \"#utility.yul\":9292:9380   */\n      mstore\n        /* \"#utility.yul\":9399:9403   */\n      0x21\n        /* \"#utility.yul\":9396:9397   */\n      0x04\n        /* \"#utility.yul\":9389:9404   */\n      mstore\n        /* \"#utility.yul\":9423:9427   */\n      0x24\n        /* \"#utility.yul\":9420:9421   */\n      0x00\n        /* \"#utility.yul\":9413:9428   */\n      revert\n        /* \"#utility.yul\":9440:9620   */\n    tag_256:\n        /* \"#utility.yul\":9488:9565   */\n      0x4e487b7100000000000000000000000000000000000000000000000000000000\n        /* \"#utility.yul\":9485:9486   */\n      0x00\n        /* \"#utility.yul\":9478:9566   */\n      mstore\n        /* \"#utility.yul\":9585:9589   */\n      0x22\n        /* \"#utility.yul\":9582:9583   */\n      0x04\n        /* \"#utility.yul\":9575:9590   */\n      mstore\n        /* \"#utility.yul\":9609:9613   */\n      0x24\n        /* \"#utility.yul\":9606:9607   */\n      0x00\n        /* \"#utility.yul\":9599:9614   */\n      revert\n        /* \"#utility.yul\":9749:9866   */\n    tag_152:\n        /* \"#utility.yul\":9858:9859   */\n      0x00\n        /* \"#utility.yul\":9855:9856   */\n      dup1\n        /* \"#utility.yul\":9848:9860   */\n      revert\n        /* \"#utility.yul\":9872:9974   */\n    tag_189:\n        /* \"#utility.yul\":9913:9919   */\n      0x00\n        /* \"#utility.yul\":9964:9966   */\n      0x1f\n        /* \"#utility.yul\":9960:9967   */\n      not\n        /* \"#utility.yul\":9955:9957   */\n      0x1f\n        /* \"#utility.yul\":9948:9953   */\n      dup4\n        /* \"#utility.yul\":9944:9958   */\n      add\n        /* \"#utility.yul\":9940:9968   */\n      and\n        /* \"#utility.yul\":9930:9968   */\n      swap1\n      pop\n        /* \"#utility.yul\":9872:9974   */\n      swap2\n      swap1\n      pop\n      jump\t// out\n        /* \"#utility.yul\":9980:10209   */\n    tag_194:\n        /* \"#utility.yul\":10120:10154   */\n      0x506c656173652070726f7669646520612076616c696420706f6c6c696e672073\n        /* \"#utility.yul\":10116:10117   */\n      0x00\n        /* \"#utility.yul\":10108:10114   */\n      dup3\n        /* \"#utility.yul\":10104:10118   */\n      add\n        /* \"#utility.yul\":10097:10155   */\n      mstore\n        /* \"#utility.yul\":10189:10201   */\n      0x746174696f6e2049442e00000000000000000000000000000000000000000000\n        /* \"#utility.yul\":10184:10186   */\n      0x20\n        /* \"#utility.yul\":10176:10182   */\n      dup3\n        /* \"#utility.yul\":10172:10187   */\n      add\n        /* \"#utility.yul\":10165:10202   */\n      mstore\n        /* \"#utility.yul\":9980:10209   */\n      pop\n      jump\t// out\n        /* \"#utility.yul\":10215:10393   */\n    tag_199:\n        /* \"#utility.yul\":10355:10385   */\n      0x566f74657220697320616c726561647920726567697374657265642e00000000\n        /* \"#utility.yul\":10351:10352   */\n      0x00\n        /* \"#utility.yul\":10343:10349   */\n      dup3\n        /* \"#utility.yul\":10339:10353   */\n      add\n        /* \"#utility.yul\":10332:10386   */\n      mstore\n        /* \"#utility.yul\":10215:10393   */\n      pop\n      jump\t// out\n        /* \"#utility.yul\":10399:10512   */\n    tag_242:\n        /* \"#utility.yul\":10480:10481   */\n      0x03\n        /* \"#utility.yul\":10473:10478   */\n      dup2\n        /* \"#utility.yul\":10470:10482   */\n      lt\n        /* \"#utility.yul\":10460:10506   */\n      tag_272\n      jumpi\n        /* \"#utility.yul\":10486:10504   */\n      tag_273\n      tag_79\n      jump\t// in\n    tag_273:\n        /* \"#utility.yul\":10460:10506   */\n    tag_272:\n        /* \"#utility.yul\":10399:10512   */\n      pop\n      jump\t// out\n        /* \"#utility.yul\":10518:10640   */\n    tag_144:\n        /* \"#utility.yul\":10591:10615   */\n      tag_275\n        /* \"#utility.yul\":10609:10614   */\n      dup2\n        /* \"#utility.yul\":10591:10615   */\n      tag_171\n      jump\t// in\n    tag_275:\n        /* \"#utility.yul\":10584:10589   */\n      dup2\n        /* \"#utility.yul\":10581:10616   */\n      eq\n        /* \"#utility.yul\":10571:10634   */\n      tag_276\n      jumpi\n        /* \"#utility.yul\":10630:10631   */\n      0x00\n        /* \"#utility.yul\":10627:10628   */\n      dup1\n        /* \"#utility.yul\":10620:10632   */\n      revert\n        /* \"#utility.yul\":10571:10634   */\n    tag_276:\n        /* \"#utility.yul\":10518:10640   */\n      pop\n      jump\t// out\n        /* \"#utility.yul\":10646:10768   */\n    tag_148:\n        /* \"#utility.yul\":10719:10743   */\n      tag_278\n        /* \"#utility.yul\":10737:10742   */\n      dup2\n        /* \"#utility.yul\":10719:10743   */\n      tag_203\n      jump\t// in\n    tag_278:\n        /* \"#utility.yul\":10712:10717   */\n      dup2\n        /* \"#utility.yul\":10709:10744   */\n      eq\n        /* \"#utility.yul\":10699:10762   */\n      tag_279\n      jumpi\n        /* \"#utility.yul\":10758:10759   */\n      0x00\n        /* \"#utility.yul\":10755:10756   */\n      dup1\n        /* \"#utility.yul\":10748:10760   */\n      revert\n        /* \"#utility.yul\":10699:10762   */\n    tag_279:\n        /* \"#utility.yul\":10646:10768   */\n      pop\n      jump\t// out\n\n    auxdata: 0xa26469706673582212206a37cd9d30680bb2a5ff0e18d923826b5310d3ebdd9d5142e099d74067d120f964736f6c63430008070033\n}\n",
				"bytecode": {
					"linkReferences": {},
					"object": "60806040526000600455600060055560006006553480156200002057600080fd5b50336000806101000a81548173ffffffffffffffffffffffffffffffffffffffff021916908373ffffffffffffffffffffffffffffffffffffffff16021790555062000071620000b560201b60201c565b620000816200021560201b60201c565b6000600b60006101000a81548160ff02191690836002811115620000aa57620000a96200075d565b5b0217905550620007bb565b620000fb6040518060400160405280600b81526020017f43616e6469646174652031000000000000000000000000000000000000000000815250620004d360201b60201c565b620001416040518060400160405280600b81526020017f43616e6469646174652032000000000000000000000000000000000000000000815250620004d360201b60201c565b620001876040518060400160405280600b81526020017f43616e6469646174652033000000000000000000000000000000000000000000815250620004d360201b60201c565b620001cd6040518060400160405280600b81526020017f43616e6469646174652034000000000000000000000000000000000000000000815250620004d360201b60201c565b620002136040518060400160405280600b81526020017f43616e6469646174652035000000000000000000000000000000000000000000815250620004d360201b60201c565b565b6200025b6040518060400160405280601181526020017f506f6c6c696e672053746174696f6e20310000000000000000000000000000008152506200055960201b60201c565b620002a16040518060400160405280601181526020017f506f6c6c696e672053746174696f6e20320000000000000000000000000000008152506200055960201b60201c565b620002e76040518060400160405280601181526020017f506f6c6c696e672053746174696f6e20330000000000000000000000000000008152506200055960201b60201c565b6200032d6040518060400160405280601181526020017f506f6c6c696e672053746174696f6e20340000000000000000000000000000008152506200055960201b60201c565b620003736040518060400160405280601181526020017f506f6c6c696e672053746174696f6e20350000000000000000000000000000008152506200055960201b60201c565b620003b96040518060400160405280601181526020017f506f6c6c696e672053746174696f6e20360000000000000000000000000000008152506200055960201b60201c565b620003ff6040518060400160405280601181526020017f506f6c6c696e672053746174696f6e20370000000000000000000000000000008152506200055960201b60201c565b620004456040518060400160405280601181526020017f506f6c6c696e672053746174696f6e20380000000000000000000000000000008152506200055960201b60201c565b6200048b6040518060400160405280601181526020017f506f6c6c696e672053746174696f6e20390000000000000000000000000000008152506200055960201b60201c565b620004d16040518060400160405280601281526020017f506f6c6c696e672053746174696f6e20313000000000000000000000000000008152506200055960201b60201c565b565b60016000815480929190620004e890620006e0565b919050555060405180606001604052806001548152602001828152602001600081525060076000600154815260200190815260200160002060008201518160000155602082015181600101908051906020019062000548929190620005f0565b506040820151816002015590505050565b600260008154809291906200056e90620006e0565b919050555060405180608001604052806002548152602001828152602001600081526020016000815250600860006002548152602001908152602001600020600082015181600001556020820151816001019080519060200190620005d5929190620005f0565b50604082015181600201556060820151816003015590505050565b828054620005fe90620006aa565b90600052602060002090601f0160209004810192826200062257600085556200066e565b82601f106200063d57805160ff19168380011785556200066e565b828001600101855582156200066e579182015b828111156200066d57825182559160200191906001019062000650565b5b5090506200067d919062000681565b5090565b5b808211156200069c57600081600090555060010162000682565b5090565b6000819050919050565b60006002820490506001821680620006c357607f821691505b60208210811415620006da57620006d96200078c565b5b50919050565b6000620006ed82620006a0565b91507fffffffffffffffffffffffffffffffffffffffffffffffffffffffffffffffff8214156200072357620007226200072e565b5b600182019050919050565b7f4e487b7100000000000000000000000000000000000000000000000000000000600052601160045260246000fd5b7f4e487b7100000000000000000000000000000000000000000000000000000000600052602160045260246000fd5b7f4e487b7100000000000000000000000000000000000000000000000000000000600052602260045260246000fd5b61116480620007cb6000396000f3fe608060405234801561001057600080fd5b50600436106100e95760003560e01c806353357ad01161008c578063c19d93fb11610066578063c19d93fb1461023e578063df9f1a071461025c578063f3a8286f1461027a578063fe2442d714610298576100e9565b806353357ad0146101d4578063a3ec138d146101f2578063b9f05f2f14610222576100e9565b80632d35a8a2116100c85780632d35a8a2146101465780633477ee2e146101645780634763d4e7146101965780634c0a6af0146101ca576100e9565b8062aa7464146100ee5780630d15fd771461010c5780632c0a3f891461012a575b600080fd5b6100f66102cb565b6040516101039190610df5565b60405180910390f35b6101146102d1565b6040516101219190610df5565b60405180910390f35b610144600480360381019061013f9190610c16565b6102d7565b005b61014e61052c565b60405161015b9190610df5565b60405180910390f35b61017e60048036038101906101799190610be9565b610532565b60405161018d93929190610e10565b60405180910390f35b6101b060048036038101906101ab9190610b7c565b6105e4565b6040516101c1959493929190610d47565b60405180910390f35b6101d2610634565b005b6101dc6106fb565b6040516101e99190610d11565b60405180910390f35b61020c60048036038101906102079190610b7c565b61071f565b6040516102199190610d2c565b60405180910390f35b61023c60048036038101906102379190610ba9565b61073f565b005b6102466109d2565b6040516102539190610d9a565b60405180910390f35b6102646109e5565b6040516102719190610df5565b60405180910390f35b6102826109eb565b60405161028f9190610df5565b60405180910390f35b6102b260048036038101906102ad9190610be9565b6109f1565b6040516102c29493929190610e4e565b60405180910390f35b60035481565b60065481565b60018060028111156102ec576102eb611000565b5b600b60009054906101000a900460ff16600281111561030e5761030d611000565b5b1461031857600080fd5b6000600960003373ffffffffffffffffffffffffffffffffffffffff1673ffffffffffffffffffffffffffffffffffffffff16815260200190815260200160002060000160009054906101000a900460ff1680156103c35750600960003373ffffffffffffffffffffffffffffffffffffffff1673ffffffffffffffffffffffffffffffffffffffff16815260200190815260200160002060000160019054906101000a900460ff16155b156105265783600960003373ffffffffffffffffffffffffffffffffffffffff1673ffffffffffffffffffffffffffffffffffffffff1681526020019081526020016000206001018190555082600960003373ffffffffffffffffffffffffffffffffffffffff1673ffffffffffffffffffffffffffffffffffffffff168152602001908152602001600020600301819055506001600960003373ffffffffffffffffffffffffffffffffffffffff1673ffffffffffffffffffffffffffffffffffffffff16815260200190815260200160002060000160016101000a81548160ff0219169083151502179055506008600084815260200190815260200160002060030160008154809291906104d890610f88565b919050555060076000858152602001908152602001600020600201600081548092919061050490610f88565b91905055506006600081548092919061051c90610f88565b9190505550600190505b50505050565b60015481565b600760205280600052604060002060009150905080600001549080600101805461055b90610f56565b80601f016020809104026020016040519081016040528092919081815260200182805461058790610f56565b80156105d45780601f106105a9576101008083540402835291602001916105d4565b820191906000526020600020905b8154815290600101906020018083116105b757829003601f168201915b5050505050908060020154905083565b60096020528060005260406000206000915090508060000160009054906101000a900460ff16908060000160019054906101000a900460ff16908060010154908060020154908060030154905085565b600080600281111561064957610648611000565b5b600b60009054906101000a900460ff16600281111561066b5761066a611000565b5b1461067557600080fd5b60008054906101000a900473ffffffffffffffffffffffffffffffffffffffff1673ffffffffffffffffffffffffffffffffffffffff163373ffffffffffffffffffffffffffffffffffffffff16146106cd57600080fd5b6001600b60006101000a81548160ff021916908360028111156106f3576106f2611000565b5b021790555050565b60008054906101000a900473ffffffffffffffffffffffffffffffffffffffff1681565b600a6020528060005260406000206000915054906101000a900460ff1681565b600080600281111561075457610753611000565b5b600b60009054906101000a900460ff16600281111561077657610775611000565b5b1461078057600080fd5b60008054906101000a900473ffffffffffffffffffffffffffffffffffffffff1673ffffffffffffffffffffffffffffffffffffffff163373ffffffffffffffffffffffffffffffffffffffff16146107d857600080fd5b60001515600960008573ffffffffffffffffffffffffffffffffffffffff1673ffffffffffffffffffffffffffffffffffffffff16815260200190815260200160002060000160009054906101000a900460ff1615151461086e576040517f08c379a000000000000000000000000000000000000000000000000000000000815260040161086590610dd5565b60405180910390fd5b6001821015801561088157506002548211155b6108c0576040517f08c379a00000000000000000000000000000000000000000000000000000000081526004016108b790610db5565b60405180910390fd5b6108c8610b1f565b60018160000190151590811515815250506000816020019015159081151581525050600081604001818152505082816060018181525050600081608001818152505080600960008673ffffffffffffffffffffffffffffffffffffffff1673ffffffffffffffffffffffffffffffffffffffff16815260200190815260200160002060008201518160000160006101000a81548160ff02191690831515021790555060208201518160000160016101000a81548160ff0219169083151502179055506040820151816001015560608201518160020155608082015181600301559050506109b483610aa9565b600360008154809291906109c790610f88565b919050555050505050565b600b60009054906101000a900460ff1681565b60025481565b60055481565b6008602052806000526040600020600091509050806000015490806001018054610a1a90610f56565b80601f0160208091040260200160405190810160405280929190818152602001828054610a4690610f56565b8015610a935780601f10610a6857610100808354040283529160200191610a93565b820191906000526020600020905b815481529060010190602001808311610a7657829003601f168201915b5050505050908060020154908060030154905084565b6000600190505b6002548111610b1b578160086000838152602001908152602001600020600001541415610b0857600860008281526020019081526020016000206002016000815480929190610afe90610f88565b9190505550610b1b565b8080610b1390610f88565b915050610ab0565b5050565b6040518060a001604052806000151581526020016000151581526020016000815260200160008152602001600081525090565b600081359050610b6181611100565b92915050565b600081359050610b7681611117565b92915050565b600060208284031215610b9257610b9161105e565b5b6000610ba084828501610b52565b91505092915050565b60008060408385031215610bc057610bbf61105e565b5b6000610bce85828601610b52565b9250506020610bdf85828601610b67565b9150509250929050565b600060208284031215610bff57610bfe61105e565b5b6000610c0d84828501610b67565b91505092915050565b60008060408385031215610c2d57610c2c61105e565b5b6000610c3b85828601610b67565b9250506020610c4c85828601610b67565b9150509250929050565b610c5f81610eb6565b82525050565b610c6e81610ec8565b82525050565b610c7d81610f11565b82525050565b6000610c8e82610e9a565b610c988185610ea5565b9350610ca8818560208601610f23565b610cb181611063565b840191505092915050565b6000610cc9602a83610ea5565b9150610cd482611074565b604082019050919050565b6000610cec601c83610ea5565b9150610cf7826110c3565b602082019050919050565b610d0b81610f07565b82525050565b6000602082019050610d266000830184610c56565b92915050565b6000602082019050610d416000830184610c65565b92915050565b600060a082019050610d5c6000830188610c65565b610d696020830187610c65565b610d766040830186610d02565b610d836060830185610d02565b610d906080830184610d02565b9695505050505050565b6000602082019050610daf6000830184610c74565b92915050565b60006020820190508181036000830152610dce81610cbc565b9050919050565b60006020820190508181036000830152610dee81610cdf565b9050919050565b6000602082019050610e0a6000830184610d02565b92915050565b6000606082019050610e256000830186610d02565b8181036020830152610e378185610c83565b9050610e466040830184610d02565b949350505050565b6000608082019050610e636000830187610d02565b8181036020830152610e758186610c83565b9050610e846040830185610d02565b610e916060830184610d02565b95945050505050565b600081519050919050565b600082825260208201905092915050565b6000610ec182610ee7565b9050919050565b60008115159050919050565b6000819050610ee2826110ec565b919050565b600073ffffffffffffffffffffffffffffffffffffffff82169050919050565b6000819050919050565b6000610f1c82610ed4565b9050919050565b60005b83811015610f41578082015181840152602081019050610f26565b83811115610f50576000848401525b50505050565b60006002820490506001821680610f6e57607f821691505b60208210811415610f8257610f8161102f565b5b50919050565b6000610f9382610f07565b91507fffffffffffffffffffffffffffffffffffffffffffffffffffffffffffffffff821415610fc657610fc5610fd1565b5b600182019050919050565b7f4e487b7100000000000000000000000000000000000000000000000000000000600052601160045260246000fd5b7f4e487b7100000000000000000000000000000000000000000000000000000000600052602160045260246000fd5b7f4e487b7100000000000000000000000000000000000000000000000000000000600052602260045260246000fd5b600080fd5b6000601f19601f8301169050919050565b7f506c656173652070726f7669646520612076616c696420706f6c6c696e67207360008201527f746174696f6e2049442e00000000000000000000000000000000000000000000602082015250565b7f566f74657220697320616c726561647920726567697374657265642e00000000600082015250565b600381106110fd576110fc611000565b5b50565b61110981610eb6565b811461111457600080fd5b50565b61112081610f07565b811461112b57600080fd5b5056fea26469706673582212206a37cd9d30680bb2a5ff0e18d923826b5310d3ebdd9d5142e099d74067d120f964736f6c63430008070033",
					"opcodes": "PUSH1 0x80 PUSH1 0x40 MSTORE PUSH1 0x0 PUSH1 0x4 SSTORE PUSH1 0x0 PUSH1 0x5 SSTORE PUSH1 0x0 PUSH1 0x6 SSTORE CALLVALUE DUP1 ISZERO PUSH3 0x20 JUMPI PUSH1 0x0 DUP1 REVERT JUMPDEST POP CALLER PUSH1 0x0 DUP1 PUSH2 0x100 EXP DUP2 SLOAD DUP2 PUSH20 0xFFFFFFFFFFFFFFFFFFFFFFFFFFFFFFFFFFFFFFFF MUL NOT AND SWAP1 DUP4 PUSH20 0xFFFFFFFFFFFFFFFFFFFFFFFFFFFFFFFFFFFFFFFF AND MUL OR SWAP1 SSTORE POP PUSH3 0x71 PUSH3 0xB5 PUSH1 0x20 SHL PUSH1 0x20 SHR JUMP JUMPDEST PUSH3 0x81 PUSH3 0x215 PUSH1 0x20 SHL PUSH1 0x20 SHR JUMP JUMPDEST PUSH1 0x0 PUSH1 0xB PUSH1 0x0 PUSH2 0x100 EXP DUP2 SLOAD DUP2 PUSH1 0xFF MUL NOT AND SWAP1 DUP4 PUSH1 0x2 DUP2 GT ISZERO PUSH3 0xAA JUMPI PUSH3 0xA9 PUSH3 0x75D JUMP JUMPDEST JUMPDEST MUL OR SWAP1 SSTORE POP PUSH3 0x7BB JUMP JUMPDEST PUSH3 0xFB PUSH1 0x40 MLOAD DUP1 PUSH1 0x40 ADD PUSH1 0x40 MSTORE DUP1 PUSH1 0xB DUP2 MSTORE PUSH1 0x20 ADD PUSH32 0x43616E6469646174652031000000000000000000000000000000000000000000 DUP2 MSTORE POP PUSH3 0x4D3 PUSH1 0x20 SHL PUSH1 0x20 SHR JUMP JUMPDEST PUSH3 0x141 PUSH1 0x40 MLOAD DUP1 PUSH1 0x40 ADD PUSH1 0x40 MSTORE DUP1 PUSH1 0xB DUP2 MSTORE PUSH1 0x20 ADD PUSH32 0x43616E6469646174652032000000000000000000000000000000000000000000 DUP2 MSTORE POP PUSH3 0x4D3 PUSH1 0x20 SHL PUSH1 0x20 SHR JUMP JUMPDEST PUSH3 0x187 PUSH1 0x40 MLOAD DUP1 PUSH1 0x40 ADD PUSH1 0x40 MSTORE DUP1 PUSH1 0xB DUP2 MSTORE PUSH1 0x20 ADD PUSH32 0x43616E6469646174652033000000000000000000000000000000000000000000 DUP2 MSTORE POP PUSH3 0x4D3 PUSH1 0x20 SHL PUSH1 0x20 SHR JUMP JUMPDEST PUSH3 0x1CD PUSH1 0x40 MLOAD DUP1 PUSH1 0x40 ADD PUSH1 0x40 MSTORE DUP1 PUSH1 0xB DUP2 MSTORE PUSH1 0x20 ADD PUSH32 0x43616E6469646174652034000000000000000000000000000000000000000000 DUP2 MSTORE POP PUSH3 0x4D3 PUSH1 0x20 SHL PUSH1 0x20 SHR JUMP JUMPDEST PUSH3 0x213 PUSH1 0x40 MLOAD DUP1 PUSH1 0x40 ADD PUSH1 0x40 MSTORE DUP1 PUSH1 0xB DUP2 MSTORE PUSH1 0x20 ADD PUSH32 0x43616E6469646174652035000000000000000000000000000000000000000000 DUP2 MSTORE POP PUSH3 0x4D3 PUSH1 0x20 SHL PUSH1 0x20 SHR JUMP JUMPDEST JUMP JUMPDEST PUSH3 0x25B PUSH1 0x40 MLOAD DUP1 PUSH1 0x40 ADD PUSH1 0x40 MSTORE DUP1 PUSH1 0x11 DUP2 MSTORE PUSH1 0x20 ADD PUSH32 0x506F6C6C696E672053746174696F6E2031000000000000000000000000000000 DUP2 MSTORE POP PUSH3 0x559 PUSH1 0x20 SHL PUSH1 0x20 SHR JUMP JUMPDEST PUSH3 0x2A1 PUSH1 0x40 MLOAD DUP1 PUSH1 0x40 ADD PUSH1 0x40 MSTORE DUP1 PUSH1 0x11 DUP2 MSTORE PUSH1 0x20 ADD PUSH32 0x506F6C6C696E672053746174696F6E2032000000000000000000000000000000 DUP2 MSTORE POP PUSH3 0x559 PUSH1 0x20 SHL PUSH1 0x20 SHR JUMP JUMPDEST PUSH3 0x2E7 PUSH1 0x40 MLOAD DUP1 PUSH1 0x40 ADD PUSH1 0x40 MSTORE DUP1 PUSH1 0x11 DUP2 MSTORE PUSH1 0x20 ADD PUSH32 0x506F6C6C696E672053746174696F6E2033000000000000000000000000000000 DUP2 MSTORE POP PUSH3 0x559 PUSH1 0x20 SHL PUSH1 0x20 SHR JUMP JUMPDEST PUSH3 0x32D PUSH1 0x40 MLOAD DUP1 PUSH1 0x40 ADD PUSH1 0x40 MSTORE DUP1 PUSH1 0x11 DUP2 MSTORE PUSH1 0x20 ADD PUSH32 0x506F6C6C696E672053746174696F6E2034000000000000000000000000000000 DUP2 MSTORE POP PUSH3 0x559 PUSH1 0x20 SHL PUSH1 0x20 SHR JUMP JUMPDEST PUSH3 0x373 PUSH1 0x40 MLOAD DUP1 PUSH1 0x40 ADD PUSH1 0x40 MSTORE DUP1 PUSH1 0x11 DUP2 MSTORE PUSH1 0x20 ADD PUSH32 0x506F6C6C696E672053746174696F6E2035000000000000000000000000000000 DUP2 MSTORE POP PUSH3 0x559 PUSH1 0x20 SHL PUSH1 0x20 SHR JUMP JUMPDEST PUSH3 0x3B9 PUSH1 0x40 MLOAD DUP1 PUSH1 0x40 ADD PUSH1 0x40 MSTORE DUP1 PUSH1 0x11 DUP2 MSTORE PUSH1 0x20 ADD PUSH32 0x506F6C6C696E672053746174696F6E2036000000000000000000000000000000 DUP2 MSTORE POP PUSH3 0x559 PUSH1 0x20 SHL PUSH1 0x20 SHR JUMP JUMPDEST PUSH3 0x3FF PUSH1 0x40 MLOAD DUP1 PUSH1 0x40 ADD PUSH1 0x40 MSTORE DUP1 PUSH1 0x11 DUP2 MSTORE PUSH1 0x20 ADD PUSH32 0x506F6C6C696E672053746174696F6E2037000000000000000000000000000000 DUP2 MSTORE POP PUSH3 0x559 PUSH1 0x20 SHL PUSH1 0x20 SHR JUMP JUMPDEST PUSH3 0x445 PUSH1 0x40 MLOAD DUP1 PUSH1 0x40 ADD PUSH1 0x40 MSTORE DUP1 PUSH1 0x11 DUP2 MSTORE PUSH1 0x20 ADD PUSH32 0x506F6C6C696E672053746174696F6E2038000000000000000000000000000000 DUP2 MSTORE POP PUSH3 0x559 PUSH1 0x20 SHL PUSH1 0x20 SHR JUMP JUMPDEST PUSH3 0x48B PUSH1 0x40 MLOAD DUP1 PUSH1 0x40 ADD PUSH1 0x40 MSTORE DUP1 PUSH1 0x11 DUP2 MSTORE PUSH1 0x20 ADD PUSH32 0x506F6C6C696E672053746174696F6E2039000000000000000000000000000000 DUP2 MSTORE POP PUSH3 0x559 PUSH1 0x20 SHL PUSH1 0x20 SHR JUMP JUMPDEST PUSH3 0x4D1 PUSH1 0x40 MLOAD DUP1 PUSH1 0x40 ADD PUSH1 0x40 MSTORE DUP1 PUSH1 0x12 DUP2 MSTORE PUSH1 0x20 ADD PUSH32 0x506F6C6C696E672053746174696F6E2031300000000000000000000000000000 DUP2 MSTORE POP PUSH3 0x559 PUSH1 0x20 SHL PUSH1 0x20 SHR JUMP JUMPDEST JUMP JUMPDEST PUSH1 0x1 PUSH1 0x0 DUP2 SLOAD DUP1 SWAP3 SWAP2 SWAP1 PUSH3 0x4E8 SWAP1 PUSH3 0x6E0 JUMP JUMPDEST SWAP2 SWAP1 POP SSTORE POP PUSH1 0x40 MLOAD DUP1 PUSH1 0x60 ADD PUSH1 0x40 MSTORE DUP1 PUSH1 0x1 SLOAD DUP2 MSTORE PUSH1 0x20 ADD DUP3 DUP2 MSTORE PUSH1 0x20 ADD PUSH1 0x0 DUP2 MSTORE POP PUSH1 0x7 PUSH1 0x0 PUSH1 0x1 SLOAD DUP2 MSTORE PUSH1 0x20 ADD SWAP1 DUP2 MSTORE PUSH1 0x20 ADD PUSH1 0x0 KECCAK256 PUSH1 0x0 DUP3 ADD MLOAD DUP2 PUSH1 0x0 ADD SSTORE PUSH1 0x20 DUP3 ADD MLOAD DUP2 PUSH1 0x1 ADD SWAP1 DUP1 MLOAD SWAP1 PUSH1 0x20 ADD SWAP1 PUSH3 0x548 SWAP3 SWAP2 SWAP1 PUSH3 0x5F0 JUMP JUMPDEST POP PUSH1 0x40 DUP3 ADD MLOAD DUP2 PUSH1 0x2 ADD SSTORE SWAP1 POP POP POP JUMP JUMPDEST PUSH1 0x2 PUSH1 0x0 DUP2 SLOAD DUP1 SWAP3 SWAP2 SWAP1 PUSH3 0x56E SWAP1 PUSH3 0x6E0 JUMP JUMPDEST SWAP2 SWAP1 POP SSTORE POP PUSH1 0x40 MLOAD DUP1 PUSH1 0x80 ADD PUSH1 0x40 MSTORE DUP1 PUSH1 0x2 SLOAD DUP2 MSTORE PUSH1 0x20 ADD DUP3 DUP2 MSTORE PUSH1 0x20 ADD PUSH1 0x0 DUP2 MSTORE PUSH1 0x20 ADD PUSH1 0x0 DUP2 MSTORE POP PUSH1 0x8 PUSH1 0x0 PUSH1 0x2 SLOAD DUP2 MSTORE PUSH1 0x20 ADD SWAP1 DUP2 MSTORE PUSH1 0x20 ADD PUSH1 0x0 KECCAK256 PUSH1 0x0 DUP3 ADD MLOAD DUP2 PUSH1 0x0 ADD SSTORE PUSH1 0x20 DUP3 ADD MLOAD DUP2 PUSH1 0x1 ADD SWAP1 DUP1 MLOAD SWAP1 PUSH1 0x20 ADD SWAP1 PUSH3 0x5D5 SWAP3 SWAP2 SWAP1 PUSH3 0x5F0 JUMP JUMPDEST POP PUSH1 0x40 DUP3 ADD MLOAD DUP2 PUSH1 0x2 ADD SSTORE PUSH1 0x60 DUP3 ADD MLOAD DUP2 PUSH1 0x3 ADD SSTORE SWAP1 POP POP POP JUMP JUMPDEST DUP3 DUP1 SLOAD PUSH3 0x5FE SWAP1 PUSH3 0x6AA JUMP JUMPDEST SWAP1 PUSH1 0x0 MSTORE PUSH1 0x20 PUSH1 0x0 KECCAK256 SWAP1 PUSH1 0x1F ADD PUSH1 0x20 SWAP1 DIV DUP2 ADD SWAP3 DUP3 PUSH3 0x622 JUMPI PUSH1 0x0 DUP6 SSTORE PUSH3 0x66E JUMP JUMPDEST DUP3 PUSH1 0x1F LT PUSH3 0x63D JUMPI DUP1 MLOAD PUSH1 0xFF NOT AND DUP4 DUP1 ADD OR DUP6 SSTORE PUSH3 0x66E JUMP JUMPDEST DUP3 DUP1 ADD PUSH1 0x1 ADD DUP6 SSTORE DUP3 ISZERO PUSH3 0x66E JUMPI SWAP2 DUP3 ADD JUMPDEST DUP3 DUP2 GT ISZERO PUSH3 0x66D JUMPI DUP3 MLOAD DUP3 SSTORE SWAP2 PUSH1 0x20 ADD SWAP2 SWAP1 PUSH1 0x1 ADD SWAP1 PUSH3 0x650 JUMP JUMPDEST JUMPDEST POP SWAP1 POP PUSH3 0x67D SWAP2 SWAP1 PUSH3 0x681 JUMP JUMPDEST POP SWAP1 JUMP JUMPDEST JUMPDEST DUP1 DUP3 GT ISZERO PUSH3 0x69C JUMPI PUSH1 0x0 DUP2 PUSH1 0x0 SWAP1 SSTORE POP PUSH1 0x1 ADD PUSH3 0x682 JUMP JUMPDEST POP SWAP1 JUMP JUMPDEST PUSH1 0x0 DUP2 SWAP1 POP SWAP2 SWAP1 POP JUMP JUMPDEST PUSH1 0x0 PUSH1 0x2 DUP3 DIV SWAP1 POP PUSH1 0x1 DUP3 AND DUP1 PUSH3 0x6C3 JUMPI PUSH1 0x7F DUP3 AND SWAP2 POP JUMPDEST PUSH1 0x20 DUP3 LT DUP2 EQ ISZERO PUSH3 0x6DA JUMPI PUSH3 0x6D9 PUSH3 0x78C JUMP JUMPDEST JUMPDEST POP SWAP2 SWAP1 POP JUMP JUMPDEST PUSH1 0x0 PUSH3 0x6ED DUP3 PUSH3 0x6A0 JUMP JUMPDEST SWAP2 POP PUSH32 0xFFFFFFFFFFFFFFFFFFFFFFFFFFFFFFFFFFFFFFFFFFFFFFFFFFFFFFFFFFFFFFFF DUP3 EQ ISZERO PUSH3 0x723 JUMPI PUSH3 0x722 PUSH3 0x72E JUMP JUMPDEST JUMPDEST PUSH1 0x1 DUP3 ADD SWAP1 POP SWAP2 SWAP1 POP JUMP JUMPDEST PUSH32 0x4E487B7100000000000000000000000000000000000000000000000000000000 PUSH1 0x0 MSTORE PUSH1 0x11 PUSH1 0x4 MSTORE PUSH1 0x24 PUSH1 0x0 REVERT JUMPDEST PUSH32 0x4E487B7100000000000000000000000000000000000000000000000000000000 PUSH1 0x0 MSTORE PUSH1 0x21 PUSH1 0x4 MSTORE PUSH1 0x24 PUSH1 0x0 REVERT JUMPDEST PUSH32 0x4E487B7100000000000000000000000000000000000000000000000000000000 PUSH1 0x0 MSTORE PUSH1 0x22 PUSH1 0x4 MSTORE PUSH1 0x24 PUSH1 0x0 REVERT JUMPDEST PUSH2 0x1164 DUP1 PUSH3 0x7CB PUSH1 0x0 CODECOPY PUSH1 0x0 RETURN INVALID PUSH1 0x80 PUSH1 0x40 MSTORE CALLVALUE DUP1 ISZERO PUSH2 0x10 JUMPI PUSH1 0x0 DUP1 REVERT JUMPDEST POP PUSH1 0x4 CALLDATASIZE LT PUSH2 0xE9 JUMPI PUSH1 0x0 CALLDATALOAD PUSH1 0xE0 SHR DUP1 PUSH4 0x53357AD0 GT PUSH2 0x8C JUMPI DUP1 PUSH4 0xC19D93FB GT PUSH2 0x66 JUMPI DUP1 PUSH4 0xC19D93FB EQ PUSH2 0x23E JUMPI DUP1 PUSH4 0xDF9F1A07 EQ PUSH2 0x25C JUMPI DUP1 PUSH4 0xF3A8286F EQ PUSH2 0x27A JUMPI DUP1 PUSH4 0xFE2442D7 EQ PUSH2 0x298 JUMPI PUSH2 0xE9 JUMP JUMPDEST DUP1 PUSH4 0x53357AD0 EQ PUSH2 0x1D4 JUMPI DUP1 PUSH4 0xA3EC138D EQ PUSH2 0x1F2 JUMPI DUP1 PUSH4 0xB9F05F2F EQ PUSH2 0x222 JUMPI PUSH2 0xE9 JUMP JUMPDEST DUP1 PUSH4 0x2D35A8A2 GT PUSH2 0xC8 JUMPI DUP1 PUSH4 0x2D35A8A2 EQ PUSH2 0x146 JUMPI DUP1 PUSH4 0x3477EE2E EQ PUSH2 0x164 JUMPI DUP1 PUSH4 0x4763D4E7 EQ PUSH2 0x196 JUMPI DUP1 PUSH4 0x4C0A6AF0 EQ PUSH2 0x1CA JUMPI PUSH2 0xE9 JUMP JUMPDEST DUP1 PUSH3 0xAA7464 EQ PUSH2 0xEE JUMPI DUP1 PUSH4 0xD15FD77 EQ PUSH2 0x10C JUMPI DUP1 PUSH4 0x2C0A3F89 EQ PUSH2 0x12A JUMPI JUMPDEST PUSH1 0x0 DUP1 REVERT JUMPDEST PUSH2 0xF6 PUSH2 0x2CB JUMP JUMPDEST PUSH1 0x40 MLOAD PUSH2 0x103 SWAP2 SWAP1 PUSH2 0xDF5 JUMP JUMPDEST PUSH1 0x40 MLOAD DUP1 SWAP2 SUB SWAP1 RETURN JUMPDEST PUSH2 0x114 PUSH2 0x2D1 JUMP JUMPDEST PUSH1 0x40 MLOAD PUSH2 0x121 SWAP2 SWAP1 PUSH2 0xDF5 JUMP JUMPDEST PUSH1 0x40 MLOAD DUP1 SWAP2 SUB SWAP1 RETURN JUMPDEST PUSH2 0x144 PUSH1 0x4 DUP1 CALLDATASIZE SUB DUP2 ADD SWAP1 PUSH2 0x13F SWAP2 SWAP1 PUSH2 0xC16 JUMP JUMPDEST PUSH2 0x2D7 JUMP JUMPDEST STOP JUMPDEST PUSH2 0x14E PUSH2 0x52C JUMP JUMPDEST PUSH1 0x40 MLOAD PUSH2 0x15B SWAP2 SWAP1 PUSH2 0xDF5 JUMP JUMPDEST PUSH1 0x40 MLOAD DUP1 SWAP2 SUB SWAP1 RETURN JUMPDEST PUSH2 0x17E PUSH1 0x4 DUP1 CALLDATASIZE SUB DUP2 ADD SWAP1 PUSH2 0x179 SWAP2 SWAP1 PUSH2 0xBE9 JUMP JUMPDEST PUSH2 0x532 JUMP JUMPDEST PUSH1 0x40 MLOAD PUSH2 0x18D SWAP4 SWAP3 SWAP2 SWAP1 PUSH2 0xE10 JUMP JUMPDEST PUSH1 0x40 MLOAD DUP1 SWAP2 SUB SWAP1 RETURN JUMPDEST PUSH2 0x1B0 PUSH1 0x4 DUP1 CALLDATASIZE SUB DUP2 ADD SWAP1 PUSH2 0x1AB SWAP2 SWAP1 PUSH2 0xB7C JUMP JUMPDEST PUSH2 0x5E4 JUMP JUMPDEST PUSH1 0x40 MLOAD PUSH2 0x1C1 SWAP6 SWAP5 SWAP4 SWAP3 SWAP2 SWAP1 PUSH2 0xD47 JUMP JUMPDEST PUSH1 0x40 MLOAD DUP1 SWAP2 SUB SWAP1 RETURN JUMPDEST PUSH2 0x1D2 PUSH2 0x634 JUMP JUMPDEST STOP JUMPDEST PUSH2 0x1DC PUSH2 0x6FB JUMP JUMPDEST PUSH1 0x40 MLOAD PUSH2 0x1E9 SWAP2 SWAP1 PUSH2 0xD11 JUMP JUMPDEST PUSH1 0x40 MLOAD DUP1 SWAP2 SUB SWAP1 RETURN JUMPDEST PUSH2 0x20C PUSH1 0x4 DUP1 CALLDATASIZE SUB DUP2 ADD SWAP1 PUSH2 0x207 SWAP2 SWAP1 PUSH2 0xB7C JUMP JUMPDEST PUSH2 0x71F JUMP JUMPDEST PUSH1 0x40 MLOAD PUSH2 0x219 SWAP2 SWAP1 PUSH2 0xD2C JUMP JUMPDEST PUSH1 0x40 MLOAD DUP1 SWAP2 SUB SWAP1 RETURN JUMPDEST PUSH2 0x23C PUSH1 0x4 DUP1 CALLDATASIZE SUB DUP2 ADD SWAP1 PUSH2 0x237 SWAP2 SWAP1 PUSH2 0xBA9 JUMP JUMPDEST PUSH2 0x73F JUMP JUMPDEST STOP JUMPDEST PUSH2 0x246 PUSH2 0x9D2 JUMP JUMPDEST PUSH1 0x40 MLOAD PUSH2 0x253 SWAP2 SWAP1 PUSH2 0xD9A JUMP JUMPDEST PUSH1 0x40 MLOAD DUP1 SWAP2 SUB SWAP1 RETURN JUMPDEST PUSH2 0x264 PUSH2 0x9E5 JUMP JUMPDEST PUSH1 0x40 MLOAD PUSH2 0x271 SWAP2 SWAP1 PUSH2 0xDF5 JUMP JUMPDEST PUSH1 0x40 MLOAD DUP1 SWAP2 SUB SWAP1 RETURN JUMPDEST PUSH2 0x282 PUSH2 0x9EB JUMP JUMPDEST PUSH1 0x40 MLOAD PUSH2 0x28F SWAP2 SWAP1 PUSH2 0xDF5 JUMP JUMPDEST PUSH1 0x40 MLOAD DUP1 SWAP2 SUB SWAP1 RETURN JUMPDEST PUSH2 0x2B2 PUSH1 0x4 DUP1 CALLDATASIZE SUB DUP2 ADD SWAP1 PUSH2 0x2AD SWAP2 SWAP1 PUSH2 0xBE9 JUMP JUMPDEST PUSH2 0x9F1 JUMP JUMPDEST PUSH1 0x40 MLOAD PUSH2 0x2C2 SWAP5 SWAP4 SWAP3 SWAP2 SWAP1 PUSH2 0xE4E JUMP JUMPDEST PUSH1 0x40 MLOAD DUP1 SWAP2 SUB SWAP1 RETURN JUMPDEST PUSH1 0x3 SLOAD DUP2 JUMP JUMPDEST PUSH1 0x6 SLOAD DUP2 JUMP JUMPDEST PUSH1 0x1 DUP1 PUSH1 0x2 DUP2 GT ISZERO PUSH2 0x2EC JUMPI PUSH2 0x2EB PUSH2 0x1000 JUMP JUMPDEST JUMPDEST PUSH1 0xB PUSH1 0x0 SWAP1 SLOAD SWAP1 PUSH2 0x100 EXP SWAP1 DIV PUSH1 0xFF AND PUSH1 0x2 DUP2 GT ISZERO PUSH2 0x30E JUMPI PUSH2 0x30D PUSH2 0x1000 JUMP JUMPDEST JUMPDEST EQ PUSH2 0x318 JUMPI PUSH1 0x0 DUP1 REVERT JUMPDEST PUSH1 0x0 PUSH1 0x9 PUSH1 0x0 CALLER PUSH20 0xFFFFFFFFFFFFFFFFFFFFFFFFFFFFFFFFFFFFFFFF AND PUSH20 0xFFFFFFFFFFFFFFFFFFFFFFFFFFFFFFFFFFFFFFFF AND DUP2 MSTORE PUSH1 0x20 ADD SWAP1 DUP2 MSTORE PUSH1 0x20 ADD PUSH1 0x0 KECCAK256 PUSH1 0x0 ADD PUSH1 0x0 SWAP1 SLOAD SWAP1 PUSH2 0x100 EXP SWAP1 DIV PUSH1 0xFF AND DUP1 ISZERO PUSH2 0x3C3 JUMPI POP PUSH1 0x9 PUSH1 0x0 CALLER PUSH20 0xFFFFFFFFFFFFFFFFFFFFFFFFFFFFFFFFFFFFFFFF AND PUSH20 0xFFFFFFFFFFFFFFFFFFFFFFFFFFFFFFFFFFFFFFFF AND DUP2 MSTORE PUSH1 0x20 ADD SWAP1 DUP2 MSTORE PUSH1 0x20 ADD PUSH1 0x0 KECCAK256 PUSH1 0x0 ADD PUSH1 0x1 SWAP1 SLOAD SWAP1 PUSH2 0x100 EXP SWAP1 DIV PUSH1 0xFF AND ISZERO JUMPDEST ISZERO PUSH2 0x526 JUMPI DUP4 PUSH1 0x9 PUSH1 0x0 CALLER PUSH20 0xFFFFFFFFFFFFFFFFFFFFFFFFFFFFFFFFFFFFFFFF AND PUSH20 0xFFFFFFFFFFFFFFFFFFFFFFFFFFFFFFFFFFFFFFFF AND DUP2 MSTORE PUSH1 0x20 ADD SWAP1 DUP2 MSTORE PUSH1 0x20 ADD PUSH1 0x0 KECCAK256 PUSH1 0x1 ADD DUP2 SWAP1 SSTORE POP DUP3 PUSH1 0x9 PUSH1 0x0 CALLER PUSH20 0xFFFFFFFFFFFFFFFFFFFFFFFFFFFFFFFFFFFFFFFF AND PUSH20 0xFFFFFFFFFFFFFFFFFFFFFFFFFFFFFFFFFFFFFFFF AND DUP2 MSTORE PUSH1 0x20 ADD SWAP1 DUP2 MSTORE PUSH1 0x20 ADD PUSH1 0x0 KECCAK256 PUSH1 0x3 ADD DUP2 SWAP1 SSTORE POP PUSH1 0x1 PUSH1 0x9 PUSH1 0x0 CALLER PUSH20 0xFFFFFFFFFFFFFFFFFFFFFFFFFFFFFFFFFFFFFFFF AND PUSH20 0xFFFFFFFFFFFFFFFFFFFFFFFFFFFFFFFFFFFFFFFF AND DUP2 MSTORE PUSH1 0x20 ADD SWAP1 DUP2 MSTORE PUSH1 0x20 ADD PUSH1 0x0 KECCAK256 PUSH1 0x0 ADD PUSH1 0x1 PUSH2 0x100 EXP DUP2 SLOAD DUP2 PUSH1 0xFF MUL NOT AND SWAP1 DUP4 ISZERO ISZERO MUL OR SWAP1 SSTORE POP PUSH1 0x8 PUSH1 0x0 DUP5 DUP2 MSTORE PUSH1 0x20 ADD SWAP1 DUP2 MSTORE PUSH1 0x20 ADD PUSH1 0x0 KECCAK256 PUSH1 0x3 ADD PUSH1 0x0 DUP2 SLOAD DUP1 SWAP3 SWAP2 SWAP1 PUSH2 0x4D8 SWAP1 PUSH2 0xF88 JUMP JUMPDEST SWAP2 SWAP1 POP SSTORE POP PUSH1 0x7 PUSH1 0x0 DUP6 DUP2 MSTORE PUSH1 0x20 ADD SWAP1 DUP2 MSTORE PUSH1 0x20 ADD PUSH1 0x0 KECCAK256 PUSH1 0x2 ADD PUSH1 0x0 DUP2 SLOAD DUP1 SWAP3 SWAP2 SWAP1 PUSH2 0x504 SWAP1 PUSH2 0xF88 JUMP JUMPDEST SWAP2 SWAP1 POP SSTORE POP PUSH1 0x6 PUSH1 0x0 DUP2 SLOAD DUP1 SWAP3 SWAP2 SWAP1 PUSH2 0x51C SWAP1 PUSH2 0xF88 JUMP JUMPDEST SWAP2 SWAP1 POP SSTORE POP PUSH1 0x1 SWAP1 POP JUMPDEST POP POP POP POP JUMP JUMPDEST PUSH1 0x1 SLOAD DUP2 JUMP JUMPDEST PUSH1 0x7 PUSH1 0x20 MSTORE DUP1 PUSH1 0x0 MSTORE PUSH1 0x40 PUSH1 0x0 KECCAK256 PUSH1 0x0 SWAP2 POP SWAP1 POP DUP1 PUSH1 0x0 ADD SLOAD SWAP1 DUP1 PUSH1 0x1 ADD DUP1 SLOAD PUSH2 0x55B SWAP1 PUSH2 0xF56 JUMP JUMPDEST DUP1 PUSH1 0x1F ADD PUSH1 0x20 DUP1 SWAP2 DIV MUL PUSH1 0x20 ADD PUSH1 0x40 MLOAD SWAP1 DUP2 ADD PUSH1 0x40 MSTORE DUP1 SWAP3 SWAP2 SWAP1 DUP2 DUP2 MSTORE PUSH1 0x20 ADD DUP3 DUP1 SLOAD PUSH2 0x587 SWAP1 PUSH2 0xF56 JUMP JUMPDEST DUP1 ISZERO PUSH2 0x5D4 JUMPI DUP1 PUSH1 0x1F LT PUSH2 0x5A9 JUMPI PUSH2 0x100 DUP1 DUP4 SLOAD DIV MUL DUP4 MSTORE SWAP2 PUSH1 0x20 ADD SWAP2 PUSH2 0x5D4 JUMP JUMPDEST DUP3 ADD SWAP2 SWAP1 PUSH1 0x0 MSTORE PUSH1 0x20 PUSH1 0x0 KECCAK256 SWAP1 JUMPDEST DUP2 SLOAD DUP2 MSTORE SWAP1 PUSH1 0x1 ADD SWAP1 PUSH1 0x20 ADD DUP1 DUP4 GT PUSH2 0x5B7 JUMPI DUP3 SWAP1 SUB PUSH1 0x1F AND DUP3 ADD SWAP2 JUMPDEST POP POP POP POP POP SWAP1 DUP1 PUSH1 0x2 ADD SLOAD SWAP1 POP DUP4 JUMP JUMPDEST PUSH1 0x9 PUSH1 0x20 MSTORE DUP1 PUSH1 0x0 MSTORE PUSH1 0x40 PUSH1 0x0 KECCAK256 PUSH1 0x0 SWAP2 POP SWAP1 POP DUP1 PUSH1 0x0 ADD PUSH1 0x0 SWAP1 SLOAD SWAP1 PUSH2 0x100 EXP SWAP1 DIV PUSH1 0xFF AND SWAP1 DUP1 PUSH1 0x0 ADD PUSH1 0x1 SWAP1 SLOAD SWAP1 PUSH2 0x100 EXP SWAP1 DIV PUSH1 0xFF AND SWAP1 DUP1 PUSH1 0x1 ADD SLOAD SWAP1 DUP1 PUSH1 0x2 ADD SLOAD SWAP1 DUP1 PUSH1 0x3 ADD SLOAD SWAP1 POP DUP6 JUMP JUMPDEST PUSH1 0x0 DUP1 PUSH1 0x2 DUP2 GT ISZERO PUSH2 0x649 JUMPI PUSH2 0x648 PUSH2 0x1000 JUMP JUMPDEST JUMPDEST PUSH1 0xB PUSH1 0x0 SWAP1 SLOAD SWAP1 PUSH2 0x100 EXP SWAP1 DIV PUSH1 0xFF AND PUSH1 0x2 DUP2 GT ISZERO PUSH2 0x66B JUMPI PUSH2 0x66A PUSH2 0x1000 JUMP JUMPDEST JUMPDEST EQ PUSH2 0x675 JUMPI PUSH1 0x0 DUP1 REVERT JUMPDEST PUSH1 0x0 DUP1 SLOAD SWAP1 PUSH2 0x100 EXP SWAP1 DIV PUSH20 0xFFFFFFFFFFFFFFFFFFFFFFFFFFFFFFFFFFFFFFFF AND PUSH20 0xFFFFFFFFFFFFFFFFFFFFFFFFFFFFFFFFFFFFFFFF AND CALLER PUSH20 0xFFFFFFFFFFFFFFFFFFFFFFFFFFFFFFFFFFFFFFFF AND EQ PUSH2 0x6CD JUMPI PUSH1 0x0 DUP1 REVERT JUMPDEST PUSH1 0x1 PUSH1 0xB PUSH1 0x0 PUSH2 0x100 EXP DUP2 SLOAD DUP2 PUSH1 0xFF MUL NOT AND SWAP1 DUP4 PUSH1 0x2 DUP2 GT ISZERO PUSH2 0x6F3 JUMPI PUSH2 0x6F2 PUSH2 0x1000 JUMP JUMPDEST JUMPDEST MUL OR SWAP1 SSTORE POP POP JUMP JUMPDEST PUSH1 0x0 DUP1 SLOAD SWAP1 PUSH2 0x100 EXP SWAP1 DIV PUSH20 0xFFFFFFFFFFFFFFFFFFFFFFFFFFFFFFFFFFFFFFFF AND DUP2 JUMP JUMPDEST PUSH1 0xA PUSH1 0x20 MSTORE DUP1 PUSH1 0x0 MSTORE PUSH1 0x40 PUSH1 0x0 KECCAK256 PUSH1 0x0 SWAP2 POP SLOAD SWAP1 PUSH2 0x100 EXP SWAP1 DIV PUSH1 0xFF AND DUP2 JUMP JUMPDEST PUSH1 0x0 DUP1 PUSH1 0x2 DUP2 GT ISZERO PUSH2 0x754 JUMPI PUSH2 0x753 PUSH2 0x1000 JUMP JUMPDEST JUMPDEST PUSH1 0xB PUSH1 0x0 SWAP1 SLOAD SWAP1 PUSH2 0x100 EXP SWAP1 DIV PUSH1 0xFF AND PUSH1 0x2 DUP2 GT ISZERO PUSH2 0x776 JUMPI PUSH2 0x775 PUSH2 0x1000 JUMP JUMPDEST JUMPDEST EQ PUSH2 0x780 JUMPI PUSH1 0x0 DUP1 REVERT JUMPDEST PUSH1 0x0 DUP1 SLOAD SWAP1 PUSH2 0x100 EXP SWAP1 DIV PUSH20 0xFFFFFFFFFFFFFFFFFFFFFFFFFFFFFFFFFFFFFFFF AND PUSH20 0xFFFFFFFFFFFFFFFFFFFFFFFFFFFFFFFFFFFFFFFF AND CALLER PUSH20 0xFFFFFFFFFFFFFFFFFFFFFFFFFFFFFFFFFFFFFFFF AND EQ PUSH2 0x7D8 JUMPI PUSH1 0x0 DUP1 REVERT JUMPDEST PUSH1 0x0 ISZERO ISZERO PUSH1 0x9 PUSH1 0x0 DUP6 PUSH20 0xFFFFFFFFFFFFFFFFFFFFFFFFFFFFFFFFFFFFFFFF AND PUSH20 0xFFFFFFFFFFFFFFFFFFFFFFFFFFFFFFFFFFFFFFFF AND DUP2 MSTORE PUSH1 0x20 ADD SWAP1 DUP2 MSTORE PUSH1 0x20 ADD PUSH1 0x0 KECCAK256 PUSH1 0x0 ADD PUSH1 0x0 SWAP1 SLOAD SWAP1 PUSH2 0x100 EXP SWAP1 DIV PUSH1 0xFF AND ISZERO ISZERO EQ PUSH2 0x86E JUMPI PUSH1 0x40 MLOAD PUSH32 0x8C379A000000000000000000000000000000000000000000000000000000000 DUP2 MSTORE PUSH1 0x4 ADD PUSH2 0x865 SWAP1 PUSH2 0xDD5 JUMP JUMPDEST PUSH1 0x40 MLOAD DUP1 SWAP2 SUB SWAP1 REVERT JUMPDEST PUSH1 0x1 DUP3 LT ISZERO DUP1 ISZERO PUSH2 0x881 JUMPI POP PUSH1 0x2 SLOAD DUP3 GT ISZERO JUMPDEST PUSH2 0x8C0 JUMPI PUSH1 0x40 MLOAD PUSH32 0x8C379A000000000000000000000000000000000000000000000000000000000 DUP2 MSTORE PUSH1 0x4 ADD PUSH2 0x8B7 SWAP1 PUSH2 0xDB5 JUMP JUMPDEST PUSH1 0x40 MLOAD DUP1 SWAP2 SUB SWAP1 REVERT JUMPDEST PUSH2 0x8C8 PUSH2 0xB1F JUMP JUMPDEST PUSH1 0x1 DUP2 PUSH1 0x0 ADD SWAP1 ISZERO ISZERO SWAP1 DUP2 ISZERO ISZERO DUP2 MSTORE POP POP PUSH1 0x0 DUP2 PUSH1 0x20 ADD SWAP1 ISZERO ISZERO SWAP1 DUP2 ISZERO ISZERO DUP2 MSTORE POP POP PUSH1 0x0 DUP2 PUSH1 0x40 ADD DUP2 DUP2 MSTORE POP POP DUP3 DUP2 PUSH1 0x60 ADD DUP2 DUP2 MSTORE POP POP PUSH1 0x0 DUP2 PUSH1 0x80 ADD DUP2 DUP2 MSTORE POP POP DUP1 PUSH1 0x9 PUSH1 0x0 DUP7 PUSH20 0xFFFFFFFFFFFFFFFFFFFFFFFFFFFFFFFFFFFFFFFF AND PUSH20 0xFFFFFFFFFFFFFFFFFFFFFFFFFFFFFFFFFFFFFFFF AND DUP2 MSTORE PUSH1 0x20 ADD SWAP1 DUP2 MSTORE PUSH1 0x20 ADD PUSH1 0x0 KECCAK256 PUSH1 0x0 DUP3 ADD MLOAD DUP2 PUSH1 0x0 ADD PUSH1 0x0 PUSH2 0x100 EXP DUP2 SLOAD DUP2 PUSH1 0xFF MUL NOT AND SWAP1 DUP4 ISZERO ISZERO MUL OR SWAP1 SSTORE POP PUSH1 0x20 DUP3 ADD MLOAD DUP2 PUSH1 0x0 ADD PUSH1 0x1 PUSH2 0x100 EXP DUP2 SLOAD DUP2 PUSH1 0xFF MUL NOT AND SWAP1 DUP4 ISZERO ISZERO MUL OR SWAP1 SSTORE POP PUSH1 0x40 DUP3 ADD MLOAD DUP2 PUSH1 0x1 ADD SSTORE PUSH1 0x60 DUP3 ADD MLOAD DUP2 PUSH1 0x2 ADD SSTORE PUSH1 0x80 DUP3 ADD MLOAD DUP2 PUSH1 0x3 ADD SSTORE SWAP1 POP POP PUSH2 0x9B4 DUP4 PUSH2 0xAA9 JUMP JUMPDEST PUSH1 0x3 PUSH1 0x0 DUP2 SLOAD DUP1 SWAP3 SWAP2 SWAP1 PUSH2 0x9C7 SWAP1 PUSH2 0xF88 JUMP JUMPDEST SWAP2 SWAP1 POP SSTORE POP POP POP POP POP JUMP JUMPDEST PUSH1 0xB PUSH1 0x0 SWAP1 SLOAD SWAP1 PUSH2 0x100 EXP SWAP1 DIV PUSH1 0xFF AND DUP2 JUMP JUMPDEST PUSH1 0x2 SLOAD DUP2 JUMP JUMPDEST PUSH1 0x5 SLOAD DUP2 JUMP JUMPDEST PUSH1 0x8 PUSH1 0x20 MSTORE DUP1 PUSH1 0x0 MSTORE PUSH1 0x40 PUSH1 0x0 KECCAK256 PUSH1 0x0 SWAP2 POP SWAP1 POP DUP1 PUSH1 0x0 ADD SLOAD SWAP1 DUP1 PUSH1 0x1 ADD DUP1 SLOAD PUSH2 0xA1A SWAP1 PUSH2 0xF56 JUMP JUMPDEST DUP1 PUSH1 0x1F ADD PUSH1 0x20 DUP1 SWAP2 DIV MUL PUSH1 0x20 ADD PUSH1 0x40 MLOAD SWAP1 DUP2 ADD PUSH1 0x40 MSTORE DUP1 SWAP3 SWAP2 SWAP1 DUP2 DUP2 MSTORE PUSH1 0x20 ADD DUP3 DUP1 SLOAD PUSH2 0xA46 SWAP1 PUSH2 0xF56 JUMP JUMPDEST DUP1 ISZERO PUSH2 0xA93 JUMPI DUP1 PUSH1 0x1F LT PUSH2 0xA68 JUMPI PUSH2 0x100 DUP1 DUP4 SLOAD DIV MUL DUP4 MSTORE SWAP2 PUSH1 0x20 ADD SWAP2 PUSH2 0xA93 JUMP JUMPDEST DUP3 ADD SWAP2 SWAP1 PUSH1 0x0 MSTORE PUSH1 0x20 PUSH1 0x0 KECCAK256 SWAP1 JUMPDEST DUP2 SLOAD DUP2 MSTORE SWAP1 PUSH1 0x1 ADD SWAP1 PUSH1 0x20 ADD DUP1 DUP4 GT PUSH2 0xA76 JUMPI DUP3 SWAP1 SUB PUSH1 0x1F AND DUP3 ADD SWAP2 JUMPDEST POP POP POP POP POP SWAP1 DUP1 PUSH1 0x2 ADD SLOAD SWAP1 DUP1 PUSH1 0x3 ADD SLOAD SWAP1 POP DUP5 JUMP JUMPDEST PUSH1 0x0 PUSH1 0x1 SWAP1 POP JUMPDEST PUSH1 0x2 SLOAD DUP2 GT PUSH2 0xB1B JUMPI DUP2 PUSH1 0x8 PUSH1 0x0 DUP4 DUP2 MSTORE PUSH1 0x20 ADD SWAP1 DUP2 MSTORE PUSH1 0x20 ADD PUSH1 0x0 KECCAK256 PUSH1 0x0 ADD SLOAD EQ ISZERO PUSH2 0xB08 JUMPI PUSH1 0x8 PUSH1 0x0 DUP3 DUP2 MSTORE PUSH1 0x20 ADD SWAP1 DUP2 MSTORE PUSH1 0x20 ADD PUSH1 0x0 KECCAK256 PUSH1 0x2 ADD PUSH1 0x0 DUP2 SLOAD DUP1 SWAP3 SWAP2 SWAP1 PUSH2 0xAFE SWAP1 PUSH2 0xF88 JUMP JUMPDEST SWAP2 SWAP1 POP SSTORE POP PUSH2 0xB1B JUMP JUMPDEST DUP1 DUP1 PUSH2 0xB13 SWAP1 PUSH2 0xF88 JUMP JUMPDEST SWAP2 POP POP PUSH2 0xAB0 JUMP JUMPDEST POP POP JUMP JUMPDEST PUSH1 0x40 MLOAD DUP1 PUSH1 0xA0 ADD PUSH1 0x40 MSTORE DUP1 PUSH1 0x0 ISZERO ISZERO DUP2 MSTORE PUSH1 0x20 ADD PUSH1 0x0 ISZERO ISZERO DUP2 MSTORE PUSH1 0x20 ADD PUSH1 0x0 DUP2 MSTORE PUSH1 0x20 ADD PUSH1 0x0 DUP2 MSTORE PUSH1 0x20 ADD PUSH1 0x0 DUP2 MSTORE POP SWAP1 JUMP JUMPDEST PUSH1 0x0 DUP2 CALLDATALOAD SWAP1 POP PUSH2 0xB61 DUP2 PUSH2 0x1100 JUMP JUMPDEST SWAP3 SWAP2 POP POP JUMP JUMPDEST PUSH1 0x0 DUP2 CALLDATALOAD SWAP1 POP PUSH2 0xB76 DUP2 PUSH2 0x1117 JUMP JUMPDEST SWAP3 SWAP2 POP POP JUMP JUMPDEST PUSH1 0x0 PUSH1 0x20 DUP3 DUP5 SUB SLT ISZERO PUSH2 0xB92 JUMPI PUSH2 0xB91 PUSH2 0x105E JUMP JUMPDEST JUMPDEST PUSH1 0x0 PUSH2 0xBA0 DUP5 DUP3 DUP6 ADD PUSH2 0xB52 JUMP JUMPDEST SWAP2 POP POP SWAP3 SWAP2 POP POP JUMP JUMPDEST PUSH1 0x0 DUP1 PUSH1 0x40 DUP4 DUP6 SUB SLT ISZERO PUSH2 0xBC0 JUMPI PUSH2 0xBBF PUSH2 0x105E JUMP JUMPDEST JUMPDEST PUSH1 0x0 PUSH2 0xBCE DUP6 DUP3 DUP7 ADD PUSH2 0xB52 JUMP JUMPDEST SWAP3 POP POP PUSH1 0x20 PUSH2 0xBDF DUP6 DUP3 DUP7 ADD PUSH2 0xB67 JUMP JUMPDEST SWAP2 POP POP SWAP3 POP SWAP3 SWAP1 POP JUMP JUMPDEST PUSH1 0x0 PUSH1 0x20 DUP3 DUP5 SUB SLT ISZERO PUSH2 0xBFF JUMPI PUSH2 0xBFE PUSH2 0x105E JUMP JUMPDEST JUMPDEST PUSH1 0x0 PUSH2 0xC0D DUP5 DUP3 DUP6 ADD PUSH2 0xB67 JUMP JUMPDEST SWAP2 POP POP SWAP3 SWAP2 POP POP JUMP JUMPDEST PUSH1 0x0 DUP1 PUSH1 0x40 DUP4 DUP6 SUB SLT ISZERO PUSH2 0xC2D JUMPI PUSH2 0xC2C PUSH2 0x105E JUMP JUMPDEST JUMPDEST PUSH1 0x0 PUSH2 0xC3B DUP6 DUP3 DUP7 ADD PUSH2 0xB67 JUMP JUMPDEST SWAP3 POP POP PUSH1 0x20 PUSH2 0xC4C DUP6 DUP3 DUP7 ADD PUSH2 0xB67 JUMP JUMPDEST SWAP2 POP POP SWAP3 POP SWAP3 SWAP1 POP JUMP JUMPDEST PUSH2 0xC5F DUP2 PUSH2 0xEB6 JUMP JUMPDEST DUP3 MSTORE POP POP JUMP JUMPDEST PUSH2 0xC6E DUP2 PUSH2 0xEC8 JUMP JUMPDEST DUP3 MSTORE POP POP JUMP JUMPDEST PUSH2 0xC7D DUP2 PUSH2 0xF11 JUMP JUMPDEST DUP3 MSTORE POP POP JUMP JUMPDEST PUSH1 0x0 PUSH2 0xC8E DUP3 PUSH2 0xE9A JUMP JUMPDEST PUSH2 0xC98 DUP2 DUP6 PUSH2 0xEA5 JUMP JUMPDEST SWAP4 POP PUSH2 0xCA8 DUP2 DUP6 PUSH1 0x20 DUP7 ADD PUSH2 0xF23 JUMP JUMPDEST PUSH2 0xCB1 DUP2 PUSH2 0x1063 JUMP JUMPDEST DUP5 ADD SWAP2 POP POP SWAP3 SWAP2 POP POP JUMP JUMPDEST PUSH1 0x0 PUSH2 0xCC9 PUSH1 0x2A DUP4 PUSH2 0xEA5 JUMP JUMPDEST SWAP2 POP PUSH2 0xCD4 DUP3 PUSH2 0x1074 JUMP JUMPDEST PUSH1 0x40 DUP3 ADD SWAP1 POP SWAP2 SWAP1 POP JUMP JUMPDEST PUSH1 0x0 PUSH2 0xCEC PUSH1 0x1C DUP4 PUSH2 0xEA5 JUMP JUMPDEST SWAP2 POP PUSH2 0xCF7 DUP3 PUSH2 0x10C3 JUMP JUMPDEST PUSH1 0x20 DUP3 ADD SWAP1 POP SWAP2 SWAP1 POP JUMP JUMPDEST PUSH2 0xD0B DUP2 PUSH2 0xF07 JUMP JUMPDEST DUP3 MSTORE POP POP JUMP JUMPDEST PUSH1 0x0 PUSH1 0x20 DUP3 ADD SWAP1 POP PUSH2 0xD26 PUSH1 0x0 DUP4 ADD DUP5 PUSH2 0xC56 JUMP JUMPDEST SWAP3 SWAP2 POP POP JUMP JUMPDEST PUSH1 0x0 PUSH1 0x20 DUP3 ADD SWAP1 POP PUSH2 0xD41 PUSH1 0x0 DUP4 ADD DUP5 PUSH2 0xC65 JUMP JUMPDEST SWAP3 SWAP2 POP POP JUMP JUMPDEST PUSH1 0x0 PUSH1 0xA0 DUP3 ADD SWAP1 POP PUSH2 0xD5C PUSH1 0x0 DUP4 ADD DUP9 PUSH2 0xC65 JUMP JUMPDEST PUSH2 0xD69 PUSH1 0x20 DUP4 ADD DUP8 PUSH2 0xC65 JUMP JUMPDEST PUSH2 0xD76 PUSH1 0x40 DUP4 ADD DUP7 PUSH2 0xD02 JUMP JUMPDEST PUSH2 0xD83 PUSH1 0x60 DUP4 ADD DUP6 PUSH2 0xD02 JUMP JUMPDEST PUSH2 0xD90 PUSH1 0x80 DUP4 ADD DUP5 PUSH2 0xD02 JUMP JUMPDEST SWAP7 SWAP6 POP POP POP POP POP POP JUMP JUMPDEST PUSH1 0x0 PUSH1 0x20 DUP3 ADD SWAP1 POP PUSH2 0xDAF PUSH1 0x0 DUP4 ADD DUP5 PUSH2 0xC74 JUMP JUMPDEST SWAP3 SWAP2 POP POP JUMP JUMPDEST PUSH1 0x0 PUSH1 0x20 DUP3 ADD SWAP1 POP DUP2 DUP2 SUB PUSH1 0x0 DUP4 ADD MSTORE PUSH2 0xDCE DUP2 PUSH2 0xCBC JUMP JUMPDEST SWAP1 POP SWAP2 SWAP1 POP JUMP JUMPDEST PUSH1 0x0 PUSH1 0x20 DUP3 ADD SWAP1 POP DUP2 DUP2 SUB PUSH1 0x0 DUP4 ADD MSTORE PUSH2 0xDEE DUP2 PUSH2 0xCDF JUMP JUMPDEST SWAP1 POP SWAP2 SWAP1 POP JUMP JUMPDEST PUSH1 0x0 PUSH1 0x20 DUP3 ADD SWAP1 POP PUSH2 0xE0A PUSH1 0x0 DUP4 ADD DUP5 PUSH2 0xD02 JUMP JUMPDEST SWAP3 SWAP2 POP POP JUMP JUMPDEST PUSH1 0x0 PUSH1 0x60 DUP3 ADD SWAP1 POP PUSH2 0xE25 PUSH1 0x0 DUP4 ADD DUP7 PUSH2 0xD02 JUMP JUMPDEST DUP2 DUP2 SUB PUSH1 0x20 DUP4 ADD MSTORE PUSH2 0xE37 DUP2 DUP6 PUSH2 0xC83 JUMP JUMPDEST SWAP1 POP PUSH2 0xE46 PUSH1 0x40 DUP4 ADD DUP5 PUSH2 0xD02 JUMP JUMPDEST SWAP5 SWAP4 POP POP POP POP JUMP JUMPDEST PUSH1 0x0 PUSH1 0x80 DUP3 ADD SWAP1 POP PUSH2 0xE63 PUSH1 0x0 DUP4 ADD DUP8 PUSH2 0xD02 JUMP JUMPDEST DUP2 DUP2 SUB PUSH1 0x20 DUP4 ADD MSTORE PUSH2 0xE75 DUP2 DUP7 PUSH2 0xC83 JUMP JUMPDEST SWAP1 POP PUSH2 0xE84 PUSH1 0x40 DUP4 ADD DUP6 PUSH2 0xD02 JUMP JUMPDEST PUSH2 0xE91 PUSH1 0x60 DUP4 ADD DUP5 PUSH2 0xD02 JUMP JUMPDEST SWAP6 SWAP5 POP POP POP POP POP JUMP JUMPDEST PUSH1 0x0 DUP2 MLOAD SWAP1 POP SWAP2 SWAP1 POP JUMP JUMPDEST PUSH1 0x0 DUP3 DUP3 MSTORE PUSH1 0x20 DUP3 ADD SWAP1 POP SWAP3 SWAP2 POP POP JUMP JUMPDEST PUSH1 0x0 PUSH2 0xEC1 DUP3 PUSH2 0xEE7 JUMP JUMPDEST SWAP1 POP SWAP2 SWAP1 POP JUMP JUMPDEST PUSH1 0x0 DUP2 ISZERO ISZERO SWAP1 POP SWAP2 SWAP1 POP JUMP JUMPDEST PUSH1 0x0 DUP2 SWAP1 POP PUSH2 0xEE2 DUP3 PUSH2 0x10EC JUMP JUMPDEST SWAP2 SWAP1 POP JUMP JUMPDEST PUSH1 0x0 PUSH20 0xFFFFFFFFFFFFFFFFFFFFFFFFFFFFFFFFFFFFFFFF DUP3 AND SWAP1 POP SWAP2 SWAP1 POP JUMP JUMPDEST PUSH1 0x0 DUP2 SWAP1 POP SWAP2 SWAP1 POP JUMP JUMPDEST PUSH1 0x0 PUSH2 0xF1C DUP3 PUSH2 0xED4 JUMP JUMPDEST SWAP1 POP SWAP2 SWAP1 POP JUMP JUMPDEST PUSH1 0x0 JUMPDEST DUP4 DUP2 LT ISZERO PUSH2 0xF41 JUMPI DUP1 DUP3 ADD MLOAD DUP2 DUP5 ADD MSTORE PUSH1 0x20 DUP2 ADD SWAP1 POP PUSH2 0xF26 JUMP JUMPDEST DUP4 DUP2 GT ISZERO PUSH2 0xF50 JUMPI PUSH1 0x0 DUP5 DUP5 ADD MSTORE JUMPDEST POP POP POP POP JUMP JUMPDEST PUSH1 0x0 PUSH1 0x2 DUP3 DIV SWAP1 POP PUSH1 0x1 DUP3 AND DUP1 PUSH2 0xF6E JUMPI PUSH1 0x7F DUP3 AND SWAP2 POP JUMPDEST PUSH1 0x20 DUP3 LT DUP2 EQ ISZERO PUSH2 0xF82 JUMPI PUSH2 0xF81 PUSH2 0x102F JUMP JUMPDEST JUMPDEST POP SWAP2 SWAP1 POP JUMP JUMPDEST PUSH1 0x0 PUSH2 0xF93 DUP3 PUSH2 0xF07 JUMP JUMPDEST SWAP2 POP PUSH32 0xFFFFFFFFFFFFFFFFFFFFFFFFFFFFFFFFFFFFFFFFFFFFFFFFFFFFFFFFFFFFFFFF DUP3 EQ ISZERO PUSH2 0xFC6 JUMPI PUSH2 0xFC5 PUSH2 0xFD1 JUMP JUMPDEST JUMPDEST PUSH1 0x1 DUP3 ADD SWAP1 POP SWAP2 SWAP1 POP JUMP JUMPDEST PUSH32 0x4E487B7100000000000000000000000000000000000000000000000000000000 PUSH1 0x0 MSTORE PUSH1 0x11 PUSH1 0x4 MSTORE PUSH1 0x24 PUSH1 0x0 REVERT JUMPDEST PUSH32 0x4E487B7100000000000000000000000000000000000000000000000000000000 PUSH1 0x0 MSTORE PUSH1 0x21 PUSH1 0x4 MSTORE PUSH1 0x24 PUSH1 0x0 REVERT JUMPDEST PUSH32 0x4E487B7100000000000000000000000000000000000000000000000000000000 PUSH1 0x0 MSTORE PUSH1 0x22 PUSH1 0x4 MSTORE PUSH1 0x24 PUSH1 0x0 REVERT JUMPDEST PUSH1 0x0 DUP1 REVERT JUMPDEST PUSH1 0x0 PUSH1 0x1F NOT PUSH1 0x1F DUP4 ADD AND SWAP1 POP SWAP2 SWAP1 POP JUMP JUMPDEST PUSH32 0x506C656173652070726F7669646520612076616C696420706F6C6C696E672073 PUSH1 0x0 DUP3 ADD MSTORE PUSH32 0x746174696F6E2049442E00000000000000000000000000000000000000000000 PUSH1 0x20 DUP3 ADD MSTORE POP JUMP JUMPDEST PUSH32 0x566F74657220697320616C726561647920726567697374657265642E00000000 PUSH1 0x0 DUP3 ADD MSTORE POP JUMP JUMPDEST PUSH1 0x3 DUP2 LT PUSH2 0x10FD JUMPI PUSH2 0x10FC PUSH2 0x1000 JUMP JUMPDEST JUMPDEST POP JUMP JUMPDEST PUSH2 0x1109 DUP2 PUSH2 0xEB6 JUMP JUMPDEST DUP2 EQ PUSH2 0x1114 JUMPI PUSH1 0x0 DUP1 REVERT JUMPDEST POP JUMP JUMPDEST PUSH2 0x1120 DUP2 PUSH2 0xF07 JUMP JUMPDEST DUP2 EQ PUSH2 0x112B JUMPI PUSH1 0x0 DUP1 REVERT JUMPDEST POP JUMP INVALID LOG2 PUSH5 0x6970667358 0x22 SLT KECCAK256 PUSH11 0x37CD9D30680BB2A5FF0E18 0xD9 0x23 DUP3 PUSH12 0x5310D3EBDD9D5142E099D740 PUSH8 0xD120F964736F6C63 NUMBER STOP ADDMOD SMOD STOP CALLER "
				},
				"gasEstimates": {
					"creation": {
						"codeDepositCost": "890400",
						"executionCost": "infinite",
						"totalCost": "infinite"
					},
					"external": {
						"addVoter(address,uint256)": "infinite",
						"candidates(uint256)": "infinite",
						"candidatesCount()": "2452",
						"castVote(uint256,uint256)": "infinite",
						"electionOwner()": "2534",
						"finalResult()": "2495",
						"pollingStationCount()": "2473",
						"pollingStations(uint256)": "infinite",
						"startVote()": "28903",
						"state()": "2582",
						"totalRegisteredVoters()": "2453",
						"totalVotes()": "2475",
						"voterRegistry(address)": "infinite",
						"voters(address)": "2890"
					},
					"internal": {
						"addCandidate(string memory)": "infinite",
						"addPollingStation(string memory)": "infinite",
						"initCandidates()": "infinite",
						"initPollingStations()": "infinite",
						"registerAtPollingStation(uint256)": "28818"
					}
				},
				"methodIdentifiers": {
					"addVoter(address,uint256)": "b9f05f2f",
					"candidates(uint256)": "3477ee2e",
					"candidatesCount()": "2d35a8a2",
					"castVote(uint256,uint256)": "2c0a3f89",
					"electionOwner()": "53357ad0",
					"finalResult()": "f3a8286f",
					"pollingStationCount()": "df9f1a07",
					"pollingStations(uint256)": "fe2442d7",
					"startVote()": "4c0a6af0",
					"state()": "c19d93fb",
					"totalRegisteredVoters()": "00aa7464",
					"totalVotes()": "0d15fd77",
					"voterRegistry(address)": "4763d4e7",
					"voters(address)": "a3ec138d"
				}
			},
			"storageLayout": {
				"storage": [
					{
						"astId": 30,
						"contract": "contracts/ergasia.sol:Election",
						"label": "electionOwner",
						"offset": 0,
						"slot": "0",
						"type": "t_address"
					},
					{
						"astId": 32,
						"contract": "contracts/ergasia.sol:Election",
						"label": "candidatesCount",
						"offset": 0,
						"slot": "1",
						"type": "t_uint256"
					},
					{
						"astId": 34,
						"contract": "contracts/ergasia.sol:Election",
						"label": "pollingStationCount",
						"offset": 0,
						"slot": "2",
						"type": "t_uint256"
					},
					{
						"astId": 36,
						"contract": "contracts/ergasia.sol:Election",
						"label": "totalRegisteredVoters",
						"offset": 0,
						"slot": "3",
						"type": "t_uint256"
					},
					{
						"astId": 39,
						"contract": "contracts/ergasia.sol:Election",
						"label": "countResult",
						"offset": 0,
						"slot": "4",
						"type": "t_uint256"
					},
					{
						"astId": 42,
						"contract": "contracts/ergasia.sol:Election",
						"label": "finalResult",
						"offset": 0,
						"slot": "5",
						"type": "t_uint256"
					},
					{
						"astId": 45,
						"contract": "contracts/ergasia.sol:Election",
						"label": "totalVotes",
						"offset": 0,
						"slot": "6",
						"type": "t_uint256"
					},
					{
						"astId": 50,
						"contract": "contracts/ergasia.sol:Election",
						"label": "candidates",
						"offset": 0,
						"slot": "7",
						"type": "t_mapping(t_uint256,t_struct(Candidate)8_storage)"
					},
					{
						"astId": 55,
						"contract": "contracts/ergasia.sol:Election",
						"label": "pollingStations",
						"offset": 0,
						"slot": "8",
						"type": "t_mapping(t_uint256,t_struct(PollingStation)17_storage)"
					},
					{
						"astId": 60,
						"contract": "contracts/ergasia.sol:Election",
						"label": "voterRegistry",
						"offset": 0,
						"slot": "9",
						"type": "t_mapping(t_address,t_struct(Voter)28_storage)"
					},
					{
						"astId": 64,
						"contract": "contracts/ergasia.sol:Election",
						"label": "voters",
						"offset": 0,
						"slot": "10",
						"type": "t_mapping(t_address,t_bool)"
					},
					{
						"astId": 71,
						"contract": "contracts/ergasia.sol:Election",
						"label": "state",
						"offset": 0,
						"slot": "11",
						"type": "t_enum(State)68"
					}
				],
				"types": {
					"t_address": {
						"encoding": "inplace",
						"label": "address",
						"numberOfBytes": "20"
					},
					"t_bool": {
						"encoding": "inplace",
						"label": "bool",
						"numberOfBytes": "1"
					},
					"t_enum(State)68": {
						"encoding": "inplace",
						"label": "enum Election.State",
						"numberOfBytes": "1"
					},
					"t_mapping(t_address,t_bool)": {
						"encoding": "mapping",
						"key": "t_address",
						"label": "mapping(address => bool)",
						"numberOfBytes": "32",
						"value": "t_bool"
					},
					"t_mapping(t_address,t_struct(Voter)28_storage)": {
						"encoding": "mapping",
						"key": "t_address",
						"label": "mapping(address => struct Election.Voter)",
						"numberOfBytes": "32",
						"value": "t_struct(Voter)28_storage"
					},
					"t_mapping(t_uint256,t_struct(Candidate)8_storage)": {
						"encoding": "mapping",
						"key": "t_uint256",
						"label": "mapping(uint256 => struct Election.Candidate)",
						"numberOfBytes": "32",
						"value": "t_struct(Candidate)8_storage"
					},
					"t_mapping(t_uint256,t_struct(PollingStation)17_storage)": {
						"encoding": "mapping",
						"key": "t_uint256",
						"label": "mapping(uint256 => struct Election.PollingStation)",
						"numberOfBytes": "32",
						"value": "t_struct(PollingStation)17_storage"
					},
					"t_string_storage": {
						"encoding": "bytes",
						"label": "string",
						"numberOfBytes": "32"
					},
					"t_struct(Candidate)8_storage": {
						"encoding": "inplace",
						"label": "struct Election.Candidate",
						"members": [
							{
								"astId": 3,
								"contract": "contracts/ergasia.sol:Election",
								"label": "id",
								"offset": 0,
								"slot": "0",
								"type": "t_uint256"
							},
							{
								"astId": 5,
								"contract": "contracts/ergasia.sol:Election",
								"label": "name",
								"offset": 0,
								"slot": "1",
								"type": "t_string_storage"
							},
							{
								"astId": 7,
								"contract": "contracts/ergasia.sol:Election",
								"label": "votes",
								"offset": 0,
								"slot": "2",
								"type": "t_uint256"
							}
						],
						"numberOfBytes": "96"
					},
					"t_struct(PollingStation)17_storage": {
						"encoding": "inplace",
						"label": "struct Election.PollingStation",
						"members": [
							{
								"astId": 10,
								"contract": "contracts/ergasia.sol:Election",
								"label": "id",
								"offset": 0,
								"slot": "0",
								"type": "t_uint256"
							},
							{
								"astId": 12,
								"contract": "contracts/ergasia.sol:Election",
								"label": "name",
								"offset": 0,
								"slot": "1",
								"type": "t_string_storage"
							},
							{
								"astId": 14,
								"contract": "contracts/ergasia.sol:Election",
								"label": "votersRegistered",
								"offset": 0,
								"slot": "2",
								"type": "t_uint256"
							},
							{
								"astId": 16,
								"contract": "contracts/ergasia.sol:Election",
								"label": "votesCasted",
								"offset": 0,
								"slot": "3",
								"type": "t_uint256"
							}
						],
						"numberOfBytes": "128"
					},
					"t_struct(Voter)28_storage": {
						"encoding": "inplace",
						"label": "struct Election.Voter",
						"members": [
							{
								"astId": 19,
								"contract": "contracts/ergasia.sol:Election",
								"label": "isEnrolled",
								"offset": 0,
								"slot": "0",
								"type": "t_bool"
							},
							{
								"astId": 21,
								"contract": "contracts/ergasia.sol:Election",
								"label": "hasVoted",
								"offset": 1,
								"slot": "0",
								"type": "t_bool"
							},
							{
								"astId": 23,
								"contract": "contracts/ergasia.sol:Election",
								"label": "choice",
								"offset": 0,
								"slot": "1",
								"type": "t_uint256"
							},
							{
								"astId": 25,
								"contract": "contracts/ergasia.sol:Election",
								"label": "enrolledPollingStationID",
								"offset": 0,
								"slot": "2",
								"type": "t_uint256"
							},
							{
								"astId": 27,
								"contract": "contracts/ergasia.sol:Election",
								"label": "votedPollingStationID",
								"offset": 0,
								"slot": "3",
								"type": "t_uint256"
							}
						],
						"numberOfBytes": "128"
					},
					"t_uint256": {
						"encoding": "inplace",
						"label": "uint256",
						"numberOfBytes": "32"
					}
				}
			},
			"userdoc": {
				"kind": "user",
				"methods": {},
				"version": 1
			}
		}
	}
}