{
	"contracts/ergasia.sol": {
		"Election": {
			"abi": [
				{
					"inputs": [],
					"stateMutability": "nonpayable",
					"type": "constructor"
				},
				{
					"inputs": [
						{
							"internalType": "uint256",
							"name": "",
							"type": "uint256"
						}
					],
					"name": "candidates",
					"outputs": [
						{
							"internalType": "uint256",
							"name": "id",
							"type": "uint256"
						},
						{
							"internalType": "string",
							"name": "name",
							"type": "string"
						},
						{
							"internalType": "uint256",
							"name": "voteCount",
							"type": "uint256"
						}
					],
					"stateMutability": "view",
					"type": "function"
				},
				{
					"inputs": [],
					"name": "candidatesCount",
					"outputs": [
						{
							"internalType": "uint256",
							"name": "",
							"type": "uint256"
						}
					],
					"stateMutability": "view",
					"type": "function"
				},
				{
					"inputs": [],
					"name": "electionOwner",
					"outputs": [
						{
							"internalType": "address",
							"name": "",
							"type": "address"
						}
					],
					"stateMutability": "view",
					"type": "function"
				},
				{
					"inputs": [
						{
							"internalType": "uint256",
							"name": "",
							"type": "uint256"
						}
					],
					"name": "pollingStations",
					"outputs": [
						{
							"internalType": "uint256",
							"name": "stationID",
							"type": "uint256"
						},
						{
							"internalType": "uint256",
							"name": "pplRegistered",
							"type": "uint256"
						},
						{
							"internalType": "uint256",
							"name": "votesCasted",
							"type": "uint256"
						}
					],
					"stateMutability": "view",
					"type": "function"
				},
				{
					"inputs": [],
					"name": "state",
					"outputs": [
						{
							"internalType": "enum Election.State",
							"name": "",
							"type": "uint8"
						}
					],
					"stateMutability": "view",
					"type": "function"
				}
			],
			"devdoc": {
				"kind": "dev",
				"methods": {},
				"version": 1
			},
			"evm": {
				"assembly": "    /* \"contracts/ergasia.sol\":70:6172  contract Election {... */\n  mstore(0x40, 0x80)\n    /* \"contracts/ergasia.sol\":1270:1272  10 */\n  0x0a\n    /* \"contracts/ergasia.sol\":1242:1272  uint numOfPollingStations = 10 */\n  0x02\n  sstore\n    /* \"contracts/ergasia.sol\":2151:2437  constructor() {... */\n  callvalue\n  dup1\n  iszero\n  tag_1\n  jumpi\n  0x00\n  dup1\n  revert\ntag_1:\n  pop\n    /* \"contracts/ergasia.sol\":2191:2201  msg.sender */\n  caller\n    /* \"contracts/ergasia.sol\":2175:2188  electionOwner */\n  0x00\n  dup1\n    /* \"contracts/ergasia.sol\":2175:2201  electionOwner = msg.sender */\n  0x0100\n  exp\n  dup2\n  sload\n  dup2\n  0xffffffffffffffffffffffffffffffffffffffff\n  mul\n  not\n  and\n  swap1\n  dup4\n  0xffffffffffffffffffffffffffffffffffffffff\n  and\n  mul\n  or\n  swap1\n  sstore\n  pop\n    /* \"contracts/ergasia.sol\":2250:2266  initCandidates() */\n  tag_4\n    /* \"contracts/ergasia.sol\":2250:2264  initCandidates */\n  shl(0x20, tag_5)\n    /* \"contracts/ergasia.sol\":2250:2266  initCandidates() */\n  0x20\n  shr\n  jump\t// in\ntag_4:\n    /* \"contracts/ergasia.sol\":2320:2361  initPollingStations(numOfPollingStations) */\n  tag_6\n    /* \"contracts/ergasia.sol\":2340:2360  numOfPollingStations */\n  sload(0x02)\n    /* \"contracts/ergasia.sol\":2320:2339  initPollingStations */\n  shl(0x20, tag_7)\n    /* \"contracts/ergasia.sol\":2320:2361  initPollingStations(numOfPollingStations) */\n  0x20\n  shr\n  jump\t// in\ntag_6:\n    /* \"contracts/ergasia.sol\":2415:2428  State.Created */\n  0x00\n    /* \"contracts/ergasia.sol\":2407:2412  state */\n  0x05\n  0x00\n    /* \"contracts/ergasia.sol\":2407:2428  state = State.Created */\n  0x0100\n  exp\n  dup2\n  sload\n  dup2\n  0xff\n  mul\n  not\n  and\n  swap1\n  dup4\n  0x02\n  dup2\n  gt\n  iszero\n  tag_8\n  jumpi\n  tag_9\n  tag_10\n  jump\t// in\ntag_9:\ntag_8:\n  mul\n  or\n  swap1\n  sstore\n  pop\n    /* \"contracts/ergasia.sol\":70:6172  contract Election {... */\n  jump(tag_11)\n    /* \"contracts/ergasia.sol\":2496:2723  function initCandidates() internal {... */\ntag_5:\n    /* \"contracts/ergasia.sol\":2541:2568  addCandidate(\"Candidate 1\") */\n  tag_13\n  mload(0x40)\n  dup1\n  0x40\n  add\n  0x40\n  mstore\n  dup1\n  0x0b\n  dup2\n  mstore\n  0x20\n  add\n  0x43616e6469646174652031000000000000000000000000000000000000000000\n  dup2\n  mstore\n  pop\n    /* \"contracts/ergasia.sol\":2541:2553  addCandidate */\n  shl(0x20, tag_14)\n    /* \"contracts/ergasia.sol\":2541:2568  addCandidate(\"Candidate 1\") */\n  0x20\n  shr\n  jump\t// in\ntag_13:\n    /* \"contracts/ergasia.sol\":2578:2605  addCandidate(\"Candidate 2\") */\n  tag_15\n  mload(0x40)\n  dup1\n  0x40\n  add\n  0x40\n  mstore\n  dup1\n  0x0b\n  dup2\n  mstore\n  0x20\n  add\n  0x43616e6469646174652032000000000000000000000000000000000000000000\n  dup2\n  mstore\n  pop\n    /* \"contracts/ergasia.sol\":2578:2590  addCandidate */\n  shl(0x20, tag_14)\n    /* \"contracts/ergasia.sol\":2578:2605  addCandidate(\"Candidate 2\") */\n  0x20\n  shr\n  jump\t// in\ntag_15:\n    /* \"contracts/ergasia.sol\":2615:2642  addCandidate(\"Candidate 3\") */\n  tag_16\n  mload(0x40)\n  dup1\n  0x40\n  add\n  0x40\n  mstore\n  dup1\n  0x0b\n  dup2\n  mstore\n  0x20\n  add\n  0x43616e6469646174652033000000000000000000000000000000000000000000\n  dup2\n  mstore\n  pop\n    /* \"contracts/ergasia.sol\":2615:2627  addCandidate */\n  shl(0x20, tag_14)\n    /* \"contracts/ergasia.sol\":2615:2642  addCandidate(\"Candidate 3\") */\n  0x20\n  shr\n  jump\t// in\ntag_16:\n    /* \"contracts/ergasia.sol\":2652:2679  addCandidate(\"Candidate 4\") */\n  tag_17\n  mload(0x40)\n  dup1\n  0x40\n  add\n  0x40\n  mstore\n  dup1\n  0x0b\n  dup2\n  mstore\n  0x20\n  add\n  0x43616e6469646174652034000000000000000000000000000000000000000000\n  dup2\n  mstore\n  pop\n    /* \"contracts/ergasia.sol\":2652:2664  addCandidate */\n  shl(0x20, tag_14)\n    /* \"contracts/ergasia.sol\":2652:2679  addCandidate(\"Candidate 4\") */\n  0x20\n  shr\n  jump\t// in\ntag_17:\n    /* \"contracts/ergasia.sol\":2689:2716  addCandidate(\"Candidate 5\") */\n  tag_18\n  mload(0x40)\n  dup1\n  0x40\n  add\n  0x40\n  mstore\n  dup1\n  0x0b\n  dup2\n  mstore\n  0x20\n  add\n  0x43616e6469646174652035000000000000000000000000000000000000000000\n  dup2\n  mstore\n  pop\n    /* \"contracts/ergasia.sol\":2689:2701  addCandidate */\n  shl(0x20, tag_14)\n    /* \"contracts/ergasia.sol\":2689:2716  addCandidate(\"Candidate 5\") */\n  0x20\n  shr\n  jump\t// in\ntag_18:\n    /* \"contracts/ergasia.sol\":2496:2723  function initCandidates() internal {... */\n  jump\t// out\n    /* \"contracts/ergasia.sol\":3123:3274  function initPollingStations(uint amount) internal {... */\ntag_7:\n    /* \"contracts/ergasia.sol\":3189:3195  uint i */\n  0x00\n    /* \"contracts/ergasia.sol\":3184:3268  for (uint i = 0; i < amount; i++) {... */\ntag_20:\n    /* \"contracts/ergasia.sol\":3205:3211  amount */\n  dup2\n    /* \"contracts/ergasia.sol\":3201:3202  i */\n  dup2\n    /* \"contracts/ergasia.sol\":3201:3211  i < amount */\n  lt\n    /* \"contracts/ergasia.sol\":3184:3268  for (uint i = 0; i < amount; i++) {... */\n  iszero\n  tag_21\n  jumpi\n    /* \"contracts/ergasia.sol\":3232:3257  addPollingStation(i, i+1) */\n  tag_23\n    /* \"contracts/ergasia.sol\":3250:3251  i */\n  dup2\n    /* \"contracts/ergasia.sol\":3255:3256  1 */\n  0x01\n    /* \"contracts/ergasia.sol\":3253:3254  i */\n  dup4\n    /* \"contracts/ergasia.sol\":3253:3256  i+1 */\n  tag_24\n  swap2\n  swap1\n  tag_25\n  jump\t// in\ntag_24:\n    /* \"contracts/ergasia.sol\":3232:3249  addPollingStation */\n  shl(0x20, tag_26)\n    /* \"contracts/ergasia.sol\":3232:3257  addPollingStation(i, i+1) */\n  0x20\n  shr\n  jump\t// in\ntag_23:\n    /* \"contracts/ergasia.sol\":3213:3216  i++ */\n  dup1\n  dup1\n  tag_27\n  swap1\n  tag_28\n  jump\t// in\ntag_27:\n  swap2\n  pop\n  pop\n    /* \"contracts/ergasia.sol\":3184:3268  for (uint i = 0; i < amount; i++) {... */\n  jump(tag_20)\ntag_21:\n  pop\n    /* \"contracts/ergasia.sol\":3123:3274  function initPollingStations(uint amount) internal {... */\n  pop\n  jump\t// out\n    /* \"contracts/ergasia.sol\":2843:3005  function addCandidate (string memory _name) private {... */\ntag_14:\n    /* \"contracts/ergasia.sol\":2905:2920  candidatesCount */\n  0x01\n  0x00\n    /* \"contracts/ergasia.sol\":2905:2922  candidatesCount++ */\n  dup2\n  sload\n  dup1\n  swap3\n  swap2\n  swap1\n  tag_30\n  swap1\n  tag_28\n  jump\t// in\ntag_30:\n  swap2\n  swap1\n  pop\n  sstore\n  pop\n    /* \"contracts/ergasia.sol\":2962:2998  Candidate(candidatesCount, _name, 0) */\n  mload(0x40)\n  dup1\n  0x60\n  add\n  0x40\n  mstore\n  dup1\n    /* \"contracts/ergasia.sol\":2972:2987  candidatesCount */\n  sload(0x01)\n    /* \"contracts/ergasia.sol\":2962:2998  Candidate(candidatesCount, _name, 0) */\n  dup2\n  mstore\n  0x20\n  add\n    /* \"contracts/ergasia.sol\":2989:2994  _name */\n  dup3\n    /* \"contracts/ergasia.sol\":2962:2998  Candidate(candidatesCount, _name, 0) */\n  dup2\n  mstore\n  0x20\n  add\n    /* \"contracts/ergasia.sol\":2996:2997  0 */\n  0x00\n    /* \"contracts/ergasia.sol\":2962:2998  Candidate(candidatesCount, _name, 0) */\n  dup2\n  mstore\n  pop\n    /* \"contracts/ergasia.sol\":2932:2942  candidates */\n  0x03\n    /* \"contracts/ergasia.sol\":2932:2959  candidates[candidatesCount] */\n  0x00\n    /* \"contracts/ergasia.sol\":2943:2958  candidatesCount */\n  sload(0x01)\n    /* \"contracts/ergasia.sol\":2932:2959  candidates[candidatesCount] */\n  dup2\n  mstore\n  0x20\n  add\n  swap1\n  dup2\n  mstore\n  0x20\n  add\n  0x00\n  keccak256\n    /* \"contracts/ergasia.sol\":2932:2998  candidates[candidatesCount] = Candidate(candidatesCount, _name, 0) */\n  0x00\n  dup3\n  add\n  mload\n  dup2\n  0x00\n  add\n  sstore\n  0x20\n  dup3\n  add\n  mload\n  dup2\n  0x01\n  add\n  swap1\n  dup1\n  mload\n  swap1\n  0x20\n  add\n  swap1\n  tag_31\n  swap3\n  swap2\n  swap1\n  tag_32\n  jump\t// in\ntag_31:\n  pop\n  0x40\n  dup3\n  add\n  mload\n  dup2\n  0x02\n  add\n  sstore\n  swap1\n  pop\n  pop\n    /* \"contracts/ergasia.sol\":2843:3005  function addCandidate (string memory _name) private {... */\n  pop\n  jump\t// out\n    /* \"contracts/ergasia.sol\":3446:3585  function addPollingStation (uint index, uint _stationID) private {... */\ntag_26:\n    /* \"contracts/ergasia.sol\":3546:3578  PollingStation(_stationID, 0, 0) */\n  mload(0x40)\n  dup1\n  0x60\n  add\n  0x40\n  mstore\n  dup1\n    /* \"contracts/ergasia.sol\":3561:3571  _stationID */\n  dup3\n    /* \"contracts/ergasia.sol\":3546:3578  PollingStation(_stationID, 0, 0) */\n  dup2\n  mstore\n  0x20\n  add\n    /* \"contracts/ergasia.sol\":3573:3574  0 */\n  0x00\n    /* \"contracts/ergasia.sol\":3546:3578  PollingStation(_stationID, 0, 0) */\n  dup2\n  mstore\n  0x20\n  add\n    /* \"contracts/ergasia.sol\":3576:3577  0 */\n  0x00\n    /* \"contracts/ergasia.sol\":3546:3578  PollingStation(_stationID, 0, 0) */\n  dup2\n  mstore\n  pop\n    /* \"contracts/ergasia.sol\":3521:3536  pollingStations */\n  0x04\n    /* \"contracts/ergasia.sol\":3521:3543  pollingStations[index] */\n  0x00\n    /* \"contracts/ergasia.sol\":3537:3542  index */\n  dup5\n    /* \"contracts/ergasia.sol\":3521:3543  pollingStations[index] */\n  dup2\n  mstore\n  0x20\n  add\n  swap1\n  dup2\n  mstore\n  0x20\n  add\n  0x00\n  keccak256\n    /* \"contracts/ergasia.sol\":3521:3578  pollingStations[index] = PollingStation(_stationID, 0, 0) */\n  0x00\n  dup3\n  add\n  mload\n  dup2\n  0x00\n  add\n  sstore\n  0x20\n  dup3\n  add\n  mload\n  dup2\n  0x01\n  add\n  sstore\n  0x40\n  dup3\n  add\n  mload\n  dup2\n  0x02\n  add\n  sstore\n  swap1\n  pop\n  pop\n    /* \"contracts/ergasia.sol\":3446:3585  function addPollingStation (uint index, uint _stationID) private {... */\n  pop\n  pop\n  jump\t// out\n    /* \"contracts/ergasia.sol\":70:6172  contract Election {... */\ntag_32:\n  dup3\n  dup1\n  sload\n  tag_34\n  swap1\n  tag_35\n  jump\t// in\ntag_34:\n  swap1\n  0x00\n  mstore\n  keccak256(0x00, 0x20)\n  swap1\n  0x1f\n  add\n  0x20\n  swap1\n  div\n  dup2\n  add\n  swap3\n  dup3\n  tag_37\n  jumpi\n  0x00\n  dup6\n  sstore\n  jump(tag_36)\ntag_37:\n  dup3\n  0x1f\n  lt\n  tag_38\n  jumpi\n  dup1\n  mload\n  not(0xff)\n  and\n  dup4\n  dup1\n  add\n  or\n  dup6\n  sstore\n  jump(tag_36)\ntag_38:\n  dup3\n  dup1\n  add\n  0x01\n  add\n  dup6\n  sstore\n  dup3\n  iszero\n  tag_36\n  jumpi\n  swap2\n  dup3\n  add\ntag_39:\n  dup3\n  dup2\n  gt\n  iszero\n  tag_40\n  jumpi\n  dup3\n  mload\n  dup3\n  sstore\n  swap2\n  0x20\n  add\n  swap2\n  swap1\n  0x01\n  add\n  swap1\n  jump(tag_39)\ntag_40:\ntag_36:\n  pop\n  swap1\n  pop\n  tag_41\n  swap2\n  swap1\n  tag_42\n  jump\t// in\ntag_41:\n  pop\n  swap1\n  jump\t// out\ntag_42:\ntag_43:\n  dup1\n  dup3\n  gt\n  iszero\n  tag_44\n  jumpi\n  0x00\n  dup2\n  0x00\n  swap1\n  sstore\n  pop\n  0x01\n  add\n  jump(tag_43)\ntag_44:\n  pop\n  swap1\n  jump\t// out\n    /* \"#utility.yul\":7:312   */\ntag_25:\n    /* \"#utility.yul\":47:50   */\n  0x00\n    /* \"#utility.yul\":66:86   */\n  tag_47\n    /* \"#utility.yul\":84:85   */\n  dup3\n    /* \"#utility.yul\":66:86   */\n  tag_48\n  jump\t// in\ntag_47:\n    /* \"#utility.yul\":61:86   */\n  swap2\n  pop\n    /* \"#utility.yul\":100:120   */\n  tag_49\n    /* \"#utility.yul\":118:119   */\n  dup4\n    /* \"#utility.yul\":100:120   */\n  tag_48\n  jump\t// in\ntag_49:\n    /* \"#utility.yul\":95:120   */\n  swap3\n  pop\n    /* \"#utility.yul\":254:255   */\n  dup3\n    /* \"#utility.yul\":186:252   */\n  0xffffffffffffffffffffffffffffffffffffffffffffffffffffffffffffffff\n    /* \"#utility.yul\":182:256   */\n  sub\n    /* \"#utility.yul\":179:180   */\n  dup3\n    /* \"#utility.yul\":176:257   */\n  gt\n    /* \"#utility.yul\":173:280   */\n  iszero\n  tag_50\n  jumpi\n    /* \"#utility.yul\":260:278   */\n  tag_51\n  tag_52\n  jump\t// in\ntag_51:\n    /* \"#utility.yul\":173:280   */\ntag_50:\n    /* \"#utility.yul\":304:305   */\n  dup3\n    /* \"#utility.yul\":301:302   */\n  dup3\n    /* \"#utility.yul\":297:306   */\n  add\n    /* \"#utility.yul\":290:306   */\n  swap1\n  pop\n    /* \"#utility.yul\":7:312   */\n  swap3\n  swap2\n  pop\n  pop\n  jump\t// out\n    /* \"#utility.yul\":318:395   */\ntag_48:\n    /* \"#utility.yul\":355:362   */\n  0x00\n    /* \"#utility.yul\":384:389   */\n  dup2\n    /* \"#utility.yul\":373:389   */\n  swap1\n  pop\n    /* \"#utility.yul\":318:395   */\n  swap2\n  swap1\n  pop\n  jump\t// out\n    /* \"#utility.yul\":401:721   */\ntag_35:\n    /* \"#utility.yul\":445:451   */\n  0x00\n    /* \"#utility.yul\":482:483   */\n  0x02\n    /* \"#utility.yul\":476:480   */\n  dup3\n    /* \"#utility.yul\":472:484   */\n  div\n    /* \"#utility.yul\":462:484   */\n  swap1\n  pop\n    /* \"#utility.yul\":529:530   */\n  0x01\n    /* \"#utility.yul\":523:527   */\n  dup3\n    /* \"#utility.yul\":519:531   */\n  and\n    /* \"#utility.yul\":550:568   */\n  dup1\n    /* \"#utility.yul\":540:621   */\n  tag_55\n  jumpi\n    /* \"#utility.yul\":606:610   */\n  0x7f\n    /* \"#utility.yul\":598:604   */\n  dup3\n    /* \"#utility.yul\":594:611   */\n  and\n    /* \"#utility.yul\":584:611   */\n  swap2\n  pop\n    /* \"#utility.yul\":540:621   */\ntag_55:\n    /* \"#utility.yul\":668:670   */\n  0x20\n    /* \"#utility.yul\":660:666   */\n  dup3\n    /* \"#utility.yul\":657:671   */\n  lt\n    /* \"#utility.yul\":637:655   */\n  dup2\n    /* \"#utility.yul\":634:672   */\n  eq\n    /* \"#utility.yul\":631:715   */\n  iszero\n  tag_56\n  jumpi\n    /* \"#utility.yul\":687:705   */\n  tag_57\n  tag_58\n  jump\t// in\ntag_57:\n    /* \"#utility.yul\":631:715   */\ntag_56:\n    /* \"#utility.yul\":452:721   */\n  pop\n    /* \"#utility.yul\":401:721   */\n  swap2\n  swap1\n  pop\n  jump\t// out\n    /* \"#utility.yul\":727:960   */\ntag_28:\n    /* \"#utility.yul\":766:769   */\n  0x00\n    /* \"#utility.yul\":789:813   */\n  tag_60\n    /* \"#utility.yul\":807:812   */\n  dup3\n    /* \"#utility.yul\":789:813   */\n  tag_48\n  jump\t// in\ntag_60:\n    /* \"#utility.yul\":780:813   */\n  swap2\n  pop\n    /* \"#utility.yul\":835:901   */\n  0xffffffffffffffffffffffffffffffffffffffffffffffffffffffffffffffff\n    /* \"#utility.yul\":828:833   */\n  dup3\n    /* \"#utility.yul\":825:902   */\n  eq\n    /* \"#utility.yul\":822:925   */\n  iszero\n  tag_61\n  jumpi\n    /* \"#utility.yul\":905:923   */\n  tag_62\n  tag_52\n  jump\t// in\ntag_62:\n    /* \"#utility.yul\":822:925   */\ntag_61:\n    /* \"#utility.yul\":952:953   */\n  0x01\n    /* \"#utility.yul\":945:950   */\n  dup3\n    /* \"#utility.yul\":941:954   */\n  add\n    /* \"#utility.yul\":934:954   */\n  swap1\n  pop\n    /* \"#utility.yul\":727:960   */\n  swap2\n  swap1\n  pop\n  jump\t// out\n    /* \"#utility.yul\":966:1146   */\ntag_52:\n    /* \"#utility.yul\":1014:1091   */\n  0x4e487b7100000000000000000000000000000000000000000000000000000000\n    /* \"#utility.yul\":1011:1012   */\n  0x00\n    /* \"#utility.yul\":1004:1092   */\n  mstore\n    /* \"#utility.yul\":1111:1115   */\n  0x11\n    /* \"#utility.yul\":1108:1109   */\n  0x04\n    /* \"#utility.yul\":1101:1116   */\n  mstore\n    /* \"#utility.yul\":1135:1139   */\n  0x24\n    /* \"#utility.yul\":1132:1133   */\n  0x00\n    /* \"#utility.yul\":1125:1140   */\n  revert\n    /* \"#utility.yul\":1152:1332   */\ntag_10:\n    /* \"#utility.yul\":1200:1277   */\n  0x4e487b7100000000000000000000000000000000000000000000000000000000\n    /* \"#utility.yul\":1197:1198   */\n  0x00\n    /* \"#utility.yul\":1190:1278   */\n  mstore\n    /* \"#utility.yul\":1297:1301   */\n  0x21\n    /* \"#utility.yul\":1294:1295   */\n  0x04\n    /* \"#utility.yul\":1287:1302   */\n  mstore\n    /* \"#utility.yul\":1321:1325   */\n  0x24\n    /* \"#utility.yul\":1318:1319   */\n  0x00\n    /* \"#utility.yul\":1311:1326   */\n  revert\n    /* \"#utility.yul\":1338:1518   */\ntag_58:\n    /* \"#utility.yul\":1386:1463   */\n  0x4e487b7100000000000000000000000000000000000000000000000000000000\n    /* \"#utility.yul\":1383:1384   */\n  0x00\n    /* \"#utility.yul\":1376:1464   */\n  mstore\n    /* \"#utility.yul\":1483:1487   */\n  0x22\n    /* \"#utility.yul\":1480:1481   */\n  0x04\n    /* \"#utility.yul\":1473:1488   */\n  mstore\n    /* \"#utility.yul\":1507:1511   */\n  0x24\n    /* \"#utility.yul\":1504:1505   */\n  0x00\n    /* \"#utility.yul\":1497:1512   */\n  revert\n    /* \"contracts/ergasia.sol\":70:6172  contract Election {... */\ntag_11:\n  dataSize(sub_0)\n  dup1\n  dataOffset(sub_0)\n  0x00\n  codecopy\n  0x00\n  return\nstop\n\nsub_0: assembly {\n        /* \"contracts/ergasia.sol\":70:6172  contract Election {... */\n      mstore(0x40, 0x80)\n      callvalue\n      dup1\n      iszero\n      tag_1\n      jumpi\n      0x00\n      dup1\n      revert\n    tag_1:\n      pop\n      jumpi(tag_2, lt(calldatasize, 0x04))\n      shr(0xe0, calldataload(0x00))\n      dup1\n      0x2d35a8a2\n      eq\n      tag_3\n      jumpi\n      dup1\n      0x3477ee2e\n      eq\n      tag_4\n      jumpi\n      dup1\n      0x53357ad0\n      eq\n      tag_5\n      jumpi\n      dup1\n      0xc19d93fb\n      eq\n      tag_6\n      jumpi\n      dup1\n      0xfe2442d7\n      eq\n      tag_7\n      jumpi\n    tag_2:\n      0x00\n      dup1\n      revert\n        /* \"contracts/ergasia.sol\":1171:1198  uint public candidatesCount */\n    tag_3:\n      tag_8\n      tag_9\n      jump\t// in\n    tag_8:\n      mload(0x40)\n      tag_10\n      swap2\n      swap1\n      tag_11\n      jump\t// in\n    tag_10:\n      mload(0x40)\n      dup1\n      swap2\n      sub\n      swap1\n      return\n        /* \"contracts/ergasia.sol\":1643:1687  mapping(uint => Candidate) public candidates */\n    tag_4:\n      tag_12\n      0x04\n      dup1\n      calldatasize\n      sub\n      dup2\n      add\n      swap1\n      tag_13\n      swap2\n      swap1\n      tag_14\n      jump\t// in\n    tag_13:\n      tag_15\n      jump\t// in\n    tag_12:\n      mload(0x40)\n      tag_16\n      swap4\n      swap3\n      swap2\n      swap1\n      tag_17\n      jump\t// in\n    tag_16:\n      mload(0x40)\n      dup1\n      swap2\n      sub\n      swap1\n      return\n        /* \"contracts/ergasia.sol\":1137:1165  address public electionOwner */\n    tag_5:\n      tag_18\n      tag_19\n      jump\t// in\n    tag_18:\n      mload(0x40)\n      tag_20\n      swap2\n      swap1\n      tag_21\n      jump\t// in\n    tag_20:\n      mload(0x40)\n      dup1\n      swap2\n      sub\n      swap1\n      return\n        /* \"contracts/ergasia.sol\":1950:1968  State public state */\n    tag_6:\n      tag_22\n      tag_23\n      jump\t// in\n    tag_22:\n      mload(0x40)\n      tag_24\n      swap2\n      swap1\n      tag_25\n      jump\t// in\n    tag_24:\n      mload(0x40)\n      dup1\n      swap2\n      sub\n      swap1\n      return\n        /* \"contracts/ergasia.sol\":1717:1771  mapping(uint => PollingStation) public pollingStations */\n    tag_7:\n      tag_26\n      0x04\n      dup1\n      calldatasize\n      sub\n      dup2\n      add\n      swap1\n      tag_27\n      swap2\n      swap1\n      tag_14\n      jump\t// in\n    tag_27:\n      tag_28\n      jump\t// in\n    tag_26:\n      mload(0x40)\n      tag_29\n      swap4\n      swap3\n      swap2\n      swap1\n      tag_30\n      jump\t// in\n    tag_29:\n      mload(0x40)\n      dup1\n      swap2\n      sub\n      swap1\n      return\n        /* \"contracts/ergasia.sol\":1171:1198  uint public candidatesCount */\n    tag_9:\n      sload(0x01)\n      dup2\n      jump\t// out\n        /* \"contracts/ergasia.sol\":1643:1687  mapping(uint => Candidate) public candidates */\n    tag_15:\n      mstore(0x20, 0x03)\n      dup1\n      0x00\n      mstore\n      keccak256(0x00, 0x40)\n      0x00\n      swap2\n      pop\n      swap1\n      pop\n      dup1\n      0x00\n      add\n      sload\n      swap1\n      dup1\n      0x01\n      add\n      dup1\n      sload\n      tag_31\n      swap1\n      tag_32\n      jump\t// in\n    tag_31:\n      dup1\n      0x1f\n      add\n      0x20\n      dup1\n      swap2\n      div\n      mul\n      0x20\n      add\n      mload(0x40)\n      swap1\n      dup2\n      add\n      0x40\n      mstore\n      dup1\n      swap3\n      swap2\n      swap1\n      dup2\n      dup2\n      mstore\n      0x20\n      add\n      dup3\n      dup1\n      sload\n      tag_33\n      swap1\n      tag_32\n      jump\t// in\n    tag_33:\n      dup1\n      iszero\n      tag_34\n      jumpi\n      dup1\n      0x1f\n      lt\n      tag_35\n      jumpi\n      0x0100\n      dup1\n      dup4\n      sload\n      div\n      mul\n      dup4\n      mstore\n      swap2\n      0x20\n      add\n      swap2\n      jump(tag_34)\n    tag_35:\n      dup3\n      add\n      swap2\n      swap1\n      0x00\n      mstore\n      keccak256(0x00, 0x20)\n      swap1\n    tag_36:\n      dup2\n      sload\n      dup2\n      mstore\n      swap1\n      0x01\n      add\n      swap1\n      0x20\n      add\n      dup1\n      dup4\n      gt\n      tag_36\n      jumpi\n      dup3\n      swap1\n      sub\n      0x1f\n      and\n      dup3\n      add\n      swap2\n    tag_34:\n      pop\n      pop\n      pop\n      pop\n      pop\n      swap1\n      dup1\n      0x02\n      add\n      sload\n      swap1\n      pop\n      dup4\n      jump\t// out\n        /* \"contracts/ergasia.sol\":1137:1165  address public electionOwner */\n    tag_19:\n      0x00\n      dup1\n      sload\n      swap1\n      0x0100\n      exp\n      swap1\n      div\n      0xffffffffffffffffffffffffffffffffffffffff\n      and\n      dup2\n      jump\t// out\n        /* \"contracts/ergasia.sol\":1950:1968  State public state */\n    tag_23:\n      0x05\n      0x00\n      swap1\n      sload\n      swap1\n      0x0100\n      exp\n      swap1\n      div\n      0xff\n      and\n      dup2\n      jump\t// out\n        /* \"contracts/ergasia.sol\":1717:1771  mapping(uint => PollingStation) public pollingStations */\n    tag_28:\n      mstore(0x20, 0x04)\n      dup1\n      0x00\n      mstore\n      keccak256(0x00, 0x40)\n      0x00\n      swap2\n      pop\n      swap1\n      pop\n      dup1\n      0x00\n      add\n      sload\n      swap1\n      dup1\n      0x01\n      add\n      sload\n      swap1\n      dup1\n      0x02\n      add\n      sload\n      swap1\n      pop\n      dup4\n      jump\t// out\n        /* \"#utility.yul\":7:146   */\n    tag_38:\n        /* \"#utility.yul\":53:58   */\n      0x00\n        /* \"#utility.yul\":91:97   */\n      dup2\n        /* \"#utility.yul\":78:98   */\n      calldataload\n        /* \"#utility.yul\":69:98   */\n      swap1\n      pop\n        /* \"#utility.yul\":107:140   */\n      tag_40\n        /* \"#utility.yul\":134:139   */\n      dup2\n        /* \"#utility.yul\":107:140   */\n      tag_41\n      jump\t// in\n    tag_40:\n        /* \"#utility.yul\":7:146   */\n      swap3\n      swap2\n      pop\n      pop\n      jump\t// out\n        /* \"#utility.yul\":152:481   */\n    tag_14:\n        /* \"#utility.yul\":211:217   */\n      0x00\n        /* \"#utility.yul\":260:262   */\n      0x20\n        /* \"#utility.yul\":248:257   */\n      dup3\n        /* \"#utility.yul\":239:246   */\n      dup5\n        /* \"#utility.yul\":235:258   */\n      sub\n        /* \"#utility.yul\":231:263   */\n      slt\n        /* \"#utility.yul\":228:347   */\n      iszero\n      tag_43\n      jumpi\n        /* \"#utility.yul\":266:345   */\n      tag_44\n      tag_45\n      jump\t// in\n    tag_44:\n        /* \"#utility.yul\":228:347   */\n    tag_43:\n        /* \"#utility.yul\":386:387   */\n      0x00\n        /* \"#utility.yul\":411:464   */\n      tag_46\n        /* \"#utility.yul\":456:463   */\n      dup5\n        /* \"#utility.yul\":447:453   */\n      dup3\n        /* \"#utility.yul\":436:445   */\n      dup6\n        /* \"#utility.yul\":432:454   */\n      add\n        /* \"#utility.yul\":411:464   */\n      tag_38\n      jump\t// in\n    tag_46:\n        /* \"#utility.yul\":401:464   */\n      swap2\n      pop\n        /* \"#utility.yul\":357:474   */\n      pop\n        /* \"#utility.yul\":152:481   */\n      swap3\n      swap2\n      pop\n      pop\n      jump\t// out\n        /* \"#utility.yul\":487:605   */\n    tag_47:\n        /* \"#utility.yul\":574:598   */\n      tag_49\n        /* \"#utility.yul\":592:597   */\n      dup2\n        /* \"#utility.yul\":574:598   */\n      tag_50\n      jump\t// in\n    tag_49:\n        /* \"#utility.yul\":569:572   */\n      dup3\n        /* \"#utility.yul\":562:599   */\n      mstore\n        /* \"#utility.yul\":487:605   */\n      pop\n      pop\n      jump\t// out\n        /* \"#utility.yul\":611:754   */\n    tag_51:\n        /* \"#utility.yul\":704:747   */\n      tag_53\n        /* \"#utility.yul\":741:746   */\n      dup2\n        /* \"#utility.yul\":704:747   */\n      tag_54\n      jump\t// in\n    tag_53:\n        /* \"#utility.yul\":699:702   */\n      dup3\n        /* \"#utility.yul\":692:748   */\n      mstore\n        /* \"#utility.yul\":611:754   */\n      pop\n      pop\n      jump\t// out\n        /* \"#utility.yul\":760:1124   */\n    tag_55:\n        /* \"#utility.yul\":848:851   */\n      0x00\n        /* \"#utility.yul\":876:915   */\n      tag_57\n        /* \"#utility.yul\":909:914   */\n      dup3\n        /* \"#utility.yul\":876:915   */\n      tag_58\n      jump\t// in\n    tag_57:\n        /* \"#utility.yul\":931:1002   */\n      tag_59\n        /* \"#utility.yul\":995:1001   */\n      dup2\n        /* \"#utility.yul\":990:993   */\n      dup6\n        /* \"#utility.yul\":931:1002   */\n      tag_60\n      jump\t// in\n    tag_59:\n        /* \"#utility.yul\":924:1002   */\n      swap4\n      pop\n        /* \"#utility.yul\":1011:1063   */\n      tag_61\n        /* \"#utility.yul\":1056:1062   */\n      dup2\n        /* \"#utility.yul\":1051:1054   */\n      dup6\n        /* \"#utility.yul\":1044:1048   */\n      0x20\n        /* \"#utility.yul\":1037:1042   */\n      dup7\n        /* \"#utility.yul\":1033:1049   */\n      add\n        /* \"#utility.yul\":1011:1063   */\n      tag_62\n      jump\t// in\n    tag_61:\n        /* \"#utility.yul\":1088:1117   */\n      tag_63\n        /* \"#utility.yul\":1110:1116   */\n      dup2\n        /* \"#utility.yul\":1088:1117   */\n      tag_64\n      jump\t// in\n    tag_63:\n        /* \"#utility.yul\":1083:1086   */\n      dup5\n        /* \"#utility.yul\":1079:1118   */\n      add\n        /* \"#utility.yul\":1072:1118   */\n      swap2\n      pop\n        /* \"#utility.yul\":852:1124   */\n      pop\n        /* \"#utility.yul\":760:1124   */\n      swap3\n      swap2\n      pop\n      pop\n      jump\t// out\n        /* \"#utility.yul\":1130:1248   */\n    tag_65:\n        /* \"#utility.yul\":1217:1241   */\n      tag_67\n        /* \"#utility.yul\":1235:1240   */\n      dup2\n        /* \"#utility.yul\":1217:1241   */\n      tag_68\n      jump\t// in\n    tag_67:\n        /* \"#utility.yul\":1212:1215   */\n      dup3\n        /* \"#utility.yul\":1205:1242   */\n      mstore\n        /* \"#utility.yul\":1130:1248   */\n      pop\n      pop\n      jump\t// out\n        /* \"#utility.yul\":1254:1476   */\n    tag_21:\n        /* \"#utility.yul\":1347:1351   */\n      0x00\n        /* \"#utility.yul\":1385:1387   */\n      0x20\n        /* \"#utility.yul\":1374:1383   */\n      dup3\n        /* \"#utility.yul\":1370:1388   */\n      add\n        /* \"#utility.yul\":1362:1388   */\n      swap1\n      pop\n        /* \"#utility.yul\":1398:1469   */\n      tag_70\n        /* \"#utility.yul\":1466:1467   */\n      0x00\n        /* \"#utility.yul\":1455:1464   */\n      dup4\n        /* \"#utility.yul\":1451:1468   */\n      add\n        /* \"#utility.yul\":1442:1448   */\n      dup5\n        /* \"#utility.yul\":1398:1469   */\n      tag_47\n      jump\t// in\n    tag_70:\n        /* \"#utility.yul\":1254:1476   */\n      swap3\n      swap2\n      pop\n      pop\n      jump\t// out\n        /* \"#utility.yul\":1482:1716   */\n    tag_25:\n        /* \"#utility.yul\":1581:1585   */\n      0x00\n        /* \"#utility.yul\":1619:1621   */\n      0x20\n        /* \"#utility.yul\":1608:1617   */\n      dup3\n        /* \"#utility.yul\":1604:1622   */\n      add\n        /* \"#utility.yul\":1596:1622   */\n      swap1\n      pop\n        /* \"#utility.yul\":1632:1709   */\n      tag_72\n        /* \"#utility.yul\":1706:1707   */\n      0x00\n        /* \"#utility.yul\":1695:1704   */\n      dup4\n        /* \"#utility.yul\":1691:1708   */\n      add\n        /* \"#utility.yul\":1682:1688   */\n      dup5\n        /* \"#utility.yul\":1632:1709   */\n      tag_51\n      jump\t// in\n    tag_72:\n        /* \"#utility.yul\":1482:1716   */\n      swap3\n      swap2\n      pop\n      pop\n      jump\t// out\n        /* \"#utility.yul\":1722:1944   */\n    tag_11:\n        /* \"#utility.yul\":1815:1819   */\n      0x00\n        /* \"#utility.yul\":1853:1855   */\n      0x20\n        /* \"#utility.yul\":1842:1851   */\n      dup3\n        /* \"#utility.yul\":1838:1856   */\n      add\n        /* \"#utility.yul\":1830:1856   */\n      swap1\n      pop\n        /* \"#utility.yul\":1866:1937   */\n      tag_74\n        /* \"#utility.yul\":1934:1935   */\n      0x00\n        /* \"#utility.yul\":1923:1932   */\n      dup4\n        /* \"#utility.yul\":1919:1936   */\n      add\n        /* \"#utility.yul\":1910:1916   */\n      dup5\n        /* \"#utility.yul\":1866:1937   */\n      tag_65\n      jump\t// in\n    tag_74:\n        /* \"#utility.yul\":1722:1944   */\n      swap3\n      swap2\n      pop\n      pop\n      jump\t// out\n        /* \"#utility.yul\":1950:2483   */\n    tag_17:\n        /* \"#utility.yul\":2119:2123   */\n      0x00\n        /* \"#utility.yul\":2157:2159   */\n      0x60\n        /* \"#utility.yul\":2146:2155   */\n      dup3\n        /* \"#utility.yul\":2142:2160   */\n      add\n        /* \"#utility.yul\":2134:2160   */\n      swap1\n      pop\n        /* \"#utility.yul\":2170:2241   */\n      tag_76\n        /* \"#utility.yul\":2238:2239   */\n      0x00\n        /* \"#utility.yul\":2227:2236   */\n      dup4\n        /* \"#utility.yul\":2223:2240   */\n      add\n        /* \"#utility.yul\":2214:2220   */\n      dup7\n        /* \"#utility.yul\":2170:2241   */\n      tag_65\n      jump\t// in\n    tag_76:\n        /* \"#utility.yul\":2288:2297   */\n      dup2\n        /* \"#utility.yul\":2282:2286   */\n      dup2\n        /* \"#utility.yul\":2278:2298   */\n      sub\n        /* \"#utility.yul\":2273:2275   */\n      0x20\n        /* \"#utility.yul\":2262:2271   */\n      dup4\n        /* \"#utility.yul\":2258:2276   */\n      add\n        /* \"#utility.yul\":2251:2299   */\n      mstore\n        /* \"#utility.yul\":2316:2394   */\n      tag_77\n        /* \"#utility.yul\":2389:2393   */\n      dup2\n        /* \"#utility.yul\":2380:2386   */\n      dup6\n        /* \"#utility.yul\":2316:2394   */\n      tag_55\n      jump\t// in\n    tag_77:\n        /* \"#utility.yul\":2308:2394   */\n      swap1\n      pop\n        /* \"#utility.yul\":2404:2476   */\n      tag_78\n        /* \"#utility.yul\":2472:2474   */\n      0x40\n        /* \"#utility.yul\":2461:2470   */\n      dup4\n        /* \"#utility.yul\":2457:2475   */\n      add\n        /* \"#utility.yul\":2448:2454   */\n      dup5\n        /* \"#utility.yul\":2404:2476   */\n      tag_65\n      jump\t// in\n    tag_78:\n        /* \"#utility.yul\":1950:2483   */\n      swap5\n      swap4\n      pop\n      pop\n      pop\n      pop\n      jump\t// out\n        /* \"#utility.yul\":2489:2931   */\n    tag_30:\n        /* \"#utility.yul\":2638:2642   */\n      0x00\n        /* \"#utility.yul\":2676:2678   */\n      0x60\n        /* \"#utility.yul\":2665:2674   */\n      dup3\n        /* \"#utility.yul\":2661:2679   */\n      add\n        /* \"#utility.yul\":2653:2679   */\n      swap1\n      pop\n        /* \"#utility.yul\":2689:2760   */\n      tag_80\n        /* \"#utility.yul\":2757:2758   */\n      0x00\n        /* \"#utility.yul\":2746:2755   */\n      dup4\n        /* \"#utility.yul\":2742:2759   */\n      add\n        /* \"#utility.yul\":2733:2739   */\n      dup7\n        /* \"#utility.yul\":2689:2760   */\n      tag_65\n      jump\t// in\n    tag_80:\n        /* \"#utility.yul\":2770:2842   */\n      tag_81\n        /* \"#utility.yul\":2838:2840   */\n      0x20\n        /* \"#utility.yul\":2827:2836   */\n      dup4\n        /* \"#utility.yul\":2823:2841   */\n      add\n        /* \"#utility.yul\":2814:2820   */\n      dup6\n        /* \"#utility.yul\":2770:2842   */\n      tag_65\n      jump\t// in\n    tag_81:\n        /* \"#utility.yul\":2852:2924   */\n      tag_82\n        /* \"#utility.yul\":2920:2922   */\n      0x40\n        /* \"#utility.yul\":2909:2918   */\n      dup4\n        /* \"#utility.yul\":2905:2923   */\n      add\n        /* \"#utility.yul\":2896:2902   */\n      dup5\n        /* \"#utility.yul\":2852:2924   */\n      tag_65\n      jump\t// in\n    tag_82:\n        /* \"#utility.yul\":2489:2931   */\n      swap5\n      swap4\n      pop\n      pop\n      pop\n      pop\n      jump\t// out\n        /* \"#utility.yul\":3018:3117   */\n    tag_58:\n        /* \"#utility.yul\":3070:3076   */\n      0x00\n        /* \"#utility.yul\":3104:3109   */\n      dup2\n        /* \"#utility.yul\":3098:3110   */\n      mload\n        /* \"#utility.yul\":3088:3110   */\n      swap1\n      pop\n        /* \"#utility.yul\":3018:3117   */\n      swap2\n      swap1\n      pop\n      jump\t// out\n        /* \"#utility.yul\":3123:3292   */\n    tag_60:\n        /* \"#utility.yul\":3207:3218   */\n      0x00\n        /* \"#utility.yul\":3241:3247   */\n      dup3\n        /* \"#utility.yul\":3236:3239   */\n      dup3\n        /* \"#utility.yul\":3229:3248   */\n      mstore\n        /* \"#utility.yul\":3281:3285   */\n      0x20\n        /* \"#utility.yul\":3276:3279   */\n      dup3\n        /* \"#utility.yul\":3272:3286   */\n      add\n        /* \"#utility.yul\":3257:3286   */\n      swap1\n      pop\n        /* \"#utility.yul\":3123:3292   */\n      swap3\n      swap2\n      pop\n      pop\n      jump\t// out\n        /* \"#utility.yul\":3298:3394   */\n    tag_50:\n        /* \"#utility.yul\":3335:3342   */\n      0x00\n        /* \"#utility.yul\":3364:3388   */\n      tag_88\n        /* \"#utility.yul\":3382:3387   */\n      dup3\n        /* \"#utility.yul\":3364:3388   */\n      tag_89\n      jump\t// in\n    tag_88:\n        /* \"#utility.yul\":3353:3388   */\n      swap1\n      pop\n        /* \"#utility.yul\":3298:3394   */\n      swap2\n      swap1\n      pop\n      jump\t// out\n        /* \"#utility.yul\":3400:3527   */\n    tag_90:\n        /* \"#utility.yul\":3445:3452   */\n      0x00\n        /* \"#utility.yul\":3474:3479   */\n      dup2\n        /* \"#utility.yul\":3463:3479   */\n      swap1\n      pop\n        /* \"#utility.yul\":3480:3521   */\n      tag_92\n        /* \"#utility.yul\":3515:3520   */\n      dup3\n        /* \"#utility.yul\":3480:3521   */\n      tag_93\n      jump\t// in\n    tag_92:\n        /* \"#utility.yul\":3400:3527   */\n      swap2\n      swap1\n      pop\n      jump\t// out\n        /* \"#utility.yul\":3533:3659   */\n    tag_89:\n        /* \"#utility.yul\":3570:3577   */\n      0x00\n        /* \"#utility.yul\":3610:3652   */\n      0xffffffffffffffffffffffffffffffffffffffff\n        /* \"#utility.yul\":3603:3608   */\n      dup3\n        /* \"#utility.yul\":3599:3653   */\n      and\n        /* \"#utility.yul\":3588:3653   */\n      swap1\n      pop\n        /* \"#utility.yul\":3533:3659   */\n      swap2\n      swap1\n      pop\n      jump\t// out\n        /* \"#utility.yul\":3665:3742   */\n    tag_68:\n        /* \"#utility.yul\":3702:3709   */\n      0x00\n        /* \"#utility.yul\":3731:3736   */\n      dup2\n        /* \"#utility.yul\":3720:3736   */\n      swap1\n      pop\n        /* \"#utility.yul\":3665:3742   */\n      swap2\n      swap1\n      pop\n      jump\t// out\n        /* \"#utility.yul\":3748:3875   */\n    tag_54:\n        /* \"#utility.yul\":3804:3813   */\n      0x00\n        /* \"#utility.yul\":3837:3869   */\n      tag_97\n        /* \"#utility.yul\":3863:3868   */\n      dup3\n        /* \"#utility.yul\":3837:3869   */\n      tag_90\n      jump\t// in\n    tag_97:\n        /* \"#utility.yul\":3824:3869   */\n      swap1\n      pop\n        /* \"#utility.yul\":3748:3875   */\n      swap2\n      swap1\n      pop\n      jump\t// out\n        /* \"#utility.yul\":3881:4188   */\n    tag_62:\n        /* \"#utility.yul\":3949:3950   */\n      0x00\n        /* \"#utility.yul\":3959:4072   */\n    tag_99:\n        /* \"#utility.yul\":3973:3979   */\n      dup4\n        /* \"#utility.yul\":3970:3971   */\n      dup2\n        /* \"#utility.yul\":3967:3980   */\n      lt\n        /* \"#utility.yul\":3959:4072   */\n      iszero\n      tag_101\n      jumpi\n        /* \"#utility.yul\":4058:4059   */\n      dup1\n        /* \"#utility.yul\":4053:4056   */\n      dup3\n        /* \"#utility.yul\":4049:4060   */\n      add\n        /* \"#utility.yul\":4043:4061   */\n      mload\n        /* \"#utility.yul\":4039:4040   */\n      dup2\n        /* \"#utility.yul\":4034:4037   */\n      dup5\n        /* \"#utility.yul\":4030:4041   */\n      add\n        /* \"#utility.yul\":4023:4062   */\n      mstore\n        /* \"#utility.yul\":3995:3997   */\n      0x20\n        /* \"#utility.yul\":3992:3993   */\n      dup2\n        /* \"#utility.yul\":3988:3998   */\n      add\n        /* \"#utility.yul\":3983:3998   */\n      swap1\n      pop\n        /* \"#utility.yul\":3959:4072   */\n      jump(tag_99)\n    tag_101:\n        /* \"#utility.yul\":4090:4096   */\n      dup4\n        /* \"#utility.yul\":4087:4088   */\n      dup2\n        /* \"#utility.yul\":4084:4097   */\n      gt\n        /* \"#utility.yul\":4081:4182   */\n      iszero\n      tag_102\n      jumpi\n        /* \"#utility.yul\":4170:4171   */\n      0x00\n        /* \"#utility.yul\":4161:4167   */\n      dup5\n        /* \"#utility.yul\":4156:4159   */\n      dup5\n        /* \"#utility.yul\":4152:4168   */\n      add\n        /* \"#utility.yul\":4145:4172   */\n      mstore\n        /* \"#utility.yul\":4081:4182   */\n    tag_102:\n        /* \"#utility.yul\":3930:4188   */\n      pop\n        /* \"#utility.yul\":3881:4188   */\n      pop\n      pop\n      pop\n      jump\t// out\n        /* \"#utility.yul\":4194:4514   */\n    tag_32:\n        /* \"#utility.yul\":4238:4244   */\n      0x00\n        /* \"#utility.yul\":4275:4276   */\n      0x02\n        /* \"#utility.yul\":4269:4273   */\n      dup3\n        /* \"#utility.yul\":4265:4277   */\n      div\n        /* \"#utility.yul\":4255:4277   */\n      swap1\n      pop\n        /* \"#utility.yul\":4322:4323   */\n      0x01\n        /* \"#utility.yul\":4316:4320   */\n      dup3\n        /* \"#utility.yul\":4312:4324   */\n      and\n        /* \"#utility.yul\":4343:4361   */\n      dup1\n        /* \"#utility.yul\":4333:4414   */\n      tag_104\n      jumpi\n        /* \"#utility.yul\":4399:4403   */\n      0x7f\n        /* \"#utility.yul\":4391:4397   */\n      dup3\n        /* \"#utility.yul\":4387:4404   */\n      and\n        /* \"#utility.yul\":4377:4404   */\n      swap2\n      pop\n        /* \"#utility.yul\":4333:4414   */\n    tag_104:\n        /* \"#utility.yul\":4461:4463   */\n      0x20\n        /* \"#utility.yul\":4453:4459   */\n      dup3\n        /* \"#utility.yul\":4450:4464   */\n      lt\n        /* \"#utility.yul\":4430:4448   */\n      dup2\n        /* \"#utility.yul\":4427:4465   */\n      eq\n        /* \"#utility.yul\":4424:4508   */\n      iszero\n      tag_105\n      jumpi\n        /* \"#utility.yul\":4480:4498   */\n      tag_106\n      tag_107\n      jump\t// in\n    tag_106:\n        /* \"#utility.yul\":4424:4508   */\n    tag_105:\n        /* \"#utility.yul\":4245:4514   */\n      pop\n        /* \"#utility.yul\":4194:4514   */\n      swap2\n      swap1\n      pop\n      jump\t// out\n        /* \"#utility.yul\":4520:4700   */\n    tag_108:\n        /* \"#utility.yul\":4568:4645   */\n      0x4e487b7100000000000000000000000000000000000000000000000000000000\n        /* \"#utility.yul\":4565:4566   */\n      0x00\n        /* \"#utility.yul\":4558:4646   */\n      mstore\n        /* \"#utility.yul\":4665:4669   */\n      0x21\n        /* \"#utility.yul\":4662:4663   */\n      0x04\n        /* \"#utility.yul\":4655:4670   */\n      mstore\n        /* \"#utility.yul\":4689:4693   */\n      0x24\n        /* \"#utility.yul\":4686:4687   */\n      0x00\n        /* \"#utility.yul\":4679:4694   */\n      revert\n        /* \"#utility.yul\":4706:4886   */\n    tag_107:\n        /* \"#utility.yul\":4754:4831   */\n      0x4e487b7100000000000000000000000000000000000000000000000000000000\n        /* \"#utility.yul\":4751:4752   */\n      0x00\n        /* \"#utility.yul\":4744:4832   */\n      mstore\n        /* \"#utility.yul\":4851:4855   */\n      0x22\n        /* \"#utility.yul\":4848:4849   */\n      0x04\n        /* \"#utility.yul\":4841:4856   */\n      mstore\n        /* \"#utility.yul\":4875:4879   */\n      0x24\n        /* \"#utility.yul\":4872:4873   */\n      0x00\n        /* \"#utility.yul\":4865:4880   */\n      revert\n        /* \"#utility.yul\":5015:5132   */\n    tag_45:\n        /* \"#utility.yul\":5124:5125   */\n      0x00\n        /* \"#utility.yul\":5121:5122   */\n      dup1\n        /* \"#utility.yul\":5114:5126   */\n      revert\n        /* \"#utility.yul\":5138:5240   */\n    tag_64:\n        /* \"#utility.yul\":5179:5185   */\n      0x00\n        /* \"#utility.yul\":5230:5232   */\n      0x1f\n        /* \"#utility.yul\":5226:5233   */\n      not\n        /* \"#utility.yul\":5221:5223   */\n      0x1f\n        /* \"#utility.yul\":5214:5219   */\n      dup4\n        /* \"#utility.yul\":5210:5224   */\n      add\n        /* \"#utility.yul\":5206:5234   */\n      and\n        /* \"#utility.yul\":5196:5234   */\n      swap1\n      pop\n        /* \"#utility.yul\":5138:5240   */\n      swap2\n      swap1\n      pop\n      jump\t// out\n        /* \"#utility.yul\":5246:5359   */\n    tag_93:\n        /* \"#utility.yul\":5327:5328   */\n      0x03\n        /* \"#utility.yul\":5320:5325   */\n      dup2\n        /* \"#utility.yul\":5317:5329   */\n      lt\n        /* \"#utility.yul\":5307:5353   */\n      tag_116\n      jumpi\n        /* \"#utility.yul\":5333:5351   */\n      tag_117\n      tag_108\n      jump\t// in\n    tag_117:\n        /* \"#utility.yul\":5307:5353   */\n    tag_116:\n        /* \"#utility.yul\":5246:5359   */\n      pop\n      jump\t// out\n        /* \"#utility.yul\":5365:5487   */\n    tag_41:\n        /* \"#utility.yul\":5438:5462   */\n      tag_119\n        /* \"#utility.yul\":5456:5461   */\n      dup2\n        /* \"#utility.yul\":5438:5462   */\n      tag_68\n      jump\t// in\n    tag_119:\n        /* \"#utility.yul\":5431:5436   */\n      dup2\n        /* \"#utility.yul\":5428:5463   */\n      eq\n        /* \"#utility.yul\":5418:5481   */\n      tag_120\n      jumpi\n        /* \"#utility.yul\":5477:5478   */\n      0x00\n        /* \"#utility.yul\":5474:5475   */\n      dup1\n        /* \"#utility.yul\":5467:5479   */\n      revert\n        /* \"#utility.yul\":5418:5481   */\n    tag_120:\n        /* \"#utility.yul\":5365:5487   */\n      pop\n      jump\t// out\n\n    auxdata: 0xa26469706673582212202bf42159818ef8a9f8f1b2465973fe7eefd24210edd1a2ae6a9b5f437125f3aa64736f6c63430008070033\n}\n",
				"bytecode": {
					"linkReferences": {},
					"object": "6080604052600a6002553480156200001657600080fd5b50336000806101000a81548173ffffffffffffffffffffffffffffffffffffffff021916908373ffffffffffffffffffffffffffffffffffffffff16021790555062000067620000ae60201b60201c565b6200007a6002546200020e60201b60201c565b6000600560006101000a81548160ff02191690836002811115620000a357620000a2620004f9565b5b021790555062000557565b620000f46040518060400160405280600b81526020017f43616e64696461746520310000000000000000000000000000000000000000008152506200025460201b60201c565b6200013a6040518060400160405280600b81526020017f43616e64696461746520320000000000000000000000000000000000000000008152506200025460201b60201c565b620001806040518060400160405280600b81526020017f43616e64696461746520330000000000000000000000000000000000000000008152506200025460201b60201c565b620001c66040518060400160405280600b81526020017f43616e64696461746520340000000000000000000000000000000000000000008152506200025460201b60201c565b6200020c6040518060400160405280600b81526020017f43616e64696461746520350000000000000000000000000000000000000000008152506200025460201b60201c565b565b60005b8181101562000250576200023a816001836200022e9190620003df565b620002da60201b60201c565b808062000247906200047c565b91505062000211565b5050565b6001600081548092919062000269906200047c565b9190505550604051806060016040528060015481526020018281526020016000815250600360006001548152602001908152602001600020600082015181600001556020820151816001019080519060200190620002c99291906200032f565b506040820151816002015590505050565b6040518060600160405280828152602001600081526020016000815250600460008481526020019081526020016000206000820151816000015560208201518160010155604082015181600201559050505050565b8280546200033d9062000446565b90600052602060002090601f016020900481019282620003615760008555620003ad565b82601f106200037c57805160ff1916838001178555620003ad565b82800160010185558215620003ad579182015b82811115620003ac5782518255916020019190600101906200038f565b5b509050620003bc9190620003c0565b5090565b5b80821115620003db576000816000905550600101620003c1565b5090565b6000620003ec826200043c565b9150620003f9836200043c565b9250827fffffffffffffffffffffffffffffffffffffffffffffffffffffffffffffffff03821115620004315762000430620004ca565b5b828201905092915050565b6000819050919050565b600060028204905060018216806200045f57607f821691505b6020821081141562000476576200047562000528565b5b50919050565b600062000489826200043c565b91507fffffffffffffffffffffffffffffffffffffffffffffffffffffffffffffffff821415620004bf57620004be620004ca565b5b600182019050919050565b7f4e487b7100000000000000000000000000000000000000000000000000000000600052601160045260246000fd5b7f4e487b7100000000000000000000000000000000000000000000000000000000600052602160045260246000fd5b7f4e487b7100000000000000000000000000000000000000000000000000000000600052602260045260246000fd5b61055880620005676000396000f3fe608060405234801561001057600080fd5b50600436106100575760003560e01c80632d35a8a21461005c5780633477ee2e1461007a57806353357ad0146100ac578063c19d93fb146100ca578063fe2442d7146100e8575b600080fd5b61006461011a565b6040516100719190610311565b60405180910390f35b610094600480360381019061008f9190610248565b610120565b6040516100a39392919061032c565b60405180910390f35b6100b46101d2565b6040516100c191906102db565b60405180910390f35b6100d26101f6565b6040516100df91906102f6565b60405180910390f35b61010260048036038101906100fd9190610248565b610209565b6040516101119392919061036a565b60405180910390f35b60015481565b600360205280600052604060002060009150905080600001549080600101805461014990610451565b80601f016020809104026020016040519081016040528092919081815260200182805461017590610451565b80156101c25780601f10610197576101008083540402835291602001916101c2565b820191906000526020600020905b8154815290600101906020018083116101a557829003601f168201915b5050505050908060020154905083565b60008054906101000a900473ffffffffffffffffffffffffffffffffffffffff1681565b600560009054906101000a900460ff1681565b60046020528060005260406000206000915090508060000154908060010154908060020154905083565b6000813590506102428161050b565b92915050565b60006020828403121561025e5761025d6104e1565b5b600061026c84828501610233565b91505092915050565b61027e816103bd565b82525050565b61028d8161040c565b82525050565b600061029e826103a1565b6102a881856103ac565b93506102b881856020860161041e565b6102c1816104e6565b840191505092915050565b6102d581610402565b82525050565b60006020820190506102f06000830184610275565b92915050565b600060208201905061030b6000830184610284565b92915050565b600060208201905061032660008301846102cc565b92915050565b600060608201905061034160008301866102cc565b81810360208301526103538185610293565b905061036260408301846102cc565b949350505050565b600060608201905061037f60008301866102cc565b61038c60208301856102cc565b61039960408301846102cc565b949350505050565b600081519050919050565b600082825260208201905092915050565b60006103c8826103e2565b9050919050565b60008190506103dd826104f7565b919050565b600073ffffffffffffffffffffffffffffffffffffffff82169050919050565b6000819050919050565b6000610417826103cf565b9050919050565b60005b8381101561043c578082015181840152602081019050610421565b8381111561044b576000848401525b50505050565b6000600282049050600182168061046957607f821691505b6020821081141561047d5761047c6104b2565b5b50919050565b7f4e487b7100000000000000000000000000000000000000000000000000000000600052602160045260246000fd5b7f4e487b7100000000000000000000000000000000000000000000000000000000600052602260045260246000fd5b600080fd5b6000601f19601f8301169050919050565b6003811061050857610507610483565b5b50565b61051481610402565b811461051f57600080fd5b5056fea26469706673582212202bf42159818ef8a9f8f1b2465973fe7eefd24210edd1a2ae6a9b5f437125f3aa64736f6c63430008070033",
					"opcodes": "PUSH1 0x80 PUSH1 0x40 MSTORE PUSH1 0xA PUSH1 0x2 SSTORE CALLVALUE DUP1 ISZERO PUSH3 0x16 JUMPI PUSH1 0x0 DUP1 REVERT JUMPDEST POP CALLER PUSH1 0x0 DUP1 PUSH2 0x100 EXP DUP2 SLOAD DUP2 PUSH20 0xFFFFFFFFFFFFFFFFFFFFFFFFFFFFFFFFFFFFFFFF MUL NOT AND SWAP1 DUP4 PUSH20 0xFFFFFFFFFFFFFFFFFFFFFFFFFFFFFFFFFFFFFFFF AND MUL OR SWAP1 SSTORE POP PUSH3 0x67 PUSH3 0xAE PUSH1 0x20 SHL PUSH1 0x20 SHR JUMP JUMPDEST PUSH3 0x7A PUSH1 0x2 SLOAD PUSH3 0x20E PUSH1 0x20 SHL PUSH1 0x20 SHR JUMP JUMPDEST PUSH1 0x0 PUSH1 0x5 PUSH1 0x0 PUSH2 0x100 EXP DUP2 SLOAD DUP2 PUSH1 0xFF MUL NOT AND SWAP1 DUP4 PUSH1 0x2 DUP2 GT ISZERO PUSH3 0xA3 JUMPI PUSH3 0xA2 PUSH3 0x4F9 JUMP JUMPDEST JUMPDEST MUL OR SWAP1 SSTORE POP PUSH3 0x557 JUMP JUMPDEST PUSH3 0xF4 PUSH1 0x40 MLOAD DUP1 PUSH1 0x40 ADD PUSH1 0x40 MSTORE DUP1 PUSH1 0xB DUP2 MSTORE PUSH1 0x20 ADD PUSH32 0x43616E6469646174652031000000000000000000000000000000000000000000 DUP2 MSTORE POP PUSH3 0x254 PUSH1 0x20 SHL PUSH1 0x20 SHR JUMP JUMPDEST PUSH3 0x13A PUSH1 0x40 MLOAD DUP1 PUSH1 0x40 ADD PUSH1 0x40 MSTORE DUP1 PUSH1 0xB DUP2 MSTORE PUSH1 0x20 ADD PUSH32 0x43616E6469646174652032000000000000000000000000000000000000000000 DUP2 MSTORE POP PUSH3 0x254 PUSH1 0x20 SHL PUSH1 0x20 SHR JUMP JUMPDEST PUSH3 0x180 PUSH1 0x40 MLOAD DUP1 PUSH1 0x40 ADD PUSH1 0x40 MSTORE DUP1 PUSH1 0xB DUP2 MSTORE PUSH1 0x20 ADD PUSH32 0x43616E6469646174652033000000000000000000000000000000000000000000 DUP2 MSTORE POP PUSH3 0x254 PUSH1 0x20 SHL PUSH1 0x20 SHR JUMP JUMPDEST PUSH3 0x1C6 PUSH1 0x40 MLOAD DUP1 PUSH1 0x40 ADD PUSH1 0x40 MSTORE DUP1 PUSH1 0xB DUP2 MSTORE PUSH1 0x20 ADD PUSH32 0x43616E6469646174652034000000000000000000000000000000000000000000 DUP2 MSTORE POP PUSH3 0x254 PUSH1 0x20 SHL PUSH1 0x20 SHR JUMP JUMPDEST PUSH3 0x20C PUSH1 0x40 MLOAD DUP1 PUSH1 0x40 ADD PUSH1 0x40 MSTORE DUP1 PUSH1 0xB DUP2 MSTORE PUSH1 0x20 ADD PUSH32 0x43616E6469646174652035000000000000000000000000000000000000000000 DUP2 MSTORE POP PUSH3 0x254 PUSH1 0x20 SHL PUSH1 0x20 SHR JUMP JUMPDEST JUMP JUMPDEST PUSH1 0x0 JUMPDEST DUP2 DUP2 LT ISZERO PUSH3 0x250 JUMPI PUSH3 0x23A DUP2 PUSH1 0x1 DUP4 PUSH3 0x22E SWAP2 SWAP1 PUSH3 0x3DF JUMP JUMPDEST PUSH3 0x2DA PUSH1 0x20 SHL PUSH1 0x20 SHR JUMP JUMPDEST DUP1 DUP1 PUSH3 0x247 SWAP1 PUSH3 0x47C JUMP JUMPDEST SWAP2 POP POP PUSH3 0x211 JUMP JUMPDEST POP POP JUMP JUMPDEST PUSH1 0x1 PUSH1 0x0 DUP2 SLOAD DUP1 SWAP3 SWAP2 SWAP1 PUSH3 0x269 SWAP1 PUSH3 0x47C JUMP JUMPDEST SWAP2 SWAP1 POP SSTORE POP PUSH1 0x40 MLOAD DUP1 PUSH1 0x60 ADD PUSH1 0x40 MSTORE DUP1 PUSH1 0x1 SLOAD DUP2 MSTORE PUSH1 0x20 ADD DUP3 DUP2 MSTORE PUSH1 0x20 ADD PUSH1 0x0 DUP2 MSTORE POP PUSH1 0x3 PUSH1 0x0 PUSH1 0x1 SLOAD DUP2 MSTORE PUSH1 0x20 ADD SWAP1 DUP2 MSTORE PUSH1 0x20 ADD PUSH1 0x0 KECCAK256 PUSH1 0x0 DUP3 ADD MLOAD DUP2 PUSH1 0x0 ADD SSTORE PUSH1 0x20 DUP3 ADD MLOAD DUP2 PUSH1 0x1 ADD SWAP1 DUP1 MLOAD SWAP1 PUSH1 0x20 ADD SWAP1 PUSH3 0x2C9 SWAP3 SWAP2 SWAP1 PUSH3 0x32F JUMP JUMPDEST POP PUSH1 0x40 DUP3 ADD MLOAD DUP2 PUSH1 0x2 ADD SSTORE SWAP1 POP POP POP JUMP JUMPDEST PUSH1 0x40 MLOAD DUP1 PUSH1 0x60 ADD PUSH1 0x40 MSTORE DUP1 DUP3 DUP2 MSTORE PUSH1 0x20 ADD PUSH1 0x0 DUP2 MSTORE PUSH1 0x20 ADD PUSH1 0x0 DUP2 MSTORE POP PUSH1 0x4 PUSH1 0x0 DUP5 DUP2 MSTORE PUSH1 0x20 ADD SWAP1 DUP2 MSTORE PUSH1 0x20 ADD PUSH1 0x0 KECCAK256 PUSH1 0x0 DUP3 ADD MLOAD DUP2 PUSH1 0x0 ADD SSTORE PUSH1 0x20 DUP3 ADD MLOAD DUP2 PUSH1 0x1 ADD SSTORE PUSH1 0x40 DUP3 ADD MLOAD DUP2 PUSH1 0x2 ADD SSTORE SWAP1 POP POP POP POP JUMP JUMPDEST DUP3 DUP1 SLOAD PUSH3 0x33D SWAP1 PUSH3 0x446 JUMP JUMPDEST SWAP1 PUSH1 0x0 MSTORE PUSH1 0x20 PUSH1 0x0 KECCAK256 SWAP1 PUSH1 0x1F ADD PUSH1 0x20 SWAP1 DIV DUP2 ADD SWAP3 DUP3 PUSH3 0x361 JUMPI PUSH1 0x0 DUP6 SSTORE PUSH3 0x3AD JUMP JUMPDEST DUP3 PUSH1 0x1F LT PUSH3 0x37C JUMPI DUP1 MLOAD PUSH1 0xFF NOT AND DUP4 DUP1 ADD OR DUP6 SSTORE PUSH3 0x3AD JUMP JUMPDEST DUP3 DUP1 ADD PUSH1 0x1 ADD DUP6 SSTORE DUP3 ISZERO PUSH3 0x3AD JUMPI SWAP2 DUP3 ADD JUMPDEST DUP3 DUP2 GT ISZERO PUSH3 0x3AC JUMPI DUP3 MLOAD DUP3 SSTORE SWAP2 PUSH1 0x20 ADD SWAP2 SWAP1 PUSH1 0x1 ADD SWAP1 PUSH3 0x38F JUMP JUMPDEST JUMPDEST POP SWAP1 POP PUSH3 0x3BC SWAP2 SWAP1 PUSH3 0x3C0 JUMP JUMPDEST POP SWAP1 JUMP JUMPDEST JUMPDEST DUP1 DUP3 GT ISZERO PUSH3 0x3DB JUMPI PUSH1 0x0 DUP2 PUSH1 0x0 SWAP1 SSTORE POP PUSH1 0x1 ADD PUSH3 0x3C1 JUMP JUMPDEST POP SWAP1 JUMP JUMPDEST PUSH1 0x0 PUSH3 0x3EC DUP3 PUSH3 0x43C JUMP JUMPDEST SWAP2 POP PUSH3 0x3F9 DUP4 PUSH3 0x43C JUMP JUMPDEST SWAP3 POP DUP3 PUSH32 0xFFFFFFFFFFFFFFFFFFFFFFFFFFFFFFFFFFFFFFFFFFFFFFFFFFFFFFFFFFFFFFFF SUB DUP3 GT ISZERO PUSH3 0x431 JUMPI PUSH3 0x430 PUSH3 0x4CA JUMP JUMPDEST JUMPDEST DUP3 DUP3 ADD SWAP1 POP SWAP3 SWAP2 POP POP JUMP JUMPDEST PUSH1 0x0 DUP2 SWAP1 POP SWAP2 SWAP1 POP JUMP JUMPDEST PUSH1 0x0 PUSH1 0x2 DUP3 DIV SWAP1 POP PUSH1 0x1 DUP3 AND DUP1 PUSH3 0x45F JUMPI PUSH1 0x7F DUP3 AND SWAP2 POP JUMPDEST PUSH1 0x20 DUP3 LT DUP2 EQ ISZERO PUSH3 0x476 JUMPI PUSH3 0x475 PUSH3 0x528 JUMP JUMPDEST JUMPDEST POP SWAP2 SWAP1 POP JUMP JUMPDEST PUSH1 0x0 PUSH3 0x489 DUP3 PUSH3 0x43C JUMP JUMPDEST SWAP2 POP PUSH32 0xFFFFFFFFFFFFFFFFFFFFFFFFFFFFFFFFFFFFFFFFFFFFFFFFFFFFFFFFFFFFFFFF DUP3 EQ ISZERO PUSH3 0x4BF JUMPI PUSH3 0x4BE PUSH3 0x4CA JUMP JUMPDEST JUMPDEST PUSH1 0x1 DUP3 ADD SWAP1 POP SWAP2 SWAP1 POP JUMP JUMPDEST PUSH32 0x4E487B7100000000000000000000000000000000000000000000000000000000 PUSH1 0x0 MSTORE PUSH1 0x11 PUSH1 0x4 MSTORE PUSH1 0x24 PUSH1 0x0 REVERT JUMPDEST PUSH32 0x4E487B7100000000000000000000000000000000000000000000000000000000 PUSH1 0x0 MSTORE PUSH1 0x21 PUSH1 0x4 MSTORE PUSH1 0x24 PUSH1 0x0 REVERT JUMPDEST PUSH32 0x4E487B7100000000000000000000000000000000000000000000000000000000 PUSH1 0x0 MSTORE PUSH1 0x22 PUSH1 0x4 MSTORE PUSH1 0x24 PUSH1 0x0 REVERT JUMPDEST PUSH2 0x558 DUP1 PUSH3 0x567 PUSH1 0x0 CODECOPY PUSH1 0x0 RETURN INVALID PUSH1 0x80 PUSH1 0x40 MSTORE CALLVALUE DUP1 ISZERO PUSH2 0x10 JUMPI PUSH1 0x0 DUP1 REVERT JUMPDEST POP PUSH1 0x4 CALLDATASIZE LT PUSH2 0x57 JUMPI PUSH1 0x0 CALLDATALOAD PUSH1 0xE0 SHR DUP1 PUSH4 0x2D35A8A2 EQ PUSH2 0x5C JUMPI DUP1 PUSH4 0x3477EE2E EQ PUSH2 0x7A JUMPI DUP1 PUSH4 0x53357AD0 EQ PUSH2 0xAC JUMPI DUP1 PUSH4 0xC19D93FB EQ PUSH2 0xCA JUMPI DUP1 PUSH4 0xFE2442D7 EQ PUSH2 0xE8 JUMPI JUMPDEST PUSH1 0x0 DUP1 REVERT JUMPDEST PUSH2 0x64 PUSH2 0x11A JUMP JUMPDEST PUSH1 0x40 MLOAD PUSH2 0x71 SWAP2 SWAP1 PUSH2 0x311 JUMP JUMPDEST PUSH1 0x40 MLOAD DUP1 SWAP2 SUB SWAP1 RETURN JUMPDEST PUSH2 0x94 PUSH1 0x4 DUP1 CALLDATASIZE SUB DUP2 ADD SWAP1 PUSH2 0x8F SWAP2 SWAP1 PUSH2 0x248 JUMP JUMPDEST PUSH2 0x120 JUMP JUMPDEST PUSH1 0x40 MLOAD PUSH2 0xA3 SWAP4 SWAP3 SWAP2 SWAP1 PUSH2 0x32C JUMP JUMPDEST PUSH1 0x40 MLOAD DUP1 SWAP2 SUB SWAP1 RETURN JUMPDEST PUSH2 0xB4 PUSH2 0x1D2 JUMP JUMPDEST PUSH1 0x40 MLOAD PUSH2 0xC1 SWAP2 SWAP1 PUSH2 0x2DB JUMP JUMPDEST PUSH1 0x40 MLOAD DUP1 SWAP2 SUB SWAP1 RETURN JUMPDEST PUSH2 0xD2 PUSH2 0x1F6 JUMP JUMPDEST PUSH1 0x40 MLOAD PUSH2 0xDF SWAP2 SWAP1 PUSH2 0x2F6 JUMP JUMPDEST PUSH1 0x40 MLOAD DUP1 SWAP2 SUB SWAP1 RETURN JUMPDEST PUSH2 0x102 PUSH1 0x4 DUP1 CALLDATASIZE SUB DUP2 ADD SWAP1 PUSH2 0xFD SWAP2 SWAP1 PUSH2 0x248 JUMP JUMPDEST PUSH2 0x209 JUMP JUMPDEST PUSH1 0x40 MLOAD PUSH2 0x111 SWAP4 SWAP3 SWAP2 SWAP1 PUSH2 0x36A JUMP JUMPDEST PUSH1 0x40 MLOAD DUP1 SWAP2 SUB SWAP1 RETURN JUMPDEST PUSH1 0x1 SLOAD DUP2 JUMP JUMPDEST PUSH1 0x3 PUSH1 0x20 MSTORE DUP1 PUSH1 0x0 MSTORE PUSH1 0x40 PUSH1 0x0 KECCAK256 PUSH1 0x0 SWAP2 POP SWAP1 POP DUP1 PUSH1 0x0 ADD SLOAD SWAP1 DUP1 PUSH1 0x1 ADD DUP1 SLOAD PUSH2 0x149 SWAP1 PUSH2 0x451 JUMP JUMPDEST DUP1 PUSH1 0x1F ADD PUSH1 0x20 DUP1 SWAP2 DIV MUL PUSH1 0x20 ADD PUSH1 0x40 MLOAD SWAP1 DUP2 ADD PUSH1 0x40 MSTORE DUP1 SWAP3 SWAP2 SWAP1 DUP2 DUP2 MSTORE PUSH1 0x20 ADD DUP3 DUP1 SLOAD PUSH2 0x175 SWAP1 PUSH2 0x451 JUMP JUMPDEST DUP1 ISZERO PUSH2 0x1C2 JUMPI DUP1 PUSH1 0x1F LT PUSH2 0x197 JUMPI PUSH2 0x100 DUP1 DUP4 SLOAD DIV MUL DUP4 MSTORE SWAP2 PUSH1 0x20 ADD SWAP2 PUSH2 0x1C2 JUMP JUMPDEST DUP3 ADD SWAP2 SWAP1 PUSH1 0x0 MSTORE PUSH1 0x20 PUSH1 0x0 KECCAK256 SWAP1 JUMPDEST DUP2 SLOAD DUP2 MSTORE SWAP1 PUSH1 0x1 ADD SWAP1 PUSH1 0x20 ADD DUP1 DUP4 GT PUSH2 0x1A5 JUMPI DUP3 SWAP1 SUB PUSH1 0x1F AND DUP3 ADD SWAP2 JUMPDEST POP POP POP POP POP SWAP1 DUP1 PUSH1 0x2 ADD SLOAD SWAP1 POP DUP4 JUMP JUMPDEST PUSH1 0x0 DUP1 SLOAD SWAP1 PUSH2 0x100 EXP SWAP1 DIV PUSH20 0xFFFFFFFFFFFFFFFFFFFFFFFFFFFFFFFFFFFFFFFF AND DUP2 JUMP JUMPDEST PUSH1 0x5 PUSH1 0x0 SWAP1 SLOAD SWAP1 PUSH2 0x100 EXP SWAP1 DIV PUSH1 0xFF AND DUP2 JUMP JUMPDEST PUSH1 0x4 PUSH1 0x20 MSTORE DUP1 PUSH1 0x0 MSTORE PUSH1 0x40 PUSH1 0x0 KECCAK256 PUSH1 0x0 SWAP2 POP SWAP1 POP DUP1 PUSH1 0x0 ADD SLOAD SWAP1 DUP1 PUSH1 0x1 ADD SLOAD SWAP1 DUP1 PUSH1 0x2 ADD SLOAD SWAP1 POP DUP4 JUMP JUMPDEST PUSH1 0x0 DUP2 CALLDATALOAD SWAP1 POP PUSH2 0x242 DUP2 PUSH2 0x50B JUMP JUMPDEST SWAP3 SWAP2 POP POP JUMP JUMPDEST PUSH1 0x0 PUSH1 0x20 DUP3 DUP5 SUB SLT ISZERO PUSH2 0x25E JUMPI PUSH2 0x25D PUSH2 0x4E1 JUMP JUMPDEST JUMPDEST PUSH1 0x0 PUSH2 0x26C DUP5 DUP3 DUP6 ADD PUSH2 0x233 JUMP JUMPDEST SWAP2 POP POP SWAP3 SWAP2 POP POP JUMP JUMPDEST PUSH2 0x27E DUP2 PUSH2 0x3BD JUMP JUMPDEST DUP3 MSTORE POP POP JUMP JUMPDEST PUSH2 0x28D DUP2 PUSH2 0x40C JUMP JUMPDEST DUP3 MSTORE POP POP JUMP JUMPDEST PUSH1 0x0 PUSH2 0x29E DUP3 PUSH2 0x3A1 JUMP JUMPDEST PUSH2 0x2A8 DUP2 DUP6 PUSH2 0x3AC JUMP JUMPDEST SWAP4 POP PUSH2 0x2B8 DUP2 DUP6 PUSH1 0x20 DUP7 ADD PUSH2 0x41E JUMP JUMPDEST PUSH2 0x2C1 DUP2 PUSH2 0x4E6 JUMP JUMPDEST DUP5 ADD SWAP2 POP POP SWAP3 SWAP2 POP POP JUMP JUMPDEST PUSH2 0x2D5 DUP2 PUSH2 0x402 JUMP JUMPDEST DUP3 MSTORE POP POP JUMP JUMPDEST PUSH1 0x0 PUSH1 0x20 DUP3 ADD SWAP1 POP PUSH2 0x2F0 PUSH1 0x0 DUP4 ADD DUP5 PUSH2 0x275 JUMP JUMPDEST SWAP3 SWAP2 POP POP JUMP JUMPDEST PUSH1 0x0 PUSH1 0x20 DUP3 ADD SWAP1 POP PUSH2 0x30B PUSH1 0x0 DUP4 ADD DUP5 PUSH2 0x284 JUMP JUMPDEST SWAP3 SWAP2 POP POP JUMP JUMPDEST PUSH1 0x0 PUSH1 0x20 DUP3 ADD SWAP1 POP PUSH2 0x326 PUSH1 0x0 DUP4 ADD DUP5 PUSH2 0x2CC JUMP JUMPDEST SWAP3 SWAP2 POP POP JUMP JUMPDEST PUSH1 0x0 PUSH1 0x60 DUP3 ADD SWAP1 POP PUSH2 0x341 PUSH1 0x0 DUP4 ADD DUP7 PUSH2 0x2CC JUMP JUMPDEST DUP2 DUP2 SUB PUSH1 0x20 DUP4 ADD MSTORE PUSH2 0x353 DUP2 DUP6 PUSH2 0x293 JUMP JUMPDEST SWAP1 POP PUSH2 0x362 PUSH1 0x40 DUP4 ADD DUP5 PUSH2 0x2CC JUMP JUMPDEST SWAP5 SWAP4 POP POP POP POP JUMP JUMPDEST PUSH1 0x0 PUSH1 0x60 DUP3 ADD SWAP1 POP PUSH2 0x37F PUSH1 0x0 DUP4 ADD DUP7 PUSH2 0x2CC JUMP JUMPDEST PUSH2 0x38C PUSH1 0x20 DUP4 ADD DUP6 PUSH2 0x2CC JUMP JUMPDEST PUSH2 0x399 PUSH1 0x40 DUP4 ADD DUP5 PUSH2 0x2CC JUMP JUMPDEST SWAP5 SWAP4 POP POP POP POP JUMP JUMPDEST PUSH1 0x0 DUP2 MLOAD SWAP1 POP SWAP2 SWAP1 POP JUMP JUMPDEST PUSH1 0x0 DUP3 DUP3 MSTORE PUSH1 0x20 DUP3 ADD SWAP1 POP SWAP3 SWAP2 POP POP JUMP JUMPDEST PUSH1 0x0 PUSH2 0x3C8 DUP3 PUSH2 0x3E2 JUMP JUMPDEST SWAP1 POP SWAP2 SWAP1 POP JUMP JUMPDEST PUSH1 0x0 DUP2 SWAP1 POP PUSH2 0x3DD DUP3 PUSH2 0x4F7 JUMP JUMPDEST SWAP2 SWAP1 POP JUMP JUMPDEST PUSH1 0x0 PUSH20 0xFFFFFFFFFFFFFFFFFFFFFFFFFFFFFFFFFFFFFFFF DUP3 AND SWAP1 POP SWAP2 SWAP1 POP JUMP JUMPDEST PUSH1 0x0 DUP2 SWAP1 POP SWAP2 SWAP1 POP JUMP JUMPDEST PUSH1 0x0 PUSH2 0x417 DUP3 PUSH2 0x3CF JUMP JUMPDEST SWAP1 POP SWAP2 SWAP1 POP JUMP JUMPDEST PUSH1 0x0 JUMPDEST DUP4 DUP2 LT ISZERO PUSH2 0x43C JUMPI DUP1 DUP3 ADD MLOAD DUP2 DUP5 ADD MSTORE PUSH1 0x20 DUP2 ADD SWAP1 POP PUSH2 0x421 JUMP JUMPDEST DUP4 DUP2 GT ISZERO PUSH2 0x44B JUMPI PUSH1 0x0 DUP5 DUP5 ADD MSTORE JUMPDEST POP POP POP POP JUMP JUMPDEST PUSH1 0x0 PUSH1 0x2 DUP3 DIV SWAP1 POP PUSH1 0x1 DUP3 AND DUP1 PUSH2 0x469 JUMPI PUSH1 0x7F DUP3 AND SWAP2 POP JUMPDEST PUSH1 0x20 DUP3 LT DUP2 EQ ISZERO PUSH2 0x47D JUMPI PUSH2 0x47C PUSH2 0x4B2 JUMP JUMPDEST JUMPDEST POP SWAP2 SWAP1 POP JUMP JUMPDEST PUSH32 0x4E487B7100000000000000000000000000000000000000000000000000000000 PUSH1 0x0 MSTORE PUSH1 0x21 PUSH1 0x4 MSTORE PUSH1 0x24 PUSH1 0x0 REVERT JUMPDEST PUSH32 0x4E487B7100000000000000000000000000000000000000000000000000000000 PUSH1 0x0 MSTORE PUSH1 0x22 PUSH1 0x4 MSTORE PUSH1 0x24 PUSH1 0x0 REVERT JUMPDEST PUSH1 0x0 DUP1 REVERT JUMPDEST PUSH1 0x0 PUSH1 0x1F NOT PUSH1 0x1F DUP4 ADD AND SWAP1 POP SWAP2 SWAP1 POP JUMP JUMPDEST PUSH1 0x3 DUP2 LT PUSH2 0x508 JUMPI PUSH2 0x507 PUSH2 0x483 JUMP JUMPDEST JUMPDEST POP JUMP JUMPDEST PUSH2 0x514 DUP2 PUSH2 0x402 JUMP JUMPDEST DUP2 EQ PUSH2 0x51F JUMPI PUSH1 0x0 DUP1 REVERT JUMPDEST POP JUMP INVALID LOG2 PUSH5 0x6970667358 0x22 SLT KECCAK256 0x2B DELEGATECALL 0x21 MSIZE DUP2 DUP15 0xF8 0xA9 0xF8 CALL 0xB2 CHAINID MSIZE PUSH20 0xFE7EEFD24210EDD1A2AE6A9B5F437125F3AA6473 PUSH16 0x6C634300080700330000000000000000 "
				},
				"gasEstimates": {
					"creation": {
						"codeDepositCost": "273600",
						"executionCost": "infinite",
						"totalCost": "infinite"
					},
					"external": {
						"candidates(uint256)": "infinite",
						"candidatesCount()": "2407",
						"electionOwner()": "2533",
						"pollingStations(uint256)": "infinite",
						"state()": "2604"
					},
					"internal": {
						"addCandidate(string memory)": "infinite",
						"addPollingStation(uint256,uint256)": "infinite",
						"initCandidates()": "infinite",
						"initPollingStations(uint256)": "infinite"
					}
				},
				"methodIdentifiers": {
					"candidates(uint256)": "3477ee2e",
					"candidatesCount()": "2d35a8a2",
					"electionOwner()": "53357ad0",
					"pollingStations(uint256)": "fe2442d7",
					"state()": "c19d93fb"
				}
			},
			"storageLayout": {
				"storage": [
					{
						"astId": 17,
						"contract": "contracts/ergasia.sol:Election",
						"label": "electionOwner",
						"offset": 0,
						"slot": "0",
						"type": "t_address"
					},
					{
						"astId": 19,
						"contract": "contracts/ergasia.sol:Election",
						"label": "candidatesCount",
						"offset": 0,
						"slot": "1",
						"type": "t_uint256"
					},
					{
						"astId": 22,
						"contract": "contracts/ergasia.sol:Election",
						"label": "numOfPollingStations",
						"offset": 0,
						"slot": "2",
						"type": "t_uint256"
					},
					{
						"astId": 27,
						"contract": "contracts/ergasia.sol:Election",
						"label": "candidates",
						"offset": 0,
						"slot": "3",
						"type": "t_mapping(t_uint256,t_struct(Candidate)8_storage)"
					},
					{
						"astId": 32,
						"contract": "contracts/ergasia.sol:Election",
						"label": "pollingStations",
						"offset": 0,
						"slot": "4",
						"type": "t_mapping(t_uint256,t_struct(PollingStation)15_storage)"
					},
					{
						"astId": 39,
						"contract": "contracts/ergasia.sol:Election",
						"label": "state",
						"offset": 0,
						"slot": "5",
						"type": "t_enum(State)36"
					}
				],
				"types": {
					"t_address": {
						"encoding": "inplace",
						"label": "address",
						"numberOfBytes": "20"
					},
					"t_enum(State)36": {
						"encoding": "inplace",
						"label": "enum Election.State",
						"numberOfBytes": "1"
					},
					"t_mapping(t_uint256,t_struct(Candidate)8_storage)": {
						"encoding": "mapping",
						"key": "t_uint256",
						"label": "mapping(uint256 => struct Election.Candidate)",
						"numberOfBytes": "32",
						"value": "t_struct(Candidate)8_storage"
					},
					"t_mapping(t_uint256,t_struct(PollingStation)15_storage)": {
						"encoding": "mapping",
						"key": "t_uint256",
						"label": "mapping(uint256 => struct Election.PollingStation)",
						"numberOfBytes": "32",
						"value": "t_struct(PollingStation)15_storage"
					},
					"t_string_storage": {
						"encoding": "bytes",
						"label": "string",
						"numberOfBytes": "32"
					},
					"t_struct(Candidate)8_storage": {
						"encoding": "inplace",
						"label": "struct Election.Candidate",
						"members": [
							{
								"astId": 3,
								"contract": "contracts/ergasia.sol:Election",
								"label": "id",
								"offset": 0,
								"slot": "0",
								"type": "t_uint256"
							},
							{
								"astId": 5,
								"contract": "contracts/ergasia.sol:Election",
								"label": "name",
								"offset": 0,
								"slot": "1",
								"type": "t_string_storage"
							},
							{
								"astId": 7,
								"contract": "contracts/ergasia.sol:Election",
								"label": "voteCount",
								"offset": 0,
								"slot": "2",
								"type": "t_uint256"
							}
						],
						"numberOfBytes": "96"
					},
					"t_struct(PollingStation)15_storage": {
						"encoding": "inplace",
						"label": "struct Election.PollingStation",
						"members": [
							{
								"astId": 10,
								"contract": "contracts/ergasia.sol:Election",
								"label": "stationID",
								"offset": 0,
								"slot": "0",
								"type": "t_uint256"
							},
							{
								"astId": 12,
								"contract": "contracts/ergasia.sol:Election",
								"label": "pplRegistered",
								"offset": 0,
								"slot": "1",
								"type": "t_uint256"
							},
							{
								"astId": 14,
								"contract": "contracts/ergasia.sol:Election",
								"label": "votesCasted",
								"offset": 0,
								"slot": "2",
								"type": "t_uint256"
							}
						],
						"numberOfBytes": "96"
					},
					"t_uint256": {
						"encoding": "inplace",
						"label": "uint256",
						"numberOfBytes": "32"
					}
				}
			},
			"userdoc": {
				"kind": "user",
				"methods": {},
				"version": 1
			}
		}
	}
}