{
	"contracts/ergasia.sol": {
		"Election": {
			"abi": [
				{
					"inputs": [],
					"stateMutability": "nonpayable",
					"type": "constructor"
				},
				{
					"anonymous": false,
					"inputs": [
						{
							"indexed": false,
							"internalType": "bool",
							"name": "voted",
							"type": "bool"
						},
						{
							"indexed": false,
							"internalType": "uint256",
							"name": "_choice",
							"type": "uint256"
						},
						{
							"indexed": false,
							"internalType": "uint256",
							"name": "_pollStationID",
							"type": "uint256"
						}
					],
					"name": "VoteCasted",
					"type": "event"
				},
				{
					"inputs": [
						{
							"internalType": "address",
							"name": "_voterAddress",
							"type": "address"
						},
						{
							"internalType": "uint256",
							"name": "_pollingStationID",
							"type": "uint256"
						}
					],
					"name": "addVoter",
					"outputs": [],
					"stateMutability": "nonpayable",
					"type": "function"
				},
				{
					"inputs": [
						{
							"internalType": "uint256",
							"name": "",
							"type": "uint256"
						}
					],
					"name": "candidates",
					"outputs": [
						{
							"internalType": "uint256",
							"name": "id",
							"type": "uint256"
						},
						{
							"internalType": "string",
							"name": "name",
							"type": "string"
						},
						{
							"internalType": "uint256",
							"name": "votes",
							"type": "uint256"
						}
					],
					"stateMutability": "view",
					"type": "function"
				},
				{
					"inputs": [],
					"name": "candidatesCount",
					"outputs": [
						{
							"internalType": "uint256",
							"name": "",
							"type": "uint256"
						}
					],
					"stateMutability": "view",
					"type": "function"
				},
				{
					"inputs": [
						{
							"internalType": "uint256",
							"name": "_choice",
							"type": "uint256"
						},
						{
							"internalType": "uint256",
							"name": "_pollingStationID",
							"type": "uint256"
						}
					],
					"name": "castVote",
					"outputs": [
						{
							"internalType": "bool",
							"name": "voted",
							"type": "bool"
						}
					],
					"stateMutability": "nonpayable",
					"type": "function"
				},
				{
					"inputs": [],
					"name": "electionOwner",
					"outputs": [
						{
							"internalType": "address",
							"name": "",
							"type": "address"
						}
					],
					"stateMutability": "view",
					"type": "function"
				},
				{
					"inputs": [],
					"name": "endVote",
					"outputs": [],
					"stateMutability": "nonpayable",
					"type": "function"
				},
				{
					"inputs": [],
					"name": "finalResult",
					"outputs": [
						{
							"internalType": "uint256",
							"name": "",
							"type": "uint256"
						}
					],
					"stateMutability": "view",
					"type": "function"
				},
				{
					"inputs": [],
					"name": "pollingStationCount",
					"outputs": [
						{
							"internalType": "uint256",
							"name": "",
							"type": "uint256"
						}
					],
					"stateMutability": "view",
					"type": "function"
				},
				{
					"inputs": [
						{
							"internalType": "uint256",
							"name": "",
							"type": "uint256"
						}
					],
					"name": "pollingStations",
					"outputs": [
						{
							"internalType": "uint256",
							"name": "id",
							"type": "uint256"
						},
						{
							"internalType": "string",
							"name": "name",
							"type": "string"
						},
						{
							"internalType": "uint256",
							"name": "votersRegistered",
							"type": "uint256"
						},
						{
							"internalType": "uint256",
							"name": "votesCasted",
							"type": "uint256"
						}
					],
					"stateMutability": "view",
					"type": "function"
				},
				{
					"inputs": [
						{
							"internalType": "uint256",
							"name": "",
							"type": "uint256"
						},
						{
							"internalType": "uint256",
							"name": "",
							"type": "uint256"
						}
					],
					"name": "results",
					"outputs": [
						{
							"internalType": "uint256",
							"name": "id",
							"type": "uint256"
						},
						{
							"internalType": "string",
							"name": "name",
							"type": "string"
						},
						{
							"internalType": "uint256",
							"name": "votes",
							"type": "uint256"
						}
					],
					"stateMutability": "view",
					"type": "function"
				},
				{
					"inputs": [
						{
							"internalType": "uint256",
							"name": "",
							"type": "uint256"
						},
						{
							"internalType": "uint256",
							"name": "",
							"type": "uint256"
						}
					],
					"name": "resultsPerPollingStation",
					"outputs": [
						{
							"internalType": "uint256",
							"name": "id",
							"type": "uint256"
						},
						{
							"internalType": "string",
							"name": "name",
							"type": "string"
						},
						{
							"internalType": "uint256",
							"name": "votes",
							"type": "uint256"
						}
					],
					"stateMutability": "view",
					"type": "function"
				},
				{
					"inputs": [],
					"name": "startVote",
					"outputs": [],
					"stateMutability": "nonpayable",
					"type": "function"
				},
				{
					"inputs": [],
					"name": "state",
					"outputs": [
						{
							"internalType": "enum Election.State",
							"name": "",
							"type": "uint8"
						}
					],
					"stateMutability": "view",
					"type": "function"
				},
				{
					"inputs": [],
					"name": "totalRegisteredVoters",
					"outputs": [
						{
							"internalType": "uint256",
							"name": "",
							"type": "uint256"
						}
					],
					"stateMutability": "view",
					"type": "function"
				},
				{
					"inputs": [
						{
							"internalType": "address",
							"name": "",
							"type": "address"
						}
					],
					"name": "voterRegistry",
					"outputs": [
						{
							"internalType": "bool",
							"name": "isEnrolled",
							"type": "bool"
						},
						{
							"internalType": "bool",
							"name": "hasVoted",
							"type": "bool"
						},
						{
							"internalType": "uint256",
							"name": "choice",
							"type": "uint256"
						},
						{
							"internalType": "uint256",
							"name": "enrolledPollingStationID",
							"type": "uint256"
						},
						{
							"internalType": "uint256",
							"name": "votedPollingStationID",
							"type": "uint256"
						}
					],
					"stateMutability": "view",
					"type": "function"
				},
				{
					"inputs": [
						{
							"internalType": "address",
							"name": "",
							"type": "address"
						}
					],
					"name": "voters",
					"outputs": [
						{
							"internalType": "bool",
							"name": "",
							"type": "bool"
						}
					],
					"stateMutability": "view",
					"type": "function"
				}
			],
			"devdoc": {
				"kind": "dev",
				"methods": {
					"addVoter(address,uint256)": {
						"details": "Adds a voter to the voter registry. May only be called by 'owner'.",
						"params": {
							"_pollingStationID": "polling station ID in which voter is registered.",
							"_voterAddress": "address of voter"
						}
					}
				},
				"version": 1
			},
			"evm": {
				"assembly": "    /* \"contracts/ergasia.sol\":70:8794  contract Election {... */\n  mstore(0x40, 0x80)\n    /* \"contracts/ergasia.sol\":2253:2582  constructor() {... */\n  callvalue\n  dup1\n  iszero\n  tag_1\n  jumpi\n  0x00\n  dup1\n  revert\ntag_1:\n  pop\n    /* \"contracts/ergasia.sol\":2293:2303  msg.sender */\n  caller\n    /* \"contracts/ergasia.sol\":2277:2290  electionOwner */\n  0x00\n  dup1\n    /* \"contracts/ergasia.sol\":2277:2303  electionOwner = msg.sender */\n  0x0100\n  exp\n  dup2\n  sload\n  dup2\n  0xffffffffffffffffffffffffffffffffffffffff\n  mul\n  not\n  and\n  swap1\n  dup4\n  0xffffffffffffffffffffffffffffffffffffffff\n  and\n  mul\n  or\n  swap1\n  sstore\n  pop\n    /* \"contracts/ergasia.sol\":2352:2368  initCandidates() */\n  tag_4\n    /* \"contracts/ergasia.sol\":2352:2366  initCandidates */\n  shl(0x20, tag_5)\n    /* \"contracts/ergasia.sol\":2352:2368  initCandidates() */\n  0x20\n  shr\n  jump\t// in\ntag_4:\n    /* \"contracts/ergasia.sol\":2423:2444  initPollingStations() */\n  tag_6\n    /* \"contracts/ergasia.sol\":2423:2442  initPollingStations */\n  shl(0x20, tag_7)\n    /* \"contracts/ergasia.sol\":2423:2444  initPollingStations() */\n  0x20\n  shr\n  jump\t// in\ntag_6:\n    /* \"contracts/ergasia.sol\":2560:2573  State.Created */\n  0x00\n    /* \"contracts/ergasia.sol\":2552:2557  state */\n  0x0c\n  0x00\n    /* \"contracts/ergasia.sol\":2552:2573  state = State.Created */\n  0x0100\n  exp\n  dup2\n  sload\n  dup2\n  0xff\n  mul\n  not\n  and\n  swap1\n  dup4\n  0x02\n  dup2\n  gt\n  iszero\n  tag_8\n  jumpi\n  tag_9\n  tag_10\n  jump\t// in\ntag_9:\ntag_8:\n  mul\n  or\n  swap1\n  sstore\n  pop\n    /* \"contracts/ergasia.sol\":70:8794  contract Election {... */\n  jump(tag_11)\n    /* \"contracts/ergasia.sol\":2641:2868  function initCandidates() internal {... */\ntag_5:\n    /* \"contracts/ergasia.sol\":2686:2713  addCandidate(\"Candidate 1\") */\n  tag_13\n  mload(0x40)\n  dup1\n  0x40\n  add\n  0x40\n  mstore\n  dup1\n  0x0b\n  dup2\n  mstore\n  0x20\n  add\n  0x43616e6469646174652031000000000000000000000000000000000000000000\n  dup2\n  mstore\n  pop\n    /* \"contracts/ergasia.sol\":2686:2698  addCandidate */\n  shl(0x20, tag_14)\n    /* \"contracts/ergasia.sol\":2686:2713  addCandidate(\"Candidate 1\") */\n  0x20\n  shr\n  jump\t// in\ntag_13:\n    /* \"contracts/ergasia.sol\":2723:2750  addCandidate(\"Candidate 2\") */\n  tag_15\n  mload(0x40)\n  dup1\n  0x40\n  add\n  0x40\n  mstore\n  dup1\n  0x0b\n  dup2\n  mstore\n  0x20\n  add\n  0x43616e6469646174652032000000000000000000000000000000000000000000\n  dup2\n  mstore\n  pop\n    /* \"contracts/ergasia.sol\":2723:2735  addCandidate */\n  shl(0x20, tag_14)\n    /* \"contracts/ergasia.sol\":2723:2750  addCandidate(\"Candidate 2\") */\n  0x20\n  shr\n  jump\t// in\ntag_15:\n    /* \"contracts/ergasia.sol\":2760:2787  addCandidate(\"Candidate 3\") */\n  tag_16\n  mload(0x40)\n  dup1\n  0x40\n  add\n  0x40\n  mstore\n  dup1\n  0x0b\n  dup2\n  mstore\n  0x20\n  add\n  0x43616e6469646174652033000000000000000000000000000000000000000000\n  dup2\n  mstore\n  pop\n    /* \"contracts/ergasia.sol\":2760:2772  addCandidate */\n  shl(0x20, tag_14)\n    /* \"contracts/ergasia.sol\":2760:2787  addCandidate(\"Candidate 3\") */\n  0x20\n  shr\n  jump\t// in\ntag_16:\n    /* \"contracts/ergasia.sol\":2797:2824  addCandidate(\"Candidate 4\") */\n  tag_17\n  mload(0x40)\n  dup1\n  0x40\n  add\n  0x40\n  mstore\n  dup1\n  0x0b\n  dup2\n  mstore\n  0x20\n  add\n  0x43616e6469646174652034000000000000000000000000000000000000000000\n  dup2\n  mstore\n  pop\n    /* \"contracts/ergasia.sol\":2797:2809  addCandidate */\n  shl(0x20, tag_14)\n    /* \"contracts/ergasia.sol\":2797:2824  addCandidate(\"Candidate 4\") */\n  0x20\n  shr\n  jump\t// in\ntag_17:\n    /* \"contracts/ergasia.sol\":2834:2861  addCandidate(\"Candidate 5\") */\n  tag_18\n  mload(0x40)\n  dup1\n  0x40\n  add\n  0x40\n  mstore\n  dup1\n  0x0b\n  dup2\n  mstore\n  0x20\n  add\n  0x43616e6469646174652035000000000000000000000000000000000000000000\n  dup2\n  mstore\n  pop\n    /* \"contracts/ergasia.sol\":2834:2846  addCandidate */\n  shl(0x20, tag_14)\n    /* \"contracts/ergasia.sol\":2834:2861  addCandidate(\"Candidate 5\") */\n  0x20\n  shr\n  jump\t// in\ntag_18:\n    /* \"contracts/ergasia.sol\":2641:2868  function initCandidates() internal {... */\n  jump\t// out\n    /* \"contracts/ergasia.sol\":3211:3739  function initPollingStations() internal {... */\ntag_7:\n    /* \"contracts/ergasia.sol\":3261:3299  addPollingStation(\"Polling Station 1\") */\n  tag_20\n  mload(0x40)\n  dup1\n  0x40\n  add\n  0x40\n  mstore\n  dup1\n  0x11\n  dup2\n  mstore\n  0x20\n  add\n  0x506f6c6c696e672053746174696f6e2031000000000000000000000000000000\n  dup2\n  mstore\n  pop\n    /* \"contracts/ergasia.sol\":3261:3278  addPollingStation */\n  shl(0x20, tag_21)\n    /* \"contracts/ergasia.sol\":3261:3299  addPollingStation(\"Polling Station 1\") */\n  0x20\n  shr\n  jump\t// in\ntag_20:\n    /* \"contracts/ergasia.sol\":3309:3347  addPollingStation(\"Polling Station 2\") */\n  tag_22\n  mload(0x40)\n  dup1\n  0x40\n  add\n  0x40\n  mstore\n  dup1\n  0x11\n  dup2\n  mstore\n  0x20\n  add\n  0x506f6c6c696e672053746174696f6e2032000000000000000000000000000000\n  dup2\n  mstore\n  pop\n    /* \"contracts/ergasia.sol\":3309:3326  addPollingStation */\n  shl(0x20, tag_21)\n    /* \"contracts/ergasia.sol\":3309:3347  addPollingStation(\"Polling Station 2\") */\n  0x20\n  shr\n  jump\t// in\ntag_22:\n    /* \"contracts/ergasia.sol\":3357:3395  addPollingStation(\"Polling Station 3\") */\n  tag_23\n  mload(0x40)\n  dup1\n  0x40\n  add\n  0x40\n  mstore\n  dup1\n  0x11\n  dup2\n  mstore\n  0x20\n  add\n  0x506f6c6c696e672053746174696f6e2033000000000000000000000000000000\n  dup2\n  mstore\n  pop\n    /* \"contracts/ergasia.sol\":3357:3374  addPollingStation */\n  shl(0x20, tag_21)\n    /* \"contracts/ergasia.sol\":3357:3395  addPollingStation(\"Polling Station 3\") */\n  0x20\n  shr\n  jump\t// in\ntag_23:\n    /* \"contracts/ergasia.sol\":3405:3443  addPollingStation(\"Polling Station 4\") */\n  tag_24\n  mload(0x40)\n  dup1\n  0x40\n  add\n  0x40\n  mstore\n  dup1\n  0x11\n  dup2\n  mstore\n  0x20\n  add\n  0x506f6c6c696e672053746174696f6e2034000000000000000000000000000000\n  dup2\n  mstore\n  pop\n    /* \"contracts/ergasia.sol\":3405:3422  addPollingStation */\n  shl(0x20, tag_21)\n    /* \"contracts/ergasia.sol\":3405:3443  addPollingStation(\"Polling Station 4\") */\n  0x20\n  shr\n  jump\t// in\ntag_24:\n    /* \"contracts/ergasia.sol\":3453:3491  addPollingStation(\"Polling Station 5\") */\n  tag_25\n  mload(0x40)\n  dup1\n  0x40\n  add\n  0x40\n  mstore\n  dup1\n  0x11\n  dup2\n  mstore\n  0x20\n  add\n  0x506f6c6c696e672053746174696f6e2035000000000000000000000000000000\n  dup2\n  mstore\n  pop\n    /* \"contracts/ergasia.sol\":3453:3470  addPollingStation */\n  shl(0x20, tag_21)\n    /* \"contracts/ergasia.sol\":3453:3491  addPollingStation(\"Polling Station 5\") */\n  0x20\n  shr\n  jump\t// in\ntag_25:\n    /* \"contracts/ergasia.sol\":3501:3539  addPollingStation(\"Polling Station 6\") */\n  tag_26\n  mload(0x40)\n  dup1\n  0x40\n  add\n  0x40\n  mstore\n  dup1\n  0x11\n  dup2\n  mstore\n  0x20\n  add\n  0x506f6c6c696e672053746174696f6e2036000000000000000000000000000000\n  dup2\n  mstore\n  pop\n    /* \"contracts/ergasia.sol\":3501:3518  addPollingStation */\n  shl(0x20, tag_21)\n    /* \"contracts/ergasia.sol\":3501:3539  addPollingStation(\"Polling Station 6\") */\n  0x20\n  shr\n  jump\t// in\ntag_26:\n    /* \"contracts/ergasia.sol\":3549:3587  addPollingStation(\"Polling Station 7\") */\n  tag_27\n  mload(0x40)\n  dup1\n  0x40\n  add\n  0x40\n  mstore\n  dup1\n  0x11\n  dup2\n  mstore\n  0x20\n  add\n  0x506f6c6c696e672053746174696f6e2037000000000000000000000000000000\n  dup2\n  mstore\n  pop\n    /* \"contracts/ergasia.sol\":3549:3566  addPollingStation */\n  shl(0x20, tag_21)\n    /* \"contracts/ergasia.sol\":3549:3587  addPollingStation(\"Polling Station 7\") */\n  0x20\n  shr\n  jump\t// in\ntag_27:\n    /* \"contracts/ergasia.sol\":3597:3635  addPollingStation(\"Polling Station 8\") */\n  tag_28\n  mload(0x40)\n  dup1\n  0x40\n  add\n  0x40\n  mstore\n  dup1\n  0x11\n  dup2\n  mstore\n  0x20\n  add\n  0x506f6c6c696e672053746174696f6e2038000000000000000000000000000000\n  dup2\n  mstore\n  pop\n    /* \"contracts/ergasia.sol\":3597:3614  addPollingStation */\n  shl(0x20, tag_21)\n    /* \"contracts/ergasia.sol\":3597:3635  addPollingStation(\"Polling Station 8\") */\n  0x20\n  shr\n  jump\t// in\ntag_28:\n    /* \"contracts/ergasia.sol\":3645:3683  addPollingStation(\"Polling Station 9\") */\n  tag_29\n  mload(0x40)\n  dup1\n  0x40\n  add\n  0x40\n  mstore\n  dup1\n  0x11\n  dup2\n  mstore\n  0x20\n  add\n  0x506f6c6c696e672053746174696f6e2039000000000000000000000000000000\n  dup2\n  mstore\n  pop\n    /* \"contracts/ergasia.sol\":3645:3662  addPollingStation */\n  shl(0x20, tag_21)\n    /* \"contracts/ergasia.sol\":3645:3683  addPollingStation(\"Polling Station 9\") */\n  0x20\n  shr\n  jump\t// in\ntag_29:\n    /* \"contracts/ergasia.sol\":3693:3732  addPollingStation(\"Polling Station 10\") */\n  tag_30\n  mload(0x40)\n  dup1\n  0x40\n  add\n  0x40\n  mstore\n  dup1\n  0x12\n  dup2\n  mstore\n  0x20\n  add\n  0x506f6c6c696e672053746174696f6e2031300000000000000000000000000000\n  dup2\n  mstore\n  pop\n    /* \"contracts/ergasia.sol\":3693:3710  addPollingStation */\n  shl(0x20, tag_21)\n    /* \"contracts/ergasia.sol\":3693:3732  addPollingStation(\"Polling Station 10\") */\n  0x20\n  shr\n  jump\t// in\ntag_30:\n    /* \"contracts/ergasia.sol\":3211:3739  function initPollingStations() internal {... */\n  jump\t// out\n    /* \"contracts/ergasia.sol\":2988:3150  function addCandidate (string memory _name) private {... */\ntag_14:\n    /* \"contracts/ergasia.sol\":3050:3065  candidatesCount */\n  0x01\n  0x00\n    /* \"contracts/ergasia.sol\":3050:3067  candidatesCount++ */\n  dup2\n  sload\n  dup1\n  swap3\n  swap2\n  swap1\n  tag_32\n  swap1\n  tag_33\n  jump\t// in\ntag_32:\n  swap2\n  swap1\n  pop\n  sstore\n  pop\n    /* \"contracts/ergasia.sol\":3107:3143  Candidate(candidatesCount, _name, 0) */\n  mload(0x40)\n  dup1\n  0x60\n  add\n  0x40\n  mstore\n  dup1\n    /* \"contracts/ergasia.sol\":3117:3132  candidatesCount */\n  sload(0x01)\n    /* \"contracts/ergasia.sol\":3107:3143  Candidate(candidatesCount, _name, 0) */\n  dup2\n  mstore\n  0x20\n  add\n    /* \"contracts/ergasia.sol\":3134:3139  _name */\n  dup3\n    /* \"contracts/ergasia.sol\":3107:3143  Candidate(candidatesCount, _name, 0) */\n  dup2\n  mstore\n  0x20\n  add\n    /* \"contracts/ergasia.sol\":3141:3142  0 */\n  0x00\n    /* \"contracts/ergasia.sol\":3107:3143  Candidate(candidatesCount, _name, 0) */\n  dup2\n  mstore\n  pop\n    /* \"contracts/ergasia.sol\":3077:3087  candidates */\n  0x07\n    /* \"contracts/ergasia.sol\":3077:3104  candidates[candidatesCount] */\n  0x00\n    /* \"contracts/ergasia.sol\":3088:3103  candidatesCount */\n  sload(0x01)\n    /* \"contracts/ergasia.sol\":3077:3104  candidates[candidatesCount] */\n  dup2\n  mstore\n  0x20\n  add\n  swap1\n  dup2\n  mstore\n  0x20\n  add\n  0x00\n  keccak256\n    /* \"contracts/ergasia.sol\":3077:3143  candidates[candidatesCount] = Candidate(candidatesCount, _name, 0) */\n  0x00\n  dup3\n  add\n  mload\n  dup2\n  0x00\n  add\n  sstore\n  0x20\n  dup3\n  add\n  mload\n  dup2\n  0x01\n  add\n  swap1\n  dup1\n  mload\n  swap1\n  0x20\n  add\n  swap1\n  tag_34\n  swap3\n  swap2\n  swap1\n  tag_35\n  jump\t// in\ntag_34:\n  pop\n  0x40\n  dup3\n  add\n  mload\n  dup2\n  0x02\n  add\n  sstore\n  swap1\n  pop\n  pop\n    /* \"contracts/ergasia.sol\":2988:3150  function addCandidate (string memory _name) private {... */\n  pop\n  jump\t// out\n    /* \"contracts/ergasia.sol\":3862:4054  function addPollingStation (string memory _name) private {... */\ntag_21:\n    /* \"contracts/ergasia.sol\":3929:3948  pollingStationCount */\n  0x02\n  0x00\n    /* \"contracts/ergasia.sol\":3929:3950  pollingStationCount++ */\n  dup2\n  sload\n  dup1\n  swap3\n  swap2\n  swap1\n  tag_37\n  swap1\n  tag_33\n  jump\t// in\ntag_37:\n  swap2\n  swap1\n  pop\n  sstore\n  pop\n    /* \"contracts/ergasia.sol\":3999:4047  PollingStation(pollingStationCount, _name, 0, 0) */\n  mload(0x40)\n  dup1\n  0x80\n  add\n  0x40\n  mstore\n  dup1\n    /* \"contracts/ergasia.sol\":4014:4033  pollingStationCount */\n  sload(0x02)\n    /* \"contracts/ergasia.sol\":3999:4047  PollingStation(pollingStationCount, _name, 0, 0) */\n  dup2\n  mstore\n  0x20\n  add\n    /* \"contracts/ergasia.sol\":4035:4040  _name */\n  dup3\n    /* \"contracts/ergasia.sol\":3999:4047  PollingStation(pollingStationCount, _name, 0, 0) */\n  dup2\n  mstore\n  0x20\n  add\n    /* \"contracts/ergasia.sol\":4042:4043  0 */\n  0x00\n    /* \"contracts/ergasia.sol\":3999:4047  PollingStation(pollingStationCount, _name, 0, 0) */\n  dup2\n  mstore\n  0x20\n  add\n    /* \"contracts/ergasia.sol\":4045:4046  0 */\n  0x00\n    /* \"contracts/ergasia.sol\":3999:4047  PollingStation(pollingStationCount, _name, 0, 0) */\n  dup2\n  mstore\n  pop\n    /* \"contracts/ergasia.sol\":3960:3975  pollingStations */\n  0x08\n    /* \"contracts/ergasia.sol\":3960:3996  pollingStations[pollingStationCount] */\n  0x00\n    /* \"contracts/ergasia.sol\":3976:3995  pollingStationCount */\n  sload(0x02)\n    /* \"contracts/ergasia.sol\":3960:3996  pollingStations[pollingStationCount] */\n  dup2\n  mstore\n  0x20\n  add\n  swap1\n  dup2\n  mstore\n  0x20\n  add\n  0x00\n  keccak256\n    /* \"contracts/ergasia.sol\":3960:4047  pollingStations[pollingStationCount] = PollingStation(pollingStationCount, _name, 0, 0) */\n  0x00\n  dup3\n  add\n  mload\n  dup2\n  0x00\n  add\n  sstore\n  0x20\n  dup3\n  add\n  mload\n  dup2\n  0x01\n  add\n  swap1\n  dup1\n  mload\n  swap1\n  0x20\n  add\n  swap1\n  tag_38\n  swap3\n  swap2\n  swap1\n  tag_35\n  jump\t// in\ntag_38:\n  pop\n  0x40\n  dup3\n  add\n  mload\n  dup2\n  0x02\n  add\n  sstore\n  0x60\n  dup3\n  add\n  mload\n  dup2\n  0x03\n  add\n  sstore\n  swap1\n  pop\n  pop\n    /* \"contracts/ergasia.sol\":3862:4054  function addPollingStation (string memory _name) private {... */\n  pop\n  jump\t// out\n    /* \"contracts/ergasia.sol\":70:8794  contract Election {... */\ntag_35:\n  dup3\n  dup1\n  sload\n  tag_39\n  swap1\n  tag_40\n  jump\t// in\ntag_39:\n  swap1\n  0x00\n  mstore\n  keccak256(0x00, 0x20)\n  swap1\n  0x1f\n  add\n  0x20\n  swap1\n  div\n  dup2\n  add\n  swap3\n  dup3\n  tag_42\n  jumpi\n  0x00\n  dup6\n  sstore\n  jump(tag_41)\ntag_42:\n  dup3\n  0x1f\n  lt\n  tag_43\n  jumpi\n  dup1\n  mload\n  not(0xff)\n  and\n  dup4\n  dup1\n  add\n  or\n  dup6\n  sstore\n  jump(tag_41)\ntag_43:\n  dup3\n  dup1\n  add\n  0x01\n  add\n  dup6\n  sstore\n  dup3\n  iszero\n  tag_41\n  jumpi\n  swap2\n  dup3\n  add\ntag_44:\n  dup3\n  dup2\n  gt\n  iszero\n  tag_45\n  jumpi\n  dup3\n  mload\n  dup3\n  sstore\n  swap2\n  0x20\n  add\n  swap2\n  swap1\n  0x01\n  add\n  swap1\n  jump(tag_44)\ntag_45:\ntag_41:\n  pop\n  swap1\n  pop\n  tag_46\n  swap2\n  swap1\n  tag_47\n  jump\t// in\ntag_46:\n  pop\n  swap1\n  jump\t// out\ntag_47:\ntag_48:\n  dup1\n  dup3\n  gt\n  iszero\n  tag_49\n  jumpi\n  0x00\n  dup2\n  0x00\n  swap1\n  sstore\n  pop\n  0x01\n  add\n  jump(tag_48)\ntag_49:\n  pop\n  swap1\n  jump\t// out\n    /* \"#utility.yul\":7:84   */\ntag_51:\n    /* \"#utility.yul\":44:51   */\n  0x00\n    /* \"#utility.yul\":73:78   */\n  dup2\n    /* \"#utility.yul\":62:78   */\n  swap1\n  pop\n    /* \"#utility.yul\":7:84   */\n  swap2\n  swap1\n  pop\n  jump\t// out\n    /* \"#utility.yul\":90:410   */\ntag_40:\n    /* \"#utility.yul\":134:140   */\n  0x00\n    /* \"#utility.yul\":171:172   */\n  0x02\n    /* \"#utility.yul\":165:169   */\n  dup3\n    /* \"#utility.yul\":161:173   */\n  div\n    /* \"#utility.yul\":151:173   */\n  swap1\n  pop\n    /* \"#utility.yul\":218:219   */\n  0x01\n    /* \"#utility.yul\":212:216   */\n  dup3\n    /* \"#utility.yul\":208:220   */\n  and\n    /* \"#utility.yul\":239:257   */\n  dup1\n    /* \"#utility.yul\":229:310   */\n  tag_54\n  jumpi\n    /* \"#utility.yul\":295:299   */\n  0x7f\n    /* \"#utility.yul\":287:293   */\n  dup3\n    /* \"#utility.yul\":283:300   */\n  and\n    /* \"#utility.yul\":273:300   */\n  swap2\n  pop\n    /* \"#utility.yul\":229:310   */\ntag_54:\n    /* \"#utility.yul\":357:359   */\n  0x20\n    /* \"#utility.yul\":349:355   */\n  dup3\n    /* \"#utility.yul\":346:360   */\n  lt\n    /* \"#utility.yul\":326:344   */\n  dup2\n    /* \"#utility.yul\":323:361   */\n  eq\n    /* \"#utility.yul\":320:404   */\n  iszero\n  tag_55\n  jumpi\n    /* \"#utility.yul\":376:394   */\n  tag_56\n  tag_57\n  jump\t// in\ntag_56:\n    /* \"#utility.yul\":320:404   */\ntag_55:\n    /* \"#utility.yul\":141:410   */\n  pop\n    /* \"#utility.yul\":90:410   */\n  swap2\n  swap1\n  pop\n  jump\t// out\n    /* \"#utility.yul\":416:649   */\ntag_33:\n    /* \"#utility.yul\":455:458   */\n  0x00\n    /* \"#utility.yul\":478:502   */\n  tag_59\n    /* \"#utility.yul\":496:501   */\n  dup3\n    /* \"#utility.yul\":478:502   */\n  tag_51\n  jump\t// in\ntag_59:\n    /* \"#utility.yul\":469:502   */\n  swap2\n  pop\n    /* \"#utility.yul\":524:590   */\n  0xffffffffffffffffffffffffffffffffffffffffffffffffffffffffffffffff\n    /* \"#utility.yul\":517:522   */\n  dup3\n    /* \"#utility.yul\":514:591   */\n  eq\n    /* \"#utility.yul\":511:614   */\n  iszero\n  tag_60\n  jumpi\n    /* \"#utility.yul\":594:612   */\n  tag_61\n  tag_62\n  jump\t// in\ntag_61:\n    /* \"#utility.yul\":511:614   */\ntag_60:\n    /* \"#utility.yul\":641:642   */\n  0x01\n    /* \"#utility.yul\":634:639   */\n  dup3\n    /* \"#utility.yul\":630:643   */\n  add\n    /* \"#utility.yul\":623:643   */\n  swap1\n  pop\n    /* \"#utility.yul\":416:649   */\n  swap2\n  swap1\n  pop\n  jump\t// out\n    /* \"#utility.yul\":655:835   */\ntag_62:\n    /* \"#utility.yul\":703:780   */\n  0x4e487b7100000000000000000000000000000000000000000000000000000000\n    /* \"#utility.yul\":700:701   */\n  0x00\n    /* \"#utility.yul\":693:781   */\n  mstore\n    /* \"#utility.yul\":800:804   */\n  0x11\n    /* \"#utility.yul\":797:798   */\n  0x04\n    /* \"#utility.yul\":790:805   */\n  mstore\n    /* \"#utility.yul\":824:828   */\n  0x24\n    /* \"#utility.yul\":821:822   */\n  0x00\n    /* \"#utility.yul\":814:829   */\n  revert\n    /* \"#utility.yul\":841:1021   */\ntag_10:\n    /* \"#utility.yul\":889:966   */\n  0x4e487b7100000000000000000000000000000000000000000000000000000000\n    /* \"#utility.yul\":886:887   */\n  0x00\n    /* \"#utility.yul\":879:967   */\n  mstore\n    /* \"#utility.yul\":986:990   */\n  0x21\n    /* \"#utility.yul\":983:984   */\n  0x04\n    /* \"#utility.yul\":976:991   */\n  mstore\n    /* \"#utility.yul\":1010:1014   */\n  0x24\n    /* \"#utility.yul\":1007:1008   */\n  0x00\n    /* \"#utility.yul\":1000:1015   */\n  revert\n    /* \"#utility.yul\":1027:1207   */\ntag_57:\n    /* \"#utility.yul\":1075:1152   */\n  0x4e487b7100000000000000000000000000000000000000000000000000000000\n    /* \"#utility.yul\":1072:1073   */\n  0x00\n    /* \"#utility.yul\":1065:1153   */\n  mstore\n    /* \"#utility.yul\":1172:1176   */\n  0x22\n    /* \"#utility.yul\":1169:1170   */\n  0x04\n    /* \"#utility.yul\":1162:1177   */\n  mstore\n    /* \"#utility.yul\":1196:1200   */\n  0x24\n    /* \"#utility.yul\":1193:1194   */\n  0x00\n    /* \"#utility.yul\":1186:1201   */\n  revert\n    /* \"contracts/ergasia.sol\":70:8794  contract Election {... */\ntag_11:\n  dataSize(sub_0)\n  dup1\n  dataOffset(sub_0)\n  0x00\n  codecopy\n  0x00\n  return\nstop\n\nsub_0: assembly {\n        /* \"contracts/ergasia.sol\":70:8794  contract Election {... */\n      mstore(0x40, 0x80)\n      callvalue\n      dup1\n      iszero\n      tag_1\n      jumpi\n      0x00\n      dup1\n      revert\n    tag_1:\n      pop\n      jumpi(tag_2, lt(calldatasize, 0x04))\n      shr(0xe0, calldataload(0x00))\n      dup1\n      0xb54b5d62\n      gt\n      tag_19\n      jumpi\n      dup1\n      0xd70c6f4e\n      gt\n      tag_20\n      jumpi\n      dup1\n      0xd70c6f4e\n      eq\n      tag_15\n      jumpi\n      dup1\n      0xdf9f1a07\n      eq\n      tag_16\n      jumpi\n      dup1\n      0xf3a8286f\n      eq\n      tag_17\n      jumpi\n      dup1\n      0xfe2442d7\n      eq\n      tag_18\n      jumpi\n      jump(tag_2)\n    tag_20:\n      dup1\n      0xb54b5d62\n      eq\n      tag_11\n      jumpi\n      dup1\n      0xb9223946\n      eq\n      tag_12\n      jumpi\n      dup1\n      0xb9f05f2f\n      eq\n      tag_13\n      jumpi\n      dup1\n      0xc19d93fb\n      eq\n      tag_14\n      jumpi\n      jump(tag_2)\n    tag_19:\n      dup1\n      0x4763d4e7\n      gt\n      tag_21\n      jumpi\n      dup1\n      0x4763d4e7\n      eq\n      tag_7\n      jumpi\n      dup1\n      0x4c0a6af0\n      eq\n      tag_8\n      jumpi\n      dup1\n      0x53357ad0\n      eq\n      tag_9\n      jumpi\n      dup1\n      0xa3ec138d\n      eq\n      tag_10\n      jumpi\n      jump(tag_2)\n    tag_21:\n      dup1\n      0xaa7464\n      eq\n      tag_3\n      jumpi\n      dup1\n      0x2c0a3f89\n      eq\n      tag_4\n      jumpi\n      dup1\n      0x2d35a8a2\n      eq\n      tag_5\n      jumpi\n      dup1\n      0x3477ee2e\n      eq\n      tag_6\n      jumpi\n    tag_2:\n      0x00\n      dup1\n      revert\n        /* \"contracts/ergasia.sol\":1363:1396  uint public totalRegisteredVoters */\n    tag_3:\n      tag_22\n      tag_23\n      jump\t// in\n    tag_22:\n      mload(0x40)\n      tag_24\n      swap2\n      swap1\n      tag_25\n      jump\t// in\n    tag_24:\n      mload(0x40)\n      dup1\n      swap2\n      sub\n      swap1\n      return\n        /* \"contracts/ergasia.sol\":6882:7680  function castVote(uint _choice, uint _pollingStationID) public inState(State.Voting) returns (bool voted) {... */\n    tag_4:\n      tag_26\n      0x04\n      dup1\n      calldatasize\n      sub\n      dup2\n      add\n      swap1\n      tag_27\n      swap2\n      swap1\n      tag_28\n      jump\t// in\n    tag_27:\n      tag_29\n      jump\t// in\n    tag_26:\n      mload(0x40)\n      tag_30\n      swap2\n      swap1\n      tag_31\n      jump\t// in\n    tag_30:\n      mload(0x40)\n      dup1\n      swap2\n      sub\n      swap1\n      return\n        /* \"contracts/ergasia.sol\":1221:1248  uint public candidatesCount */\n    tag_5:\n      tag_32\n      tag_33\n      jump\t// in\n    tag_32:\n      mload(0x40)\n      tag_34\n      swap2\n      swap1\n      tag_25\n      jump\t// in\n    tag_34:\n      mload(0x40)\n      dup1\n      swap2\n      sub\n      swap1\n      return\n        /* \"contracts/ergasia.sol\":1600:1644  mapping(uint => Candidate) public candidates */\n    tag_6:\n      tag_35\n      0x04\n      dup1\n      calldatasize\n      sub\n      dup2\n      add\n      swap1\n      tag_36\n      swap2\n      swap1\n      tag_37\n      jump\t// in\n    tag_36:\n      tag_38\n      jump\t// in\n    tag_35:\n      mload(0x40)\n      tag_39\n      swap4\n      swap3\n      swap2\n      swap1\n      tag_40\n      jump\t// in\n    tag_39:\n      mload(0x40)\n      dup1\n      swap2\n      sub\n      swap1\n      return\n        /* \"contracts/ergasia.sol\":1758:1804  mapping(address => Voter) public voterRegistry */\n    tag_7:\n      tag_41\n      0x04\n      dup1\n      calldatasize\n      sub\n      dup2\n      add\n      swap1\n      tag_42\n      swap2\n      swap1\n      tag_43\n      jump\t// in\n    tag_42:\n      tag_44\n      jump\t// in\n    tag_41:\n      mload(0x40)\n      tag_45\n      swap6\n      swap5\n      swap4\n      swap3\n      swap2\n      swap1\n      tag_46\n      jump\t// in\n    tag_45:\n      mload(0x40)\n      dup1\n      swap2\n      sub\n      swap1\n      return\n        /* \"contracts/ergasia.sol\":6782:6876  function startVote() public inState(State.Created) Owner {... */\n    tag_8:\n      tag_47\n      tag_48\n      jump\t// in\n    tag_47:\n      stop\n        /* \"contracts/ergasia.sol\":1187:1215  address public electionOwner */\n    tag_9:\n      tag_49\n      tag_50\n      jump\t// in\n    tag_49:\n      mload(0x40)\n      tag_51\n      swap2\n      swap1\n      tag_52\n      jump\t// in\n    tag_51:\n      mload(0x40)\n      dup1\n      swap2\n      sub\n      swap1\n      return\n        /* \"contracts/ergasia.sol\":1810:1848  mapping(address => bool) public voters */\n    tag_10:\n      tag_53\n      0x04\n      dup1\n      calldatasize\n      sub\n      dup2\n      add\n      swap1\n      tag_54\n      swap2\n      swap1\n      tag_43\n      jump\t// in\n    tag_54:\n      tag_55\n      jump\t// in\n    tag_53:\n      mload(0x40)\n      tag_56\n      swap2\n      swap1\n      tag_31\n      jump\t// in\n    tag_56:\n      mload(0x40)\n      dup1\n      swap2\n      sub\n      swap1\n      return\n        /* \"contracts/ergasia.sol\":1854:1929  mapping(uint => mapping(uint => Candidate)) public resultsPerPollingStation */\n    tag_11:\n      tag_57\n      0x04\n      dup1\n      calldatasize\n      sub\n      dup2\n      add\n      swap1\n      tag_58\n      swap2\n      swap1\n      tag_28\n      jump\t// in\n    tag_58:\n      tag_59\n      jump\t// in\n    tag_57:\n      mload(0x40)\n      tag_60\n      swap4\n      swap3\n      swap2\n      swap1\n      tag_40\n      jump\t// in\n    tag_60:\n      mload(0x40)\n      dup1\n      swap2\n      sub\n      swap1\n      return\n        /* \"contracts/ergasia.sol\":8192:8318  function endVote() public inState(State.Voting) Owner { ... */\n    tag_12:\n      tag_61\n      tag_62\n      jump\t// in\n    tag_61:\n      stop\n        /* \"contracts/ergasia.sol\":5328:6248  function addVoter(address _voterAddress, uint _pollingStationID) public inState(State.Created) Owner {... */\n    tag_13:\n      tag_63\n      0x04\n      dup1\n      calldatasize\n      sub\n      dup2\n      add\n      swap1\n      tag_64\n      swap2\n      swap1\n      tag_65\n      jump\t// in\n    tag_64:\n      tag_66\n      jump\t// in\n    tag_63:\n      stop\n        /* \"contracts/ergasia.sol\":1982:2000  State public state */\n    tag_14:\n      tag_67\n      tag_68\n      jump\t// in\n    tag_67:\n      mload(0x40)\n      tag_69\n      swap2\n      swap1\n      tag_70\n      jump\t// in\n    tag_69:\n      mload(0x40)\n      dup1\n      swap2\n      sub\n      swap1\n      return\n        /* \"contracts/ergasia.sol\":1565:1593  Candidate[][] public results */\n    tag_15:\n      tag_71\n      0x04\n      dup1\n      calldatasize\n      sub\n      dup2\n      add\n      swap1\n      tag_72\n      swap2\n      swap1\n      tag_28\n      jump\t// in\n    tag_72:\n      tag_73\n      jump\t// in\n    tag_71:\n      mload(0x40)\n      tag_74\n      swap4\n      swap3\n      swap2\n      swap1\n      tag_40\n      jump\t// in\n    tag_74:\n      mload(0x40)\n      dup1\n      swap2\n      sub\n      swap1\n      return\n        /* \"contracts/ergasia.sol\":1289:1320  uint public pollingStationCount */\n    tag_16:\n      tag_75\n      tag_76\n      jump\t// in\n    tag_75:\n      mload(0x40)\n      tag_77\n      swap2\n      swap1\n      tag_25\n      jump\t// in\n    tag_77:\n      mload(0x40)\n      dup1\n      swap2\n      sub\n      swap1\n      return\n        /* \"contracts/ergasia.sol\":1484:1507  uint public finalResult */\n    tag_17:\n      tag_78\n      tag_79\n      jump\t// in\n    tag_78:\n      mload(0x40)\n      tag_80\n      swap2\n      swap1\n      tag_25\n      jump\t// in\n    tag_80:\n      mload(0x40)\n      dup1\n      swap2\n      sub\n      swap1\n      return\n        /* \"contracts/ergasia.sol\":1674:1728  mapping(uint => PollingStation) public pollingStations */\n    tag_18:\n      tag_81\n      0x04\n      dup1\n      calldatasize\n      sub\n      dup2\n      add\n      swap1\n      tag_82\n      swap2\n      swap1\n      tag_37\n      jump\t// in\n    tag_82:\n      tag_83\n      jump\t// in\n    tag_81:\n      mload(0x40)\n      tag_84\n      swap5\n      swap4\n      swap3\n      swap2\n      swap1\n      tag_85\n      jump\t// in\n    tag_84:\n      mload(0x40)\n      dup1\n      swap2\n      sub\n      swap1\n      return\n        /* \"contracts/ergasia.sol\":1363:1396  uint public totalRegisteredVoters */\n    tag_23:\n      sload(0x03)\n      dup2\n      jump\t// out\n        /* \"contracts/ergasia.sol\":6882:7680  function castVote(uint _choice, uint _pollingStationID) public inState(State.Voting) returns (bool voted) {... */\n    tag_29:\n        /* \"contracts/ergasia.sol\":6976:6986  bool voted */\n      0x00\n        /* \"contracts/ergasia.sol\":6953:6965  State.Voting */\n      0x01\n        /* \"contracts/ergasia.sol\":2152:2158  _state */\n      dup1\n        /* \"contracts/ergasia.sol\":2143:2158  state == _state */\n      0x02\n      dup2\n      gt\n      iszero\n      tag_87\n      jumpi\n      tag_88\n      tag_89\n      jump\t// in\n    tag_88:\n    tag_87:\n        /* \"contracts/ergasia.sol\":2143:2148  state */\n      0x0c\n      0x00\n      swap1\n      sload\n      swap1\n      0x0100\n      exp\n      swap1\n      div\n      0xff\n      and\n        /* \"contracts/ergasia.sol\":2143:2158  state == _state */\n      0x02\n      dup2\n      gt\n      iszero\n      tag_90\n      jumpi\n      tag_91\n      tag_89\n      jump\t// in\n    tag_91:\n    tag_90:\n      eq\n        /* \"contracts/ergasia.sol\":2135:2159  require(state == _state) */\n      tag_92\n      jumpi\n      0x00\n      dup1\n      revert\n    tag_92:\n        /* \"contracts/ergasia.sol\":6999:7009  bool found */\n      0x00\n        /* \"contracts/ergasia.sol\":7032:7045  voterRegistry */\n      0x09\n        /* \"contracts/ergasia.sol\":7032:7057  voterRegistry[msg.sender] */\n      0x00\n        /* \"contracts/ergasia.sol\":7046:7056  msg.sender */\n      caller\n        /* \"contracts/ergasia.sol\":7032:7057  voterRegistry[msg.sender] */\n      0xffffffffffffffffffffffffffffffffffffffff\n      and\n      0xffffffffffffffffffffffffffffffffffffffff\n      and\n      dup2\n      mstore\n      0x20\n      add\n      swap1\n      dup2\n      mstore\n      0x20\n      add\n      0x00\n      keccak256\n        /* \"contracts/ergasia.sol\":7032:7068  voterRegistry[msg.sender].isEnrolled */\n      0x00\n      add\n      0x00\n      swap1\n      sload\n      swap1\n      0x0100\n      exp\n      swap1\n      div\n      0xff\n      and\n        /* \"contracts/ergasia.sol\":7032:7107  voterRegistry[msg.sender].isEnrolled && !voterRegistry[msg.sender].hasVoted */\n      dup1\n      iszero\n      tag_94\n      jumpi\n      pop\n        /* \"contracts/ergasia.sol\":7073:7086  voterRegistry */\n      0x09\n        /* \"contracts/ergasia.sol\":7073:7098  voterRegistry[msg.sender] */\n      0x00\n        /* \"contracts/ergasia.sol\":7087:7097  msg.sender */\n      caller\n        /* \"contracts/ergasia.sol\":7073:7098  voterRegistry[msg.sender] */\n      0xffffffffffffffffffffffffffffffffffffffff\n      and\n      0xffffffffffffffffffffffffffffffffffffffff\n      and\n      dup2\n      mstore\n      0x20\n      add\n      swap1\n      dup2\n      mstore\n      0x20\n      add\n      0x00\n      keccak256\n        /* \"contracts/ergasia.sol\":7073:7107  voterRegistry[msg.sender].hasVoted */\n      0x00\n      add\n      0x01\n      swap1\n      sload\n      swap1\n      0x0100\n      exp\n      swap1\n      div\n      0xff\n      and\n        /* \"contracts/ergasia.sol\":7072:7107  !voterRegistry[msg.sender].hasVoted */\n      iszero\n        /* \"contracts/ergasia.sol\":7032:7107  voterRegistry[msg.sender].isEnrolled && !voterRegistry[msg.sender].hasVoted */\n    tag_94:\n        /* \"contracts/ergasia.sol\":7028:7652  if (voterRegistry[msg.sender].isEnrolled && !voterRegistry[msg.sender].hasVoted) {... */\n      iszero\n      tag_95\n      jumpi\n        /* \"contracts/ergasia.sol\":7159:7166  _choice */\n      dup5\n        /* \"contracts/ergasia.sol\":7124:7137  voterRegistry */\n      0x09\n        /* \"contracts/ergasia.sol\":7124:7149  voterRegistry[msg.sender] */\n      0x00\n        /* \"contracts/ergasia.sol\":7138:7148  msg.sender */\n      caller\n        /* \"contracts/ergasia.sol\":7124:7149  voterRegistry[msg.sender] */\n      0xffffffffffffffffffffffffffffffffffffffff\n      and\n      0xffffffffffffffffffffffffffffffffffffffff\n      and\n      dup2\n      mstore\n      0x20\n      add\n      swap1\n      dup2\n      mstore\n      0x20\n      add\n      0x00\n      keccak256\n        /* \"contracts/ergasia.sol\":7124:7156  voterRegistry[msg.sender].choice */\n      0x01\n      add\n        /* \"contracts/ergasia.sol\":7124:7166  voterRegistry[msg.sender].choice = _choice */\n      dup2\n      swap1\n      sstore\n      pop\n        /* \"contracts/ergasia.sol\":7230:7247  _pollingStationID */\n      dup4\n        /* \"contracts/ergasia.sol\":7180:7193  voterRegistry */\n      0x09\n        /* \"contracts/ergasia.sol\":7180:7205  voterRegistry[msg.sender] */\n      0x00\n        /* \"contracts/ergasia.sol\":7194:7204  msg.sender */\n      caller\n        /* \"contracts/ergasia.sol\":7180:7205  voterRegistry[msg.sender] */\n      0xffffffffffffffffffffffffffffffffffffffff\n      and\n      0xffffffffffffffffffffffffffffffffffffffff\n      and\n      dup2\n      mstore\n      0x20\n      add\n      swap1\n      dup2\n      mstore\n      0x20\n      add\n      0x00\n      keccak256\n        /* \"contracts/ergasia.sol\":7180:7227  voterRegistry[msg.sender].votedPollingStationID */\n      0x03\n      add\n        /* \"contracts/ergasia.sol\":7180:7247  voterRegistry[msg.sender].votedPollingStationID = _pollingStationID */\n      dup2\n      swap1\n      sstore\n      pop\n        /* \"contracts/ergasia.sol\":7298:7302  true */\n      0x01\n        /* \"contracts/ergasia.sol\":7261:7274  voterRegistry */\n      0x09\n        /* \"contracts/ergasia.sol\":7261:7286  voterRegistry[msg.sender] */\n      0x00\n        /* \"contracts/ergasia.sol\":7275:7285  msg.sender */\n      caller\n        /* \"contracts/ergasia.sol\":7261:7286  voterRegistry[msg.sender] */\n      0xffffffffffffffffffffffffffffffffffffffff\n      and\n      0xffffffffffffffffffffffffffffffffffffffff\n      and\n      dup2\n      mstore\n      0x20\n      add\n      swap1\n      dup2\n      mstore\n      0x20\n      add\n      0x00\n      keccak256\n        /* \"contracts/ergasia.sol\":7261:7295  voterRegistry[msg.sender].hasVoted */\n      0x00\n      add\n      0x01\n        /* \"contracts/ergasia.sol\":7261:7302  voterRegistry[msg.sender].hasVoted = true */\n      0x0100\n      exp\n      dup2\n      sload\n      dup2\n      0xff\n      mul\n      not\n      and\n      swap1\n      dup4\n      iszero\n      iszero\n      mul\n      or\n      swap1\n      sstore\n      pop\n        /* \"contracts/ergasia.sol\":7317:7332  pollingStations */\n      0x08\n        /* \"contracts/ergasia.sol\":7317:7351  pollingStations[_pollingStationID] */\n      0x00\n        /* \"contracts/ergasia.sol\":7333:7350  _pollingStationID */\n      dup6\n        /* \"contracts/ergasia.sol\":7317:7351  pollingStations[_pollingStationID] */\n      dup2\n      mstore\n      0x20\n      add\n      swap1\n      dup2\n      mstore\n      0x20\n      add\n      0x00\n      keccak256\n        /* \"contracts/ergasia.sol\":7317:7363  pollingStations[_pollingStationID].votesCasted */\n      0x03\n      add\n      0x00\n        /* \"contracts/ergasia.sol\":7317:7365  pollingStations[_pollingStationID].votesCasted++ */\n      dup2\n      sload\n      dup1\n      swap3\n      swap2\n      swap1\n      tag_96\n      swap1\n      tag_97\n      jump\t// in\n    tag_96:\n      swap2\n      swap1\n      pop\n      sstore\n      pop\n        /* \"contracts/ergasia.sol\":7380:7390  candidates */\n      0x07\n        /* \"contracts/ergasia.sol\":7380:7399  candidates[_choice] */\n      0x00\n        /* \"contracts/ergasia.sol\":7391:7398  _choice */\n      dup7\n        /* \"contracts/ergasia.sol\":7380:7399  candidates[_choice] */\n      dup2\n      mstore\n      0x20\n      add\n      swap1\n      dup2\n      mstore\n      0x20\n      add\n      0x00\n      keccak256\n        /* \"contracts/ergasia.sol\":7380:7405  candidates[_choice].votes */\n      0x02\n      add\n      0x00\n        /* \"contracts/ergasia.sol\":7380:7407  candidates[_choice].votes++ */\n      dup2\n      sload\n      dup1\n      swap3\n      swap2\n      swap1\n      tag_98\n      swap1\n      tag_97\n      jump\t// in\n    tag_98:\n      swap2\n      swap1\n      pop\n      sstore\n      pop\n        /* \"contracts/ergasia.sol\":7422:7433  countResult */\n      0x04\n      0x00\n        /* \"contracts/ergasia.sol\":7422:7435  countResult++ */\n      dup2\n      sload\n      dup1\n      swap3\n      swap2\n      swap1\n      tag_99\n      swap1\n      tag_97\n      jump\t// in\n    tag_99:\n      swap2\n      swap1\n      pop\n      sstore\n      pop\n        /* \"contracts/ergasia.sol\":7457:7461  true */\n      0x01\n        /* \"contracts/ergasia.sol\":7449:7461  found = true */\n      swap1\n      pop\n        /* \"contracts/ergasia.sol\":7496:7501  found */\n      dup1\n        /* \"contracts/ergasia.sol\":7475:7481  voters */\n      0x0a\n        /* \"contracts/ergasia.sol\":7475:7493  voters[msg.sender] */\n      0x00\n        /* \"contracts/ergasia.sol\":7482:7492  msg.sender */\n      caller\n        /* \"contracts/ergasia.sol\":7475:7493  voters[msg.sender] */\n      0xffffffffffffffffffffffffffffffffffffffff\n      and\n      0xffffffffffffffffffffffffffffffffffffffff\n      and\n      dup2\n      mstore\n      0x20\n      add\n      swap1\n      dup2\n      mstore\n      0x20\n      add\n      0x00\n      keccak256\n      0x00\n        /* \"contracts/ergasia.sol\":7475:7501  voters[msg.sender] = found */\n      0x0100\n      exp\n      dup2\n      sload\n      dup2\n      0xff\n      mul\n      not\n      and\n      swap1\n      dup4\n      iszero\n      iszero\n      mul\n      or\n      swap1\n      sstore\n      pop\n        /* \"contracts/ergasia.sol\":7516:7540  resultsPerPollingStation */\n      0x0b\n        /* \"contracts/ergasia.sol\":7516:7559  resultsPerPollingStation[_pollingStationID] */\n      0x00\n        /* \"contracts/ergasia.sol\":7541:7558  _pollingStationID */\n      dup6\n        /* \"contracts/ergasia.sol\":7516:7559  resultsPerPollingStation[_pollingStationID] */\n      dup2\n      mstore\n      0x20\n      add\n      swap1\n      dup2\n      mstore\n      0x20\n      add\n      0x00\n      keccak256\n        /* \"contracts/ergasia.sol\":7516:7568  resultsPerPollingStation[_pollingStationID][_choice] */\n      0x00\n        /* \"contracts/ergasia.sol\":7560:7567  _choice */\n      dup7\n        /* \"contracts/ergasia.sol\":7516:7568  resultsPerPollingStation[_pollingStationID][_choice] */\n      dup2\n      mstore\n      0x20\n      add\n      swap1\n      dup2\n      mstore\n      0x20\n      add\n      0x00\n      keccak256\n        /* \"contracts/ergasia.sol\":7516:7574  resultsPerPollingStation[_pollingStationID][_choice].votes */\n      0x02\n      add\n      0x00\n        /* \"contracts/ergasia.sol\":7516:7576  resultsPerPollingStation[_pollingStationID][_choice].votes++ */\n      dup2\n      sload\n      dup1\n      swap3\n      swap2\n      swap1\n      tag_100\n      swap1\n      tag_97\n      jump\t// in\n    tag_100:\n      swap2\n      swap1\n      pop\n      sstore\n      pop\n        /* \"contracts/ergasia.sol\":7596:7641  VoteCasted(found, _choice, _pollingStationID) */\n      0x29a25b3d0b6ff7e5de2a60a2e8e76d1bdaf4894ec18c598cc1687213f442c5cb\n        /* \"contracts/ergasia.sol\":7607:7612  found */\n      dup2\n        /* \"contracts/ergasia.sol\":7614:7621  _choice */\n      dup7\n        /* \"contracts/ergasia.sol\":7623:7640  _pollingStationID */\n      dup7\n        /* \"contracts/ergasia.sol\":7596:7641  VoteCasted(found, _choice, _pollingStationID) */\n      mload(0x40)\n      tag_101\n      swap4\n      swap3\n      swap2\n      swap1\n      tag_102\n      jump\t// in\n    tag_101:\n      mload(0x40)\n      dup1\n      swap2\n      sub\n      swap1\n      log1\n        /* \"contracts/ergasia.sol\":7028:7652  if (voterRegistry[msg.sender].isEnrolled && !voterRegistry[msg.sender].hasVoted) {... */\n    tag_95:\n        /* \"contracts/ergasia.sol\":7668:7673  found */\n      dup1\n        /* \"contracts/ergasia.sol\":7661:7673  return found */\n      swap3\n      pop\n      pop\n        /* \"contracts/ergasia.sol\":6882:7680  function castVote(uint _choice, uint _pollingStationID) public inState(State.Voting) returns (bool voted) {... */\n      pop\n      swap3\n      swap2\n      pop\n      pop\n      jump\t// out\n        /* \"contracts/ergasia.sol\":1221:1248  uint public candidatesCount */\n    tag_33:\n      sload(0x01)\n      dup2\n      jump\t// out\n        /* \"contracts/ergasia.sol\":1600:1644  mapping(uint => Candidate) public candidates */\n    tag_38:\n      mstore(0x20, 0x07)\n      dup1\n      0x00\n      mstore\n      keccak256(0x00, 0x40)\n      0x00\n      swap2\n      pop\n      swap1\n      pop\n      dup1\n      0x00\n      add\n      sload\n      swap1\n      dup1\n      0x01\n      add\n      dup1\n      sload\n      tag_103\n      swap1\n      tag_104\n      jump\t// in\n    tag_103:\n      dup1\n      0x1f\n      add\n      0x20\n      dup1\n      swap2\n      div\n      mul\n      0x20\n      add\n      mload(0x40)\n      swap1\n      dup2\n      add\n      0x40\n      mstore\n      dup1\n      swap3\n      swap2\n      swap1\n      dup2\n      dup2\n      mstore\n      0x20\n      add\n      dup3\n      dup1\n      sload\n      tag_105\n      swap1\n      tag_104\n      jump\t// in\n    tag_105:\n      dup1\n      iszero\n      tag_106\n      jumpi\n      dup1\n      0x1f\n      lt\n      tag_107\n      jumpi\n      0x0100\n      dup1\n      dup4\n      sload\n      div\n      mul\n      dup4\n      mstore\n      swap2\n      0x20\n      add\n      swap2\n      jump(tag_106)\n    tag_107:\n      dup3\n      add\n      swap2\n      swap1\n      0x00\n      mstore\n      keccak256(0x00, 0x20)\n      swap1\n    tag_108:\n      dup2\n      sload\n      dup2\n      mstore\n      swap1\n      0x01\n      add\n      swap1\n      0x20\n      add\n      dup1\n      dup4\n      gt\n      tag_108\n      jumpi\n      dup3\n      swap1\n      sub\n      0x1f\n      and\n      dup3\n      add\n      swap2\n    tag_106:\n      pop\n      pop\n      pop\n      pop\n      pop\n      swap1\n      dup1\n      0x02\n      add\n      sload\n      swap1\n      pop\n      dup4\n      jump\t// out\n        /* \"contracts/ergasia.sol\":1758:1804  mapping(address => Voter) public voterRegistry */\n    tag_44:\n      mstore(0x20, 0x09)\n      dup1\n      0x00\n      mstore\n      keccak256(0x00, 0x40)\n      0x00\n      swap2\n      pop\n      swap1\n      pop\n      dup1\n      0x00\n      add\n      0x00\n      swap1\n      sload\n      swap1\n      0x0100\n      exp\n      swap1\n      div\n      0xff\n      and\n      swap1\n      dup1\n      0x00\n      add\n      0x01\n      swap1\n      sload\n      swap1\n      0x0100\n      exp\n      swap1\n      div\n      0xff\n      and\n      swap1\n      dup1\n      0x01\n      add\n      sload\n      swap1\n      dup1\n      0x02\n      add\n      sload\n      swap1\n      dup1\n      0x03\n      add\n      sload\n      swap1\n      pop\n      dup6\n      jump\t// out\n        /* \"contracts/ergasia.sol\":6782:6876  function startVote() public inState(State.Created) Owner {... */\n    tag_48:\n        /* \"contracts/ergasia.sol\":6818:6831  State.Created */\n      0x00\n        /* \"contracts/ergasia.sol\":2152:2158  _state */\n      dup1\n        /* \"contracts/ergasia.sol\":2143:2158  state == _state */\n      0x02\n      dup2\n      gt\n      iszero\n      tag_110\n      jumpi\n      tag_111\n      tag_89\n      jump\t// in\n    tag_111:\n    tag_110:\n        /* \"contracts/ergasia.sol\":2143:2148  state */\n      0x0c\n      0x00\n      swap1\n      sload\n      swap1\n      0x0100\n      exp\n      swap1\n      div\n      0xff\n      and\n        /* \"contracts/ergasia.sol\":2143:2158  state == _state */\n      0x02\n      dup2\n      gt\n      iszero\n      tag_112\n      jumpi\n      tag_113\n      tag_89\n      jump\t// in\n    tag_113:\n    tag_112:\n      eq\n        /* \"contracts/ergasia.sol\":2135:2159  require(state == _state) */\n      tag_114\n      jumpi\n      0x00\n      dup1\n      revert\n    tag_114:\n        /* \"contracts/ergasia.sol\":2056:2069  electionOwner */\n      0x00\n      dup1\n      sload\n      swap1\n      0x0100\n      exp\n      swap1\n      div\n      0xffffffffffffffffffffffffffffffffffffffff\n      and\n        /* \"contracts/ergasia.sol\":2042:2069  msg.sender == electionOwner */\n      0xffffffffffffffffffffffffffffffffffffffff\n      and\n        /* \"contracts/ergasia.sol\":2042:2052  msg.sender */\n      caller\n        /* \"contracts/ergasia.sol\":2042:2069  msg.sender == electionOwner */\n      0xffffffffffffffffffffffffffffffffffffffff\n      and\n      eq\n        /* \"contracts/ergasia.sol\":2034:2070  require(msg.sender == electionOwner) */\n      tag_116\n      jumpi\n      0x00\n      dup1\n      revert\n    tag_116:\n        /* \"contracts/ergasia.sol\":6857:6869  State.Voting */\n      0x01\n        /* \"contracts/ergasia.sol\":6849:6854  state */\n      0x0c\n      0x00\n        /* \"contracts/ergasia.sol\":6849:6869  state = State.Voting */\n      0x0100\n      exp\n      dup2\n      sload\n      dup2\n      0xff\n      mul\n      not\n      and\n      swap1\n      dup4\n      0x02\n      dup2\n      gt\n      iszero\n      tag_118\n      jumpi\n      tag_119\n      tag_89\n      jump\t// in\n    tag_119:\n    tag_118:\n      mul\n      or\n      swap1\n      sstore\n      pop\n        /* \"contracts/ergasia.sol\":6782:6876  function startVote() public inState(State.Created) Owner {... */\n      pop\n      jump\t// out\n        /* \"contracts/ergasia.sol\":1187:1215  address public electionOwner */\n    tag_50:\n      0x00\n      dup1\n      sload\n      swap1\n      0x0100\n      exp\n      swap1\n      div\n      0xffffffffffffffffffffffffffffffffffffffff\n      and\n      dup2\n      jump\t// out\n        /* \"contracts/ergasia.sol\":1810:1848  mapping(address => bool) public voters */\n    tag_55:\n      mstore(0x20, 0x0a)\n      dup1\n      0x00\n      mstore\n      keccak256(0x00, 0x40)\n      0x00\n      swap2\n      pop\n      sload\n      swap1\n      0x0100\n      exp\n      swap1\n      div\n      0xff\n      and\n      dup2\n      jump\t// out\n        /* \"contracts/ergasia.sol\":1854:1929  mapping(uint => mapping(uint => Candidate)) public resultsPerPollingStation */\n    tag_59:\n      mstore(0x20, 0x0b)\n      dup2\n      0x00\n      mstore\n      mstore(0x20, keccak256(0x00, 0x40))\n      dup1\n      0x00\n      mstore\n      keccak256(0x00, 0x40)\n      0x00\n      swap2\n      pop\n      swap2\n      pop\n      pop\n      dup1\n      0x00\n      add\n      sload\n      swap1\n      dup1\n      0x01\n      add\n      dup1\n      sload\n      tag_120\n      swap1\n      tag_104\n      jump\t// in\n    tag_120:\n      dup1\n      0x1f\n      add\n      0x20\n      dup1\n      swap2\n      div\n      mul\n      0x20\n      add\n      mload(0x40)\n      swap1\n      dup2\n      add\n      0x40\n      mstore\n      dup1\n      swap3\n      swap2\n      swap1\n      dup2\n      dup2\n      mstore\n      0x20\n      add\n      dup3\n      dup1\n      sload\n      tag_121\n      swap1\n      tag_104\n      jump\t// in\n    tag_121:\n      dup1\n      iszero\n      tag_122\n      jumpi\n      dup1\n      0x1f\n      lt\n      tag_123\n      jumpi\n      0x0100\n      dup1\n      dup4\n      sload\n      div\n      mul\n      dup4\n      mstore\n      swap2\n      0x20\n      add\n      swap2\n      jump(tag_122)\n    tag_123:\n      dup3\n      add\n      swap2\n      swap1\n      0x00\n      mstore\n      keccak256(0x00, 0x20)\n      swap1\n    tag_124:\n      dup2\n      sload\n      dup2\n      mstore\n      swap1\n      0x01\n      add\n      swap1\n      0x20\n      add\n      dup1\n      dup4\n      gt\n      tag_124\n      jumpi\n      dup3\n      swap1\n      sub\n      0x1f\n      and\n      dup3\n      add\n      swap2\n    tag_122:\n      pop\n      pop\n      pop\n      pop\n      pop\n      swap1\n      dup1\n      0x02\n      add\n      sload\n      swap1\n      pop\n      dup4\n      jump\t// out\n        /* \"contracts/ergasia.sol\":8192:8318  function endVote() public inState(State.Voting) Owner { ... */\n    tag_62:\n        /* \"contracts/ergasia.sol\":8226:8238  State.Voting */\n      0x01\n        /* \"contracts/ergasia.sol\":2152:2158  _state */\n      dup1\n        /* \"contracts/ergasia.sol\":2143:2158  state == _state */\n      0x02\n      dup2\n      gt\n      iszero\n      tag_126\n      jumpi\n      tag_127\n      tag_89\n      jump\t// in\n    tag_127:\n    tag_126:\n        /* \"contracts/ergasia.sol\":2143:2148  state */\n      0x0c\n      0x00\n      swap1\n      sload\n      swap1\n      0x0100\n      exp\n      swap1\n      div\n      0xff\n      and\n        /* \"contracts/ergasia.sol\":2143:2158  state == _state */\n      0x02\n      dup2\n      gt\n      iszero\n      tag_128\n      jumpi\n      tag_129\n      tag_89\n      jump\t// in\n    tag_129:\n    tag_128:\n      eq\n        /* \"contracts/ergasia.sol\":2135:2159  require(state == _state) */\n      tag_130\n      jumpi\n      0x00\n      dup1\n      revert\n    tag_130:\n        /* \"contracts/ergasia.sol\":2056:2069  electionOwner */\n      0x00\n      dup1\n      sload\n      swap1\n      0x0100\n      exp\n      swap1\n      div\n      0xffffffffffffffffffffffffffffffffffffffff\n      and\n        /* \"contracts/ergasia.sol\":2042:2069  msg.sender == electionOwner */\n      0xffffffffffffffffffffffffffffffffffffffff\n      and\n        /* \"contracts/ergasia.sol\":2042:2052  msg.sender */\n      caller\n        /* \"contracts/ergasia.sol\":2042:2069  msg.sender == electionOwner */\n      0xffffffffffffffffffffffffffffffffffffffff\n      and\n      eq\n        /* \"contracts/ergasia.sol\":2034:2070  require(msg.sender == electionOwner) */\n      tag_132\n      jumpi\n      0x00\n      dup1\n      revert\n    tag_132:\n        /* \"contracts/ergasia.sol\":8265:8276  State.Ended */\n      0x02\n        /* \"contracts/ergasia.sol\":8257:8262  state */\n      0x0c\n      0x00\n        /* \"contracts/ergasia.sol\":8257:8276  state = State.Ended */\n      0x0100\n      exp\n      dup2\n      sload\n      dup2\n      0xff\n      mul\n      not\n      and\n      swap1\n      dup4\n      0x02\n      dup2\n      gt\n      iszero\n      tag_134\n      jumpi\n      tag_135\n      tag_89\n      jump\t// in\n    tag_135:\n    tag_134:\n      mul\n      or\n      swap1\n      sstore\n      pop\n        /* \"contracts/ergasia.sol\":8300:8311  countResult */\n      sload(0x04)\n        /* \"contracts/ergasia.sol\":8286:8297  finalResult */\n      0x05\n        /* \"contracts/ergasia.sol\":8286:8311  finalResult = countResult */\n      dup2\n      swap1\n      sstore\n      pop\n        /* \"contracts/ergasia.sol\":8192:8318  function endVote() public inState(State.Voting) Owner { ... */\n      pop\n      jump\t// out\n        /* \"contracts/ergasia.sol\":5328:6248  function addVoter(address _voterAddress, uint _pollingStationID) public inState(State.Created) Owner {... */\n    tag_66:\n        /* \"contracts/ergasia.sol\":5408:5421  State.Created */\n      0x00\n        /* \"contracts/ergasia.sol\":2152:2158  _state */\n      dup1\n        /* \"contracts/ergasia.sol\":2143:2158  state == _state */\n      0x02\n      dup2\n      gt\n      iszero\n      tag_137\n      jumpi\n      tag_138\n      tag_89\n      jump\t// in\n    tag_138:\n    tag_137:\n        /* \"contracts/ergasia.sol\":2143:2148  state */\n      0x0c\n      0x00\n      swap1\n      sload\n      swap1\n      0x0100\n      exp\n      swap1\n      div\n      0xff\n      and\n        /* \"contracts/ergasia.sol\":2143:2158  state == _state */\n      0x02\n      dup2\n      gt\n      iszero\n      tag_139\n      jumpi\n      tag_140\n      tag_89\n      jump\t// in\n    tag_140:\n    tag_139:\n      eq\n        /* \"contracts/ergasia.sol\":2135:2159  require(state == _state) */\n      tag_141\n      jumpi\n      0x00\n      dup1\n      revert\n    tag_141:\n        /* \"contracts/ergasia.sol\":2056:2069  electionOwner */\n      0x00\n      dup1\n      sload\n      swap1\n      0x0100\n      exp\n      swap1\n      div\n      0xffffffffffffffffffffffffffffffffffffffff\n      and\n        /* \"contracts/ergasia.sol\":2042:2069  msg.sender == electionOwner */\n      0xffffffffffffffffffffffffffffffffffffffff\n      and\n        /* \"contracts/ergasia.sol\":2042:2052  msg.sender */\n      caller\n        /* \"contracts/ergasia.sol\":2042:2069  msg.sender == electionOwner */\n      0xffffffffffffffffffffffffffffffffffffffff\n      and\n      eq\n        /* \"contracts/ergasia.sol\":2034:2070  require(msg.sender == electionOwner) */\n      tag_143\n      jumpi\n      0x00\n      dup1\n      revert\n    tag_143:\n        /* \"contracts/ergasia.sol\":5547:5552  false */\n      0x00\n        /* \"contracts/ergasia.sol\":5504:5552  voterRegistry[_voterAddress].isEnrolled == false */\n      iszero\n      iszero\n        /* \"contracts/ergasia.sol\":5504:5517  voterRegistry */\n      0x09\n        /* \"contracts/ergasia.sol\":5504:5532  voterRegistry[_voterAddress] */\n      0x00\n        /* \"contracts/ergasia.sol\":5518:5531  _voterAddress */\n      dup6\n        /* \"contracts/ergasia.sol\":5504:5532  voterRegistry[_voterAddress] */\n      0xffffffffffffffffffffffffffffffffffffffff\n      and\n      0xffffffffffffffffffffffffffffffffffffffff\n      and\n      dup2\n      mstore\n      0x20\n      add\n      swap1\n      dup2\n      mstore\n      0x20\n      add\n      0x00\n      keccak256\n        /* \"contracts/ergasia.sol\":5504:5543  voterRegistry[_voterAddress].isEnrolled */\n      0x00\n      add\n      0x00\n      swap1\n      sload\n      swap1\n      0x0100\n      exp\n      swap1\n      div\n      0xff\n      and\n        /* \"contracts/ergasia.sol\":5504:5552  voterRegistry[_voterAddress].isEnrolled == false */\n      iszero\n      iszero\n      eq\n        /* \"contracts/ergasia.sol\":5496:5585  require(voterRegistry[_voterAddress].isEnrolled == false, \"Voter is already registered.\") */\n      tag_145\n      jumpi\n      mload(0x40)\n      0x08c379a000000000000000000000000000000000000000000000000000000000\n      dup2\n      mstore\n      0x04\n      add\n      tag_146\n      swap1\n      tag_147\n      jump\t// in\n    tag_146:\n      mload(0x40)\n      dup1\n      swap2\n      sub\n      swap1\n      revert\n    tag_145:\n        /* \"contracts/ergasia.sol\":5824:5825  1 */\n      0x01\n        /* \"contracts/ergasia.sol\":5804:5821  _pollingStationID */\n      dup3\n        /* \"contracts/ergasia.sol\":5804:5825  _pollingStationID >=1 */\n      lt\n      iszero\n        /* \"contracts/ergasia.sol\":5804:5869  _pollingStationID >=1 && _pollingStationID <= pollingStationCount */\n      dup1\n      iszero\n      tag_148\n      jumpi\n      pop\n        /* \"contracts/ergasia.sol\":5850:5869  pollingStationCount */\n      sload(0x02)\n        /* \"contracts/ergasia.sol\":5829:5846  _pollingStationID */\n      dup3\n        /* \"contracts/ergasia.sol\":5829:5869  _pollingStationID <= pollingStationCount */\n      gt\n      iszero\n        /* \"contracts/ergasia.sol\":5804:5869  _pollingStationID >=1 && _pollingStationID <= pollingStationCount */\n    tag_148:\n        /* \"contracts/ergasia.sol\":5796:5916  require(_pollingStationID >=1 && _pollingStationID <= pollingStationCount, \"Please provide a valid polling station ID.\") */\n      tag_149\n      jumpi\n      mload(0x40)\n      0x08c379a000000000000000000000000000000000000000000000000000000000\n      dup2\n      mstore\n      0x04\n      add\n      tag_150\n      swap1\n      tag_151\n      jump\t// in\n    tag_150:\n      mload(0x40)\n      dup1\n      swap2\n      sub\n      swap1\n      revert\n    tag_149:\n        /* \"contracts/ergasia.sol\":5927:5941  Voter memory v */\n      tag_152\n      tag_153\n      jump\t// in\n    tag_152:\n        /* \"contracts/ergasia.sol\":5966:5970  true */\n      0x01\n        /* \"contracts/ergasia.sol\":5951:5952  v */\n      dup2\n        /* \"contracts/ergasia.sol\":5951:5963  v.isEnrolled */\n      0x00\n      add\n        /* \"contracts/ergasia.sol\":5951:5970  v.isEnrolled = true */\n      swap1\n      iszero\n      iszero\n      swap1\n      dup2\n      iszero\n      iszero\n      dup2\n      mstore\n      pop\n      pop\n        /* \"contracts/ergasia.sol\":5993:5998  false */\n      0x00\n        /* \"contracts/ergasia.sol\":5980:5981  v */\n      dup2\n        /* \"contracts/ergasia.sol\":5980:5990  v.hasVoted */\n      0x20\n      add\n        /* \"contracts/ergasia.sol\":5980:5998  v.hasVoted = false */\n      swap1\n      iszero\n      iszero\n      swap1\n      dup2\n      iszero\n      iszero\n      dup2\n      mstore\n      pop\n      pop\n        /* \"contracts/ergasia.sol\":6019:6020  0 */\n      0x00\n        /* \"contracts/ergasia.sol\":6008:6009  v */\n      dup2\n        /* \"contracts/ergasia.sol\":6008:6016  v.choice */\n      0x40\n      add\n        /* \"contracts/ergasia.sol\":6008:6020  v.choice = 0 */\n      dup2\n      dup2\n      mstore\n      pop\n      pop\n        /* \"contracts/ergasia.sol\":6059:6076  _pollingStationID */\n      dup3\n        /* \"contracts/ergasia.sol\":6030:6031  v */\n      dup2\n        /* \"contracts/ergasia.sol\":6030:6056  v.enrolledPollingStationID */\n      0x60\n      add\n        /* \"contracts/ergasia.sol\":6030:6076  v.enrolledPollingStationID = _pollingStationID */\n      dup2\n      dup2\n      mstore\n      pop\n      pop\n        /* \"contracts/ergasia.sol\":6112:6113  0 */\n      0x00\n        /* \"contracts/ergasia.sol\":6086:6087  v */\n      dup2\n        /* \"contracts/ergasia.sol\":6086:6109  v.votedPollingStationID */\n      0x80\n      add\n        /* \"contracts/ergasia.sol\":6086:6113  v.votedPollingStationID = 0 */\n      dup2\n      dup2\n      mstore\n      pop\n      pop\n        /* \"contracts/ergasia.sol\":6154:6155  v */\n      dup1\n        /* \"contracts/ergasia.sol\":6123:6136  voterRegistry */\n      0x09\n        /* \"contracts/ergasia.sol\":6123:6151  voterRegistry[_voterAddress] */\n      0x00\n        /* \"contracts/ergasia.sol\":6137:6150  _voterAddress */\n      dup7\n        /* \"contracts/ergasia.sol\":6123:6151  voterRegistry[_voterAddress] */\n      0xffffffffffffffffffffffffffffffffffffffff\n      and\n      0xffffffffffffffffffffffffffffffffffffffff\n      and\n      dup2\n      mstore\n      0x20\n      add\n      swap1\n      dup2\n      mstore\n      0x20\n      add\n      0x00\n      keccak256\n        /* \"contracts/ergasia.sol\":6123:6155  voterRegistry[_voterAddress] = v */\n      0x00\n      dup3\n      add\n      mload\n      dup2\n      0x00\n      add\n      exp(0x0100, 0x00)\n      dup2\n      sload\n      dup2\n      0xff\n      mul\n      not\n      and\n      swap1\n      dup4\n      iszero\n      iszero\n      mul\n      or\n      swap1\n      sstore\n      pop\n      0x20\n      dup3\n      add\n      mload\n      dup2\n      0x00\n      add\n      exp(0x0100, 0x01)\n      dup2\n      sload\n      dup2\n      0xff\n      mul\n      not\n      and\n      swap1\n      dup4\n      iszero\n      iszero\n      mul\n      or\n      swap1\n      sstore\n      pop\n      0x40\n      dup3\n      add\n      mload\n      dup2\n      0x01\n      add\n      sstore\n      0x60\n      dup3\n      add\n      mload\n      dup2\n      0x02\n      add\n      sstore\n      0x80\n      dup3\n      add\n      mload\n      dup2\n      0x03\n      add\n      sstore\n      swap1\n      pop\n      pop\n        /* \"contracts/ergasia.sol\":6165:6208  registerAtPollingStation(_pollingStationID) */\n      tag_154\n        /* \"contracts/ergasia.sol\":6190:6207  _pollingStationID */\n      dup4\n        /* \"contracts/ergasia.sol\":6165:6189  registerAtPollingStation */\n      tag_155\n        /* \"contracts/ergasia.sol\":6165:6208  registerAtPollingStation(_pollingStationID) */\n      jump\t// in\n    tag_154:\n        /* \"contracts/ergasia.sol\":6218:6239  totalRegisteredVoters */\n      0x03\n      0x00\n        /* \"contracts/ergasia.sol\":6218:6241  totalRegisteredVoters++ */\n      dup2\n      sload\n      dup1\n      swap3\n      swap2\n      swap1\n      tag_156\n      swap1\n      tag_97\n      jump\t// in\n    tag_156:\n      swap2\n      swap1\n      pop\n      sstore\n      pop\n        /* \"contracts/ergasia.sol\":5429:6248  {... */\n      pop\n        /* \"contracts/ergasia.sol\":5328:6248  function addVoter(address _voterAddress, uint _pollingStationID) public inState(State.Created) Owner {... */\n      pop\n      pop\n      pop\n      jump\t// out\n        /* \"contracts/ergasia.sol\":1982:2000  State public state */\n    tag_68:\n      0x0c\n      0x00\n      swap1\n      sload\n      swap1\n      0x0100\n      exp\n      swap1\n      div\n      0xff\n      and\n      dup2\n      jump\t// out\n        /* \"contracts/ergasia.sol\":1565:1593  Candidate[][] public results */\n    tag_73:\n      0x06\n      dup3\n      dup2\n      sload\n      dup2\n      lt\n      tag_157\n      jumpi\n      0x00\n      dup1\n      revert\n    tag_157:\n      swap1\n      0x00\n      mstore\n      keccak256(0x00, 0x20)\n      add\n      dup2\n      dup2\n      sload\n      dup2\n      lt\n      tag_159\n      jumpi\n      0x00\n      dup1\n      revert\n    tag_159:\n      swap1\n      0x00\n      mstore\n      keccak256(0x00, 0x20)\n      swap1\n      0x03\n      mul\n      add\n      0x00\n      swap2\n      pop\n      swap2\n      pop\n      pop\n      dup1\n      0x00\n      add\n      sload\n      swap1\n      dup1\n      0x01\n      add\n      dup1\n      sload\n      tag_161\n      swap1\n      tag_104\n      jump\t// in\n    tag_161:\n      dup1\n      0x1f\n      add\n      0x20\n      dup1\n      swap2\n      div\n      mul\n      0x20\n      add\n      mload(0x40)\n      swap1\n      dup2\n      add\n      0x40\n      mstore\n      dup1\n      swap3\n      swap2\n      swap1\n      dup2\n      dup2\n      mstore\n      0x20\n      add\n      dup3\n      dup1\n      sload\n      tag_162\n      swap1\n      tag_104\n      jump\t// in\n    tag_162:\n      dup1\n      iszero\n      tag_163\n      jumpi\n      dup1\n      0x1f\n      lt\n      tag_164\n      jumpi\n      0x0100\n      dup1\n      dup4\n      sload\n      div\n      mul\n      dup4\n      mstore\n      swap2\n      0x20\n      add\n      swap2\n      jump(tag_163)\n    tag_164:\n      dup3\n      add\n      swap2\n      swap1\n      0x00\n      mstore\n      keccak256(0x00, 0x20)\n      swap1\n    tag_165:\n      dup2\n      sload\n      dup2\n      mstore\n      swap1\n      0x01\n      add\n      swap1\n      0x20\n      add\n      dup1\n      dup4\n      gt\n      tag_165\n      jumpi\n      dup3\n      swap1\n      sub\n      0x1f\n      and\n      dup3\n      add\n      swap2\n    tag_163:\n      pop\n      pop\n      pop\n      pop\n      pop\n      swap1\n      dup1\n      0x02\n      add\n      sload\n      swap1\n      pop\n      dup4\n      jump\t// out\n        /* \"contracts/ergasia.sol\":1289:1320  uint public pollingStationCount */\n    tag_76:\n      sload(0x02)\n      dup2\n      jump\t// out\n        /* \"contracts/ergasia.sol\":1484:1507  uint public finalResult */\n    tag_79:\n      sload(0x05)\n      dup2\n      jump\t// out\n        /* \"contracts/ergasia.sol\":1674:1728  mapping(uint => PollingStation) public pollingStations */\n    tag_83:\n      mstore(0x20, 0x08)\n      dup1\n      0x00\n      mstore\n      keccak256(0x00, 0x40)\n      0x00\n      swap2\n      pop\n      swap1\n      pop\n      dup1\n      0x00\n      add\n      sload\n      swap1\n      dup1\n      0x01\n      add\n      dup1\n      sload\n      tag_166\n      swap1\n      tag_104\n      jump\t// in\n    tag_166:\n      dup1\n      0x1f\n      add\n      0x20\n      dup1\n      swap2\n      div\n      mul\n      0x20\n      add\n      mload(0x40)\n      swap1\n      dup2\n      add\n      0x40\n      mstore\n      dup1\n      swap3\n      swap2\n      swap1\n      dup2\n      dup2\n      mstore\n      0x20\n      add\n      dup3\n      dup1\n      sload\n      tag_167\n      swap1\n      tag_104\n      jump\t// in\n    tag_167:\n      dup1\n      iszero\n      tag_168\n      jumpi\n      dup1\n      0x1f\n      lt\n      tag_169\n      jumpi\n      0x0100\n      dup1\n      dup4\n      sload\n      div\n      mul\n      dup4\n      mstore\n      swap2\n      0x20\n      add\n      swap2\n      jump(tag_168)\n    tag_169:\n      dup3\n      add\n      swap2\n      swap1\n      0x00\n      mstore\n      keccak256(0x00, 0x20)\n      swap1\n    tag_170:\n      dup2\n      sload\n      dup2\n      mstore\n      swap1\n      0x01\n      add\n      swap1\n      0x20\n      add\n      dup1\n      dup4\n      gt\n      tag_170\n      jumpi\n      dup3\n      swap1\n      sub\n      0x1f\n      and\n      dup3\n      add\n      swap2\n    tag_168:\n      pop\n      pop\n      pop\n      pop\n      pop\n      swap1\n      dup1\n      0x02\n      add\n      sload\n      swap1\n      dup1\n      0x03\n      add\n      sload\n      swap1\n      pop\n      dup5\n      jump\t// out\n        /* \"contracts/ergasia.sol\":6386:6668  function registerAtPollingStation(uint _stationID) internal {... */\n    tag_155:\n        /* \"contracts/ergasia.sol\":6461:6467  uint i */\n      0x00\n        /* \"contracts/ergasia.sol\":6470:6471  1 */\n      0x01\n        /* \"contracts/ergasia.sol\":6461:6471  uint i = 1 */\n      swap1\n      pop\n        /* \"contracts/ergasia.sol\":6456:6662  for (uint i = 1; i <= pollingStationCount; i++) {... */\n    tag_172:\n        /* \"contracts/ergasia.sol\":6478:6497  pollingStationCount */\n      sload(0x02)\n        /* \"contracts/ergasia.sol\":6473:6474  i */\n      dup2\n        /* \"contracts/ergasia.sol\":6473:6497  i <= pollingStationCount */\n      gt\n        /* \"contracts/ergasia.sol\":6456:6662  for (uint i = 1; i <= pollingStationCount; i++) {... */\n      tag_173\n      jumpi\n        /* \"contracts/ergasia.sol\":6547:6557  _stationID */\n      dup2\n        /* \"contracts/ergasia.sol\":6522:6537  pollingStations */\n      0x08\n        /* \"contracts/ergasia.sol\":6522:6540  pollingStations[i] */\n      0x00\n        /* \"contracts/ergasia.sol\":6538:6539  i */\n      dup4\n        /* \"contracts/ergasia.sol\":6522:6540  pollingStations[i] */\n      dup2\n      mstore\n      0x20\n      add\n      swap1\n      dup2\n      mstore\n      0x20\n      add\n      0x00\n      keccak256\n        /* \"contracts/ergasia.sol\":6522:6543  pollingStations[i].id */\n      0x00\n      add\n      sload\n        /* \"contracts/ergasia.sol\":6522:6557  pollingStations[i].id == _stationID */\n      eq\n        /* \"contracts/ergasia.sol\":6518:6652  if (pollingStations[i].id == _stationID) {... */\n      iszero\n      tag_175\n      jumpi\n        /* \"contracts/ergasia.sol\":6577:6592  pollingStations */\n      0x08\n        /* \"contracts/ergasia.sol\":6577:6595  pollingStations[i] */\n      0x00\n        /* \"contracts/ergasia.sol\":6593:6594  i */\n      dup3\n        /* \"contracts/ergasia.sol\":6577:6595  pollingStations[i] */\n      dup2\n      mstore\n      0x20\n      add\n      swap1\n      dup2\n      mstore\n      0x20\n      add\n      0x00\n      keccak256\n        /* \"contracts/ergasia.sol\":6577:6612  pollingStations[i].votersRegistered */\n      0x02\n      add\n      0x00\n        /* \"contracts/ergasia.sol\":6577:6614  pollingStations[i].votersRegistered++ */\n      dup2\n      sload\n      dup1\n      swap3\n      swap2\n      swap1\n      tag_176\n      swap1\n      tag_97\n      jump\t// in\n    tag_176:\n      swap2\n      swap1\n      pop\n      sstore\n      pop\n        /* \"contracts/ergasia.sol\":6632:6637  break */\n      jump(tag_173)\n        /* \"contracts/ergasia.sol\":6518:6652  if (pollingStations[i].id == _stationID) {... */\n    tag_175:\n        /* \"contracts/ergasia.sol\":6499:6502  i++ */\n      dup1\n      dup1\n      tag_177\n      swap1\n      tag_97\n      jump\t// in\n    tag_177:\n      swap2\n      pop\n      pop\n        /* \"contracts/ergasia.sol\":6456:6662  for (uint i = 1; i <= pollingStationCount; i++) {... */\n      jump(tag_172)\n    tag_173:\n      pop\n        /* \"contracts/ergasia.sol\":6386:6668  function registerAtPollingStation(uint _stationID) internal {... */\n      pop\n      jump\t// out\n    tag_153:\n      mload(0x40)\n      dup1\n      0xa0\n      add\n      0x40\n      mstore\n      dup1\n      iszero(iszero(0x00))\n      dup2\n      mstore\n      0x20\n      add\n      iszero(iszero(0x00))\n      dup2\n      mstore\n      0x20\n      add\n      0x00\n      dup2\n      mstore\n      0x20\n      add\n      0x00\n      dup2\n      mstore\n      0x20\n      add\n      0x00\n      dup2\n      mstore\n      pop\n      swap1\n      jump\t// out\n        /* \"#utility.yul\":7:146   */\n    tag_179:\n        /* \"#utility.yul\":53:58   */\n      0x00\n        /* \"#utility.yul\":91:97   */\n      dup2\n        /* \"#utility.yul\":78:98   */\n      calldataload\n        /* \"#utility.yul\":69:98   */\n      swap1\n      pop\n        /* \"#utility.yul\":107:140   */\n      tag_181\n        /* \"#utility.yul\":134:139   */\n      dup2\n        /* \"#utility.yul\":107:140   */\n      tag_182\n      jump\t// in\n    tag_181:\n        /* \"#utility.yul\":7:146   */\n      swap3\n      swap2\n      pop\n      pop\n      jump\t// out\n        /* \"#utility.yul\":152:291   */\n    tag_183:\n        /* \"#utility.yul\":198:203   */\n      0x00\n        /* \"#utility.yul\":236:242   */\n      dup2\n        /* \"#utility.yul\":223:243   */\n      calldataload\n        /* \"#utility.yul\":214:243   */\n      swap1\n      pop\n        /* \"#utility.yul\":252:285   */\n      tag_185\n        /* \"#utility.yul\":279:284   */\n      dup2\n        /* \"#utility.yul\":252:285   */\n      tag_186\n      jump\t// in\n    tag_185:\n        /* \"#utility.yul\":152:291   */\n      swap3\n      swap2\n      pop\n      pop\n      jump\t// out\n        /* \"#utility.yul\":297:626   */\n    tag_43:\n        /* \"#utility.yul\":356:362   */\n      0x00\n        /* \"#utility.yul\":405:407   */\n      0x20\n        /* \"#utility.yul\":393:402   */\n      dup3\n        /* \"#utility.yul\":384:391   */\n      dup5\n        /* \"#utility.yul\":380:403   */\n      sub\n        /* \"#utility.yul\":376:408   */\n      slt\n        /* \"#utility.yul\":373:492   */\n      iszero\n      tag_188\n      jumpi\n        /* \"#utility.yul\":411:490   */\n      tag_189\n      tag_190\n      jump\t// in\n    tag_189:\n        /* \"#utility.yul\":373:492   */\n    tag_188:\n        /* \"#utility.yul\":531:532   */\n      0x00\n        /* \"#utility.yul\":556:609   */\n      tag_191\n        /* \"#utility.yul\":601:608   */\n      dup5\n        /* \"#utility.yul\":592:598   */\n      dup3\n        /* \"#utility.yul\":581:590   */\n      dup6\n        /* \"#utility.yul\":577:599   */\n      add\n        /* \"#utility.yul\":556:609   */\n      tag_179\n      jump\t// in\n    tag_191:\n        /* \"#utility.yul\":546:609   */\n      swap2\n      pop\n        /* \"#utility.yul\":502:619   */\n      pop\n        /* \"#utility.yul\":297:626   */\n      swap3\n      swap2\n      pop\n      pop\n      jump\t// out\n        /* \"#utility.yul\":632:1106   */\n    tag_65:\n        /* \"#utility.yul\":700:706   */\n      0x00\n        /* \"#utility.yul\":708:714   */\n      dup1\n        /* \"#utility.yul\":757:759   */\n      0x40\n        /* \"#utility.yul\":745:754   */\n      dup4\n        /* \"#utility.yul\":736:743   */\n      dup6\n        /* \"#utility.yul\":732:755   */\n      sub\n        /* \"#utility.yul\":728:760   */\n      slt\n        /* \"#utility.yul\":725:844   */\n      iszero\n      tag_193\n      jumpi\n        /* \"#utility.yul\":763:842   */\n      tag_194\n      tag_190\n      jump\t// in\n    tag_194:\n        /* \"#utility.yul\":725:844   */\n    tag_193:\n        /* \"#utility.yul\":883:884   */\n      0x00\n        /* \"#utility.yul\":908:961   */\n      tag_195\n        /* \"#utility.yul\":953:960   */\n      dup6\n        /* \"#utility.yul\":944:950   */\n      dup3\n        /* \"#utility.yul\":933:942   */\n      dup7\n        /* \"#utility.yul\":929:951   */\n      add\n        /* \"#utility.yul\":908:961   */\n      tag_179\n      jump\t// in\n    tag_195:\n        /* \"#utility.yul\":898:961   */\n      swap3\n      pop\n        /* \"#utility.yul\":854:971   */\n      pop\n        /* \"#utility.yul\":1010:1012   */\n      0x20\n        /* \"#utility.yul\":1036:1089   */\n      tag_196\n        /* \"#utility.yul\":1081:1088   */\n      dup6\n        /* \"#utility.yul\":1072:1078   */\n      dup3\n        /* \"#utility.yul\":1061:1070   */\n      dup7\n        /* \"#utility.yul\":1057:1079   */\n      add\n        /* \"#utility.yul\":1036:1089   */\n      tag_183\n      jump\t// in\n    tag_196:\n        /* \"#utility.yul\":1026:1089   */\n      swap2\n      pop\n        /* \"#utility.yul\":981:1099   */\n      pop\n        /* \"#utility.yul\":632:1106   */\n      swap3\n      pop\n      swap3\n      swap1\n      pop\n      jump\t// out\n        /* \"#utility.yul\":1112:1441   */\n    tag_37:\n        /* \"#utility.yul\":1171:1177   */\n      0x00\n        /* \"#utility.yul\":1220:1222   */\n      0x20\n        /* \"#utility.yul\":1208:1217   */\n      dup3\n        /* \"#utility.yul\":1199:1206   */\n      dup5\n        /* \"#utility.yul\":1195:1218   */\n      sub\n        /* \"#utility.yul\":1191:1223   */\n      slt\n        /* \"#utility.yul\":1188:1307   */\n      iszero\n      tag_198\n      jumpi\n        /* \"#utility.yul\":1226:1305   */\n      tag_199\n      tag_190\n      jump\t// in\n    tag_199:\n        /* \"#utility.yul\":1188:1307   */\n    tag_198:\n        /* \"#utility.yul\":1346:1347   */\n      0x00\n        /* \"#utility.yul\":1371:1424   */\n      tag_200\n        /* \"#utility.yul\":1416:1423   */\n      dup5\n        /* \"#utility.yul\":1407:1413   */\n      dup3\n        /* \"#utility.yul\":1396:1405   */\n      dup6\n        /* \"#utility.yul\":1392:1414   */\n      add\n        /* \"#utility.yul\":1371:1424   */\n      tag_183\n      jump\t// in\n    tag_200:\n        /* \"#utility.yul\":1361:1424   */\n      swap2\n      pop\n        /* \"#utility.yul\":1317:1434   */\n      pop\n        /* \"#utility.yul\":1112:1441   */\n      swap3\n      swap2\n      pop\n      pop\n      jump\t// out\n        /* \"#utility.yul\":1447:1921   */\n    tag_28:\n        /* \"#utility.yul\":1515:1521   */\n      0x00\n        /* \"#utility.yul\":1523:1529   */\n      dup1\n        /* \"#utility.yul\":1572:1574   */\n      0x40\n        /* \"#utility.yul\":1560:1569   */\n      dup4\n        /* \"#utility.yul\":1551:1558   */\n      dup6\n        /* \"#utility.yul\":1547:1570   */\n      sub\n        /* \"#utility.yul\":1543:1575   */\n      slt\n        /* \"#utility.yul\":1540:1659   */\n      iszero\n      tag_202\n      jumpi\n        /* \"#utility.yul\":1578:1657   */\n      tag_203\n      tag_190\n      jump\t// in\n    tag_203:\n        /* \"#utility.yul\":1540:1659   */\n    tag_202:\n        /* \"#utility.yul\":1698:1699   */\n      0x00\n        /* \"#utility.yul\":1723:1776   */\n      tag_204\n        /* \"#utility.yul\":1768:1775   */\n      dup6\n        /* \"#utility.yul\":1759:1765   */\n      dup3\n        /* \"#utility.yul\":1748:1757   */\n      dup7\n        /* \"#utility.yul\":1744:1766   */\n      add\n        /* \"#utility.yul\":1723:1776   */\n      tag_183\n      jump\t// in\n    tag_204:\n        /* \"#utility.yul\":1713:1776   */\n      swap3\n      pop\n        /* \"#utility.yul\":1669:1786   */\n      pop\n        /* \"#utility.yul\":1825:1827   */\n      0x20\n        /* \"#utility.yul\":1851:1904   */\n      tag_205\n        /* \"#utility.yul\":1896:1903   */\n      dup6\n        /* \"#utility.yul\":1887:1893   */\n      dup3\n        /* \"#utility.yul\":1876:1885   */\n      dup7\n        /* \"#utility.yul\":1872:1894   */\n      add\n        /* \"#utility.yul\":1851:1904   */\n      tag_183\n      jump\t// in\n    tag_205:\n        /* \"#utility.yul\":1841:1904   */\n      swap2\n      pop\n        /* \"#utility.yul\":1796:1914   */\n      pop\n        /* \"#utility.yul\":1447:1921   */\n      swap3\n      pop\n      swap3\n      swap1\n      pop\n      jump\t// out\n        /* \"#utility.yul\":1927:2045   */\n    tag_206:\n        /* \"#utility.yul\":2014:2038   */\n      tag_208\n        /* \"#utility.yul\":2032:2037   */\n      dup2\n        /* \"#utility.yul\":2014:2038   */\n      tag_209\n      jump\t// in\n    tag_208:\n        /* \"#utility.yul\":2009:2012   */\n      dup3\n        /* \"#utility.yul\":2002:2039   */\n      mstore\n        /* \"#utility.yul\":1927:2045   */\n      pop\n      pop\n      jump\t// out\n        /* \"#utility.yul\":2051:2160   */\n    tag_210:\n        /* \"#utility.yul\":2132:2153   */\n      tag_212\n        /* \"#utility.yul\":2147:2152   */\n      dup2\n        /* \"#utility.yul\":2132:2153   */\n      tag_213\n      jump\t// in\n    tag_212:\n        /* \"#utility.yul\":2127:2130   */\n      dup3\n        /* \"#utility.yul\":2120:2154   */\n      mstore\n        /* \"#utility.yul\":2051:2160   */\n      pop\n      pop\n      jump\t// out\n        /* \"#utility.yul\":2166:2309   */\n    tag_214:\n        /* \"#utility.yul\":2259:2302   */\n      tag_216\n        /* \"#utility.yul\":2296:2301   */\n      dup2\n        /* \"#utility.yul\":2259:2302   */\n      tag_217\n      jump\t// in\n    tag_216:\n        /* \"#utility.yul\":2254:2257   */\n      dup3\n        /* \"#utility.yul\":2247:2303   */\n      mstore\n        /* \"#utility.yul\":2166:2309   */\n      pop\n      pop\n      jump\t// out\n        /* \"#utility.yul\":2315:2679   */\n    tag_218:\n        /* \"#utility.yul\":2403:2406   */\n      0x00\n        /* \"#utility.yul\":2431:2470   */\n      tag_220\n        /* \"#utility.yul\":2464:2469   */\n      dup3\n        /* \"#utility.yul\":2431:2470   */\n      tag_221\n      jump\t// in\n    tag_220:\n        /* \"#utility.yul\":2486:2557   */\n      tag_222\n        /* \"#utility.yul\":2550:2556   */\n      dup2\n        /* \"#utility.yul\":2545:2548   */\n      dup6\n        /* \"#utility.yul\":2486:2557   */\n      tag_223\n      jump\t// in\n    tag_222:\n        /* \"#utility.yul\":2479:2557   */\n      swap4\n      pop\n        /* \"#utility.yul\":2566:2618   */\n      tag_224\n        /* \"#utility.yul\":2611:2617   */\n      dup2\n        /* \"#utility.yul\":2606:2609   */\n      dup6\n        /* \"#utility.yul\":2599:2603   */\n      0x20\n        /* \"#utility.yul\":2592:2597   */\n      dup7\n        /* \"#utility.yul\":2588:2604   */\n      add\n        /* \"#utility.yul\":2566:2618   */\n      tag_225\n      jump\t// in\n    tag_224:\n        /* \"#utility.yul\":2643:2672   */\n      tag_226\n        /* \"#utility.yul\":2665:2671   */\n      dup2\n        /* \"#utility.yul\":2643:2672   */\n      tag_227\n      jump\t// in\n    tag_226:\n        /* \"#utility.yul\":2638:2641   */\n      dup5\n        /* \"#utility.yul\":2634:2673   */\n      add\n        /* \"#utility.yul\":2627:2673   */\n      swap2\n      pop\n        /* \"#utility.yul\":2407:2679   */\n      pop\n        /* \"#utility.yul\":2315:2679   */\n      swap3\n      swap2\n      pop\n      pop\n      jump\t// out\n        /* \"#utility.yul\":2685:3051   */\n    tag_228:\n        /* \"#utility.yul\":2827:2830   */\n      0x00\n        /* \"#utility.yul\":2848:2915   */\n      tag_230\n        /* \"#utility.yul\":2912:2914   */\n      0x2a\n        /* \"#utility.yul\":2907:2910   */\n      dup4\n        /* \"#utility.yul\":2848:2915   */\n      tag_223\n      jump\t// in\n    tag_230:\n        /* \"#utility.yul\":2841:2915   */\n      swap2\n      pop\n        /* \"#utility.yul\":2924:3017   */\n      tag_231\n        /* \"#utility.yul\":3013:3016   */\n      dup3\n        /* \"#utility.yul\":2924:3017   */\n      tag_232\n      jump\t// in\n    tag_231:\n        /* \"#utility.yul\":3042:3044   */\n      0x40\n        /* \"#utility.yul\":3037:3040   */\n      dup3\n        /* \"#utility.yul\":3033:3045   */\n      add\n        /* \"#utility.yul\":3026:3045   */\n      swap1\n      pop\n        /* \"#utility.yul\":2685:3051   */\n      swap2\n      swap1\n      pop\n      jump\t// out\n        /* \"#utility.yul\":3057:3423   */\n    tag_233:\n        /* \"#utility.yul\":3199:3202   */\n      0x00\n        /* \"#utility.yul\":3220:3287   */\n      tag_235\n        /* \"#utility.yul\":3284:3286   */\n      0x1c\n        /* \"#utility.yul\":3279:3282   */\n      dup4\n        /* \"#utility.yul\":3220:3287   */\n      tag_223\n      jump\t// in\n    tag_235:\n        /* \"#utility.yul\":3213:3287   */\n      swap2\n      pop\n        /* \"#utility.yul\":3296:3389   */\n      tag_236\n        /* \"#utility.yul\":3385:3388   */\n      dup3\n        /* \"#utility.yul\":3296:3389   */\n      tag_237\n      jump\t// in\n    tag_236:\n        /* \"#utility.yul\":3414:3416   */\n      0x20\n        /* \"#utility.yul\":3409:3412   */\n      dup3\n        /* \"#utility.yul\":3405:3417   */\n      add\n        /* \"#utility.yul\":3398:3417   */\n      swap1\n      pop\n        /* \"#utility.yul\":3057:3423   */\n      swap2\n      swap1\n      pop\n      jump\t// out\n        /* \"#utility.yul\":3429:3547   */\n    tag_238:\n        /* \"#utility.yul\":3516:3540   */\n      tag_240\n        /* \"#utility.yul\":3534:3539   */\n      dup2\n        /* \"#utility.yul\":3516:3540   */\n      tag_241\n      jump\t// in\n    tag_240:\n        /* \"#utility.yul\":3511:3514   */\n      dup3\n        /* \"#utility.yul\":3504:3541   */\n      mstore\n        /* \"#utility.yul\":3429:3547   */\n      pop\n      pop\n      jump\t// out\n        /* \"#utility.yul\":3553:3775   */\n    tag_52:\n        /* \"#utility.yul\":3646:3650   */\n      0x00\n        /* \"#utility.yul\":3684:3686   */\n      0x20\n        /* \"#utility.yul\":3673:3682   */\n      dup3\n        /* \"#utility.yul\":3669:3687   */\n      add\n        /* \"#utility.yul\":3661:3687   */\n      swap1\n      pop\n        /* \"#utility.yul\":3697:3768   */\n      tag_243\n        /* \"#utility.yul\":3765:3766   */\n      0x00\n        /* \"#utility.yul\":3754:3763   */\n      dup4\n        /* \"#utility.yul\":3750:3767   */\n      add\n        /* \"#utility.yul\":3741:3747   */\n      dup5\n        /* \"#utility.yul\":3697:3768   */\n      tag_206\n      jump\t// in\n    tag_243:\n        /* \"#utility.yul\":3553:3775   */\n      swap3\n      swap2\n      pop\n      pop\n      jump\t// out\n        /* \"#utility.yul\":3781:3991   */\n    tag_31:\n        /* \"#utility.yul\":3868:3872   */\n      0x00\n        /* \"#utility.yul\":3906:3908   */\n      0x20\n        /* \"#utility.yul\":3895:3904   */\n      dup3\n        /* \"#utility.yul\":3891:3909   */\n      add\n        /* \"#utility.yul\":3883:3909   */\n      swap1\n      pop\n        /* \"#utility.yul\":3919:3984   */\n      tag_245\n        /* \"#utility.yul\":3981:3982   */\n      0x00\n        /* \"#utility.yul\":3970:3979   */\n      dup4\n        /* \"#utility.yul\":3966:3983   */\n      add\n        /* \"#utility.yul\":3957:3963   */\n      dup5\n        /* \"#utility.yul\":3919:3984   */\n      tag_210\n      jump\t// in\n    tag_245:\n        /* \"#utility.yul\":3781:3991   */\n      swap3\n      swap2\n      pop\n      pop\n      jump\t// out\n        /* \"#utility.yul\":3997:4637   */\n    tag_46:\n        /* \"#utility.yul\":4190:4194   */\n      0x00\n        /* \"#utility.yul\":4228:4231   */\n      0xa0\n        /* \"#utility.yul\":4217:4226   */\n      dup3\n        /* \"#utility.yul\":4213:4232   */\n      add\n        /* \"#utility.yul\":4205:4232   */\n      swap1\n      pop\n        /* \"#utility.yul\":4242:4307   */\n      tag_247\n        /* \"#utility.yul\":4304:4305   */\n      0x00\n        /* \"#utility.yul\":4293:4302   */\n      dup4\n        /* \"#utility.yul\":4289:4306   */\n      add\n        /* \"#utility.yul\":4280:4286   */\n      dup9\n        /* \"#utility.yul\":4242:4307   */\n      tag_210\n      jump\t// in\n    tag_247:\n        /* \"#utility.yul\":4317:4383   */\n      tag_248\n        /* \"#utility.yul\":4379:4381   */\n      0x20\n        /* \"#utility.yul\":4368:4377   */\n      dup4\n        /* \"#utility.yul\":4364:4382   */\n      add\n        /* \"#utility.yul\":4355:4361   */\n      dup8\n        /* \"#utility.yul\":4317:4383   */\n      tag_210\n      jump\t// in\n    tag_248:\n        /* \"#utility.yul\":4393:4465   */\n      tag_249\n        /* \"#utility.yul\":4461:4463   */\n      0x40\n        /* \"#utility.yul\":4450:4459   */\n      dup4\n        /* \"#utility.yul\":4446:4464   */\n      add\n        /* \"#utility.yul\":4437:4443   */\n      dup7\n        /* \"#utility.yul\":4393:4465   */\n      tag_238\n      jump\t// in\n    tag_249:\n        /* \"#utility.yul\":4475:4547   */\n      tag_250\n        /* \"#utility.yul\":4543:4545   */\n      0x60\n        /* \"#utility.yul\":4532:4541   */\n      dup4\n        /* \"#utility.yul\":4528:4546   */\n      add\n        /* \"#utility.yul\":4519:4525   */\n      dup6\n        /* \"#utility.yul\":4475:4547   */\n      tag_238\n      jump\t// in\n    tag_250:\n        /* \"#utility.yul\":4557:4630   */\n      tag_251\n        /* \"#utility.yul\":4625:4628   */\n      0x80\n        /* \"#utility.yul\":4614:4623   */\n      dup4\n        /* \"#utility.yul\":4610:4629   */\n      add\n        /* \"#utility.yul\":4601:4607   */\n      dup5\n        /* \"#utility.yul\":4557:4630   */\n      tag_238\n      jump\t// in\n    tag_251:\n        /* \"#utility.yul\":3997:4637   */\n      swap7\n      swap6\n      pop\n      pop\n      pop\n      pop\n      pop\n      pop\n      jump\t// out\n        /* \"#utility.yul\":4643:5073   */\n    tag_102:\n        /* \"#utility.yul\":4786:4790   */\n      0x00\n        /* \"#utility.yul\":4824:4826   */\n      0x60\n        /* \"#utility.yul\":4813:4822   */\n      dup3\n        /* \"#utility.yul\":4809:4827   */\n      add\n        /* \"#utility.yul\":4801:4827   */\n      swap1\n      pop\n        /* \"#utility.yul\":4837:4902   */\n      tag_253\n        /* \"#utility.yul\":4899:4900   */\n      0x00\n        /* \"#utility.yul\":4888:4897   */\n      dup4\n        /* \"#utility.yul\":4884:4901   */\n      add\n        /* \"#utility.yul\":4875:4881   */\n      dup7\n        /* \"#utility.yul\":4837:4902   */\n      tag_210\n      jump\t// in\n    tag_253:\n        /* \"#utility.yul\":4912:4984   */\n      tag_254\n        /* \"#utility.yul\":4980:4982   */\n      0x20\n        /* \"#utility.yul\":4969:4978   */\n      dup4\n        /* \"#utility.yul\":4965:4983   */\n      add\n        /* \"#utility.yul\":4956:4962   */\n      dup6\n        /* \"#utility.yul\":4912:4984   */\n      tag_238\n      jump\t// in\n    tag_254:\n        /* \"#utility.yul\":4994:5066   */\n      tag_255\n        /* \"#utility.yul\":5062:5064   */\n      0x40\n        /* \"#utility.yul\":5051:5060   */\n      dup4\n        /* \"#utility.yul\":5047:5065   */\n      add\n        /* \"#utility.yul\":5038:5044   */\n      dup5\n        /* \"#utility.yul\":4994:5066   */\n      tag_238\n      jump\t// in\n    tag_255:\n        /* \"#utility.yul\":4643:5073   */\n      swap5\n      swap4\n      pop\n      pop\n      pop\n      pop\n      jump\t// out\n        /* \"#utility.yul\":5079:5313   */\n    tag_70:\n        /* \"#utility.yul\":5178:5182   */\n      0x00\n        /* \"#utility.yul\":5216:5218   */\n      0x20\n        /* \"#utility.yul\":5205:5214   */\n      dup3\n        /* \"#utility.yul\":5201:5219   */\n      add\n        /* \"#utility.yul\":5193:5219   */\n      swap1\n      pop\n        /* \"#utility.yul\":5229:5306   */\n      tag_257\n        /* \"#utility.yul\":5303:5304   */\n      0x00\n        /* \"#utility.yul\":5292:5301   */\n      dup4\n        /* \"#utility.yul\":5288:5305   */\n      add\n        /* \"#utility.yul\":5279:5285   */\n      dup5\n        /* \"#utility.yul\":5229:5306   */\n      tag_214\n      jump\t// in\n    tag_257:\n        /* \"#utility.yul\":5079:5313   */\n      swap3\n      swap2\n      pop\n      pop\n      jump\t// out\n        /* \"#utility.yul\":5319:5738   */\n    tag_151:\n        /* \"#utility.yul\":5485:5489   */\n      0x00\n        /* \"#utility.yul\":5523:5525   */\n      0x20\n        /* \"#utility.yul\":5512:5521   */\n      dup3\n        /* \"#utility.yul\":5508:5526   */\n      add\n        /* \"#utility.yul\":5500:5526   */\n      swap1\n      pop\n        /* \"#utility.yul\":5572:5581   */\n      dup2\n        /* \"#utility.yul\":5566:5570   */\n      dup2\n        /* \"#utility.yul\":5562:5582   */\n      sub\n        /* \"#utility.yul\":5558:5559   */\n      0x00\n        /* \"#utility.yul\":5547:5556   */\n      dup4\n        /* \"#utility.yul\":5543:5560   */\n      add\n        /* \"#utility.yul\":5536:5583   */\n      mstore\n        /* \"#utility.yul\":5600:5731   */\n      tag_259\n        /* \"#utility.yul\":5726:5730   */\n      dup2\n        /* \"#utility.yul\":5600:5731   */\n      tag_228\n      jump\t// in\n    tag_259:\n        /* \"#utility.yul\":5592:5731   */\n      swap1\n      pop\n        /* \"#utility.yul\":5319:5738   */\n      swap2\n      swap1\n      pop\n      jump\t// out\n        /* \"#utility.yul\":5744:6163   */\n    tag_147:\n        /* \"#utility.yul\":5910:5914   */\n      0x00\n        /* \"#utility.yul\":5948:5950   */\n      0x20\n        /* \"#utility.yul\":5937:5946   */\n      dup3\n        /* \"#utility.yul\":5933:5951   */\n      add\n        /* \"#utility.yul\":5925:5951   */\n      swap1\n      pop\n        /* \"#utility.yul\":5997:6006   */\n      dup2\n        /* \"#utility.yul\":5991:5995   */\n      dup2\n        /* \"#utility.yul\":5987:6007   */\n      sub\n        /* \"#utility.yul\":5983:5984   */\n      0x00\n        /* \"#utility.yul\":5972:5981   */\n      dup4\n        /* \"#utility.yul\":5968:5985   */\n      add\n        /* \"#utility.yul\":5961:6008   */\n      mstore\n        /* \"#utility.yul\":6025:6156   */\n      tag_261\n        /* \"#utility.yul\":6151:6155   */\n      dup2\n        /* \"#utility.yul\":6025:6156   */\n      tag_233\n      jump\t// in\n    tag_261:\n        /* \"#utility.yul\":6017:6156   */\n      swap1\n      pop\n        /* \"#utility.yul\":5744:6163   */\n      swap2\n      swap1\n      pop\n      jump\t// out\n        /* \"#utility.yul\":6169:6391   */\n    tag_25:\n        /* \"#utility.yul\":6262:6266   */\n      0x00\n        /* \"#utility.yul\":6300:6302   */\n      0x20\n        /* \"#utility.yul\":6289:6298   */\n      dup3\n        /* \"#utility.yul\":6285:6303   */\n      add\n        /* \"#utility.yul\":6277:6303   */\n      swap1\n      pop\n        /* \"#utility.yul\":6313:6384   */\n      tag_263\n        /* \"#utility.yul\":6381:6382   */\n      0x00\n        /* \"#utility.yul\":6370:6379   */\n      dup4\n        /* \"#utility.yul\":6366:6383   */\n      add\n        /* \"#utility.yul\":6357:6363   */\n      dup5\n        /* \"#utility.yul\":6313:6384   */\n      tag_238\n      jump\t// in\n    tag_263:\n        /* \"#utility.yul\":6169:6391   */\n      swap3\n      swap2\n      pop\n      pop\n      jump\t// out\n        /* \"#utility.yul\":6397:6930   */\n    tag_40:\n        /* \"#utility.yul\":6566:6570   */\n      0x00\n        /* \"#utility.yul\":6604:6606   */\n      0x60\n        /* \"#utility.yul\":6593:6602   */\n      dup3\n        /* \"#utility.yul\":6589:6607   */\n      add\n        /* \"#utility.yul\":6581:6607   */\n      swap1\n      pop\n        /* \"#utility.yul\":6617:6688   */\n      tag_265\n        /* \"#utility.yul\":6685:6686   */\n      0x00\n        /* \"#utility.yul\":6674:6683   */\n      dup4\n        /* \"#utility.yul\":6670:6687   */\n      add\n        /* \"#utility.yul\":6661:6667   */\n      dup7\n        /* \"#utility.yul\":6617:6688   */\n      tag_238\n      jump\t// in\n    tag_265:\n        /* \"#utility.yul\":6735:6744   */\n      dup2\n        /* \"#utility.yul\":6729:6733   */\n      dup2\n        /* \"#utility.yul\":6725:6745   */\n      sub\n        /* \"#utility.yul\":6720:6722   */\n      0x20\n        /* \"#utility.yul\":6709:6718   */\n      dup4\n        /* \"#utility.yul\":6705:6723   */\n      add\n        /* \"#utility.yul\":6698:6746   */\n      mstore\n        /* \"#utility.yul\":6763:6841   */\n      tag_266\n        /* \"#utility.yul\":6836:6840   */\n      dup2\n        /* \"#utility.yul\":6827:6833   */\n      dup6\n        /* \"#utility.yul\":6763:6841   */\n      tag_218\n      jump\t// in\n    tag_266:\n        /* \"#utility.yul\":6755:6841   */\n      swap1\n      pop\n        /* \"#utility.yul\":6851:6923   */\n      tag_267\n        /* \"#utility.yul\":6919:6921   */\n      0x40\n        /* \"#utility.yul\":6908:6917   */\n      dup4\n        /* \"#utility.yul\":6904:6922   */\n      add\n        /* \"#utility.yul\":6895:6901   */\n      dup5\n        /* \"#utility.yul\":6851:6923   */\n      tag_238\n      jump\t// in\n    tag_267:\n        /* \"#utility.yul\":6397:6930   */\n      swap5\n      swap4\n      pop\n      pop\n      pop\n      pop\n      jump\t// out\n        /* \"#utility.yul\":6936:7580   */\n    tag_85:\n        /* \"#utility.yul\":7133:7137   */\n      0x00\n        /* \"#utility.yul\":7171:7174   */\n      0x80\n        /* \"#utility.yul\":7160:7169   */\n      dup3\n        /* \"#utility.yul\":7156:7175   */\n      add\n        /* \"#utility.yul\":7148:7175   */\n      swap1\n      pop\n        /* \"#utility.yul\":7185:7256   */\n      tag_269\n        /* \"#utility.yul\":7253:7254   */\n      0x00\n        /* \"#utility.yul\":7242:7251   */\n      dup4\n        /* \"#utility.yul\":7238:7255   */\n      add\n        /* \"#utility.yul\":7229:7235   */\n      dup8\n        /* \"#utility.yul\":7185:7256   */\n      tag_238\n      jump\t// in\n    tag_269:\n        /* \"#utility.yul\":7303:7312   */\n      dup2\n        /* \"#utility.yul\":7297:7301   */\n      dup2\n        /* \"#utility.yul\":7293:7313   */\n      sub\n        /* \"#utility.yul\":7288:7290   */\n      0x20\n        /* \"#utility.yul\":7277:7286   */\n      dup4\n        /* \"#utility.yul\":7273:7291   */\n      add\n        /* \"#utility.yul\":7266:7314   */\n      mstore\n        /* \"#utility.yul\":7331:7409   */\n      tag_270\n        /* \"#utility.yul\":7404:7408   */\n      dup2\n        /* \"#utility.yul\":7395:7401   */\n      dup7\n        /* \"#utility.yul\":7331:7409   */\n      tag_218\n      jump\t// in\n    tag_270:\n        /* \"#utility.yul\":7323:7409   */\n      swap1\n      pop\n        /* \"#utility.yul\":7419:7491   */\n      tag_271\n        /* \"#utility.yul\":7487:7489   */\n      0x40\n        /* \"#utility.yul\":7476:7485   */\n      dup4\n        /* \"#utility.yul\":7472:7490   */\n      add\n        /* \"#utility.yul\":7463:7469   */\n      dup6\n        /* \"#utility.yul\":7419:7491   */\n      tag_238\n      jump\t// in\n    tag_271:\n        /* \"#utility.yul\":7501:7573   */\n      tag_272\n        /* \"#utility.yul\":7569:7571   */\n      0x60\n        /* \"#utility.yul\":7558:7567   */\n      dup4\n        /* \"#utility.yul\":7554:7572   */\n      add\n        /* \"#utility.yul\":7545:7551   */\n      dup5\n        /* \"#utility.yul\":7501:7573   */\n      tag_238\n      jump\t// in\n    tag_272:\n        /* \"#utility.yul\":6936:7580   */\n      swap6\n      swap5\n      pop\n      pop\n      pop\n      pop\n      pop\n      jump\t// out\n        /* \"#utility.yul\":7667:7766   */\n    tag_221:\n        /* \"#utility.yul\":7719:7725   */\n      0x00\n        /* \"#utility.yul\":7753:7758   */\n      dup2\n        /* \"#utility.yul\":7747:7759   */\n      mload\n        /* \"#utility.yul\":7737:7759   */\n      swap1\n      pop\n        /* \"#utility.yul\":7667:7766   */\n      swap2\n      swap1\n      pop\n      jump\t// out\n        /* \"#utility.yul\":7772:7941   */\n    tag_223:\n        /* \"#utility.yul\":7856:7867   */\n      0x00\n        /* \"#utility.yul\":7890:7896   */\n      dup3\n        /* \"#utility.yul\":7885:7888   */\n      dup3\n        /* \"#utility.yul\":7878:7897   */\n      mstore\n        /* \"#utility.yul\":7930:7934   */\n      0x20\n        /* \"#utility.yul\":7925:7928   */\n      dup3\n        /* \"#utility.yul\":7921:7935   */\n      add\n        /* \"#utility.yul\":7906:7935   */\n      swap1\n      pop\n        /* \"#utility.yul\":7772:7941   */\n      swap3\n      swap2\n      pop\n      pop\n      jump\t// out\n        /* \"#utility.yul\":7947:8043   */\n    tag_209:\n        /* \"#utility.yul\":7984:7991   */\n      0x00\n        /* \"#utility.yul\":8013:8037   */\n      tag_278\n        /* \"#utility.yul\":8031:8036   */\n      dup3\n        /* \"#utility.yul\":8013:8037   */\n      tag_279\n      jump\t// in\n    tag_278:\n        /* \"#utility.yul\":8002:8037   */\n      swap1\n      pop\n        /* \"#utility.yul\":7947:8043   */\n      swap2\n      swap1\n      pop\n      jump\t// out\n        /* \"#utility.yul\":8049:8139   */\n    tag_213:\n        /* \"#utility.yul\":8083:8090   */\n      0x00\n        /* \"#utility.yul\":8126:8131   */\n      dup2\n        /* \"#utility.yul\":8119:8132   */\n      iszero\n        /* \"#utility.yul\":8112:8133   */\n      iszero\n        /* \"#utility.yul\":8101:8133   */\n      swap1\n      pop\n        /* \"#utility.yul\":8049:8139   */\n      swap2\n      swap1\n      pop\n      jump\t// out\n        /* \"#utility.yul\":8145:8272   */\n    tag_281:\n        /* \"#utility.yul\":8190:8197   */\n      0x00\n        /* \"#utility.yul\":8219:8224   */\n      dup2\n        /* \"#utility.yul\":8208:8224   */\n      swap1\n      pop\n        /* \"#utility.yul\":8225:8266   */\n      tag_283\n        /* \"#utility.yul\":8260:8265   */\n      dup3\n        /* \"#utility.yul\":8225:8266   */\n      tag_284\n      jump\t// in\n    tag_283:\n        /* \"#utility.yul\":8145:8272   */\n      swap2\n      swap1\n      pop\n      jump\t// out\n        /* \"#utility.yul\":8278:8404   */\n    tag_279:\n        /* \"#utility.yul\":8315:8322   */\n      0x00\n        /* \"#utility.yul\":8355:8397   */\n      0xffffffffffffffffffffffffffffffffffffffff\n        /* \"#utility.yul\":8348:8353   */\n      dup3\n        /* \"#utility.yul\":8344:8398   */\n      and\n        /* \"#utility.yul\":8333:8398   */\n      swap1\n      pop\n        /* \"#utility.yul\":8278:8404   */\n      swap2\n      swap1\n      pop\n      jump\t// out\n        /* \"#utility.yul\":8410:8487   */\n    tag_241:\n        /* \"#utility.yul\":8447:8454   */\n      0x00\n        /* \"#utility.yul\":8476:8481   */\n      dup2\n        /* \"#utility.yul\":8465:8481   */\n      swap1\n      pop\n        /* \"#utility.yul\":8410:8487   */\n      swap2\n      swap1\n      pop\n      jump\t// out\n        /* \"#utility.yul\":8493:8620   */\n    tag_217:\n        /* \"#utility.yul\":8549:8558   */\n      0x00\n        /* \"#utility.yul\":8582:8614   */\n      tag_288\n        /* \"#utility.yul\":8608:8613   */\n      dup3\n        /* \"#utility.yul\":8582:8614   */\n      tag_281\n      jump\t// in\n    tag_288:\n        /* \"#utility.yul\":8569:8614   */\n      swap1\n      pop\n        /* \"#utility.yul\":8493:8620   */\n      swap2\n      swap1\n      pop\n      jump\t// out\n        /* \"#utility.yul\":8626:8933   */\n    tag_225:\n        /* \"#utility.yul\":8694:8695   */\n      0x00\n        /* \"#utility.yul\":8704:8817   */\n    tag_290:\n        /* \"#utility.yul\":8718:8724   */\n      dup4\n        /* \"#utility.yul\":8715:8716   */\n      dup2\n        /* \"#utility.yul\":8712:8725   */\n      lt\n        /* \"#utility.yul\":8704:8817   */\n      iszero\n      tag_292\n      jumpi\n        /* \"#utility.yul\":8803:8804   */\n      dup1\n        /* \"#utility.yul\":8798:8801   */\n      dup3\n        /* \"#utility.yul\":8794:8805   */\n      add\n        /* \"#utility.yul\":8788:8806   */\n      mload\n        /* \"#utility.yul\":8784:8785   */\n      dup2\n        /* \"#utility.yul\":8779:8782   */\n      dup5\n        /* \"#utility.yul\":8775:8786   */\n      add\n        /* \"#utility.yul\":8768:8807   */\n      mstore\n        /* \"#utility.yul\":8740:8742   */\n      0x20\n        /* \"#utility.yul\":8737:8738   */\n      dup2\n        /* \"#utility.yul\":8733:8743   */\n      add\n        /* \"#utility.yul\":8728:8743   */\n      swap1\n      pop\n        /* \"#utility.yul\":8704:8817   */\n      jump(tag_290)\n    tag_292:\n        /* \"#utility.yul\":8835:8841   */\n      dup4\n        /* \"#utility.yul\":8832:8833   */\n      dup2\n        /* \"#utility.yul\":8829:8842   */\n      gt\n        /* \"#utility.yul\":8826:8927   */\n      iszero\n      tag_293\n      jumpi\n        /* \"#utility.yul\":8915:8916   */\n      0x00\n        /* \"#utility.yul\":8906:8912   */\n      dup5\n        /* \"#utility.yul\":8901:8904   */\n      dup5\n        /* \"#utility.yul\":8897:8913   */\n      add\n        /* \"#utility.yul\":8890:8917   */\n      mstore\n        /* \"#utility.yul\":8826:8927   */\n    tag_293:\n        /* \"#utility.yul\":8675:8933   */\n      pop\n        /* \"#utility.yul\":8626:8933   */\n      pop\n      pop\n      pop\n      jump\t// out\n        /* \"#utility.yul\":8939:9259   */\n    tag_104:\n        /* \"#utility.yul\":8983:8989   */\n      0x00\n        /* \"#utility.yul\":9020:9021   */\n      0x02\n        /* \"#utility.yul\":9014:9018   */\n      dup3\n        /* \"#utility.yul\":9010:9022   */\n      div\n        /* \"#utility.yul\":9000:9022   */\n      swap1\n      pop\n        /* \"#utility.yul\":9067:9068   */\n      0x01\n        /* \"#utility.yul\":9061:9065   */\n      dup3\n        /* \"#utility.yul\":9057:9069   */\n      and\n        /* \"#utility.yul\":9088:9106   */\n      dup1\n        /* \"#utility.yul\":9078:9159   */\n      tag_295\n      jumpi\n        /* \"#utility.yul\":9144:9148   */\n      0x7f\n        /* \"#utility.yul\":9136:9142   */\n      dup3\n        /* \"#utility.yul\":9132:9149   */\n      and\n        /* \"#utility.yul\":9122:9149   */\n      swap2\n      pop\n        /* \"#utility.yul\":9078:9159   */\n    tag_295:\n        /* \"#utility.yul\":9206:9208   */\n      0x20\n        /* \"#utility.yul\":9198:9204   */\n      dup3\n        /* \"#utility.yul\":9195:9209   */\n      lt\n        /* \"#utility.yul\":9175:9193   */\n      dup2\n        /* \"#utility.yul\":9172:9210   */\n      eq\n        /* \"#utility.yul\":9169:9253   */\n      iszero\n      tag_296\n      jumpi\n        /* \"#utility.yul\":9225:9243   */\n      tag_297\n      tag_298\n      jump\t// in\n    tag_297:\n        /* \"#utility.yul\":9169:9253   */\n    tag_296:\n        /* \"#utility.yul\":8990:9259   */\n      pop\n        /* \"#utility.yul\":8939:9259   */\n      swap2\n      swap1\n      pop\n      jump\t// out\n        /* \"#utility.yul\":9265:9498   */\n    tag_97:\n        /* \"#utility.yul\":9304:9307   */\n      0x00\n        /* \"#utility.yul\":9327:9351   */\n      tag_300\n        /* \"#utility.yul\":9345:9350   */\n      dup3\n        /* \"#utility.yul\":9327:9351   */\n      tag_241\n      jump\t// in\n    tag_300:\n        /* \"#utility.yul\":9318:9351   */\n      swap2\n      pop\n        /* \"#utility.yul\":9373:9439   */\n      0xffffffffffffffffffffffffffffffffffffffffffffffffffffffffffffffff\n        /* \"#utility.yul\":9366:9371   */\n      dup3\n        /* \"#utility.yul\":9363:9440   */\n      eq\n        /* \"#utility.yul\":9360:9463   */\n      iszero\n      tag_301\n      jumpi\n        /* \"#utility.yul\":9443:9461   */\n      tag_302\n      tag_303\n      jump\t// in\n    tag_302:\n        /* \"#utility.yul\":9360:9463   */\n    tag_301:\n        /* \"#utility.yul\":9490:9491   */\n      0x01\n        /* \"#utility.yul\":9483:9488   */\n      dup3\n        /* \"#utility.yul\":9479:9492   */\n      add\n        /* \"#utility.yul\":9472:9492   */\n      swap1\n      pop\n        /* \"#utility.yul\":9265:9498   */\n      swap2\n      swap1\n      pop\n      jump\t// out\n        /* \"#utility.yul\":9504:9684   */\n    tag_303:\n        /* \"#utility.yul\":9552:9629   */\n      0x4e487b7100000000000000000000000000000000000000000000000000000000\n        /* \"#utility.yul\":9549:9550   */\n      0x00\n        /* \"#utility.yul\":9542:9630   */\n      mstore\n        /* \"#utility.yul\":9649:9653   */\n      0x11\n        /* \"#utility.yul\":9646:9647   */\n      0x04\n        /* \"#utility.yul\":9639:9654   */\n      mstore\n        /* \"#utility.yul\":9673:9677   */\n      0x24\n        /* \"#utility.yul\":9670:9671   */\n      0x00\n        /* \"#utility.yul\":9663:9678   */\n      revert\n        /* \"#utility.yul\":9690:9870   */\n    tag_89:\n        /* \"#utility.yul\":9738:9815   */\n      0x4e487b7100000000000000000000000000000000000000000000000000000000\n        /* \"#utility.yul\":9735:9736   */\n      0x00\n        /* \"#utility.yul\":9728:9816   */\n      mstore\n        /* \"#utility.yul\":9835:9839   */\n      0x21\n        /* \"#utility.yul\":9832:9833   */\n      0x04\n        /* \"#utility.yul\":9825:9840   */\n      mstore\n        /* \"#utility.yul\":9859:9863   */\n      0x24\n        /* \"#utility.yul\":9856:9857   */\n      0x00\n        /* \"#utility.yul\":9849:9864   */\n      revert\n        /* \"#utility.yul\":9876:10056   */\n    tag_298:\n        /* \"#utility.yul\":9924:10001   */\n      0x4e487b7100000000000000000000000000000000000000000000000000000000\n        /* \"#utility.yul\":9921:9922   */\n      0x00\n        /* \"#utility.yul\":9914:10002   */\n      mstore\n        /* \"#utility.yul\":10021:10025   */\n      0x22\n        /* \"#utility.yul\":10018:10019   */\n      0x04\n        /* \"#utility.yul\":10011:10026   */\n      mstore\n        /* \"#utility.yul\":10045:10049   */\n      0x24\n        /* \"#utility.yul\":10042:10043   */\n      0x00\n        /* \"#utility.yul\":10035:10050   */\n      revert\n        /* \"#utility.yul\":10185:10302   */\n    tag_190:\n        /* \"#utility.yul\":10294:10295   */\n      0x00\n        /* \"#utility.yul\":10291:10292   */\n      dup1\n        /* \"#utility.yul\":10284:10296   */\n      revert\n        /* \"#utility.yul\":10308:10410   */\n    tag_227:\n        /* \"#utility.yul\":10349:10355   */\n      0x00\n        /* \"#utility.yul\":10400:10402   */\n      0x1f\n        /* \"#utility.yul\":10396:10403   */\n      not\n        /* \"#utility.yul\":10391:10393   */\n      0x1f\n        /* \"#utility.yul\":10384:10389   */\n      dup4\n        /* \"#utility.yul\":10380:10394   */\n      add\n        /* \"#utility.yul\":10376:10404   */\n      and\n        /* \"#utility.yul\":10366:10404   */\n      swap1\n      pop\n        /* \"#utility.yul\":10308:10410   */\n      swap2\n      swap1\n      pop\n      jump\t// out\n        /* \"#utility.yul\":10416:10645   */\n    tag_232:\n        /* \"#utility.yul\":10556:10590   */\n      0x506c656173652070726f7669646520612076616c696420706f6c6c696e672073\n        /* \"#utility.yul\":10552:10553   */\n      0x00\n        /* \"#utility.yul\":10544:10550   */\n      dup3\n        /* \"#utility.yul\":10540:10554   */\n      add\n        /* \"#utility.yul\":10533:10591   */\n      mstore\n        /* \"#utility.yul\":10625:10637   */\n      0x746174696f6e2049442e00000000000000000000000000000000000000000000\n        /* \"#utility.yul\":10620:10622   */\n      0x20\n        /* \"#utility.yul\":10612:10618   */\n      dup3\n        /* \"#utility.yul\":10608:10623   */\n      add\n        /* \"#utility.yul\":10601:10638   */\n      mstore\n        /* \"#utility.yul\":10416:10645   */\n      pop\n      jump\t// out\n        /* \"#utility.yul\":10651:10829   */\n    tag_237:\n        /* \"#utility.yul\":10791:10821   */\n      0x566f74657220697320616c726561647920726567697374657265642e00000000\n        /* \"#utility.yul\":10787:10788   */\n      0x00\n        /* \"#utility.yul\":10779:10785   */\n      dup3\n        /* \"#utility.yul\":10775:10789   */\n      add\n        /* \"#utility.yul\":10768:10822   */\n      mstore\n        /* \"#utility.yul\":10651:10829   */\n      pop\n      jump\t// out\n        /* \"#utility.yul\":10835:10948   */\n    tag_284:\n        /* \"#utility.yul\":10916:10917   */\n      0x03\n        /* \"#utility.yul\":10909:10914   */\n      dup2\n        /* \"#utility.yul\":10906:10918   */\n      lt\n        /* \"#utility.yul\":10896:10942   */\n      tag_314\n      jumpi\n        /* \"#utility.yul\":10922:10940   */\n      tag_315\n      tag_89\n      jump\t// in\n    tag_315:\n        /* \"#utility.yul\":10896:10942   */\n    tag_314:\n        /* \"#utility.yul\":10835:10948   */\n      pop\n      jump\t// out\n        /* \"#utility.yul\":10954:11076   */\n    tag_182:\n        /* \"#utility.yul\":11027:11051   */\n      tag_317\n        /* \"#utility.yul\":11045:11050   */\n      dup2\n        /* \"#utility.yul\":11027:11051   */\n      tag_209\n      jump\t// in\n    tag_317:\n        /* \"#utility.yul\":11020:11025   */\n      dup2\n        /* \"#utility.yul\":11017:11052   */\n      eq\n        /* \"#utility.yul\":11007:11070   */\n      tag_318\n      jumpi\n        /* \"#utility.yul\":11066:11067   */\n      0x00\n        /* \"#utility.yul\":11063:11064   */\n      dup1\n        /* \"#utility.yul\":11056:11068   */\n      revert\n        /* \"#utility.yul\":11007:11070   */\n    tag_318:\n        /* \"#utility.yul\":10954:11076   */\n      pop\n      jump\t// out\n        /* \"#utility.yul\":11082:11204   */\n    tag_186:\n        /* \"#utility.yul\":11155:11179   */\n      tag_320\n        /* \"#utility.yul\":11173:11178   */\n      dup2\n        /* \"#utility.yul\":11155:11179   */\n      tag_241\n      jump\t// in\n    tag_320:\n        /* \"#utility.yul\":11148:11153   */\n      dup2\n        /* \"#utility.yul\":11145:11180   */\n      eq\n        /* \"#utility.yul\":11135:11198   */\n      tag_321\n      jumpi\n        /* \"#utility.yul\":11194:11195   */\n      0x00\n        /* \"#utility.yul\":11191:11192   */\n      dup1\n        /* \"#utility.yul\":11184:11196   */\n      revert\n        /* \"#utility.yul\":11135:11198   */\n    tag_321:\n        /* \"#utility.yul\":11082:11204   */\n      pop\n      jump\t// out\n\n    auxdata: 0xa2646970667358221220552ffba92d58feb9bf916229a0e79de16fa858b8677e813055aebed5308f427664736f6c63430008070033\n}\n",
				"bytecode": {
					"linkReferences": {},
					"object": "60806040523480156200001157600080fd5b50336000806101000a81548173ffffffffffffffffffffffffffffffffffffffff021916908373ffffffffffffffffffffffffffffffffffffffff16021790555062000062620000a660201b60201c565b620000726200020660201b60201c565b6000600c60006101000a81548160ff021916908360028111156200009b576200009a6200074e565b5b0217905550620007ac565b620000ec6040518060400160405280600b81526020017f43616e6469646174652031000000000000000000000000000000000000000000815250620004c460201b60201c565b620001326040518060400160405280600b81526020017f43616e6469646174652032000000000000000000000000000000000000000000815250620004c460201b60201c565b620001786040518060400160405280600b81526020017f43616e6469646174652033000000000000000000000000000000000000000000815250620004c460201b60201c565b620001be6040518060400160405280600b81526020017f43616e6469646174652034000000000000000000000000000000000000000000815250620004c460201b60201c565b620002046040518060400160405280600b81526020017f43616e6469646174652035000000000000000000000000000000000000000000815250620004c460201b60201c565b565b6200024c6040518060400160405280601181526020017f506f6c6c696e672053746174696f6e20310000000000000000000000000000008152506200054a60201b60201c565b620002926040518060400160405280601181526020017f506f6c6c696e672053746174696f6e20320000000000000000000000000000008152506200054a60201b60201c565b620002d86040518060400160405280601181526020017f506f6c6c696e672053746174696f6e20330000000000000000000000000000008152506200054a60201b60201c565b6200031e6040518060400160405280601181526020017f506f6c6c696e672053746174696f6e20340000000000000000000000000000008152506200054a60201b60201c565b620003646040518060400160405280601181526020017f506f6c6c696e672053746174696f6e20350000000000000000000000000000008152506200054a60201b60201c565b620003aa6040518060400160405280601181526020017f506f6c6c696e672053746174696f6e20360000000000000000000000000000008152506200054a60201b60201c565b620003f06040518060400160405280601181526020017f506f6c6c696e672053746174696f6e20370000000000000000000000000000008152506200054a60201b60201c565b620004366040518060400160405280601181526020017f506f6c6c696e672053746174696f6e20380000000000000000000000000000008152506200054a60201b60201c565b6200047c6040518060400160405280601181526020017f506f6c6c696e672053746174696f6e20390000000000000000000000000000008152506200054a60201b60201c565b620004c26040518060400160405280601281526020017f506f6c6c696e672053746174696f6e20313000000000000000000000000000008152506200054a60201b60201c565b565b60016000815480929190620004d990620006d1565b919050555060405180606001604052806001548152602001828152602001600081525060076000600154815260200190815260200160002060008201518160000155602082015181600101908051906020019062000539929190620005e1565b506040820151816002015590505050565b600260008154809291906200055f90620006d1565b919050555060405180608001604052806002548152602001828152602001600081526020016000815250600860006002548152602001908152602001600020600082015181600001556020820151816001019080519060200190620005c6929190620005e1565b50604082015181600201556060820151816003015590505050565b828054620005ef906200069b565b90600052602060002090601f0160209004810192826200061357600085556200065f565b82601f106200062e57805160ff19168380011785556200065f565b828001600101855582156200065f579182015b828111156200065e57825182559160200191906001019062000641565b5b5090506200066e919062000672565b5090565b5b808211156200068d57600081600090555060010162000673565b5090565b6000819050919050565b60006002820490506001821680620006b457607f821691505b60208210811415620006cb57620006ca6200077d565b5b50919050565b6000620006de8262000691565b91507fffffffffffffffffffffffffffffffffffffffffffffffffffffffffffffffff8214156200071457620007136200071f565b5b600182019050919050565b7f4e487b7100000000000000000000000000000000000000000000000000000000600052601160045260246000fd5b7f4e487b7100000000000000000000000000000000000000000000000000000000600052602160045260246000fd5b7f4e487b7100000000000000000000000000000000000000000000000000000000600052602260045260246000fd5b61154f80620007bc6000396000f3fe608060405234801561001057600080fd5b50600436106100ff5760003560e01c8063b54b5d6211610097578063d70c6f4e11610066578063d70c6f4e146102a4578063df9f1a07146102d6578063f3a8286f146102f4578063fe2442d714610312576100ff565b8063b54b5d621461022e578063b922394614610260578063b9f05f2f1461026a578063c19d93fb14610286576100ff565b80634763d4e7116100d35780634763d4e7146101a25780634c0a6af0146101d657806353357ad0146101e0578063a3ec138d146101fe576100ff565b8062aa7464146101045780632c0a3f89146101225780632d35a8a2146101525780633477ee2e14610170575b600080fd5b61010c610345565b60405161011991906111e0565b60405180910390f35b61013c60048036038101906101379190610fca565b61034b565b60405161014991906110e0565b60405180910390f35b61015a610676565b60405161016791906111e0565b60405180910390f35b61018a60048036038101906101859190610f9d565b61067c565b604051610199939291906111fb565b60405180910390f35b6101bc60048036038101906101b79190610f30565b61072e565b6040516101cd9594939291906110fb565b60405180910390f35b6101de61077e565b005b6101e8610845565b6040516101f591906110c5565b60405180910390f35b61021860048036038101906102139190610f30565b610869565b60405161022591906110e0565b60405180910390f35b61024860048036038101906102439190610fca565b610889565b604051610257939291906111fb565b60405180910390f35b610268610948565b005b610284600480360381019061027f9190610f5d565b610a18565b005b61028e610cab565b60405161029b9190611185565b60405180910390f35b6102be60048036038101906102b99190610fca565b610cbe565b6040516102cd939291906111fb565b60405180910390f35b6102de610d99565b6040516102eb91906111e0565b60405180910390f35b6102fc610d9f565b60405161030991906111e0565b60405180910390f35b61032c60048036038101906103279190610f9d565b610da5565b60405161033c9493929190611239565b60405180910390f35b60035481565b60006001806002811115610362576103616113eb565b5b600c60009054906101000a900460ff166002811115610384576103836113eb565b5b1461038e57600080fd5b6000600960003373ffffffffffffffffffffffffffffffffffffffff1673ffffffffffffffffffffffffffffffffffffffff16815260200190815260200160002060000160009054906101000a900460ff1680156104395750600960003373ffffffffffffffffffffffffffffffffffffffff1673ffffffffffffffffffffffffffffffffffffffff16815260200190815260200160002060000160019054906101000a900460ff16155b1561066b5784600960003373ffffffffffffffffffffffffffffffffffffffff1673ffffffffffffffffffffffffffffffffffffffff1681526020019081526020016000206001018190555083600960003373ffffffffffffffffffffffffffffffffffffffff1673ffffffffffffffffffffffffffffffffffffffff168152602001908152602001600020600301819055506001600960003373ffffffffffffffffffffffffffffffffffffffff1673ffffffffffffffffffffffffffffffffffffffff16815260200190815260200160002060000160016101000a81548160ff02191690831515021790555060086000858152602001908152602001600020600301600081548092919061054e90611373565b919050555060076000868152602001908152602001600020600201600081548092919061057a90611373565b91905055506004600081548092919061059290611373565b91905055506001905080600a60003373ffffffffffffffffffffffffffffffffffffffff1673ffffffffffffffffffffffffffffffffffffffff16815260200190815260200160002060006101000a81548160ff021916908315150217905550600b60008581526020019081526020016000206000868152602001908152602001600020600201600081548092919061062a90611373565b91905055507f29a25b3d0b6ff7e5de2a60a2e8e76d1bdaf4894ec18c598cc1687213f442c5cb8186866040516106629392919061114e565b60405180910390a15b809250505092915050565b60015481565b60076020528060005260406000206000915090508060000154908060010180546106a590611341565b80601f01602080910402602001604051908101604052809291908181526020018280546106d190611341565b801561071e5780601f106106f35761010080835404028352916020019161071e565b820191906000526020600020905b81548152906001019060200180831161070157829003601f168201915b5050505050908060020154905083565b60096020528060005260406000206000915090508060000160009054906101000a900460ff16908060000160019054906101000a900460ff16908060010154908060020154908060030154905085565b6000806002811115610793576107926113eb565b5b600c60009054906101000a900460ff1660028111156107b5576107b46113eb565b5b146107bf57600080fd5b60008054906101000a900473ffffffffffffffffffffffffffffffffffffffff1673ffffffffffffffffffffffffffffffffffffffff163373ffffffffffffffffffffffffffffffffffffffff161461081757600080fd5b6001600c60006101000a81548160ff0219169083600281111561083d5761083c6113eb565b5b021790555050565b60008054906101000a900473ffffffffffffffffffffffffffffffffffffffff1681565b600a6020528060005260406000206000915054906101000a900460ff1681565b600b602052816000526040600020602052806000526040600020600091509150508060000154908060010180546108bf90611341565b80601f01602080910402602001604051908101604052809291908181526020018280546108eb90611341565b80156109385780601f1061090d57610100808354040283529160200191610938565b820191906000526020600020905b81548152906001019060200180831161091b57829003601f168201915b5050505050908060020154905083565b600180600281111561095d5761095c6113eb565b5b600c60009054906101000a900460ff16600281111561097f5761097e6113eb565b5b1461098957600080fd5b60008054906101000a900473ffffffffffffffffffffffffffffffffffffffff1673ffffffffffffffffffffffffffffffffffffffff163373ffffffffffffffffffffffffffffffffffffffff16146109e157600080fd5b6002600c60006101000a81548160ff02191690836002811115610a0757610a066113eb565b5b021790555060045460058190555050565b6000806002811115610a2d57610a2c6113eb565b5b600c60009054906101000a900460ff166002811115610a4f57610a4e6113eb565b5b14610a5957600080fd5b60008054906101000a900473ffffffffffffffffffffffffffffffffffffffff1673ffffffffffffffffffffffffffffffffffffffff163373ffffffffffffffffffffffffffffffffffffffff1614610ab157600080fd5b60001515600960008573ffffffffffffffffffffffffffffffffffffffff1673ffffffffffffffffffffffffffffffffffffffff16815260200190815260200160002060000160009054906101000a900460ff16151514610b47576040517f08c379a0000000000000000000000000000000000000000000000000000000008152600401610b3e906111c0565b60405180910390fd5b60018210158015610b5a57506002548211155b610b99576040517f08c379a0000000000000000000000000000000000000000000000000000000008152600401610b90906111a0565b60405180910390fd5b610ba1610ed3565b60018160000190151590811515815250506000816020019015159081151581525050600081604001818152505082816060018181525050600081608001818152505080600960008673ffffffffffffffffffffffffffffffffffffffff1673ffffffffffffffffffffffffffffffffffffffff16815260200190815260200160002060008201518160000160006101000a81548160ff02191690831515021790555060208201518160000160016101000a81548160ff021916908315150217905550604082015181600101556060820151816002015560808201518160030155905050610c8d83610e5d565b60036000815480929190610ca090611373565b919050555050505050565b600c60009054906101000a900460ff1681565b60068281548110610cce57600080fd5b906000526020600020018181548110610ce657600080fd5b906000526020600020906003020160009150915050806000015490806001018054610d1090611341565b80601f0160208091040260200160405190810160405280929190818152602001828054610d3c90611341565b8015610d895780601f10610d5e57610100808354040283529160200191610d89565b820191906000526020600020905b815481529060010190602001808311610d6c57829003601f168201915b5050505050908060020154905083565b60025481565b60055481565b6008602052806000526040600020600091509050806000015490806001018054610dce90611341565b80601f0160208091040260200160405190810160405280929190818152602001828054610dfa90611341565b8015610e475780601f10610e1c57610100808354040283529160200191610e47565b820191906000526020600020905b815481529060010190602001808311610e2a57829003601f168201915b5050505050908060020154908060030154905084565b6000600190505b6002548111610ecf578160086000838152602001908152602001600020600001541415610ebc57600860008281526020019081526020016000206002016000815480929190610eb290611373565b9190505550610ecf565b8080610ec790611373565b915050610e64565b5050565b6040518060a001604052806000151581526020016000151581526020016000815260200160008152602001600081525090565b600081359050610f15816114eb565b92915050565b600081359050610f2a81611502565b92915050565b600060208284031215610f4657610f45611449565b5b6000610f5484828501610f06565b91505092915050565b60008060408385031215610f7457610f73611449565b5b6000610f8285828601610f06565b9250506020610f9385828601610f1b565b9150509250929050565b600060208284031215610fb357610fb2611449565b5b6000610fc184828501610f1b565b91505092915050565b60008060408385031215610fe157610fe0611449565b5b6000610fef85828601610f1b565b925050602061100085828601610f1b565b9150509250929050565b611013816112a1565b82525050565b611022816112b3565b82525050565b611031816112fc565b82525050565b600061104282611285565b61104c8185611290565b935061105c81856020860161130e565b6110658161144e565b840191505092915050565b600061107d602a83611290565b91506110888261145f565b604082019050919050565b60006110a0601c83611290565b91506110ab826114ae565b602082019050919050565b6110bf816112f2565b82525050565b60006020820190506110da600083018461100a565b92915050565b60006020820190506110f56000830184611019565b92915050565b600060a0820190506111106000830188611019565b61111d6020830187611019565b61112a60408301866110b6565b61113760608301856110b6565b61114460808301846110b6565b9695505050505050565b60006060820190506111636000830186611019565b61117060208301856110b6565b61117d60408301846110b6565b949350505050565b600060208201905061119a6000830184611028565b92915050565b600060208201905081810360008301526111b981611070565b9050919050565b600060208201905081810360008301526111d981611093565b9050919050565b60006020820190506111f560008301846110b6565b92915050565b600060608201905061121060008301866110b6565b81810360208301526112228185611037565b905061123160408301846110b6565b949350505050565b600060808201905061124e60008301876110b6565b81810360208301526112608186611037565b905061126f60408301856110b6565b61127c60608301846110b6565b95945050505050565b600081519050919050565b600082825260208201905092915050565b60006112ac826112d2565b9050919050565b60008115159050919050565b60008190506112cd826114d7565b919050565b600073ffffffffffffffffffffffffffffffffffffffff82169050919050565b6000819050919050565b6000611307826112bf565b9050919050565b60005b8381101561132c578082015181840152602081019050611311565b8381111561133b576000848401525b50505050565b6000600282049050600182168061135957607f821691505b6020821081141561136d5761136c61141a565b5b50919050565b600061137e826112f2565b91507fffffffffffffffffffffffffffffffffffffffffffffffffffffffffffffffff8214156113b1576113b06113bc565b5b600182019050919050565b7f4e487b7100000000000000000000000000000000000000000000000000000000600052601160045260246000fd5b7f4e487b7100000000000000000000000000000000000000000000000000000000600052602160045260246000fd5b7f4e487b7100000000000000000000000000000000000000000000000000000000600052602260045260246000fd5b600080fd5b6000601f19601f8301169050919050565b7f506c656173652070726f7669646520612076616c696420706f6c6c696e67207360008201527f746174696f6e2049442e00000000000000000000000000000000000000000000602082015250565b7f566f74657220697320616c726561647920726567697374657265642e00000000600082015250565b600381106114e8576114e76113eb565b5b50565b6114f4816112a1565b81146114ff57600080fd5b50565b61150b816112f2565b811461151657600080fd5b5056fea2646970667358221220552ffba92d58feb9bf916229a0e79de16fa858b8677e813055aebed5308f427664736f6c63430008070033",
					"opcodes": "PUSH1 0x80 PUSH1 0x40 MSTORE CALLVALUE DUP1 ISZERO PUSH3 0x11 JUMPI PUSH1 0x0 DUP1 REVERT JUMPDEST POP CALLER PUSH1 0x0 DUP1 PUSH2 0x100 EXP DUP2 SLOAD DUP2 PUSH20 0xFFFFFFFFFFFFFFFFFFFFFFFFFFFFFFFFFFFFFFFF MUL NOT AND SWAP1 DUP4 PUSH20 0xFFFFFFFFFFFFFFFFFFFFFFFFFFFFFFFFFFFFFFFF AND MUL OR SWAP1 SSTORE POP PUSH3 0x62 PUSH3 0xA6 PUSH1 0x20 SHL PUSH1 0x20 SHR JUMP JUMPDEST PUSH3 0x72 PUSH3 0x206 PUSH1 0x20 SHL PUSH1 0x20 SHR JUMP JUMPDEST PUSH1 0x0 PUSH1 0xC PUSH1 0x0 PUSH2 0x100 EXP DUP2 SLOAD DUP2 PUSH1 0xFF MUL NOT AND SWAP1 DUP4 PUSH1 0x2 DUP2 GT ISZERO PUSH3 0x9B JUMPI PUSH3 0x9A PUSH3 0x74E JUMP JUMPDEST JUMPDEST MUL OR SWAP1 SSTORE POP PUSH3 0x7AC JUMP JUMPDEST PUSH3 0xEC PUSH1 0x40 MLOAD DUP1 PUSH1 0x40 ADD PUSH1 0x40 MSTORE DUP1 PUSH1 0xB DUP2 MSTORE PUSH1 0x20 ADD PUSH32 0x43616E6469646174652031000000000000000000000000000000000000000000 DUP2 MSTORE POP PUSH3 0x4C4 PUSH1 0x20 SHL PUSH1 0x20 SHR JUMP JUMPDEST PUSH3 0x132 PUSH1 0x40 MLOAD DUP1 PUSH1 0x40 ADD PUSH1 0x40 MSTORE DUP1 PUSH1 0xB DUP2 MSTORE PUSH1 0x20 ADD PUSH32 0x43616E6469646174652032000000000000000000000000000000000000000000 DUP2 MSTORE POP PUSH3 0x4C4 PUSH1 0x20 SHL PUSH1 0x20 SHR JUMP JUMPDEST PUSH3 0x178 PUSH1 0x40 MLOAD DUP1 PUSH1 0x40 ADD PUSH1 0x40 MSTORE DUP1 PUSH1 0xB DUP2 MSTORE PUSH1 0x20 ADD PUSH32 0x43616E6469646174652033000000000000000000000000000000000000000000 DUP2 MSTORE POP PUSH3 0x4C4 PUSH1 0x20 SHL PUSH1 0x20 SHR JUMP JUMPDEST PUSH3 0x1BE PUSH1 0x40 MLOAD DUP1 PUSH1 0x40 ADD PUSH1 0x40 MSTORE DUP1 PUSH1 0xB DUP2 MSTORE PUSH1 0x20 ADD PUSH32 0x43616E6469646174652034000000000000000000000000000000000000000000 DUP2 MSTORE POP PUSH3 0x4C4 PUSH1 0x20 SHL PUSH1 0x20 SHR JUMP JUMPDEST PUSH3 0x204 PUSH1 0x40 MLOAD DUP1 PUSH1 0x40 ADD PUSH1 0x40 MSTORE DUP1 PUSH1 0xB DUP2 MSTORE PUSH1 0x20 ADD PUSH32 0x43616E6469646174652035000000000000000000000000000000000000000000 DUP2 MSTORE POP PUSH3 0x4C4 PUSH1 0x20 SHL PUSH1 0x20 SHR JUMP JUMPDEST JUMP JUMPDEST PUSH3 0x24C PUSH1 0x40 MLOAD DUP1 PUSH1 0x40 ADD PUSH1 0x40 MSTORE DUP1 PUSH1 0x11 DUP2 MSTORE PUSH1 0x20 ADD PUSH32 0x506F6C6C696E672053746174696F6E2031000000000000000000000000000000 DUP2 MSTORE POP PUSH3 0x54A PUSH1 0x20 SHL PUSH1 0x20 SHR JUMP JUMPDEST PUSH3 0x292 PUSH1 0x40 MLOAD DUP1 PUSH1 0x40 ADD PUSH1 0x40 MSTORE DUP1 PUSH1 0x11 DUP2 MSTORE PUSH1 0x20 ADD PUSH32 0x506F6C6C696E672053746174696F6E2032000000000000000000000000000000 DUP2 MSTORE POP PUSH3 0x54A PUSH1 0x20 SHL PUSH1 0x20 SHR JUMP JUMPDEST PUSH3 0x2D8 PUSH1 0x40 MLOAD DUP1 PUSH1 0x40 ADD PUSH1 0x40 MSTORE DUP1 PUSH1 0x11 DUP2 MSTORE PUSH1 0x20 ADD PUSH32 0x506F6C6C696E672053746174696F6E2033000000000000000000000000000000 DUP2 MSTORE POP PUSH3 0x54A PUSH1 0x20 SHL PUSH1 0x20 SHR JUMP JUMPDEST PUSH3 0x31E PUSH1 0x40 MLOAD DUP1 PUSH1 0x40 ADD PUSH1 0x40 MSTORE DUP1 PUSH1 0x11 DUP2 MSTORE PUSH1 0x20 ADD PUSH32 0x506F6C6C696E672053746174696F6E2034000000000000000000000000000000 DUP2 MSTORE POP PUSH3 0x54A PUSH1 0x20 SHL PUSH1 0x20 SHR JUMP JUMPDEST PUSH3 0x364 PUSH1 0x40 MLOAD DUP1 PUSH1 0x40 ADD PUSH1 0x40 MSTORE DUP1 PUSH1 0x11 DUP2 MSTORE PUSH1 0x20 ADD PUSH32 0x506F6C6C696E672053746174696F6E2035000000000000000000000000000000 DUP2 MSTORE POP PUSH3 0x54A PUSH1 0x20 SHL PUSH1 0x20 SHR JUMP JUMPDEST PUSH3 0x3AA PUSH1 0x40 MLOAD DUP1 PUSH1 0x40 ADD PUSH1 0x40 MSTORE DUP1 PUSH1 0x11 DUP2 MSTORE PUSH1 0x20 ADD PUSH32 0x506F6C6C696E672053746174696F6E2036000000000000000000000000000000 DUP2 MSTORE POP PUSH3 0x54A PUSH1 0x20 SHL PUSH1 0x20 SHR JUMP JUMPDEST PUSH3 0x3F0 PUSH1 0x40 MLOAD DUP1 PUSH1 0x40 ADD PUSH1 0x40 MSTORE DUP1 PUSH1 0x11 DUP2 MSTORE PUSH1 0x20 ADD PUSH32 0x506F6C6C696E672053746174696F6E2037000000000000000000000000000000 DUP2 MSTORE POP PUSH3 0x54A PUSH1 0x20 SHL PUSH1 0x20 SHR JUMP JUMPDEST PUSH3 0x436 PUSH1 0x40 MLOAD DUP1 PUSH1 0x40 ADD PUSH1 0x40 MSTORE DUP1 PUSH1 0x11 DUP2 MSTORE PUSH1 0x20 ADD PUSH32 0x506F6C6C696E672053746174696F6E2038000000000000000000000000000000 DUP2 MSTORE POP PUSH3 0x54A PUSH1 0x20 SHL PUSH1 0x20 SHR JUMP JUMPDEST PUSH3 0x47C PUSH1 0x40 MLOAD DUP1 PUSH1 0x40 ADD PUSH1 0x40 MSTORE DUP1 PUSH1 0x11 DUP2 MSTORE PUSH1 0x20 ADD PUSH32 0x506F6C6C696E672053746174696F6E2039000000000000000000000000000000 DUP2 MSTORE POP PUSH3 0x54A PUSH1 0x20 SHL PUSH1 0x20 SHR JUMP JUMPDEST PUSH3 0x4C2 PUSH1 0x40 MLOAD DUP1 PUSH1 0x40 ADD PUSH1 0x40 MSTORE DUP1 PUSH1 0x12 DUP2 MSTORE PUSH1 0x20 ADD PUSH32 0x506F6C6C696E672053746174696F6E2031300000000000000000000000000000 DUP2 MSTORE POP PUSH3 0x54A PUSH1 0x20 SHL PUSH1 0x20 SHR JUMP JUMPDEST JUMP JUMPDEST PUSH1 0x1 PUSH1 0x0 DUP2 SLOAD DUP1 SWAP3 SWAP2 SWAP1 PUSH3 0x4D9 SWAP1 PUSH3 0x6D1 JUMP JUMPDEST SWAP2 SWAP1 POP SSTORE POP PUSH1 0x40 MLOAD DUP1 PUSH1 0x60 ADD PUSH1 0x40 MSTORE DUP1 PUSH1 0x1 SLOAD DUP2 MSTORE PUSH1 0x20 ADD DUP3 DUP2 MSTORE PUSH1 0x20 ADD PUSH1 0x0 DUP2 MSTORE POP PUSH1 0x7 PUSH1 0x0 PUSH1 0x1 SLOAD DUP2 MSTORE PUSH1 0x20 ADD SWAP1 DUP2 MSTORE PUSH1 0x20 ADD PUSH1 0x0 KECCAK256 PUSH1 0x0 DUP3 ADD MLOAD DUP2 PUSH1 0x0 ADD SSTORE PUSH1 0x20 DUP3 ADD MLOAD DUP2 PUSH1 0x1 ADD SWAP1 DUP1 MLOAD SWAP1 PUSH1 0x20 ADD SWAP1 PUSH3 0x539 SWAP3 SWAP2 SWAP1 PUSH3 0x5E1 JUMP JUMPDEST POP PUSH1 0x40 DUP3 ADD MLOAD DUP2 PUSH1 0x2 ADD SSTORE SWAP1 POP POP POP JUMP JUMPDEST PUSH1 0x2 PUSH1 0x0 DUP2 SLOAD DUP1 SWAP3 SWAP2 SWAP1 PUSH3 0x55F SWAP1 PUSH3 0x6D1 JUMP JUMPDEST SWAP2 SWAP1 POP SSTORE POP PUSH1 0x40 MLOAD DUP1 PUSH1 0x80 ADD PUSH1 0x40 MSTORE DUP1 PUSH1 0x2 SLOAD DUP2 MSTORE PUSH1 0x20 ADD DUP3 DUP2 MSTORE PUSH1 0x20 ADD PUSH1 0x0 DUP2 MSTORE PUSH1 0x20 ADD PUSH1 0x0 DUP2 MSTORE POP PUSH1 0x8 PUSH1 0x0 PUSH1 0x2 SLOAD DUP2 MSTORE PUSH1 0x20 ADD SWAP1 DUP2 MSTORE PUSH1 0x20 ADD PUSH1 0x0 KECCAK256 PUSH1 0x0 DUP3 ADD MLOAD DUP2 PUSH1 0x0 ADD SSTORE PUSH1 0x20 DUP3 ADD MLOAD DUP2 PUSH1 0x1 ADD SWAP1 DUP1 MLOAD SWAP1 PUSH1 0x20 ADD SWAP1 PUSH3 0x5C6 SWAP3 SWAP2 SWAP1 PUSH3 0x5E1 JUMP JUMPDEST POP PUSH1 0x40 DUP3 ADD MLOAD DUP2 PUSH1 0x2 ADD SSTORE PUSH1 0x60 DUP3 ADD MLOAD DUP2 PUSH1 0x3 ADD SSTORE SWAP1 POP POP POP JUMP JUMPDEST DUP3 DUP1 SLOAD PUSH3 0x5EF SWAP1 PUSH3 0x69B JUMP JUMPDEST SWAP1 PUSH1 0x0 MSTORE PUSH1 0x20 PUSH1 0x0 KECCAK256 SWAP1 PUSH1 0x1F ADD PUSH1 0x20 SWAP1 DIV DUP2 ADD SWAP3 DUP3 PUSH3 0x613 JUMPI PUSH1 0x0 DUP6 SSTORE PUSH3 0x65F JUMP JUMPDEST DUP3 PUSH1 0x1F LT PUSH3 0x62E JUMPI DUP1 MLOAD PUSH1 0xFF NOT AND DUP4 DUP1 ADD OR DUP6 SSTORE PUSH3 0x65F JUMP JUMPDEST DUP3 DUP1 ADD PUSH1 0x1 ADD DUP6 SSTORE DUP3 ISZERO PUSH3 0x65F JUMPI SWAP2 DUP3 ADD JUMPDEST DUP3 DUP2 GT ISZERO PUSH3 0x65E JUMPI DUP3 MLOAD DUP3 SSTORE SWAP2 PUSH1 0x20 ADD SWAP2 SWAP1 PUSH1 0x1 ADD SWAP1 PUSH3 0x641 JUMP JUMPDEST JUMPDEST POP SWAP1 POP PUSH3 0x66E SWAP2 SWAP1 PUSH3 0x672 JUMP JUMPDEST POP SWAP1 JUMP JUMPDEST JUMPDEST DUP1 DUP3 GT ISZERO PUSH3 0x68D JUMPI PUSH1 0x0 DUP2 PUSH1 0x0 SWAP1 SSTORE POP PUSH1 0x1 ADD PUSH3 0x673 JUMP JUMPDEST POP SWAP1 JUMP JUMPDEST PUSH1 0x0 DUP2 SWAP1 POP SWAP2 SWAP1 POP JUMP JUMPDEST PUSH1 0x0 PUSH1 0x2 DUP3 DIV SWAP1 POP PUSH1 0x1 DUP3 AND DUP1 PUSH3 0x6B4 JUMPI PUSH1 0x7F DUP3 AND SWAP2 POP JUMPDEST PUSH1 0x20 DUP3 LT DUP2 EQ ISZERO PUSH3 0x6CB JUMPI PUSH3 0x6CA PUSH3 0x77D JUMP JUMPDEST JUMPDEST POP SWAP2 SWAP1 POP JUMP JUMPDEST PUSH1 0x0 PUSH3 0x6DE DUP3 PUSH3 0x691 JUMP JUMPDEST SWAP2 POP PUSH32 0xFFFFFFFFFFFFFFFFFFFFFFFFFFFFFFFFFFFFFFFFFFFFFFFFFFFFFFFFFFFFFFFF DUP3 EQ ISZERO PUSH3 0x714 JUMPI PUSH3 0x713 PUSH3 0x71F JUMP JUMPDEST JUMPDEST PUSH1 0x1 DUP3 ADD SWAP1 POP SWAP2 SWAP1 POP JUMP JUMPDEST PUSH32 0x4E487B7100000000000000000000000000000000000000000000000000000000 PUSH1 0x0 MSTORE PUSH1 0x11 PUSH1 0x4 MSTORE PUSH1 0x24 PUSH1 0x0 REVERT JUMPDEST PUSH32 0x4E487B7100000000000000000000000000000000000000000000000000000000 PUSH1 0x0 MSTORE PUSH1 0x21 PUSH1 0x4 MSTORE PUSH1 0x24 PUSH1 0x0 REVERT JUMPDEST PUSH32 0x4E487B7100000000000000000000000000000000000000000000000000000000 PUSH1 0x0 MSTORE PUSH1 0x22 PUSH1 0x4 MSTORE PUSH1 0x24 PUSH1 0x0 REVERT JUMPDEST PUSH2 0x154F DUP1 PUSH3 0x7BC PUSH1 0x0 CODECOPY PUSH1 0x0 RETURN INVALID PUSH1 0x80 PUSH1 0x40 MSTORE CALLVALUE DUP1 ISZERO PUSH2 0x10 JUMPI PUSH1 0x0 DUP1 REVERT JUMPDEST POP PUSH1 0x4 CALLDATASIZE LT PUSH2 0xFF JUMPI PUSH1 0x0 CALLDATALOAD PUSH1 0xE0 SHR DUP1 PUSH4 0xB54B5D62 GT PUSH2 0x97 JUMPI DUP1 PUSH4 0xD70C6F4E GT PUSH2 0x66 JUMPI DUP1 PUSH4 0xD70C6F4E EQ PUSH2 0x2A4 JUMPI DUP1 PUSH4 0xDF9F1A07 EQ PUSH2 0x2D6 JUMPI DUP1 PUSH4 0xF3A8286F EQ PUSH2 0x2F4 JUMPI DUP1 PUSH4 0xFE2442D7 EQ PUSH2 0x312 JUMPI PUSH2 0xFF JUMP JUMPDEST DUP1 PUSH4 0xB54B5D62 EQ PUSH2 0x22E JUMPI DUP1 PUSH4 0xB9223946 EQ PUSH2 0x260 JUMPI DUP1 PUSH4 0xB9F05F2F EQ PUSH2 0x26A JUMPI DUP1 PUSH4 0xC19D93FB EQ PUSH2 0x286 JUMPI PUSH2 0xFF JUMP JUMPDEST DUP1 PUSH4 0x4763D4E7 GT PUSH2 0xD3 JUMPI DUP1 PUSH4 0x4763D4E7 EQ PUSH2 0x1A2 JUMPI DUP1 PUSH4 0x4C0A6AF0 EQ PUSH2 0x1D6 JUMPI DUP1 PUSH4 0x53357AD0 EQ PUSH2 0x1E0 JUMPI DUP1 PUSH4 0xA3EC138D EQ PUSH2 0x1FE JUMPI PUSH2 0xFF JUMP JUMPDEST DUP1 PUSH3 0xAA7464 EQ PUSH2 0x104 JUMPI DUP1 PUSH4 0x2C0A3F89 EQ PUSH2 0x122 JUMPI DUP1 PUSH4 0x2D35A8A2 EQ PUSH2 0x152 JUMPI DUP1 PUSH4 0x3477EE2E EQ PUSH2 0x170 JUMPI JUMPDEST PUSH1 0x0 DUP1 REVERT JUMPDEST PUSH2 0x10C PUSH2 0x345 JUMP JUMPDEST PUSH1 0x40 MLOAD PUSH2 0x119 SWAP2 SWAP1 PUSH2 0x11E0 JUMP JUMPDEST PUSH1 0x40 MLOAD DUP1 SWAP2 SUB SWAP1 RETURN JUMPDEST PUSH2 0x13C PUSH1 0x4 DUP1 CALLDATASIZE SUB DUP2 ADD SWAP1 PUSH2 0x137 SWAP2 SWAP1 PUSH2 0xFCA JUMP JUMPDEST PUSH2 0x34B JUMP JUMPDEST PUSH1 0x40 MLOAD PUSH2 0x149 SWAP2 SWAP1 PUSH2 0x10E0 JUMP JUMPDEST PUSH1 0x40 MLOAD DUP1 SWAP2 SUB SWAP1 RETURN JUMPDEST PUSH2 0x15A PUSH2 0x676 JUMP JUMPDEST PUSH1 0x40 MLOAD PUSH2 0x167 SWAP2 SWAP1 PUSH2 0x11E0 JUMP JUMPDEST PUSH1 0x40 MLOAD DUP1 SWAP2 SUB SWAP1 RETURN JUMPDEST PUSH2 0x18A PUSH1 0x4 DUP1 CALLDATASIZE SUB DUP2 ADD SWAP1 PUSH2 0x185 SWAP2 SWAP1 PUSH2 0xF9D JUMP JUMPDEST PUSH2 0x67C JUMP JUMPDEST PUSH1 0x40 MLOAD PUSH2 0x199 SWAP4 SWAP3 SWAP2 SWAP1 PUSH2 0x11FB JUMP JUMPDEST PUSH1 0x40 MLOAD DUP1 SWAP2 SUB SWAP1 RETURN JUMPDEST PUSH2 0x1BC PUSH1 0x4 DUP1 CALLDATASIZE SUB DUP2 ADD SWAP1 PUSH2 0x1B7 SWAP2 SWAP1 PUSH2 0xF30 JUMP JUMPDEST PUSH2 0x72E JUMP JUMPDEST PUSH1 0x40 MLOAD PUSH2 0x1CD SWAP6 SWAP5 SWAP4 SWAP3 SWAP2 SWAP1 PUSH2 0x10FB JUMP JUMPDEST PUSH1 0x40 MLOAD DUP1 SWAP2 SUB SWAP1 RETURN JUMPDEST PUSH2 0x1DE PUSH2 0x77E JUMP JUMPDEST STOP JUMPDEST PUSH2 0x1E8 PUSH2 0x845 JUMP JUMPDEST PUSH1 0x40 MLOAD PUSH2 0x1F5 SWAP2 SWAP1 PUSH2 0x10C5 JUMP JUMPDEST PUSH1 0x40 MLOAD DUP1 SWAP2 SUB SWAP1 RETURN JUMPDEST PUSH2 0x218 PUSH1 0x4 DUP1 CALLDATASIZE SUB DUP2 ADD SWAP1 PUSH2 0x213 SWAP2 SWAP1 PUSH2 0xF30 JUMP JUMPDEST PUSH2 0x869 JUMP JUMPDEST PUSH1 0x40 MLOAD PUSH2 0x225 SWAP2 SWAP1 PUSH2 0x10E0 JUMP JUMPDEST PUSH1 0x40 MLOAD DUP1 SWAP2 SUB SWAP1 RETURN JUMPDEST PUSH2 0x248 PUSH1 0x4 DUP1 CALLDATASIZE SUB DUP2 ADD SWAP1 PUSH2 0x243 SWAP2 SWAP1 PUSH2 0xFCA JUMP JUMPDEST PUSH2 0x889 JUMP JUMPDEST PUSH1 0x40 MLOAD PUSH2 0x257 SWAP4 SWAP3 SWAP2 SWAP1 PUSH2 0x11FB JUMP JUMPDEST PUSH1 0x40 MLOAD DUP1 SWAP2 SUB SWAP1 RETURN JUMPDEST PUSH2 0x268 PUSH2 0x948 JUMP JUMPDEST STOP JUMPDEST PUSH2 0x284 PUSH1 0x4 DUP1 CALLDATASIZE SUB DUP2 ADD SWAP1 PUSH2 0x27F SWAP2 SWAP1 PUSH2 0xF5D JUMP JUMPDEST PUSH2 0xA18 JUMP JUMPDEST STOP JUMPDEST PUSH2 0x28E PUSH2 0xCAB JUMP JUMPDEST PUSH1 0x40 MLOAD PUSH2 0x29B SWAP2 SWAP1 PUSH2 0x1185 JUMP JUMPDEST PUSH1 0x40 MLOAD DUP1 SWAP2 SUB SWAP1 RETURN JUMPDEST PUSH2 0x2BE PUSH1 0x4 DUP1 CALLDATASIZE SUB DUP2 ADD SWAP1 PUSH2 0x2B9 SWAP2 SWAP1 PUSH2 0xFCA JUMP JUMPDEST PUSH2 0xCBE JUMP JUMPDEST PUSH1 0x40 MLOAD PUSH2 0x2CD SWAP4 SWAP3 SWAP2 SWAP1 PUSH2 0x11FB JUMP JUMPDEST PUSH1 0x40 MLOAD DUP1 SWAP2 SUB SWAP1 RETURN JUMPDEST PUSH2 0x2DE PUSH2 0xD99 JUMP JUMPDEST PUSH1 0x40 MLOAD PUSH2 0x2EB SWAP2 SWAP1 PUSH2 0x11E0 JUMP JUMPDEST PUSH1 0x40 MLOAD DUP1 SWAP2 SUB SWAP1 RETURN JUMPDEST PUSH2 0x2FC PUSH2 0xD9F JUMP JUMPDEST PUSH1 0x40 MLOAD PUSH2 0x309 SWAP2 SWAP1 PUSH2 0x11E0 JUMP JUMPDEST PUSH1 0x40 MLOAD DUP1 SWAP2 SUB SWAP1 RETURN JUMPDEST PUSH2 0x32C PUSH1 0x4 DUP1 CALLDATASIZE SUB DUP2 ADD SWAP1 PUSH2 0x327 SWAP2 SWAP1 PUSH2 0xF9D JUMP JUMPDEST PUSH2 0xDA5 JUMP JUMPDEST PUSH1 0x40 MLOAD PUSH2 0x33C SWAP5 SWAP4 SWAP3 SWAP2 SWAP1 PUSH2 0x1239 JUMP JUMPDEST PUSH1 0x40 MLOAD DUP1 SWAP2 SUB SWAP1 RETURN JUMPDEST PUSH1 0x3 SLOAD DUP2 JUMP JUMPDEST PUSH1 0x0 PUSH1 0x1 DUP1 PUSH1 0x2 DUP2 GT ISZERO PUSH2 0x362 JUMPI PUSH2 0x361 PUSH2 0x13EB JUMP JUMPDEST JUMPDEST PUSH1 0xC PUSH1 0x0 SWAP1 SLOAD SWAP1 PUSH2 0x100 EXP SWAP1 DIV PUSH1 0xFF AND PUSH1 0x2 DUP2 GT ISZERO PUSH2 0x384 JUMPI PUSH2 0x383 PUSH2 0x13EB JUMP JUMPDEST JUMPDEST EQ PUSH2 0x38E JUMPI PUSH1 0x0 DUP1 REVERT JUMPDEST PUSH1 0x0 PUSH1 0x9 PUSH1 0x0 CALLER PUSH20 0xFFFFFFFFFFFFFFFFFFFFFFFFFFFFFFFFFFFFFFFF AND PUSH20 0xFFFFFFFFFFFFFFFFFFFFFFFFFFFFFFFFFFFFFFFF AND DUP2 MSTORE PUSH1 0x20 ADD SWAP1 DUP2 MSTORE PUSH1 0x20 ADD PUSH1 0x0 KECCAK256 PUSH1 0x0 ADD PUSH1 0x0 SWAP1 SLOAD SWAP1 PUSH2 0x100 EXP SWAP1 DIV PUSH1 0xFF AND DUP1 ISZERO PUSH2 0x439 JUMPI POP PUSH1 0x9 PUSH1 0x0 CALLER PUSH20 0xFFFFFFFFFFFFFFFFFFFFFFFFFFFFFFFFFFFFFFFF AND PUSH20 0xFFFFFFFFFFFFFFFFFFFFFFFFFFFFFFFFFFFFFFFF AND DUP2 MSTORE PUSH1 0x20 ADD SWAP1 DUP2 MSTORE PUSH1 0x20 ADD PUSH1 0x0 KECCAK256 PUSH1 0x0 ADD PUSH1 0x1 SWAP1 SLOAD SWAP1 PUSH2 0x100 EXP SWAP1 DIV PUSH1 0xFF AND ISZERO JUMPDEST ISZERO PUSH2 0x66B JUMPI DUP5 PUSH1 0x9 PUSH1 0x0 CALLER PUSH20 0xFFFFFFFFFFFFFFFFFFFFFFFFFFFFFFFFFFFFFFFF AND PUSH20 0xFFFFFFFFFFFFFFFFFFFFFFFFFFFFFFFFFFFFFFFF AND DUP2 MSTORE PUSH1 0x20 ADD SWAP1 DUP2 MSTORE PUSH1 0x20 ADD PUSH1 0x0 KECCAK256 PUSH1 0x1 ADD DUP2 SWAP1 SSTORE POP DUP4 PUSH1 0x9 PUSH1 0x0 CALLER PUSH20 0xFFFFFFFFFFFFFFFFFFFFFFFFFFFFFFFFFFFFFFFF AND PUSH20 0xFFFFFFFFFFFFFFFFFFFFFFFFFFFFFFFFFFFFFFFF AND DUP2 MSTORE PUSH1 0x20 ADD SWAP1 DUP2 MSTORE PUSH1 0x20 ADD PUSH1 0x0 KECCAK256 PUSH1 0x3 ADD DUP2 SWAP1 SSTORE POP PUSH1 0x1 PUSH1 0x9 PUSH1 0x0 CALLER PUSH20 0xFFFFFFFFFFFFFFFFFFFFFFFFFFFFFFFFFFFFFFFF AND PUSH20 0xFFFFFFFFFFFFFFFFFFFFFFFFFFFFFFFFFFFFFFFF AND DUP2 MSTORE PUSH1 0x20 ADD SWAP1 DUP2 MSTORE PUSH1 0x20 ADD PUSH1 0x0 KECCAK256 PUSH1 0x0 ADD PUSH1 0x1 PUSH2 0x100 EXP DUP2 SLOAD DUP2 PUSH1 0xFF MUL NOT AND SWAP1 DUP4 ISZERO ISZERO MUL OR SWAP1 SSTORE POP PUSH1 0x8 PUSH1 0x0 DUP6 DUP2 MSTORE PUSH1 0x20 ADD SWAP1 DUP2 MSTORE PUSH1 0x20 ADD PUSH1 0x0 KECCAK256 PUSH1 0x3 ADD PUSH1 0x0 DUP2 SLOAD DUP1 SWAP3 SWAP2 SWAP1 PUSH2 0x54E SWAP1 PUSH2 0x1373 JUMP JUMPDEST SWAP2 SWAP1 POP SSTORE POP PUSH1 0x7 PUSH1 0x0 DUP7 DUP2 MSTORE PUSH1 0x20 ADD SWAP1 DUP2 MSTORE PUSH1 0x20 ADD PUSH1 0x0 KECCAK256 PUSH1 0x2 ADD PUSH1 0x0 DUP2 SLOAD DUP1 SWAP3 SWAP2 SWAP1 PUSH2 0x57A SWAP1 PUSH2 0x1373 JUMP JUMPDEST SWAP2 SWAP1 POP SSTORE POP PUSH1 0x4 PUSH1 0x0 DUP2 SLOAD DUP1 SWAP3 SWAP2 SWAP1 PUSH2 0x592 SWAP1 PUSH2 0x1373 JUMP JUMPDEST SWAP2 SWAP1 POP SSTORE POP PUSH1 0x1 SWAP1 POP DUP1 PUSH1 0xA PUSH1 0x0 CALLER PUSH20 0xFFFFFFFFFFFFFFFFFFFFFFFFFFFFFFFFFFFFFFFF AND PUSH20 0xFFFFFFFFFFFFFFFFFFFFFFFFFFFFFFFFFFFFFFFF AND DUP2 MSTORE PUSH1 0x20 ADD SWAP1 DUP2 MSTORE PUSH1 0x20 ADD PUSH1 0x0 KECCAK256 PUSH1 0x0 PUSH2 0x100 EXP DUP2 SLOAD DUP2 PUSH1 0xFF MUL NOT AND SWAP1 DUP4 ISZERO ISZERO MUL OR SWAP1 SSTORE POP PUSH1 0xB PUSH1 0x0 DUP6 DUP2 MSTORE PUSH1 0x20 ADD SWAP1 DUP2 MSTORE PUSH1 0x20 ADD PUSH1 0x0 KECCAK256 PUSH1 0x0 DUP7 DUP2 MSTORE PUSH1 0x20 ADD SWAP1 DUP2 MSTORE PUSH1 0x20 ADD PUSH1 0x0 KECCAK256 PUSH1 0x2 ADD PUSH1 0x0 DUP2 SLOAD DUP1 SWAP3 SWAP2 SWAP1 PUSH2 0x62A SWAP1 PUSH2 0x1373 JUMP JUMPDEST SWAP2 SWAP1 POP SSTORE POP PUSH32 0x29A25B3D0B6FF7E5DE2A60A2E8E76D1BDAF4894EC18C598CC1687213F442C5CB DUP2 DUP7 DUP7 PUSH1 0x40 MLOAD PUSH2 0x662 SWAP4 SWAP3 SWAP2 SWAP1 PUSH2 0x114E JUMP JUMPDEST PUSH1 0x40 MLOAD DUP1 SWAP2 SUB SWAP1 LOG1 JUMPDEST DUP1 SWAP3 POP POP POP SWAP3 SWAP2 POP POP JUMP JUMPDEST PUSH1 0x1 SLOAD DUP2 JUMP JUMPDEST PUSH1 0x7 PUSH1 0x20 MSTORE DUP1 PUSH1 0x0 MSTORE PUSH1 0x40 PUSH1 0x0 KECCAK256 PUSH1 0x0 SWAP2 POP SWAP1 POP DUP1 PUSH1 0x0 ADD SLOAD SWAP1 DUP1 PUSH1 0x1 ADD DUP1 SLOAD PUSH2 0x6A5 SWAP1 PUSH2 0x1341 JUMP JUMPDEST DUP1 PUSH1 0x1F ADD PUSH1 0x20 DUP1 SWAP2 DIV MUL PUSH1 0x20 ADD PUSH1 0x40 MLOAD SWAP1 DUP2 ADD PUSH1 0x40 MSTORE DUP1 SWAP3 SWAP2 SWAP1 DUP2 DUP2 MSTORE PUSH1 0x20 ADD DUP3 DUP1 SLOAD PUSH2 0x6D1 SWAP1 PUSH2 0x1341 JUMP JUMPDEST DUP1 ISZERO PUSH2 0x71E JUMPI DUP1 PUSH1 0x1F LT PUSH2 0x6F3 JUMPI PUSH2 0x100 DUP1 DUP4 SLOAD DIV MUL DUP4 MSTORE SWAP2 PUSH1 0x20 ADD SWAP2 PUSH2 0x71E JUMP JUMPDEST DUP3 ADD SWAP2 SWAP1 PUSH1 0x0 MSTORE PUSH1 0x20 PUSH1 0x0 KECCAK256 SWAP1 JUMPDEST DUP2 SLOAD DUP2 MSTORE SWAP1 PUSH1 0x1 ADD SWAP1 PUSH1 0x20 ADD DUP1 DUP4 GT PUSH2 0x701 JUMPI DUP3 SWAP1 SUB PUSH1 0x1F AND DUP3 ADD SWAP2 JUMPDEST POP POP POP POP POP SWAP1 DUP1 PUSH1 0x2 ADD SLOAD SWAP1 POP DUP4 JUMP JUMPDEST PUSH1 0x9 PUSH1 0x20 MSTORE DUP1 PUSH1 0x0 MSTORE PUSH1 0x40 PUSH1 0x0 KECCAK256 PUSH1 0x0 SWAP2 POP SWAP1 POP DUP1 PUSH1 0x0 ADD PUSH1 0x0 SWAP1 SLOAD SWAP1 PUSH2 0x100 EXP SWAP1 DIV PUSH1 0xFF AND SWAP1 DUP1 PUSH1 0x0 ADD PUSH1 0x1 SWAP1 SLOAD SWAP1 PUSH2 0x100 EXP SWAP1 DIV PUSH1 0xFF AND SWAP1 DUP1 PUSH1 0x1 ADD SLOAD SWAP1 DUP1 PUSH1 0x2 ADD SLOAD SWAP1 DUP1 PUSH1 0x3 ADD SLOAD SWAP1 POP DUP6 JUMP JUMPDEST PUSH1 0x0 DUP1 PUSH1 0x2 DUP2 GT ISZERO PUSH2 0x793 JUMPI PUSH2 0x792 PUSH2 0x13EB JUMP JUMPDEST JUMPDEST PUSH1 0xC PUSH1 0x0 SWAP1 SLOAD SWAP1 PUSH2 0x100 EXP SWAP1 DIV PUSH1 0xFF AND PUSH1 0x2 DUP2 GT ISZERO PUSH2 0x7B5 JUMPI PUSH2 0x7B4 PUSH2 0x13EB JUMP JUMPDEST JUMPDEST EQ PUSH2 0x7BF JUMPI PUSH1 0x0 DUP1 REVERT JUMPDEST PUSH1 0x0 DUP1 SLOAD SWAP1 PUSH2 0x100 EXP SWAP1 DIV PUSH20 0xFFFFFFFFFFFFFFFFFFFFFFFFFFFFFFFFFFFFFFFF AND PUSH20 0xFFFFFFFFFFFFFFFFFFFFFFFFFFFFFFFFFFFFFFFF AND CALLER PUSH20 0xFFFFFFFFFFFFFFFFFFFFFFFFFFFFFFFFFFFFFFFF AND EQ PUSH2 0x817 JUMPI PUSH1 0x0 DUP1 REVERT JUMPDEST PUSH1 0x1 PUSH1 0xC PUSH1 0x0 PUSH2 0x100 EXP DUP2 SLOAD DUP2 PUSH1 0xFF MUL NOT AND SWAP1 DUP4 PUSH1 0x2 DUP2 GT ISZERO PUSH2 0x83D JUMPI PUSH2 0x83C PUSH2 0x13EB JUMP JUMPDEST JUMPDEST MUL OR SWAP1 SSTORE POP POP JUMP JUMPDEST PUSH1 0x0 DUP1 SLOAD SWAP1 PUSH2 0x100 EXP SWAP1 DIV PUSH20 0xFFFFFFFFFFFFFFFFFFFFFFFFFFFFFFFFFFFFFFFF AND DUP2 JUMP JUMPDEST PUSH1 0xA PUSH1 0x20 MSTORE DUP1 PUSH1 0x0 MSTORE PUSH1 0x40 PUSH1 0x0 KECCAK256 PUSH1 0x0 SWAP2 POP SLOAD SWAP1 PUSH2 0x100 EXP SWAP1 DIV PUSH1 0xFF AND DUP2 JUMP JUMPDEST PUSH1 0xB PUSH1 0x20 MSTORE DUP2 PUSH1 0x0 MSTORE PUSH1 0x40 PUSH1 0x0 KECCAK256 PUSH1 0x20 MSTORE DUP1 PUSH1 0x0 MSTORE PUSH1 0x40 PUSH1 0x0 KECCAK256 PUSH1 0x0 SWAP2 POP SWAP2 POP POP DUP1 PUSH1 0x0 ADD SLOAD SWAP1 DUP1 PUSH1 0x1 ADD DUP1 SLOAD PUSH2 0x8BF SWAP1 PUSH2 0x1341 JUMP JUMPDEST DUP1 PUSH1 0x1F ADD PUSH1 0x20 DUP1 SWAP2 DIV MUL PUSH1 0x20 ADD PUSH1 0x40 MLOAD SWAP1 DUP2 ADD PUSH1 0x40 MSTORE DUP1 SWAP3 SWAP2 SWAP1 DUP2 DUP2 MSTORE PUSH1 0x20 ADD DUP3 DUP1 SLOAD PUSH2 0x8EB SWAP1 PUSH2 0x1341 JUMP JUMPDEST DUP1 ISZERO PUSH2 0x938 JUMPI DUP1 PUSH1 0x1F LT PUSH2 0x90D JUMPI PUSH2 0x100 DUP1 DUP4 SLOAD DIV MUL DUP4 MSTORE SWAP2 PUSH1 0x20 ADD SWAP2 PUSH2 0x938 JUMP JUMPDEST DUP3 ADD SWAP2 SWAP1 PUSH1 0x0 MSTORE PUSH1 0x20 PUSH1 0x0 KECCAK256 SWAP1 JUMPDEST DUP2 SLOAD DUP2 MSTORE SWAP1 PUSH1 0x1 ADD SWAP1 PUSH1 0x20 ADD DUP1 DUP4 GT PUSH2 0x91B JUMPI DUP3 SWAP1 SUB PUSH1 0x1F AND DUP3 ADD SWAP2 JUMPDEST POP POP POP POP POP SWAP1 DUP1 PUSH1 0x2 ADD SLOAD SWAP1 POP DUP4 JUMP JUMPDEST PUSH1 0x1 DUP1 PUSH1 0x2 DUP2 GT ISZERO PUSH2 0x95D JUMPI PUSH2 0x95C PUSH2 0x13EB JUMP JUMPDEST JUMPDEST PUSH1 0xC PUSH1 0x0 SWAP1 SLOAD SWAP1 PUSH2 0x100 EXP SWAP1 DIV PUSH1 0xFF AND PUSH1 0x2 DUP2 GT ISZERO PUSH2 0x97F JUMPI PUSH2 0x97E PUSH2 0x13EB JUMP JUMPDEST JUMPDEST EQ PUSH2 0x989 JUMPI PUSH1 0x0 DUP1 REVERT JUMPDEST PUSH1 0x0 DUP1 SLOAD SWAP1 PUSH2 0x100 EXP SWAP1 DIV PUSH20 0xFFFFFFFFFFFFFFFFFFFFFFFFFFFFFFFFFFFFFFFF AND PUSH20 0xFFFFFFFFFFFFFFFFFFFFFFFFFFFFFFFFFFFFFFFF AND CALLER PUSH20 0xFFFFFFFFFFFFFFFFFFFFFFFFFFFFFFFFFFFFFFFF AND EQ PUSH2 0x9E1 JUMPI PUSH1 0x0 DUP1 REVERT JUMPDEST PUSH1 0x2 PUSH1 0xC PUSH1 0x0 PUSH2 0x100 EXP DUP2 SLOAD DUP2 PUSH1 0xFF MUL NOT AND SWAP1 DUP4 PUSH1 0x2 DUP2 GT ISZERO PUSH2 0xA07 JUMPI PUSH2 0xA06 PUSH2 0x13EB JUMP JUMPDEST JUMPDEST MUL OR SWAP1 SSTORE POP PUSH1 0x4 SLOAD PUSH1 0x5 DUP2 SWAP1 SSTORE POP POP JUMP JUMPDEST PUSH1 0x0 DUP1 PUSH1 0x2 DUP2 GT ISZERO PUSH2 0xA2D JUMPI PUSH2 0xA2C PUSH2 0x13EB JUMP JUMPDEST JUMPDEST PUSH1 0xC PUSH1 0x0 SWAP1 SLOAD SWAP1 PUSH2 0x100 EXP SWAP1 DIV PUSH1 0xFF AND PUSH1 0x2 DUP2 GT ISZERO PUSH2 0xA4F JUMPI PUSH2 0xA4E PUSH2 0x13EB JUMP JUMPDEST JUMPDEST EQ PUSH2 0xA59 JUMPI PUSH1 0x0 DUP1 REVERT JUMPDEST PUSH1 0x0 DUP1 SLOAD SWAP1 PUSH2 0x100 EXP SWAP1 DIV PUSH20 0xFFFFFFFFFFFFFFFFFFFFFFFFFFFFFFFFFFFFFFFF AND PUSH20 0xFFFFFFFFFFFFFFFFFFFFFFFFFFFFFFFFFFFFFFFF AND CALLER PUSH20 0xFFFFFFFFFFFFFFFFFFFFFFFFFFFFFFFFFFFFFFFF AND EQ PUSH2 0xAB1 JUMPI PUSH1 0x0 DUP1 REVERT JUMPDEST PUSH1 0x0 ISZERO ISZERO PUSH1 0x9 PUSH1 0x0 DUP6 PUSH20 0xFFFFFFFFFFFFFFFFFFFFFFFFFFFFFFFFFFFFFFFF AND PUSH20 0xFFFFFFFFFFFFFFFFFFFFFFFFFFFFFFFFFFFFFFFF AND DUP2 MSTORE PUSH1 0x20 ADD SWAP1 DUP2 MSTORE PUSH1 0x20 ADD PUSH1 0x0 KECCAK256 PUSH1 0x0 ADD PUSH1 0x0 SWAP1 SLOAD SWAP1 PUSH2 0x100 EXP SWAP1 DIV PUSH1 0xFF AND ISZERO ISZERO EQ PUSH2 0xB47 JUMPI PUSH1 0x40 MLOAD PUSH32 0x8C379A000000000000000000000000000000000000000000000000000000000 DUP2 MSTORE PUSH1 0x4 ADD PUSH2 0xB3E SWAP1 PUSH2 0x11C0 JUMP JUMPDEST PUSH1 0x40 MLOAD DUP1 SWAP2 SUB SWAP1 REVERT JUMPDEST PUSH1 0x1 DUP3 LT ISZERO DUP1 ISZERO PUSH2 0xB5A JUMPI POP PUSH1 0x2 SLOAD DUP3 GT ISZERO JUMPDEST PUSH2 0xB99 JUMPI PUSH1 0x40 MLOAD PUSH32 0x8C379A000000000000000000000000000000000000000000000000000000000 DUP2 MSTORE PUSH1 0x4 ADD PUSH2 0xB90 SWAP1 PUSH2 0x11A0 JUMP JUMPDEST PUSH1 0x40 MLOAD DUP1 SWAP2 SUB SWAP1 REVERT JUMPDEST PUSH2 0xBA1 PUSH2 0xED3 JUMP JUMPDEST PUSH1 0x1 DUP2 PUSH1 0x0 ADD SWAP1 ISZERO ISZERO SWAP1 DUP2 ISZERO ISZERO DUP2 MSTORE POP POP PUSH1 0x0 DUP2 PUSH1 0x20 ADD SWAP1 ISZERO ISZERO SWAP1 DUP2 ISZERO ISZERO DUP2 MSTORE POP POP PUSH1 0x0 DUP2 PUSH1 0x40 ADD DUP2 DUP2 MSTORE POP POP DUP3 DUP2 PUSH1 0x60 ADD DUP2 DUP2 MSTORE POP POP PUSH1 0x0 DUP2 PUSH1 0x80 ADD DUP2 DUP2 MSTORE POP POP DUP1 PUSH1 0x9 PUSH1 0x0 DUP7 PUSH20 0xFFFFFFFFFFFFFFFFFFFFFFFFFFFFFFFFFFFFFFFF AND PUSH20 0xFFFFFFFFFFFFFFFFFFFFFFFFFFFFFFFFFFFFFFFF AND DUP2 MSTORE PUSH1 0x20 ADD SWAP1 DUP2 MSTORE PUSH1 0x20 ADD PUSH1 0x0 KECCAK256 PUSH1 0x0 DUP3 ADD MLOAD DUP2 PUSH1 0x0 ADD PUSH1 0x0 PUSH2 0x100 EXP DUP2 SLOAD DUP2 PUSH1 0xFF MUL NOT AND SWAP1 DUP4 ISZERO ISZERO MUL OR SWAP1 SSTORE POP PUSH1 0x20 DUP3 ADD MLOAD DUP2 PUSH1 0x0 ADD PUSH1 0x1 PUSH2 0x100 EXP DUP2 SLOAD DUP2 PUSH1 0xFF MUL NOT AND SWAP1 DUP4 ISZERO ISZERO MUL OR SWAP1 SSTORE POP PUSH1 0x40 DUP3 ADD MLOAD DUP2 PUSH1 0x1 ADD SSTORE PUSH1 0x60 DUP3 ADD MLOAD DUP2 PUSH1 0x2 ADD SSTORE PUSH1 0x80 DUP3 ADD MLOAD DUP2 PUSH1 0x3 ADD SSTORE SWAP1 POP POP PUSH2 0xC8D DUP4 PUSH2 0xE5D JUMP JUMPDEST PUSH1 0x3 PUSH1 0x0 DUP2 SLOAD DUP1 SWAP3 SWAP2 SWAP1 PUSH2 0xCA0 SWAP1 PUSH2 0x1373 JUMP JUMPDEST SWAP2 SWAP1 POP SSTORE POP POP POP POP POP JUMP JUMPDEST PUSH1 0xC PUSH1 0x0 SWAP1 SLOAD SWAP1 PUSH2 0x100 EXP SWAP1 DIV PUSH1 0xFF AND DUP2 JUMP JUMPDEST PUSH1 0x6 DUP3 DUP2 SLOAD DUP2 LT PUSH2 0xCCE JUMPI PUSH1 0x0 DUP1 REVERT JUMPDEST SWAP1 PUSH1 0x0 MSTORE PUSH1 0x20 PUSH1 0x0 KECCAK256 ADD DUP2 DUP2 SLOAD DUP2 LT PUSH2 0xCE6 JUMPI PUSH1 0x0 DUP1 REVERT JUMPDEST SWAP1 PUSH1 0x0 MSTORE PUSH1 0x20 PUSH1 0x0 KECCAK256 SWAP1 PUSH1 0x3 MUL ADD PUSH1 0x0 SWAP2 POP SWAP2 POP POP DUP1 PUSH1 0x0 ADD SLOAD SWAP1 DUP1 PUSH1 0x1 ADD DUP1 SLOAD PUSH2 0xD10 SWAP1 PUSH2 0x1341 JUMP JUMPDEST DUP1 PUSH1 0x1F ADD PUSH1 0x20 DUP1 SWAP2 DIV MUL PUSH1 0x20 ADD PUSH1 0x40 MLOAD SWAP1 DUP2 ADD PUSH1 0x40 MSTORE DUP1 SWAP3 SWAP2 SWAP1 DUP2 DUP2 MSTORE PUSH1 0x20 ADD DUP3 DUP1 SLOAD PUSH2 0xD3C SWAP1 PUSH2 0x1341 JUMP JUMPDEST DUP1 ISZERO PUSH2 0xD89 JUMPI DUP1 PUSH1 0x1F LT PUSH2 0xD5E JUMPI PUSH2 0x100 DUP1 DUP4 SLOAD DIV MUL DUP4 MSTORE SWAP2 PUSH1 0x20 ADD SWAP2 PUSH2 0xD89 JUMP JUMPDEST DUP3 ADD SWAP2 SWAP1 PUSH1 0x0 MSTORE PUSH1 0x20 PUSH1 0x0 KECCAK256 SWAP1 JUMPDEST DUP2 SLOAD DUP2 MSTORE SWAP1 PUSH1 0x1 ADD SWAP1 PUSH1 0x20 ADD DUP1 DUP4 GT PUSH2 0xD6C JUMPI DUP3 SWAP1 SUB PUSH1 0x1F AND DUP3 ADD SWAP2 JUMPDEST POP POP POP POP POP SWAP1 DUP1 PUSH1 0x2 ADD SLOAD SWAP1 POP DUP4 JUMP JUMPDEST PUSH1 0x2 SLOAD DUP2 JUMP JUMPDEST PUSH1 0x5 SLOAD DUP2 JUMP JUMPDEST PUSH1 0x8 PUSH1 0x20 MSTORE DUP1 PUSH1 0x0 MSTORE PUSH1 0x40 PUSH1 0x0 KECCAK256 PUSH1 0x0 SWAP2 POP SWAP1 POP DUP1 PUSH1 0x0 ADD SLOAD SWAP1 DUP1 PUSH1 0x1 ADD DUP1 SLOAD PUSH2 0xDCE SWAP1 PUSH2 0x1341 JUMP JUMPDEST DUP1 PUSH1 0x1F ADD PUSH1 0x20 DUP1 SWAP2 DIV MUL PUSH1 0x20 ADD PUSH1 0x40 MLOAD SWAP1 DUP2 ADD PUSH1 0x40 MSTORE DUP1 SWAP3 SWAP2 SWAP1 DUP2 DUP2 MSTORE PUSH1 0x20 ADD DUP3 DUP1 SLOAD PUSH2 0xDFA SWAP1 PUSH2 0x1341 JUMP JUMPDEST DUP1 ISZERO PUSH2 0xE47 JUMPI DUP1 PUSH1 0x1F LT PUSH2 0xE1C JUMPI PUSH2 0x100 DUP1 DUP4 SLOAD DIV MUL DUP4 MSTORE SWAP2 PUSH1 0x20 ADD SWAP2 PUSH2 0xE47 JUMP JUMPDEST DUP3 ADD SWAP2 SWAP1 PUSH1 0x0 MSTORE PUSH1 0x20 PUSH1 0x0 KECCAK256 SWAP1 JUMPDEST DUP2 SLOAD DUP2 MSTORE SWAP1 PUSH1 0x1 ADD SWAP1 PUSH1 0x20 ADD DUP1 DUP4 GT PUSH2 0xE2A JUMPI DUP3 SWAP1 SUB PUSH1 0x1F AND DUP3 ADD SWAP2 JUMPDEST POP POP POP POP POP SWAP1 DUP1 PUSH1 0x2 ADD SLOAD SWAP1 DUP1 PUSH1 0x3 ADD SLOAD SWAP1 POP DUP5 JUMP JUMPDEST PUSH1 0x0 PUSH1 0x1 SWAP1 POP JUMPDEST PUSH1 0x2 SLOAD DUP2 GT PUSH2 0xECF JUMPI DUP2 PUSH1 0x8 PUSH1 0x0 DUP4 DUP2 MSTORE PUSH1 0x20 ADD SWAP1 DUP2 MSTORE PUSH1 0x20 ADD PUSH1 0x0 KECCAK256 PUSH1 0x0 ADD SLOAD EQ ISZERO PUSH2 0xEBC JUMPI PUSH1 0x8 PUSH1 0x0 DUP3 DUP2 MSTORE PUSH1 0x20 ADD SWAP1 DUP2 MSTORE PUSH1 0x20 ADD PUSH1 0x0 KECCAK256 PUSH1 0x2 ADD PUSH1 0x0 DUP2 SLOAD DUP1 SWAP3 SWAP2 SWAP1 PUSH2 0xEB2 SWAP1 PUSH2 0x1373 JUMP JUMPDEST SWAP2 SWAP1 POP SSTORE POP PUSH2 0xECF JUMP JUMPDEST DUP1 DUP1 PUSH2 0xEC7 SWAP1 PUSH2 0x1373 JUMP JUMPDEST SWAP2 POP POP PUSH2 0xE64 JUMP JUMPDEST POP POP JUMP JUMPDEST PUSH1 0x40 MLOAD DUP1 PUSH1 0xA0 ADD PUSH1 0x40 MSTORE DUP1 PUSH1 0x0 ISZERO ISZERO DUP2 MSTORE PUSH1 0x20 ADD PUSH1 0x0 ISZERO ISZERO DUP2 MSTORE PUSH1 0x20 ADD PUSH1 0x0 DUP2 MSTORE PUSH1 0x20 ADD PUSH1 0x0 DUP2 MSTORE PUSH1 0x20 ADD PUSH1 0x0 DUP2 MSTORE POP SWAP1 JUMP JUMPDEST PUSH1 0x0 DUP2 CALLDATALOAD SWAP1 POP PUSH2 0xF15 DUP2 PUSH2 0x14EB JUMP JUMPDEST SWAP3 SWAP2 POP POP JUMP JUMPDEST PUSH1 0x0 DUP2 CALLDATALOAD SWAP1 POP PUSH2 0xF2A DUP2 PUSH2 0x1502 JUMP JUMPDEST SWAP3 SWAP2 POP POP JUMP JUMPDEST PUSH1 0x0 PUSH1 0x20 DUP3 DUP5 SUB SLT ISZERO PUSH2 0xF46 JUMPI PUSH2 0xF45 PUSH2 0x1449 JUMP JUMPDEST JUMPDEST PUSH1 0x0 PUSH2 0xF54 DUP5 DUP3 DUP6 ADD PUSH2 0xF06 JUMP JUMPDEST SWAP2 POP POP SWAP3 SWAP2 POP POP JUMP JUMPDEST PUSH1 0x0 DUP1 PUSH1 0x40 DUP4 DUP6 SUB SLT ISZERO PUSH2 0xF74 JUMPI PUSH2 0xF73 PUSH2 0x1449 JUMP JUMPDEST JUMPDEST PUSH1 0x0 PUSH2 0xF82 DUP6 DUP3 DUP7 ADD PUSH2 0xF06 JUMP JUMPDEST SWAP3 POP POP PUSH1 0x20 PUSH2 0xF93 DUP6 DUP3 DUP7 ADD PUSH2 0xF1B JUMP JUMPDEST SWAP2 POP POP SWAP3 POP SWAP3 SWAP1 POP JUMP JUMPDEST PUSH1 0x0 PUSH1 0x20 DUP3 DUP5 SUB SLT ISZERO PUSH2 0xFB3 JUMPI PUSH2 0xFB2 PUSH2 0x1449 JUMP JUMPDEST JUMPDEST PUSH1 0x0 PUSH2 0xFC1 DUP5 DUP3 DUP6 ADD PUSH2 0xF1B JUMP JUMPDEST SWAP2 POP POP SWAP3 SWAP2 POP POP JUMP JUMPDEST PUSH1 0x0 DUP1 PUSH1 0x40 DUP4 DUP6 SUB SLT ISZERO PUSH2 0xFE1 JUMPI PUSH2 0xFE0 PUSH2 0x1449 JUMP JUMPDEST JUMPDEST PUSH1 0x0 PUSH2 0xFEF DUP6 DUP3 DUP7 ADD PUSH2 0xF1B JUMP JUMPDEST SWAP3 POP POP PUSH1 0x20 PUSH2 0x1000 DUP6 DUP3 DUP7 ADD PUSH2 0xF1B JUMP JUMPDEST SWAP2 POP POP SWAP3 POP SWAP3 SWAP1 POP JUMP JUMPDEST PUSH2 0x1013 DUP2 PUSH2 0x12A1 JUMP JUMPDEST DUP3 MSTORE POP POP JUMP JUMPDEST PUSH2 0x1022 DUP2 PUSH2 0x12B3 JUMP JUMPDEST DUP3 MSTORE POP POP JUMP JUMPDEST PUSH2 0x1031 DUP2 PUSH2 0x12FC JUMP JUMPDEST DUP3 MSTORE POP POP JUMP JUMPDEST PUSH1 0x0 PUSH2 0x1042 DUP3 PUSH2 0x1285 JUMP JUMPDEST PUSH2 0x104C DUP2 DUP6 PUSH2 0x1290 JUMP JUMPDEST SWAP4 POP PUSH2 0x105C DUP2 DUP6 PUSH1 0x20 DUP7 ADD PUSH2 0x130E JUMP JUMPDEST PUSH2 0x1065 DUP2 PUSH2 0x144E JUMP JUMPDEST DUP5 ADD SWAP2 POP POP SWAP3 SWAP2 POP POP JUMP JUMPDEST PUSH1 0x0 PUSH2 0x107D PUSH1 0x2A DUP4 PUSH2 0x1290 JUMP JUMPDEST SWAP2 POP PUSH2 0x1088 DUP3 PUSH2 0x145F JUMP JUMPDEST PUSH1 0x40 DUP3 ADD SWAP1 POP SWAP2 SWAP1 POP JUMP JUMPDEST PUSH1 0x0 PUSH2 0x10A0 PUSH1 0x1C DUP4 PUSH2 0x1290 JUMP JUMPDEST SWAP2 POP PUSH2 0x10AB DUP3 PUSH2 0x14AE JUMP JUMPDEST PUSH1 0x20 DUP3 ADD SWAP1 POP SWAP2 SWAP1 POP JUMP JUMPDEST PUSH2 0x10BF DUP2 PUSH2 0x12F2 JUMP JUMPDEST DUP3 MSTORE POP POP JUMP JUMPDEST PUSH1 0x0 PUSH1 0x20 DUP3 ADD SWAP1 POP PUSH2 0x10DA PUSH1 0x0 DUP4 ADD DUP5 PUSH2 0x100A JUMP JUMPDEST SWAP3 SWAP2 POP POP JUMP JUMPDEST PUSH1 0x0 PUSH1 0x20 DUP3 ADD SWAP1 POP PUSH2 0x10F5 PUSH1 0x0 DUP4 ADD DUP5 PUSH2 0x1019 JUMP JUMPDEST SWAP3 SWAP2 POP POP JUMP JUMPDEST PUSH1 0x0 PUSH1 0xA0 DUP3 ADD SWAP1 POP PUSH2 0x1110 PUSH1 0x0 DUP4 ADD DUP9 PUSH2 0x1019 JUMP JUMPDEST PUSH2 0x111D PUSH1 0x20 DUP4 ADD DUP8 PUSH2 0x1019 JUMP JUMPDEST PUSH2 0x112A PUSH1 0x40 DUP4 ADD DUP7 PUSH2 0x10B6 JUMP JUMPDEST PUSH2 0x1137 PUSH1 0x60 DUP4 ADD DUP6 PUSH2 0x10B6 JUMP JUMPDEST PUSH2 0x1144 PUSH1 0x80 DUP4 ADD DUP5 PUSH2 0x10B6 JUMP JUMPDEST SWAP7 SWAP6 POP POP POP POP POP POP JUMP JUMPDEST PUSH1 0x0 PUSH1 0x60 DUP3 ADD SWAP1 POP PUSH2 0x1163 PUSH1 0x0 DUP4 ADD DUP7 PUSH2 0x1019 JUMP JUMPDEST PUSH2 0x1170 PUSH1 0x20 DUP4 ADD DUP6 PUSH2 0x10B6 JUMP JUMPDEST PUSH2 0x117D PUSH1 0x40 DUP4 ADD DUP5 PUSH2 0x10B6 JUMP JUMPDEST SWAP5 SWAP4 POP POP POP POP JUMP JUMPDEST PUSH1 0x0 PUSH1 0x20 DUP3 ADD SWAP1 POP PUSH2 0x119A PUSH1 0x0 DUP4 ADD DUP5 PUSH2 0x1028 JUMP JUMPDEST SWAP3 SWAP2 POP POP JUMP JUMPDEST PUSH1 0x0 PUSH1 0x20 DUP3 ADD SWAP1 POP DUP2 DUP2 SUB PUSH1 0x0 DUP4 ADD MSTORE PUSH2 0x11B9 DUP2 PUSH2 0x1070 JUMP JUMPDEST SWAP1 POP SWAP2 SWAP1 POP JUMP JUMPDEST PUSH1 0x0 PUSH1 0x20 DUP3 ADD SWAP1 POP DUP2 DUP2 SUB PUSH1 0x0 DUP4 ADD MSTORE PUSH2 0x11D9 DUP2 PUSH2 0x1093 JUMP JUMPDEST SWAP1 POP SWAP2 SWAP1 POP JUMP JUMPDEST PUSH1 0x0 PUSH1 0x20 DUP3 ADD SWAP1 POP PUSH2 0x11F5 PUSH1 0x0 DUP4 ADD DUP5 PUSH2 0x10B6 JUMP JUMPDEST SWAP3 SWAP2 POP POP JUMP JUMPDEST PUSH1 0x0 PUSH1 0x60 DUP3 ADD SWAP1 POP PUSH2 0x1210 PUSH1 0x0 DUP4 ADD DUP7 PUSH2 0x10B6 JUMP JUMPDEST DUP2 DUP2 SUB PUSH1 0x20 DUP4 ADD MSTORE PUSH2 0x1222 DUP2 DUP6 PUSH2 0x1037 JUMP JUMPDEST SWAP1 POP PUSH2 0x1231 PUSH1 0x40 DUP4 ADD DUP5 PUSH2 0x10B6 JUMP JUMPDEST SWAP5 SWAP4 POP POP POP POP JUMP JUMPDEST PUSH1 0x0 PUSH1 0x80 DUP3 ADD SWAP1 POP PUSH2 0x124E PUSH1 0x0 DUP4 ADD DUP8 PUSH2 0x10B6 JUMP JUMPDEST DUP2 DUP2 SUB PUSH1 0x20 DUP4 ADD MSTORE PUSH2 0x1260 DUP2 DUP7 PUSH2 0x1037 JUMP JUMPDEST SWAP1 POP PUSH2 0x126F PUSH1 0x40 DUP4 ADD DUP6 PUSH2 0x10B6 JUMP JUMPDEST PUSH2 0x127C PUSH1 0x60 DUP4 ADD DUP5 PUSH2 0x10B6 JUMP JUMPDEST SWAP6 SWAP5 POP POP POP POP POP JUMP JUMPDEST PUSH1 0x0 DUP2 MLOAD SWAP1 POP SWAP2 SWAP1 POP JUMP JUMPDEST PUSH1 0x0 DUP3 DUP3 MSTORE PUSH1 0x20 DUP3 ADD SWAP1 POP SWAP3 SWAP2 POP POP JUMP JUMPDEST PUSH1 0x0 PUSH2 0x12AC DUP3 PUSH2 0x12D2 JUMP JUMPDEST SWAP1 POP SWAP2 SWAP1 POP JUMP JUMPDEST PUSH1 0x0 DUP2 ISZERO ISZERO SWAP1 POP SWAP2 SWAP1 POP JUMP JUMPDEST PUSH1 0x0 DUP2 SWAP1 POP PUSH2 0x12CD DUP3 PUSH2 0x14D7 JUMP JUMPDEST SWAP2 SWAP1 POP JUMP JUMPDEST PUSH1 0x0 PUSH20 0xFFFFFFFFFFFFFFFFFFFFFFFFFFFFFFFFFFFFFFFF DUP3 AND SWAP1 POP SWAP2 SWAP1 POP JUMP JUMPDEST PUSH1 0x0 DUP2 SWAP1 POP SWAP2 SWAP1 POP JUMP JUMPDEST PUSH1 0x0 PUSH2 0x1307 DUP3 PUSH2 0x12BF JUMP JUMPDEST SWAP1 POP SWAP2 SWAP1 POP JUMP JUMPDEST PUSH1 0x0 JUMPDEST DUP4 DUP2 LT ISZERO PUSH2 0x132C JUMPI DUP1 DUP3 ADD MLOAD DUP2 DUP5 ADD MSTORE PUSH1 0x20 DUP2 ADD SWAP1 POP PUSH2 0x1311 JUMP JUMPDEST DUP4 DUP2 GT ISZERO PUSH2 0x133B JUMPI PUSH1 0x0 DUP5 DUP5 ADD MSTORE JUMPDEST POP POP POP POP JUMP JUMPDEST PUSH1 0x0 PUSH1 0x2 DUP3 DIV SWAP1 POP PUSH1 0x1 DUP3 AND DUP1 PUSH2 0x1359 JUMPI PUSH1 0x7F DUP3 AND SWAP2 POP JUMPDEST PUSH1 0x20 DUP3 LT DUP2 EQ ISZERO PUSH2 0x136D JUMPI PUSH2 0x136C PUSH2 0x141A JUMP JUMPDEST JUMPDEST POP SWAP2 SWAP1 POP JUMP JUMPDEST PUSH1 0x0 PUSH2 0x137E DUP3 PUSH2 0x12F2 JUMP JUMPDEST SWAP2 POP PUSH32 0xFFFFFFFFFFFFFFFFFFFFFFFFFFFFFFFFFFFFFFFFFFFFFFFFFFFFFFFFFFFFFFFF DUP3 EQ ISZERO PUSH2 0x13B1 JUMPI PUSH2 0x13B0 PUSH2 0x13BC JUMP JUMPDEST JUMPDEST PUSH1 0x1 DUP3 ADD SWAP1 POP SWAP2 SWAP1 POP JUMP JUMPDEST PUSH32 0x4E487B7100000000000000000000000000000000000000000000000000000000 PUSH1 0x0 MSTORE PUSH1 0x11 PUSH1 0x4 MSTORE PUSH1 0x24 PUSH1 0x0 REVERT JUMPDEST PUSH32 0x4E487B7100000000000000000000000000000000000000000000000000000000 PUSH1 0x0 MSTORE PUSH1 0x21 PUSH1 0x4 MSTORE PUSH1 0x24 PUSH1 0x0 REVERT JUMPDEST PUSH32 0x4E487B7100000000000000000000000000000000000000000000000000000000 PUSH1 0x0 MSTORE PUSH1 0x22 PUSH1 0x4 MSTORE PUSH1 0x24 PUSH1 0x0 REVERT JUMPDEST PUSH1 0x0 DUP1 REVERT JUMPDEST PUSH1 0x0 PUSH1 0x1F NOT PUSH1 0x1F DUP4 ADD AND SWAP1 POP SWAP2 SWAP1 POP JUMP JUMPDEST PUSH32 0x506C656173652070726F7669646520612076616C696420706F6C6C696E672073 PUSH1 0x0 DUP3 ADD MSTORE PUSH32 0x746174696F6E2049442E00000000000000000000000000000000000000000000 PUSH1 0x20 DUP3 ADD MSTORE POP JUMP JUMPDEST PUSH32 0x566F74657220697320616C726561647920726567697374657265642E00000000 PUSH1 0x0 DUP3 ADD MSTORE POP JUMP JUMPDEST PUSH1 0x3 DUP2 LT PUSH2 0x14E8 JUMPI PUSH2 0x14E7 PUSH2 0x13EB JUMP JUMPDEST JUMPDEST POP JUMP JUMPDEST PUSH2 0x14F4 DUP2 PUSH2 0x12A1 JUMP JUMPDEST DUP2 EQ PUSH2 0x14FF JUMPI PUSH1 0x0 DUP1 REVERT JUMPDEST POP JUMP JUMPDEST PUSH2 0x150B DUP2 PUSH2 0x12F2 JUMP JUMPDEST DUP2 EQ PUSH2 0x1516 JUMPI PUSH1 0x0 DUP1 REVERT JUMPDEST POP JUMP INVALID LOG2 PUSH5 0x6970667358 0x22 SLT KECCAK256 SSTORE 0x2F 0xFB 0xA9 0x2D PC INVALID 0xB9 0xBF SWAP2 PUSH3 0x29A0E7 SWAP14 0xE1 PUSH16 0xA858B8677E813055AEBED5308F427664 PUSH20 0x6F6C634300080700330000000000000000000000 "
				},
				"gasEstimates": {
					"creation": {
						"codeDepositCost": "1091000",
						"executionCost": "infinite",
						"totalCost": "infinite"
					},
					"external": {
						"addVoter(address,uint256)": "infinite",
						"candidates(uint256)": "infinite",
						"candidatesCount()": "2497",
						"castVote(uint256,uint256)": "infinite",
						"electionOwner()": "2578",
						"endVote()": "53073",
						"finalResult()": "2495",
						"pollingStationCount()": "2473",
						"pollingStations(uint256)": "infinite",
						"results(uint256,uint256)": "infinite",
						"resultsPerPollingStation(uint256,uint256)": "infinite",
						"startVote()": "28859",
						"state()": "2649",
						"totalRegisteredVoters()": "2453",
						"voterRegistry(address)": "infinite",
						"voters(address)": "2934"
					},
					"internal": {
						"addCandidate(string memory)": "infinite",
						"addPollingStation(string memory)": "infinite",
						"getResults()": "infinite",
						"initCandidates()": "infinite",
						"initPollingStations()": "infinite",
						"registerAtPollingStation(uint256)": "28818"
					}
				},
				"methodIdentifiers": {
					"addVoter(address,uint256)": "b9f05f2f",
					"candidates(uint256)": "3477ee2e",
					"candidatesCount()": "2d35a8a2",
					"castVote(uint256,uint256)": "2c0a3f89",
					"electionOwner()": "53357ad0",
					"endVote()": "b9223946",
					"finalResult()": "f3a8286f",
					"pollingStationCount()": "df9f1a07",
					"pollingStations(uint256)": "fe2442d7",
					"results(uint256,uint256)": "d70c6f4e",
					"resultsPerPollingStation(uint256,uint256)": "b54b5d62",
					"startVote()": "4c0a6af0",
					"state()": "c19d93fb",
					"totalRegisteredVoters()": "00aa7464",
					"voterRegistry(address)": "4763d4e7",
					"voters(address)": "a3ec138d"
				}
			},
			"storageLayout": {
				"storage": [
					{
						"astId": 30,
						"contract": "contracts/ergasia.sol:Election",
						"label": "electionOwner",
						"offset": 0,
						"slot": "0",
						"type": "t_address"
					},
					{
						"astId": 32,
						"contract": "contracts/ergasia.sol:Election",
						"label": "candidatesCount",
						"offset": 0,
						"slot": "1",
						"type": "t_uint256"
					},
					{
						"astId": 34,
						"contract": "contracts/ergasia.sol:Election",
						"label": "pollingStationCount",
						"offset": 0,
						"slot": "2",
						"type": "t_uint256"
					},
					{
						"astId": 36,
						"contract": "contracts/ergasia.sol:Election",
						"label": "totalRegisteredVoters",
						"offset": 0,
						"slot": "3",
						"type": "t_uint256"
					},
					{
						"astId": 38,
						"contract": "contracts/ergasia.sol:Election",
						"label": "countResult",
						"offset": 0,
						"slot": "4",
						"type": "t_uint256"
					},
					{
						"astId": 40,
						"contract": "contracts/ergasia.sol:Election",
						"label": "finalResult",
						"offset": 0,
						"slot": "5",
						"type": "t_uint256"
					},
					{
						"astId": 45,
						"contract": "contracts/ergasia.sol:Election",
						"label": "results",
						"offset": 0,
						"slot": "6",
						"type": "t_array(t_array(t_struct(Candidate)8_storage)dyn_storage)dyn_storage"
					},
					{
						"astId": 50,
						"contract": "contracts/ergasia.sol:Election",
						"label": "candidates",
						"offset": 0,
						"slot": "7",
						"type": "t_mapping(t_uint256,t_struct(Candidate)8_storage)"
					},
					{
						"astId": 55,
						"contract": "contracts/ergasia.sol:Election",
						"label": "pollingStations",
						"offset": 0,
						"slot": "8",
						"type": "t_mapping(t_uint256,t_struct(PollingStation)17_storage)"
					},
					{
						"astId": 60,
						"contract": "contracts/ergasia.sol:Election",
						"label": "voterRegistry",
						"offset": 0,
						"slot": "9",
						"type": "t_mapping(t_address,t_struct(Voter)28_storage)"
					},
					{
						"astId": 64,
						"contract": "contracts/ergasia.sol:Election",
						"label": "voters",
						"offset": 0,
						"slot": "10",
						"type": "t_mapping(t_address,t_bool)"
					},
					{
						"astId": 71,
						"contract": "contracts/ergasia.sol:Election",
						"label": "resultsPerPollingStation",
						"offset": 0,
						"slot": "11",
						"type": "t_mapping(t_uint256,t_mapping(t_uint256,t_struct(Candidate)8_storage))"
					},
					{
						"astId": 78,
						"contract": "contracts/ergasia.sol:Election",
						"label": "state",
						"offset": 0,
						"slot": "12",
						"type": "t_enum(State)75"
					}
				],
				"types": {
					"t_address": {
						"encoding": "inplace",
						"label": "address",
						"numberOfBytes": "20"
					},
					"t_array(t_array(t_struct(Candidate)8_storage)dyn_storage)dyn_storage": {
						"base": "t_array(t_struct(Candidate)8_storage)dyn_storage",
						"encoding": "dynamic_array",
						"label": "struct Election.Candidate[][]",
						"numberOfBytes": "32"
					},
					"t_array(t_struct(Candidate)8_storage)dyn_storage": {
						"base": "t_struct(Candidate)8_storage",
						"encoding": "dynamic_array",
						"label": "struct Election.Candidate[]",
						"numberOfBytes": "32"
					},
					"t_bool": {
						"encoding": "inplace",
						"label": "bool",
						"numberOfBytes": "1"
					},
					"t_enum(State)75": {
						"encoding": "inplace",
						"label": "enum Election.State",
						"numberOfBytes": "1"
					},
					"t_mapping(t_address,t_bool)": {
						"encoding": "mapping",
						"key": "t_address",
						"label": "mapping(address => bool)",
						"numberOfBytes": "32",
						"value": "t_bool"
					},
					"t_mapping(t_address,t_struct(Voter)28_storage)": {
						"encoding": "mapping",
						"key": "t_address",
						"label": "mapping(address => struct Election.Voter)",
						"numberOfBytes": "32",
						"value": "t_struct(Voter)28_storage"
					},
					"t_mapping(t_uint256,t_mapping(t_uint256,t_struct(Candidate)8_storage))": {
						"encoding": "mapping",
						"key": "t_uint256",
						"label": "mapping(uint256 => mapping(uint256 => struct Election.Candidate))",
						"numberOfBytes": "32",
						"value": "t_mapping(t_uint256,t_struct(Candidate)8_storage)"
					},
					"t_mapping(t_uint256,t_struct(Candidate)8_storage)": {
						"encoding": "mapping",
						"key": "t_uint256",
						"label": "mapping(uint256 => struct Election.Candidate)",
						"numberOfBytes": "32",
						"value": "t_struct(Candidate)8_storage"
					},
					"t_mapping(t_uint256,t_struct(PollingStation)17_storage)": {
						"encoding": "mapping",
						"key": "t_uint256",
						"label": "mapping(uint256 => struct Election.PollingStation)",
						"numberOfBytes": "32",
						"value": "t_struct(PollingStation)17_storage"
					},
					"t_string_storage": {
						"encoding": "bytes",
						"label": "string",
						"numberOfBytes": "32"
					},
					"t_struct(Candidate)8_storage": {
						"encoding": "inplace",
						"label": "struct Election.Candidate",
						"members": [
							{
								"astId": 3,
								"contract": "contracts/ergasia.sol:Election",
								"label": "id",
								"offset": 0,
								"slot": "0",
								"type": "t_uint256"
							},
							{
								"astId": 5,
								"contract": "contracts/ergasia.sol:Election",
								"label": "name",
								"offset": 0,
								"slot": "1",
								"type": "t_string_storage"
							},
							{
								"astId": 7,
								"contract": "contracts/ergasia.sol:Election",
								"label": "votes",
								"offset": 0,
								"slot": "2",
								"type": "t_uint256"
							}
						],
						"numberOfBytes": "96"
					},
					"t_struct(PollingStation)17_storage": {
						"encoding": "inplace",
						"label": "struct Election.PollingStation",
						"members": [
							{
								"astId": 10,
								"contract": "contracts/ergasia.sol:Election",
								"label": "id",
								"offset": 0,
								"slot": "0",
								"type": "t_uint256"
							},
							{
								"astId": 12,
								"contract": "contracts/ergasia.sol:Election",
								"label": "name",
								"offset": 0,
								"slot": "1",
								"type": "t_string_storage"
							},
							{
								"astId": 14,
								"contract": "contracts/ergasia.sol:Election",
								"label": "votersRegistered",
								"offset": 0,
								"slot": "2",
								"type": "t_uint256"
							},
							{
								"astId": 16,
								"contract": "contracts/ergasia.sol:Election",
								"label": "votesCasted",
								"offset": 0,
								"slot": "3",
								"type": "t_uint256"
							}
						],
						"numberOfBytes": "128"
					},
					"t_struct(Voter)28_storage": {
						"encoding": "inplace",
						"label": "struct Election.Voter",
						"members": [
							{
								"astId": 19,
								"contract": "contracts/ergasia.sol:Election",
								"label": "isEnrolled",
								"offset": 0,
								"slot": "0",
								"type": "t_bool"
							},
							{
								"astId": 21,
								"contract": "contracts/ergasia.sol:Election",
								"label": "hasVoted",
								"offset": 1,
								"slot": "0",
								"type": "t_bool"
							},
							{
								"astId": 23,
								"contract": "contracts/ergasia.sol:Election",
								"label": "choice",
								"offset": 0,
								"slot": "1",
								"type": "t_uint256"
							},
							{
								"astId": 25,
								"contract": "contracts/ergasia.sol:Election",
								"label": "enrolledPollingStationID",
								"offset": 0,
								"slot": "2",
								"type": "t_uint256"
							},
							{
								"astId": 27,
								"contract": "contracts/ergasia.sol:Election",
								"label": "votedPollingStationID",
								"offset": 0,
								"slot": "3",
								"type": "t_uint256"
							}
						],
						"numberOfBytes": "128"
					},
					"t_uint256": {
						"encoding": "inplace",
						"label": "uint256",
						"numberOfBytes": "32"
					}
				}
			},
			"userdoc": {
				"kind": "user",
				"methods": {},
				"version": 1
			}
		}
	}
}