{
	"contracts/ergasia.sol": {
		"Election": {
			"abi": [
				{
					"inputs": [],
					"stateMutability": "nonpayable",
					"type": "constructor"
				},
				{
					"inputs": [
						{
							"internalType": "address",
							"name": "_voterAddress",
							"type": "address"
						},
						{
							"internalType": "uint256",
							"name": "_pollingStationID",
							"type": "uint256"
						}
					],
					"name": "addVoter",
					"outputs": [],
					"stateMutability": "nonpayable",
					"type": "function"
				},
				{
					"inputs": [
						{
							"internalType": "uint256",
							"name": "",
							"type": "uint256"
						}
					],
					"name": "candidates",
					"outputs": [
						{
							"internalType": "uint256",
							"name": "id",
							"type": "uint256"
						},
						{
							"internalType": "string",
							"name": "name",
							"type": "string"
						},
						{
							"internalType": "uint256",
							"name": "votes",
							"type": "uint256"
						}
					],
					"stateMutability": "view",
					"type": "function"
				},
				{
					"inputs": [],
					"name": "candidatesCount",
					"outputs": [
						{
							"internalType": "uint256",
							"name": "",
							"type": "uint256"
						}
					],
					"stateMutability": "view",
					"type": "function"
				},
				{
					"inputs": [
						{
							"internalType": "uint256",
							"name": "_choice",
							"type": "uint256"
						},
						{
							"internalType": "uint256",
							"name": "_pollingStationID",
							"type": "uint256"
						}
					],
					"name": "castVote",
					"outputs": [
						{
							"internalType": "bool",
							"name": "voted",
							"type": "bool"
						}
					],
					"stateMutability": "nonpayable",
					"type": "function"
				},
				{
					"inputs": [],
					"name": "electionOwner",
					"outputs": [
						{
							"internalType": "address",
							"name": "",
							"type": "address"
						}
					],
					"stateMutability": "view",
					"type": "function"
				},
				{
					"inputs": [],
					"name": "endVote",
					"outputs": [],
					"stateMutability": "nonpayable",
					"type": "function"
				},
				{
					"inputs": [],
					"name": "finalResult",
					"outputs": [
						{
							"internalType": "uint256",
							"name": "",
							"type": "uint256"
						}
					],
					"stateMutability": "view",
					"type": "function"
				},
				{
					"inputs": [],
					"name": "pollingStationCount",
					"outputs": [
						{
							"internalType": "uint256",
							"name": "",
							"type": "uint256"
						}
					],
					"stateMutability": "view",
					"type": "function"
				},
				{
					"inputs": [
						{
							"internalType": "uint256",
							"name": "",
							"type": "uint256"
						}
					],
					"name": "pollingStations",
					"outputs": [
						{
							"internalType": "uint256",
							"name": "id",
							"type": "uint256"
						},
						{
							"internalType": "string",
							"name": "name",
							"type": "string"
						},
						{
							"internalType": "uint256",
							"name": "votersRegistered",
							"type": "uint256"
						},
						{
							"internalType": "uint256",
							"name": "votesCasted",
							"type": "uint256"
						}
					],
					"stateMutability": "view",
					"type": "function"
				},
				{
					"inputs": [
						{
							"internalType": "uint256",
							"name": "",
							"type": "uint256"
						},
						{
							"internalType": "uint256",
							"name": "",
							"type": "uint256"
						}
					],
					"name": "results",
					"outputs": [
						{
							"internalType": "uint256",
							"name": "id",
							"type": "uint256"
						},
						{
							"internalType": "string",
							"name": "name",
							"type": "string"
						},
						{
							"internalType": "uint256",
							"name": "votes",
							"type": "uint256"
						}
					],
					"stateMutability": "view",
					"type": "function"
				},
				{
					"inputs": [],
					"name": "startVote",
					"outputs": [],
					"stateMutability": "nonpayable",
					"type": "function"
				},
				{
					"inputs": [],
					"name": "state",
					"outputs": [
						{
							"internalType": "enum Election.State",
							"name": "",
							"type": "uint8"
						}
					],
					"stateMutability": "view",
					"type": "function"
				},
				{
					"inputs": [],
					"name": "totalRegisteredVoters",
					"outputs": [
						{
							"internalType": "uint256",
							"name": "",
							"type": "uint256"
						}
					],
					"stateMutability": "view",
					"type": "function"
				},
				{
					"inputs": [
						{
							"internalType": "address",
							"name": "",
							"type": "address"
						}
					],
					"name": "voterRegistry",
					"outputs": [
						{
							"internalType": "bool",
							"name": "isEnrolled",
							"type": "bool"
						},
						{
							"internalType": "bool",
							"name": "hasVoted",
							"type": "bool"
						},
						{
							"internalType": "uint256",
							"name": "choice",
							"type": "uint256"
						},
						{
							"internalType": "uint256",
							"name": "enrolledPollingStationID",
							"type": "uint256"
						},
						{
							"internalType": "uint256",
							"name": "votedPollingStationID",
							"type": "uint256"
						}
					],
					"stateMutability": "view",
					"type": "function"
				},
				{
					"inputs": [
						{
							"internalType": "address",
							"name": "",
							"type": "address"
						}
					],
					"name": "voters",
					"outputs": [
						{
							"internalType": "bool",
							"name": "",
							"type": "bool"
						}
					],
					"stateMutability": "view",
					"type": "function"
				}
			],
			"devdoc": {
				"kind": "dev",
				"methods": {
					"addVoter(address,uint256)": {
						"details": "Adds a voter to the voter registry. May only be called by 'owner'.",
						"params": {
							"_pollingStationID": "polling station ID in which voter is registered.",
							"_voterAddress": "address of voter"
						}
					}
				},
				"version": 1
			},
			"evm": {
				"assembly": "    /* \"contracts/ergasia.sol\":70:7044  contract Election {... */\n  mstore(0x40, 0x80)\n    /* \"contracts/ergasia.sol\":2205:2541  constructor() {... */\n  callvalue\n  dup1\n  iszero\n  tag_1\n  jumpi\n  0x00\n  dup1\n  revert\ntag_1:\n  pop\n    /* \"contracts/ergasia.sol\":2245:2255  msg.sender */\n  caller\n    /* \"contracts/ergasia.sol\":2229:2242  electionOwner */\n  0x00\n  dup1\n    /* \"contracts/ergasia.sol\":2229:2255  electionOwner = msg.sender */\n  0x0100\n  exp\n  dup2\n  sload\n  dup2\n  0xffffffffffffffffffffffffffffffffffffffff\n  mul\n  not\n  and\n  swap1\n  dup4\n  0xffffffffffffffffffffffffffffffffffffffff\n  and\n  mul\n  or\n  swap1\n  sstore\n  pop\n    /* \"contracts/ergasia.sol\":2304:2320  initCandidates() */\n  tag_4\n    /* \"contracts/ergasia.sol\":2304:2318  initCandidates */\n  shl(0x20, tag_5)\n    /* \"contracts/ergasia.sol\":2304:2320  initCandidates() */\n  0x20\n  shr\n  jump\t// in\ntag_4:\n    /* \"contracts/ergasia.sol\":2375:2396  initPollingStations() */\n  tag_6\n    /* \"contracts/ergasia.sol\":2375:2394  initPollingStations */\n  shl(0x20, tag_7)\n    /* \"contracts/ergasia.sol\":2375:2396  initPollingStations() */\n  0x20\n  shr\n  jump\t// in\ntag_6:\n    /* \"contracts/ergasia.sol\":2452:2465  initResults() */\n  tag_8\n    /* \"contracts/ergasia.sol\":2452:2463  initResults */\n  shl(0x20, tag_9)\n    /* \"contracts/ergasia.sol\":2452:2465  initResults() */\n  0x20\n  shr\n  jump\t// in\ntag_8:\n    /* \"contracts/ergasia.sol\":2519:2532  State.Created */\n  0x00\n    /* \"contracts/ergasia.sol\":2511:2516  state */\n  0x0b\n  0x00\n    /* \"contracts/ergasia.sol\":2511:2532  state = State.Created */\n  0x0100\n  exp\n  dup2\n  sload\n  dup2\n  0xff\n  mul\n  not\n  and\n  swap1\n  dup4\n  0x02\n  dup2\n  gt\n  iszero\n  tag_10\n  jumpi\n  tag_11\n  tag_12\n  jump\t// in\ntag_11:\ntag_10:\n  mul\n  or\n  swap1\n  sstore\n  pop\n    /* \"contracts/ergasia.sol\":70:7044  contract Election {... */\n  jump(tag_13)\n    /* \"contracts/ergasia.sol\":2600:2827  function initCandidates() internal {... */\ntag_5:\n    /* \"contracts/ergasia.sol\":2645:2672  addCandidate(\"Candidate 1\") */\n  tag_15\n  mload(0x40)\n  dup1\n  0x40\n  add\n  0x40\n  mstore\n  dup1\n  0x0b\n  dup2\n  mstore\n  0x20\n  add\n  0x43616e6469646174652031000000000000000000000000000000000000000000\n  dup2\n  mstore\n  pop\n    /* \"contracts/ergasia.sol\":2645:2657  addCandidate */\n  shl(0x20, tag_16)\n    /* \"contracts/ergasia.sol\":2645:2672  addCandidate(\"Candidate 1\") */\n  0x20\n  shr\n  jump\t// in\ntag_15:\n    /* \"contracts/ergasia.sol\":2682:2709  addCandidate(\"Candidate 2\") */\n  tag_17\n  mload(0x40)\n  dup1\n  0x40\n  add\n  0x40\n  mstore\n  dup1\n  0x0b\n  dup2\n  mstore\n  0x20\n  add\n  0x43616e6469646174652032000000000000000000000000000000000000000000\n  dup2\n  mstore\n  pop\n    /* \"contracts/ergasia.sol\":2682:2694  addCandidate */\n  shl(0x20, tag_16)\n    /* \"contracts/ergasia.sol\":2682:2709  addCandidate(\"Candidate 2\") */\n  0x20\n  shr\n  jump\t// in\ntag_17:\n    /* \"contracts/ergasia.sol\":2719:2746  addCandidate(\"Candidate 3\") */\n  tag_18\n  mload(0x40)\n  dup1\n  0x40\n  add\n  0x40\n  mstore\n  dup1\n  0x0b\n  dup2\n  mstore\n  0x20\n  add\n  0x43616e6469646174652033000000000000000000000000000000000000000000\n  dup2\n  mstore\n  pop\n    /* \"contracts/ergasia.sol\":2719:2731  addCandidate */\n  shl(0x20, tag_16)\n    /* \"contracts/ergasia.sol\":2719:2746  addCandidate(\"Candidate 3\") */\n  0x20\n  shr\n  jump\t// in\ntag_18:\n    /* \"contracts/ergasia.sol\":2756:2783  addCandidate(\"Candidate 4\") */\n  tag_19\n  mload(0x40)\n  dup1\n  0x40\n  add\n  0x40\n  mstore\n  dup1\n  0x0b\n  dup2\n  mstore\n  0x20\n  add\n  0x43616e6469646174652034000000000000000000000000000000000000000000\n  dup2\n  mstore\n  pop\n    /* \"contracts/ergasia.sol\":2756:2768  addCandidate */\n  shl(0x20, tag_16)\n    /* \"contracts/ergasia.sol\":2756:2783  addCandidate(\"Candidate 4\") */\n  0x20\n  shr\n  jump\t// in\ntag_19:\n    /* \"contracts/ergasia.sol\":2793:2820  addCandidate(\"Candidate 5\") */\n  tag_20\n  mload(0x40)\n  dup1\n  0x40\n  add\n  0x40\n  mstore\n  dup1\n  0x0b\n  dup2\n  mstore\n  0x20\n  add\n  0x43616e6469646174652035000000000000000000000000000000000000000000\n  dup2\n  mstore\n  pop\n    /* \"contracts/ergasia.sol\":2793:2805  addCandidate */\n  shl(0x20, tag_16)\n    /* \"contracts/ergasia.sol\":2793:2820  addCandidate(\"Candidate 5\") */\n  0x20\n  shr\n  jump\t// in\ntag_20:\n    /* \"contracts/ergasia.sol\":2600:2827  function initCandidates() internal {... */\n  jump\t// out\n    /* \"contracts/ergasia.sol\":3170:3698  function initPollingStations() internal {... */\ntag_7:\n    /* \"contracts/ergasia.sol\":3220:3258  addPollingStation(\"Polling Station 1\") */\n  tag_22\n  mload(0x40)\n  dup1\n  0x40\n  add\n  0x40\n  mstore\n  dup1\n  0x11\n  dup2\n  mstore\n  0x20\n  add\n  0x506f6c6c696e672053746174696f6e2031000000000000000000000000000000\n  dup2\n  mstore\n  pop\n    /* \"contracts/ergasia.sol\":3220:3237  addPollingStation */\n  shl(0x20, tag_23)\n    /* \"contracts/ergasia.sol\":3220:3258  addPollingStation(\"Polling Station 1\") */\n  0x20\n  shr\n  jump\t// in\ntag_22:\n    /* \"contracts/ergasia.sol\":3268:3306  addPollingStation(\"Polling Station 2\") */\n  tag_24\n  mload(0x40)\n  dup1\n  0x40\n  add\n  0x40\n  mstore\n  dup1\n  0x11\n  dup2\n  mstore\n  0x20\n  add\n  0x506f6c6c696e672053746174696f6e2032000000000000000000000000000000\n  dup2\n  mstore\n  pop\n    /* \"contracts/ergasia.sol\":3268:3285  addPollingStation */\n  shl(0x20, tag_23)\n    /* \"contracts/ergasia.sol\":3268:3306  addPollingStation(\"Polling Station 2\") */\n  0x20\n  shr\n  jump\t// in\ntag_24:\n    /* \"contracts/ergasia.sol\":3316:3354  addPollingStation(\"Polling Station 3\") */\n  tag_25\n  mload(0x40)\n  dup1\n  0x40\n  add\n  0x40\n  mstore\n  dup1\n  0x11\n  dup2\n  mstore\n  0x20\n  add\n  0x506f6c6c696e672053746174696f6e2033000000000000000000000000000000\n  dup2\n  mstore\n  pop\n    /* \"contracts/ergasia.sol\":3316:3333  addPollingStation */\n  shl(0x20, tag_23)\n    /* \"contracts/ergasia.sol\":3316:3354  addPollingStation(\"Polling Station 3\") */\n  0x20\n  shr\n  jump\t// in\ntag_25:\n    /* \"contracts/ergasia.sol\":3364:3402  addPollingStation(\"Polling Station 4\") */\n  tag_26\n  mload(0x40)\n  dup1\n  0x40\n  add\n  0x40\n  mstore\n  dup1\n  0x11\n  dup2\n  mstore\n  0x20\n  add\n  0x506f6c6c696e672053746174696f6e2034000000000000000000000000000000\n  dup2\n  mstore\n  pop\n    /* \"contracts/ergasia.sol\":3364:3381  addPollingStation */\n  shl(0x20, tag_23)\n    /* \"contracts/ergasia.sol\":3364:3402  addPollingStation(\"Polling Station 4\") */\n  0x20\n  shr\n  jump\t// in\ntag_26:\n    /* \"contracts/ergasia.sol\":3412:3450  addPollingStation(\"Polling Station 5\") */\n  tag_27\n  mload(0x40)\n  dup1\n  0x40\n  add\n  0x40\n  mstore\n  dup1\n  0x11\n  dup2\n  mstore\n  0x20\n  add\n  0x506f6c6c696e672053746174696f6e2035000000000000000000000000000000\n  dup2\n  mstore\n  pop\n    /* \"contracts/ergasia.sol\":3412:3429  addPollingStation */\n  shl(0x20, tag_23)\n    /* \"contracts/ergasia.sol\":3412:3450  addPollingStation(\"Polling Station 5\") */\n  0x20\n  shr\n  jump\t// in\ntag_27:\n    /* \"contracts/ergasia.sol\":3460:3498  addPollingStation(\"Polling Station 6\") */\n  tag_28\n  mload(0x40)\n  dup1\n  0x40\n  add\n  0x40\n  mstore\n  dup1\n  0x11\n  dup2\n  mstore\n  0x20\n  add\n  0x506f6c6c696e672053746174696f6e2036000000000000000000000000000000\n  dup2\n  mstore\n  pop\n    /* \"contracts/ergasia.sol\":3460:3477  addPollingStation */\n  shl(0x20, tag_23)\n    /* \"contracts/ergasia.sol\":3460:3498  addPollingStation(\"Polling Station 6\") */\n  0x20\n  shr\n  jump\t// in\ntag_28:\n    /* \"contracts/ergasia.sol\":3508:3546  addPollingStation(\"Polling Station 7\") */\n  tag_29\n  mload(0x40)\n  dup1\n  0x40\n  add\n  0x40\n  mstore\n  dup1\n  0x11\n  dup2\n  mstore\n  0x20\n  add\n  0x506f6c6c696e672053746174696f6e2037000000000000000000000000000000\n  dup2\n  mstore\n  pop\n    /* \"contracts/ergasia.sol\":3508:3525  addPollingStation */\n  shl(0x20, tag_23)\n    /* \"contracts/ergasia.sol\":3508:3546  addPollingStation(\"Polling Station 7\") */\n  0x20\n  shr\n  jump\t// in\ntag_29:\n    /* \"contracts/ergasia.sol\":3556:3594  addPollingStation(\"Polling Station 8\") */\n  tag_30\n  mload(0x40)\n  dup1\n  0x40\n  add\n  0x40\n  mstore\n  dup1\n  0x11\n  dup2\n  mstore\n  0x20\n  add\n  0x506f6c6c696e672053746174696f6e2038000000000000000000000000000000\n  dup2\n  mstore\n  pop\n    /* \"contracts/ergasia.sol\":3556:3573  addPollingStation */\n  shl(0x20, tag_23)\n    /* \"contracts/ergasia.sol\":3556:3594  addPollingStation(\"Polling Station 8\") */\n  0x20\n  shr\n  jump\t// in\ntag_30:\n    /* \"contracts/ergasia.sol\":3604:3642  addPollingStation(\"Polling Station 9\") */\n  tag_31\n  mload(0x40)\n  dup1\n  0x40\n  add\n  0x40\n  mstore\n  dup1\n  0x11\n  dup2\n  mstore\n  0x20\n  add\n  0x506f6c6c696e672053746174696f6e2039000000000000000000000000000000\n  dup2\n  mstore\n  pop\n    /* \"contracts/ergasia.sol\":3604:3621  addPollingStation */\n  shl(0x20, tag_23)\n    /* \"contracts/ergasia.sol\":3604:3642  addPollingStation(\"Polling Station 9\") */\n  0x20\n  shr\n  jump\t// in\ntag_31:\n    /* \"contracts/ergasia.sol\":3652:3691  addPollingStation(\"Polling Station 10\") */\n  tag_32\n  mload(0x40)\n  dup1\n  0x40\n  add\n  0x40\n  mstore\n  dup1\n  0x12\n  dup2\n  mstore\n  0x20\n  add\n  0x506f6c6c696e672053746174696f6e2031300000000000000000000000000000\n  dup2\n  mstore\n  pop\n    /* \"contracts/ergasia.sol\":3652:3669  addPollingStation */\n  shl(0x20, tag_23)\n    /* \"contracts/ergasia.sol\":3652:3691  addPollingStation(\"Polling Station 10\") */\n  0x20\n  shr\n  jump\t// in\ntag_32:\n    /* \"contracts/ergasia.sol\":3170:3698  function initPollingStations() internal {... */\n  jump\t// out\n    /* \"contracts/ergasia.sol\":4116:4348  function initResults() internal {... */\ntag_9:\n    /* \"contracts/ergasia.sol\":4163:4169  uint i */\n  0x00\n    /* \"contracts/ergasia.sol\":4172:4173  1 */\n  0x01\n    /* \"contracts/ergasia.sol\":4163:4173  uint i = 1 */\n  swap1\n  pop\n    /* \"contracts/ergasia.sol\":4158:4342  for (uint i = 1; i <= pollingStationCount; i++) {... */\ntag_34:\n    /* \"contracts/ergasia.sol\":4180:4199  pollingStationCount */\n  sload(0x02)\n    /* \"contracts/ergasia.sol\":4175:4176  i */\n  dup2\n    /* \"contracts/ergasia.sol\":4175:4199  i <= pollingStationCount */\n  gt\n    /* \"contracts/ergasia.sol\":4158:4342  for (uint i = 1; i <= pollingStationCount; i++) {... */\n  tag_35\n  jumpi\n    /* \"contracts/ergasia.sol\":4225:4231  uint j */\n  0x00\n    /* \"contracts/ergasia.sol\":4234:4235  1 */\n  0x01\n    /* \"contracts/ergasia.sol\":4225:4235  uint j = 1 */\n  swap1\n  pop\n    /* \"contracts/ergasia.sol\":4220:4332  for (uint j = 1; j <= candidatesCount; j++) {... */\ntag_37:\n    /* \"contracts/ergasia.sol\":4242:4257  candidatesCount */\n  sload(0x01)\n    /* \"contracts/ergasia.sol\":4237:4238  j */\n  dup2\n    /* \"contracts/ergasia.sol\":4237:4257  j <= candidatesCount */\n  gt\n    /* \"contracts/ergasia.sol\":4220:4332  for (uint j = 1; j <= candidatesCount; j++) {... */\n  tag_38\n  jumpi\n    /* \"contracts/ergasia.sol\":4298:4317  Candidate(j, \"\", 0) */\n  mload(0x40)\n  dup1\n  0x60\n  add\n  0x40\n  mstore\n  dup1\n    /* \"contracts/ergasia.sol\":4308:4309  j */\n  dup3\n    /* \"contracts/ergasia.sol\":4298:4317  Candidate(j, \"\", 0) */\n  dup2\n  mstore\n  0x20\n  add\n  mload(0x40)\n  dup1\n  0x20\n  add\n  0x40\n  mstore\n  dup1\n  0x00\n  dup2\n  mstore\n  pop\n  dup2\n  mstore\n  0x20\n  add\n    /* \"contracts/ergasia.sol\":4315:4316  0 */\n  0x00\n    /* \"contracts/ergasia.sol\":4298:4317  Candidate(j, \"\", 0) */\n  dup2\n  mstore\n  pop\n    /* \"contracts/ergasia.sol\":4282:4289  results */\n  0x0a\n    /* \"contracts/ergasia.sol\":4282:4292  results[i] */\n  0x00\n    /* \"contracts/ergasia.sol\":4290:4291  i */\n  dup5\n    /* \"contracts/ergasia.sol\":4282:4292  results[i] */\n  dup2\n  mstore\n  0x20\n  add\n  swap1\n  dup2\n  mstore\n  0x20\n  add\n  0x00\n  keccak256\n    /* \"contracts/ergasia.sol\":4282:4295  results[i][j] */\n  0x00\n    /* \"contracts/ergasia.sol\":4293:4294  j */\n  dup4\n    /* \"contracts/ergasia.sol\":4282:4295  results[i][j] */\n  dup2\n  mstore\n  0x20\n  add\n  swap1\n  dup2\n  mstore\n  0x20\n  add\n  0x00\n  keccak256\n    /* \"contracts/ergasia.sol\":4282:4317  results[i][j] = Candidate(j, \"\", 0) */\n  0x00\n  dup3\n  add\n  mload\n  dup2\n  0x00\n  add\n  sstore\n  0x20\n  dup3\n  add\n  mload\n  dup2\n  0x01\n  add\n  swap1\n  dup1\n  mload\n  swap1\n  0x20\n  add\n  swap1\n  tag_40\n  swap3\n  swap2\n  swap1\n  tag_41\n  jump\t// in\ntag_40:\n  pop\n  0x40\n  dup3\n  add\n  mload\n  dup2\n  0x02\n  add\n  sstore\n  swap1\n  pop\n  pop\n    /* \"contracts/ergasia.sol\":4259:4262  j++ */\n  dup1\n  dup1\n  tag_42\n  swap1\n  tag_43\n  jump\t// in\ntag_42:\n  swap2\n  pop\n  pop\n    /* \"contracts/ergasia.sol\":4220:4332  for (uint j = 1; j <= candidatesCount; j++) {... */\n  jump(tag_37)\ntag_38:\n  pop\n    /* \"contracts/ergasia.sol\":4201:4204  i++ */\n  dup1\n  dup1\n  tag_44\n  swap1\n  tag_43\n  jump\t// in\ntag_44:\n  swap2\n  pop\n  pop\n    /* \"contracts/ergasia.sol\":4158:4342  for (uint i = 1; i <= pollingStationCount; i++) {... */\n  jump(tag_34)\ntag_35:\n  pop\n    /* \"contracts/ergasia.sol\":4116:4348  function initResults() internal {... */\n  jump\t// out\n    /* \"contracts/ergasia.sol\":2947:3109  function addCandidate (string memory _name) private {... */\ntag_16:\n    /* \"contracts/ergasia.sol\":3009:3024  candidatesCount */\n  0x01\n  0x00\n    /* \"contracts/ergasia.sol\":3009:3026  candidatesCount++ */\n  dup2\n  sload\n  dup1\n  swap3\n  swap2\n  swap1\n  tag_46\n  swap1\n  tag_43\n  jump\t// in\ntag_46:\n  swap2\n  swap1\n  pop\n  sstore\n  pop\n    /* \"contracts/ergasia.sol\":3066:3102  Candidate(candidatesCount, _name, 0) */\n  mload(0x40)\n  dup1\n  0x60\n  add\n  0x40\n  mstore\n  dup1\n    /* \"contracts/ergasia.sol\":3076:3091  candidatesCount */\n  sload(0x01)\n    /* \"contracts/ergasia.sol\":3066:3102  Candidate(candidatesCount, _name, 0) */\n  dup2\n  mstore\n  0x20\n  add\n    /* \"contracts/ergasia.sol\":3093:3098  _name */\n  dup3\n    /* \"contracts/ergasia.sol\":3066:3102  Candidate(candidatesCount, _name, 0) */\n  dup2\n  mstore\n  0x20\n  add\n    /* \"contracts/ergasia.sol\":3100:3101  0 */\n  0x00\n    /* \"contracts/ergasia.sol\":3066:3102  Candidate(candidatesCount, _name, 0) */\n  dup2\n  mstore\n  pop\n    /* \"contracts/ergasia.sol\":3036:3046  candidates */\n  0x06\n    /* \"contracts/ergasia.sol\":3036:3063  candidates[candidatesCount] */\n  0x00\n    /* \"contracts/ergasia.sol\":3047:3062  candidatesCount */\n  sload(0x01)\n    /* \"contracts/ergasia.sol\":3036:3063  candidates[candidatesCount] */\n  dup2\n  mstore\n  0x20\n  add\n  swap1\n  dup2\n  mstore\n  0x20\n  add\n  0x00\n  keccak256\n    /* \"contracts/ergasia.sol\":3036:3102  candidates[candidatesCount] = Candidate(candidatesCount, _name, 0) */\n  0x00\n  dup3\n  add\n  mload\n  dup2\n  0x00\n  add\n  sstore\n  0x20\n  dup3\n  add\n  mload\n  dup2\n  0x01\n  add\n  swap1\n  dup1\n  mload\n  swap1\n  0x20\n  add\n  swap1\n  tag_47\n  swap3\n  swap2\n  swap1\n  tag_41\n  jump\t// in\ntag_47:\n  pop\n  0x40\n  dup3\n  add\n  mload\n  dup2\n  0x02\n  add\n  sstore\n  swap1\n  pop\n  pop\n    /* \"contracts/ergasia.sol\":2947:3109  function addCandidate (string memory _name) private {... */\n  pop\n  jump\t// out\n    /* \"contracts/ergasia.sol\":3821:4013  function addPollingStation (string memory _name) private {... */\ntag_23:\n    /* \"contracts/ergasia.sol\":3888:3907  pollingStationCount */\n  0x02\n  0x00\n    /* \"contracts/ergasia.sol\":3888:3909  pollingStationCount++ */\n  dup2\n  sload\n  dup1\n  swap3\n  swap2\n  swap1\n  tag_49\n  swap1\n  tag_43\n  jump\t// in\ntag_49:\n  swap2\n  swap1\n  pop\n  sstore\n  pop\n    /* \"contracts/ergasia.sol\":3958:4006  PollingStation(pollingStationCount, _name, 0, 0) */\n  mload(0x40)\n  dup1\n  0x80\n  add\n  0x40\n  mstore\n  dup1\n    /* \"contracts/ergasia.sol\":3973:3992  pollingStationCount */\n  sload(0x02)\n    /* \"contracts/ergasia.sol\":3958:4006  PollingStation(pollingStationCount, _name, 0, 0) */\n  dup2\n  mstore\n  0x20\n  add\n    /* \"contracts/ergasia.sol\":3994:3999  _name */\n  dup3\n    /* \"contracts/ergasia.sol\":3958:4006  PollingStation(pollingStationCount, _name, 0, 0) */\n  dup2\n  mstore\n  0x20\n  add\n    /* \"contracts/ergasia.sol\":4001:4002  0 */\n  0x00\n    /* \"contracts/ergasia.sol\":3958:4006  PollingStation(pollingStationCount, _name, 0, 0) */\n  dup2\n  mstore\n  0x20\n  add\n    /* \"contracts/ergasia.sol\":4004:4005  0 */\n  0x00\n    /* \"contracts/ergasia.sol\":3958:4006  PollingStation(pollingStationCount, _name, 0, 0) */\n  dup2\n  mstore\n  pop\n    /* \"contracts/ergasia.sol\":3919:3934  pollingStations */\n  0x07\n    /* \"contracts/ergasia.sol\":3919:3955  pollingStations[pollingStationCount] */\n  0x00\n    /* \"contracts/ergasia.sol\":3935:3954  pollingStationCount */\n  sload(0x02)\n    /* \"contracts/ergasia.sol\":3919:3955  pollingStations[pollingStationCount] */\n  dup2\n  mstore\n  0x20\n  add\n  swap1\n  dup2\n  mstore\n  0x20\n  add\n  0x00\n  keccak256\n    /* \"contracts/ergasia.sol\":3919:4006  pollingStations[pollingStationCount] = PollingStation(pollingStationCount, _name, 0, 0) */\n  0x00\n  dup3\n  add\n  mload\n  dup2\n  0x00\n  add\n  sstore\n  0x20\n  dup3\n  add\n  mload\n  dup2\n  0x01\n  add\n  swap1\n  dup1\n  mload\n  swap1\n  0x20\n  add\n  swap1\n  tag_50\n  swap3\n  swap2\n  swap1\n  tag_41\n  jump\t// in\ntag_50:\n  pop\n  0x40\n  dup3\n  add\n  mload\n  dup2\n  0x02\n  add\n  sstore\n  0x60\n  dup3\n  add\n  mload\n  dup2\n  0x03\n  add\n  sstore\n  swap1\n  pop\n  pop\n    /* \"contracts/ergasia.sol\":3821:4013  function addPollingStation (string memory _name) private {... */\n  pop\n  jump\t// out\n    /* \"contracts/ergasia.sol\":70:7044  contract Election {... */\ntag_41:\n  dup3\n  dup1\n  sload\n  tag_51\n  swap1\n  tag_52\n  jump\t// in\ntag_51:\n  swap1\n  0x00\n  mstore\n  keccak256(0x00, 0x20)\n  swap1\n  0x1f\n  add\n  0x20\n  swap1\n  div\n  dup2\n  add\n  swap3\n  dup3\n  tag_54\n  jumpi\n  0x00\n  dup6\n  sstore\n  jump(tag_53)\ntag_54:\n  dup3\n  0x1f\n  lt\n  tag_55\n  jumpi\n  dup1\n  mload\n  not(0xff)\n  and\n  dup4\n  dup1\n  add\n  or\n  dup6\n  sstore\n  jump(tag_53)\ntag_55:\n  dup3\n  dup1\n  add\n  0x01\n  add\n  dup6\n  sstore\n  dup3\n  iszero\n  tag_53\n  jumpi\n  swap2\n  dup3\n  add\ntag_56:\n  dup3\n  dup2\n  gt\n  iszero\n  tag_57\n  jumpi\n  dup3\n  mload\n  dup3\n  sstore\n  swap2\n  0x20\n  add\n  swap2\n  swap1\n  0x01\n  add\n  swap1\n  jump(tag_56)\ntag_57:\ntag_53:\n  pop\n  swap1\n  pop\n  tag_58\n  swap2\n  swap1\n  tag_59\n  jump\t// in\ntag_58:\n  pop\n  swap1\n  jump\t// out\ntag_59:\ntag_60:\n  dup1\n  dup3\n  gt\n  iszero\n  tag_61\n  jumpi\n  0x00\n  dup2\n  0x00\n  swap1\n  sstore\n  pop\n  0x01\n  add\n  jump(tag_60)\ntag_61:\n  pop\n  swap1\n  jump\t// out\n    /* \"#utility.yul\":7:84   */\ntag_63:\n    /* \"#utility.yul\":44:51   */\n  0x00\n    /* \"#utility.yul\":73:78   */\n  dup2\n    /* \"#utility.yul\":62:78   */\n  swap1\n  pop\n    /* \"#utility.yul\":7:84   */\n  swap2\n  swap1\n  pop\n  jump\t// out\n    /* \"#utility.yul\":90:410   */\ntag_52:\n    /* \"#utility.yul\":134:140   */\n  0x00\n    /* \"#utility.yul\":171:172   */\n  0x02\n    /* \"#utility.yul\":165:169   */\n  dup3\n    /* \"#utility.yul\":161:173   */\n  div\n    /* \"#utility.yul\":151:173   */\n  swap1\n  pop\n    /* \"#utility.yul\":218:219   */\n  0x01\n    /* \"#utility.yul\":212:216   */\n  dup3\n    /* \"#utility.yul\":208:220   */\n  and\n    /* \"#utility.yul\":239:257   */\n  dup1\n    /* \"#utility.yul\":229:310   */\n  tag_66\n  jumpi\n    /* \"#utility.yul\":295:299   */\n  0x7f\n    /* \"#utility.yul\":287:293   */\n  dup3\n    /* \"#utility.yul\":283:300   */\n  and\n    /* \"#utility.yul\":273:300   */\n  swap2\n  pop\n    /* \"#utility.yul\":229:310   */\ntag_66:\n    /* \"#utility.yul\":357:359   */\n  0x20\n    /* \"#utility.yul\":349:355   */\n  dup3\n    /* \"#utility.yul\":346:360   */\n  lt\n    /* \"#utility.yul\":326:344   */\n  dup2\n    /* \"#utility.yul\":323:361   */\n  eq\n    /* \"#utility.yul\":320:404   */\n  iszero\n  tag_67\n  jumpi\n    /* \"#utility.yul\":376:394   */\n  tag_68\n  tag_69\n  jump\t// in\ntag_68:\n    /* \"#utility.yul\":320:404   */\ntag_67:\n    /* \"#utility.yul\":141:410   */\n  pop\n    /* \"#utility.yul\":90:410   */\n  swap2\n  swap1\n  pop\n  jump\t// out\n    /* \"#utility.yul\":416:649   */\ntag_43:\n    /* \"#utility.yul\":455:458   */\n  0x00\n    /* \"#utility.yul\":478:502   */\n  tag_71\n    /* \"#utility.yul\":496:501   */\n  dup3\n    /* \"#utility.yul\":478:502   */\n  tag_63\n  jump\t// in\ntag_71:\n    /* \"#utility.yul\":469:502   */\n  swap2\n  pop\n    /* \"#utility.yul\":524:590   */\n  0xffffffffffffffffffffffffffffffffffffffffffffffffffffffffffffffff\n    /* \"#utility.yul\":517:522   */\n  dup3\n    /* \"#utility.yul\":514:591   */\n  eq\n    /* \"#utility.yul\":511:614   */\n  iszero\n  tag_72\n  jumpi\n    /* \"#utility.yul\":594:612   */\n  tag_73\n  tag_74\n  jump\t// in\ntag_73:\n    /* \"#utility.yul\":511:614   */\ntag_72:\n    /* \"#utility.yul\":641:642   */\n  0x01\n    /* \"#utility.yul\":634:639   */\n  dup3\n    /* \"#utility.yul\":630:643   */\n  add\n    /* \"#utility.yul\":623:643   */\n  swap1\n  pop\n    /* \"#utility.yul\":416:649   */\n  swap2\n  swap1\n  pop\n  jump\t// out\n    /* \"#utility.yul\":655:835   */\ntag_74:\n    /* \"#utility.yul\":703:780   */\n  0x4e487b7100000000000000000000000000000000000000000000000000000000\n    /* \"#utility.yul\":700:701   */\n  0x00\n    /* \"#utility.yul\":693:781   */\n  mstore\n    /* \"#utility.yul\":800:804   */\n  0x11\n    /* \"#utility.yul\":797:798   */\n  0x04\n    /* \"#utility.yul\":790:805   */\n  mstore\n    /* \"#utility.yul\":824:828   */\n  0x24\n    /* \"#utility.yul\":821:822   */\n  0x00\n    /* \"#utility.yul\":814:829   */\n  revert\n    /* \"#utility.yul\":841:1021   */\ntag_12:\n    /* \"#utility.yul\":889:966   */\n  0x4e487b7100000000000000000000000000000000000000000000000000000000\n    /* \"#utility.yul\":886:887   */\n  0x00\n    /* \"#utility.yul\":879:967   */\n  mstore\n    /* \"#utility.yul\":986:990   */\n  0x21\n    /* \"#utility.yul\":983:984   */\n  0x04\n    /* \"#utility.yul\":976:991   */\n  mstore\n    /* \"#utility.yul\":1010:1014   */\n  0x24\n    /* \"#utility.yul\":1007:1008   */\n  0x00\n    /* \"#utility.yul\":1000:1015   */\n  revert\n    /* \"#utility.yul\":1027:1207   */\ntag_69:\n    /* \"#utility.yul\":1075:1152   */\n  0x4e487b7100000000000000000000000000000000000000000000000000000000\n    /* \"#utility.yul\":1072:1073   */\n  0x00\n    /* \"#utility.yul\":1065:1153   */\n  mstore\n    /* \"#utility.yul\":1172:1176   */\n  0x22\n    /* \"#utility.yul\":1169:1170   */\n  0x04\n    /* \"#utility.yul\":1162:1177   */\n  mstore\n    /* \"#utility.yul\":1196:1200   */\n  0x24\n    /* \"#utility.yul\":1193:1194   */\n  0x00\n    /* \"#utility.yul\":1186:1201   */\n  revert\n    /* \"contracts/ergasia.sol\":70:7044  contract Election {... */\ntag_13:\n  dataSize(sub_0)\n  dup1\n  dataOffset(sub_0)\n  0x00\n  codecopy\n  0x00\n  return\nstop\n\nsub_0: assembly {\n        /* \"contracts/ergasia.sol\":70:7044  contract Election {... */\n      mstore(0x40, 0x80)\n      callvalue\n      dup1\n      iszero\n      tag_1\n      jumpi\n      0x00\n      dup1\n      revert\n    tag_1:\n      pop\n      jumpi(tag_2, lt(calldatasize, 0x04))\n      shr(0xe0, calldataload(0x00))\n      dup1\n      0xa3ec138d\n      gt\n      tag_18\n      jumpi\n      dup1\n      0xd70c6f4e\n      gt\n      tag_19\n      jumpi\n      dup1\n      0xd70c6f4e\n      eq\n      tag_14\n      jumpi\n      dup1\n      0xdf9f1a07\n      eq\n      tag_15\n      jumpi\n      dup1\n      0xf3a8286f\n      eq\n      tag_16\n      jumpi\n      dup1\n      0xfe2442d7\n      eq\n      tag_17\n      jumpi\n      jump(tag_2)\n    tag_19:\n      dup1\n      0xa3ec138d\n      eq\n      tag_10\n      jumpi\n      dup1\n      0xb9223946\n      eq\n      tag_11\n      jumpi\n      dup1\n      0xb9f05f2f\n      eq\n      tag_12\n      jumpi\n      dup1\n      0xc19d93fb\n      eq\n      tag_13\n      jumpi\n      jump(tag_2)\n    tag_18:\n      dup1\n      0x3477ee2e\n      gt\n      tag_20\n      jumpi\n      dup1\n      0x3477ee2e\n      eq\n      tag_6\n      jumpi\n      dup1\n      0x4763d4e7\n      eq\n      tag_7\n      jumpi\n      dup1\n      0x4c0a6af0\n      eq\n      tag_8\n      jumpi\n      dup1\n      0x53357ad0\n      eq\n      tag_9\n      jumpi\n      jump(tag_2)\n    tag_20:\n      dup1\n      0xaa7464\n      eq\n      tag_3\n      jumpi\n      dup1\n      0x2c0a3f89\n      eq\n      tag_4\n      jumpi\n      dup1\n      0x2d35a8a2\n      eq\n      tag_5\n      jumpi\n    tag_2:\n      0x00\n      dup1\n      revert\n        /* \"contracts/ergasia.sol\":1363:1396  uint public totalRegisteredVoters */\n    tag_3:\n      tag_21\n      tag_22\n      jump\t// in\n    tag_21:\n      mload(0x40)\n      tag_23\n      swap2\n      swap1\n      tag_24\n      jump\t// in\n    tag_23:\n      mload(0x40)\n      dup1\n      swap2\n      sub\n      swap1\n      return\n        /* \"contracts/ergasia.sol\":6126:6910  function castVote(uint _choice, uint _pollingStationID) public inState(State.Voting) returns (bool voted) {... */\n    tag_4:\n      tag_25\n      0x04\n      dup1\n      calldatasize\n      sub\n      dup2\n      add\n      swap1\n      tag_26\n      swap2\n      swap1\n      tag_27\n      jump\t// in\n    tag_26:\n      tag_28\n      jump\t// in\n    tag_25:\n      mload(0x40)\n      tag_29\n      swap2\n      swap1\n      tag_30\n      jump\t// in\n    tag_29:\n      mload(0x40)\n      dup1\n      swap2\n      sub\n      swap1\n      return\n        /* \"contracts/ergasia.sol\":1221:1248  uint public candidatesCount */\n    tag_5:\n      tag_31\n      tag_32\n      jump\t// in\n    tag_31:\n      mload(0x40)\n      tag_33\n      swap2\n      swap1\n      tag_24\n      jump\t// in\n    tag_33:\n      mload(0x40)\n      dup1\n      swap2\n      sub\n      swap1\n      return\n        /* \"contracts/ergasia.sol\":1566:1610  mapping(uint => Candidate) public candidates */\n    tag_6:\n      tag_34\n      0x04\n      dup1\n      calldatasize\n      sub\n      dup2\n      add\n      swap1\n      tag_35\n      swap2\n      swap1\n      tag_36\n      jump\t// in\n    tag_35:\n      tag_37\n      jump\t// in\n    tag_34:\n      mload(0x40)\n      tag_38\n      swap4\n      swap3\n      swap2\n      swap1\n      tag_39\n      jump\t// in\n    tag_38:\n      mload(0x40)\n      dup1\n      swap2\n      sub\n      swap1\n      return\n        /* \"contracts/ergasia.sol\":1724:1770  mapping(address => Voter) public voterRegistry */\n    tag_7:\n      tag_40\n      0x04\n      dup1\n      calldatasize\n      sub\n      dup2\n      add\n      swap1\n      tag_41\n      swap2\n      swap1\n      tag_42\n      jump\t// in\n    tag_41:\n      tag_43\n      jump\t// in\n    tag_40:\n      mload(0x40)\n      tag_44\n      swap6\n      swap5\n      swap4\n      swap3\n      swap2\n      swap1\n      tag_45\n      jump\t// in\n    tag_44:\n      mload(0x40)\n      dup1\n      swap2\n      sub\n      swap1\n      return\n        /* \"contracts/ergasia.sol\":6026:6120  function startVote() public inState(State.Created) Owner {... */\n    tag_8:\n      tag_46\n      tag_47\n      jump\t// in\n    tag_46:\n      stop\n        /* \"contracts/ergasia.sol\":1187:1215  address public electionOwner */\n    tag_9:\n      tag_48\n      tag_49\n      jump\t// in\n    tag_48:\n      mload(0x40)\n      tag_50\n      swap2\n      swap1\n      tag_51\n      jump\t// in\n    tag_50:\n      mload(0x40)\n      dup1\n      swap2\n      sub\n      swap1\n      return\n        /* \"contracts/ergasia.sol\":1776:1814  mapping(address => bool) public voters */\n    tag_10:\n      tag_52\n      0x04\n      dup1\n      calldatasize\n      sub\n      dup2\n      add\n      swap1\n      tag_53\n      swap2\n      swap1\n      tag_42\n      jump\t// in\n    tag_53:\n      tag_54\n      jump\t// in\n    tag_52:\n      mload(0x40)\n      tag_55\n      swap2\n      swap1\n      tag_30\n      jump\t// in\n    tag_55:\n      mload(0x40)\n      dup1\n      swap2\n      sub\n      swap1\n      return\n        /* \"contracts/ergasia.sol\":6916:7042  function endVote() public inState(State.Voting) Owner { ... */\n    tag_11:\n      tag_56\n      tag_57\n      jump\t// in\n    tag_56:\n      stop\n        /* \"contracts/ergasia.sol\":4572:5492  function addVoter(address _voterAddress, uint _pollingStationID) public inState(State.Created) Owner {... */\n    tag_12:\n      tag_58\n      0x04\n      dup1\n      calldatasize\n      sub\n      dup2\n      add\n      swap1\n      tag_59\n      swap2\n      swap1\n      tag_60\n      jump\t// in\n    tag_59:\n      tag_61\n      jump\t// in\n    tag_58:\n      stop\n        /* \"contracts/ergasia.sol\":1931:1949  State public state */\n    tag_13:\n      tag_62\n      tag_63\n      jump\t// in\n    tag_62:\n      mload(0x40)\n      tag_64\n      swap2\n      swap1\n      tag_65\n      jump\t// in\n    tag_64:\n      mload(0x40)\n      dup1\n      swap2\n      sub\n      swap1\n      return\n        /* \"contracts/ergasia.sol\":1820:1878  mapping(uint => mapping(uint => Candidate)) public results */\n    tag_14:\n      tag_66\n      0x04\n      dup1\n      calldatasize\n      sub\n      dup2\n      add\n      swap1\n      tag_67\n      swap2\n      swap1\n      tag_27\n      jump\t// in\n    tag_67:\n      tag_68\n      jump\t// in\n    tag_66:\n      mload(0x40)\n      tag_69\n      swap4\n      swap3\n      swap2\n      swap1\n      tag_39\n      jump\t// in\n    tag_69:\n      mload(0x40)\n      dup1\n      swap2\n      sub\n      swap1\n      return\n        /* \"contracts/ergasia.sol\":1289:1320  uint public pollingStationCount */\n    tag_15:\n      tag_70\n      tag_71\n      jump\t// in\n    tag_70:\n      mload(0x40)\n      tag_72\n      swap2\n      swap1\n      tag_24\n      jump\t// in\n    tag_72:\n      mload(0x40)\n      dup1\n      swap2\n      sub\n      swap1\n      return\n        /* \"contracts/ergasia.sol\":1484:1507  uint public finalResult */\n    tag_16:\n      tag_73\n      tag_74\n      jump\t// in\n    tag_73:\n      mload(0x40)\n      tag_75\n      swap2\n      swap1\n      tag_24\n      jump\t// in\n    tag_75:\n      mload(0x40)\n      dup1\n      swap2\n      sub\n      swap1\n      return\n        /* \"contracts/ergasia.sol\":1640:1694  mapping(uint => PollingStation) public pollingStations */\n    tag_17:\n      tag_76\n      0x04\n      dup1\n      calldatasize\n      sub\n      dup2\n      add\n      swap1\n      tag_77\n      swap2\n      swap1\n      tag_36\n      jump\t// in\n    tag_77:\n      tag_78\n      jump\t// in\n    tag_76:\n      mload(0x40)\n      tag_79\n      swap5\n      swap4\n      swap3\n      swap2\n      swap1\n      tag_80\n      jump\t// in\n    tag_79:\n      mload(0x40)\n      dup1\n      swap2\n      sub\n      swap1\n      return\n        /* \"contracts/ergasia.sol\":1363:1396  uint public totalRegisteredVoters */\n    tag_22:\n      sload(0x03)\n      dup2\n      jump\t// out\n        /* \"contracts/ergasia.sol\":6126:6910  function castVote(uint _choice, uint _pollingStationID) public inState(State.Voting) returns (bool voted) {... */\n    tag_28:\n        /* \"contracts/ergasia.sol\":6220:6230  bool voted */\n      0x00\n        /* \"contracts/ergasia.sol\":6197:6209  State.Voting */\n      0x01\n        /* \"contracts/ergasia.sol\":2101:2107  _state */\n      dup1\n        /* \"contracts/ergasia.sol\":2092:2107  state == _state */\n      0x02\n      dup2\n      gt\n      iszero\n      tag_82\n      jumpi\n      tag_83\n      tag_84\n      jump\t// in\n    tag_83:\n    tag_82:\n        /* \"contracts/ergasia.sol\":2092:2097  state */\n      0x0b\n      0x00\n      swap1\n      sload\n      swap1\n      0x0100\n      exp\n      swap1\n      div\n      0xff\n      and\n        /* \"contracts/ergasia.sol\":2092:2107  state == _state */\n      0x02\n      dup2\n      gt\n      iszero\n      tag_85\n      jumpi\n      tag_86\n      tag_84\n      jump\t// in\n    tag_86:\n    tag_85:\n      eq\n        /* \"contracts/ergasia.sol\":2084:2108  require(state == _state) */\n      tag_87\n      jumpi\n      0x00\n      dup1\n      revert\n    tag_87:\n        /* \"contracts/ergasia.sol\":6243:6253  bool found */\n      0x00\n        /* \"contracts/ergasia.sol\":6276:6289  voterRegistry */\n      0x08\n        /* \"contracts/ergasia.sol\":6276:6301  voterRegistry[msg.sender] */\n      0x00\n        /* \"contracts/ergasia.sol\":6290:6300  msg.sender */\n      caller\n        /* \"contracts/ergasia.sol\":6276:6301  voterRegistry[msg.sender] */\n      0xffffffffffffffffffffffffffffffffffffffff\n      and\n      0xffffffffffffffffffffffffffffffffffffffff\n      and\n      dup2\n      mstore\n      0x20\n      add\n      swap1\n      dup2\n      mstore\n      0x20\n      add\n      0x00\n      keccak256\n        /* \"contracts/ergasia.sol\":6276:6312  voterRegistry[msg.sender].isEnrolled */\n      0x00\n      add\n      0x00\n      swap1\n      sload\n      swap1\n      0x0100\n      exp\n      swap1\n      div\n      0xff\n      and\n        /* \"contracts/ergasia.sol\":6276:6351  voterRegistry[msg.sender].isEnrolled && !voterRegistry[msg.sender].hasVoted */\n      dup1\n      iszero\n      tag_89\n      jumpi\n      pop\n        /* \"contracts/ergasia.sol\":6317:6330  voterRegistry */\n      0x08\n        /* \"contracts/ergasia.sol\":6317:6342  voterRegistry[msg.sender] */\n      0x00\n        /* \"contracts/ergasia.sol\":6331:6341  msg.sender */\n      caller\n        /* \"contracts/ergasia.sol\":6317:6342  voterRegistry[msg.sender] */\n      0xffffffffffffffffffffffffffffffffffffffff\n      and\n      0xffffffffffffffffffffffffffffffffffffffff\n      and\n      dup2\n      mstore\n      0x20\n      add\n      swap1\n      dup2\n      mstore\n      0x20\n      add\n      0x00\n      keccak256\n        /* \"contracts/ergasia.sol\":6317:6351  voterRegistry[msg.sender].hasVoted */\n      0x00\n      add\n      0x01\n      swap1\n      sload\n      swap1\n      0x0100\n      exp\n      swap1\n      div\n      0xff\n      and\n        /* \"contracts/ergasia.sol\":6316:6351  !voterRegistry[msg.sender].hasVoted */\n      iszero\n        /* \"contracts/ergasia.sol\":6276:6351  voterRegistry[msg.sender].isEnrolled && !voterRegistry[msg.sender].hasVoted */\n    tag_89:\n        /* \"contracts/ergasia.sol\":6272:6882  if (voterRegistry[msg.sender].isEnrolled && !voterRegistry[msg.sender].hasVoted) {... */\n      iszero\n      tag_90\n      jumpi\n        /* \"contracts/ergasia.sol\":6403:6410  _choice */\n      dup5\n        /* \"contracts/ergasia.sol\":6368:6381  voterRegistry */\n      0x08\n        /* \"contracts/ergasia.sol\":6368:6393  voterRegistry[msg.sender] */\n      0x00\n        /* \"contracts/ergasia.sol\":6382:6392  msg.sender */\n      caller\n        /* \"contracts/ergasia.sol\":6368:6393  voterRegistry[msg.sender] */\n      0xffffffffffffffffffffffffffffffffffffffff\n      and\n      0xffffffffffffffffffffffffffffffffffffffff\n      and\n      dup2\n      mstore\n      0x20\n      add\n      swap1\n      dup2\n      mstore\n      0x20\n      add\n      0x00\n      keccak256\n        /* \"contracts/ergasia.sol\":6368:6400  voterRegistry[msg.sender].choice */\n      0x01\n      add\n        /* \"contracts/ergasia.sol\":6368:6410  voterRegistry[msg.sender].choice = _choice */\n      dup2\n      swap1\n      sstore\n      pop\n        /* \"contracts/ergasia.sol\":6474:6491  _pollingStationID */\n      dup4\n        /* \"contracts/ergasia.sol\":6424:6437  voterRegistry */\n      0x08\n        /* \"contracts/ergasia.sol\":6424:6449  voterRegistry[msg.sender] */\n      0x00\n        /* \"contracts/ergasia.sol\":6438:6448  msg.sender */\n      caller\n        /* \"contracts/ergasia.sol\":6424:6449  voterRegistry[msg.sender] */\n      0xffffffffffffffffffffffffffffffffffffffff\n      and\n      0xffffffffffffffffffffffffffffffffffffffff\n      and\n      dup2\n      mstore\n      0x20\n      add\n      swap1\n      dup2\n      mstore\n      0x20\n      add\n      0x00\n      keccak256\n        /* \"contracts/ergasia.sol\":6424:6471  voterRegistry[msg.sender].votedPollingStationID */\n      0x03\n      add\n        /* \"contracts/ergasia.sol\":6424:6491  voterRegistry[msg.sender].votedPollingStationID = _pollingStationID */\n      dup2\n      swap1\n      sstore\n      pop\n        /* \"contracts/ergasia.sol\":6542:6546  true */\n      0x01\n        /* \"contracts/ergasia.sol\":6505:6518  voterRegistry */\n      0x08\n        /* \"contracts/ergasia.sol\":6505:6530  voterRegistry[msg.sender] */\n      0x00\n        /* \"contracts/ergasia.sol\":6519:6529  msg.sender */\n      caller\n        /* \"contracts/ergasia.sol\":6505:6530  voterRegistry[msg.sender] */\n      0xffffffffffffffffffffffffffffffffffffffff\n      and\n      0xffffffffffffffffffffffffffffffffffffffff\n      and\n      dup2\n      mstore\n      0x20\n      add\n      swap1\n      dup2\n      mstore\n      0x20\n      add\n      0x00\n      keccak256\n        /* \"contracts/ergasia.sol\":6505:6539  voterRegistry[msg.sender].hasVoted */\n      0x00\n      add\n      0x01\n        /* \"contracts/ergasia.sol\":6505:6546  voterRegistry[msg.sender].hasVoted = true */\n      0x0100\n      exp\n      dup2\n      sload\n      dup2\n      0xff\n      mul\n      not\n      and\n      swap1\n      dup4\n      iszero\n      iszero\n      mul\n      or\n      swap1\n      sstore\n      pop\n        /* \"contracts/ergasia.sol\":6561:6576  pollingStations */\n      0x07\n        /* \"contracts/ergasia.sol\":6561:6595  pollingStations[_pollingStationID] */\n      0x00\n        /* \"contracts/ergasia.sol\":6577:6594  _pollingStationID */\n      dup6\n        /* \"contracts/ergasia.sol\":6561:6595  pollingStations[_pollingStationID] */\n      dup2\n      mstore\n      0x20\n      add\n      swap1\n      dup2\n      mstore\n      0x20\n      add\n      0x00\n      keccak256\n        /* \"contracts/ergasia.sol\":6561:6607  pollingStations[_pollingStationID].votesCasted */\n      0x03\n      add\n      0x00\n        /* \"contracts/ergasia.sol\":6561:6609  pollingStations[_pollingStationID].votesCasted++ */\n      dup2\n      sload\n      dup1\n      swap3\n      swap2\n      swap1\n      tag_91\n      swap1\n      tag_92\n      jump\t// in\n    tag_91:\n      swap2\n      swap1\n      pop\n      sstore\n      pop\n        /* \"contracts/ergasia.sol\":6624:6634  candidates */\n      0x06\n        /* \"contracts/ergasia.sol\":6624:6643  candidates[_choice] */\n      0x00\n        /* \"contracts/ergasia.sol\":6635:6642  _choice */\n      dup7\n        /* \"contracts/ergasia.sol\":6624:6643  candidates[_choice] */\n      dup2\n      mstore\n      0x20\n      add\n      swap1\n      dup2\n      mstore\n      0x20\n      add\n      0x00\n      keccak256\n        /* \"contracts/ergasia.sol\":6624:6649  candidates[_choice].votes */\n      0x02\n      add\n      0x00\n        /* \"contracts/ergasia.sol\":6624:6651  candidates[_choice].votes++ */\n      dup2\n      sload\n      dup1\n      swap3\n      swap2\n      swap1\n      tag_93\n      swap1\n      tag_92\n      jump\t// in\n    tag_93:\n      swap2\n      swap1\n      pop\n      sstore\n      pop\n        /* \"contracts/ergasia.sol\":6666:6677  countResult */\n      0x04\n      0x00\n        /* \"contracts/ergasia.sol\":6666:6679  countResult++ */\n      dup2\n      sload\n      dup1\n      swap3\n      swap2\n      swap1\n      tag_94\n      swap1\n      tag_92\n      jump\t// in\n    tag_94:\n      swap2\n      swap1\n      pop\n      sstore\n      pop\n        /* \"contracts/ergasia.sol\":6701:6705  true */\n      0x01\n        /* \"contracts/ergasia.sol\":6693:6705  found = true */\n      swap1\n      pop\n        /* \"contracts/ergasia.sol\":6740:6745  found */\n      dup1\n        /* \"contracts/ergasia.sol\":6719:6725  voters */\n      0x09\n        /* \"contracts/ergasia.sol\":6719:6737  voters[msg.sender] */\n      0x00\n        /* \"contracts/ergasia.sol\":6726:6736  msg.sender */\n      caller\n        /* \"contracts/ergasia.sol\":6719:6737  voters[msg.sender] */\n      0xffffffffffffffffffffffffffffffffffffffff\n      and\n      0xffffffffffffffffffffffffffffffffffffffff\n      and\n      dup2\n      mstore\n      0x20\n      add\n      swap1\n      dup2\n      mstore\n      0x20\n      add\n      0x00\n      keccak256\n      0x00\n        /* \"contracts/ergasia.sol\":6719:6745  voters[msg.sender] = found */\n      0x0100\n      exp\n      dup2\n      sload\n      dup2\n      0xff\n      mul\n      not\n      and\n      swap1\n      dup4\n      iszero\n      iszero\n      mul\n      or\n      swap1\n      sstore\n      pop\n        /* \"contracts/ergasia.sol\":6760:6767  results */\n      0x0a\n        /* \"contracts/ergasia.sol\":6760:6786  results[_pollingStationID] */\n      0x00\n        /* \"contracts/ergasia.sol\":6768:6785  _pollingStationID */\n      dup6\n        /* \"contracts/ergasia.sol\":6760:6786  results[_pollingStationID] */\n      dup2\n      mstore\n      0x20\n      add\n      swap1\n      dup2\n      mstore\n      0x20\n      add\n      0x00\n      keccak256\n        /* \"contracts/ergasia.sol\":6760:6795  results[_pollingStationID][_choice] */\n      0x00\n        /* \"contracts/ergasia.sol\":6787:6794  _choice */\n      dup7\n        /* \"contracts/ergasia.sol\":6760:6795  results[_pollingStationID][_choice] */\n      dup2\n      mstore\n      0x20\n      add\n      swap1\n      dup2\n      mstore\n      0x20\n      add\n      0x00\n      keccak256\n        /* \"contracts/ergasia.sol\":6760:6801  results[_pollingStationID][_choice].votes */\n      0x02\n      add\n      0x00\n        /* \"contracts/ergasia.sol\":6760:6803  results[_pollingStationID][_choice].votes++ */\n      dup2\n      sload\n      dup1\n      swap3\n      swap2\n      swap1\n      tag_95\n      swap1\n      tag_92\n      jump\t// in\n    tag_95:\n      swap2\n      swap1\n      pop\n      sstore\n      pop\n        /* \"contracts/ergasia.sol\":6272:6882  if (voterRegistry[msg.sender].isEnrolled && !voterRegistry[msg.sender].hasVoted) {... */\n    tag_90:\n        /* \"contracts/ergasia.sol\":6898:6903  found */\n      dup1\n        /* \"contracts/ergasia.sol\":6891:6903  return found */\n      swap3\n      pop\n      pop\n        /* \"contracts/ergasia.sol\":6126:6910  function castVote(uint _choice, uint _pollingStationID) public inState(State.Voting) returns (bool voted) {... */\n      pop\n      swap3\n      swap2\n      pop\n      pop\n      jump\t// out\n        /* \"contracts/ergasia.sol\":1221:1248  uint public candidatesCount */\n    tag_32:\n      sload(0x01)\n      dup2\n      jump\t// out\n        /* \"contracts/ergasia.sol\":1566:1610  mapping(uint => Candidate) public candidates */\n    tag_37:\n      mstore(0x20, 0x06)\n      dup1\n      0x00\n      mstore\n      keccak256(0x00, 0x40)\n      0x00\n      swap2\n      pop\n      swap1\n      pop\n      dup1\n      0x00\n      add\n      sload\n      swap1\n      dup1\n      0x01\n      add\n      dup1\n      sload\n      tag_96\n      swap1\n      tag_97\n      jump\t// in\n    tag_96:\n      dup1\n      0x1f\n      add\n      0x20\n      dup1\n      swap2\n      div\n      mul\n      0x20\n      add\n      mload(0x40)\n      swap1\n      dup2\n      add\n      0x40\n      mstore\n      dup1\n      swap3\n      swap2\n      swap1\n      dup2\n      dup2\n      mstore\n      0x20\n      add\n      dup3\n      dup1\n      sload\n      tag_98\n      swap1\n      tag_97\n      jump\t// in\n    tag_98:\n      dup1\n      iszero\n      tag_99\n      jumpi\n      dup1\n      0x1f\n      lt\n      tag_100\n      jumpi\n      0x0100\n      dup1\n      dup4\n      sload\n      div\n      mul\n      dup4\n      mstore\n      swap2\n      0x20\n      add\n      swap2\n      jump(tag_99)\n    tag_100:\n      dup3\n      add\n      swap2\n      swap1\n      0x00\n      mstore\n      keccak256(0x00, 0x20)\n      swap1\n    tag_101:\n      dup2\n      sload\n      dup2\n      mstore\n      swap1\n      0x01\n      add\n      swap1\n      0x20\n      add\n      dup1\n      dup4\n      gt\n      tag_101\n      jumpi\n      dup3\n      swap1\n      sub\n      0x1f\n      and\n      dup3\n      add\n      swap2\n    tag_99:\n      pop\n      pop\n      pop\n      pop\n      pop\n      swap1\n      dup1\n      0x02\n      add\n      sload\n      swap1\n      pop\n      dup4\n      jump\t// out\n        /* \"contracts/ergasia.sol\":1724:1770  mapping(address => Voter) public voterRegistry */\n    tag_43:\n      mstore(0x20, 0x08)\n      dup1\n      0x00\n      mstore\n      keccak256(0x00, 0x40)\n      0x00\n      swap2\n      pop\n      swap1\n      pop\n      dup1\n      0x00\n      add\n      0x00\n      swap1\n      sload\n      swap1\n      0x0100\n      exp\n      swap1\n      div\n      0xff\n      and\n      swap1\n      dup1\n      0x00\n      add\n      0x01\n      swap1\n      sload\n      swap1\n      0x0100\n      exp\n      swap1\n      div\n      0xff\n      and\n      swap1\n      dup1\n      0x01\n      add\n      sload\n      swap1\n      dup1\n      0x02\n      add\n      sload\n      swap1\n      dup1\n      0x03\n      add\n      sload\n      swap1\n      pop\n      dup6\n      jump\t// out\n        /* \"contracts/ergasia.sol\":6026:6120  function startVote() public inState(State.Created) Owner {... */\n    tag_47:\n        /* \"contracts/ergasia.sol\":6062:6075  State.Created */\n      0x00\n        /* \"contracts/ergasia.sol\":2101:2107  _state */\n      dup1\n        /* \"contracts/ergasia.sol\":2092:2107  state == _state */\n      0x02\n      dup2\n      gt\n      iszero\n      tag_103\n      jumpi\n      tag_104\n      tag_84\n      jump\t// in\n    tag_104:\n    tag_103:\n        /* \"contracts/ergasia.sol\":2092:2097  state */\n      0x0b\n      0x00\n      swap1\n      sload\n      swap1\n      0x0100\n      exp\n      swap1\n      div\n      0xff\n      and\n        /* \"contracts/ergasia.sol\":2092:2107  state == _state */\n      0x02\n      dup2\n      gt\n      iszero\n      tag_105\n      jumpi\n      tag_106\n      tag_84\n      jump\t// in\n    tag_106:\n    tag_105:\n      eq\n        /* \"contracts/ergasia.sol\":2084:2108  require(state == _state) */\n      tag_107\n      jumpi\n      0x00\n      dup1\n      revert\n    tag_107:\n        /* \"contracts/ergasia.sol\":2005:2018  electionOwner */\n      0x00\n      dup1\n      sload\n      swap1\n      0x0100\n      exp\n      swap1\n      div\n      0xffffffffffffffffffffffffffffffffffffffff\n      and\n        /* \"contracts/ergasia.sol\":1991:2018  msg.sender == electionOwner */\n      0xffffffffffffffffffffffffffffffffffffffff\n      and\n        /* \"contracts/ergasia.sol\":1991:2001  msg.sender */\n      caller\n        /* \"contracts/ergasia.sol\":1991:2018  msg.sender == electionOwner */\n      0xffffffffffffffffffffffffffffffffffffffff\n      and\n      eq\n        /* \"contracts/ergasia.sol\":1983:2019  require(msg.sender == electionOwner) */\n      tag_109\n      jumpi\n      0x00\n      dup1\n      revert\n    tag_109:\n        /* \"contracts/ergasia.sol\":6101:6113  State.Voting */\n      0x01\n        /* \"contracts/ergasia.sol\":6093:6098  state */\n      0x0b\n      0x00\n        /* \"contracts/ergasia.sol\":6093:6113  state = State.Voting */\n      0x0100\n      exp\n      dup2\n      sload\n      dup2\n      0xff\n      mul\n      not\n      and\n      swap1\n      dup4\n      0x02\n      dup2\n      gt\n      iszero\n      tag_111\n      jumpi\n      tag_112\n      tag_84\n      jump\t// in\n    tag_112:\n    tag_111:\n      mul\n      or\n      swap1\n      sstore\n      pop\n        /* \"contracts/ergasia.sol\":6026:6120  function startVote() public inState(State.Created) Owner {... */\n      pop\n      jump\t// out\n        /* \"contracts/ergasia.sol\":1187:1215  address public electionOwner */\n    tag_49:\n      0x00\n      dup1\n      sload\n      swap1\n      0x0100\n      exp\n      swap1\n      div\n      0xffffffffffffffffffffffffffffffffffffffff\n      and\n      dup2\n      jump\t// out\n        /* \"contracts/ergasia.sol\":1776:1814  mapping(address => bool) public voters */\n    tag_54:\n      mstore(0x20, 0x09)\n      dup1\n      0x00\n      mstore\n      keccak256(0x00, 0x40)\n      0x00\n      swap2\n      pop\n      sload\n      swap1\n      0x0100\n      exp\n      swap1\n      div\n      0xff\n      and\n      dup2\n      jump\t// out\n        /* \"contracts/ergasia.sol\":6916:7042  function endVote() public inState(State.Voting) Owner { ... */\n    tag_57:\n        /* \"contracts/ergasia.sol\":6950:6962  State.Voting */\n      0x01\n        /* \"contracts/ergasia.sol\":2101:2107  _state */\n      dup1\n        /* \"contracts/ergasia.sol\":2092:2107  state == _state */\n      0x02\n      dup2\n      gt\n      iszero\n      tag_114\n      jumpi\n      tag_115\n      tag_84\n      jump\t// in\n    tag_115:\n    tag_114:\n        /* \"contracts/ergasia.sol\":2092:2097  state */\n      0x0b\n      0x00\n      swap1\n      sload\n      swap1\n      0x0100\n      exp\n      swap1\n      div\n      0xff\n      and\n        /* \"contracts/ergasia.sol\":2092:2107  state == _state */\n      0x02\n      dup2\n      gt\n      iszero\n      tag_116\n      jumpi\n      tag_117\n      tag_84\n      jump\t// in\n    tag_117:\n    tag_116:\n      eq\n        /* \"contracts/ergasia.sol\":2084:2108  require(state == _state) */\n      tag_118\n      jumpi\n      0x00\n      dup1\n      revert\n    tag_118:\n        /* \"contracts/ergasia.sol\":2005:2018  electionOwner */\n      0x00\n      dup1\n      sload\n      swap1\n      0x0100\n      exp\n      swap1\n      div\n      0xffffffffffffffffffffffffffffffffffffffff\n      and\n        /* \"contracts/ergasia.sol\":1991:2018  msg.sender == electionOwner */\n      0xffffffffffffffffffffffffffffffffffffffff\n      and\n        /* \"contracts/ergasia.sol\":1991:2001  msg.sender */\n      caller\n        /* \"contracts/ergasia.sol\":1991:2018  msg.sender == electionOwner */\n      0xffffffffffffffffffffffffffffffffffffffff\n      and\n      eq\n        /* \"contracts/ergasia.sol\":1983:2019  require(msg.sender == electionOwner) */\n      tag_120\n      jumpi\n      0x00\n      dup1\n      revert\n    tag_120:\n        /* \"contracts/ergasia.sol\":6989:7000  State.Ended */\n      0x02\n        /* \"contracts/ergasia.sol\":6981:6986  state */\n      0x0b\n      0x00\n        /* \"contracts/ergasia.sol\":6981:7000  state = State.Ended */\n      0x0100\n      exp\n      dup2\n      sload\n      dup2\n      0xff\n      mul\n      not\n      and\n      swap1\n      dup4\n      0x02\n      dup2\n      gt\n      iszero\n      tag_122\n      jumpi\n      tag_123\n      tag_84\n      jump\t// in\n    tag_123:\n    tag_122:\n      mul\n      or\n      swap1\n      sstore\n      pop\n        /* \"contracts/ergasia.sol\":7024:7035  countResult */\n      sload(0x04)\n        /* \"contracts/ergasia.sol\":7010:7021  finalResult */\n      0x05\n        /* \"contracts/ergasia.sol\":7010:7035  finalResult = countResult */\n      dup2\n      swap1\n      sstore\n      pop\n        /* \"contracts/ergasia.sol\":6916:7042  function endVote() public inState(State.Voting) Owner { ... */\n      pop\n      jump\t// out\n        /* \"contracts/ergasia.sol\":4572:5492  function addVoter(address _voterAddress, uint _pollingStationID) public inState(State.Created) Owner {... */\n    tag_61:\n        /* \"contracts/ergasia.sol\":4652:4665  State.Created */\n      0x00\n        /* \"contracts/ergasia.sol\":2101:2107  _state */\n      dup1\n        /* \"contracts/ergasia.sol\":2092:2107  state == _state */\n      0x02\n      dup2\n      gt\n      iszero\n      tag_125\n      jumpi\n      tag_126\n      tag_84\n      jump\t// in\n    tag_126:\n    tag_125:\n        /* \"contracts/ergasia.sol\":2092:2097  state */\n      0x0b\n      0x00\n      swap1\n      sload\n      swap1\n      0x0100\n      exp\n      swap1\n      div\n      0xff\n      and\n        /* \"contracts/ergasia.sol\":2092:2107  state == _state */\n      0x02\n      dup2\n      gt\n      iszero\n      tag_127\n      jumpi\n      tag_128\n      tag_84\n      jump\t// in\n    tag_128:\n    tag_127:\n      eq\n        /* \"contracts/ergasia.sol\":2084:2108  require(state == _state) */\n      tag_129\n      jumpi\n      0x00\n      dup1\n      revert\n    tag_129:\n        /* \"contracts/ergasia.sol\":2005:2018  electionOwner */\n      0x00\n      dup1\n      sload\n      swap1\n      0x0100\n      exp\n      swap1\n      div\n      0xffffffffffffffffffffffffffffffffffffffff\n      and\n        /* \"contracts/ergasia.sol\":1991:2018  msg.sender == electionOwner */\n      0xffffffffffffffffffffffffffffffffffffffff\n      and\n        /* \"contracts/ergasia.sol\":1991:2001  msg.sender */\n      caller\n        /* \"contracts/ergasia.sol\":1991:2018  msg.sender == electionOwner */\n      0xffffffffffffffffffffffffffffffffffffffff\n      and\n      eq\n        /* \"contracts/ergasia.sol\":1983:2019  require(msg.sender == electionOwner) */\n      tag_131\n      jumpi\n      0x00\n      dup1\n      revert\n    tag_131:\n        /* \"contracts/ergasia.sol\":4791:4796  false */\n      0x00\n        /* \"contracts/ergasia.sol\":4748:4796  voterRegistry[_voterAddress].isEnrolled == false */\n      iszero\n      iszero\n        /* \"contracts/ergasia.sol\":4748:4761  voterRegistry */\n      0x08\n        /* \"contracts/ergasia.sol\":4748:4776  voterRegistry[_voterAddress] */\n      0x00\n        /* \"contracts/ergasia.sol\":4762:4775  _voterAddress */\n      dup6\n        /* \"contracts/ergasia.sol\":4748:4776  voterRegistry[_voterAddress] */\n      0xffffffffffffffffffffffffffffffffffffffff\n      and\n      0xffffffffffffffffffffffffffffffffffffffff\n      and\n      dup2\n      mstore\n      0x20\n      add\n      swap1\n      dup2\n      mstore\n      0x20\n      add\n      0x00\n      keccak256\n        /* \"contracts/ergasia.sol\":4748:4787  voterRegistry[_voterAddress].isEnrolled */\n      0x00\n      add\n      0x00\n      swap1\n      sload\n      swap1\n      0x0100\n      exp\n      swap1\n      div\n      0xff\n      and\n        /* \"contracts/ergasia.sol\":4748:4796  voterRegistry[_voterAddress].isEnrolled == false */\n      iszero\n      iszero\n      eq\n        /* \"contracts/ergasia.sol\":4740:4829  require(voterRegistry[_voterAddress].isEnrolled == false, \"Voter is already registered.\") */\n      tag_133\n      jumpi\n      mload(0x40)\n      0x08c379a000000000000000000000000000000000000000000000000000000000\n      dup2\n      mstore\n      0x04\n      add\n      tag_134\n      swap1\n      tag_135\n      jump\t// in\n    tag_134:\n      mload(0x40)\n      dup1\n      swap2\n      sub\n      swap1\n      revert\n    tag_133:\n        /* \"contracts/ergasia.sol\":5068:5069  1 */\n      0x01\n        /* \"contracts/ergasia.sol\":5048:5065  _pollingStationID */\n      dup3\n        /* \"contracts/ergasia.sol\":5048:5069  _pollingStationID >=1 */\n      lt\n      iszero\n        /* \"contracts/ergasia.sol\":5048:5113  _pollingStationID >=1 && _pollingStationID <= pollingStationCount */\n      dup1\n      iszero\n      tag_136\n      jumpi\n      pop\n        /* \"contracts/ergasia.sol\":5094:5113  pollingStationCount */\n      sload(0x02)\n        /* \"contracts/ergasia.sol\":5073:5090  _pollingStationID */\n      dup3\n        /* \"contracts/ergasia.sol\":5073:5113  _pollingStationID <= pollingStationCount */\n      gt\n      iszero\n        /* \"contracts/ergasia.sol\":5048:5113  _pollingStationID >=1 && _pollingStationID <= pollingStationCount */\n    tag_136:\n        /* \"contracts/ergasia.sol\":5040:5160  require(_pollingStationID >=1 && _pollingStationID <= pollingStationCount, \"Please provide a valid polling station ID.\") */\n      tag_137\n      jumpi\n      mload(0x40)\n      0x08c379a000000000000000000000000000000000000000000000000000000000\n      dup2\n      mstore\n      0x04\n      add\n      tag_138\n      swap1\n      tag_139\n      jump\t// in\n    tag_138:\n      mload(0x40)\n      dup1\n      swap2\n      sub\n      swap1\n      revert\n    tag_137:\n        /* \"contracts/ergasia.sol\":5171:5185  Voter memory v */\n      tag_140\n      tag_141\n      jump\t// in\n    tag_140:\n        /* \"contracts/ergasia.sol\":5210:5214  true */\n      0x01\n        /* \"contracts/ergasia.sol\":5195:5196  v */\n      dup2\n        /* \"contracts/ergasia.sol\":5195:5207  v.isEnrolled */\n      0x00\n      add\n        /* \"contracts/ergasia.sol\":5195:5214  v.isEnrolled = true */\n      swap1\n      iszero\n      iszero\n      swap1\n      dup2\n      iszero\n      iszero\n      dup2\n      mstore\n      pop\n      pop\n        /* \"contracts/ergasia.sol\":5237:5242  false */\n      0x00\n        /* \"contracts/ergasia.sol\":5224:5225  v */\n      dup2\n        /* \"contracts/ergasia.sol\":5224:5234  v.hasVoted */\n      0x20\n      add\n        /* \"contracts/ergasia.sol\":5224:5242  v.hasVoted = false */\n      swap1\n      iszero\n      iszero\n      swap1\n      dup2\n      iszero\n      iszero\n      dup2\n      mstore\n      pop\n      pop\n        /* \"contracts/ergasia.sol\":5263:5264  0 */\n      0x00\n        /* \"contracts/ergasia.sol\":5252:5253  v */\n      dup2\n        /* \"contracts/ergasia.sol\":5252:5260  v.choice */\n      0x40\n      add\n        /* \"contracts/ergasia.sol\":5252:5264  v.choice = 0 */\n      dup2\n      dup2\n      mstore\n      pop\n      pop\n        /* \"contracts/ergasia.sol\":5303:5320  _pollingStationID */\n      dup3\n        /* \"contracts/ergasia.sol\":5274:5275  v */\n      dup2\n        /* \"contracts/ergasia.sol\":5274:5300  v.enrolledPollingStationID */\n      0x60\n      add\n        /* \"contracts/ergasia.sol\":5274:5320  v.enrolledPollingStationID = _pollingStationID */\n      dup2\n      dup2\n      mstore\n      pop\n      pop\n        /* \"contracts/ergasia.sol\":5356:5357  0 */\n      0x00\n        /* \"contracts/ergasia.sol\":5330:5331  v */\n      dup2\n        /* \"contracts/ergasia.sol\":5330:5353  v.votedPollingStationID */\n      0x80\n      add\n        /* \"contracts/ergasia.sol\":5330:5357  v.votedPollingStationID = 0 */\n      dup2\n      dup2\n      mstore\n      pop\n      pop\n        /* \"contracts/ergasia.sol\":5398:5399  v */\n      dup1\n        /* \"contracts/ergasia.sol\":5367:5380  voterRegistry */\n      0x08\n        /* \"contracts/ergasia.sol\":5367:5395  voterRegistry[_voterAddress] */\n      0x00\n        /* \"contracts/ergasia.sol\":5381:5394  _voterAddress */\n      dup7\n        /* \"contracts/ergasia.sol\":5367:5395  voterRegistry[_voterAddress] */\n      0xffffffffffffffffffffffffffffffffffffffff\n      and\n      0xffffffffffffffffffffffffffffffffffffffff\n      and\n      dup2\n      mstore\n      0x20\n      add\n      swap1\n      dup2\n      mstore\n      0x20\n      add\n      0x00\n      keccak256\n        /* \"contracts/ergasia.sol\":5367:5399  voterRegistry[_voterAddress] = v */\n      0x00\n      dup3\n      add\n      mload\n      dup2\n      0x00\n      add\n      exp(0x0100, 0x00)\n      dup2\n      sload\n      dup2\n      0xff\n      mul\n      not\n      and\n      swap1\n      dup4\n      iszero\n      iszero\n      mul\n      or\n      swap1\n      sstore\n      pop\n      0x20\n      dup3\n      add\n      mload\n      dup2\n      0x00\n      add\n      exp(0x0100, 0x01)\n      dup2\n      sload\n      dup2\n      0xff\n      mul\n      not\n      and\n      swap1\n      dup4\n      iszero\n      iszero\n      mul\n      or\n      swap1\n      sstore\n      pop\n      0x40\n      dup3\n      add\n      mload\n      dup2\n      0x01\n      add\n      sstore\n      0x60\n      dup3\n      add\n      mload\n      dup2\n      0x02\n      add\n      sstore\n      0x80\n      dup3\n      add\n      mload\n      dup2\n      0x03\n      add\n      sstore\n      swap1\n      pop\n      pop\n        /* \"contracts/ergasia.sol\":5409:5452  registerAtPollingStation(_pollingStationID) */\n      tag_142\n        /* \"contracts/ergasia.sol\":5434:5451  _pollingStationID */\n      dup4\n        /* \"contracts/ergasia.sol\":5409:5433  registerAtPollingStation */\n      tag_143\n        /* \"contracts/ergasia.sol\":5409:5452  registerAtPollingStation(_pollingStationID) */\n      jump\t// in\n    tag_142:\n        /* \"contracts/ergasia.sol\":5462:5483  totalRegisteredVoters */\n      0x03\n      0x00\n        /* \"contracts/ergasia.sol\":5462:5485  totalRegisteredVoters++ */\n      dup2\n      sload\n      dup1\n      swap3\n      swap2\n      swap1\n      tag_144\n      swap1\n      tag_92\n      jump\t// in\n    tag_144:\n      swap2\n      swap1\n      pop\n      sstore\n      pop\n        /* \"contracts/ergasia.sol\":4673:5492  {... */\n      pop\n        /* \"contracts/ergasia.sol\":4572:5492  function addVoter(address _voterAddress, uint _pollingStationID) public inState(State.Created) Owner {... */\n      pop\n      pop\n      pop\n      jump\t// out\n        /* \"contracts/ergasia.sol\":1931:1949  State public state */\n    tag_63:\n      0x0b\n      0x00\n      swap1\n      sload\n      swap1\n      0x0100\n      exp\n      swap1\n      div\n      0xff\n      and\n      dup2\n      jump\t// out\n        /* \"contracts/ergasia.sol\":1820:1878  mapping(uint => mapping(uint => Candidate)) public results */\n    tag_68:\n      mstore(0x20, 0x0a)\n      dup2\n      0x00\n      mstore\n      mstore(0x20, keccak256(0x00, 0x40))\n      dup1\n      0x00\n      mstore\n      keccak256(0x00, 0x40)\n      0x00\n      swap2\n      pop\n      swap2\n      pop\n      pop\n      dup1\n      0x00\n      add\n      sload\n      swap1\n      dup1\n      0x01\n      add\n      dup1\n      sload\n      tag_145\n      swap1\n      tag_97\n      jump\t// in\n    tag_145:\n      dup1\n      0x1f\n      add\n      0x20\n      dup1\n      swap2\n      div\n      mul\n      0x20\n      add\n      mload(0x40)\n      swap1\n      dup2\n      add\n      0x40\n      mstore\n      dup1\n      swap3\n      swap2\n      swap1\n      dup2\n      dup2\n      mstore\n      0x20\n      add\n      dup3\n      dup1\n      sload\n      tag_146\n      swap1\n      tag_97\n      jump\t// in\n    tag_146:\n      dup1\n      iszero\n      tag_147\n      jumpi\n      dup1\n      0x1f\n      lt\n      tag_148\n      jumpi\n      0x0100\n      dup1\n      dup4\n      sload\n      div\n      mul\n      dup4\n      mstore\n      swap2\n      0x20\n      add\n      swap2\n      jump(tag_147)\n    tag_148:\n      dup3\n      add\n      swap2\n      swap1\n      0x00\n      mstore\n      keccak256(0x00, 0x20)\n      swap1\n    tag_149:\n      dup2\n      sload\n      dup2\n      mstore\n      swap1\n      0x01\n      add\n      swap1\n      0x20\n      add\n      dup1\n      dup4\n      gt\n      tag_149\n      jumpi\n      dup3\n      swap1\n      sub\n      0x1f\n      and\n      dup3\n      add\n      swap2\n    tag_147:\n      pop\n      pop\n      pop\n      pop\n      pop\n      swap1\n      dup1\n      0x02\n      add\n      sload\n      swap1\n      pop\n      dup4\n      jump\t// out\n        /* \"contracts/ergasia.sol\":1289:1320  uint public pollingStationCount */\n    tag_71:\n      sload(0x02)\n      dup2\n      jump\t// out\n        /* \"contracts/ergasia.sol\":1484:1507  uint public finalResult */\n    tag_74:\n      sload(0x05)\n      dup2\n      jump\t// out\n        /* \"contracts/ergasia.sol\":1640:1694  mapping(uint => PollingStation) public pollingStations */\n    tag_78:\n      mstore(0x20, 0x07)\n      dup1\n      0x00\n      mstore\n      keccak256(0x00, 0x40)\n      0x00\n      swap2\n      pop\n      swap1\n      pop\n      dup1\n      0x00\n      add\n      sload\n      swap1\n      dup1\n      0x01\n      add\n      dup1\n      sload\n      tag_150\n      swap1\n      tag_97\n      jump\t// in\n    tag_150:\n      dup1\n      0x1f\n      add\n      0x20\n      dup1\n      swap2\n      div\n      mul\n      0x20\n      add\n      mload(0x40)\n      swap1\n      dup2\n      add\n      0x40\n      mstore\n      dup1\n      swap3\n      swap2\n      swap1\n      dup2\n      dup2\n      mstore\n      0x20\n      add\n      dup3\n      dup1\n      sload\n      tag_151\n      swap1\n      tag_97\n      jump\t// in\n    tag_151:\n      dup1\n      iszero\n      tag_152\n      jumpi\n      dup1\n      0x1f\n      lt\n      tag_153\n      jumpi\n      0x0100\n      dup1\n      dup4\n      sload\n      div\n      mul\n      dup4\n      mstore\n      swap2\n      0x20\n      add\n      swap2\n      jump(tag_152)\n    tag_153:\n      dup3\n      add\n      swap2\n      swap1\n      0x00\n      mstore\n      keccak256(0x00, 0x20)\n      swap1\n    tag_154:\n      dup2\n      sload\n      dup2\n      mstore\n      swap1\n      0x01\n      add\n      swap1\n      0x20\n      add\n      dup1\n      dup4\n      gt\n      tag_154\n      jumpi\n      dup3\n      swap1\n      sub\n      0x1f\n      and\n      dup3\n      add\n      swap2\n    tag_152:\n      pop\n      pop\n      pop\n      pop\n      pop\n      swap1\n      dup1\n      0x02\n      add\n      sload\n      swap1\n      dup1\n      0x03\n      add\n      sload\n      swap1\n      pop\n      dup5\n      jump\t// out\n        /* \"contracts/ergasia.sol\":5630:5912  function registerAtPollingStation(uint _stationID) internal {... */\n    tag_143:\n        /* \"contracts/ergasia.sol\":5705:5711  uint i */\n      0x00\n        /* \"contracts/ergasia.sol\":5714:5715  1 */\n      0x01\n        /* \"contracts/ergasia.sol\":5705:5715  uint i = 1 */\n      swap1\n      pop\n        /* \"contracts/ergasia.sol\":5700:5906  for (uint i = 1; i <= pollingStationCount; i++) {... */\n    tag_156:\n        /* \"contracts/ergasia.sol\":5722:5741  pollingStationCount */\n      sload(0x02)\n        /* \"contracts/ergasia.sol\":5717:5718  i */\n      dup2\n        /* \"contracts/ergasia.sol\":5717:5741  i <= pollingStationCount */\n      gt\n        /* \"contracts/ergasia.sol\":5700:5906  for (uint i = 1; i <= pollingStationCount; i++) {... */\n      tag_157\n      jumpi\n        /* \"contracts/ergasia.sol\":5791:5801  _stationID */\n      dup2\n        /* \"contracts/ergasia.sol\":5766:5781  pollingStations */\n      0x07\n        /* \"contracts/ergasia.sol\":5766:5784  pollingStations[i] */\n      0x00\n        /* \"contracts/ergasia.sol\":5782:5783  i */\n      dup4\n        /* \"contracts/ergasia.sol\":5766:5784  pollingStations[i] */\n      dup2\n      mstore\n      0x20\n      add\n      swap1\n      dup2\n      mstore\n      0x20\n      add\n      0x00\n      keccak256\n        /* \"contracts/ergasia.sol\":5766:5787  pollingStations[i].id */\n      0x00\n      add\n      sload\n        /* \"contracts/ergasia.sol\":5766:5801  pollingStations[i].id == _stationID */\n      eq\n        /* \"contracts/ergasia.sol\":5762:5896  if (pollingStations[i].id == _stationID) {... */\n      iszero\n      tag_159\n      jumpi\n        /* \"contracts/ergasia.sol\":5821:5836  pollingStations */\n      0x07\n        /* \"contracts/ergasia.sol\":5821:5839  pollingStations[i] */\n      0x00\n        /* \"contracts/ergasia.sol\":5837:5838  i */\n      dup3\n        /* \"contracts/ergasia.sol\":5821:5839  pollingStations[i] */\n      dup2\n      mstore\n      0x20\n      add\n      swap1\n      dup2\n      mstore\n      0x20\n      add\n      0x00\n      keccak256\n        /* \"contracts/ergasia.sol\":5821:5856  pollingStations[i].votersRegistered */\n      0x02\n      add\n      0x00\n        /* \"contracts/ergasia.sol\":5821:5858  pollingStations[i].votersRegistered++ */\n      dup2\n      sload\n      dup1\n      swap3\n      swap2\n      swap1\n      tag_160\n      swap1\n      tag_92\n      jump\t// in\n    tag_160:\n      swap2\n      swap1\n      pop\n      sstore\n      pop\n        /* \"contracts/ergasia.sol\":5876:5881  break */\n      jump(tag_157)\n        /* \"contracts/ergasia.sol\":5762:5896  if (pollingStations[i].id == _stationID) {... */\n    tag_159:\n        /* \"contracts/ergasia.sol\":5743:5746  i++ */\n      dup1\n      dup1\n      tag_161\n      swap1\n      tag_92\n      jump\t// in\n    tag_161:\n      swap2\n      pop\n      pop\n        /* \"contracts/ergasia.sol\":5700:5906  for (uint i = 1; i <= pollingStationCount; i++) {... */\n      jump(tag_156)\n    tag_157:\n      pop\n        /* \"contracts/ergasia.sol\":5630:5912  function registerAtPollingStation(uint _stationID) internal {... */\n      pop\n      jump\t// out\n    tag_141:\n      mload(0x40)\n      dup1\n      0xa0\n      add\n      0x40\n      mstore\n      dup1\n      iszero(iszero(0x00))\n      dup2\n      mstore\n      0x20\n      add\n      iszero(iszero(0x00))\n      dup2\n      mstore\n      0x20\n      add\n      0x00\n      dup2\n      mstore\n      0x20\n      add\n      0x00\n      dup2\n      mstore\n      0x20\n      add\n      0x00\n      dup2\n      mstore\n      pop\n      swap1\n      jump\t// out\n        /* \"#utility.yul\":7:146   */\n    tag_163:\n        /* \"#utility.yul\":53:58   */\n      0x00\n        /* \"#utility.yul\":91:97   */\n      dup2\n        /* \"#utility.yul\":78:98   */\n      calldataload\n        /* \"#utility.yul\":69:98   */\n      swap1\n      pop\n        /* \"#utility.yul\":107:140   */\n      tag_165\n        /* \"#utility.yul\":134:139   */\n      dup2\n        /* \"#utility.yul\":107:140   */\n      tag_166\n      jump\t// in\n    tag_165:\n        /* \"#utility.yul\":7:146   */\n      swap3\n      swap2\n      pop\n      pop\n      jump\t// out\n        /* \"#utility.yul\":152:291   */\n    tag_167:\n        /* \"#utility.yul\":198:203   */\n      0x00\n        /* \"#utility.yul\":236:242   */\n      dup2\n        /* \"#utility.yul\":223:243   */\n      calldataload\n        /* \"#utility.yul\":214:243   */\n      swap1\n      pop\n        /* \"#utility.yul\":252:285   */\n      tag_169\n        /* \"#utility.yul\":279:284   */\n      dup2\n        /* \"#utility.yul\":252:285   */\n      tag_170\n      jump\t// in\n    tag_169:\n        /* \"#utility.yul\":152:291   */\n      swap3\n      swap2\n      pop\n      pop\n      jump\t// out\n        /* \"#utility.yul\":297:626   */\n    tag_42:\n        /* \"#utility.yul\":356:362   */\n      0x00\n        /* \"#utility.yul\":405:407   */\n      0x20\n        /* \"#utility.yul\":393:402   */\n      dup3\n        /* \"#utility.yul\":384:391   */\n      dup5\n        /* \"#utility.yul\":380:403   */\n      sub\n        /* \"#utility.yul\":376:408   */\n      slt\n        /* \"#utility.yul\":373:492   */\n      iszero\n      tag_172\n      jumpi\n        /* \"#utility.yul\":411:490   */\n      tag_173\n      tag_174\n      jump\t// in\n    tag_173:\n        /* \"#utility.yul\":373:492   */\n    tag_172:\n        /* \"#utility.yul\":531:532   */\n      0x00\n        /* \"#utility.yul\":556:609   */\n      tag_175\n        /* \"#utility.yul\":601:608   */\n      dup5\n        /* \"#utility.yul\":592:598   */\n      dup3\n        /* \"#utility.yul\":581:590   */\n      dup6\n        /* \"#utility.yul\":577:599   */\n      add\n        /* \"#utility.yul\":556:609   */\n      tag_163\n      jump\t// in\n    tag_175:\n        /* \"#utility.yul\":546:609   */\n      swap2\n      pop\n        /* \"#utility.yul\":502:619   */\n      pop\n        /* \"#utility.yul\":297:626   */\n      swap3\n      swap2\n      pop\n      pop\n      jump\t// out\n        /* \"#utility.yul\":632:1106   */\n    tag_60:\n        /* \"#utility.yul\":700:706   */\n      0x00\n        /* \"#utility.yul\":708:714   */\n      dup1\n        /* \"#utility.yul\":757:759   */\n      0x40\n        /* \"#utility.yul\":745:754   */\n      dup4\n        /* \"#utility.yul\":736:743   */\n      dup6\n        /* \"#utility.yul\":732:755   */\n      sub\n        /* \"#utility.yul\":728:760   */\n      slt\n        /* \"#utility.yul\":725:844   */\n      iszero\n      tag_177\n      jumpi\n        /* \"#utility.yul\":763:842   */\n      tag_178\n      tag_174\n      jump\t// in\n    tag_178:\n        /* \"#utility.yul\":725:844   */\n    tag_177:\n        /* \"#utility.yul\":883:884   */\n      0x00\n        /* \"#utility.yul\":908:961   */\n      tag_179\n        /* \"#utility.yul\":953:960   */\n      dup6\n        /* \"#utility.yul\":944:950   */\n      dup3\n        /* \"#utility.yul\":933:942   */\n      dup7\n        /* \"#utility.yul\":929:951   */\n      add\n        /* \"#utility.yul\":908:961   */\n      tag_163\n      jump\t// in\n    tag_179:\n        /* \"#utility.yul\":898:961   */\n      swap3\n      pop\n        /* \"#utility.yul\":854:971   */\n      pop\n        /* \"#utility.yul\":1010:1012   */\n      0x20\n        /* \"#utility.yul\":1036:1089   */\n      tag_180\n        /* \"#utility.yul\":1081:1088   */\n      dup6\n        /* \"#utility.yul\":1072:1078   */\n      dup3\n        /* \"#utility.yul\":1061:1070   */\n      dup7\n        /* \"#utility.yul\":1057:1079   */\n      add\n        /* \"#utility.yul\":1036:1089   */\n      tag_167\n      jump\t// in\n    tag_180:\n        /* \"#utility.yul\":1026:1089   */\n      swap2\n      pop\n        /* \"#utility.yul\":981:1099   */\n      pop\n        /* \"#utility.yul\":632:1106   */\n      swap3\n      pop\n      swap3\n      swap1\n      pop\n      jump\t// out\n        /* \"#utility.yul\":1112:1441   */\n    tag_36:\n        /* \"#utility.yul\":1171:1177   */\n      0x00\n        /* \"#utility.yul\":1220:1222   */\n      0x20\n        /* \"#utility.yul\":1208:1217   */\n      dup3\n        /* \"#utility.yul\":1199:1206   */\n      dup5\n        /* \"#utility.yul\":1195:1218   */\n      sub\n        /* \"#utility.yul\":1191:1223   */\n      slt\n        /* \"#utility.yul\":1188:1307   */\n      iszero\n      tag_182\n      jumpi\n        /* \"#utility.yul\":1226:1305   */\n      tag_183\n      tag_174\n      jump\t// in\n    tag_183:\n        /* \"#utility.yul\":1188:1307   */\n    tag_182:\n        /* \"#utility.yul\":1346:1347   */\n      0x00\n        /* \"#utility.yul\":1371:1424   */\n      tag_184\n        /* \"#utility.yul\":1416:1423   */\n      dup5\n        /* \"#utility.yul\":1407:1413   */\n      dup3\n        /* \"#utility.yul\":1396:1405   */\n      dup6\n        /* \"#utility.yul\":1392:1414   */\n      add\n        /* \"#utility.yul\":1371:1424   */\n      tag_167\n      jump\t// in\n    tag_184:\n        /* \"#utility.yul\":1361:1424   */\n      swap2\n      pop\n        /* \"#utility.yul\":1317:1434   */\n      pop\n        /* \"#utility.yul\":1112:1441   */\n      swap3\n      swap2\n      pop\n      pop\n      jump\t// out\n        /* \"#utility.yul\":1447:1921   */\n    tag_27:\n        /* \"#utility.yul\":1515:1521   */\n      0x00\n        /* \"#utility.yul\":1523:1529   */\n      dup1\n        /* \"#utility.yul\":1572:1574   */\n      0x40\n        /* \"#utility.yul\":1560:1569   */\n      dup4\n        /* \"#utility.yul\":1551:1558   */\n      dup6\n        /* \"#utility.yul\":1547:1570   */\n      sub\n        /* \"#utility.yul\":1543:1575   */\n      slt\n        /* \"#utility.yul\":1540:1659   */\n      iszero\n      tag_186\n      jumpi\n        /* \"#utility.yul\":1578:1657   */\n      tag_187\n      tag_174\n      jump\t// in\n    tag_187:\n        /* \"#utility.yul\":1540:1659   */\n    tag_186:\n        /* \"#utility.yul\":1698:1699   */\n      0x00\n        /* \"#utility.yul\":1723:1776   */\n      tag_188\n        /* \"#utility.yul\":1768:1775   */\n      dup6\n        /* \"#utility.yul\":1759:1765   */\n      dup3\n        /* \"#utility.yul\":1748:1757   */\n      dup7\n        /* \"#utility.yul\":1744:1766   */\n      add\n        /* \"#utility.yul\":1723:1776   */\n      tag_167\n      jump\t// in\n    tag_188:\n        /* \"#utility.yul\":1713:1776   */\n      swap3\n      pop\n        /* \"#utility.yul\":1669:1786   */\n      pop\n        /* \"#utility.yul\":1825:1827   */\n      0x20\n        /* \"#utility.yul\":1851:1904   */\n      tag_189\n        /* \"#utility.yul\":1896:1903   */\n      dup6\n        /* \"#utility.yul\":1887:1893   */\n      dup3\n        /* \"#utility.yul\":1876:1885   */\n      dup7\n        /* \"#utility.yul\":1872:1894   */\n      add\n        /* \"#utility.yul\":1851:1904   */\n      tag_167\n      jump\t// in\n    tag_189:\n        /* \"#utility.yul\":1841:1904   */\n      swap2\n      pop\n        /* \"#utility.yul\":1796:1914   */\n      pop\n        /* \"#utility.yul\":1447:1921   */\n      swap3\n      pop\n      swap3\n      swap1\n      pop\n      jump\t// out\n        /* \"#utility.yul\":1927:2045   */\n    tag_190:\n        /* \"#utility.yul\":2014:2038   */\n      tag_192\n        /* \"#utility.yul\":2032:2037   */\n      dup2\n        /* \"#utility.yul\":2014:2038   */\n      tag_193\n      jump\t// in\n    tag_192:\n        /* \"#utility.yul\":2009:2012   */\n      dup3\n        /* \"#utility.yul\":2002:2039   */\n      mstore\n        /* \"#utility.yul\":1927:2045   */\n      pop\n      pop\n      jump\t// out\n        /* \"#utility.yul\":2051:2160   */\n    tag_194:\n        /* \"#utility.yul\":2132:2153   */\n      tag_196\n        /* \"#utility.yul\":2147:2152   */\n      dup2\n        /* \"#utility.yul\":2132:2153   */\n      tag_197\n      jump\t// in\n    tag_196:\n        /* \"#utility.yul\":2127:2130   */\n      dup3\n        /* \"#utility.yul\":2120:2154   */\n      mstore\n        /* \"#utility.yul\":2051:2160   */\n      pop\n      pop\n      jump\t// out\n        /* \"#utility.yul\":2166:2309   */\n    tag_198:\n        /* \"#utility.yul\":2259:2302   */\n      tag_200\n        /* \"#utility.yul\":2296:2301   */\n      dup2\n        /* \"#utility.yul\":2259:2302   */\n      tag_201\n      jump\t// in\n    tag_200:\n        /* \"#utility.yul\":2254:2257   */\n      dup3\n        /* \"#utility.yul\":2247:2303   */\n      mstore\n        /* \"#utility.yul\":2166:2309   */\n      pop\n      pop\n      jump\t// out\n        /* \"#utility.yul\":2315:2679   */\n    tag_202:\n        /* \"#utility.yul\":2403:2406   */\n      0x00\n        /* \"#utility.yul\":2431:2470   */\n      tag_204\n        /* \"#utility.yul\":2464:2469   */\n      dup3\n        /* \"#utility.yul\":2431:2470   */\n      tag_205\n      jump\t// in\n    tag_204:\n        /* \"#utility.yul\":2486:2557   */\n      tag_206\n        /* \"#utility.yul\":2550:2556   */\n      dup2\n        /* \"#utility.yul\":2545:2548   */\n      dup6\n        /* \"#utility.yul\":2486:2557   */\n      tag_207\n      jump\t// in\n    tag_206:\n        /* \"#utility.yul\":2479:2557   */\n      swap4\n      pop\n        /* \"#utility.yul\":2566:2618   */\n      tag_208\n        /* \"#utility.yul\":2611:2617   */\n      dup2\n        /* \"#utility.yul\":2606:2609   */\n      dup6\n        /* \"#utility.yul\":2599:2603   */\n      0x20\n        /* \"#utility.yul\":2592:2597   */\n      dup7\n        /* \"#utility.yul\":2588:2604   */\n      add\n        /* \"#utility.yul\":2566:2618   */\n      tag_209\n      jump\t// in\n    tag_208:\n        /* \"#utility.yul\":2643:2672   */\n      tag_210\n        /* \"#utility.yul\":2665:2671   */\n      dup2\n        /* \"#utility.yul\":2643:2672   */\n      tag_211\n      jump\t// in\n    tag_210:\n        /* \"#utility.yul\":2638:2641   */\n      dup5\n        /* \"#utility.yul\":2634:2673   */\n      add\n        /* \"#utility.yul\":2627:2673   */\n      swap2\n      pop\n        /* \"#utility.yul\":2407:2679   */\n      pop\n        /* \"#utility.yul\":2315:2679   */\n      swap3\n      swap2\n      pop\n      pop\n      jump\t// out\n        /* \"#utility.yul\":2685:3051   */\n    tag_212:\n        /* \"#utility.yul\":2827:2830   */\n      0x00\n        /* \"#utility.yul\":2848:2915   */\n      tag_214\n        /* \"#utility.yul\":2912:2914   */\n      0x2a\n        /* \"#utility.yul\":2907:2910   */\n      dup4\n        /* \"#utility.yul\":2848:2915   */\n      tag_207\n      jump\t// in\n    tag_214:\n        /* \"#utility.yul\":2841:2915   */\n      swap2\n      pop\n        /* \"#utility.yul\":2924:3017   */\n      tag_215\n        /* \"#utility.yul\":3013:3016   */\n      dup3\n        /* \"#utility.yul\":2924:3017   */\n      tag_216\n      jump\t// in\n    tag_215:\n        /* \"#utility.yul\":3042:3044   */\n      0x40\n        /* \"#utility.yul\":3037:3040   */\n      dup3\n        /* \"#utility.yul\":3033:3045   */\n      add\n        /* \"#utility.yul\":3026:3045   */\n      swap1\n      pop\n        /* \"#utility.yul\":2685:3051   */\n      swap2\n      swap1\n      pop\n      jump\t// out\n        /* \"#utility.yul\":3057:3423   */\n    tag_217:\n        /* \"#utility.yul\":3199:3202   */\n      0x00\n        /* \"#utility.yul\":3220:3287   */\n      tag_219\n        /* \"#utility.yul\":3284:3286   */\n      0x1c\n        /* \"#utility.yul\":3279:3282   */\n      dup4\n        /* \"#utility.yul\":3220:3287   */\n      tag_207\n      jump\t// in\n    tag_219:\n        /* \"#utility.yul\":3213:3287   */\n      swap2\n      pop\n        /* \"#utility.yul\":3296:3389   */\n      tag_220\n        /* \"#utility.yul\":3385:3388   */\n      dup3\n        /* \"#utility.yul\":3296:3389   */\n      tag_221\n      jump\t// in\n    tag_220:\n        /* \"#utility.yul\":3414:3416   */\n      0x20\n        /* \"#utility.yul\":3409:3412   */\n      dup3\n        /* \"#utility.yul\":3405:3417   */\n      add\n        /* \"#utility.yul\":3398:3417   */\n      swap1\n      pop\n        /* \"#utility.yul\":3057:3423   */\n      swap2\n      swap1\n      pop\n      jump\t// out\n        /* \"#utility.yul\":3429:3547   */\n    tag_222:\n        /* \"#utility.yul\":3516:3540   */\n      tag_224\n        /* \"#utility.yul\":3534:3539   */\n      dup2\n        /* \"#utility.yul\":3516:3540   */\n      tag_225\n      jump\t// in\n    tag_224:\n        /* \"#utility.yul\":3511:3514   */\n      dup3\n        /* \"#utility.yul\":3504:3541   */\n      mstore\n        /* \"#utility.yul\":3429:3547   */\n      pop\n      pop\n      jump\t// out\n        /* \"#utility.yul\":3553:3775   */\n    tag_51:\n        /* \"#utility.yul\":3646:3650   */\n      0x00\n        /* \"#utility.yul\":3684:3686   */\n      0x20\n        /* \"#utility.yul\":3673:3682   */\n      dup3\n        /* \"#utility.yul\":3669:3687   */\n      add\n        /* \"#utility.yul\":3661:3687   */\n      swap1\n      pop\n        /* \"#utility.yul\":3697:3768   */\n      tag_227\n        /* \"#utility.yul\":3765:3766   */\n      0x00\n        /* \"#utility.yul\":3754:3763   */\n      dup4\n        /* \"#utility.yul\":3750:3767   */\n      add\n        /* \"#utility.yul\":3741:3747   */\n      dup5\n        /* \"#utility.yul\":3697:3768   */\n      tag_190\n      jump\t// in\n    tag_227:\n        /* \"#utility.yul\":3553:3775   */\n      swap3\n      swap2\n      pop\n      pop\n      jump\t// out\n        /* \"#utility.yul\":3781:3991   */\n    tag_30:\n        /* \"#utility.yul\":3868:3872   */\n      0x00\n        /* \"#utility.yul\":3906:3908   */\n      0x20\n        /* \"#utility.yul\":3895:3904   */\n      dup3\n        /* \"#utility.yul\":3891:3909   */\n      add\n        /* \"#utility.yul\":3883:3909   */\n      swap1\n      pop\n        /* \"#utility.yul\":3919:3984   */\n      tag_229\n        /* \"#utility.yul\":3981:3982   */\n      0x00\n        /* \"#utility.yul\":3970:3979   */\n      dup4\n        /* \"#utility.yul\":3966:3983   */\n      add\n        /* \"#utility.yul\":3957:3963   */\n      dup5\n        /* \"#utility.yul\":3919:3984   */\n      tag_194\n      jump\t// in\n    tag_229:\n        /* \"#utility.yul\":3781:3991   */\n      swap3\n      swap2\n      pop\n      pop\n      jump\t// out\n        /* \"#utility.yul\":3997:4637   */\n    tag_45:\n        /* \"#utility.yul\":4190:4194   */\n      0x00\n        /* \"#utility.yul\":4228:4231   */\n      0xa0\n        /* \"#utility.yul\":4217:4226   */\n      dup3\n        /* \"#utility.yul\":4213:4232   */\n      add\n        /* \"#utility.yul\":4205:4232   */\n      swap1\n      pop\n        /* \"#utility.yul\":4242:4307   */\n      tag_231\n        /* \"#utility.yul\":4304:4305   */\n      0x00\n        /* \"#utility.yul\":4293:4302   */\n      dup4\n        /* \"#utility.yul\":4289:4306   */\n      add\n        /* \"#utility.yul\":4280:4286   */\n      dup9\n        /* \"#utility.yul\":4242:4307   */\n      tag_194\n      jump\t// in\n    tag_231:\n        /* \"#utility.yul\":4317:4383   */\n      tag_232\n        /* \"#utility.yul\":4379:4381   */\n      0x20\n        /* \"#utility.yul\":4368:4377   */\n      dup4\n        /* \"#utility.yul\":4364:4382   */\n      add\n        /* \"#utility.yul\":4355:4361   */\n      dup8\n        /* \"#utility.yul\":4317:4383   */\n      tag_194\n      jump\t// in\n    tag_232:\n        /* \"#utility.yul\":4393:4465   */\n      tag_233\n        /* \"#utility.yul\":4461:4463   */\n      0x40\n        /* \"#utility.yul\":4450:4459   */\n      dup4\n        /* \"#utility.yul\":4446:4464   */\n      add\n        /* \"#utility.yul\":4437:4443   */\n      dup7\n        /* \"#utility.yul\":4393:4465   */\n      tag_222\n      jump\t// in\n    tag_233:\n        /* \"#utility.yul\":4475:4547   */\n      tag_234\n        /* \"#utility.yul\":4543:4545   */\n      0x60\n        /* \"#utility.yul\":4532:4541   */\n      dup4\n        /* \"#utility.yul\":4528:4546   */\n      add\n        /* \"#utility.yul\":4519:4525   */\n      dup6\n        /* \"#utility.yul\":4475:4547   */\n      tag_222\n      jump\t// in\n    tag_234:\n        /* \"#utility.yul\":4557:4630   */\n      tag_235\n        /* \"#utility.yul\":4625:4628   */\n      0x80\n        /* \"#utility.yul\":4614:4623   */\n      dup4\n        /* \"#utility.yul\":4610:4629   */\n      add\n        /* \"#utility.yul\":4601:4607   */\n      dup5\n        /* \"#utility.yul\":4557:4630   */\n      tag_222\n      jump\t// in\n    tag_235:\n        /* \"#utility.yul\":3997:4637   */\n      swap7\n      swap6\n      pop\n      pop\n      pop\n      pop\n      pop\n      pop\n      jump\t// out\n        /* \"#utility.yul\":4643:4877   */\n    tag_65:\n        /* \"#utility.yul\":4742:4746   */\n      0x00\n        /* \"#utility.yul\":4780:4782   */\n      0x20\n        /* \"#utility.yul\":4769:4778   */\n      dup3\n        /* \"#utility.yul\":4765:4783   */\n      add\n        /* \"#utility.yul\":4757:4783   */\n      swap1\n      pop\n        /* \"#utility.yul\":4793:4870   */\n      tag_237\n        /* \"#utility.yul\":4867:4868   */\n      0x00\n        /* \"#utility.yul\":4856:4865   */\n      dup4\n        /* \"#utility.yul\":4852:4869   */\n      add\n        /* \"#utility.yul\":4843:4849   */\n      dup5\n        /* \"#utility.yul\":4793:4870   */\n      tag_198\n      jump\t// in\n    tag_237:\n        /* \"#utility.yul\":4643:4877   */\n      swap3\n      swap2\n      pop\n      pop\n      jump\t// out\n        /* \"#utility.yul\":4883:5302   */\n    tag_139:\n        /* \"#utility.yul\":5049:5053   */\n      0x00\n        /* \"#utility.yul\":5087:5089   */\n      0x20\n        /* \"#utility.yul\":5076:5085   */\n      dup3\n        /* \"#utility.yul\":5072:5090   */\n      add\n        /* \"#utility.yul\":5064:5090   */\n      swap1\n      pop\n        /* \"#utility.yul\":5136:5145   */\n      dup2\n        /* \"#utility.yul\":5130:5134   */\n      dup2\n        /* \"#utility.yul\":5126:5146   */\n      sub\n        /* \"#utility.yul\":5122:5123   */\n      0x00\n        /* \"#utility.yul\":5111:5120   */\n      dup4\n        /* \"#utility.yul\":5107:5124   */\n      add\n        /* \"#utility.yul\":5100:5147   */\n      mstore\n        /* \"#utility.yul\":5164:5295   */\n      tag_239\n        /* \"#utility.yul\":5290:5294   */\n      dup2\n        /* \"#utility.yul\":5164:5295   */\n      tag_212\n      jump\t// in\n    tag_239:\n        /* \"#utility.yul\":5156:5295   */\n      swap1\n      pop\n        /* \"#utility.yul\":4883:5302   */\n      swap2\n      swap1\n      pop\n      jump\t// out\n        /* \"#utility.yul\":5308:5727   */\n    tag_135:\n        /* \"#utility.yul\":5474:5478   */\n      0x00\n        /* \"#utility.yul\":5512:5514   */\n      0x20\n        /* \"#utility.yul\":5501:5510   */\n      dup3\n        /* \"#utility.yul\":5497:5515   */\n      add\n        /* \"#utility.yul\":5489:5515   */\n      swap1\n      pop\n        /* \"#utility.yul\":5561:5570   */\n      dup2\n        /* \"#utility.yul\":5555:5559   */\n      dup2\n        /* \"#utility.yul\":5551:5571   */\n      sub\n        /* \"#utility.yul\":5547:5548   */\n      0x00\n        /* \"#utility.yul\":5536:5545   */\n      dup4\n        /* \"#utility.yul\":5532:5549   */\n      add\n        /* \"#utility.yul\":5525:5572   */\n      mstore\n        /* \"#utility.yul\":5589:5720   */\n      tag_241\n        /* \"#utility.yul\":5715:5719   */\n      dup2\n        /* \"#utility.yul\":5589:5720   */\n      tag_217\n      jump\t// in\n    tag_241:\n        /* \"#utility.yul\":5581:5720   */\n      swap1\n      pop\n        /* \"#utility.yul\":5308:5727   */\n      swap2\n      swap1\n      pop\n      jump\t// out\n        /* \"#utility.yul\":5733:5955   */\n    tag_24:\n        /* \"#utility.yul\":5826:5830   */\n      0x00\n        /* \"#utility.yul\":5864:5866   */\n      0x20\n        /* \"#utility.yul\":5853:5862   */\n      dup3\n        /* \"#utility.yul\":5849:5867   */\n      add\n        /* \"#utility.yul\":5841:5867   */\n      swap1\n      pop\n        /* \"#utility.yul\":5877:5948   */\n      tag_243\n        /* \"#utility.yul\":5945:5946   */\n      0x00\n        /* \"#utility.yul\":5934:5943   */\n      dup4\n        /* \"#utility.yul\":5930:5947   */\n      add\n        /* \"#utility.yul\":5921:5927   */\n      dup5\n        /* \"#utility.yul\":5877:5948   */\n      tag_222\n      jump\t// in\n    tag_243:\n        /* \"#utility.yul\":5733:5955   */\n      swap3\n      swap2\n      pop\n      pop\n      jump\t// out\n        /* \"#utility.yul\":5961:6494   */\n    tag_39:\n        /* \"#utility.yul\":6130:6134   */\n      0x00\n        /* \"#utility.yul\":6168:6170   */\n      0x60\n        /* \"#utility.yul\":6157:6166   */\n      dup3\n        /* \"#utility.yul\":6153:6171   */\n      add\n        /* \"#utility.yul\":6145:6171   */\n      swap1\n      pop\n        /* \"#utility.yul\":6181:6252   */\n      tag_245\n        /* \"#utility.yul\":6249:6250   */\n      0x00\n        /* \"#utility.yul\":6238:6247   */\n      dup4\n        /* \"#utility.yul\":6234:6251   */\n      add\n        /* \"#utility.yul\":6225:6231   */\n      dup7\n        /* \"#utility.yul\":6181:6252   */\n      tag_222\n      jump\t// in\n    tag_245:\n        /* \"#utility.yul\":6299:6308   */\n      dup2\n        /* \"#utility.yul\":6293:6297   */\n      dup2\n        /* \"#utility.yul\":6289:6309   */\n      sub\n        /* \"#utility.yul\":6284:6286   */\n      0x20\n        /* \"#utility.yul\":6273:6282   */\n      dup4\n        /* \"#utility.yul\":6269:6287   */\n      add\n        /* \"#utility.yul\":6262:6310   */\n      mstore\n        /* \"#utility.yul\":6327:6405   */\n      tag_246\n        /* \"#utility.yul\":6400:6404   */\n      dup2\n        /* \"#utility.yul\":6391:6397   */\n      dup6\n        /* \"#utility.yul\":6327:6405   */\n      tag_202\n      jump\t// in\n    tag_246:\n        /* \"#utility.yul\":6319:6405   */\n      swap1\n      pop\n        /* \"#utility.yul\":6415:6487   */\n      tag_247\n        /* \"#utility.yul\":6483:6485   */\n      0x40\n        /* \"#utility.yul\":6472:6481   */\n      dup4\n        /* \"#utility.yul\":6468:6486   */\n      add\n        /* \"#utility.yul\":6459:6465   */\n      dup5\n        /* \"#utility.yul\":6415:6487   */\n      tag_222\n      jump\t// in\n    tag_247:\n        /* \"#utility.yul\":5961:6494   */\n      swap5\n      swap4\n      pop\n      pop\n      pop\n      pop\n      jump\t// out\n        /* \"#utility.yul\":6500:7144   */\n    tag_80:\n        /* \"#utility.yul\":6697:6701   */\n      0x00\n        /* \"#utility.yul\":6735:6738   */\n      0x80\n        /* \"#utility.yul\":6724:6733   */\n      dup3\n        /* \"#utility.yul\":6720:6739   */\n      add\n        /* \"#utility.yul\":6712:6739   */\n      swap1\n      pop\n        /* \"#utility.yul\":6749:6820   */\n      tag_249\n        /* \"#utility.yul\":6817:6818   */\n      0x00\n        /* \"#utility.yul\":6806:6815   */\n      dup4\n        /* \"#utility.yul\":6802:6819   */\n      add\n        /* \"#utility.yul\":6793:6799   */\n      dup8\n        /* \"#utility.yul\":6749:6820   */\n      tag_222\n      jump\t// in\n    tag_249:\n        /* \"#utility.yul\":6867:6876   */\n      dup2\n        /* \"#utility.yul\":6861:6865   */\n      dup2\n        /* \"#utility.yul\":6857:6877   */\n      sub\n        /* \"#utility.yul\":6852:6854   */\n      0x20\n        /* \"#utility.yul\":6841:6850   */\n      dup4\n        /* \"#utility.yul\":6837:6855   */\n      add\n        /* \"#utility.yul\":6830:6878   */\n      mstore\n        /* \"#utility.yul\":6895:6973   */\n      tag_250\n        /* \"#utility.yul\":6968:6972   */\n      dup2\n        /* \"#utility.yul\":6959:6965   */\n      dup7\n        /* \"#utility.yul\":6895:6973   */\n      tag_202\n      jump\t// in\n    tag_250:\n        /* \"#utility.yul\":6887:6973   */\n      swap1\n      pop\n        /* \"#utility.yul\":6983:7055   */\n      tag_251\n        /* \"#utility.yul\":7051:7053   */\n      0x40\n        /* \"#utility.yul\":7040:7049   */\n      dup4\n        /* \"#utility.yul\":7036:7054   */\n      add\n        /* \"#utility.yul\":7027:7033   */\n      dup6\n        /* \"#utility.yul\":6983:7055   */\n      tag_222\n      jump\t// in\n    tag_251:\n        /* \"#utility.yul\":7065:7137   */\n      tag_252\n        /* \"#utility.yul\":7133:7135   */\n      0x60\n        /* \"#utility.yul\":7122:7131   */\n      dup4\n        /* \"#utility.yul\":7118:7136   */\n      add\n        /* \"#utility.yul\":7109:7115   */\n      dup5\n        /* \"#utility.yul\":7065:7137   */\n      tag_222\n      jump\t// in\n    tag_252:\n        /* \"#utility.yul\":6500:7144   */\n      swap6\n      swap5\n      pop\n      pop\n      pop\n      pop\n      pop\n      jump\t// out\n        /* \"#utility.yul\":7231:7330   */\n    tag_205:\n        /* \"#utility.yul\":7283:7289   */\n      0x00\n        /* \"#utility.yul\":7317:7322   */\n      dup2\n        /* \"#utility.yul\":7311:7323   */\n      mload\n        /* \"#utility.yul\":7301:7323   */\n      swap1\n      pop\n        /* \"#utility.yul\":7231:7330   */\n      swap2\n      swap1\n      pop\n      jump\t// out\n        /* \"#utility.yul\":7336:7505   */\n    tag_207:\n        /* \"#utility.yul\":7420:7431   */\n      0x00\n        /* \"#utility.yul\":7454:7460   */\n      dup3\n        /* \"#utility.yul\":7449:7452   */\n      dup3\n        /* \"#utility.yul\":7442:7461   */\n      mstore\n        /* \"#utility.yul\":7494:7498   */\n      0x20\n        /* \"#utility.yul\":7489:7492   */\n      dup3\n        /* \"#utility.yul\":7485:7499   */\n      add\n        /* \"#utility.yul\":7470:7499   */\n      swap1\n      pop\n        /* \"#utility.yul\":7336:7505   */\n      swap3\n      swap2\n      pop\n      pop\n      jump\t// out\n        /* \"#utility.yul\":7511:7607   */\n    tag_193:\n        /* \"#utility.yul\":7548:7555   */\n      0x00\n        /* \"#utility.yul\":7577:7601   */\n      tag_258\n        /* \"#utility.yul\":7595:7600   */\n      dup3\n        /* \"#utility.yul\":7577:7601   */\n      tag_259\n      jump\t// in\n    tag_258:\n        /* \"#utility.yul\":7566:7601   */\n      swap1\n      pop\n        /* \"#utility.yul\":7511:7607   */\n      swap2\n      swap1\n      pop\n      jump\t// out\n        /* \"#utility.yul\":7613:7703   */\n    tag_197:\n        /* \"#utility.yul\":7647:7654   */\n      0x00\n        /* \"#utility.yul\":7690:7695   */\n      dup2\n        /* \"#utility.yul\":7683:7696   */\n      iszero\n        /* \"#utility.yul\":7676:7697   */\n      iszero\n        /* \"#utility.yul\":7665:7697   */\n      swap1\n      pop\n        /* \"#utility.yul\":7613:7703   */\n      swap2\n      swap1\n      pop\n      jump\t// out\n        /* \"#utility.yul\":7709:7836   */\n    tag_261:\n        /* \"#utility.yul\":7754:7761   */\n      0x00\n        /* \"#utility.yul\":7783:7788   */\n      dup2\n        /* \"#utility.yul\":7772:7788   */\n      swap1\n      pop\n        /* \"#utility.yul\":7789:7830   */\n      tag_263\n        /* \"#utility.yul\":7824:7829   */\n      dup3\n        /* \"#utility.yul\":7789:7830   */\n      tag_264\n      jump\t// in\n    tag_263:\n        /* \"#utility.yul\":7709:7836   */\n      swap2\n      swap1\n      pop\n      jump\t// out\n        /* \"#utility.yul\":7842:7968   */\n    tag_259:\n        /* \"#utility.yul\":7879:7886   */\n      0x00\n        /* \"#utility.yul\":7919:7961   */\n      0xffffffffffffffffffffffffffffffffffffffff\n        /* \"#utility.yul\":7912:7917   */\n      dup3\n        /* \"#utility.yul\":7908:7962   */\n      and\n        /* \"#utility.yul\":7897:7962   */\n      swap1\n      pop\n        /* \"#utility.yul\":7842:7968   */\n      swap2\n      swap1\n      pop\n      jump\t// out\n        /* \"#utility.yul\":7974:8051   */\n    tag_225:\n        /* \"#utility.yul\":8011:8018   */\n      0x00\n        /* \"#utility.yul\":8040:8045   */\n      dup2\n        /* \"#utility.yul\":8029:8045   */\n      swap1\n      pop\n        /* \"#utility.yul\":7974:8051   */\n      swap2\n      swap1\n      pop\n      jump\t// out\n        /* \"#utility.yul\":8057:8184   */\n    tag_201:\n        /* \"#utility.yul\":8113:8122   */\n      0x00\n        /* \"#utility.yul\":8146:8178   */\n      tag_268\n        /* \"#utility.yul\":8172:8177   */\n      dup3\n        /* \"#utility.yul\":8146:8178   */\n      tag_261\n      jump\t// in\n    tag_268:\n        /* \"#utility.yul\":8133:8178   */\n      swap1\n      pop\n        /* \"#utility.yul\":8057:8184   */\n      swap2\n      swap1\n      pop\n      jump\t// out\n        /* \"#utility.yul\":8190:8497   */\n    tag_209:\n        /* \"#utility.yul\":8258:8259   */\n      0x00\n        /* \"#utility.yul\":8268:8381   */\n    tag_270:\n        /* \"#utility.yul\":8282:8288   */\n      dup4\n        /* \"#utility.yul\":8279:8280   */\n      dup2\n        /* \"#utility.yul\":8276:8289   */\n      lt\n        /* \"#utility.yul\":8268:8381   */\n      iszero\n      tag_272\n      jumpi\n        /* \"#utility.yul\":8367:8368   */\n      dup1\n        /* \"#utility.yul\":8362:8365   */\n      dup3\n        /* \"#utility.yul\":8358:8369   */\n      add\n        /* \"#utility.yul\":8352:8370   */\n      mload\n        /* \"#utility.yul\":8348:8349   */\n      dup2\n        /* \"#utility.yul\":8343:8346   */\n      dup5\n        /* \"#utility.yul\":8339:8350   */\n      add\n        /* \"#utility.yul\":8332:8371   */\n      mstore\n        /* \"#utility.yul\":8304:8306   */\n      0x20\n        /* \"#utility.yul\":8301:8302   */\n      dup2\n        /* \"#utility.yul\":8297:8307   */\n      add\n        /* \"#utility.yul\":8292:8307   */\n      swap1\n      pop\n        /* \"#utility.yul\":8268:8381   */\n      jump(tag_270)\n    tag_272:\n        /* \"#utility.yul\":8399:8405   */\n      dup4\n        /* \"#utility.yul\":8396:8397   */\n      dup2\n        /* \"#utility.yul\":8393:8406   */\n      gt\n        /* \"#utility.yul\":8390:8491   */\n      iszero\n      tag_273\n      jumpi\n        /* \"#utility.yul\":8479:8480   */\n      0x00\n        /* \"#utility.yul\":8470:8476   */\n      dup5\n        /* \"#utility.yul\":8465:8468   */\n      dup5\n        /* \"#utility.yul\":8461:8477   */\n      add\n        /* \"#utility.yul\":8454:8481   */\n      mstore\n        /* \"#utility.yul\":8390:8491   */\n    tag_273:\n        /* \"#utility.yul\":8239:8497   */\n      pop\n        /* \"#utility.yul\":8190:8497   */\n      pop\n      pop\n      pop\n      jump\t// out\n        /* \"#utility.yul\":8503:8823   */\n    tag_97:\n        /* \"#utility.yul\":8547:8553   */\n      0x00\n        /* \"#utility.yul\":8584:8585   */\n      0x02\n        /* \"#utility.yul\":8578:8582   */\n      dup3\n        /* \"#utility.yul\":8574:8586   */\n      div\n        /* \"#utility.yul\":8564:8586   */\n      swap1\n      pop\n        /* \"#utility.yul\":8631:8632   */\n      0x01\n        /* \"#utility.yul\":8625:8629   */\n      dup3\n        /* \"#utility.yul\":8621:8633   */\n      and\n        /* \"#utility.yul\":8652:8670   */\n      dup1\n        /* \"#utility.yul\":8642:8723   */\n      tag_275\n      jumpi\n        /* \"#utility.yul\":8708:8712   */\n      0x7f\n        /* \"#utility.yul\":8700:8706   */\n      dup3\n        /* \"#utility.yul\":8696:8713   */\n      and\n        /* \"#utility.yul\":8686:8713   */\n      swap2\n      pop\n        /* \"#utility.yul\":8642:8723   */\n    tag_275:\n        /* \"#utility.yul\":8770:8772   */\n      0x20\n        /* \"#utility.yul\":8762:8768   */\n      dup3\n        /* \"#utility.yul\":8759:8773   */\n      lt\n        /* \"#utility.yul\":8739:8757   */\n      dup2\n        /* \"#utility.yul\":8736:8774   */\n      eq\n        /* \"#utility.yul\":8733:8817   */\n      iszero\n      tag_276\n      jumpi\n        /* \"#utility.yul\":8789:8807   */\n      tag_277\n      tag_278\n      jump\t// in\n    tag_277:\n        /* \"#utility.yul\":8733:8817   */\n    tag_276:\n        /* \"#utility.yul\":8554:8823   */\n      pop\n        /* \"#utility.yul\":8503:8823   */\n      swap2\n      swap1\n      pop\n      jump\t// out\n        /* \"#utility.yul\":8829:9062   */\n    tag_92:\n        /* \"#utility.yul\":8868:8871   */\n      0x00\n        /* \"#utility.yul\":8891:8915   */\n      tag_280\n        /* \"#utility.yul\":8909:8914   */\n      dup3\n        /* \"#utility.yul\":8891:8915   */\n      tag_225\n      jump\t// in\n    tag_280:\n        /* \"#utility.yul\":8882:8915   */\n      swap2\n      pop\n        /* \"#utility.yul\":8937:9003   */\n      0xffffffffffffffffffffffffffffffffffffffffffffffffffffffffffffffff\n        /* \"#utility.yul\":8930:8935   */\n      dup3\n        /* \"#utility.yul\":8927:9004   */\n      eq\n        /* \"#utility.yul\":8924:9027   */\n      iszero\n      tag_281\n      jumpi\n        /* \"#utility.yul\":9007:9025   */\n      tag_282\n      tag_283\n      jump\t// in\n    tag_282:\n        /* \"#utility.yul\":8924:9027   */\n    tag_281:\n        /* \"#utility.yul\":9054:9055   */\n      0x01\n        /* \"#utility.yul\":9047:9052   */\n      dup3\n        /* \"#utility.yul\":9043:9056   */\n      add\n        /* \"#utility.yul\":9036:9056   */\n      swap1\n      pop\n        /* \"#utility.yul\":8829:9062   */\n      swap2\n      swap1\n      pop\n      jump\t// out\n        /* \"#utility.yul\":9068:9248   */\n    tag_283:\n        /* \"#utility.yul\":9116:9193   */\n      0x4e487b7100000000000000000000000000000000000000000000000000000000\n        /* \"#utility.yul\":9113:9114   */\n      0x00\n        /* \"#utility.yul\":9106:9194   */\n      mstore\n        /* \"#utility.yul\":9213:9217   */\n      0x11\n        /* \"#utility.yul\":9210:9211   */\n      0x04\n        /* \"#utility.yul\":9203:9218   */\n      mstore\n        /* \"#utility.yul\":9237:9241   */\n      0x24\n        /* \"#utility.yul\":9234:9235   */\n      0x00\n        /* \"#utility.yul\":9227:9242   */\n      revert\n        /* \"#utility.yul\":9254:9434   */\n    tag_84:\n        /* \"#utility.yul\":9302:9379   */\n      0x4e487b7100000000000000000000000000000000000000000000000000000000\n        /* \"#utility.yul\":9299:9300   */\n      0x00\n        /* \"#utility.yul\":9292:9380   */\n      mstore\n        /* \"#utility.yul\":9399:9403   */\n      0x21\n        /* \"#utility.yul\":9396:9397   */\n      0x04\n        /* \"#utility.yul\":9389:9404   */\n      mstore\n        /* \"#utility.yul\":9423:9427   */\n      0x24\n        /* \"#utility.yul\":9420:9421   */\n      0x00\n        /* \"#utility.yul\":9413:9428   */\n      revert\n        /* \"#utility.yul\":9440:9620   */\n    tag_278:\n        /* \"#utility.yul\":9488:9565   */\n      0x4e487b7100000000000000000000000000000000000000000000000000000000\n        /* \"#utility.yul\":9485:9486   */\n      0x00\n        /* \"#utility.yul\":9478:9566   */\n      mstore\n        /* \"#utility.yul\":9585:9589   */\n      0x22\n        /* \"#utility.yul\":9582:9583   */\n      0x04\n        /* \"#utility.yul\":9575:9590   */\n      mstore\n        /* \"#utility.yul\":9609:9613   */\n      0x24\n        /* \"#utility.yul\":9606:9607   */\n      0x00\n        /* \"#utility.yul\":9599:9614   */\n      revert\n        /* \"#utility.yul\":9749:9866   */\n    tag_174:\n        /* \"#utility.yul\":9858:9859   */\n      0x00\n        /* \"#utility.yul\":9855:9856   */\n      dup1\n        /* \"#utility.yul\":9848:9860   */\n      revert\n        /* \"#utility.yul\":9872:9974   */\n    tag_211:\n        /* \"#utility.yul\":9913:9919   */\n      0x00\n        /* \"#utility.yul\":9964:9966   */\n      0x1f\n        /* \"#utility.yul\":9960:9967   */\n      not\n        /* \"#utility.yul\":9955:9957   */\n      0x1f\n        /* \"#utility.yul\":9948:9953   */\n      dup4\n        /* \"#utility.yul\":9944:9958   */\n      add\n        /* \"#utility.yul\":9940:9968   */\n      and\n        /* \"#utility.yul\":9930:9968   */\n      swap1\n      pop\n        /* \"#utility.yul\":9872:9974   */\n      swap2\n      swap1\n      pop\n      jump\t// out\n        /* \"#utility.yul\":9980:10209   */\n    tag_216:\n        /* \"#utility.yul\":10120:10154   */\n      0x506c656173652070726f7669646520612076616c696420706f6c6c696e672073\n        /* \"#utility.yul\":10116:10117   */\n      0x00\n        /* \"#utility.yul\":10108:10114   */\n      dup3\n        /* \"#utility.yul\":10104:10118   */\n      add\n        /* \"#utility.yul\":10097:10155   */\n      mstore\n        /* \"#utility.yul\":10189:10201   */\n      0x746174696f6e2049442e00000000000000000000000000000000000000000000\n        /* \"#utility.yul\":10184:10186   */\n      0x20\n        /* \"#utility.yul\":10176:10182   */\n      dup3\n        /* \"#utility.yul\":10172:10187   */\n      add\n        /* \"#utility.yul\":10165:10202   */\n      mstore\n        /* \"#utility.yul\":9980:10209   */\n      pop\n      jump\t// out\n        /* \"#utility.yul\":10215:10393   */\n    tag_221:\n        /* \"#utility.yul\":10355:10385   */\n      0x566f74657220697320616c726561647920726567697374657265642e00000000\n        /* \"#utility.yul\":10351:10352   */\n      0x00\n        /* \"#utility.yul\":10343:10349   */\n      dup3\n        /* \"#utility.yul\":10339:10353   */\n      add\n        /* \"#utility.yul\":10332:10386   */\n      mstore\n        /* \"#utility.yul\":10215:10393   */\n      pop\n      jump\t// out\n        /* \"#utility.yul\":10399:10512   */\n    tag_264:\n        /* \"#utility.yul\":10480:10481   */\n      0x03\n        /* \"#utility.yul\":10473:10478   */\n      dup2\n        /* \"#utility.yul\":10470:10482   */\n      lt\n        /* \"#utility.yul\":10460:10506   */\n      tag_294\n      jumpi\n        /* \"#utility.yul\":10486:10504   */\n      tag_295\n      tag_84\n      jump\t// in\n    tag_295:\n        /* \"#utility.yul\":10460:10506   */\n    tag_294:\n        /* \"#utility.yul\":10399:10512   */\n      pop\n      jump\t// out\n        /* \"#utility.yul\":10518:10640   */\n    tag_166:\n        /* \"#utility.yul\":10591:10615   */\n      tag_297\n        /* \"#utility.yul\":10609:10614   */\n      dup2\n        /* \"#utility.yul\":10591:10615   */\n      tag_193\n      jump\t// in\n    tag_297:\n        /* \"#utility.yul\":10584:10589   */\n      dup2\n        /* \"#utility.yul\":10581:10616   */\n      eq\n        /* \"#utility.yul\":10571:10634   */\n      tag_298\n      jumpi\n        /* \"#utility.yul\":10630:10631   */\n      0x00\n        /* \"#utility.yul\":10627:10628   */\n      dup1\n        /* \"#utility.yul\":10620:10632   */\n      revert\n        /* \"#utility.yul\":10571:10634   */\n    tag_298:\n        /* \"#utility.yul\":10518:10640   */\n      pop\n      jump\t// out\n        /* \"#utility.yul\":10646:10768   */\n    tag_170:\n        /* \"#utility.yul\":10719:10743   */\n      tag_300\n        /* \"#utility.yul\":10737:10742   */\n      dup2\n        /* \"#utility.yul\":10719:10743   */\n      tag_225\n      jump\t// in\n    tag_300:\n        /* \"#utility.yul\":10712:10717   */\n      dup2\n        /* \"#utility.yul\":10709:10744   */\n      eq\n        /* \"#utility.yul\":10699:10762   */\n      tag_301\n      jumpi\n        /* \"#utility.yul\":10758:10759   */\n      0x00\n        /* \"#utility.yul\":10755:10756   */\n      dup1\n        /* \"#utility.yul\":10748:10760   */\n      revert\n        /* \"#utility.yul\":10699:10762   */\n    tag_301:\n        /* \"#utility.yul\":10646:10768   */\n      pop\n      jump\t// out\n\n    auxdata: 0xa264697066735822122046687bcb95bead8d4b365030e0e02127434ec2d77c05d662ce97bfc0f5ac133064736f6c63430008070033\n}\n",
				"bytecode": {
					"linkReferences": {},
					"object": "60806040523480156200001157600080fd5b50336000806101000a81548173ffffffffffffffffffffffffffffffffffffffff021916908373ffffffffffffffffffffffffffffffffffffffff16021790555062000062620000b660201b60201c565b620000726200021660201b60201c565b62000082620004d460201b60201c565b6000600b60006101000a81548160ff02191690836002811115620000ab57620000aa62000835565b5b021790555062000893565b620000fc6040518060400160405280600b81526020017f43616e6469646174652031000000000000000000000000000000000000000000815250620005ab60201b60201c565b620001426040518060400160405280600b81526020017f43616e6469646174652032000000000000000000000000000000000000000000815250620005ab60201b60201c565b620001886040518060400160405280600b81526020017f43616e6469646174652033000000000000000000000000000000000000000000815250620005ab60201b60201c565b620001ce6040518060400160405280600b81526020017f43616e6469646174652034000000000000000000000000000000000000000000815250620005ab60201b60201c565b620002146040518060400160405280600b81526020017f43616e6469646174652035000000000000000000000000000000000000000000815250620005ab60201b60201c565b565b6200025c6040518060400160405280601181526020017f506f6c6c696e672053746174696f6e20310000000000000000000000000000008152506200063160201b60201c565b620002a26040518060400160405280601181526020017f506f6c6c696e672053746174696f6e20320000000000000000000000000000008152506200063160201b60201c565b620002e86040518060400160405280601181526020017f506f6c6c696e672053746174696f6e20330000000000000000000000000000008152506200063160201b60201c565b6200032e6040518060400160405280601181526020017f506f6c6c696e672053746174696f6e20340000000000000000000000000000008152506200063160201b60201c565b620003746040518060400160405280601181526020017f506f6c6c696e672053746174696f6e20350000000000000000000000000000008152506200063160201b60201c565b620003ba6040518060400160405280601181526020017f506f6c6c696e672053746174696f6e20360000000000000000000000000000008152506200063160201b60201c565b620004006040518060400160405280601181526020017f506f6c6c696e672053746174696f6e20370000000000000000000000000000008152506200063160201b60201c565b620004466040518060400160405280601181526020017f506f6c6c696e672053746174696f6e20380000000000000000000000000000008152506200063160201b60201c565b6200048c6040518060400160405280601181526020017f506f6c6c696e672053746174696f6e20390000000000000000000000000000008152506200063160201b60201c565b620004d26040518060400160405280601281526020017f506f6c6c696e672053746174696f6e20313000000000000000000000000000008152506200063160201b60201c565b565b6000600190505b6002548111620005a8576000600190505b6001548111620005915760405180606001604052808281526020016040518060200160405280600081525081526020016000815250600a600084815260200190815260200160002060008381526020019081526020016000206000820151816000015560208201518160010190805190602001906200056d929190620006c8565b506040820151816002015590505080806200058890620007b8565b915050620004ec565b5080806200059f90620007b8565b915050620004db565b50565b60016000815480929190620005c090620007b8565b919050555060405180606001604052806001548152602001828152602001600081525060066000600154815260200190815260200160002060008201518160000155602082015181600101908051906020019062000620929190620006c8565b506040820151816002015590505050565b600260008154809291906200064690620007b8565b919050555060405180608001604052806002548152602001828152602001600081526020016000815250600760006002548152602001908152602001600020600082015181600001556020820151816001019080519060200190620006ad929190620006c8565b50604082015181600201556060820151816003015590505050565b828054620006d69062000782565b90600052602060002090601f016020900481019282620006fa576000855562000746565b82601f106200071557805160ff191683800117855562000746565b8280016001018555821562000746579182015b828111156200074557825182559160200191906001019062000728565b5b50905062000755919062000759565b5090565b5b80821115620007745760008160009055506001016200075a565b5090565b6000819050919050565b600060028204905060018216806200079b57607f821691505b60208210811415620007b257620007b162000864565b5b50919050565b6000620007c58262000778565b91507fffffffffffffffffffffffffffffffffffffffffffffffffffffffffffffffff821415620007fb57620007fa62000806565b5b600182019050919050565b7f4e487b7100000000000000000000000000000000000000000000000000000000600052601160045260246000fd5b7f4e487b7100000000000000000000000000000000000000000000000000000000600052602160045260246000fd5b7f4e487b7100000000000000000000000000000000000000000000000000000000600052602260045260246000fd5b6113c580620008a36000396000f3fe608060405234801561001057600080fd5b50600436106100f45760003560e01c8063a3ec138d11610097578063d70c6f4e11610066578063d70c6f4e14610267578063df9f1a0714610299578063f3a8286f146102b7578063fe2442d7146102d5576100f4565b8063a3ec138d146101f3578063b922394614610223578063b9f05f2f1461022d578063c19d93fb14610249576100f4565b80633477ee2e116100d35780633477ee2e146101655780634763d4e7146101975780634c0a6af0146101cb57806353357ad0146101d5576100f4565b8062aa7464146100f95780632c0a3f89146101175780632d35a8a214610147575b600080fd5b610101610308565b60405161010e9190611056565b60405180910390f35b610131600480360381019061012c9190610e77565b61030e565b60405161013e9190610f8d565b60405180910390f35b61014f6105fe565b60405161015c9190611056565b60405180910390f35b61017f600480360381019061017a9190610e4a565b610604565b60405161018e93929190611071565b60405180910390f35b6101b160048036038101906101ac9190610ddd565b6106b6565b6040516101c2959493929190610fa8565b60405180910390f35b6101d3610706565b005b6101dd6107cd565b6040516101ea9190610f72565b60405180910390f35b61020d60048036038101906102089190610ddd565b6107f1565b60405161021a9190610f8d565b60405180910390f35b61022b610811565b005b61024760048036038101906102429190610e0a565b6108e1565b005b610251610b74565b60405161025e9190610ffb565b60405180910390f35b610281600480360381019061027c9190610e77565b610b87565b60405161029093929190611071565b60405180910390f35b6102a1610c46565b6040516102ae9190611056565b60405180910390f35b6102bf610c4c565b6040516102cc9190611056565b60405180910390f35b6102ef60048036038101906102ea9190610e4a565b610c52565b6040516102ff94939291906110af565b60405180910390f35b60035481565b6000600180600281111561032557610324611261565b5b600b60009054906101000a900460ff16600281111561034757610346611261565b5b1461035157600080fd5b6000600860003373ffffffffffffffffffffffffffffffffffffffff1673ffffffffffffffffffffffffffffffffffffffff16815260200190815260200160002060000160009054906101000a900460ff1680156103fc5750600860003373ffffffffffffffffffffffffffffffffffffffff1673ffffffffffffffffffffffffffffffffffffffff16815260200190815260200160002060000160019054906101000a900460ff16155b156105f35784600860003373ffffffffffffffffffffffffffffffffffffffff1673ffffffffffffffffffffffffffffffffffffffff1681526020019081526020016000206001018190555083600860003373ffffffffffffffffffffffffffffffffffffffff1673ffffffffffffffffffffffffffffffffffffffff168152602001908152602001600020600301819055506001600860003373ffffffffffffffffffffffffffffffffffffffff1673ffffffffffffffffffffffffffffffffffffffff16815260200190815260200160002060000160016101000a81548160ff021916908315150217905550600760008581526020019081526020016000206003016000815480929190610511906111e9565b919050555060066000868152602001908152602001600020600201600081548092919061053d906111e9565b919050555060046000815480929190610555906111e9565b91905055506001905080600960003373ffffffffffffffffffffffffffffffffffffffff1673ffffffffffffffffffffffffffffffffffffffff16815260200190815260200160002060006101000a81548160ff021916908315150217905550600a6000858152602001908152602001600020600086815260200190815260200160002060020160008154809291906105ed906111e9565b91905055505b809250505092915050565b60015481565b600660205280600052604060002060009150905080600001549080600101805461062d906111b7565b80601f0160208091040260200160405190810160405280929190818152602001828054610659906111b7565b80156106a65780601f1061067b576101008083540402835291602001916106a6565b820191906000526020600020905b81548152906001019060200180831161068957829003601f168201915b5050505050908060020154905083565b60086020528060005260406000206000915090508060000160009054906101000a900460ff16908060000160019054906101000a900460ff16908060010154908060020154908060030154905085565b600080600281111561071b5761071a611261565b5b600b60009054906101000a900460ff16600281111561073d5761073c611261565b5b1461074757600080fd5b60008054906101000a900473ffffffffffffffffffffffffffffffffffffffff1673ffffffffffffffffffffffffffffffffffffffff163373ffffffffffffffffffffffffffffffffffffffff161461079f57600080fd5b6001600b60006101000a81548160ff021916908360028111156107c5576107c4611261565b5b021790555050565b60008054906101000a900473ffffffffffffffffffffffffffffffffffffffff1681565b60096020528060005260406000206000915054906101000a900460ff1681565b600180600281111561082657610825611261565b5b600b60009054906101000a900460ff16600281111561084857610847611261565b5b1461085257600080fd5b60008054906101000a900473ffffffffffffffffffffffffffffffffffffffff1673ffffffffffffffffffffffffffffffffffffffff163373ffffffffffffffffffffffffffffffffffffffff16146108aa57600080fd5b6002600b60006101000a81548160ff021916908360028111156108d0576108cf611261565b5b021790555060045460058190555050565b60008060028111156108f6576108f5611261565b5b600b60009054906101000a900460ff16600281111561091857610917611261565b5b1461092257600080fd5b60008054906101000a900473ffffffffffffffffffffffffffffffffffffffff1673ffffffffffffffffffffffffffffffffffffffff163373ffffffffffffffffffffffffffffffffffffffff161461097a57600080fd5b60001515600860008573ffffffffffffffffffffffffffffffffffffffff1673ffffffffffffffffffffffffffffffffffffffff16815260200190815260200160002060000160009054906101000a900460ff16151514610a10576040517f08c379a0000000000000000000000000000000000000000000000000000000008152600401610a0790611036565b60405180910390fd5b60018210158015610a2357506002548211155b610a62576040517f08c379a0000000000000000000000000000000000000000000000000000000008152600401610a5990611016565b60405180910390fd5b610a6a610d80565b60018160000190151590811515815250506000816020019015159081151581525050600081604001818152505082816060018181525050600081608001818152505080600860008673ffffffffffffffffffffffffffffffffffffffff1673ffffffffffffffffffffffffffffffffffffffff16815260200190815260200160002060008201518160000160006101000a81548160ff02191690831515021790555060208201518160000160016101000a81548160ff021916908315150217905550604082015181600101556060820151816002015560808201518160030155905050610b5683610d0a565b60036000815480929190610b69906111e9565b919050555050505050565b600b60009054906101000a900460ff1681565b600a60205281600052604060002060205280600052604060002060009150915050806000015490806001018054610bbd906111b7565b80601f0160208091040260200160405190810160405280929190818152602001828054610be9906111b7565b8015610c365780601f10610c0b57610100808354040283529160200191610c36565b820191906000526020600020905b815481529060010190602001808311610c1957829003601f168201915b5050505050908060020154905083565b60025481565b60055481565b6007602052806000526040600020600091509050806000015490806001018054610c7b906111b7565b80601f0160208091040260200160405190810160405280929190818152602001828054610ca7906111b7565b8015610cf45780601f10610cc957610100808354040283529160200191610cf4565b820191906000526020600020905b815481529060010190602001808311610cd757829003601f168201915b5050505050908060020154908060030154905084565b6000600190505b6002548111610d7c578160076000838152602001908152602001600020600001541415610d6957600760008281526020019081526020016000206002016000815480929190610d5f906111e9565b9190505550610d7c565b8080610d74906111e9565b915050610d11565b5050565b6040518060a001604052806000151581526020016000151581526020016000815260200160008152602001600081525090565b600081359050610dc281611361565b92915050565b600081359050610dd781611378565b92915050565b600060208284031215610df357610df26112bf565b5b6000610e0184828501610db3565b91505092915050565b60008060408385031215610e2157610e206112bf565b5b6000610e2f85828601610db3565b9250506020610e4085828601610dc8565b9150509250929050565b600060208284031215610e6057610e5f6112bf565b5b6000610e6e84828501610dc8565b91505092915050565b60008060408385031215610e8e57610e8d6112bf565b5b6000610e9c85828601610dc8565b9250506020610ead85828601610dc8565b9150509250929050565b610ec081611117565b82525050565b610ecf81611129565b82525050565b610ede81611172565b82525050565b6000610eef826110fb565b610ef98185611106565b9350610f09818560208601611184565b610f12816112c4565b840191505092915050565b6000610f2a602a83611106565b9150610f35826112d5565b604082019050919050565b6000610f4d601c83611106565b9150610f5882611324565b602082019050919050565b610f6c81611168565b82525050565b6000602082019050610f876000830184610eb7565b92915050565b6000602082019050610fa26000830184610ec6565b92915050565b600060a082019050610fbd6000830188610ec6565b610fca6020830187610ec6565b610fd76040830186610f63565b610fe46060830185610f63565b610ff16080830184610f63565b9695505050505050565b60006020820190506110106000830184610ed5565b92915050565b6000602082019050818103600083015261102f81610f1d565b9050919050565b6000602082019050818103600083015261104f81610f40565b9050919050565b600060208201905061106b6000830184610f63565b92915050565b60006060820190506110866000830186610f63565b81810360208301526110988185610ee4565b90506110a76040830184610f63565b949350505050565b60006080820190506110c46000830187610f63565b81810360208301526110d68186610ee4565b90506110e56040830185610f63565b6110f26060830184610f63565b95945050505050565b600081519050919050565b600082825260208201905092915050565b600061112282611148565b9050919050565b60008115159050919050565b60008190506111438261134d565b919050565b600073ffffffffffffffffffffffffffffffffffffffff82169050919050565b6000819050919050565b600061117d82611135565b9050919050565b60005b838110156111a2578082015181840152602081019050611187565b838111156111b1576000848401525b50505050565b600060028204905060018216806111cf57607f821691505b602082108114156111e3576111e2611290565b5b50919050565b60006111f482611168565b91507fffffffffffffffffffffffffffffffffffffffffffffffffffffffffffffffff82141561122757611226611232565b5b600182019050919050565b7f4e487b7100000000000000000000000000000000000000000000000000000000600052601160045260246000fd5b7f4e487b7100000000000000000000000000000000000000000000000000000000600052602160045260246000fd5b7f4e487b7100000000000000000000000000000000000000000000000000000000600052602260045260246000fd5b600080fd5b6000601f19601f8301169050919050565b7f506c656173652070726f7669646520612076616c696420706f6c6c696e67207360008201527f746174696f6e2049442e00000000000000000000000000000000000000000000602082015250565b7f566f74657220697320616c726561647920726567697374657265642e00000000600082015250565b6003811061135e5761135d611261565b5b50565b61136a81611117565b811461137557600080fd5b50565b61138181611168565b811461138c57600080fd5b5056fea264697066735822122046687bcb95bead8d4b365030e0e02127434ec2d77c05d662ce97bfc0f5ac133064736f6c63430008070033",
					"opcodes": "PUSH1 0x80 PUSH1 0x40 MSTORE CALLVALUE DUP1 ISZERO PUSH3 0x11 JUMPI PUSH1 0x0 DUP1 REVERT JUMPDEST POP CALLER PUSH1 0x0 DUP1 PUSH2 0x100 EXP DUP2 SLOAD DUP2 PUSH20 0xFFFFFFFFFFFFFFFFFFFFFFFFFFFFFFFFFFFFFFFF MUL NOT AND SWAP1 DUP4 PUSH20 0xFFFFFFFFFFFFFFFFFFFFFFFFFFFFFFFFFFFFFFFF AND MUL OR SWAP1 SSTORE POP PUSH3 0x62 PUSH3 0xB6 PUSH1 0x20 SHL PUSH1 0x20 SHR JUMP JUMPDEST PUSH3 0x72 PUSH3 0x216 PUSH1 0x20 SHL PUSH1 0x20 SHR JUMP JUMPDEST PUSH3 0x82 PUSH3 0x4D4 PUSH1 0x20 SHL PUSH1 0x20 SHR JUMP JUMPDEST PUSH1 0x0 PUSH1 0xB PUSH1 0x0 PUSH2 0x100 EXP DUP2 SLOAD DUP2 PUSH1 0xFF MUL NOT AND SWAP1 DUP4 PUSH1 0x2 DUP2 GT ISZERO PUSH3 0xAB JUMPI PUSH3 0xAA PUSH3 0x835 JUMP JUMPDEST JUMPDEST MUL OR SWAP1 SSTORE POP PUSH3 0x893 JUMP JUMPDEST PUSH3 0xFC PUSH1 0x40 MLOAD DUP1 PUSH1 0x40 ADD PUSH1 0x40 MSTORE DUP1 PUSH1 0xB DUP2 MSTORE PUSH1 0x20 ADD PUSH32 0x43616E6469646174652031000000000000000000000000000000000000000000 DUP2 MSTORE POP PUSH3 0x5AB PUSH1 0x20 SHL PUSH1 0x20 SHR JUMP JUMPDEST PUSH3 0x142 PUSH1 0x40 MLOAD DUP1 PUSH1 0x40 ADD PUSH1 0x40 MSTORE DUP1 PUSH1 0xB DUP2 MSTORE PUSH1 0x20 ADD PUSH32 0x43616E6469646174652032000000000000000000000000000000000000000000 DUP2 MSTORE POP PUSH3 0x5AB PUSH1 0x20 SHL PUSH1 0x20 SHR JUMP JUMPDEST PUSH3 0x188 PUSH1 0x40 MLOAD DUP1 PUSH1 0x40 ADD PUSH1 0x40 MSTORE DUP1 PUSH1 0xB DUP2 MSTORE PUSH1 0x20 ADD PUSH32 0x43616E6469646174652033000000000000000000000000000000000000000000 DUP2 MSTORE POP PUSH3 0x5AB PUSH1 0x20 SHL PUSH1 0x20 SHR JUMP JUMPDEST PUSH3 0x1CE PUSH1 0x40 MLOAD DUP1 PUSH1 0x40 ADD PUSH1 0x40 MSTORE DUP1 PUSH1 0xB DUP2 MSTORE PUSH1 0x20 ADD PUSH32 0x43616E6469646174652034000000000000000000000000000000000000000000 DUP2 MSTORE POP PUSH3 0x5AB PUSH1 0x20 SHL PUSH1 0x20 SHR JUMP JUMPDEST PUSH3 0x214 PUSH1 0x40 MLOAD DUP1 PUSH1 0x40 ADD PUSH1 0x40 MSTORE DUP1 PUSH1 0xB DUP2 MSTORE PUSH1 0x20 ADD PUSH32 0x43616E6469646174652035000000000000000000000000000000000000000000 DUP2 MSTORE POP PUSH3 0x5AB PUSH1 0x20 SHL PUSH1 0x20 SHR JUMP JUMPDEST JUMP JUMPDEST PUSH3 0x25C PUSH1 0x40 MLOAD DUP1 PUSH1 0x40 ADD PUSH1 0x40 MSTORE DUP1 PUSH1 0x11 DUP2 MSTORE PUSH1 0x20 ADD PUSH32 0x506F6C6C696E672053746174696F6E2031000000000000000000000000000000 DUP2 MSTORE POP PUSH3 0x631 PUSH1 0x20 SHL PUSH1 0x20 SHR JUMP JUMPDEST PUSH3 0x2A2 PUSH1 0x40 MLOAD DUP1 PUSH1 0x40 ADD PUSH1 0x40 MSTORE DUP1 PUSH1 0x11 DUP2 MSTORE PUSH1 0x20 ADD PUSH32 0x506F6C6C696E672053746174696F6E2032000000000000000000000000000000 DUP2 MSTORE POP PUSH3 0x631 PUSH1 0x20 SHL PUSH1 0x20 SHR JUMP JUMPDEST PUSH3 0x2E8 PUSH1 0x40 MLOAD DUP1 PUSH1 0x40 ADD PUSH1 0x40 MSTORE DUP1 PUSH1 0x11 DUP2 MSTORE PUSH1 0x20 ADD PUSH32 0x506F6C6C696E672053746174696F6E2033000000000000000000000000000000 DUP2 MSTORE POP PUSH3 0x631 PUSH1 0x20 SHL PUSH1 0x20 SHR JUMP JUMPDEST PUSH3 0x32E PUSH1 0x40 MLOAD DUP1 PUSH1 0x40 ADD PUSH1 0x40 MSTORE DUP1 PUSH1 0x11 DUP2 MSTORE PUSH1 0x20 ADD PUSH32 0x506F6C6C696E672053746174696F6E2034000000000000000000000000000000 DUP2 MSTORE POP PUSH3 0x631 PUSH1 0x20 SHL PUSH1 0x20 SHR JUMP JUMPDEST PUSH3 0x374 PUSH1 0x40 MLOAD DUP1 PUSH1 0x40 ADD PUSH1 0x40 MSTORE DUP1 PUSH1 0x11 DUP2 MSTORE PUSH1 0x20 ADD PUSH32 0x506F6C6C696E672053746174696F6E2035000000000000000000000000000000 DUP2 MSTORE POP PUSH3 0x631 PUSH1 0x20 SHL PUSH1 0x20 SHR JUMP JUMPDEST PUSH3 0x3BA PUSH1 0x40 MLOAD DUP1 PUSH1 0x40 ADD PUSH1 0x40 MSTORE DUP1 PUSH1 0x11 DUP2 MSTORE PUSH1 0x20 ADD PUSH32 0x506F6C6C696E672053746174696F6E2036000000000000000000000000000000 DUP2 MSTORE POP PUSH3 0x631 PUSH1 0x20 SHL PUSH1 0x20 SHR JUMP JUMPDEST PUSH3 0x400 PUSH1 0x40 MLOAD DUP1 PUSH1 0x40 ADD PUSH1 0x40 MSTORE DUP1 PUSH1 0x11 DUP2 MSTORE PUSH1 0x20 ADD PUSH32 0x506F6C6C696E672053746174696F6E2037000000000000000000000000000000 DUP2 MSTORE POP PUSH3 0x631 PUSH1 0x20 SHL PUSH1 0x20 SHR JUMP JUMPDEST PUSH3 0x446 PUSH1 0x40 MLOAD DUP1 PUSH1 0x40 ADD PUSH1 0x40 MSTORE DUP1 PUSH1 0x11 DUP2 MSTORE PUSH1 0x20 ADD PUSH32 0x506F6C6C696E672053746174696F6E2038000000000000000000000000000000 DUP2 MSTORE POP PUSH3 0x631 PUSH1 0x20 SHL PUSH1 0x20 SHR JUMP JUMPDEST PUSH3 0x48C PUSH1 0x40 MLOAD DUP1 PUSH1 0x40 ADD PUSH1 0x40 MSTORE DUP1 PUSH1 0x11 DUP2 MSTORE PUSH1 0x20 ADD PUSH32 0x506F6C6C696E672053746174696F6E2039000000000000000000000000000000 DUP2 MSTORE POP PUSH3 0x631 PUSH1 0x20 SHL PUSH1 0x20 SHR JUMP JUMPDEST PUSH3 0x4D2 PUSH1 0x40 MLOAD DUP1 PUSH1 0x40 ADD PUSH1 0x40 MSTORE DUP1 PUSH1 0x12 DUP2 MSTORE PUSH1 0x20 ADD PUSH32 0x506F6C6C696E672053746174696F6E2031300000000000000000000000000000 DUP2 MSTORE POP PUSH3 0x631 PUSH1 0x20 SHL PUSH1 0x20 SHR JUMP JUMPDEST JUMP JUMPDEST PUSH1 0x0 PUSH1 0x1 SWAP1 POP JUMPDEST PUSH1 0x2 SLOAD DUP2 GT PUSH3 0x5A8 JUMPI PUSH1 0x0 PUSH1 0x1 SWAP1 POP JUMPDEST PUSH1 0x1 SLOAD DUP2 GT PUSH3 0x591 JUMPI PUSH1 0x40 MLOAD DUP1 PUSH1 0x60 ADD PUSH1 0x40 MSTORE DUP1 DUP3 DUP2 MSTORE PUSH1 0x20 ADD PUSH1 0x40 MLOAD DUP1 PUSH1 0x20 ADD PUSH1 0x40 MSTORE DUP1 PUSH1 0x0 DUP2 MSTORE POP DUP2 MSTORE PUSH1 0x20 ADD PUSH1 0x0 DUP2 MSTORE POP PUSH1 0xA PUSH1 0x0 DUP5 DUP2 MSTORE PUSH1 0x20 ADD SWAP1 DUP2 MSTORE PUSH1 0x20 ADD PUSH1 0x0 KECCAK256 PUSH1 0x0 DUP4 DUP2 MSTORE PUSH1 0x20 ADD SWAP1 DUP2 MSTORE PUSH1 0x20 ADD PUSH1 0x0 KECCAK256 PUSH1 0x0 DUP3 ADD MLOAD DUP2 PUSH1 0x0 ADD SSTORE PUSH1 0x20 DUP3 ADD MLOAD DUP2 PUSH1 0x1 ADD SWAP1 DUP1 MLOAD SWAP1 PUSH1 0x20 ADD SWAP1 PUSH3 0x56D SWAP3 SWAP2 SWAP1 PUSH3 0x6C8 JUMP JUMPDEST POP PUSH1 0x40 DUP3 ADD MLOAD DUP2 PUSH1 0x2 ADD SSTORE SWAP1 POP POP DUP1 DUP1 PUSH3 0x588 SWAP1 PUSH3 0x7B8 JUMP JUMPDEST SWAP2 POP POP PUSH3 0x4EC JUMP JUMPDEST POP DUP1 DUP1 PUSH3 0x59F SWAP1 PUSH3 0x7B8 JUMP JUMPDEST SWAP2 POP POP PUSH3 0x4DB JUMP JUMPDEST POP JUMP JUMPDEST PUSH1 0x1 PUSH1 0x0 DUP2 SLOAD DUP1 SWAP3 SWAP2 SWAP1 PUSH3 0x5C0 SWAP1 PUSH3 0x7B8 JUMP JUMPDEST SWAP2 SWAP1 POP SSTORE POP PUSH1 0x40 MLOAD DUP1 PUSH1 0x60 ADD PUSH1 0x40 MSTORE DUP1 PUSH1 0x1 SLOAD DUP2 MSTORE PUSH1 0x20 ADD DUP3 DUP2 MSTORE PUSH1 0x20 ADD PUSH1 0x0 DUP2 MSTORE POP PUSH1 0x6 PUSH1 0x0 PUSH1 0x1 SLOAD DUP2 MSTORE PUSH1 0x20 ADD SWAP1 DUP2 MSTORE PUSH1 0x20 ADD PUSH1 0x0 KECCAK256 PUSH1 0x0 DUP3 ADD MLOAD DUP2 PUSH1 0x0 ADD SSTORE PUSH1 0x20 DUP3 ADD MLOAD DUP2 PUSH1 0x1 ADD SWAP1 DUP1 MLOAD SWAP1 PUSH1 0x20 ADD SWAP1 PUSH3 0x620 SWAP3 SWAP2 SWAP1 PUSH3 0x6C8 JUMP JUMPDEST POP PUSH1 0x40 DUP3 ADD MLOAD DUP2 PUSH1 0x2 ADD SSTORE SWAP1 POP POP POP JUMP JUMPDEST PUSH1 0x2 PUSH1 0x0 DUP2 SLOAD DUP1 SWAP3 SWAP2 SWAP1 PUSH3 0x646 SWAP1 PUSH3 0x7B8 JUMP JUMPDEST SWAP2 SWAP1 POP SSTORE POP PUSH1 0x40 MLOAD DUP1 PUSH1 0x80 ADD PUSH1 0x40 MSTORE DUP1 PUSH1 0x2 SLOAD DUP2 MSTORE PUSH1 0x20 ADD DUP3 DUP2 MSTORE PUSH1 0x20 ADD PUSH1 0x0 DUP2 MSTORE PUSH1 0x20 ADD PUSH1 0x0 DUP2 MSTORE POP PUSH1 0x7 PUSH1 0x0 PUSH1 0x2 SLOAD DUP2 MSTORE PUSH1 0x20 ADD SWAP1 DUP2 MSTORE PUSH1 0x20 ADD PUSH1 0x0 KECCAK256 PUSH1 0x0 DUP3 ADD MLOAD DUP2 PUSH1 0x0 ADD SSTORE PUSH1 0x20 DUP3 ADD MLOAD DUP2 PUSH1 0x1 ADD SWAP1 DUP1 MLOAD SWAP1 PUSH1 0x20 ADD SWAP1 PUSH3 0x6AD SWAP3 SWAP2 SWAP1 PUSH3 0x6C8 JUMP JUMPDEST POP PUSH1 0x40 DUP3 ADD MLOAD DUP2 PUSH1 0x2 ADD SSTORE PUSH1 0x60 DUP3 ADD MLOAD DUP2 PUSH1 0x3 ADD SSTORE SWAP1 POP POP POP JUMP JUMPDEST DUP3 DUP1 SLOAD PUSH3 0x6D6 SWAP1 PUSH3 0x782 JUMP JUMPDEST SWAP1 PUSH1 0x0 MSTORE PUSH1 0x20 PUSH1 0x0 KECCAK256 SWAP1 PUSH1 0x1F ADD PUSH1 0x20 SWAP1 DIV DUP2 ADD SWAP3 DUP3 PUSH3 0x6FA JUMPI PUSH1 0x0 DUP6 SSTORE PUSH3 0x746 JUMP JUMPDEST DUP3 PUSH1 0x1F LT PUSH3 0x715 JUMPI DUP1 MLOAD PUSH1 0xFF NOT AND DUP4 DUP1 ADD OR DUP6 SSTORE PUSH3 0x746 JUMP JUMPDEST DUP3 DUP1 ADD PUSH1 0x1 ADD DUP6 SSTORE DUP3 ISZERO PUSH3 0x746 JUMPI SWAP2 DUP3 ADD JUMPDEST DUP3 DUP2 GT ISZERO PUSH3 0x745 JUMPI DUP3 MLOAD DUP3 SSTORE SWAP2 PUSH1 0x20 ADD SWAP2 SWAP1 PUSH1 0x1 ADD SWAP1 PUSH3 0x728 JUMP JUMPDEST JUMPDEST POP SWAP1 POP PUSH3 0x755 SWAP2 SWAP1 PUSH3 0x759 JUMP JUMPDEST POP SWAP1 JUMP JUMPDEST JUMPDEST DUP1 DUP3 GT ISZERO PUSH3 0x774 JUMPI PUSH1 0x0 DUP2 PUSH1 0x0 SWAP1 SSTORE POP PUSH1 0x1 ADD PUSH3 0x75A JUMP JUMPDEST POP SWAP1 JUMP JUMPDEST PUSH1 0x0 DUP2 SWAP1 POP SWAP2 SWAP1 POP JUMP JUMPDEST PUSH1 0x0 PUSH1 0x2 DUP3 DIV SWAP1 POP PUSH1 0x1 DUP3 AND DUP1 PUSH3 0x79B JUMPI PUSH1 0x7F DUP3 AND SWAP2 POP JUMPDEST PUSH1 0x20 DUP3 LT DUP2 EQ ISZERO PUSH3 0x7B2 JUMPI PUSH3 0x7B1 PUSH3 0x864 JUMP JUMPDEST JUMPDEST POP SWAP2 SWAP1 POP JUMP JUMPDEST PUSH1 0x0 PUSH3 0x7C5 DUP3 PUSH3 0x778 JUMP JUMPDEST SWAP2 POP PUSH32 0xFFFFFFFFFFFFFFFFFFFFFFFFFFFFFFFFFFFFFFFFFFFFFFFFFFFFFFFFFFFFFFFF DUP3 EQ ISZERO PUSH3 0x7FB JUMPI PUSH3 0x7FA PUSH3 0x806 JUMP JUMPDEST JUMPDEST PUSH1 0x1 DUP3 ADD SWAP1 POP SWAP2 SWAP1 POP JUMP JUMPDEST PUSH32 0x4E487B7100000000000000000000000000000000000000000000000000000000 PUSH1 0x0 MSTORE PUSH1 0x11 PUSH1 0x4 MSTORE PUSH1 0x24 PUSH1 0x0 REVERT JUMPDEST PUSH32 0x4E487B7100000000000000000000000000000000000000000000000000000000 PUSH1 0x0 MSTORE PUSH1 0x21 PUSH1 0x4 MSTORE PUSH1 0x24 PUSH1 0x0 REVERT JUMPDEST PUSH32 0x4E487B7100000000000000000000000000000000000000000000000000000000 PUSH1 0x0 MSTORE PUSH1 0x22 PUSH1 0x4 MSTORE PUSH1 0x24 PUSH1 0x0 REVERT JUMPDEST PUSH2 0x13C5 DUP1 PUSH3 0x8A3 PUSH1 0x0 CODECOPY PUSH1 0x0 RETURN INVALID PUSH1 0x80 PUSH1 0x40 MSTORE CALLVALUE DUP1 ISZERO PUSH2 0x10 JUMPI PUSH1 0x0 DUP1 REVERT JUMPDEST POP PUSH1 0x4 CALLDATASIZE LT PUSH2 0xF4 JUMPI PUSH1 0x0 CALLDATALOAD PUSH1 0xE0 SHR DUP1 PUSH4 0xA3EC138D GT PUSH2 0x97 JUMPI DUP1 PUSH4 0xD70C6F4E GT PUSH2 0x66 JUMPI DUP1 PUSH4 0xD70C6F4E EQ PUSH2 0x267 JUMPI DUP1 PUSH4 0xDF9F1A07 EQ PUSH2 0x299 JUMPI DUP1 PUSH4 0xF3A8286F EQ PUSH2 0x2B7 JUMPI DUP1 PUSH4 0xFE2442D7 EQ PUSH2 0x2D5 JUMPI PUSH2 0xF4 JUMP JUMPDEST DUP1 PUSH4 0xA3EC138D EQ PUSH2 0x1F3 JUMPI DUP1 PUSH4 0xB9223946 EQ PUSH2 0x223 JUMPI DUP1 PUSH4 0xB9F05F2F EQ PUSH2 0x22D JUMPI DUP1 PUSH4 0xC19D93FB EQ PUSH2 0x249 JUMPI PUSH2 0xF4 JUMP JUMPDEST DUP1 PUSH4 0x3477EE2E GT PUSH2 0xD3 JUMPI DUP1 PUSH4 0x3477EE2E EQ PUSH2 0x165 JUMPI DUP1 PUSH4 0x4763D4E7 EQ PUSH2 0x197 JUMPI DUP1 PUSH4 0x4C0A6AF0 EQ PUSH2 0x1CB JUMPI DUP1 PUSH4 0x53357AD0 EQ PUSH2 0x1D5 JUMPI PUSH2 0xF4 JUMP JUMPDEST DUP1 PUSH3 0xAA7464 EQ PUSH2 0xF9 JUMPI DUP1 PUSH4 0x2C0A3F89 EQ PUSH2 0x117 JUMPI DUP1 PUSH4 0x2D35A8A2 EQ PUSH2 0x147 JUMPI JUMPDEST PUSH1 0x0 DUP1 REVERT JUMPDEST PUSH2 0x101 PUSH2 0x308 JUMP JUMPDEST PUSH1 0x40 MLOAD PUSH2 0x10E SWAP2 SWAP1 PUSH2 0x1056 JUMP JUMPDEST PUSH1 0x40 MLOAD DUP1 SWAP2 SUB SWAP1 RETURN JUMPDEST PUSH2 0x131 PUSH1 0x4 DUP1 CALLDATASIZE SUB DUP2 ADD SWAP1 PUSH2 0x12C SWAP2 SWAP1 PUSH2 0xE77 JUMP JUMPDEST PUSH2 0x30E JUMP JUMPDEST PUSH1 0x40 MLOAD PUSH2 0x13E SWAP2 SWAP1 PUSH2 0xF8D JUMP JUMPDEST PUSH1 0x40 MLOAD DUP1 SWAP2 SUB SWAP1 RETURN JUMPDEST PUSH2 0x14F PUSH2 0x5FE JUMP JUMPDEST PUSH1 0x40 MLOAD PUSH2 0x15C SWAP2 SWAP1 PUSH2 0x1056 JUMP JUMPDEST PUSH1 0x40 MLOAD DUP1 SWAP2 SUB SWAP1 RETURN JUMPDEST PUSH2 0x17F PUSH1 0x4 DUP1 CALLDATASIZE SUB DUP2 ADD SWAP1 PUSH2 0x17A SWAP2 SWAP1 PUSH2 0xE4A JUMP JUMPDEST PUSH2 0x604 JUMP JUMPDEST PUSH1 0x40 MLOAD PUSH2 0x18E SWAP4 SWAP3 SWAP2 SWAP1 PUSH2 0x1071 JUMP JUMPDEST PUSH1 0x40 MLOAD DUP1 SWAP2 SUB SWAP1 RETURN JUMPDEST PUSH2 0x1B1 PUSH1 0x4 DUP1 CALLDATASIZE SUB DUP2 ADD SWAP1 PUSH2 0x1AC SWAP2 SWAP1 PUSH2 0xDDD JUMP JUMPDEST PUSH2 0x6B6 JUMP JUMPDEST PUSH1 0x40 MLOAD PUSH2 0x1C2 SWAP6 SWAP5 SWAP4 SWAP3 SWAP2 SWAP1 PUSH2 0xFA8 JUMP JUMPDEST PUSH1 0x40 MLOAD DUP1 SWAP2 SUB SWAP1 RETURN JUMPDEST PUSH2 0x1D3 PUSH2 0x706 JUMP JUMPDEST STOP JUMPDEST PUSH2 0x1DD PUSH2 0x7CD JUMP JUMPDEST PUSH1 0x40 MLOAD PUSH2 0x1EA SWAP2 SWAP1 PUSH2 0xF72 JUMP JUMPDEST PUSH1 0x40 MLOAD DUP1 SWAP2 SUB SWAP1 RETURN JUMPDEST PUSH2 0x20D PUSH1 0x4 DUP1 CALLDATASIZE SUB DUP2 ADD SWAP1 PUSH2 0x208 SWAP2 SWAP1 PUSH2 0xDDD JUMP JUMPDEST PUSH2 0x7F1 JUMP JUMPDEST PUSH1 0x40 MLOAD PUSH2 0x21A SWAP2 SWAP1 PUSH2 0xF8D JUMP JUMPDEST PUSH1 0x40 MLOAD DUP1 SWAP2 SUB SWAP1 RETURN JUMPDEST PUSH2 0x22B PUSH2 0x811 JUMP JUMPDEST STOP JUMPDEST PUSH2 0x247 PUSH1 0x4 DUP1 CALLDATASIZE SUB DUP2 ADD SWAP1 PUSH2 0x242 SWAP2 SWAP1 PUSH2 0xE0A JUMP JUMPDEST PUSH2 0x8E1 JUMP JUMPDEST STOP JUMPDEST PUSH2 0x251 PUSH2 0xB74 JUMP JUMPDEST PUSH1 0x40 MLOAD PUSH2 0x25E SWAP2 SWAP1 PUSH2 0xFFB JUMP JUMPDEST PUSH1 0x40 MLOAD DUP1 SWAP2 SUB SWAP1 RETURN JUMPDEST PUSH2 0x281 PUSH1 0x4 DUP1 CALLDATASIZE SUB DUP2 ADD SWAP1 PUSH2 0x27C SWAP2 SWAP1 PUSH2 0xE77 JUMP JUMPDEST PUSH2 0xB87 JUMP JUMPDEST PUSH1 0x40 MLOAD PUSH2 0x290 SWAP4 SWAP3 SWAP2 SWAP1 PUSH2 0x1071 JUMP JUMPDEST PUSH1 0x40 MLOAD DUP1 SWAP2 SUB SWAP1 RETURN JUMPDEST PUSH2 0x2A1 PUSH2 0xC46 JUMP JUMPDEST PUSH1 0x40 MLOAD PUSH2 0x2AE SWAP2 SWAP1 PUSH2 0x1056 JUMP JUMPDEST PUSH1 0x40 MLOAD DUP1 SWAP2 SUB SWAP1 RETURN JUMPDEST PUSH2 0x2BF PUSH2 0xC4C JUMP JUMPDEST PUSH1 0x40 MLOAD PUSH2 0x2CC SWAP2 SWAP1 PUSH2 0x1056 JUMP JUMPDEST PUSH1 0x40 MLOAD DUP1 SWAP2 SUB SWAP1 RETURN JUMPDEST PUSH2 0x2EF PUSH1 0x4 DUP1 CALLDATASIZE SUB DUP2 ADD SWAP1 PUSH2 0x2EA SWAP2 SWAP1 PUSH2 0xE4A JUMP JUMPDEST PUSH2 0xC52 JUMP JUMPDEST PUSH1 0x40 MLOAD PUSH2 0x2FF SWAP5 SWAP4 SWAP3 SWAP2 SWAP1 PUSH2 0x10AF JUMP JUMPDEST PUSH1 0x40 MLOAD DUP1 SWAP2 SUB SWAP1 RETURN JUMPDEST PUSH1 0x3 SLOAD DUP2 JUMP JUMPDEST PUSH1 0x0 PUSH1 0x1 DUP1 PUSH1 0x2 DUP2 GT ISZERO PUSH2 0x325 JUMPI PUSH2 0x324 PUSH2 0x1261 JUMP JUMPDEST JUMPDEST PUSH1 0xB PUSH1 0x0 SWAP1 SLOAD SWAP1 PUSH2 0x100 EXP SWAP1 DIV PUSH1 0xFF AND PUSH1 0x2 DUP2 GT ISZERO PUSH2 0x347 JUMPI PUSH2 0x346 PUSH2 0x1261 JUMP JUMPDEST JUMPDEST EQ PUSH2 0x351 JUMPI PUSH1 0x0 DUP1 REVERT JUMPDEST PUSH1 0x0 PUSH1 0x8 PUSH1 0x0 CALLER PUSH20 0xFFFFFFFFFFFFFFFFFFFFFFFFFFFFFFFFFFFFFFFF AND PUSH20 0xFFFFFFFFFFFFFFFFFFFFFFFFFFFFFFFFFFFFFFFF AND DUP2 MSTORE PUSH1 0x20 ADD SWAP1 DUP2 MSTORE PUSH1 0x20 ADD PUSH1 0x0 KECCAK256 PUSH1 0x0 ADD PUSH1 0x0 SWAP1 SLOAD SWAP1 PUSH2 0x100 EXP SWAP1 DIV PUSH1 0xFF AND DUP1 ISZERO PUSH2 0x3FC JUMPI POP PUSH1 0x8 PUSH1 0x0 CALLER PUSH20 0xFFFFFFFFFFFFFFFFFFFFFFFFFFFFFFFFFFFFFFFF AND PUSH20 0xFFFFFFFFFFFFFFFFFFFFFFFFFFFFFFFFFFFFFFFF AND DUP2 MSTORE PUSH1 0x20 ADD SWAP1 DUP2 MSTORE PUSH1 0x20 ADD PUSH1 0x0 KECCAK256 PUSH1 0x0 ADD PUSH1 0x1 SWAP1 SLOAD SWAP1 PUSH2 0x100 EXP SWAP1 DIV PUSH1 0xFF AND ISZERO JUMPDEST ISZERO PUSH2 0x5F3 JUMPI DUP5 PUSH1 0x8 PUSH1 0x0 CALLER PUSH20 0xFFFFFFFFFFFFFFFFFFFFFFFFFFFFFFFFFFFFFFFF AND PUSH20 0xFFFFFFFFFFFFFFFFFFFFFFFFFFFFFFFFFFFFFFFF AND DUP2 MSTORE PUSH1 0x20 ADD SWAP1 DUP2 MSTORE PUSH1 0x20 ADD PUSH1 0x0 KECCAK256 PUSH1 0x1 ADD DUP2 SWAP1 SSTORE POP DUP4 PUSH1 0x8 PUSH1 0x0 CALLER PUSH20 0xFFFFFFFFFFFFFFFFFFFFFFFFFFFFFFFFFFFFFFFF AND PUSH20 0xFFFFFFFFFFFFFFFFFFFFFFFFFFFFFFFFFFFFFFFF AND DUP2 MSTORE PUSH1 0x20 ADD SWAP1 DUP2 MSTORE PUSH1 0x20 ADD PUSH1 0x0 KECCAK256 PUSH1 0x3 ADD DUP2 SWAP1 SSTORE POP PUSH1 0x1 PUSH1 0x8 PUSH1 0x0 CALLER PUSH20 0xFFFFFFFFFFFFFFFFFFFFFFFFFFFFFFFFFFFFFFFF AND PUSH20 0xFFFFFFFFFFFFFFFFFFFFFFFFFFFFFFFFFFFFFFFF AND DUP2 MSTORE PUSH1 0x20 ADD SWAP1 DUP2 MSTORE PUSH1 0x20 ADD PUSH1 0x0 KECCAK256 PUSH1 0x0 ADD PUSH1 0x1 PUSH2 0x100 EXP DUP2 SLOAD DUP2 PUSH1 0xFF MUL NOT AND SWAP1 DUP4 ISZERO ISZERO MUL OR SWAP1 SSTORE POP PUSH1 0x7 PUSH1 0x0 DUP6 DUP2 MSTORE PUSH1 0x20 ADD SWAP1 DUP2 MSTORE PUSH1 0x20 ADD PUSH1 0x0 KECCAK256 PUSH1 0x3 ADD PUSH1 0x0 DUP2 SLOAD DUP1 SWAP3 SWAP2 SWAP1 PUSH2 0x511 SWAP1 PUSH2 0x11E9 JUMP JUMPDEST SWAP2 SWAP1 POP SSTORE POP PUSH1 0x6 PUSH1 0x0 DUP7 DUP2 MSTORE PUSH1 0x20 ADD SWAP1 DUP2 MSTORE PUSH1 0x20 ADD PUSH1 0x0 KECCAK256 PUSH1 0x2 ADD PUSH1 0x0 DUP2 SLOAD DUP1 SWAP3 SWAP2 SWAP1 PUSH2 0x53D SWAP1 PUSH2 0x11E9 JUMP JUMPDEST SWAP2 SWAP1 POP SSTORE POP PUSH1 0x4 PUSH1 0x0 DUP2 SLOAD DUP1 SWAP3 SWAP2 SWAP1 PUSH2 0x555 SWAP1 PUSH2 0x11E9 JUMP JUMPDEST SWAP2 SWAP1 POP SSTORE POP PUSH1 0x1 SWAP1 POP DUP1 PUSH1 0x9 PUSH1 0x0 CALLER PUSH20 0xFFFFFFFFFFFFFFFFFFFFFFFFFFFFFFFFFFFFFFFF AND PUSH20 0xFFFFFFFFFFFFFFFFFFFFFFFFFFFFFFFFFFFFFFFF AND DUP2 MSTORE PUSH1 0x20 ADD SWAP1 DUP2 MSTORE PUSH1 0x20 ADD PUSH1 0x0 KECCAK256 PUSH1 0x0 PUSH2 0x100 EXP DUP2 SLOAD DUP2 PUSH1 0xFF MUL NOT AND SWAP1 DUP4 ISZERO ISZERO MUL OR SWAP1 SSTORE POP PUSH1 0xA PUSH1 0x0 DUP6 DUP2 MSTORE PUSH1 0x20 ADD SWAP1 DUP2 MSTORE PUSH1 0x20 ADD PUSH1 0x0 KECCAK256 PUSH1 0x0 DUP7 DUP2 MSTORE PUSH1 0x20 ADD SWAP1 DUP2 MSTORE PUSH1 0x20 ADD PUSH1 0x0 KECCAK256 PUSH1 0x2 ADD PUSH1 0x0 DUP2 SLOAD DUP1 SWAP3 SWAP2 SWAP1 PUSH2 0x5ED SWAP1 PUSH2 0x11E9 JUMP JUMPDEST SWAP2 SWAP1 POP SSTORE POP JUMPDEST DUP1 SWAP3 POP POP POP SWAP3 SWAP2 POP POP JUMP JUMPDEST PUSH1 0x1 SLOAD DUP2 JUMP JUMPDEST PUSH1 0x6 PUSH1 0x20 MSTORE DUP1 PUSH1 0x0 MSTORE PUSH1 0x40 PUSH1 0x0 KECCAK256 PUSH1 0x0 SWAP2 POP SWAP1 POP DUP1 PUSH1 0x0 ADD SLOAD SWAP1 DUP1 PUSH1 0x1 ADD DUP1 SLOAD PUSH2 0x62D SWAP1 PUSH2 0x11B7 JUMP JUMPDEST DUP1 PUSH1 0x1F ADD PUSH1 0x20 DUP1 SWAP2 DIV MUL PUSH1 0x20 ADD PUSH1 0x40 MLOAD SWAP1 DUP2 ADD PUSH1 0x40 MSTORE DUP1 SWAP3 SWAP2 SWAP1 DUP2 DUP2 MSTORE PUSH1 0x20 ADD DUP3 DUP1 SLOAD PUSH2 0x659 SWAP1 PUSH2 0x11B7 JUMP JUMPDEST DUP1 ISZERO PUSH2 0x6A6 JUMPI DUP1 PUSH1 0x1F LT PUSH2 0x67B JUMPI PUSH2 0x100 DUP1 DUP4 SLOAD DIV MUL DUP4 MSTORE SWAP2 PUSH1 0x20 ADD SWAP2 PUSH2 0x6A6 JUMP JUMPDEST DUP3 ADD SWAP2 SWAP1 PUSH1 0x0 MSTORE PUSH1 0x20 PUSH1 0x0 KECCAK256 SWAP1 JUMPDEST DUP2 SLOAD DUP2 MSTORE SWAP1 PUSH1 0x1 ADD SWAP1 PUSH1 0x20 ADD DUP1 DUP4 GT PUSH2 0x689 JUMPI DUP3 SWAP1 SUB PUSH1 0x1F AND DUP3 ADD SWAP2 JUMPDEST POP POP POP POP POP SWAP1 DUP1 PUSH1 0x2 ADD SLOAD SWAP1 POP DUP4 JUMP JUMPDEST PUSH1 0x8 PUSH1 0x20 MSTORE DUP1 PUSH1 0x0 MSTORE PUSH1 0x40 PUSH1 0x0 KECCAK256 PUSH1 0x0 SWAP2 POP SWAP1 POP DUP1 PUSH1 0x0 ADD PUSH1 0x0 SWAP1 SLOAD SWAP1 PUSH2 0x100 EXP SWAP1 DIV PUSH1 0xFF AND SWAP1 DUP1 PUSH1 0x0 ADD PUSH1 0x1 SWAP1 SLOAD SWAP1 PUSH2 0x100 EXP SWAP1 DIV PUSH1 0xFF AND SWAP1 DUP1 PUSH1 0x1 ADD SLOAD SWAP1 DUP1 PUSH1 0x2 ADD SLOAD SWAP1 DUP1 PUSH1 0x3 ADD SLOAD SWAP1 POP DUP6 JUMP JUMPDEST PUSH1 0x0 DUP1 PUSH1 0x2 DUP2 GT ISZERO PUSH2 0x71B JUMPI PUSH2 0x71A PUSH2 0x1261 JUMP JUMPDEST JUMPDEST PUSH1 0xB PUSH1 0x0 SWAP1 SLOAD SWAP1 PUSH2 0x100 EXP SWAP1 DIV PUSH1 0xFF AND PUSH1 0x2 DUP2 GT ISZERO PUSH2 0x73D JUMPI PUSH2 0x73C PUSH2 0x1261 JUMP JUMPDEST JUMPDEST EQ PUSH2 0x747 JUMPI PUSH1 0x0 DUP1 REVERT JUMPDEST PUSH1 0x0 DUP1 SLOAD SWAP1 PUSH2 0x100 EXP SWAP1 DIV PUSH20 0xFFFFFFFFFFFFFFFFFFFFFFFFFFFFFFFFFFFFFFFF AND PUSH20 0xFFFFFFFFFFFFFFFFFFFFFFFFFFFFFFFFFFFFFFFF AND CALLER PUSH20 0xFFFFFFFFFFFFFFFFFFFFFFFFFFFFFFFFFFFFFFFF AND EQ PUSH2 0x79F JUMPI PUSH1 0x0 DUP1 REVERT JUMPDEST PUSH1 0x1 PUSH1 0xB PUSH1 0x0 PUSH2 0x100 EXP DUP2 SLOAD DUP2 PUSH1 0xFF MUL NOT AND SWAP1 DUP4 PUSH1 0x2 DUP2 GT ISZERO PUSH2 0x7C5 JUMPI PUSH2 0x7C4 PUSH2 0x1261 JUMP JUMPDEST JUMPDEST MUL OR SWAP1 SSTORE POP POP JUMP JUMPDEST PUSH1 0x0 DUP1 SLOAD SWAP1 PUSH2 0x100 EXP SWAP1 DIV PUSH20 0xFFFFFFFFFFFFFFFFFFFFFFFFFFFFFFFFFFFFFFFF AND DUP2 JUMP JUMPDEST PUSH1 0x9 PUSH1 0x20 MSTORE DUP1 PUSH1 0x0 MSTORE PUSH1 0x40 PUSH1 0x0 KECCAK256 PUSH1 0x0 SWAP2 POP SLOAD SWAP1 PUSH2 0x100 EXP SWAP1 DIV PUSH1 0xFF AND DUP2 JUMP JUMPDEST PUSH1 0x1 DUP1 PUSH1 0x2 DUP2 GT ISZERO PUSH2 0x826 JUMPI PUSH2 0x825 PUSH2 0x1261 JUMP JUMPDEST JUMPDEST PUSH1 0xB PUSH1 0x0 SWAP1 SLOAD SWAP1 PUSH2 0x100 EXP SWAP1 DIV PUSH1 0xFF AND PUSH1 0x2 DUP2 GT ISZERO PUSH2 0x848 JUMPI PUSH2 0x847 PUSH2 0x1261 JUMP JUMPDEST JUMPDEST EQ PUSH2 0x852 JUMPI PUSH1 0x0 DUP1 REVERT JUMPDEST PUSH1 0x0 DUP1 SLOAD SWAP1 PUSH2 0x100 EXP SWAP1 DIV PUSH20 0xFFFFFFFFFFFFFFFFFFFFFFFFFFFFFFFFFFFFFFFF AND PUSH20 0xFFFFFFFFFFFFFFFFFFFFFFFFFFFFFFFFFFFFFFFF AND CALLER PUSH20 0xFFFFFFFFFFFFFFFFFFFFFFFFFFFFFFFFFFFFFFFF AND EQ PUSH2 0x8AA JUMPI PUSH1 0x0 DUP1 REVERT JUMPDEST PUSH1 0x2 PUSH1 0xB PUSH1 0x0 PUSH2 0x100 EXP DUP2 SLOAD DUP2 PUSH1 0xFF MUL NOT AND SWAP1 DUP4 PUSH1 0x2 DUP2 GT ISZERO PUSH2 0x8D0 JUMPI PUSH2 0x8CF PUSH2 0x1261 JUMP JUMPDEST JUMPDEST MUL OR SWAP1 SSTORE POP PUSH1 0x4 SLOAD PUSH1 0x5 DUP2 SWAP1 SSTORE POP POP JUMP JUMPDEST PUSH1 0x0 DUP1 PUSH1 0x2 DUP2 GT ISZERO PUSH2 0x8F6 JUMPI PUSH2 0x8F5 PUSH2 0x1261 JUMP JUMPDEST JUMPDEST PUSH1 0xB PUSH1 0x0 SWAP1 SLOAD SWAP1 PUSH2 0x100 EXP SWAP1 DIV PUSH1 0xFF AND PUSH1 0x2 DUP2 GT ISZERO PUSH2 0x918 JUMPI PUSH2 0x917 PUSH2 0x1261 JUMP JUMPDEST JUMPDEST EQ PUSH2 0x922 JUMPI PUSH1 0x0 DUP1 REVERT JUMPDEST PUSH1 0x0 DUP1 SLOAD SWAP1 PUSH2 0x100 EXP SWAP1 DIV PUSH20 0xFFFFFFFFFFFFFFFFFFFFFFFFFFFFFFFFFFFFFFFF AND PUSH20 0xFFFFFFFFFFFFFFFFFFFFFFFFFFFFFFFFFFFFFFFF AND CALLER PUSH20 0xFFFFFFFFFFFFFFFFFFFFFFFFFFFFFFFFFFFFFFFF AND EQ PUSH2 0x97A JUMPI PUSH1 0x0 DUP1 REVERT JUMPDEST PUSH1 0x0 ISZERO ISZERO PUSH1 0x8 PUSH1 0x0 DUP6 PUSH20 0xFFFFFFFFFFFFFFFFFFFFFFFFFFFFFFFFFFFFFFFF AND PUSH20 0xFFFFFFFFFFFFFFFFFFFFFFFFFFFFFFFFFFFFFFFF AND DUP2 MSTORE PUSH1 0x20 ADD SWAP1 DUP2 MSTORE PUSH1 0x20 ADD PUSH1 0x0 KECCAK256 PUSH1 0x0 ADD PUSH1 0x0 SWAP1 SLOAD SWAP1 PUSH2 0x100 EXP SWAP1 DIV PUSH1 0xFF AND ISZERO ISZERO EQ PUSH2 0xA10 JUMPI PUSH1 0x40 MLOAD PUSH32 0x8C379A000000000000000000000000000000000000000000000000000000000 DUP2 MSTORE PUSH1 0x4 ADD PUSH2 0xA07 SWAP1 PUSH2 0x1036 JUMP JUMPDEST PUSH1 0x40 MLOAD DUP1 SWAP2 SUB SWAP1 REVERT JUMPDEST PUSH1 0x1 DUP3 LT ISZERO DUP1 ISZERO PUSH2 0xA23 JUMPI POP PUSH1 0x2 SLOAD DUP3 GT ISZERO JUMPDEST PUSH2 0xA62 JUMPI PUSH1 0x40 MLOAD PUSH32 0x8C379A000000000000000000000000000000000000000000000000000000000 DUP2 MSTORE PUSH1 0x4 ADD PUSH2 0xA59 SWAP1 PUSH2 0x1016 JUMP JUMPDEST PUSH1 0x40 MLOAD DUP1 SWAP2 SUB SWAP1 REVERT JUMPDEST PUSH2 0xA6A PUSH2 0xD80 JUMP JUMPDEST PUSH1 0x1 DUP2 PUSH1 0x0 ADD SWAP1 ISZERO ISZERO SWAP1 DUP2 ISZERO ISZERO DUP2 MSTORE POP POP PUSH1 0x0 DUP2 PUSH1 0x20 ADD SWAP1 ISZERO ISZERO SWAP1 DUP2 ISZERO ISZERO DUP2 MSTORE POP POP PUSH1 0x0 DUP2 PUSH1 0x40 ADD DUP2 DUP2 MSTORE POP POP DUP3 DUP2 PUSH1 0x60 ADD DUP2 DUP2 MSTORE POP POP PUSH1 0x0 DUP2 PUSH1 0x80 ADD DUP2 DUP2 MSTORE POP POP DUP1 PUSH1 0x8 PUSH1 0x0 DUP7 PUSH20 0xFFFFFFFFFFFFFFFFFFFFFFFFFFFFFFFFFFFFFFFF AND PUSH20 0xFFFFFFFFFFFFFFFFFFFFFFFFFFFFFFFFFFFFFFFF AND DUP2 MSTORE PUSH1 0x20 ADD SWAP1 DUP2 MSTORE PUSH1 0x20 ADD PUSH1 0x0 KECCAK256 PUSH1 0x0 DUP3 ADD MLOAD DUP2 PUSH1 0x0 ADD PUSH1 0x0 PUSH2 0x100 EXP DUP2 SLOAD DUP2 PUSH1 0xFF MUL NOT AND SWAP1 DUP4 ISZERO ISZERO MUL OR SWAP1 SSTORE POP PUSH1 0x20 DUP3 ADD MLOAD DUP2 PUSH1 0x0 ADD PUSH1 0x1 PUSH2 0x100 EXP DUP2 SLOAD DUP2 PUSH1 0xFF MUL NOT AND SWAP1 DUP4 ISZERO ISZERO MUL OR SWAP1 SSTORE POP PUSH1 0x40 DUP3 ADD MLOAD DUP2 PUSH1 0x1 ADD SSTORE PUSH1 0x60 DUP3 ADD MLOAD DUP2 PUSH1 0x2 ADD SSTORE PUSH1 0x80 DUP3 ADD MLOAD DUP2 PUSH1 0x3 ADD SSTORE SWAP1 POP POP PUSH2 0xB56 DUP4 PUSH2 0xD0A JUMP JUMPDEST PUSH1 0x3 PUSH1 0x0 DUP2 SLOAD DUP1 SWAP3 SWAP2 SWAP1 PUSH2 0xB69 SWAP1 PUSH2 0x11E9 JUMP JUMPDEST SWAP2 SWAP1 POP SSTORE POP POP POP POP POP JUMP JUMPDEST PUSH1 0xB PUSH1 0x0 SWAP1 SLOAD SWAP1 PUSH2 0x100 EXP SWAP1 DIV PUSH1 0xFF AND DUP2 JUMP JUMPDEST PUSH1 0xA PUSH1 0x20 MSTORE DUP2 PUSH1 0x0 MSTORE PUSH1 0x40 PUSH1 0x0 KECCAK256 PUSH1 0x20 MSTORE DUP1 PUSH1 0x0 MSTORE PUSH1 0x40 PUSH1 0x0 KECCAK256 PUSH1 0x0 SWAP2 POP SWAP2 POP POP DUP1 PUSH1 0x0 ADD SLOAD SWAP1 DUP1 PUSH1 0x1 ADD DUP1 SLOAD PUSH2 0xBBD SWAP1 PUSH2 0x11B7 JUMP JUMPDEST DUP1 PUSH1 0x1F ADD PUSH1 0x20 DUP1 SWAP2 DIV MUL PUSH1 0x20 ADD PUSH1 0x40 MLOAD SWAP1 DUP2 ADD PUSH1 0x40 MSTORE DUP1 SWAP3 SWAP2 SWAP1 DUP2 DUP2 MSTORE PUSH1 0x20 ADD DUP3 DUP1 SLOAD PUSH2 0xBE9 SWAP1 PUSH2 0x11B7 JUMP JUMPDEST DUP1 ISZERO PUSH2 0xC36 JUMPI DUP1 PUSH1 0x1F LT PUSH2 0xC0B JUMPI PUSH2 0x100 DUP1 DUP4 SLOAD DIV MUL DUP4 MSTORE SWAP2 PUSH1 0x20 ADD SWAP2 PUSH2 0xC36 JUMP JUMPDEST DUP3 ADD SWAP2 SWAP1 PUSH1 0x0 MSTORE PUSH1 0x20 PUSH1 0x0 KECCAK256 SWAP1 JUMPDEST DUP2 SLOAD DUP2 MSTORE SWAP1 PUSH1 0x1 ADD SWAP1 PUSH1 0x20 ADD DUP1 DUP4 GT PUSH2 0xC19 JUMPI DUP3 SWAP1 SUB PUSH1 0x1F AND DUP3 ADD SWAP2 JUMPDEST POP POP POP POP POP SWAP1 DUP1 PUSH1 0x2 ADD SLOAD SWAP1 POP DUP4 JUMP JUMPDEST PUSH1 0x2 SLOAD DUP2 JUMP JUMPDEST PUSH1 0x5 SLOAD DUP2 JUMP JUMPDEST PUSH1 0x7 PUSH1 0x20 MSTORE DUP1 PUSH1 0x0 MSTORE PUSH1 0x40 PUSH1 0x0 KECCAK256 PUSH1 0x0 SWAP2 POP SWAP1 POP DUP1 PUSH1 0x0 ADD SLOAD SWAP1 DUP1 PUSH1 0x1 ADD DUP1 SLOAD PUSH2 0xC7B SWAP1 PUSH2 0x11B7 JUMP JUMPDEST DUP1 PUSH1 0x1F ADD PUSH1 0x20 DUP1 SWAP2 DIV MUL PUSH1 0x20 ADD PUSH1 0x40 MLOAD SWAP1 DUP2 ADD PUSH1 0x40 MSTORE DUP1 SWAP3 SWAP2 SWAP1 DUP2 DUP2 MSTORE PUSH1 0x20 ADD DUP3 DUP1 SLOAD PUSH2 0xCA7 SWAP1 PUSH2 0x11B7 JUMP JUMPDEST DUP1 ISZERO PUSH2 0xCF4 JUMPI DUP1 PUSH1 0x1F LT PUSH2 0xCC9 JUMPI PUSH2 0x100 DUP1 DUP4 SLOAD DIV MUL DUP4 MSTORE SWAP2 PUSH1 0x20 ADD SWAP2 PUSH2 0xCF4 JUMP JUMPDEST DUP3 ADD SWAP2 SWAP1 PUSH1 0x0 MSTORE PUSH1 0x20 PUSH1 0x0 KECCAK256 SWAP1 JUMPDEST DUP2 SLOAD DUP2 MSTORE SWAP1 PUSH1 0x1 ADD SWAP1 PUSH1 0x20 ADD DUP1 DUP4 GT PUSH2 0xCD7 JUMPI DUP3 SWAP1 SUB PUSH1 0x1F AND DUP3 ADD SWAP2 JUMPDEST POP POP POP POP POP SWAP1 DUP1 PUSH1 0x2 ADD SLOAD SWAP1 DUP1 PUSH1 0x3 ADD SLOAD SWAP1 POP DUP5 JUMP JUMPDEST PUSH1 0x0 PUSH1 0x1 SWAP1 POP JUMPDEST PUSH1 0x2 SLOAD DUP2 GT PUSH2 0xD7C JUMPI DUP2 PUSH1 0x7 PUSH1 0x0 DUP4 DUP2 MSTORE PUSH1 0x20 ADD SWAP1 DUP2 MSTORE PUSH1 0x20 ADD PUSH1 0x0 KECCAK256 PUSH1 0x0 ADD SLOAD EQ ISZERO PUSH2 0xD69 JUMPI PUSH1 0x7 PUSH1 0x0 DUP3 DUP2 MSTORE PUSH1 0x20 ADD SWAP1 DUP2 MSTORE PUSH1 0x20 ADD PUSH1 0x0 KECCAK256 PUSH1 0x2 ADD PUSH1 0x0 DUP2 SLOAD DUP1 SWAP3 SWAP2 SWAP1 PUSH2 0xD5F SWAP1 PUSH2 0x11E9 JUMP JUMPDEST SWAP2 SWAP1 POP SSTORE POP PUSH2 0xD7C JUMP JUMPDEST DUP1 DUP1 PUSH2 0xD74 SWAP1 PUSH2 0x11E9 JUMP JUMPDEST SWAP2 POP POP PUSH2 0xD11 JUMP JUMPDEST POP POP JUMP JUMPDEST PUSH1 0x40 MLOAD DUP1 PUSH1 0xA0 ADD PUSH1 0x40 MSTORE DUP1 PUSH1 0x0 ISZERO ISZERO DUP2 MSTORE PUSH1 0x20 ADD PUSH1 0x0 ISZERO ISZERO DUP2 MSTORE PUSH1 0x20 ADD PUSH1 0x0 DUP2 MSTORE PUSH1 0x20 ADD PUSH1 0x0 DUP2 MSTORE PUSH1 0x20 ADD PUSH1 0x0 DUP2 MSTORE POP SWAP1 JUMP JUMPDEST PUSH1 0x0 DUP2 CALLDATALOAD SWAP1 POP PUSH2 0xDC2 DUP2 PUSH2 0x1361 JUMP JUMPDEST SWAP3 SWAP2 POP POP JUMP JUMPDEST PUSH1 0x0 DUP2 CALLDATALOAD SWAP1 POP PUSH2 0xDD7 DUP2 PUSH2 0x1378 JUMP JUMPDEST SWAP3 SWAP2 POP POP JUMP JUMPDEST PUSH1 0x0 PUSH1 0x20 DUP3 DUP5 SUB SLT ISZERO PUSH2 0xDF3 JUMPI PUSH2 0xDF2 PUSH2 0x12BF JUMP JUMPDEST JUMPDEST PUSH1 0x0 PUSH2 0xE01 DUP5 DUP3 DUP6 ADD PUSH2 0xDB3 JUMP JUMPDEST SWAP2 POP POP SWAP3 SWAP2 POP POP JUMP JUMPDEST PUSH1 0x0 DUP1 PUSH1 0x40 DUP4 DUP6 SUB SLT ISZERO PUSH2 0xE21 JUMPI PUSH2 0xE20 PUSH2 0x12BF JUMP JUMPDEST JUMPDEST PUSH1 0x0 PUSH2 0xE2F DUP6 DUP3 DUP7 ADD PUSH2 0xDB3 JUMP JUMPDEST SWAP3 POP POP PUSH1 0x20 PUSH2 0xE40 DUP6 DUP3 DUP7 ADD PUSH2 0xDC8 JUMP JUMPDEST SWAP2 POP POP SWAP3 POP SWAP3 SWAP1 POP JUMP JUMPDEST PUSH1 0x0 PUSH1 0x20 DUP3 DUP5 SUB SLT ISZERO PUSH2 0xE60 JUMPI PUSH2 0xE5F PUSH2 0x12BF JUMP JUMPDEST JUMPDEST PUSH1 0x0 PUSH2 0xE6E DUP5 DUP3 DUP6 ADD PUSH2 0xDC8 JUMP JUMPDEST SWAP2 POP POP SWAP3 SWAP2 POP POP JUMP JUMPDEST PUSH1 0x0 DUP1 PUSH1 0x40 DUP4 DUP6 SUB SLT ISZERO PUSH2 0xE8E JUMPI PUSH2 0xE8D PUSH2 0x12BF JUMP JUMPDEST JUMPDEST PUSH1 0x0 PUSH2 0xE9C DUP6 DUP3 DUP7 ADD PUSH2 0xDC8 JUMP JUMPDEST SWAP3 POP POP PUSH1 0x20 PUSH2 0xEAD DUP6 DUP3 DUP7 ADD PUSH2 0xDC8 JUMP JUMPDEST SWAP2 POP POP SWAP3 POP SWAP3 SWAP1 POP JUMP JUMPDEST PUSH2 0xEC0 DUP2 PUSH2 0x1117 JUMP JUMPDEST DUP3 MSTORE POP POP JUMP JUMPDEST PUSH2 0xECF DUP2 PUSH2 0x1129 JUMP JUMPDEST DUP3 MSTORE POP POP JUMP JUMPDEST PUSH2 0xEDE DUP2 PUSH2 0x1172 JUMP JUMPDEST DUP3 MSTORE POP POP JUMP JUMPDEST PUSH1 0x0 PUSH2 0xEEF DUP3 PUSH2 0x10FB JUMP JUMPDEST PUSH2 0xEF9 DUP2 DUP6 PUSH2 0x1106 JUMP JUMPDEST SWAP4 POP PUSH2 0xF09 DUP2 DUP6 PUSH1 0x20 DUP7 ADD PUSH2 0x1184 JUMP JUMPDEST PUSH2 0xF12 DUP2 PUSH2 0x12C4 JUMP JUMPDEST DUP5 ADD SWAP2 POP POP SWAP3 SWAP2 POP POP JUMP JUMPDEST PUSH1 0x0 PUSH2 0xF2A PUSH1 0x2A DUP4 PUSH2 0x1106 JUMP JUMPDEST SWAP2 POP PUSH2 0xF35 DUP3 PUSH2 0x12D5 JUMP JUMPDEST PUSH1 0x40 DUP3 ADD SWAP1 POP SWAP2 SWAP1 POP JUMP JUMPDEST PUSH1 0x0 PUSH2 0xF4D PUSH1 0x1C DUP4 PUSH2 0x1106 JUMP JUMPDEST SWAP2 POP PUSH2 0xF58 DUP3 PUSH2 0x1324 JUMP JUMPDEST PUSH1 0x20 DUP3 ADD SWAP1 POP SWAP2 SWAP1 POP JUMP JUMPDEST PUSH2 0xF6C DUP2 PUSH2 0x1168 JUMP JUMPDEST DUP3 MSTORE POP POP JUMP JUMPDEST PUSH1 0x0 PUSH1 0x20 DUP3 ADD SWAP1 POP PUSH2 0xF87 PUSH1 0x0 DUP4 ADD DUP5 PUSH2 0xEB7 JUMP JUMPDEST SWAP3 SWAP2 POP POP JUMP JUMPDEST PUSH1 0x0 PUSH1 0x20 DUP3 ADD SWAP1 POP PUSH2 0xFA2 PUSH1 0x0 DUP4 ADD DUP5 PUSH2 0xEC6 JUMP JUMPDEST SWAP3 SWAP2 POP POP JUMP JUMPDEST PUSH1 0x0 PUSH1 0xA0 DUP3 ADD SWAP1 POP PUSH2 0xFBD PUSH1 0x0 DUP4 ADD DUP9 PUSH2 0xEC6 JUMP JUMPDEST PUSH2 0xFCA PUSH1 0x20 DUP4 ADD DUP8 PUSH2 0xEC6 JUMP JUMPDEST PUSH2 0xFD7 PUSH1 0x40 DUP4 ADD DUP7 PUSH2 0xF63 JUMP JUMPDEST PUSH2 0xFE4 PUSH1 0x60 DUP4 ADD DUP6 PUSH2 0xF63 JUMP JUMPDEST PUSH2 0xFF1 PUSH1 0x80 DUP4 ADD DUP5 PUSH2 0xF63 JUMP JUMPDEST SWAP7 SWAP6 POP POP POP POP POP POP JUMP JUMPDEST PUSH1 0x0 PUSH1 0x20 DUP3 ADD SWAP1 POP PUSH2 0x1010 PUSH1 0x0 DUP4 ADD DUP5 PUSH2 0xED5 JUMP JUMPDEST SWAP3 SWAP2 POP POP JUMP JUMPDEST PUSH1 0x0 PUSH1 0x20 DUP3 ADD SWAP1 POP DUP2 DUP2 SUB PUSH1 0x0 DUP4 ADD MSTORE PUSH2 0x102F DUP2 PUSH2 0xF1D JUMP JUMPDEST SWAP1 POP SWAP2 SWAP1 POP JUMP JUMPDEST PUSH1 0x0 PUSH1 0x20 DUP3 ADD SWAP1 POP DUP2 DUP2 SUB PUSH1 0x0 DUP4 ADD MSTORE PUSH2 0x104F DUP2 PUSH2 0xF40 JUMP JUMPDEST SWAP1 POP SWAP2 SWAP1 POP JUMP JUMPDEST PUSH1 0x0 PUSH1 0x20 DUP3 ADD SWAP1 POP PUSH2 0x106B PUSH1 0x0 DUP4 ADD DUP5 PUSH2 0xF63 JUMP JUMPDEST SWAP3 SWAP2 POP POP JUMP JUMPDEST PUSH1 0x0 PUSH1 0x60 DUP3 ADD SWAP1 POP PUSH2 0x1086 PUSH1 0x0 DUP4 ADD DUP7 PUSH2 0xF63 JUMP JUMPDEST DUP2 DUP2 SUB PUSH1 0x20 DUP4 ADD MSTORE PUSH2 0x1098 DUP2 DUP6 PUSH2 0xEE4 JUMP JUMPDEST SWAP1 POP PUSH2 0x10A7 PUSH1 0x40 DUP4 ADD DUP5 PUSH2 0xF63 JUMP JUMPDEST SWAP5 SWAP4 POP POP POP POP JUMP JUMPDEST PUSH1 0x0 PUSH1 0x80 DUP3 ADD SWAP1 POP PUSH2 0x10C4 PUSH1 0x0 DUP4 ADD DUP8 PUSH2 0xF63 JUMP JUMPDEST DUP2 DUP2 SUB PUSH1 0x20 DUP4 ADD MSTORE PUSH2 0x10D6 DUP2 DUP7 PUSH2 0xEE4 JUMP JUMPDEST SWAP1 POP PUSH2 0x10E5 PUSH1 0x40 DUP4 ADD DUP6 PUSH2 0xF63 JUMP JUMPDEST PUSH2 0x10F2 PUSH1 0x60 DUP4 ADD DUP5 PUSH2 0xF63 JUMP JUMPDEST SWAP6 SWAP5 POP POP POP POP POP JUMP JUMPDEST PUSH1 0x0 DUP2 MLOAD SWAP1 POP SWAP2 SWAP1 POP JUMP JUMPDEST PUSH1 0x0 DUP3 DUP3 MSTORE PUSH1 0x20 DUP3 ADD SWAP1 POP SWAP3 SWAP2 POP POP JUMP JUMPDEST PUSH1 0x0 PUSH2 0x1122 DUP3 PUSH2 0x1148 JUMP JUMPDEST SWAP1 POP SWAP2 SWAP1 POP JUMP JUMPDEST PUSH1 0x0 DUP2 ISZERO ISZERO SWAP1 POP SWAP2 SWAP1 POP JUMP JUMPDEST PUSH1 0x0 DUP2 SWAP1 POP PUSH2 0x1143 DUP3 PUSH2 0x134D JUMP JUMPDEST SWAP2 SWAP1 POP JUMP JUMPDEST PUSH1 0x0 PUSH20 0xFFFFFFFFFFFFFFFFFFFFFFFFFFFFFFFFFFFFFFFF DUP3 AND SWAP1 POP SWAP2 SWAP1 POP JUMP JUMPDEST PUSH1 0x0 DUP2 SWAP1 POP SWAP2 SWAP1 POP JUMP JUMPDEST PUSH1 0x0 PUSH2 0x117D DUP3 PUSH2 0x1135 JUMP JUMPDEST SWAP1 POP SWAP2 SWAP1 POP JUMP JUMPDEST PUSH1 0x0 JUMPDEST DUP4 DUP2 LT ISZERO PUSH2 0x11A2 JUMPI DUP1 DUP3 ADD MLOAD DUP2 DUP5 ADD MSTORE PUSH1 0x20 DUP2 ADD SWAP1 POP PUSH2 0x1187 JUMP JUMPDEST DUP4 DUP2 GT ISZERO PUSH2 0x11B1 JUMPI PUSH1 0x0 DUP5 DUP5 ADD MSTORE JUMPDEST POP POP POP POP JUMP JUMPDEST PUSH1 0x0 PUSH1 0x2 DUP3 DIV SWAP1 POP PUSH1 0x1 DUP3 AND DUP1 PUSH2 0x11CF JUMPI PUSH1 0x7F DUP3 AND SWAP2 POP JUMPDEST PUSH1 0x20 DUP3 LT DUP2 EQ ISZERO PUSH2 0x11E3 JUMPI PUSH2 0x11E2 PUSH2 0x1290 JUMP JUMPDEST JUMPDEST POP SWAP2 SWAP1 POP JUMP JUMPDEST PUSH1 0x0 PUSH2 0x11F4 DUP3 PUSH2 0x1168 JUMP JUMPDEST SWAP2 POP PUSH32 0xFFFFFFFFFFFFFFFFFFFFFFFFFFFFFFFFFFFFFFFFFFFFFFFFFFFFFFFFFFFFFFFF DUP3 EQ ISZERO PUSH2 0x1227 JUMPI PUSH2 0x1226 PUSH2 0x1232 JUMP JUMPDEST JUMPDEST PUSH1 0x1 DUP3 ADD SWAP1 POP SWAP2 SWAP1 POP JUMP JUMPDEST PUSH32 0x4E487B7100000000000000000000000000000000000000000000000000000000 PUSH1 0x0 MSTORE PUSH1 0x11 PUSH1 0x4 MSTORE PUSH1 0x24 PUSH1 0x0 REVERT JUMPDEST PUSH32 0x4E487B7100000000000000000000000000000000000000000000000000000000 PUSH1 0x0 MSTORE PUSH1 0x21 PUSH1 0x4 MSTORE PUSH1 0x24 PUSH1 0x0 REVERT JUMPDEST PUSH32 0x4E487B7100000000000000000000000000000000000000000000000000000000 PUSH1 0x0 MSTORE PUSH1 0x22 PUSH1 0x4 MSTORE PUSH1 0x24 PUSH1 0x0 REVERT JUMPDEST PUSH1 0x0 DUP1 REVERT JUMPDEST PUSH1 0x0 PUSH1 0x1F NOT PUSH1 0x1F DUP4 ADD AND SWAP1 POP SWAP2 SWAP1 POP JUMP JUMPDEST PUSH32 0x506C656173652070726F7669646520612076616C696420706F6C6C696E672073 PUSH1 0x0 DUP3 ADD MSTORE PUSH32 0x746174696F6E2049442E00000000000000000000000000000000000000000000 PUSH1 0x20 DUP3 ADD MSTORE POP JUMP JUMPDEST PUSH32 0x566F74657220697320616C726561647920726567697374657265642E00000000 PUSH1 0x0 DUP3 ADD MSTORE POP JUMP JUMPDEST PUSH1 0x3 DUP2 LT PUSH2 0x135E JUMPI PUSH2 0x135D PUSH2 0x1261 JUMP JUMPDEST JUMPDEST POP JUMP JUMPDEST PUSH2 0x136A DUP2 PUSH2 0x1117 JUMP JUMPDEST DUP2 EQ PUSH2 0x1375 JUMPI PUSH1 0x0 DUP1 REVERT JUMPDEST POP JUMP JUMPDEST PUSH2 0x1381 DUP2 PUSH2 0x1168 JUMP JUMPDEST DUP2 EQ PUSH2 0x138C JUMPI PUSH1 0x0 DUP1 REVERT JUMPDEST POP JUMP INVALID LOG2 PUSH5 0x6970667358 0x22 SLT KECCAK256 CHAINID PUSH9 0x7BCB95BEAD8D4B3650 ADDRESS 0xE0 0xE0 0x21 0x27 NUMBER 0x4E 0xC2 0xD7 PUSH29 0x5D662CE97BFC0F5AC133064736F6C6343000807003300000000000000 "
				},
				"gasEstimates": {
					"creation": {
						"codeDepositCost": "1012200",
						"executionCost": "infinite",
						"totalCost": "infinite"
					},
					"external": {
						"addVoter(address,uint256)": "infinite",
						"candidates(uint256)": "infinite",
						"candidatesCount()": "2497",
						"castVote(uint256,uint256)": "infinite",
						"electionOwner()": "2600",
						"endVote()": "53073",
						"finalResult()": "2495",
						"pollingStationCount()": "2473",
						"pollingStations(uint256)": "infinite",
						"results(uint256,uint256)": "infinite",
						"startVote()": "28881",
						"state()": "2649",
						"totalRegisteredVoters()": "2453",
						"voterRegistry(address)": "infinite",
						"voters(address)": "2868"
					},
					"internal": {
						"addCandidate(string memory)": "infinite",
						"addPollingStation(string memory)": "infinite",
						"initCandidates()": "infinite",
						"initPollingStations()": "infinite",
						"initResults()": "infinite",
						"registerAtPollingStation(uint256)": "28818"
					}
				},
				"methodIdentifiers": {
					"addVoter(address,uint256)": "b9f05f2f",
					"candidates(uint256)": "3477ee2e",
					"candidatesCount()": "2d35a8a2",
					"castVote(uint256,uint256)": "2c0a3f89",
					"electionOwner()": "53357ad0",
					"endVote()": "b9223946",
					"finalResult()": "f3a8286f",
					"pollingStationCount()": "df9f1a07",
					"pollingStations(uint256)": "fe2442d7",
					"results(uint256,uint256)": "d70c6f4e",
					"startVote()": "4c0a6af0",
					"state()": "c19d93fb",
					"totalRegisteredVoters()": "00aa7464",
					"voterRegistry(address)": "4763d4e7",
					"voters(address)": "a3ec138d"
				}
			},
			"storageLayout": {
				"storage": [
					{
						"astId": 30,
						"contract": "contracts/ergasia.sol:Election",
						"label": "electionOwner",
						"offset": 0,
						"slot": "0",
						"type": "t_address"
					},
					{
						"astId": 32,
						"contract": "contracts/ergasia.sol:Election",
						"label": "candidatesCount",
						"offset": 0,
						"slot": "1",
						"type": "t_uint256"
					},
					{
						"astId": 34,
						"contract": "contracts/ergasia.sol:Election",
						"label": "pollingStationCount",
						"offset": 0,
						"slot": "2",
						"type": "t_uint256"
					},
					{
						"astId": 36,
						"contract": "contracts/ergasia.sol:Election",
						"label": "totalRegisteredVoters",
						"offset": 0,
						"slot": "3",
						"type": "t_uint256"
					},
					{
						"astId": 38,
						"contract": "contracts/ergasia.sol:Election",
						"label": "countResult",
						"offset": 0,
						"slot": "4",
						"type": "t_uint256"
					},
					{
						"astId": 40,
						"contract": "contracts/ergasia.sol:Election",
						"label": "finalResult",
						"offset": 0,
						"slot": "5",
						"type": "t_uint256"
					},
					{
						"astId": 45,
						"contract": "contracts/ergasia.sol:Election",
						"label": "candidates",
						"offset": 0,
						"slot": "6",
						"type": "t_mapping(t_uint256,t_struct(Candidate)8_storage)"
					},
					{
						"astId": 50,
						"contract": "contracts/ergasia.sol:Election",
						"label": "pollingStations",
						"offset": 0,
						"slot": "7",
						"type": "t_mapping(t_uint256,t_struct(PollingStation)17_storage)"
					},
					{
						"astId": 55,
						"contract": "contracts/ergasia.sol:Election",
						"label": "voterRegistry",
						"offset": 0,
						"slot": "8",
						"type": "t_mapping(t_address,t_struct(Voter)28_storage)"
					},
					{
						"astId": 59,
						"contract": "contracts/ergasia.sol:Election",
						"label": "voters",
						"offset": 0,
						"slot": "9",
						"type": "t_mapping(t_address,t_bool)"
					},
					{
						"astId": 66,
						"contract": "contracts/ergasia.sol:Election",
						"label": "results",
						"offset": 0,
						"slot": "10",
						"type": "t_mapping(t_uint256,t_mapping(t_uint256,t_struct(Candidate)8_storage))"
					},
					{
						"astId": 73,
						"contract": "contracts/ergasia.sol:Election",
						"label": "state",
						"offset": 0,
						"slot": "11",
						"type": "t_enum(State)70"
					}
				],
				"types": {
					"t_address": {
						"encoding": "inplace",
						"label": "address",
						"numberOfBytes": "20"
					},
					"t_bool": {
						"encoding": "inplace",
						"label": "bool",
						"numberOfBytes": "1"
					},
					"t_enum(State)70": {
						"encoding": "inplace",
						"label": "enum Election.State",
						"numberOfBytes": "1"
					},
					"t_mapping(t_address,t_bool)": {
						"encoding": "mapping",
						"key": "t_address",
						"label": "mapping(address => bool)",
						"numberOfBytes": "32",
						"value": "t_bool"
					},
					"t_mapping(t_address,t_struct(Voter)28_storage)": {
						"encoding": "mapping",
						"key": "t_address",
						"label": "mapping(address => struct Election.Voter)",
						"numberOfBytes": "32",
						"value": "t_struct(Voter)28_storage"
					},
					"t_mapping(t_uint256,t_mapping(t_uint256,t_struct(Candidate)8_storage))": {
						"encoding": "mapping",
						"key": "t_uint256",
						"label": "mapping(uint256 => mapping(uint256 => struct Election.Candidate))",
						"numberOfBytes": "32",
						"value": "t_mapping(t_uint256,t_struct(Candidate)8_storage)"
					},
					"t_mapping(t_uint256,t_struct(Candidate)8_storage)": {
						"encoding": "mapping",
						"key": "t_uint256",
						"label": "mapping(uint256 => struct Election.Candidate)",
						"numberOfBytes": "32",
						"value": "t_struct(Candidate)8_storage"
					},
					"t_mapping(t_uint256,t_struct(PollingStation)17_storage)": {
						"encoding": "mapping",
						"key": "t_uint256",
						"label": "mapping(uint256 => struct Election.PollingStation)",
						"numberOfBytes": "32",
						"value": "t_struct(PollingStation)17_storage"
					},
					"t_string_storage": {
						"encoding": "bytes",
						"label": "string",
						"numberOfBytes": "32"
					},
					"t_struct(Candidate)8_storage": {
						"encoding": "inplace",
						"label": "struct Election.Candidate",
						"members": [
							{
								"astId": 3,
								"contract": "contracts/ergasia.sol:Election",
								"label": "id",
								"offset": 0,
								"slot": "0",
								"type": "t_uint256"
							},
							{
								"astId": 5,
								"contract": "contracts/ergasia.sol:Election",
								"label": "name",
								"offset": 0,
								"slot": "1",
								"type": "t_string_storage"
							},
							{
								"astId": 7,
								"contract": "contracts/ergasia.sol:Election",
								"label": "votes",
								"offset": 0,
								"slot": "2",
								"type": "t_uint256"
							}
						],
						"numberOfBytes": "96"
					},
					"t_struct(PollingStation)17_storage": {
						"encoding": "inplace",
						"label": "struct Election.PollingStation",
						"members": [
							{
								"astId": 10,
								"contract": "contracts/ergasia.sol:Election",
								"label": "id",
								"offset": 0,
								"slot": "0",
								"type": "t_uint256"
							},
							{
								"astId": 12,
								"contract": "contracts/ergasia.sol:Election",
								"label": "name",
								"offset": 0,
								"slot": "1",
								"type": "t_string_storage"
							},
							{
								"astId": 14,
								"contract": "contracts/ergasia.sol:Election",
								"label": "votersRegistered",
								"offset": 0,
								"slot": "2",
								"type": "t_uint256"
							},
							{
								"astId": 16,
								"contract": "contracts/ergasia.sol:Election",
								"label": "votesCasted",
								"offset": 0,
								"slot": "3",
								"type": "t_uint256"
							}
						],
						"numberOfBytes": "128"
					},
					"t_struct(Voter)28_storage": {
						"encoding": "inplace",
						"label": "struct Election.Voter",
						"members": [
							{
								"astId": 19,
								"contract": "contracts/ergasia.sol:Election",
								"label": "isEnrolled",
								"offset": 0,
								"slot": "0",
								"type": "t_bool"
							},
							{
								"astId": 21,
								"contract": "contracts/ergasia.sol:Election",
								"label": "hasVoted",
								"offset": 1,
								"slot": "0",
								"type": "t_bool"
							},
							{
								"astId": 23,
								"contract": "contracts/ergasia.sol:Election",
								"label": "choice",
								"offset": 0,
								"slot": "1",
								"type": "t_uint256"
							},
							{
								"astId": 25,
								"contract": "contracts/ergasia.sol:Election",
								"label": "enrolledPollingStationID",
								"offset": 0,
								"slot": "2",
								"type": "t_uint256"
							},
							{
								"astId": 27,
								"contract": "contracts/ergasia.sol:Election",
								"label": "votedPollingStationID",
								"offset": 0,
								"slot": "3",
								"type": "t_uint256"
							}
						],
						"numberOfBytes": "128"
					},
					"t_uint256": {
						"encoding": "inplace",
						"label": "uint256",
						"numberOfBytes": "32"
					}
				}
			},
			"userdoc": {
				"kind": "user",
				"methods": {},
				"version": 1
			}
		}
	}
}