{
	"contracts/ergasia.sol": {
		"Election": {
			"abi": [
				{
					"inputs": [],
					"stateMutability": "nonpayable",
					"type": "constructor"
				},
				{
					"inputs": [
						{
							"internalType": "address",
							"name": "_voterAddress",
							"type": "address"
						},
						{
							"internalType": "uint256",
							"name": "_pollingStationID",
							"type": "uint256"
						}
					],
					"name": "addVoter",
					"outputs": [],
					"stateMutability": "nonpayable",
					"type": "function"
				},
				{
					"inputs": [
						{
							"internalType": "uint256",
							"name": "",
							"type": "uint256"
						}
					],
					"name": "candidates",
					"outputs": [
						{
							"internalType": "uint256",
							"name": "id",
							"type": "uint256"
						},
						{
							"internalType": "string",
							"name": "name",
							"type": "string"
						},
						{
							"internalType": "uint256",
							"name": "voteCount",
							"type": "uint256"
						}
					],
					"stateMutability": "view",
					"type": "function"
				},
				{
					"inputs": [],
					"name": "candidatesCount",
					"outputs": [
						{
							"internalType": "uint256",
							"name": "",
							"type": "uint256"
						}
					],
					"stateMutability": "view",
					"type": "function"
				},
				{
					"inputs": [],
					"name": "electionOwner",
					"outputs": [
						{
							"internalType": "address",
							"name": "",
							"type": "address"
						}
					],
					"stateMutability": "view",
					"type": "function"
				},
				{
					"inputs": [],
					"name": "pollingStationCount",
					"outputs": [
						{
							"internalType": "uint256",
							"name": "",
							"type": "uint256"
						}
					],
					"stateMutability": "view",
					"type": "function"
				},
				{
					"inputs": [
						{
							"internalType": "uint256",
							"name": "",
							"type": "uint256"
						}
					],
					"name": "pollingStations",
					"outputs": [
						{
							"internalType": "uint256",
							"name": "id",
							"type": "uint256"
						},
						{
							"internalType": "string",
							"name": "name",
							"type": "string"
						},
						{
							"internalType": "uint256",
							"name": "votersRegistered",
							"type": "uint256"
						},
						{
							"internalType": "uint256",
							"name": "votesCasted",
							"type": "uint256"
						}
					],
					"stateMutability": "view",
					"type": "function"
				},
				{
					"inputs": [],
					"name": "state",
					"outputs": [
						{
							"internalType": "enum Election.State",
							"name": "",
							"type": "uint8"
						}
					],
					"stateMutability": "view",
					"type": "function"
				},
				{
					"inputs": [],
					"name": "totalVoters",
					"outputs": [
						{
							"internalType": "uint256",
							"name": "",
							"type": "uint256"
						}
					],
					"stateMutability": "view",
					"type": "function"
				},
				{
					"inputs": [
						{
							"internalType": "address",
							"name": "",
							"type": "address"
						}
					],
					"name": "voterRegister",
					"outputs": [
						{
							"internalType": "bool",
							"name": "isEnrolled",
							"type": "bool"
						},
						{
							"internalType": "bool",
							"name": "hasVoted",
							"type": "bool"
						},
						{
							"internalType": "int256",
							"name": "indexProposal",
							"type": "int256"
						},
						{
							"internalType": "uint256",
							"name": "enrolledPollingStationID",
							"type": "uint256"
						},
						{
							"internalType": "uint256",
							"name": "votedPollingStationID",
							"type": "uint256"
						}
					],
					"stateMutability": "view",
					"type": "function"
				},
				{
					"inputs": [
						{
							"internalType": "address",
							"name": "",
							"type": "address"
						}
					],
					"name": "voters",
					"outputs": [
						{
							"internalType": "bool",
							"name": "",
							"type": "bool"
						}
					],
					"stateMutability": "view",
					"type": "function"
				}
			],
			"devdoc": {
				"kind": "dev",
				"methods": {
					"addVoter(address,uint256)": {
						"details": "Adds a voter to the voter registry. May only be called by 'owner'.",
						"params": {
							"_pollingStationID": "polling station ID in which voter is registered.",
							"_voterAddress": "address of voter"
						}
					}
				},
				"version": 1
			},
			"evm": {
				"assembly": "    /* \"contracts/ergasia.sol\":70:6390  contract Election {... */\n  mstore(0x40, 0x80)\n    /* \"contracts/ergasia.sol\":1395:1396  0 */\n  0x00\n    /* \"contracts/ergasia.sol\":1369:1396  uint public totalVoters = 0 */\n  0x03\n  sstore\n    /* \"contracts/ergasia.sol\":2118:2385  constructor() {... */\n  callvalue\n  dup1\n  iszero\n  tag_1\n  jumpi\n  0x00\n  dup1\n  revert\ntag_1:\n  pop\n    /* \"contracts/ergasia.sol\":2158:2168  msg.sender */\n  caller\n    /* \"contracts/ergasia.sol\":2142:2155  electionOwner */\n  0x00\n  dup1\n    /* \"contracts/ergasia.sol\":2142:2168  electionOwner = msg.sender */\n  0x0100\n  exp\n  dup2\n  sload\n  dup2\n  0xffffffffffffffffffffffffffffffffffffffff\n  mul\n  not\n  and\n  swap1\n  dup4\n  0xffffffffffffffffffffffffffffffffffffffff\n  and\n  mul\n  or\n  swap1\n  sstore\n  pop\n    /* \"contracts/ergasia.sol\":2217:2233  initCandidates() */\n  tag_4\n    /* \"contracts/ergasia.sol\":2217:2231  initCandidates */\n  shl(0x20, tag_5)\n    /* \"contracts/ergasia.sol\":2217:2233  initCandidates() */\n  0x20\n  shr\n  jump\t// in\ntag_4:\n    /* \"contracts/ergasia.sol\":2288:2309  initPollingStations() */\n  tag_6\n    /* \"contracts/ergasia.sol\":2288:2307  initPollingStations */\n  shl(0x20, tag_7)\n    /* \"contracts/ergasia.sol\":2288:2309  initPollingStations() */\n  0x20\n  shr\n  jump\t// in\ntag_6:\n    /* \"contracts/ergasia.sol\":2363:2376  State.Created */\n  0x00\n    /* \"contracts/ergasia.sol\":2355:2360  state */\n  0x08\n  0x00\n    /* \"contracts/ergasia.sol\":2355:2376  state = State.Created */\n  0x0100\n  exp\n  dup2\n  sload\n  dup2\n  0xff\n  mul\n  not\n  and\n  swap1\n  dup4\n  0x02\n  dup2\n  gt\n  iszero\n  tag_8\n  jumpi\n  tag_9\n  tag_10\n  jump\t// in\ntag_9:\ntag_8:\n  mul\n  or\n  swap1\n  sstore\n  pop\n    /* \"contracts/ergasia.sol\":70:6390  contract Election {... */\n  jump(tag_11)\n    /* \"contracts/ergasia.sol\":2444:2671  function initCandidates() internal {... */\ntag_5:\n    /* \"contracts/ergasia.sol\":2489:2516  addCandidate(\"Candidate 1\") */\n  tag_13\n  mload(0x40)\n  dup1\n  0x40\n  add\n  0x40\n  mstore\n  dup1\n  0x0b\n  dup2\n  mstore\n  0x20\n  add\n  0x43616e6469646174652031000000000000000000000000000000000000000000\n  dup2\n  mstore\n  pop\n    /* \"contracts/ergasia.sol\":2489:2501  addCandidate */\n  shl(0x20, tag_14)\n    /* \"contracts/ergasia.sol\":2489:2516  addCandidate(\"Candidate 1\") */\n  0x20\n  shr\n  jump\t// in\ntag_13:\n    /* \"contracts/ergasia.sol\":2526:2553  addCandidate(\"Candidate 2\") */\n  tag_15\n  mload(0x40)\n  dup1\n  0x40\n  add\n  0x40\n  mstore\n  dup1\n  0x0b\n  dup2\n  mstore\n  0x20\n  add\n  0x43616e6469646174652032000000000000000000000000000000000000000000\n  dup2\n  mstore\n  pop\n    /* \"contracts/ergasia.sol\":2526:2538  addCandidate */\n  shl(0x20, tag_14)\n    /* \"contracts/ergasia.sol\":2526:2553  addCandidate(\"Candidate 2\") */\n  0x20\n  shr\n  jump\t// in\ntag_15:\n    /* \"contracts/ergasia.sol\":2563:2590  addCandidate(\"Candidate 3\") */\n  tag_16\n  mload(0x40)\n  dup1\n  0x40\n  add\n  0x40\n  mstore\n  dup1\n  0x0b\n  dup2\n  mstore\n  0x20\n  add\n  0x43616e6469646174652033000000000000000000000000000000000000000000\n  dup2\n  mstore\n  pop\n    /* \"contracts/ergasia.sol\":2563:2575  addCandidate */\n  shl(0x20, tag_14)\n    /* \"contracts/ergasia.sol\":2563:2590  addCandidate(\"Candidate 3\") */\n  0x20\n  shr\n  jump\t// in\ntag_16:\n    /* \"contracts/ergasia.sol\":2600:2627  addCandidate(\"Candidate 4\") */\n  tag_17\n  mload(0x40)\n  dup1\n  0x40\n  add\n  0x40\n  mstore\n  dup1\n  0x0b\n  dup2\n  mstore\n  0x20\n  add\n  0x43616e6469646174652034000000000000000000000000000000000000000000\n  dup2\n  mstore\n  pop\n    /* \"contracts/ergasia.sol\":2600:2612  addCandidate */\n  shl(0x20, tag_14)\n    /* \"contracts/ergasia.sol\":2600:2627  addCandidate(\"Candidate 4\") */\n  0x20\n  shr\n  jump\t// in\ntag_17:\n    /* \"contracts/ergasia.sol\":2637:2664  addCandidate(\"Candidate 5\") */\n  tag_18\n  mload(0x40)\n  dup1\n  0x40\n  add\n  0x40\n  mstore\n  dup1\n  0x0b\n  dup2\n  mstore\n  0x20\n  add\n  0x43616e6469646174652035000000000000000000000000000000000000000000\n  dup2\n  mstore\n  pop\n    /* \"contracts/ergasia.sol\":2637:2649  addCandidate */\n  shl(0x20, tag_14)\n    /* \"contracts/ergasia.sol\":2637:2664  addCandidate(\"Candidate 5\") */\n  0x20\n  shr\n  jump\t// in\ntag_18:\n    /* \"contracts/ergasia.sol\":2444:2671  function initCandidates() internal {... */\n  jump\t// out\n    /* \"contracts/ergasia.sol\":3014:3542  function initPollingStations() internal {... */\ntag_7:\n    /* \"contracts/ergasia.sol\":3064:3102  addPollingStation(\"Polling Station 1\") */\n  tag_20\n  mload(0x40)\n  dup1\n  0x40\n  add\n  0x40\n  mstore\n  dup1\n  0x11\n  dup2\n  mstore\n  0x20\n  add\n  0x506f6c6c696e672053746174696f6e2031000000000000000000000000000000\n  dup2\n  mstore\n  pop\n    /* \"contracts/ergasia.sol\":3064:3081  addPollingStation */\n  shl(0x20, tag_21)\n    /* \"contracts/ergasia.sol\":3064:3102  addPollingStation(\"Polling Station 1\") */\n  0x20\n  shr\n  jump\t// in\ntag_20:\n    /* \"contracts/ergasia.sol\":3112:3150  addPollingStation(\"Polling Station 2\") */\n  tag_22\n  mload(0x40)\n  dup1\n  0x40\n  add\n  0x40\n  mstore\n  dup1\n  0x11\n  dup2\n  mstore\n  0x20\n  add\n  0x506f6c6c696e672053746174696f6e2032000000000000000000000000000000\n  dup2\n  mstore\n  pop\n    /* \"contracts/ergasia.sol\":3112:3129  addPollingStation */\n  shl(0x20, tag_21)\n    /* \"contracts/ergasia.sol\":3112:3150  addPollingStation(\"Polling Station 2\") */\n  0x20\n  shr\n  jump\t// in\ntag_22:\n    /* \"contracts/ergasia.sol\":3160:3198  addPollingStation(\"Polling Station 3\") */\n  tag_23\n  mload(0x40)\n  dup1\n  0x40\n  add\n  0x40\n  mstore\n  dup1\n  0x11\n  dup2\n  mstore\n  0x20\n  add\n  0x506f6c6c696e672053746174696f6e2033000000000000000000000000000000\n  dup2\n  mstore\n  pop\n    /* \"contracts/ergasia.sol\":3160:3177  addPollingStation */\n  shl(0x20, tag_21)\n    /* \"contracts/ergasia.sol\":3160:3198  addPollingStation(\"Polling Station 3\") */\n  0x20\n  shr\n  jump\t// in\ntag_23:\n    /* \"contracts/ergasia.sol\":3208:3246  addPollingStation(\"Polling Station 4\") */\n  tag_24\n  mload(0x40)\n  dup1\n  0x40\n  add\n  0x40\n  mstore\n  dup1\n  0x11\n  dup2\n  mstore\n  0x20\n  add\n  0x506f6c6c696e672053746174696f6e2034000000000000000000000000000000\n  dup2\n  mstore\n  pop\n    /* \"contracts/ergasia.sol\":3208:3225  addPollingStation */\n  shl(0x20, tag_21)\n    /* \"contracts/ergasia.sol\":3208:3246  addPollingStation(\"Polling Station 4\") */\n  0x20\n  shr\n  jump\t// in\ntag_24:\n    /* \"contracts/ergasia.sol\":3256:3294  addPollingStation(\"Polling Station 5\") */\n  tag_25\n  mload(0x40)\n  dup1\n  0x40\n  add\n  0x40\n  mstore\n  dup1\n  0x11\n  dup2\n  mstore\n  0x20\n  add\n  0x506f6c6c696e672053746174696f6e2035000000000000000000000000000000\n  dup2\n  mstore\n  pop\n    /* \"contracts/ergasia.sol\":3256:3273  addPollingStation */\n  shl(0x20, tag_21)\n    /* \"contracts/ergasia.sol\":3256:3294  addPollingStation(\"Polling Station 5\") */\n  0x20\n  shr\n  jump\t// in\ntag_25:\n    /* \"contracts/ergasia.sol\":3304:3342  addPollingStation(\"Polling Station 6\") */\n  tag_26\n  mload(0x40)\n  dup1\n  0x40\n  add\n  0x40\n  mstore\n  dup1\n  0x11\n  dup2\n  mstore\n  0x20\n  add\n  0x506f6c6c696e672053746174696f6e2036000000000000000000000000000000\n  dup2\n  mstore\n  pop\n    /* \"contracts/ergasia.sol\":3304:3321  addPollingStation */\n  shl(0x20, tag_21)\n    /* \"contracts/ergasia.sol\":3304:3342  addPollingStation(\"Polling Station 6\") */\n  0x20\n  shr\n  jump\t// in\ntag_26:\n    /* \"contracts/ergasia.sol\":3352:3390  addPollingStation(\"Polling Station 7\") */\n  tag_27\n  mload(0x40)\n  dup1\n  0x40\n  add\n  0x40\n  mstore\n  dup1\n  0x11\n  dup2\n  mstore\n  0x20\n  add\n  0x506f6c6c696e672053746174696f6e2037000000000000000000000000000000\n  dup2\n  mstore\n  pop\n    /* \"contracts/ergasia.sol\":3352:3369  addPollingStation */\n  shl(0x20, tag_21)\n    /* \"contracts/ergasia.sol\":3352:3390  addPollingStation(\"Polling Station 7\") */\n  0x20\n  shr\n  jump\t// in\ntag_27:\n    /* \"contracts/ergasia.sol\":3400:3438  addPollingStation(\"Polling Station 8\") */\n  tag_28\n  mload(0x40)\n  dup1\n  0x40\n  add\n  0x40\n  mstore\n  dup1\n  0x11\n  dup2\n  mstore\n  0x20\n  add\n  0x506f6c6c696e672053746174696f6e2038000000000000000000000000000000\n  dup2\n  mstore\n  pop\n    /* \"contracts/ergasia.sol\":3400:3417  addPollingStation */\n  shl(0x20, tag_21)\n    /* \"contracts/ergasia.sol\":3400:3438  addPollingStation(\"Polling Station 8\") */\n  0x20\n  shr\n  jump\t// in\ntag_28:\n    /* \"contracts/ergasia.sol\":3448:3486  addPollingStation(\"Polling Station 9\") */\n  tag_29\n  mload(0x40)\n  dup1\n  0x40\n  add\n  0x40\n  mstore\n  dup1\n  0x11\n  dup2\n  mstore\n  0x20\n  add\n  0x506f6c6c696e672053746174696f6e2039000000000000000000000000000000\n  dup2\n  mstore\n  pop\n    /* \"contracts/ergasia.sol\":3448:3465  addPollingStation */\n  shl(0x20, tag_21)\n    /* \"contracts/ergasia.sol\":3448:3486  addPollingStation(\"Polling Station 9\") */\n  0x20\n  shr\n  jump\t// in\ntag_29:\n    /* \"contracts/ergasia.sol\":3496:3535  addPollingStation(\"Polling Station 10\") */\n  tag_30\n  mload(0x40)\n  dup1\n  0x40\n  add\n  0x40\n  mstore\n  dup1\n  0x12\n  dup2\n  mstore\n  0x20\n  add\n  0x506f6c6c696e672053746174696f6e2031300000000000000000000000000000\n  dup2\n  mstore\n  pop\n    /* \"contracts/ergasia.sol\":3496:3513  addPollingStation */\n  shl(0x20, tag_21)\n    /* \"contracts/ergasia.sol\":3496:3535  addPollingStation(\"Polling Station 10\") */\n  0x20\n  shr\n  jump\t// in\ntag_30:\n    /* \"contracts/ergasia.sol\":3014:3542  function initPollingStations() internal {... */\n  jump\t// out\n    /* \"contracts/ergasia.sol\":2791:2953  function addCandidate (string memory _name) private {... */\ntag_14:\n    /* \"contracts/ergasia.sol\":2853:2868  candidatesCount */\n  0x01\n  0x00\n    /* \"contracts/ergasia.sol\":2853:2870  candidatesCount++ */\n  dup2\n  sload\n  dup1\n  swap3\n  swap2\n  swap1\n  tag_32\n  swap1\n  tag_33\n  jump\t// in\ntag_32:\n  swap2\n  swap1\n  pop\n  sstore\n  pop\n    /* \"contracts/ergasia.sol\":2910:2946  Candidate(candidatesCount, _name, 0) */\n  mload(0x40)\n  dup1\n  0x60\n  add\n  0x40\n  mstore\n  dup1\n    /* \"contracts/ergasia.sol\":2920:2935  candidatesCount */\n  sload(0x01)\n    /* \"contracts/ergasia.sol\":2910:2946  Candidate(candidatesCount, _name, 0) */\n  dup2\n  mstore\n  0x20\n  add\n    /* \"contracts/ergasia.sol\":2937:2942  _name */\n  dup3\n    /* \"contracts/ergasia.sol\":2910:2946  Candidate(candidatesCount, _name, 0) */\n  dup2\n  mstore\n  0x20\n  add\n    /* \"contracts/ergasia.sol\":2944:2945  0 */\n  0x00\n    /* \"contracts/ergasia.sol\":2910:2946  Candidate(candidatesCount, _name, 0) */\n  dup2\n  mstore\n  pop\n    /* \"contracts/ergasia.sol\":2880:2890  candidates */\n  0x04\n    /* \"contracts/ergasia.sol\":2880:2907  candidates[candidatesCount] */\n  0x00\n    /* \"contracts/ergasia.sol\":2891:2906  candidatesCount */\n  sload(0x01)\n    /* \"contracts/ergasia.sol\":2880:2907  candidates[candidatesCount] */\n  dup2\n  mstore\n  0x20\n  add\n  swap1\n  dup2\n  mstore\n  0x20\n  add\n  0x00\n  keccak256\n    /* \"contracts/ergasia.sol\":2880:2946  candidates[candidatesCount] = Candidate(candidatesCount, _name, 0) */\n  0x00\n  dup3\n  add\n  mload\n  dup2\n  0x00\n  add\n  sstore\n  0x20\n  dup3\n  add\n  mload\n  dup2\n  0x01\n  add\n  swap1\n  dup1\n  mload\n  swap1\n  0x20\n  add\n  swap1\n  tag_34\n  swap3\n  swap2\n  swap1\n  tag_35\n  jump\t// in\ntag_34:\n  pop\n  0x40\n  dup3\n  add\n  mload\n  dup2\n  0x02\n  add\n  sstore\n  swap1\n  pop\n  pop\n    /* \"contracts/ergasia.sol\":2791:2953  function addCandidate (string memory _name) private {... */\n  pop\n  jump\t// out\n    /* \"contracts/ergasia.sol\":3665:3857  function addPollingStation (string memory _name) private {... */\ntag_21:\n    /* \"contracts/ergasia.sol\":3732:3751  pollingStationCount */\n  0x02\n  0x00\n    /* \"contracts/ergasia.sol\":3732:3753  pollingStationCount++ */\n  dup2\n  sload\n  dup1\n  swap3\n  swap2\n  swap1\n  tag_37\n  swap1\n  tag_33\n  jump\t// in\ntag_37:\n  swap2\n  swap1\n  pop\n  sstore\n  pop\n    /* \"contracts/ergasia.sol\":3802:3850  PollingStation(pollingStationCount, _name, 0, 0) */\n  mload(0x40)\n  dup1\n  0x80\n  add\n  0x40\n  mstore\n  dup1\n    /* \"contracts/ergasia.sol\":3817:3836  pollingStationCount */\n  sload(0x02)\n    /* \"contracts/ergasia.sol\":3802:3850  PollingStation(pollingStationCount, _name, 0, 0) */\n  dup2\n  mstore\n  0x20\n  add\n    /* \"contracts/ergasia.sol\":3838:3843  _name */\n  dup3\n    /* \"contracts/ergasia.sol\":3802:3850  PollingStation(pollingStationCount, _name, 0, 0) */\n  dup2\n  mstore\n  0x20\n  add\n    /* \"contracts/ergasia.sol\":3845:3846  0 */\n  0x00\n    /* \"contracts/ergasia.sol\":3802:3850  PollingStation(pollingStationCount, _name, 0, 0) */\n  dup2\n  mstore\n  0x20\n  add\n    /* \"contracts/ergasia.sol\":3848:3849  0 */\n  0x00\n    /* \"contracts/ergasia.sol\":3802:3850  PollingStation(pollingStationCount, _name, 0, 0) */\n  dup2\n  mstore\n  pop\n    /* \"contracts/ergasia.sol\":3763:3778  pollingStations */\n  0x05\n    /* \"contracts/ergasia.sol\":3763:3799  pollingStations[pollingStationCount] */\n  0x00\n    /* \"contracts/ergasia.sol\":3779:3798  pollingStationCount */\n  sload(0x02)\n    /* \"contracts/ergasia.sol\":3763:3799  pollingStations[pollingStationCount] */\n  dup2\n  mstore\n  0x20\n  add\n  swap1\n  dup2\n  mstore\n  0x20\n  add\n  0x00\n  keccak256\n    /* \"contracts/ergasia.sol\":3763:3850  pollingStations[pollingStationCount] = PollingStation(pollingStationCount, _name, 0, 0) */\n  0x00\n  dup3\n  add\n  mload\n  dup2\n  0x00\n  add\n  sstore\n  0x20\n  dup3\n  add\n  mload\n  dup2\n  0x01\n  add\n  swap1\n  dup1\n  mload\n  swap1\n  0x20\n  add\n  swap1\n  tag_38\n  swap3\n  swap2\n  swap1\n  tag_35\n  jump\t// in\ntag_38:\n  pop\n  0x40\n  dup3\n  add\n  mload\n  dup2\n  0x02\n  add\n  sstore\n  0x60\n  dup3\n  add\n  mload\n  dup2\n  0x03\n  add\n  sstore\n  swap1\n  pop\n  pop\n    /* \"contracts/ergasia.sol\":3665:3857  function addPollingStation (string memory _name) private {... */\n  pop\n  jump\t// out\n    /* \"contracts/ergasia.sol\":70:6390  contract Election {... */\ntag_35:\n  dup3\n  dup1\n  sload\n  tag_39\n  swap1\n  tag_40\n  jump\t// in\ntag_39:\n  swap1\n  0x00\n  mstore\n  keccak256(0x00, 0x20)\n  swap1\n  0x1f\n  add\n  0x20\n  swap1\n  div\n  dup2\n  add\n  swap3\n  dup3\n  tag_42\n  jumpi\n  0x00\n  dup6\n  sstore\n  jump(tag_41)\ntag_42:\n  dup3\n  0x1f\n  lt\n  tag_43\n  jumpi\n  dup1\n  mload\n  not(0xff)\n  and\n  dup4\n  dup1\n  add\n  or\n  dup6\n  sstore\n  jump(tag_41)\ntag_43:\n  dup3\n  dup1\n  add\n  0x01\n  add\n  dup6\n  sstore\n  dup3\n  iszero\n  tag_41\n  jumpi\n  swap2\n  dup3\n  add\ntag_44:\n  dup3\n  dup2\n  gt\n  iszero\n  tag_45\n  jumpi\n  dup3\n  mload\n  dup3\n  sstore\n  swap2\n  0x20\n  add\n  swap2\n  swap1\n  0x01\n  add\n  swap1\n  jump(tag_44)\ntag_45:\ntag_41:\n  pop\n  swap1\n  pop\n  tag_46\n  swap2\n  swap1\n  tag_47\n  jump\t// in\ntag_46:\n  pop\n  swap1\n  jump\t// out\ntag_47:\ntag_48:\n  dup1\n  dup3\n  gt\n  iszero\n  tag_49\n  jumpi\n  0x00\n  dup2\n  0x00\n  swap1\n  sstore\n  pop\n  0x01\n  add\n  jump(tag_48)\ntag_49:\n  pop\n  swap1\n  jump\t// out\n    /* \"#utility.yul\":7:84   */\ntag_51:\n    /* \"#utility.yul\":44:51   */\n  0x00\n    /* \"#utility.yul\":73:78   */\n  dup2\n    /* \"#utility.yul\":62:78   */\n  swap1\n  pop\n    /* \"#utility.yul\":7:84   */\n  swap2\n  swap1\n  pop\n  jump\t// out\n    /* \"#utility.yul\":90:410   */\ntag_40:\n    /* \"#utility.yul\":134:140   */\n  0x00\n    /* \"#utility.yul\":171:172   */\n  0x02\n    /* \"#utility.yul\":165:169   */\n  dup3\n    /* \"#utility.yul\":161:173   */\n  div\n    /* \"#utility.yul\":151:173   */\n  swap1\n  pop\n    /* \"#utility.yul\":218:219   */\n  0x01\n    /* \"#utility.yul\":212:216   */\n  dup3\n    /* \"#utility.yul\":208:220   */\n  and\n    /* \"#utility.yul\":239:257   */\n  dup1\n    /* \"#utility.yul\":229:310   */\n  tag_54\n  jumpi\n    /* \"#utility.yul\":295:299   */\n  0x7f\n    /* \"#utility.yul\":287:293   */\n  dup3\n    /* \"#utility.yul\":283:300   */\n  and\n    /* \"#utility.yul\":273:300   */\n  swap2\n  pop\n    /* \"#utility.yul\":229:310   */\ntag_54:\n    /* \"#utility.yul\":357:359   */\n  0x20\n    /* \"#utility.yul\":349:355   */\n  dup3\n    /* \"#utility.yul\":346:360   */\n  lt\n    /* \"#utility.yul\":326:344   */\n  dup2\n    /* \"#utility.yul\":323:361   */\n  eq\n    /* \"#utility.yul\":320:404   */\n  iszero\n  tag_55\n  jumpi\n    /* \"#utility.yul\":376:394   */\n  tag_56\n  tag_57\n  jump\t// in\ntag_56:\n    /* \"#utility.yul\":320:404   */\ntag_55:\n    /* \"#utility.yul\":141:410   */\n  pop\n    /* \"#utility.yul\":90:410   */\n  swap2\n  swap1\n  pop\n  jump\t// out\n    /* \"#utility.yul\":416:649   */\ntag_33:\n    /* \"#utility.yul\":455:458   */\n  0x00\n    /* \"#utility.yul\":478:502   */\n  tag_59\n    /* \"#utility.yul\":496:501   */\n  dup3\n    /* \"#utility.yul\":478:502   */\n  tag_51\n  jump\t// in\ntag_59:\n    /* \"#utility.yul\":469:502   */\n  swap2\n  pop\n    /* \"#utility.yul\":524:590   */\n  0xffffffffffffffffffffffffffffffffffffffffffffffffffffffffffffffff\n    /* \"#utility.yul\":517:522   */\n  dup3\n    /* \"#utility.yul\":514:591   */\n  eq\n    /* \"#utility.yul\":511:614   */\n  iszero\n  tag_60\n  jumpi\n    /* \"#utility.yul\":594:612   */\n  tag_61\n  tag_62\n  jump\t// in\ntag_61:\n    /* \"#utility.yul\":511:614   */\ntag_60:\n    /* \"#utility.yul\":641:642   */\n  0x01\n    /* \"#utility.yul\":634:639   */\n  dup3\n    /* \"#utility.yul\":630:643   */\n  add\n    /* \"#utility.yul\":623:643   */\n  swap1\n  pop\n    /* \"#utility.yul\":416:649   */\n  swap2\n  swap1\n  pop\n  jump\t// out\n    /* \"#utility.yul\":655:835   */\ntag_62:\n    /* \"#utility.yul\":703:780   */\n  0x4e487b7100000000000000000000000000000000000000000000000000000000\n    /* \"#utility.yul\":700:701   */\n  0x00\n    /* \"#utility.yul\":693:781   */\n  mstore\n    /* \"#utility.yul\":800:804   */\n  0x11\n    /* \"#utility.yul\":797:798   */\n  0x04\n    /* \"#utility.yul\":790:805   */\n  mstore\n    /* \"#utility.yul\":824:828   */\n  0x24\n    /* \"#utility.yul\":821:822   */\n  0x00\n    /* \"#utility.yul\":814:829   */\n  revert\n    /* \"#utility.yul\":841:1021   */\ntag_10:\n    /* \"#utility.yul\":889:966   */\n  0x4e487b7100000000000000000000000000000000000000000000000000000000\n    /* \"#utility.yul\":886:887   */\n  0x00\n    /* \"#utility.yul\":879:967   */\n  mstore\n    /* \"#utility.yul\":986:990   */\n  0x21\n    /* \"#utility.yul\":983:984   */\n  0x04\n    /* \"#utility.yul\":976:991   */\n  mstore\n    /* \"#utility.yul\":1010:1014   */\n  0x24\n    /* \"#utility.yul\":1007:1008   */\n  0x00\n    /* \"#utility.yul\":1000:1015   */\n  revert\n    /* \"#utility.yul\":1027:1207   */\ntag_57:\n    /* \"#utility.yul\":1075:1152   */\n  0x4e487b7100000000000000000000000000000000000000000000000000000000\n    /* \"#utility.yul\":1072:1073   */\n  0x00\n    /* \"#utility.yul\":1065:1153   */\n  mstore\n    /* \"#utility.yul\":1172:1176   */\n  0x22\n    /* \"#utility.yul\":1169:1170   */\n  0x04\n    /* \"#utility.yul\":1162:1177   */\n  mstore\n    /* \"#utility.yul\":1196:1200   */\n  0x24\n    /* \"#utility.yul\":1193:1194   */\n  0x00\n    /* \"#utility.yul\":1186:1201   */\n  revert\n    /* \"contracts/ergasia.sol\":70:6390  contract Election {... */\ntag_11:\n  dataSize(sub_0)\n  dup1\n  dataOffset(sub_0)\n  0x00\n  codecopy\n  0x00\n  return\nstop\n\nsub_0: assembly {\n        /* \"contracts/ergasia.sol\":70:6390  contract Election {... */\n      mstore(0x40, 0x80)\n      callvalue\n      dup1\n      iszero\n      tag_1\n      jumpi\n      0x00\n      dup1\n      revert\n    tag_1:\n      pop\n      jumpi(tag_2, lt(calldatasize, 0x04))\n      shr(0xe0, calldataload(0x00))\n      dup1\n      0xaf154087\n      gt\n      tag_13\n      jumpi\n      dup1\n      0xaf154087\n      eq\n      tag_8\n      jumpi\n      dup1\n      0xb9f05f2f\n      eq\n      tag_9\n      jumpi\n      dup1\n      0xc19d93fb\n      eq\n      tag_10\n      jumpi\n      dup1\n      0xdf9f1a07\n      eq\n      tag_11\n      jumpi\n      dup1\n      0xfe2442d7\n      eq\n      tag_12\n      jumpi\n      jump(tag_2)\n    tag_13:\n      dup1\n      0x2d35a8a2\n      eq\n      tag_3\n      jumpi\n      dup1\n      0x3477ee2e\n      eq\n      tag_4\n      jumpi\n      dup1\n      0x53357ad0\n      eq\n      tag_5\n      jumpi\n      dup1\n      0x5f5300ff\n      eq\n      tag_6\n      jumpi\n      dup1\n      0xa3ec138d\n      eq\n      tag_7\n      jumpi\n    tag_2:\n      0x00\n      dup1\n      revert\n        /* \"contracts/ergasia.sol\":1221:1248  uint public candidatesCount */\n    tag_3:\n      tag_14\n      tag_15\n      jump\t// in\n    tag_14:\n      mload(0x40)\n      tag_16\n      swap2\n      swap1\n      tag_17\n      jump\t// in\n    tag_16:\n      mload(0x40)\n      dup1\n      swap2\n      sub\n      swap1\n      return\n        /* \"contracts/ergasia.sol\":1616:1660  mapping(uint => Candidate) public candidates */\n    tag_4:\n      tag_18\n      0x04\n      dup1\n      calldatasize\n      sub\n      dup2\n      add\n      swap1\n      tag_19\n      swap2\n      swap1\n      tag_20\n      jump\t// in\n    tag_19:\n      tag_21\n      jump\t// in\n    tag_18:\n      mload(0x40)\n      tag_22\n      swap4\n      swap3\n      swap2\n      swap1\n      tag_23\n      jump\t// in\n    tag_22:\n      mload(0x40)\n      dup1\n      swap2\n      sub\n      swap1\n      return\n        /* \"contracts/ergasia.sol\":1187:1215  address public electionOwner */\n    tag_5:\n      tag_24\n      tag_25\n      jump\t// in\n    tag_24:\n      mload(0x40)\n      tag_26\n      swap2\n      swap1\n      tag_27\n      jump\t// in\n    tag_26:\n      mload(0x40)\n      dup1\n      swap2\n      sub\n      swap1\n      return\n        /* \"contracts/ergasia.sol\":1369:1396  uint public totalVoters = 0 */\n    tag_6:\n      tag_28\n      tag_29\n      jump\t// in\n    tag_28:\n      mload(0x40)\n      tag_30\n      swap2\n      swap1\n      tag_17\n      jump\t// in\n    tag_30:\n      mload(0x40)\n      dup1\n      swap2\n      sub\n      swap1\n      return\n        /* \"contracts/ergasia.sol\":1826:1864  mapping(address => bool) public voters */\n    tag_7:\n      tag_31\n      0x04\n      dup1\n      calldatasize\n      sub\n      dup2\n      add\n      swap1\n      tag_32\n      swap2\n      swap1\n      tag_33\n      jump\t// in\n    tag_32:\n      tag_34\n      jump\t// in\n    tag_31:\n      mload(0x40)\n      tag_35\n      swap2\n      swap1\n      tag_36\n      jump\t// in\n    tag_35:\n      mload(0x40)\n      dup1\n      swap2\n      sub\n      swap1\n      return\n        /* \"contracts/ergasia.sol\":1774:1820  mapping(address => Voter) public voterRegister */\n    tag_8:\n      tag_37\n      0x04\n      dup1\n      calldatasize\n      sub\n      dup2\n      add\n      swap1\n      tag_38\n      swap2\n      swap1\n      tag_33\n      jump\t// in\n    tag_38:\n      tag_39\n      jump\t// in\n    tag_37:\n      mload(0x40)\n      tag_40\n      swap6\n      swap5\n      swap4\n      swap3\n      swap2\n      swap1\n      tag_41\n      jump\t// in\n    tag_40:\n      mload(0x40)\n      dup1\n      swap2\n      sub\n      swap1\n      return\n        /* \"contracts/ergasia.sol\":4081:4899  function addVoter(address _voterAddress, uint _pollingStationID) public inState(State.Created) Owner {... */\n    tag_9:\n      tag_42\n      0x04\n      dup1\n      calldatasize\n      sub\n      dup2\n      add\n      swap1\n      tag_43\n      swap2\n      swap1\n      tag_44\n      jump\t// in\n    tag_43:\n      tag_45\n      jump\t// in\n    tag_42:\n      stop\n        /* \"contracts/ergasia.sol\":1917:1935  State public state */\n    tag_10:\n      tag_46\n      tag_47\n      jump\t// in\n    tag_46:\n      mload(0x40)\n      tag_48\n      swap2\n      swap1\n      tag_49\n      jump\t// in\n    tag_48:\n      mload(0x40)\n      dup1\n      swap2\n      sub\n      swap1\n      return\n        /* \"contracts/ergasia.sol\":1292:1323  uint public pollingStationCount */\n    tag_11:\n      tag_50\n      tag_51\n      jump\t// in\n    tag_50:\n      mload(0x40)\n      tag_52\n      swap2\n      swap1\n      tag_17\n      jump\t// in\n    tag_52:\n      mload(0x40)\n      dup1\n      swap2\n      sub\n      swap1\n      return\n        /* \"contracts/ergasia.sol\":1690:1744  mapping(uint => PollingStation) public pollingStations */\n    tag_12:\n      tag_53\n      0x04\n      dup1\n      calldatasize\n      sub\n      dup2\n      add\n      swap1\n      tag_54\n      swap2\n      swap1\n      tag_20\n      jump\t// in\n    tag_54:\n      tag_55\n      jump\t// in\n    tag_53:\n      mload(0x40)\n      tag_56\n      swap5\n      swap4\n      swap3\n      swap2\n      swap1\n      tag_57\n      jump\t// in\n    tag_56:\n      mload(0x40)\n      dup1\n      swap2\n      sub\n      swap1\n      return\n        /* \"contracts/ergasia.sol\":1221:1248  uint public candidatesCount */\n    tag_15:\n      sload(0x01)\n      dup2\n      jump\t// out\n        /* \"contracts/ergasia.sol\":1616:1660  mapping(uint => Candidate) public candidates */\n    tag_21:\n      mstore(0x20, 0x04)\n      dup1\n      0x00\n      mstore\n      keccak256(0x00, 0x40)\n      0x00\n      swap2\n      pop\n      swap1\n      pop\n      dup1\n      0x00\n      add\n      sload\n      swap1\n      dup1\n      0x01\n      add\n      dup1\n      sload\n      tag_58\n      swap1\n      tag_59\n      jump\t// in\n    tag_58:\n      dup1\n      0x1f\n      add\n      0x20\n      dup1\n      swap2\n      div\n      mul\n      0x20\n      add\n      mload(0x40)\n      swap1\n      dup2\n      add\n      0x40\n      mstore\n      dup1\n      swap3\n      swap2\n      swap1\n      dup2\n      dup2\n      mstore\n      0x20\n      add\n      dup3\n      dup1\n      sload\n      tag_60\n      swap1\n      tag_59\n      jump\t// in\n    tag_60:\n      dup1\n      iszero\n      tag_61\n      jumpi\n      dup1\n      0x1f\n      lt\n      tag_62\n      jumpi\n      0x0100\n      dup1\n      dup4\n      sload\n      div\n      mul\n      dup4\n      mstore\n      swap2\n      0x20\n      add\n      swap2\n      jump(tag_61)\n    tag_62:\n      dup3\n      add\n      swap2\n      swap1\n      0x00\n      mstore\n      keccak256(0x00, 0x20)\n      swap1\n    tag_63:\n      dup2\n      sload\n      dup2\n      mstore\n      swap1\n      0x01\n      add\n      swap1\n      0x20\n      add\n      dup1\n      dup4\n      gt\n      tag_63\n      jumpi\n      dup3\n      swap1\n      sub\n      0x1f\n      and\n      dup3\n      add\n      swap2\n    tag_61:\n      pop\n      pop\n      pop\n      pop\n      pop\n      swap1\n      dup1\n      0x02\n      add\n      sload\n      swap1\n      pop\n      dup4\n      jump\t// out\n        /* \"contracts/ergasia.sol\":1187:1215  address public electionOwner */\n    tag_25:\n      0x00\n      dup1\n      sload\n      swap1\n      0x0100\n      exp\n      swap1\n      div\n      0xffffffffffffffffffffffffffffffffffffffff\n      and\n      dup2\n      jump\t// out\n        /* \"contracts/ergasia.sol\":1369:1396  uint public totalVoters = 0 */\n    tag_29:\n      sload(0x03)\n      dup2\n      jump\t// out\n        /* \"contracts/ergasia.sol\":1826:1864  mapping(address => bool) public voters */\n    tag_34:\n      mstore(0x20, 0x07)\n      dup1\n      0x00\n      mstore\n      keccak256(0x00, 0x40)\n      0x00\n      swap2\n      pop\n      sload\n      swap1\n      0x0100\n      exp\n      swap1\n      div\n      0xff\n      and\n      dup2\n      jump\t// out\n        /* \"contracts/ergasia.sol\":1774:1820  mapping(address => Voter) public voterRegister */\n    tag_39:\n      mstore(0x20, 0x06)\n      dup1\n      0x00\n      mstore\n      keccak256(0x00, 0x40)\n      0x00\n      swap2\n      pop\n      swap1\n      pop\n      dup1\n      0x00\n      add\n      0x00\n      swap1\n      sload\n      swap1\n      0x0100\n      exp\n      swap1\n      div\n      0xff\n      and\n      swap1\n      dup1\n      0x00\n      add\n      0x01\n      swap1\n      sload\n      swap1\n      0x0100\n      exp\n      swap1\n      div\n      0xff\n      and\n      swap1\n      dup1\n      0x01\n      add\n      sload\n      swap1\n      dup1\n      0x02\n      add\n      sload\n      swap1\n      dup1\n      0x03\n      add\n      sload\n      swap1\n      pop\n      dup6\n      jump\t// out\n        /* \"contracts/ergasia.sol\":4081:4899  function addVoter(address _voterAddress, uint _pollingStationID) public inState(State.Created) Owner {... */\n    tag_45:\n        /* \"contracts/ergasia.sol\":4161:4174  State.Created */\n      0x00\n        /* \"contracts/ergasia.sol\":2087:2093  _state */\n      dup1\n        /* \"contracts/ergasia.sol\":2078:2093  state == _state */\n      0x02\n      dup2\n      gt\n      iszero\n      tag_65\n      jumpi\n      tag_66\n      tag_67\n      jump\t// in\n    tag_66:\n    tag_65:\n        /* \"contracts/ergasia.sol\":2078:2083  state */\n      0x08\n      0x00\n      swap1\n      sload\n      swap1\n      0x0100\n      exp\n      swap1\n      div\n      0xff\n      and\n        /* \"contracts/ergasia.sol\":2078:2093  state == _state */\n      0x02\n      dup2\n      gt\n      iszero\n      tag_68\n      jumpi\n      tag_69\n      tag_67\n      jump\t// in\n    tag_69:\n    tag_68:\n      eq\n        /* \"contracts/ergasia.sol\":2070:2094  require(state == _state) */\n      tag_70\n      jumpi\n      0x00\n      dup1\n      revert\n    tag_70:\n        /* \"contracts/ergasia.sol\":1991:2004  electionOwner */\n      0x00\n      dup1\n      sload\n      swap1\n      0x0100\n      exp\n      swap1\n      div\n      0xffffffffffffffffffffffffffffffffffffffff\n      and\n        /* \"contracts/ergasia.sol\":1977:2004  msg.sender == electionOwner */\n      0xffffffffffffffffffffffffffffffffffffffff\n      and\n        /* \"contracts/ergasia.sol\":1977:1987  msg.sender */\n      caller\n        /* \"contracts/ergasia.sol\":1977:2004  msg.sender == electionOwner */\n      0xffffffffffffffffffffffffffffffffffffffff\n      and\n      eq\n        /* \"contracts/ergasia.sol\":1969:2005  require(msg.sender == electionOwner) */\n      tag_72\n      jumpi\n      0x00\n      dup1\n      revert\n    tag_72:\n        /* \"contracts/ergasia.sol\":4303:4304  0 */\n      0x00\n        /* \"contracts/ergasia.sol\":4257:4270  voterRegister */\n      0x06\n        /* \"contracts/ergasia.sol\":4257:4285  voterRegister[_voterAddress] */\n      0x00\n        /* \"contracts/ergasia.sol\":4271:4284  _voterAddress */\n      dup6\n        /* \"contracts/ergasia.sol\":4257:4285  voterRegister[_voterAddress] */\n      0xffffffffffffffffffffffffffffffffffffffff\n      and\n      0xffffffffffffffffffffffffffffffffffffffff\n      and\n      dup2\n      mstore\n      0x20\n      add\n      swap1\n      dup2\n      mstore\n      0x20\n      add\n      0x00\n      keccak256\n        /* \"contracts/ergasia.sol\":4257:4299  voterRegister[_voterAddress].indexProposal */\n      0x01\n      add\n      sload\n        /* \"contracts/ergasia.sol\":4257:4304  voterRegister[_voterAddress].indexProposal == 0 */\n      eq\n        /* \"contracts/ergasia.sol\":4249:4337  require(voterRegister[_voterAddress].indexProposal == 0, \"Voter is already registered.\") */\n      tag_74\n      jumpi\n      mload(0x40)\n      0x08c379a000000000000000000000000000000000000000000000000000000000\n      dup2\n      mstore\n      0x04\n      add\n      tag_75\n      swap1\n      tag_76\n      jump\t// in\n    tag_75:\n      mload(0x40)\n      dup1\n      swap2\n      sub\n      swap1\n      revert\n    tag_74:\n        /* \"contracts/ergasia.sol\":4474:4475  1 */\n      0x01\n        /* \"contracts/ergasia.sol\":4454:4471  _pollingStationID */\n      dup3\n        /* \"contracts/ergasia.sol\":4454:4475  _pollingStationID >=1 */\n      lt\n      iszero\n        /* \"contracts/ergasia.sol\":4454:4519  _pollingStationID >=1 && _pollingStationID <= pollingStationCount */\n      dup1\n      iszero\n      tag_77\n      jumpi\n      pop\n        /* \"contracts/ergasia.sol\":4500:4519  pollingStationCount */\n      sload(0x02)\n        /* \"contracts/ergasia.sol\":4479:4496  _pollingStationID */\n      dup3\n        /* \"contracts/ergasia.sol\":4479:4519  _pollingStationID <= pollingStationCount */\n      gt\n      iszero\n        /* \"contracts/ergasia.sol\":4454:4519  _pollingStationID >=1 && _pollingStationID <= pollingStationCount */\n    tag_77:\n        /* \"contracts/ergasia.sol\":4446:4566  require(_pollingStationID >=1 && _pollingStationID <= pollingStationCount, \"Please provide a valid polling station ID.\") */\n      tag_78\n      jumpi\n      mload(0x40)\n      0x08c379a000000000000000000000000000000000000000000000000000000000\n      dup2\n      mstore\n      0x04\n      add\n      tag_79\n      swap1\n      tag_80\n      jump\t// in\n    tag_79:\n      mload(0x40)\n      dup1\n      swap2\n      sub\n      swap1\n      revert\n    tag_78:\n        /* \"contracts/ergasia.sol\":4577:4591  Voter memory v */\n      tag_81\n      tag_82\n      jump\t// in\n    tag_81:\n        /* \"contracts/ergasia.sol\":4616:4620  true */\n      0x01\n        /* \"contracts/ergasia.sol\":4601:4602  v */\n      dup2\n        /* \"contracts/ergasia.sol\":4601:4613  v.isEnrolled */\n      0x00\n      add\n        /* \"contracts/ergasia.sol\":4601:4620  v.isEnrolled = true */\n      swap1\n      iszero\n      iszero\n      swap1\n      dup2\n      iszero\n      iszero\n      dup2\n      mstore\n      pop\n      pop\n        /* \"contracts/ergasia.sol\":4643:4648  false */\n      0x00\n        /* \"contracts/ergasia.sol\":4630:4631  v */\n      dup2\n        /* \"contracts/ergasia.sol\":4630:4640  v.hasVoted */\n      0x20\n      add\n        /* \"contracts/ergasia.sol\":4630:4648  v.hasVoted = false */\n      swap1\n      iszero\n      iszero\n      swap1\n      dup2\n      iszero\n      iszero\n      dup2\n      mstore\n      pop\n      pop\n        /* \"contracts/ergasia.sol\":4676:4677  0 */\n      0x00\n        /* \"contracts/ergasia.sol\":4658:4659  v */\n      dup2\n        /* \"contracts/ergasia.sol\":4658:4673  v.indexProposal */\n      0x40\n      add\n        /* \"contracts/ergasia.sol\":4658:4677  v.indexProposal = 0 */\n      dup2\n      dup2\n      mstore\n      pop\n      pop\n        /* \"contracts/ergasia.sol\":4716:4733  _pollingStationID */\n      dup3\n        /* \"contracts/ergasia.sol\":4687:4688  v */\n      dup2\n        /* \"contracts/ergasia.sol\":4687:4713  v.enrolledPollingStationID */\n      0x60\n      add\n        /* \"contracts/ergasia.sol\":4687:4733  v.enrolledPollingStationID = _pollingStationID */\n      dup2\n      dup2\n      mstore\n      pop\n      pop\n        /* \"contracts/ergasia.sol\":4769:4770  0 */\n      0x00\n        /* \"contracts/ergasia.sol\":4743:4744  v */\n      dup2\n        /* \"contracts/ergasia.sol\":4743:4766  v.votedPollingStationID */\n      0x80\n      add\n        /* \"contracts/ergasia.sol\":4743:4770  v.votedPollingStationID = 0 */\n      dup2\n      dup2\n      mstore\n      pop\n      pop\n        /* \"contracts/ergasia.sol\":4811:4812  v */\n      dup1\n        /* \"contracts/ergasia.sol\":4780:4793  voterRegister */\n      0x06\n        /* \"contracts/ergasia.sol\":4780:4808  voterRegister[_voterAddress] */\n      0x00\n        /* \"contracts/ergasia.sol\":4794:4807  _voterAddress */\n      dup7\n        /* \"contracts/ergasia.sol\":4780:4808  voterRegister[_voterAddress] */\n      0xffffffffffffffffffffffffffffffffffffffff\n      and\n      0xffffffffffffffffffffffffffffffffffffffff\n      and\n      dup2\n      mstore\n      0x20\n      add\n      swap1\n      dup2\n      mstore\n      0x20\n      add\n      0x00\n      keccak256\n        /* \"contracts/ergasia.sol\":4780:4812  voterRegister[_voterAddress] = v */\n      0x00\n      dup3\n      add\n      mload\n      dup2\n      0x00\n      add\n      exp(0x0100, 0x00)\n      dup2\n      sload\n      dup2\n      0xff\n      mul\n      not\n      and\n      swap1\n      dup4\n      iszero\n      iszero\n      mul\n      or\n      swap1\n      sstore\n      pop\n      0x20\n      dup3\n      add\n      mload\n      dup2\n      0x00\n      add\n      exp(0x0100, 0x01)\n      dup2\n      sload\n      dup2\n      0xff\n      mul\n      not\n      and\n      swap1\n      dup4\n      iszero\n      iszero\n      mul\n      or\n      swap1\n      sstore\n      pop\n      0x40\n      dup3\n      add\n      mload\n      dup2\n      0x01\n      add\n      sstore\n      0x60\n      dup3\n      add\n      mload\n      dup2\n      0x02\n      add\n      sstore\n      0x80\n      dup3\n      add\n      mload\n      dup2\n      0x03\n      add\n      sstore\n      swap1\n      pop\n      pop\n        /* \"contracts/ergasia.sol\":4822:4833  totalVoters */\n      0x03\n      0x00\n        /* \"contracts/ergasia.sol\":4822:4835  totalVoters++ */\n      dup2\n      sload\n      dup1\n      swap3\n      swap2\n      swap1\n      tag_83\n      swap1\n      tag_84\n      jump\t// in\n    tag_83:\n      swap2\n      swap1\n      pop\n      sstore\n      pop\n        /* \"contracts/ergasia.sol\":4182:4899  {... */\n      pop\n        /* \"contracts/ergasia.sol\":4081:4899  function addVoter(address _voterAddress, uint _pollingStationID) public inState(State.Created) Owner {... */\n      pop\n      pop\n      pop\n      jump\t// out\n        /* \"contracts/ergasia.sol\":1917:1935  State public state */\n    tag_47:\n      0x08\n      0x00\n      swap1\n      sload\n      swap1\n      0x0100\n      exp\n      swap1\n      div\n      0xff\n      and\n      dup2\n      jump\t// out\n        /* \"contracts/ergasia.sol\":1292:1323  uint public pollingStationCount */\n    tag_51:\n      sload(0x02)\n      dup2\n      jump\t// out\n        /* \"contracts/ergasia.sol\":1690:1744  mapping(uint => PollingStation) public pollingStations */\n    tag_55:\n      mstore(0x20, 0x05)\n      dup1\n      0x00\n      mstore\n      keccak256(0x00, 0x40)\n      0x00\n      swap2\n      pop\n      swap1\n      pop\n      dup1\n      0x00\n      add\n      sload\n      swap1\n      dup1\n      0x01\n      add\n      dup1\n      sload\n      tag_85\n      swap1\n      tag_59\n      jump\t// in\n    tag_85:\n      dup1\n      0x1f\n      add\n      0x20\n      dup1\n      swap2\n      div\n      mul\n      0x20\n      add\n      mload(0x40)\n      swap1\n      dup2\n      add\n      0x40\n      mstore\n      dup1\n      swap3\n      swap2\n      swap1\n      dup2\n      dup2\n      mstore\n      0x20\n      add\n      dup3\n      dup1\n      sload\n      tag_86\n      swap1\n      tag_59\n      jump\t// in\n    tag_86:\n      dup1\n      iszero\n      tag_87\n      jumpi\n      dup1\n      0x1f\n      lt\n      tag_88\n      jumpi\n      0x0100\n      dup1\n      dup4\n      sload\n      div\n      mul\n      dup4\n      mstore\n      swap2\n      0x20\n      add\n      swap2\n      jump(tag_87)\n    tag_88:\n      dup3\n      add\n      swap2\n      swap1\n      0x00\n      mstore\n      keccak256(0x00, 0x20)\n      swap1\n    tag_89:\n      dup2\n      sload\n      dup2\n      mstore\n      swap1\n      0x01\n      add\n      swap1\n      0x20\n      add\n      dup1\n      dup4\n      gt\n      tag_89\n      jumpi\n      dup3\n      swap1\n      sub\n      0x1f\n      and\n      dup3\n      add\n      swap2\n    tag_87:\n      pop\n      pop\n      pop\n      pop\n      pop\n      swap1\n      dup1\n      0x02\n      add\n      sload\n      swap1\n      dup1\n      0x03\n      add\n      sload\n      swap1\n      pop\n      dup5\n      jump\t// out\n    tag_82:\n      mload(0x40)\n      dup1\n      0xa0\n      add\n      0x40\n      mstore\n      dup1\n      iszero(iszero(0x00))\n      dup2\n      mstore\n      0x20\n      add\n      iszero(iszero(0x00))\n      dup2\n      mstore\n      0x20\n      add\n      0x00\n      dup2\n      mstore\n      0x20\n      add\n      0x00\n      dup2\n      mstore\n      0x20\n      add\n      0x00\n      dup2\n      mstore\n      pop\n      swap1\n      jump\t// out\n        /* \"#utility.yul\":7:146   */\n    tag_91:\n        /* \"#utility.yul\":53:58   */\n      0x00\n        /* \"#utility.yul\":91:97   */\n      dup2\n        /* \"#utility.yul\":78:98   */\n      calldataload\n        /* \"#utility.yul\":69:98   */\n      swap1\n      pop\n        /* \"#utility.yul\":107:140   */\n      tag_93\n        /* \"#utility.yul\":134:139   */\n      dup2\n        /* \"#utility.yul\":107:140   */\n      tag_94\n      jump\t// in\n    tag_93:\n        /* \"#utility.yul\":7:146   */\n      swap3\n      swap2\n      pop\n      pop\n      jump\t// out\n        /* \"#utility.yul\":152:291   */\n    tag_95:\n        /* \"#utility.yul\":198:203   */\n      0x00\n        /* \"#utility.yul\":236:242   */\n      dup2\n        /* \"#utility.yul\":223:243   */\n      calldataload\n        /* \"#utility.yul\":214:243   */\n      swap1\n      pop\n        /* \"#utility.yul\":252:285   */\n      tag_97\n        /* \"#utility.yul\":279:284   */\n      dup2\n        /* \"#utility.yul\":252:285   */\n      tag_98\n      jump\t// in\n    tag_97:\n        /* \"#utility.yul\":152:291   */\n      swap3\n      swap2\n      pop\n      pop\n      jump\t// out\n        /* \"#utility.yul\":297:626   */\n    tag_33:\n        /* \"#utility.yul\":356:362   */\n      0x00\n        /* \"#utility.yul\":405:407   */\n      0x20\n        /* \"#utility.yul\":393:402   */\n      dup3\n        /* \"#utility.yul\":384:391   */\n      dup5\n        /* \"#utility.yul\":380:403   */\n      sub\n        /* \"#utility.yul\":376:408   */\n      slt\n        /* \"#utility.yul\":373:492   */\n      iszero\n      tag_100\n      jumpi\n        /* \"#utility.yul\":411:490   */\n      tag_101\n      tag_102\n      jump\t// in\n    tag_101:\n        /* \"#utility.yul\":373:492   */\n    tag_100:\n        /* \"#utility.yul\":531:532   */\n      0x00\n        /* \"#utility.yul\":556:609   */\n      tag_103\n        /* \"#utility.yul\":601:608   */\n      dup5\n        /* \"#utility.yul\":592:598   */\n      dup3\n        /* \"#utility.yul\":581:590   */\n      dup6\n        /* \"#utility.yul\":577:599   */\n      add\n        /* \"#utility.yul\":556:609   */\n      tag_91\n      jump\t// in\n    tag_103:\n        /* \"#utility.yul\":546:609   */\n      swap2\n      pop\n        /* \"#utility.yul\":502:619   */\n      pop\n        /* \"#utility.yul\":297:626   */\n      swap3\n      swap2\n      pop\n      pop\n      jump\t// out\n        /* \"#utility.yul\":632:1106   */\n    tag_44:\n        /* \"#utility.yul\":700:706   */\n      0x00\n        /* \"#utility.yul\":708:714   */\n      dup1\n        /* \"#utility.yul\":757:759   */\n      0x40\n        /* \"#utility.yul\":745:754   */\n      dup4\n        /* \"#utility.yul\":736:743   */\n      dup6\n        /* \"#utility.yul\":732:755   */\n      sub\n        /* \"#utility.yul\":728:760   */\n      slt\n        /* \"#utility.yul\":725:844   */\n      iszero\n      tag_105\n      jumpi\n        /* \"#utility.yul\":763:842   */\n      tag_106\n      tag_102\n      jump\t// in\n    tag_106:\n        /* \"#utility.yul\":725:844   */\n    tag_105:\n        /* \"#utility.yul\":883:884   */\n      0x00\n        /* \"#utility.yul\":908:961   */\n      tag_107\n        /* \"#utility.yul\":953:960   */\n      dup6\n        /* \"#utility.yul\":944:950   */\n      dup3\n        /* \"#utility.yul\":933:942   */\n      dup7\n        /* \"#utility.yul\":929:951   */\n      add\n        /* \"#utility.yul\":908:961   */\n      tag_91\n      jump\t// in\n    tag_107:\n        /* \"#utility.yul\":898:961   */\n      swap3\n      pop\n        /* \"#utility.yul\":854:971   */\n      pop\n        /* \"#utility.yul\":1010:1012   */\n      0x20\n        /* \"#utility.yul\":1036:1089   */\n      tag_108\n        /* \"#utility.yul\":1081:1088   */\n      dup6\n        /* \"#utility.yul\":1072:1078   */\n      dup3\n        /* \"#utility.yul\":1061:1070   */\n      dup7\n        /* \"#utility.yul\":1057:1079   */\n      add\n        /* \"#utility.yul\":1036:1089   */\n      tag_95\n      jump\t// in\n    tag_108:\n        /* \"#utility.yul\":1026:1089   */\n      swap2\n      pop\n        /* \"#utility.yul\":981:1099   */\n      pop\n        /* \"#utility.yul\":632:1106   */\n      swap3\n      pop\n      swap3\n      swap1\n      pop\n      jump\t// out\n        /* \"#utility.yul\":1112:1441   */\n    tag_20:\n        /* \"#utility.yul\":1171:1177   */\n      0x00\n        /* \"#utility.yul\":1220:1222   */\n      0x20\n        /* \"#utility.yul\":1208:1217   */\n      dup3\n        /* \"#utility.yul\":1199:1206   */\n      dup5\n        /* \"#utility.yul\":1195:1218   */\n      sub\n        /* \"#utility.yul\":1191:1223   */\n      slt\n        /* \"#utility.yul\":1188:1307   */\n      iszero\n      tag_110\n      jumpi\n        /* \"#utility.yul\":1226:1305   */\n      tag_111\n      tag_102\n      jump\t// in\n    tag_111:\n        /* \"#utility.yul\":1188:1307   */\n    tag_110:\n        /* \"#utility.yul\":1346:1347   */\n      0x00\n        /* \"#utility.yul\":1371:1424   */\n      tag_112\n        /* \"#utility.yul\":1416:1423   */\n      dup5\n        /* \"#utility.yul\":1407:1413   */\n      dup3\n        /* \"#utility.yul\":1396:1405   */\n      dup6\n        /* \"#utility.yul\":1392:1414   */\n      add\n        /* \"#utility.yul\":1371:1424   */\n      tag_95\n      jump\t// in\n    tag_112:\n        /* \"#utility.yul\":1361:1424   */\n      swap2\n      pop\n        /* \"#utility.yul\":1317:1434   */\n      pop\n        /* \"#utility.yul\":1112:1441   */\n      swap3\n      swap2\n      pop\n      pop\n      jump\t// out\n        /* \"#utility.yul\":1447:1565   */\n    tag_113:\n        /* \"#utility.yul\":1534:1558   */\n      tag_115\n        /* \"#utility.yul\":1552:1557   */\n      dup2\n        /* \"#utility.yul\":1534:1558   */\n      tag_116\n      jump\t// in\n    tag_115:\n        /* \"#utility.yul\":1529:1532   */\n      dup3\n        /* \"#utility.yul\":1522:1559   */\n      mstore\n        /* \"#utility.yul\":1447:1565   */\n      pop\n      pop\n      jump\t// out\n        /* \"#utility.yul\":1571:1680   */\n    tag_117:\n        /* \"#utility.yul\":1652:1673   */\n      tag_119\n        /* \"#utility.yul\":1667:1672   */\n      dup2\n        /* \"#utility.yul\":1652:1673   */\n      tag_120\n      jump\t// in\n    tag_119:\n        /* \"#utility.yul\":1647:1650   */\n      dup3\n        /* \"#utility.yul\":1640:1674   */\n      mstore\n        /* \"#utility.yul\":1571:1680   */\n      pop\n      pop\n      jump\t// out\n        /* \"#utility.yul\":1686:1829   */\n    tag_121:\n        /* \"#utility.yul\":1779:1822   */\n      tag_123\n        /* \"#utility.yul\":1816:1821   */\n      dup2\n        /* \"#utility.yul\":1779:1822   */\n      tag_124\n      jump\t// in\n    tag_123:\n        /* \"#utility.yul\":1774:1777   */\n      dup3\n        /* \"#utility.yul\":1767:1823   */\n      mstore\n        /* \"#utility.yul\":1686:1829   */\n      pop\n      pop\n      jump\t// out\n        /* \"#utility.yul\":1835:1950   */\n    tag_125:\n        /* \"#utility.yul\":1920:1943   */\n      tag_127\n        /* \"#utility.yul\":1937:1942   */\n      dup2\n        /* \"#utility.yul\":1920:1943   */\n      tag_128\n      jump\t// in\n    tag_127:\n        /* \"#utility.yul\":1915:1918   */\n      dup3\n        /* \"#utility.yul\":1908:1944   */\n      mstore\n        /* \"#utility.yul\":1835:1950   */\n      pop\n      pop\n      jump\t// out\n        /* \"#utility.yul\":1956:2320   */\n    tag_129:\n        /* \"#utility.yul\":2044:2047   */\n      0x00\n        /* \"#utility.yul\":2072:2111   */\n      tag_131\n        /* \"#utility.yul\":2105:2110   */\n      dup3\n        /* \"#utility.yul\":2072:2111   */\n      tag_132\n      jump\t// in\n    tag_131:\n        /* \"#utility.yul\":2127:2198   */\n      tag_133\n        /* \"#utility.yul\":2191:2197   */\n      dup2\n        /* \"#utility.yul\":2186:2189   */\n      dup6\n        /* \"#utility.yul\":2127:2198   */\n      tag_134\n      jump\t// in\n    tag_133:\n        /* \"#utility.yul\":2120:2198   */\n      swap4\n      pop\n        /* \"#utility.yul\":2207:2259   */\n      tag_135\n        /* \"#utility.yul\":2252:2258   */\n      dup2\n        /* \"#utility.yul\":2247:2250   */\n      dup6\n        /* \"#utility.yul\":2240:2244   */\n      0x20\n        /* \"#utility.yul\":2233:2238   */\n      dup7\n        /* \"#utility.yul\":2229:2245   */\n      add\n        /* \"#utility.yul\":2207:2259   */\n      tag_136\n      jump\t// in\n    tag_135:\n        /* \"#utility.yul\":2284:2313   */\n      tag_137\n        /* \"#utility.yul\":2306:2312   */\n      dup2\n        /* \"#utility.yul\":2284:2313   */\n      tag_138\n      jump\t// in\n    tag_137:\n        /* \"#utility.yul\":2279:2282   */\n      dup5\n        /* \"#utility.yul\":2275:2314   */\n      add\n        /* \"#utility.yul\":2268:2314   */\n      swap2\n      pop\n        /* \"#utility.yul\":2048:2320   */\n      pop\n        /* \"#utility.yul\":1956:2320   */\n      swap3\n      swap2\n      pop\n      pop\n      jump\t// out\n        /* \"#utility.yul\":2326:2692   */\n    tag_139:\n        /* \"#utility.yul\":2468:2471   */\n      0x00\n        /* \"#utility.yul\":2489:2556   */\n      tag_141\n        /* \"#utility.yul\":2553:2555   */\n      0x2a\n        /* \"#utility.yul\":2548:2551   */\n      dup4\n        /* \"#utility.yul\":2489:2556   */\n      tag_134\n      jump\t// in\n    tag_141:\n        /* \"#utility.yul\":2482:2556   */\n      swap2\n      pop\n        /* \"#utility.yul\":2565:2658   */\n      tag_142\n        /* \"#utility.yul\":2654:2657   */\n      dup3\n        /* \"#utility.yul\":2565:2658   */\n      tag_143\n      jump\t// in\n    tag_142:\n        /* \"#utility.yul\":2683:2685   */\n      0x40\n        /* \"#utility.yul\":2678:2681   */\n      dup3\n        /* \"#utility.yul\":2674:2686   */\n      add\n        /* \"#utility.yul\":2667:2686   */\n      swap1\n      pop\n        /* \"#utility.yul\":2326:2692   */\n      swap2\n      swap1\n      pop\n      jump\t// out\n        /* \"#utility.yul\":2698:3064   */\n    tag_144:\n        /* \"#utility.yul\":2840:2843   */\n      0x00\n        /* \"#utility.yul\":2861:2928   */\n      tag_146\n        /* \"#utility.yul\":2925:2927   */\n      0x1c\n        /* \"#utility.yul\":2920:2923   */\n      dup4\n        /* \"#utility.yul\":2861:2928   */\n      tag_134\n      jump\t// in\n    tag_146:\n        /* \"#utility.yul\":2854:2928   */\n      swap2\n      pop\n        /* \"#utility.yul\":2937:3030   */\n      tag_147\n        /* \"#utility.yul\":3026:3029   */\n      dup3\n        /* \"#utility.yul\":2937:3030   */\n      tag_148\n      jump\t// in\n    tag_147:\n        /* \"#utility.yul\":3055:3057   */\n      0x20\n        /* \"#utility.yul\":3050:3053   */\n      dup3\n        /* \"#utility.yul\":3046:3058   */\n      add\n        /* \"#utility.yul\":3039:3058   */\n      swap1\n      pop\n        /* \"#utility.yul\":2698:3064   */\n      swap2\n      swap1\n      pop\n      jump\t// out\n        /* \"#utility.yul\":3070:3188   */\n    tag_149:\n        /* \"#utility.yul\":3157:3181   */\n      tag_151\n        /* \"#utility.yul\":3175:3180   */\n      dup2\n        /* \"#utility.yul\":3157:3181   */\n      tag_152\n      jump\t// in\n    tag_151:\n        /* \"#utility.yul\":3152:3155   */\n      dup3\n        /* \"#utility.yul\":3145:3182   */\n      mstore\n        /* \"#utility.yul\":3070:3188   */\n      pop\n      pop\n      jump\t// out\n        /* \"#utility.yul\":3194:3416   */\n    tag_27:\n        /* \"#utility.yul\":3287:3291   */\n      0x00\n        /* \"#utility.yul\":3325:3327   */\n      0x20\n        /* \"#utility.yul\":3314:3323   */\n      dup3\n        /* \"#utility.yul\":3310:3328   */\n      add\n        /* \"#utility.yul\":3302:3328   */\n      swap1\n      pop\n        /* \"#utility.yul\":3338:3409   */\n      tag_154\n        /* \"#utility.yul\":3406:3407   */\n      0x00\n        /* \"#utility.yul\":3395:3404   */\n      dup4\n        /* \"#utility.yul\":3391:3408   */\n      add\n        /* \"#utility.yul\":3382:3388   */\n      dup5\n        /* \"#utility.yul\":3338:3409   */\n      tag_113\n      jump\t// in\n    tag_154:\n        /* \"#utility.yul\":3194:3416   */\n      swap3\n      swap2\n      pop\n      pop\n      jump\t// out\n        /* \"#utility.yul\":3422:3632   */\n    tag_36:\n        /* \"#utility.yul\":3509:3513   */\n      0x00\n        /* \"#utility.yul\":3547:3549   */\n      0x20\n        /* \"#utility.yul\":3536:3545   */\n      dup3\n        /* \"#utility.yul\":3532:3550   */\n      add\n        /* \"#utility.yul\":3524:3550   */\n      swap1\n      pop\n        /* \"#utility.yul\":3560:3625   */\n      tag_156\n        /* \"#utility.yul\":3622:3623   */\n      0x00\n        /* \"#utility.yul\":3611:3620   */\n      dup4\n        /* \"#utility.yul\":3607:3624   */\n      add\n        /* \"#utility.yul\":3598:3604   */\n      dup5\n        /* \"#utility.yul\":3560:3625   */\n      tag_117\n      jump\t// in\n    tag_156:\n        /* \"#utility.yul\":3422:3632   */\n      swap3\n      swap2\n      pop\n      pop\n      jump\t// out\n        /* \"#utility.yul\":3638:4274   */\n    tag_41:\n        /* \"#utility.yul\":3829:3833   */\n      0x00\n        /* \"#utility.yul\":3867:3870   */\n      0xa0\n        /* \"#utility.yul\":3856:3865   */\n      dup3\n        /* \"#utility.yul\":3852:3871   */\n      add\n        /* \"#utility.yul\":3844:3871   */\n      swap1\n      pop\n        /* \"#utility.yul\":3881:3946   */\n      tag_158\n        /* \"#utility.yul\":3943:3944   */\n      0x00\n        /* \"#utility.yul\":3932:3941   */\n      dup4\n        /* \"#utility.yul\":3928:3945   */\n      add\n        /* \"#utility.yul\":3919:3925   */\n      dup9\n        /* \"#utility.yul\":3881:3946   */\n      tag_117\n      jump\t// in\n    tag_158:\n        /* \"#utility.yul\":3956:4022   */\n      tag_159\n        /* \"#utility.yul\":4018:4020   */\n      0x20\n        /* \"#utility.yul\":4007:4016   */\n      dup4\n        /* \"#utility.yul\":4003:4021   */\n      add\n        /* \"#utility.yul\":3994:4000   */\n      dup8\n        /* \"#utility.yul\":3956:4022   */\n      tag_117\n      jump\t// in\n    tag_159:\n        /* \"#utility.yul\":4032:4102   */\n      tag_160\n        /* \"#utility.yul\":4098:4100   */\n      0x40\n        /* \"#utility.yul\":4087:4096   */\n      dup4\n        /* \"#utility.yul\":4083:4101   */\n      add\n        /* \"#utility.yul\":4074:4080   */\n      dup7\n        /* \"#utility.yul\":4032:4102   */\n      tag_125\n      jump\t// in\n    tag_160:\n        /* \"#utility.yul\":4112:4184   */\n      tag_161\n        /* \"#utility.yul\":4180:4182   */\n      0x60\n        /* \"#utility.yul\":4169:4178   */\n      dup4\n        /* \"#utility.yul\":4165:4183   */\n      add\n        /* \"#utility.yul\":4156:4162   */\n      dup6\n        /* \"#utility.yul\":4112:4184   */\n      tag_149\n      jump\t// in\n    tag_161:\n        /* \"#utility.yul\":4194:4267   */\n      tag_162\n        /* \"#utility.yul\":4262:4265   */\n      0x80\n        /* \"#utility.yul\":4251:4260   */\n      dup4\n        /* \"#utility.yul\":4247:4266   */\n      add\n        /* \"#utility.yul\":4238:4244   */\n      dup5\n        /* \"#utility.yul\":4194:4267   */\n      tag_149\n      jump\t// in\n    tag_162:\n        /* \"#utility.yul\":3638:4274   */\n      swap7\n      swap6\n      pop\n      pop\n      pop\n      pop\n      pop\n      pop\n      jump\t// out\n        /* \"#utility.yul\":4280:4514   */\n    tag_49:\n        /* \"#utility.yul\":4379:4383   */\n      0x00\n        /* \"#utility.yul\":4417:4419   */\n      0x20\n        /* \"#utility.yul\":4406:4415   */\n      dup3\n        /* \"#utility.yul\":4402:4420   */\n      add\n        /* \"#utility.yul\":4394:4420   */\n      swap1\n      pop\n        /* \"#utility.yul\":4430:4507   */\n      tag_164\n        /* \"#utility.yul\":4504:4505   */\n      0x00\n        /* \"#utility.yul\":4493:4502   */\n      dup4\n        /* \"#utility.yul\":4489:4506   */\n      add\n        /* \"#utility.yul\":4480:4486   */\n      dup5\n        /* \"#utility.yul\":4430:4507   */\n      tag_121\n      jump\t// in\n    tag_164:\n        /* \"#utility.yul\":4280:4514   */\n      swap3\n      swap2\n      pop\n      pop\n      jump\t// out\n        /* \"#utility.yul\":4520:4939   */\n    tag_80:\n        /* \"#utility.yul\":4686:4690   */\n      0x00\n        /* \"#utility.yul\":4724:4726   */\n      0x20\n        /* \"#utility.yul\":4713:4722   */\n      dup3\n        /* \"#utility.yul\":4709:4727   */\n      add\n        /* \"#utility.yul\":4701:4727   */\n      swap1\n      pop\n        /* \"#utility.yul\":4773:4782   */\n      dup2\n        /* \"#utility.yul\":4767:4771   */\n      dup2\n        /* \"#utility.yul\":4763:4783   */\n      sub\n        /* \"#utility.yul\":4759:4760   */\n      0x00\n        /* \"#utility.yul\":4748:4757   */\n      dup4\n        /* \"#utility.yul\":4744:4761   */\n      add\n        /* \"#utility.yul\":4737:4784   */\n      mstore\n        /* \"#utility.yul\":4801:4932   */\n      tag_166\n        /* \"#utility.yul\":4927:4931   */\n      dup2\n        /* \"#utility.yul\":4801:4932   */\n      tag_139\n      jump\t// in\n    tag_166:\n        /* \"#utility.yul\":4793:4932   */\n      swap1\n      pop\n        /* \"#utility.yul\":4520:4939   */\n      swap2\n      swap1\n      pop\n      jump\t// out\n        /* \"#utility.yul\":4945:5364   */\n    tag_76:\n        /* \"#utility.yul\":5111:5115   */\n      0x00\n        /* \"#utility.yul\":5149:5151   */\n      0x20\n        /* \"#utility.yul\":5138:5147   */\n      dup3\n        /* \"#utility.yul\":5134:5152   */\n      add\n        /* \"#utility.yul\":5126:5152   */\n      swap1\n      pop\n        /* \"#utility.yul\":5198:5207   */\n      dup2\n        /* \"#utility.yul\":5192:5196   */\n      dup2\n        /* \"#utility.yul\":5188:5208   */\n      sub\n        /* \"#utility.yul\":5184:5185   */\n      0x00\n        /* \"#utility.yul\":5173:5182   */\n      dup4\n        /* \"#utility.yul\":5169:5186   */\n      add\n        /* \"#utility.yul\":5162:5209   */\n      mstore\n        /* \"#utility.yul\":5226:5357   */\n      tag_168\n        /* \"#utility.yul\":5352:5356   */\n      dup2\n        /* \"#utility.yul\":5226:5357   */\n      tag_144\n      jump\t// in\n    tag_168:\n        /* \"#utility.yul\":5218:5357   */\n      swap1\n      pop\n        /* \"#utility.yul\":4945:5364   */\n      swap2\n      swap1\n      pop\n      jump\t// out\n        /* \"#utility.yul\":5370:5592   */\n    tag_17:\n        /* \"#utility.yul\":5463:5467   */\n      0x00\n        /* \"#utility.yul\":5501:5503   */\n      0x20\n        /* \"#utility.yul\":5490:5499   */\n      dup3\n        /* \"#utility.yul\":5486:5504   */\n      add\n        /* \"#utility.yul\":5478:5504   */\n      swap1\n      pop\n        /* \"#utility.yul\":5514:5585   */\n      tag_170\n        /* \"#utility.yul\":5582:5583   */\n      0x00\n        /* \"#utility.yul\":5571:5580   */\n      dup4\n        /* \"#utility.yul\":5567:5584   */\n      add\n        /* \"#utility.yul\":5558:5564   */\n      dup5\n        /* \"#utility.yul\":5514:5585   */\n      tag_149\n      jump\t// in\n    tag_170:\n        /* \"#utility.yul\":5370:5592   */\n      swap3\n      swap2\n      pop\n      pop\n      jump\t// out\n        /* \"#utility.yul\":5598:6131   */\n    tag_23:\n        /* \"#utility.yul\":5767:5771   */\n      0x00\n        /* \"#utility.yul\":5805:5807   */\n      0x60\n        /* \"#utility.yul\":5794:5803   */\n      dup3\n        /* \"#utility.yul\":5790:5808   */\n      add\n        /* \"#utility.yul\":5782:5808   */\n      swap1\n      pop\n        /* \"#utility.yul\":5818:5889   */\n      tag_172\n        /* \"#utility.yul\":5886:5887   */\n      0x00\n        /* \"#utility.yul\":5875:5884   */\n      dup4\n        /* \"#utility.yul\":5871:5888   */\n      add\n        /* \"#utility.yul\":5862:5868   */\n      dup7\n        /* \"#utility.yul\":5818:5889   */\n      tag_149\n      jump\t// in\n    tag_172:\n        /* \"#utility.yul\":5936:5945   */\n      dup2\n        /* \"#utility.yul\":5930:5934   */\n      dup2\n        /* \"#utility.yul\":5926:5946   */\n      sub\n        /* \"#utility.yul\":5921:5923   */\n      0x20\n        /* \"#utility.yul\":5910:5919   */\n      dup4\n        /* \"#utility.yul\":5906:5924   */\n      add\n        /* \"#utility.yul\":5899:5947   */\n      mstore\n        /* \"#utility.yul\":5964:6042   */\n      tag_173\n        /* \"#utility.yul\":6037:6041   */\n      dup2\n        /* \"#utility.yul\":6028:6034   */\n      dup6\n        /* \"#utility.yul\":5964:6042   */\n      tag_129\n      jump\t// in\n    tag_173:\n        /* \"#utility.yul\":5956:6042   */\n      swap1\n      pop\n        /* \"#utility.yul\":6052:6124   */\n      tag_174\n        /* \"#utility.yul\":6120:6122   */\n      0x40\n        /* \"#utility.yul\":6109:6118   */\n      dup4\n        /* \"#utility.yul\":6105:6123   */\n      add\n        /* \"#utility.yul\":6096:6102   */\n      dup5\n        /* \"#utility.yul\":6052:6124   */\n      tag_149\n      jump\t// in\n    tag_174:\n        /* \"#utility.yul\":5598:6131   */\n      swap5\n      swap4\n      pop\n      pop\n      pop\n      pop\n      jump\t// out\n        /* \"#utility.yul\":6137:6781   */\n    tag_57:\n        /* \"#utility.yul\":6334:6338   */\n      0x00\n        /* \"#utility.yul\":6372:6375   */\n      0x80\n        /* \"#utility.yul\":6361:6370   */\n      dup3\n        /* \"#utility.yul\":6357:6376   */\n      add\n        /* \"#utility.yul\":6349:6376   */\n      swap1\n      pop\n        /* \"#utility.yul\":6386:6457   */\n      tag_176\n        /* \"#utility.yul\":6454:6455   */\n      0x00\n        /* \"#utility.yul\":6443:6452   */\n      dup4\n        /* \"#utility.yul\":6439:6456   */\n      add\n        /* \"#utility.yul\":6430:6436   */\n      dup8\n        /* \"#utility.yul\":6386:6457   */\n      tag_149\n      jump\t// in\n    tag_176:\n        /* \"#utility.yul\":6504:6513   */\n      dup2\n        /* \"#utility.yul\":6498:6502   */\n      dup2\n        /* \"#utility.yul\":6494:6514   */\n      sub\n        /* \"#utility.yul\":6489:6491   */\n      0x20\n        /* \"#utility.yul\":6478:6487   */\n      dup4\n        /* \"#utility.yul\":6474:6492   */\n      add\n        /* \"#utility.yul\":6467:6515   */\n      mstore\n        /* \"#utility.yul\":6532:6610   */\n      tag_177\n        /* \"#utility.yul\":6605:6609   */\n      dup2\n        /* \"#utility.yul\":6596:6602   */\n      dup7\n        /* \"#utility.yul\":6532:6610   */\n      tag_129\n      jump\t// in\n    tag_177:\n        /* \"#utility.yul\":6524:6610   */\n      swap1\n      pop\n        /* \"#utility.yul\":6620:6692   */\n      tag_178\n        /* \"#utility.yul\":6688:6690   */\n      0x40\n        /* \"#utility.yul\":6677:6686   */\n      dup4\n        /* \"#utility.yul\":6673:6691   */\n      add\n        /* \"#utility.yul\":6664:6670   */\n      dup6\n        /* \"#utility.yul\":6620:6692   */\n      tag_149\n      jump\t// in\n    tag_178:\n        /* \"#utility.yul\":6702:6774   */\n      tag_179\n        /* \"#utility.yul\":6770:6772   */\n      0x60\n        /* \"#utility.yul\":6759:6768   */\n      dup4\n        /* \"#utility.yul\":6755:6773   */\n      add\n        /* \"#utility.yul\":6746:6752   */\n      dup5\n        /* \"#utility.yul\":6702:6774   */\n      tag_149\n      jump\t// in\n    tag_179:\n        /* \"#utility.yul\":6137:6781   */\n      swap6\n      swap5\n      pop\n      pop\n      pop\n      pop\n      pop\n      jump\t// out\n        /* \"#utility.yul\":6868:6967   */\n    tag_132:\n        /* \"#utility.yul\":6920:6926   */\n      0x00\n        /* \"#utility.yul\":6954:6959   */\n      dup2\n        /* \"#utility.yul\":6948:6960   */\n      mload\n        /* \"#utility.yul\":6938:6960   */\n      swap1\n      pop\n        /* \"#utility.yul\":6868:6967   */\n      swap2\n      swap1\n      pop\n      jump\t// out\n        /* \"#utility.yul\":6973:7142   */\n    tag_134:\n        /* \"#utility.yul\":7057:7068   */\n      0x00\n        /* \"#utility.yul\":7091:7097   */\n      dup3\n        /* \"#utility.yul\":7086:7089   */\n      dup3\n        /* \"#utility.yul\":7079:7098   */\n      mstore\n        /* \"#utility.yul\":7131:7135   */\n      0x20\n        /* \"#utility.yul\":7126:7129   */\n      dup3\n        /* \"#utility.yul\":7122:7136   */\n      add\n        /* \"#utility.yul\":7107:7136   */\n      swap1\n      pop\n        /* \"#utility.yul\":6973:7142   */\n      swap3\n      swap2\n      pop\n      pop\n      jump\t// out\n        /* \"#utility.yul\":7148:7244   */\n    tag_116:\n        /* \"#utility.yul\":7185:7192   */\n      0x00\n        /* \"#utility.yul\":7214:7238   */\n      tag_185\n        /* \"#utility.yul\":7232:7237   */\n      dup3\n        /* \"#utility.yul\":7214:7238   */\n      tag_186\n      jump\t// in\n    tag_185:\n        /* \"#utility.yul\":7203:7238   */\n      swap1\n      pop\n        /* \"#utility.yul\":7148:7244   */\n      swap2\n      swap1\n      pop\n      jump\t// out\n        /* \"#utility.yul\":7250:7340   */\n    tag_120:\n        /* \"#utility.yul\":7284:7291   */\n      0x00\n        /* \"#utility.yul\":7327:7332   */\n      dup2\n        /* \"#utility.yul\":7320:7333   */\n      iszero\n        /* \"#utility.yul\":7313:7334   */\n      iszero\n        /* \"#utility.yul\":7302:7334   */\n      swap1\n      pop\n        /* \"#utility.yul\":7250:7340   */\n      swap2\n      swap1\n      pop\n      jump\t// out\n        /* \"#utility.yul\":7346:7473   */\n    tag_188:\n        /* \"#utility.yul\":7391:7398   */\n      0x00\n        /* \"#utility.yul\":7420:7425   */\n      dup2\n        /* \"#utility.yul\":7409:7425   */\n      swap1\n      pop\n        /* \"#utility.yul\":7426:7467   */\n      tag_190\n        /* \"#utility.yul\":7461:7466   */\n      dup3\n        /* \"#utility.yul\":7426:7467   */\n      tag_191\n      jump\t// in\n    tag_190:\n        /* \"#utility.yul\":7346:7473   */\n      swap2\n      swap1\n      pop\n      jump\t// out\n        /* \"#utility.yul\":7479:7555   */\n    tag_128:\n        /* \"#utility.yul\":7515:7522   */\n      0x00\n        /* \"#utility.yul\":7544:7549   */\n      dup2\n        /* \"#utility.yul\":7533:7549   */\n      swap1\n      pop\n        /* \"#utility.yul\":7479:7555   */\n      swap2\n      swap1\n      pop\n      jump\t// out\n        /* \"#utility.yul\":7561:7687   */\n    tag_186:\n        /* \"#utility.yul\":7598:7605   */\n      0x00\n        /* \"#utility.yul\":7638:7680   */\n      0xffffffffffffffffffffffffffffffffffffffff\n        /* \"#utility.yul\":7631:7636   */\n      dup3\n        /* \"#utility.yul\":7627:7681   */\n      and\n        /* \"#utility.yul\":7616:7681   */\n      swap1\n      pop\n        /* \"#utility.yul\":7561:7687   */\n      swap2\n      swap1\n      pop\n      jump\t// out\n        /* \"#utility.yul\":7693:7770   */\n    tag_152:\n        /* \"#utility.yul\":7730:7737   */\n      0x00\n        /* \"#utility.yul\":7759:7764   */\n      dup2\n        /* \"#utility.yul\":7748:7764   */\n      swap1\n      pop\n        /* \"#utility.yul\":7693:7770   */\n      swap2\n      swap1\n      pop\n      jump\t// out\n        /* \"#utility.yul\":7776:7903   */\n    tag_124:\n        /* \"#utility.yul\":7832:7841   */\n      0x00\n        /* \"#utility.yul\":7865:7897   */\n      tag_196\n        /* \"#utility.yul\":7891:7896   */\n      dup3\n        /* \"#utility.yul\":7865:7897   */\n      tag_188\n      jump\t// in\n    tag_196:\n        /* \"#utility.yul\":7852:7897   */\n      swap1\n      pop\n        /* \"#utility.yul\":7776:7903   */\n      swap2\n      swap1\n      pop\n      jump\t// out\n        /* \"#utility.yul\":7909:8216   */\n    tag_136:\n        /* \"#utility.yul\":7977:7978   */\n      0x00\n        /* \"#utility.yul\":7987:8100   */\n    tag_198:\n        /* \"#utility.yul\":8001:8007   */\n      dup4\n        /* \"#utility.yul\":7998:7999   */\n      dup2\n        /* \"#utility.yul\":7995:8008   */\n      lt\n        /* \"#utility.yul\":7987:8100   */\n      iszero\n      tag_200\n      jumpi\n        /* \"#utility.yul\":8086:8087   */\n      dup1\n        /* \"#utility.yul\":8081:8084   */\n      dup3\n        /* \"#utility.yul\":8077:8088   */\n      add\n        /* \"#utility.yul\":8071:8089   */\n      mload\n        /* \"#utility.yul\":8067:8068   */\n      dup2\n        /* \"#utility.yul\":8062:8065   */\n      dup5\n        /* \"#utility.yul\":8058:8069   */\n      add\n        /* \"#utility.yul\":8051:8090   */\n      mstore\n        /* \"#utility.yul\":8023:8025   */\n      0x20\n        /* \"#utility.yul\":8020:8021   */\n      dup2\n        /* \"#utility.yul\":8016:8026   */\n      add\n        /* \"#utility.yul\":8011:8026   */\n      swap1\n      pop\n        /* \"#utility.yul\":7987:8100   */\n      jump(tag_198)\n    tag_200:\n        /* \"#utility.yul\":8118:8124   */\n      dup4\n        /* \"#utility.yul\":8115:8116   */\n      dup2\n        /* \"#utility.yul\":8112:8125   */\n      gt\n        /* \"#utility.yul\":8109:8210   */\n      iszero\n      tag_201\n      jumpi\n        /* \"#utility.yul\":8198:8199   */\n      0x00\n        /* \"#utility.yul\":8189:8195   */\n      dup5\n        /* \"#utility.yul\":8184:8187   */\n      dup5\n        /* \"#utility.yul\":8180:8196   */\n      add\n        /* \"#utility.yul\":8173:8200   */\n      mstore\n        /* \"#utility.yul\":8109:8210   */\n    tag_201:\n        /* \"#utility.yul\":7958:8216   */\n      pop\n        /* \"#utility.yul\":7909:8216   */\n      pop\n      pop\n      pop\n      jump\t// out\n        /* \"#utility.yul\":8222:8542   */\n    tag_59:\n        /* \"#utility.yul\":8266:8272   */\n      0x00\n        /* \"#utility.yul\":8303:8304   */\n      0x02\n        /* \"#utility.yul\":8297:8301   */\n      dup3\n        /* \"#utility.yul\":8293:8305   */\n      div\n        /* \"#utility.yul\":8283:8305   */\n      swap1\n      pop\n        /* \"#utility.yul\":8350:8351   */\n      0x01\n        /* \"#utility.yul\":8344:8348   */\n      dup3\n        /* \"#utility.yul\":8340:8352   */\n      and\n        /* \"#utility.yul\":8371:8389   */\n      dup1\n        /* \"#utility.yul\":8361:8442   */\n      tag_203\n      jumpi\n        /* \"#utility.yul\":8427:8431   */\n      0x7f\n        /* \"#utility.yul\":8419:8425   */\n      dup3\n        /* \"#utility.yul\":8415:8432   */\n      and\n        /* \"#utility.yul\":8405:8432   */\n      swap2\n      pop\n        /* \"#utility.yul\":8361:8442   */\n    tag_203:\n        /* \"#utility.yul\":8489:8491   */\n      0x20\n        /* \"#utility.yul\":8481:8487   */\n      dup3\n        /* \"#utility.yul\":8478:8492   */\n      lt\n        /* \"#utility.yul\":8458:8476   */\n      dup2\n        /* \"#utility.yul\":8455:8493   */\n      eq\n        /* \"#utility.yul\":8452:8536   */\n      iszero\n      tag_204\n      jumpi\n        /* \"#utility.yul\":8508:8526   */\n      tag_205\n      tag_206\n      jump\t// in\n    tag_205:\n        /* \"#utility.yul\":8452:8536   */\n    tag_204:\n        /* \"#utility.yul\":8273:8542   */\n      pop\n        /* \"#utility.yul\":8222:8542   */\n      swap2\n      swap1\n      pop\n      jump\t// out\n        /* \"#utility.yul\":8548:8781   */\n    tag_84:\n        /* \"#utility.yul\":8587:8590   */\n      0x00\n        /* \"#utility.yul\":8610:8634   */\n      tag_208\n        /* \"#utility.yul\":8628:8633   */\n      dup3\n        /* \"#utility.yul\":8610:8634   */\n      tag_152\n      jump\t// in\n    tag_208:\n        /* \"#utility.yul\":8601:8634   */\n      swap2\n      pop\n        /* \"#utility.yul\":8656:8722   */\n      0xffffffffffffffffffffffffffffffffffffffffffffffffffffffffffffffff\n        /* \"#utility.yul\":8649:8654   */\n      dup3\n        /* \"#utility.yul\":8646:8723   */\n      eq\n        /* \"#utility.yul\":8643:8746   */\n      iszero\n      tag_209\n      jumpi\n        /* \"#utility.yul\":8726:8744   */\n      tag_210\n      tag_211\n      jump\t// in\n    tag_210:\n        /* \"#utility.yul\":8643:8746   */\n    tag_209:\n        /* \"#utility.yul\":8773:8774   */\n      0x01\n        /* \"#utility.yul\":8766:8771   */\n      dup3\n        /* \"#utility.yul\":8762:8775   */\n      add\n        /* \"#utility.yul\":8755:8775   */\n      swap1\n      pop\n        /* \"#utility.yul\":8548:8781   */\n      swap2\n      swap1\n      pop\n      jump\t// out\n        /* \"#utility.yul\":8787:8967   */\n    tag_211:\n        /* \"#utility.yul\":8835:8912   */\n      0x4e487b7100000000000000000000000000000000000000000000000000000000\n        /* \"#utility.yul\":8832:8833   */\n      0x00\n        /* \"#utility.yul\":8825:8913   */\n      mstore\n        /* \"#utility.yul\":8932:8936   */\n      0x11\n        /* \"#utility.yul\":8929:8930   */\n      0x04\n        /* \"#utility.yul\":8922:8937   */\n      mstore\n        /* \"#utility.yul\":8956:8960   */\n      0x24\n        /* \"#utility.yul\":8953:8954   */\n      0x00\n        /* \"#utility.yul\":8946:8961   */\n      revert\n        /* \"#utility.yul\":8973:9153   */\n    tag_67:\n        /* \"#utility.yul\":9021:9098   */\n      0x4e487b7100000000000000000000000000000000000000000000000000000000\n        /* \"#utility.yul\":9018:9019   */\n      0x00\n        /* \"#utility.yul\":9011:9099   */\n      mstore\n        /* \"#utility.yul\":9118:9122   */\n      0x21\n        /* \"#utility.yul\":9115:9116   */\n      0x04\n        /* \"#utility.yul\":9108:9123   */\n      mstore\n        /* \"#utility.yul\":9142:9146   */\n      0x24\n        /* \"#utility.yul\":9139:9140   */\n      0x00\n        /* \"#utility.yul\":9132:9147   */\n      revert\n        /* \"#utility.yul\":9159:9339   */\n    tag_206:\n        /* \"#utility.yul\":9207:9284   */\n      0x4e487b7100000000000000000000000000000000000000000000000000000000\n        /* \"#utility.yul\":9204:9205   */\n      0x00\n        /* \"#utility.yul\":9197:9285   */\n      mstore\n        /* \"#utility.yul\":9304:9308   */\n      0x22\n        /* \"#utility.yul\":9301:9302   */\n      0x04\n        /* \"#utility.yul\":9294:9309   */\n      mstore\n        /* \"#utility.yul\":9328:9332   */\n      0x24\n        /* \"#utility.yul\":9325:9326   */\n      0x00\n        /* \"#utility.yul\":9318:9333   */\n      revert\n        /* \"#utility.yul\":9468:9585   */\n    tag_102:\n        /* \"#utility.yul\":9577:9578   */\n      0x00\n        /* \"#utility.yul\":9574:9575   */\n      dup1\n        /* \"#utility.yul\":9567:9579   */\n      revert\n        /* \"#utility.yul\":9591:9693   */\n    tag_138:\n        /* \"#utility.yul\":9632:9638   */\n      0x00\n        /* \"#utility.yul\":9683:9685   */\n      0x1f\n        /* \"#utility.yul\":9679:9686   */\n      not\n        /* \"#utility.yul\":9674:9676   */\n      0x1f\n        /* \"#utility.yul\":9667:9672   */\n      dup4\n        /* \"#utility.yul\":9663:9677   */\n      add\n        /* \"#utility.yul\":9659:9687   */\n      and\n        /* \"#utility.yul\":9649:9687   */\n      swap1\n      pop\n        /* \"#utility.yul\":9591:9693   */\n      swap2\n      swap1\n      pop\n      jump\t// out\n        /* \"#utility.yul\":9699:9928   */\n    tag_143:\n        /* \"#utility.yul\":9839:9873   */\n      0x506c656173652070726f7669646520612076616c696420706f6c6c696e672073\n        /* \"#utility.yul\":9835:9836   */\n      0x00\n        /* \"#utility.yul\":9827:9833   */\n      dup3\n        /* \"#utility.yul\":9823:9837   */\n      add\n        /* \"#utility.yul\":9816:9874   */\n      mstore\n        /* \"#utility.yul\":9908:9920   */\n      0x746174696f6e2049442e00000000000000000000000000000000000000000000\n        /* \"#utility.yul\":9903:9905   */\n      0x20\n        /* \"#utility.yul\":9895:9901   */\n      dup3\n        /* \"#utility.yul\":9891:9906   */\n      add\n        /* \"#utility.yul\":9884:9921   */\n      mstore\n        /* \"#utility.yul\":9699:9928   */\n      pop\n      jump\t// out\n        /* \"#utility.yul\":9934:10112   */\n    tag_148:\n        /* \"#utility.yul\":10074:10104   */\n      0x566f74657220697320616c726561647920726567697374657265642e00000000\n        /* \"#utility.yul\":10070:10071   */\n      0x00\n        /* \"#utility.yul\":10062:10068   */\n      dup3\n        /* \"#utility.yul\":10058:10072   */\n      add\n        /* \"#utility.yul\":10051:10105   */\n      mstore\n        /* \"#utility.yul\":9934:10112   */\n      pop\n      jump\t// out\n        /* \"#utility.yul\":10118:10231   */\n    tag_191:\n        /* \"#utility.yul\":10199:10200   */\n      0x03\n        /* \"#utility.yul\":10192:10197   */\n      dup2\n        /* \"#utility.yul\":10189:10201   */\n      lt\n        /* \"#utility.yul\":10179:10225   */\n      tag_222\n      jumpi\n        /* \"#utility.yul\":10205:10223   */\n      tag_223\n      tag_67\n      jump\t// in\n    tag_223:\n        /* \"#utility.yul\":10179:10225   */\n    tag_222:\n        /* \"#utility.yul\":10118:10231   */\n      pop\n      jump\t// out\n        /* \"#utility.yul\":10237:10359   */\n    tag_94:\n        /* \"#utility.yul\":10310:10334   */\n      tag_225\n        /* \"#utility.yul\":10328:10333   */\n      dup2\n        /* \"#utility.yul\":10310:10334   */\n      tag_116\n      jump\t// in\n    tag_225:\n        /* \"#utility.yul\":10303:10308   */\n      dup2\n        /* \"#utility.yul\":10300:10335   */\n      eq\n        /* \"#utility.yul\":10290:10353   */\n      tag_226\n      jumpi\n        /* \"#utility.yul\":10349:10350   */\n      0x00\n        /* \"#utility.yul\":10346:10347   */\n      dup1\n        /* \"#utility.yul\":10339:10351   */\n      revert\n        /* \"#utility.yul\":10290:10353   */\n    tag_226:\n        /* \"#utility.yul\":10237:10359   */\n      pop\n      jump\t// out\n        /* \"#utility.yul\":10365:10487   */\n    tag_98:\n        /* \"#utility.yul\":10438:10462   */\n      tag_228\n        /* \"#utility.yul\":10456:10461   */\n      dup2\n        /* \"#utility.yul\":10438:10462   */\n      tag_152\n      jump\t// in\n    tag_228:\n        /* \"#utility.yul\":10431:10436   */\n      dup2\n        /* \"#utility.yul\":10428:10463   */\n      eq\n        /* \"#utility.yul\":10418:10481   */\n      tag_229\n      jumpi\n        /* \"#utility.yul\":10477:10478   */\n      0x00\n        /* \"#utility.yul\":10474:10475   */\n      dup1\n        /* \"#utility.yul\":10467:10479   */\n      revert\n        /* \"#utility.yul\":10418:10481   */\n    tag_229:\n        /* \"#utility.yul\":10365:10487   */\n      pop\n      jump\t// out\n\n    auxdata: 0xa2646970667358221220c7fb20c6c78ad73d0e95ac4efc66ec1e0f706fdd888fab900649741df2b8b07464736f6c63430008070033\n}\n",
				"bytecode": {
					"linkReferences": {},
					"object": "608060405260006003553480156200001657600080fd5b50336000806101000a81548173ffffffffffffffffffffffffffffffffffffffff021916908373ffffffffffffffffffffffffffffffffffffffff16021790555062000067620000ab60201b60201c565b620000776200020b60201b60201c565b6000600860006101000a81548160ff02191690836002811115620000a0576200009f62000753565b5b0217905550620007b1565b620000f16040518060400160405280600b81526020017f43616e6469646174652031000000000000000000000000000000000000000000815250620004c960201b60201c565b620001376040518060400160405280600b81526020017f43616e6469646174652032000000000000000000000000000000000000000000815250620004c960201b60201c565b6200017d6040518060400160405280600b81526020017f43616e6469646174652033000000000000000000000000000000000000000000815250620004c960201b60201c565b620001c36040518060400160405280600b81526020017f43616e6469646174652034000000000000000000000000000000000000000000815250620004c960201b60201c565b620002096040518060400160405280600b81526020017f43616e6469646174652035000000000000000000000000000000000000000000815250620004c960201b60201c565b565b620002516040518060400160405280601181526020017f506f6c6c696e672053746174696f6e20310000000000000000000000000000008152506200054f60201b60201c565b620002976040518060400160405280601181526020017f506f6c6c696e672053746174696f6e20320000000000000000000000000000008152506200054f60201b60201c565b620002dd6040518060400160405280601181526020017f506f6c6c696e672053746174696f6e20330000000000000000000000000000008152506200054f60201b60201c565b620003236040518060400160405280601181526020017f506f6c6c696e672053746174696f6e20340000000000000000000000000000008152506200054f60201b60201c565b620003696040518060400160405280601181526020017f506f6c6c696e672053746174696f6e20350000000000000000000000000000008152506200054f60201b60201c565b620003af6040518060400160405280601181526020017f506f6c6c696e672053746174696f6e20360000000000000000000000000000008152506200054f60201b60201c565b620003f56040518060400160405280601181526020017f506f6c6c696e672053746174696f6e20370000000000000000000000000000008152506200054f60201b60201c565b6200043b6040518060400160405280601181526020017f506f6c6c696e672053746174696f6e20380000000000000000000000000000008152506200054f60201b60201c565b620004816040518060400160405280601181526020017f506f6c6c696e672053746174696f6e20390000000000000000000000000000008152506200054f60201b60201c565b620004c76040518060400160405280601281526020017f506f6c6c696e672053746174696f6e20313000000000000000000000000000008152506200054f60201b60201c565b565b60016000815480929190620004de90620006d6565b91905055506040518060600160405280600154815260200182815260200160008152506004600060015481526020019081526020016000206000820151816000015560208201518160010190805190602001906200053e929190620005e6565b506040820151816002015590505050565b600260008154809291906200056490620006d6565b919050555060405180608001604052806002548152602001828152602001600081526020016000815250600560006002548152602001908152602001600020600082015181600001556020820151816001019080519060200190620005cb929190620005e6565b50604082015181600201556060820151816003015590505050565b828054620005f490620006a0565b90600052602060002090601f01602090048101928262000618576000855562000664565b82601f106200063357805160ff191683800117855562000664565b8280016001018555821562000664579182015b828111156200066357825182559160200191906001019062000646565b5b50905062000673919062000677565b5090565b5b808211156200069257600081600090555060010162000678565b5090565b6000819050919050565b60006002820490506001821680620006b957607f821691505b60208210811415620006d057620006cf62000782565b5b50919050565b6000620006e38262000696565b91507fffffffffffffffffffffffffffffffffffffffffffffffffffffffffffffffff82141562000719576200071862000724565b5b600182019050919050565b7f4e487b7100000000000000000000000000000000000000000000000000000000600052601160045260246000fd5b7f4e487b7100000000000000000000000000000000000000000000000000000000600052602160045260246000fd5b7f4e487b7100000000000000000000000000000000000000000000000000000000600052602260045260246000fd5b610cd880620007c16000396000f3fe608060405234801561001057600080fd5b506004361061009e5760003560e01c8063af15408711610066578063af1540871461015f578063b9f05f2f14610193578063c19d93fb146101af578063df9f1a07146101cd578063fe2442d7146101eb5761009e565b80632d35a8a2146100a35780633477ee2e146100c157806353357ad0146100f35780635f5300ff14610111578063a3ec138d1461012f575b600080fd5b6100ab61021e565b6040516100b8919061095f565b60405180910390f35b6100db60048036038101906100d69190610784565b610224565b6040516100ea9392919061097a565b60405180910390f35b6100fb6102d6565b604051610108919061087b565b60405180910390f35b6101196102fa565b604051610126919061095f565b60405180910390f35b61014960048036038101906101449190610717565b610300565b6040516101569190610896565b60405180910390f35b61017960048036038101906101749190610717565b610320565b60405161018a9594939291906108b1565b60405180910390f35b6101ad60048036038101906101a89190610744565b610370565b005b6101b76105e9565b6040516101c49190610904565b60405180910390f35b6101d56105fc565b6040516101e2919061095f565b60405180910390f35b61020560048036038101906102009190610784565b610602565b60405161021594939291906109b8565b60405180910390f35b60015481565b600460205280600052604060002060009150905080600001549080600101805461024d90610aca565b80601f016020809104026020016040519081016040528092919081815260200182805461027990610aca565b80156102c65780601f1061029b576101008083540402835291602001916102c6565b820191906000526020600020905b8154815290600101906020018083116102a957829003601f168201915b5050505050908060020154905083565b60008054906101000a900473ffffffffffffffffffffffffffffffffffffffff1681565b60035481565b60076020528060005260406000206000915054906101000a900460ff1681565b60066020528060005260406000206000915090508060000160009054906101000a900460ff16908060000160019054906101000a900460ff16908060010154908060020154908060030154905085565b600080600281111561038557610384610b74565b5b600860009054906101000a900460ff1660028111156103a7576103a6610b74565b5b146103b157600080fd5b60008054906101000a900473ffffffffffffffffffffffffffffffffffffffff1673ffffffffffffffffffffffffffffffffffffffff163373ffffffffffffffffffffffffffffffffffffffff161461040957600080fd5b6000600660008573ffffffffffffffffffffffffffffffffffffffff1673ffffffffffffffffffffffffffffffffffffffff168152602001908152602001600020600101541461048e576040517f08c379a00000000000000000000000000000000000000000000000000000000081526004016104859061093f565b60405180910390fd5b600182101580156104a157506002548211155b6104e0576040517f08c379a00000000000000000000000000000000000000000000000000000000081526004016104d79061091f565b60405180910390fd5b6104e86106ba565b60018160000190151590811515815250506000816020019015159081151581525050600081604001818152505082816060018181525050600081608001818152505080600660008673ffffffffffffffffffffffffffffffffffffffff1673ffffffffffffffffffffffffffffffffffffffff16815260200190815260200160002060008201518160000160006101000a81548160ff02191690831515021790555060208201518160000160016101000a81548160ff021916908315150217905550604082015181600101556060820151816002015560808201518160030155905050600360008154809291906105de90610afc565b919050555050505050565b600860009054906101000a900460ff1681565b60025481565b600560205280600052604060002060009150905080600001549080600101805461062b90610aca565b80601f016020809104026020016040519081016040528092919081815260200182805461065790610aca565b80156106a45780601f10610679576101008083540402835291602001916106a4565b820191906000526020600020905b81548152906001019060200180831161068757829003601f168201915b5050505050908060020154908060030154905084565b6040518060a001604052806000151581526020016000151581526020016000815260200160008152602001600081525090565b6000813590506106fc81610c74565b92915050565b60008135905061071181610c8b565b92915050565b60006020828403121561072d5761072c610bd2565b5b600061073b848285016106ed565b91505092915050565b6000806040838503121561075b5761075a610bd2565b5b6000610769858286016106ed565b925050602061077a85828601610702565b9150509250929050565b60006020828403121561079a57610799610bd2565b5b60006107a884828501610702565b91505092915050565b6107ba81610a20565b82525050565b6107c981610a32565b82525050565b6107d881610a85565b82525050565b6107e781610a51565b82525050565b60006107f882610a04565b6108028185610a0f565b9350610812818560208601610a97565b61081b81610bd7565b840191505092915050565b6000610833602a83610a0f565b915061083e82610be8565b604082019050919050565b6000610856601c83610a0f565b915061086182610c37565b602082019050919050565b61087581610a7b565b82525050565b600060208201905061089060008301846107b1565b92915050565b60006020820190506108ab60008301846107c0565b92915050565b600060a0820190506108c660008301886107c0565b6108d360208301876107c0565b6108e060408301866107de565b6108ed606083018561086c565b6108fa608083018461086c565b9695505050505050565b600060208201905061091960008301846107cf565b92915050565b6000602082019050818103600083015261093881610826565b9050919050565b6000602082019050818103600083015261095881610849565b9050919050565b6000602082019050610974600083018461086c565b92915050565b600060608201905061098f600083018661086c565b81810360208301526109a181856107ed565b90506109b0604083018461086c565b949350505050565b60006080820190506109cd600083018761086c565b81810360208301526109df81866107ed565b90506109ee604083018561086c565b6109fb606083018461086c565b95945050505050565b600081519050919050565b600082825260208201905092915050565b6000610a2b82610a5b565b9050919050565b60008115159050919050565b6000819050610a4c82610c60565b919050565b6000819050919050565b600073ffffffffffffffffffffffffffffffffffffffff82169050919050565b6000819050919050565b6000610a9082610a3e565b9050919050565b60005b83811015610ab5578082015181840152602081019050610a9a565b83811115610ac4576000848401525b50505050565b60006002820490506001821680610ae257607f821691505b60208210811415610af657610af5610ba3565b5b50919050565b6000610b0782610a7b565b91507fffffffffffffffffffffffffffffffffffffffffffffffffffffffffffffffff821415610b3a57610b39610b45565b5b600182019050919050565b7f4e487b7100000000000000000000000000000000000000000000000000000000600052601160045260246000fd5b7f4e487b7100000000000000000000000000000000000000000000000000000000600052602160045260246000fd5b7f4e487b7100000000000000000000000000000000000000000000000000000000600052602260045260246000fd5b600080fd5b6000601f19601f8301169050919050565b7f506c656173652070726f7669646520612076616c696420706f6c6c696e67207360008201527f746174696f6e2049442e00000000000000000000000000000000000000000000602082015250565b7f566f74657220697320616c726561647920726567697374657265642e00000000600082015250565b60038110610c7157610c70610b74565b5b50565b610c7d81610a20565b8114610c8857600080fd5b50565b610c9481610a7b565b8114610c9f57600080fd5b5056fea2646970667358221220c7fb20c6c78ad73d0e95ac4efc66ec1e0f706fdd888fab900649741df2b8b07464736f6c63430008070033",
					"opcodes": "PUSH1 0x80 PUSH1 0x40 MSTORE PUSH1 0x0 PUSH1 0x3 SSTORE CALLVALUE DUP1 ISZERO PUSH3 0x16 JUMPI PUSH1 0x0 DUP1 REVERT JUMPDEST POP CALLER PUSH1 0x0 DUP1 PUSH2 0x100 EXP DUP2 SLOAD DUP2 PUSH20 0xFFFFFFFFFFFFFFFFFFFFFFFFFFFFFFFFFFFFFFFF MUL NOT AND SWAP1 DUP4 PUSH20 0xFFFFFFFFFFFFFFFFFFFFFFFFFFFFFFFFFFFFFFFF AND MUL OR SWAP1 SSTORE POP PUSH3 0x67 PUSH3 0xAB PUSH1 0x20 SHL PUSH1 0x20 SHR JUMP JUMPDEST PUSH3 0x77 PUSH3 0x20B PUSH1 0x20 SHL PUSH1 0x20 SHR JUMP JUMPDEST PUSH1 0x0 PUSH1 0x8 PUSH1 0x0 PUSH2 0x100 EXP DUP2 SLOAD DUP2 PUSH1 0xFF MUL NOT AND SWAP1 DUP4 PUSH1 0x2 DUP2 GT ISZERO PUSH3 0xA0 JUMPI PUSH3 0x9F PUSH3 0x753 JUMP JUMPDEST JUMPDEST MUL OR SWAP1 SSTORE POP PUSH3 0x7B1 JUMP JUMPDEST PUSH3 0xF1 PUSH1 0x40 MLOAD DUP1 PUSH1 0x40 ADD PUSH1 0x40 MSTORE DUP1 PUSH1 0xB DUP2 MSTORE PUSH1 0x20 ADD PUSH32 0x43616E6469646174652031000000000000000000000000000000000000000000 DUP2 MSTORE POP PUSH3 0x4C9 PUSH1 0x20 SHL PUSH1 0x20 SHR JUMP JUMPDEST PUSH3 0x137 PUSH1 0x40 MLOAD DUP1 PUSH1 0x40 ADD PUSH1 0x40 MSTORE DUP1 PUSH1 0xB DUP2 MSTORE PUSH1 0x20 ADD PUSH32 0x43616E6469646174652032000000000000000000000000000000000000000000 DUP2 MSTORE POP PUSH3 0x4C9 PUSH1 0x20 SHL PUSH1 0x20 SHR JUMP JUMPDEST PUSH3 0x17D PUSH1 0x40 MLOAD DUP1 PUSH1 0x40 ADD PUSH1 0x40 MSTORE DUP1 PUSH1 0xB DUP2 MSTORE PUSH1 0x20 ADD PUSH32 0x43616E6469646174652033000000000000000000000000000000000000000000 DUP2 MSTORE POP PUSH3 0x4C9 PUSH1 0x20 SHL PUSH1 0x20 SHR JUMP JUMPDEST PUSH3 0x1C3 PUSH1 0x40 MLOAD DUP1 PUSH1 0x40 ADD PUSH1 0x40 MSTORE DUP1 PUSH1 0xB DUP2 MSTORE PUSH1 0x20 ADD PUSH32 0x43616E6469646174652034000000000000000000000000000000000000000000 DUP2 MSTORE POP PUSH3 0x4C9 PUSH1 0x20 SHL PUSH1 0x20 SHR JUMP JUMPDEST PUSH3 0x209 PUSH1 0x40 MLOAD DUP1 PUSH1 0x40 ADD PUSH1 0x40 MSTORE DUP1 PUSH1 0xB DUP2 MSTORE PUSH1 0x20 ADD PUSH32 0x43616E6469646174652035000000000000000000000000000000000000000000 DUP2 MSTORE POP PUSH3 0x4C9 PUSH1 0x20 SHL PUSH1 0x20 SHR JUMP JUMPDEST JUMP JUMPDEST PUSH3 0x251 PUSH1 0x40 MLOAD DUP1 PUSH1 0x40 ADD PUSH1 0x40 MSTORE DUP1 PUSH1 0x11 DUP2 MSTORE PUSH1 0x20 ADD PUSH32 0x506F6C6C696E672053746174696F6E2031000000000000000000000000000000 DUP2 MSTORE POP PUSH3 0x54F PUSH1 0x20 SHL PUSH1 0x20 SHR JUMP JUMPDEST PUSH3 0x297 PUSH1 0x40 MLOAD DUP1 PUSH1 0x40 ADD PUSH1 0x40 MSTORE DUP1 PUSH1 0x11 DUP2 MSTORE PUSH1 0x20 ADD PUSH32 0x506F6C6C696E672053746174696F6E2032000000000000000000000000000000 DUP2 MSTORE POP PUSH3 0x54F PUSH1 0x20 SHL PUSH1 0x20 SHR JUMP JUMPDEST PUSH3 0x2DD PUSH1 0x40 MLOAD DUP1 PUSH1 0x40 ADD PUSH1 0x40 MSTORE DUP1 PUSH1 0x11 DUP2 MSTORE PUSH1 0x20 ADD PUSH32 0x506F6C6C696E672053746174696F6E2033000000000000000000000000000000 DUP2 MSTORE POP PUSH3 0x54F PUSH1 0x20 SHL PUSH1 0x20 SHR JUMP JUMPDEST PUSH3 0x323 PUSH1 0x40 MLOAD DUP1 PUSH1 0x40 ADD PUSH1 0x40 MSTORE DUP1 PUSH1 0x11 DUP2 MSTORE PUSH1 0x20 ADD PUSH32 0x506F6C6C696E672053746174696F6E2034000000000000000000000000000000 DUP2 MSTORE POP PUSH3 0x54F PUSH1 0x20 SHL PUSH1 0x20 SHR JUMP JUMPDEST PUSH3 0x369 PUSH1 0x40 MLOAD DUP1 PUSH1 0x40 ADD PUSH1 0x40 MSTORE DUP1 PUSH1 0x11 DUP2 MSTORE PUSH1 0x20 ADD PUSH32 0x506F6C6C696E672053746174696F6E2035000000000000000000000000000000 DUP2 MSTORE POP PUSH3 0x54F PUSH1 0x20 SHL PUSH1 0x20 SHR JUMP JUMPDEST PUSH3 0x3AF PUSH1 0x40 MLOAD DUP1 PUSH1 0x40 ADD PUSH1 0x40 MSTORE DUP1 PUSH1 0x11 DUP2 MSTORE PUSH1 0x20 ADD PUSH32 0x506F6C6C696E672053746174696F6E2036000000000000000000000000000000 DUP2 MSTORE POP PUSH3 0x54F PUSH1 0x20 SHL PUSH1 0x20 SHR JUMP JUMPDEST PUSH3 0x3F5 PUSH1 0x40 MLOAD DUP1 PUSH1 0x40 ADD PUSH1 0x40 MSTORE DUP1 PUSH1 0x11 DUP2 MSTORE PUSH1 0x20 ADD PUSH32 0x506F6C6C696E672053746174696F6E2037000000000000000000000000000000 DUP2 MSTORE POP PUSH3 0x54F PUSH1 0x20 SHL PUSH1 0x20 SHR JUMP JUMPDEST PUSH3 0x43B PUSH1 0x40 MLOAD DUP1 PUSH1 0x40 ADD PUSH1 0x40 MSTORE DUP1 PUSH1 0x11 DUP2 MSTORE PUSH1 0x20 ADD PUSH32 0x506F6C6C696E672053746174696F6E2038000000000000000000000000000000 DUP2 MSTORE POP PUSH3 0x54F PUSH1 0x20 SHL PUSH1 0x20 SHR JUMP JUMPDEST PUSH3 0x481 PUSH1 0x40 MLOAD DUP1 PUSH1 0x40 ADD PUSH1 0x40 MSTORE DUP1 PUSH1 0x11 DUP2 MSTORE PUSH1 0x20 ADD PUSH32 0x506F6C6C696E672053746174696F6E2039000000000000000000000000000000 DUP2 MSTORE POP PUSH3 0x54F PUSH1 0x20 SHL PUSH1 0x20 SHR JUMP JUMPDEST PUSH3 0x4C7 PUSH1 0x40 MLOAD DUP1 PUSH1 0x40 ADD PUSH1 0x40 MSTORE DUP1 PUSH1 0x12 DUP2 MSTORE PUSH1 0x20 ADD PUSH32 0x506F6C6C696E672053746174696F6E2031300000000000000000000000000000 DUP2 MSTORE POP PUSH3 0x54F PUSH1 0x20 SHL PUSH1 0x20 SHR JUMP JUMPDEST JUMP JUMPDEST PUSH1 0x1 PUSH1 0x0 DUP2 SLOAD DUP1 SWAP3 SWAP2 SWAP1 PUSH3 0x4DE SWAP1 PUSH3 0x6D6 JUMP JUMPDEST SWAP2 SWAP1 POP SSTORE POP PUSH1 0x40 MLOAD DUP1 PUSH1 0x60 ADD PUSH1 0x40 MSTORE DUP1 PUSH1 0x1 SLOAD DUP2 MSTORE PUSH1 0x20 ADD DUP3 DUP2 MSTORE PUSH1 0x20 ADD PUSH1 0x0 DUP2 MSTORE POP PUSH1 0x4 PUSH1 0x0 PUSH1 0x1 SLOAD DUP2 MSTORE PUSH1 0x20 ADD SWAP1 DUP2 MSTORE PUSH1 0x20 ADD PUSH1 0x0 KECCAK256 PUSH1 0x0 DUP3 ADD MLOAD DUP2 PUSH1 0x0 ADD SSTORE PUSH1 0x20 DUP3 ADD MLOAD DUP2 PUSH1 0x1 ADD SWAP1 DUP1 MLOAD SWAP1 PUSH1 0x20 ADD SWAP1 PUSH3 0x53E SWAP3 SWAP2 SWAP1 PUSH3 0x5E6 JUMP JUMPDEST POP PUSH1 0x40 DUP3 ADD MLOAD DUP2 PUSH1 0x2 ADD SSTORE SWAP1 POP POP POP JUMP JUMPDEST PUSH1 0x2 PUSH1 0x0 DUP2 SLOAD DUP1 SWAP3 SWAP2 SWAP1 PUSH3 0x564 SWAP1 PUSH3 0x6D6 JUMP JUMPDEST SWAP2 SWAP1 POP SSTORE POP PUSH1 0x40 MLOAD DUP1 PUSH1 0x80 ADD PUSH1 0x40 MSTORE DUP1 PUSH1 0x2 SLOAD DUP2 MSTORE PUSH1 0x20 ADD DUP3 DUP2 MSTORE PUSH1 0x20 ADD PUSH1 0x0 DUP2 MSTORE PUSH1 0x20 ADD PUSH1 0x0 DUP2 MSTORE POP PUSH1 0x5 PUSH1 0x0 PUSH1 0x2 SLOAD DUP2 MSTORE PUSH1 0x20 ADD SWAP1 DUP2 MSTORE PUSH1 0x20 ADD PUSH1 0x0 KECCAK256 PUSH1 0x0 DUP3 ADD MLOAD DUP2 PUSH1 0x0 ADD SSTORE PUSH1 0x20 DUP3 ADD MLOAD DUP2 PUSH1 0x1 ADD SWAP1 DUP1 MLOAD SWAP1 PUSH1 0x20 ADD SWAP1 PUSH3 0x5CB SWAP3 SWAP2 SWAP1 PUSH3 0x5E6 JUMP JUMPDEST POP PUSH1 0x40 DUP3 ADD MLOAD DUP2 PUSH1 0x2 ADD SSTORE PUSH1 0x60 DUP3 ADD MLOAD DUP2 PUSH1 0x3 ADD SSTORE SWAP1 POP POP POP JUMP JUMPDEST DUP3 DUP1 SLOAD PUSH3 0x5F4 SWAP1 PUSH3 0x6A0 JUMP JUMPDEST SWAP1 PUSH1 0x0 MSTORE PUSH1 0x20 PUSH1 0x0 KECCAK256 SWAP1 PUSH1 0x1F ADD PUSH1 0x20 SWAP1 DIV DUP2 ADD SWAP3 DUP3 PUSH3 0x618 JUMPI PUSH1 0x0 DUP6 SSTORE PUSH3 0x664 JUMP JUMPDEST DUP3 PUSH1 0x1F LT PUSH3 0x633 JUMPI DUP1 MLOAD PUSH1 0xFF NOT AND DUP4 DUP1 ADD OR DUP6 SSTORE PUSH3 0x664 JUMP JUMPDEST DUP3 DUP1 ADD PUSH1 0x1 ADD DUP6 SSTORE DUP3 ISZERO PUSH3 0x664 JUMPI SWAP2 DUP3 ADD JUMPDEST DUP3 DUP2 GT ISZERO PUSH3 0x663 JUMPI DUP3 MLOAD DUP3 SSTORE SWAP2 PUSH1 0x20 ADD SWAP2 SWAP1 PUSH1 0x1 ADD SWAP1 PUSH3 0x646 JUMP JUMPDEST JUMPDEST POP SWAP1 POP PUSH3 0x673 SWAP2 SWAP1 PUSH3 0x677 JUMP JUMPDEST POP SWAP1 JUMP JUMPDEST JUMPDEST DUP1 DUP3 GT ISZERO PUSH3 0x692 JUMPI PUSH1 0x0 DUP2 PUSH1 0x0 SWAP1 SSTORE POP PUSH1 0x1 ADD PUSH3 0x678 JUMP JUMPDEST POP SWAP1 JUMP JUMPDEST PUSH1 0x0 DUP2 SWAP1 POP SWAP2 SWAP1 POP JUMP JUMPDEST PUSH1 0x0 PUSH1 0x2 DUP3 DIV SWAP1 POP PUSH1 0x1 DUP3 AND DUP1 PUSH3 0x6B9 JUMPI PUSH1 0x7F DUP3 AND SWAP2 POP JUMPDEST PUSH1 0x20 DUP3 LT DUP2 EQ ISZERO PUSH3 0x6D0 JUMPI PUSH3 0x6CF PUSH3 0x782 JUMP JUMPDEST JUMPDEST POP SWAP2 SWAP1 POP JUMP JUMPDEST PUSH1 0x0 PUSH3 0x6E3 DUP3 PUSH3 0x696 JUMP JUMPDEST SWAP2 POP PUSH32 0xFFFFFFFFFFFFFFFFFFFFFFFFFFFFFFFFFFFFFFFFFFFFFFFFFFFFFFFFFFFFFFFF DUP3 EQ ISZERO PUSH3 0x719 JUMPI PUSH3 0x718 PUSH3 0x724 JUMP JUMPDEST JUMPDEST PUSH1 0x1 DUP3 ADD SWAP1 POP SWAP2 SWAP1 POP JUMP JUMPDEST PUSH32 0x4E487B7100000000000000000000000000000000000000000000000000000000 PUSH1 0x0 MSTORE PUSH1 0x11 PUSH1 0x4 MSTORE PUSH1 0x24 PUSH1 0x0 REVERT JUMPDEST PUSH32 0x4E487B7100000000000000000000000000000000000000000000000000000000 PUSH1 0x0 MSTORE PUSH1 0x21 PUSH1 0x4 MSTORE PUSH1 0x24 PUSH1 0x0 REVERT JUMPDEST PUSH32 0x4E487B7100000000000000000000000000000000000000000000000000000000 PUSH1 0x0 MSTORE PUSH1 0x22 PUSH1 0x4 MSTORE PUSH1 0x24 PUSH1 0x0 REVERT JUMPDEST PUSH2 0xCD8 DUP1 PUSH3 0x7C1 PUSH1 0x0 CODECOPY PUSH1 0x0 RETURN INVALID PUSH1 0x80 PUSH1 0x40 MSTORE CALLVALUE DUP1 ISZERO PUSH2 0x10 JUMPI PUSH1 0x0 DUP1 REVERT JUMPDEST POP PUSH1 0x4 CALLDATASIZE LT PUSH2 0x9E JUMPI PUSH1 0x0 CALLDATALOAD PUSH1 0xE0 SHR DUP1 PUSH4 0xAF154087 GT PUSH2 0x66 JUMPI DUP1 PUSH4 0xAF154087 EQ PUSH2 0x15F JUMPI DUP1 PUSH4 0xB9F05F2F EQ PUSH2 0x193 JUMPI DUP1 PUSH4 0xC19D93FB EQ PUSH2 0x1AF JUMPI DUP1 PUSH4 0xDF9F1A07 EQ PUSH2 0x1CD JUMPI DUP1 PUSH4 0xFE2442D7 EQ PUSH2 0x1EB JUMPI PUSH2 0x9E JUMP JUMPDEST DUP1 PUSH4 0x2D35A8A2 EQ PUSH2 0xA3 JUMPI DUP1 PUSH4 0x3477EE2E EQ PUSH2 0xC1 JUMPI DUP1 PUSH4 0x53357AD0 EQ PUSH2 0xF3 JUMPI DUP1 PUSH4 0x5F5300FF EQ PUSH2 0x111 JUMPI DUP1 PUSH4 0xA3EC138D EQ PUSH2 0x12F JUMPI JUMPDEST PUSH1 0x0 DUP1 REVERT JUMPDEST PUSH2 0xAB PUSH2 0x21E JUMP JUMPDEST PUSH1 0x40 MLOAD PUSH2 0xB8 SWAP2 SWAP1 PUSH2 0x95F JUMP JUMPDEST PUSH1 0x40 MLOAD DUP1 SWAP2 SUB SWAP1 RETURN JUMPDEST PUSH2 0xDB PUSH1 0x4 DUP1 CALLDATASIZE SUB DUP2 ADD SWAP1 PUSH2 0xD6 SWAP2 SWAP1 PUSH2 0x784 JUMP JUMPDEST PUSH2 0x224 JUMP JUMPDEST PUSH1 0x40 MLOAD PUSH2 0xEA SWAP4 SWAP3 SWAP2 SWAP1 PUSH2 0x97A JUMP JUMPDEST PUSH1 0x40 MLOAD DUP1 SWAP2 SUB SWAP1 RETURN JUMPDEST PUSH2 0xFB PUSH2 0x2D6 JUMP JUMPDEST PUSH1 0x40 MLOAD PUSH2 0x108 SWAP2 SWAP1 PUSH2 0x87B JUMP JUMPDEST PUSH1 0x40 MLOAD DUP1 SWAP2 SUB SWAP1 RETURN JUMPDEST PUSH2 0x119 PUSH2 0x2FA JUMP JUMPDEST PUSH1 0x40 MLOAD PUSH2 0x126 SWAP2 SWAP1 PUSH2 0x95F JUMP JUMPDEST PUSH1 0x40 MLOAD DUP1 SWAP2 SUB SWAP1 RETURN JUMPDEST PUSH2 0x149 PUSH1 0x4 DUP1 CALLDATASIZE SUB DUP2 ADD SWAP1 PUSH2 0x144 SWAP2 SWAP1 PUSH2 0x717 JUMP JUMPDEST PUSH2 0x300 JUMP JUMPDEST PUSH1 0x40 MLOAD PUSH2 0x156 SWAP2 SWAP1 PUSH2 0x896 JUMP JUMPDEST PUSH1 0x40 MLOAD DUP1 SWAP2 SUB SWAP1 RETURN JUMPDEST PUSH2 0x179 PUSH1 0x4 DUP1 CALLDATASIZE SUB DUP2 ADD SWAP1 PUSH2 0x174 SWAP2 SWAP1 PUSH2 0x717 JUMP JUMPDEST PUSH2 0x320 JUMP JUMPDEST PUSH1 0x40 MLOAD PUSH2 0x18A SWAP6 SWAP5 SWAP4 SWAP3 SWAP2 SWAP1 PUSH2 0x8B1 JUMP JUMPDEST PUSH1 0x40 MLOAD DUP1 SWAP2 SUB SWAP1 RETURN JUMPDEST PUSH2 0x1AD PUSH1 0x4 DUP1 CALLDATASIZE SUB DUP2 ADD SWAP1 PUSH2 0x1A8 SWAP2 SWAP1 PUSH2 0x744 JUMP JUMPDEST PUSH2 0x370 JUMP JUMPDEST STOP JUMPDEST PUSH2 0x1B7 PUSH2 0x5E9 JUMP JUMPDEST PUSH1 0x40 MLOAD PUSH2 0x1C4 SWAP2 SWAP1 PUSH2 0x904 JUMP JUMPDEST PUSH1 0x40 MLOAD DUP1 SWAP2 SUB SWAP1 RETURN JUMPDEST PUSH2 0x1D5 PUSH2 0x5FC JUMP JUMPDEST PUSH1 0x40 MLOAD PUSH2 0x1E2 SWAP2 SWAP1 PUSH2 0x95F JUMP JUMPDEST PUSH1 0x40 MLOAD DUP1 SWAP2 SUB SWAP1 RETURN JUMPDEST PUSH2 0x205 PUSH1 0x4 DUP1 CALLDATASIZE SUB DUP2 ADD SWAP1 PUSH2 0x200 SWAP2 SWAP1 PUSH2 0x784 JUMP JUMPDEST PUSH2 0x602 JUMP JUMPDEST PUSH1 0x40 MLOAD PUSH2 0x215 SWAP5 SWAP4 SWAP3 SWAP2 SWAP1 PUSH2 0x9B8 JUMP JUMPDEST PUSH1 0x40 MLOAD DUP1 SWAP2 SUB SWAP1 RETURN JUMPDEST PUSH1 0x1 SLOAD DUP2 JUMP JUMPDEST PUSH1 0x4 PUSH1 0x20 MSTORE DUP1 PUSH1 0x0 MSTORE PUSH1 0x40 PUSH1 0x0 KECCAK256 PUSH1 0x0 SWAP2 POP SWAP1 POP DUP1 PUSH1 0x0 ADD SLOAD SWAP1 DUP1 PUSH1 0x1 ADD DUP1 SLOAD PUSH2 0x24D SWAP1 PUSH2 0xACA JUMP JUMPDEST DUP1 PUSH1 0x1F ADD PUSH1 0x20 DUP1 SWAP2 DIV MUL PUSH1 0x20 ADD PUSH1 0x40 MLOAD SWAP1 DUP2 ADD PUSH1 0x40 MSTORE DUP1 SWAP3 SWAP2 SWAP1 DUP2 DUP2 MSTORE PUSH1 0x20 ADD DUP3 DUP1 SLOAD PUSH2 0x279 SWAP1 PUSH2 0xACA JUMP JUMPDEST DUP1 ISZERO PUSH2 0x2C6 JUMPI DUP1 PUSH1 0x1F LT PUSH2 0x29B JUMPI PUSH2 0x100 DUP1 DUP4 SLOAD DIV MUL DUP4 MSTORE SWAP2 PUSH1 0x20 ADD SWAP2 PUSH2 0x2C6 JUMP JUMPDEST DUP3 ADD SWAP2 SWAP1 PUSH1 0x0 MSTORE PUSH1 0x20 PUSH1 0x0 KECCAK256 SWAP1 JUMPDEST DUP2 SLOAD DUP2 MSTORE SWAP1 PUSH1 0x1 ADD SWAP1 PUSH1 0x20 ADD DUP1 DUP4 GT PUSH2 0x2A9 JUMPI DUP3 SWAP1 SUB PUSH1 0x1F AND DUP3 ADD SWAP2 JUMPDEST POP POP POP POP POP SWAP1 DUP1 PUSH1 0x2 ADD SLOAD SWAP1 POP DUP4 JUMP JUMPDEST PUSH1 0x0 DUP1 SLOAD SWAP1 PUSH2 0x100 EXP SWAP1 DIV PUSH20 0xFFFFFFFFFFFFFFFFFFFFFFFFFFFFFFFFFFFFFFFF AND DUP2 JUMP JUMPDEST PUSH1 0x3 SLOAD DUP2 JUMP JUMPDEST PUSH1 0x7 PUSH1 0x20 MSTORE DUP1 PUSH1 0x0 MSTORE PUSH1 0x40 PUSH1 0x0 KECCAK256 PUSH1 0x0 SWAP2 POP SLOAD SWAP1 PUSH2 0x100 EXP SWAP1 DIV PUSH1 0xFF AND DUP2 JUMP JUMPDEST PUSH1 0x6 PUSH1 0x20 MSTORE DUP1 PUSH1 0x0 MSTORE PUSH1 0x40 PUSH1 0x0 KECCAK256 PUSH1 0x0 SWAP2 POP SWAP1 POP DUP1 PUSH1 0x0 ADD PUSH1 0x0 SWAP1 SLOAD SWAP1 PUSH2 0x100 EXP SWAP1 DIV PUSH1 0xFF AND SWAP1 DUP1 PUSH1 0x0 ADD PUSH1 0x1 SWAP1 SLOAD SWAP1 PUSH2 0x100 EXP SWAP1 DIV PUSH1 0xFF AND SWAP1 DUP1 PUSH1 0x1 ADD SLOAD SWAP1 DUP1 PUSH1 0x2 ADD SLOAD SWAP1 DUP1 PUSH1 0x3 ADD SLOAD SWAP1 POP DUP6 JUMP JUMPDEST PUSH1 0x0 DUP1 PUSH1 0x2 DUP2 GT ISZERO PUSH2 0x385 JUMPI PUSH2 0x384 PUSH2 0xB74 JUMP JUMPDEST JUMPDEST PUSH1 0x8 PUSH1 0x0 SWAP1 SLOAD SWAP1 PUSH2 0x100 EXP SWAP1 DIV PUSH1 0xFF AND PUSH1 0x2 DUP2 GT ISZERO PUSH2 0x3A7 JUMPI PUSH2 0x3A6 PUSH2 0xB74 JUMP JUMPDEST JUMPDEST EQ PUSH2 0x3B1 JUMPI PUSH1 0x0 DUP1 REVERT JUMPDEST PUSH1 0x0 DUP1 SLOAD SWAP1 PUSH2 0x100 EXP SWAP1 DIV PUSH20 0xFFFFFFFFFFFFFFFFFFFFFFFFFFFFFFFFFFFFFFFF AND PUSH20 0xFFFFFFFFFFFFFFFFFFFFFFFFFFFFFFFFFFFFFFFF AND CALLER PUSH20 0xFFFFFFFFFFFFFFFFFFFFFFFFFFFFFFFFFFFFFFFF AND EQ PUSH2 0x409 JUMPI PUSH1 0x0 DUP1 REVERT JUMPDEST PUSH1 0x0 PUSH1 0x6 PUSH1 0x0 DUP6 PUSH20 0xFFFFFFFFFFFFFFFFFFFFFFFFFFFFFFFFFFFFFFFF AND PUSH20 0xFFFFFFFFFFFFFFFFFFFFFFFFFFFFFFFFFFFFFFFF AND DUP2 MSTORE PUSH1 0x20 ADD SWAP1 DUP2 MSTORE PUSH1 0x20 ADD PUSH1 0x0 KECCAK256 PUSH1 0x1 ADD SLOAD EQ PUSH2 0x48E JUMPI PUSH1 0x40 MLOAD PUSH32 0x8C379A000000000000000000000000000000000000000000000000000000000 DUP2 MSTORE PUSH1 0x4 ADD PUSH2 0x485 SWAP1 PUSH2 0x93F JUMP JUMPDEST PUSH1 0x40 MLOAD DUP1 SWAP2 SUB SWAP1 REVERT JUMPDEST PUSH1 0x1 DUP3 LT ISZERO DUP1 ISZERO PUSH2 0x4A1 JUMPI POP PUSH1 0x2 SLOAD DUP3 GT ISZERO JUMPDEST PUSH2 0x4E0 JUMPI PUSH1 0x40 MLOAD PUSH32 0x8C379A000000000000000000000000000000000000000000000000000000000 DUP2 MSTORE PUSH1 0x4 ADD PUSH2 0x4D7 SWAP1 PUSH2 0x91F JUMP JUMPDEST PUSH1 0x40 MLOAD DUP1 SWAP2 SUB SWAP1 REVERT JUMPDEST PUSH2 0x4E8 PUSH2 0x6BA JUMP JUMPDEST PUSH1 0x1 DUP2 PUSH1 0x0 ADD SWAP1 ISZERO ISZERO SWAP1 DUP2 ISZERO ISZERO DUP2 MSTORE POP POP PUSH1 0x0 DUP2 PUSH1 0x20 ADD SWAP1 ISZERO ISZERO SWAP1 DUP2 ISZERO ISZERO DUP2 MSTORE POP POP PUSH1 0x0 DUP2 PUSH1 0x40 ADD DUP2 DUP2 MSTORE POP POP DUP3 DUP2 PUSH1 0x60 ADD DUP2 DUP2 MSTORE POP POP PUSH1 0x0 DUP2 PUSH1 0x80 ADD DUP2 DUP2 MSTORE POP POP DUP1 PUSH1 0x6 PUSH1 0x0 DUP7 PUSH20 0xFFFFFFFFFFFFFFFFFFFFFFFFFFFFFFFFFFFFFFFF AND PUSH20 0xFFFFFFFFFFFFFFFFFFFFFFFFFFFFFFFFFFFFFFFF AND DUP2 MSTORE PUSH1 0x20 ADD SWAP1 DUP2 MSTORE PUSH1 0x20 ADD PUSH1 0x0 KECCAK256 PUSH1 0x0 DUP3 ADD MLOAD DUP2 PUSH1 0x0 ADD PUSH1 0x0 PUSH2 0x100 EXP DUP2 SLOAD DUP2 PUSH1 0xFF MUL NOT AND SWAP1 DUP4 ISZERO ISZERO MUL OR SWAP1 SSTORE POP PUSH1 0x20 DUP3 ADD MLOAD DUP2 PUSH1 0x0 ADD PUSH1 0x1 PUSH2 0x100 EXP DUP2 SLOAD DUP2 PUSH1 0xFF MUL NOT AND SWAP1 DUP4 ISZERO ISZERO MUL OR SWAP1 SSTORE POP PUSH1 0x40 DUP3 ADD MLOAD DUP2 PUSH1 0x1 ADD SSTORE PUSH1 0x60 DUP3 ADD MLOAD DUP2 PUSH1 0x2 ADD SSTORE PUSH1 0x80 DUP3 ADD MLOAD DUP2 PUSH1 0x3 ADD SSTORE SWAP1 POP POP PUSH1 0x3 PUSH1 0x0 DUP2 SLOAD DUP1 SWAP3 SWAP2 SWAP1 PUSH2 0x5DE SWAP1 PUSH2 0xAFC JUMP JUMPDEST SWAP2 SWAP1 POP SSTORE POP POP POP POP POP JUMP JUMPDEST PUSH1 0x8 PUSH1 0x0 SWAP1 SLOAD SWAP1 PUSH2 0x100 EXP SWAP1 DIV PUSH1 0xFF AND DUP2 JUMP JUMPDEST PUSH1 0x2 SLOAD DUP2 JUMP JUMPDEST PUSH1 0x5 PUSH1 0x20 MSTORE DUP1 PUSH1 0x0 MSTORE PUSH1 0x40 PUSH1 0x0 KECCAK256 PUSH1 0x0 SWAP2 POP SWAP1 POP DUP1 PUSH1 0x0 ADD SLOAD SWAP1 DUP1 PUSH1 0x1 ADD DUP1 SLOAD PUSH2 0x62B SWAP1 PUSH2 0xACA JUMP JUMPDEST DUP1 PUSH1 0x1F ADD PUSH1 0x20 DUP1 SWAP2 DIV MUL PUSH1 0x20 ADD PUSH1 0x40 MLOAD SWAP1 DUP2 ADD PUSH1 0x40 MSTORE DUP1 SWAP3 SWAP2 SWAP1 DUP2 DUP2 MSTORE PUSH1 0x20 ADD DUP3 DUP1 SLOAD PUSH2 0x657 SWAP1 PUSH2 0xACA JUMP JUMPDEST DUP1 ISZERO PUSH2 0x6A4 JUMPI DUP1 PUSH1 0x1F LT PUSH2 0x679 JUMPI PUSH2 0x100 DUP1 DUP4 SLOAD DIV MUL DUP4 MSTORE SWAP2 PUSH1 0x20 ADD SWAP2 PUSH2 0x6A4 JUMP JUMPDEST DUP3 ADD SWAP2 SWAP1 PUSH1 0x0 MSTORE PUSH1 0x20 PUSH1 0x0 KECCAK256 SWAP1 JUMPDEST DUP2 SLOAD DUP2 MSTORE SWAP1 PUSH1 0x1 ADD SWAP1 PUSH1 0x20 ADD DUP1 DUP4 GT PUSH2 0x687 JUMPI DUP3 SWAP1 SUB PUSH1 0x1F AND DUP3 ADD SWAP2 JUMPDEST POP POP POP POP POP SWAP1 DUP1 PUSH1 0x2 ADD SLOAD SWAP1 DUP1 PUSH1 0x3 ADD SLOAD SWAP1 POP DUP5 JUMP JUMPDEST PUSH1 0x40 MLOAD DUP1 PUSH1 0xA0 ADD PUSH1 0x40 MSTORE DUP1 PUSH1 0x0 ISZERO ISZERO DUP2 MSTORE PUSH1 0x20 ADD PUSH1 0x0 ISZERO ISZERO DUP2 MSTORE PUSH1 0x20 ADD PUSH1 0x0 DUP2 MSTORE PUSH1 0x20 ADD PUSH1 0x0 DUP2 MSTORE PUSH1 0x20 ADD PUSH1 0x0 DUP2 MSTORE POP SWAP1 JUMP JUMPDEST PUSH1 0x0 DUP2 CALLDATALOAD SWAP1 POP PUSH2 0x6FC DUP2 PUSH2 0xC74 JUMP JUMPDEST SWAP3 SWAP2 POP POP JUMP JUMPDEST PUSH1 0x0 DUP2 CALLDATALOAD SWAP1 POP PUSH2 0x711 DUP2 PUSH2 0xC8B JUMP JUMPDEST SWAP3 SWAP2 POP POP JUMP JUMPDEST PUSH1 0x0 PUSH1 0x20 DUP3 DUP5 SUB SLT ISZERO PUSH2 0x72D JUMPI PUSH2 0x72C PUSH2 0xBD2 JUMP JUMPDEST JUMPDEST PUSH1 0x0 PUSH2 0x73B DUP5 DUP3 DUP6 ADD PUSH2 0x6ED JUMP JUMPDEST SWAP2 POP POP SWAP3 SWAP2 POP POP JUMP JUMPDEST PUSH1 0x0 DUP1 PUSH1 0x40 DUP4 DUP6 SUB SLT ISZERO PUSH2 0x75B JUMPI PUSH2 0x75A PUSH2 0xBD2 JUMP JUMPDEST JUMPDEST PUSH1 0x0 PUSH2 0x769 DUP6 DUP3 DUP7 ADD PUSH2 0x6ED JUMP JUMPDEST SWAP3 POP POP PUSH1 0x20 PUSH2 0x77A DUP6 DUP3 DUP7 ADD PUSH2 0x702 JUMP JUMPDEST SWAP2 POP POP SWAP3 POP SWAP3 SWAP1 POP JUMP JUMPDEST PUSH1 0x0 PUSH1 0x20 DUP3 DUP5 SUB SLT ISZERO PUSH2 0x79A JUMPI PUSH2 0x799 PUSH2 0xBD2 JUMP JUMPDEST JUMPDEST PUSH1 0x0 PUSH2 0x7A8 DUP5 DUP3 DUP6 ADD PUSH2 0x702 JUMP JUMPDEST SWAP2 POP POP SWAP3 SWAP2 POP POP JUMP JUMPDEST PUSH2 0x7BA DUP2 PUSH2 0xA20 JUMP JUMPDEST DUP3 MSTORE POP POP JUMP JUMPDEST PUSH2 0x7C9 DUP2 PUSH2 0xA32 JUMP JUMPDEST DUP3 MSTORE POP POP JUMP JUMPDEST PUSH2 0x7D8 DUP2 PUSH2 0xA85 JUMP JUMPDEST DUP3 MSTORE POP POP JUMP JUMPDEST PUSH2 0x7E7 DUP2 PUSH2 0xA51 JUMP JUMPDEST DUP3 MSTORE POP POP JUMP JUMPDEST PUSH1 0x0 PUSH2 0x7F8 DUP3 PUSH2 0xA04 JUMP JUMPDEST PUSH2 0x802 DUP2 DUP6 PUSH2 0xA0F JUMP JUMPDEST SWAP4 POP PUSH2 0x812 DUP2 DUP6 PUSH1 0x20 DUP7 ADD PUSH2 0xA97 JUMP JUMPDEST PUSH2 0x81B DUP2 PUSH2 0xBD7 JUMP JUMPDEST DUP5 ADD SWAP2 POP POP SWAP3 SWAP2 POP POP JUMP JUMPDEST PUSH1 0x0 PUSH2 0x833 PUSH1 0x2A DUP4 PUSH2 0xA0F JUMP JUMPDEST SWAP2 POP PUSH2 0x83E DUP3 PUSH2 0xBE8 JUMP JUMPDEST PUSH1 0x40 DUP3 ADD SWAP1 POP SWAP2 SWAP1 POP JUMP JUMPDEST PUSH1 0x0 PUSH2 0x856 PUSH1 0x1C DUP4 PUSH2 0xA0F JUMP JUMPDEST SWAP2 POP PUSH2 0x861 DUP3 PUSH2 0xC37 JUMP JUMPDEST PUSH1 0x20 DUP3 ADD SWAP1 POP SWAP2 SWAP1 POP JUMP JUMPDEST PUSH2 0x875 DUP2 PUSH2 0xA7B JUMP JUMPDEST DUP3 MSTORE POP POP JUMP JUMPDEST PUSH1 0x0 PUSH1 0x20 DUP3 ADD SWAP1 POP PUSH2 0x890 PUSH1 0x0 DUP4 ADD DUP5 PUSH2 0x7B1 JUMP JUMPDEST SWAP3 SWAP2 POP POP JUMP JUMPDEST PUSH1 0x0 PUSH1 0x20 DUP3 ADD SWAP1 POP PUSH2 0x8AB PUSH1 0x0 DUP4 ADD DUP5 PUSH2 0x7C0 JUMP JUMPDEST SWAP3 SWAP2 POP POP JUMP JUMPDEST PUSH1 0x0 PUSH1 0xA0 DUP3 ADD SWAP1 POP PUSH2 0x8C6 PUSH1 0x0 DUP4 ADD DUP9 PUSH2 0x7C0 JUMP JUMPDEST PUSH2 0x8D3 PUSH1 0x20 DUP4 ADD DUP8 PUSH2 0x7C0 JUMP JUMPDEST PUSH2 0x8E0 PUSH1 0x40 DUP4 ADD DUP7 PUSH2 0x7DE JUMP JUMPDEST PUSH2 0x8ED PUSH1 0x60 DUP4 ADD DUP6 PUSH2 0x86C JUMP JUMPDEST PUSH2 0x8FA PUSH1 0x80 DUP4 ADD DUP5 PUSH2 0x86C JUMP JUMPDEST SWAP7 SWAP6 POP POP POP POP POP POP JUMP JUMPDEST PUSH1 0x0 PUSH1 0x20 DUP3 ADD SWAP1 POP PUSH2 0x919 PUSH1 0x0 DUP4 ADD DUP5 PUSH2 0x7CF JUMP JUMPDEST SWAP3 SWAP2 POP POP JUMP JUMPDEST PUSH1 0x0 PUSH1 0x20 DUP3 ADD SWAP1 POP DUP2 DUP2 SUB PUSH1 0x0 DUP4 ADD MSTORE PUSH2 0x938 DUP2 PUSH2 0x826 JUMP JUMPDEST SWAP1 POP SWAP2 SWAP1 POP JUMP JUMPDEST PUSH1 0x0 PUSH1 0x20 DUP3 ADD SWAP1 POP DUP2 DUP2 SUB PUSH1 0x0 DUP4 ADD MSTORE PUSH2 0x958 DUP2 PUSH2 0x849 JUMP JUMPDEST SWAP1 POP SWAP2 SWAP1 POP JUMP JUMPDEST PUSH1 0x0 PUSH1 0x20 DUP3 ADD SWAP1 POP PUSH2 0x974 PUSH1 0x0 DUP4 ADD DUP5 PUSH2 0x86C JUMP JUMPDEST SWAP3 SWAP2 POP POP JUMP JUMPDEST PUSH1 0x0 PUSH1 0x60 DUP3 ADD SWAP1 POP PUSH2 0x98F PUSH1 0x0 DUP4 ADD DUP7 PUSH2 0x86C JUMP JUMPDEST DUP2 DUP2 SUB PUSH1 0x20 DUP4 ADD MSTORE PUSH2 0x9A1 DUP2 DUP6 PUSH2 0x7ED JUMP JUMPDEST SWAP1 POP PUSH2 0x9B0 PUSH1 0x40 DUP4 ADD DUP5 PUSH2 0x86C JUMP JUMPDEST SWAP5 SWAP4 POP POP POP POP JUMP JUMPDEST PUSH1 0x0 PUSH1 0x80 DUP3 ADD SWAP1 POP PUSH2 0x9CD PUSH1 0x0 DUP4 ADD DUP8 PUSH2 0x86C JUMP JUMPDEST DUP2 DUP2 SUB PUSH1 0x20 DUP4 ADD MSTORE PUSH2 0x9DF DUP2 DUP7 PUSH2 0x7ED JUMP JUMPDEST SWAP1 POP PUSH2 0x9EE PUSH1 0x40 DUP4 ADD DUP6 PUSH2 0x86C JUMP JUMPDEST PUSH2 0x9FB PUSH1 0x60 DUP4 ADD DUP5 PUSH2 0x86C JUMP JUMPDEST SWAP6 SWAP5 POP POP POP POP POP JUMP JUMPDEST PUSH1 0x0 DUP2 MLOAD SWAP1 POP SWAP2 SWAP1 POP JUMP JUMPDEST PUSH1 0x0 DUP3 DUP3 MSTORE PUSH1 0x20 DUP3 ADD SWAP1 POP SWAP3 SWAP2 POP POP JUMP JUMPDEST PUSH1 0x0 PUSH2 0xA2B DUP3 PUSH2 0xA5B JUMP JUMPDEST SWAP1 POP SWAP2 SWAP1 POP JUMP JUMPDEST PUSH1 0x0 DUP2 ISZERO ISZERO SWAP1 POP SWAP2 SWAP1 POP JUMP JUMPDEST PUSH1 0x0 DUP2 SWAP1 POP PUSH2 0xA4C DUP3 PUSH2 0xC60 JUMP JUMPDEST SWAP2 SWAP1 POP JUMP JUMPDEST PUSH1 0x0 DUP2 SWAP1 POP SWAP2 SWAP1 POP JUMP JUMPDEST PUSH1 0x0 PUSH20 0xFFFFFFFFFFFFFFFFFFFFFFFFFFFFFFFFFFFFFFFF DUP3 AND SWAP1 POP SWAP2 SWAP1 POP JUMP JUMPDEST PUSH1 0x0 DUP2 SWAP1 POP SWAP2 SWAP1 POP JUMP JUMPDEST PUSH1 0x0 PUSH2 0xA90 DUP3 PUSH2 0xA3E JUMP JUMPDEST SWAP1 POP SWAP2 SWAP1 POP JUMP JUMPDEST PUSH1 0x0 JUMPDEST DUP4 DUP2 LT ISZERO PUSH2 0xAB5 JUMPI DUP1 DUP3 ADD MLOAD DUP2 DUP5 ADD MSTORE PUSH1 0x20 DUP2 ADD SWAP1 POP PUSH2 0xA9A JUMP JUMPDEST DUP4 DUP2 GT ISZERO PUSH2 0xAC4 JUMPI PUSH1 0x0 DUP5 DUP5 ADD MSTORE JUMPDEST POP POP POP POP JUMP JUMPDEST PUSH1 0x0 PUSH1 0x2 DUP3 DIV SWAP1 POP PUSH1 0x1 DUP3 AND DUP1 PUSH2 0xAE2 JUMPI PUSH1 0x7F DUP3 AND SWAP2 POP JUMPDEST PUSH1 0x20 DUP3 LT DUP2 EQ ISZERO PUSH2 0xAF6 JUMPI PUSH2 0xAF5 PUSH2 0xBA3 JUMP JUMPDEST JUMPDEST POP SWAP2 SWAP1 POP JUMP JUMPDEST PUSH1 0x0 PUSH2 0xB07 DUP3 PUSH2 0xA7B JUMP JUMPDEST SWAP2 POP PUSH32 0xFFFFFFFFFFFFFFFFFFFFFFFFFFFFFFFFFFFFFFFFFFFFFFFFFFFFFFFFFFFFFFFF DUP3 EQ ISZERO PUSH2 0xB3A JUMPI PUSH2 0xB39 PUSH2 0xB45 JUMP JUMPDEST JUMPDEST PUSH1 0x1 DUP3 ADD SWAP1 POP SWAP2 SWAP1 POP JUMP JUMPDEST PUSH32 0x4E487B7100000000000000000000000000000000000000000000000000000000 PUSH1 0x0 MSTORE PUSH1 0x11 PUSH1 0x4 MSTORE PUSH1 0x24 PUSH1 0x0 REVERT JUMPDEST PUSH32 0x4E487B7100000000000000000000000000000000000000000000000000000000 PUSH1 0x0 MSTORE PUSH1 0x21 PUSH1 0x4 MSTORE PUSH1 0x24 PUSH1 0x0 REVERT JUMPDEST PUSH32 0x4E487B7100000000000000000000000000000000000000000000000000000000 PUSH1 0x0 MSTORE PUSH1 0x22 PUSH1 0x4 MSTORE PUSH1 0x24 PUSH1 0x0 REVERT JUMPDEST PUSH1 0x0 DUP1 REVERT JUMPDEST PUSH1 0x0 PUSH1 0x1F NOT PUSH1 0x1F DUP4 ADD AND SWAP1 POP SWAP2 SWAP1 POP JUMP JUMPDEST PUSH32 0x506C656173652070726F7669646520612076616C696420706F6C6C696E672073 PUSH1 0x0 DUP3 ADD MSTORE PUSH32 0x746174696F6E2049442E00000000000000000000000000000000000000000000 PUSH1 0x20 DUP3 ADD MSTORE POP JUMP JUMPDEST PUSH32 0x566F74657220697320616C726561647920726567697374657265642E00000000 PUSH1 0x0 DUP3 ADD MSTORE POP JUMP JUMPDEST PUSH1 0x3 DUP2 LT PUSH2 0xC71 JUMPI PUSH2 0xC70 PUSH2 0xB74 JUMP JUMPDEST JUMPDEST POP JUMP JUMPDEST PUSH2 0xC7D DUP2 PUSH2 0xA20 JUMP JUMPDEST DUP2 EQ PUSH2 0xC88 JUMPI PUSH1 0x0 DUP1 REVERT JUMPDEST POP JUMP JUMPDEST PUSH2 0xC94 DUP2 PUSH2 0xA7B JUMP JUMPDEST DUP2 EQ PUSH2 0xC9F JUMPI PUSH1 0x0 DUP1 REVERT JUMPDEST POP JUMP INVALID LOG2 PUSH5 0x6970667358 0x22 SLT KECCAK256 0xC7 0xFB KECCAK256 0xC6 0xC7 DUP11 0xD7 RETURNDATASIZE 0xE SWAP6 0xAC 0x4E 0xFC PUSH7 0xEC1E0F706FDD88 DUP16 0xAB SWAP1 MOD 0x49 PUSH21 0x1DF2B8B07464736F6C634300080700330000000000 "
				},
				"gasEstimates": {
					"creation": {
						"codeDepositCost": "657600",
						"executionCost": "infinite",
						"totalCost": "infinite"
					},
					"external": {
						"addVoter(address,uint256)": "infinite",
						"candidates(uint256)": "infinite",
						"candidatesCount()": "2430",
						"electionOwner()": "2556",
						"pollingStationCount()": "2495",
						"pollingStations(uint256)": "infinite",
						"state()": "2604",
						"totalVoters()": "2496",
						"voterRegister(address)": "infinite",
						"voters(address)": "2934"
					},
					"internal": {
						"addCandidate(string memory)": "infinite",
						"addPollingStation(string memory)": "infinite",
						"initCandidates()": "infinite",
						"initPollingStations()": "infinite"
					}
				},
				"methodIdentifiers": {
					"addVoter(address,uint256)": "b9f05f2f",
					"candidates(uint256)": "3477ee2e",
					"candidatesCount()": "2d35a8a2",
					"electionOwner()": "53357ad0",
					"pollingStationCount()": "df9f1a07",
					"pollingStations(uint256)": "fe2442d7",
					"state()": "c19d93fb",
					"totalVoters()": "5f5300ff",
					"voterRegister(address)": "af154087",
					"voters(address)": "a3ec138d"
				}
			},
			"storageLayout": {
				"storage": [
					{
						"astId": 30,
						"contract": "contracts/ergasia.sol:Election",
						"label": "electionOwner",
						"offset": 0,
						"slot": "0",
						"type": "t_address"
					},
					{
						"astId": 32,
						"contract": "contracts/ergasia.sol:Election",
						"label": "candidatesCount",
						"offset": 0,
						"slot": "1",
						"type": "t_uint256"
					},
					{
						"astId": 34,
						"contract": "contracts/ergasia.sol:Election",
						"label": "pollingStationCount",
						"offset": 0,
						"slot": "2",
						"type": "t_uint256"
					},
					{
						"astId": 37,
						"contract": "contracts/ergasia.sol:Election",
						"label": "totalVoters",
						"offset": 0,
						"slot": "3",
						"type": "t_uint256"
					},
					{
						"astId": 42,
						"contract": "contracts/ergasia.sol:Election",
						"label": "candidates",
						"offset": 0,
						"slot": "4",
						"type": "t_mapping(t_uint256,t_struct(Candidate)8_storage)"
					},
					{
						"astId": 47,
						"contract": "contracts/ergasia.sol:Election",
						"label": "pollingStations",
						"offset": 0,
						"slot": "5",
						"type": "t_mapping(t_uint256,t_struct(PollingStation)17_storage)"
					},
					{
						"astId": 52,
						"contract": "contracts/ergasia.sol:Election",
						"label": "voterRegister",
						"offset": 0,
						"slot": "6",
						"type": "t_mapping(t_address,t_struct(Voter)28_storage)"
					},
					{
						"astId": 56,
						"contract": "contracts/ergasia.sol:Election",
						"label": "voters",
						"offset": 0,
						"slot": "7",
						"type": "t_mapping(t_address,t_bool)"
					},
					{
						"astId": 63,
						"contract": "contracts/ergasia.sol:Election",
						"label": "state",
						"offset": 0,
						"slot": "8",
						"type": "t_enum(State)60"
					}
				],
				"types": {
					"t_address": {
						"encoding": "inplace",
						"label": "address",
						"numberOfBytes": "20"
					},
					"t_bool": {
						"encoding": "inplace",
						"label": "bool",
						"numberOfBytes": "1"
					},
					"t_enum(State)60": {
						"encoding": "inplace",
						"label": "enum Election.State",
						"numberOfBytes": "1"
					},
					"t_int256": {
						"encoding": "inplace",
						"label": "int256",
						"numberOfBytes": "32"
					},
					"t_mapping(t_address,t_bool)": {
						"encoding": "mapping",
						"key": "t_address",
						"label": "mapping(address => bool)",
						"numberOfBytes": "32",
						"value": "t_bool"
					},
					"t_mapping(t_address,t_struct(Voter)28_storage)": {
						"encoding": "mapping",
						"key": "t_address",
						"label": "mapping(address => struct Election.Voter)",
						"numberOfBytes": "32",
						"value": "t_struct(Voter)28_storage"
					},
					"t_mapping(t_uint256,t_struct(Candidate)8_storage)": {
						"encoding": "mapping",
						"key": "t_uint256",
						"label": "mapping(uint256 => struct Election.Candidate)",
						"numberOfBytes": "32",
						"value": "t_struct(Candidate)8_storage"
					},
					"t_mapping(t_uint256,t_struct(PollingStation)17_storage)": {
						"encoding": "mapping",
						"key": "t_uint256",
						"label": "mapping(uint256 => struct Election.PollingStation)",
						"numberOfBytes": "32",
						"value": "t_struct(PollingStation)17_storage"
					},
					"t_string_storage": {
						"encoding": "bytes",
						"label": "string",
						"numberOfBytes": "32"
					},
					"t_struct(Candidate)8_storage": {
						"encoding": "inplace",
						"label": "struct Election.Candidate",
						"members": [
							{
								"astId": 3,
								"contract": "contracts/ergasia.sol:Election",
								"label": "id",
								"offset": 0,
								"slot": "0",
								"type": "t_uint256"
							},
							{
								"astId": 5,
								"contract": "contracts/ergasia.sol:Election",
								"label": "name",
								"offset": 0,
								"slot": "1",
								"type": "t_string_storage"
							},
							{
								"astId": 7,
								"contract": "contracts/ergasia.sol:Election",
								"label": "voteCount",
								"offset": 0,
								"slot": "2",
								"type": "t_uint256"
							}
						],
						"numberOfBytes": "96"
					},
					"t_struct(PollingStation)17_storage": {
						"encoding": "inplace",
						"label": "struct Election.PollingStation",
						"members": [
							{
								"astId": 10,
								"contract": "contracts/ergasia.sol:Election",
								"label": "id",
								"offset": 0,
								"slot": "0",
								"type": "t_uint256"
							},
							{
								"astId": 12,
								"contract": "contracts/ergasia.sol:Election",
								"label": "name",
								"offset": 0,
								"slot": "1",
								"type": "t_string_storage"
							},
							{
								"astId": 14,
								"contract": "contracts/ergasia.sol:Election",
								"label": "votersRegistered",
								"offset": 0,
								"slot": "2",
								"type": "t_uint256"
							},
							{
								"astId": 16,
								"contract": "contracts/ergasia.sol:Election",
								"label": "votesCasted",
								"offset": 0,
								"slot": "3",
								"type": "t_uint256"
							}
						],
						"numberOfBytes": "128"
					},
					"t_struct(Voter)28_storage": {
						"encoding": "inplace",
						"label": "struct Election.Voter",
						"members": [
							{
								"astId": 19,
								"contract": "contracts/ergasia.sol:Election",
								"label": "isEnrolled",
								"offset": 0,
								"slot": "0",
								"type": "t_bool"
							},
							{
								"astId": 21,
								"contract": "contracts/ergasia.sol:Election",
								"label": "hasVoted",
								"offset": 1,
								"slot": "0",
								"type": "t_bool"
							},
							{
								"astId": 23,
								"contract": "contracts/ergasia.sol:Election",
								"label": "indexProposal",
								"offset": 0,
								"slot": "1",
								"type": "t_int256"
							},
							{
								"astId": 25,
								"contract": "contracts/ergasia.sol:Election",
								"label": "enrolledPollingStationID",
								"offset": 0,
								"slot": "2",
								"type": "t_uint256"
							},
							{
								"astId": 27,
								"contract": "contracts/ergasia.sol:Election",
								"label": "votedPollingStationID",
								"offset": 0,
								"slot": "3",
								"type": "t_uint256"
							}
						],
						"numberOfBytes": "128"
					},
					"t_uint256": {
						"encoding": "inplace",
						"label": "uint256",
						"numberOfBytes": "32"
					}
				}
			},
			"userdoc": {
				"kind": "user",
				"methods": {},
				"version": 1
			}
		}
	}
}