{
	"contracts/ergasia.sol": {
		"Election": {
			"abi": [
				{
					"inputs": [],
					"stateMutability": "nonpayable",
					"type": "constructor"
				},
				{
					"anonymous": false,
					"inputs": [
						{
							"indexed": false,
							"internalType": "bool",
							"name": "voted",
							"type": "bool"
						},
						{
							"indexed": false,
							"internalType": "uint256",
							"name": "_choice",
							"type": "uint256"
						},
						{
							"indexed": false,
							"internalType": "uint256",
							"name": "_pollStationID",
							"type": "uint256"
						}
					],
					"name": "VoteCasted",
					"type": "event"
				},
				{
					"inputs": [
						{
							"internalType": "address",
							"name": "_voterAddress",
							"type": "address"
						},
						{
							"internalType": "uint256",
							"name": "_pollingStationID",
							"type": "uint256"
						}
					],
					"name": "addVoter",
					"outputs": [],
					"stateMutability": "nonpayable",
					"type": "function"
				},
				{
					"inputs": [
						{
							"internalType": "uint256",
							"name": "",
							"type": "uint256"
						}
					],
					"name": "candidates",
					"outputs": [
						{
							"internalType": "uint256",
							"name": "id",
							"type": "uint256"
						},
						{
							"internalType": "string",
							"name": "name",
							"type": "string"
						},
						{
							"internalType": "uint256",
							"name": "votes",
							"type": "uint256"
						}
					],
					"stateMutability": "view",
					"type": "function"
				},
				{
					"inputs": [],
					"name": "candidatesCount",
					"outputs": [
						{
							"internalType": "uint256",
							"name": "",
							"type": "uint256"
						}
					],
					"stateMutability": "view",
					"type": "function"
				},
				{
					"inputs": [
						{
							"internalType": "uint256",
							"name": "_choice",
							"type": "uint256"
						},
						{
							"internalType": "uint256",
							"name": "_pollingStationID",
							"type": "uint256"
						}
					],
					"name": "castVote",
					"outputs": [
						{
							"internalType": "bool",
							"name": "voted",
							"type": "bool"
						}
					],
					"stateMutability": "nonpayable",
					"type": "function"
				},
				{
					"inputs": [],
					"name": "electionOwner",
					"outputs": [
						{
							"internalType": "address",
							"name": "",
							"type": "address"
						}
					],
					"stateMutability": "view",
					"type": "function"
				},
				{
					"inputs": [],
					"name": "endVote",
					"outputs": [],
					"stateMutability": "nonpayable",
					"type": "function"
				},
				{
					"inputs": [],
					"name": "finalResult",
					"outputs": [
						{
							"internalType": "uint256",
							"name": "",
							"type": "uint256"
						}
					],
					"stateMutability": "view",
					"type": "function"
				},
				{
					"inputs": [
						{
							"internalType": "uint256",
							"name": "_pStationID",
							"type": "uint256"
						},
						{
							"internalType": "uint256",
							"name": "_candidateID",
							"type": "uint256"
						}
					],
					"name": "getResultsPerStation",
					"outputs": [
						{
							"components": [
								{
									"internalType": "uint256",
									"name": "id",
									"type": "uint256"
								},
								{
									"internalType": "string",
									"name": "name",
									"type": "string"
								},
								{
									"internalType": "uint256",
									"name": "votes",
									"type": "uint256"
								}
							],
							"internalType": "struct Election.Candidate",
							"name": "",
							"type": "tuple"
						}
					],
					"stateMutability": "view",
					"type": "function"
				},
				{
					"inputs": [
						{
							"internalType": "uint256",
							"name": "_pStationID",
							"type": "uint256"
						}
					],
					"name": "getResultsPerStation",
					"outputs": [
						{
							"components": [
								{
									"internalType": "uint256",
									"name": "id",
									"type": "uint256"
								},
								{
									"internalType": "string",
									"name": "name",
									"type": "string"
								},
								{
									"internalType": "uint256",
									"name": "votes",
									"type": "uint256"
								}
							],
							"internalType": "struct Election.Candidate[]",
							"name": "",
							"type": "tuple[]"
						}
					],
					"stateMutability": "view",
					"type": "function"
				},
				{
					"inputs": [],
					"name": "pollingStationCount",
					"outputs": [
						{
							"internalType": "uint256",
							"name": "",
							"type": "uint256"
						}
					],
					"stateMutability": "view",
					"type": "function"
				},
				{
					"inputs": [
						{
							"internalType": "uint256",
							"name": "",
							"type": "uint256"
						}
					],
					"name": "pollingStations",
					"outputs": [
						{
							"internalType": "uint256",
							"name": "id",
							"type": "uint256"
						},
						{
							"internalType": "string",
							"name": "name",
							"type": "string"
						},
						{
							"internalType": "uint256",
							"name": "votersRegistered",
							"type": "uint256"
						},
						{
							"internalType": "uint256",
							"name": "votesCasted",
							"type": "uint256"
						}
					],
					"stateMutability": "view",
					"type": "function"
				},
				{
					"inputs": [],
					"name": "startVote",
					"outputs": [],
					"stateMutability": "nonpayable",
					"type": "function"
				},
				{
					"inputs": [],
					"name": "state",
					"outputs": [
						{
							"internalType": "enum Election.State",
							"name": "",
							"type": "uint8"
						}
					],
					"stateMutability": "view",
					"type": "function"
				},
				{
					"inputs": [],
					"name": "totalRegisteredVoters",
					"outputs": [
						{
							"internalType": "uint256",
							"name": "",
							"type": "uint256"
						}
					],
					"stateMutability": "view",
					"type": "function"
				},
				{
					"inputs": [
						{
							"internalType": "address",
							"name": "",
							"type": "address"
						}
					],
					"name": "voterRegistry",
					"outputs": [
						{
							"internalType": "bool",
							"name": "isEnrolled",
							"type": "bool"
						},
						{
							"internalType": "bool",
							"name": "hasVoted",
							"type": "bool"
						},
						{
							"internalType": "uint256",
							"name": "choice",
							"type": "uint256"
						},
						{
							"internalType": "uint256",
							"name": "enrolledPollingStationID",
							"type": "uint256"
						},
						{
							"internalType": "uint256",
							"name": "votedPollingStationID",
							"type": "uint256"
						}
					],
					"stateMutability": "view",
					"type": "function"
				},
				{
					"inputs": [
						{
							"internalType": "address",
							"name": "",
							"type": "address"
						}
					],
					"name": "voters",
					"outputs": [
						{
							"internalType": "bool",
							"name": "",
							"type": "bool"
						}
					],
					"stateMutability": "view",
					"type": "function"
				}
			],
			"devdoc": {
				"kind": "dev",
				"methods": {
					"addVoter(address,uint256)": {
						"details": "Adds a voter to the voter registry. May only be called by 'owner'.",
						"params": {
							"_pollingStationID": "polling station ID in which voter is registered.",
							"_voterAddress": "address of voter"
						}
					}
				},
				"version": 1
			},
			"evm": {
				"assembly": "    /* \"contracts/ergasia.sol\":70:8046  contract Election {... */\n  mstore(0x40, 0x80)\n    /* \"contracts/ergasia.sol\":2193:2468  constructor() {... */\n  callvalue\n  dup1\n  iszero\n  tag_1\n  jumpi\n  0x00\n  dup1\n  revert\ntag_1:\n  pop\n    /* \"contracts/ergasia.sol\":2233:2243  msg.sender */\n  caller\n    /* \"contracts/ergasia.sol\":2217:2230  electionOwner */\n  0x00\n  dup1\n    /* \"contracts/ergasia.sol\":2217:2243  electionOwner = msg.sender */\n  0x0100\n  exp\n  dup2\n  sload\n  dup2\n  0xffffffffffffffffffffffffffffffffffffffff\n  mul\n  not\n  and\n  swap1\n  dup4\n  0xffffffffffffffffffffffffffffffffffffffff\n  and\n  mul\n  or\n  swap1\n  sstore\n  pop\n    /* \"contracts/ergasia.sol\":2298:2319  initPollingStations() */\n  tag_4\n    /* \"contracts/ergasia.sol\":2298:2317  initPollingStations */\n  shl(0x20, tag_5)\n    /* \"contracts/ergasia.sol\":2298:2319  initPollingStations() */\n  0x20\n  shr\n  jump\t// in\ntag_4:\n    /* \"contracts/ergasia.sol\":2376:2392  initCandidates() */\n  tag_6\n    /* \"contracts/ergasia.sol\":2376:2390  initCandidates */\n  shl(0x20, tag_7)\n    /* \"contracts/ergasia.sol\":2376:2392  initCandidates() */\n  0x20\n  shr\n  jump\t// in\ntag_6:\n    /* \"contracts/ergasia.sol\":2446:2459  State.Created */\n  0x00\n    /* \"contracts/ergasia.sol\":2438:2443  state */\n  0x0a\n  0x00\n    /* \"contracts/ergasia.sol\":2438:2459  state = State.Created */\n  0x0100\n  exp\n  dup2\n  sload\n  dup2\n  0xff\n  mul\n  not\n  and\n  swap1\n  dup4\n  0x02\n  dup2\n  gt\n  iszero\n  tag_8\n  jumpi\n  tag_9\n  tag_10\n  jump\t// in\ntag_9:\ntag_8:\n  mul\n  or\n  swap1\n  sstore\n  pop\n    /* \"contracts/ergasia.sol\":70:8046  contract Election {... */\n  jump(tag_11)\n    /* \"contracts/ergasia.sol\":3273:3801  function initPollingStations() internal {... */\ntag_5:\n    /* \"contracts/ergasia.sol\":3323:3361  addPollingStation(\"Polling Station 1\") */\n  tag_13\n  mload(0x40)\n  dup1\n  0x40\n  add\n  0x40\n  mstore\n  dup1\n  0x11\n  dup2\n  mstore\n  0x20\n  add\n  0x506f6c6c696e672053746174696f6e2031000000000000000000000000000000\n  dup2\n  mstore\n  pop\n    /* \"contracts/ergasia.sol\":3323:3340  addPollingStation */\n  shl(0x20, tag_14)\n    /* \"contracts/ergasia.sol\":3323:3361  addPollingStation(\"Polling Station 1\") */\n  0x20\n  shr\n  jump\t// in\ntag_13:\n    /* \"contracts/ergasia.sol\":3371:3409  addPollingStation(\"Polling Station 2\") */\n  tag_15\n  mload(0x40)\n  dup1\n  0x40\n  add\n  0x40\n  mstore\n  dup1\n  0x11\n  dup2\n  mstore\n  0x20\n  add\n  0x506f6c6c696e672053746174696f6e2032000000000000000000000000000000\n  dup2\n  mstore\n  pop\n    /* \"contracts/ergasia.sol\":3371:3388  addPollingStation */\n  shl(0x20, tag_14)\n    /* \"contracts/ergasia.sol\":3371:3409  addPollingStation(\"Polling Station 2\") */\n  0x20\n  shr\n  jump\t// in\ntag_15:\n    /* \"contracts/ergasia.sol\":3419:3457  addPollingStation(\"Polling Station 3\") */\n  tag_16\n  mload(0x40)\n  dup1\n  0x40\n  add\n  0x40\n  mstore\n  dup1\n  0x11\n  dup2\n  mstore\n  0x20\n  add\n  0x506f6c6c696e672053746174696f6e2033000000000000000000000000000000\n  dup2\n  mstore\n  pop\n    /* \"contracts/ergasia.sol\":3419:3436  addPollingStation */\n  shl(0x20, tag_14)\n    /* \"contracts/ergasia.sol\":3419:3457  addPollingStation(\"Polling Station 3\") */\n  0x20\n  shr\n  jump\t// in\ntag_16:\n    /* \"contracts/ergasia.sol\":3467:3505  addPollingStation(\"Polling Station 4\") */\n  tag_17\n  mload(0x40)\n  dup1\n  0x40\n  add\n  0x40\n  mstore\n  dup1\n  0x11\n  dup2\n  mstore\n  0x20\n  add\n  0x506f6c6c696e672053746174696f6e2034000000000000000000000000000000\n  dup2\n  mstore\n  pop\n    /* \"contracts/ergasia.sol\":3467:3484  addPollingStation */\n  shl(0x20, tag_14)\n    /* \"contracts/ergasia.sol\":3467:3505  addPollingStation(\"Polling Station 4\") */\n  0x20\n  shr\n  jump\t// in\ntag_17:\n    /* \"contracts/ergasia.sol\":3515:3553  addPollingStation(\"Polling Station 5\") */\n  tag_18\n  mload(0x40)\n  dup1\n  0x40\n  add\n  0x40\n  mstore\n  dup1\n  0x11\n  dup2\n  mstore\n  0x20\n  add\n  0x506f6c6c696e672053746174696f6e2035000000000000000000000000000000\n  dup2\n  mstore\n  pop\n    /* \"contracts/ergasia.sol\":3515:3532  addPollingStation */\n  shl(0x20, tag_14)\n    /* \"contracts/ergasia.sol\":3515:3553  addPollingStation(\"Polling Station 5\") */\n  0x20\n  shr\n  jump\t// in\ntag_18:\n    /* \"contracts/ergasia.sol\":3563:3601  addPollingStation(\"Polling Station 6\") */\n  tag_19\n  mload(0x40)\n  dup1\n  0x40\n  add\n  0x40\n  mstore\n  dup1\n  0x11\n  dup2\n  mstore\n  0x20\n  add\n  0x506f6c6c696e672053746174696f6e2036000000000000000000000000000000\n  dup2\n  mstore\n  pop\n    /* \"contracts/ergasia.sol\":3563:3580  addPollingStation */\n  shl(0x20, tag_14)\n    /* \"contracts/ergasia.sol\":3563:3601  addPollingStation(\"Polling Station 6\") */\n  0x20\n  shr\n  jump\t// in\ntag_19:\n    /* \"contracts/ergasia.sol\":3611:3649  addPollingStation(\"Polling Station 7\") */\n  tag_20\n  mload(0x40)\n  dup1\n  0x40\n  add\n  0x40\n  mstore\n  dup1\n  0x11\n  dup2\n  mstore\n  0x20\n  add\n  0x506f6c6c696e672053746174696f6e2037000000000000000000000000000000\n  dup2\n  mstore\n  pop\n    /* \"contracts/ergasia.sol\":3611:3628  addPollingStation */\n  shl(0x20, tag_14)\n    /* \"contracts/ergasia.sol\":3611:3649  addPollingStation(\"Polling Station 7\") */\n  0x20\n  shr\n  jump\t// in\ntag_20:\n    /* \"contracts/ergasia.sol\":3659:3697  addPollingStation(\"Polling Station 8\") */\n  tag_21\n  mload(0x40)\n  dup1\n  0x40\n  add\n  0x40\n  mstore\n  dup1\n  0x11\n  dup2\n  mstore\n  0x20\n  add\n  0x506f6c6c696e672053746174696f6e2038000000000000000000000000000000\n  dup2\n  mstore\n  pop\n    /* \"contracts/ergasia.sol\":3659:3676  addPollingStation */\n  shl(0x20, tag_14)\n    /* \"contracts/ergasia.sol\":3659:3697  addPollingStation(\"Polling Station 8\") */\n  0x20\n  shr\n  jump\t// in\ntag_21:\n    /* \"contracts/ergasia.sol\":3707:3745  addPollingStation(\"Polling Station 9\") */\n  tag_22\n  mload(0x40)\n  dup1\n  0x40\n  add\n  0x40\n  mstore\n  dup1\n  0x11\n  dup2\n  mstore\n  0x20\n  add\n  0x506f6c6c696e672053746174696f6e2039000000000000000000000000000000\n  dup2\n  mstore\n  pop\n    /* \"contracts/ergasia.sol\":3707:3724  addPollingStation */\n  shl(0x20, tag_14)\n    /* \"contracts/ergasia.sol\":3707:3745  addPollingStation(\"Polling Station 9\") */\n  0x20\n  shr\n  jump\t// in\ntag_22:\n    /* \"contracts/ergasia.sol\":3755:3794  addPollingStation(\"Polling Station 10\") */\n  tag_23\n  mload(0x40)\n  dup1\n  0x40\n  add\n  0x40\n  mstore\n  dup1\n  0x12\n  dup2\n  mstore\n  0x20\n  add\n  0x506f6c6c696e672053746174696f6e2031300000000000000000000000000000\n  dup2\n  mstore\n  pop\n    /* \"contracts/ergasia.sol\":3755:3772  addPollingStation */\n  shl(0x20, tag_14)\n    /* \"contracts/ergasia.sol\":3755:3794  addPollingStation(\"Polling Station 10\") */\n  0x20\n  shr\n  jump\t// in\ntag_23:\n    /* \"contracts/ergasia.sol\":3273:3801  function initPollingStations() internal {... */\n  jump\t// out\n    /* \"contracts/ergasia.sol\":2527:2754  function initCandidates() internal {... */\ntag_7:\n    /* \"contracts/ergasia.sol\":2572:2599  addCandidate(\"Candidate 1\") */\n  tag_25\n  mload(0x40)\n  dup1\n  0x40\n  add\n  0x40\n  mstore\n  dup1\n  0x0b\n  dup2\n  mstore\n  0x20\n  add\n  0x43616e6469646174652031000000000000000000000000000000000000000000\n  dup2\n  mstore\n  pop\n    /* \"contracts/ergasia.sol\":2572:2584  addCandidate */\n  shl(0x20, tag_26)\n    /* \"contracts/ergasia.sol\":2572:2599  addCandidate(\"Candidate 1\") */\n  0x20\n  shr\n  jump\t// in\ntag_25:\n    /* \"contracts/ergasia.sol\":2609:2636  addCandidate(\"Candidate 2\") */\n  tag_27\n  mload(0x40)\n  dup1\n  0x40\n  add\n  0x40\n  mstore\n  dup1\n  0x0b\n  dup2\n  mstore\n  0x20\n  add\n  0x43616e6469646174652032000000000000000000000000000000000000000000\n  dup2\n  mstore\n  pop\n    /* \"contracts/ergasia.sol\":2609:2621  addCandidate */\n  shl(0x20, tag_26)\n    /* \"contracts/ergasia.sol\":2609:2636  addCandidate(\"Candidate 2\") */\n  0x20\n  shr\n  jump\t// in\ntag_27:\n    /* \"contracts/ergasia.sol\":2646:2673  addCandidate(\"Candidate 3\") */\n  tag_28\n  mload(0x40)\n  dup1\n  0x40\n  add\n  0x40\n  mstore\n  dup1\n  0x0b\n  dup2\n  mstore\n  0x20\n  add\n  0x43616e6469646174652033000000000000000000000000000000000000000000\n  dup2\n  mstore\n  pop\n    /* \"contracts/ergasia.sol\":2646:2658  addCandidate */\n  shl(0x20, tag_26)\n    /* \"contracts/ergasia.sol\":2646:2673  addCandidate(\"Candidate 3\") */\n  0x20\n  shr\n  jump\t// in\ntag_28:\n    /* \"contracts/ergasia.sol\":2683:2710  addCandidate(\"Candidate 4\") */\n  tag_29\n  mload(0x40)\n  dup1\n  0x40\n  add\n  0x40\n  mstore\n  dup1\n  0x0b\n  dup2\n  mstore\n  0x20\n  add\n  0x43616e6469646174652034000000000000000000000000000000000000000000\n  dup2\n  mstore\n  pop\n    /* \"contracts/ergasia.sol\":2683:2695  addCandidate */\n  shl(0x20, tag_26)\n    /* \"contracts/ergasia.sol\":2683:2710  addCandidate(\"Candidate 4\") */\n  0x20\n  shr\n  jump\t// in\ntag_29:\n    /* \"contracts/ergasia.sol\":2720:2747  addCandidate(\"Candidate 5\") */\n  tag_30\n  mload(0x40)\n  dup1\n  0x40\n  add\n  0x40\n  mstore\n  dup1\n  0x0b\n  dup2\n  mstore\n  0x20\n  add\n  0x43616e6469646174652035000000000000000000000000000000000000000000\n  dup2\n  mstore\n  pop\n    /* \"contracts/ergasia.sol\":2720:2732  addCandidate */\n  shl(0x20, tag_26)\n    /* \"contracts/ergasia.sol\":2720:2747  addCandidate(\"Candidate 5\") */\n  0x20\n  shr\n  jump\t// in\ntag_30:\n    /* \"contracts/ergasia.sol\":2527:2754  function initCandidates() internal {... */\n  jump\t// out\n    /* \"contracts/ergasia.sol\":3924:4585  function addPollingStation (string memory _name) private {... */\ntag_14:\n    /* \"contracts/ergasia.sol\":3991:4010  pollingStationCount */\n  0x02\n  0x00\n    /* \"contracts/ergasia.sol\":3991:4012  pollingStationCount++ */\n  dup2\n  sload\n  dup1\n  swap3\n  swap2\n  swap1\n  tag_32\n  swap1\n  tag_33\n  jump\t// in\ntag_32:\n  swap2\n  swap1\n  pop\n  sstore\n  pop\n    /* \"contracts/ergasia.sol\":4134:4168  PollingStation storage pollStation */\n  0x00\n    /* \"contracts/ergasia.sol\":4171:4186  pollingStations */\n  0x07\n    /* \"contracts/ergasia.sol\":4171:4207  pollingStations[pollingStationCount] */\n  0x00\n    /* \"contracts/ergasia.sol\":4187:4206  pollingStationCount */\n  sload(0x02)\n    /* \"contracts/ergasia.sol\":4171:4207  pollingStations[pollingStationCount] */\n  dup2\n  mstore\n  0x20\n  add\n  swap1\n  dup2\n  mstore\n  0x20\n  add\n  0x00\n  keccak256\n    /* \"contracts/ergasia.sol\":4134:4207  PollingStation storage pollStation = pollingStations[pollingStationCount] */\n  swap1\n  pop\n    /* \"contracts/ergasia.sol\":4234:4253  pollingStationCount */\n  sload(0x02)\n    /* \"contracts/ergasia.sol\":4217:4228  pollStation */\n  dup2\n    /* \"contracts/ergasia.sol\":4217:4231  pollStation.id */\n  0x00\n  add\n    /* \"contracts/ergasia.sol\":4217:4253  pollStation.id = pollingStationCount */\n  dup2\n  swap1\n  sstore\n  pop\n    /* \"contracts/ergasia.sol\":4282:4287  _name */\n  dup2\n    /* \"contracts/ergasia.sol\":4263:4274  pollStation */\n  dup2\n    /* \"contracts/ergasia.sol\":4263:4279  pollStation.name */\n  0x01\n  add\n    /* \"contracts/ergasia.sol\":4263:4287  pollStation.name = _name */\n  swap1\n  dup1\n  mload\n  swap1\n  0x20\n  add\n  swap1\n  tag_34\n  swap3\n  swap2\n  swap1\n  tag_35\n  jump\t// in\ntag_34:\n  pop\n    /* \"contracts/ergasia.sol\":4328:4329  0 */\n  0x00\n    /* \"contracts/ergasia.sol\":4297:4308  pollStation */\n  dup2\n    /* \"contracts/ergasia.sol\":4297:4325  pollStation.votersRegistered */\n  0x02\n  add\n    /* \"contracts/ergasia.sol\":4297:4329  pollStation.votersRegistered = 0 */\n  dup2\n  swap1\n  sstore\n  pop\n    /* \"contracts/ergasia.sol\":4365:4366  0 */\n  0x00\n    /* \"contracts/ergasia.sol\":4339:4350  pollStation */\n  dup2\n    /* \"contracts/ergasia.sol\":4339:4362  pollStation.votesCasted */\n  0x03\n  add\n    /* \"contracts/ergasia.sol\":4339:4366  pollStation.votesCasted = 0 */\n  dup2\n  swap1\n  sstore\n  pop\n    /* \"contracts/ergasia.sol\":3981:4585  {... */\n  pop\n    /* \"contracts/ergasia.sol\":3924:4585  function addPollingStation (string memory _name) private {... */\n  pop\n  jump\t// out\n    /* \"contracts/ergasia.sol\":2874:3212  function addCandidate (string memory _name) private {... */\ntag_26:\n    /* \"contracts/ergasia.sol\":2936:2951  candidatesCount */\n  0x01\n  0x00\n    /* \"contracts/ergasia.sol\":2936:2953  candidatesCount++ */\n  dup2\n  sload\n  dup1\n  swap3\n  swap2\n  swap1\n  tag_37\n  swap1\n  tag_33\n  jump\t// in\ntag_37:\n  swap2\n  swap1\n  pop\n  sstore\n  pop\n    /* \"contracts/ergasia.sol\":2993:3029  Candidate(candidatesCount, _name, 0) */\n  mload(0x40)\n  dup1\n  0x60\n  add\n  0x40\n  mstore\n  dup1\n    /* \"contracts/ergasia.sol\":3003:3018  candidatesCount */\n  sload(0x01)\n    /* \"contracts/ergasia.sol\":2993:3029  Candidate(candidatesCount, _name, 0) */\n  dup2\n  mstore\n  0x20\n  add\n    /* \"contracts/ergasia.sol\":3020:3025  _name */\n  dup3\n    /* \"contracts/ergasia.sol\":2993:3029  Candidate(candidatesCount, _name, 0) */\n  dup2\n  mstore\n  0x20\n  add\n    /* \"contracts/ergasia.sol\":3027:3028  0 */\n  0x00\n    /* \"contracts/ergasia.sol\":2993:3029  Candidate(candidatesCount, _name, 0) */\n  dup2\n  mstore\n  pop\n    /* \"contracts/ergasia.sol\":2963:2973  candidates */\n  0x06\n    /* \"contracts/ergasia.sol\":2963:2990  candidates[candidatesCount] */\n  0x00\n    /* \"contracts/ergasia.sol\":2974:2989  candidatesCount */\n  sload(0x01)\n    /* \"contracts/ergasia.sol\":2963:2990  candidates[candidatesCount] */\n  dup2\n  mstore\n  0x20\n  add\n  swap1\n  dup2\n  mstore\n  0x20\n  add\n  0x00\n  keccak256\n    /* \"contracts/ergasia.sol\":2963:3029  candidates[candidatesCount] = Candidate(candidatesCount, _name, 0) */\n  0x00\n  dup3\n  add\n  mload\n  dup2\n  0x00\n  add\n  sstore\n  0x20\n  dup3\n  add\n  mload\n  dup2\n  0x01\n  add\n  swap1\n  dup1\n  mload\n  swap1\n  0x20\n  add\n  swap1\n  tag_38\n  swap3\n  swap2\n  swap1\n  tag_35\n  jump\t// in\ntag_38:\n  pop\n  0x40\n  dup3\n  add\n  mload\n  dup2\n  0x02\n  add\n  sstore\n  swap1\n  pop\n  pop\n    /* \"contracts/ergasia.sol\":3045:3051  uint i */\n  0x00\n    /* \"contracts/ergasia.sol\":3054:3055  1 */\n  0x01\n    /* \"contracts/ergasia.sol\":3045:3055  uint i = 1 */\n  swap1\n  pop\n    /* \"contracts/ergasia.sol\":3040:3206  for (uint i = 1; i <= pollingStationCount; i++) {... */\ntag_39:\n    /* \"contracts/ergasia.sol\":3062:3081  pollingStationCount */\n  sload(0x02)\n    /* \"contracts/ergasia.sol\":3057:3058  i */\n  dup2\n    /* \"contracts/ergasia.sol\":3057:3081  i <= pollingStationCount */\n  gt\n    /* \"contracts/ergasia.sol\":3040:3206  for (uint i = 1; i <= pollingStationCount; i++) {... */\n  tag_40\n  jumpi\n    /* \"contracts/ergasia.sol\":3159:3195  Candidate(candidatesCount, _name, 0) */\n  mload(0x40)\n  dup1\n  0x60\n  add\n  0x40\n  mstore\n  dup1\n    /* \"contracts/ergasia.sol\":3169:3184  candidatesCount */\n  sload(0x01)\n    /* \"contracts/ergasia.sol\":3159:3195  Candidate(candidatesCount, _name, 0) */\n  dup2\n  mstore\n  0x20\n  add\n    /* \"contracts/ergasia.sol\":3186:3191  _name */\n  dup4\n    /* \"contracts/ergasia.sol\":3159:3195  Candidate(candidatesCount, _name, 0) */\n  dup2\n  mstore\n  0x20\n  add\n    /* \"contracts/ergasia.sol\":3193:3194  0 */\n  0x00\n    /* \"contracts/ergasia.sol\":3159:3195  Candidate(candidatesCount, _name, 0) */\n  dup2\n  mstore\n  pop\n    /* \"contracts/ergasia.sol\":3102:3117  pollingStations */\n  0x07\n    /* \"contracts/ergasia.sol\":3102:3120  pollingStations[i] */\n  0x00\n    /* \"contracts/ergasia.sol\":3118:3119  i */\n  dup4\n    /* \"contracts/ergasia.sol\":3102:3120  pollingStations[i] */\n  dup2\n  mstore\n  0x20\n  add\n  swap1\n  dup2\n  mstore\n  0x20\n  add\n  0x00\n  keccak256\n    /* \"contracts/ergasia.sol\":3102:3139  pollingStations[i].scoresPerCandidate */\n  0x04\n  add\n    /* \"contracts/ergasia.sol\":3102:3156  pollingStations[i].scoresPerCandidate[candidatesCount] */\n  0x00\n    /* \"contracts/ergasia.sol\":3140:3155  candidatesCount */\n  sload(0x01)\n    /* \"contracts/ergasia.sol\":3102:3156  pollingStations[i].scoresPerCandidate[candidatesCount] */\n  dup2\n  mstore\n  0x20\n  add\n  swap1\n  dup2\n  mstore\n  0x20\n  add\n  0x00\n  keccak256\n    /* \"contracts/ergasia.sol\":3102:3195  pollingStations[i].scoresPerCandidate[candidatesCount] = Candidate(candidatesCount, _name, 0) */\n  0x00\n  dup3\n  add\n  mload\n  dup2\n  0x00\n  add\n  sstore\n  0x20\n  dup3\n  add\n  mload\n  dup2\n  0x01\n  add\n  swap1\n  dup1\n  mload\n  swap1\n  0x20\n  add\n  swap1\n  tag_42\n  swap3\n  swap2\n  swap1\n  tag_35\n  jump\t// in\ntag_42:\n  pop\n  0x40\n  dup3\n  add\n  mload\n  dup2\n  0x02\n  add\n  sstore\n  swap1\n  pop\n  pop\n    /* \"contracts/ergasia.sol\":3083:3086  i++ */\n  dup1\n  dup1\n  tag_43\n  swap1\n  tag_33\n  jump\t// in\ntag_43:\n  swap2\n  pop\n  pop\n    /* \"contracts/ergasia.sol\":3040:3206  for (uint i = 1; i <= pollingStationCount; i++) {... */\n  jump(tag_39)\ntag_40:\n  pop\n    /* \"contracts/ergasia.sol\":2874:3212  function addCandidate (string memory _name) private {... */\n  pop\n  jump\t// out\n    /* \"contracts/ergasia.sol\":70:8046  contract Election {... */\ntag_35:\n  dup3\n  dup1\n  sload\n  tag_44\n  swap1\n  tag_45\n  jump\t// in\ntag_44:\n  swap1\n  0x00\n  mstore\n  keccak256(0x00, 0x20)\n  swap1\n  0x1f\n  add\n  0x20\n  swap1\n  div\n  dup2\n  add\n  swap3\n  dup3\n  tag_47\n  jumpi\n  0x00\n  dup6\n  sstore\n  jump(tag_46)\ntag_47:\n  dup3\n  0x1f\n  lt\n  tag_48\n  jumpi\n  dup1\n  mload\n  not(0xff)\n  and\n  dup4\n  dup1\n  add\n  or\n  dup6\n  sstore\n  jump(tag_46)\ntag_48:\n  dup3\n  dup1\n  add\n  0x01\n  add\n  dup6\n  sstore\n  dup3\n  iszero\n  tag_46\n  jumpi\n  swap2\n  dup3\n  add\ntag_49:\n  dup3\n  dup2\n  gt\n  iszero\n  tag_50\n  jumpi\n  dup3\n  mload\n  dup3\n  sstore\n  swap2\n  0x20\n  add\n  swap2\n  swap1\n  0x01\n  add\n  swap1\n  jump(tag_49)\ntag_50:\ntag_46:\n  pop\n  swap1\n  pop\n  tag_51\n  swap2\n  swap1\n  tag_52\n  jump\t// in\ntag_51:\n  pop\n  swap1\n  jump\t// out\ntag_52:\ntag_53:\n  dup1\n  dup3\n  gt\n  iszero\n  tag_54\n  jumpi\n  0x00\n  dup2\n  0x00\n  swap1\n  sstore\n  pop\n  0x01\n  add\n  jump(tag_53)\ntag_54:\n  pop\n  swap1\n  jump\t// out\n    /* \"#utility.yul\":7:84   */\ntag_56:\n    /* \"#utility.yul\":44:51   */\n  0x00\n    /* \"#utility.yul\":73:78   */\n  dup2\n    /* \"#utility.yul\":62:78   */\n  swap1\n  pop\n    /* \"#utility.yul\":7:84   */\n  swap2\n  swap1\n  pop\n  jump\t// out\n    /* \"#utility.yul\":90:410   */\ntag_45:\n    /* \"#utility.yul\":134:140   */\n  0x00\n    /* \"#utility.yul\":171:172   */\n  0x02\n    /* \"#utility.yul\":165:169   */\n  dup3\n    /* \"#utility.yul\":161:173   */\n  div\n    /* \"#utility.yul\":151:173   */\n  swap1\n  pop\n    /* \"#utility.yul\":218:219   */\n  0x01\n    /* \"#utility.yul\":212:216   */\n  dup3\n    /* \"#utility.yul\":208:220   */\n  and\n    /* \"#utility.yul\":239:257   */\n  dup1\n    /* \"#utility.yul\":229:310   */\n  tag_59\n  jumpi\n    /* \"#utility.yul\":295:299   */\n  0x7f\n    /* \"#utility.yul\":287:293   */\n  dup3\n    /* \"#utility.yul\":283:300   */\n  and\n    /* \"#utility.yul\":273:300   */\n  swap2\n  pop\n    /* \"#utility.yul\":229:310   */\ntag_59:\n    /* \"#utility.yul\":357:359   */\n  0x20\n    /* \"#utility.yul\":349:355   */\n  dup3\n    /* \"#utility.yul\":346:360   */\n  lt\n    /* \"#utility.yul\":326:344   */\n  dup2\n    /* \"#utility.yul\":323:361   */\n  eq\n    /* \"#utility.yul\":320:404   */\n  iszero\n  tag_60\n  jumpi\n    /* \"#utility.yul\":376:394   */\n  tag_61\n  tag_62\n  jump\t// in\ntag_61:\n    /* \"#utility.yul\":320:404   */\ntag_60:\n    /* \"#utility.yul\":141:410   */\n  pop\n    /* \"#utility.yul\":90:410   */\n  swap2\n  swap1\n  pop\n  jump\t// out\n    /* \"#utility.yul\":416:649   */\ntag_33:\n    /* \"#utility.yul\":455:458   */\n  0x00\n    /* \"#utility.yul\":478:502   */\n  tag_64\n    /* \"#utility.yul\":496:501   */\n  dup3\n    /* \"#utility.yul\":478:502   */\n  tag_56\n  jump\t// in\ntag_64:\n    /* \"#utility.yul\":469:502   */\n  swap2\n  pop\n    /* \"#utility.yul\":524:590   */\n  0xffffffffffffffffffffffffffffffffffffffffffffffffffffffffffffffff\n    /* \"#utility.yul\":517:522   */\n  dup3\n    /* \"#utility.yul\":514:591   */\n  eq\n    /* \"#utility.yul\":511:614   */\n  iszero\n  tag_65\n  jumpi\n    /* \"#utility.yul\":594:612   */\n  tag_66\n  tag_67\n  jump\t// in\ntag_66:\n    /* \"#utility.yul\":511:614   */\ntag_65:\n    /* \"#utility.yul\":641:642   */\n  0x01\n    /* \"#utility.yul\":634:639   */\n  dup3\n    /* \"#utility.yul\":630:643   */\n  add\n    /* \"#utility.yul\":623:643   */\n  swap1\n  pop\n    /* \"#utility.yul\":416:649   */\n  swap2\n  swap1\n  pop\n  jump\t// out\n    /* \"#utility.yul\":655:835   */\ntag_67:\n    /* \"#utility.yul\":703:780   */\n  0x4e487b7100000000000000000000000000000000000000000000000000000000\n    /* \"#utility.yul\":700:701   */\n  0x00\n    /* \"#utility.yul\":693:781   */\n  mstore\n    /* \"#utility.yul\":800:804   */\n  0x11\n    /* \"#utility.yul\":797:798   */\n  0x04\n    /* \"#utility.yul\":790:805   */\n  mstore\n    /* \"#utility.yul\":824:828   */\n  0x24\n    /* \"#utility.yul\":821:822   */\n  0x00\n    /* \"#utility.yul\":814:829   */\n  revert\n    /* \"#utility.yul\":841:1021   */\ntag_10:\n    /* \"#utility.yul\":889:966   */\n  0x4e487b7100000000000000000000000000000000000000000000000000000000\n    /* \"#utility.yul\":886:887   */\n  0x00\n    /* \"#utility.yul\":879:967   */\n  mstore\n    /* \"#utility.yul\":986:990   */\n  0x21\n    /* \"#utility.yul\":983:984   */\n  0x04\n    /* \"#utility.yul\":976:991   */\n  mstore\n    /* \"#utility.yul\":1010:1014   */\n  0x24\n    /* \"#utility.yul\":1007:1008   */\n  0x00\n    /* \"#utility.yul\":1000:1015   */\n  revert\n    /* \"#utility.yul\":1027:1207   */\ntag_62:\n    /* \"#utility.yul\":1075:1152   */\n  0x4e487b7100000000000000000000000000000000000000000000000000000000\n    /* \"#utility.yul\":1072:1073   */\n  0x00\n    /* \"#utility.yul\":1065:1153   */\n  mstore\n    /* \"#utility.yul\":1172:1176   */\n  0x22\n    /* \"#utility.yul\":1169:1170   */\n  0x04\n    /* \"#utility.yul\":1162:1177   */\n  mstore\n    /* \"#utility.yul\":1196:1200   */\n  0x24\n    /* \"#utility.yul\":1193:1194   */\n  0x00\n    /* \"#utility.yul\":1186:1201   */\n  revert\n    /* \"contracts/ergasia.sol\":70:8046  contract Election {... */\ntag_11:\n  dataSize(sub_0)\n  dup1\n  dataOffset(sub_0)\n  0x00\n  codecopy\n  0x00\n  return\nstop\n\nsub_0: assembly {\n        /* \"contracts/ergasia.sol\":70:8046  contract Election {... */\n      mstore(0x40, 0x80)\n      callvalue\n      dup1\n      iszero\n      tag_1\n      jumpi\n      0x00\n      dup1\n      revert\n    tag_1:\n      pop\n      jumpi(tag_2, lt(calldatasize, 0x04))\n      shr(0xe0, calldataload(0x00))\n      dup1\n      0x53357ad0\n      gt\n      tag_19\n      jumpi\n      dup1\n      0xc19d93fb\n      gt\n      tag_20\n      jumpi\n      dup1\n      0xc19d93fb\n      eq\n      tag_15\n      jumpi\n      dup1\n      0xdf9f1a07\n      eq\n      tag_16\n      jumpi\n      dup1\n      0xf3a8286f\n      eq\n      tag_17\n      jumpi\n      dup1\n      0xfe2442d7\n      eq\n      tag_18\n      jumpi\n      jump(tag_2)\n    tag_20:\n      dup1\n      0x53357ad0\n      eq\n      tag_11\n      jumpi\n      dup1\n      0xa3ec138d\n      eq\n      tag_12\n      jumpi\n      dup1\n      0xb9223946\n      eq\n      tag_13\n      jumpi\n      dup1\n      0xb9f05f2f\n      eq\n      tag_14\n      jumpi\n      jump(tag_2)\n    tag_19:\n      dup1\n      0x2d35a8a2\n      gt\n      tag_21\n      jumpi\n      dup1\n      0x2d35a8a2\n      eq\n      tag_7\n      jumpi\n      dup1\n      0x3477ee2e\n      eq\n      tag_8\n      jumpi\n      dup1\n      0x4763d4e7\n      eq\n      tag_9\n      jumpi\n      dup1\n      0x4c0a6af0\n      eq\n      tag_10\n      jumpi\n      jump(tag_2)\n    tag_21:\n      dup1\n      0xaa7464\n      eq\n      tag_3\n      jumpi\n      dup1\n      0x032d0b0a\n      eq\n      tag_4\n      jumpi\n      dup1\n      0x23a1b11c\n      eq\n      tag_5\n      jumpi\n      dup1\n      0x2c0a3f89\n      eq\n      tag_6\n      jumpi\n    tag_2:\n      0x00\n      dup1\n      revert\n        /* \"contracts/ergasia.sol\":1418:1451  uint public totalRegisteredVoters */\n    tag_3:\n      tag_22\n      tag_23\n      jump\t// in\n    tag_22:\n      mload(0x40)\n      tag_24\n      swap2\n      swap1\n      tag_25\n      jump\t// in\n    tag_24:\n      mload(0x40)\n      dup1\n      swap2\n      sub\n      swap1\n      return\n        /* \"contracts/ergasia.sol\":7309:7500  function getResultsPerStation(uint _pStationID, uint _candidateID) public view returns (Candidate memory) {... */\n    tag_4:\n      tag_26\n      0x04\n      dup1\n      calldatasize\n      sub\n      dup2\n      add\n      swap1\n      tag_27\n      swap2\n      swap1\n      tag_28\n      jump\t// in\n    tag_27:\n      tag_29\n      jump\t// in\n    tag_26:\n      mload(0x40)\n      tag_30\n      swap2\n      swap1\n      tag_31\n      jump\t// in\n    tag_30:\n      mload(0x40)\n      dup1\n      swap2\n      sub\n      swap1\n      return\n        /* \"contracts/ergasia.sol\":7506:8043  function getResultsPerStation(uint _pStationID) public view returns (Candidate[] memory) {... */\n    tag_5:\n      tag_32\n      0x04\n      dup1\n      calldatasize\n      sub\n      dup2\n      add\n      swap1\n      tag_33\n      swap2\n      swap1\n      tag_34\n      jump\t// in\n    tag_33:\n      tag_35\n      jump\t// in\n    tag_32:\n      mload(0x40)\n      tag_36\n      swap2\n      swap1\n      tag_37\n      jump\t// in\n    tag_36:\n      mload(0x40)\n      dup1\n      swap2\n      sub\n      swap1\n      return\n        /* \"contracts/ergasia.sol\":6363:7171  function castVote(uint _choice, uint _pollingStationID) public inState(State.Voting) returns (bool voted) {... */\n    tag_6:\n      tag_38\n      0x04\n      dup1\n      calldatasize\n      sub\n      dup2\n      add\n      swap1\n      tag_39\n      swap2\n      swap1\n      tag_28\n      jump\t// in\n    tag_39:\n      tag_40\n      jump\t// in\n    tag_38:\n      mload(0x40)\n      tag_41\n      swap2\n      swap1\n      tag_42\n      jump\t// in\n    tag_41:\n      mload(0x40)\n      dup1\n      swap2\n      sub\n      swap1\n      return\n        /* \"contracts/ergasia.sol\":1276:1303  uint public candidatesCount */\n    tag_7:\n      tag_43\n      tag_44\n      jump\t// in\n    tag_43:\n      mload(0x40)\n      tag_45\n      swap2\n      swap1\n      tag_25\n      jump\t// in\n    tag_45:\n      mload(0x40)\n      dup1\n      swap2\n      sub\n      swap1\n      return\n        /* \"contracts/ergasia.sol\":1621:1665  mapping(uint => Candidate) public candidates */\n    tag_8:\n      tag_46\n      0x04\n      dup1\n      calldatasize\n      sub\n      dup2\n      add\n      swap1\n      tag_47\n      swap2\n      swap1\n      tag_34\n      jump\t// in\n    tag_47:\n      tag_48\n      jump\t// in\n    tag_46:\n      mload(0x40)\n      tag_49\n      swap4\n      swap3\n      swap2\n      swap1\n      tag_50\n      jump\t// in\n    tag_49:\n      mload(0x40)\n      dup1\n      swap2\n      sub\n      swap1\n      return\n        /* \"contracts/ergasia.sol\":1779:1825  mapping(address => Voter) public voterRegistry */\n    tag_9:\n      tag_51\n      0x04\n      dup1\n      calldatasize\n      sub\n      dup2\n      add\n      swap1\n      tag_52\n      swap2\n      swap1\n      tag_53\n      jump\t// in\n    tag_52:\n      tag_54\n      jump\t// in\n    tag_51:\n      mload(0x40)\n      tag_55\n      swap6\n      swap5\n      swap4\n      swap3\n      swap2\n      swap1\n      tag_56\n      jump\t// in\n    tag_55:\n      mload(0x40)\n      dup1\n      swap2\n      sub\n      swap1\n      return\n        /* \"contracts/ergasia.sol\":6263:6357  function startVote() public inState(State.Created) Owner {... */\n    tag_10:\n      tag_57\n      tag_58\n      jump\t// in\n    tag_57:\n      stop\n        /* \"contracts/ergasia.sol\":1242:1270  address public electionOwner */\n    tag_11:\n      tag_59\n      tag_60\n      jump\t// in\n    tag_59:\n      mload(0x40)\n      tag_61\n      swap2\n      swap1\n      tag_62\n      jump\t// in\n    tag_61:\n      mload(0x40)\n      dup1\n      swap2\n      sub\n      swap1\n      return\n        /* \"contracts/ergasia.sol\":1831:1869  mapping(address => bool) public voters */\n    tag_12:\n      tag_63\n      0x04\n      dup1\n      calldatasize\n      sub\n      dup2\n      add\n      swap1\n      tag_64\n      swap2\n      swap1\n      tag_53\n      jump\t// in\n    tag_64:\n      tag_65\n      jump\t// in\n    tag_63:\n      mload(0x40)\n      tag_66\n      swap2\n      swap1\n      tag_42\n      jump\t// in\n    tag_66:\n      mload(0x40)\n      dup1\n      swap2\n      sub\n      swap1\n      return\n        /* \"contracts/ergasia.sol\":7177:7303  function endVote() public inState(State.Voting) Owner { ... */\n    tag_13:\n      tag_67\n      tag_68\n      jump\t// in\n    tag_67:\n      stop\n        /* \"contracts/ergasia.sol\":4809:5729  function addVoter(address _voterAddress, uint _pollingStationID) public inState(State.Created) Owner {... */\n    tag_14:\n      tag_69\n      0x04\n      dup1\n      calldatasize\n      sub\n      dup2\n      add\n      swap1\n      tag_70\n      swap2\n      swap1\n      tag_71\n      jump\t// in\n    tag_70:\n      tag_72\n      jump\t// in\n    tag_69:\n      stop\n        /* \"contracts/ergasia.sol\":1922:1940  State public state */\n    tag_15:\n      tag_73\n      tag_74\n      jump\t// in\n    tag_73:\n      mload(0x40)\n      tag_75\n      swap2\n      swap1\n      tag_76\n      jump\t// in\n    tag_75:\n      mload(0x40)\n      dup1\n      swap2\n      sub\n      swap1\n      return\n        /* \"contracts/ergasia.sol\":1344:1375  uint public pollingStationCount */\n    tag_16:\n      tag_77\n      tag_78\n      jump\t// in\n    tag_77:\n      mload(0x40)\n      tag_79\n      swap2\n      swap1\n      tag_25\n      jump\t// in\n    tag_79:\n      mload(0x40)\n      dup1\n      swap2\n      sub\n      swap1\n      return\n        /* \"contracts/ergasia.sol\":1539:1562  uint public finalResult */\n    tag_17:\n      tag_80\n      tag_81\n      jump\t// in\n    tag_80:\n      mload(0x40)\n      tag_82\n      swap2\n      swap1\n      tag_25\n      jump\t// in\n    tag_82:\n      mload(0x40)\n      dup1\n      swap2\n      sub\n      swap1\n      return\n        /* \"contracts/ergasia.sol\":1695:1749  mapping(uint => PollingStation) public pollingStations */\n    tag_18:\n      tag_83\n      0x04\n      dup1\n      calldatasize\n      sub\n      dup2\n      add\n      swap1\n      tag_84\n      swap2\n      swap1\n      tag_34\n      jump\t// in\n    tag_84:\n      tag_85\n      jump\t// in\n    tag_83:\n      mload(0x40)\n      tag_86\n      swap5\n      swap4\n      swap3\n      swap2\n      swap1\n      tag_87\n      jump\t// in\n    tag_86:\n      mload(0x40)\n      dup1\n      swap2\n      sub\n      swap1\n      return\n        /* \"contracts/ergasia.sol\":1418:1451  uint public totalRegisteredVoters */\n    tag_23:\n      sload(0x03)\n      dup2\n      jump\t// out\n        /* \"contracts/ergasia.sol\":7309:7500  function getResultsPerStation(uint _pStationID, uint _candidateID) public view returns (Candidate memory) {... */\n    tag_29:\n        /* \"contracts/ergasia.sol\":7397:7413  Candidate memory */\n      tag_88\n      tag_89\n      jump\t// in\n    tag_88:\n        /* \"contracts/ergasia.sol\":7432:7447  pollingStations */\n      0x07\n        /* \"contracts/ergasia.sol\":7432:7460  pollingStations[_pStationID] */\n      0x00\n        /* \"contracts/ergasia.sol\":7448:7459  _pStationID */\n      dup5\n        /* \"contracts/ergasia.sol\":7432:7460  pollingStations[_pStationID] */\n      dup2\n      mstore\n      0x20\n      add\n      swap1\n      dup2\n      mstore\n      0x20\n      add\n      0x00\n      keccak256\n        /* \"contracts/ergasia.sol\":7432:7479  pollingStations[_pStationID].scoresPerCandidate */\n      0x04\n      add\n        /* \"contracts/ergasia.sol\":7432:7493  pollingStations[_pStationID].scoresPerCandidate[_candidateID] */\n      0x00\n        /* \"contracts/ergasia.sol\":7480:7492  _candidateID */\n      dup4\n        /* \"contracts/ergasia.sol\":7432:7493  pollingStations[_pStationID].scoresPerCandidate[_candidateID] */\n      dup2\n      mstore\n      0x20\n      add\n      swap1\n      dup2\n      mstore\n      0x20\n      add\n      0x00\n      keccak256\n        /* \"contracts/ergasia.sol\":7425:7493  return pollingStations[_pStationID].scoresPerCandidate[_candidateID] */\n      mload(0x40)\n      dup1\n      0x60\n      add\n      0x40\n      mstore\n      swap1\n      dup2\n      0x00\n      dup3\n      add\n      sload\n      dup2\n      mstore\n      0x20\n      add\n      0x01\n      dup3\n      add\n      dup1\n      sload\n      tag_91\n      swap1\n      tag_92\n      jump\t// in\n    tag_91:\n      dup1\n      0x1f\n      add\n      0x20\n      dup1\n      swap2\n      div\n      mul\n      0x20\n      add\n      mload(0x40)\n      swap1\n      dup2\n      add\n      0x40\n      mstore\n      dup1\n      swap3\n      swap2\n      swap1\n      dup2\n      dup2\n      mstore\n      0x20\n      add\n      dup3\n      dup1\n      sload\n      tag_93\n      swap1\n      tag_92\n      jump\t// in\n    tag_93:\n      dup1\n      iszero\n      tag_94\n      jumpi\n      dup1\n      0x1f\n      lt\n      tag_95\n      jumpi\n      0x0100\n      dup1\n      dup4\n      sload\n      div\n      mul\n      dup4\n      mstore\n      swap2\n      0x20\n      add\n      swap2\n      jump(tag_94)\n    tag_95:\n      dup3\n      add\n      swap2\n      swap1\n      0x00\n      mstore\n      keccak256(0x00, 0x20)\n      swap1\n    tag_96:\n      dup2\n      sload\n      dup2\n      mstore\n      swap1\n      0x01\n      add\n      swap1\n      0x20\n      add\n      dup1\n      dup4\n      gt\n      tag_96\n      jumpi\n      dup3\n      swap1\n      sub\n      0x1f\n      and\n      dup3\n      add\n      swap2\n    tag_94:\n      pop\n      pop\n      pop\n      pop\n      pop\n      dup2\n      mstore\n      0x20\n      add\n      0x02\n      dup3\n      add\n      sload\n      dup2\n      mstore\n      pop\n      pop\n      swap1\n      pop\n        /* \"contracts/ergasia.sol\":7309:7500  function getResultsPerStation(uint _pStationID, uint _candidateID) public view returns (Candidate memory) {... */\n      swap3\n      swap2\n      pop\n      pop\n      jump\t// out\n        /* \"contracts/ergasia.sol\":7506:8043  function getResultsPerStation(uint _pStationID) public view returns (Candidate[] memory) {... */\n    tag_35:\n        /* \"contracts/ergasia.sol\":7575:7593  Candidate[] memory */\n      0x60\n        /* \"contracts/ergasia.sol\":7605:7636  Candidate[] memory countedVotes */\n      0x00\n        /* \"contracts/ergasia.sol\":7655:7670  candidatesCount */\n      sload(0x01)\n        /* \"contracts/ergasia.sol\":7639:7671  new Candidate[](candidatesCount) */\n      0xffffffffffffffff\n      dup2\n      gt\n      iszero\n      tag_98\n      jumpi\n      tag_99\n      tag_100\n      jump\t// in\n    tag_99:\n    tag_98:\n      mload(0x40)\n      swap1\n      dup1\n      dup3\n      mstore\n      dup1\n      0x20\n      mul\n      0x20\n      add\n      dup3\n      add\n      0x40\n      mstore\n      dup1\n      iszero\n      tag_101\n      jumpi\n      dup2\n      0x20\n      add\n    tag_102:\n      tag_103\n      tag_89\n      jump\t// in\n    tag_103:\n      dup2\n      mstore\n      0x20\n      add\n      swap1\n      0x01\n      swap1\n      sub\n      swap1\n      dup2\n      tag_102\n      jumpi\n      swap1\n      pop\n    tag_101:\n      pop\n        /* \"contracts/ergasia.sol\":7605:7671  Candidate[] memory countedVotes = new Candidate[](candidatesCount) */\n      swap1\n      pop\n        /* \"contracts/ergasia.sol\":7682:7713  PollingStation storage pStation */\n      0x00\n        /* \"contracts/ergasia.sol\":7716:7731  pollingStations */\n      0x07\n        /* \"contracts/ergasia.sol\":7716:7744  pollingStations[_pStationID] */\n      0x00\n        /* \"contracts/ergasia.sol\":7732:7743  _pStationID */\n      dup6\n        /* \"contracts/ergasia.sol\":7716:7744  pollingStations[_pStationID] */\n      dup2\n      mstore\n      0x20\n      add\n      swap1\n      dup2\n      mstore\n      0x20\n      add\n      0x00\n      keccak256\n        /* \"contracts/ergasia.sol\":7682:7744  PollingStation storage pStation = pollingStations[_pStationID] */\n      swap1\n      pop\n        /* \"contracts/ergasia.sol\":7759:7765  uint i */\n      0x00\n        /* \"contracts/ergasia.sol\":7768:7769  1 */\n      0x01\n        /* \"contracts/ergasia.sol\":7759:7769  uint i = 1 */\n      swap1\n      pop\n        /* \"contracts/ergasia.sol\":7754:8007  for (uint i = 1; i <= candidatesCount; i++) {... */\n    tag_104:\n        /* \"contracts/ergasia.sol\":7776:7791  candidatesCount */\n      sload(0x01)\n        /* \"contracts/ergasia.sol\":7771:7772  i */\n      dup2\n        /* \"contracts/ergasia.sol\":7771:7791  i <= candidatesCount */\n      gt\n        /* \"contracts/ergasia.sol\":7754:8007  for (uint i = 1; i <= candidatesCount; i++) {... */\n      tag_105\n      jumpi\n        /* \"contracts/ergasia.sol\":7812:7834  Candidate memory votes */\n      0x00\n        /* \"contracts/ergasia.sol\":7837:7845  pStation */\n      dup3\n        /* \"contracts/ergasia.sol\":7837:7864  pStation.scoresPerCandidate */\n      0x04\n      add\n        /* \"contracts/ergasia.sol\":7837:7867  pStation.scoresPerCandidate[i] */\n      0x00\n        /* \"contracts/ergasia.sol\":7865:7866  i */\n      dup4\n        /* \"contracts/ergasia.sol\":7837:7867  pStation.scoresPerCandidate[i] */\n      dup2\n      mstore\n      0x20\n      add\n      swap1\n      dup2\n      mstore\n      0x20\n      add\n      0x00\n      keccak256\n        /* \"contracts/ergasia.sol\":7812:7867  Candidate memory votes = pStation.scoresPerCandidate[i] */\n      mload(0x40)\n      dup1\n      0x60\n      add\n      0x40\n      mstore\n      swap1\n      dup2\n      0x00\n      dup3\n      add\n      sload\n      dup2\n      mstore\n      0x20\n      add\n      0x01\n      dup3\n      add\n      dup1\n      sload\n      tag_107\n      swap1\n      tag_92\n      jump\t// in\n    tag_107:\n      dup1\n      0x1f\n      add\n      0x20\n      dup1\n      swap2\n      div\n      mul\n      0x20\n      add\n      mload(0x40)\n      swap1\n      dup2\n      add\n      0x40\n      mstore\n      dup1\n      swap3\n      swap2\n      swap1\n      dup2\n      dup2\n      mstore\n      0x20\n      add\n      dup3\n      dup1\n      sload\n      tag_108\n      swap1\n      tag_92\n      jump\t// in\n    tag_108:\n      dup1\n      iszero\n      tag_109\n      jumpi\n      dup1\n      0x1f\n      lt\n      tag_110\n      jumpi\n      0x0100\n      dup1\n      dup4\n      sload\n      div\n      mul\n      dup4\n      mstore\n      swap2\n      0x20\n      add\n      swap2\n      jump(tag_109)\n    tag_110:\n      dup3\n      add\n      swap2\n      swap1\n      0x00\n      mstore\n      keccak256(0x00, 0x20)\n      swap1\n    tag_111:\n      dup2\n      sload\n      dup2\n      mstore\n      swap1\n      0x01\n      add\n      swap1\n      0x20\n      add\n      dup1\n      dup4\n      gt\n      tag_111\n      jumpi\n      dup3\n      swap1\n      sub\n      0x1f\n      and\n      dup3\n      add\n      swap2\n    tag_109:\n      pop\n      pop\n      pop\n      pop\n      pop\n      dup2\n      mstore\n      0x20\n      add\n      0x02\n      dup3\n      add\n      sload\n      dup2\n      mstore\n      pop\n      pop\n      swap1\n      pop\n        /* \"contracts/ergasia.sol\":7899:7904  votes */\n      dup1\n        /* \"contracts/ergasia.sol\":7881:7893  countedVotes */\n      dup5\n        /* \"contracts/ergasia.sol\":7894:7895  i */\n      dup4\n        /* \"contracts/ergasia.sol\":7881:7896  countedVotes[i] */\n      dup2\n      mload\n      dup2\n      lt\n      tag_112\n      jumpi\n      tag_113\n      tag_114\n      jump\t// in\n    tag_113:\n    tag_112:\n      0x20\n      mul\n      0x20\n      add\n      add\n        /* \"contracts/ergasia.sol\":7881:7904  countedVotes[i] = votes */\n      dup2\n      swap1\n      mstore\n      pop\n        /* \"contracts/ergasia.sol\":7798:8007  {... */\n      pop\n        /* \"contracts/ergasia.sol\":7793:7796  i++ */\n      dup1\n      dup1\n      tag_115\n      swap1\n      tag_116\n      jump\t// in\n    tag_115:\n      swap2\n      pop\n      pop\n        /* \"contracts/ergasia.sol\":7754:8007  for (uint i = 1; i <= candidatesCount; i++) {... */\n      jump(tag_104)\n    tag_105:\n      pop\n        /* \"contracts/ergasia.sol\":8024:8036  countedVotes */\n      dup2\n        /* \"contracts/ergasia.sol\":8017:8036  return countedVotes */\n      swap3\n      pop\n      pop\n      pop\n        /* \"contracts/ergasia.sol\":7506:8043  function getResultsPerStation(uint _pStationID) public view returns (Candidate[] memory) {... */\n      swap2\n      swap1\n      pop\n      jump\t// out\n        /* \"contracts/ergasia.sol\":6363:7171  function castVote(uint _choice, uint _pollingStationID) public inState(State.Voting) returns (bool voted) {... */\n    tag_40:\n        /* \"contracts/ergasia.sol\":6457:6467  bool voted */\n      0x00\n        /* \"contracts/ergasia.sol\":6434:6446  State.Voting */\n      0x01\n        /* \"contracts/ergasia.sol\":2092:2098  _state */\n      dup1\n        /* \"contracts/ergasia.sol\":2083:2098  state == _state */\n      0x02\n      dup2\n      gt\n      iszero\n      tag_118\n      jumpi\n      tag_119\n      tag_120\n      jump\t// in\n    tag_119:\n    tag_118:\n        /* \"contracts/ergasia.sol\":2083:2088  state */\n      0x0a\n      0x00\n      swap1\n      sload\n      swap1\n      0x0100\n      exp\n      swap1\n      div\n      0xff\n      and\n        /* \"contracts/ergasia.sol\":2083:2098  state == _state */\n      0x02\n      dup2\n      gt\n      iszero\n      tag_121\n      jumpi\n      tag_122\n      tag_120\n      jump\t// in\n    tag_122:\n    tag_121:\n      eq\n        /* \"contracts/ergasia.sol\":2075:2099  require(state == _state) */\n      tag_123\n      jumpi\n      0x00\n      dup1\n      revert\n    tag_123:\n        /* \"contracts/ergasia.sol\":6480:6490  bool found */\n      0x00\n        /* \"contracts/ergasia.sol\":6513:6526  voterRegistry */\n      0x08\n        /* \"contracts/ergasia.sol\":6513:6538  voterRegistry[msg.sender] */\n      0x00\n        /* \"contracts/ergasia.sol\":6527:6537  msg.sender */\n      caller\n        /* \"contracts/ergasia.sol\":6513:6538  voterRegistry[msg.sender] */\n      0xffffffffffffffffffffffffffffffffffffffff\n      and\n      0xffffffffffffffffffffffffffffffffffffffff\n      and\n      dup2\n      mstore\n      0x20\n      add\n      swap1\n      dup2\n      mstore\n      0x20\n      add\n      0x00\n      keccak256\n        /* \"contracts/ergasia.sol\":6513:6549  voterRegistry[msg.sender].isEnrolled */\n      0x00\n      add\n      0x00\n      swap1\n      sload\n      swap1\n      0x0100\n      exp\n      swap1\n      div\n      0xff\n      and\n        /* \"contracts/ergasia.sol\":6513:6588  voterRegistry[msg.sender].isEnrolled && !voterRegistry[msg.sender].hasVoted */\n      dup1\n      iszero\n      tag_125\n      jumpi\n      pop\n        /* \"contracts/ergasia.sol\":6554:6567  voterRegistry */\n      0x08\n        /* \"contracts/ergasia.sol\":6554:6579  voterRegistry[msg.sender] */\n      0x00\n        /* \"contracts/ergasia.sol\":6568:6578  msg.sender */\n      caller\n        /* \"contracts/ergasia.sol\":6554:6579  voterRegistry[msg.sender] */\n      0xffffffffffffffffffffffffffffffffffffffff\n      and\n      0xffffffffffffffffffffffffffffffffffffffff\n      and\n      dup2\n      mstore\n      0x20\n      add\n      swap1\n      dup2\n      mstore\n      0x20\n      add\n      0x00\n      keccak256\n        /* \"contracts/ergasia.sol\":6554:6588  voterRegistry[msg.sender].hasVoted */\n      0x00\n      add\n      0x01\n      swap1\n      sload\n      swap1\n      0x0100\n      exp\n      swap1\n      div\n      0xff\n      and\n        /* \"contracts/ergasia.sol\":6553:6588  !voterRegistry[msg.sender].hasVoted */\n      iszero\n        /* \"contracts/ergasia.sol\":6513:6588  voterRegistry[msg.sender].isEnrolled && !voterRegistry[msg.sender].hasVoted */\n    tag_125:\n        /* \"contracts/ergasia.sol\":6509:7143  if (voterRegistry[msg.sender].isEnrolled && !voterRegistry[msg.sender].hasVoted) {... */\n      iszero\n      tag_126\n      jumpi\n        /* \"contracts/ergasia.sol\":6640:6647  _choice */\n      dup5\n        /* \"contracts/ergasia.sol\":6605:6618  voterRegistry */\n      0x08\n        /* \"contracts/ergasia.sol\":6605:6630  voterRegistry[msg.sender] */\n      0x00\n        /* \"contracts/ergasia.sol\":6619:6629  msg.sender */\n      caller\n        /* \"contracts/ergasia.sol\":6605:6630  voterRegistry[msg.sender] */\n      0xffffffffffffffffffffffffffffffffffffffff\n      and\n      0xffffffffffffffffffffffffffffffffffffffff\n      and\n      dup2\n      mstore\n      0x20\n      add\n      swap1\n      dup2\n      mstore\n      0x20\n      add\n      0x00\n      keccak256\n        /* \"contracts/ergasia.sol\":6605:6637  voterRegistry[msg.sender].choice */\n      0x01\n      add\n        /* \"contracts/ergasia.sol\":6605:6647  voterRegistry[msg.sender].choice = _choice */\n      dup2\n      swap1\n      sstore\n      pop\n        /* \"contracts/ergasia.sol\":6711:6728  _pollingStationID */\n      dup4\n        /* \"contracts/ergasia.sol\":6661:6674  voterRegistry */\n      0x08\n        /* \"contracts/ergasia.sol\":6661:6686  voterRegistry[msg.sender] */\n      0x00\n        /* \"contracts/ergasia.sol\":6675:6685  msg.sender */\n      caller\n        /* \"contracts/ergasia.sol\":6661:6686  voterRegistry[msg.sender] */\n      0xffffffffffffffffffffffffffffffffffffffff\n      and\n      0xffffffffffffffffffffffffffffffffffffffff\n      and\n      dup2\n      mstore\n      0x20\n      add\n      swap1\n      dup2\n      mstore\n      0x20\n      add\n      0x00\n      keccak256\n        /* \"contracts/ergasia.sol\":6661:6708  voterRegistry[msg.sender].votedPollingStationID */\n      0x03\n      add\n        /* \"contracts/ergasia.sol\":6661:6728  voterRegistry[msg.sender].votedPollingStationID = _pollingStationID */\n      dup2\n      swap1\n      sstore\n      pop\n        /* \"contracts/ergasia.sol\":6779:6783  true */\n      0x01\n        /* \"contracts/ergasia.sol\":6742:6755  voterRegistry */\n      0x08\n        /* \"contracts/ergasia.sol\":6742:6767  voterRegistry[msg.sender] */\n      0x00\n        /* \"contracts/ergasia.sol\":6756:6766  msg.sender */\n      caller\n        /* \"contracts/ergasia.sol\":6742:6767  voterRegistry[msg.sender] */\n      0xffffffffffffffffffffffffffffffffffffffff\n      and\n      0xffffffffffffffffffffffffffffffffffffffff\n      and\n      dup2\n      mstore\n      0x20\n      add\n      swap1\n      dup2\n      mstore\n      0x20\n      add\n      0x00\n      keccak256\n        /* \"contracts/ergasia.sol\":6742:6776  voterRegistry[msg.sender].hasVoted */\n      0x00\n      add\n      0x01\n        /* \"contracts/ergasia.sol\":6742:6783  voterRegistry[msg.sender].hasVoted = true */\n      0x0100\n      exp\n      dup2\n      sload\n      dup2\n      0xff\n      mul\n      not\n      and\n      swap1\n      dup4\n      iszero\n      iszero\n      mul\n      or\n      swap1\n      sstore\n      pop\n        /* \"contracts/ergasia.sol\":6798:6813  pollingStations */\n      0x07\n        /* \"contracts/ergasia.sol\":6798:6832  pollingStations[_pollingStationID] */\n      0x00\n        /* \"contracts/ergasia.sol\":6814:6831  _pollingStationID */\n      dup6\n        /* \"contracts/ergasia.sol\":6798:6832  pollingStations[_pollingStationID] */\n      dup2\n      mstore\n      0x20\n      add\n      swap1\n      dup2\n      mstore\n      0x20\n      add\n      0x00\n      keccak256\n        /* \"contracts/ergasia.sol\":6798:6844  pollingStations[_pollingStationID].votesCasted */\n      0x03\n      add\n      0x00\n        /* \"contracts/ergasia.sol\":6798:6846  pollingStations[_pollingStationID].votesCasted++ */\n      dup2\n      sload\n      dup1\n      swap3\n      swap2\n      swap1\n      tag_127\n      swap1\n      tag_116\n      jump\t// in\n    tag_127:\n      swap2\n      swap1\n      pop\n      sstore\n      pop\n        /* \"contracts/ergasia.sol\":6861:6871  candidates */\n      0x06\n        /* \"contracts/ergasia.sol\":6861:6880  candidates[_choice] */\n      0x00\n        /* \"contracts/ergasia.sol\":6872:6879  _choice */\n      dup7\n        /* \"contracts/ergasia.sol\":6861:6880  candidates[_choice] */\n      dup2\n      mstore\n      0x20\n      add\n      swap1\n      dup2\n      mstore\n      0x20\n      add\n      0x00\n      keccak256\n        /* \"contracts/ergasia.sol\":6861:6886  candidates[_choice].votes */\n      0x02\n      add\n      0x00\n        /* \"contracts/ergasia.sol\":6861:6888  candidates[_choice].votes++ */\n      dup2\n      sload\n      dup1\n      swap3\n      swap2\n      swap1\n      tag_128\n      swap1\n      tag_116\n      jump\t// in\n    tag_128:\n      swap2\n      swap1\n      pop\n      sstore\n      pop\n        /* \"contracts/ergasia.sol\":6903:6914  countResult */\n      0x04\n      0x00\n        /* \"contracts/ergasia.sol\":6903:6916  countResult++ */\n      dup2\n      sload\n      dup1\n      swap3\n      swap2\n      swap1\n      tag_129\n      swap1\n      tag_116\n      jump\t// in\n    tag_129:\n      swap2\n      swap1\n      pop\n      sstore\n      pop\n        /* \"contracts/ergasia.sol\":6938:6942  true */\n      0x01\n        /* \"contracts/ergasia.sol\":6930:6942  found = true */\n      swap1\n      pop\n        /* \"contracts/ergasia.sol\":6977:6982  found */\n      dup1\n        /* \"contracts/ergasia.sol\":6956:6962  voters */\n      0x09\n        /* \"contracts/ergasia.sol\":6956:6974  voters[msg.sender] */\n      0x00\n        /* \"contracts/ergasia.sol\":6963:6973  msg.sender */\n      caller\n        /* \"contracts/ergasia.sol\":6956:6974  voters[msg.sender] */\n      0xffffffffffffffffffffffffffffffffffffffff\n      and\n      0xffffffffffffffffffffffffffffffffffffffff\n      and\n      dup2\n      mstore\n      0x20\n      add\n      swap1\n      dup2\n      mstore\n      0x20\n      add\n      0x00\n      keccak256\n      0x00\n        /* \"contracts/ergasia.sol\":6956:6982  voters[msg.sender] = found */\n      0x0100\n      exp\n      dup2\n      sload\n      dup2\n      0xff\n      mul\n      not\n      and\n      swap1\n      dup4\n      iszero\n      iszero\n      mul\n      or\n      swap1\n      sstore\n      pop\n        /* \"contracts/ergasia.sol\":6997:7012  pollingStations */\n      0x07\n        /* \"contracts/ergasia.sol\":6997:7031  pollingStations[_pollingStationID] */\n      0x00\n        /* \"contracts/ergasia.sol\":7013:7030  _pollingStationID */\n      dup6\n        /* \"contracts/ergasia.sol\":6997:7031  pollingStations[_pollingStationID] */\n      dup2\n      mstore\n      0x20\n      add\n      swap1\n      dup2\n      mstore\n      0x20\n      add\n      0x00\n      keccak256\n        /* \"contracts/ergasia.sol\":6997:7050  pollingStations[_pollingStationID].scoresPerCandidate */\n      0x04\n      add\n        /* \"contracts/ergasia.sol\":6997:7059  pollingStations[_pollingStationID].scoresPerCandidate[_choice] */\n      0x00\n        /* \"contracts/ergasia.sol\":7051:7058  _choice */\n      dup7\n        /* \"contracts/ergasia.sol\":6997:7059  pollingStations[_pollingStationID].scoresPerCandidate[_choice] */\n      dup2\n      mstore\n      0x20\n      add\n      swap1\n      dup2\n      mstore\n      0x20\n      add\n      0x00\n      keccak256\n        /* \"contracts/ergasia.sol\":6997:7065  pollingStations[_pollingStationID].scoresPerCandidate[_choice].votes */\n      0x02\n      add\n      0x00\n        /* \"contracts/ergasia.sol\":6997:7067  pollingStations[_pollingStationID].scoresPerCandidate[_choice].votes++ */\n      dup2\n      sload\n      dup1\n      swap3\n      swap2\n      swap1\n      tag_130\n      swap1\n      tag_116\n      jump\t// in\n    tag_130:\n      swap2\n      swap1\n      pop\n      sstore\n      pop\n        /* \"contracts/ergasia.sol\":7087:7132  VoteCasted(found, _choice, _pollingStationID) */\n      0x29a25b3d0b6ff7e5de2a60a2e8e76d1bdaf4894ec18c598cc1687213f442c5cb\n        /* \"contracts/ergasia.sol\":7098:7103  found */\n      dup2\n        /* \"contracts/ergasia.sol\":7105:7112  _choice */\n      dup7\n        /* \"contracts/ergasia.sol\":7114:7131  _pollingStationID */\n      dup7\n        /* \"contracts/ergasia.sol\":7087:7132  VoteCasted(found, _choice, _pollingStationID) */\n      mload(0x40)\n      tag_131\n      swap4\n      swap3\n      swap2\n      swap1\n      tag_132\n      jump\t// in\n    tag_131:\n      mload(0x40)\n      dup1\n      swap2\n      sub\n      swap1\n      log1\n        /* \"contracts/ergasia.sol\":6509:7143  if (voterRegistry[msg.sender].isEnrolled && !voterRegistry[msg.sender].hasVoted) {... */\n    tag_126:\n        /* \"contracts/ergasia.sol\":7159:7164  found */\n      dup1\n        /* \"contracts/ergasia.sol\":7152:7164  return found */\n      swap3\n      pop\n      pop\n        /* \"contracts/ergasia.sol\":6363:7171  function castVote(uint _choice, uint _pollingStationID) public inState(State.Voting) returns (bool voted) {... */\n      pop\n      swap3\n      swap2\n      pop\n      pop\n      jump\t// out\n        /* \"contracts/ergasia.sol\":1276:1303  uint public candidatesCount */\n    tag_44:\n      sload(0x01)\n      dup2\n      jump\t// out\n        /* \"contracts/ergasia.sol\":1621:1665  mapping(uint => Candidate) public candidates */\n    tag_48:\n      mstore(0x20, 0x06)\n      dup1\n      0x00\n      mstore\n      keccak256(0x00, 0x40)\n      0x00\n      swap2\n      pop\n      swap1\n      pop\n      dup1\n      0x00\n      add\n      sload\n      swap1\n      dup1\n      0x01\n      add\n      dup1\n      sload\n      tag_133\n      swap1\n      tag_92\n      jump\t// in\n    tag_133:\n      dup1\n      0x1f\n      add\n      0x20\n      dup1\n      swap2\n      div\n      mul\n      0x20\n      add\n      mload(0x40)\n      swap1\n      dup2\n      add\n      0x40\n      mstore\n      dup1\n      swap3\n      swap2\n      swap1\n      dup2\n      dup2\n      mstore\n      0x20\n      add\n      dup3\n      dup1\n      sload\n      tag_134\n      swap1\n      tag_92\n      jump\t// in\n    tag_134:\n      dup1\n      iszero\n      tag_135\n      jumpi\n      dup1\n      0x1f\n      lt\n      tag_136\n      jumpi\n      0x0100\n      dup1\n      dup4\n      sload\n      div\n      mul\n      dup4\n      mstore\n      swap2\n      0x20\n      add\n      swap2\n      jump(tag_135)\n    tag_136:\n      dup3\n      add\n      swap2\n      swap1\n      0x00\n      mstore\n      keccak256(0x00, 0x20)\n      swap1\n    tag_137:\n      dup2\n      sload\n      dup2\n      mstore\n      swap1\n      0x01\n      add\n      swap1\n      0x20\n      add\n      dup1\n      dup4\n      gt\n      tag_137\n      jumpi\n      dup3\n      swap1\n      sub\n      0x1f\n      and\n      dup3\n      add\n      swap2\n    tag_135:\n      pop\n      pop\n      pop\n      pop\n      pop\n      swap1\n      dup1\n      0x02\n      add\n      sload\n      swap1\n      pop\n      dup4\n      jump\t// out\n        /* \"contracts/ergasia.sol\":1779:1825  mapping(address => Voter) public voterRegistry */\n    tag_54:\n      mstore(0x20, 0x08)\n      dup1\n      0x00\n      mstore\n      keccak256(0x00, 0x40)\n      0x00\n      swap2\n      pop\n      swap1\n      pop\n      dup1\n      0x00\n      add\n      0x00\n      swap1\n      sload\n      swap1\n      0x0100\n      exp\n      swap1\n      div\n      0xff\n      and\n      swap1\n      dup1\n      0x00\n      add\n      0x01\n      swap1\n      sload\n      swap1\n      0x0100\n      exp\n      swap1\n      div\n      0xff\n      and\n      swap1\n      dup1\n      0x01\n      add\n      sload\n      swap1\n      dup1\n      0x02\n      add\n      sload\n      swap1\n      dup1\n      0x03\n      add\n      sload\n      swap1\n      pop\n      dup6\n      jump\t// out\n        /* \"contracts/ergasia.sol\":6263:6357  function startVote() public inState(State.Created) Owner {... */\n    tag_58:\n        /* \"contracts/ergasia.sol\":6299:6312  State.Created */\n      0x00\n        /* \"contracts/ergasia.sol\":2092:2098  _state */\n      dup1\n        /* \"contracts/ergasia.sol\":2083:2098  state == _state */\n      0x02\n      dup2\n      gt\n      iszero\n      tag_139\n      jumpi\n      tag_140\n      tag_120\n      jump\t// in\n    tag_140:\n    tag_139:\n        /* \"contracts/ergasia.sol\":2083:2088  state */\n      0x0a\n      0x00\n      swap1\n      sload\n      swap1\n      0x0100\n      exp\n      swap1\n      div\n      0xff\n      and\n        /* \"contracts/ergasia.sol\":2083:2098  state == _state */\n      0x02\n      dup2\n      gt\n      iszero\n      tag_141\n      jumpi\n      tag_142\n      tag_120\n      jump\t// in\n    tag_142:\n    tag_141:\n      eq\n        /* \"contracts/ergasia.sol\":2075:2099  require(state == _state) */\n      tag_143\n      jumpi\n      0x00\n      dup1\n      revert\n    tag_143:\n        /* \"contracts/ergasia.sol\":1996:2009  electionOwner */\n      0x00\n      dup1\n      sload\n      swap1\n      0x0100\n      exp\n      swap1\n      div\n      0xffffffffffffffffffffffffffffffffffffffff\n      and\n        /* \"contracts/ergasia.sol\":1982:2009  msg.sender == electionOwner */\n      0xffffffffffffffffffffffffffffffffffffffff\n      and\n        /* \"contracts/ergasia.sol\":1982:1992  msg.sender */\n      caller\n        /* \"contracts/ergasia.sol\":1982:2009  msg.sender == electionOwner */\n      0xffffffffffffffffffffffffffffffffffffffff\n      and\n      eq\n        /* \"contracts/ergasia.sol\":1974:2010  require(msg.sender == electionOwner) */\n      tag_145\n      jumpi\n      0x00\n      dup1\n      revert\n    tag_145:\n        /* \"contracts/ergasia.sol\":6338:6350  State.Voting */\n      0x01\n        /* \"contracts/ergasia.sol\":6330:6335  state */\n      0x0a\n      0x00\n        /* \"contracts/ergasia.sol\":6330:6350  state = State.Voting */\n      0x0100\n      exp\n      dup2\n      sload\n      dup2\n      0xff\n      mul\n      not\n      and\n      swap1\n      dup4\n      0x02\n      dup2\n      gt\n      iszero\n      tag_147\n      jumpi\n      tag_148\n      tag_120\n      jump\t// in\n    tag_148:\n    tag_147:\n      mul\n      or\n      swap1\n      sstore\n      pop\n        /* \"contracts/ergasia.sol\":6263:6357  function startVote() public inState(State.Created) Owner {... */\n      pop\n      jump\t// out\n        /* \"contracts/ergasia.sol\":1242:1270  address public electionOwner */\n    tag_60:\n      0x00\n      dup1\n      sload\n      swap1\n      0x0100\n      exp\n      swap1\n      div\n      0xffffffffffffffffffffffffffffffffffffffff\n      and\n      dup2\n      jump\t// out\n        /* \"contracts/ergasia.sol\":1831:1869  mapping(address => bool) public voters */\n    tag_65:\n      mstore(0x20, 0x09)\n      dup1\n      0x00\n      mstore\n      keccak256(0x00, 0x40)\n      0x00\n      swap2\n      pop\n      sload\n      swap1\n      0x0100\n      exp\n      swap1\n      div\n      0xff\n      and\n      dup2\n      jump\t// out\n        /* \"contracts/ergasia.sol\":7177:7303  function endVote() public inState(State.Voting) Owner { ... */\n    tag_68:\n        /* \"contracts/ergasia.sol\":7211:7223  State.Voting */\n      0x01\n        /* \"contracts/ergasia.sol\":2092:2098  _state */\n      dup1\n        /* \"contracts/ergasia.sol\":2083:2098  state == _state */\n      0x02\n      dup2\n      gt\n      iszero\n      tag_150\n      jumpi\n      tag_151\n      tag_120\n      jump\t// in\n    tag_151:\n    tag_150:\n        /* \"contracts/ergasia.sol\":2083:2088  state */\n      0x0a\n      0x00\n      swap1\n      sload\n      swap1\n      0x0100\n      exp\n      swap1\n      div\n      0xff\n      and\n        /* \"contracts/ergasia.sol\":2083:2098  state == _state */\n      0x02\n      dup2\n      gt\n      iszero\n      tag_152\n      jumpi\n      tag_153\n      tag_120\n      jump\t// in\n    tag_153:\n    tag_152:\n      eq\n        /* \"contracts/ergasia.sol\":2075:2099  require(state == _state) */\n      tag_154\n      jumpi\n      0x00\n      dup1\n      revert\n    tag_154:\n        /* \"contracts/ergasia.sol\":1996:2009  electionOwner */\n      0x00\n      dup1\n      sload\n      swap1\n      0x0100\n      exp\n      swap1\n      div\n      0xffffffffffffffffffffffffffffffffffffffff\n      and\n        /* \"contracts/ergasia.sol\":1982:2009  msg.sender == electionOwner */\n      0xffffffffffffffffffffffffffffffffffffffff\n      and\n        /* \"contracts/ergasia.sol\":1982:1992  msg.sender */\n      caller\n        /* \"contracts/ergasia.sol\":1982:2009  msg.sender == electionOwner */\n      0xffffffffffffffffffffffffffffffffffffffff\n      and\n      eq\n        /* \"contracts/ergasia.sol\":1974:2010  require(msg.sender == electionOwner) */\n      tag_156\n      jumpi\n      0x00\n      dup1\n      revert\n    tag_156:\n        /* \"contracts/ergasia.sol\":7250:7261  State.Ended */\n      0x02\n        /* \"contracts/ergasia.sol\":7242:7247  state */\n      0x0a\n      0x00\n        /* \"contracts/ergasia.sol\":7242:7261  state = State.Ended */\n      0x0100\n      exp\n      dup2\n      sload\n      dup2\n      0xff\n      mul\n      not\n      and\n      swap1\n      dup4\n      0x02\n      dup2\n      gt\n      iszero\n      tag_158\n      jumpi\n      tag_159\n      tag_120\n      jump\t// in\n    tag_159:\n    tag_158:\n      mul\n      or\n      swap1\n      sstore\n      pop\n        /* \"contracts/ergasia.sol\":7285:7296  countResult */\n      sload(0x04)\n        /* \"contracts/ergasia.sol\":7271:7282  finalResult */\n      0x05\n        /* \"contracts/ergasia.sol\":7271:7296  finalResult = countResult */\n      dup2\n      swap1\n      sstore\n      pop\n        /* \"contracts/ergasia.sol\":7177:7303  function endVote() public inState(State.Voting) Owner { ... */\n      pop\n      jump\t// out\n        /* \"contracts/ergasia.sol\":4809:5729  function addVoter(address _voterAddress, uint _pollingStationID) public inState(State.Created) Owner {... */\n    tag_72:\n        /* \"contracts/ergasia.sol\":4889:4902  State.Created */\n      0x00\n        /* \"contracts/ergasia.sol\":2092:2098  _state */\n      dup1\n        /* \"contracts/ergasia.sol\":2083:2098  state == _state */\n      0x02\n      dup2\n      gt\n      iszero\n      tag_161\n      jumpi\n      tag_162\n      tag_120\n      jump\t// in\n    tag_162:\n    tag_161:\n        /* \"contracts/ergasia.sol\":2083:2088  state */\n      0x0a\n      0x00\n      swap1\n      sload\n      swap1\n      0x0100\n      exp\n      swap1\n      div\n      0xff\n      and\n        /* \"contracts/ergasia.sol\":2083:2098  state == _state */\n      0x02\n      dup2\n      gt\n      iszero\n      tag_163\n      jumpi\n      tag_164\n      tag_120\n      jump\t// in\n    tag_164:\n    tag_163:\n      eq\n        /* \"contracts/ergasia.sol\":2075:2099  require(state == _state) */\n      tag_165\n      jumpi\n      0x00\n      dup1\n      revert\n    tag_165:\n        /* \"contracts/ergasia.sol\":1996:2009  electionOwner */\n      0x00\n      dup1\n      sload\n      swap1\n      0x0100\n      exp\n      swap1\n      div\n      0xffffffffffffffffffffffffffffffffffffffff\n      and\n        /* \"contracts/ergasia.sol\":1982:2009  msg.sender == electionOwner */\n      0xffffffffffffffffffffffffffffffffffffffff\n      and\n        /* \"contracts/ergasia.sol\":1982:1992  msg.sender */\n      caller\n        /* \"contracts/ergasia.sol\":1982:2009  msg.sender == electionOwner */\n      0xffffffffffffffffffffffffffffffffffffffff\n      and\n      eq\n        /* \"contracts/ergasia.sol\":1974:2010  require(msg.sender == electionOwner) */\n      tag_167\n      jumpi\n      0x00\n      dup1\n      revert\n    tag_167:\n        /* \"contracts/ergasia.sol\":5028:5033  false */\n      0x00\n        /* \"contracts/ergasia.sol\":4985:5033  voterRegistry[_voterAddress].isEnrolled == false */\n      iszero\n      iszero\n        /* \"contracts/ergasia.sol\":4985:4998  voterRegistry */\n      0x08\n        /* \"contracts/ergasia.sol\":4985:5013  voterRegistry[_voterAddress] */\n      0x00\n        /* \"contracts/ergasia.sol\":4999:5012  _voterAddress */\n      dup6\n        /* \"contracts/ergasia.sol\":4985:5013  voterRegistry[_voterAddress] */\n      0xffffffffffffffffffffffffffffffffffffffff\n      and\n      0xffffffffffffffffffffffffffffffffffffffff\n      and\n      dup2\n      mstore\n      0x20\n      add\n      swap1\n      dup2\n      mstore\n      0x20\n      add\n      0x00\n      keccak256\n        /* \"contracts/ergasia.sol\":4985:5024  voterRegistry[_voterAddress].isEnrolled */\n      0x00\n      add\n      0x00\n      swap1\n      sload\n      swap1\n      0x0100\n      exp\n      swap1\n      div\n      0xff\n      and\n        /* \"contracts/ergasia.sol\":4985:5033  voterRegistry[_voterAddress].isEnrolled == false */\n      iszero\n      iszero\n      eq\n        /* \"contracts/ergasia.sol\":4977:5066  require(voterRegistry[_voterAddress].isEnrolled == false, \"Voter is already registered.\") */\n      tag_169\n      jumpi\n      mload(0x40)\n      0x08c379a000000000000000000000000000000000000000000000000000000000\n      dup2\n      mstore\n      0x04\n      add\n      tag_170\n      swap1\n      tag_171\n      jump\t// in\n    tag_170:\n      mload(0x40)\n      dup1\n      swap2\n      sub\n      swap1\n      revert\n    tag_169:\n        /* \"contracts/ergasia.sol\":5305:5306  1 */\n      0x01\n        /* \"contracts/ergasia.sol\":5285:5302  _pollingStationID */\n      dup3\n        /* \"contracts/ergasia.sol\":5285:5306  _pollingStationID >=1 */\n      lt\n      iszero\n        /* \"contracts/ergasia.sol\":5285:5350  _pollingStationID >=1 && _pollingStationID <= pollingStationCount */\n      dup1\n      iszero\n      tag_172\n      jumpi\n      pop\n        /* \"contracts/ergasia.sol\":5331:5350  pollingStationCount */\n      sload(0x02)\n        /* \"contracts/ergasia.sol\":5310:5327  _pollingStationID */\n      dup3\n        /* \"contracts/ergasia.sol\":5310:5350  _pollingStationID <= pollingStationCount */\n      gt\n      iszero\n        /* \"contracts/ergasia.sol\":5285:5350  _pollingStationID >=1 && _pollingStationID <= pollingStationCount */\n    tag_172:\n        /* \"contracts/ergasia.sol\":5277:5397  require(_pollingStationID >=1 && _pollingStationID <= pollingStationCount, \"Please provide a valid polling station ID.\") */\n      tag_173\n      jumpi\n      mload(0x40)\n      0x08c379a000000000000000000000000000000000000000000000000000000000\n      dup2\n      mstore\n      0x04\n      add\n      tag_174\n      swap1\n      tag_175\n      jump\t// in\n    tag_174:\n      mload(0x40)\n      dup1\n      swap2\n      sub\n      swap1\n      revert\n    tag_173:\n        /* \"contracts/ergasia.sol\":5408:5422  Voter memory v */\n      tag_176\n      tag_177\n      jump\t// in\n    tag_176:\n        /* \"contracts/ergasia.sol\":5447:5451  true */\n      0x01\n        /* \"contracts/ergasia.sol\":5432:5433  v */\n      dup2\n        /* \"contracts/ergasia.sol\":5432:5444  v.isEnrolled */\n      0x00\n      add\n        /* \"contracts/ergasia.sol\":5432:5451  v.isEnrolled = true */\n      swap1\n      iszero\n      iszero\n      swap1\n      dup2\n      iszero\n      iszero\n      dup2\n      mstore\n      pop\n      pop\n        /* \"contracts/ergasia.sol\":5474:5479  false */\n      0x00\n        /* \"contracts/ergasia.sol\":5461:5462  v */\n      dup2\n        /* \"contracts/ergasia.sol\":5461:5471  v.hasVoted */\n      0x20\n      add\n        /* \"contracts/ergasia.sol\":5461:5479  v.hasVoted = false */\n      swap1\n      iszero\n      iszero\n      swap1\n      dup2\n      iszero\n      iszero\n      dup2\n      mstore\n      pop\n      pop\n        /* \"contracts/ergasia.sol\":5500:5501  0 */\n      0x00\n        /* \"contracts/ergasia.sol\":5489:5490  v */\n      dup2\n        /* \"contracts/ergasia.sol\":5489:5497  v.choice */\n      0x40\n      add\n        /* \"contracts/ergasia.sol\":5489:5501  v.choice = 0 */\n      dup2\n      dup2\n      mstore\n      pop\n      pop\n        /* \"contracts/ergasia.sol\":5540:5557  _pollingStationID */\n      dup3\n        /* \"contracts/ergasia.sol\":5511:5512  v */\n      dup2\n        /* \"contracts/ergasia.sol\":5511:5537  v.enrolledPollingStationID */\n      0x60\n      add\n        /* \"contracts/ergasia.sol\":5511:5557  v.enrolledPollingStationID = _pollingStationID */\n      dup2\n      dup2\n      mstore\n      pop\n      pop\n        /* \"contracts/ergasia.sol\":5593:5594  0 */\n      0x00\n        /* \"contracts/ergasia.sol\":5567:5568  v */\n      dup2\n        /* \"contracts/ergasia.sol\":5567:5590  v.votedPollingStationID */\n      0x80\n      add\n        /* \"contracts/ergasia.sol\":5567:5594  v.votedPollingStationID = 0 */\n      dup2\n      dup2\n      mstore\n      pop\n      pop\n        /* \"contracts/ergasia.sol\":5635:5636  v */\n      dup1\n        /* \"contracts/ergasia.sol\":5604:5617  voterRegistry */\n      0x08\n        /* \"contracts/ergasia.sol\":5604:5632  voterRegistry[_voterAddress] */\n      0x00\n        /* \"contracts/ergasia.sol\":5618:5631  _voterAddress */\n      dup7\n        /* \"contracts/ergasia.sol\":5604:5632  voterRegistry[_voterAddress] */\n      0xffffffffffffffffffffffffffffffffffffffff\n      and\n      0xffffffffffffffffffffffffffffffffffffffff\n      and\n      dup2\n      mstore\n      0x20\n      add\n      swap1\n      dup2\n      mstore\n      0x20\n      add\n      0x00\n      keccak256\n        /* \"contracts/ergasia.sol\":5604:5636  voterRegistry[_voterAddress] = v */\n      0x00\n      dup3\n      add\n      mload\n      dup2\n      0x00\n      add\n      exp(0x0100, 0x00)\n      dup2\n      sload\n      dup2\n      0xff\n      mul\n      not\n      and\n      swap1\n      dup4\n      iszero\n      iszero\n      mul\n      or\n      swap1\n      sstore\n      pop\n      0x20\n      dup3\n      add\n      mload\n      dup2\n      0x00\n      add\n      exp(0x0100, 0x01)\n      dup2\n      sload\n      dup2\n      0xff\n      mul\n      not\n      and\n      swap1\n      dup4\n      iszero\n      iszero\n      mul\n      or\n      swap1\n      sstore\n      pop\n      0x40\n      dup3\n      add\n      mload\n      dup2\n      0x01\n      add\n      sstore\n      0x60\n      dup3\n      add\n      mload\n      dup2\n      0x02\n      add\n      sstore\n      0x80\n      dup3\n      add\n      mload\n      dup2\n      0x03\n      add\n      sstore\n      swap1\n      pop\n      pop\n        /* \"contracts/ergasia.sol\":5646:5689  registerAtPollingStation(_pollingStationID) */\n      tag_178\n        /* \"contracts/ergasia.sol\":5671:5688  _pollingStationID */\n      dup4\n        /* \"contracts/ergasia.sol\":5646:5670  registerAtPollingStation */\n      tag_179\n        /* \"contracts/ergasia.sol\":5646:5689  registerAtPollingStation(_pollingStationID) */\n      jump\t// in\n    tag_178:\n        /* \"contracts/ergasia.sol\":5699:5720  totalRegisteredVoters */\n      0x03\n      0x00\n        /* \"contracts/ergasia.sol\":5699:5722  totalRegisteredVoters++ */\n      dup2\n      sload\n      dup1\n      swap3\n      swap2\n      swap1\n      tag_180\n      swap1\n      tag_116\n      jump\t// in\n    tag_180:\n      swap2\n      swap1\n      pop\n      sstore\n      pop\n        /* \"contracts/ergasia.sol\":4910:5729  {... */\n      pop\n        /* \"contracts/ergasia.sol\":4809:5729  function addVoter(address _voterAddress, uint _pollingStationID) public inState(State.Created) Owner {... */\n      pop\n      pop\n      pop\n      jump\t// out\n        /* \"contracts/ergasia.sol\":1922:1940  State public state */\n    tag_74:\n      0x0a\n      0x00\n      swap1\n      sload\n      swap1\n      0x0100\n      exp\n      swap1\n      div\n      0xff\n      and\n      dup2\n      jump\t// out\n        /* \"contracts/ergasia.sol\":1344:1375  uint public pollingStationCount */\n    tag_78:\n      sload(0x02)\n      dup2\n      jump\t// out\n        /* \"contracts/ergasia.sol\":1539:1562  uint public finalResult */\n    tag_81:\n      sload(0x05)\n      dup2\n      jump\t// out\n        /* \"contracts/ergasia.sol\":1695:1749  mapping(uint => PollingStation) public pollingStations */\n    tag_85:\n      mstore(0x20, 0x07)\n      dup1\n      0x00\n      mstore\n      keccak256(0x00, 0x40)\n      0x00\n      swap2\n      pop\n      swap1\n      pop\n      dup1\n      0x00\n      add\n      sload\n      swap1\n      dup1\n      0x01\n      add\n      dup1\n      sload\n      tag_181\n      swap1\n      tag_92\n      jump\t// in\n    tag_181:\n      dup1\n      0x1f\n      add\n      0x20\n      dup1\n      swap2\n      div\n      mul\n      0x20\n      add\n      mload(0x40)\n      swap1\n      dup2\n      add\n      0x40\n      mstore\n      dup1\n      swap3\n      swap2\n      swap1\n      dup2\n      dup2\n      mstore\n      0x20\n      add\n      dup3\n      dup1\n      sload\n      tag_182\n      swap1\n      tag_92\n      jump\t// in\n    tag_182:\n      dup1\n      iszero\n      tag_183\n      jumpi\n      dup1\n      0x1f\n      lt\n      tag_184\n      jumpi\n      0x0100\n      dup1\n      dup4\n      sload\n      div\n      mul\n      dup4\n      mstore\n      swap2\n      0x20\n      add\n      swap2\n      jump(tag_183)\n    tag_184:\n      dup3\n      add\n      swap2\n      swap1\n      0x00\n      mstore\n      keccak256(0x00, 0x20)\n      swap1\n    tag_185:\n      dup2\n      sload\n      dup2\n      mstore\n      swap1\n      0x01\n      add\n      swap1\n      0x20\n      add\n      dup1\n      dup4\n      gt\n      tag_185\n      jumpi\n      dup3\n      swap1\n      sub\n      0x1f\n      and\n      dup3\n      add\n      swap2\n    tag_183:\n      pop\n      pop\n      pop\n      pop\n      pop\n      swap1\n      dup1\n      0x02\n      add\n      sload\n      swap1\n      dup1\n      0x03\n      add\n      sload\n      swap1\n      pop\n      dup5\n      jump\t// out\n        /* \"contracts/ergasia.sol\":5867:6149  function registerAtPollingStation(uint _stationID) internal {... */\n    tag_179:\n        /* \"contracts/ergasia.sol\":5942:5948  uint i */\n      0x00\n        /* \"contracts/ergasia.sol\":5951:5952  1 */\n      0x01\n        /* \"contracts/ergasia.sol\":5942:5952  uint i = 1 */\n      swap1\n      pop\n        /* \"contracts/ergasia.sol\":5937:6143  for (uint i = 1; i <= pollingStationCount; i++) {... */\n    tag_187:\n        /* \"contracts/ergasia.sol\":5959:5978  pollingStationCount */\n      sload(0x02)\n        /* \"contracts/ergasia.sol\":5954:5955  i */\n      dup2\n        /* \"contracts/ergasia.sol\":5954:5978  i <= pollingStationCount */\n      gt\n        /* \"contracts/ergasia.sol\":5937:6143  for (uint i = 1; i <= pollingStationCount; i++) {... */\n      tag_188\n      jumpi\n        /* \"contracts/ergasia.sol\":6028:6038  _stationID */\n      dup2\n        /* \"contracts/ergasia.sol\":6003:6018  pollingStations */\n      0x07\n        /* \"contracts/ergasia.sol\":6003:6021  pollingStations[i] */\n      0x00\n        /* \"contracts/ergasia.sol\":6019:6020  i */\n      dup4\n        /* \"contracts/ergasia.sol\":6003:6021  pollingStations[i] */\n      dup2\n      mstore\n      0x20\n      add\n      swap1\n      dup2\n      mstore\n      0x20\n      add\n      0x00\n      keccak256\n        /* \"contracts/ergasia.sol\":6003:6024  pollingStations[i].id */\n      0x00\n      add\n      sload\n        /* \"contracts/ergasia.sol\":6003:6038  pollingStations[i].id == _stationID */\n      eq\n        /* \"contracts/ergasia.sol\":5999:6133  if (pollingStations[i].id == _stationID) {... */\n      iszero\n      tag_190\n      jumpi\n        /* \"contracts/ergasia.sol\":6058:6073  pollingStations */\n      0x07\n        /* \"contracts/ergasia.sol\":6058:6076  pollingStations[i] */\n      0x00\n        /* \"contracts/ergasia.sol\":6074:6075  i */\n      dup3\n        /* \"contracts/ergasia.sol\":6058:6076  pollingStations[i] */\n      dup2\n      mstore\n      0x20\n      add\n      swap1\n      dup2\n      mstore\n      0x20\n      add\n      0x00\n      keccak256\n        /* \"contracts/ergasia.sol\":6058:6093  pollingStations[i].votersRegistered */\n      0x02\n      add\n      0x00\n        /* \"contracts/ergasia.sol\":6058:6095  pollingStations[i].votersRegistered++ */\n      dup2\n      sload\n      dup1\n      swap3\n      swap2\n      swap1\n      tag_191\n      swap1\n      tag_116\n      jump\t// in\n    tag_191:\n      swap2\n      swap1\n      pop\n      sstore\n      pop\n        /* \"contracts/ergasia.sol\":6113:6118  break */\n      jump(tag_188)\n        /* \"contracts/ergasia.sol\":5999:6133  if (pollingStations[i].id == _stationID) {... */\n    tag_190:\n        /* \"contracts/ergasia.sol\":5980:5983  i++ */\n      dup1\n      dup1\n      tag_192\n      swap1\n      tag_116\n      jump\t// in\n    tag_192:\n      swap2\n      pop\n      pop\n        /* \"contracts/ergasia.sol\":5937:6143  for (uint i = 1; i <= pollingStationCount; i++) {... */\n      jump(tag_187)\n    tag_188:\n      pop\n        /* \"contracts/ergasia.sol\":5867:6149  function registerAtPollingStation(uint _stationID) internal {... */\n      pop\n      jump\t// out\n    tag_89:\n      mload(0x40)\n      dup1\n      0x60\n      add\n      0x40\n      mstore\n      dup1\n      0x00\n      dup2\n      mstore\n      0x20\n      add\n      0x60\n      dup2\n      mstore\n      0x20\n      add\n      0x00\n      dup2\n      mstore\n      pop\n      swap1\n      jump\t// out\n    tag_177:\n      mload(0x40)\n      dup1\n      0xa0\n      add\n      0x40\n      mstore\n      dup1\n      iszero(iszero(0x00))\n      dup2\n      mstore\n      0x20\n      add\n      iszero(iszero(0x00))\n      dup2\n      mstore\n      0x20\n      add\n      0x00\n      dup2\n      mstore\n      0x20\n      add\n      0x00\n      dup2\n      mstore\n      0x20\n      add\n      0x00\n      dup2\n      mstore\n      pop\n      swap1\n      jump\t// out\n        /* \"#utility.yul\":7:146   */\n    tag_194:\n        /* \"#utility.yul\":53:58   */\n      0x00\n        /* \"#utility.yul\":91:97   */\n      dup2\n        /* \"#utility.yul\":78:98   */\n      calldataload\n        /* \"#utility.yul\":69:98   */\n      swap1\n      pop\n        /* \"#utility.yul\":107:140   */\n      tag_196\n        /* \"#utility.yul\":134:139   */\n      dup2\n        /* \"#utility.yul\":107:140   */\n      tag_197\n      jump\t// in\n    tag_196:\n        /* \"#utility.yul\":7:146   */\n      swap3\n      swap2\n      pop\n      pop\n      jump\t// out\n        /* \"#utility.yul\":152:291   */\n    tag_198:\n        /* \"#utility.yul\":198:203   */\n      0x00\n        /* \"#utility.yul\":236:242   */\n      dup2\n        /* \"#utility.yul\":223:243   */\n      calldataload\n        /* \"#utility.yul\":214:243   */\n      swap1\n      pop\n        /* \"#utility.yul\":252:285   */\n      tag_200\n        /* \"#utility.yul\":279:284   */\n      dup2\n        /* \"#utility.yul\":252:285   */\n      tag_201\n      jump\t// in\n    tag_200:\n        /* \"#utility.yul\":152:291   */\n      swap3\n      swap2\n      pop\n      pop\n      jump\t// out\n        /* \"#utility.yul\":297:626   */\n    tag_53:\n        /* \"#utility.yul\":356:362   */\n      0x00\n        /* \"#utility.yul\":405:407   */\n      0x20\n        /* \"#utility.yul\":393:402   */\n      dup3\n        /* \"#utility.yul\":384:391   */\n      dup5\n        /* \"#utility.yul\":380:403   */\n      sub\n        /* \"#utility.yul\":376:408   */\n      slt\n        /* \"#utility.yul\":373:492   */\n      iszero\n      tag_203\n      jumpi\n        /* \"#utility.yul\":411:490   */\n      tag_204\n      tag_205\n      jump\t// in\n    tag_204:\n        /* \"#utility.yul\":373:492   */\n    tag_203:\n        /* \"#utility.yul\":531:532   */\n      0x00\n        /* \"#utility.yul\":556:609   */\n      tag_206\n        /* \"#utility.yul\":601:608   */\n      dup5\n        /* \"#utility.yul\":592:598   */\n      dup3\n        /* \"#utility.yul\":581:590   */\n      dup6\n        /* \"#utility.yul\":577:599   */\n      add\n        /* \"#utility.yul\":556:609   */\n      tag_194\n      jump\t// in\n    tag_206:\n        /* \"#utility.yul\":546:609   */\n      swap2\n      pop\n        /* \"#utility.yul\":502:619   */\n      pop\n        /* \"#utility.yul\":297:626   */\n      swap3\n      swap2\n      pop\n      pop\n      jump\t// out\n        /* \"#utility.yul\":632:1106   */\n    tag_71:\n        /* \"#utility.yul\":700:706   */\n      0x00\n        /* \"#utility.yul\":708:714   */\n      dup1\n        /* \"#utility.yul\":757:759   */\n      0x40\n        /* \"#utility.yul\":745:754   */\n      dup4\n        /* \"#utility.yul\":736:743   */\n      dup6\n        /* \"#utility.yul\":732:755   */\n      sub\n        /* \"#utility.yul\":728:760   */\n      slt\n        /* \"#utility.yul\":725:844   */\n      iszero\n      tag_208\n      jumpi\n        /* \"#utility.yul\":763:842   */\n      tag_209\n      tag_205\n      jump\t// in\n    tag_209:\n        /* \"#utility.yul\":725:844   */\n    tag_208:\n        /* \"#utility.yul\":883:884   */\n      0x00\n        /* \"#utility.yul\":908:961   */\n      tag_210\n        /* \"#utility.yul\":953:960   */\n      dup6\n        /* \"#utility.yul\":944:950   */\n      dup3\n        /* \"#utility.yul\":933:942   */\n      dup7\n        /* \"#utility.yul\":929:951   */\n      add\n        /* \"#utility.yul\":908:961   */\n      tag_194\n      jump\t// in\n    tag_210:\n        /* \"#utility.yul\":898:961   */\n      swap3\n      pop\n        /* \"#utility.yul\":854:971   */\n      pop\n        /* \"#utility.yul\":1010:1012   */\n      0x20\n        /* \"#utility.yul\":1036:1089   */\n      tag_211\n        /* \"#utility.yul\":1081:1088   */\n      dup6\n        /* \"#utility.yul\":1072:1078   */\n      dup3\n        /* \"#utility.yul\":1061:1070   */\n      dup7\n        /* \"#utility.yul\":1057:1079   */\n      add\n        /* \"#utility.yul\":1036:1089   */\n      tag_198\n      jump\t// in\n    tag_211:\n        /* \"#utility.yul\":1026:1089   */\n      swap2\n      pop\n        /* \"#utility.yul\":981:1099   */\n      pop\n        /* \"#utility.yul\":632:1106   */\n      swap3\n      pop\n      swap3\n      swap1\n      pop\n      jump\t// out\n        /* \"#utility.yul\":1112:1441   */\n    tag_34:\n        /* \"#utility.yul\":1171:1177   */\n      0x00\n        /* \"#utility.yul\":1220:1222   */\n      0x20\n        /* \"#utility.yul\":1208:1217   */\n      dup3\n        /* \"#utility.yul\":1199:1206   */\n      dup5\n        /* \"#utility.yul\":1195:1218   */\n      sub\n        /* \"#utility.yul\":1191:1223   */\n      slt\n        /* \"#utility.yul\":1188:1307   */\n      iszero\n      tag_213\n      jumpi\n        /* \"#utility.yul\":1226:1305   */\n      tag_214\n      tag_205\n      jump\t// in\n    tag_214:\n        /* \"#utility.yul\":1188:1307   */\n    tag_213:\n        /* \"#utility.yul\":1346:1347   */\n      0x00\n        /* \"#utility.yul\":1371:1424   */\n      tag_215\n        /* \"#utility.yul\":1416:1423   */\n      dup5\n        /* \"#utility.yul\":1407:1413   */\n      dup3\n        /* \"#utility.yul\":1396:1405   */\n      dup6\n        /* \"#utility.yul\":1392:1414   */\n      add\n        /* \"#utility.yul\":1371:1424   */\n      tag_198\n      jump\t// in\n    tag_215:\n        /* \"#utility.yul\":1361:1424   */\n      swap2\n      pop\n        /* \"#utility.yul\":1317:1434   */\n      pop\n        /* \"#utility.yul\":1112:1441   */\n      swap3\n      swap2\n      pop\n      pop\n      jump\t// out\n        /* \"#utility.yul\":1447:1921   */\n    tag_28:\n        /* \"#utility.yul\":1515:1521   */\n      0x00\n        /* \"#utility.yul\":1523:1529   */\n      dup1\n        /* \"#utility.yul\":1572:1574   */\n      0x40\n        /* \"#utility.yul\":1560:1569   */\n      dup4\n        /* \"#utility.yul\":1551:1558   */\n      dup6\n        /* \"#utility.yul\":1547:1570   */\n      sub\n        /* \"#utility.yul\":1543:1575   */\n      slt\n        /* \"#utility.yul\":1540:1659   */\n      iszero\n      tag_217\n      jumpi\n        /* \"#utility.yul\":1578:1657   */\n      tag_218\n      tag_205\n      jump\t// in\n    tag_218:\n        /* \"#utility.yul\":1540:1659   */\n    tag_217:\n        /* \"#utility.yul\":1698:1699   */\n      0x00\n        /* \"#utility.yul\":1723:1776   */\n      tag_219\n        /* \"#utility.yul\":1768:1775   */\n      dup6\n        /* \"#utility.yul\":1759:1765   */\n      dup3\n        /* \"#utility.yul\":1748:1757   */\n      dup7\n        /* \"#utility.yul\":1744:1766   */\n      add\n        /* \"#utility.yul\":1723:1776   */\n      tag_198\n      jump\t// in\n    tag_219:\n        /* \"#utility.yul\":1713:1776   */\n      swap3\n      pop\n        /* \"#utility.yul\":1669:1786   */\n      pop\n        /* \"#utility.yul\":1825:1827   */\n      0x20\n        /* \"#utility.yul\":1851:1904   */\n      tag_220\n        /* \"#utility.yul\":1896:1903   */\n      dup6\n        /* \"#utility.yul\":1887:1893   */\n      dup3\n        /* \"#utility.yul\":1876:1885   */\n      dup7\n        /* \"#utility.yul\":1872:1894   */\n      add\n        /* \"#utility.yul\":1851:1904   */\n      tag_198\n      jump\t// in\n    tag_220:\n        /* \"#utility.yul\":1841:1904   */\n      swap2\n      pop\n        /* \"#utility.yul\":1796:1914   */\n      pop\n        /* \"#utility.yul\":1447:1921   */\n      swap3\n      pop\n      swap3\n      swap1\n      pop\n      jump\t// out\n        /* \"#utility.yul\":1927:2179   */\n    tag_221:\n        /* \"#utility.yul\":2044:2054   */\n      0x00\n        /* \"#utility.yul\":2079:2173   */\n      tag_223\n        /* \"#utility.yul\":2169:2172   */\n      dup4\n        /* \"#utility.yul\":2161:2167   */\n      dup4\n        /* \"#utility.yul\":2079:2173   */\n      tag_224\n      jump\t// in\n    tag_223:\n        /* \"#utility.yul\":2065:2173   */\n      swap1\n      pop\n        /* \"#utility.yul\":1927:2179   */\n      swap3\n      swap2\n      pop\n      pop\n      jump\t// out\n        /* \"#utility.yul\":2185:2303   */\n    tag_225:\n        /* \"#utility.yul\":2272:2296   */\n      tag_227\n        /* \"#utility.yul\":2290:2295   */\n      dup2\n        /* \"#utility.yul\":2272:2296   */\n      tag_228\n      jump\t// in\n    tag_227:\n        /* \"#utility.yul\":2267:2270   */\n      dup3\n        /* \"#utility.yul\":2260:2297   */\n      mstore\n        /* \"#utility.yul\":2185:2303   */\n      pop\n      pop\n      jump\t// out\n        /* \"#utility.yul\":2375:3478   */\n    tag_229:\n        /* \"#utility.yul\":2542:2545   */\n      0x00\n        /* \"#utility.yul\":2571:2649   */\n      tag_231\n        /* \"#utility.yul\":2643:2648   */\n      dup3\n        /* \"#utility.yul\":2571:2649   */\n      tag_232\n      jump\t// in\n    tag_231:\n        /* \"#utility.yul\":2665:2775   */\n      tag_233\n        /* \"#utility.yul\":2768:2774   */\n      dup2\n        /* \"#utility.yul\":2763:2766   */\n      dup6\n        /* \"#utility.yul\":2665:2775   */\n      tag_234\n      jump\t// in\n    tag_233:\n        /* \"#utility.yul\":2658:2775   */\n      swap4\n      pop\n        /* \"#utility.yul\":2801:2804   */\n      dup4\n        /* \"#utility.yul\":2846:2850   */\n      0x20\n        /* \"#utility.yul\":2838:2844   */\n      dup3\n        /* \"#utility.yul\":2834:2851   */\n      mul\n        /* \"#utility.yul\":2829:2832   */\n      dup6\n        /* \"#utility.yul\":2825:2852   */\n      add\n        /* \"#utility.yul\":2876:2956   */\n      tag_235\n        /* \"#utility.yul\":2950:2955   */\n      dup6\n        /* \"#utility.yul\":2876:2956   */\n      tag_236\n      jump\t// in\n    tag_235:\n        /* \"#utility.yul\":2979:2986   */\n      dup1\n        /* \"#utility.yul\":3010:3011   */\n      0x00\n        /* \"#utility.yul\":2995:3433   */\n    tag_237:\n        /* \"#utility.yul\":3020:3026   */\n      dup6\n        /* \"#utility.yul\":3017:3018   */\n      dup2\n        /* \"#utility.yul\":3014:3027   */\n      lt\n        /* \"#utility.yul\":2995:3433   */\n      iszero\n      tag_239\n      jumpi\n        /* \"#utility.yul\":3091:3100   */\n      dup5\n        /* \"#utility.yul\":3085:3089   */\n      dup5\n        /* \"#utility.yul\":3081:3101   */\n      sub\n        /* \"#utility.yul\":3076:3079   */\n      dup10\n        /* \"#utility.yul\":3069:3102   */\n      mstore\n        /* \"#utility.yul\":3142:3148   */\n      dup2\n        /* \"#utility.yul\":3136:3149   */\n      mload\n        /* \"#utility.yul\":3170:3282   */\n      tag_240\n        /* \"#utility.yul\":3277:3281   */\n      dup6\n        /* \"#utility.yul\":3262:3275   */\n      dup3\n        /* \"#utility.yul\":3170:3282   */\n      tag_221\n      jump\t// in\n    tag_240:\n        /* \"#utility.yul\":3162:3282   */\n      swap5\n      pop\n        /* \"#utility.yul\":3305:3389   */\n      tag_241\n        /* \"#utility.yul\":3382:3388   */\n      dup4\n        /* \"#utility.yul\":3305:3389   */\n      tag_242\n      jump\t// in\n    tag_241:\n        /* \"#utility.yul\":3295:3389   */\n      swap3\n      pop\n        /* \"#utility.yul\":3418:3422   */\n      0x20\n        /* \"#utility.yul\":3413:3416   */\n      dup11\n        /* \"#utility.yul\":3409:3423   */\n      add\n        /* \"#utility.yul\":3402:3423   */\n      swap10\n      pop\n        /* \"#utility.yul\":3055:3433   */\n      pop\n        /* \"#utility.yul\":3042:3043   */\n      0x01\n        /* \"#utility.yul\":3039:3040   */\n      dup2\n        /* \"#utility.yul\":3035:3044   */\n      add\n        /* \"#utility.yul\":3030:3044   */\n      swap1\n      pop\n        /* \"#utility.yul\":2995:3433   */\n      jump(tag_237)\n    tag_239:\n        /* \"#utility.yul\":2999:3013   */\n      pop\n        /* \"#utility.yul\":3449:3453   */\n      dup3\n        /* \"#utility.yul\":3442:3453   */\n      swap8\n      pop\n        /* \"#utility.yul\":3469:3472   */\n      dup8\n        /* \"#utility.yul\":3462:3472   */\n      swap6\n      pop\n        /* \"#utility.yul\":2547:3478   */\n      pop\n      pop\n      pop\n      pop\n      pop\n        /* \"#utility.yul\":2375:3478   */\n      swap3\n      swap2\n      pop\n      pop\n      jump\t// out\n        /* \"#utility.yul\":3484:3593   */\n    tag_243:\n        /* \"#utility.yul\":3565:3586   */\n      tag_245\n        /* \"#utility.yul\":3580:3585   */\n      dup2\n        /* \"#utility.yul\":3565:3586   */\n      tag_246\n      jump\t// in\n    tag_245:\n        /* \"#utility.yul\":3560:3563   */\n      dup3\n        /* \"#utility.yul\":3553:3587   */\n      mstore\n        /* \"#utility.yul\":3484:3593   */\n      pop\n      pop\n      jump\t// out\n        /* \"#utility.yul\":3599:3742   */\n    tag_247:\n        /* \"#utility.yul\":3692:3735   */\n      tag_249\n        /* \"#utility.yul\":3729:3734   */\n      dup2\n        /* \"#utility.yul\":3692:3735   */\n      tag_250\n      jump\t// in\n    tag_249:\n        /* \"#utility.yul\":3687:3690   */\n      dup3\n        /* \"#utility.yul\":3680:3736   */\n      mstore\n        /* \"#utility.yul\":3599:3742   */\n      pop\n      pop\n      jump\t// out\n        /* \"#utility.yul\":3748:4092   */\n    tag_251:\n        /* \"#utility.yul\":3826:3829   */\n      0x00\n        /* \"#utility.yul\":3854:3893   */\n      tag_253\n        /* \"#utility.yul\":3887:3892   */\n      dup3\n        /* \"#utility.yul\":3854:3893   */\n      tag_254\n      jump\t// in\n    tag_253:\n        /* \"#utility.yul\":3909:3970   */\n      tag_255\n        /* \"#utility.yul\":3963:3969   */\n      dup2\n        /* \"#utility.yul\":3958:3961   */\n      dup6\n        /* \"#utility.yul\":3909:3970   */\n      tag_256\n      jump\t// in\n    tag_255:\n        /* \"#utility.yul\":3902:3970   */\n      swap4\n      pop\n        /* \"#utility.yul\":3979:4031   */\n      tag_257\n        /* \"#utility.yul\":4024:4030   */\n      dup2\n        /* \"#utility.yul\":4019:4022   */\n      dup6\n        /* \"#utility.yul\":4012:4016   */\n      0x20\n        /* \"#utility.yul\":4005:4010   */\n      dup7\n        /* \"#utility.yul\":4001:4017   */\n      add\n        /* \"#utility.yul\":3979:4031   */\n      tag_258\n      jump\t// in\n    tag_257:\n        /* \"#utility.yul\":4056:4085   */\n      tag_259\n        /* \"#utility.yul\":4078:4084   */\n      dup2\n        /* \"#utility.yul\":4056:4085   */\n      tag_260\n      jump\t// in\n    tag_259:\n        /* \"#utility.yul\":4051:4054   */\n      dup5\n        /* \"#utility.yul\":4047:4086   */\n      add\n        /* \"#utility.yul\":4040:4086   */\n      swap2\n      pop\n        /* \"#utility.yul\":3830:4092   */\n      pop\n        /* \"#utility.yul\":3748:4092   */\n      swap3\n      swap2\n      pop\n      pop\n      jump\t// out\n        /* \"#utility.yul\":4098:4462   */\n    tag_261:\n        /* \"#utility.yul\":4186:4189   */\n      0x00\n        /* \"#utility.yul\":4214:4253   */\n      tag_263\n        /* \"#utility.yul\":4247:4252   */\n      dup3\n        /* \"#utility.yul\":4214:4253   */\n      tag_254\n      jump\t// in\n    tag_263:\n        /* \"#utility.yul\":4269:4340   */\n      tag_264\n        /* \"#utility.yul\":4333:4339   */\n      dup2\n        /* \"#utility.yul\":4328:4331   */\n      dup6\n        /* \"#utility.yul\":4269:4340   */\n      tag_265\n      jump\t// in\n    tag_264:\n        /* \"#utility.yul\":4262:4340   */\n      swap4\n      pop\n        /* \"#utility.yul\":4349:4401   */\n      tag_266\n        /* \"#utility.yul\":4394:4400   */\n      dup2\n        /* \"#utility.yul\":4389:4392   */\n      dup6\n        /* \"#utility.yul\":4382:4386   */\n      0x20\n        /* \"#utility.yul\":4375:4380   */\n      dup7\n        /* \"#utility.yul\":4371:4387   */\n      add\n        /* \"#utility.yul\":4349:4401   */\n      tag_258\n      jump\t// in\n    tag_266:\n        /* \"#utility.yul\":4426:4455   */\n      tag_267\n        /* \"#utility.yul\":4448:4454   */\n      dup2\n        /* \"#utility.yul\":4426:4455   */\n      tag_260\n      jump\t// in\n    tag_267:\n        /* \"#utility.yul\":4421:4424   */\n      dup5\n        /* \"#utility.yul\":4417:4456   */\n      add\n        /* \"#utility.yul\":4410:4456   */\n      swap2\n      pop\n        /* \"#utility.yul\":4190:4462   */\n      pop\n        /* \"#utility.yul\":4098:4462   */\n      swap3\n      swap2\n      pop\n      pop\n      jump\t// out\n        /* \"#utility.yul\":4468:4834   */\n    tag_268:\n        /* \"#utility.yul\":4610:4613   */\n      0x00\n        /* \"#utility.yul\":4631:4698   */\n      tag_270\n        /* \"#utility.yul\":4695:4697   */\n      0x2a\n        /* \"#utility.yul\":4690:4693   */\n      dup4\n        /* \"#utility.yul\":4631:4698   */\n      tag_265\n      jump\t// in\n    tag_270:\n        /* \"#utility.yul\":4624:4698   */\n      swap2\n      pop\n        /* \"#utility.yul\":4707:4800   */\n      tag_271\n        /* \"#utility.yul\":4796:4799   */\n      dup3\n        /* \"#utility.yul\":4707:4800   */\n      tag_272\n      jump\t// in\n    tag_271:\n        /* \"#utility.yul\":4825:4827   */\n      0x40\n        /* \"#utility.yul\":4820:4823   */\n      dup3\n        /* \"#utility.yul\":4816:4828   */\n      add\n        /* \"#utility.yul\":4809:4828   */\n      swap1\n      pop\n        /* \"#utility.yul\":4468:4834   */\n      swap2\n      swap1\n      pop\n      jump\t// out\n        /* \"#utility.yul\":4840:5206   */\n    tag_273:\n        /* \"#utility.yul\":4982:4985   */\n      0x00\n        /* \"#utility.yul\":5003:5070   */\n      tag_275\n        /* \"#utility.yul\":5067:5069   */\n      0x1c\n        /* \"#utility.yul\":5062:5065   */\n      dup4\n        /* \"#utility.yul\":5003:5070   */\n      tag_265\n      jump\t// in\n    tag_275:\n        /* \"#utility.yul\":4996:5070   */\n      swap2\n      pop\n        /* \"#utility.yul\":5079:5172   */\n      tag_276\n        /* \"#utility.yul\":5168:5171   */\n      dup3\n        /* \"#utility.yul\":5079:5172   */\n      tag_277\n      jump\t// in\n    tag_276:\n        /* \"#utility.yul\":5197:5199   */\n      0x20\n        /* \"#utility.yul\":5192:5195   */\n      dup3\n        /* \"#utility.yul\":5188:5200   */\n      add\n        /* \"#utility.yul\":5181:5200   */\n      swap1\n      pop\n        /* \"#utility.yul\":4840:5206   */\n      swap2\n      swap1\n      pop\n      jump\t// out\n        /* \"#utility.yul\":5274:6041   */\n    tag_224:\n        /* \"#utility.yul\":5381:5384   */\n      0x00\n        /* \"#utility.yul\":5417:5421   */\n      0x60\n        /* \"#utility.yul\":5412:5415   */\n      dup4\n        /* \"#utility.yul\":5408:5422   */\n      add\n        /* \"#utility.yul\":5502:5506   */\n      0x00\n        /* \"#utility.yul\":5495:5500   */\n      dup4\n        /* \"#utility.yul\":5491:5507   */\n      add\n        /* \"#utility.yul\":5485:5508   */\n      mload\n        /* \"#utility.yul\":5521:5584   */\n      tag_279\n        /* \"#utility.yul\":5578:5582   */\n      0x00\n        /* \"#utility.yul\":5573:5576   */\n      dup7\n        /* \"#utility.yul\":5569:5583   */\n      add\n        /* \"#utility.yul\":5555:5567   */\n      dup3\n        /* \"#utility.yul\":5521:5584   */\n      tag_280\n      jump\t// in\n    tag_279:\n        /* \"#utility.yul\":5432:5594   */\n      pop\n        /* \"#utility.yul\":5676:5680   */\n      0x20\n        /* \"#utility.yul\":5669:5674   */\n      dup4\n        /* \"#utility.yul\":5665:5681   */\n      add\n        /* \"#utility.yul\":5659:5682   */\n      mload\n        /* \"#utility.yul\":5729:5732   */\n      dup5\n        /* \"#utility.yul\":5723:5727   */\n      dup3\n        /* \"#utility.yul\":5719:5733   */\n      sub\n        /* \"#utility.yul\":5712:5716   */\n      0x20\n        /* \"#utility.yul\":5707:5710   */\n      dup7\n        /* \"#utility.yul\":5703:5717   */\n      add\n        /* \"#utility.yul\":5696:5734   */\n      mstore\n        /* \"#utility.yul\":5755:5828   */\n      tag_281\n        /* \"#utility.yul\":5823:5827   */\n      dup3\n        /* \"#utility.yul\":5809:5821   */\n      dup3\n        /* \"#utility.yul\":5755:5828   */\n      tag_251\n      jump\t// in\n    tag_281:\n        /* \"#utility.yul\":5747:5828   */\n      swap2\n      pop\n        /* \"#utility.yul\":5604:5839   */\n      pop\n        /* \"#utility.yul\":5922:5926   */\n      0x40\n        /* \"#utility.yul\":5915:5920   */\n      dup4\n        /* \"#utility.yul\":5911:5927   */\n      add\n        /* \"#utility.yul\":5905:5928   */\n      mload\n        /* \"#utility.yul\":5941:6004   */\n      tag_282\n        /* \"#utility.yul\":5998:6002   */\n      0x40\n        /* \"#utility.yul\":5993:5996   */\n      dup7\n        /* \"#utility.yul\":5989:6003   */\n      add\n        /* \"#utility.yul\":5975:5987   */\n      dup3\n        /* \"#utility.yul\":5941:6004   */\n      tag_280\n      jump\t// in\n    tag_282:\n        /* \"#utility.yul\":5849:6014   */\n      pop\n        /* \"#utility.yul\":6031:6035   */\n      dup1\n        /* \"#utility.yul\":6024:6035   */\n      swap2\n      pop\n        /* \"#utility.yul\":5386:6041   */\n      pop\n        /* \"#utility.yul\":5274:6041   */\n      swap3\n      swap2\n      pop\n      pop\n      jump\t// out\n        /* \"#utility.yul\":6109:6886   */\n    tag_283:\n        /* \"#utility.yul\":6226:6229   */\n      0x00\n        /* \"#utility.yul\":6262:6266   */\n      0x60\n        /* \"#utility.yul\":6257:6260   */\n      dup4\n        /* \"#utility.yul\":6253:6267   */\n      add\n        /* \"#utility.yul\":6347:6351   */\n      0x00\n        /* \"#utility.yul\":6340:6345   */\n      dup4\n        /* \"#utility.yul\":6336:6352   */\n      add\n        /* \"#utility.yul\":6330:6353   */\n      mload\n        /* \"#utility.yul\":6366:6429   */\n      tag_285\n        /* \"#utility.yul\":6423:6427   */\n      0x00\n        /* \"#utility.yul\":6418:6421   */\n      dup7\n        /* \"#utility.yul\":6414:6428   */\n      add\n        /* \"#utility.yul\":6400:6412   */\n      dup3\n        /* \"#utility.yul\":6366:6429   */\n      tag_280\n      jump\t// in\n    tag_285:\n        /* \"#utility.yul\":6277:6439   */\n      pop\n        /* \"#utility.yul\":6521:6525   */\n      0x20\n        /* \"#utility.yul\":6514:6519   */\n      dup4\n        /* \"#utility.yul\":6510:6526   */\n      add\n        /* \"#utility.yul\":6504:6527   */\n      mload\n        /* \"#utility.yul\":6574:6577   */\n      dup5\n        /* \"#utility.yul\":6568:6572   */\n      dup3\n        /* \"#utility.yul\":6564:6578   */\n      sub\n        /* \"#utility.yul\":6557:6561   */\n      0x20\n        /* \"#utility.yul\":6552:6555   */\n      dup7\n        /* \"#utility.yul\":6548:6562   */\n      add\n        /* \"#utility.yul\":6541:6579   */\n      mstore\n        /* \"#utility.yul\":6600:6673   */\n      tag_286\n        /* \"#utility.yul\":6668:6672   */\n      dup3\n        /* \"#utility.yul\":6654:6666   */\n      dup3\n        /* \"#utility.yul\":6600:6673   */\n      tag_251\n      jump\t// in\n    tag_286:\n        /* \"#utility.yul\":6592:6673   */\n      swap2\n      pop\n        /* \"#utility.yul\":6449:6684   */\n      pop\n        /* \"#utility.yul\":6767:6771   */\n      0x40\n        /* \"#utility.yul\":6760:6765   */\n      dup4\n        /* \"#utility.yul\":6756:6772   */\n      add\n        /* \"#utility.yul\":6750:6773   */\n      mload\n        /* \"#utility.yul\":6786:6849   */\n      tag_287\n        /* \"#utility.yul\":6843:6847   */\n      0x40\n        /* \"#utility.yul\":6838:6841   */\n      dup7\n        /* \"#utility.yul\":6834:6848   */\n      add\n        /* \"#utility.yul\":6820:6832   */\n      dup3\n        /* \"#utility.yul\":6786:6849   */\n      tag_280\n      jump\t// in\n    tag_287:\n        /* \"#utility.yul\":6694:6859   */\n      pop\n        /* \"#utility.yul\":6876:6880   */\n      dup1\n        /* \"#utility.yul\":6869:6880   */\n      swap2\n      pop\n        /* \"#utility.yul\":6231:6886   */\n      pop\n        /* \"#utility.yul\":6109:6886   */\n      swap3\n      swap2\n      pop\n      pop\n      jump\t// out\n        /* \"#utility.yul\":6892:7000   */\n    tag_280:\n        /* \"#utility.yul\":6969:6993   */\n      tag_289\n        /* \"#utility.yul\":6987:6992   */\n      dup2\n        /* \"#utility.yul\":6969:6993   */\n      tag_290\n      jump\t// in\n    tag_289:\n        /* \"#utility.yul\":6964:6967   */\n      dup3\n        /* \"#utility.yul\":6957:6994   */\n      mstore\n        /* \"#utility.yul\":6892:7000   */\n      pop\n      pop\n      jump\t// out\n        /* \"#utility.yul\":7006:7124   */\n    tag_291:\n        /* \"#utility.yul\":7093:7117   */\n      tag_293\n        /* \"#utility.yul\":7111:7116   */\n      dup2\n        /* \"#utility.yul\":7093:7117   */\n      tag_290\n      jump\t// in\n    tag_293:\n        /* \"#utility.yul\":7088:7091   */\n      dup3\n        /* \"#utility.yul\":7081:7118   */\n      mstore\n        /* \"#utility.yul\":7006:7124   */\n      pop\n      pop\n      jump\t// out\n        /* \"#utility.yul\":7130:7352   */\n    tag_62:\n        /* \"#utility.yul\":7223:7227   */\n      0x00\n        /* \"#utility.yul\":7261:7263   */\n      0x20\n        /* \"#utility.yul\":7250:7259   */\n      dup3\n        /* \"#utility.yul\":7246:7264   */\n      add\n        /* \"#utility.yul\":7238:7264   */\n      swap1\n      pop\n        /* \"#utility.yul\":7274:7345   */\n      tag_295\n        /* \"#utility.yul\":7342:7343   */\n      0x00\n        /* \"#utility.yul\":7331:7340   */\n      dup4\n        /* \"#utility.yul\":7327:7344   */\n      add\n        /* \"#utility.yul\":7318:7324   */\n      dup5\n        /* \"#utility.yul\":7274:7345   */\n      tag_225\n      jump\t// in\n    tag_295:\n        /* \"#utility.yul\":7130:7352   */\n      swap3\n      swap2\n      pop\n      pop\n      jump\t// out\n        /* \"#utility.yul\":7358:7827   */\n    tag_37:\n        /* \"#utility.yul\":7549:7553   */\n      0x00\n        /* \"#utility.yul\":7587:7589   */\n      0x20\n        /* \"#utility.yul\":7576:7585   */\n      dup3\n        /* \"#utility.yul\":7572:7590   */\n      add\n        /* \"#utility.yul\":7564:7590   */\n      swap1\n      pop\n        /* \"#utility.yul\":7636:7645   */\n      dup2\n        /* \"#utility.yul\":7630:7634   */\n      dup2\n        /* \"#utility.yul\":7626:7646   */\n      sub\n        /* \"#utility.yul\":7622:7623   */\n      0x00\n        /* \"#utility.yul\":7611:7620   */\n      dup4\n        /* \"#utility.yul\":7607:7624   */\n      add\n        /* \"#utility.yul\":7600:7647   */\n      mstore\n        /* \"#utility.yul\":7664:7820   */\n      tag_297\n        /* \"#utility.yul\":7815:7819   */\n      dup2\n        /* \"#utility.yul\":7806:7812   */\n      dup5\n        /* \"#utility.yul\":7664:7820   */\n      tag_229\n      jump\t// in\n    tag_297:\n        /* \"#utility.yul\":7656:7820   */\n      swap1\n      pop\n        /* \"#utility.yul\":7358:7827   */\n      swap3\n      swap2\n      pop\n      pop\n      jump\t// out\n        /* \"#utility.yul\":7833:8043   */\n    tag_42:\n        /* \"#utility.yul\":7920:7924   */\n      0x00\n        /* \"#utility.yul\":7958:7960   */\n      0x20\n        /* \"#utility.yul\":7947:7956   */\n      dup3\n        /* \"#utility.yul\":7943:7961   */\n      add\n        /* \"#utility.yul\":7935:7961   */\n      swap1\n      pop\n        /* \"#utility.yul\":7971:8036   */\n      tag_299\n        /* \"#utility.yul\":8033:8034   */\n      0x00\n        /* \"#utility.yul\":8022:8031   */\n      dup4\n        /* \"#utility.yul\":8018:8035   */\n      add\n        /* \"#utility.yul\":8009:8015   */\n      dup5\n        /* \"#utility.yul\":7971:8036   */\n      tag_243\n      jump\t// in\n    tag_299:\n        /* \"#utility.yul\":7833:8043   */\n      swap3\n      swap2\n      pop\n      pop\n      jump\t// out\n        /* \"#utility.yul\":8049:8689   */\n    tag_56:\n        /* \"#utility.yul\":8242:8246   */\n      0x00\n        /* \"#utility.yul\":8280:8283   */\n      0xa0\n        /* \"#utility.yul\":8269:8278   */\n      dup3\n        /* \"#utility.yul\":8265:8284   */\n      add\n        /* \"#utility.yul\":8257:8284   */\n      swap1\n      pop\n        /* \"#utility.yul\":8294:8359   */\n      tag_301\n        /* \"#utility.yul\":8356:8357   */\n      0x00\n        /* \"#utility.yul\":8345:8354   */\n      dup4\n        /* \"#utility.yul\":8341:8358   */\n      add\n        /* \"#utility.yul\":8332:8338   */\n      dup9\n        /* \"#utility.yul\":8294:8359   */\n      tag_243\n      jump\t// in\n    tag_301:\n        /* \"#utility.yul\":8369:8435   */\n      tag_302\n        /* \"#utility.yul\":8431:8433   */\n      0x20\n        /* \"#utility.yul\":8420:8429   */\n      dup4\n        /* \"#utility.yul\":8416:8434   */\n      add\n        /* \"#utility.yul\":8407:8413   */\n      dup8\n        /* \"#utility.yul\":8369:8435   */\n      tag_243\n      jump\t// in\n    tag_302:\n        /* \"#utility.yul\":8445:8517   */\n      tag_303\n        /* \"#utility.yul\":8513:8515   */\n      0x40\n        /* \"#utility.yul\":8502:8511   */\n      dup4\n        /* \"#utility.yul\":8498:8516   */\n      add\n        /* \"#utility.yul\":8489:8495   */\n      dup7\n        /* \"#utility.yul\":8445:8517   */\n      tag_291\n      jump\t// in\n    tag_303:\n        /* \"#utility.yul\":8527:8599   */\n      tag_304\n        /* \"#utility.yul\":8595:8597   */\n      0x60\n        /* \"#utility.yul\":8584:8593   */\n      dup4\n        /* \"#utility.yul\":8580:8598   */\n      add\n        /* \"#utility.yul\":8571:8577   */\n      dup6\n        /* \"#utility.yul\":8527:8599   */\n      tag_291\n      jump\t// in\n    tag_304:\n        /* \"#utility.yul\":8609:8682   */\n      tag_305\n        /* \"#utility.yul\":8677:8680   */\n      0x80\n        /* \"#utility.yul\":8666:8675   */\n      dup4\n        /* \"#utility.yul\":8662:8681   */\n      add\n        /* \"#utility.yul\":8653:8659   */\n      dup5\n        /* \"#utility.yul\":8609:8682   */\n      tag_291\n      jump\t// in\n    tag_305:\n        /* \"#utility.yul\":8049:8689   */\n      swap7\n      swap6\n      pop\n      pop\n      pop\n      pop\n      pop\n      pop\n      jump\t// out\n        /* \"#utility.yul\":8695:9125   */\n    tag_132:\n        /* \"#utility.yul\":8838:8842   */\n      0x00\n        /* \"#utility.yul\":8876:8878   */\n      0x60\n        /* \"#utility.yul\":8865:8874   */\n      dup3\n        /* \"#utility.yul\":8861:8879   */\n      add\n        /* \"#utility.yul\":8853:8879   */\n      swap1\n      pop\n        /* \"#utility.yul\":8889:8954   */\n      tag_307\n        /* \"#utility.yul\":8951:8952   */\n      0x00\n        /* \"#utility.yul\":8940:8949   */\n      dup4\n        /* \"#utility.yul\":8936:8953   */\n      add\n        /* \"#utility.yul\":8927:8933   */\n      dup7\n        /* \"#utility.yul\":8889:8954   */\n      tag_243\n      jump\t// in\n    tag_307:\n        /* \"#utility.yul\":8964:9036   */\n      tag_308\n        /* \"#utility.yul\":9032:9034   */\n      0x20\n        /* \"#utility.yul\":9021:9030   */\n      dup4\n        /* \"#utility.yul\":9017:9035   */\n      add\n        /* \"#utility.yul\":9008:9014   */\n      dup6\n        /* \"#utility.yul\":8964:9036   */\n      tag_291\n      jump\t// in\n    tag_308:\n        /* \"#utility.yul\":9046:9118   */\n      tag_309\n        /* \"#utility.yul\":9114:9116   */\n      0x40\n        /* \"#utility.yul\":9103:9112   */\n      dup4\n        /* \"#utility.yul\":9099:9117   */\n      add\n        /* \"#utility.yul\":9090:9096   */\n      dup5\n        /* \"#utility.yul\":9046:9118   */\n      tag_291\n      jump\t// in\n    tag_309:\n        /* \"#utility.yul\":8695:9125   */\n      swap5\n      swap4\n      pop\n      pop\n      pop\n      pop\n      jump\t// out\n        /* \"#utility.yul\":9131:9365   */\n    tag_76:\n        /* \"#utility.yul\":9230:9234   */\n      0x00\n        /* \"#utility.yul\":9268:9270   */\n      0x20\n        /* \"#utility.yul\":9257:9266   */\n      dup3\n        /* \"#utility.yul\":9253:9271   */\n      add\n        /* \"#utility.yul\":9245:9271   */\n      swap1\n      pop\n        /* \"#utility.yul\":9281:9358   */\n      tag_311\n        /* \"#utility.yul\":9355:9356   */\n      0x00\n        /* \"#utility.yul\":9344:9353   */\n      dup4\n        /* \"#utility.yul\":9340:9357   */\n      add\n        /* \"#utility.yul\":9331:9337   */\n      dup5\n        /* \"#utility.yul\":9281:9358   */\n      tag_247\n      jump\t// in\n    tag_311:\n        /* \"#utility.yul\":9131:9365   */\n      swap3\n      swap2\n      pop\n      pop\n      jump\t// out\n        /* \"#utility.yul\":9371:9790   */\n    tag_175:\n        /* \"#utility.yul\":9537:9541   */\n      0x00\n        /* \"#utility.yul\":9575:9577   */\n      0x20\n        /* \"#utility.yul\":9564:9573   */\n      dup3\n        /* \"#utility.yul\":9560:9578   */\n      add\n        /* \"#utility.yul\":9552:9578   */\n      swap1\n      pop\n        /* \"#utility.yul\":9624:9633   */\n      dup2\n        /* \"#utility.yul\":9618:9622   */\n      dup2\n        /* \"#utility.yul\":9614:9634   */\n      sub\n        /* \"#utility.yul\":9610:9611   */\n      0x00\n        /* \"#utility.yul\":9599:9608   */\n      dup4\n        /* \"#utility.yul\":9595:9612   */\n      add\n        /* \"#utility.yul\":9588:9635   */\n      mstore\n        /* \"#utility.yul\":9652:9783   */\n      tag_313\n        /* \"#utility.yul\":9778:9782   */\n      dup2\n        /* \"#utility.yul\":9652:9783   */\n      tag_268\n      jump\t// in\n    tag_313:\n        /* \"#utility.yul\":9644:9783   */\n      swap1\n      pop\n        /* \"#utility.yul\":9371:9790   */\n      swap2\n      swap1\n      pop\n      jump\t// out\n        /* \"#utility.yul\":9796:10215   */\n    tag_171:\n        /* \"#utility.yul\":9962:9966   */\n      0x00\n        /* \"#utility.yul\":10000:10002   */\n      0x20\n        /* \"#utility.yul\":9989:9998   */\n      dup3\n        /* \"#utility.yul\":9985:10003   */\n      add\n        /* \"#utility.yul\":9977:10003   */\n      swap1\n      pop\n        /* \"#utility.yul\":10049:10058   */\n      dup2\n        /* \"#utility.yul\":10043:10047   */\n      dup2\n        /* \"#utility.yul\":10039:10059   */\n      sub\n        /* \"#utility.yul\":10035:10036   */\n      0x00\n        /* \"#utility.yul\":10024:10033   */\n      dup4\n        /* \"#utility.yul\":10020:10037   */\n      add\n        /* \"#utility.yul\":10013:10060   */\n      mstore\n        /* \"#utility.yul\":10077:10208   */\n      tag_315\n        /* \"#utility.yul\":10203:10207   */\n      dup2\n        /* \"#utility.yul\":10077:10208   */\n      tag_273\n      jump\t// in\n    tag_315:\n        /* \"#utility.yul\":10069:10208   */\n      swap1\n      pop\n        /* \"#utility.yul\":9796:10215   */\n      swap2\n      swap1\n      pop\n      jump\t// out\n        /* \"#utility.yul\":10221:10590   */\n    tag_31:\n        /* \"#utility.yul\":10362:10366   */\n      0x00\n        /* \"#utility.yul\":10400:10402   */\n      0x20\n        /* \"#utility.yul\":10389:10398   */\n      dup3\n        /* \"#utility.yul\":10385:10403   */\n      add\n        /* \"#utility.yul\":10377:10403   */\n      swap1\n      pop\n        /* \"#utility.yul\":10449:10458   */\n      dup2\n        /* \"#utility.yul\":10443:10447   */\n      dup2\n        /* \"#utility.yul\":10439:10459   */\n      sub\n        /* \"#utility.yul\":10435:10436   */\n      0x00\n        /* \"#utility.yul\":10424:10433   */\n      dup4\n        /* \"#utility.yul\":10420:10437   */\n      add\n        /* \"#utility.yul\":10413:10460   */\n      mstore\n        /* \"#utility.yul\":10477:10583   */\n      tag_317\n        /* \"#utility.yul\":10578:10582   */\n      dup2\n        /* \"#utility.yul\":10569:10575   */\n      dup5\n        /* \"#utility.yul\":10477:10583   */\n      tag_283\n      jump\t// in\n    tag_317:\n        /* \"#utility.yul\":10469:10583   */\n      swap1\n      pop\n        /* \"#utility.yul\":10221:10590   */\n      swap3\n      swap2\n      pop\n      pop\n      jump\t// out\n        /* \"#utility.yul\":10596:10818   */\n    tag_25:\n        /* \"#utility.yul\":10689:10693   */\n      0x00\n        /* \"#utility.yul\":10727:10729   */\n      0x20\n        /* \"#utility.yul\":10716:10725   */\n      dup3\n        /* \"#utility.yul\":10712:10730   */\n      add\n        /* \"#utility.yul\":10704:10730   */\n      swap1\n      pop\n        /* \"#utility.yul\":10740:10811   */\n      tag_319\n        /* \"#utility.yul\":10808:10809   */\n      0x00\n        /* \"#utility.yul\":10797:10806   */\n      dup4\n        /* \"#utility.yul\":10793:10810   */\n      add\n        /* \"#utility.yul\":10784:10790   */\n      dup5\n        /* \"#utility.yul\":10740:10811   */\n      tag_291\n      jump\t// in\n    tag_319:\n        /* \"#utility.yul\":10596:10818   */\n      swap3\n      swap2\n      pop\n      pop\n      jump\t// out\n        /* \"#utility.yul\":10824:11357   */\n    tag_50:\n        /* \"#utility.yul\":10993:10997   */\n      0x00\n        /* \"#utility.yul\":11031:11033   */\n      0x60\n        /* \"#utility.yul\":11020:11029   */\n      dup3\n        /* \"#utility.yul\":11016:11034   */\n      add\n        /* \"#utility.yul\":11008:11034   */\n      swap1\n      pop\n        /* \"#utility.yul\":11044:11115   */\n      tag_321\n        /* \"#utility.yul\":11112:11113   */\n      0x00\n        /* \"#utility.yul\":11101:11110   */\n      dup4\n        /* \"#utility.yul\":11097:11114   */\n      add\n        /* \"#utility.yul\":11088:11094   */\n      dup7\n        /* \"#utility.yul\":11044:11115   */\n      tag_291\n      jump\t// in\n    tag_321:\n        /* \"#utility.yul\":11162:11171   */\n      dup2\n        /* \"#utility.yul\":11156:11160   */\n      dup2\n        /* \"#utility.yul\":11152:11172   */\n      sub\n        /* \"#utility.yul\":11147:11149   */\n      0x20\n        /* \"#utility.yul\":11136:11145   */\n      dup4\n        /* \"#utility.yul\":11132:11150   */\n      add\n        /* \"#utility.yul\":11125:11173   */\n      mstore\n        /* \"#utility.yul\":11190:11268   */\n      tag_322\n        /* \"#utility.yul\":11263:11267   */\n      dup2\n        /* \"#utility.yul\":11254:11260   */\n      dup6\n        /* \"#utility.yul\":11190:11268   */\n      tag_261\n      jump\t// in\n    tag_322:\n        /* \"#utility.yul\":11182:11268   */\n      swap1\n      pop\n        /* \"#utility.yul\":11278:11350   */\n      tag_323\n        /* \"#utility.yul\":11346:11348   */\n      0x40\n        /* \"#utility.yul\":11335:11344   */\n      dup4\n        /* \"#utility.yul\":11331:11349   */\n      add\n        /* \"#utility.yul\":11322:11328   */\n      dup5\n        /* \"#utility.yul\":11278:11350   */\n      tag_291\n      jump\t// in\n    tag_323:\n        /* \"#utility.yul\":10824:11357   */\n      swap5\n      swap4\n      pop\n      pop\n      pop\n      pop\n      jump\t// out\n        /* \"#utility.yul\":11363:12007   */\n    tag_87:\n        /* \"#utility.yul\":11560:11564   */\n      0x00\n        /* \"#utility.yul\":11598:11601   */\n      0x80\n        /* \"#utility.yul\":11587:11596   */\n      dup3\n        /* \"#utility.yul\":11583:11602   */\n      add\n        /* \"#utility.yul\":11575:11602   */\n      swap1\n      pop\n        /* \"#utility.yul\":11612:11683   */\n      tag_325\n        /* \"#utility.yul\":11680:11681   */\n      0x00\n        /* \"#utility.yul\":11669:11678   */\n      dup4\n        /* \"#utility.yul\":11665:11682   */\n      add\n        /* \"#utility.yul\":11656:11662   */\n      dup8\n        /* \"#utility.yul\":11612:11683   */\n      tag_291\n      jump\t// in\n    tag_325:\n        /* \"#utility.yul\":11730:11739   */\n      dup2\n        /* \"#utility.yul\":11724:11728   */\n      dup2\n        /* \"#utility.yul\":11720:11740   */\n      sub\n        /* \"#utility.yul\":11715:11717   */\n      0x20\n        /* \"#utility.yul\":11704:11713   */\n      dup4\n        /* \"#utility.yul\":11700:11718   */\n      add\n        /* \"#utility.yul\":11693:11741   */\n      mstore\n        /* \"#utility.yul\":11758:11836   */\n      tag_326\n        /* \"#utility.yul\":11831:11835   */\n      dup2\n        /* \"#utility.yul\":11822:11828   */\n      dup7\n        /* \"#utility.yul\":11758:11836   */\n      tag_261\n      jump\t// in\n    tag_326:\n        /* \"#utility.yul\":11750:11836   */\n      swap1\n      pop\n        /* \"#utility.yul\":11846:11918   */\n      tag_327\n        /* \"#utility.yul\":11914:11916   */\n      0x40\n        /* \"#utility.yul\":11903:11912   */\n      dup4\n        /* \"#utility.yul\":11899:11917   */\n      add\n        /* \"#utility.yul\":11890:11896   */\n      dup6\n        /* \"#utility.yul\":11846:11918   */\n      tag_291\n      jump\t// in\n    tag_327:\n        /* \"#utility.yul\":11928:12000   */\n      tag_328\n        /* \"#utility.yul\":11996:11998   */\n      0x60\n        /* \"#utility.yul\":11985:11994   */\n      dup4\n        /* \"#utility.yul\":11981:11999   */\n      add\n        /* \"#utility.yul\":11972:11978   */\n      dup5\n        /* \"#utility.yul\":11928:12000   */\n      tag_291\n      jump\t// in\n    tag_328:\n        /* \"#utility.yul\":11363:12007   */\n      swap6\n      swap5\n      pop\n      pop\n      pop\n      pop\n      pop\n      jump\t// out\n        /* \"#utility.yul\":12094:12250   */\n    tag_236:\n        /* \"#utility.yul\":12185:12189   */\n      0x00\n        /* \"#utility.yul\":12208:12211   */\n      dup2\n        /* \"#utility.yul\":12200:12211   */\n      swap1\n      pop\n        /* \"#utility.yul\":12238:12242   */\n      0x20\n        /* \"#utility.yul\":12233:12236   */\n      dup3\n        /* \"#utility.yul\":12229:12243   */\n      add\n        /* \"#utility.yul\":12221:12243   */\n      swap1\n      pop\n        /* \"#utility.yul\":12094:12250   */\n      swap2\n      swap1\n      pop\n      jump\t// out\n        /* \"#utility.yul\":12256:12394   */\n    tag_232:\n        /* \"#utility.yul\":12347:12353   */\n      0x00\n        /* \"#utility.yul\":12381:12386   */\n      dup2\n        /* \"#utility.yul\":12375:12387   */\n      mload\n        /* \"#utility.yul\":12365:12387   */\n      swap1\n      pop\n        /* \"#utility.yul\":12256:12394   */\n      swap2\n      swap1\n      pop\n      jump\t// out\n        /* \"#utility.yul\":12400:12499   */\n    tag_254:\n        /* \"#utility.yul\":12452:12458   */\n      0x00\n        /* \"#utility.yul\":12486:12491   */\n      dup2\n        /* \"#utility.yul\":12480:12492   */\n      mload\n        /* \"#utility.yul\":12470:12492   */\n      swap1\n      pop\n        /* \"#utility.yul\":12400:12499   */\n      swap2\n      swap1\n      pop\n      jump\t// out\n        /* \"#utility.yul\":12505:12642   */\n    tag_242:\n        /* \"#utility.yul\":12599:12603   */\n      0x00\n        /* \"#utility.yul\":12631:12635   */\n      0x20\n        /* \"#utility.yul\":12626:12629   */\n      dup3\n        /* \"#utility.yul\":12622:12636   */\n      add\n        /* \"#utility.yul\":12614:12636   */\n      swap1\n      pop\n        /* \"#utility.yul\":12505:12642   */\n      swap2\n      swap1\n      pop\n      jump\t// out\n        /* \"#utility.yul\":12648:12856   */\n    tag_234:\n        /* \"#utility.yul\":12771:12782   */\n      0x00\n        /* \"#utility.yul\":12805:12811   */\n      dup3\n        /* \"#utility.yul\":12800:12803   */\n      dup3\n        /* \"#utility.yul\":12793:12812   */\n      mstore\n        /* \"#utility.yul\":12845:12849   */\n      0x20\n        /* \"#utility.yul\":12840:12843   */\n      dup3\n        /* \"#utility.yul\":12836:12850   */\n      add\n        /* \"#utility.yul\":12821:12850   */\n      swap1\n      pop\n        /* \"#utility.yul\":12648:12856   */\n      swap3\n      swap2\n      pop\n      pop\n      jump\t// out\n        /* \"#utility.yul\":12862:13021   */\n    tag_256:\n        /* \"#utility.yul\":12936:12947   */\n      0x00\n        /* \"#utility.yul\":12970:12976   */\n      dup3\n        /* \"#utility.yul\":12965:12968   */\n      dup3\n        /* \"#utility.yul\":12958:12977   */\n      mstore\n        /* \"#utility.yul\":13010:13014   */\n      0x20\n        /* \"#utility.yul\":13005:13008   */\n      dup3\n        /* \"#utility.yul\":13001:13015   */\n      add\n        /* \"#utility.yul\":12986:13015   */\n      swap1\n      pop\n        /* \"#utility.yul\":12862:13021   */\n      swap3\n      swap2\n      pop\n      pop\n      jump\t// out\n        /* \"#utility.yul\":13027:13196   */\n    tag_265:\n        /* \"#utility.yul\":13111:13122   */\n      0x00\n        /* \"#utility.yul\":13145:13151   */\n      dup3\n        /* \"#utility.yul\":13140:13143   */\n      dup3\n        /* \"#utility.yul\":13133:13152   */\n      mstore\n        /* \"#utility.yul\":13185:13189   */\n      0x20\n        /* \"#utility.yul\":13180:13183   */\n      dup3\n        /* \"#utility.yul\":13176:13190   */\n      add\n        /* \"#utility.yul\":13161:13190   */\n      swap1\n      pop\n        /* \"#utility.yul\":13027:13196   */\n      swap3\n      swap2\n      pop\n      pop\n      jump\t// out\n        /* \"#utility.yul\":13202:13298   */\n    tag_228:\n        /* \"#utility.yul\":13239:13246   */\n      0x00\n        /* \"#utility.yul\":13268:13292   */\n      tag_339\n        /* \"#utility.yul\":13286:13291   */\n      dup3\n        /* \"#utility.yul\":13268:13292   */\n      tag_340\n      jump\t// in\n    tag_339:\n        /* \"#utility.yul\":13257:13292   */\n      swap1\n      pop\n        /* \"#utility.yul\":13202:13298   */\n      swap2\n      swap1\n      pop\n      jump\t// out\n        /* \"#utility.yul\":13304:13394   */\n    tag_246:\n        /* \"#utility.yul\":13338:13345   */\n      0x00\n        /* \"#utility.yul\":13381:13386   */\n      dup2\n        /* \"#utility.yul\":13374:13387   */\n      iszero\n        /* \"#utility.yul\":13367:13388   */\n      iszero\n        /* \"#utility.yul\":13356:13388   */\n      swap1\n      pop\n        /* \"#utility.yul\":13304:13394   */\n      swap2\n      swap1\n      pop\n      jump\t// out\n        /* \"#utility.yul\":13400:13527   */\n    tag_342:\n        /* \"#utility.yul\":13445:13452   */\n      0x00\n        /* \"#utility.yul\":13474:13479   */\n      dup2\n        /* \"#utility.yul\":13463:13479   */\n      swap1\n      pop\n        /* \"#utility.yul\":13480:13521   */\n      tag_344\n        /* \"#utility.yul\":13515:13520   */\n      dup3\n        /* \"#utility.yul\":13480:13521   */\n      tag_345\n      jump\t// in\n    tag_344:\n        /* \"#utility.yul\":13400:13527   */\n      swap2\n      swap1\n      pop\n      jump\t// out\n        /* \"#utility.yul\":13533:13659   */\n    tag_340:\n        /* \"#utility.yul\":13570:13577   */\n      0x00\n        /* \"#utility.yul\":13610:13652   */\n      0xffffffffffffffffffffffffffffffffffffffff\n        /* \"#utility.yul\":13603:13608   */\n      dup3\n        /* \"#utility.yul\":13599:13653   */\n      and\n        /* \"#utility.yul\":13588:13653   */\n      swap1\n      pop\n        /* \"#utility.yul\":13533:13659   */\n      swap2\n      swap1\n      pop\n      jump\t// out\n        /* \"#utility.yul\":13665:13742   */\n    tag_290:\n        /* \"#utility.yul\":13702:13709   */\n      0x00\n        /* \"#utility.yul\":13731:13736   */\n      dup2\n        /* \"#utility.yul\":13720:13736   */\n      swap1\n      pop\n        /* \"#utility.yul\":13665:13742   */\n      swap2\n      swap1\n      pop\n      jump\t// out\n        /* \"#utility.yul\":13748:13875   */\n    tag_250:\n        /* \"#utility.yul\":13804:13813   */\n      0x00\n        /* \"#utility.yul\":13837:13869   */\n      tag_349\n        /* \"#utility.yul\":13863:13868   */\n      dup3\n        /* \"#utility.yul\":13837:13869   */\n      tag_342\n      jump\t// in\n    tag_349:\n        /* \"#utility.yul\":13824:13869   */\n      swap1\n      pop\n        /* \"#utility.yul\":13748:13875   */\n      swap2\n      swap1\n      pop\n      jump\t// out\n        /* \"#utility.yul\":13881:14188   */\n    tag_258:\n        /* \"#utility.yul\":13949:13950   */\n      0x00\n        /* \"#utility.yul\":13959:14072   */\n    tag_351:\n        /* \"#utility.yul\":13973:13979   */\n      dup4\n        /* \"#utility.yul\":13970:13971   */\n      dup2\n        /* \"#utility.yul\":13967:13980   */\n      lt\n        /* \"#utility.yul\":13959:14072   */\n      iszero\n      tag_353\n      jumpi\n        /* \"#utility.yul\":14058:14059   */\n      dup1\n        /* \"#utility.yul\":14053:14056   */\n      dup3\n        /* \"#utility.yul\":14049:14060   */\n      add\n        /* \"#utility.yul\":14043:14061   */\n      mload\n        /* \"#utility.yul\":14039:14040   */\n      dup2\n        /* \"#utility.yul\":14034:14037   */\n      dup5\n        /* \"#utility.yul\":14030:14041   */\n      add\n        /* \"#utility.yul\":14023:14062   */\n      mstore\n        /* \"#utility.yul\":13995:13997   */\n      0x20\n        /* \"#utility.yul\":13992:13993   */\n      dup2\n        /* \"#utility.yul\":13988:13998   */\n      add\n        /* \"#utility.yul\":13983:13998   */\n      swap1\n      pop\n        /* \"#utility.yul\":13959:14072   */\n      jump(tag_351)\n    tag_353:\n        /* \"#utility.yul\":14090:14096   */\n      dup4\n        /* \"#utility.yul\":14087:14088   */\n      dup2\n        /* \"#utility.yul\":14084:14097   */\n      gt\n        /* \"#utility.yul\":14081:14182   */\n      iszero\n      tag_354\n      jumpi\n        /* \"#utility.yul\":14170:14171   */\n      0x00\n        /* \"#utility.yul\":14161:14167   */\n      dup5\n        /* \"#utility.yul\":14156:14159   */\n      dup5\n        /* \"#utility.yul\":14152:14168   */\n      add\n        /* \"#utility.yul\":14145:14172   */\n      mstore\n        /* \"#utility.yul\":14081:14182   */\n    tag_354:\n        /* \"#utility.yul\":13930:14188   */\n      pop\n        /* \"#utility.yul\":13881:14188   */\n      pop\n      pop\n      pop\n      jump\t// out\n        /* \"#utility.yul\":14194:14514   */\n    tag_92:\n        /* \"#utility.yul\":14238:14244   */\n      0x00\n        /* \"#utility.yul\":14275:14276   */\n      0x02\n        /* \"#utility.yul\":14269:14273   */\n      dup3\n        /* \"#utility.yul\":14265:14277   */\n      div\n        /* \"#utility.yul\":14255:14277   */\n      swap1\n      pop\n        /* \"#utility.yul\":14322:14323   */\n      0x01\n        /* \"#utility.yul\":14316:14320   */\n      dup3\n        /* \"#utility.yul\":14312:14324   */\n      and\n        /* \"#utility.yul\":14343:14361   */\n      dup1\n        /* \"#utility.yul\":14333:14414   */\n      tag_356\n      jumpi\n        /* \"#utility.yul\":14399:14403   */\n      0x7f\n        /* \"#utility.yul\":14391:14397   */\n      dup3\n        /* \"#utility.yul\":14387:14404   */\n      and\n        /* \"#utility.yul\":14377:14404   */\n      swap2\n      pop\n        /* \"#utility.yul\":14333:14414   */\n    tag_356:\n        /* \"#utility.yul\":14461:14463   */\n      0x20\n        /* \"#utility.yul\":14453:14459   */\n      dup3\n        /* \"#utility.yul\":14450:14464   */\n      lt\n        /* \"#utility.yul\":14430:14448   */\n      dup2\n        /* \"#utility.yul\":14427:14465   */\n      eq\n        /* \"#utility.yul\":14424:14508   */\n      iszero\n      tag_357\n      jumpi\n        /* \"#utility.yul\":14480:14498   */\n      tag_358\n      tag_359\n      jump\t// in\n    tag_358:\n        /* \"#utility.yul\":14424:14508   */\n    tag_357:\n        /* \"#utility.yul\":14245:14514   */\n      pop\n        /* \"#utility.yul\":14194:14514   */\n      swap2\n      swap1\n      pop\n      jump\t// out\n        /* \"#utility.yul\":14520:14753   */\n    tag_116:\n        /* \"#utility.yul\":14559:14562   */\n      0x00\n        /* \"#utility.yul\":14582:14606   */\n      tag_361\n        /* \"#utility.yul\":14600:14605   */\n      dup3\n        /* \"#utility.yul\":14582:14606   */\n      tag_290\n      jump\t// in\n    tag_361:\n        /* \"#utility.yul\":14573:14606   */\n      swap2\n      pop\n        /* \"#utility.yul\":14628:14694   */\n      0xffffffffffffffffffffffffffffffffffffffffffffffffffffffffffffffff\n        /* \"#utility.yul\":14621:14626   */\n      dup3\n        /* \"#utility.yul\":14618:14695   */\n      eq\n        /* \"#utility.yul\":14615:14718   */\n      iszero\n      tag_362\n      jumpi\n        /* \"#utility.yul\":14698:14716   */\n      tag_363\n      tag_364\n      jump\t// in\n    tag_363:\n        /* \"#utility.yul\":14615:14718   */\n    tag_362:\n        /* \"#utility.yul\":14745:14746   */\n      0x01\n        /* \"#utility.yul\":14738:14743   */\n      dup3\n        /* \"#utility.yul\":14734:14747   */\n      add\n        /* \"#utility.yul\":14727:14747   */\n      swap1\n      pop\n        /* \"#utility.yul\":14520:14753   */\n      swap2\n      swap1\n      pop\n      jump\t// out\n        /* \"#utility.yul\":14759:14939   */\n    tag_364:\n        /* \"#utility.yul\":14807:14884   */\n      0x4e487b7100000000000000000000000000000000000000000000000000000000\n        /* \"#utility.yul\":14804:14805   */\n      0x00\n        /* \"#utility.yul\":14797:14885   */\n      mstore\n        /* \"#utility.yul\":14904:14908   */\n      0x11\n        /* \"#utility.yul\":14901:14902   */\n      0x04\n        /* \"#utility.yul\":14894:14909   */\n      mstore\n        /* \"#utility.yul\":14928:14932   */\n      0x24\n        /* \"#utility.yul\":14925:14926   */\n      0x00\n        /* \"#utility.yul\":14918:14933   */\n      revert\n        /* \"#utility.yul\":14945:15125   */\n    tag_120:\n        /* \"#utility.yul\":14993:15070   */\n      0x4e487b7100000000000000000000000000000000000000000000000000000000\n        /* \"#utility.yul\":14990:14991   */\n      0x00\n        /* \"#utility.yul\":14983:15071   */\n      mstore\n        /* \"#utility.yul\":15090:15094   */\n      0x21\n        /* \"#utility.yul\":15087:15088   */\n      0x04\n        /* \"#utility.yul\":15080:15095   */\n      mstore\n        /* \"#utility.yul\":15114:15118   */\n      0x24\n        /* \"#utility.yul\":15111:15112   */\n      0x00\n        /* \"#utility.yul\":15104:15119   */\n      revert\n        /* \"#utility.yul\":15131:15311   */\n    tag_359:\n        /* \"#utility.yul\":15179:15256   */\n      0x4e487b7100000000000000000000000000000000000000000000000000000000\n        /* \"#utility.yul\":15176:15177   */\n      0x00\n        /* \"#utility.yul\":15169:15257   */\n      mstore\n        /* \"#utility.yul\":15276:15280   */\n      0x22\n        /* \"#utility.yul\":15273:15274   */\n      0x04\n        /* \"#utility.yul\":15266:15281   */\n      mstore\n        /* \"#utility.yul\":15300:15304   */\n      0x24\n        /* \"#utility.yul\":15297:15298   */\n      0x00\n        /* \"#utility.yul\":15290:15305   */\n      revert\n        /* \"#utility.yul\":15317:15497   */\n    tag_114:\n        /* \"#utility.yul\":15365:15442   */\n      0x4e487b7100000000000000000000000000000000000000000000000000000000\n        /* \"#utility.yul\":15362:15363   */\n      0x00\n        /* \"#utility.yul\":15355:15443   */\n      mstore\n        /* \"#utility.yul\":15462:15466   */\n      0x32\n        /* \"#utility.yul\":15459:15460   */\n      0x04\n        /* \"#utility.yul\":15452:15467   */\n      mstore\n        /* \"#utility.yul\":15486:15490   */\n      0x24\n        /* \"#utility.yul\":15483:15484   */\n      0x00\n        /* \"#utility.yul\":15476:15491   */\n      revert\n        /* \"#utility.yul\":15503:15683   */\n    tag_100:\n        /* \"#utility.yul\":15551:15628   */\n      0x4e487b7100000000000000000000000000000000000000000000000000000000\n        /* \"#utility.yul\":15548:15549   */\n      0x00\n        /* \"#utility.yul\":15541:15629   */\n      mstore\n        /* \"#utility.yul\":15648:15652   */\n      0x41\n        /* \"#utility.yul\":15645:15646   */\n      0x04\n        /* \"#utility.yul\":15638:15653   */\n      mstore\n        /* \"#utility.yul\":15672:15676   */\n      0x24\n        /* \"#utility.yul\":15669:15670   */\n      0x00\n        /* \"#utility.yul\":15662:15677   */\n      revert\n        /* \"#utility.yul\":15812:15929   */\n    tag_205:\n        /* \"#utility.yul\":15921:15922   */\n      0x00\n        /* \"#utility.yul\":15918:15919   */\n      dup1\n        /* \"#utility.yul\":15911:15923   */\n      revert\n        /* \"#utility.yul\":15935:16037   */\n    tag_260:\n        /* \"#utility.yul\":15976:15982   */\n      0x00\n        /* \"#utility.yul\":16027:16029   */\n      0x1f\n        /* \"#utility.yul\":16023:16030   */\n      not\n        /* \"#utility.yul\":16018:16020   */\n      0x1f\n        /* \"#utility.yul\":16011:16016   */\n      dup4\n        /* \"#utility.yul\":16007:16021   */\n      add\n        /* \"#utility.yul\":16003:16031   */\n      and\n        /* \"#utility.yul\":15993:16031   */\n      swap1\n      pop\n        /* \"#utility.yul\":15935:16037   */\n      swap2\n      swap1\n      pop\n      jump\t// out\n        /* \"#utility.yul\":16043:16272   */\n    tag_272:\n        /* \"#utility.yul\":16183:16217   */\n      0x506c656173652070726f7669646520612076616c696420706f6c6c696e672073\n        /* \"#utility.yul\":16179:16180   */\n      0x00\n        /* \"#utility.yul\":16171:16177   */\n      dup3\n        /* \"#utility.yul\":16167:16181   */\n      add\n        /* \"#utility.yul\":16160:16218   */\n      mstore\n        /* \"#utility.yul\":16252:16264   */\n      0x746174696f6e2049442e00000000000000000000000000000000000000000000\n        /* \"#utility.yul\":16247:16249   */\n      0x20\n        /* \"#utility.yul\":16239:16245   */\n      dup3\n        /* \"#utility.yul\":16235:16250   */\n      add\n        /* \"#utility.yul\":16228:16265   */\n      mstore\n        /* \"#utility.yul\":16043:16272   */\n      pop\n      jump\t// out\n        /* \"#utility.yul\":16278:16456   */\n    tag_277:\n        /* \"#utility.yul\":16418:16448   */\n      0x566f74657220697320616c726561647920726567697374657265642e00000000\n        /* \"#utility.yul\":16414:16415   */\n      0x00\n        /* \"#utility.yul\":16406:16412   */\n      dup3\n        /* \"#utility.yul\":16402:16416   */\n      add\n        /* \"#utility.yul\":16395:16449   */\n      mstore\n        /* \"#utility.yul\":16278:16456   */\n      pop\n      jump\t// out\n        /* \"#utility.yul\":16462:16575   */\n    tag_345:\n        /* \"#utility.yul\":16543:16544   */\n      0x03\n        /* \"#utility.yul\":16536:16541   */\n      dup2\n        /* \"#utility.yul\":16533:16545   */\n      lt\n        /* \"#utility.yul\":16523:16569   */\n      tag_377\n      jumpi\n        /* \"#utility.yul\":16549:16567   */\n      tag_378\n      tag_120\n      jump\t// in\n    tag_378:\n        /* \"#utility.yul\":16523:16569   */\n    tag_377:\n        /* \"#utility.yul\":16462:16575   */\n      pop\n      jump\t// out\n        /* \"#utility.yul\":16581:16703   */\n    tag_197:\n        /* \"#utility.yul\":16654:16678   */\n      tag_380\n        /* \"#utility.yul\":16672:16677   */\n      dup2\n        /* \"#utility.yul\":16654:16678   */\n      tag_228\n      jump\t// in\n    tag_380:\n        /* \"#utility.yul\":16647:16652   */\n      dup2\n        /* \"#utility.yul\":16644:16679   */\n      eq\n        /* \"#utility.yul\":16634:16697   */\n      tag_381\n      jumpi\n        /* \"#utility.yul\":16693:16694   */\n      0x00\n        /* \"#utility.yul\":16690:16691   */\n      dup1\n        /* \"#utility.yul\":16683:16695   */\n      revert\n        /* \"#utility.yul\":16634:16697   */\n    tag_381:\n        /* \"#utility.yul\":16581:16703   */\n      pop\n      jump\t// out\n        /* \"#utility.yul\":16709:16831   */\n    tag_201:\n        /* \"#utility.yul\":16782:16806   */\n      tag_383\n        /* \"#utility.yul\":16800:16805   */\n      dup2\n        /* \"#utility.yul\":16782:16806   */\n      tag_290\n      jump\t// in\n    tag_383:\n        /* \"#utility.yul\":16775:16780   */\n      dup2\n        /* \"#utility.yul\":16772:16807   */\n      eq\n        /* \"#utility.yul\":16762:16825   */\n      tag_384\n      jumpi\n        /* \"#utility.yul\":16821:16822   */\n      0x00\n        /* \"#utility.yul\":16818:16819   */\n      dup1\n        /* \"#utility.yul\":16811:16823   */\n      revert\n        /* \"#utility.yul\":16762:16825   */\n    tag_384:\n        /* \"#utility.yul\":16709:16831   */\n      pop\n      jump\t// out\n\n    auxdata: 0xa264697066735822122091a13d19fcf7811a60bfd64a14da6ebf3d41317932b3b74a936889d6a1fd5bac64736f6c63430008070033\n}\n",
				"bytecode": {
					"linkReferences": {},
					"object": "60806040523480156200001157600080fd5b50336000806101000a81548173ffffffffffffffffffffffffffffffffffffffff021916908373ffffffffffffffffffffffffffffffffffffffff16021790555062000062620000a660201b60201c565b620000726200036460201b60201c565b6000600a60006101000a81548160ff021916908360028111156200009b576200009a620007cd565b5b02179055506200082b565b620000ec6040518060400160405280601181526020017f506f6c6c696e672053746174696f6e2031000000000000000000000000000000815250620004c460201b60201c565b620001326040518060400160405280601181526020017f506f6c6c696e672053746174696f6e2032000000000000000000000000000000815250620004c460201b60201c565b620001786040518060400160405280601181526020017f506f6c6c696e672053746174696f6e2033000000000000000000000000000000815250620004c460201b60201c565b620001be6040518060400160405280601181526020017f506f6c6c696e672053746174696f6e2034000000000000000000000000000000815250620004c460201b60201c565b620002046040518060400160405280601181526020017f506f6c6c696e672053746174696f6e2035000000000000000000000000000000815250620004c460201b60201c565b6200024a6040518060400160405280601181526020017f506f6c6c696e672053746174696f6e2036000000000000000000000000000000815250620004c460201b60201c565b620002906040518060400160405280601181526020017f506f6c6c696e672053746174696f6e2037000000000000000000000000000000815250620004c460201b60201c565b620002d66040518060400160405280601181526020017f506f6c6c696e672053746174696f6e2038000000000000000000000000000000815250620004c460201b60201c565b6200031c6040518060400160405280601181526020017f506f6c6c696e672053746174696f6e2039000000000000000000000000000000815250620004c460201b60201c565b620003626040518060400160405280601281526020017f506f6c6c696e672053746174696f6e2031300000000000000000000000000000815250620004c460201b60201c565b565b620003aa6040518060400160405280600b81526020017f43616e64696461746520310000000000000000000000000000000000000000008152506200053560201b60201c565b620003f06040518060400160405280600b81526020017f43616e64696461746520320000000000000000000000000000000000000000008152506200053560201b60201c565b620004366040518060400160405280600b81526020017f43616e64696461746520330000000000000000000000000000000000000000008152506200053560201b60201c565b6200047c6040518060400160405280600b81526020017f43616e64696461746520340000000000000000000000000000000000000000008152506200053560201b60201c565b620004c26040518060400160405280600b81526020017f43616e64696461746520350000000000000000000000000000000000000000008152506200053560201b60201c565b565b60026000815480929190620004d99062000750565b9190505550600060076000600254815260200190815260200160002090506002548160000181905550818160010190805190602001906200051c92919062000660565b5060008160020181905550600081600301819055505050565b600160008154809291906200054a9062000750565b9190505550604051806060016040528060015481526020018281526020016000815250600660006001548152602001908152602001600020600082015181600001556020820151816001019080519060200190620005aa92919062000660565b50604082015181600201559050506000600190505b60025481116200065c5760405180606001604052806001548152602001838152602001600081525060076000838152602001908152602001600020600401600060015481526020019081526020016000206000820151816000015560208201518160010190805190602001906200063892919062000660565b50604082015181600201559050508080620006539062000750565b915050620005bf565b5050565b8280546200066e906200071a565b90600052602060002090601f016020900481019282620006925760008555620006de565b82601f10620006ad57805160ff1916838001178555620006de565b82800160010185558215620006de579182015b82811115620006dd578251825591602001919060010190620006c0565b5b509050620006ed9190620006f1565b5090565b5b808211156200070c576000816000905550600101620006f2565b5090565b6000819050919050565b600060028204905060018216806200073357607f821691505b602082108114156200074a5762000749620007fc565b5b50919050565b60006200075d8262000710565b91507fffffffffffffffffffffffffffffffffffffffffffffffffffffffffffffffff8214156200079357620007926200079e565b5b600182019050919050565b7f4e487b7100000000000000000000000000000000000000000000000000000000600052601160045260246000fd5b7f4e487b7100000000000000000000000000000000000000000000000000000000600052602160045260246000fd5b7f4e487b7100000000000000000000000000000000000000000000000000000000600052602260045260246000fd5b6118a5806200083b6000396000f3fe608060405234801561001057600080fd5b50600436106100ff5760003560e01c806353357ad011610097578063c19d93fb11610066578063c19d93fb146102b4578063df9f1a07146102d2578063f3a8286f146102f0578063fe2442d71461030e576100ff565b806353357ad014610240578063a3ec138d1461025e578063b92239461461028e578063b9f05f2f14610298576100ff565b80632d35a8a2116100d35780632d35a8a2146101b25780633477ee2e146101d05780634763d4e7146102025780634c0a6af014610236576100ff565b8062aa746414610104578063032d0b0a1461012257806323a1b11c146101525780632c0a3f8914610182575b600080fd5b61010c610341565b604051610119919061148e565b60405180910390f35b61013c600480360381019061013791906110c3565b610347565b604051610149919061146c565b60405180910390f35b61016c60048036038101906101679190611096565b61042f565b604051610179919061134a565b60405180910390f35b61019c600480360381019061019791906110c3565b6105ba565b6040516101a9919061136c565b60405180910390f35b6101ba6108e8565b6040516101c7919061148e565b60405180910390f35b6101ea60048036038101906101e59190611096565b6108ee565b6040516101f9939291906114a9565b60405180910390f35b61021c60048036038101906102179190611029565b6109a0565b60405161022d959493929190611387565b60405180910390f35b61023e6109f0565b005b610248610ab7565b604051610255919061132f565b60405180910390f35b61027860048036038101906102739190611029565b610adb565b604051610285919061136c565b60405180910390f35b610296610afb565b005b6102b260048036038101906102ad9190611056565b610bcb565b005b6102bc610e5e565b6040516102c99190611411565b60405180910390f35b6102da610e71565b6040516102e7919061148e565b60405180910390f35b6102f8610e77565b604051610305919061148e565b60405180910390f35b61032860048036038101906103239190611096565b610e7d565b60405161033894939291906114e7565b60405180910390f35b60035481565b61034f610fab565b6007600084815260200190815260200160002060040160008381526020019081526020016000206040518060600160405290816000820154815260200160018201805461039b90611639565b80601f01602080910402602001604051908101604052809291908181526020018280546103c790611639565b80156104145780601f106103e957610100808354040283529160200191610414565b820191906000526020600020905b8154815290600101906020018083116103f757829003601f168201915b50505050508152602001600282015481525050905092915050565b6060600060015467ffffffffffffffff81111561044f5761044e611770565b5b60405190808252806020026020018201604052801561048857816020015b610475610fab565b81526020019060019003908161046d5790505b50905060006007600085815260200190815260200160002090506000600190505b60015481116105af576000826004016000838152602001908152602001600020604051806060016040529081600082015481526020016001820180546104ee90611639565b80601f016020809104026020016040519081016040528092919081815260200182805461051a90611639565b80156105675780601f1061053c57610100808354040283529160200191610567565b820191906000526020600020905b81548152906001019060200180831161054a57829003601f168201915b505050505081526020016002820154815250509050808483815181106105905761058f611741565b5b60200260200101819052505080806105a79061166b565b9150506104a9565b508192505050919050565b600060018060028111156105d1576105d06116e3565b5b600a60009054906101000a900460ff1660028111156105f3576105f26116e3565b5b146105fd57600080fd5b6000600860003373ffffffffffffffffffffffffffffffffffffffff1673ffffffffffffffffffffffffffffffffffffffff16815260200190815260200160002060000160009054906101000a900460ff1680156106a85750600860003373ffffffffffffffffffffffffffffffffffffffff1673ffffffffffffffffffffffffffffffffffffffff16815260200190815260200160002060000160019054906101000a900460ff16155b156108dd5784600860003373ffffffffffffffffffffffffffffffffffffffff1673ffffffffffffffffffffffffffffffffffffffff1681526020019081526020016000206001018190555083600860003373ffffffffffffffffffffffffffffffffffffffff1673ffffffffffffffffffffffffffffffffffffffff168152602001908152602001600020600301819055506001600860003373ffffffffffffffffffffffffffffffffffffffff1673ffffffffffffffffffffffffffffffffffffffff16815260200190815260200160002060000160016101000a81548160ff0219169083151502179055506007600085815260200190815260200160002060030160008154809291906107bd9061166b565b91905055506006600086815260200190815260200160002060020160008154809291906107e99061166b565b9190505550600460008154809291906108019061166b565b91905055506001905080600960003373ffffffffffffffffffffffffffffffffffffffff1673ffffffffffffffffffffffffffffffffffffffff16815260200190815260200160002060006101000a81548160ff021916908315150217905550600760008581526020019081526020016000206004016000868152602001908152602001600020600201600081548092919061089c9061166b565b91905055507f29a25b3d0b6ff7e5de2a60a2e8e76d1bdaf4894ec18c598cc1687213f442c5cb8186866040516108d4939291906113da565b60405180910390a15b809250505092915050565b60015481565b600660205280600052604060002060009150905080600001549080600101805461091790611639565b80601f016020809104026020016040519081016040528092919081815260200182805461094390611639565b80156109905780601f1061096557610100808354040283529160200191610990565b820191906000526020600020905b81548152906001019060200180831161097357829003601f168201915b5050505050908060020154905083565b60086020528060005260406000206000915090508060000160009054906101000a900460ff16908060000160019054906101000a900460ff16908060010154908060020154908060030154905085565b6000806002811115610a0557610a046116e3565b5b600a60009054906101000a900460ff166002811115610a2757610a266116e3565b5b14610a3157600080fd5b60008054906101000a900473ffffffffffffffffffffffffffffffffffffffff1673ffffffffffffffffffffffffffffffffffffffff163373ffffffffffffffffffffffffffffffffffffffff1614610a8957600080fd5b6001600a60006101000a81548160ff02191690836002811115610aaf57610aae6116e3565b5b021790555050565b60008054906101000a900473ffffffffffffffffffffffffffffffffffffffff1681565b60096020528060005260406000206000915054906101000a900460ff1681565b6001806002811115610b1057610b0f6116e3565b5b600a60009054906101000a900460ff166002811115610b3257610b316116e3565b5b14610b3c57600080fd5b60008054906101000a900473ffffffffffffffffffffffffffffffffffffffff1673ffffffffffffffffffffffffffffffffffffffff163373ffffffffffffffffffffffffffffffffffffffff1614610b9457600080fd5b6002600a60006101000a81548160ff02191690836002811115610bba57610bb96116e3565b5b021790555060045460058190555050565b6000806002811115610be057610bdf6116e3565b5b600a60009054906101000a900460ff166002811115610c0257610c016116e3565b5b14610c0c57600080fd5b60008054906101000a900473ffffffffffffffffffffffffffffffffffffffff1673ffffffffffffffffffffffffffffffffffffffff163373ffffffffffffffffffffffffffffffffffffffff1614610c6457600080fd5b60001515600860008573ffffffffffffffffffffffffffffffffffffffff1673ffffffffffffffffffffffffffffffffffffffff16815260200190815260200160002060000160009054906101000a900460ff16151514610cfa576040517f08c379a0000000000000000000000000000000000000000000000000000000008152600401610cf19061144c565b60405180910390fd5b60018210158015610d0d57506002548211155b610d4c576040517f08c379a0000000000000000000000000000000000000000000000000000000008152600401610d439061142c565b60405180910390fd5b610d54610fcc565b60018160000190151590811515815250506000816020019015159081151581525050600081604001818152505082816060018181525050600081608001818152505080600860008673ffffffffffffffffffffffffffffffffffffffff1673ffffffffffffffffffffffffffffffffffffffff16815260200190815260200160002060008201518160000160006101000a81548160ff02191690831515021790555060208201518160000160016101000a81548160ff021916908315150217905550604082015181600101556060820151816002015560808201518160030155905050610e4083610f35565b60036000815480929190610e539061166b565b919050555050505050565b600a60009054906101000a900460ff1681565b60025481565b60055481565b6007602052806000526040600020600091509050806000015490806001018054610ea690611639565b80601f0160208091040260200160405190810160405280929190818152602001828054610ed290611639565b8015610f1f5780601f10610ef457610100808354040283529160200191610f1f565b820191906000526020600020905b815481529060010190602001808311610f0257829003601f168201915b5050505050908060020154908060030154905084565b6000600190505b6002548111610fa7578160076000838152602001908152602001600020600001541415610f9457600760008281526020019081526020016000206002016000815480929190610f8a9061166b565b9190505550610fa7565b8080610f9f9061166b565b915050610f3c565b5050565b60405180606001604052806000815260200160608152602001600081525090565b6040518060a001604052806000151581526020016000151581526020016000815260200160008152602001600081525090565b60008135905061100e81611841565b92915050565b60008135905061102381611858565b92915050565b60006020828403121561103f5761103e61179f565b5b600061104d84828501610fff565b91505092915050565b6000806040838503121561106d5761106c61179f565b5b600061107b85828601610fff565b925050602061108c85828601611014565b9150509250929050565b6000602082840312156110ac576110ab61179f565b5b60006110ba84828501611014565b91505092915050565b600080604083850312156110da576110d961179f565b5b60006110e885828601611014565b92505060206110f985828601611014565b9150509250929050565b600061110f8383611271565b905092915050565b61112081611599565b82525050565b600061113182611543565b61113b8185611566565b93508360208202850161114d85611533565b8060005b85811015611189578484038952815161116a8582611103565b945061117583611559565b925060208a01995050600181019050611151565b50829750879550505050505092915050565b6111a4816115ab565b82525050565b6111b3816115f4565b82525050565b60006111c48261154e565b6111ce8185611577565b93506111de818560208601611606565b6111e7816117a4565b840191505092915050565b60006111fd8261154e565b6112078185611588565b9350611217818560208601611606565b611220816117a4565b840191505092915050565b6000611238602a83611588565b9150611243826117b5565b604082019050919050565b600061125b601c83611588565b915061126682611804565b602082019050919050565b60006060830160008301516112896000860182611311565b50602083015184820360208601526112a182826111b9565b91505060408301516112b66040860182611311565b508091505092915050565b60006060830160008301516112d96000860182611311565b50602083015184820360208601526112f182826111b9565b91505060408301516113066040860182611311565b508091505092915050565b61131a816115ea565b82525050565b611329816115ea565b82525050565b60006020820190506113446000830184611117565b92915050565b600060208201905081810360008301526113648184611126565b905092915050565b6000602082019050611381600083018461119b565b92915050565b600060a08201905061139c600083018861119b565b6113a9602083018761119b565b6113b66040830186611320565b6113c36060830185611320565b6113d06080830184611320565b9695505050505050565b60006060820190506113ef600083018661119b565b6113fc6020830185611320565b6114096040830184611320565b949350505050565b600060208201905061142660008301846111aa565b92915050565b600060208201905081810360008301526114458161122b565b9050919050565b600060208201905081810360008301526114658161124e565b9050919050565b6000602082019050818103600083015261148681846112c1565b905092915050565b60006020820190506114a36000830184611320565b92915050565b60006060820190506114be6000830186611320565b81810360208301526114d081856111f2565b90506114df6040830184611320565b949350505050565b60006080820190506114fc6000830187611320565b818103602083015261150e81866111f2565b905061151d6040830185611320565b61152a6060830184611320565b95945050505050565b6000819050602082019050919050565b600081519050919050565b600081519050919050565b6000602082019050919050565b600082825260208201905092915050565b600082825260208201905092915050565b600082825260208201905092915050565b60006115a4826115ca565b9050919050565b60008115159050919050565b60008190506115c58261182d565b919050565b600073ffffffffffffffffffffffffffffffffffffffff82169050919050565b6000819050919050565b60006115ff826115b7565b9050919050565b60005b83811015611624578082015181840152602081019050611609565b83811115611633576000848401525b50505050565b6000600282049050600182168061165157607f821691505b6020821081141561166557611664611712565b5b50919050565b6000611676826115ea565b91507fffffffffffffffffffffffffffffffffffffffffffffffffffffffffffffffff8214156116a9576116a86116b4565b5b600182019050919050565b7f4e487b7100000000000000000000000000000000000000000000000000000000600052601160045260246000fd5b7f4e487b7100000000000000000000000000000000000000000000000000000000600052602160045260246000fd5b7f4e487b7100000000000000000000000000000000000000000000000000000000600052602260045260246000fd5b7f4e487b7100000000000000000000000000000000000000000000000000000000600052603260045260246000fd5b7f4e487b7100000000000000000000000000000000000000000000000000000000600052604160045260246000fd5b600080fd5b6000601f19601f8301169050919050565b7f506c656173652070726f7669646520612076616c696420706f6c6c696e67207360008201527f746174696f6e2049442e00000000000000000000000000000000000000000000602082015250565b7f566f74657220697320616c726561647920726567697374657265642e00000000600082015250565b6003811061183e5761183d6116e3565b5b50565b61184a81611599565b811461185557600080fd5b50565b611861816115ea565b811461186c57600080fd5b5056fea264697066735822122091a13d19fcf7811a60bfd64a14da6ebf3d41317932b3b74a936889d6a1fd5bac64736f6c63430008070033",
					"opcodes": "PUSH1 0x80 PUSH1 0x40 MSTORE CALLVALUE DUP1 ISZERO PUSH3 0x11 JUMPI PUSH1 0x0 DUP1 REVERT JUMPDEST POP CALLER PUSH1 0x0 DUP1 PUSH2 0x100 EXP DUP2 SLOAD DUP2 PUSH20 0xFFFFFFFFFFFFFFFFFFFFFFFFFFFFFFFFFFFFFFFF MUL NOT AND SWAP1 DUP4 PUSH20 0xFFFFFFFFFFFFFFFFFFFFFFFFFFFFFFFFFFFFFFFF AND MUL OR SWAP1 SSTORE POP PUSH3 0x62 PUSH3 0xA6 PUSH1 0x20 SHL PUSH1 0x20 SHR JUMP JUMPDEST PUSH3 0x72 PUSH3 0x364 PUSH1 0x20 SHL PUSH1 0x20 SHR JUMP JUMPDEST PUSH1 0x0 PUSH1 0xA PUSH1 0x0 PUSH2 0x100 EXP DUP2 SLOAD DUP2 PUSH1 0xFF MUL NOT AND SWAP1 DUP4 PUSH1 0x2 DUP2 GT ISZERO PUSH3 0x9B JUMPI PUSH3 0x9A PUSH3 0x7CD JUMP JUMPDEST JUMPDEST MUL OR SWAP1 SSTORE POP PUSH3 0x82B JUMP JUMPDEST PUSH3 0xEC PUSH1 0x40 MLOAD DUP1 PUSH1 0x40 ADD PUSH1 0x40 MSTORE DUP1 PUSH1 0x11 DUP2 MSTORE PUSH1 0x20 ADD PUSH32 0x506F6C6C696E672053746174696F6E2031000000000000000000000000000000 DUP2 MSTORE POP PUSH3 0x4C4 PUSH1 0x20 SHL PUSH1 0x20 SHR JUMP JUMPDEST PUSH3 0x132 PUSH1 0x40 MLOAD DUP1 PUSH1 0x40 ADD PUSH1 0x40 MSTORE DUP1 PUSH1 0x11 DUP2 MSTORE PUSH1 0x20 ADD PUSH32 0x506F6C6C696E672053746174696F6E2032000000000000000000000000000000 DUP2 MSTORE POP PUSH3 0x4C4 PUSH1 0x20 SHL PUSH1 0x20 SHR JUMP JUMPDEST PUSH3 0x178 PUSH1 0x40 MLOAD DUP1 PUSH1 0x40 ADD PUSH1 0x40 MSTORE DUP1 PUSH1 0x11 DUP2 MSTORE PUSH1 0x20 ADD PUSH32 0x506F6C6C696E672053746174696F6E2033000000000000000000000000000000 DUP2 MSTORE POP PUSH3 0x4C4 PUSH1 0x20 SHL PUSH1 0x20 SHR JUMP JUMPDEST PUSH3 0x1BE PUSH1 0x40 MLOAD DUP1 PUSH1 0x40 ADD PUSH1 0x40 MSTORE DUP1 PUSH1 0x11 DUP2 MSTORE PUSH1 0x20 ADD PUSH32 0x506F6C6C696E672053746174696F6E2034000000000000000000000000000000 DUP2 MSTORE POP PUSH3 0x4C4 PUSH1 0x20 SHL PUSH1 0x20 SHR JUMP JUMPDEST PUSH3 0x204 PUSH1 0x40 MLOAD DUP1 PUSH1 0x40 ADD PUSH1 0x40 MSTORE DUP1 PUSH1 0x11 DUP2 MSTORE PUSH1 0x20 ADD PUSH32 0x506F6C6C696E672053746174696F6E2035000000000000000000000000000000 DUP2 MSTORE POP PUSH3 0x4C4 PUSH1 0x20 SHL PUSH1 0x20 SHR JUMP JUMPDEST PUSH3 0x24A PUSH1 0x40 MLOAD DUP1 PUSH1 0x40 ADD PUSH1 0x40 MSTORE DUP1 PUSH1 0x11 DUP2 MSTORE PUSH1 0x20 ADD PUSH32 0x506F6C6C696E672053746174696F6E2036000000000000000000000000000000 DUP2 MSTORE POP PUSH3 0x4C4 PUSH1 0x20 SHL PUSH1 0x20 SHR JUMP JUMPDEST PUSH3 0x290 PUSH1 0x40 MLOAD DUP1 PUSH1 0x40 ADD PUSH1 0x40 MSTORE DUP1 PUSH1 0x11 DUP2 MSTORE PUSH1 0x20 ADD PUSH32 0x506F6C6C696E672053746174696F6E2037000000000000000000000000000000 DUP2 MSTORE POP PUSH3 0x4C4 PUSH1 0x20 SHL PUSH1 0x20 SHR JUMP JUMPDEST PUSH3 0x2D6 PUSH1 0x40 MLOAD DUP1 PUSH1 0x40 ADD PUSH1 0x40 MSTORE DUP1 PUSH1 0x11 DUP2 MSTORE PUSH1 0x20 ADD PUSH32 0x506F6C6C696E672053746174696F6E2038000000000000000000000000000000 DUP2 MSTORE POP PUSH3 0x4C4 PUSH1 0x20 SHL PUSH1 0x20 SHR JUMP JUMPDEST PUSH3 0x31C PUSH1 0x40 MLOAD DUP1 PUSH1 0x40 ADD PUSH1 0x40 MSTORE DUP1 PUSH1 0x11 DUP2 MSTORE PUSH1 0x20 ADD PUSH32 0x506F6C6C696E672053746174696F6E2039000000000000000000000000000000 DUP2 MSTORE POP PUSH3 0x4C4 PUSH1 0x20 SHL PUSH1 0x20 SHR JUMP JUMPDEST PUSH3 0x362 PUSH1 0x40 MLOAD DUP1 PUSH1 0x40 ADD PUSH1 0x40 MSTORE DUP1 PUSH1 0x12 DUP2 MSTORE PUSH1 0x20 ADD PUSH32 0x506F6C6C696E672053746174696F6E2031300000000000000000000000000000 DUP2 MSTORE POP PUSH3 0x4C4 PUSH1 0x20 SHL PUSH1 0x20 SHR JUMP JUMPDEST JUMP JUMPDEST PUSH3 0x3AA PUSH1 0x40 MLOAD DUP1 PUSH1 0x40 ADD PUSH1 0x40 MSTORE DUP1 PUSH1 0xB DUP2 MSTORE PUSH1 0x20 ADD PUSH32 0x43616E6469646174652031000000000000000000000000000000000000000000 DUP2 MSTORE POP PUSH3 0x535 PUSH1 0x20 SHL PUSH1 0x20 SHR JUMP JUMPDEST PUSH3 0x3F0 PUSH1 0x40 MLOAD DUP1 PUSH1 0x40 ADD PUSH1 0x40 MSTORE DUP1 PUSH1 0xB DUP2 MSTORE PUSH1 0x20 ADD PUSH32 0x43616E6469646174652032000000000000000000000000000000000000000000 DUP2 MSTORE POP PUSH3 0x535 PUSH1 0x20 SHL PUSH1 0x20 SHR JUMP JUMPDEST PUSH3 0x436 PUSH1 0x40 MLOAD DUP1 PUSH1 0x40 ADD PUSH1 0x40 MSTORE DUP1 PUSH1 0xB DUP2 MSTORE PUSH1 0x20 ADD PUSH32 0x43616E6469646174652033000000000000000000000000000000000000000000 DUP2 MSTORE POP PUSH3 0x535 PUSH1 0x20 SHL PUSH1 0x20 SHR JUMP JUMPDEST PUSH3 0x47C PUSH1 0x40 MLOAD DUP1 PUSH1 0x40 ADD PUSH1 0x40 MSTORE DUP1 PUSH1 0xB DUP2 MSTORE PUSH1 0x20 ADD PUSH32 0x43616E6469646174652034000000000000000000000000000000000000000000 DUP2 MSTORE POP PUSH3 0x535 PUSH1 0x20 SHL PUSH1 0x20 SHR JUMP JUMPDEST PUSH3 0x4C2 PUSH1 0x40 MLOAD DUP1 PUSH1 0x40 ADD PUSH1 0x40 MSTORE DUP1 PUSH1 0xB DUP2 MSTORE PUSH1 0x20 ADD PUSH32 0x43616E6469646174652035000000000000000000000000000000000000000000 DUP2 MSTORE POP PUSH3 0x535 PUSH1 0x20 SHL PUSH1 0x20 SHR JUMP JUMPDEST JUMP JUMPDEST PUSH1 0x2 PUSH1 0x0 DUP2 SLOAD DUP1 SWAP3 SWAP2 SWAP1 PUSH3 0x4D9 SWAP1 PUSH3 0x750 JUMP JUMPDEST SWAP2 SWAP1 POP SSTORE POP PUSH1 0x0 PUSH1 0x7 PUSH1 0x0 PUSH1 0x2 SLOAD DUP2 MSTORE PUSH1 0x20 ADD SWAP1 DUP2 MSTORE PUSH1 0x20 ADD PUSH1 0x0 KECCAK256 SWAP1 POP PUSH1 0x2 SLOAD DUP2 PUSH1 0x0 ADD DUP2 SWAP1 SSTORE POP DUP2 DUP2 PUSH1 0x1 ADD SWAP1 DUP1 MLOAD SWAP1 PUSH1 0x20 ADD SWAP1 PUSH3 0x51C SWAP3 SWAP2 SWAP1 PUSH3 0x660 JUMP JUMPDEST POP PUSH1 0x0 DUP2 PUSH1 0x2 ADD DUP2 SWAP1 SSTORE POP PUSH1 0x0 DUP2 PUSH1 0x3 ADD DUP2 SWAP1 SSTORE POP POP POP JUMP JUMPDEST PUSH1 0x1 PUSH1 0x0 DUP2 SLOAD DUP1 SWAP3 SWAP2 SWAP1 PUSH3 0x54A SWAP1 PUSH3 0x750 JUMP JUMPDEST SWAP2 SWAP1 POP SSTORE POP PUSH1 0x40 MLOAD DUP1 PUSH1 0x60 ADD PUSH1 0x40 MSTORE DUP1 PUSH1 0x1 SLOAD DUP2 MSTORE PUSH1 0x20 ADD DUP3 DUP2 MSTORE PUSH1 0x20 ADD PUSH1 0x0 DUP2 MSTORE POP PUSH1 0x6 PUSH1 0x0 PUSH1 0x1 SLOAD DUP2 MSTORE PUSH1 0x20 ADD SWAP1 DUP2 MSTORE PUSH1 0x20 ADD PUSH1 0x0 KECCAK256 PUSH1 0x0 DUP3 ADD MLOAD DUP2 PUSH1 0x0 ADD SSTORE PUSH1 0x20 DUP3 ADD MLOAD DUP2 PUSH1 0x1 ADD SWAP1 DUP1 MLOAD SWAP1 PUSH1 0x20 ADD SWAP1 PUSH3 0x5AA SWAP3 SWAP2 SWAP1 PUSH3 0x660 JUMP JUMPDEST POP PUSH1 0x40 DUP3 ADD MLOAD DUP2 PUSH1 0x2 ADD SSTORE SWAP1 POP POP PUSH1 0x0 PUSH1 0x1 SWAP1 POP JUMPDEST PUSH1 0x2 SLOAD DUP2 GT PUSH3 0x65C JUMPI PUSH1 0x40 MLOAD DUP1 PUSH1 0x60 ADD PUSH1 0x40 MSTORE DUP1 PUSH1 0x1 SLOAD DUP2 MSTORE PUSH1 0x20 ADD DUP4 DUP2 MSTORE PUSH1 0x20 ADD PUSH1 0x0 DUP2 MSTORE POP PUSH1 0x7 PUSH1 0x0 DUP4 DUP2 MSTORE PUSH1 0x20 ADD SWAP1 DUP2 MSTORE PUSH1 0x20 ADD PUSH1 0x0 KECCAK256 PUSH1 0x4 ADD PUSH1 0x0 PUSH1 0x1 SLOAD DUP2 MSTORE PUSH1 0x20 ADD SWAP1 DUP2 MSTORE PUSH1 0x20 ADD PUSH1 0x0 KECCAK256 PUSH1 0x0 DUP3 ADD MLOAD DUP2 PUSH1 0x0 ADD SSTORE PUSH1 0x20 DUP3 ADD MLOAD DUP2 PUSH1 0x1 ADD SWAP1 DUP1 MLOAD SWAP1 PUSH1 0x20 ADD SWAP1 PUSH3 0x638 SWAP3 SWAP2 SWAP1 PUSH3 0x660 JUMP JUMPDEST POP PUSH1 0x40 DUP3 ADD MLOAD DUP2 PUSH1 0x2 ADD SSTORE SWAP1 POP POP DUP1 DUP1 PUSH3 0x653 SWAP1 PUSH3 0x750 JUMP JUMPDEST SWAP2 POP POP PUSH3 0x5BF JUMP JUMPDEST POP POP JUMP JUMPDEST DUP3 DUP1 SLOAD PUSH3 0x66E SWAP1 PUSH3 0x71A JUMP JUMPDEST SWAP1 PUSH1 0x0 MSTORE PUSH1 0x20 PUSH1 0x0 KECCAK256 SWAP1 PUSH1 0x1F ADD PUSH1 0x20 SWAP1 DIV DUP2 ADD SWAP3 DUP3 PUSH3 0x692 JUMPI PUSH1 0x0 DUP6 SSTORE PUSH3 0x6DE JUMP JUMPDEST DUP3 PUSH1 0x1F LT PUSH3 0x6AD JUMPI DUP1 MLOAD PUSH1 0xFF NOT AND DUP4 DUP1 ADD OR DUP6 SSTORE PUSH3 0x6DE JUMP JUMPDEST DUP3 DUP1 ADD PUSH1 0x1 ADD DUP6 SSTORE DUP3 ISZERO PUSH3 0x6DE JUMPI SWAP2 DUP3 ADD JUMPDEST DUP3 DUP2 GT ISZERO PUSH3 0x6DD JUMPI DUP3 MLOAD DUP3 SSTORE SWAP2 PUSH1 0x20 ADD SWAP2 SWAP1 PUSH1 0x1 ADD SWAP1 PUSH3 0x6C0 JUMP JUMPDEST JUMPDEST POP SWAP1 POP PUSH3 0x6ED SWAP2 SWAP1 PUSH3 0x6F1 JUMP JUMPDEST POP SWAP1 JUMP JUMPDEST JUMPDEST DUP1 DUP3 GT ISZERO PUSH3 0x70C JUMPI PUSH1 0x0 DUP2 PUSH1 0x0 SWAP1 SSTORE POP PUSH1 0x1 ADD PUSH3 0x6F2 JUMP JUMPDEST POP SWAP1 JUMP JUMPDEST PUSH1 0x0 DUP2 SWAP1 POP SWAP2 SWAP1 POP JUMP JUMPDEST PUSH1 0x0 PUSH1 0x2 DUP3 DIV SWAP1 POP PUSH1 0x1 DUP3 AND DUP1 PUSH3 0x733 JUMPI PUSH1 0x7F DUP3 AND SWAP2 POP JUMPDEST PUSH1 0x20 DUP3 LT DUP2 EQ ISZERO PUSH3 0x74A JUMPI PUSH3 0x749 PUSH3 0x7FC JUMP JUMPDEST JUMPDEST POP SWAP2 SWAP1 POP JUMP JUMPDEST PUSH1 0x0 PUSH3 0x75D DUP3 PUSH3 0x710 JUMP JUMPDEST SWAP2 POP PUSH32 0xFFFFFFFFFFFFFFFFFFFFFFFFFFFFFFFFFFFFFFFFFFFFFFFFFFFFFFFFFFFFFFFF DUP3 EQ ISZERO PUSH3 0x793 JUMPI PUSH3 0x792 PUSH3 0x79E JUMP JUMPDEST JUMPDEST PUSH1 0x1 DUP3 ADD SWAP1 POP SWAP2 SWAP1 POP JUMP JUMPDEST PUSH32 0x4E487B7100000000000000000000000000000000000000000000000000000000 PUSH1 0x0 MSTORE PUSH1 0x11 PUSH1 0x4 MSTORE PUSH1 0x24 PUSH1 0x0 REVERT JUMPDEST PUSH32 0x4E487B7100000000000000000000000000000000000000000000000000000000 PUSH1 0x0 MSTORE PUSH1 0x21 PUSH1 0x4 MSTORE PUSH1 0x24 PUSH1 0x0 REVERT JUMPDEST PUSH32 0x4E487B7100000000000000000000000000000000000000000000000000000000 PUSH1 0x0 MSTORE PUSH1 0x22 PUSH1 0x4 MSTORE PUSH1 0x24 PUSH1 0x0 REVERT JUMPDEST PUSH2 0x18A5 DUP1 PUSH3 0x83B PUSH1 0x0 CODECOPY PUSH1 0x0 RETURN INVALID PUSH1 0x80 PUSH1 0x40 MSTORE CALLVALUE DUP1 ISZERO PUSH2 0x10 JUMPI PUSH1 0x0 DUP1 REVERT JUMPDEST POP PUSH1 0x4 CALLDATASIZE LT PUSH2 0xFF JUMPI PUSH1 0x0 CALLDATALOAD PUSH1 0xE0 SHR DUP1 PUSH4 0x53357AD0 GT PUSH2 0x97 JUMPI DUP1 PUSH4 0xC19D93FB GT PUSH2 0x66 JUMPI DUP1 PUSH4 0xC19D93FB EQ PUSH2 0x2B4 JUMPI DUP1 PUSH4 0xDF9F1A07 EQ PUSH2 0x2D2 JUMPI DUP1 PUSH4 0xF3A8286F EQ PUSH2 0x2F0 JUMPI DUP1 PUSH4 0xFE2442D7 EQ PUSH2 0x30E JUMPI PUSH2 0xFF JUMP JUMPDEST DUP1 PUSH4 0x53357AD0 EQ PUSH2 0x240 JUMPI DUP1 PUSH4 0xA3EC138D EQ PUSH2 0x25E JUMPI DUP1 PUSH4 0xB9223946 EQ PUSH2 0x28E JUMPI DUP1 PUSH4 0xB9F05F2F EQ PUSH2 0x298 JUMPI PUSH2 0xFF JUMP JUMPDEST DUP1 PUSH4 0x2D35A8A2 GT PUSH2 0xD3 JUMPI DUP1 PUSH4 0x2D35A8A2 EQ PUSH2 0x1B2 JUMPI DUP1 PUSH4 0x3477EE2E EQ PUSH2 0x1D0 JUMPI DUP1 PUSH4 0x4763D4E7 EQ PUSH2 0x202 JUMPI DUP1 PUSH4 0x4C0A6AF0 EQ PUSH2 0x236 JUMPI PUSH2 0xFF JUMP JUMPDEST DUP1 PUSH3 0xAA7464 EQ PUSH2 0x104 JUMPI DUP1 PUSH4 0x32D0B0A EQ PUSH2 0x122 JUMPI DUP1 PUSH4 0x23A1B11C EQ PUSH2 0x152 JUMPI DUP1 PUSH4 0x2C0A3F89 EQ PUSH2 0x182 JUMPI JUMPDEST PUSH1 0x0 DUP1 REVERT JUMPDEST PUSH2 0x10C PUSH2 0x341 JUMP JUMPDEST PUSH1 0x40 MLOAD PUSH2 0x119 SWAP2 SWAP1 PUSH2 0x148E JUMP JUMPDEST PUSH1 0x40 MLOAD DUP1 SWAP2 SUB SWAP1 RETURN JUMPDEST PUSH2 0x13C PUSH1 0x4 DUP1 CALLDATASIZE SUB DUP2 ADD SWAP1 PUSH2 0x137 SWAP2 SWAP1 PUSH2 0x10C3 JUMP JUMPDEST PUSH2 0x347 JUMP JUMPDEST PUSH1 0x40 MLOAD PUSH2 0x149 SWAP2 SWAP1 PUSH2 0x146C JUMP JUMPDEST PUSH1 0x40 MLOAD DUP1 SWAP2 SUB SWAP1 RETURN JUMPDEST PUSH2 0x16C PUSH1 0x4 DUP1 CALLDATASIZE SUB DUP2 ADD SWAP1 PUSH2 0x167 SWAP2 SWAP1 PUSH2 0x1096 JUMP JUMPDEST PUSH2 0x42F JUMP JUMPDEST PUSH1 0x40 MLOAD PUSH2 0x179 SWAP2 SWAP1 PUSH2 0x134A JUMP JUMPDEST PUSH1 0x40 MLOAD DUP1 SWAP2 SUB SWAP1 RETURN JUMPDEST PUSH2 0x19C PUSH1 0x4 DUP1 CALLDATASIZE SUB DUP2 ADD SWAP1 PUSH2 0x197 SWAP2 SWAP1 PUSH2 0x10C3 JUMP JUMPDEST PUSH2 0x5BA JUMP JUMPDEST PUSH1 0x40 MLOAD PUSH2 0x1A9 SWAP2 SWAP1 PUSH2 0x136C JUMP JUMPDEST PUSH1 0x40 MLOAD DUP1 SWAP2 SUB SWAP1 RETURN JUMPDEST PUSH2 0x1BA PUSH2 0x8E8 JUMP JUMPDEST PUSH1 0x40 MLOAD PUSH2 0x1C7 SWAP2 SWAP1 PUSH2 0x148E JUMP JUMPDEST PUSH1 0x40 MLOAD DUP1 SWAP2 SUB SWAP1 RETURN JUMPDEST PUSH2 0x1EA PUSH1 0x4 DUP1 CALLDATASIZE SUB DUP2 ADD SWAP1 PUSH2 0x1E5 SWAP2 SWAP1 PUSH2 0x1096 JUMP JUMPDEST PUSH2 0x8EE JUMP JUMPDEST PUSH1 0x40 MLOAD PUSH2 0x1F9 SWAP4 SWAP3 SWAP2 SWAP1 PUSH2 0x14A9 JUMP JUMPDEST PUSH1 0x40 MLOAD DUP1 SWAP2 SUB SWAP1 RETURN JUMPDEST PUSH2 0x21C PUSH1 0x4 DUP1 CALLDATASIZE SUB DUP2 ADD SWAP1 PUSH2 0x217 SWAP2 SWAP1 PUSH2 0x1029 JUMP JUMPDEST PUSH2 0x9A0 JUMP JUMPDEST PUSH1 0x40 MLOAD PUSH2 0x22D SWAP6 SWAP5 SWAP4 SWAP3 SWAP2 SWAP1 PUSH2 0x1387 JUMP JUMPDEST PUSH1 0x40 MLOAD DUP1 SWAP2 SUB SWAP1 RETURN JUMPDEST PUSH2 0x23E PUSH2 0x9F0 JUMP JUMPDEST STOP JUMPDEST PUSH2 0x248 PUSH2 0xAB7 JUMP JUMPDEST PUSH1 0x40 MLOAD PUSH2 0x255 SWAP2 SWAP1 PUSH2 0x132F JUMP JUMPDEST PUSH1 0x40 MLOAD DUP1 SWAP2 SUB SWAP1 RETURN JUMPDEST PUSH2 0x278 PUSH1 0x4 DUP1 CALLDATASIZE SUB DUP2 ADD SWAP1 PUSH2 0x273 SWAP2 SWAP1 PUSH2 0x1029 JUMP JUMPDEST PUSH2 0xADB JUMP JUMPDEST PUSH1 0x40 MLOAD PUSH2 0x285 SWAP2 SWAP1 PUSH2 0x136C JUMP JUMPDEST PUSH1 0x40 MLOAD DUP1 SWAP2 SUB SWAP1 RETURN JUMPDEST PUSH2 0x296 PUSH2 0xAFB JUMP JUMPDEST STOP JUMPDEST PUSH2 0x2B2 PUSH1 0x4 DUP1 CALLDATASIZE SUB DUP2 ADD SWAP1 PUSH2 0x2AD SWAP2 SWAP1 PUSH2 0x1056 JUMP JUMPDEST PUSH2 0xBCB JUMP JUMPDEST STOP JUMPDEST PUSH2 0x2BC PUSH2 0xE5E JUMP JUMPDEST PUSH1 0x40 MLOAD PUSH2 0x2C9 SWAP2 SWAP1 PUSH2 0x1411 JUMP JUMPDEST PUSH1 0x40 MLOAD DUP1 SWAP2 SUB SWAP1 RETURN JUMPDEST PUSH2 0x2DA PUSH2 0xE71 JUMP JUMPDEST PUSH1 0x40 MLOAD PUSH2 0x2E7 SWAP2 SWAP1 PUSH2 0x148E JUMP JUMPDEST PUSH1 0x40 MLOAD DUP1 SWAP2 SUB SWAP1 RETURN JUMPDEST PUSH2 0x2F8 PUSH2 0xE77 JUMP JUMPDEST PUSH1 0x40 MLOAD PUSH2 0x305 SWAP2 SWAP1 PUSH2 0x148E JUMP JUMPDEST PUSH1 0x40 MLOAD DUP1 SWAP2 SUB SWAP1 RETURN JUMPDEST PUSH2 0x328 PUSH1 0x4 DUP1 CALLDATASIZE SUB DUP2 ADD SWAP1 PUSH2 0x323 SWAP2 SWAP1 PUSH2 0x1096 JUMP JUMPDEST PUSH2 0xE7D JUMP JUMPDEST PUSH1 0x40 MLOAD PUSH2 0x338 SWAP5 SWAP4 SWAP3 SWAP2 SWAP1 PUSH2 0x14E7 JUMP JUMPDEST PUSH1 0x40 MLOAD DUP1 SWAP2 SUB SWAP1 RETURN JUMPDEST PUSH1 0x3 SLOAD DUP2 JUMP JUMPDEST PUSH2 0x34F PUSH2 0xFAB JUMP JUMPDEST PUSH1 0x7 PUSH1 0x0 DUP5 DUP2 MSTORE PUSH1 0x20 ADD SWAP1 DUP2 MSTORE PUSH1 0x20 ADD PUSH1 0x0 KECCAK256 PUSH1 0x4 ADD PUSH1 0x0 DUP4 DUP2 MSTORE PUSH1 0x20 ADD SWAP1 DUP2 MSTORE PUSH1 0x20 ADD PUSH1 0x0 KECCAK256 PUSH1 0x40 MLOAD DUP1 PUSH1 0x60 ADD PUSH1 0x40 MSTORE SWAP1 DUP2 PUSH1 0x0 DUP3 ADD SLOAD DUP2 MSTORE PUSH1 0x20 ADD PUSH1 0x1 DUP3 ADD DUP1 SLOAD PUSH2 0x39B SWAP1 PUSH2 0x1639 JUMP JUMPDEST DUP1 PUSH1 0x1F ADD PUSH1 0x20 DUP1 SWAP2 DIV MUL PUSH1 0x20 ADD PUSH1 0x40 MLOAD SWAP1 DUP2 ADD PUSH1 0x40 MSTORE DUP1 SWAP3 SWAP2 SWAP1 DUP2 DUP2 MSTORE PUSH1 0x20 ADD DUP3 DUP1 SLOAD PUSH2 0x3C7 SWAP1 PUSH2 0x1639 JUMP JUMPDEST DUP1 ISZERO PUSH2 0x414 JUMPI DUP1 PUSH1 0x1F LT PUSH2 0x3E9 JUMPI PUSH2 0x100 DUP1 DUP4 SLOAD DIV MUL DUP4 MSTORE SWAP2 PUSH1 0x20 ADD SWAP2 PUSH2 0x414 JUMP JUMPDEST DUP3 ADD SWAP2 SWAP1 PUSH1 0x0 MSTORE PUSH1 0x20 PUSH1 0x0 KECCAK256 SWAP1 JUMPDEST DUP2 SLOAD DUP2 MSTORE SWAP1 PUSH1 0x1 ADD SWAP1 PUSH1 0x20 ADD DUP1 DUP4 GT PUSH2 0x3F7 JUMPI DUP3 SWAP1 SUB PUSH1 0x1F AND DUP3 ADD SWAP2 JUMPDEST POP POP POP POP POP DUP2 MSTORE PUSH1 0x20 ADD PUSH1 0x2 DUP3 ADD SLOAD DUP2 MSTORE POP POP SWAP1 POP SWAP3 SWAP2 POP POP JUMP JUMPDEST PUSH1 0x60 PUSH1 0x0 PUSH1 0x1 SLOAD PUSH8 0xFFFFFFFFFFFFFFFF DUP2 GT ISZERO PUSH2 0x44F JUMPI PUSH2 0x44E PUSH2 0x1770 JUMP JUMPDEST JUMPDEST PUSH1 0x40 MLOAD SWAP1 DUP1 DUP3 MSTORE DUP1 PUSH1 0x20 MUL PUSH1 0x20 ADD DUP3 ADD PUSH1 0x40 MSTORE DUP1 ISZERO PUSH2 0x488 JUMPI DUP2 PUSH1 0x20 ADD JUMPDEST PUSH2 0x475 PUSH2 0xFAB JUMP JUMPDEST DUP2 MSTORE PUSH1 0x20 ADD SWAP1 PUSH1 0x1 SWAP1 SUB SWAP1 DUP2 PUSH2 0x46D JUMPI SWAP1 POP JUMPDEST POP SWAP1 POP PUSH1 0x0 PUSH1 0x7 PUSH1 0x0 DUP6 DUP2 MSTORE PUSH1 0x20 ADD SWAP1 DUP2 MSTORE PUSH1 0x20 ADD PUSH1 0x0 KECCAK256 SWAP1 POP PUSH1 0x0 PUSH1 0x1 SWAP1 POP JUMPDEST PUSH1 0x1 SLOAD DUP2 GT PUSH2 0x5AF JUMPI PUSH1 0x0 DUP3 PUSH1 0x4 ADD PUSH1 0x0 DUP4 DUP2 MSTORE PUSH1 0x20 ADD SWAP1 DUP2 MSTORE PUSH1 0x20 ADD PUSH1 0x0 KECCAK256 PUSH1 0x40 MLOAD DUP1 PUSH1 0x60 ADD PUSH1 0x40 MSTORE SWAP1 DUP2 PUSH1 0x0 DUP3 ADD SLOAD DUP2 MSTORE PUSH1 0x20 ADD PUSH1 0x1 DUP3 ADD DUP1 SLOAD PUSH2 0x4EE SWAP1 PUSH2 0x1639 JUMP JUMPDEST DUP1 PUSH1 0x1F ADD PUSH1 0x20 DUP1 SWAP2 DIV MUL PUSH1 0x20 ADD PUSH1 0x40 MLOAD SWAP1 DUP2 ADD PUSH1 0x40 MSTORE DUP1 SWAP3 SWAP2 SWAP1 DUP2 DUP2 MSTORE PUSH1 0x20 ADD DUP3 DUP1 SLOAD PUSH2 0x51A SWAP1 PUSH2 0x1639 JUMP JUMPDEST DUP1 ISZERO PUSH2 0x567 JUMPI DUP1 PUSH1 0x1F LT PUSH2 0x53C JUMPI PUSH2 0x100 DUP1 DUP4 SLOAD DIV MUL DUP4 MSTORE SWAP2 PUSH1 0x20 ADD SWAP2 PUSH2 0x567 JUMP JUMPDEST DUP3 ADD SWAP2 SWAP1 PUSH1 0x0 MSTORE PUSH1 0x20 PUSH1 0x0 KECCAK256 SWAP1 JUMPDEST DUP2 SLOAD DUP2 MSTORE SWAP1 PUSH1 0x1 ADD SWAP1 PUSH1 0x20 ADD DUP1 DUP4 GT PUSH2 0x54A JUMPI DUP3 SWAP1 SUB PUSH1 0x1F AND DUP3 ADD SWAP2 JUMPDEST POP POP POP POP POP DUP2 MSTORE PUSH1 0x20 ADD PUSH1 0x2 DUP3 ADD SLOAD DUP2 MSTORE POP POP SWAP1 POP DUP1 DUP5 DUP4 DUP2 MLOAD DUP2 LT PUSH2 0x590 JUMPI PUSH2 0x58F PUSH2 0x1741 JUMP JUMPDEST JUMPDEST PUSH1 0x20 MUL PUSH1 0x20 ADD ADD DUP2 SWAP1 MSTORE POP POP DUP1 DUP1 PUSH2 0x5A7 SWAP1 PUSH2 0x166B JUMP JUMPDEST SWAP2 POP POP PUSH2 0x4A9 JUMP JUMPDEST POP DUP2 SWAP3 POP POP POP SWAP2 SWAP1 POP JUMP JUMPDEST PUSH1 0x0 PUSH1 0x1 DUP1 PUSH1 0x2 DUP2 GT ISZERO PUSH2 0x5D1 JUMPI PUSH2 0x5D0 PUSH2 0x16E3 JUMP JUMPDEST JUMPDEST PUSH1 0xA PUSH1 0x0 SWAP1 SLOAD SWAP1 PUSH2 0x100 EXP SWAP1 DIV PUSH1 0xFF AND PUSH1 0x2 DUP2 GT ISZERO PUSH2 0x5F3 JUMPI PUSH2 0x5F2 PUSH2 0x16E3 JUMP JUMPDEST JUMPDEST EQ PUSH2 0x5FD JUMPI PUSH1 0x0 DUP1 REVERT JUMPDEST PUSH1 0x0 PUSH1 0x8 PUSH1 0x0 CALLER PUSH20 0xFFFFFFFFFFFFFFFFFFFFFFFFFFFFFFFFFFFFFFFF AND PUSH20 0xFFFFFFFFFFFFFFFFFFFFFFFFFFFFFFFFFFFFFFFF AND DUP2 MSTORE PUSH1 0x20 ADD SWAP1 DUP2 MSTORE PUSH1 0x20 ADD PUSH1 0x0 KECCAK256 PUSH1 0x0 ADD PUSH1 0x0 SWAP1 SLOAD SWAP1 PUSH2 0x100 EXP SWAP1 DIV PUSH1 0xFF AND DUP1 ISZERO PUSH2 0x6A8 JUMPI POP PUSH1 0x8 PUSH1 0x0 CALLER PUSH20 0xFFFFFFFFFFFFFFFFFFFFFFFFFFFFFFFFFFFFFFFF AND PUSH20 0xFFFFFFFFFFFFFFFFFFFFFFFFFFFFFFFFFFFFFFFF AND DUP2 MSTORE PUSH1 0x20 ADD SWAP1 DUP2 MSTORE PUSH1 0x20 ADD PUSH1 0x0 KECCAK256 PUSH1 0x0 ADD PUSH1 0x1 SWAP1 SLOAD SWAP1 PUSH2 0x100 EXP SWAP1 DIV PUSH1 0xFF AND ISZERO JUMPDEST ISZERO PUSH2 0x8DD JUMPI DUP5 PUSH1 0x8 PUSH1 0x0 CALLER PUSH20 0xFFFFFFFFFFFFFFFFFFFFFFFFFFFFFFFFFFFFFFFF AND PUSH20 0xFFFFFFFFFFFFFFFFFFFFFFFFFFFFFFFFFFFFFFFF AND DUP2 MSTORE PUSH1 0x20 ADD SWAP1 DUP2 MSTORE PUSH1 0x20 ADD PUSH1 0x0 KECCAK256 PUSH1 0x1 ADD DUP2 SWAP1 SSTORE POP DUP4 PUSH1 0x8 PUSH1 0x0 CALLER PUSH20 0xFFFFFFFFFFFFFFFFFFFFFFFFFFFFFFFFFFFFFFFF AND PUSH20 0xFFFFFFFFFFFFFFFFFFFFFFFFFFFFFFFFFFFFFFFF AND DUP2 MSTORE PUSH1 0x20 ADD SWAP1 DUP2 MSTORE PUSH1 0x20 ADD PUSH1 0x0 KECCAK256 PUSH1 0x3 ADD DUP2 SWAP1 SSTORE POP PUSH1 0x1 PUSH1 0x8 PUSH1 0x0 CALLER PUSH20 0xFFFFFFFFFFFFFFFFFFFFFFFFFFFFFFFFFFFFFFFF AND PUSH20 0xFFFFFFFFFFFFFFFFFFFFFFFFFFFFFFFFFFFFFFFF AND DUP2 MSTORE PUSH1 0x20 ADD SWAP1 DUP2 MSTORE PUSH1 0x20 ADD PUSH1 0x0 KECCAK256 PUSH1 0x0 ADD PUSH1 0x1 PUSH2 0x100 EXP DUP2 SLOAD DUP2 PUSH1 0xFF MUL NOT AND SWAP1 DUP4 ISZERO ISZERO MUL OR SWAP1 SSTORE POP PUSH1 0x7 PUSH1 0x0 DUP6 DUP2 MSTORE PUSH1 0x20 ADD SWAP1 DUP2 MSTORE PUSH1 0x20 ADD PUSH1 0x0 KECCAK256 PUSH1 0x3 ADD PUSH1 0x0 DUP2 SLOAD DUP1 SWAP3 SWAP2 SWAP1 PUSH2 0x7BD SWAP1 PUSH2 0x166B JUMP JUMPDEST SWAP2 SWAP1 POP SSTORE POP PUSH1 0x6 PUSH1 0x0 DUP7 DUP2 MSTORE PUSH1 0x20 ADD SWAP1 DUP2 MSTORE PUSH1 0x20 ADD PUSH1 0x0 KECCAK256 PUSH1 0x2 ADD PUSH1 0x0 DUP2 SLOAD DUP1 SWAP3 SWAP2 SWAP1 PUSH2 0x7E9 SWAP1 PUSH2 0x166B JUMP JUMPDEST SWAP2 SWAP1 POP SSTORE POP PUSH1 0x4 PUSH1 0x0 DUP2 SLOAD DUP1 SWAP3 SWAP2 SWAP1 PUSH2 0x801 SWAP1 PUSH2 0x166B JUMP JUMPDEST SWAP2 SWAP1 POP SSTORE POP PUSH1 0x1 SWAP1 POP DUP1 PUSH1 0x9 PUSH1 0x0 CALLER PUSH20 0xFFFFFFFFFFFFFFFFFFFFFFFFFFFFFFFFFFFFFFFF AND PUSH20 0xFFFFFFFFFFFFFFFFFFFFFFFFFFFFFFFFFFFFFFFF AND DUP2 MSTORE PUSH1 0x20 ADD SWAP1 DUP2 MSTORE PUSH1 0x20 ADD PUSH1 0x0 KECCAK256 PUSH1 0x0 PUSH2 0x100 EXP DUP2 SLOAD DUP2 PUSH1 0xFF MUL NOT AND SWAP1 DUP4 ISZERO ISZERO MUL OR SWAP1 SSTORE POP PUSH1 0x7 PUSH1 0x0 DUP6 DUP2 MSTORE PUSH1 0x20 ADD SWAP1 DUP2 MSTORE PUSH1 0x20 ADD PUSH1 0x0 KECCAK256 PUSH1 0x4 ADD PUSH1 0x0 DUP7 DUP2 MSTORE PUSH1 0x20 ADD SWAP1 DUP2 MSTORE PUSH1 0x20 ADD PUSH1 0x0 KECCAK256 PUSH1 0x2 ADD PUSH1 0x0 DUP2 SLOAD DUP1 SWAP3 SWAP2 SWAP1 PUSH2 0x89C SWAP1 PUSH2 0x166B JUMP JUMPDEST SWAP2 SWAP1 POP SSTORE POP PUSH32 0x29A25B3D0B6FF7E5DE2A60A2E8E76D1BDAF4894EC18C598CC1687213F442C5CB DUP2 DUP7 DUP7 PUSH1 0x40 MLOAD PUSH2 0x8D4 SWAP4 SWAP3 SWAP2 SWAP1 PUSH2 0x13DA JUMP JUMPDEST PUSH1 0x40 MLOAD DUP1 SWAP2 SUB SWAP1 LOG1 JUMPDEST DUP1 SWAP3 POP POP POP SWAP3 SWAP2 POP POP JUMP JUMPDEST PUSH1 0x1 SLOAD DUP2 JUMP JUMPDEST PUSH1 0x6 PUSH1 0x20 MSTORE DUP1 PUSH1 0x0 MSTORE PUSH1 0x40 PUSH1 0x0 KECCAK256 PUSH1 0x0 SWAP2 POP SWAP1 POP DUP1 PUSH1 0x0 ADD SLOAD SWAP1 DUP1 PUSH1 0x1 ADD DUP1 SLOAD PUSH2 0x917 SWAP1 PUSH2 0x1639 JUMP JUMPDEST DUP1 PUSH1 0x1F ADD PUSH1 0x20 DUP1 SWAP2 DIV MUL PUSH1 0x20 ADD PUSH1 0x40 MLOAD SWAP1 DUP2 ADD PUSH1 0x40 MSTORE DUP1 SWAP3 SWAP2 SWAP1 DUP2 DUP2 MSTORE PUSH1 0x20 ADD DUP3 DUP1 SLOAD PUSH2 0x943 SWAP1 PUSH2 0x1639 JUMP JUMPDEST DUP1 ISZERO PUSH2 0x990 JUMPI DUP1 PUSH1 0x1F LT PUSH2 0x965 JUMPI PUSH2 0x100 DUP1 DUP4 SLOAD DIV MUL DUP4 MSTORE SWAP2 PUSH1 0x20 ADD SWAP2 PUSH2 0x990 JUMP JUMPDEST DUP3 ADD SWAP2 SWAP1 PUSH1 0x0 MSTORE PUSH1 0x20 PUSH1 0x0 KECCAK256 SWAP1 JUMPDEST DUP2 SLOAD DUP2 MSTORE SWAP1 PUSH1 0x1 ADD SWAP1 PUSH1 0x20 ADD DUP1 DUP4 GT PUSH2 0x973 JUMPI DUP3 SWAP1 SUB PUSH1 0x1F AND DUP3 ADD SWAP2 JUMPDEST POP POP POP POP POP SWAP1 DUP1 PUSH1 0x2 ADD SLOAD SWAP1 POP DUP4 JUMP JUMPDEST PUSH1 0x8 PUSH1 0x20 MSTORE DUP1 PUSH1 0x0 MSTORE PUSH1 0x40 PUSH1 0x0 KECCAK256 PUSH1 0x0 SWAP2 POP SWAP1 POP DUP1 PUSH1 0x0 ADD PUSH1 0x0 SWAP1 SLOAD SWAP1 PUSH2 0x100 EXP SWAP1 DIV PUSH1 0xFF AND SWAP1 DUP1 PUSH1 0x0 ADD PUSH1 0x1 SWAP1 SLOAD SWAP1 PUSH2 0x100 EXP SWAP1 DIV PUSH1 0xFF AND SWAP1 DUP1 PUSH1 0x1 ADD SLOAD SWAP1 DUP1 PUSH1 0x2 ADD SLOAD SWAP1 DUP1 PUSH1 0x3 ADD SLOAD SWAP1 POP DUP6 JUMP JUMPDEST PUSH1 0x0 DUP1 PUSH1 0x2 DUP2 GT ISZERO PUSH2 0xA05 JUMPI PUSH2 0xA04 PUSH2 0x16E3 JUMP JUMPDEST JUMPDEST PUSH1 0xA PUSH1 0x0 SWAP1 SLOAD SWAP1 PUSH2 0x100 EXP SWAP1 DIV PUSH1 0xFF AND PUSH1 0x2 DUP2 GT ISZERO PUSH2 0xA27 JUMPI PUSH2 0xA26 PUSH2 0x16E3 JUMP JUMPDEST JUMPDEST EQ PUSH2 0xA31 JUMPI PUSH1 0x0 DUP1 REVERT JUMPDEST PUSH1 0x0 DUP1 SLOAD SWAP1 PUSH2 0x100 EXP SWAP1 DIV PUSH20 0xFFFFFFFFFFFFFFFFFFFFFFFFFFFFFFFFFFFFFFFF AND PUSH20 0xFFFFFFFFFFFFFFFFFFFFFFFFFFFFFFFFFFFFFFFF AND CALLER PUSH20 0xFFFFFFFFFFFFFFFFFFFFFFFFFFFFFFFFFFFFFFFF AND EQ PUSH2 0xA89 JUMPI PUSH1 0x0 DUP1 REVERT JUMPDEST PUSH1 0x1 PUSH1 0xA PUSH1 0x0 PUSH2 0x100 EXP DUP2 SLOAD DUP2 PUSH1 0xFF MUL NOT AND SWAP1 DUP4 PUSH1 0x2 DUP2 GT ISZERO PUSH2 0xAAF JUMPI PUSH2 0xAAE PUSH2 0x16E3 JUMP JUMPDEST JUMPDEST MUL OR SWAP1 SSTORE POP POP JUMP JUMPDEST PUSH1 0x0 DUP1 SLOAD SWAP1 PUSH2 0x100 EXP SWAP1 DIV PUSH20 0xFFFFFFFFFFFFFFFFFFFFFFFFFFFFFFFFFFFFFFFF AND DUP2 JUMP JUMPDEST PUSH1 0x9 PUSH1 0x20 MSTORE DUP1 PUSH1 0x0 MSTORE PUSH1 0x40 PUSH1 0x0 KECCAK256 PUSH1 0x0 SWAP2 POP SLOAD SWAP1 PUSH2 0x100 EXP SWAP1 DIV PUSH1 0xFF AND DUP2 JUMP JUMPDEST PUSH1 0x1 DUP1 PUSH1 0x2 DUP2 GT ISZERO PUSH2 0xB10 JUMPI PUSH2 0xB0F PUSH2 0x16E3 JUMP JUMPDEST JUMPDEST PUSH1 0xA PUSH1 0x0 SWAP1 SLOAD SWAP1 PUSH2 0x100 EXP SWAP1 DIV PUSH1 0xFF AND PUSH1 0x2 DUP2 GT ISZERO PUSH2 0xB32 JUMPI PUSH2 0xB31 PUSH2 0x16E3 JUMP JUMPDEST JUMPDEST EQ PUSH2 0xB3C JUMPI PUSH1 0x0 DUP1 REVERT JUMPDEST PUSH1 0x0 DUP1 SLOAD SWAP1 PUSH2 0x100 EXP SWAP1 DIV PUSH20 0xFFFFFFFFFFFFFFFFFFFFFFFFFFFFFFFFFFFFFFFF AND PUSH20 0xFFFFFFFFFFFFFFFFFFFFFFFFFFFFFFFFFFFFFFFF AND CALLER PUSH20 0xFFFFFFFFFFFFFFFFFFFFFFFFFFFFFFFFFFFFFFFF AND EQ PUSH2 0xB94 JUMPI PUSH1 0x0 DUP1 REVERT JUMPDEST PUSH1 0x2 PUSH1 0xA PUSH1 0x0 PUSH2 0x100 EXP DUP2 SLOAD DUP2 PUSH1 0xFF MUL NOT AND SWAP1 DUP4 PUSH1 0x2 DUP2 GT ISZERO PUSH2 0xBBA JUMPI PUSH2 0xBB9 PUSH2 0x16E3 JUMP JUMPDEST JUMPDEST MUL OR SWAP1 SSTORE POP PUSH1 0x4 SLOAD PUSH1 0x5 DUP2 SWAP1 SSTORE POP POP JUMP JUMPDEST PUSH1 0x0 DUP1 PUSH1 0x2 DUP2 GT ISZERO PUSH2 0xBE0 JUMPI PUSH2 0xBDF PUSH2 0x16E3 JUMP JUMPDEST JUMPDEST PUSH1 0xA PUSH1 0x0 SWAP1 SLOAD SWAP1 PUSH2 0x100 EXP SWAP1 DIV PUSH1 0xFF AND PUSH1 0x2 DUP2 GT ISZERO PUSH2 0xC02 JUMPI PUSH2 0xC01 PUSH2 0x16E3 JUMP JUMPDEST JUMPDEST EQ PUSH2 0xC0C JUMPI PUSH1 0x0 DUP1 REVERT JUMPDEST PUSH1 0x0 DUP1 SLOAD SWAP1 PUSH2 0x100 EXP SWAP1 DIV PUSH20 0xFFFFFFFFFFFFFFFFFFFFFFFFFFFFFFFFFFFFFFFF AND PUSH20 0xFFFFFFFFFFFFFFFFFFFFFFFFFFFFFFFFFFFFFFFF AND CALLER PUSH20 0xFFFFFFFFFFFFFFFFFFFFFFFFFFFFFFFFFFFFFFFF AND EQ PUSH2 0xC64 JUMPI PUSH1 0x0 DUP1 REVERT JUMPDEST PUSH1 0x0 ISZERO ISZERO PUSH1 0x8 PUSH1 0x0 DUP6 PUSH20 0xFFFFFFFFFFFFFFFFFFFFFFFFFFFFFFFFFFFFFFFF AND PUSH20 0xFFFFFFFFFFFFFFFFFFFFFFFFFFFFFFFFFFFFFFFF AND DUP2 MSTORE PUSH1 0x20 ADD SWAP1 DUP2 MSTORE PUSH1 0x20 ADD PUSH1 0x0 KECCAK256 PUSH1 0x0 ADD PUSH1 0x0 SWAP1 SLOAD SWAP1 PUSH2 0x100 EXP SWAP1 DIV PUSH1 0xFF AND ISZERO ISZERO EQ PUSH2 0xCFA JUMPI PUSH1 0x40 MLOAD PUSH32 0x8C379A000000000000000000000000000000000000000000000000000000000 DUP2 MSTORE PUSH1 0x4 ADD PUSH2 0xCF1 SWAP1 PUSH2 0x144C JUMP JUMPDEST PUSH1 0x40 MLOAD DUP1 SWAP2 SUB SWAP1 REVERT JUMPDEST PUSH1 0x1 DUP3 LT ISZERO DUP1 ISZERO PUSH2 0xD0D JUMPI POP PUSH1 0x2 SLOAD DUP3 GT ISZERO JUMPDEST PUSH2 0xD4C JUMPI PUSH1 0x40 MLOAD PUSH32 0x8C379A000000000000000000000000000000000000000000000000000000000 DUP2 MSTORE PUSH1 0x4 ADD PUSH2 0xD43 SWAP1 PUSH2 0x142C JUMP JUMPDEST PUSH1 0x40 MLOAD DUP1 SWAP2 SUB SWAP1 REVERT JUMPDEST PUSH2 0xD54 PUSH2 0xFCC JUMP JUMPDEST PUSH1 0x1 DUP2 PUSH1 0x0 ADD SWAP1 ISZERO ISZERO SWAP1 DUP2 ISZERO ISZERO DUP2 MSTORE POP POP PUSH1 0x0 DUP2 PUSH1 0x20 ADD SWAP1 ISZERO ISZERO SWAP1 DUP2 ISZERO ISZERO DUP2 MSTORE POP POP PUSH1 0x0 DUP2 PUSH1 0x40 ADD DUP2 DUP2 MSTORE POP POP DUP3 DUP2 PUSH1 0x60 ADD DUP2 DUP2 MSTORE POP POP PUSH1 0x0 DUP2 PUSH1 0x80 ADD DUP2 DUP2 MSTORE POP POP DUP1 PUSH1 0x8 PUSH1 0x0 DUP7 PUSH20 0xFFFFFFFFFFFFFFFFFFFFFFFFFFFFFFFFFFFFFFFF AND PUSH20 0xFFFFFFFFFFFFFFFFFFFFFFFFFFFFFFFFFFFFFFFF AND DUP2 MSTORE PUSH1 0x20 ADD SWAP1 DUP2 MSTORE PUSH1 0x20 ADD PUSH1 0x0 KECCAK256 PUSH1 0x0 DUP3 ADD MLOAD DUP2 PUSH1 0x0 ADD PUSH1 0x0 PUSH2 0x100 EXP DUP2 SLOAD DUP2 PUSH1 0xFF MUL NOT AND SWAP1 DUP4 ISZERO ISZERO MUL OR SWAP1 SSTORE POP PUSH1 0x20 DUP3 ADD MLOAD DUP2 PUSH1 0x0 ADD PUSH1 0x1 PUSH2 0x100 EXP DUP2 SLOAD DUP2 PUSH1 0xFF MUL NOT AND SWAP1 DUP4 ISZERO ISZERO MUL OR SWAP1 SSTORE POP PUSH1 0x40 DUP3 ADD MLOAD DUP2 PUSH1 0x1 ADD SSTORE PUSH1 0x60 DUP3 ADD MLOAD DUP2 PUSH1 0x2 ADD SSTORE PUSH1 0x80 DUP3 ADD MLOAD DUP2 PUSH1 0x3 ADD SSTORE SWAP1 POP POP PUSH2 0xE40 DUP4 PUSH2 0xF35 JUMP JUMPDEST PUSH1 0x3 PUSH1 0x0 DUP2 SLOAD DUP1 SWAP3 SWAP2 SWAP1 PUSH2 0xE53 SWAP1 PUSH2 0x166B JUMP JUMPDEST SWAP2 SWAP1 POP SSTORE POP POP POP POP POP JUMP JUMPDEST PUSH1 0xA PUSH1 0x0 SWAP1 SLOAD SWAP1 PUSH2 0x100 EXP SWAP1 DIV PUSH1 0xFF AND DUP2 JUMP JUMPDEST PUSH1 0x2 SLOAD DUP2 JUMP JUMPDEST PUSH1 0x5 SLOAD DUP2 JUMP JUMPDEST PUSH1 0x7 PUSH1 0x20 MSTORE DUP1 PUSH1 0x0 MSTORE PUSH1 0x40 PUSH1 0x0 KECCAK256 PUSH1 0x0 SWAP2 POP SWAP1 POP DUP1 PUSH1 0x0 ADD SLOAD SWAP1 DUP1 PUSH1 0x1 ADD DUP1 SLOAD PUSH2 0xEA6 SWAP1 PUSH2 0x1639 JUMP JUMPDEST DUP1 PUSH1 0x1F ADD PUSH1 0x20 DUP1 SWAP2 DIV MUL PUSH1 0x20 ADD PUSH1 0x40 MLOAD SWAP1 DUP2 ADD PUSH1 0x40 MSTORE DUP1 SWAP3 SWAP2 SWAP1 DUP2 DUP2 MSTORE PUSH1 0x20 ADD DUP3 DUP1 SLOAD PUSH2 0xED2 SWAP1 PUSH2 0x1639 JUMP JUMPDEST DUP1 ISZERO PUSH2 0xF1F JUMPI DUP1 PUSH1 0x1F LT PUSH2 0xEF4 JUMPI PUSH2 0x100 DUP1 DUP4 SLOAD DIV MUL DUP4 MSTORE SWAP2 PUSH1 0x20 ADD SWAP2 PUSH2 0xF1F JUMP JUMPDEST DUP3 ADD SWAP2 SWAP1 PUSH1 0x0 MSTORE PUSH1 0x20 PUSH1 0x0 KECCAK256 SWAP1 JUMPDEST DUP2 SLOAD DUP2 MSTORE SWAP1 PUSH1 0x1 ADD SWAP1 PUSH1 0x20 ADD DUP1 DUP4 GT PUSH2 0xF02 JUMPI DUP3 SWAP1 SUB PUSH1 0x1F AND DUP3 ADD SWAP2 JUMPDEST POP POP POP POP POP SWAP1 DUP1 PUSH1 0x2 ADD SLOAD SWAP1 DUP1 PUSH1 0x3 ADD SLOAD SWAP1 POP DUP5 JUMP JUMPDEST PUSH1 0x0 PUSH1 0x1 SWAP1 POP JUMPDEST PUSH1 0x2 SLOAD DUP2 GT PUSH2 0xFA7 JUMPI DUP2 PUSH1 0x7 PUSH1 0x0 DUP4 DUP2 MSTORE PUSH1 0x20 ADD SWAP1 DUP2 MSTORE PUSH1 0x20 ADD PUSH1 0x0 KECCAK256 PUSH1 0x0 ADD SLOAD EQ ISZERO PUSH2 0xF94 JUMPI PUSH1 0x7 PUSH1 0x0 DUP3 DUP2 MSTORE PUSH1 0x20 ADD SWAP1 DUP2 MSTORE PUSH1 0x20 ADD PUSH1 0x0 KECCAK256 PUSH1 0x2 ADD PUSH1 0x0 DUP2 SLOAD DUP1 SWAP3 SWAP2 SWAP1 PUSH2 0xF8A SWAP1 PUSH2 0x166B JUMP JUMPDEST SWAP2 SWAP1 POP SSTORE POP PUSH2 0xFA7 JUMP JUMPDEST DUP1 DUP1 PUSH2 0xF9F SWAP1 PUSH2 0x166B JUMP JUMPDEST SWAP2 POP POP PUSH2 0xF3C JUMP JUMPDEST POP POP JUMP JUMPDEST PUSH1 0x40 MLOAD DUP1 PUSH1 0x60 ADD PUSH1 0x40 MSTORE DUP1 PUSH1 0x0 DUP2 MSTORE PUSH1 0x20 ADD PUSH1 0x60 DUP2 MSTORE PUSH1 0x20 ADD PUSH1 0x0 DUP2 MSTORE POP SWAP1 JUMP JUMPDEST PUSH1 0x40 MLOAD DUP1 PUSH1 0xA0 ADD PUSH1 0x40 MSTORE DUP1 PUSH1 0x0 ISZERO ISZERO DUP2 MSTORE PUSH1 0x20 ADD PUSH1 0x0 ISZERO ISZERO DUP2 MSTORE PUSH1 0x20 ADD PUSH1 0x0 DUP2 MSTORE PUSH1 0x20 ADD PUSH1 0x0 DUP2 MSTORE PUSH1 0x20 ADD PUSH1 0x0 DUP2 MSTORE POP SWAP1 JUMP JUMPDEST PUSH1 0x0 DUP2 CALLDATALOAD SWAP1 POP PUSH2 0x100E DUP2 PUSH2 0x1841 JUMP JUMPDEST SWAP3 SWAP2 POP POP JUMP JUMPDEST PUSH1 0x0 DUP2 CALLDATALOAD SWAP1 POP PUSH2 0x1023 DUP2 PUSH2 0x1858 JUMP JUMPDEST SWAP3 SWAP2 POP POP JUMP JUMPDEST PUSH1 0x0 PUSH1 0x20 DUP3 DUP5 SUB SLT ISZERO PUSH2 0x103F JUMPI PUSH2 0x103E PUSH2 0x179F JUMP JUMPDEST JUMPDEST PUSH1 0x0 PUSH2 0x104D DUP5 DUP3 DUP6 ADD PUSH2 0xFFF JUMP JUMPDEST SWAP2 POP POP SWAP3 SWAP2 POP POP JUMP JUMPDEST PUSH1 0x0 DUP1 PUSH1 0x40 DUP4 DUP6 SUB SLT ISZERO PUSH2 0x106D JUMPI PUSH2 0x106C PUSH2 0x179F JUMP JUMPDEST JUMPDEST PUSH1 0x0 PUSH2 0x107B DUP6 DUP3 DUP7 ADD PUSH2 0xFFF JUMP JUMPDEST SWAP3 POP POP PUSH1 0x20 PUSH2 0x108C DUP6 DUP3 DUP7 ADD PUSH2 0x1014 JUMP JUMPDEST SWAP2 POP POP SWAP3 POP SWAP3 SWAP1 POP JUMP JUMPDEST PUSH1 0x0 PUSH1 0x20 DUP3 DUP5 SUB SLT ISZERO PUSH2 0x10AC JUMPI PUSH2 0x10AB PUSH2 0x179F JUMP JUMPDEST JUMPDEST PUSH1 0x0 PUSH2 0x10BA DUP5 DUP3 DUP6 ADD PUSH2 0x1014 JUMP JUMPDEST SWAP2 POP POP SWAP3 SWAP2 POP POP JUMP JUMPDEST PUSH1 0x0 DUP1 PUSH1 0x40 DUP4 DUP6 SUB SLT ISZERO PUSH2 0x10DA JUMPI PUSH2 0x10D9 PUSH2 0x179F JUMP JUMPDEST JUMPDEST PUSH1 0x0 PUSH2 0x10E8 DUP6 DUP3 DUP7 ADD PUSH2 0x1014 JUMP JUMPDEST SWAP3 POP POP PUSH1 0x20 PUSH2 0x10F9 DUP6 DUP3 DUP7 ADD PUSH2 0x1014 JUMP JUMPDEST SWAP2 POP POP SWAP3 POP SWAP3 SWAP1 POP JUMP JUMPDEST PUSH1 0x0 PUSH2 0x110F DUP4 DUP4 PUSH2 0x1271 JUMP JUMPDEST SWAP1 POP SWAP3 SWAP2 POP POP JUMP JUMPDEST PUSH2 0x1120 DUP2 PUSH2 0x1599 JUMP JUMPDEST DUP3 MSTORE POP POP JUMP JUMPDEST PUSH1 0x0 PUSH2 0x1131 DUP3 PUSH2 0x1543 JUMP JUMPDEST PUSH2 0x113B DUP2 DUP6 PUSH2 0x1566 JUMP JUMPDEST SWAP4 POP DUP4 PUSH1 0x20 DUP3 MUL DUP6 ADD PUSH2 0x114D DUP6 PUSH2 0x1533 JUMP JUMPDEST DUP1 PUSH1 0x0 JUMPDEST DUP6 DUP2 LT ISZERO PUSH2 0x1189 JUMPI DUP5 DUP5 SUB DUP10 MSTORE DUP2 MLOAD PUSH2 0x116A DUP6 DUP3 PUSH2 0x1103 JUMP JUMPDEST SWAP5 POP PUSH2 0x1175 DUP4 PUSH2 0x1559 JUMP JUMPDEST SWAP3 POP PUSH1 0x20 DUP11 ADD SWAP10 POP POP PUSH1 0x1 DUP2 ADD SWAP1 POP PUSH2 0x1151 JUMP JUMPDEST POP DUP3 SWAP8 POP DUP8 SWAP6 POP POP POP POP POP POP SWAP3 SWAP2 POP POP JUMP JUMPDEST PUSH2 0x11A4 DUP2 PUSH2 0x15AB JUMP JUMPDEST DUP3 MSTORE POP POP JUMP JUMPDEST PUSH2 0x11B3 DUP2 PUSH2 0x15F4 JUMP JUMPDEST DUP3 MSTORE POP POP JUMP JUMPDEST PUSH1 0x0 PUSH2 0x11C4 DUP3 PUSH2 0x154E JUMP JUMPDEST PUSH2 0x11CE DUP2 DUP6 PUSH2 0x1577 JUMP JUMPDEST SWAP4 POP PUSH2 0x11DE DUP2 DUP6 PUSH1 0x20 DUP7 ADD PUSH2 0x1606 JUMP JUMPDEST PUSH2 0x11E7 DUP2 PUSH2 0x17A4 JUMP JUMPDEST DUP5 ADD SWAP2 POP POP SWAP3 SWAP2 POP POP JUMP JUMPDEST PUSH1 0x0 PUSH2 0x11FD DUP3 PUSH2 0x154E JUMP JUMPDEST PUSH2 0x1207 DUP2 DUP6 PUSH2 0x1588 JUMP JUMPDEST SWAP4 POP PUSH2 0x1217 DUP2 DUP6 PUSH1 0x20 DUP7 ADD PUSH2 0x1606 JUMP JUMPDEST PUSH2 0x1220 DUP2 PUSH2 0x17A4 JUMP JUMPDEST DUP5 ADD SWAP2 POP POP SWAP3 SWAP2 POP POP JUMP JUMPDEST PUSH1 0x0 PUSH2 0x1238 PUSH1 0x2A DUP4 PUSH2 0x1588 JUMP JUMPDEST SWAP2 POP PUSH2 0x1243 DUP3 PUSH2 0x17B5 JUMP JUMPDEST PUSH1 0x40 DUP3 ADD SWAP1 POP SWAP2 SWAP1 POP JUMP JUMPDEST PUSH1 0x0 PUSH2 0x125B PUSH1 0x1C DUP4 PUSH2 0x1588 JUMP JUMPDEST SWAP2 POP PUSH2 0x1266 DUP3 PUSH2 0x1804 JUMP JUMPDEST PUSH1 0x20 DUP3 ADD SWAP1 POP SWAP2 SWAP1 POP JUMP JUMPDEST PUSH1 0x0 PUSH1 0x60 DUP4 ADD PUSH1 0x0 DUP4 ADD MLOAD PUSH2 0x1289 PUSH1 0x0 DUP7 ADD DUP3 PUSH2 0x1311 JUMP JUMPDEST POP PUSH1 0x20 DUP4 ADD MLOAD DUP5 DUP3 SUB PUSH1 0x20 DUP7 ADD MSTORE PUSH2 0x12A1 DUP3 DUP3 PUSH2 0x11B9 JUMP JUMPDEST SWAP2 POP POP PUSH1 0x40 DUP4 ADD MLOAD PUSH2 0x12B6 PUSH1 0x40 DUP7 ADD DUP3 PUSH2 0x1311 JUMP JUMPDEST POP DUP1 SWAP2 POP POP SWAP3 SWAP2 POP POP JUMP JUMPDEST PUSH1 0x0 PUSH1 0x60 DUP4 ADD PUSH1 0x0 DUP4 ADD MLOAD PUSH2 0x12D9 PUSH1 0x0 DUP7 ADD DUP3 PUSH2 0x1311 JUMP JUMPDEST POP PUSH1 0x20 DUP4 ADD MLOAD DUP5 DUP3 SUB PUSH1 0x20 DUP7 ADD MSTORE PUSH2 0x12F1 DUP3 DUP3 PUSH2 0x11B9 JUMP JUMPDEST SWAP2 POP POP PUSH1 0x40 DUP4 ADD MLOAD PUSH2 0x1306 PUSH1 0x40 DUP7 ADD DUP3 PUSH2 0x1311 JUMP JUMPDEST POP DUP1 SWAP2 POP POP SWAP3 SWAP2 POP POP JUMP JUMPDEST PUSH2 0x131A DUP2 PUSH2 0x15EA JUMP JUMPDEST DUP3 MSTORE POP POP JUMP JUMPDEST PUSH2 0x1329 DUP2 PUSH2 0x15EA JUMP JUMPDEST DUP3 MSTORE POP POP JUMP JUMPDEST PUSH1 0x0 PUSH1 0x20 DUP3 ADD SWAP1 POP PUSH2 0x1344 PUSH1 0x0 DUP4 ADD DUP5 PUSH2 0x1117 JUMP JUMPDEST SWAP3 SWAP2 POP POP JUMP JUMPDEST PUSH1 0x0 PUSH1 0x20 DUP3 ADD SWAP1 POP DUP2 DUP2 SUB PUSH1 0x0 DUP4 ADD MSTORE PUSH2 0x1364 DUP2 DUP5 PUSH2 0x1126 JUMP JUMPDEST SWAP1 POP SWAP3 SWAP2 POP POP JUMP JUMPDEST PUSH1 0x0 PUSH1 0x20 DUP3 ADD SWAP1 POP PUSH2 0x1381 PUSH1 0x0 DUP4 ADD DUP5 PUSH2 0x119B JUMP JUMPDEST SWAP3 SWAP2 POP POP JUMP JUMPDEST PUSH1 0x0 PUSH1 0xA0 DUP3 ADD SWAP1 POP PUSH2 0x139C PUSH1 0x0 DUP4 ADD DUP9 PUSH2 0x119B JUMP JUMPDEST PUSH2 0x13A9 PUSH1 0x20 DUP4 ADD DUP8 PUSH2 0x119B JUMP JUMPDEST PUSH2 0x13B6 PUSH1 0x40 DUP4 ADD DUP7 PUSH2 0x1320 JUMP JUMPDEST PUSH2 0x13C3 PUSH1 0x60 DUP4 ADD DUP6 PUSH2 0x1320 JUMP JUMPDEST PUSH2 0x13D0 PUSH1 0x80 DUP4 ADD DUP5 PUSH2 0x1320 JUMP JUMPDEST SWAP7 SWAP6 POP POP POP POP POP POP JUMP JUMPDEST PUSH1 0x0 PUSH1 0x60 DUP3 ADD SWAP1 POP PUSH2 0x13EF PUSH1 0x0 DUP4 ADD DUP7 PUSH2 0x119B JUMP JUMPDEST PUSH2 0x13FC PUSH1 0x20 DUP4 ADD DUP6 PUSH2 0x1320 JUMP JUMPDEST PUSH2 0x1409 PUSH1 0x40 DUP4 ADD DUP5 PUSH2 0x1320 JUMP JUMPDEST SWAP5 SWAP4 POP POP POP POP JUMP JUMPDEST PUSH1 0x0 PUSH1 0x20 DUP3 ADD SWAP1 POP PUSH2 0x1426 PUSH1 0x0 DUP4 ADD DUP5 PUSH2 0x11AA JUMP JUMPDEST SWAP3 SWAP2 POP POP JUMP JUMPDEST PUSH1 0x0 PUSH1 0x20 DUP3 ADD SWAP1 POP DUP2 DUP2 SUB PUSH1 0x0 DUP4 ADD MSTORE PUSH2 0x1445 DUP2 PUSH2 0x122B JUMP JUMPDEST SWAP1 POP SWAP2 SWAP1 POP JUMP JUMPDEST PUSH1 0x0 PUSH1 0x20 DUP3 ADD SWAP1 POP DUP2 DUP2 SUB PUSH1 0x0 DUP4 ADD MSTORE PUSH2 0x1465 DUP2 PUSH2 0x124E JUMP JUMPDEST SWAP1 POP SWAP2 SWAP1 POP JUMP JUMPDEST PUSH1 0x0 PUSH1 0x20 DUP3 ADD SWAP1 POP DUP2 DUP2 SUB PUSH1 0x0 DUP4 ADD MSTORE PUSH2 0x1486 DUP2 DUP5 PUSH2 0x12C1 JUMP JUMPDEST SWAP1 POP SWAP3 SWAP2 POP POP JUMP JUMPDEST PUSH1 0x0 PUSH1 0x20 DUP3 ADD SWAP1 POP PUSH2 0x14A3 PUSH1 0x0 DUP4 ADD DUP5 PUSH2 0x1320 JUMP JUMPDEST SWAP3 SWAP2 POP POP JUMP JUMPDEST PUSH1 0x0 PUSH1 0x60 DUP3 ADD SWAP1 POP PUSH2 0x14BE PUSH1 0x0 DUP4 ADD DUP7 PUSH2 0x1320 JUMP JUMPDEST DUP2 DUP2 SUB PUSH1 0x20 DUP4 ADD MSTORE PUSH2 0x14D0 DUP2 DUP6 PUSH2 0x11F2 JUMP JUMPDEST SWAP1 POP PUSH2 0x14DF PUSH1 0x40 DUP4 ADD DUP5 PUSH2 0x1320 JUMP JUMPDEST SWAP5 SWAP4 POP POP POP POP JUMP JUMPDEST PUSH1 0x0 PUSH1 0x80 DUP3 ADD SWAP1 POP PUSH2 0x14FC PUSH1 0x0 DUP4 ADD DUP8 PUSH2 0x1320 JUMP JUMPDEST DUP2 DUP2 SUB PUSH1 0x20 DUP4 ADD MSTORE PUSH2 0x150E DUP2 DUP7 PUSH2 0x11F2 JUMP JUMPDEST SWAP1 POP PUSH2 0x151D PUSH1 0x40 DUP4 ADD DUP6 PUSH2 0x1320 JUMP JUMPDEST PUSH2 0x152A PUSH1 0x60 DUP4 ADD DUP5 PUSH2 0x1320 JUMP JUMPDEST SWAP6 SWAP5 POP POP POP POP POP JUMP JUMPDEST PUSH1 0x0 DUP2 SWAP1 POP PUSH1 0x20 DUP3 ADD SWAP1 POP SWAP2 SWAP1 POP JUMP JUMPDEST PUSH1 0x0 DUP2 MLOAD SWAP1 POP SWAP2 SWAP1 POP JUMP JUMPDEST PUSH1 0x0 DUP2 MLOAD SWAP1 POP SWAP2 SWAP1 POP JUMP JUMPDEST PUSH1 0x0 PUSH1 0x20 DUP3 ADD SWAP1 POP SWAP2 SWAP1 POP JUMP JUMPDEST PUSH1 0x0 DUP3 DUP3 MSTORE PUSH1 0x20 DUP3 ADD SWAP1 POP SWAP3 SWAP2 POP POP JUMP JUMPDEST PUSH1 0x0 DUP3 DUP3 MSTORE PUSH1 0x20 DUP3 ADD SWAP1 POP SWAP3 SWAP2 POP POP JUMP JUMPDEST PUSH1 0x0 DUP3 DUP3 MSTORE PUSH1 0x20 DUP3 ADD SWAP1 POP SWAP3 SWAP2 POP POP JUMP JUMPDEST PUSH1 0x0 PUSH2 0x15A4 DUP3 PUSH2 0x15CA JUMP JUMPDEST SWAP1 POP SWAP2 SWAP1 POP JUMP JUMPDEST PUSH1 0x0 DUP2 ISZERO ISZERO SWAP1 POP SWAP2 SWAP1 POP JUMP JUMPDEST PUSH1 0x0 DUP2 SWAP1 POP PUSH2 0x15C5 DUP3 PUSH2 0x182D JUMP JUMPDEST SWAP2 SWAP1 POP JUMP JUMPDEST PUSH1 0x0 PUSH20 0xFFFFFFFFFFFFFFFFFFFFFFFFFFFFFFFFFFFFFFFF DUP3 AND SWAP1 POP SWAP2 SWAP1 POP JUMP JUMPDEST PUSH1 0x0 DUP2 SWAP1 POP SWAP2 SWAP1 POP JUMP JUMPDEST PUSH1 0x0 PUSH2 0x15FF DUP3 PUSH2 0x15B7 JUMP JUMPDEST SWAP1 POP SWAP2 SWAP1 POP JUMP JUMPDEST PUSH1 0x0 JUMPDEST DUP4 DUP2 LT ISZERO PUSH2 0x1624 JUMPI DUP1 DUP3 ADD MLOAD DUP2 DUP5 ADD MSTORE PUSH1 0x20 DUP2 ADD SWAP1 POP PUSH2 0x1609 JUMP JUMPDEST DUP4 DUP2 GT ISZERO PUSH2 0x1633 JUMPI PUSH1 0x0 DUP5 DUP5 ADD MSTORE JUMPDEST POP POP POP POP JUMP JUMPDEST PUSH1 0x0 PUSH1 0x2 DUP3 DIV SWAP1 POP PUSH1 0x1 DUP3 AND DUP1 PUSH2 0x1651 JUMPI PUSH1 0x7F DUP3 AND SWAP2 POP JUMPDEST PUSH1 0x20 DUP3 LT DUP2 EQ ISZERO PUSH2 0x1665 JUMPI PUSH2 0x1664 PUSH2 0x1712 JUMP JUMPDEST JUMPDEST POP SWAP2 SWAP1 POP JUMP JUMPDEST PUSH1 0x0 PUSH2 0x1676 DUP3 PUSH2 0x15EA JUMP JUMPDEST SWAP2 POP PUSH32 0xFFFFFFFFFFFFFFFFFFFFFFFFFFFFFFFFFFFFFFFFFFFFFFFFFFFFFFFFFFFFFFFF DUP3 EQ ISZERO PUSH2 0x16A9 JUMPI PUSH2 0x16A8 PUSH2 0x16B4 JUMP JUMPDEST JUMPDEST PUSH1 0x1 DUP3 ADD SWAP1 POP SWAP2 SWAP1 POP JUMP JUMPDEST PUSH32 0x4E487B7100000000000000000000000000000000000000000000000000000000 PUSH1 0x0 MSTORE PUSH1 0x11 PUSH1 0x4 MSTORE PUSH1 0x24 PUSH1 0x0 REVERT JUMPDEST PUSH32 0x4E487B7100000000000000000000000000000000000000000000000000000000 PUSH1 0x0 MSTORE PUSH1 0x21 PUSH1 0x4 MSTORE PUSH1 0x24 PUSH1 0x0 REVERT JUMPDEST PUSH32 0x4E487B7100000000000000000000000000000000000000000000000000000000 PUSH1 0x0 MSTORE PUSH1 0x22 PUSH1 0x4 MSTORE PUSH1 0x24 PUSH1 0x0 REVERT JUMPDEST PUSH32 0x4E487B7100000000000000000000000000000000000000000000000000000000 PUSH1 0x0 MSTORE PUSH1 0x32 PUSH1 0x4 MSTORE PUSH1 0x24 PUSH1 0x0 REVERT JUMPDEST PUSH32 0x4E487B7100000000000000000000000000000000000000000000000000000000 PUSH1 0x0 MSTORE PUSH1 0x41 PUSH1 0x4 MSTORE PUSH1 0x24 PUSH1 0x0 REVERT JUMPDEST PUSH1 0x0 DUP1 REVERT JUMPDEST PUSH1 0x0 PUSH1 0x1F NOT PUSH1 0x1F DUP4 ADD AND SWAP1 POP SWAP2 SWAP1 POP JUMP JUMPDEST PUSH32 0x506C656173652070726F7669646520612076616C696420706F6C6C696E672073 PUSH1 0x0 DUP3 ADD MSTORE PUSH32 0x746174696F6E2049442E00000000000000000000000000000000000000000000 PUSH1 0x20 DUP3 ADD MSTORE POP JUMP JUMPDEST PUSH32 0x566F74657220697320616C726561647920726567697374657265642E00000000 PUSH1 0x0 DUP3 ADD MSTORE POP JUMP JUMPDEST PUSH1 0x3 DUP2 LT PUSH2 0x183E JUMPI PUSH2 0x183D PUSH2 0x16E3 JUMP JUMPDEST JUMPDEST POP JUMP JUMPDEST PUSH2 0x184A DUP2 PUSH2 0x1599 JUMP JUMPDEST DUP2 EQ PUSH2 0x1855 JUMPI PUSH1 0x0 DUP1 REVERT JUMPDEST POP JUMP JUMPDEST PUSH2 0x1861 DUP2 PUSH2 0x15EA JUMP JUMPDEST DUP2 EQ PUSH2 0x186C JUMPI PUSH1 0x0 DUP1 REVERT JUMPDEST POP JUMP INVALID LOG2 PUSH5 0x6970667358 0x22 SLT KECCAK256 SWAP2 LOG1 RETURNDATASIZE NOT 0xFC 0xF7 DUP2 BYTE PUSH1 0xBF 0xD6 0x4A EQ 0xDA PUSH15 0xBF3D41317932B3B74A936889D6A1FD JUMPDEST 0xAC PUSH5 0x736F6C6343 STOP ADDMOD SMOD STOP CALLER "
				},
				"gasEstimates": {
					"creation": {
						"codeDepositCost": "1261800",
						"executionCost": "infinite",
						"totalCost": "infinite"
					},
					"external": {
						"addVoter(address,uint256)": "infinite",
						"candidates(uint256)": "infinite",
						"candidatesCount()": "2452",
						"castVote(uint256,uint256)": "infinite",
						"electionOwner()": "2534",
						"endVote()": "53095",
						"finalResult()": "2495",
						"getResultsPerStation(uint256)": "infinite",
						"getResultsPerStation(uint256,uint256)": "infinite",
						"pollingStationCount()": "2473",
						"pollingStations(uint256)": "infinite",
						"startVote()": "28903",
						"state()": "2582",
						"totalRegisteredVoters()": "2453",
						"voterRegistry(address)": "infinite",
						"voters(address)": "2890"
					},
					"internal": {
						"addCandidate(string memory)": "infinite",
						"addPollingStation(string memory)": "infinite",
						"initCandidates()": "infinite",
						"initPollingStations()": "infinite",
						"registerAtPollingStation(uint256)": "28818"
					}
				},
				"methodIdentifiers": {
					"addVoter(address,uint256)": "b9f05f2f",
					"candidates(uint256)": "3477ee2e",
					"candidatesCount()": "2d35a8a2",
					"castVote(uint256,uint256)": "2c0a3f89",
					"electionOwner()": "53357ad0",
					"endVote()": "b9223946",
					"finalResult()": "f3a8286f",
					"getResultsPerStation(uint256)": "23a1b11c",
					"getResultsPerStation(uint256,uint256)": "032d0b0a",
					"pollingStationCount()": "df9f1a07",
					"pollingStations(uint256)": "fe2442d7",
					"startVote()": "4c0a6af0",
					"state()": "c19d93fb",
					"totalRegisteredVoters()": "00aa7464",
					"voterRegistry(address)": "4763d4e7",
					"voters(address)": "a3ec138d"
				}
			},
			"storageLayout": {
				"storage": [
					{
						"astId": 35,
						"contract": "contracts/ergasia.sol:Election",
						"label": "electionOwner",
						"offset": 0,
						"slot": "0",
						"type": "t_address"
					},
					{
						"astId": 37,
						"contract": "contracts/ergasia.sol:Election",
						"label": "candidatesCount",
						"offset": 0,
						"slot": "1",
						"type": "t_uint256"
					},
					{
						"astId": 39,
						"contract": "contracts/ergasia.sol:Election",
						"label": "pollingStationCount",
						"offset": 0,
						"slot": "2",
						"type": "t_uint256"
					},
					{
						"astId": 41,
						"contract": "contracts/ergasia.sol:Election",
						"label": "totalRegisteredVoters",
						"offset": 0,
						"slot": "3",
						"type": "t_uint256"
					},
					{
						"astId": 43,
						"contract": "contracts/ergasia.sol:Election",
						"label": "countResult",
						"offset": 0,
						"slot": "4",
						"type": "t_uint256"
					},
					{
						"astId": 45,
						"contract": "contracts/ergasia.sol:Election",
						"label": "finalResult",
						"offset": 0,
						"slot": "5",
						"type": "t_uint256"
					},
					{
						"astId": 50,
						"contract": "contracts/ergasia.sol:Election",
						"label": "candidates",
						"offset": 0,
						"slot": "6",
						"type": "t_mapping(t_uint256,t_struct(Candidate)8_storage)"
					},
					{
						"astId": 55,
						"contract": "contracts/ergasia.sol:Election",
						"label": "pollingStations",
						"offset": 0,
						"slot": "7",
						"type": "t_mapping(t_uint256,t_struct(PollingStation)22_storage)"
					},
					{
						"astId": 60,
						"contract": "contracts/ergasia.sol:Election",
						"label": "voterRegistry",
						"offset": 0,
						"slot": "8",
						"type": "t_mapping(t_address,t_struct(Voter)33_storage)"
					},
					{
						"astId": 64,
						"contract": "contracts/ergasia.sol:Election",
						"label": "voters",
						"offset": 0,
						"slot": "9",
						"type": "t_mapping(t_address,t_bool)"
					},
					{
						"astId": 71,
						"contract": "contracts/ergasia.sol:Election",
						"label": "state",
						"offset": 0,
						"slot": "10",
						"type": "t_enum(State)68"
					}
				],
				"types": {
					"t_address": {
						"encoding": "inplace",
						"label": "address",
						"numberOfBytes": "20"
					},
					"t_bool": {
						"encoding": "inplace",
						"label": "bool",
						"numberOfBytes": "1"
					},
					"t_enum(State)68": {
						"encoding": "inplace",
						"label": "enum Election.State",
						"numberOfBytes": "1"
					},
					"t_mapping(t_address,t_bool)": {
						"encoding": "mapping",
						"key": "t_address",
						"label": "mapping(address => bool)",
						"numberOfBytes": "32",
						"value": "t_bool"
					},
					"t_mapping(t_address,t_struct(Voter)33_storage)": {
						"encoding": "mapping",
						"key": "t_address",
						"label": "mapping(address => struct Election.Voter)",
						"numberOfBytes": "32",
						"value": "t_struct(Voter)33_storage"
					},
					"t_mapping(t_uint256,t_struct(Candidate)8_storage)": {
						"encoding": "mapping",
						"key": "t_uint256",
						"label": "mapping(uint256 => struct Election.Candidate)",
						"numberOfBytes": "32",
						"value": "t_struct(Candidate)8_storage"
					},
					"t_mapping(t_uint256,t_struct(PollingStation)22_storage)": {
						"encoding": "mapping",
						"key": "t_uint256",
						"label": "mapping(uint256 => struct Election.PollingStation)",
						"numberOfBytes": "32",
						"value": "t_struct(PollingStation)22_storage"
					},
					"t_string_storage": {
						"encoding": "bytes",
						"label": "string",
						"numberOfBytes": "32"
					},
					"t_struct(Candidate)8_storage": {
						"encoding": "inplace",
						"label": "struct Election.Candidate",
						"members": [
							{
								"astId": 3,
								"contract": "contracts/ergasia.sol:Election",
								"label": "id",
								"offset": 0,
								"slot": "0",
								"type": "t_uint256"
							},
							{
								"astId": 5,
								"contract": "contracts/ergasia.sol:Election",
								"label": "name",
								"offset": 0,
								"slot": "1",
								"type": "t_string_storage"
							},
							{
								"astId": 7,
								"contract": "contracts/ergasia.sol:Election",
								"label": "votes",
								"offset": 0,
								"slot": "2",
								"type": "t_uint256"
							}
						],
						"numberOfBytes": "96"
					},
					"t_struct(PollingStation)22_storage": {
						"encoding": "inplace",
						"label": "struct Election.PollingStation",
						"members": [
							{
								"astId": 10,
								"contract": "contracts/ergasia.sol:Election",
								"label": "id",
								"offset": 0,
								"slot": "0",
								"type": "t_uint256"
							},
							{
								"astId": 12,
								"contract": "contracts/ergasia.sol:Election",
								"label": "name",
								"offset": 0,
								"slot": "1",
								"type": "t_string_storage"
							},
							{
								"astId": 14,
								"contract": "contracts/ergasia.sol:Election",
								"label": "votersRegistered",
								"offset": 0,
								"slot": "2",
								"type": "t_uint256"
							},
							{
								"astId": 16,
								"contract": "contracts/ergasia.sol:Election",
								"label": "votesCasted",
								"offset": 0,
								"slot": "3",
								"type": "t_uint256"
							},
							{
								"astId": 21,
								"contract": "contracts/ergasia.sol:Election",
								"label": "scoresPerCandidate",
								"offset": 0,
								"slot": "4",
								"type": "t_mapping(t_uint256,t_struct(Candidate)8_storage)"
							}
						],
						"numberOfBytes": "160"
					},
					"t_struct(Voter)33_storage": {
						"encoding": "inplace",
						"label": "struct Election.Voter",
						"members": [
							{
								"astId": 24,
								"contract": "contracts/ergasia.sol:Election",
								"label": "isEnrolled",
								"offset": 0,
								"slot": "0",
								"type": "t_bool"
							},
							{
								"astId": 26,
								"contract": "contracts/ergasia.sol:Election",
								"label": "hasVoted",
								"offset": 1,
								"slot": "0",
								"type": "t_bool"
							},
							{
								"astId": 28,
								"contract": "contracts/ergasia.sol:Election",
								"label": "choice",
								"offset": 0,
								"slot": "1",
								"type": "t_uint256"
							},
							{
								"astId": 30,
								"contract": "contracts/ergasia.sol:Election",
								"label": "enrolledPollingStationID",
								"offset": 0,
								"slot": "2",
								"type": "t_uint256"
							},
							{
								"astId": 32,
								"contract": "contracts/ergasia.sol:Election",
								"label": "votedPollingStationID",
								"offset": 0,
								"slot": "3",
								"type": "t_uint256"
							}
						],
						"numberOfBytes": "128"
					},
					"t_uint256": {
						"encoding": "inplace",
						"label": "uint256",
						"numberOfBytes": "32"
					}
				}
			},
			"userdoc": {
				"kind": "user",
				"methods": {},
				"version": 1
			}
		}
	}
}