{
	"contracts/ergasia.sol": {
		"Ballot": {
			"abi": [
				{
					"inputs": [],
					"stateMutability": "nonpayable",
					"type": "constructor"
				},
				{
					"inputs": [
						{
							"internalType": "address",
							"name": "_voterAddress",
							"type": "address"
						},
						{
							"internalType": "uint256",
							"name": "_pollingStationID",
							"type": "uint256"
						}
					],
					"name": "addVoter",
					"outputs": [],
					"stateMutability": "nonpayable",
					"type": "function"
				},
				{
					"inputs": [],
					"name": "ballotOwner",
					"outputs": [
						{
							"internalType": "address",
							"name": "",
							"type": "address"
						}
					],
					"stateMutability": "view",
					"type": "function"
				},
				{
					"inputs": [],
					"name": "finalResult",
					"outputs": [
						{
							"internalType": "uint256",
							"name": "",
							"type": "uint256"
						}
					],
					"stateMutability": "view",
					"type": "function"
				},
				{
					"inputs": [
						{
							"internalType": "uint256",
							"name": "",
							"type": "uint256"
						}
					],
					"name": "proposals",
					"outputs": [
						{
							"internalType": "uint256",
							"name": "id",
							"type": "uint256"
						},
						{
							"internalType": "bytes32",
							"name": "name",
							"type": "bytes32"
						},
						{
							"internalType": "uint256",
							"name": "voteCount",
							"type": "uint256"
						}
					],
					"stateMutability": "view",
					"type": "function"
				},
				{
					"inputs": [],
					"name": "startVote",
					"outputs": [],
					"stateMutability": "nonpayable",
					"type": "function"
				},
				{
					"inputs": [],
					"name": "state",
					"outputs": [
						{
							"internalType": "enum Ballot.State",
							"name": "",
							"type": "uint8"
						}
					],
					"stateMutability": "view",
					"type": "function"
				},
				{
					"inputs": [
						{
							"internalType": "uint256",
							"name": "",
							"type": "uint256"
						}
					],
					"name": "stations",
					"outputs": [
						{
							"internalType": "uint256",
							"name": "stationID",
							"type": "uint256"
						},
						{
							"internalType": "uint256",
							"name": "pplEnrolled",
							"type": "uint256"
						},
						{
							"internalType": "uint256",
							"name": "votesCasted",
							"type": "uint256"
						}
					],
					"stateMutability": "view",
					"type": "function"
				},
				{
					"inputs": [],
					"name": "totalVoters",
					"outputs": [
						{
							"internalType": "uint256",
							"name": "",
							"type": "uint256"
						}
					],
					"stateMutability": "view",
					"type": "function"
				},
				{
					"inputs": [],
					"name": "totalVotes",
					"outputs": [
						{
							"internalType": "uint256",
							"name": "",
							"type": "uint256"
						}
					],
					"stateMutability": "view",
					"type": "function"
				},
				{
					"inputs": [
						{
							"internalType": "address",
							"name": "",
							"type": "address"
						}
					],
					"name": "voterRegister",
					"outputs": [
						{
							"internalType": "bool",
							"name": "enrolled",
							"type": "bool"
						},
						{
							"internalType": "bool",
							"name": "voted",
							"type": "bool"
						},
						{
							"internalType": "int256",
							"name": "indexProposal",
							"type": "int256"
						},
						{
							"internalType": "uint256",
							"name": "enrolledPollingStationID",
							"type": "uint256"
						},
						{
							"internalType": "uint256",
							"name": "votedPollingStationID",
							"type": "uint256"
						}
					],
					"stateMutability": "view",
					"type": "function"
				}
			],
			"devdoc": {
				"kind": "dev",
				"methods": {
					"addVoter(address,uint256)": {
						"details": "Adds a voter to the voter registry. May only be called by 'owner'.",
						"params": {
							"_pollingStationID": "polling station ID in which voter is registered.",
							"_voterAddress": "address of voter"
						}
					}
				},
				"version": 1
			},
			"evm": {
				"assembly": "    /* \"contracts/ergasia.sol\":70:6128  contract Ballot {... */\n  mstore(0x40, 0x80)\n    /* \"contracts/ergasia.sol\":1169:1170  5 */\n  0x05\n    /* \"contracts/ergasia.sol\":1146:1170  uint numOfCandidates = 5 */\n  0x01\n  sstore\n    /* \"contracts/ergasia.sol\":1242:1244  10 */\n  0x0a\n    /* \"contracts/ergasia.sol\":1214:1244  uint numOfPollingStations = 10 */\n  0x02\n  sstore\n    /* \"contracts/ergasia.sol\":1325:1326  0 */\n  0x00\n    /* \"contracts/ergasia.sol\":1298:1326  uint private countResult = 0 */\n  0x03\n  sstore\n    /* \"contracts/ergasia.sol\":1406:1407  0 */\n  0x00\n    /* \"contracts/ergasia.sol\":1380:1407  uint public finalResult = 0 */\n  0x04\n  sstore\n    /* \"contracts/ergasia.sol\":1487:1488  0 */\n  0x00\n    /* \"contracts/ergasia.sol\":1461:1488  uint public totalVoters = 0 */\n  0x05\n  sstore\n    /* \"contracts/ergasia.sol\":1519:1520  0 */\n  0x00\n    /* \"contracts/ergasia.sol\":1494:1520  uint public totalVotes = 0 */\n  0x06\n  sstore\n    /* \"contracts/ergasia.sol\":1950:2233  constructor() {... */\n  callvalue\n  dup1\n  iszero\n  tag_1\n  jumpi\n  0x00\n  dup1\n  revert\ntag_1:\n  pop\n    /* \"contracts/ergasia.sol\":1988:1998  msg.sender */\n  caller\n    /* \"contracts/ergasia.sol\":1974:1985  ballotOwner */\n  0x00\n  dup1\n    /* \"contracts/ergasia.sol\":1974:1998  ballotOwner = msg.sender */\n  0x0100\n  exp\n  dup2\n  sload\n  dup2\n  0xffffffffffffffffffffffffffffffffffffffff\n  mul\n  not\n  and\n  swap1\n  dup4\n  0xffffffffffffffffffffffffffffffffffffffff\n  and\n  mul\n  or\n  swap1\n  sstore\n  pop\n    /* \"contracts/ergasia.sol\":2047:2063  initCandidates() */\n  tag_4\n    /* \"contracts/ergasia.sol\":2047:2061  initCandidates */\n  shl(0x20, tag_5)\n    /* \"contracts/ergasia.sol\":2047:2063  initCandidates() */\n  0x20\n  shr\n  jump\t// in\ntag_4:\n    /* \"contracts/ergasia.sol\":2117:2158  initPollingStations(numOfPollingStations) */\n  tag_6\n    /* \"contracts/ergasia.sol\":2137:2157  numOfPollingStations */\n  sload(0x02)\n    /* \"contracts/ergasia.sol\":2117:2136  initPollingStations */\n  shl(0x20, tag_7)\n    /* \"contracts/ergasia.sol\":2117:2158  initPollingStations(numOfPollingStations) */\n  0x20\n  shr\n  jump\t// in\ntag_6:\n    /* \"contracts/ergasia.sol\":2211:2224  State.Created */\n  0x00\n    /* \"contracts/ergasia.sol\":2203:2208  state */\n  0x0a\n  0x00\n    /* \"contracts/ergasia.sol\":2203:2224  state = State.Created */\n  0x0100\n  exp\n  dup2\n  sload\n  dup2\n  0xff\n  mul\n  not\n  and\n  swap1\n  dup4\n  0x02\n  dup2\n  gt\n  iszero\n  tag_8\n  jumpi\n  tag_9\n  tag_10\n  jump\t// in\ntag_9:\ntag_8:\n  mul\n  or\n  swap1\n  sstore\n  pop\n    /* \"contracts/ergasia.sol\":70:6128  contract Ballot {... */\n  jump(tag_11)\n    /* \"contracts/ergasia.sol\":2302:3231  function initCandidates() internal {... */\ntag_5:\n    /* \"contracts/ergasia.sol\":2348:2378  bytes32[] memory proposalNames */\n  0x00\n    /* \"contracts/ergasia.sol\":2395:2410  numOfCandidates */\n  sload(0x01)\n    /* \"contracts/ergasia.sol\":2381:2411  new bytes32[](numOfCandidates) */\n  0xffffffffffffffff\n  dup2\n  gt\n  iszero\n  tag_13\n  jumpi\n  tag_14\n  tag_15\n  jump\t// in\ntag_14:\ntag_13:\n  mload(0x40)\n  swap1\n  dup1\n  dup3\n  mstore\n  dup1\n  0x20\n  mul\n  0x20\n  add\n  dup3\n  add\n  0x40\n  mstore\n  dup1\n  iszero\n  tag_16\n  jumpi\n  dup2\n  0x20\n  add\n  0x20\n  dup3\n  mul\n  dup1\n  calldatasize\n  dup4\n  calldatacopy\n  dup1\n  dup3\n  add\n  swap2\n  pop\n  pop\n  swap1\n  pop\ntag_16:\n  pop\n    /* \"contracts/ergasia.sol\":2348:2411  bytes32[] memory proposalNames = new bytes32[](numOfCandidates) */\n  swap1\n  pop\n    /* \"contracts/ergasia.sol\":2440:2506  0x43616e6469646174652031000000000000000000000000000000000000000000 */\n  0x43616e6469646174652031000000000000000000000000000000000000000000\n    /* \"contracts/ergasia.sol\":2421:2506  proposalNames[0] = 0x43616e6469646174652031000000000000000000000000000000000000000000 */\n  0x00\n  shl\n    /* \"contracts/ergasia.sol\":2421:2434  proposalNames */\n  dup2\n    /* \"contracts/ergasia.sol\":2435:2436  0 */\n  0x00\n    /* \"contracts/ergasia.sol\":2421:2437  proposalNames[0] */\n  dup2\n  mload\n  dup2\n  lt\n  tag_17\n  jumpi\n  tag_18\n  tag_19\n  jump\t// in\ntag_18:\ntag_17:\n  0x20\n  mul\n  0x20\n  add\n  add\n    /* \"contracts/ergasia.sol\":2421:2506  proposalNames[0] = 0x43616e6469646174652031000000000000000000000000000000000000000000 */\n  dup2\n  dup2\n  mstore\n  pop\n  pop\n    /* \"contracts/ergasia.sol\":2551:2617  0x43616e6469646174652032000000000000000000000000000000000000000000 */\n  0x43616e6469646174652032000000000000000000000000000000000000000000\n    /* \"contracts/ergasia.sol\":2532:2617  proposalNames[1] = 0x43616e6469646174652032000000000000000000000000000000000000000000 */\n  0x00\n  shl\n    /* \"contracts/ergasia.sol\":2532:2545  proposalNames */\n  dup2\n    /* \"contracts/ergasia.sol\":2546:2547  1 */\n  0x01\n    /* \"contracts/ergasia.sol\":2532:2548  proposalNames[1] */\n  dup2\n  mload\n  dup2\n  lt\n  tag_20\n  jumpi\n  tag_21\n  tag_19\n  jump\t// in\ntag_21:\ntag_20:\n  0x20\n  mul\n  0x20\n  add\n  add\n    /* \"contracts/ergasia.sol\":2532:2617  proposalNames[1] = 0x43616e6469646174652032000000000000000000000000000000000000000000 */\n  dup2\n  dup2\n  mstore\n  pop\n  pop\n    /* \"contracts/ergasia.sol\":2662:2728  0x43616e6469646174652033000000000000000000000000000000000000000000 */\n  0x43616e6469646174652033000000000000000000000000000000000000000000\n    /* \"contracts/ergasia.sol\":2643:2728  proposalNames[2] = 0x43616e6469646174652033000000000000000000000000000000000000000000 */\n  0x00\n  shl\n    /* \"contracts/ergasia.sol\":2643:2656  proposalNames */\n  dup2\n    /* \"contracts/ergasia.sol\":2657:2658  2 */\n  0x02\n    /* \"contracts/ergasia.sol\":2643:2659  proposalNames[2] */\n  dup2\n  mload\n  dup2\n  lt\n  tag_22\n  jumpi\n  tag_23\n  tag_19\n  jump\t// in\ntag_23:\ntag_22:\n  0x20\n  mul\n  0x20\n  add\n  add\n    /* \"contracts/ergasia.sol\":2643:2728  proposalNames[2] = 0x43616e6469646174652033000000000000000000000000000000000000000000 */\n  dup2\n  dup2\n  mstore\n  pop\n  pop\n    /* \"contracts/ergasia.sol\":2773:2839  0x43616e6469646174652034000000000000000000000000000000000000000000 */\n  0x43616e6469646174652034000000000000000000000000000000000000000000\n    /* \"contracts/ergasia.sol\":2754:2839  proposalNames[3] = 0x43616e6469646174652034000000000000000000000000000000000000000000 */\n  0x00\n  shl\n    /* \"contracts/ergasia.sol\":2754:2767  proposalNames */\n  dup2\n    /* \"contracts/ergasia.sol\":2768:2769  3 */\n  0x03\n    /* \"contracts/ergasia.sol\":2754:2770  proposalNames[3] */\n  dup2\n  mload\n  dup2\n  lt\n  tag_24\n  jumpi\n  tag_25\n  tag_19\n  jump\t// in\ntag_25:\ntag_24:\n  0x20\n  mul\n  0x20\n  add\n  add\n    /* \"contracts/ergasia.sol\":2754:2839  proposalNames[3] = 0x43616e6469646174652034000000000000000000000000000000000000000000 */\n  dup2\n  dup2\n  mstore\n  pop\n  pop\n    /* \"contracts/ergasia.sol\":2884:2950  0x43616e6469646174652035000000000000000000000000000000000000000000 */\n  0x43616e6469646174652035000000000000000000000000000000000000000000\n    /* \"contracts/ergasia.sol\":2865:2950  proposalNames[4] = 0x43616e6469646174652035000000000000000000000000000000000000000000 */\n  0x00\n  shl\n    /* \"contracts/ergasia.sol\":2865:2878  proposalNames */\n  dup2\n    /* \"contracts/ergasia.sol\":2879:2880  4 */\n  0x04\n    /* \"contracts/ergasia.sol\":2865:2881  proposalNames[4] */\n  dup2\n  mload\n  dup2\n  lt\n  tag_26\n  jumpi\n  tag_27\n  tag_19\n  jump\t// in\ntag_27:\ntag_26:\n  0x20\n  mul\n  0x20\n  add\n  add\n    /* \"contracts/ergasia.sol\":2865:2950  proposalNames[4] = 0x43616e6469646174652035000000000000000000000000000000000000000000 */\n  dup2\n  dup2\n  mstore\n  pop\n  pop\n    /* \"contracts/ergasia.sol\":2983:2989  uint i */\n  0x00\n    /* \"contracts/ergasia.sol\":2978:3225  for (uint i = 0; i < proposalNames.length; i++) {... */\ntag_28:\n    /* \"contracts/ergasia.sol\":2999:3012  proposalNames */\n  dup2\n    /* \"contracts/ergasia.sol\":2999:3019  proposalNames.length */\n  mload\n    /* \"contracts/ergasia.sol\":2995:2996  i */\n  dup2\n    /* \"contracts/ergasia.sol\":2995:3019  i < proposalNames.length */\n  lt\n    /* \"contracts/ergasia.sol\":2978:3225  for (uint i = 0; i < proposalNames.length; i++) {... */\n  iszero\n  tag_29\n  jumpi\n    /* \"contracts/ergasia.sol\":3040:3052  uint counter */\n  0x00\n    /* \"contracts/ergasia.sol\":3059:3060  1 */\n  0x01\n    /* \"contracts/ergasia.sol\":3055:3056  i */\n  dup3\n    /* \"contracts/ergasia.sol\":3055:3060  i + 1 */\n  tag_31\n  swap2\n  swap1\n  tag_32\n  jump\t// in\ntag_31:\n    /* \"contracts/ergasia.sol\":3040:3060  uint counter = i + 1 */\n  swap1\n  pop\n    /* \"contracts/ergasia.sol\":3075:3084  proposals */\n  0x07\n    /* \"contracts/ergasia.sol\":3090:3213  Proposal({... */\n  mload(0x40)\n  dup1\n  0x60\n  add\n  0x40\n  mstore\n  dup1\n    /* \"contracts/ergasia.sol\":3121:3128  counter */\n  dup4\n    /* \"contracts/ergasia.sol\":3090:3213  Proposal({... */\n  dup2\n  mstore\n  0x20\n  add\n    /* \"contracts/ergasia.sol\":3152:3165  proposalNames */\n  dup6\n    /* \"contracts/ergasia.sol\":3166:3167  i */\n  dup6\n    /* \"contracts/ergasia.sol\":3152:3168  proposalNames[i] */\n  dup2\n  mload\n  dup2\n  lt\n  tag_33\n  jumpi\n  tag_34\n  tag_19\n  jump\t// in\ntag_34:\ntag_33:\n  0x20\n  mul\n  0x20\n  add\n  add\n  mload\n    /* \"contracts/ergasia.sol\":3090:3213  Proposal({... */\n  dup2\n  mstore\n  0x20\n  add\n    /* \"contracts/ergasia.sol\":3197:3198  0 */\n  0x00\n    /* \"contracts/ergasia.sol\":3090:3213  Proposal({... */\n  dup2\n  mstore\n  pop\n    /* \"contracts/ergasia.sol\":3075:3214  proposals.push(Proposal({... */\n  swap1\n  dup1\n  0x01\n  dup2\n  sload\n  add\n  dup1\n  dup3\n  sstore\n  dup1\n  swap2\n  pop\n  pop\n  0x01\n  swap1\n  sub\n  swap1\n  0x00\n  mstore\n  keccak256(0x00, 0x20)\n  swap1\n  0x03\n  mul\n  add\n  0x00\n  swap1\n  swap2\n  swap1\n  swap2\n  swap1\n  swap2\n  pop\n  0x00\n  dup3\n  add\n  mload\n  dup2\n  0x00\n  add\n  sstore\n  0x20\n  dup3\n  add\n  mload\n  dup2\n  0x01\n  add\n  sstore\n  0x40\n  dup3\n  add\n  mload\n  dup2\n  0x02\n  add\n  sstore\n  pop\n  pop\n    /* \"contracts/ergasia.sol\":3026:3225  {... */\n  pop\n    /* \"contracts/ergasia.sol\":3021:3024  i++ */\n  dup1\n  dup1\n  tag_36\n  swap1\n  tag_37\n  jump\t// in\ntag_36:\n  swap2\n  pop\n  pop\n    /* \"contracts/ergasia.sol\":2978:3225  for (uint i = 0; i < proposalNames.length; i++) {... */\n  jump(tag_28)\ntag_29:\n  pop\n    /* \"contracts/ergasia.sol\":2337:3231  {... */\n  pop\n    /* \"contracts/ergasia.sol\":2302:3231  function initCandidates() internal {... */\n  jump\t// out\n    /* \"contracts/ergasia.sol\":3349:3658  function initPollingStations(uint amount) internal {... */\ntag_7:\n    /* \"contracts/ergasia.sol\":3415:3421  uint i */\n  0x00\n    /* \"contracts/ergasia.sol\":3410:3652  for (uint i = 0; i < amount; i++) {... */\ntag_39:\n    /* \"contracts/ergasia.sol\":3431:3437  amount */\n  dup2\n    /* \"contracts/ergasia.sol\":3427:3428  i */\n  dup2\n    /* \"contracts/ergasia.sol\":3427:3437  i < amount */\n  lt\n    /* \"contracts/ergasia.sol\":3410:3652  for (uint i = 0; i < amount; i++) {... */\n  iszero\n  tag_40\n  jumpi\n    /* \"contracts/ergasia.sol\":3458:3466  stations */\n  0x08\n    /* \"contracts/ergasia.sol\":3472:3640  PollingStation({... */\n  mload(0x40)\n  dup1\n  0x60\n  add\n  0x40\n  mstore\n  dup1\n    /* \"contracts/ergasia.sol\":3519:3520  1 */\n  0x01\n    /* \"contracts/ergasia.sol\":3517:3518  i */\n  dup5\n    /* \"contracts/ergasia.sol\":3517:3520  i+1 */\n  tag_42\n  swap2\n  swap1\n  tag_32\n  jump\t// in\ntag_42:\n    /* \"contracts/ergasia.sol\":3472:3640  PollingStation({... */\n  dup2\n  mstore\n  0x20\n  add\n    /* \"contracts/ergasia.sol\":3580:3581  0 */\n  0x00\n    /* \"contracts/ergasia.sol\":3472:3640  PollingStation({... */\n  dup2\n  mstore\n  0x20\n  add\n    /* \"contracts/ergasia.sol\":3612:3613  0 */\n  0x00\n    /* \"contracts/ergasia.sol\":3472:3640  PollingStation({... */\n  dup2\n  mstore\n  pop\n    /* \"contracts/ergasia.sol\":3458:3641  stations.push(PollingStation({... */\n  swap1\n  dup1\n  0x01\n  dup2\n  sload\n  add\n  dup1\n  dup3\n  sstore\n  dup1\n  swap2\n  pop\n  pop\n  0x01\n  swap1\n  sub\n  swap1\n  0x00\n  mstore\n  keccak256(0x00, 0x20)\n  swap1\n  0x03\n  mul\n  add\n  0x00\n  swap1\n  swap2\n  swap1\n  swap2\n  swap1\n  swap2\n  pop\n  0x00\n  dup3\n  add\n  mload\n  dup2\n  0x00\n  add\n  sstore\n  0x20\n  dup3\n  add\n  mload\n  dup2\n  0x01\n  add\n  sstore\n  0x40\n  dup3\n  add\n  mload\n  dup2\n  0x02\n  add\n  sstore\n  pop\n  pop\n    /* \"contracts/ergasia.sol\":3439:3442  i++ */\n  dup1\n  dup1\n  tag_44\n  swap1\n  tag_37\n  jump\t// in\ntag_44:\n  swap2\n  pop\n  pop\n    /* \"contracts/ergasia.sol\":3410:3652  for (uint i = 0; i < amount; i++) {... */\n  jump(tag_39)\ntag_40:\n  pop\n    /* \"contracts/ergasia.sol\":3349:3658  function initPollingStations(uint amount) internal {... */\n  pop\n  jump\t// out\n    /* \"#utility.yul\":7:312   */\ntag_32:\n    /* \"#utility.yul\":47:50   */\n  0x00\n    /* \"#utility.yul\":66:86   */\n  tag_47\n    /* \"#utility.yul\":84:85   */\n  dup3\n    /* \"#utility.yul\":66:86   */\n  tag_48\n  jump\t// in\ntag_47:\n    /* \"#utility.yul\":61:86   */\n  swap2\n  pop\n    /* \"#utility.yul\":100:120   */\n  tag_49\n    /* \"#utility.yul\":118:119   */\n  dup4\n    /* \"#utility.yul\":100:120   */\n  tag_48\n  jump\t// in\ntag_49:\n    /* \"#utility.yul\":95:120   */\n  swap3\n  pop\n    /* \"#utility.yul\":254:255   */\n  dup3\n    /* \"#utility.yul\":186:252   */\n  0xffffffffffffffffffffffffffffffffffffffffffffffffffffffffffffffff\n    /* \"#utility.yul\":182:256   */\n  sub\n    /* \"#utility.yul\":179:180   */\n  dup3\n    /* \"#utility.yul\":176:257   */\n  gt\n    /* \"#utility.yul\":173:280   */\n  iszero\n  tag_50\n  jumpi\n    /* \"#utility.yul\":260:278   */\n  tag_51\n  tag_52\n  jump\t// in\ntag_51:\n    /* \"#utility.yul\":173:280   */\ntag_50:\n    /* \"#utility.yul\":304:305   */\n  dup3\n    /* \"#utility.yul\":301:302   */\n  dup3\n    /* \"#utility.yul\":297:306   */\n  add\n    /* \"#utility.yul\":290:306   */\n  swap1\n  pop\n    /* \"#utility.yul\":7:312   */\n  swap3\n  swap2\n  pop\n  pop\n  jump\t// out\n    /* \"#utility.yul\":318:395   */\ntag_48:\n    /* \"#utility.yul\":355:362   */\n  0x00\n    /* \"#utility.yul\":384:389   */\n  dup2\n    /* \"#utility.yul\":373:389   */\n  swap1\n  pop\n    /* \"#utility.yul\":318:395   */\n  swap2\n  swap1\n  pop\n  jump\t// out\n    /* \"#utility.yul\":401:634   */\ntag_37:\n    /* \"#utility.yul\":440:443   */\n  0x00\n    /* \"#utility.yul\":463:487   */\n  tag_55\n    /* \"#utility.yul\":481:486   */\n  dup3\n    /* \"#utility.yul\":463:487   */\n  tag_48\n  jump\t// in\ntag_55:\n    /* \"#utility.yul\":454:487   */\n  swap2\n  pop\n    /* \"#utility.yul\":509:575   */\n  0xffffffffffffffffffffffffffffffffffffffffffffffffffffffffffffffff\n    /* \"#utility.yul\":502:507   */\n  dup3\n    /* \"#utility.yul\":499:576   */\n  eq\n    /* \"#utility.yul\":496:599   */\n  iszero\n  tag_56\n  jumpi\n    /* \"#utility.yul\":579:597   */\n  tag_57\n  tag_52\n  jump\t// in\ntag_57:\n    /* \"#utility.yul\":496:599   */\ntag_56:\n    /* \"#utility.yul\":626:627   */\n  0x01\n    /* \"#utility.yul\":619:624   */\n  dup3\n    /* \"#utility.yul\":615:628   */\n  add\n    /* \"#utility.yul\":608:628   */\n  swap1\n  pop\n    /* \"#utility.yul\":401:634   */\n  swap2\n  swap1\n  pop\n  jump\t// out\n    /* \"#utility.yul\":640:820   */\ntag_52:\n    /* \"#utility.yul\":688:765   */\n  0x4e487b7100000000000000000000000000000000000000000000000000000000\n    /* \"#utility.yul\":685:686   */\n  0x00\n    /* \"#utility.yul\":678:766   */\n  mstore\n    /* \"#utility.yul\":785:789   */\n  0x11\n    /* \"#utility.yul\":782:783   */\n  0x04\n    /* \"#utility.yul\":775:790   */\n  mstore\n    /* \"#utility.yul\":809:813   */\n  0x24\n    /* \"#utility.yul\":806:807   */\n  0x00\n    /* \"#utility.yul\":799:814   */\n  revert\n    /* \"#utility.yul\":826:1006   */\ntag_10:\n    /* \"#utility.yul\":874:951   */\n  0x4e487b7100000000000000000000000000000000000000000000000000000000\n    /* \"#utility.yul\":871:872   */\n  0x00\n    /* \"#utility.yul\":864:952   */\n  mstore\n    /* \"#utility.yul\":971:975   */\n  0x21\n    /* \"#utility.yul\":968:969   */\n  0x04\n    /* \"#utility.yul\":961:976   */\n  mstore\n    /* \"#utility.yul\":995:999   */\n  0x24\n    /* \"#utility.yul\":992:993   */\n  0x00\n    /* \"#utility.yul\":985:1000   */\n  revert\n    /* \"#utility.yul\":1012:1192   */\ntag_19:\n    /* \"#utility.yul\":1060:1137   */\n  0x4e487b7100000000000000000000000000000000000000000000000000000000\n    /* \"#utility.yul\":1057:1058   */\n  0x00\n    /* \"#utility.yul\":1050:1138   */\n  mstore\n    /* \"#utility.yul\":1157:1161   */\n  0x32\n    /* \"#utility.yul\":1154:1155   */\n  0x04\n    /* \"#utility.yul\":1147:1162   */\n  mstore\n    /* \"#utility.yul\":1181:1185   */\n  0x24\n    /* \"#utility.yul\":1178:1179   */\n  0x00\n    /* \"#utility.yul\":1171:1186   */\n  revert\n    /* \"#utility.yul\":1198:1378   */\ntag_15:\n    /* \"#utility.yul\":1246:1323   */\n  0x4e487b7100000000000000000000000000000000000000000000000000000000\n    /* \"#utility.yul\":1243:1244   */\n  0x00\n    /* \"#utility.yul\":1236:1324   */\n  mstore\n    /* \"#utility.yul\":1343:1347   */\n  0x41\n    /* \"#utility.yul\":1340:1341   */\n  0x04\n    /* \"#utility.yul\":1333:1348   */\n  mstore\n    /* \"#utility.yul\":1367:1371   */\n  0x24\n    /* \"#utility.yul\":1364:1365   */\n  0x00\n    /* \"#utility.yul\":1357:1372   */\n  revert\n    /* \"contracts/ergasia.sol\":70:6128  contract Ballot {... */\ntag_11:\n  dataSize(sub_0)\n  dup1\n  dataOffset(sub_0)\n  0x00\n  codecopy\n  0x00\n  return\nstop\n\nsub_0: assembly {\n        /* \"contracts/ergasia.sol\":70:6128  contract Ballot {... */\n      mstore(0x40, 0x80)\n      callvalue\n      dup1\n      iszero\n      tag_1\n      jumpi\n      0x00\n      dup1\n      revert\n    tag_1:\n      pop\n      jumpi(tag_2, lt(calldatasize, 0x04))\n      shr(0xe0, calldataload(0x00))\n      dup1\n      0xaf154087\n      gt\n      tag_13\n      jumpi\n      dup1\n      0xaf154087\n      eq\n      tag_8\n      jumpi\n      dup1\n      0xb9f05f2f\n      eq\n      tag_9\n      jumpi\n      dup1\n      0xc19d93fb\n      eq\n      tag_10\n      jumpi\n      dup1\n      0xdca97183\n      eq\n      tag_11\n      jumpi\n      dup1\n      0xf3a8286f\n      eq\n      tag_12\n      jumpi\n      jump(tag_2)\n    tag_13:\n      dup1\n      0x013cf08b\n      eq\n      tag_3\n      jumpi\n      dup1\n      0x0d15fd77\n      eq\n      tag_4\n      jumpi\n      dup1\n      0x4c0a6af0\n      eq\n      tag_5\n      jumpi\n      dup1\n      0x5f5300ff\n      eq\n      tag_6\n      jumpi\n      dup1\n      0x92f859db\n      eq\n      tag_7\n      jumpi\n    tag_2:\n      0x00\n      dup1\n      revert\n        /* \"contracts/ergasia.sol\":1527:1554  Proposal[] public proposals */\n    tag_3:\n      tag_14\n      0x04\n      dup1\n      calldatasize\n      sub\n      dup2\n      add\n      swap1\n      tag_15\n      swap2\n      swap1\n      tag_16\n      jump\t// in\n    tag_15:\n      tag_17\n      jump\t// in\n    tag_14:\n      mload(0x40)\n      tag_18\n      swap4\n      swap3\n      swap2\n      swap1\n      tag_19\n      jump\t// in\n    tag_18:\n      mload(0x40)\n      dup1\n      swap2\n      sub\n      swap1\n      return\n        /* \"contracts/ergasia.sol\":1494:1520  uint public totalVotes = 0 */\n    tag_4:\n      tag_20\n      tag_21\n      jump\t// in\n    tag_20:\n      mload(0x40)\n      tag_22\n      swap2\n      swap1\n      tag_23\n      jump\t// in\n    tag_22:\n      mload(0x40)\n      dup1\n      swap2\n      sub\n      swap1\n      return\n        /* \"contracts/ergasia.sol\":5226:5320  function startVote() public inState(State.Created) Owner {... */\n    tag_5:\n      tag_24\n      tag_25\n      jump\t// in\n    tag_24:\n      stop\n        /* \"contracts/ergasia.sol\":1461:1488  uint public totalVoters = 0 */\n    tag_6:\n      tag_26\n      tag_27\n      jump\t// in\n    tag_26:\n      mload(0x40)\n      tag_28\n      swap2\n      swap1\n      tag_23\n      jump\t// in\n    tag_28:\n      mload(0x40)\n      dup1\n      swap2\n      sub\n      swap1\n      return\n        /* \"contracts/ergasia.sol\":1593:1625  PollingStation[] public stations */\n    tag_7:\n      tag_29\n      0x04\n      dup1\n      calldatasize\n      sub\n      dup2\n      add\n      swap1\n      tag_30\n      swap2\n      swap1\n      tag_16\n      jump\t// in\n    tag_30:\n      tag_31\n      jump\t// in\n    tag_29:\n      mload(0x40)\n      tag_32\n      swap4\n      swap3\n      swap2\n      swap1\n      tag_33\n      jump\t// in\n    tag_32:\n      mload(0x40)\n      dup1\n      swap2\n      sub\n      swap1\n      return\n        /* \"contracts/ergasia.sol\":1656:1702  mapping(address => Voter) public voterRegister */\n    tag_8:\n      tag_34\n      0x04\n      dup1\n      calldatasize\n      sub\n      dup2\n      add\n      swap1\n      tag_35\n      swap2\n      swap1\n      tag_36\n      jump\t// in\n    tag_35:\n      tag_37\n      jump\t// in\n    tag_34:\n      mload(0x40)\n      tag_38\n      swap6\n      swap5\n      swap4\n      swap3\n      swap2\n      swap1\n      tag_39\n      jump\t// in\n    tag_38:\n      mload(0x40)\n      dup1\n      swap2\n      sub\n      swap1\n      return\n        /* \"contracts/ergasia.sol\":3882:4694  function addVoter(address _voterAddress, uint _pollingStationID) public inState(State.Created) Owner {... */\n    tag_9:\n      tag_40\n      0x04\n      dup1\n      calldatasize\n      sub\n      dup2\n      add\n      swap1\n      tag_41\n      swap2\n      swap1\n      tag_42\n      jump\t// in\n    tag_41:\n      tag_43\n      jump\t// in\n    tag_40:\n      stop\n        /* \"contracts/ergasia.sol\":1751:1769  State public state */\n    tag_10:\n      tag_44\n      tag_45\n      jump\t// in\n    tag_44:\n      mload(0x40)\n      tag_46\n      swap2\n      swap1\n      tag_47\n      jump\t// in\n    tag_46:\n      mload(0x40)\n      dup1\n      swap2\n      sub\n      swap1\n      return\n        /* \"contracts/ergasia.sol\":1113:1139  address public ballotOwner */\n    tag_11:\n      tag_48\n      tag_49\n      jump\t// in\n    tag_48:\n      mload(0x40)\n      tag_50\n      swap2\n      swap1\n      tag_51\n      jump\t// in\n    tag_50:\n      mload(0x40)\n      dup1\n      swap2\n      sub\n      swap1\n      return\n        /* \"contracts/ergasia.sol\":1380:1407  uint public finalResult = 0 */\n    tag_12:\n      tag_52\n      tag_53\n      jump\t// in\n    tag_52:\n      mload(0x40)\n      tag_54\n      swap2\n      swap1\n      tag_23\n      jump\t// in\n    tag_54:\n      mload(0x40)\n      dup1\n      swap2\n      sub\n      swap1\n      return\n        /* \"contracts/ergasia.sol\":1527:1554  Proposal[] public proposals */\n    tag_17:\n      0x07\n      dup2\n      dup2\n      sload\n      dup2\n      lt\n      tag_55\n      jumpi\n      0x00\n      dup1\n      revert\n    tag_55:\n      swap1\n      0x00\n      mstore\n      keccak256(0x00, 0x20)\n      swap1\n      0x03\n      mul\n      add\n      0x00\n      swap2\n      pop\n      swap1\n      pop\n      dup1\n      0x00\n      add\n      sload\n      swap1\n      dup1\n      0x01\n      add\n      sload\n      swap1\n      dup1\n      0x02\n      add\n      sload\n      swap1\n      pop\n      dup4\n      jump\t// out\n        /* \"contracts/ergasia.sol\":1494:1520  uint public totalVotes = 0 */\n    tag_21:\n      sload(0x06)\n      dup2\n      jump\t// out\n        /* \"contracts/ergasia.sol\":5226:5320  function startVote() public inState(State.Created) Owner {... */\n    tag_25:\n        /* \"contracts/ergasia.sol\":5262:5275  State.Created */\n      0x00\n        /* \"contracts/ergasia.sol\":1919:1925  _state */\n      dup1\n        /* \"contracts/ergasia.sol\":1910:1925  state == _state */\n      0x02\n      dup2\n      gt\n      iszero\n      tag_58\n      jumpi\n      tag_59\n      tag_60\n      jump\t// in\n    tag_59:\n    tag_58:\n        /* \"contracts/ergasia.sol\":1910:1915  state */\n      0x0a\n      0x00\n      swap1\n      sload\n      swap1\n      0x0100\n      exp\n      swap1\n      div\n      0xff\n      and\n        /* \"contracts/ergasia.sol\":1910:1925  state == _state */\n      0x02\n      dup2\n      gt\n      iszero\n      tag_61\n      jumpi\n      tag_62\n      tag_60\n      jump\t// in\n    tag_62:\n    tag_61:\n      eq\n        /* \"contracts/ergasia.sol\":1902:1926  require(state == _state) */\n      tag_63\n      jumpi\n      0x00\n      dup1\n      revert\n    tag_63:\n        /* \"contracts/ergasia.sol\":1825:1836  ballotOwner */\n      0x00\n      dup1\n      sload\n      swap1\n      0x0100\n      exp\n      swap1\n      div\n      0xffffffffffffffffffffffffffffffffffffffff\n      and\n        /* \"contracts/ergasia.sol\":1811:1836  msg.sender == ballotOwner */\n      0xffffffffffffffffffffffffffffffffffffffff\n      and\n        /* \"contracts/ergasia.sol\":1811:1821  msg.sender */\n      caller\n        /* \"contracts/ergasia.sol\":1811:1836  msg.sender == ballotOwner */\n      0xffffffffffffffffffffffffffffffffffffffff\n      and\n      eq\n        /* \"contracts/ergasia.sol\":1803:1837  require(msg.sender == ballotOwner) */\n      tag_65\n      jumpi\n      0x00\n      dup1\n      revert\n    tag_65:\n        /* \"contracts/ergasia.sol\":5301:5313  State.Voting */\n      0x01\n        /* \"contracts/ergasia.sol\":5293:5298  state */\n      0x0a\n      0x00\n        /* \"contracts/ergasia.sol\":5293:5313  state = State.Voting */\n      0x0100\n      exp\n      dup2\n      sload\n      dup2\n      0xff\n      mul\n      not\n      and\n      swap1\n      dup4\n      0x02\n      dup2\n      gt\n      iszero\n      tag_67\n      jumpi\n      tag_68\n      tag_60\n      jump\t// in\n    tag_68:\n    tag_67:\n      mul\n      or\n      swap1\n      sstore\n      pop\n        /* \"contracts/ergasia.sol\":5226:5320  function startVote() public inState(State.Created) Owner {... */\n      pop\n      jump\t// out\n        /* \"contracts/ergasia.sol\":1461:1488  uint public totalVoters = 0 */\n    tag_27:\n      sload(0x05)\n      dup2\n      jump\t// out\n        /* \"contracts/ergasia.sol\":1593:1625  PollingStation[] public stations */\n    tag_31:\n      0x08\n      dup2\n      dup2\n      sload\n      dup2\n      lt\n      tag_69\n      jumpi\n      0x00\n      dup1\n      revert\n    tag_69:\n      swap1\n      0x00\n      mstore\n      keccak256(0x00, 0x20)\n      swap1\n      0x03\n      mul\n      add\n      0x00\n      swap2\n      pop\n      swap1\n      pop\n      dup1\n      0x00\n      add\n      sload\n      swap1\n      dup1\n      0x01\n      add\n      sload\n      swap1\n      dup1\n      0x02\n      add\n      sload\n      swap1\n      pop\n      dup4\n      jump\t// out\n        /* \"contracts/ergasia.sol\":1656:1702  mapping(address => Voter) public voterRegister */\n    tag_37:\n      mstore(0x20, 0x09)\n      dup1\n      0x00\n      mstore\n      keccak256(0x00, 0x40)\n      0x00\n      swap2\n      pop\n      swap1\n      pop\n      dup1\n      0x00\n      add\n      0x00\n      swap1\n      sload\n      swap1\n      0x0100\n      exp\n      swap1\n      div\n      0xff\n      and\n      swap1\n      dup1\n      0x00\n      add\n      0x01\n      swap1\n      sload\n      swap1\n      0x0100\n      exp\n      swap1\n      div\n      0xff\n      and\n      swap1\n      dup1\n      0x01\n      add\n      sload\n      swap1\n      dup1\n      0x02\n      add\n      sload\n      swap1\n      dup1\n      0x03\n      add\n      sload\n      swap1\n      pop\n      dup6\n      jump\t// out\n        /* \"contracts/ergasia.sol\":3882:4694  function addVoter(address _voterAddress, uint _pollingStationID) public inState(State.Created) Owner {... */\n    tag_43:\n        /* \"contracts/ergasia.sol\":3962:3975  State.Created */\n      0x00\n        /* \"contracts/ergasia.sol\":1919:1925  _state */\n      dup1\n        /* \"contracts/ergasia.sol\":1910:1925  state == _state */\n      0x02\n      dup2\n      gt\n      iszero\n      tag_72\n      jumpi\n      tag_73\n      tag_60\n      jump\t// in\n    tag_73:\n    tag_72:\n        /* \"contracts/ergasia.sol\":1910:1915  state */\n      0x0a\n      0x00\n      swap1\n      sload\n      swap1\n      0x0100\n      exp\n      swap1\n      div\n      0xff\n      and\n        /* \"contracts/ergasia.sol\":1910:1925  state == _state */\n      0x02\n      dup2\n      gt\n      iszero\n      tag_74\n      jumpi\n      tag_75\n      tag_60\n      jump\t// in\n    tag_75:\n    tag_74:\n      eq\n        /* \"contracts/ergasia.sol\":1902:1926  require(state == _state) */\n      tag_76\n      jumpi\n      0x00\n      dup1\n      revert\n    tag_76:\n        /* \"contracts/ergasia.sol\":1825:1836  ballotOwner */\n      0x00\n      dup1\n      sload\n      swap1\n      0x0100\n      exp\n      swap1\n      div\n      0xffffffffffffffffffffffffffffffffffffffff\n      and\n        /* \"contracts/ergasia.sol\":1811:1836  msg.sender == ballotOwner */\n      0xffffffffffffffffffffffffffffffffffffffff\n      and\n        /* \"contracts/ergasia.sol\":1811:1821  msg.sender */\n      caller\n        /* \"contracts/ergasia.sol\":1811:1836  msg.sender == ballotOwner */\n      0xffffffffffffffffffffffffffffffffffffffff\n      and\n      eq\n        /* \"contracts/ergasia.sol\":1803:1837  require(msg.sender == ballotOwner) */\n      tag_78\n      jumpi\n      0x00\n      dup1\n      revert\n    tag_78:\n        /* \"contracts/ergasia.sol\":4104:4105  0 */\n      0x00\n        /* \"contracts/ergasia.sol\":4058:4071  voterRegister */\n      0x09\n        /* \"contracts/ergasia.sol\":4058:4086  voterRegister[_voterAddress] */\n      0x00\n        /* \"contracts/ergasia.sol\":4072:4085  _voterAddress */\n      dup6\n        /* \"contracts/ergasia.sol\":4058:4086  voterRegister[_voterAddress] */\n      0xffffffffffffffffffffffffffffffffffffffff\n      and\n      0xffffffffffffffffffffffffffffffffffffffff\n      and\n      dup2\n      mstore\n      0x20\n      add\n      swap1\n      dup2\n      mstore\n      0x20\n      add\n      0x00\n      keccak256\n        /* \"contracts/ergasia.sol\":4058:4100  voterRegister[_voterAddress].indexProposal */\n      0x01\n      add\n      sload\n        /* \"contracts/ergasia.sol\":4058:4105  voterRegister[_voterAddress].indexProposal == 0 */\n      eq\n        /* \"contracts/ergasia.sol\":4050:4138  require(voterRegister[_voterAddress].indexProposal == 0, \"Voter is already registered.\") */\n      tag_80\n      jumpi\n      mload(0x40)\n      0x08c379a000000000000000000000000000000000000000000000000000000000\n      dup2\n      mstore\n      0x04\n      add\n      tag_81\n      swap1\n      tag_82\n      jump\t// in\n    tag_81:\n      mload(0x40)\n      dup1\n      swap2\n      sub\n      swap1\n      revert\n    tag_80:\n        /* \"contracts/ergasia.sol\":4275:4276  1 */\n      0x01\n        /* \"contracts/ergasia.sol\":4255:4272  _pollingStationID */\n      dup3\n        /* \"contracts/ergasia.sol\":4255:4276  _pollingStationID >=1 */\n      lt\n      iszero\n        /* \"contracts/ergasia.sol\":4255:4321  _pollingStationID >=1 && _pollingStationID <= numOfPollingStations */\n      dup1\n      iszero\n      tag_83\n      jumpi\n      pop\n        /* \"contracts/ergasia.sol\":4301:4321  numOfPollingStations */\n      sload(0x02)\n        /* \"contracts/ergasia.sol\":4280:4297  _pollingStationID */\n      dup3\n        /* \"contracts/ergasia.sol\":4280:4321  _pollingStationID <= numOfPollingStations */\n      gt\n      iszero\n        /* \"contracts/ergasia.sol\":4255:4321  _pollingStationID >=1 && _pollingStationID <= numOfPollingStations */\n    tag_83:\n        /* \"contracts/ergasia.sol\":4247:4368  require(_pollingStationID >=1 && _pollingStationID <= numOfPollingStations, \"Please provide a valid polling station ID.\") */\n      tag_84\n      jumpi\n      mload(0x40)\n      0x08c379a000000000000000000000000000000000000000000000000000000000\n      dup2\n      mstore\n      0x04\n      add\n      tag_85\n      swap1\n      tag_86\n      jump\t// in\n    tag_85:\n      mload(0x40)\n      dup1\n      swap2\n      sub\n      swap1\n      revert\n    tag_84:\n        /* \"contracts/ergasia.sol\":4379:4393  Voter memory v */\n      tag_87\n      tag_88\n      jump\t// in\n    tag_87:\n        /* \"contracts/ergasia.sol\":4416:4420  true */\n      0x01\n        /* \"contracts/ergasia.sol\":4403:4404  v */\n      dup2\n        /* \"contracts/ergasia.sol\":4403:4413  v.enrolled */\n      0x00\n      add\n        /* \"contracts/ergasia.sol\":4403:4420  v.enrolled = true */\n      swap1\n      iszero\n      iszero\n      swap1\n      dup2\n      iszero\n      iszero\n      dup2\n      mstore\n      pop\n      pop\n        /* \"contracts/ergasia.sol\":4440:4445  false */\n      0x00\n        /* \"contracts/ergasia.sol\":4430:4431  v */\n      dup2\n        /* \"contracts/ergasia.sol\":4430:4437  v.voted */\n      0x20\n      add\n        /* \"contracts/ergasia.sol\":4430:4445  v.voted = false */\n      swap1\n      iszero\n      iszero\n      swap1\n      dup2\n      iszero\n      iszero\n      dup2\n      mstore\n      pop\n      pop\n        /* \"contracts/ergasia.sol\":4473:4475  -1 */\n      0xffffffffffffffffffffffffffffffffffffffffffffffffffffffffffffffff\n        /* \"contracts/ergasia.sol\":4455:4456  v */\n      dup2\n        /* \"contracts/ergasia.sol\":4455:4470  v.indexProposal */\n      0x40\n      add\n        /* \"contracts/ergasia.sol\":4455:4475  v.indexProposal = -1 */\n      dup2\n      dup2\n      mstore\n      pop\n      pop\n        /* \"contracts/ergasia.sol\":4514:4531  _pollingStationID */\n      dup3\n        /* \"contracts/ergasia.sol\":4485:4486  v */\n      dup2\n        /* \"contracts/ergasia.sol\":4485:4511  v.enrolledPollingStationID */\n      0x60\n      add\n        /* \"contracts/ergasia.sol\":4485:4531  v.enrolledPollingStationID = _pollingStationID */\n      dup2\n      dup2\n      mstore\n      pop\n      pop\n        /* \"contracts/ergasia.sol\":4567:4568  0 */\n      0x00\n        /* \"contracts/ergasia.sol\":4541:4542  v */\n      dup2\n        /* \"contracts/ergasia.sol\":4541:4564  v.votedPollingStationID */\n      0x80\n      add\n        /* \"contracts/ergasia.sol\":4541:4568  v.votedPollingStationID = 0 */\n      dup2\n      dup2\n      mstore\n      pop\n      pop\n        /* \"contracts/ergasia.sol\":4609:4610  v */\n      dup1\n        /* \"contracts/ergasia.sol\":4578:4591  voterRegister */\n      0x09\n        /* \"contracts/ergasia.sol\":4578:4606  voterRegister[_voterAddress] */\n      0x00\n        /* \"contracts/ergasia.sol\":4592:4605  _voterAddress */\n      dup7\n        /* \"contracts/ergasia.sol\":4578:4606  voterRegister[_voterAddress] */\n      0xffffffffffffffffffffffffffffffffffffffff\n      and\n      0xffffffffffffffffffffffffffffffffffffffff\n      and\n      dup2\n      mstore\n      0x20\n      add\n      swap1\n      dup2\n      mstore\n      0x20\n      add\n      0x00\n      keccak256\n        /* \"contracts/ergasia.sol\":4578:4610  voterRegister[_voterAddress] = v */\n      0x00\n      dup3\n      add\n      mload\n      dup2\n      0x00\n      add\n      exp(0x0100, 0x00)\n      dup2\n      sload\n      dup2\n      0xff\n      mul\n      not\n      and\n      swap1\n      dup4\n      iszero\n      iszero\n      mul\n      or\n      swap1\n      sstore\n      pop\n      0x20\n      dup3\n      add\n      mload\n      dup2\n      0x00\n      add\n      exp(0x0100, 0x01)\n      dup2\n      sload\n      dup2\n      0xff\n      mul\n      not\n      and\n      swap1\n      dup4\n      iszero\n      iszero\n      mul\n      or\n      swap1\n      sstore\n      pop\n      0x40\n      dup3\n      add\n      mload\n      dup2\n      0x01\n      add\n      sstore\n      0x60\n      dup3\n      add\n      mload\n      dup2\n      0x02\n      add\n      sstore\n      0x80\n      dup3\n      add\n      mload\n      dup2\n      0x03\n      add\n      sstore\n      swap1\n      pop\n      pop\n        /* \"contracts/ergasia.sol\":4620:4631  totalVoters */\n      0x05\n      0x00\n        /* \"contracts/ergasia.sol\":4620:4633  totalVoters++ */\n      dup2\n      sload\n      dup1\n      swap3\n      swap2\n      swap1\n      tag_89\n      swap1\n      tag_90\n      jump\t// in\n    tag_89:\n      swap2\n      swap1\n      pop\n      sstore\n      pop\n        /* \"contracts/ergasia.sol\":4644:4687  registerAtPollingStation(_pollingStationID) */\n      tag_91\n        /* \"contracts/ergasia.sol\":4669:4686  _pollingStationID */\n      dup4\n        /* \"contracts/ergasia.sol\":4644:4668  registerAtPollingStation */\n      tag_92\n        /* \"contracts/ergasia.sol\":4644:4687  registerAtPollingStation(_pollingStationID) */\n      jump\t// in\n    tag_91:\n        /* \"contracts/ergasia.sol\":3983:4694  {... */\n      pop\n        /* \"contracts/ergasia.sol\":3882:4694  function addVoter(address _voterAddress, uint _pollingStationID) public inState(State.Created) Owner {... */\n      pop\n      pop\n      pop\n      jump\t// out\n        /* \"contracts/ergasia.sol\":1751:1769  State public state */\n    tag_45:\n      0x0a\n      0x00\n      swap1\n      sload\n      swap1\n      0x0100\n      exp\n      swap1\n      div\n      0xff\n      and\n      dup2\n      jump\t// out\n        /* \"contracts/ergasia.sol\":1113:1139  address public ballotOwner */\n    tag_49:\n      0x00\n      dup1\n      sload\n      swap1\n      0x0100\n      exp\n      swap1\n      div\n      0xffffffffffffffffffffffffffffffffffffffff\n      and\n      dup2\n      jump\t// out\n        /* \"contracts/ergasia.sol\":1380:1407  uint public finalResult = 0 */\n    tag_53:\n      sload(0x04)\n      dup2\n      jump\t// out\n        /* \"contracts/ergasia.sol\":4832:5097  function registerAtPollingStation(uint _stationID) internal {... */\n    tag_92:\n        /* \"contracts/ergasia.sol\":4907:4913  uint i */\n      0x00\n        /* \"contracts/ergasia.sol\":4902:5091  for (uint i = 0; i < stations.length; i++) {... */\n    tag_94:\n        /* \"contracts/ergasia.sol\":4923:4931  stations */\n      0x08\n        /* \"contracts/ergasia.sol\":4923:4938  stations.length */\n      dup1\n      sload\n      swap1\n      pop\n        /* \"contracts/ergasia.sol\":4919:4920  i */\n      dup2\n        /* \"contracts/ergasia.sol\":4919:4938  i < stations.length */\n      lt\n        /* \"contracts/ergasia.sol\":4902:5091  for (uint i = 0; i < stations.length; i++) {... */\n      iszero\n      tag_95\n      jumpi\n        /* \"contracts/ergasia.sol\":4988:4998  _stationID */\n      dup2\n        /* \"contracts/ergasia.sol\":4963:4971  stations */\n      0x08\n        /* \"contracts/ergasia.sol\":4972:4973  i */\n      dup3\n        /* \"contracts/ergasia.sol\":4963:4974  stations[i] */\n      dup2\n      sload\n      dup2\n      lt\n      tag_97\n      jumpi\n      tag_98\n      tag_99\n      jump\t// in\n    tag_98:\n    tag_97:\n      swap1\n      0x00\n      mstore\n      keccak256(0x00, 0x20)\n      swap1\n      0x03\n      mul\n      add\n        /* \"contracts/ergasia.sol\":4963:4984  stations[i].stationID */\n      0x00\n      add\n      sload\n        /* \"contracts/ergasia.sol\":4963:4998  stations[i].stationID == _stationID */\n      eq\n        /* \"contracts/ergasia.sol\":4959:5081  if (stations[i].stationID == _stationID) {... */\n      iszero\n      tag_101\n      jumpi\n        /* \"contracts/ergasia.sol\":5018:5026  stations */\n      0x08\n        /* \"contracts/ergasia.sol\":5027:5028  i */\n      dup2\n        /* \"contracts/ergasia.sol\":5018:5029  stations[i] */\n      dup2\n      sload\n      dup2\n      lt\n      tag_102\n      jumpi\n      tag_103\n      tag_99\n      jump\t// in\n    tag_103:\n    tag_102:\n      swap1\n      0x00\n      mstore\n      keccak256(0x00, 0x20)\n      swap1\n      0x03\n      mul\n      add\n        /* \"contracts/ergasia.sol\":5018:5041  stations[i].pplEnrolled */\n      0x01\n      add\n      0x00\n        /* \"contracts/ergasia.sol\":5018:5043  stations[i].pplEnrolled++ */\n      dup2\n      sload\n      dup1\n      swap3\n      swap2\n      swap1\n      tag_105\n      swap1\n      tag_90\n      jump\t// in\n    tag_105:\n      swap2\n      swap1\n      pop\n      sstore\n      pop\n        /* \"contracts/ergasia.sol\":5061:5066  break */\n      jump(tag_95)\n        /* \"contracts/ergasia.sol\":4959:5081  if (stations[i].stationID == _stationID) {... */\n    tag_101:\n        /* \"contracts/ergasia.sol\":4940:4943  i++ */\n      dup1\n      dup1\n      tag_106\n      swap1\n      tag_90\n      jump\t// in\n    tag_106:\n      swap2\n      pop\n      pop\n        /* \"contracts/ergasia.sol\":4902:5091  for (uint i = 0; i < stations.length; i++) {... */\n      jump(tag_94)\n    tag_95:\n      pop\n        /* \"contracts/ergasia.sol\":4832:5097  function registerAtPollingStation(uint _stationID) internal {... */\n      pop\n      jump\t// out\n    tag_88:\n      mload(0x40)\n      dup1\n      0xa0\n      add\n      0x40\n      mstore\n      dup1\n      iszero(iszero(0x00))\n      dup2\n      mstore\n      0x20\n      add\n      iszero(iszero(0x00))\n      dup2\n      mstore\n      0x20\n      add\n      0x00\n      dup2\n      mstore\n      0x20\n      add\n      0x00\n      dup2\n      mstore\n      0x20\n      add\n      0x00\n      dup2\n      mstore\n      pop\n      swap1\n      jump\t// out\n        /* \"#utility.yul\":7:146   */\n    tag_108:\n        /* \"#utility.yul\":53:58   */\n      0x00\n        /* \"#utility.yul\":91:97   */\n      dup2\n        /* \"#utility.yul\":78:98   */\n      calldataload\n        /* \"#utility.yul\":69:98   */\n      swap1\n      pop\n        /* \"#utility.yul\":107:140   */\n      tag_110\n        /* \"#utility.yul\":134:139   */\n      dup2\n        /* \"#utility.yul\":107:140   */\n      tag_111\n      jump\t// in\n    tag_110:\n        /* \"#utility.yul\":7:146   */\n      swap3\n      swap2\n      pop\n      pop\n      jump\t// out\n        /* \"#utility.yul\":152:291   */\n    tag_112:\n        /* \"#utility.yul\":198:203   */\n      0x00\n        /* \"#utility.yul\":236:242   */\n      dup2\n        /* \"#utility.yul\":223:243   */\n      calldataload\n        /* \"#utility.yul\":214:243   */\n      swap1\n      pop\n        /* \"#utility.yul\":252:285   */\n      tag_114\n        /* \"#utility.yul\":279:284   */\n      dup2\n        /* \"#utility.yul\":252:285   */\n      tag_115\n      jump\t// in\n    tag_114:\n        /* \"#utility.yul\":152:291   */\n      swap3\n      swap2\n      pop\n      pop\n      jump\t// out\n        /* \"#utility.yul\":297:626   */\n    tag_36:\n        /* \"#utility.yul\":356:362   */\n      0x00\n        /* \"#utility.yul\":405:407   */\n      0x20\n        /* \"#utility.yul\":393:402   */\n      dup3\n        /* \"#utility.yul\":384:391   */\n      dup5\n        /* \"#utility.yul\":380:403   */\n      sub\n        /* \"#utility.yul\":376:408   */\n      slt\n        /* \"#utility.yul\":373:492   */\n      iszero\n      tag_117\n      jumpi\n        /* \"#utility.yul\":411:490   */\n      tag_118\n      tag_119\n      jump\t// in\n    tag_118:\n        /* \"#utility.yul\":373:492   */\n    tag_117:\n        /* \"#utility.yul\":531:532   */\n      0x00\n        /* \"#utility.yul\":556:609   */\n      tag_120\n        /* \"#utility.yul\":601:608   */\n      dup5\n        /* \"#utility.yul\":592:598   */\n      dup3\n        /* \"#utility.yul\":581:590   */\n      dup6\n        /* \"#utility.yul\":577:599   */\n      add\n        /* \"#utility.yul\":556:609   */\n      tag_108\n      jump\t// in\n    tag_120:\n        /* \"#utility.yul\":546:609   */\n      swap2\n      pop\n        /* \"#utility.yul\":502:619   */\n      pop\n        /* \"#utility.yul\":297:626   */\n      swap3\n      swap2\n      pop\n      pop\n      jump\t// out\n        /* \"#utility.yul\":632:1106   */\n    tag_42:\n        /* \"#utility.yul\":700:706   */\n      0x00\n        /* \"#utility.yul\":708:714   */\n      dup1\n        /* \"#utility.yul\":757:759   */\n      0x40\n        /* \"#utility.yul\":745:754   */\n      dup4\n        /* \"#utility.yul\":736:743   */\n      dup6\n        /* \"#utility.yul\":732:755   */\n      sub\n        /* \"#utility.yul\":728:760   */\n      slt\n        /* \"#utility.yul\":725:844   */\n      iszero\n      tag_122\n      jumpi\n        /* \"#utility.yul\":763:842   */\n      tag_123\n      tag_119\n      jump\t// in\n    tag_123:\n        /* \"#utility.yul\":725:844   */\n    tag_122:\n        /* \"#utility.yul\":883:884   */\n      0x00\n        /* \"#utility.yul\":908:961   */\n      tag_124\n        /* \"#utility.yul\":953:960   */\n      dup6\n        /* \"#utility.yul\":944:950   */\n      dup3\n        /* \"#utility.yul\":933:942   */\n      dup7\n        /* \"#utility.yul\":929:951   */\n      add\n        /* \"#utility.yul\":908:961   */\n      tag_108\n      jump\t// in\n    tag_124:\n        /* \"#utility.yul\":898:961   */\n      swap3\n      pop\n        /* \"#utility.yul\":854:971   */\n      pop\n        /* \"#utility.yul\":1010:1012   */\n      0x20\n        /* \"#utility.yul\":1036:1089   */\n      tag_125\n        /* \"#utility.yul\":1081:1088   */\n      dup6\n        /* \"#utility.yul\":1072:1078   */\n      dup3\n        /* \"#utility.yul\":1061:1070   */\n      dup7\n        /* \"#utility.yul\":1057:1079   */\n      add\n        /* \"#utility.yul\":1036:1089   */\n      tag_112\n      jump\t// in\n    tag_125:\n        /* \"#utility.yul\":1026:1089   */\n      swap2\n      pop\n        /* \"#utility.yul\":981:1099   */\n      pop\n        /* \"#utility.yul\":632:1106   */\n      swap3\n      pop\n      swap3\n      swap1\n      pop\n      jump\t// out\n        /* \"#utility.yul\":1112:1441   */\n    tag_16:\n        /* \"#utility.yul\":1171:1177   */\n      0x00\n        /* \"#utility.yul\":1220:1222   */\n      0x20\n        /* \"#utility.yul\":1208:1217   */\n      dup3\n        /* \"#utility.yul\":1199:1206   */\n      dup5\n        /* \"#utility.yul\":1195:1218   */\n      sub\n        /* \"#utility.yul\":1191:1223   */\n      slt\n        /* \"#utility.yul\":1188:1307   */\n      iszero\n      tag_127\n      jumpi\n        /* \"#utility.yul\":1226:1305   */\n      tag_128\n      tag_119\n      jump\t// in\n    tag_128:\n        /* \"#utility.yul\":1188:1307   */\n    tag_127:\n        /* \"#utility.yul\":1346:1347   */\n      0x00\n        /* \"#utility.yul\":1371:1424   */\n      tag_129\n        /* \"#utility.yul\":1416:1423   */\n      dup5\n        /* \"#utility.yul\":1407:1413   */\n      dup3\n        /* \"#utility.yul\":1396:1405   */\n      dup6\n        /* \"#utility.yul\":1392:1414   */\n      add\n        /* \"#utility.yul\":1371:1424   */\n      tag_112\n      jump\t// in\n    tag_129:\n        /* \"#utility.yul\":1361:1424   */\n      swap2\n      pop\n        /* \"#utility.yul\":1317:1434   */\n      pop\n        /* \"#utility.yul\":1112:1441   */\n      swap3\n      swap2\n      pop\n      pop\n      jump\t// out\n        /* \"#utility.yul\":1447:1565   */\n    tag_130:\n        /* \"#utility.yul\":1534:1558   */\n      tag_132\n        /* \"#utility.yul\":1552:1557   */\n      dup2\n        /* \"#utility.yul\":1534:1558   */\n      tag_133\n      jump\t// in\n    tag_132:\n        /* \"#utility.yul\":1529:1532   */\n      dup3\n        /* \"#utility.yul\":1522:1559   */\n      mstore\n        /* \"#utility.yul\":1447:1565   */\n      pop\n      pop\n      jump\t// out\n        /* \"#utility.yul\":1571:1680   */\n    tag_134:\n        /* \"#utility.yul\":1652:1673   */\n      tag_136\n        /* \"#utility.yul\":1667:1672   */\n      dup2\n        /* \"#utility.yul\":1652:1673   */\n      tag_137\n      jump\t// in\n    tag_136:\n        /* \"#utility.yul\":1647:1650   */\n      dup3\n        /* \"#utility.yul\":1640:1674   */\n      mstore\n        /* \"#utility.yul\":1571:1680   */\n      pop\n      pop\n      jump\t// out\n        /* \"#utility.yul\":1686:1804   */\n    tag_138:\n        /* \"#utility.yul\":1773:1797   */\n      tag_140\n        /* \"#utility.yul\":1791:1796   */\n      dup2\n        /* \"#utility.yul\":1773:1797   */\n      tag_141\n      jump\t// in\n    tag_140:\n        /* \"#utility.yul\":1768:1771   */\n      dup3\n        /* \"#utility.yul\":1761:1798   */\n      mstore\n        /* \"#utility.yul\":1686:1804   */\n      pop\n      pop\n      jump\t// out\n        /* \"#utility.yul\":1810:1953   */\n    tag_142:\n        /* \"#utility.yul\":1903:1946   */\n      tag_144\n        /* \"#utility.yul\":1940:1945   */\n      dup2\n        /* \"#utility.yul\":1903:1946   */\n      tag_145\n      jump\t// in\n    tag_144:\n        /* \"#utility.yul\":1898:1901   */\n      dup3\n        /* \"#utility.yul\":1891:1947   */\n      mstore\n        /* \"#utility.yul\":1810:1953   */\n      pop\n      pop\n      jump\t// out\n        /* \"#utility.yul\":1959:2074   */\n    tag_146:\n        /* \"#utility.yul\":2044:2067   */\n      tag_148\n        /* \"#utility.yul\":2061:2066   */\n      dup2\n        /* \"#utility.yul\":2044:2067   */\n      tag_149\n      jump\t// in\n    tag_148:\n        /* \"#utility.yul\":2039:2042   */\n      dup3\n        /* \"#utility.yul\":2032:2068   */\n      mstore\n        /* \"#utility.yul\":1959:2074   */\n      pop\n      pop\n      jump\t// out\n        /* \"#utility.yul\":2080:2446   */\n    tag_150:\n        /* \"#utility.yul\":2222:2225   */\n      0x00\n        /* \"#utility.yul\":2243:2310   */\n      tag_152\n        /* \"#utility.yul\":2307:2309   */\n      0x2a\n        /* \"#utility.yul\":2302:2305   */\n      dup4\n        /* \"#utility.yul\":2243:2310   */\n      tag_153\n      jump\t// in\n    tag_152:\n        /* \"#utility.yul\":2236:2310   */\n      swap2\n      pop\n        /* \"#utility.yul\":2319:2412   */\n      tag_154\n        /* \"#utility.yul\":2408:2411   */\n      dup3\n        /* \"#utility.yul\":2319:2412   */\n      tag_155\n      jump\t// in\n    tag_154:\n        /* \"#utility.yul\":2437:2439   */\n      0x40\n        /* \"#utility.yul\":2432:2435   */\n      dup3\n        /* \"#utility.yul\":2428:2440   */\n      add\n        /* \"#utility.yul\":2421:2440   */\n      swap1\n      pop\n        /* \"#utility.yul\":2080:2446   */\n      swap2\n      swap1\n      pop\n      jump\t// out\n        /* \"#utility.yul\":2452:2818   */\n    tag_156:\n        /* \"#utility.yul\":2594:2597   */\n      0x00\n        /* \"#utility.yul\":2615:2682   */\n      tag_158\n        /* \"#utility.yul\":2679:2681   */\n      0x1c\n        /* \"#utility.yul\":2674:2677   */\n      dup4\n        /* \"#utility.yul\":2615:2682   */\n      tag_153\n      jump\t// in\n    tag_158:\n        /* \"#utility.yul\":2608:2682   */\n      swap2\n      pop\n        /* \"#utility.yul\":2691:2784   */\n      tag_159\n        /* \"#utility.yul\":2780:2783   */\n      dup3\n        /* \"#utility.yul\":2691:2784   */\n      tag_160\n      jump\t// in\n    tag_159:\n        /* \"#utility.yul\":2809:2811   */\n      0x20\n        /* \"#utility.yul\":2804:2807   */\n      dup3\n        /* \"#utility.yul\":2800:2812   */\n      add\n        /* \"#utility.yul\":2793:2812   */\n      swap1\n      pop\n        /* \"#utility.yul\":2452:2818   */\n      swap2\n      swap1\n      pop\n      jump\t// out\n        /* \"#utility.yul\":2824:2942   */\n    tag_161:\n        /* \"#utility.yul\":2911:2935   */\n      tag_163\n        /* \"#utility.yul\":2929:2934   */\n      dup2\n        /* \"#utility.yul\":2911:2935   */\n      tag_164\n      jump\t// in\n    tag_163:\n        /* \"#utility.yul\":2906:2909   */\n      dup3\n        /* \"#utility.yul\":2899:2936   */\n      mstore\n        /* \"#utility.yul\":2824:2942   */\n      pop\n      pop\n      jump\t// out\n        /* \"#utility.yul\":2948:3170   */\n    tag_51:\n        /* \"#utility.yul\":3041:3045   */\n      0x00\n        /* \"#utility.yul\":3079:3081   */\n      0x20\n        /* \"#utility.yul\":3068:3077   */\n      dup3\n        /* \"#utility.yul\":3064:3082   */\n      add\n        /* \"#utility.yul\":3056:3082   */\n      swap1\n      pop\n        /* \"#utility.yul\":3092:3163   */\n      tag_166\n        /* \"#utility.yul\":3160:3161   */\n      0x00\n        /* \"#utility.yul\":3149:3158   */\n      dup4\n        /* \"#utility.yul\":3145:3162   */\n      add\n        /* \"#utility.yul\":3136:3142   */\n      dup5\n        /* \"#utility.yul\":3092:3163   */\n      tag_130\n      jump\t// in\n    tag_166:\n        /* \"#utility.yul\":2948:3170   */\n      swap3\n      swap2\n      pop\n      pop\n      jump\t// out\n        /* \"#utility.yul\":3176:3812   */\n    tag_39:\n        /* \"#utility.yul\":3367:3371   */\n      0x00\n        /* \"#utility.yul\":3405:3408   */\n      0xa0\n        /* \"#utility.yul\":3394:3403   */\n      dup3\n        /* \"#utility.yul\":3390:3409   */\n      add\n        /* \"#utility.yul\":3382:3409   */\n      swap1\n      pop\n        /* \"#utility.yul\":3419:3484   */\n      tag_168\n        /* \"#utility.yul\":3481:3482   */\n      0x00\n        /* \"#utility.yul\":3470:3479   */\n      dup4\n        /* \"#utility.yul\":3466:3483   */\n      add\n        /* \"#utility.yul\":3457:3463   */\n      dup9\n        /* \"#utility.yul\":3419:3484   */\n      tag_134\n      jump\t// in\n    tag_168:\n        /* \"#utility.yul\":3494:3560   */\n      tag_169\n        /* \"#utility.yul\":3556:3558   */\n      0x20\n        /* \"#utility.yul\":3545:3554   */\n      dup4\n        /* \"#utility.yul\":3541:3559   */\n      add\n        /* \"#utility.yul\":3532:3538   */\n      dup8\n        /* \"#utility.yul\":3494:3560   */\n      tag_134\n      jump\t// in\n    tag_169:\n        /* \"#utility.yul\":3570:3640   */\n      tag_170\n        /* \"#utility.yul\":3636:3638   */\n      0x40\n        /* \"#utility.yul\":3625:3634   */\n      dup4\n        /* \"#utility.yul\":3621:3639   */\n      add\n        /* \"#utility.yul\":3612:3618   */\n      dup7\n        /* \"#utility.yul\":3570:3640   */\n      tag_146\n      jump\t// in\n    tag_170:\n        /* \"#utility.yul\":3650:3722   */\n      tag_171\n        /* \"#utility.yul\":3718:3720   */\n      0x60\n        /* \"#utility.yul\":3707:3716   */\n      dup4\n        /* \"#utility.yul\":3703:3721   */\n      add\n        /* \"#utility.yul\":3694:3700   */\n      dup6\n        /* \"#utility.yul\":3650:3722   */\n      tag_161\n      jump\t// in\n    tag_171:\n        /* \"#utility.yul\":3732:3805   */\n      tag_172\n        /* \"#utility.yul\":3800:3803   */\n      0x80\n        /* \"#utility.yul\":3789:3798   */\n      dup4\n        /* \"#utility.yul\":3785:3804   */\n      add\n        /* \"#utility.yul\":3776:3782   */\n      dup5\n        /* \"#utility.yul\":3732:3805   */\n      tag_161\n      jump\t// in\n    tag_172:\n        /* \"#utility.yul\":3176:3812   */\n      swap7\n      swap6\n      pop\n      pop\n      pop\n      pop\n      pop\n      pop\n      jump\t// out\n        /* \"#utility.yul\":3818:4052   */\n    tag_47:\n        /* \"#utility.yul\":3917:3921   */\n      0x00\n        /* \"#utility.yul\":3955:3957   */\n      0x20\n        /* \"#utility.yul\":3944:3953   */\n      dup3\n        /* \"#utility.yul\":3940:3958   */\n      add\n        /* \"#utility.yul\":3932:3958   */\n      swap1\n      pop\n        /* \"#utility.yul\":3968:4045   */\n      tag_174\n        /* \"#utility.yul\":4042:4043   */\n      0x00\n        /* \"#utility.yul\":4031:4040   */\n      dup4\n        /* \"#utility.yul\":4027:4044   */\n      add\n        /* \"#utility.yul\":4018:4024   */\n      dup5\n        /* \"#utility.yul\":3968:4045   */\n      tag_142\n      jump\t// in\n    tag_174:\n        /* \"#utility.yul\":3818:4052   */\n      swap3\n      swap2\n      pop\n      pop\n      jump\t// out\n        /* \"#utility.yul\":4058:4477   */\n    tag_86:\n        /* \"#utility.yul\":4224:4228   */\n      0x00\n        /* \"#utility.yul\":4262:4264   */\n      0x20\n        /* \"#utility.yul\":4251:4260   */\n      dup3\n        /* \"#utility.yul\":4247:4265   */\n      add\n        /* \"#utility.yul\":4239:4265   */\n      swap1\n      pop\n        /* \"#utility.yul\":4311:4320   */\n      dup2\n        /* \"#utility.yul\":4305:4309   */\n      dup2\n        /* \"#utility.yul\":4301:4321   */\n      sub\n        /* \"#utility.yul\":4297:4298   */\n      0x00\n        /* \"#utility.yul\":4286:4295   */\n      dup4\n        /* \"#utility.yul\":4282:4299   */\n      add\n        /* \"#utility.yul\":4275:4322   */\n      mstore\n        /* \"#utility.yul\":4339:4470   */\n      tag_176\n        /* \"#utility.yul\":4465:4469   */\n      dup2\n        /* \"#utility.yul\":4339:4470   */\n      tag_150\n      jump\t// in\n    tag_176:\n        /* \"#utility.yul\":4331:4470   */\n      swap1\n      pop\n        /* \"#utility.yul\":4058:4477   */\n      swap2\n      swap1\n      pop\n      jump\t// out\n        /* \"#utility.yul\":4483:4902   */\n    tag_82:\n        /* \"#utility.yul\":4649:4653   */\n      0x00\n        /* \"#utility.yul\":4687:4689   */\n      0x20\n        /* \"#utility.yul\":4676:4685   */\n      dup3\n        /* \"#utility.yul\":4672:4690   */\n      add\n        /* \"#utility.yul\":4664:4690   */\n      swap1\n      pop\n        /* \"#utility.yul\":4736:4745   */\n      dup2\n        /* \"#utility.yul\":4730:4734   */\n      dup2\n        /* \"#utility.yul\":4726:4746   */\n      sub\n        /* \"#utility.yul\":4722:4723   */\n      0x00\n        /* \"#utility.yul\":4711:4720   */\n      dup4\n        /* \"#utility.yul\":4707:4724   */\n      add\n        /* \"#utility.yul\":4700:4747   */\n      mstore\n        /* \"#utility.yul\":4764:4895   */\n      tag_178\n        /* \"#utility.yul\":4890:4894   */\n      dup2\n        /* \"#utility.yul\":4764:4895   */\n      tag_156\n      jump\t// in\n    tag_178:\n        /* \"#utility.yul\":4756:4895   */\n      swap1\n      pop\n        /* \"#utility.yul\":4483:4902   */\n      swap2\n      swap1\n      pop\n      jump\t// out\n        /* \"#utility.yul\":4908:5130   */\n    tag_23:\n        /* \"#utility.yul\":5001:5005   */\n      0x00\n        /* \"#utility.yul\":5039:5041   */\n      0x20\n        /* \"#utility.yul\":5028:5037   */\n      dup3\n        /* \"#utility.yul\":5024:5042   */\n      add\n        /* \"#utility.yul\":5016:5042   */\n      swap1\n      pop\n        /* \"#utility.yul\":5052:5123   */\n      tag_180\n        /* \"#utility.yul\":5120:5121   */\n      0x00\n        /* \"#utility.yul\":5109:5118   */\n      dup4\n        /* \"#utility.yul\":5105:5122   */\n      add\n        /* \"#utility.yul\":5096:5102   */\n      dup5\n        /* \"#utility.yul\":5052:5123   */\n      tag_161\n      jump\t// in\n    tag_180:\n        /* \"#utility.yul\":4908:5130   */\n      swap3\n      swap2\n      pop\n      pop\n      jump\t// out\n        /* \"#utility.yul\":5136:5578   */\n    tag_19:\n        /* \"#utility.yul\":5285:5289   */\n      0x00\n        /* \"#utility.yul\":5323:5325   */\n      0x60\n        /* \"#utility.yul\":5312:5321   */\n      dup3\n        /* \"#utility.yul\":5308:5326   */\n      add\n        /* \"#utility.yul\":5300:5326   */\n      swap1\n      pop\n        /* \"#utility.yul\":5336:5407   */\n      tag_182\n        /* \"#utility.yul\":5404:5405   */\n      0x00\n        /* \"#utility.yul\":5393:5402   */\n      dup4\n        /* \"#utility.yul\":5389:5406   */\n      add\n        /* \"#utility.yul\":5380:5386   */\n      dup7\n        /* \"#utility.yul\":5336:5407   */\n      tag_161\n      jump\t// in\n    tag_182:\n        /* \"#utility.yul\":5417:5489   */\n      tag_183\n        /* \"#utility.yul\":5485:5487   */\n      0x20\n        /* \"#utility.yul\":5474:5483   */\n      dup4\n        /* \"#utility.yul\":5470:5488   */\n      add\n        /* \"#utility.yul\":5461:5467   */\n      dup6\n        /* \"#utility.yul\":5417:5489   */\n      tag_138\n      jump\t// in\n    tag_183:\n        /* \"#utility.yul\":5499:5571   */\n      tag_184\n        /* \"#utility.yul\":5567:5569   */\n      0x40\n        /* \"#utility.yul\":5556:5565   */\n      dup4\n        /* \"#utility.yul\":5552:5570   */\n      add\n        /* \"#utility.yul\":5543:5549   */\n      dup5\n        /* \"#utility.yul\":5499:5571   */\n      tag_161\n      jump\t// in\n    tag_184:\n        /* \"#utility.yul\":5136:5578   */\n      swap5\n      swap4\n      pop\n      pop\n      pop\n      pop\n      jump\t// out\n        /* \"#utility.yul\":5584:6026   */\n    tag_33:\n        /* \"#utility.yul\":5733:5737   */\n      0x00\n        /* \"#utility.yul\":5771:5773   */\n      0x60\n        /* \"#utility.yul\":5760:5769   */\n      dup3\n        /* \"#utility.yul\":5756:5774   */\n      add\n        /* \"#utility.yul\":5748:5774   */\n      swap1\n      pop\n        /* \"#utility.yul\":5784:5855   */\n      tag_186\n        /* \"#utility.yul\":5852:5853   */\n      0x00\n        /* \"#utility.yul\":5841:5850   */\n      dup4\n        /* \"#utility.yul\":5837:5854   */\n      add\n        /* \"#utility.yul\":5828:5834   */\n      dup7\n        /* \"#utility.yul\":5784:5855   */\n      tag_161\n      jump\t// in\n    tag_186:\n        /* \"#utility.yul\":5865:5937   */\n      tag_187\n        /* \"#utility.yul\":5933:5935   */\n      0x20\n        /* \"#utility.yul\":5922:5931   */\n      dup4\n        /* \"#utility.yul\":5918:5936   */\n      add\n        /* \"#utility.yul\":5909:5915   */\n      dup6\n        /* \"#utility.yul\":5865:5937   */\n      tag_161\n      jump\t// in\n    tag_187:\n        /* \"#utility.yul\":5947:6019   */\n      tag_188\n        /* \"#utility.yul\":6015:6017   */\n      0x40\n        /* \"#utility.yul\":6004:6013   */\n      dup4\n        /* \"#utility.yul\":6000:6018   */\n      add\n        /* \"#utility.yul\":5991:5997   */\n      dup5\n        /* \"#utility.yul\":5947:6019   */\n      tag_161\n      jump\t// in\n    tag_188:\n        /* \"#utility.yul\":5584:6026   */\n      swap5\n      swap4\n      pop\n      pop\n      pop\n      pop\n      jump\t// out\n        /* \"#utility.yul\":6113:6282   */\n    tag_153:\n        /* \"#utility.yul\":6197:6208   */\n      0x00\n        /* \"#utility.yul\":6231:6237   */\n      dup3\n        /* \"#utility.yul\":6226:6229   */\n      dup3\n        /* \"#utility.yul\":6219:6238   */\n      mstore\n        /* \"#utility.yul\":6271:6275   */\n      0x20\n        /* \"#utility.yul\":6266:6269   */\n      dup3\n        /* \"#utility.yul\":6262:6276   */\n      add\n        /* \"#utility.yul\":6247:6276   */\n      swap1\n      pop\n        /* \"#utility.yul\":6113:6282   */\n      swap3\n      swap2\n      pop\n      pop\n      jump\t// out\n        /* \"#utility.yul\":6288:6384   */\n    tag_133:\n        /* \"#utility.yul\":6325:6332   */\n      0x00\n        /* \"#utility.yul\":6354:6378   */\n      tag_193\n        /* \"#utility.yul\":6372:6377   */\n      dup3\n        /* \"#utility.yul\":6354:6378   */\n      tag_194\n      jump\t// in\n    tag_193:\n        /* \"#utility.yul\":6343:6378   */\n      swap1\n      pop\n        /* \"#utility.yul\":6288:6384   */\n      swap2\n      swap1\n      pop\n      jump\t// out\n        /* \"#utility.yul\":6390:6480   */\n    tag_137:\n        /* \"#utility.yul\":6424:6431   */\n      0x00\n        /* \"#utility.yul\":6467:6472   */\n      dup2\n        /* \"#utility.yul\":6460:6473   */\n      iszero\n        /* \"#utility.yul\":6453:6474   */\n      iszero\n        /* \"#utility.yul\":6442:6474   */\n      swap1\n      pop\n        /* \"#utility.yul\":6390:6480   */\n      swap2\n      swap1\n      pop\n      jump\t// out\n        /* \"#utility.yul\":6486:6563   */\n    tag_141:\n        /* \"#utility.yul\":6523:6530   */\n      0x00\n        /* \"#utility.yul\":6552:6557   */\n      dup2\n        /* \"#utility.yul\":6541:6557   */\n      swap1\n      pop\n        /* \"#utility.yul\":6486:6563   */\n      swap2\n      swap1\n      pop\n      jump\t// out\n        /* \"#utility.yul\":6569:6696   */\n    tag_197:\n        /* \"#utility.yul\":6614:6621   */\n      0x00\n        /* \"#utility.yul\":6643:6648   */\n      dup2\n        /* \"#utility.yul\":6632:6648   */\n      swap1\n      pop\n        /* \"#utility.yul\":6649:6690   */\n      tag_199\n        /* \"#utility.yul\":6684:6689   */\n      dup3\n        /* \"#utility.yul\":6649:6690   */\n      tag_200\n      jump\t// in\n    tag_199:\n        /* \"#utility.yul\":6569:6696   */\n      swap2\n      swap1\n      pop\n      jump\t// out\n        /* \"#utility.yul\":6702:6778   */\n    tag_149:\n        /* \"#utility.yul\":6738:6745   */\n      0x00\n        /* \"#utility.yul\":6767:6772   */\n      dup2\n        /* \"#utility.yul\":6756:6772   */\n      swap1\n      pop\n        /* \"#utility.yul\":6702:6778   */\n      swap2\n      swap1\n      pop\n      jump\t// out\n        /* \"#utility.yul\":6784:6910   */\n    tag_194:\n        /* \"#utility.yul\":6821:6828   */\n      0x00\n        /* \"#utility.yul\":6861:6903   */\n      0xffffffffffffffffffffffffffffffffffffffff\n        /* \"#utility.yul\":6854:6859   */\n      dup3\n        /* \"#utility.yul\":6850:6904   */\n      and\n        /* \"#utility.yul\":6839:6904   */\n      swap1\n      pop\n        /* \"#utility.yul\":6784:6910   */\n      swap2\n      swap1\n      pop\n      jump\t// out\n        /* \"#utility.yul\":6916:6993   */\n    tag_164:\n        /* \"#utility.yul\":6953:6960   */\n      0x00\n        /* \"#utility.yul\":6982:6987   */\n      dup2\n        /* \"#utility.yul\":6971:6987   */\n      swap1\n      pop\n        /* \"#utility.yul\":6916:6993   */\n      swap2\n      swap1\n      pop\n      jump\t// out\n        /* \"#utility.yul\":6999:7126   */\n    tag_145:\n        /* \"#utility.yul\":7055:7064   */\n      0x00\n        /* \"#utility.yul\":7088:7120   */\n      tag_205\n        /* \"#utility.yul\":7114:7119   */\n      dup3\n        /* \"#utility.yul\":7088:7120   */\n      tag_197\n      jump\t// in\n    tag_205:\n        /* \"#utility.yul\":7075:7120   */\n      swap1\n      pop\n        /* \"#utility.yul\":6999:7126   */\n      swap2\n      swap1\n      pop\n      jump\t// out\n        /* \"#utility.yul\":7132:7365   */\n    tag_90:\n        /* \"#utility.yul\":7171:7174   */\n      0x00\n        /* \"#utility.yul\":7194:7218   */\n      tag_207\n        /* \"#utility.yul\":7212:7217   */\n      dup3\n        /* \"#utility.yul\":7194:7218   */\n      tag_164\n      jump\t// in\n    tag_207:\n        /* \"#utility.yul\":7185:7218   */\n      swap2\n      pop\n        /* \"#utility.yul\":7240:7306   */\n      0xffffffffffffffffffffffffffffffffffffffffffffffffffffffffffffffff\n        /* \"#utility.yul\":7233:7238   */\n      dup3\n        /* \"#utility.yul\":7230:7307   */\n      eq\n        /* \"#utility.yul\":7227:7330   */\n      iszero\n      tag_208\n      jumpi\n        /* \"#utility.yul\":7310:7328   */\n      tag_209\n      tag_210\n      jump\t// in\n    tag_209:\n        /* \"#utility.yul\":7227:7330   */\n    tag_208:\n        /* \"#utility.yul\":7357:7358   */\n      0x01\n        /* \"#utility.yul\":7350:7355   */\n      dup3\n        /* \"#utility.yul\":7346:7359   */\n      add\n        /* \"#utility.yul\":7339:7359   */\n      swap1\n      pop\n        /* \"#utility.yul\":7132:7365   */\n      swap2\n      swap1\n      pop\n      jump\t// out\n        /* \"#utility.yul\":7371:7551   */\n    tag_210:\n        /* \"#utility.yul\":7419:7496   */\n      0x4e487b7100000000000000000000000000000000000000000000000000000000\n        /* \"#utility.yul\":7416:7417   */\n      0x00\n        /* \"#utility.yul\":7409:7497   */\n      mstore\n        /* \"#utility.yul\":7516:7520   */\n      0x11\n        /* \"#utility.yul\":7513:7514   */\n      0x04\n        /* \"#utility.yul\":7506:7521   */\n      mstore\n        /* \"#utility.yul\":7540:7544   */\n      0x24\n        /* \"#utility.yul\":7537:7538   */\n      0x00\n        /* \"#utility.yul\":7530:7545   */\n      revert\n        /* \"#utility.yul\":7557:7737   */\n    tag_60:\n        /* \"#utility.yul\":7605:7682   */\n      0x4e487b7100000000000000000000000000000000000000000000000000000000\n        /* \"#utility.yul\":7602:7603   */\n      0x00\n        /* \"#utility.yul\":7595:7683   */\n      mstore\n        /* \"#utility.yul\":7702:7706   */\n      0x21\n        /* \"#utility.yul\":7699:7700   */\n      0x04\n        /* \"#utility.yul\":7692:7707   */\n      mstore\n        /* \"#utility.yul\":7726:7730   */\n      0x24\n        /* \"#utility.yul\":7723:7724   */\n      0x00\n        /* \"#utility.yul\":7716:7731   */\n      revert\n        /* \"#utility.yul\":7743:7923   */\n    tag_99:\n        /* \"#utility.yul\":7791:7868   */\n      0x4e487b7100000000000000000000000000000000000000000000000000000000\n        /* \"#utility.yul\":7788:7789   */\n      0x00\n        /* \"#utility.yul\":7781:7869   */\n      mstore\n        /* \"#utility.yul\":7888:7892   */\n      0x32\n        /* \"#utility.yul\":7885:7886   */\n      0x04\n        /* \"#utility.yul\":7878:7893   */\n      mstore\n        /* \"#utility.yul\":7912:7916   */\n      0x24\n        /* \"#utility.yul\":7909:7910   */\n      0x00\n        /* \"#utility.yul\":7902:7917   */\n      revert\n        /* \"#utility.yul\":8052:8169   */\n    tag_119:\n        /* \"#utility.yul\":8161:8162   */\n      0x00\n        /* \"#utility.yul\":8158:8159   */\n      dup1\n        /* \"#utility.yul\":8151:8163   */\n      revert\n        /* \"#utility.yul\":8175:8404   */\n    tag_155:\n        /* \"#utility.yul\":8315:8349   */\n      0x506c656173652070726f7669646520612076616c696420706f6c6c696e672073\n        /* \"#utility.yul\":8311:8312   */\n      0x00\n        /* \"#utility.yul\":8303:8309   */\n      dup3\n        /* \"#utility.yul\":8299:8313   */\n      add\n        /* \"#utility.yul\":8292:8350   */\n      mstore\n        /* \"#utility.yul\":8384:8396   */\n      0x746174696f6e2049442e00000000000000000000000000000000000000000000\n        /* \"#utility.yul\":8379:8381   */\n      0x20\n        /* \"#utility.yul\":8371:8377   */\n      dup3\n        /* \"#utility.yul\":8367:8382   */\n      add\n        /* \"#utility.yul\":8360:8397   */\n      mstore\n        /* \"#utility.yul\":8175:8404   */\n      pop\n      jump\t// out\n        /* \"#utility.yul\":8410:8588   */\n    tag_160:\n        /* \"#utility.yul\":8550:8580   */\n      0x566f74657220697320616c726561647920726567697374657265642e00000000\n        /* \"#utility.yul\":8546:8547   */\n      0x00\n        /* \"#utility.yul\":8538:8544   */\n      dup3\n        /* \"#utility.yul\":8534:8548   */\n      add\n        /* \"#utility.yul\":8527:8581   */\n      mstore\n        /* \"#utility.yul\":8410:8588   */\n      pop\n      jump\t// out\n        /* \"#utility.yul\":8594:8707   */\n    tag_200:\n        /* \"#utility.yul\":8675:8676   */\n      0x03\n        /* \"#utility.yul\":8668:8673   */\n      dup2\n        /* \"#utility.yul\":8665:8677   */\n      lt\n        /* \"#utility.yul\":8655:8701   */\n      tag_220\n      jumpi\n        /* \"#utility.yul\":8681:8699   */\n      tag_221\n      tag_60\n      jump\t// in\n    tag_221:\n        /* \"#utility.yul\":8655:8701   */\n    tag_220:\n        /* \"#utility.yul\":8594:8707   */\n      pop\n      jump\t// out\n        /* \"#utility.yul\":8713:8835   */\n    tag_111:\n        /* \"#utility.yul\":8786:8810   */\n      tag_223\n        /* \"#utility.yul\":8804:8809   */\n      dup2\n        /* \"#utility.yul\":8786:8810   */\n      tag_133\n      jump\t// in\n    tag_223:\n        /* \"#utility.yul\":8779:8784   */\n      dup2\n        /* \"#utility.yul\":8776:8811   */\n      eq\n        /* \"#utility.yul\":8766:8829   */\n      tag_224\n      jumpi\n        /* \"#utility.yul\":8825:8826   */\n      0x00\n        /* \"#utility.yul\":8822:8823   */\n      dup1\n        /* \"#utility.yul\":8815:8827   */\n      revert\n        /* \"#utility.yul\":8766:8829   */\n    tag_224:\n        /* \"#utility.yul\":8713:8835   */\n      pop\n      jump\t// out\n        /* \"#utility.yul\":8841:8963   */\n    tag_115:\n        /* \"#utility.yul\":8914:8938   */\n      tag_226\n        /* \"#utility.yul\":8932:8937   */\n      dup2\n        /* \"#utility.yul\":8914:8938   */\n      tag_164\n      jump\t// in\n    tag_226:\n        /* \"#utility.yul\":8907:8912   */\n      dup2\n        /* \"#utility.yul\":8904:8939   */\n      eq\n        /* \"#utility.yul\":8894:8957   */\n      tag_227\n      jumpi\n        /* \"#utility.yul\":8953:8954   */\n      0x00\n        /* \"#utility.yul\":8950:8951   */\n      dup1\n        /* \"#utility.yul\":8943:8955   */\n      revert\n        /* \"#utility.yul\":8894:8957   */\n    tag_227:\n        /* \"#utility.yul\":8841:8963   */\n      pop\n      jump\t// out\n\n    auxdata: 0xa2646970667358221220c57f459e231ef57393155f3572ed292baec149a3189148ecd5afe5b09dc38e6464736f6c63430008070033\n}\n",
				"bytecode": {
					"linkReferences": {},
					"object": "60806040526005600155600a60025560006003556000600455600060055560006006553480156200002f57600080fd5b50336000806101000a81548173ffffffffffffffffffffffffffffffffffffffff021916908373ffffffffffffffffffffffffffffffffffffffff16021790555062000080620000c760201b60201c565b620000936002546200033c60201b60201c565b6000600a60006101000a81548160ff02191690836002811115620000bc57620000bb620004bc565b5b021790555062000549565b600060015467ffffffffffffffff811115620000e857620000e76200051a565b5b604051908082528060200260200182016040528015620001175781602001602082028036833780820191505090505b5090507f43616e646964617465203100000000000000000000000000000000000000000060001b81600081518110620001555762000154620004eb565b5b6020026020010181815250507f43616e646964617465203200000000000000000000000000000000000000000060001b816001815181106200019c576200019b620004eb565b5b6020026020010181815250507f43616e646964617465203300000000000000000000000000000000000000000060001b81600281518110620001e357620001e2620004eb565b5b6020026020010181815250507f43616e646964617465203400000000000000000000000000000000000000000060001b816003815181106200022a5762000229620004eb565b5b6020026020010181815250507f43616e646964617465203500000000000000000000000000000000000000000060001b81600481518110620002715762000270620004eb565b5b60200260200101818152505060005b8151811015620003385760006001826200029b9190620003d8565b905060076040518060600160405280838152602001858581518110620002c657620002c5620004eb565b5b602002602001015181526020016000815250908060018154018082558091505060019003906000526020600020906003020160009091909190915060008201518160000155602082015181600101556040820151816002015550505080806200032f906200043f565b91505062000280565b5050565b60005b81811015620003d45760086040518060600160405280600184620003649190620003d8565b8152602001600081526020016000815250908060018154018082558091505060019003906000526020600020906003020160009091909190915060008201518160000155602082015181600101556040820151816002015550508080620003cb906200043f565b9150506200033f565b5050565b6000620003e58262000435565b9150620003f28362000435565b9250827fffffffffffffffffffffffffffffffffffffffffffffffffffffffffffffffff038211156200042a57620004296200048d565b5b828201905092915050565b6000819050919050565b60006200044c8262000435565b91507fffffffffffffffffffffffffffffffffffffffffffffffffffffffffffffffff8214156200048257620004816200048d565b5b600182019050919050565b7f4e487b7100000000000000000000000000000000000000000000000000000000600052601160045260246000fd5b7f4e487b7100000000000000000000000000000000000000000000000000000000600052602160045260246000fd5b7f4e487b7100000000000000000000000000000000000000000000000000000000600052603260045260246000fd5b7f4e487b7100000000000000000000000000000000000000000000000000000000600052604160045260246000fd5b610c4680620005596000396000f3fe608060405234801561001057600080fd5b506004361061009e5760003560e01c8063af15408711610066578063af1540871461014d578063b9f05f2f14610181578063c19d93fb1461019d578063dca97183146101bb578063f3a8286f146101d95761009e565b8063013cf08b146100a35780630d15fd77146100d55780634c0a6af0146100f35780635f5300ff146100fd57806392f859db1461011b575b600080fd5b6100bd60048036038101906100b891906107ca565b6101f7565b6040516100cc9392919061097b565b60405180910390f35b6100dd610231565b6040516100ea9190610960565b60405180910390f35b6100fb610237565b005b6101056102fe565b6040516101129190610960565b60405180910390f35b610135600480360381019061013091906107ca565b610304565b604051610144939291906109b2565b60405180910390f35b6101676004803603810190610162919061075d565b61033e565b6040516101789594939291906108b2565b60405180910390f35b61019b6004803603810190610196919061078a565b61038e565b005b6101a561062f565b6040516101b29190610905565b60405180910390f35b6101c3610642565b6040516101d09190610897565b60405180910390f35b6101e1610666565b6040516101ee9190610960565b60405180910390f35b6007818154811061020757600080fd5b90600052602060002090600302016000915090508060000154908060010154908060020154905083565b60065481565b600080600281111561024c5761024b610af3565b5b600a60009054906101000a900460ff16600281111561026e5761026d610af3565b5b1461027857600080fd5b60008054906101000a900473ffffffffffffffffffffffffffffffffffffffff1673ffffffffffffffffffffffffffffffffffffffff163373ffffffffffffffffffffffffffffffffffffffff16146102d057600080fd5b6001600a60006101000a81548160ff021916908360028111156102f6576102f5610af3565b5b021790555050565b60055481565b6008818154811061031457600080fd5b90600052602060002090600302016000915090508060000154908060010154908060020154905083565b60096020528060005260406000206000915090508060000160009054906101000a900460ff16908060000160019054906101000a900460ff16908060010154908060020154908060030154905085565b60008060028111156103a3576103a2610af3565b5b600a60009054906101000a900460ff1660028111156103c5576103c4610af3565b5b146103cf57600080fd5b60008054906101000a900473ffffffffffffffffffffffffffffffffffffffff1673ffffffffffffffffffffffffffffffffffffffff163373ffffffffffffffffffffffffffffffffffffffff161461042757600080fd5b6000600960008573ffffffffffffffffffffffffffffffffffffffff1673ffffffffffffffffffffffffffffffffffffffff16815260200190815260200160002060010154146104ac576040517f08c379a00000000000000000000000000000000000000000000000000000000081526004016104a390610940565b60405180910390fd5b600182101580156104bf57506002548211155b6104fe576040517f08c379a00000000000000000000000000000000000000000000000000000000081526004016104f590610920565b60405180910390fd5b610506610700565b600181600001901515908115158152505060008160200190151590811515815250507fffffffffffffffffffffffffffffffffffffffffffffffffffffffffffffffff81604001818152505082816060018181525050600081608001818152505080600960008673ffffffffffffffffffffffffffffffffffffffff1673ffffffffffffffffffffffffffffffffffffffff16815260200190815260200160002060008201518160000160006101000a81548160ff02191690831515021790555060208201518160000160016101000a81548160ff0219169083151502179055506040820151816001015560608201518160020155608082015181600301559050506005600081548092919061061b90610a7b565b91905055506106298361066c565b50505050565b600a60009054906101000a900460ff1681565b60008054906101000a900473ffffffffffffffffffffffffffffffffffffffff1681565b60045481565b60005b6008805490508110156106fc57816008828154811061069157610690610b22565b5b90600052602060002090600302016000015414156106e957600881815481106106bd576106bc610b22565b5b906000526020600020906003020160010160008154809291906106df90610a7b565b91905055506106fc565b80806106f490610a7b565b91505061066f565b5050565b6040518060a001604052806000151581526020016000151581526020016000815260200160008152602001600081525090565b60008135905061074281610be2565b92915050565b60008135905061075781610bf9565b92915050565b60006020828403121561077357610772610b51565b5b600061078184828501610733565b91505092915050565b600080604083850312156107a1576107a0610b51565b5b60006107af85828601610733565b92505060206107c085828601610748565b9150509250929050565b6000602082840312156107e0576107df610b51565b5b60006107ee84828501610748565b91505092915050565b610800816109fa565b82525050565b61080f81610a0c565b82525050565b61081e81610a18565b82525050565b61082d81610a69565b82525050565b61083c81610a35565b82525050565b600061084f602a836109e9565b915061085a82610b56565b604082019050919050565b6000610872601c836109e9565b915061087d82610ba5565b602082019050919050565b61089181610a5f565b82525050565b60006020820190506108ac60008301846107f7565b92915050565b600060a0820190506108c76000830188610806565b6108d46020830187610806565b6108e16040830186610833565b6108ee6060830185610888565b6108fb6080830184610888565b9695505050505050565b600060208201905061091a6000830184610824565b92915050565b6000602082019050818103600083015261093981610842565b9050919050565b6000602082019050818103600083015261095981610865565b9050919050565b60006020820190506109756000830184610888565b92915050565b60006060820190506109906000830186610888565b61099d6020830185610815565b6109aa6040830184610888565b949350505050565b60006060820190506109c76000830186610888565b6109d46020830185610888565b6109e16040830184610888565b949350505050565b600082825260208201905092915050565b6000610a0582610a3f565b9050919050565b60008115159050919050565b6000819050919050565b6000819050610a3082610bce565b919050565b6000819050919050565b600073ffffffffffffffffffffffffffffffffffffffff82169050919050565b6000819050919050565b6000610a7482610a22565b9050919050565b6000610a8682610a5f565b91507fffffffffffffffffffffffffffffffffffffffffffffffffffffffffffffffff821415610ab957610ab8610ac4565b5b600182019050919050565b7f4e487b7100000000000000000000000000000000000000000000000000000000600052601160045260246000fd5b7f4e487b7100000000000000000000000000000000000000000000000000000000600052602160045260246000fd5b7f4e487b7100000000000000000000000000000000000000000000000000000000600052603260045260246000fd5b600080fd5b7f506c656173652070726f7669646520612076616c696420706f6c6c696e67207360008201527f746174696f6e2049442e00000000000000000000000000000000000000000000602082015250565b7f566f74657220697320616c726561647920726567697374657265642e00000000600082015250565b60038110610bdf57610bde610af3565b5b50565b610beb816109fa565b8114610bf657600080fd5b50565b610c0281610a5f565b8114610c0d57600080fd5b5056fea2646970667358221220c57f459e231ef57393155f3572ed292baec149a3189148ecd5afe5b09dc38e6464736f6c63430008070033",
					"opcodes": "PUSH1 0x80 PUSH1 0x40 MSTORE PUSH1 0x5 PUSH1 0x1 SSTORE PUSH1 0xA PUSH1 0x2 SSTORE PUSH1 0x0 PUSH1 0x3 SSTORE PUSH1 0x0 PUSH1 0x4 SSTORE PUSH1 0x0 PUSH1 0x5 SSTORE PUSH1 0x0 PUSH1 0x6 SSTORE CALLVALUE DUP1 ISZERO PUSH3 0x2F JUMPI PUSH1 0x0 DUP1 REVERT JUMPDEST POP CALLER PUSH1 0x0 DUP1 PUSH2 0x100 EXP DUP2 SLOAD DUP2 PUSH20 0xFFFFFFFFFFFFFFFFFFFFFFFFFFFFFFFFFFFFFFFF MUL NOT AND SWAP1 DUP4 PUSH20 0xFFFFFFFFFFFFFFFFFFFFFFFFFFFFFFFFFFFFFFFF AND MUL OR SWAP1 SSTORE POP PUSH3 0x80 PUSH3 0xC7 PUSH1 0x20 SHL PUSH1 0x20 SHR JUMP JUMPDEST PUSH3 0x93 PUSH1 0x2 SLOAD PUSH3 0x33C PUSH1 0x20 SHL PUSH1 0x20 SHR JUMP JUMPDEST PUSH1 0x0 PUSH1 0xA PUSH1 0x0 PUSH2 0x100 EXP DUP2 SLOAD DUP2 PUSH1 0xFF MUL NOT AND SWAP1 DUP4 PUSH1 0x2 DUP2 GT ISZERO PUSH3 0xBC JUMPI PUSH3 0xBB PUSH3 0x4BC JUMP JUMPDEST JUMPDEST MUL OR SWAP1 SSTORE POP PUSH3 0x549 JUMP JUMPDEST PUSH1 0x0 PUSH1 0x1 SLOAD PUSH8 0xFFFFFFFFFFFFFFFF DUP2 GT ISZERO PUSH3 0xE8 JUMPI PUSH3 0xE7 PUSH3 0x51A JUMP JUMPDEST JUMPDEST PUSH1 0x40 MLOAD SWAP1 DUP1 DUP3 MSTORE DUP1 PUSH1 0x20 MUL PUSH1 0x20 ADD DUP3 ADD PUSH1 0x40 MSTORE DUP1 ISZERO PUSH3 0x117 JUMPI DUP2 PUSH1 0x20 ADD PUSH1 0x20 DUP3 MUL DUP1 CALLDATASIZE DUP4 CALLDATACOPY DUP1 DUP3 ADD SWAP2 POP POP SWAP1 POP JUMPDEST POP SWAP1 POP PUSH32 0x43616E6469646174652031000000000000000000000000000000000000000000 PUSH1 0x0 SHL DUP2 PUSH1 0x0 DUP2 MLOAD DUP2 LT PUSH3 0x155 JUMPI PUSH3 0x154 PUSH3 0x4EB JUMP JUMPDEST JUMPDEST PUSH1 0x20 MUL PUSH1 0x20 ADD ADD DUP2 DUP2 MSTORE POP POP PUSH32 0x43616E6469646174652032000000000000000000000000000000000000000000 PUSH1 0x0 SHL DUP2 PUSH1 0x1 DUP2 MLOAD DUP2 LT PUSH3 0x19C JUMPI PUSH3 0x19B PUSH3 0x4EB JUMP JUMPDEST JUMPDEST PUSH1 0x20 MUL PUSH1 0x20 ADD ADD DUP2 DUP2 MSTORE POP POP PUSH32 0x43616E6469646174652033000000000000000000000000000000000000000000 PUSH1 0x0 SHL DUP2 PUSH1 0x2 DUP2 MLOAD DUP2 LT PUSH3 0x1E3 JUMPI PUSH3 0x1E2 PUSH3 0x4EB JUMP JUMPDEST JUMPDEST PUSH1 0x20 MUL PUSH1 0x20 ADD ADD DUP2 DUP2 MSTORE POP POP PUSH32 0x43616E6469646174652034000000000000000000000000000000000000000000 PUSH1 0x0 SHL DUP2 PUSH1 0x3 DUP2 MLOAD DUP2 LT PUSH3 0x22A JUMPI PUSH3 0x229 PUSH3 0x4EB JUMP JUMPDEST JUMPDEST PUSH1 0x20 MUL PUSH1 0x20 ADD ADD DUP2 DUP2 MSTORE POP POP PUSH32 0x43616E6469646174652035000000000000000000000000000000000000000000 PUSH1 0x0 SHL DUP2 PUSH1 0x4 DUP2 MLOAD DUP2 LT PUSH3 0x271 JUMPI PUSH3 0x270 PUSH3 0x4EB JUMP JUMPDEST JUMPDEST PUSH1 0x20 MUL PUSH1 0x20 ADD ADD DUP2 DUP2 MSTORE POP POP PUSH1 0x0 JUMPDEST DUP2 MLOAD DUP2 LT ISZERO PUSH3 0x338 JUMPI PUSH1 0x0 PUSH1 0x1 DUP3 PUSH3 0x29B SWAP2 SWAP1 PUSH3 0x3D8 JUMP JUMPDEST SWAP1 POP PUSH1 0x7 PUSH1 0x40 MLOAD DUP1 PUSH1 0x60 ADD PUSH1 0x40 MSTORE DUP1 DUP4 DUP2 MSTORE PUSH1 0x20 ADD DUP6 DUP6 DUP2 MLOAD DUP2 LT PUSH3 0x2C6 JUMPI PUSH3 0x2C5 PUSH3 0x4EB JUMP JUMPDEST JUMPDEST PUSH1 0x20 MUL PUSH1 0x20 ADD ADD MLOAD DUP2 MSTORE PUSH1 0x20 ADD PUSH1 0x0 DUP2 MSTORE POP SWAP1 DUP1 PUSH1 0x1 DUP2 SLOAD ADD DUP1 DUP3 SSTORE DUP1 SWAP2 POP POP PUSH1 0x1 SWAP1 SUB SWAP1 PUSH1 0x0 MSTORE PUSH1 0x20 PUSH1 0x0 KECCAK256 SWAP1 PUSH1 0x3 MUL ADD PUSH1 0x0 SWAP1 SWAP2 SWAP1 SWAP2 SWAP1 SWAP2 POP PUSH1 0x0 DUP3 ADD MLOAD DUP2 PUSH1 0x0 ADD SSTORE PUSH1 0x20 DUP3 ADD MLOAD DUP2 PUSH1 0x1 ADD SSTORE PUSH1 0x40 DUP3 ADD MLOAD DUP2 PUSH1 0x2 ADD SSTORE POP POP POP DUP1 DUP1 PUSH3 0x32F SWAP1 PUSH3 0x43F JUMP JUMPDEST SWAP2 POP POP PUSH3 0x280 JUMP JUMPDEST POP POP JUMP JUMPDEST PUSH1 0x0 JUMPDEST DUP2 DUP2 LT ISZERO PUSH3 0x3D4 JUMPI PUSH1 0x8 PUSH1 0x40 MLOAD DUP1 PUSH1 0x60 ADD PUSH1 0x40 MSTORE DUP1 PUSH1 0x1 DUP5 PUSH3 0x364 SWAP2 SWAP1 PUSH3 0x3D8 JUMP JUMPDEST DUP2 MSTORE PUSH1 0x20 ADD PUSH1 0x0 DUP2 MSTORE PUSH1 0x20 ADD PUSH1 0x0 DUP2 MSTORE POP SWAP1 DUP1 PUSH1 0x1 DUP2 SLOAD ADD DUP1 DUP3 SSTORE DUP1 SWAP2 POP POP PUSH1 0x1 SWAP1 SUB SWAP1 PUSH1 0x0 MSTORE PUSH1 0x20 PUSH1 0x0 KECCAK256 SWAP1 PUSH1 0x3 MUL ADD PUSH1 0x0 SWAP1 SWAP2 SWAP1 SWAP2 SWAP1 SWAP2 POP PUSH1 0x0 DUP3 ADD MLOAD DUP2 PUSH1 0x0 ADD SSTORE PUSH1 0x20 DUP3 ADD MLOAD DUP2 PUSH1 0x1 ADD SSTORE PUSH1 0x40 DUP3 ADD MLOAD DUP2 PUSH1 0x2 ADD SSTORE POP POP DUP1 DUP1 PUSH3 0x3CB SWAP1 PUSH3 0x43F JUMP JUMPDEST SWAP2 POP POP PUSH3 0x33F JUMP JUMPDEST POP POP JUMP JUMPDEST PUSH1 0x0 PUSH3 0x3E5 DUP3 PUSH3 0x435 JUMP JUMPDEST SWAP2 POP PUSH3 0x3F2 DUP4 PUSH3 0x435 JUMP JUMPDEST SWAP3 POP DUP3 PUSH32 0xFFFFFFFFFFFFFFFFFFFFFFFFFFFFFFFFFFFFFFFFFFFFFFFFFFFFFFFFFFFFFFFF SUB DUP3 GT ISZERO PUSH3 0x42A JUMPI PUSH3 0x429 PUSH3 0x48D JUMP JUMPDEST JUMPDEST DUP3 DUP3 ADD SWAP1 POP SWAP3 SWAP2 POP POP JUMP JUMPDEST PUSH1 0x0 DUP2 SWAP1 POP SWAP2 SWAP1 POP JUMP JUMPDEST PUSH1 0x0 PUSH3 0x44C DUP3 PUSH3 0x435 JUMP JUMPDEST SWAP2 POP PUSH32 0xFFFFFFFFFFFFFFFFFFFFFFFFFFFFFFFFFFFFFFFFFFFFFFFFFFFFFFFFFFFFFFFF DUP3 EQ ISZERO PUSH3 0x482 JUMPI PUSH3 0x481 PUSH3 0x48D JUMP JUMPDEST JUMPDEST PUSH1 0x1 DUP3 ADD SWAP1 POP SWAP2 SWAP1 POP JUMP JUMPDEST PUSH32 0x4E487B7100000000000000000000000000000000000000000000000000000000 PUSH1 0x0 MSTORE PUSH1 0x11 PUSH1 0x4 MSTORE PUSH1 0x24 PUSH1 0x0 REVERT JUMPDEST PUSH32 0x4E487B7100000000000000000000000000000000000000000000000000000000 PUSH1 0x0 MSTORE PUSH1 0x21 PUSH1 0x4 MSTORE PUSH1 0x24 PUSH1 0x0 REVERT JUMPDEST PUSH32 0x4E487B7100000000000000000000000000000000000000000000000000000000 PUSH1 0x0 MSTORE PUSH1 0x32 PUSH1 0x4 MSTORE PUSH1 0x24 PUSH1 0x0 REVERT JUMPDEST PUSH32 0x4E487B7100000000000000000000000000000000000000000000000000000000 PUSH1 0x0 MSTORE PUSH1 0x41 PUSH1 0x4 MSTORE PUSH1 0x24 PUSH1 0x0 REVERT JUMPDEST PUSH2 0xC46 DUP1 PUSH3 0x559 PUSH1 0x0 CODECOPY PUSH1 0x0 RETURN INVALID PUSH1 0x80 PUSH1 0x40 MSTORE CALLVALUE DUP1 ISZERO PUSH2 0x10 JUMPI PUSH1 0x0 DUP1 REVERT JUMPDEST POP PUSH1 0x4 CALLDATASIZE LT PUSH2 0x9E JUMPI PUSH1 0x0 CALLDATALOAD PUSH1 0xE0 SHR DUP1 PUSH4 0xAF154087 GT PUSH2 0x66 JUMPI DUP1 PUSH4 0xAF154087 EQ PUSH2 0x14D JUMPI DUP1 PUSH4 0xB9F05F2F EQ PUSH2 0x181 JUMPI DUP1 PUSH4 0xC19D93FB EQ PUSH2 0x19D JUMPI DUP1 PUSH4 0xDCA97183 EQ PUSH2 0x1BB JUMPI DUP1 PUSH4 0xF3A8286F EQ PUSH2 0x1D9 JUMPI PUSH2 0x9E JUMP JUMPDEST DUP1 PUSH4 0x13CF08B EQ PUSH2 0xA3 JUMPI DUP1 PUSH4 0xD15FD77 EQ PUSH2 0xD5 JUMPI DUP1 PUSH4 0x4C0A6AF0 EQ PUSH2 0xF3 JUMPI DUP1 PUSH4 0x5F5300FF EQ PUSH2 0xFD JUMPI DUP1 PUSH4 0x92F859DB EQ PUSH2 0x11B JUMPI JUMPDEST PUSH1 0x0 DUP1 REVERT JUMPDEST PUSH2 0xBD PUSH1 0x4 DUP1 CALLDATASIZE SUB DUP2 ADD SWAP1 PUSH2 0xB8 SWAP2 SWAP1 PUSH2 0x7CA JUMP JUMPDEST PUSH2 0x1F7 JUMP JUMPDEST PUSH1 0x40 MLOAD PUSH2 0xCC SWAP4 SWAP3 SWAP2 SWAP1 PUSH2 0x97B JUMP JUMPDEST PUSH1 0x40 MLOAD DUP1 SWAP2 SUB SWAP1 RETURN JUMPDEST PUSH2 0xDD PUSH2 0x231 JUMP JUMPDEST PUSH1 0x40 MLOAD PUSH2 0xEA SWAP2 SWAP1 PUSH2 0x960 JUMP JUMPDEST PUSH1 0x40 MLOAD DUP1 SWAP2 SUB SWAP1 RETURN JUMPDEST PUSH2 0xFB PUSH2 0x237 JUMP JUMPDEST STOP JUMPDEST PUSH2 0x105 PUSH2 0x2FE JUMP JUMPDEST PUSH1 0x40 MLOAD PUSH2 0x112 SWAP2 SWAP1 PUSH2 0x960 JUMP JUMPDEST PUSH1 0x40 MLOAD DUP1 SWAP2 SUB SWAP1 RETURN JUMPDEST PUSH2 0x135 PUSH1 0x4 DUP1 CALLDATASIZE SUB DUP2 ADD SWAP1 PUSH2 0x130 SWAP2 SWAP1 PUSH2 0x7CA JUMP JUMPDEST PUSH2 0x304 JUMP JUMPDEST PUSH1 0x40 MLOAD PUSH2 0x144 SWAP4 SWAP3 SWAP2 SWAP1 PUSH2 0x9B2 JUMP JUMPDEST PUSH1 0x40 MLOAD DUP1 SWAP2 SUB SWAP1 RETURN JUMPDEST PUSH2 0x167 PUSH1 0x4 DUP1 CALLDATASIZE SUB DUP2 ADD SWAP1 PUSH2 0x162 SWAP2 SWAP1 PUSH2 0x75D JUMP JUMPDEST PUSH2 0x33E JUMP JUMPDEST PUSH1 0x40 MLOAD PUSH2 0x178 SWAP6 SWAP5 SWAP4 SWAP3 SWAP2 SWAP1 PUSH2 0x8B2 JUMP JUMPDEST PUSH1 0x40 MLOAD DUP1 SWAP2 SUB SWAP1 RETURN JUMPDEST PUSH2 0x19B PUSH1 0x4 DUP1 CALLDATASIZE SUB DUP2 ADD SWAP1 PUSH2 0x196 SWAP2 SWAP1 PUSH2 0x78A JUMP JUMPDEST PUSH2 0x38E JUMP JUMPDEST STOP JUMPDEST PUSH2 0x1A5 PUSH2 0x62F JUMP JUMPDEST PUSH1 0x40 MLOAD PUSH2 0x1B2 SWAP2 SWAP1 PUSH2 0x905 JUMP JUMPDEST PUSH1 0x40 MLOAD DUP1 SWAP2 SUB SWAP1 RETURN JUMPDEST PUSH2 0x1C3 PUSH2 0x642 JUMP JUMPDEST PUSH1 0x40 MLOAD PUSH2 0x1D0 SWAP2 SWAP1 PUSH2 0x897 JUMP JUMPDEST PUSH1 0x40 MLOAD DUP1 SWAP2 SUB SWAP1 RETURN JUMPDEST PUSH2 0x1E1 PUSH2 0x666 JUMP JUMPDEST PUSH1 0x40 MLOAD PUSH2 0x1EE SWAP2 SWAP1 PUSH2 0x960 JUMP JUMPDEST PUSH1 0x40 MLOAD DUP1 SWAP2 SUB SWAP1 RETURN JUMPDEST PUSH1 0x7 DUP2 DUP2 SLOAD DUP2 LT PUSH2 0x207 JUMPI PUSH1 0x0 DUP1 REVERT JUMPDEST SWAP1 PUSH1 0x0 MSTORE PUSH1 0x20 PUSH1 0x0 KECCAK256 SWAP1 PUSH1 0x3 MUL ADD PUSH1 0x0 SWAP2 POP SWAP1 POP DUP1 PUSH1 0x0 ADD SLOAD SWAP1 DUP1 PUSH1 0x1 ADD SLOAD SWAP1 DUP1 PUSH1 0x2 ADD SLOAD SWAP1 POP DUP4 JUMP JUMPDEST PUSH1 0x6 SLOAD DUP2 JUMP JUMPDEST PUSH1 0x0 DUP1 PUSH1 0x2 DUP2 GT ISZERO PUSH2 0x24C JUMPI PUSH2 0x24B PUSH2 0xAF3 JUMP JUMPDEST JUMPDEST PUSH1 0xA PUSH1 0x0 SWAP1 SLOAD SWAP1 PUSH2 0x100 EXP SWAP1 DIV PUSH1 0xFF AND PUSH1 0x2 DUP2 GT ISZERO PUSH2 0x26E JUMPI PUSH2 0x26D PUSH2 0xAF3 JUMP JUMPDEST JUMPDEST EQ PUSH2 0x278 JUMPI PUSH1 0x0 DUP1 REVERT JUMPDEST PUSH1 0x0 DUP1 SLOAD SWAP1 PUSH2 0x100 EXP SWAP1 DIV PUSH20 0xFFFFFFFFFFFFFFFFFFFFFFFFFFFFFFFFFFFFFFFF AND PUSH20 0xFFFFFFFFFFFFFFFFFFFFFFFFFFFFFFFFFFFFFFFF AND CALLER PUSH20 0xFFFFFFFFFFFFFFFFFFFFFFFFFFFFFFFFFFFFFFFF AND EQ PUSH2 0x2D0 JUMPI PUSH1 0x0 DUP1 REVERT JUMPDEST PUSH1 0x1 PUSH1 0xA PUSH1 0x0 PUSH2 0x100 EXP DUP2 SLOAD DUP2 PUSH1 0xFF MUL NOT AND SWAP1 DUP4 PUSH1 0x2 DUP2 GT ISZERO PUSH2 0x2F6 JUMPI PUSH2 0x2F5 PUSH2 0xAF3 JUMP JUMPDEST JUMPDEST MUL OR SWAP1 SSTORE POP POP JUMP JUMPDEST PUSH1 0x5 SLOAD DUP2 JUMP JUMPDEST PUSH1 0x8 DUP2 DUP2 SLOAD DUP2 LT PUSH2 0x314 JUMPI PUSH1 0x0 DUP1 REVERT JUMPDEST SWAP1 PUSH1 0x0 MSTORE PUSH1 0x20 PUSH1 0x0 KECCAK256 SWAP1 PUSH1 0x3 MUL ADD PUSH1 0x0 SWAP2 POP SWAP1 POP DUP1 PUSH1 0x0 ADD SLOAD SWAP1 DUP1 PUSH1 0x1 ADD SLOAD SWAP1 DUP1 PUSH1 0x2 ADD SLOAD SWAP1 POP DUP4 JUMP JUMPDEST PUSH1 0x9 PUSH1 0x20 MSTORE DUP1 PUSH1 0x0 MSTORE PUSH1 0x40 PUSH1 0x0 KECCAK256 PUSH1 0x0 SWAP2 POP SWAP1 POP DUP1 PUSH1 0x0 ADD PUSH1 0x0 SWAP1 SLOAD SWAP1 PUSH2 0x100 EXP SWAP1 DIV PUSH1 0xFF AND SWAP1 DUP1 PUSH1 0x0 ADD PUSH1 0x1 SWAP1 SLOAD SWAP1 PUSH2 0x100 EXP SWAP1 DIV PUSH1 0xFF AND SWAP1 DUP1 PUSH1 0x1 ADD SLOAD SWAP1 DUP1 PUSH1 0x2 ADD SLOAD SWAP1 DUP1 PUSH1 0x3 ADD SLOAD SWAP1 POP DUP6 JUMP JUMPDEST PUSH1 0x0 DUP1 PUSH1 0x2 DUP2 GT ISZERO PUSH2 0x3A3 JUMPI PUSH2 0x3A2 PUSH2 0xAF3 JUMP JUMPDEST JUMPDEST PUSH1 0xA PUSH1 0x0 SWAP1 SLOAD SWAP1 PUSH2 0x100 EXP SWAP1 DIV PUSH1 0xFF AND PUSH1 0x2 DUP2 GT ISZERO PUSH2 0x3C5 JUMPI PUSH2 0x3C4 PUSH2 0xAF3 JUMP JUMPDEST JUMPDEST EQ PUSH2 0x3CF JUMPI PUSH1 0x0 DUP1 REVERT JUMPDEST PUSH1 0x0 DUP1 SLOAD SWAP1 PUSH2 0x100 EXP SWAP1 DIV PUSH20 0xFFFFFFFFFFFFFFFFFFFFFFFFFFFFFFFFFFFFFFFF AND PUSH20 0xFFFFFFFFFFFFFFFFFFFFFFFFFFFFFFFFFFFFFFFF AND CALLER PUSH20 0xFFFFFFFFFFFFFFFFFFFFFFFFFFFFFFFFFFFFFFFF AND EQ PUSH2 0x427 JUMPI PUSH1 0x0 DUP1 REVERT JUMPDEST PUSH1 0x0 PUSH1 0x9 PUSH1 0x0 DUP6 PUSH20 0xFFFFFFFFFFFFFFFFFFFFFFFFFFFFFFFFFFFFFFFF AND PUSH20 0xFFFFFFFFFFFFFFFFFFFFFFFFFFFFFFFFFFFFFFFF AND DUP2 MSTORE PUSH1 0x20 ADD SWAP1 DUP2 MSTORE PUSH1 0x20 ADD PUSH1 0x0 KECCAK256 PUSH1 0x1 ADD SLOAD EQ PUSH2 0x4AC JUMPI PUSH1 0x40 MLOAD PUSH32 0x8C379A000000000000000000000000000000000000000000000000000000000 DUP2 MSTORE PUSH1 0x4 ADD PUSH2 0x4A3 SWAP1 PUSH2 0x940 JUMP JUMPDEST PUSH1 0x40 MLOAD DUP1 SWAP2 SUB SWAP1 REVERT JUMPDEST PUSH1 0x1 DUP3 LT ISZERO DUP1 ISZERO PUSH2 0x4BF JUMPI POP PUSH1 0x2 SLOAD DUP3 GT ISZERO JUMPDEST PUSH2 0x4FE JUMPI PUSH1 0x40 MLOAD PUSH32 0x8C379A000000000000000000000000000000000000000000000000000000000 DUP2 MSTORE PUSH1 0x4 ADD PUSH2 0x4F5 SWAP1 PUSH2 0x920 JUMP JUMPDEST PUSH1 0x40 MLOAD DUP1 SWAP2 SUB SWAP1 REVERT JUMPDEST PUSH2 0x506 PUSH2 0x700 JUMP JUMPDEST PUSH1 0x1 DUP2 PUSH1 0x0 ADD SWAP1 ISZERO ISZERO SWAP1 DUP2 ISZERO ISZERO DUP2 MSTORE POP POP PUSH1 0x0 DUP2 PUSH1 0x20 ADD SWAP1 ISZERO ISZERO SWAP1 DUP2 ISZERO ISZERO DUP2 MSTORE POP POP PUSH32 0xFFFFFFFFFFFFFFFFFFFFFFFFFFFFFFFFFFFFFFFFFFFFFFFFFFFFFFFFFFFFFFFF DUP2 PUSH1 0x40 ADD DUP2 DUP2 MSTORE POP POP DUP3 DUP2 PUSH1 0x60 ADD DUP2 DUP2 MSTORE POP POP PUSH1 0x0 DUP2 PUSH1 0x80 ADD DUP2 DUP2 MSTORE POP POP DUP1 PUSH1 0x9 PUSH1 0x0 DUP7 PUSH20 0xFFFFFFFFFFFFFFFFFFFFFFFFFFFFFFFFFFFFFFFF AND PUSH20 0xFFFFFFFFFFFFFFFFFFFFFFFFFFFFFFFFFFFFFFFF AND DUP2 MSTORE PUSH1 0x20 ADD SWAP1 DUP2 MSTORE PUSH1 0x20 ADD PUSH1 0x0 KECCAK256 PUSH1 0x0 DUP3 ADD MLOAD DUP2 PUSH1 0x0 ADD PUSH1 0x0 PUSH2 0x100 EXP DUP2 SLOAD DUP2 PUSH1 0xFF MUL NOT AND SWAP1 DUP4 ISZERO ISZERO MUL OR SWAP1 SSTORE POP PUSH1 0x20 DUP3 ADD MLOAD DUP2 PUSH1 0x0 ADD PUSH1 0x1 PUSH2 0x100 EXP DUP2 SLOAD DUP2 PUSH1 0xFF MUL NOT AND SWAP1 DUP4 ISZERO ISZERO MUL OR SWAP1 SSTORE POP PUSH1 0x40 DUP3 ADD MLOAD DUP2 PUSH1 0x1 ADD SSTORE PUSH1 0x60 DUP3 ADD MLOAD DUP2 PUSH1 0x2 ADD SSTORE PUSH1 0x80 DUP3 ADD MLOAD DUP2 PUSH1 0x3 ADD SSTORE SWAP1 POP POP PUSH1 0x5 PUSH1 0x0 DUP2 SLOAD DUP1 SWAP3 SWAP2 SWAP1 PUSH2 0x61B SWAP1 PUSH2 0xA7B JUMP JUMPDEST SWAP2 SWAP1 POP SSTORE POP PUSH2 0x629 DUP4 PUSH2 0x66C JUMP JUMPDEST POP POP POP POP JUMP JUMPDEST PUSH1 0xA PUSH1 0x0 SWAP1 SLOAD SWAP1 PUSH2 0x100 EXP SWAP1 DIV PUSH1 0xFF AND DUP2 JUMP JUMPDEST PUSH1 0x0 DUP1 SLOAD SWAP1 PUSH2 0x100 EXP SWAP1 DIV PUSH20 0xFFFFFFFFFFFFFFFFFFFFFFFFFFFFFFFFFFFFFFFF AND DUP2 JUMP JUMPDEST PUSH1 0x4 SLOAD DUP2 JUMP JUMPDEST PUSH1 0x0 JUMPDEST PUSH1 0x8 DUP1 SLOAD SWAP1 POP DUP2 LT ISZERO PUSH2 0x6FC JUMPI DUP2 PUSH1 0x8 DUP3 DUP2 SLOAD DUP2 LT PUSH2 0x691 JUMPI PUSH2 0x690 PUSH2 0xB22 JUMP JUMPDEST JUMPDEST SWAP1 PUSH1 0x0 MSTORE PUSH1 0x20 PUSH1 0x0 KECCAK256 SWAP1 PUSH1 0x3 MUL ADD PUSH1 0x0 ADD SLOAD EQ ISZERO PUSH2 0x6E9 JUMPI PUSH1 0x8 DUP2 DUP2 SLOAD DUP2 LT PUSH2 0x6BD JUMPI PUSH2 0x6BC PUSH2 0xB22 JUMP JUMPDEST JUMPDEST SWAP1 PUSH1 0x0 MSTORE PUSH1 0x20 PUSH1 0x0 KECCAK256 SWAP1 PUSH1 0x3 MUL ADD PUSH1 0x1 ADD PUSH1 0x0 DUP2 SLOAD DUP1 SWAP3 SWAP2 SWAP1 PUSH2 0x6DF SWAP1 PUSH2 0xA7B JUMP JUMPDEST SWAP2 SWAP1 POP SSTORE POP PUSH2 0x6FC JUMP JUMPDEST DUP1 DUP1 PUSH2 0x6F4 SWAP1 PUSH2 0xA7B JUMP JUMPDEST SWAP2 POP POP PUSH2 0x66F JUMP JUMPDEST POP POP JUMP JUMPDEST PUSH1 0x40 MLOAD DUP1 PUSH1 0xA0 ADD PUSH1 0x40 MSTORE DUP1 PUSH1 0x0 ISZERO ISZERO DUP2 MSTORE PUSH1 0x20 ADD PUSH1 0x0 ISZERO ISZERO DUP2 MSTORE PUSH1 0x20 ADD PUSH1 0x0 DUP2 MSTORE PUSH1 0x20 ADD PUSH1 0x0 DUP2 MSTORE PUSH1 0x20 ADD PUSH1 0x0 DUP2 MSTORE POP SWAP1 JUMP JUMPDEST PUSH1 0x0 DUP2 CALLDATALOAD SWAP1 POP PUSH2 0x742 DUP2 PUSH2 0xBE2 JUMP JUMPDEST SWAP3 SWAP2 POP POP JUMP JUMPDEST PUSH1 0x0 DUP2 CALLDATALOAD SWAP1 POP PUSH2 0x757 DUP2 PUSH2 0xBF9 JUMP JUMPDEST SWAP3 SWAP2 POP POP JUMP JUMPDEST PUSH1 0x0 PUSH1 0x20 DUP3 DUP5 SUB SLT ISZERO PUSH2 0x773 JUMPI PUSH2 0x772 PUSH2 0xB51 JUMP JUMPDEST JUMPDEST PUSH1 0x0 PUSH2 0x781 DUP5 DUP3 DUP6 ADD PUSH2 0x733 JUMP JUMPDEST SWAP2 POP POP SWAP3 SWAP2 POP POP JUMP JUMPDEST PUSH1 0x0 DUP1 PUSH1 0x40 DUP4 DUP6 SUB SLT ISZERO PUSH2 0x7A1 JUMPI PUSH2 0x7A0 PUSH2 0xB51 JUMP JUMPDEST JUMPDEST PUSH1 0x0 PUSH2 0x7AF DUP6 DUP3 DUP7 ADD PUSH2 0x733 JUMP JUMPDEST SWAP3 POP POP PUSH1 0x20 PUSH2 0x7C0 DUP6 DUP3 DUP7 ADD PUSH2 0x748 JUMP JUMPDEST SWAP2 POP POP SWAP3 POP SWAP3 SWAP1 POP JUMP JUMPDEST PUSH1 0x0 PUSH1 0x20 DUP3 DUP5 SUB SLT ISZERO PUSH2 0x7E0 JUMPI PUSH2 0x7DF PUSH2 0xB51 JUMP JUMPDEST JUMPDEST PUSH1 0x0 PUSH2 0x7EE DUP5 DUP3 DUP6 ADD PUSH2 0x748 JUMP JUMPDEST SWAP2 POP POP SWAP3 SWAP2 POP POP JUMP JUMPDEST PUSH2 0x800 DUP2 PUSH2 0x9FA JUMP JUMPDEST DUP3 MSTORE POP POP JUMP JUMPDEST PUSH2 0x80F DUP2 PUSH2 0xA0C JUMP JUMPDEST DUP3 MSTORE POP POP JUMP JUMPDEST PUSH2 0x81E DUP2 PUSH2 0xA18 JUMP JUMPDEST DUP3 MSTORE POP POP JUMP JUMPDEST PUSH2 0x82D DUP2 PUSH2 0xA69 JUMP JUMPDEST DUP3 MSTORE POP POP JUMP JUMPDEST PUSH2 0x83C DUP2 PUSH2 0xA35 JUMP JUMPDEST DUP3 MSTORE POP POP JUMP JUMPDEST PUSH1 0x0 PUSH2 0x84F PUSH1 0x2A DUP4 PUSH2 0x9E9 JUMP JUMPDEST SWAP2 POP PUSH2 0x85A DUP3 PUSH2 0xB56 JUMP JUMPDEST PUSH1 0x40 DUP3 ADD SWAP1 POP SWAP2 SWAP1 POP JUMP JUMPDEST PUSH1 0x0 PUSH2 0x872 PUSH1 0x1C DUP4 PUSH2 0x9E9 JUMP JUMPDEST SWAP2 POP PUSH2 0x87D DUP3 PUSH2 0xBA5 JUMP JUMPDEST PUSH1 0x20 DUP3 ADD SWAP1 POP SWAP2 SWAP1 POP JUMP JUMPDEST PUSH2 0x891 DUP2 PUSH2 0xA5F JUMP JUMPDEST DUP3 MSTORE POP POP JUMP JUMPDEST PUSH1 0x0 PUSH1 0x20 DUP3 ADD SWAP1 POP PUSH2 0x8AC PUSH1 0x0 DUP4 ADD DUP5 PUSH2 0x7F7 JUMP JUMPDEST SWAP3 SWAP2 POP POP JUMP JUMPDEST PUSH1 0x0 PUSH1 0xA0 DUP3 ADD SWAP1 POP PUSH2 0x8C7 PUSH1 0x0 DUP4 ADD DUP9 PUSH2 0x806 JUMP JUMPDEST PUSH2 0x8D4 PUSH1 0x20 DUP4 ADD DUP8 PUSH2 0x806 JUMP JUMPDEST PUSH2 0x8E1 PUSH1 0x40 DUP4 ADD DUP7 PUSH2 0x833 JUMP JUMPDEST PUSH2 0x8EE PUSH1 0x60 DUP4 ADD DUP6 PUSH2 0x888 JUMP JUMPDEST PUSH2 0x8FB PUSH1 0x80 DUP4 ADD DUP5 PUSH2 0x888 JUMP JUMPDEST SWAP7 SWAP6 POP POP POP POP POP POP JUMP JUMPDEST PUSH1 0x0 PUSH1 0x20 DUP3 ADD SWAP1 POP PUSH2 0x91A PUSH1 0x0 DUP4 ADD DUP5 PUSH2 0x824 JUMP JUMPDEST SWAP3 SWAP2 POP POP JUMP JUMPDEST PUSH1 0x0 PUSH1 0x20 DUP3 ADD SWAP1 POP DUP2 DUP2 SUB PUSH1 0x0 DUP4 ADD MSTORE PUSH2 0x939 DUP2 PUSH2 0x842 JUMP JUMPDEST SWAP1 POP SWAP2 SWAP1 POP JUMP JUMPDEST PUSH1 0x0 PUSH1 0x20 DUP3 ADD SWAP1 POP DUP2 DUP2 SUB PUSH1 0x0 DUP4 ADD MSTORE PUSH2 0x959 DUP2 PUSH2 0x865 JUMP JUMPDEST SWAP1 POP SWAP2 SWAP1 POP JUMP JUMPDEST PUSH1 0x0 PUSH1 0x20 DUP3 ADD SWAP1 POP PUSH2 0x975 PUSH1 0x0 DUP4 ADD DUP5 PUSH2 0x888 JUMP JUMPDEST SWAP3 SWAP2 POP POP JUMP JUMPDEST PUSH1 0x0 PUSH1 0x60 DUP3 ADD SWAP1 POP PUSH2 0x990 PUSH1 0x0 DUP4 ADD DUP7 PUSH2 0x888 JUMP JUMPDEST PUSH2 0x99D PUSH1 0x20 DUP4 ADD DUP6 PUSH2 0x815 JUMP JUMPDEST PUSH2 0x9AA PUSH1 0x40 DUP4 ADD DUP5 PUSH2 0x888 JUMP JUMPDEST SWAP5 SWAP4 POP POP POP POP JUMP JUMPDEST PUSH1 0x0 PUSH1 0x60 DUP3 ADD SWAP1 POP PUSH2 0x9C7 PUSH1 0x0 DUP4 ADD DUP7 PUSH2 0x888 JUMP JUMPDEST PUSH2 0x9D4 PUSH1 0x20 DUP4 ADD DUP6 PUSH2 0x888 JUMP JUMPDEST PUSH2 0x9E1 PUSH1 0x40 DUP4 ADD DUP5 PUSH2 0x888 JUMP JUMPDEST SWAP5 SWAP4 POP POP POP POP JUMP JUMPDEST PUSH1 0x0 DUP3 DUP3 MSTORE PUSH1 0x20 DUP3 ADD SWAP1 POP SWAP3 SWAP2 POP POP JUMP JUMPDEST PUSH1 0x0 PUSH2 0xA05 DUP3 PUSH2 0xA3F JUMP JUMPDEST SWAP1 POP SWAP2 SWAP1 POP JUMP JUMPDEST PUSH1 0x0 DUP2 ISZERO ISZERO SWAP1 POP SWAP2 SWAP1 POP JUMP JUMPDEST PUSH1 0x0 DUP2 SWAP1 POP SWAP2 SWAP1 POP JUMP JUMPDEST PUSH1 0x0 DUP2 SWAP1 POP PUSH2 0xA30 DUP3 PUSH2 0xBCE JUMP JUMPDEST SWAP2 SWAP1 POP JUMP JUMPDEST PUSH1 0x0 DUP2 SWAP1 POP SWAP2 SWAP1 POP JUMP JUMPDEST PUSH1 0x0 PUSH20 0xFFFFFFFFFFFFFFFFFFFFFFFFFFFFFFFFFFFFFFFF DUP3 AND SWAP1 POP SWAP2 SWAP1 POP JUMP JUMPDEST PUSH1 0x0 DUP2 SWAP1 POP SWAP2 SWAP1 POP JUMP JUMPDEST PUSH1 0x0 PUSH2 0xA74 DUP3 PUSH2 0xA22 JUMP JUMPDEST SWAP1 POP SWAP2 SWAP1 POP JUMP JUMPDEST PUSH1 0x0 PUSH2 0xA86 DUP3 PUSH2 0xA5F JUMP JUMPDEST SWAP2 POP PUSH32 0xFFFFFFFFFFFFFFFFFFFFFFFFFFFFFFFFFFFFFFFFFFFFFFFFFFFFFFFFFFFFFFFF DUP3 EQ ISZERO PUSH2 0xAB9 JUMPI PUSH2 0xAB8 PUSH2 0xAC4 JUMP JUMPDEST JUMPDEST PUSH1 0x1 DUP3 ADD SWAP1 POP SWAP2 SWAP1 POP JUMP JUMPDEST PUSH32 0x4E487B7100000000000000000000000000000000000000000000000000000000 PUSH1 0x0 MSTORE PUSH1 0x11 PUSH1 0x4 MSTORE PUSH1 0x24 PUSH1 0x0 REVERT JUMPDEST PUSH32 0x4E487B7100000000000000000000000000000000000000000000000000000000 PUSH1 0x0 MSTORE PUSH1 0x21 PUSH1 0x4 MSTORE PUSH1 0x24 PUSH1 0x0 REVERT JUMPDEST PUSH32 0x4E487B7100000000000000000000000000000000000000000000000000000000 PUSH1 0x0 MSTORE PUSH1 0x32 PUSH1 0x4 MSTORE PUSH1 0x24 PUSH1 0x0 REVERT JUMPDEST PUSH1 0x0 DUP1 REVERT JUMPDEST PUSH32 0x506C656173652070726F7669646520612076616C696420706F6C6C696E672073 PUSH1 0x0 DUP3 ADD MSTORE PUSH32 0x746174696F6E2049442E00000000000000000000000000000000000000000000 PUSH1 0x20 DUP3 ADD MSTORE POP JUMP JUMPDEST PUSH32 0x566F74657220697320616C726561647920726567697374657265642E00000000 PUSH1 0x0 DUP3 ADD MSTORE POP JUMP JUMPDEST PUSH1 0x3 DUP2 LT PUSH2 0xBDF JUMPI PUSH2 0xBDE PUSH2 0xAF3 JUMP JUMPDEST JUMPDEST POP JUMP JUMPDEST PUSH2 0xBEB DUP2 PUSH2 0x9FA JUMP JUMPDEST DUP2 EQ PUSH2 0xBF6 JUMPI PUSH1 0x0 DUP1 REVERT JUMPDEST POP JUMP JUMPDEST PUSH2 0xC02 DUP2 PUSH2 0xA5F JUMP JUMPDEST DUP2 EQ PUSH2 0xC0D JUMPI PUSH1 0x0 DUP1 REVERT JUMPDEST POP JUMP INVALID LOG2 PUSH5 0x6970667358 0x22 SLT KECCAK256 0xC5 PUSH32 0x459E231EF57393155F3572ED292BAEC149A3189148ECD5AFE5B09DC38E646473 PUSH16 0x6C634300080700330000000000000000 "
				},
				"gasEstimates": {
					"creation": {
						"codeDepositCost": "628400",
						"executionCost": "infinite",
						"totalCost": "infinite"
					},
					"external": {
						"addVoter(address,uint256)": "infinite",
						"ballotOwner()": "2577",
						"finalResult()": "2517",
						"proposals(uint256)": "infinite",
						"startVote()": "28859",
						"state()": "2604",
						"stations(uint256)": "infinite",
						"totalVoters()": "2496",
						"totalVotes()": "2452",
						"voterRegister(address)": "infinite"
					},
					"internal": {
						"initCandidates()": "infinite",
						"initPollingStations(uint256)": "infinite",
						"registerAtPollingStation(uint256)": "infinite"
					}
				},
				"methodIdentifiers": {
					"addVoter(address,uint256)": "b9f05f2f",
					"ballotOwner()": "dca97183",
					"finalResult()": "f3a8286f",
					"proposals(uint256)": "013cf08b",
					"startVote()": "4c0a6af0",
					"state()": "c19d93fb",
					"stations(uint256)": "92f859db",
					"totalVoters()": "5f5300ff",
					"totalVotes()": "0d15fd77",
					"voterRegister(address)": "af154087"
				}
			},
			"storageLayout": {
				"storage": [
					{
						"astId": 28,
						"contract": "contracts/ergasia.sol:Ballot",
						"label": "ballotOwner",
						"offset": 0,
						"slot": "0",
						"type": "t_address"
					},
					{
						"astId": 31,
						"contract": "contracts/ergasia.sol:Ballot",
						"label": "numOfCandidates",
						"offset": 0,
						"slot": "1",
						"type": "t_uint256"
					},
					{
						"astId": 34,
						"contract": "contracts/ergasia.sol:Ballot",
						"label": "numOfPollingStations",
						"offset": 0,
						"slot": "2",
						"type": "t_uint256"
					},
					{
						"astId": 37,
						"contract": "contracts/ergasia.sol:Ballot",
						"label": "countResult",
						"offset": 0,
						"slot": "3",
						"type": "t_uint256"
					},
					{
						"astId": 40,
						"contract": "contracts/ergasia.sol:Ballot",
						"label": "finalResult",
						"offset": 0,
						"slot": "4",
						"type": "t_uint256"
					},
					{
						"astId": 43,
						"contract": "contracts/ergasia.sol:Ballot",
						"label": "totalVoters",
						"offset": 0,
						"slot": "5",
						"type": "t_uint256"
					},
					{
						"astId": 46,
						"contract": "contracts/ergasia.sol:Ballot",
						"label": "totalVotes",
						"offset": 0,
						"slot": "6",
						"type": "t_uint256"
					},
					{
						"astId": 50,
						"contract": "contracts/ergasia.sol:Ballot",
						"label": "proposals",
						"offset": 0,
						"slot": "7",
						"type": "t_array(t_struct(Proposal)19_storage)dyn_storage"
					},
					{
						"astId": 54,
						"contract": "contracts/ergasia.sol:Ballot",
						"label": "stations",
						"offset": 0,
						"slot": "8",
						"type": "t_array(t_struct(PollingStation)26_storage)dyn_storage"
					},
					{
						"astId": 59,
						"contract": "contracts/ergasia.sol:Ballot",
						"label": "voterRegister",
						"offset": 0,
						"slot": "9",
						"type": "t_mapping(t_address,t_struct(Voter)12_storage)"
					},
					{
						"astId": 66,
						"contract": "contracts/ergasia.sol:Ballot",
						"label": "state",
						"offset": 0,
						"slot": "10",
						"type": "t_enum(State)63"
					}
				],
				"types": {
					"t_address": {
						"encoding": "inplace",
						"label": "address",
						"numberOfBytes": "20"
					},
					"t_array(t_struct(PollingStation)26_storage)dyn_storage": {
						"base": "t_struct(PollingStation)26_storage",
						"encoding": "dynamic_array",
						"label": "struct Ballot.PollingStation[]",
						"numberOfBytes": "32"
					},
					"t_array(t_struct(Proposal)19_storage)dyn_storage": {
						"base": "t_struct(Proposal)19_storage",
						"encoding": "dynamic_array",
						"label": "struct Ballot.Proposal[]",
						"numberOfBytes": "32"
					},
					"t_bool": {
						"encoding": "inplace",
						"label": "bool",
						"numberOfBytes": "1"
					},
					"t_bytes32": {
						"encoding": "inplace",
						"label": "bytes32",
						"numberOfBytes": "32"
					},
					"t_enum(State)63": {
						"encoding": "inplace",
						"label": "enum Ballot.State",
						"numberOfBytes": "1"
					},
					"t_int256": {
						"encoding": "inplace",
						"label": "int256",
						"numberOfBytes": "32"
					},
					"t_mapping(t_address,t_struct(Voter)12_storage)": {
						"encoding": "mapping",
						"key": "t_address",
						"label": "mapping(address => struct Ballot.Voter)",
						"numberOfBytes": "32",
						"value": "t_struct(Voter)12_storage"
					},
					"t_struct(PollingStation)26_storage": {
						"encoding": "inplace",
						"label": "struct Ballot.PollingStation",
						"members": [
							{
								"astId": 21,
								"contract": "contracts/ergasia.sol:Ballot",
								"label": "stationID",
								"offset": 0,
								"slot": "0",
								"type": "t_uint256"
							},
							{
								"astId": 23,
								"contract": "contracts/ergasia.sol:Ballot",
								"label": "pplEnrolled",
								"offset": 0,
								"slot": "1",
								"type": "t_uint256"
							},
							{
								"astId": 25,
								"contract": "contracts/ergasia.sol:Ballot",
								"label": "votesCasted",
								"offset": 0,
								"slot": "2",
								"type": "t_uint256"
							}
						],
						"numberOfBytes": "96"
					},
					"t_struct(Proposal)19_storage": {
						"encoding": "inplace",
						"label": "struct Ballot.Proposal",
						"members": [
							{
								"astId": 14,
								"contract": "contracts/ergasia.sol:Ballot",
								"label": "id",
								"offset": 0,
								"slot": "0",
								"type": "t_uint256"
							},
							{
								"astId": 16,
								"contract": "contracts/ergasia.sol:Ballot",
								"label": "name",
								"offset": 0,
								"slot": "1",
								"type": "t_bytes32"
							},
							{
								"astId": 18,
								"contract": "contracts/ergasia.sol:Ballot",
								"label": "voteCount",
								"offset": 0,
								"slot": "2",
								"type": "t_uint256"
							}
						],
						"numberOfBytes": "96"
					},
					"t_struct(Voter)12_storage": {
						"encoding": "inplace",
						"label": "struct Ballot.Voter",
						"members": [
							{
								"astId": 3,
								"contract": "contracts/ergasia.sol:Ballot",
								"label": "enrolled",
								"offset": 0,
								"slot": "0",
								"type": "t_bool"
							},
							{
								"astId": 5,
								"contract": "contracts/ergasia.sol:Ballot",
								"label": "voted",
								"offset": 1,
								"slot": "0",
								"type": "t_bool"
							},
							{
								"astId": 7,
								"contract": "contracts/ergasia.sol:Ballot",
								"label": "indexProposal",
								"offset": 0,
								"slot": "1",
								"type": "t_int256"
							},
							{
								"astId": 9,
								"contract": "contracts/ergasia.sol:Ballot",
								"label": "enrolledPollingStationID",
								"offset": 0,
								"slot": "2",
								"type": "t_uint256"
							},
							{
								"astId": 11,
								"contract": "contracts/ergasia.sol:Ballot",
								"label": "votedPollingStationID",
								"offset": 0,
								"slot": "3",
								"type": "t_uint256"
							}
						],
						"numberOfBytes": "128"
					},
					"t_uint256": {
						"encoding": "inplace",
						"label": "uint256",
						"numberOfBytes": "32"
					}
				}
			},
			"userdoc": {
				"kind": "user",
				"methods": {},
				"version": 1
			}
		}
	}
}