{
	"contracts/ergasia.sol": {
		"Election": {
			"abi": [
				{
					"inputs": [],
					"stateMutability": "nonpayable",
					"type": "constructor"
				},
				{
					"anonymous": false,
					"inputs": [
						{
							"indexed": false,
							"internalType": "bool",
							"name": "voted",
							"type": "bool"
						},
						{
							"indexed": false,
							"internalType": "uint256",
							"name": "_choice",
							"type": "uint256"
						},
						{
							"indexed": false,
							"internalType": "uint256",
							"name": "_pollStationID",
							"type": "uint256"
						}
					],
					"name": "VoteCasted",
					"type": "event"
				},
				{
					"inputs": [
						{
							"internalType": "address",
							"name": "_voterAddress",
							"type": "address"
						},
						{
							"internalType": "uint256",
							"name": "_pollingStationID",
							"type": "uint256"
						}
					],
					"name": "addVoter",
					"outputs": [],
					"stateMutability": "nonpayable",
					"type": "function"
				},
				{
					"inputs": [
						{
							"internalType": "uint256",
							"name": "",
							"type": "uint256"
						}
					],
					"name": "candidates",
					"outputs": [
						{
							"internalType": "uint256",
							"name": "id",
							"type": "uint256"
						},
						{
							"internalType": "string",
							"name": "name",
							"type": "string"
						},
						{
							"internalType": "uint256",
							"name": "votes",
							"type": "uint256"
						}
					],
					"stateMutability": "view",
					"type": "function"
				},
				{
					"inputs": [],
					"name": "candidatesCount",
					"outputs": [
						{
							"internalType": "uint256",
							"name": "",
							"type": "uint256"
						}
					],
					"stateMutability": "view",
					"type": "function"
				},
				{
					"inputs": [
						{
							"internalType": "uint256",
							"name": "_choice",
							"type": "uint256"
						},
						{
							"internalType": "uint256",
							"name": "_pollingStationID",
							"type": "uint256"
						}
					],
					"name": "castVote",
					"outputs": [
						{
							"internalType": "bool",
							"name": "voted",
							"type": "bool"
						}
					],
					"stateMutability": "nonpayable",
					"type": "function"
				},
				{
					"inputs": [],
					"name": "electionOwner",
					"outputs": [
						{
							"internalType": "address",
							"name": "",
							"type": "address"
						}
					],
					"stateMutability": "view",
					"type": "function"
				},
				{
					"inputs": [],
					"name": "endVote",
					"outputs": [],
					"stateMutability": "nonpayable",
					"type": "function"
				},
				{
					"inputs": [],
					"name": "finalResult",
					"outputs": [
						{
							"internalType": "uint256",
							"name": "",
							"type": "uint256"
						}
					],
					"stateMutability": "view",
					"type": "function"
				},
				{
					"inputs": [
						{
							"internalType": "uint256",
							"name": "_pStationID",
							"type": "uint256"
						},
						{
							"internalType": "uint256",
							"name": "_candidateID",
							"type": "uint256"
						}
					],
					"name": "getResultsPerCandidatePerStation",
					"outputs": [
						{
							"internalType": "uint256",
							"name": "",
							"type": "uint256"
						}
					],
					"stateMutability": "view",
					"type": "function"
				},
				{
					"inputs": [
						{
							"internalType": "uint256",
							"name": "_pStationID",
							"type": "uint256"
						},
						{
							"internalType": "uint256",
							"name": "_candidateID",
							"type": "uint256"
						}
					],
					"name": "getResultsPerStation1",
					"outputs": [
						{
							"components": [
								{
									"internalType": "uint256",
									"name": "id",
									"type": "uint256"
								},
								{
									"internalType": "string",
									"name": "name",
									"type": "string"
								},
								{
									"internalType": "uint256",
									"name": "votes",
									"type": "uint256"
								}
							],
							"internalType": "struct Election.Candidate",
							"name": "",
							"type": "tuple"
						}
					],
					"stateMutability": "view",
					"type": "function"
				},
				{
					"inputs": [],
					"name": "pollingStationCount",
					"outputs": [
						{
							"internalType": "uint256",
							"name": "",
							"type": "uint256"
						}
					],
					"stateMutability": "view",
					"type": "function"
				},
				{
					"inputs": [
						{
							"internalType": "uint256",
							"name": "",
							"type": "uint256"
						}
					],
					"name": "pollingStations",
					"outputs": [
						{
							"internalType": "uint256",
							"name": "id",
							"type": "uint256"
						},
						{
							"internalType": "string",
							"name": "name",
							"type": "string"
						},
						{
							"internalType": "uint256",
							"name": "votersRegistered",
							"type": "uint256"
						},
						{
							"internalType": "uint256",
							"name": "votesCasted",
							"type": "uint256"
						}
					],
					"stateMutability": "view",
					"type": "function"
				},
				{
					"inputs": [],
					"name": "startVote",
					"outputs": [],
					"stateMutability": "nonpayable",
					"type": "function"
				},
				{
					"inputs": [],
					"name": "state",
					"outputs": [
						{
							"internalType": "enum Election.State",
							"name": "",
							"type": "uint8"
						}
					],
					"stateMutability": "view",
					"type": "function"
				},
				{
					"inputs": [],
					"name": "totalRegisteredVoters",
					"outputs": [
						{
							"internalType": "uint256",
							"name": "",
							"type": "uint256"
						}
					],
					"stateMutability": "view",
					"type": "function"
				},
				{
					"inputs": [
						{
							"internalType": "address",
							"name": "",
							"type": "address"
						}
					],
					"name": "voterRegistry",
					"outputs": [
						{
							"internalType": "bool",
							"name": "isEnrolled",
							"type": "bool"
						},
						{
							"internalType": "bool",
							"name": "hasVoted",
							"type": "bool"
						},
						{
							"internalType": "uint256",
							"name": "choice",
							"type": "uint256"
						},
						{
							"internalType": "uint256",
							"name": "enrolledPollingStationID",
							"type": "uint256"
						},
						{
							"internalType": "uint256",
							"name": "votedPollingStationID",
							"type": "uint256"
						}
					],
					"stateMutability": "view",
					"type": "function"
				},
				{
					"inputs": [
						{
							"internalType": "address",
							"name": "",
							"type": "address"
						}
					],
					"name": "voters",
					"outputs": [
						{
							"internalType": "bool",
							"name": "",
							"type": "bool"
						}
					],
					"stateMutability": "view",
					"type": "function"
				}
			],
			"devdoc": {
				"kind": "dev",
				"methods": {
					"addVoter(address,uint256)": {
						"details": "Adds a voter to the voter registry. May only be called by 'owner'.",
						"params": {
							"_pollingStationID": "polling station ID in which voter is registered.",
							"_voterAddress": "address of voter"
						}
					}
				},
				"version": 1
			},
			"evm": {
				"assembly": "    /* \"contracts/ergasia.sol\":70:7808  contract Election {... */\n  mstore(0x40, 0x80)\n    /* \"contracts/ergasia.sol\":2294:2569  constructor() {... */\n  callvalue\n  dup1\n  iszero\n  tag_1\n  jumpi\n  0x00\n  dup1\n  revert\ntag_1:\n  pop\n    /* \"contracts/ergasia.sol\":2334:2344  msg.sender */\n  caller\n    /* \"contracts/ergasia.sol\":2318:2331  electionOwner */\n  0x00\n  dup1\n    /* \"contracts/ergasia.sol\":2318:2344  electionOwner = msg.sender */\n  0x0100\n  exp\n  dup2\n  sload\n  dup2\n  0xffffffffffffffffffffffffffffffffffffffff\n  mul\n  not\n  and\n  swap1\n  dup4\n  0xffffffffffffffffffffffffffffffffffffffff\n  and\n  mul\n  or\n  swap1\n  sstore\n  pop\n    /* \"contracts/ergasia.sol\":2399:2420  initPollingStations() */\n  tag_4\n    /* \"contracts/ergasia.sol\":2399:2418  initPollingStations */\n  shl(0x20, tag_5)\n    /* \"contracts/ergasia.sol\":2399:2420  initPollingStations() */\n  0x20\n  shr\n  jump\t// in\ntag_4:\n    /* \"contracts/ergasia.sol\":2477:2493  initCandidates() */\n  tag_6\n    /* \"contracts/ergasia.sol\":2477:2491  initCandidates */\n  shl(0x20, tag_7)\n    /* \"contracts/ergasia.sol\":2477:2493  initCandidates() */\n  0x20\n  shr\n  jump\t// in\ntag_6:\n    /* \"contracts/ergasia.sol\":2547:2560  State.Created */\n  0x00\n    /* \"contracts/ergasia.sol\":2539:2544  state */\n  0x0b\n  0x00\n    /* \"contracts/ergasia.sol\":2539:2560  state = State.Created */\n  0x0100\n  exp\n  dup2\n  sload\n  dup2\n  0xff\n  mul\n  not\n  and\n  swap1\n  dup4\n  0x02\n  dup2\n  gt\n  iszero\n  tag_8\n  jumpi\n  tag_9\n  tag_10\n  jump\t// in\ntag_9:\ntag_8:\n  mul\n  or\n  swap1\n  sstore\n  pop\n    /* \"contracts/ergasia.sol\":70:7808  contract Election {... */\n  jump(tag_11)\n    /* \"contracts/ergasia.sol\":3374:3902  function initPollingStations() internal {... */\ntag_5:\n    /* \"contracts/ergasia.sol\":3424:3462  addPollingStation(\"Polling Station 1\") */\n  tag_13\n  mload(0x40)\n  dup1\n  0x40\n  add\n  0x40\n  mstore\n  dup1\n  0x11\n  dup2\n  mstore\n  0x20\n  add\n  0x506f6c6c696e672053746174696f6e2031000000000000000000000000000000\n  dup2\n  mstore\n  pop\n    /* \"contracts/ergasia.sol\":3424:3441  addPollingStation */\n  shl(0x20, tag_14)\n    /* \"contracts/ergasia.sol\":3424:3462  addPollingStation(\"Polling Station 1\") */\n  0x20\n  shr\n  jump\t// in\ntag_13:\n    /* \"contracts/ergasia.sol\":3472:3510  addPollingStation(\"Polling Station 2\") */\n  tag_15\n  mload(0x40)\n  dup1\n  0x40\n  add\n  0x40\n  mstore\n  dup1\n  0x11\n  dup2\n  mstore\n  0x20\n  add\n  0x506f6c6c696e672053746174696f6e2032000000000000000000000000000000\n  dup2\n  mstore\n  pop\n    /* \"contracts/ergasia.sol\":3472:3489  addPollingStation */\n  shl(0x20, tag_14)\n    /* \"contracts/ergasia.sol\":3472:3510  addPollingStation(\"Polling Station 2\") */\n  0x20\n  shr\n  jump\t// in\ntag_15:\n    /* \"contracts/ergasia.sol\":3520:3558  addPollingStation(\"Polling Station 3\") */\n  tag_16\n  mload(0x40)\n  dup1\n  0x40\n  add\n  0x40\n  mstore\n  dup1\n  0x11\n  dup2\n  mstore\n  0x20\n  add\n  0x506f6c6c696e672053746174696f6e2033000000000000000000000000000000\n  dup2\n  mstore\n  pop\n    /* \"contracts/ergasia.sol\":3520:3537  addPollingStation */\n  shl(0x20, tag_14)\n    /* \"contracts/ergasia.sol\":3520:3558  addPollingStation(\"Polling Station 3\") */\n  0x20\n  shr\n  jump\t// in\ntag_16:\n    /* \"contracts/ergasia.sol\":3568:3606  addPollingStation(\"Polling Station 4\") */\n  tag_17\n  mload(0x40)\n  dup1\n  0x40\n  add\n  0x40\n  mstore\n  dup1\n  0x11\n  dup2\n  mstore\n  0x20\n  add\n  0x506f6c6c696e672053746174696f6e2034000000000000000000000000000000\n  dup2\n  mstore\n  pop\n    /* \"contracts/ergasia.sol\":3568:3585  addPollingStation */\n  shl(0x20, tag_14)\n    /* \"contracts/ergasia.sol\":3568:3606  addPollingStation(\"Polling Station 4\") */\n  0x20\n  shr\n  jump\t// in\ntag_17:\n    /* \"contracts/ergasia.sol\":3616:3654  addPollingStation(\"Polling Station 5\") */\n  tag_18\n  mload(0x40)\n  dup1\n  0x40\n  add\n  0x40\n  mstore\n  dup1\n  0x11\n  dup2\n  mstore\n  0x20\n  add\n  0x506f6c6c696e672053746174696f6e2035000000000000000000000000000000\n  dup2\n  mstore\n  pop\n    /* \"contracts/ergasia.sol\":3616:3633  addPollingStation */\n  shl(0x20, tag_14)\n    /* \"contracts/ergasia.sol\":3616:3654  addPollingStation(\"Polling Station 5\") */\n  0x20\n  shr\n  jump\t// in\ntag_18:\n    /* \"contracts/ergasia.sol\":3664:3702  addPollingStation(\"Polling Station 6\") */\n  tag_19\n  mload(0x40)\n  dup1\n  0x40\n  add\n  0x40\n  mstore\n  dup1\n  0x11\n  dup2\n  mstore\n  0x20\n  add\n  0x506f6c6c696e672053746174696f6e2036000000000000000000000000000000\n  dup2\n  mstore\n  pop\n    /* \"contracts/ergasia.sol\":3664:3681  addPollingStation */\n  shl(0x20, tag_14)\n    /* \"contracts/ergasia.sol\":3664:3702  addPollingStation(\"Polling Station 6\") */\n  0x20\n  shr\n  jump\t// in\ntag_19:\n    /* \"contracts/ergasia.sol\":3712:3750  addPollingStation(\"Polling Station 7\") */\n  tag_20\n  mload(0x40)\n  dup1\n  0x40\n  add\n  0x40\n  mstore\n  dup1\n  0x11\n  dup2\n  mstore\n  0x20\n  add\n  0x506f6c6c696e672053746174696f6e2037000000000000000000000000000000\n  dup2\n  mstore\n  pop\n    /* \"contracts/ergasia.sol\":3712:3729  addPollingStation */\n  shl(0x20, tag_14)\n    /* \"contracts/ergasia.sol\":3712:3750  addPollingStation(\"Polling Station 7\") */\n  0x20\n  shr\n  jump\t// in\ntag_20:\n    /* \"contracts/ergasia.sol\":3760:3798  addPollingStation(\"Polling Station 8\") */\n  tag_21\n  mload(0x40)\n  dup1\n  0x40\n  add\n  0x40\n  mstore\n  dup1\n  0x11\n  dup2\n  mstore\n  0x20\n  add\n  0x506f6c6c696e672053746174696f6e2038000000000000000000000000000000\n  dup2\n  mstore\n  pop\n    /* \"contracts/ergasia.sol\":3760:3777  addPollingStation */\n  shl(0x20, tag_14)\n    /* \"contracts/ergasia.sol\":3760:3798  addPollingStation(\"Polling Station 8\") */\n  0x20\n  shr\n  jump\t// in\ntag_21:\n    /* \"contracts/ergasia.sol\":3808:3846  addPollingStation(\"Polling Station 9\") */\n  tag_22\n  mload(0x40)\n  dup1\n  0x40\n  add\n  0x40\n  mstore\n  dup1\n  0x11\n  dup2\n  mstore\n  0x20\n  add\n  0x506f6c6c696e672053746174696f6e2039000000000000000000000000000000\n  dup2\n  mstore\n  pop\n    /* \"contracts/ergasia.sol\":3808:3825  addPollingStation */\n  shl(0x20, tag_14)\n    /* \"contracts/ergasia.sol\":3808:3846  addPollingStation(\"Polling Station 9\") */\n  0x20\n  shr\n  jump\t// in\ntag_22:\n    /* \"contracts/ergasia.sol\":3856:3895  addPollingStation(\"Polling Station 10\") */\n  tag_23\n  mload(0x40)\n  dup1\n  0x40\n  add\n  0x40\n  mstore\n  dup1\n  0x12\n  dup2\n  mstore\n  0x20\n  add\n  0x506f6c6c696e672053746174696f6e2031300000000000000000000000000000\n  dup2\n  mstore\n  pop\n    /* \"contracts/ergasia.sol\":3856:3873  addPollingStation */\n  shl(0x20, tag_14)\n    /* \"contracts/ergasia.sol\":3856:3895  addPollingStation(\"Polling Station 10\") */\n  0x20\n  shr\n  jump\t// in\ntag_23:\n    /* \"contracts/ergasia.sol\":3374:3902  function initPollingStations() internal {... */\n  jump\t// out\n    /* \"contracts/ergasia.sol\":2628:2855  function initCandidates() internal {... */\ntag_7:\n    /* \"contracts/ergasia.sol\":2673:2700  addCandidate(\"Candidate 1\") */\n  tag_25\n  mload(0x40)\n  dup1\n  0x40\n  add\n  0x40\n  mstore\n  dup1\n  0x0b\n  dup2\n  mstore\n  0x20\n  add\n  0x43616e6469646174652031000000000000000000000000000000000000000000\n  dup2\n  mstore\n  pop\n    /* \"contracts/ergasia.sol\":2673:2685  addCandidate */\n  shl(0x20, tag_26)\n    /* \"contracts/ergasia.sol\":2673:2700  addCandidate(\"Candidate 1\") */\n  0x20\n  shr\n  jump\t// in\ntag_25:\n    /* \"contracts/ergasia.sol\":2710:2737  addCandidate(\"Candidate 2\") */\n  tag_27\n  mload(0x40)\n  dup1\n  0x40\n  add\n  0x40\n  mstore\n  dup1\n  0x0b\n  dup2\n  mstore\n  0x20\n  add\n  0x43616e6469646174652032000000000000000000000000000000000000000000\n  dup2\n  mstore\n  pop\n    /* \"contracts/ergasia.sol\":2710:2722  addCandidate */\n  shl(0x20, tag_26)\n    /* \"contracts/ergasia.sol\":2710:2737  addCandidate(\"Candidate 2\") */\n  0x20\n  shr\n  jump\t// in\ntag_27:\n    /* \"contracts/ergasia.sol\":2747:2774  addCandidate(\"Candidate 3\") */\n  tag_28\n  mload(0x40)\n  dup1\n  0x40\n  add\n  0x40\n  mstore\n  dup1\n  0x0b\n  dup2\n  mstore\n  0x20\n  add\n  0x43616e6469646174652033000000000000000000000000000000000000000000\n  dup2\n  mstore\n  pop\n    /* \"contracts/ergasia.sol\":2747:2759  addCandidate */\n  shl(0x20, tag_26)\n    /* \"contracts/ergasia.sol\":2747:2774  addCandidate(\"Candidate 3\") */\n  0x20\n  shr\n  jump\t// in\ntag_28:\n    /* \"contracts/ergasia.sol\":2784:2811  addCandidate(\"Candidate 4\") */\n  tag_29\n  mload(0x40)\n  dup1\n  0x40\n  add\n  0x40\n  mstore\n  dup1\n  0x0b\n  dup2\n  mstore\n  0x20\n  add\n  0x43616e6469646174652034000000000000000000000000000000000000000000\n  dup2\n  mstore\n  pop\n    /* \"contracts/ergasia.sol\":2784:2796  addCandidate */\n  shl(0x20, tag_26)\n    /* \"contracts/ergasia.sol\":2784:2811  addCandidate(\"Candidate 4\") */\n  0x20\n  shr\n  jump\t// in\ntag_29:\n    /* \"contracts/ergasia.sol\":2821:2848  addCandidate(\"Candidate 5\") */\n  tag_30\n  mload(0x40)\n  dup1\n  0x40\n  add\n  0x40\n  mstore\n  dup1\n  0x0b\n  dup2\n  mstore\n  0x20\n  add\n  0x43616e6469646174652035000000000000000000000000000000000000000000\n  dup2\n  mstore\n  pop\n    /* \"contracts/ergasia.sol\":2821:2833  addCandidate */\n  shl(0x20, tag_26)\n    /* \"contracts/ergasia.sol\":2821:2848  addCandidate(\"Candidate 5\") */\n  0x20\n  shr\n  jump\t// in\ntag_30:\n    /* \"contracts/ergasia.sol\":2628:2855  function initCandidates() internal {... */\n  jump\t// out\n    /* \"contracts/ergasia.sol\":4025:4686  function addPollingStation (string memory _name) private {... */\ntag_14:\n    /* \"contracts/ergasia.sol\":4092:4111  pollingStationCount */\n  0x02\n  0x00\n    /* \"contracts/ergasia.sol\":4092:4113  pollingStationCount++ */\n  dup2\n  sload\n  dup1\n  swap3\n  swap2\n  swap1\n  tag_32\n  swap1\n  tag_33\n  jump\t// in\ntag_32:\n  swap2\n  swap1\n  pop\n  sstore\n  pop\n    /* \"contracts/ergasia.sol\":4235:4269  PollingStation storage pollStation */\n  0x00\n    /* \"contracts/ergasia.sol\":4272:4287  pollingStations */\n  0x08\n    /* \"contracts/ergasia.sol\":4272:4308  pollingStations[pollingStationCount] */\n  0x00\n    /* \"contracts/ergasia.sol\":4288:4307  pollingStationCount */\n  sload(0x02)\n    /* \"contracts/ergasia.sol\":4272:4308  pollingStations[pollingStationCount] */\n  dup2\n  mstore\n  0x20\n  add\n  swap1\n  dup2\n  mstore\n  0x20\n  add\n  0x00\n  keccak256\n    /* \"contracts/ergasia.sol\":4235:4308  PollingStation storage pollStation = pollingStations[pollingStationCount] */\n  swap1\n  pop\n    /* \"contracts/ergasia.sol\":4335:4354  pollingStationCount */\n  sload(0x02)\n    /* \"contracts/ergasia.sol\":4318:4329  pollStation */\n  dup2\n    /* \"contracts/ergasia.sol\":4318:4332  pollStation.id */\n  0x00\n  add\n    /* \"contracts/ergasia.sol\":4318:4354  pollStation.id = pollingStationCount */\n  dup2\n  swap1\n  sstore\n  pop\n    /* \"contracts/ergasia.sol\":4383:4388  _name */\n  dup2\n    /* \"contracts/ergasia.sol\":4364:4375  pollStation */\n  dup2\n    /* \"contracts/ergasia.sol\":4364:4380  pollStation.name */\n  0x01\n  add\n    /* \"contracts/ergasia.sol\":4364:4388  pollStation.name = _name */\n  swap1\n  dup1\n  mload\n  swap1\n  0x20\n  add\n  swap1\n  tag_34\n  swap3\n  swap2\n  swap1\n  tag_35\n  jump\t// in\ntag_34:\n  pop\n    /* \"contracts/ergasia.sol\":4429:4430  0 */\n  0x00\n    /* \"contracts/ergasia.sol\":4398:4409  pollStation */\n  dup2\n    /* \"contracts/ergasia.sol\":4398:4426  pollStation.votersRegistered */\n  0x02\n  add\n    /* \"contracts/ergasia.sol\":4398:4430  pollStation.votersRegistered = 0 */\n  dup2\n  swap1\n  sstore\n  pop\n    /* \"contracts/ergasia.sol\":4466:4467  0 */\n  0x00\n    /* \"contracts/ergasia.sol\":4440:4451  pollStation */\n  dup2\n    /* \"contracts/ergasia.sol\":4440:4463  pollStation.votesCasted */\n  0x03\n  add\n    /* \"contracts/ergasia.sol\":4440:4467  pollStation.votesCasted = 0 */\n  dup2\n  swap1\n  sstore\n  pop\n    /* \"contracts/ergasia.sol\":4082:4686  {... */\n  pop\n    /* \"contracts/ergasia.sol\":4025:4686  function addPollingStation (string memory _name) private {... */\n  pop\n  jump\t// out\n    /* \"contracts/ergasia.sol\":2975:3313  function addCandidate (string memory _name) private {... */\ntag_26:\n    /* \"contracts/ergasia.sol\":3037:3052  candidatesCount */\n  0x01\n  0x00\n    /* \"contracts/ergasia.sol\":3037:3054  candidatesCount++ */\n  dup2\n  sload\n  dup1\n  swap3\n  swap2\n  swap1\n  tag_37\n  swap1\n  tag_33\n  jump\t// in\ntag_37:\n  swap2\n  swap1\n  pop\n  sstore\n  pop\n    /* \"contracts/ergasia.sol\":3094:3130  Candidate(candidatesCount, _name, 0) */\n  mload(0x40)\n  dup1\n  0x60\n  add\n  0x40\n  mstore\n  dup1\n    /* \"contracts/ergasia.sol\":3104:3119  candidatesCount */\n  sload(0x01)\n    /* \"contracts/ergasia.sol\":3094:3130  Candidate(candidatesCount, _name, 0) */\n  dup2\n  mstore\n  0x20\n  add\n    /* \"contracts/ergasia.sol\":3121:3126  _name */\n  dup3\n    /* \"contracts/ergasia.sol\":3094:3130  Candidate(candidatesCount, _name, 0) */\n  dup2\n  mstore\n  0x20\n  add\n    /* \"contracts/ergasia.sol\":3128:3129  0 */\n  0x00\n    /* \"contracts/ergasia.sol\":3094:3130  Candidate(candidatesCount, _name, 0) */\n  dup2\n  mstore\n  pop\n    /* \"contracts/ergasia.sol\":3064:3074  candidates */\n  0x06\n    /* \"contracts/ergasia.sol\":3064:3091  candidates[candidatesCount] */\n  0x00\n    /* \"contracts/ergasia.sol\":3075:3090  candidatesCount */\n  sload(0x01)\n    /* \"contracts/ergasia.sol\":3064:3091  candidates[candidatesCount] */\n  dup2\n  mstore\n  0x20\n  add\n  swap1\n  dup2\n  mstore\n  0x20\n  add\n  0x00\n  keccak256\n    /* \"contracts/ergasia.sol\":3064:3130  candidates[candidatesCount] = Candidate(candidatesCount, _name, 0) */\n  0x00\n  dup3\n  add\n  mload\n  dup2\n  0x00\n  add\n  sstore\n  0x20\n  dup3\n  add\n  mload\n  dup2\n  0x01\n  add\n  swap1\n  dup1\n  mload\n  swap1\n  0x20\n  add\n  swap1\n  tag_38\n  swap3\n  swap2\n  swap1\n  tag_35\n  jump\t// in\ntag_38:\n  pop\n  0x40\n  dup3\n  add\n  mload\n  dup2\n  0x02\n  add\n  sstore\n  swap1\n  pop\n  pop\n    /* \"contracts/ergasia.sol\":3146:3152  uint i */\n  0x00\n    /* \"contracts/ergasia.sol\":3155:3156  1 */\n  0x01\n    /* \"contracts/ergasia.sol\":3146:3156  uint i = 1 */\n  swap1\n  pop\n    /* \"contracts/ergasia.sol\":3141:3307  for (uint i = 1; i <= pollingStationCount; i++) {... */\ntag_39:\n    /* \"contracts/ergasia.sol\":3163:3182  pollingStationCount */\n  sload(0x02)\n    /* \"contracts/ergasia.sol\":3158:3159  i */\n  dup2\n    /* \"contracts/ergasia.sol\":3158:3182  i <= pollingStationCount */\n  gt\n    /* \"contracts/ergasia.sol\":3141:3307  for (uint i = 1; i <= pollingStationCount; i++) {... */\n  tag_40\n  jumpi\n    /* \"contracts/ergasia.sol\":3260:3296  Candidate(candidatesCount, _name, 0) */\n  mload(0x40)\n  dup1\n  0x60\n  add\n  0x40\n  mstore\n  dup1\n    /* \"contracts/ergasia.sol\":3270:3285  candidatesCount */\n  sload(0x01)\n    /* \"contracts/ergasia.sol\":3260:3296  Candidate(candidatesCount, _name, 0) */\n  dup2\n  mstore\n  0x20\n  add\n    /* \"contracts/ergasia.sol\":3287:3292  _name */\n  dup4\n    /* \"contracts/ergasia.sol\":3260:3296  Candidate(candidatesCount, _name, 0) */\n  dup2\n  mstore\n  0x20\n  add\n    /* \"contracts/ergasia.sol\":3294:3295  0 */\n  0x00\n    /* \"contracts/ergasia.sol\":3260:3296  Candidate(candidatesCount, _name, 0) */\n  dup2\n  mstore\n  pop\n    /* \"contracts/ergasia.sol\":3203:3218  pollingStations */\n  0x08\n    /* \"contracts/ergasia.sol\":3203:3221  pollingStations[i] */\n  0x00\n    /* \"contracts/ergasia.sol\":3219:3220  i */\n  dup4\n    /* \"contracts/ergasia.sol\":3203:3221  pollingStations[i] */\n  dup2\n  mstore\n  0x20\n  add\n  swap1\n  dup2\n  mstore\n  0x20\n  add\n  0x00\n  keccak256\n    /* \"contracts/ergasia.sol\":3203:3240  pollingStations[i].scoresPerCandidate */\n  0x04\n  add\n    /* \"contracts/ergasia.sol\":3203:3257  pollingStations[i].scoresPerCandidate[candidatesCount] */\n  0x00\n    /* \"contracts/ergasia.sol\":3241:3256  candidatesCount */\n  sload(0x01)\n    /* \"contracts/ergasia.sol\":3203:3257  pollingStations[i].scoresPerCandidate[candidatesCount] */\n  dup2\n  mstore\n  0x20\n  add\n  swap1\n  dup2\n  mstore\n  0x20\n  add\n  0x00\n  keccak256\n    /* \"contracts/ergasia.sol\":3203:3296  pollingStations[i].scoresPerCandidate[candidatesCount] = Candidate(candidatesCount, _name, 0) */\n  0x00\n  dup3\n  add\n  mload\n  dup2\n  0x00\n  add\n  sstore\n  0x20\n  dup3\n  add\n  mload\n  dup2\n  0x01\n  add\n  swap1\n  dup1\n  mload\n  swap1\n  0x20\n  add\n  swap1\n  tag_42\n  swap3\n  swap2\n  swap1\n  tag_35\n  jump\t// in\ntag_42:\n  pop\n  0x40\n  dup3\n  add\n  mload\n  dup2\n  0x02\n  add\n  sstore\n  swap1\n  pop\n  pop\n    /* \"contracts/ergasia.sol\":3184:3187  i++ */\n  dup1\n  dup1\n  tag_43\n  swap1\n  tag_33\n  jump\t// in\ntag_43:\n  swap2\n  pop\n  pop\n    /* \"contracts/ergasia.sol\":3141:3307  for (uint i = 1; i <= pollingStationCount; i++) {... */\n  jump(tag_39)\ntag_40:\n  pop\n    /* \"contracts/ergasia.sol\":2975:3313  function addCandidate (string memory _name) private {... */\n  pop\n  jump\t// out\n    /* \"contracts/ergasia.sol\":70:7808  contract Election {... */\ntag_35:\n  dup3\n  dup1\n  sload\n  tag_44\n  swap1\n  tag_45\n  jump\t// in\ntag_44:\n  swap1\n  0x00\n  mstore\n  keccak256(0x00, 0x20)\n  swap1\n  0x1f\n  add\n  0x20\n  swap1\n  div\n  dup2\n  add\n  swap3\n  dup3\n  tag_47\n  jumpi\n  0x00\n  dup6\n  sstore\n  jump(tag_46)\ntag_47:\n  dup3\n  0x1f\n  lt\n  tag_48\n  jumpi\n  dup1\n  mload\n  not(0xff)\n  and\n  dup4\n  dup1\n  add\n  or\n  dup6\n  sstore\n  jump(tag_46)\ntag_48:\n  dup3\n  dup1\n  add\n  0x01\n  add\n  dup6\n  sstore\n  dup3\n  iszero\n  tag_46\n  jumpi\n  swap2\n  dup3\n  add\ntag_49:\n  dup3\n  dup2\n  gt\n  iszero\n  tag_50\n  jumpi\n  dup3\n  mload\n  dup3\n  sstore\n  swap2\n  0x20\n  add\n  swap2\n  swap1\n  0x01\n  add\n  swap1\n  jump(tag_49)\ntag_50:\ntag_46:\n  pop\n  swap1\n  pop\n  tag_51\n  swap2\n  swap1\n  tag_52\n  jump\t// in\ntag_51:\n  pop\n  swap1\n  jump\t// out\ntag_52:\ntag_53:\n  dup1\n  dup3\n  gt\n  iszero\n  tag_54\n  jumpi\n  0x00\n  dup2\n  0x00\n  swap1\n  sstore\n  pop\n  0x01\n  add\n  jump(tag_53)\ntag_54:\n  pop\n  swap1\n  jump\t// out\n    /* \"#utility.yul\":7:84   */\ntag_56:\n    /* \"#utility.yul\":44:51   */\n  0x00\n    /* \"#utility.yul\":73:78   */\n  dup2\n    /* \"#utility.yul\":62:78   */\n  swap1\n  pop\n    /* \"#utility.yul\":7:84   */\n  swap2\n  swap1\n  pop\n  jump\t// out\n    /* \"#utility.yul\":90:410   */\ntag_45:\n    /* \"#utility.yul\":134:140   */\n  0x00\n    /* \"#utility.yul\":171:172   */\n  0x02\n    /* \"#utility.yul\":165:169   */\n  dup3\n    /* \"#utility.yul\":161:173   */\n  div\n    /* \"#utility.yul\":151:173   */\n  swap1\n  pop\n    /* \"#utility.yul\":218:219   */\n  0x01\n    /* \"#utility.yul\":212:216   */\n  dup3\n    /* \"#utility.yul\":208:220   */\n  and\n    /* \"#utility.yul\":239:257   */\n  dup1\n    /* \"#utility.yul\":229:310   */\n  tag_59\n  jumpi\n    /* \"#utility.yul\":295:299   */\n  0x7f\n    /* \"#utility.yul\":287:293   */\n  dup3\n    /* \"#utility.yul\":283:300   */\n  and\n    /* \"#utility.yul\":273:300   */\n  swap2\n  pop\n    /* \"#utility.yul\":229:310   */\ntag_59:\n    /* \"#utility.yul\":357:359   */\n  0x20\n    /* \"#utility.yul\":349:355   */\n  dup3\n    /* \"#utility.yul\":346:360   */\n  lt\n    /* \"#utility.yul\":326:344   */\n  dup2\n    /* \"#utility.yul\":323:361   */\n  eq\n    /* \"#utility.yul\":320:404   */\n  iszero\n  tag_60\n  jumpi\n    /* \"#utility.yul\":376:394   */\n  tag_61\n  tag_62\n  jump\t// in\ntag_61:\n    /* \"#utility.yul\":320:404   */\ntag_60:\n    /* \"#utility.yul\":141:410   */\n  pop\n    /* \"#utility.yul\":90:410   */\n  swap2\n  swap1\n  pop\n  jump\t// out\n    /* \"#utility.yul\":416:649   */\ntag_33:\n    /* \"#utility.yul\":455:458   */\n  0x00\n    /* \"#utility.yul\":478:502   */\n  tag_64\n    /* \"#utility.yul\":496:501   */\n  dup3\n    /* \"#utility.yul\":478:502   */\n  tag_56\n  jump\t// in\ntag_64:\n    /* \"#utility.yul\":469:502   */\n  swap2\n  pop\n    /* \"#utility.yul\":524:590   */\n  0xffffffffffffffffffffffffffffffffffffffffffffffffffffffffffffffff\n    /* \"#utility.yul\":517:522   */\n  dup3\n    /* \"#utility.yul\":514:591   */\n  eq\n    /* \"#utility.yul\":511:614   */\n  iszero\n  tag_65\n  jumpi\n    /* \"#utility.yul\":594:612   */\n  tag_66\n  tag_67\n  jump\t// in\ntag_66:\n    /* \"#utility.yul\":511:614   */\ntag_65:\n    /* \"#utility.yul\":641:642   */\n  0x01\n    /* \"#utility.yul\":634:639   */\n  dup3\n    /* \"#utility.yul\":630:643   */\n  add\n    /* \"#utility.yul\":623:643   */\n  swap1\n  pop\n    /* \"#utility.yul\":416:649   */\n  swap2\n  swap1\n  pop\n  jump\t// out\n    /* \"#utility.yul\":655:835   */\ntag_67:\n    /* \"#utility.yul\":703:780   */\n  0x4e487b7100000000000000000000000000000000000000000000000000000000\n    /* \"#utility.yul\":700:701   */\n  0x00\n    /* \"#utility.yul\":693:781   */\n  mstore\n    /* \"#utility.yul\":800:804   */\n  0x11\n    /* \"#utility.yul\":797:798   */\n  0x04\n    /* \"#utility.yul\":790:805   */\n  mstore\n    /* \"#utility.yul\":824:828   */\n  0x24\n    /* \"#utility.yul\":821:822   */\n  0x00\n    /* \"#utility.yul\":814:829   */\n  revert\n    /* \"#utility.yul\":841:1021   */\ntag_10:\n    /* \"#utility.yul\":889:966   */\n  0x4e487b7100000000000000000000000000000000000000000000000000000000\n    /* \"#utility.yul\":886:887   */\n  0x00\n    /* \"#utility.yul\":879:967   */\n  mstore\n    /* \"#utility.yul\":986:990   */\n  0x21\n    /* \"#utility.yul\":983:984   */\n  0x04\n    /* \"#utility.yul\":976:991   */\n  mstore\n    /* \"#utility.yul\":1010:1014   */\n  0x24\n    /* \"#utility.yul\":1007:1008   */\n  0x00\n    /* \"#utility.yul\":1000:1015   */\n  revert\n    /* \"#utility.yul\":1027:1207   */\ntag_62:\n    /* \"#utility.yul\":1075:1152   */\n  0x4e487b7100000000000000000000000000000000000000000000000000000000\n    /* \"#utility.yul\":1072:1073   */\n  0x00\n    /* \"#utility.yul\":1065:1153   */\n  mstore\n    /* \"#utility.yul\":1172:1176   */\n  0x22\n    /* \"#utility.yul\":1169:1170   */\n  0x04\n    /* \"#utility.yul\":1162:1177   */\n  mstore\n    /* \"#utility.yul\":1196:1200   */\n  0x24\n    /* \"#utility.yul\":1193:1194   */\n  0x00\n    /* \"#utility.yul\":1186:1201   */\n  revert\n    /* \"contracts/ergasia.sol\":70:7808  contract Election {... */\ntag_11:\n  dataSize(sub_0)\n  dup1\n  dataOffset(sub_0)\n  0x00\n  codecopy\n  0x00\n  return\nstop\n\nsub_0: assembly {\n        /* \"contracts/ergasia.sol\":70:7808  contract Election {... */\n      mstore(0x40, 0x80)\n      callvalue\n      dup1\n      iszero\n      tag_1\n      jumpi\n      0x00\n      dup1\n      revert\n    tag_1:\n      pop\n      jumpi(tag_2, lt(calldatasize, 0x04))\n      shr(0xe0, calldataload(0x00))\n      dup1\n      0xa3ec138d\n      gt\n      tag_19\n      jumpi\n      dup1\n      0xd3808ae0\n      gt\n      tag_20\n      jumpi\n      dup1\n      0xd3808ae0\n      eq\n      tag_15\n      jumpi\n      dup1\n      0xdf9f1a07\n      eq\n      tag_16\n      jumpi\n      dup1\n      0xf3a8286f\n      eq\n      tag_17\n      jumpi\n      dup1\n      0xfe2442d7\n      eq\n      tag_18\n      jumpi\n      jump(tag_2)\n    tag_20:\n      dup1\n      0xa3ec138d\n      eq\n      tag_11\n      jumpi\n      dup1\n      0xb9223946\n      eq\n      tag_12\n      jumpi\n      dup1\n      0xb9f05f2f\n      eq\n      tag_13\n      jumpi\n      dup1\n      0xc19d93fb\n      eq\n      tag_14\n      jumpi\n      jump(tag_2)\n    tag_19:\n      dup1\n      0x3477ee2e\n      gt\n      tag_21\n      jumpi\n      dup1\n      0x3477ee2e\n      eq\n      tag_7\n      jumpi\n      dup1\n      0x4763d4e7\n      eq\n      tag_8\n      jumpi\n      dup1\n      0x4c0a6af0\n      eq\n      tag_9\n      jumpi\n      dup1\n      0x53357ad0\n      eq\n      tag_10\n      jumpi\n      jump(tag_2)\n    tag_21:\n      dup1\n      0xaa7464\n      eq\n      tag_3\n      jumpi\n      dup1\n      0x2a41742e\n      eq\n      tag_4\n      jumpi\n      dup1\n      0x2c0a3f89\n      eq\n      tag_5\n      jumpi\n      dup1\n      0x2d35a8a2\n      eq\n      tag_6\n      jumpi\n    tag_2:\n      0x00\n      dup1\n      revert\n        /* \"contracts/ergasia.sol\":1418:1451  uint public totalRegisteredVoters */\n    tag_3:\n      tag_22\n      tag_23\n      jump\t// in\n    tag_22:\n      mload(0x40)\n      tag_24\n      swap2\n      swap1\n      tag_25\n      jump\t// in\n    tag_24:\n      mload(0x40)\n      dup1\n      swap2\n      sub\n      swap1\n      return\n        /* \"contracts/ergasia.sol\":7608:7805  function getResultsPerCandidatePerStation(uint _pStationID, uint _candidateID) public view returns (uint) {... */\n    tag_4:\n      tag_26\n      0x04\n      dup1\n      calldatasize\n      sub\n      dup2\n      add\n      swap1\n      tag_27\n      swap2\n      swap1\n      tag_28\n      jump\t// in\n    tag_27:\n      tag_29\n      jump\t// in\n    tag_26:\n      mload(0x40)\n      tag_30\n      swap2\n      swap1\n      tag_25\n      jump\t// in\n    tag_30:\n      mload(0x40)\n      dup1\n      swap2\n      sub\n      swap1\n      return\n        /* \"contracts/ergasia.sol\":6464:7272  function castVote(uint _choice, uint _pollingStationID) public inState(State.Voting) returns (bool voted) {... */\n    tag_5:\n      tag_31\n      0x04\n      dup1\n      calldatasize\n      sub\n      dup2\n      add\n      swap1\n      tag_32\n      swap2\n      swap1\n      tag_28\n      jump\t// in\n    tag_32:\n      tag_33\n      jump\t// in\n    tag_31:\n      mload(0x40)\n      tag_34\n      swap2\n      swap1\n      tag_35\n      jump\t// in\n    tag_34:\n      mload(0x40)\n      dup1\n      swap2\n      sub\n      swap1\n      return\n        /* \"contracts/ergasia.sol\":1276:1303  uint public candidatesCount */\n    tag_6:\n      tag_36\n      tag_37\n      jump\t// in\n    tag_36:\n      mload(0x40)\n      tag_38\n      swap2\n      swap1\n      tag_25\n      jump\t// in\n    tag_38:\n      mload(0x40)\n      dup1\n      swap2\n      sub\n      swap1\n      return\n        /* \"contracts/ergasia.sol\":1621:1665  mapping(uint => Candidate) public candidates */\n    tag_7:\n      tag_39\n      0x04\n      dup1\n      calldatasize\n      sub\n      dup2\n      add\n      swap1\n      tag_40\n      swap2\n      swap1\n      tag_41\n      jump\t// in\n    tag_40:\n      tag_42\n      jump\t// in\n    tag_39:\n      mload(0x40)\n      tag_43\n      swap4\n      swap3\n      swap2\n      swap1\n      tag_44\n      jump\t// in\n    tag_43:\n      mload(0x40)\n      dup1\n      swap2\n      sub\n      swap1\n      return\n        /* \"contracts/ergasia.sol\":1880:1926  mapping(address => Voter) public voterRegistry */\n    tag_8:\n      tag_45\n      0x04\n      dup1\n      calldatasize\n      sub\n      dup2\n      add\n      swap1\n      tag_46\n      swap2\n      swap1\n      tag_47\n      jump\t// in\n    tag_46:\n      tag_48\n      jump\t// in\n    tag_45:\n      mload(0x40)\n      tag_49\n      swap6\n      swap5\n      swap4\n      swap3\n      swap2\n      swap1\n      tag_50\n      jump\t// in\n    tag_49:\n      mload(0x40)\n      dup1\n      swap2\n      sub\n      swap1\n      return\n        /* \"contracts/ergasia.sol\":6364:6458  function startVote() public inState(State.Created) Owner {... */\n    tag_9:\n      tag_51\n      tag_52\n      jump\t// in\n    tag_51:\n      stop\n        /* \"contracts/ergasia.sol\":1242:1270  address public electionOwner */\n    tag_10:\n      tag_53\n      tag_54\n      jump\t// in\n    tag_53:\n      mload(0x40)\n      tag_55\n      swap2\n      swap1\n      tag_56\n      jump\t// in\n    tag_55:\n      mload(0x40)\n      dup1\n      swap2\n      sub\n      swap1\n      return\n        /* \"contracts/ergasia.sol\":1932:1970  mapping(address => bool) public voters */\n    tag_11:\n      tag_57\n      0x04\n      dup1\n      calldatasize\n      sub\n      dup2\n      add\n      swap1\n      tag_58\n      swap2\n      swap1\n      tag_47\n      jump\t// in\n    tag_58:\n      tag_59\n      jump\t// in\n    tag_57:\n      mload(0x40)\n      tag_60\n      swap2\n      swap1\n      tag_35\n      jump\t// in\n    tag_60:\n      mload(0x40)\n      dup1\n      swap2\n      sub\n      swap1\n      return\n        /* \"contracts/ergasia.sol\":7278:7404  function endVote() public inState(State.Voting) Owner { ... */\n    tag_12:\n      tag_61\n      tag_62\n      jump\t// in\n    tag_61:\n      stop\n        /* \"contracts/ergasia.sol\":4910:5830  function addVoter(address _voterAddress, uint _pollingStationID) public inState(State.Created) Owner {... */\n    tag_13:\n      tag_63\n      0x04\n      dup1\n      calldatasize\n      sub\n      dup2\n      add\n      swap1\n      tag_64\n      swap2\n      swap1\n      tag_65\n      jump\t// in\n    tag_64:\n      tag_66\n      jump\t// in\n    tag_63:\n      stop\n        /* \"contracts/ergasia.sol\":2023:2041  State public state */\n    tag_14:\n      tag_67\n      tag_68\n      jump\t// in\n    tag_67:\n      mload(0x40)\n      tag_69\n      swap2\n      swap1\n      tag_70\n      jump\t// in\n    tag_69:\n      mload(0x40)\n      dup1\n      swap2\n      sub\n      swap1\n      return\n        /* \"contracts/ergasia.sol\":7410:7602  function getResultsPerStation1(uint _pStationID, uint _candidateID) public view returns (Candidate memory) {... */\n    tag_15:\n      tag_71\n      0x04\n      dup1\n      calldatasize\n      sub\n      dup2\n      add\n      swap1\n      tag_72\n      swap2\n      swap1\n      tag_28\n      jump\t// in\n    tag_72:\n      tag_73\n      jump\t// in\n    tag_71:\n      mload(0x40)\n      tag_74\n      swap2\n      swap1\n      tag_75\n      jump\t// in\n    tag_74:\n      mload(0x40)\n      dup1\n      swap2\n      sub\n      swap1\n      return\n        /* \"contracts/ergasia.sol\":1344:1375  uint public pollingStationCount */\n    tag_16:\n      tag_76\n      tag_77\n      jump\t// in\n    tag_76:\n      mload(0x40)\n      tag_78\n      swap2\n      swap1\n      tag_25\n      jump\t// in\n    tag_78:\n      mload(0x40)\n      dup1\n      swap2\n      sub\n      swap1\n      return\n        /* \"contracts/ergasia.sol\":1539:1562  uint public finalResult */\n    tag_17:\n      tag_79\n      tag_80\n      jump\t// in\n    tag_79:\n      mload(0x40)\n      tag_81\n      swap2\n      swap1\n      tag_25\n      jump\t// in\n    tag_81:\n      mload(0x40)\n      dup1\n      swap2\n      sub\n      swap1\n      return\n        /* \"contracts/ergasia.sol\":1794:1848  mapping(uint => PollingStation) public pollingStations */\n    tag_18:\n      tag_82\n      0x04\n      dup1\n      calldatasize\n      sub\n      dup2\n      add\n      swap1\n      tag_83\n      swap2\n      swap1\n      tag_41\n      jump\t// in\n    tag_83:\n      tag_84\n      jump\t// in\n    tag_82:\n      mload(0x40)\n      tag_85\n      swap5\n      swap4\n      swap3\n      swap2\n      swap1\n      tag_86\n      jump\t// in\n    tag_85:\n      mload(0x40)\n      dup1\n      swap2\n      sub\n      swap1\n      return\n        /* \"contracts/ergasia.sol\":1418:1451  uint public totalRegisteredVoters */\n    tag_23:\n      sload(0x03)\n      dup2\n      jump\t// out\n        /* \"contracts/ergasia.sol\":7608:7805  function getResultsPerCandidatePerStation(uint _pStationID, uint _candidateID) public view returns (uint) {... */\n    tag_29:\n        /* \"contracts/ergasia.sol\":7708:7712  uint */\n      0x00\n        /* \"contracts/ergasia.sol\":7731:7746  pollingStations */\n      0x08\n        /* \"contracts/ergasia.sol\":7731:7759  pollingStations[_pStationID] */\n      0x00\n        /* \"contracts/ergasia.sol\":7747:7758  _pStationID */\n      dup5\n        /* \"contracts/ergasia.sol\":7731:7759  pollingStations[_pStationID] */\n      dup2\n      mstore\n      0x20\n      add\n      swap1\n      dup2\n      mstore\n      0x20\n      add\n      0x00\n      keccak256\n        /* \"contracts/ergasia.sol\":7731:7778  pollingStations[_pStationID].scoresPerCandidate */\n      0x04\n      add\n        /* \"contracts/ergasia.sol\":7731:7792  pollingStations[_pStationID].scoresPerCandidate[_candidateID] */\n      0x00\n        /* \"contracts/ergasia.sol\":7779:7791  _candidateID */\n      dup4\n        /* \"contracts/ergasia.sol\":7731:7792  pollingStations[_pStationID].scoresPerCandidate[_candidateID] */\n      dup2\n      mstore\n      0x20\n      add\n      swap1\n      dup2\n      mstore\n      0x20\n      add\n      0x00\n      keccak256\n        /* \"contracts/ergasia.sol\":7731:7798  pollingStations[_pStationID].scoresPerCandidate[_candidateID].votes */\n      0x02\n      add\n      sload\n        /* \"contracts/ergasia.sol\":7724:7798  return pollingStations[_pStationID].scoresPerCandidate[_candidateID].votes */\n      swap1\n      pop\n        /* \"contracts/ergasia.sol\":7608:7805  function getResultsPerCandidatePerStation(uint _pStationID, uint _candidateID) public view returns (uint) {... */\n      swap3\n      swap2\n      pop\n      pop\n      jump\t// out\n        /* \"contracts/ergasia.sol\":6464:7272  function castVote(uint _choice, uint _pollingStationID) public inState(State.Voting) returns (bool voted) {... */\n    tag_33:\n        /* \"contracts/ergasia.sol\":6558:6568  bool voted */\n      0x00\n        /* \"contracts/ergasia.sol\":6535:6547  State.Voting */\n      0x01\n        /* \"contracts/ergasia.sol\":2193:2199  _state */\n      dup1\n        /* \"contracts/ergasia.sol\":2184:2199  state == _state */\n      0x02\n      dup2\n      gt\n      iszero\n      tag_89\n      jumpi\n      tag_90\n      tag_91\n      jump\t// in\n    tag_90:\n    tag_89:\n        /* \"contracts/ergasia.sol\":2184:2189  state */\n      0x0b\n      0x00\n      swap1\n      sload\n      swap1\n      0x0100\n      exp\n      swap1\n      div\n      0xff\n      and\n        /* \"contracts/ergasia.sol\":2184:2199  state == _state */\n      0x02\n      dup2\n      gt\n      iszero\n      tag_92\n      jumpi\n      tag_93\n      tag_91\n      jump\t// in\n    tag_93:\n    tag_92:\n      eq\n        /* \"contracts/ergasia.sol\":2176:2200  require(state == _state) */\n      tag_94\n      jumpi\n      0x00\n      dup1\n      revert\n    tag_94:\n        /* \"contracts/ergasia.sol\":6581:6591  bool found */\n      0x00\n        /* \"contracts/ergasia.sol\":6614:6627  voterRegistry */\n      0x09\n        /* \"contracts/ergasia.sol\":6614:6639  voterRegistry[msg.sender] */\n      0x00\n        /* \"contracts/ergasia.sol\":6628:6638  msg.sender */\n      caller\n        /* \"contracts/ergasia.sol\":6614:6639  voterRegistry[msg.sender] */\n      0xffffffffffffffffffffffffffffffffffffffff\n      and\n      0xffffffffffffffffffffffffffffffffffffffff\n      and\n      dup2\n      mstore\n      0x20\n      add\n      swap1\n      dup2\n      mstore\n      0x20\n      add\n      0x00\n      keccak256\n        /* \"contracts/ergasia.sol\":6614:6650  voterRegistry[msg.sender].isEnrolled */\n      0x00\n      add\n      0x00\n      swap1\n      sload\n      swap1\n      0x0100\n      exp\n      swap1\n      div\n      0xff\n      and\n        /* \"contracts/ergasia.sol\":6614:6689  voterRegistry[msg.sender].isEnrolled && !voterRegistry[msg.sender].hasVoted */\n      dup1\n      iszero\n      tag_96\n      jumpi\n      pop\n        /* \"contracts/ergasia.sol\":6655:6668  voterRegistry */\n      0x09\n        /* \"contracts/ergasia.sol\":6655:6680  voterRegistry[msg.sender] */\n      0x00\n        /* \"contracts/ergasia.sol\":6669:6679  msg.sender */\n      caller\n        /* \"contracts/ergasia.sol\":6655:6680  voterRegistry[msg.sender] */\n      0xffffffffffffffffffffffffffffffffffffffff\n      and\n      0xffffffffffffffffffffffffffffffffffffffff\n      and\n      dup2\n      mstore\n      0x20\n      add\n      swap1\n      dup2\n      mstore\n      0x20\n      add\n      0x00\n      keccak256\n        /* \"contracts/ergasia.sol\":6655:6689  voterRegistry[msg.sender].hasVoted */\n      0x00\n      add\n      0x01\n      swap1\n      sload\n      swap1\n      0x0100\n      exp\n      swap1\n      div\n      0xff\n      and\n        /* \"contracts/ergasia.sol\":6654:6689  !voterRegistry[msg.sender].hasVoted */\n      iszero\n        /* \"contracts/ergasia.sol\":6614:6689  voterRegistry[msg.sender].isEnrolled && !voterRegistry[msg.sender].hasVoted */\n    tag_96:\n        /* \"contracts/ergasia.sol\":6610:7244  if (voterRegistry[msg.sender].isEnrolled && !voterRegistry[msg.sender].hasVoted) {... */\n      iszero\n      tag_97\n      jumpi\n        /* \"contracts/ergasia.sol\":6741:6748  _choice */\n      dup5\n        /* \"contracts/ergasia.sol\":6706:6719  voterRegistry */\n      0x09\n        /* \"contracts/ergasia.sol\":6706:6731  voterRegistry[msg.sender] */\n      0x00\n        /* \"contracts/ergasia.sol\":6720:6730  msg.sender */\n      caller\n        /* \"contracts/ergasia.sol\":6706:6731  voterRegistry[msg.sender] */\n      0xffffffffffffffffffffffffffffffffffffffff\n      and\n      0xffffffffffffffffffffffffffffffffffffffff\n      and\n      dup2\n      mstore\n      0x20\n      add\n      swap1\n      dup2\n      mstore\n      0x20\n      add\n      0x00\n      keccak256\n        /* \"contracts/ergasia.sol\":6706:6738  voterRegistry[msg.sender].choice */\n      0x01\n      add\n        /* \"contracts/ergasia.sol\":6706:6748  voterRegistry[msg.sender].choice = _choice */\n      dup2\n      swap1\n      sstore\n      pop\n        /* \"contracts/ergasia.sol\":6812:6829  _pollingStationID */\n      dup4\n        /* \"contracts/ergasia.sol\":6762:6775  voterRegistry */\n      0x09\n        /* \"contracts/ergasia.sol\":6762:6787  voterRegistry[msg.sender] */\n      0x00\n        /* \"contracts/ergasia.sol\":6776:6786  msg.sender */\n      caller\n        /* \"contracts/ergasia.sol\":6762:6787  voterRegistry[msg.sender] */\n      0xffffffffffffffffffffffffffffffffffffffff\n      and\n      0xffffffffffffffffffffffffffffffffffffffff\n      and\n      dup2\n      mstore\n      0x20\n      add\n      swap1\n      dup2\n      mstore\n      0x20\n      add\n      0x00\n      keccak256\n        /* \"contracts/ergasia.sol\":6762:6809  voterRegistry[msg.sender].votedPollingStationID */\n      0x03\n      add\n        /* \"contracts/ergasia.sol\":6762:6829  voterRegistry[msg.sender].votedPollingStationID = _pollingStationID */\n      dup2\n      swap1\n      sstore\n      pop\n        /* \"contracts/ergasia.sol\":6880:6884  true */\n      0x01\n        /* \"contracts/ergasia.sol\":6843:6856  voterRegistry */\n      0x09\n        /* \"contracts/ergasia.sol\":6843:6868  voterRegistry[msg.sender] */\n      0x00\n        /* \"contracts/ergasia.sol\":6857:6867  msg.sender */\n      caller\n        /* \"contracts/ergasia.sol\":6843:6868  voterRegistry[msg.sender] */\n      0xffffffffffffffffffffffffffffffffffffffff\n      and\n      0xffffffffffffffffffffffffffffffffffffffff\n      and\n      dup2\n      mstore\n      0x20\n      add\n      swap1\n      dup2\n      mstore\n      0x20\n      add\n      0x00\n      keccak256\n        /* \"contracts/ergasia.sol\":6843:6877  voterRegistry[msg.sender].hasVoted */\n      0x00\n      add\n      0x01\n        /* \"contracts/ergasia.sol\":6843:6884  voterRegistry[msg.sender].hasVoted = true */\n      0x0100\n      exp\n      dup2\n      sload\n      dup2\n      0xff\n      mul\n      not\n      and\n      swap1\n      dup4\n      iszero\n      iszero\n      mul\n      or\n      swap1\n      sstore\n      pop\n        /* \"contracts/ergasia.sol\":6899:6914  pollingStations */\n      0x08\n        /* \"contracts/ergasia.sol\":6899:6933  pollingStations[_pollingStationID] */\n      0x00\n        /* \"contracts/ergasia.sol\":6915:6932  _pollingStationID */\n      dup6\n        /* \"contracts/ergasia.sol\":6899:6933  pollingStations[_pollingStationID] */\n      dup2\n      mstore\n      0x20\n      add\n      swap1\n      dup2\n      mstore\n      0x20\n      add\n      0x00\n      keccak256\n        /* \"contracts/ergasia.sol\":6899:6945  pollingStations[_pollingStationID].votesCasted */\n      0x03\n      add\n      0x00\n        /* \"contracts/ergasia.sol\":6899:6947  pollingStations[_pollingStationID].votesCasted++ */\n      dup2\n      sload\n      dup1\n      swap3\n      swap2\n      swap1\n      tag_98\n      swap1\n      tag_99\n      jump\t// in\n    tag_98:\n      swap2\n      swap1\n      pop\n      sstore\n      pop\n        /* \"contracts/ergasia.sol\":6962:6972  candidates */\n      0x06\n        /* \"contracts/ergasia.sol\":6962:6981  candidates[_choice] */\n      0x00\n        /* \"contracts/ergasia.sol\":6973:6980  _choice */\n      dup7\n        /* \"contracts/ergasia.sol\":6962:6981  candidates[_choice] */\n      dup2\n      mstore\n      0x20\n      add\n      swap1\n      dup2\n      mstore\n      0x20\n      add\n      0x00\n      keccak256\n        /* \"contracts/ergasia.sol\":6962:6987  candidates[_choice].votes */\n      0x02\n      add\n      0x00\n        /* \"contracts/ergasia.sol\":6962:6989  candidates[_choice].votes++ */\n      dup2\n      sload\n      dup1\n      swap3\n      swap2\n      swap1\n      tag_100\n      swap1\n      tag_99\n      jump\t// in\n    tag_100:\n      swap2\n      swap1\n      pop\n      sstore\n      pop\n        /* \"contracts/ergasia.sol\":7004:7015  countResult */\n      0x04\n      0x00\n        /* \"contracts/ergasia.sol\":7004:7017  countResult++ */\n      dup2\n      sload\n      dup1\n      swap3\n      swap2\n      swap1\n      tag_101\n      swap1\n      tag_99\n      jump\t// in\n    tag_101:\n      swap2\n      swap1\n      pop\n      sstore\n      pop\n        /* \"contracts/ergasia.sol\":7039:7043  true */\n      0x01\n        /* \"contracts/ergasia.sol\":7031:7043  found = true */\n      swap1\n      pop\n        /* \"contracts/ergasia.sol\":7078:7083  found */\n      dup1\n        /* \"contracts/ergasia.sol\":7057:7063  voters */\n      0x0a\n        /* \"contracts/ergasia.sol\":7057:7075  voters[msg.sender] */\n      0x00\n        /* \"contracts/ergasia.sol\":7064:7074  msg.sender */\n      caller\n        /* \"contracts/ergasia.sol\":7057:7075  voters[msg.sender] */\n      0xffffffffffffffffffffffffffffffffffffffff\n      and\n      0xffffffffffffffffffffffffffffffffffffffff\n      and\n      dup2\n      mstore\n      0x20\n      add\n      swap1\n      dup2\n      mstore\n      0x20\n      add\n      0x00\n      keccak256\n      0x00\n        /* \"contracts/ergasia.sol\":7057:7083  voters[msg.sender] = found */\n      0x0100\n      exp\n      dup2\n      sload\n      dup2\n      0xff\n      mul\n      not\n      and\n      swap1\n      dup4\n      iszero\n      iszero\n      mul\n      or\n      swap1\n      sstore\n      pop\n        /* \"contracts/ergasia.sol\":7098:7113  pollingStations */\n      0x08\n        /* \"contracts/ergasia.sol\":7098:7132  pollingStations[_pollingStationID] */\n      0x00\n        /* \"contracts/ergasia.sol\":7114:7131  _pollingStationID */\n      dup6\n        /* \"contracts/ergasia.sol\":7098:7132  pollingStations[_pollingStationID] */\n      dup2\n      mstore\n      0x20\n      add\n      swap1\n      dup2\n      mstore\n      0x20\n      add\n      0x00\n      keccak256\n        /* \"contracts/ergasia.sol\":7098:7151  pollingStations[_pollingStationID].scoresPerCandidate */\n      0x04\n      add\n        /* \"contracts/ergasia.sol\":7098:7160  pollingStations[_pollingStationID].scoresPerCandidate[_choice] */\n      0x00\n        /* \"contracts/ergasia.sol\":7152:7159  _choice */\n      dup7\n        /* \"contracts/ergasia.sol\":7098:7160  pollingStations[_pollingStationID].scoresPerCandidate[_choice] */\n      dup2\n      mstore\n      0x20\n      add\n      swap1\n      dup2\n      mstore\n      0x20\n      add\n      0x00\n      keccak256\n        /* \"contracts/ergasia.sol\":7098:7166  pollingStations[_pollingStationID].scoresPerCandidate[_choice].votes */\n      0x02\n      add\n      0x00\n        /* \"contracts/ergasia.sol\":7098:7168  pollingStations[_pollingStationID].scoresPerCandidate[_choice].votes++ */\n      dup2\n      sload\n      dup1\n      swap3\n      swap2\n      swap1\n      tag_102\n      swap1\n      tag_99\n      jump\t// in\n    tag_102:\n      swap2\n      swap1\n      pop\n      sstore\n      pop\n        /* \"contracts/ergasia.sol\":7188:7233  VoteCasted(found, _choice, _pollingStationID) */\n      0x29a25b3d0b6ff7e5de2a60a2e8e76d1bdaf4894ec18c598cc1687213f442c5cb\n        /* \"contracts/ergasia.sol\":7199:7204  found */\n      dup2\n        /* \"contracts/ergasia.sol\":7206:7213  _choice */\n      dup7\n        /* \"contracts/ergasia.sol\":7215:7232  _pollingStationID */\n      dup7\n        /* \"contracts/ergasia.sol\":7188:7233  VoteCasted(found, _choice, _pollingStationID) */\n      mload(0x40)\n      tag_103\n      swap4\n      swap3\n      swap2\n      swap1\n      tag_104\n      jump\t// in\n    tag_103:\n      mload(0x40)\n      dup1\n      swap2\n      sub\n      swap1\n      log1\n        /* \"contracts/ergasia.sol\":6610:7244  if (voterRegistry[msg.sender].isEnrolled && !voterRegistry[msg.sender].hasVoted) {... */\n    tag_97:\n        /* \"contracts/ergasia.sol\":7260:7265  found */\n      dup1\n        /* \"contracts/ergasia.sol\":7253:7265  return found */\n      swap3\n      pop\n      pop\n        /* \"contracts/ergasia.sol\":6464:7272  function castVote(uint _choice, uint _pollingStationID) public inState(State.Voting) returns (bool voted) {... */\n      pop\n      swap3\n      swap2\n      pop\n      pop\n      jump\t// out\n        /* \"contracts/ergasia.sol\":1276:1303  uint public candidatesCount */\n    tag_37:\n      sload(0x01)\n      dup2\n      jump\t// out\n        /* \"contracts/ergasia.sol\":1621:1665  mapping(uint => Candidate) public candidates */\n    tag_42:\n      mstore(0x20, 0x06)\n      dup1\n      0x00\n      mstore\n      keccak256(0x00, 0x40)\n      0x00\n      swap2\n      pop\n      swap1\n      pop\n      dup1\n      0x00\n      add\n      sload\n      swap1\n      dup1\n      0x01\n      add\n      dup1\n      sload\n      tag_105\n      swap1\n      tag_106\n      jump\t// in\n    tag_105:\n      dup1\n      0x1f\n      add\n      0x20\n      dup1\n      swap2\n      div\n      mul\n      0x20\n      add\n      mload(0x40)\n      swap1\n      dup2\n      add\n      0x40\n      mstore\n      dup1\n      swap3\n      swap2\n      swap1\n      dup2\n      dup2\n      mstore\n      0x20\n      add\n      dup3\n      dup1\n      sload\n      tag_107\n      swap1\n      tag_106\n      jump\t// in\n    tag_107:\n      dup1\n      iszero\n      tag_108\n      jumpi\n      dup1\n      0x1f\n      lt\n      tag_109\n      jumpi\n      0x0100\n      dup1\n      dup4\n      sload\n      div\n      mul\n      dup4\n      mstore\n      swap2\n      0x20\n      add\n      swap2\n      jump(tag_108)\n    tag_109:\n      dup3\n      add\n      swap2\n      swap1\n      0x00\n      mstore\n      keccak256(0x00, 0x20)\n      swap1\n    tag_110:\n      dup2\n      sload\n      dup2\n      mstore\n      swap1\n      0x01\n      add\n      swap1\n      0x20\n      add\n      dup1\n      dup4\n      gt\n      tag_110\n      jumpi\n      dup3\n      swap1\n      sub\n      0x1f\n      and\n      dup3\n      add\n      swap2\n    tag_108:\n      pop\n      pop\n      pop\n      pop\n      pop\n      swap1\n      dup1\n      0x02\n      add\n      sload\n      swap1\n      pop\n      dup4\n      jump\t// out\n        /* \"contracts/ergasia.sol\":1880:1926  mapping(address => Voter) public voterRegistry */\n    tag_48:\n      mstore(0x20, 0x09)\n      dup1\n      0x00\n      mstore\n      keccak256(0x00, 0x40)\n      0x00\n      swap2\n      pop\n      swap1\n      pop\n      dup1\n      0x00\n      add\n      0x00\n      swap1\n      sload\n      swap1\n      0x0100\n      exp\n      swap1\n      div\n      0xff\n      and\n      swap1\n      dup1\n      0x00\n      add\n      0x01\n      swap1\n      sload\n      swap1\n      0x0100\n      exp\n      swap1\n      div\n      0xff\n      and\n      swap1\n      dup1\n      0x01\n      add\n      sload\n      swap1\n      dup1\n      0x02\n      add\n      sload\n      swap1\n      dup1\n      0x03\n      add\n      sload\n      swap1\n      pop\n      dup6\n      jump\t// out\n        /* \"contracts/ergasia.sol\":6364:6458  function startVote() public inState(State.Created) Owner {... */\n    tag_52:\n        /* \"contracts/ergasia.sol\":6400:6413  State.Created */\n      0x00\n        /* \"contracts/ergasia.sol\":2193:2199  _state */\n      dup1\n        /* \"contracts/ergasia.sol\":2184:2199  state == _state */\n      0x02\n      dup2\n      gt\n      iszero\n      tag_112\n      jumpi\n      tag_113\n      tag_91\n      jump\t// in\n    tag_113:\n    tag_112:\n        /* \"contracts/ergasia.sol\":2184:2189  state */\n      0x0b\n      0x00\n      swap1\n      sload\n      swap1\n      0x0100\n      exp\n      swap1\n      div\n      0xff\n      and\n        /* \"contracts/ergasia.sol\":2184:2199  state == _state */\n      0x02\n      dup2\n      gt\n      iszero\n      tag_114\n      jumpi\n      tag_115\n      tag_91\n      jump\t// in\n    tag_115:\n    tag_114:\n      eq\n        /* \"contracts/ergasia.sol\":2176:2200  require(state == _state) */\n      tag_116\n      jumpi\n      0x00\n      dup1\n      revert\n    tag_116:\n        /* \"contracts/ergasia.sol\":2097:2110  electionOwner */\n      0x00\n      dup1\n      sload\n      swap1\n      0x0100\n      exp\n      swap1\n      div\n      0xffffffffffffffffffffffffffffffffffffffff\n      and\n        /* \"contracts/ergasia.sol\":2083:2110  msg.sender == electionOwner */\n      0xffffffffffffffffffffffffffffffffffffffff\n      and\n        /* \"contracts/ergasia.sol\":2083:2093  msg.sender */\n      caller\n        /* \"contracts/ergasia.sol\":2083:2110  msg.sender == electionOwner */\n      0xffffffffffffffffffffffffffffffffffffffff\n      and\n      eq\n        /* \"contracts/ergasia.sol\":2075:2111  require(msg.sender == electionOwner) */\n      tag_118\n      jumpi\n      0x00\n      dup1\n      revert\n    tag_118:\n        /* \"contracts/ergasia.sol\":6439:6451  State.Voting */\n      0x01\n        /* \"contracts/ergasia.sol\":6431:6436  state */\n      0x0b\n      0x00\n        /* \"contracts/ergasia.sol\":6431:6451  state = State.Voting */\n      0x0100\n      exp\n      dup2\n      sload\n      dup2\n      0xff\n      mul\n      not\n      and\n      swap1\n      dup4\n      0x02\n      dup2\n      gt\n      iszero\n      tag_120\n      jumpi\n      tag_121\n      tag_91\n      jump\t// in\n    tag_121:\n    tag_120:\n      mul\n      or\n      swap1\n      sstore\n      pop\n        /* \"contracts/ergasia.sol\":6364:6458  function startVote() public inState(State.Created) Owner {... */\n      pop\n      jump\t// out\n        /* \"contracts/ergasia.sol\":1242:1270  address public electionOwner */\n    tag_54:\n      0x00\n      dup1\n      sload\n      swap1\n      0x0100\n      exp\n      swap1\n      div\n      0xffffffffffffffffffffffffffffffffffffffff\n      and\n      dup2\n      jump\t// out\n        /* \"contracts/ergasia.sol\":1932:1970  mapping(address => bool) public voters */\n    tag_59:\n      mstore(0x20, 0x0a)\n      dup1\n      0x00\n      mstore\n      keccak256(0x00, 0x40)\n      0x00\n      swap2\n      pop\n      sload\n      swap1\n      0x0100\n      exp\n      swap1\n      div\n      0xff\n      and\n      dup2\n      jump\t// out\n        /* \"contracts/ergasia.sol\":7278:7404  function endVote() public inState(State.Voting) Owner { ... */\n    tag_62:\n        /* \"contracts/ergasia.sol\":7312:7324  State.Voting */\n      0x01\n        /* \"contracts/ergasia.sol\":2193:2199  _state */\n      dup1\n        /* \"contracts/ergasia.sol\":2184:2199  state == _state */\n      0x02\n      dup2\n      gt\n      iszero\n      tag_123\n      jumpi\n      tag_124\n      tag_91\n      jump\t// in\n    tag_124:\n    tag_123:\n        /* \"contracts/ergasia.sol\":2184:2189  state */\n      0x0b\n      0x00\n      swap1\n      sload\n      swap1\n      0x0100\n      exp\n      swap1\n      div\n      0xff\n      and\n        /* \"contracts/ergasia.sol\":2184:2199  state == _state */\n      0x02\n      dup2\n      gt\n      iszero\n      tag_125\n      jumpi\n      tag_126\n      tag_91\n      jump\t// in\n    tag_126:\n    tag_125:\n      eq\n        /* \"contracts/ergasia.sol\":2176:2200  require(state == _state) */\n      tag_127\n      jumpi\n      0x00\n      dup1\n      revert\n    tag_127:\n        /* \"contracts/ergasia.sol\":2097:2110  electionOwner */\n      0x00\n      dup1\n      sload\n      swap1\n      0x0100\n      exp\n      swap1\n      div\n      0xffffffffffffffffffffffffffffffffffffffff\n      and\n        /* \"contracts/ergasia.sol\":2083:2110  msg.sender == electionOwner */\n      0xffffffffffffffffffffffffffffffffffffffff\n      and\n        /* \"contracts/ergasia.sol\":2083:2093  msg.sender */\n      caller\n        /* \"contracts/ergasia.sol\":2083:2110  msg.sender == electionOwner */\n      0xffffffffffffffffffffffffffffffffffffffff\n      and\n      eq\n        /* \"contracts/ergasia.sol\":2075:2111  require(msg.sender == electionOwner) */\n      tag_129\n      jumpi\n      0x00\n      dup1\n      revert\n    tag_129:\n        /* \"contracts/ergasia.sol\":7351:7362  State.Ended */\n      0x02\n        /* \"contracts/ergasia.sol\":7343:7348  state */\n      0x0b\n      0x00\n        /* \"contracts/ergasia.sol\":7343:7362  state = State.Ended */\n      0x0100\n      exp\n      dup2\n      sload\n      dup2\n      0xff\n      mul\n      not\n      and\n      swap1\n      dup4\n      0x02\n      dup2\n      gt\n      iszero\n      tag_131\n      jumpi\n      tag_132\n      tag_91\n      jump\t// in\n    tag_132:\n    tag_131:\n      mul\n      or\n      swap1\n      sstore\n      pop\n        /* \"contracts/ergasia.sol\":7386:7397  countResult */\n      sload(0x04)\n        /* \"contracts/ergasia.sol\":7372:7383  finalResult */\n      0x05\n        /* \"contracts/ergasia.sol\":7372:7397  finalResult = countResult */\n      dup2\n      swap1\n      sstore\n      pop\n        /* \"contracts/ergasia.sol\":7278:7404  function endVote() public inState(State.Voting) Owner { ... */\n      pop\n      jump\t// out\n        /* \"contracts/ergasia.sol\":4910:5830  function addVoter(address _voterAddress, uint _pollingStationID) public inState(State.Created) Owner {... */\n    tag_66:\n        /* \"contracts/ergasia.sol\":4990:5003  State.Created */\n      0x00\n        /* \"contracts/ergasia.sol\":2193:2199  _state */\n      dup1\n        /* \"contracts/ergasia.sol\":2184:2199  state == _state */\n      0x02\n      dup2\n      gt\n      iszero\n      tag_134\n      jumpi\n      tag_135\n      tag_91\n      jump\t// in\n    tag_135:\n    tag_134:\n        /* \"contracts/ergasia.sol\":2184:2189  state */\n      0x0b\n      0x00\n      swap1\n      sload\n      swap1\n      0x0100\n      exp\n      swap1\n      div\n      0xff\n      and\n        /* \"contracts/ergasia.sol\":2184:2199  state == _state */\n      0x02\n      dup2\n      gt\n      iszero\n      tag_136\n      jumpi\n      tag_137\n      tag_91\n      jump\t// in\n    tag_137:\n    tag_136:\n      eq\n        /* \"contracts/ergasia.sol\":2176:2200  require(state == _state) */\n      tag_138\n      jumpi\n      0x00\n      dup1\n      revert\n    tag_138:\n        /* \"contracts/ergasia.sol\":2097:2110  electionOwner */\n      0x00\n      dup1\n      sload\n      swap1\n      0x0100\n      exp\n      swap1\n      div\n      0xffffffffffffffffffffffffffffffffffffffff\n      and\n        /* \"contracts/ergasia.sol\":2083:2110  msg.sender == electionOwner */\n      0xffffffffffffffffffffffffffffffffffffffff\n      and\n        /* \"contracts/ergasia.sol\":2083:2093  msg.sender */\n      caller\n        /* \"contracts/ergasia.sol\":2083:2110  msg.sender == electionOwner */\n      0xffffffffffffffffffffffffffffffffffffffff\n      and\n      eq\n        /* \"contracts/ergasia.sol\":2075:2111  require(msg.sender == electionOwner) */\n      tag_140\n      jumpi\n      0x00\n      dup1\n      revert\n    tag_140:\n        /* \"contracts/ergasia.sol\":5129:5134  false */\n      0x00\n        /* \"contracts/ergasia.sol\":5086:5134  voterRegistry[_voterAddress].isEnrolled == false */\n      iszero\n      iszero\n        /* \"contracts/ergasia.sol\":5086:5099  voterRegistry */\n      0x09\n        /* \"contracts/ergasia.sol\":5086:5114  voterRegistry[_voterAddress] */\n      0x00\n        /* \"contracts/ergasia.sol\":5100:5113  _voterAddress */\n      dup6\n        /* \"contracts/ergasia.sol\":5086:5114  voterRegistry[_voterAddress] */\n      0xffffffffffffffffffffffffffffffffffffffff\n      and\n      0xffffffffffffffffffffffffffffffffffffffff\n      and\n      dup2\n      mstore\n      0x20\n      add\n      swap1\n      dup2\n      mstore\n      0x20\n      add\n      0x00\n      keccak256\n        /* \"contracts/ergasia.sol\":5086:5125  voterRegistry[_voterAddress].isEnrolled */\n      0x00\n      add\n      0x00\n      swap1\n      sload\n      swap1\n      0x0100\n      exp\n      swap1\n      div\n      0xff\n      and\n        /* \"contracts/ergasia.sol\":5086:5134  voterRegistry[_voterAddress].isEnrolled == false */\n      iszero\n      iszero\n      eq\n        /* \"contracts/ergasia.sol\":5078:5167  require(voterRegistry[_voterAddress].isEnrolled == false, \"Voter is already registered.\") */\n      tag_142\n      jumpi\n      mload(0x40)\n      0x08c379a000000000000000000000000000000000000000000000000000000000\n      dup2\n      mstore\n      0x04\n      add\n      tag_143\n      swap1\n      tag_144\n      jump\t// in\n    tag_143:\n      mload(0x40)\n      dup1\n      swap2\n      sub\n      swap1\n      revert\n    tag_142:\n        /* \"contracts/ergasia.sol\":5406:5407  1 */\n      0x01\n        /* \"contracts/ergasia.sol\":5386:5403  _pollingStationID */\n      dup3\n        /* \"contracts/ergasia.sol\":5386:5407  _pollingStationID >=1 */\n      lt\n      iszero\n        /* \"contracts/ergasia.sol\":5386:5451  _pollingStationID >=1 && _pollingStationID <= pollingStationCount */\n      dup1\n      iszero\n      tag_145\n      jumpi\n      pop\n        /* \"contracts/ergasia.sol\":5432:5451  pollingStationCount */\n      sload(0x02)\n        /* \"contracts/ergasia.sol\":5411:5428  _pollingStationID */\n      dup3\n        /* \"contracts/ergasia.sol\":5411:5451  _pollingStationID <= pollingStationCount */\n      gt\n      iszero\n        /* \"contracts/ergasia.sol\":5386:5451  _pollingStationID >=1 && _pollingStationID <= pollingStationCount */\n    tag_145:\n        /* \"contracts/ergasia.sol\":5378:5498  require(_pollingStationID >=1 && _pollingStationID <= pollingStationCount, \"Please provide a valid polling station ID.\") */\n      tag_146\n      jumpi\n      mload(0x40)\n      0x08c379a000000000000000000000000000000000000000000000000000000000\n      dup2\n      mstore\n      0x04\n      add\n      tag_147\n      swap1\n      tag_148\n      jump\t// in\n    tag_147:\n      mload(0x40)\n      dup1\n      swap2\n      sub\n      swap1\n      revert\n    tag_146:\n        /* \"contracts/ergasia.sol\":5509:5523  Voter memory v */\n      tag_149\n      tag_150\n      jump\t// in\n    tag_149:\n        /* \"contracts/ergasia.sol\":5548:5552  true */\n      0x01\n        /* \"contracts/ergasia.sol\":5533:5534  v */\n      dup2\n        /* \"contracts/ergasia.sol\":5533:5545  v.isEnrolled */\n      0x00\n      add\n        /* \"contracts/ergasia.sol\":5533:5552  v.isEnrolled = true */\n      swap1\n      iszero\n      iszero\n      swap1\n      dup2\n      iszero\n      iszero\n      dup2\n      mstore\n      pop\n      pop\n        /* \"contracts/ergasia.sol\":5575:5580  false */\n      0x00\n        /* \"contracts/ergasia.sol\":5562:5563  v */\n      dup2\n        /* \"contracts/ergasia.sol\":5562:5572  v.hasVoted */\n      0x20\n      add\n        /* \"contracts/ergasia.sol\":5562:5580  v.hasVoted = false */\n      swap1\n      iszero\n      iszero\n      swap1\n      dup2\n      iszero\n      iszero\n      dup2\n      mstore\n      pop\n      pop\n        /* \"contracts/ergasia.sol\":5601:5602  0 */\n      0x00\n        /* \"contracts/ergasia.sol\":5590:5591  v */\n      dup2\n        /* \"contracts/ergasia.sol\":5590:5598  v.choice */\n      0x40\n      add\n        /* \"contracts/ergasia.sol\":5590:5602  v.choice = 0 */\n      dup2\n      dup2\n      mstore\n      pop\n      pop\n        /* \"contracts/ergasia.sol\":5641:5658  _pollingStationID */\n      dup3\n        /* \"contracts/ergasia.sol\":5612:5613  v */\n      dup2\n        /* \"contracts/ergasia.sol\":5612:5638  v.enrolledPollingStationID */\n      0x60\n      add\n        /* \"contracts/ergasia.sol\":5612:5658  v.enrolledPollingStationID = _pollingStationID */\n      dup2\n      dup2\n      mstore\n      pop\n      pop\n        /* \"contracts/ergasia.sol\":5694:5695  0 */\n      0x00\n        /* \"contracts/ergasia.sol\":5668:5669  v */\n      dup2\n        /* \"contracts/ergasia.sol\":5668:5691  v.votedPollingStationID */\n      0x80\n      add\n        /* \"contracts/ergasia.sol\":5668:5695  v.votedPollingStationID = 0 */\n      dup2\n      dup2\n      mstore\n      pop\n      pop\n        /* \"contracts/ergasia.sol\":5736:5737  v */\n      dup1\n        /* \"contracts/ergasia.sol\":5705:5718  voterRegistry */\n      0x09\n        /* \"contracts/ergasia.sol\":5705:5733  voterRegistry[_voterAddress] */\n      0x00\n        /* \"contracts/ergasia.sol\":5719:5732  _voterAddress */\n      dup7\n        /* \"contracts/ergasia.sol\":5705:5733  voterRegistry[_voterAddress] */\n      0xffffffffffffffffffffffffffffffffffffffff\n      and\n      0xffffffffffffffffffffffffffffffffffffffff\n      and\n      dup2\n      mstore\n      0x20\n      add\n      swap1\n      dup2\n      mstore\n      0x20\n      add\n      0x00\n      keccak256\n        /* \"contracts/ergasia.sol\":5705:5737  voterRegistry[_voterAddress] = v */\n      0x00\n      dup3\n      add\n      mload\n      dup2\n      0x00\n      add\n      exp(0x0100, 0x00)\n      dup2\n      sload\n      dup2\n      0xff\n      mul\n      not\n      and\n      swap1\n      dup4\n      iszero\n      iszero\n      mul\n      or\n      swap1\n      sstore\n      pop\n      0x20\n      dup3\n      add\n      mload\n      dup2\n      0x00\n      add\n      exp(0x0100, 0x01)\n      dup2\n      sload\n      dup2\n      0xff\n      mul\n      not\n      and\n      swap1\n      dup4\n      iszero\n      iszero\n      mul\n      or\n      swap1\n      sstore\n      pop\n      0x40\n      dup3\n      add\n      mload\n      dup2\n      0x01\n      add\n      sstore\n      0x60\n      dup3\n      add\n      mload\n      dup2\n      0x02\n      add\n      sstore\n      0x80\n      dup3\n      add\n      mload\n      dup2\n      0x03\n      add\n      sstore\n      swap1\n      pop\n      pop\n        /* \"contracts/ergasia.sol\":5747:5790  registerAtPollingStation(_pollingStationID) */\n      tag_151\n        /* \"contracts/ergasia.sol\":5772:5789  _pollingStationID */\n      dup4\n        /* \"contracts/ergasia.sol\":5747:5771  registerAtPollingStation */\n      tag_152\n        /* \"contracts/ergasia.sol\":5747:5790  registerAtPollingStation(_pollingStationID) */\n      jump\t// in\n    tag_151:\n        /* \"contracts/ergasia.sol\":5800:5821  totalRegisteredVoters */\n      0x03\n      0x00\n        /* \"contracts/ergasia.sol\":5800:5823  totalRegisteredVoters++ */\n      dup2\n      sload\n      dup1\n      swap3\n      swap2\n      swap1\n      tag_153\n      swap1\n      tag_99\n      jump\t// in\n    tag_153:\n      swap2\n      swap1\n      pop\n      sstore\n      pop\n        /* \"contracts/ergasia.sol\":5011:5830  {... */\n      pop\n        /* \"contracts/ergasia.sol\":4910:5830  function addVoter(address _voterAddress, uint _pollingStationID) public inState(State.Created) Owner {... */\n      pop\n      pop\n      pop\n      jump\t// out\n        /* \"contracts/ergasia.sol\":2023:2041  State public state */\n    tag_68:\n      0x0b\n      0x00\n      swap1\n      sload\n      swap1\n      0x0100\n      exp\n      swap1\n      div\n      0xff\n      and\n      dup2\n      jump\t// out\n        /* \"contracts/ergasia.sol\":7410:7602  function getResultsPerStation1(uint _pStationID, uint _candidateID) public view returns (Candidate memory) {... */\n    tag_73:\n        /* \"contracts/ergasia.sol\":7499:7515  Candidate memory */\n      tag_154\n      tag_155\n      jump\t// in\n    tag_154:\n        /* \"contracts/ergasia.sol\":7534:7549  pollingStations */\n      0x08\n        /* \"contracts/ergasia.sol\":7534:7562  pollingStations[_pStationID] */\n      0x00\n        /* \"contracts/ergasia.sol\":7550:7561  _pStationID */\n      dup5\n        /* \"contracts/ergasia.sol\":7534:7562  pollingStations[_pStationID] */\n      dup2\n      mstore\n      0x20\n      add\n      swap1\n      dup2\n      mstore\n      0x20\n      add\n      0x00\n      keccak256\n        /* \"contracts/ergasia.sol\":7534:7581  pollingStations[_pStationID].scoresPerCandidate */\n      0x04\n      add\n        /* \"contracts/ergasia.sol\":7534:7595  pollingStations[_pStationID].scoresPerCandidate[_candidateID] */\n      0x00\n        /* \"contracts/ergasia.sol\":7582:7594  _candidateID */\n      dup4\n        /* \"contracts/ergasia.sol\":7534:7595  pollingStations[_pStationID].scoresPerCandidate[_candidateID] */\n      dup2\n      mstore\n      0x20\n      add\n      swap1\n      dup2\n      mstore\n      0x20\n      add\n      0x00\n      keccak256\n        /* \"contracts/ergasia.sol\":7527:7595  return pollingStations[_pStationID].scoresPerCandidate[_candidateID] */\n      mload(0x40)\n      dup1\n      0x60\n      add\n      0x40\n      mstore\n      swap1\n      dup2\n      0x00\n      dup3\n      add\n      sload\n      dup2\n      mstore\n      0x20\n      add\n      0x01\n      dup3\n      add\n      dup1\n      sload\n      tag_157\n      swap1\n      tag_106\n      jump\t// in\n    tag_157:\n      dup1\n      0x1f\n      add\n      0x20\n      dup1\n      swap2\n      div\n      mul\n      0x20\n      add\n      mload(0x40)\n      swap1\n      dup2\n      add\n      0x40\n      mstore\n      dup1\n      swap3\n      swap2\n      swap1\n      dup2\n      dup2\n      mstore\n      0x20\n      add\n      dup3\n      dup1\n      sload\n      tag_158\n      swap1\n      tag_106\n      jump\t// in\n    tag_158:\n      dup1\n      iszero\n      tag_159\n      jumpi\n      dup1\n      0x1f\n      lt\n      tag_160\n      jumpi\n      0x0100\n      dup1\n      dup4\n      sload\n      div\n      mul\n      dup4\n      mstore\n      swap2\n      0x20\n      add\n      swap2\n      jump(tag_159)\n    tag_160:\n      dup3\n      add\n      swap2\n      swap1\n      0x00\n      mstore\n      keccak256(0x00, 0x20)\n      swap1\n    tag_161:\n      dup2\n      sload\n      dup2\n      mstore\n      swap1\n      0x01\n      add\n      swap1\n      0x20\n      add\n      dup1\n      dup4\n      gt\n      tag_161\n      jumpi\n      dup3\n      swap1\n      sub\n      0x1f\n      and\n      dup3\n      add\n      swap2\n    tag_159:\n      pop\n      pop\n      pop\n      pop\n      pop\n      dup2\n      mstore\n      0x20\n      add\n      0x02\n      dup3\n      add\n      sload\n      dup2\n      mstore\n      pop\n      pop\n      swap1\n      pop\n        /* \"contracts/ergasia.sol\":7410:7602  function getResultsPerStation1(uint _pStationID, uint _candidateID) public view returns (Candidate memory) {... */\n      swap3\n      swap2\n      pop\n      pop\n      jump\t// out\n        /* \"contracts/ergasia.sol\":1344:1375  uint public pollingStationCount */\n    tag_77:\n      sload(0x02)\n      dup2\n      jump\t// out\n        /* \"contracts/ergasia.sol\":1539:1562  uint public finalResult */\n    tag_80:\n      sload(0x05)\n      dup2\n      jump\t// out\n        /* \"contracts/ergasia.sol\":1794:1848  mapping(uint => PollingStation) public pollingStations */\n    tag_84:\n      mstore(0x20, 0x08)\n      dup1\n      0x00\n      mstore\n      keccak256(0x00, 0x40)\n      0x00\n      swap2\n      pop\n      swap1\n      pop\n      dup1\n      0x00\n      add\n      sload\n      swap1\n      dup1\n      0x01\n      add\n      dup1\n      sload\n      tag_162\n      swap1\n      tag_106\n      jump\t// in\n    tag_162:\n      dup1\n      0x1f\n      add\n      0x20\n      dup1\n      swap2\n      div\n      mul\n      0x20\n      add\n      mload(0x40)\n      swap1\n      dup2\n      add\n      0x40\n      mstore\n      dup1\n      swap3\n      swap2\n      swap1\n      dup2\n      dup2\n      mstore\n      0x20\n      add\n      dup3\n      dup1\n      sload\n      tag_163\n      swap1\n      tag_106\n      jump\t// in\n    tag_163:\n      dup1\n      iszero\n      tag_164\n      jumpi\n      dup1\n      0x1f\n      lt\n      tag_165\n      jumpi\n      0x0100\n      dup1\n      dup4\n      sload\n      div\n      mul\n      dup4\n      mstore\n      swap2\n      0x20\n      add\n      swap2\n      jump(tag_164)\n    tag_165:\n      dup3\n      add\n      swap2\n      swap1\n      0x00\n      mstore\n      keccak256(0x00, 0x20)\n      swap1\n    tag_166:\n      dup2\n      sload\n      dup2\n      mstore\n      swap1\n      0x01\n      add\n      swap1\n      0x20\n      add\n      dup1\n      dup4\n      gt\n      tag_166\n      jumpi\n      dup3\n      swap1\n      sub\n      0x1f\n      and\n      dup3\n      add\n      swap2\n    tag_164:\n      pop\n      pop\n      pop\n      pop\n      pop\n      swap1\n      dup1\n      0x02\n      add\n      sload\n      swap1\n      dup1\n      0x03\n      add\n      sload\n      swap1\n      pop\n      dup5\n      jump\t// out\n        /* \"contracts/ergasia.sol\":5968:6250  function registerAtPollingStation(uint _stationID) internal {... */\n    tag_152:\n        /* \"contracts/ergasia.sol\":6043:6049  uint i */\n      0x00\n        /* \"contracts/ergasia.sol\":6052:6053  1 */\n      0x01\n        /* \"contracts/ergasia.sol\":6043:6053  uint i = 1 */\n      swap1\n      pop\n        /* \"contracts/ergasia.sol\":6038:6244  for (uint i = 1; i <= pollingStationCount; i++) {... */\n    tag_168:\n        /* \"contracts/ergasia.sol\":6060:6079  pollingStationCount */\n      sload(0x02)\n        /* \"contracts/ergasia.sol\":6055:6056  i */\n      dup2\n        /* \"contracts/ergasia.sol\":6055:6079  i <= pollingStationCount */\n      gt\n        /* \"contracts/ergasia.sol\":6038:6244  for (uint i = 1; i <= pollingStationCount; i++) {... */\n      tag_169\n      jumpi\n        /* \"contracts/ergasia.sol\":6129:6139  _stationID */\n      dup2\n        /* \"contracts/ergasia.sol\":6104:6119  pollingStations */\n      0x08\n        /* \"contracts/ergasia.sol\":6104:6122  pollingStations[i] */\n      0x00\n        /* \"contracts/ergasia.sol\":6120:6121  i */\n      dup4\n        /* \"contracts/ergasia.sol\":6104:6122  pollingStations[i] */\n      dup2\n      mstore\n      0x20\n      add\n      swap1\n      dup2\n      mstore\n      0x20\n      add\n      0x00\n      keccak256\n        /* \"contracts/ergasia.sol\":6104:6125  pollingStations[i].id */\n      0x00\n      add\n      sload\n        /* \"contracts/ergasia.sol\":6104:6139  pollingStations[i].id == _stationID */\n      eq\n        /* \"contracts/ergasia.sol\":6100:6234  if (pollingStations[i].id == _stationID) {... */\n      iszero\n      tag_171\n      jumpi\n        /* \"contracts/ergasia.sol\":6159:6174  pollingStations */\n      0x08\n        /* \"contracts/ergasia.sol\":6159:6177  pollingStations[i] */\n      0x00\n        /* \"contracts/ergasia.sol\":6175:6176  i */\n      dup3\n        /* \"contracts/ergasia.sol\":6159:6177  pollingStations[i] */\n      dup2\n      mstore\n      0x20\n      add\n      swap1\n      dup2\n      mstore\n      0x20\n      add\n      0x00\n      keccak256\n        /* \"contracts/ergasia.sol\":6159:6194  pollingStations[i].votersRegistered */\n      0x02\n      add\n      0x00\n        /* \"contracts/ergasia.sol\":6159:6196  pollingStations[i].votersRegistered++ */\n      dup2\n      sload\n      dup1\n      swap3\n      swap2\n      swap1\n      tag_172\n      swap1\n      tag_99\n      jump\t// in\n    tag_172:\n      swap2\n      swap1\n      pop\n      sstore\n      pop\n        /* \"contracts/ergasia.sol\":6214:6219  break */\n      jump(tag_169)\n        /* \"contracts/ergasia.sol\":6100:6234  if (pollingStations[i].id == _stationID) {... */\n    tag_171:\n        /* \"contracts/ergasia.sol\":6081:6084  i++ */\n      dup1\n      dup1\n      tag_173\n      swap1\n      tag_99\n      jump\t// in\n    tag_173:\n      swap2\n      pop\n      pop\n        /* \"contracts/ergasia.sol\":6038:6244  for (uint i = 1; i <= pollingStationCount; i++) {... */\n      jump(tag_168)\n    tag_169:\n      pop\n        /* \"contracts/ergasia.sol\":5968:6250  function registerAtPollingStation(uint _stationID) internal {... */\n      pop\n      jump\t// out\n    tag_150:\n      mload(0x40)\n      dup1\n      0xa0\n      add\n      0x40\n      mstore\n      dup1\n      iszero(iszero(0x00))\n      dup2\n      mstore\n      0x20\n      add\n      iszero(iszero(0x00))\n      dup2\n      mstore\n      0x20\n      add\n      0x00\n      dup2\n      mstore\n      0x20\n      add\n      0x00\n      dup2\n      mstore\n      0x20\n      add\n      0x00\n      dup2\n      mstore\n      pop\n      swap1\n      jump\t// out\n    tag_155:\n      mload(0x40)\n      dup1\n      0x60\n      add\n      0x40\n      mstore\n      dup1\n      0x00\n      dup2\n      mstore\n      0x20\n      add\n      0x60\n      dup2\n      mstore\n      0x20\n      add\n      0x00\n      dup2\n      mstore\n      pop\n      swap1\n      jump\t// out\n        /* \"#utility.yul\":7:146   */\n    tag_175:\n        /* \"#utility.yul\":53:58   */\n      0x00\n        /* \"#utility.yul\":91:97   */\n      dup2\n        /* \"#utility.yul\":78:98   */\n      calldataload\n        /* \"#utility.yul\":69:98   */\n      swap1\n      pop\n        /* \"#utility.yul\":107:140   */\n      tag_177\n        /* \"#utility.yul\":134:139   */\n      dup2\n        /* \"#utility.yul\":107:140   */\n      tag_178\n      jump\t// in\n    tag_177:\n        /* \"#utility.yul\":7:146   */\n      swap3\n      swap2\n      pop\n      pop\n      jump\t// out\n        /* \"#utility.yul\":152:291   */\n    tag_179:\n        /* \"#utility.yul\":198:203   */\n      0x00\n        /* \"#utility.yul\":236:242   */\n      dup2\n        /* \"#utility.yul\":223:243   */\n      calldataload\n        /* \"#utility.yul\":214:243   */\n      swap1\n      pop\n        /* \"#utility.yul\":252:285   */\n      tag_181\n        /* \"#utility.yul\":279:284   */\n      dup2\n        /* \"#utility.yul\":252:285   */\n      tag_182\n      jump\t// in\n    tag_181:\n        /* \"#utility.yul\":152:291   */\n      swap3\n      swap2\n      pop\n      pop\n      jump\t// out\n        /* \"#utility.yul\":297:626   */\n    tag_47:\n        /* \"#utility.yul\":356:362   */\n      0x00\n        /* \"#utility.yul\":405:407   */\n      0x20\n        /* \"#utility.yul\":393:402   */\n      dup3\n        /* \"#utility.yul\":384:391   */\n      dup5\n        /* \"#utility.yul\":380:403   */\n      sub\n        /* \"#utility.yul\":376:408   */\n      slt\n        /* \"#utility.yul\":373:492   */\n      iszero\n      tag_184\n      jumpi\n        /* \"#utility.yul\":411:490   */\n      tag_185\n      tag_186\n      jump\t// in\n    tag_185:\n        /* \"#utility.yul\":373:492   */\n    tag_184:\n        /* \"#utility.yul\":531:532   */\n      0x00\n        /* \"#utility.yul\":556:609   */\n      tag_187\n        /* \"#utility.yul\":601:608   */\n      dup5\n        /* \"#utility.yul\":592:598   */\n      dup3\n        /* \"#utility.yul\":581:590   */\n      dup6\n        /* \"#utility.yul\":577:599   */\n      add\n        /* \"#utility.yul\":556:609   */\n      tag_175\n      jump\t// in\n    tag_187:\n        /* \"#utility.yul\":546:609   */\n      swap2\n      pop\n        /* \"#utility.yul\":502:619   */\n      pop\n        /* \"#utility.yul\":297:626   */\n      swap3\n      swap2\n      pop\n      pop\n      jump\t// out\n        /* \"#utility.yul\":632:1106   */\n    tag_65:\n        /* \"#utility.yul\":700:706   */\n      0x00\n        /* \"#utility.yul\":708:714   */\n      dup1\n        /* \"#utility.yul\":757:759   */\n      0x40\n        /* \"#utility.yul\":745:754   */\n      dup4\n        /* \"#utility.yul\":736:743   */\n      dup6\n        /* \"#utility.yul\":732:755   */\n      sub\n        /* \"#utility.yul\":728:760   */\n      slt\n        /* \"#utility.yul\":725:844   */\n      iszero\n      tag_189\n      jumpi\n        /* \"#utility.yul\":763:842   */\n      tag_190\n      tag_186\n      jump\t// in\n    tag_190:\n        /* \"#utility.yul\":725:844   */\n    tag_189:\n        /* \"#utility.yul\":883:884   */\n      0x00\n        /* \"#utility.yul\":908:961   */\n      tag_191\n        /* \"#utility.yul\":953:960   */\n      dup6\n        /* \"#utility.yul\":944:950   */\n      dup3\n        /* \"#utility.yul\":933:942   */\n      dup7\n        /* \"#utility.yul\":929:951   */\n      add\n        /* \"#utility.yul\":908:961   */\n      tag_175\n      jump\t// in\n    tag_191:\n        /* \"#utility.yul\":898:961   */\n      swap3\n      pop\n        /* \"#utility.yul\":854:971   */\n      pop\n        /* \"#utility.yul\":1010:1012   */\n      0x20\n        /* \"#utility.yul\":1036:1089   */\n      tag_192\n        /* \"#utility.yul\":1081:1088   */\n      dup6\n        /* \"#utility.yul\":1072:1078   */\n      dup3\n        /* \"#utility.yul\":1061:1070   */\n      dup7\n        /* \"#utility.yul\":1057:1079   */\n      add\n        /* \"#utility.yul\":1036:1089   */\n      tag_179\n      jump\t// in\n    tag_192:\n        /* \"#utility.yul\":1026:1089   */\n      swap2\n      pop\n        /* \"#utility.yul\":981:1099   */\n      pop\n        /* \"#utility.yul\":632:1106   */\n      swap3\n      pop\n      swap3\n      swap1\n      pop\n      jump\t// out\n        /* \"#utility.yul\":1112:1441   */\n    tag_41:\n        /* \"#utility.yul\":1171:1177   */\n      0x00\n        /* \"#utility.yul\":1220:1222   */\n      0x20\n        /* \"#utility.yul\":1208:1217   */\n      dup3\n        /* \"#utility.yul\":1199:1206   */\n      dup5\n        /* \"#utility.yul\":1195:1218   */\n      sub\n        /* \"#utility.yul\":1191:1223   */\n      slt\n        /* \"#utility.yul\":1188:1307   */\n      iszero\n      tag_194\n      jumpi\n        /* \"#utility.yul\":1226:1305   */\n      tag_195\n      tag_186\n      jump\t// in\n    tag_195:\n        /* \"#utility.yul\":1188:1307   */\n    tag_194:\n        /* \"#utility.yul\":1346:1347   */\n      0x00\n        /* \"#utility.yul\":1371:1424   */\n      tag_196\n        /* \"#utility.yul\":1416:1423   */\n      dup5\n        /* \"#utility.yul\":1407:1413   */\n      dup3\n        /* \"#utility.yul\":1396:1405   */\n      dup6\n        /* \"#utility.yul\":1392:1414   */\n      add\n        /* \"#utility.yul\":1371:1424   */\n      tag_179\n      jump\t// in\n    tag_196:\n        /* \"#utility.yul\":1361:1424   */\n      swap2\n      pop\n        /* \"#utility.yul\":1317:1434   */\n      pop\n        /* \"#utility.yul\":1112:1441   */\n      swap3\n      swap2\n      pop\n      pop\n      jump\t// out\n        /* \"#utility.yul\":1447:1921   */\n    tag_28:\n        /* \"#utility.yul\":1515:1521   */\n      0x00\n        /* \"#utility.yul\":1523:1529   */\n      dup1\n        /* \"#utility.yul\":1572:1574   */\n      0x40\n        /* \"#utility.yul\":1560:1569   */\n      dup4\n        /* \"#utility.yul\":1551:1558   */\n      dup6\n        /* \"#utility.yul\":1547:1570   */\n      sub\n        /* \"#utility.yul\":1543:1575   */\n      slt\n        /* \"#utility.yul\":1540:1659   */\n      iszero\n      tag_198\n      jumpi\n        /* \"#utility.yul\":1578:1657   */\n      tag_199\n      tag_186\n      jump\t// in\n    tag_199:\n        /* \"#utility.yul\":1540:1659   */\n    tag_198:\n        /* \"#utility.yul\":1698:1699   */\n      0x00\n        /* \"#utility.yul\":1723:1776   */\n      tag_200\n        /* \"#utility.yul\":1768:1775   */\n      dup6\n        /* \"#utility.yul\":1759:1765   */\n      dup3\n        /* \"#utility.yul\":1748:1757   */\n      dup7\n        /* \"#utility.yul\":1744:1766   */\n      add\n        /* \"#utility.yul\":1723:1776   */\n      tag_179\n      jump\t// in\n    tag_200:\n        /* \"#utility.yul\":1713:1776   */\n      swap3\n      pop\n        /* \"#utility.yul\":1669:1786   */\n      pop\n        /* \"#utility.yul\":1825:1827   */\n      0x20\n        /* \"#utility.yul\":1851:1904   */\n      tag_201\n        /* \"#utility.yul\":1896:1903   */\n      dup6\n        /* \"#utility.yul\":1887:1893   */\n      dup3\n        /* \"#utility.yul\":1876:1885   */\n      dup7\n        /* \"#utility.yul\":1872:1894   */\n      add\n        /* \"#utility.yul\":1851:1904   */\n      tag_179\n      jump\t// in\n    tag_201:\n        /* \"#utility.yul\":1841:1904   */\n      swap2\n      pop\n        /* \"#utility.yul\":1796:1914   */\n      pop\n        /* \"#utility.yul\":1447:1921   */\n      swap3\n      pop\n      swap3\n      swap1\n      pop\n      jump\t// out\n        /* \"#utility.yul\":1927:2045   */\n    tag_202:\n        /* \"#utility.yul\":2014:2038   */\n      tag_204\n        /* \"#utility.yul\":2032:2037   */\n      dup2\n        /* \"#utility.yul\":2014:2038   */\n      tag_205\n      jump\t// in\n    tag_204:\n        /* \"#utility.yul\":2009:2012   */\n      dup3\n        /* \"#utility.yul\":2002:2039   */\n      mstore\n        /* \"#utility.yul\":1927:2045   */\n      pop\n      pop\n      jump\t// out\n        /* \"#utility.yul\":2051:2160   */\n    tag_206:\n        /* \"#utility.yul\":2132:2153   */\n      tag_208\n        /* \"#utility.yul\":2147:2152   */\n      dup2\n        /* \"#utility.yul\":2132:2153   */\n      tag_209\n      jump\t// in\n    tag_208:\n        /* \"#utility.yul\":2127:2130   */\n      dup3\n        /* \"#utility.yul\":2120:2154   */\n      mstore\n        /* \"#utility.yul\":2051:2160   */\n      pop\n      pop\n      jump\t// out\n        /* \"#utility.yul\":2166:2309   */\n    tag_210:\n        /* \"#utility.yul\":2259:2302   */\n      tag_212\n        /* \"#utility.yul\":2296:2301   */\n      dup2\n        /* \"#utility.yul\":2259:2302   */\n      tag_213\n      jump\t// in\n    tag_212:\n        /* \"#utility.yul\":2254:2257   */\n      dup3\n        /* \"#utility.yul\":2247:2303   */\n      mstore\n        /* \"#utility.yul\":2166:2309   */\n      pop\n      pop\n      jump\t// out\n        /* \"#utility.yul\":2315:2659   */\n    tag_214:\n        /* \"#utility.yul\":2393:2396   */\n      0x00\n        /* \"#utility.yul\":2421:2460   */\n      tag_216\n        /* \"#utility.yul\":2454:2459   */\n      dup3\n        /* \"#utility.yul\":2421:2460   */\n      tag_217\n      jump\t// in\n    tag_216:\n        /* \"#utility.yul\":2476:2537   */\n      tag_218\n        /* \"#utility.yul\":2530:2536   */\n      dup2\n        /* \"#utility.yul\":2525:2528   */\n      dup6\n        /* \"#utility.yul\":2476:2537   */\n      tag_219\n      jump\t// in\n    tag_218:\n        /* \"#utility.yul\":2469:2537   */\n      swap4\n      pop\n        /* \"#utility.yul\":2546:2598   */\n      tag_220\n        /* \"#utility.yul\":2591:2597   */\n      dup2\n        /* \"#utility.yul\":2586:2589   */\n      dup6\n        /* \"#utility.yul\":2579:2583   */\n      0x20\n        /* \"#utility.yul\":2572:2577   */\n      dup7\n        /* \"#utility.yul\":2568:2584   */\n      add\n        /* \"#utility.yul\":2546:2598   */\n      tag_221\n      jump\t// in\n    tag_220:\n        /* \"#utility.yul\":2623:2652   */\n      tag_222\n        /* \"#utility.yul\":2645:2651   */\n      dup2\n        /* \"#utility.yul\":2623:2652   */\n      tag_223\n      jump\t// in\n    tag_222:\n        /* \"#utility.yul\":2618:2621   */\n      dup5\n        /* \"#utility.yul\":2614:2653   */\n      add\n        /* \"#utility.yul\":2607:2653   */\n      swap2\n      pop\n        /* \"#utility.yul\":2397:2659   */\n      pop\n        /* \"#utility.yul\":2315:2659   */\n      swap3\n      swap2\n      pop\n      pop\n      jump\t// out\n        /* \"#utility.yul\":2665:3029   */\n    tag_224:\n        /* \"#utility.yul\":2753:2756   */\n      0x00\n        /* \"#utility.yul\":2781:2820   */\n      tag_226\n        /* \"#utility.yul\":2814:2819   */\n      dup3\n        /* \"#utility.yul\":2781:2820   */\n      tag_217\n      jump\t// in\n    tag_226:\n        /* \"#utility.yul\":2836:2907   */\n      tag_227\n        /* \"#utility.yul\":2900:2906   */\n      dup2\n        /* \"#utility.yul\":2895:2898   */\n      dup6\n        /* \"#utility.yul\":2836:2907   */\n      tag_228\n      jump\t// in\n    tag_227:\n        /* \"#utility.yul\":2829:2907   */\n      swap4\n      pop\n        /* \"#utility.yul\":2916:2968   */\n      tag_229\n        /* \"#utility.yul\":2961:2967   */\n      dup2\n        /* \"#utility.yul\":2956:2959   */\n      dup6\n        /* \"#utility.yul\":2949:2953   */\n      0x20\n        /* \"#utility.yul\":2942:2947   */\n      dup7\n        /* \"#utility.yul\":2938:2954   */\n      add\n        /* \"#utility.yul\":2916:2968   */\n      tag_221\n      jump\t// in\n    tag_229:\n        /* \"#utility.yul\":2993:3022   */\n      tag_230\n        /* \"#utility.yul\":3015:3021   */\n      dup2\n        /* \"#utility.yul\":2993:3022   */\n      tag_223\n      jump\t// in\n    tag_230:\n        /* \"#utility.yul\":2988:2991   */\n      dup5\n        /* \"#utility.yul\":2984:3023   */\n      add\n        /* \"#utility.yul\":2977:3023   */\n      swap2\n      pop\n        /* \"#utility.yul\":2757:3029   */\n      pop\n        /* \"#utility.yul\":2665:3029   */\n      swap3\n      swap2\n      pop\n      pop\n      jump\t// out\n        /* \"#utility.yul\":3035:3401   */\n    tag_231:\n        /* \"#utility.yul\":3177:3180   */\n      0x00\n        /* \"#utility.yul\":3198:3265   */\n      tag_233\n        /* \"#utility.yul\":3262:3264   */\n      0x2a\n        /* \"#utility.yul\":3257:3260   */\n      dup4\n        /* \"#utility.yul\":3198:3265   */\n      tag_228\n      jump\t// in\n    tag_233:\n        /* \"#utility.yul\":3191:3265   */\n      swap2\n      pop\n        /* \"#utility.yul\":3274:3367   */\n      tag_234\n        /* \"#utility.yul\":3363:3366   */\n      dup3\n        /* \"#utility.yul\":3274:3367   */\n      tag_235\n      jump\t// in\n    tag_234:\n        /* \"#utility.yul\":3392:3394   */\n      0x40\n        /* \"#utility.yul\":3387:3390   */\n      dup3\n        /* \"#utility.yul\":3383:3395   */\n      add\n        /* \"#utility.yul\":3376:3395   */\n      swap1\n      pop\n        /* \"#utility.yul\":3035:3401   */\n      swap2\n      swap1\n      pop\n      jump\t// out\n        /* \"#utility.yul\":3407:3773   */\n    tag_236:\n        /* \"#utility.yul\":3549:3552   */\n      0x00\n        /* \"#utility.yul\":3570:3637   */\n      tag_238\n        /* \"#utility.yul\":3634:3636   */\n      0x1c\n        /* \"#utility.yul\":3629:3632   */\n      dup4\n        /* \"#utility.yul\":3570:3637   */\n      tag_228\n      jump\t// in\n    tag_238:\n        /* \"#utility.yul\":3563:3637   */\n      swap2\n      pop\n        /* \"#utility.yul\":3646:3739   */\n      tag_239\n        /* \"#utility.yul\":3735:3738   */\n      dup3\n        /* \"#utility.yul\":3646:3739   */\n      tag_240\n      jump\t// in\n    tag_239:\n        /* \"#utility.yul\":3764:3766   */\n      0x20\n        /* \"#utility.yul\":3759:3762   */\n      dup3\n        /* \"#utility.yul\":3755:3767   */\n      add\n        /* \"#utility.yul\":3748:3767   */\n      swap1\n      pop\n        /* \"#utility.yul\":3407:3773   */\n      swap2\n      swap1\n      pop\n      jump\t// out\n        /* \"#utility.yul\":3841:4618   */\n    tag_241:\n        /* \"#utility.yul\":3958:3961   */\n      0x00\n        /* \"#utility.yul\":3994:3998   */\n      0x60\n        /* \"#utility.yul\":3989:3992   */\n      dup4\n        /* \"#utility.yul\":3985:3999   */\n      add\n        /* \"#utility.yul\":4079:4083   */\n      0x00\n        /* \"#utility.yul\":4072:4077   */\n      dup4\n        /* \"#utility.yul\":4068:4084   */\n      add\n        /* \"#utility.yul\":4062:4085   */\n      mload\n        /* \"#utility.yul\":4098:4161   */\n      tag_243\n        /* \"#utility.yul\":4155:4159   */\n      0x00\n        /* \"#utility.yul\":4150:4153   */\n      dup7\n        /* \"#utility.yul\":4146:4160   */\n      add\n        /* \"#utility.yul\":4132:4144   */\n      dup3\n        /* \"#utility.yul\":4098:4161   */\n      tag_244\n      jump\t// in\n    tag_243:\n        /* \"#utility.yul\":4009:4171   */\n      pop\n        /* \"#utility.yul\":4253:4257   */\n      0x20\n        /* \"#utility.yul\":4246:4251   */\n      dup4\n        /* \"#utility.yul\":4242:4258   */\n      add\n        /* \"#utility.yul\":4236:4259   */\n      mload\n        /* \"#utility.yul\":4306:4309   */\n      dup5\n        /* \"#utility.yul\":4300:4304   */\n      dup3\n        /* \"#utility.yul\":4296:4310   */\n      sub\n        /* \"#utility.yul\":4289:4293   */\n      0x20\n        /* \"#utility.yul\":4284:4287   */\n      dup7\n        /* \"#utility.yul\":4280:4294   */\n      add\n        /* \"#utility.yul\":4273:4311   */\n      mstore\n        /* \"#utility.yul\":4332:4405   */\n      tag_245\n        /* \"#utility.yul\":4400:4404   */\n      dup3\n        /* \"#utility.yul\":4386:4398   */\n      dup3\n        /* \"#utility.yul\":4332:4405   */\n      tag_214\n      jump\t// in\n    tag_245:\n        /* \"#utility.yul\":4324:4405   */\n      swap2\n      pop\n        /* \"#utility.yul\":4181:4416   */\n      pop\n        /* \"#utility.yul\":4499:4503   */\n      0x40\n        /* \"#utility.yul\":4492:4497   */\n      dup4\n        /* \"#utility.yul\":4488:4504   */\n      add\n        /* \"#utility.yul\":4482:4505   */\n      mload\n        /* \"#utility.yul\":4518:4581   */\n      tag_246\n        /* \"#utility.yul\":4575:4579   */\n      0x40\n        /* \"#utility.yul\":4570:4573   */\n      dup7\n        /* \"#utility.yul\":4566:4580   */\n      add\n        /* \"#utility.yul\":4552:4564   */\n      dup3\n        /* \"#utility.yul\":4518:4581   */\n      tag_244\n      jump\t// in\n    tag_246:\n        /* \"#utility.yul\":4426:4591   */\n      pop\n        /* \"#utility.yul\":4608:4612   */\n      dup1\n        /* \"#utility.yul\":4601:4612   */\n      swap2\n      pop\n        /* \"#utility.yul\":3963:4618   */\n      pop\n        /* \"#utility.yul\":3841:4618   */\n      swap3\n      swap2\n      pop\n      pop\n      jump\t// out\n        /* \"#utility.yul\":4624:4732   */\n    tag_244:\n        /* \"#utility.yul\":4701:4725   */\n      tag_248\n        /* \"#utility.yul\":4719:4724   */\n      dup2\n        /* \"#utility.yul\":4701:4725   */\n      tag_249\n      jump\t// in\n    tag_248:\n        /* \"#utility.yul\":4696:4699   */\n      dup3\n        /* \"#utility.yul\":4689:4726   */\n      mstore\n        /* \"#utility.yul\":4624:4732   */\n      pop\n      pop\n      jump\t// out\n        /* \"#utility.yul\":4738:4856   */\n    tag_250:\n        /* \"#utility.yul\":4825:4849   */\n      tag_252\n        /* \"#utility.yul\":4843:4848   */\n      dup2\n        /* \"#utility.yul\":4825:4849   */\n      tag_249\n      jump\t// in\n    tag_252:\n        /* \"#utility.yul\":4820:4823   */\n      dup3\n        /* \"#utility.yul\":4813:4850   */\n      mstore\n        /* \"#utility.yul\":4738:4856   */\n      pop\n      pop\n      jump\t// out\n        /* \"#utility.yul\":4862:5084   */\n    tag_56:\n        /* \"#utility.yul\":4955:4959   */\n      0x00\n        /* \"#utility.yul\":4993:4995   */\n      0x20\n        /* \"#utility.yul\":4982:4991   */\n      dup3\n        /* \"#utility.yul\":4978:4996   */\n      add\n        /* \"#utility.yul\":4970:4996   */\n      swap1\n      pop\n        /* \"#utility.yul\":5006:5077   */\n      tag_254\n        /* \"#utility.yul\":5074:5075   */\n      0x00\n        /* \"#utility.yul\":5063:5072   */\n      dup4\n        /* \"#utility.yul\":5059:5076   */\n      add\n        /* \"#utility.yul\":5050:5056   */\n      dup5\n        /* \"#utility.yul\":5006:5077   */\n      tag_202\n      jump\t// in\n    tag_254:\n        /* \"#utility.yul\":4862:5084   */\n      swap3\n      swap2\n      pop\n      pop\n      jump\t// out\n        /* \"#utility.yul\":5090:5300   */\n    tag_35:\n        /* \"#utility.yul\":5177:5181   */\n      0x00\n        /* \"#utility.yul\":5215:5217   */\n      0x20\n        /* \"#utility.yul\":5204:5213   */\n      dup3\n        /* \"#utility.yul\":5200:5218   */\n      add\n        /* \"#utility.yul\":5192:5218   */\n      swap1\n      pop\n        /* \"#utility.yul\":5228:5293   */\n      tag_256\n        /* \"#utility.yul\":5290:5291   */\n      0x00\n        /* \"#utility.yul\":5279:5288   */\n      dup4\n        /* \"#utility.yul\":5275:5292   */\n      add\n        /* \"#utility.yul\":5266:5272   */\n      dup5\n        /* \"#utility.yul\":5228:5293   */\n      tag_206\n      jump\t// in\n    tag_256:\n        /* \"#utility.yul\":5090:5300   */\n      swap3\n      swap2\n      pop\n      pop\n      jump\t// out\n        /* \"#utility.yul\":5306:5946   */\n    tag_50:\n        /* \"#utility.yul\":5499:5503   */\n      0x00\n        /* \"#utility.yul\":5537:5540   */\n      0xa0\n        /* \"#utility.yul\":5526:5535   */\n      dup3\n        /* \"#utility.yul\":5522:5541   */\n      add\n        /* \"#utility.yul\":5514:5541   */\n      swap1\n      pop\n        /* \"#utility.yul\":5551:5616   */\n      tag_258\n        /* \"#utility.yul\":5613:5614   */\n      0x00\n        /* \"#utility.yul\":5602:5611   */\n      dup4\n        /* \"#utility.yul\":5598:5615   */\n      add\n        /* \"#utility.yul\":5589:5595   */\n      dup9\n        /* \"#utility.yul\":5551:5616   */\n      tag_206\n      jump\t// in\n    tag_258:\n        /* \"#utility.yul\":5626:5692   */\n      tag_259\n        /* \"#utility.yul\":5688:5690   */\n      0x20\n        /* \"#utility.yul\":5677:5686   */\n      dup4\n        /* \"#utility.yul\":5673:5691   */\n      add\n        /* \"#utility.yul\":5664:5670   */\n      dup8\n        /* \"#utility.yul\":5626:5692   */\n      tag_206\n      jump\t// in\n    tag_259:\n        /* \"#utility.yul\":5702:5774   */\n      tag_260\n        /* \"#utility.yul\":5770:5772   */\n      0x40\n        /* \"#utility.yul\":5759:5768   */\n      dup4\n        /* \"#utility.yul\":5755:5773   */\n      add\n        /* \"#utility.yul\":5746:5752   */\n      dup7\n        /* \"#utility.yul\":5702:5774   */\n      tag_250\n      jump\t// in\n    tag_260:\n        /* \"#utility.yul\":5784:5856   */\n      tag_261\n        /* \"#utility.yul\":5852:5854   */\n      0x60\n        /* \"#utility.yul\":5841:5850   */\n      dup4\n        /* \"#utility.yul\":5837:5855   */\n      add\n        /* \"#utility.yul\":5828:5834   */\n      dup6\n        /* \"#utility.yul\":5784:5856   */\n      tag_250\n      jump\t// in\n    tag_261:\n        /* \"#utility.yul\":5866:5939   */\n      tag_262\n        /* \"#utility.yul\":5934:5937   */\n      0x80\n        /* \"#utility.yul\":5923:5932   */\n      dup4\n        /* \"#utility.yul\":5919:5938   */\n      add\n        /* \"#utility.yul\":5910:5916   */\n      dup5\n        /* \"#utility.yul\":5866:5939   */\n      tag_250\n      jump\t// in\n    tag_262:\n        /* \"#utility.yul\":5306:5946   */\n      swap7\n      swap6\n      pop\n      pop\n      pop\n      pop\n      pop\n      pop\n      jump\t// out\n        /* \"#utility.yul\":5952:6382   */\n    tag_104:\n        /* \"#utility.yul\":6095:6099   */\n      0x00\n        /* \"#utility.yul\":6133:6135   */\n      0x60\n        /* \"#utility.yul\":6122:6131   */\n      dup3\n        /* \"#utility.yul\":6118:6136   */\n      add\n        /* \"#utility.yul\":6110:6136   */\n      swap1\n      pop\n        /* \"#utility.yul\":6146:6211   */\n      tag_264\n        /* \"#utility.yul\":6208:6209   */\n      0x00\n        /* \"#utility.yul\":6197:6206   */\n      dup4\n        /* \"#utility.yul\":6193:6210   */\n      add\n        /* \"#utility.yul\":6184:6190   */\n      dup7\n        /* \"#utility.yul\":6146:6211   */\n      tag_206\n      jump\t// in\n    tag_264:\n        /* \"#utility.yul\":6221:6293   */\n      tag_265\n        /* \"#utility.yul\":6289:6291   */\n      0x20\n        /* \"#utility.yul\":6278:6287   */\n      dup4\n        /* \"#utility.yul\":6274:6292   */\n      add\n        /* \"#utility.yul\":6265:6271   */\n      dup6\n        /* \"#utility.yul\":6221:6293   */\n      tag_250\n      jump\t// in\n    tag_265:\n        /* \"#utility.yul\":6303:6375   */\n      tag_266\n        /* \"#utility.yul\":6371:6373   */\n      0x40\n        /* \"#utility.yul\":6360:6369   */\n      dup4\n        /* \"#utility.yul\":6356:6374   */\n      add\n        /* \"#utility.yul\":6347:6353   */\n      dup5\n        /* \"#utility.yul\":6303:6375   */\n      tag_250\n      jump\t// in\n    tag_266:\n        /* \"#utility.yul\":5952:6382   */\n      swap5\n      swap4\n      pop\n      pop\n      pop\n      pop\n      jump\t// out\n        /* \"#utility.yul\":6388:6622   */\n    tag_70:\n        /* \"#utility.yul\":6487:6491   */\n      0x00\n        /* \"#utility.yul\":6525:6527   */\n      0x20\n        /* \"#utility.yul\":6514:6523   */\n      dup3\n        /* \"#utility.yul\":6510:6528   */\n      add\n        /* \"#utility.yul\":6502:6528   */\n      swap1\n      pop\n        /* \"#utility.yul\":6538:6615   */\n      tag_268\n        /* \"#utility.yul\":6612:6613   */\n      0x00\n        /* \"#utility.yul\":6601:6610   */\n      dup4\n        /* \"#utility.yul\":6597:6614   */\n      add\n        /* \"#utility.yul\":6588:6594   */\n      dup5\n        /* \"#utility.yul\":6538:6615   */\n      tag_210\n      jump\t// in\n    tag_268:\n        /* \"#utility.yul\":6388:6622   */\n      swap3\n      swap2\n      pop\n      pop\n      jump\t// out\n        /* \"#utility.yul\":6628:7047   */\n    tag_148:\n        /* \"#utility.yul\":6794:6798   */\n      0x00\n        /* \"#utility.yul\":6832:6834   */\n      0x20\n        /* \"#utility.yul\":6821:6830   */\n      dup3\n        /* \"#utility.yul\":6817:6835   */\n      add\n        /* \"#utility.yul\":6809:6835   */\n      swap1\n      pop\n        /* \"#utility.yul\":6881:6890   */\n      dup2\n        /* \"#utility.yul\":6875:6879   */\n      dup2\n        /* \"#utility.yul\":6871:6891   */\n      sub\n        /* \"#utility.yul\":6867:6868   */\n      0x00\n        /* \"#utility.yul\":6856:6865   */\n      dup4\n        /* \"#utility.yul\":6852:6869   */\n      add\n        /* \"#utility.yul\":6845:6892   */\n      mstore\n        /* \"#utility.yul\":6909:7040   */\n      tag_270\n        /* \"#utility.yul\":7035:7039   */\n      dup2\n        /* \"#utility.yul\":6909:7040   */\n      tag_231\n      jump\t// in\n    tag_270:\n        /* \"#utility.yul\":6901:7040   */\n      swap1\n      pop\n        /* \"#utility.yul\":6628:7047   */\n      swap2\n      swap1\n      pop\n      jump\t// out\n        /* \"#utility.yul\":7053:7472   */\n    tag_144:\n        /* \"#utility.yul\":7219:7223   */\n      0x00\n        /* \"#utility.yul\":7257:7259   */\n      0x20\n        /* \"#utility.yul\":7246:7255   */\n      dup3\n        /* \"#utility.yul\":7242:7260   */\n      add\n        /* \"#utility.yul\":7234:7260   */\n      swap1\n      pop\n        /* \"#utility.yul\":7306:7315   */\n      dup2\n        /* \"#utility.yul\":7300:7304   */\n      dup2\n        /* \"#utility.yul\":7296:7316   */\n      sub\n        /* \"#utility.yul\":7292:7293   */\n      0x00\n        /* \"#utility.yul\":7281:7290   */\n      dup4\n        /* \"#utility.yul\":7277:7294   */\n      add\n        /* \"#utility.yul\":7270:7317   */\n      mstore\n        /* \"#utility.yul\":7334:7465   */\n      tag_272\n        /* \"#utility.yul\":7460:7464   */\n      dup2\n        /* \"#utility.yul\":7334:7465   */\n      tag_236\n      jump\t// in\n    tag_272:\n        /* \"#utility.yul\":7326:7465   */\n      swap1\n      pop\n        /* \"#utility.yul\":7053:7472   */\n      swap2\n      swap1\n      pop\n      jump\t// out\n        /* \"#utility.yul\":7478:7847   */\n    tag_75:\n        /* \"#utility.yul\":7619:7623   */\n      0x00\n        /* \"#utility.yul\":7657:7659   */\n      0x20\n        /* \"#utility.yul\":7646:7655   */\n      dup3\n        /* \"#utility.yul\":7642:7660   */\n      add\n        /* \"#utility.yul\":7634:7660   */\n      swap1\n      pop\n        /* \"#utility.yul\":7706:7715   */\n      dup2\n        /* \"#utility.yul\":7700:7704   */\n      dup2\n        /* \"#utility.yul\":7696:7716   */\n      sub\n        /* \"#utility.yul\":7692:7693   */\n      0x00\n        /* \"#utility.yul\":7681:7690   */\n      dup4\n        /* \"#utility.yul\":7677:7694   */\n      add\n        /* \"#utility.yul\":7670:7717   */\n      mstore\n        /* \"#utility.yul\":7734:7840   */\n      tag_274\n        /* \"#utility.yul\":7835:7839   */\n      dup2\n        /* \"#utility.yul\":7826:7832   */\n      dup5\n        /* \"#utility.yul\":7734:7840   */\n      tag_241\n      jump\t// in\n    tag_274:\n        /* \"#utility.yul\":7726:7840   */\n      swap1\n      pop\n        /* \"#utility.yul\":7478:7847   */\n      swap3\n      swap2\n      pop\n      pop\n      jump\t// out\n        /* \"#utility.yul\":7853:8075   */\n    tag_25:\n        /* \"#utility.yul\":7946:7950   */\n      0x00\n        /* \"#utility.yul\":7984:7986   */\n      0x20\n        /* \"#utility.yul\":7973:7982   */\n      dup3\n        /* \"#utility.yul\":7969:7987   */\n      add\n        /* \"#utility.yul\":7961:7987   */\n      swap1\n      pop\n        /* \"#utility.yul\":7997:8068   */\n      tag_276\n        /* \"#utility.yul\":8065:8066   */\n      0x00\n        /* \"#utility.yul\":8054:8063   */\n      dup4\n        /* \"#utility.yul\":8050:8067   */\n      add\n        /* \"#utility.yul\":8041:8047   */\n      dup5\n        /* \"#utility.yul\":7997:8068   */\n      tag_250\n      jump\t// in\n    tag_276:\n        /* \"#utility.yul\":7853:8075   */\n      swap3\n      swap2\n      pop\n      pop\n      jump\t// out\n        /* \"#utility.yul\":8081:8614   */\n    tag_44:\n        /* \"#utility.yul\":8250:8254   */\n      0x00\n        /* \"#utility.yul\":8288:8290   */\n      0x60\n        /* \"#utility.yul\":8277:8286   */\n      dup3\n        /* \"#utility.yul\":8273:8291   */\n      add\n        /* \"#utility.yul\":8265:8291   */\n      swap1\n      pop\n        /* \"#utility.yul\":8301:8372   */\n      tag_278\n        /* \"#utility.yul\":8369:8370   */\n      0x00\n        /* \"#utility.yul\":8358:8367   */\n      dup4\n        /* \"#utility.yul\":8354:8371   */\n      add\n        /* \"#utility.yul\":8345:8351   */\n      dup7\n        /* \"#utility.yul\":8301:8372   */\n      tag_250\n      jump\t// in\n    tag_278:\n        /* \"#utility.yul\":8419:8428   */\n      dup2\n        /* \"#utility.yul\":8413:8417   */\n      dup2\n        /* \"#utility.yul\":8409:8429   */\n      sub\n        /* \"#utility.yul\":8404:8406   */\n      0x20\n        /* \"#utility.yul\":8393:8402   */\n      dup4\n        /* \"#utility.yul\":8389:8407   */\n      add\n        /* \"#utility.yul\":8382:8430   */\n      mstore\n        /* \"#utility.yul\":8447:8525   */\n      tag_279\n        /* \"#utility.yul\":8520:8524   */\n      dup2\n        /* \"#utility.yul\":8511:8517   */\n      dup6\n        /* \"#utility.yul\":8447:8525   */\n      tag_224\n      jump\t// in\n    tag_279:\n        /* \"#utility.yul\":8439:8525   */\n      swap1\n      pop\n        /* \"#utility.yul\":8535:8607   */\n      tag_280\n        /* \"#utility.yul\":8603:8605   */\n      0x40\n        /* \"#utility.yul\":8592:8601   */\n      dup4\n        /* \"#utility.yul\":8588:8606   */\n      add\n        /* \"#utility.yul\":8579:8585   */\n      dup5\n        /* \"#utility.yul\":8535:8607   */\n      tag_250\n      jump\t// in\n    tag_280:\n        /* \"#utility.yul\":8081:8614   */\n      swap5\n      swap4\n      pop\n      pop\n      pop\n      pop\n      jump\t// out\n        /* \"#utility.yul\":8620:9264   */\n    tag_86:\n        /* \"#utility.yul\":8817:8821   */\n      0x00\n        /* \"#utility.yul\":8855:8858   */\n      0x80\n        /* \"#utility.yul\":8844:8853   */\n      dup3\n        /* \"#utility.yul\":8840:8859   */\n      add\n        /* \"#utility.yul\":8832:8859   */\n      swap1\n      pop\n        /* \"#utility.yul\":8869:8940   */\n      tag_282\n        /* \"#utility.yul\":8937:8938   */\n      0x00\n        /* \"#utility.yul\":8926:8935   */\n      dup4\n        /* \"#utility.yul\":8922:8939   */\n      add\n        /* \"#utility.yul\":8913:8919   */\n      dup8\n        /* \"#utility.yul\":8869:8940   */\n      tag_250\n      jump\t// in\n    tag_282:\n        /* \"#utility.yul\":8987:8996   */\n      dup2\n        /* \"#utility.yul\":8981:8985   */\n      dup2\n        /* \"#utility.yul\":8977:8997   */\n      sub\n        /* \"#utility.yul\":8972:8974   */\n      0x20\n        /* \"#utility.yul\":8961:8970   */\n      dup4\n        /* \"#utility.yul\":8957:8975   */\n      add\n        /* \"#utility.yul\":8950:8998   */\n      mstore\n        /* \"#utility.yul\":9015:9093   */\n      tag_283\n        /* \"#utility.yul\":9088:9092   */\n      dup2\n        /* \"#utility.yul\":9079:9085   */\n      dup7\n        /* \"#utility.yul\":9015:9093   */\n      tag_224\n      jump\t// in\n    tag_283:\n        /* \"#utility.yul\":9007:9093   */\n      swap1\n      pop\n        /* \"#utility.yul\":9103:9175   */\n      tag_284\n        /* \"#utility.yul\":9171:9173   */\n      0x40\n        /* \"#utility.yul\":9160:9169   */\n      dup4\n        /* \"#utility.yul\":9156:9174   */\n      add\n        /* \"#utility.yul\":9147:9153   */\n      dup6\n        /* \"#utility.yul\":9103:9175   */\n      tag_250\n      jump\t// in\n    tag_284:\n        /* \"#utility.yul\":9185:9257   */\n      tag_285\n        /* \"#utility.yul\":9253:9255   */\n      0x60\n        /* \"#utility.yul\":9242:9251   */\n      dup4\n        /* \"#utility.yul\":9238:9256   */\n      add\n        /* \"#utility.yul\":9229:9235   */\n      dup5\n        /* \"#utility.yul\":9185:9257   */\n      tag_250\n      jump\t// in\n    tag_285:\n        /* \"#utility.yul\":8620:9264   */\n      swap6\n      swap5\n      pop\n      pop\n      pop\n      pop\n      pop\n      jump\t// out\n        /* \"#utility.yul\":9351:9450   */\n    tag_217:\n        /* \"#utility.yul\":9403:9409   */\n      0x00\n        /* \"#utility.yul\":9437:9442   */\n      dup2\n        /* \"#utility.yul\":9431:9443   */\n      mload\n        /* \"#utility.yul\":9421:9443   */\n      swap1\n      pop\n        /* \"#utility.yul\":9351:9450   */\n      swap2\n      swap1\n      pop\n      jump\t// out\n        /* \"#utility.yul\":9456:9615   */\n    tag_219:\n        /* \"#utility.yul\":9530:9541   */\n      0x00\n        /* \"#utility.yul\":9564:9570   */\n      dup3\n        /* \"#utility.yul\":9559:9562   */\n      dup3\n        /* \"#utility.yul\":9552:9571   */\n      mstore\n        /* \"#utility.yul\":9604:9608   */\n      0x20\n        /* \"#utility.yul\":9599:9602   */\n      dup3\n        /* \"#utility.yul\":9595:9609   */\n      add\n        /* \"#utility.yul\":9580:9609   */\n      swap1\n      pop\n        /* \"#utility.yul\":9456:9615   */\n      swap3\n      swap2\n      pop\n      pop\n      jump\t// out\n        /* \"#utility.yul\":9621:9790   */\n    tag_228:\n        /* \"#utility.yul\":9705:9716   */\n      0x00\n        /* \"#utility.yul\":9739:9745   */\n      dup3\n        /* \"#utility.yul\":9734:9737   */\n      dup3\n        /* \"#utility.yul\":9727:9746   */\n      mstore\n        /* \"#utility.yul\":9779:9783   */\n      0x20\n        /* \"#utility.yul\":9774:9777   */\n      dup3\n        /* \"#utility.yul\":9770:9784   */\n      add\n        /* \"#utility.yul\":9755:9784   */\n      swap1\n      pop\n        /* \"#utility.yul\":9621:9790   */\n      swap3\n      swap2\n      pop\n      pop\n      jump\t// out\n        /* \"#utility.yul\":9796:9892   */\n    tag_205:\n        /* \"#utility.yul\":9833:9840   */\n      0x00\n        /* \"#utility.yul\":9862:9886   */\n      tag_292\n        /* \"#utility.yul\":9880:9885   */\n      dup3\n        /* \"#utility.yul\":9862:9886   */\n      tag_293\n      jump\t// in\n    tag_292:\n        /* \"#utility.yul\":9851:9886   */\n      swap1\n      pop\n        /* \"#utility.yul\":9796:9892   */\n      swap2\n      swap1\n      pop\n      jump\t// out\n        /* \"#utility.yul\":9898:9988   */\n    tag_209:\n        /* \"#utility.yul\":9932:9939   */\n      0x00\n        /* \"#utility.yul\":9975:9980   */\n      dup2\n        /* \"#utility.yul\":9968:9981   */\n      iszero\n        /* \"#utility.yul\":9961:9982   */\n      iszero\n        /* \"#utility.yul\":9950:9982   */\n      swap1\n      pop\n        /* \"#utility.yul\":9898:9988   */\n      swap2\n      swap1\n      pop\n      jump\t// out\n        /* \"#utility.yul\":9994:10121   */\n    tag_295:\n        /* \"#utility.yul\":10039:10046   */\n      0x00\n        /* \"#utility.yul\":10068:10073   */\n      dup2\n        /* \"#utility.yul\":10057:10073   */\n      swap1\n      pop\n        /* \"#utility.yul\":10074:10115   */\n      tag_297\n        /* \"#utility.yul\":10109:10114   */\n      dup3\n        /* \"#utility.yul\":10074:10115   */\n      tag_298\n      jump\t// in\n    tag_297:\n        /* \"#utility.yul\":9994:10121   */\n      swap2\n      swap1\n      pop\n      jump\t// out\n        /* \"#utility.yul\":10127:10253   */\n    tag_293:\n        /* \"#utility.yul\":10164:10171   */\n      0x00\n        /* \"#utility.yul\":10204:10246   */\n      0xffffffffffffffffffffffffffffffffffffffff\n        /* \"#utility.yul\":10197:10202   */\n      dup3\n        /* \"#utility.yul\":10193:10247   */\n      and\n        /* \"#utility.yul\":10182:10247   */\n      swap1\n      pop\n        /* \"#utility.yul\":10127:10253   */\n      swap2\n      swap1\n      pop\n      jump\t// out\n        /* \"#utility.yul\":10259:10336   */\n    tag_249:\n        /* \"#utility.yul\":10296:10303   */\n      0x00\n        /* \"#utility.yul\":10325:10330   */\n      dup2\n        /* \"#utility.yul\":10314:10330   */\n      swap1\n      pop\n        /* \"#utility.yul\":10259:10336   */\n      swap2\n      swap1\n      pop\n      jump\t// out\n        /* \"#utility.yul\":10342:10469   */\n    tag_213:\n        /* \"#utility.yul\":10398:10407   */\n      0x00\n        /* \"#utility.yul\":10431:10463   */\n      tag_302\n        /* \"#utility.yul\":10457:10462   */\n      dup3\n        /* \"#utility.yul\":10431:10463   */\n      tag_295\n      jump\t// in\n    tag_302:\n        /* \"#utility.yul\":10418:10463   */\n      swap1\n      pop\n        /* \"#utility.yul\":10342:10469   */\n      swap2\n      swap1\n      pop\n      jump\t// out\n        /* \"#utility.yul\":10475:10782   */\n    tag_221:\n        /* \"#utility.yul\":10543:10544   */\n      0x00\n        /* \"#utility.yul\":10553:10666   */\n    tag_304:\n        /* \"#utility.yul\":10567:10573   */\n      dup4\n        /* \"#utility.yul\":10564:10565   */\n      dup2\n        /* \"#utility.yul\":10561:10574   */\n      lt\n        /* \"#utility.yul\":10553:10666   */\n      iszero\n      tag_306\n      jumpi\n        /* \"#utility.yul\":10652:10653   */\n      dup1\n        /* \"#utility.yul\":10647:10650   */\n      dup3\n        /* \"#utility.yul\":10643:10654   */\n      add\n        /* \"#utility.yul\":10637:10655   */\n      mload\n        /* \"#utility.yul\":10633:10634   */\n      dup2\n        /* \"#utility.yul\":10628:10631   */\n      dup5\n        /* \"#utility.yul\":10624:10635   */\n      add\n        /* \"#utility.yul\":10617:10656   */\n      mstore\n        /* \"#utility.yul\":10589:10591   */\n      0x20\n        /* \"#utility.yul\":10586:10587   */\n      dup2\n        /* \"#utility.yul\":10582:10592   */\n      add\n        /* \"#utility.yul\":10577:10592   */\n      swap1\n      pop\n        /* \"#utility.yul\":10553:10666   */\n      jump(tag_304)\n    tag_306:\n        /* \"#utility.yul\":10684:10690   */\n      dup4\n        /* \"#utility.yul\":10681:10682   */\n      dup2\n        /* \"#utility.yul\":10678:10691   */\n      gt\n        /* \"#utility.yul\":10675:10776   */\n      iszero\n      tag_307\n      jumpi\n        /* \"#utility.yul\":10764:10765   */\n      0x00\n        /* \"#utility.yul\":10755:10761   */\n      dup5\n        /* \"#utility.yul\":10750:10753   */\n      dup5\n        /* \"#utility.yul\":10746:10762   */\n      add\n        /* \"#utility.yul\":10739:10766   */\n      mstore\n        /* \"#utility.yul\":10675:10776   */\n    tag_307:\n        /* \"#utility.yul\":10524:10782   */\n      pop\n        /* \"#utility.yul\":10475:10782   */\n      pop\n      pop\n      pop\n      jump\t// out\n        /* \"#utility.yul\":10788:11108   */\n    tag_106:\n        /* \"#utility.yul\":10832:10838   */\n      0x00\n        /* \"#utility.yul\":10869:10870   */\n      0x02\n        /* \"#utility.yul\":10863:10867   */\n      dup3\n        /* \"#utility.yul\":10859:10871   */\n      div\n        /* \"#utility.yul\":10849:10871   */\n      swap1\n      pop\n        /* \"#utility.yul\":10916:10917   */\n      0x01\n        /* \"#utility.yul\":10910:10914   */\n      dup3\n        /* \"#utility.yul\":10906:10918   */\n      and\n        /* \"#utility.yul\":10937:10955   */\n      dup1\n        /* \"#utility.yul\":10927:11008   */\n      tag_309\n      jumpi\n        /* \"#utility.yul\":10993:10997   */\n      0x7f\n        /* \"#utility.yul\":10985:10991   */\n      dup3\n        /* \"#utility.yul\":10981:10998   */\n      and\n        /* \"#utility.yul\":10971:10998   */\n      swap2\n      pop\n        /* \"#utility.yul\":10927:11008   */\n    tag_309:\n        /* \"#utility.yul\":11055:11057   */\n      0x20\n        /* \"#utility.yul\":11047:11053   */\n      dup3\n        /* \"#utility.yul\":11044:11058   */\n      lt\n        /* \"#utility.yul\":11024:11042   */\n      dup2\n        /* \"#utility.yul\":11021:11059   */\n      eq\n        /* \"#utility.yul\":11018:11102   */\n      iszero\n      tag_310\n      jumpi\n        /* \"#utility.yul\":11074:11092   */\n      tag_311\n      tag_312\n      jump\t// in\n    tag_311:\n        /* \"#utility.yul\":11018:11102   */\n    tag_310:\n        /* \"#utility.yul\":10839:11108   */\n      pop\n        /* \"#utility.yul\":10788:11108   */\n      swap2\n      swap1\n      pop\n      jump\t// out\n        /* \"#utility.yul\":11114:11347   */\n    tag_99:\n        /* \"#utility.yul\":11153:11156   */\n      0x00\n        /* \"#utility.yul\":11176:11200   */\n      tag_314\n        /* \"#utility.yul\":11194:11199   */\n      dup3\n        /* \"#utility.yul\":11176:11200   */\n      tag_249\n      jump\t// in\n    tag_314:\n        /* \"#utility.yul\":11167:11200   */\n      swap2\n      pop\n        /* \"#utility.yul\":11222:11288   */\n      0xffffffffffffffffffffffffffffffffffffffffffffffffffffffffffffffff\n        /* \"#utility.yul\":11215:11220   */\n      dup3\n        /* \"#utility.yul\":11212:11289   */\n      eq\n        /* \"#utility.yul\":11209:11312   */\n      iszero\n      tag_315\n      jumpi\n        /* \"#utility.yul\":11292:11310   */\n      tag_316\n      tag_317\n      jump\t// in\n    tag_316:\n        /* \"#utility.yul\":11209:11312   */\n    tag_315:\n        /* \"#utility.yul\":11339:11340   */\n      0x01\n        /* \"#utility.yul\":11332:11337   */\n      dup3\n        /* \"#utility.yul\":11328:11341   */\n      add\n        /* \"#utility.yul\":11321:11341   */\n      swap1\n      pop\n        /* \"#utility.yul\":11114:11347   */\n      swap2\n      swap1\n      pop\n      jump\t// out\n        /* \"#utility.yul\":11353:11533   */\n    tag_317:\n        /* \"#utility.yul\":11401:11478   */\n      0x4e487b7100000000000000000000000000000000000000000000000000000000\n        /* \"#utility.yul\":11398:11399   */\n      0x00\n        /* \"#utility.yul\":11391:11479   */\n      mstore\n        /* \"#utility.yul\":11498:11502   */\n      0x11\n        /* \"#utility.yul\":11495:11496   */\n      0x04\n        /* \"#utility.yul\":11488:11503   */\n      mstore\n        /* \"#utility.yul\":11522:11526   */\n      0x24\n        /* \"#utility.yul\":11519:11520   */\n      0x00\n        /* \"#utility.yul\":11512:11527   */\n      revert\n        /* \"#utility.yul\":11539:11719   */\n    tag_91:\n        /* \"#utility.yul\":11587:11664   */\n      0x4e487b7100000000000000000000000000000000000000000000000000000000\n        /* \"#utility.yul\":11584:11585   */\n      0x00\n        /* \"#utility.yul\":11577:11665   */\n      mstore\n        /* \"#utility.yul\":11684:11688   */\n      0x21\n        /* \"#utility.yul\":11681:11682   */\n      0x04\n        /* \"#utility.yul\":11674:11689   */\n      mstore\n        /* \"#utility.yul\":11708:11712   */\n      0x24\n        /* \"#utility.yul\":11705:11706   */\n      0x00\n        /* \"#utility.yul\":11698:11713   */\n      revert\n        /* \"#utility.yul\":11725:11905   */\n    tag_312:\n        /* \"#utility.yul\":11773:11850   */\n      0x4e487b7100000000000000000000000000000000000000000000000000000000\n        /* \"#utility.yul\":11770:11771   */\n      0x00\n        /* \"#utility.yul\":11763:11851   */\n      mstore\n        /* \"#utility.yul\":11870:11874   */\n      0x22\n        /* \"#utility.yul\":11867:11868   */\n      0x04\n        /* \"#utility.yul\":11860:11875   */\n      mstore\n        /* \"#utility.yul\":11894:11898   */\n      0x24\n        /* \"#utility.yul\":11891:11892   */\n      0x00\n        /* \"#utility.yul\":11884:11899   */\n      revert\n        /* \"#utility.yul\":12034:12151   */\n    tag_186:\n        /* \"#utility.yul\":12143:12144   */\n      0x00\n        /* \"#utility.yul\":12140:12141   */\n      dup1\n        /* \"#utility.yul\":12133:12145   */\n      revert\n        /* \"#utility.yul\":12157:12259   */\n    tag_223:\n        /* \"#utility.yul\":12198:12204   */\n      0x00\n        /* \"#utility.yul\":12249:12251   */\n      0x1f\n        /* \"#utility.yul\":12245:12252   */\n      not\n        /* \"#utility.yul\":12240:12242   */\n      0x1f\n        /* \"#utility.yul\":12233:12238   */\n      dup4\n        /* \"#utility.yul\":12229:12243   */\n      add\n        /* \"#utility.yul\":12225:12253   */\n      and\n        /* \"#utility.yul\":12215:12253   */\n      swap1\n      pop\n        /* \"#utility.yul\":12157:12259   */\n      swap2\n      swap1\n      pop\n      jump\t// out\n        /* \"#utility.yul\":12265:12494   */\n    tag_235:\n        /* \"#utility.yul\":12405:12439   */\n      0x506c656173652070726f7669646520612076616c696420706f6c6c696e672073\n        /* \"#utility.yul\":12401:12402   */\n      0x00\n        /* \"#utility.yul\":12393:12399   */\n      dup3\n        /* \"#utility.yul\":12389:12403   */\n      add\n        /* \"#utility.yul\":12382:12440   */\n      mstore\n        /* \"#utility.yul\":12474:12486   */\n      0x746174696f6e2049442e00000000000000000000000000000000000000000000\n        /* \"#utility.yul\":12469:12471   */\n      0x20\n        /* \"#utility.yul\":12461:12467   */\n      dup3\n        /* \"#utility.yul\":12457:12472   */\n      add\n        /* \"#utility.yul\":12450:12487   */\n      mstore\n        /* \"#utility.yul\":12265:12494   */\n      pop\n      jump\t// out\n        /* \"#utility.yul\":12500:12678   */\n    tag_240:\n        /* \"#utility.yul\":12640:12670   */\n      0x566f74657220697320616c726561647920726567697374657265642e00000000\n        /* \"#utility.yul\":12636:12637   */\n      0x00\n        /* \"#utility.yul\":12628:12634   */\n      dup3\n        /* \"#utility.yul\":12624:12638   */\n      add\n        /* \"#utility.yul\":12617:12671   */\n      mstore\n        /* \"#utility.yul\":12500:12678   */\n      pop\n      jump\t// out\n        /* \"#utility.yul\":12684:12797   */\n    tag_298:\n        /* \"#utility.yul\":12765:12766   */\n      0x03\n        /* \"#utility.yul\":12758:12763   */\n      dup2\n        /* \"#utility.yul\":12755:12767   */\n      lt\n        /* \"#utility.yul\":12745:12791   */\n      tag_328\n      jumpi\n        /* \"#utility.yul\":12771:12789   */\n      tag_329\n      tag_91\n      jump\t// in\n    tag_329:\n        /* \"#utility.yul\":12745:12791   */\n    tag_328:\n        /* \"#utility.yul\":12684:12797   */\n      pop\n      jump\t// out\n        /* \"#utility.yul\":12803:12925   */\n    tag_178:\n        /* \"#utility.yul\":12876:12900   */\n      tag_331\n        /* \"#utility.yul\":12894:12899   */\n      dup2\n        /* \"#utility.yul\":12876:12900   */\n      tag_205\n      jump\t// in\n    tag_331:\n        /* \"#utility.yul\":12869:12874   */\n      dup2\n        /* \"#utility.yul\":12866:12901   */\n      eq\n        /* \"#utility.yul\":12856:12919   */\n      tag_332\n      jumpi\n        /* \"#utility.yul\":12915:12916   */\n      0x00\n        /* \"#utility.yul\":12912:12913   */\n      dup1\n        /* \"#utility.yul\":12905:12917   */\n      revert\n        /* \"#utility.yul\":12856:12919   */\n    tag_332:\n        /* \"#utility.yul\":12803:12925   */\n      pop\n      jump\t// out\n        /* \"#utility.yul\":12931:13053   */\n    tag_182:\n        /* \"#utility.yul\":13004:13028   */\n      tag_334\n        /* \"#utility.yul\":13022:13027   */\n      dup2\n        /* \"#utility.yul\":13004:13028   */\n      tag_249\n      jump\t// in\n    tag_334:\n        /* \"#utility.yul\":12997:13002   */\n      dup2\n        /* \"#utility.yul\":12994:13029   */\n      eq\n        /* \"#utility.yul\":12984:13047   */\n      tag_335\n      jumpi\n        /* \"#utility.yul\":13043:13044   */\n      0x00\n        /* \"#utility.yul\":13040:13041   */\n      dup1\n        /* \"#utility.yul\":13033:13045   */\n      revert\n        /* \"#utility.yul\":12984:13047   */\n    tag_335:\n        /* \"#utility.yul\":12931:13053   */\n      pop\n      jump\t// out\n\n    auxdata: 0xa264697066735822122006598f004f2e439b323b06041ea523de85907e9ed652ceaa536e7e802ce8647964736f6c63430008070033\n}\n",
				"bytecode": {
					"linkReferences": {},
					"object": "60806040523480156200001157600080fd5b50336000806101000a81548173ffffffffffffffffffffffffffffffffffffffff021916908373ffffffffffffffffffffffffffffffffffffffff16021790555062000062620000a660201b60201c565b620000726200036460201b60201c565b6000600b60006101000a81548160ff021916908360028111156200009b576200009a620007cd565b5b02179055506200082b565b620000ec6040518060400160405280601181526020017f506f6c6c696e672053746174696f6e2031000000000000000000000000000000815250620004c460201b60201c565b620001326040518060400160405280601181526020017f506f6c6c696e672053746174696f6e2032000000000000000000000000000000815250620004c460201b60201c565b620001786040518060400160405280601181526020017f506f6c6c696e672053746174696f6e2033000000000000000000000000000000815250620004c460201b60201c565b620001be6040518060400160405280601181526020017f506f6c6c696e672053746174696f6e2034000000000000000000000000000000815250620004c460201b60201c565b620002046040518060400160405280601181526020017f506f6c6c696e672053746174696f6e2035000000000000000000000000000000815250620004c460201b60201c565b6200024a6040518060400160405280601181526020017f506f6c6c696e672053746174696f6e2036000000000000000000000000000000815250620004c460201b60201c565b620002906040518060400160405280601181526020017f506f6c6c696e672053746174696f6e2037000000000000000000000000000000815250620004c460201b60201c565b620002d66040518060400160405280601181526020017f506f6c6c696e672053746174696f6e2038000000000000000000000000000000815250620004c460201b60201c565b6200031c6040518060400160405280601181526020017f506f6c6c696e672053746174696f6e2039000000000000000000000000000000815250620004c460201b60201c565b620003626040518060400160405280601281526020017f506f6c6c696e672053746174696f6e2031300000000000000000000000000000815250620004c460201b60201c565b565b620003aa6040518060400160405280600b81526020017f43616e64696461746520310000000000000000000000000000000000000000008152506200053560201b60201c565b620003f06040518060400160405280600b81526020017f43616e64696461746520320000000000000000000000000000000000000000008152506200053560201b60201c565b620004366040518060400160405280600b81526020017f43616e64696461746520330000000000000000000000000000000000000000008152506200053560201b60201c565b6200047c6040518060400160405280600b81526020017f43616e64696461746520340000000000000000000000000000000000000000008152506200053560201b60201c565b620004c26040518060400160405280600b81526020017f43616e64696461746520350000000000000000000000000000000000000000008152506200053560201b60201c565b565b60026000815480929190620004d99062000750565b9190505550600060086000600254815260200190815260200160002090506002548160000181905550818160010190805190602001906200051c92919062000660565b5060008160020181905550600081600301819055505050565b600160008154809291906200054a9062000750565b9190505550604051806060016040528060015481526020018281526020016000815250600660006001548152602001908152602001600020600082015181600001556020820151816001019080519060200190620005aa92919062000660565b50604082015181600201559050506000600190505b60025481116200065c5760405180606001604052806001548152602001838152602001600081525060086000838152602001908152602001600020600401600060015481526020019081526020016000206000820151816000015560208201518160010190805190602001906200063892919062000660565b50604082015181600201559050508080620006539062000750565b915050620005bf565b5050565b8280546200066e906200071a565b90600052602060002090601f016020900481019282620006925760008555620006de565b82601f10620006ad57805160ff1916838001178555620006de565b82800160010185558215620006de579182015b82811115620006dd578251825591602001919060010190620006c0565b5b509050620006ed9190620006f1565b5090565b5b808211156200070c576000816000905550600101620006f2565b5090565b6000819050919050565b600060028204905060018216806200073357607f821691505b602082108114156200074a5762000749620007fc565b5b50919050565b60006200075d8262000710565b91507fffffffffffffffffffffffffffffffffffffffffffffffffffffffffffffffff8214156200079357620007926200079e565b5b600182019050919050565b7f4e487b7100000000000000000000000000000000000000000000000000000000600052601160045260246000fd5b7f4e487b7100000000000000000000000000000000000000000000000000000000600052602160045260246000fd5b7f4e487b7100000000000000000000000000000000000000000000000000000000600052602260045260246000fd5b6115bd806200083b6000396000f3fe608060405234801561001057600080fd5b50600436106100ff5760003560e01c8063a3ec138d11610097578063d3808ae011610066578063d3808ae0146102a2578063df9f1a07146102d2578063f3a8286f146102f0578063fe2442d71461030e576100ff565b8063a3ec138d1461022e578063b92239461461025e578063b9f05f2f14610268578063c19d93fb14610284576100ff565b80633477ee2e116100d35780633477ee2e146101a05780634763d4e7146101d25780634c0a6af01461020657806353357ad014610210576100ff565b8062aa7464146101045780632a41742e146101225780632c0a3f89146101525780632d35a8a214610182575b600080fd5b61010c610341565b604051610119919061123d565b60405180910390f35b61013c60048036038101906101379190610f6d565b610347565b604051610149919061123d565b60405180910390f35b61016c60048036038101906101679190610f6d565b61037c565b604051610179919061111b565b60405180910390f35b61018a6106aa565b604051610197919061123d565b60405180910390f35b6101ba60048036038101906101b59190610f40565b6106b0565b6040516101c993929190611258565b60405180910390f35b6101ec60048036038101906101e79190610ed3565b610762565b6040516101fd959493929190611136565b60405180910390f35b61020e6107b2565b005b610218610879565b6040516102259190611100565b60405180910390f35b61024860048036038101906102439190610ed3565b61089d565b604051610255919061111b565b60405180910390f35b6102666108bd565b005b610282600480360381019061027d9190610f00565b61098d565b005b61028c610c20565b60405161029991906111c0565b60405180910390f35b6102bc60048036038101906102b79190610f6d565b610c33565b6040516102c9919061121b565b60405180910390f35b6102da610d1b565b6040516102e7919061123d565b60405180910390f35b6102f8610d21565b604051610305919061123d565b60405180910390f35b61032860048036038101906103239190610f40565b610d27565b6040516103389493929190611296565b60405180910390f35b60035481565b600060086000848152602001908152602001600020600401600083815260200190815260200160002060020154905092915050565b6000600180600281111561039357610392611459565b5b600b60009054906101000a900460ff1660028111156103b5576103b4611459565b5b146103bf57600080fd5b6000600960003373ffffffffffffffffffffffffffffffffffffffff1673ffffffffffffffffffffffffffffffffffffffff16815260200190815260200160002060000160009054906101000a900460ff16801561046a5750600960003373ffffffffffffffffffffffffffffffffffffffff1673ffffffffffffffffffffffffffffffffffffffff16815260200190815260200160002060000160019054906101000a900460ff16155b1561069f5784600960003373ffffffffffffffffffffffffffffffffffffffff1673ffffffffffffffffffffffffffffffffffffffff1681526020019081526020016000206001018190555083600960003373ffffffffffffffffffffffffffffffffffffffff1673ffffffffffffffffffffffffffffffffffffffff168152602001908152602001600020600301819055506001600960003373ffffffffffffffffffffffffffffffffffffffff1673ffffffffffffffffffffffffffffffffffffffff16815260200190815260200160002060000160016101000a81548160ff02191690831515021790555060086000858152602001908152602001600020600301600081548092919061057f906113e1565b91905055506006600086815260200190815260200160002060020160008154809291906105ab906113e1565b9190505550600460008154809291906105c3906113e1565b91905055506001905080600a60003373ffffffffffffffffffffffffffffffffffffffff1673ffffffffffffffffffffffffffffffffffffffff16815260200190815260200160002060006101000a81548160ff021916908315150217905550600860008581526020019081526020016000206004016000868152602001908152602001600020600201600081548092919061065e906113e1565b91905055507f29a25b3d0b6ff7e5de2a60a2e8e76d1bdaf4894ec18c598cc1687213f442c5cb81868660405161069693929190611189565b60405180910390a15b809250505092915050565b60015481565b60066020528060005260406000206000915090508060000154908060010180546106d9906113af565b80601f0160208091040260200160405190810160405280929190818152602001828054610705906113af565b80156107525780601f1061072757610100808354040283529160200191610752565b820191906000526020600020905b81548152906001019060200180831161073557829003601f168201915b5050505050908060020154905083565b60096020528060005260406000206000915090508060000160009054906101000a900460ff16908060000160019054906101000a900460ff16908060010154908060020154908060030154905085565b60008060028111156107c7576107c6611459565b5b600b60009054906101000a900460ff1660028111156107e9576107e8611459565b5b146107f357600080fd5b60008054906101000a900473ffffffffffffffffffffffffffffffffffffffff1673ffffffffffffffffffffffffffffffffffffffff163373ffffffffffffffffffffffffffffffffffffffff161461084b57600080fd5b6001600b60006101000a81548160ff0219169083600281111561087157610870611459565b5b021790555050565b60008054906101000a900473ffffffffffffffffffffffffffffffffffffffff1681565b600a6020528060005260406000206000915054906101000a900460ff1681565b60018060028111156108d2576108d1611459565b5b600b60009054906101000a900460ff1660028111156108f4576108f3611459565b5b146108fe57600080fd5b60008054906101000a900473ffffffffffffffffffffffffffffffffffffffff1673ffffffffffffffffffffffffffffffffffffffff163373ffffffffffffffffffffffffffffffffffffffff161461095657600080fd5b6002600b60006101000a81548160ff0219169083600281111561097c5761097b611459565b5b021790555060045460058190555050565b60008060028111156109a2576109a1611459565b5b600b60009054906101000a900460ff1660028111156109c4576109c3611459565b5b146109ce57600080fd5b60008054906101000a900473ffffffffffffffffffffffffffffffffffffffff1673ffffffffffffffffffffffffffffffffffffffff163373ffffffffffffffffffffffffffffffffffffffff1614610a2657600080fd5b60001515600960008573ffffffffffffffffffffffffffffffffffffffff1673ffffffffffffffffffffffffffffffffffffffff16815260200190815260200160002060000160009054906101000a900460ff16151514610abc576040517f08c379a0000000000000000000000000000000000000000000000000000000008152600401610ab3906111fb565b60405180910390fd5b60018210158015610acf57506002548211155b610b0e576040517f08c379a0000000000000000000000000000000000000000000000000000000008152600401610b05906111db565b60405180910390fd5b610b16610e55565b60018160000190151590811515815250506000816020019015159081151581525050600081604001818152505082816060018181525050600081608001818152505080600960008673ffffffffffffffffffffffffffffffffffffffff1673ffffffffffffffffffffffffffffffffffffffff16815260200190815260200160002060008201518160000160006101000a81548160ff02191690831515021790555060208201518160000160016101000a81548160ff021916908315150217905550604082015181600101556060820151816002015560808201518160030155905050610c0283610ddf565b60036000815480929190610c15906113e1565b919050555050505050565b600b60009054906101000a900460ff1681565b610c3b610e88565b60086000848152602001908152602001600020600401600083815260200190815260200160002060405180606001604052908160008201548152602001600182018054610c87906113af565b80601f0160208091040260200160405190810160405280929190818152602001828054610cb3906113af565b8015610d005780601f10610cd557610100808354040283529160200191610d00565b820191906000526020600020905b815481529060010190602001808311610ce357829003601f168201915b50505050508152602001600282015481525050905092915050565b60025481565b60055481565b6008602052806000526040600020600091509050806000015490806001018054610d50906113af565b80601f0160208091040260200160405190810160405280929190818152602001828054610d7c906113af565b8015610dc95780601f10610d9e57610100808354040283529160200191610dc9565b820191906000526020600020905b815481529060010190602001808311610dac57829003601f168201915b5050505050908060020154908060030154905084565b6000600190505b6002548111610e51578160086000838152602001908152602001600020600001541415610e3e57600860008281526020019081526020016000206002016000815480929190610e34906113e1565b9190505550610e51565b8080610e49906113e1565b915050610de6565b5050565b6040518060a001604052806000151581526020016000151581526020016000815260200160008152602001600081525090565b60405180606001604052806000815260200160608152602001600081525090565b600081359050610eb881611559565b92915050565b600081359050610ecd81611570565b92915050565b600060208284031215610ee957610ee86114b7565b5b6000610ef784828501610ea9565b91505092915050565b60008060408385031215610f1757610f166114b7565b5b6000610f2585828601610ea9565b9250506020610f3685828601610ebe565b9150509250929050565b600060208284031215610f5657610f556114b7565b5b6000610f6484828501610ebe565b91505092915050565b60008060408385031215610f8457610f836114b7565b5b6000610f9285828601610ebe565b9250506020610fa385828601610ebe565b9150509250929050565b610fb68161130f565b82525050565b610fc581611321565b82525050565b610fd48161136a565b82525050565b6000610fe5826112e2565b610fef81856112ed565b9350610fff81856020860161137c565b611008816114bc565b840191505092915050565b600061101e826112e2565b61102881856112fe565b935061103881856020860161137c565b611041816114bc565b840191505092915050565b6000611059602a836112fe565b9150611064826114cd565b604082019050919050565b600061107c601c836112fe565b91506110878261151c565b602082019050919050565b60006060830160008301516110aa60008601826110e2565b50602083015184820360208601526110c28282610fda565b91505060408301516110d760408601826110e2565b508091505092915050565b6110eb81611360565b82525050565b6110fa81611360565b82525050565b60006020820190506111156000830184610fad565b92915050565b60006020820190506111306000830184610fbc565b92915050565b600060a08201905061114b6000830188610fbc565b6111586020830187610fbc565b61116560408301866110f1565b61117260608301856110f1565b61117f60808301846110f1565b9695505050505050565b600060608201905061119e6000830186610fbc565b6111ab60208301856110f1565b6111b860408301846110f1565b949350505050565b60006020820190506111d56000830184610fcb565b92915050565b600060208201905081810360008301526111f48161104c565b9050919050565b600060208201905081810360008301526112148161106f565b9050919050565b600060208201905081810360008301526112358184611092565b905092915050565b600060208201905061125260008301846110f1565b92915050565b600060608201905061126d60008301866110f1565b818103602083015261127f8185611013565b905061128e60408301846110f1565b949350505050565b60006080820190506112ab60008301876110f1565b81810360208301526112bd8186611013565b90506112cc60408301856110f1565b6112d960608301846110f1565b95945050505050565b600081519050919050565b600082825260208201905092915050565b600082825260208201905092915050565b600061131a82611340565b9050919050565b60008115159050919050565b600081905061133b82611545565b919050565b600073ffffffffffffffffffffffffffffffffffffffff82169050919050565b6000819050919050565b60006113758261132d565b9050919050565b60005b8381101561139a57808201518184015260208101905061137f565b838111156113a9576000848401525b50505050565b600060028204905060018216806113c757607f821691505b602082108114156113db576113da611488565b5b50919050565b60006113ec82611360565b91507fffffffffffffffffffffffffffffffffffffffffffffffffffffffffffffffff82141561141f5761141e61142a565b5b600182019050919050565b7f4e487b7100000000000000000000000000000000000000000000000000000000600052601160045260246000fd5b7f4e487b7100000000000000000000000000000000000000000000000000000000600052602160045260246000fd5b7f4e487b7100000000000000000000000000000000000000000000000000000000600052602260045260246000fd5b600080fd5b6000601f19601f8301169050919050565b7f506c656173652070726f7669646520612076616c696420706f6c6c696e67207360008201527f746174696f6e2049442e00000000000000000000000000000000000000000000602082015250565b7f566f74657220697320616c726561647920726567697374657265642e00000000600082015250565b6003811061155657611555611459565b5b50565b6115628161130f565b811461156d57600080fd5b50565b61157981611360565b811461158457600080fd5b5056fea264697066735822122006598f004f2e439b323b06041ea523de85907e9ed652ceaa536e7e802ce8647964736f6c63430008070033",
					"opcodes": "PUSH1 0x80 PUSH1 0x40 MSTORE CALLVALUE DUP1 ISZERO PUSH3 0x11 JUMPI PUSH1 0x0 DUP1 REVERT JUMPDEST POP CALLER PUSH1 0x0 DUP1 PUSH2 0x100 EXP DUP2 SLOAD DUP2 PUSH20 0xFFFFFFFFFFFFFFFFFFFFFFFFFFFFFFFFFFFFFFFF MUL NOT AND SWAP1 DUP4 PUSH20 0xFFFFFFFFFFFFFFFFFFFFFFFFFFFFFFFFFFFFFFFF AND MUL OR SWAP1 SSTORE POP PUSH3 0x62 PUSH3 0xA6 PUSH1 0x20 SHL PUSH1 0x20 SHR JUMP JUMPDEST PUSH3 0x72 PUSH3 0x364 PUSH1 0x20 SHL PUSH1 0x20 SHR JUMP JUMPDEST PUSH1 0x0 PUSH1 0xB PUSH1 0x0 PUSH2 0x100 EXP DUP2 SLOAD DUP2 PUSH1 0xFF MUL NOT AND SWAP1 DUP4 PUSH1 0x2 DUP2 GT ISZERO PUSH3 0x9B JUMPI PUSH3 0x9A PUSH3 0x7CD JUMP JUMPDEST JUMPDEST MUL OR SWAP1 SSTORE POP PUSH3 0x82B JUMP JUMPDEST PUSH3 0xEC PUSH1 0x40 MLOAD DUP1 PUSH1 0x40 ADD PUSH1 0x40 MSTORE DUP1 PUSH1 0x11 DUP2 MSTORE PUSH1 0x20 ADD PUSH32 0x506F6C6C696E672053746174696F6E2031000000000000000000000000000000 DUP2 MSTORE POP PUSH3 0x4C4 PUSH1 0x20 SHL PUSH1 0x20 SHR JUMP JUMPDEST PUSH3 0x132 PUSH1 0x40 MLOAD DUP1 PUSH1 0x40 ADD PUSH1 0x40 MSTORE DUP1 PUSH1 0x11 DUP2 MSTORE PUSH1 0x20 ADD PUSH32 0x506F6C6C696E672053746174696F6E2032000000000000000000000000000000 DUP2 MSTORE POP PUSH3 0x4C4 PUSH1 0x20 SHL PUSH1 0x20 SHR JUMP JUMPDEST PUSH3 0x178 PUSH1 0x40 MLOAD DUP1 PUSH1 0x40 ADD PUSH1 0x40 MSTORE DUP1 PUSH1 0x11 DUP2 MSTORE PUSH1 0x20 ADD PUSH32 0x506F6C6C696E672053746174696F6E2033000000000000000000000000000000 DUP2 MSTORE POP PUSH3 0x4C4 PUSH1 0x20 SHL PUSH1 0x20 SHR JUMP JUMPDEST PUSH3 0x1BE PUSH1 0x40 MLOAD DUP1 PUSH1 0x40 ADD PUSH1 0x40 MSTORE DUP1 PUSH1 0x11 DUP2 MSTORE PUSH1 0x20 ADD PUSH32 0x506F6C6C696E672053746174696F6E2034000000000000000000000000000000 DUP2 MSTORE POP PUSH3 0x4C4 PUSH1 0x20 SHL PUSH1 0x20 SHR JUMP JUMPDEST PUSH3 0x204 PUSH1 0x40 MLOAD DUP1 PUSH1 0x40 ADD PUSH1 0x40 MSTORE DUP1 PUSH1 0x11 DUP2 MSTORE PUSH1 0x20 ADD PUSH32 0x506F6C6C696E672053746174696F6E2035000000000000000000000000000000 DUP2 MSTORE POP PUSH3 0x4C4 PUSH1 0x20 SHL PUSH1 0x20 SHR JUMP JUMPDEST PUSH3 0x24A PUSH1 0x40 MLOAD DUP1 PUSH1 0x40 ADD PUSH1 0x40 MSTORE DUP1 PUSH1 0x11 DUP2 MSTORE PUSH1 0x20 ADD PUSH32 0x506F6C6C696E672053746174696F6E2036000000000000000000000000000000 DUP2 MSTORE POP PUSH3 0x4C4 PUSH1 0x20 SHL PUSH1 0x20 SHR JUMP JUMPDEST PUSH3 0x290 PUSH1 0x40 MLOAD DUP1 PUSH1 0x40 ADD PUSH1 0x40 MSTORE DUP1 PUSH1 0x11 DUP2 MSTORE PUSH1 0x20 ADD PUSH32 0x506F6C6C696E672053746174696F6E2037000000000000000000000000000000 DUP2 MSTORE POP PUSH3 0x4C4 PUSH1 0x20 SHL PUSH1 0x20 SHR JUMP JUMPDEST PUSH3 0x2D6 PUSH1 0x40 MLOAD DUP1 PUSH1 0x40 ADD PUSH1 0x40 MSTORE DUP1 PUSH1 0x11 DUP2 MSTORE PUSH1 0x20 ADD PUSH32 0x506F6C6C696E672053746174696F6E2038000000000000000000000000000000 DUP2 MSTORE POP PUSH3 0x4C4 PUSH1 0x20 SHL PUSH1 0x20 SHR JUMP JUMPDEST PUSH3 0x31C PUSH1 0x40 MLOAD DUP1 PUSH1 0x40 ADD PUSH1 0x40 MSTORE DUP1 PUSH1 0x11 DUP2 MSTORE PUSH1 0x20 ADD PUSH32 0x506F6C6C696E672053746174696F6E2039000000000000000000000000000000 DUP2 MSTORE POP PUSH3 0x4C4 PUSH1 0x20 SHL PUSH1 0x20 SHR JUMP JUMPDEST PUSH3 0x362 PUSH1 0x40 MLOAD DUP1 PUSH1 0x40 ADD PUSH1 0x40 MSTORE DUP1 PUSH1 0x12 DUP2 MSTORE PUSH1 0x20 ADD PUSH32 0x506F6C6C696E672053746174696F6E2031300000000000000000000000000000 DUP2 MSTORE POP PUSH3 0x4C4 PUSH1 0x20 SHL PUSH1 0x20 SHR JUMP JUMPDEST JUMP JUMPDEST PUSH3 0x3AA PUSH1 0x40 MLOAD DUP1 PUSH1 0x40 ADD PUSH1 0x40 MSTORE DUP1 PUSH1 0xB DUP2 MSTORE PUSH1 0x20 ADD PUSH32 0x43616E6469646174652031000000000000000000000000000000000000000000 DUP2 MSTORE POP PUSH3 0x535 PUSH1 0x20 SHL PUSH1 0x20 SHR JUMP JUMPDEST PUSH3 0x3F0 PUSH1 0x40 MLOAD DUP1 PUSH1 0x40 ADD PUSH1 0x40 MSTORE DUP1 PUSH1 0xB DUP2 MSTORE PUSH1 0x20 ADD PUSH32 0x43616E6469646174652032000000000000000000000000000000000000000000 DUP2 MSTORE POP PUSH3 0x535 PUSH1 0x20 SHL PUSH1 0x20 SHR JUMP JUMPDEST PUSH3 0x436 PUSH1 0x40 MLOAD DUP1 PUSH1 0x40 ADD PUSH1 0x40 MSTORE DUP1 PUSH1 0xB DUP2 MSTORE PUSH1 0x20 ADD PUSH32 0x43616E6469646174652033000000000000000000000000000000000000000000 DUP2 MSTORE POP PUSH3 0x535 PUSH1 0x20 SHL PUSH1 0x20 SHR JUMP JUMPDEST PUSH3 0x47C PUSH1 0x40 MLOAD DUP1 PUSH1 0x40 ADD PUSH1 0x40 MSTORE DUP1 PUSH1 0xB DUP2 MSTORE PUSH1 0x20 ADD PUSH32 0x43616E6469646174652034000000000000000000000000000000000000000000 DUP2 MSTORE POP PUSH3 0x535 PUSH1 0x20 SHL PUSH1 0x20 SHR JUMP JUMPDEST PUSH3 0x4C2 PUSH1 0x40 MLOAD DUP1 PUSH1 0x40 ADD PUSH1 0x40 MSTORE DUP1 PUSH1 0xB DUP2 MSTORE PUSH1 0x20 ADD PUSH32 0x43616E6469646174652035000000000000000000000000000000000000000000 DUP2 MSTORE POP PUSH3 0x535 PUSH1 0x20 SHL PUSH1 0x20 SHR JUMP JUMPDEST JUMP JUMPDEST PUSH1 0x2 PUSH1 0x0 DUP2 SLOAD DUP1 SWAP3 SWAP2 SWAP1 PUSH3 0x4D9 SWAP1 PUSH3 0x750 JUMP JUMPDEST SWAP2 SWAP1 POP SSTORE POP PUSH1 0x0 PUSH1 0x8 PUSH1 0x0 PUSH1 0x2 SLOAD DUP2 MSTORE PUSH1 0x20 ADD SWAP1 DUP2 MSTORE PUSH1 0x20 ADD PUSH1 0x0 KECCAK256 SWAP1 POP PUSH1 0x2 SLOAD DUP2 PUSH1 0x0 ADD DUP2 SWAP1 SSTORE POP DUP2 DUP2 PUSH1 0x1 ADD SWAP1 DUP1 MLOAD SWAP1 PUSH1 0x20 ADD SWAP1 PUSH3 0x51C SWAP3 SWAP2 SWAP1 PUSH3 0x660 JUMP JUMPDEST POP PUSH1 0x0 DUP2 PUSH1 0x2 ADD DUP2 SWAP1 SSTORE POP PUSH1 0x0 DUP2 PUSH1 0x3 ADD DUP2 SWAP1 SSTORE POP POP POP JUMP JUMPDEST PUSH1 0x1 PUSH1 0x0 DUP2 SLOAD DUP1 SWAP3 SWAP2 SWAP1 PUSH3 0x54A SWAP1 PUSH3 0x750 JUMP JUMPDEST SWAP2 SWAP1 POP SSTORE POP PUSH1 0x40 MLOAD DUP1 PUSH1 0x60 ADD PUSH1 0x40 MSTORE DUP1 PUSH1 0x1 SLOAD DUP2 MSTORE PUSH1 0x20 ADD DUP3 DUP2 MSTORE PUSH1 0x20 ADD PUSH1 0x0 DUP2 MSTORE POP PUSH1 0x6 PUSH1 0x0 PUSH1 0x1 SLOAD DUP2 MSTORE PUSH1 0x20 ADD SWAP1 DUP2 MSTORE PUSH1 0x20 ADD PUSH1 0x0 KECCAK256 PUSH1 0x0 DUP3 ADD MLOAD DUP2 PUSH1 0x0 ADD SSTORE PUSH1 0x20 DUP3 ADD MLOAD DUP2 PUSH1 0x1 ADD SWAP1 DUP1 MLOAD SWAP1 PUSH1 0x20 ADD SWAP1 PUSH3 0x5AA SWAP3 SWAP2 SWAP1 PUSH3 0x660 JUMP JUMPDEST POP PUSH1 0x40 DUP3 ADD MLOAD DUP2 PUSH1 0x2 ADD SSTORE SWAP1 POP POP PUSH1 0x0 PUSH1 0x1 SWAP1 POP JUMPDEST PUSH1 0x2 SLOAD DUP2 GT PUSH3 0x65C JUMPI PUSH1 0x40 MLOAD DUP1 PUSH1 0x60 ADD PUSH1 0x40 MSTORE DUP1 PUSH1 0x1 SLOAD DUP2 MSTORE PUSH1 0x20 ADD DUP4 DUP2 MSTORE PUSH1 0x20 ADD PUSH1 0x0 DUP2 MSTORE POP PUSH1 0x8 PUSH1 0x0 DUP4 DUP2 MSTORE PUSH1 0x20 ADD SWAP1 DUP2 MSTORE PUSH1 0x20 ADD PUSH1 0x0 KECCAK256 PUSH1 0x4 ADD PUSH1 0x0 PUSH1 0x1 SLOAD DUP2 MSTORE PUSH1 0x20 ADD SWAP1 DUP2 MSTORE PUSH1 0x20 ADD PUSH1 0x0 KECCAK256 PUSH1 0x0 DUP3 ADD MLOAD DUP2 PUSH1 0x0 ADD SSTORE PUSH1 0x20 DUP3 ADD MLOAD DUP2 PUSH1 0x1 ADD SWAP1 DUP1 MLOAD SWAP1 PUSH1 0x20 ADD SWAP1 PUSH3 0x638 SWAP3 SWAP2 SWAP1 PUSH3 0x660 JUMP JUMPDEST POP PUSH1 0x40 DUP3 ADD MLOAD DUP2 PUSH1 0x2 ADD SSTORE SWAP1 POP POP DUP1 DUP1 PUSH3 0x653 SWAP1 PUSH3 0x750 JUMP JUMPDEST SWAP2 POP POP PUSH3 0x5BF JUMP JUMPDEST POP POP JUMP JUMPDEST DUP3 DUP1 SLOAD PUSH3 0x66E SWAP1 PUSH3 0x71A JUMP JUMPDEST SWAP1 PUSH1 0x0 MSTORE PUSH1 0x20 PUSH1 0x0 KECCAK256 SWAP1 PUSH1 0x1F ADD PUSH1 0x20 SWAP1 DIV DUP2 ADD SWAP3 DUP3 PUSH3 0x692 JUMPI PUSH1 0x0 DUP6 SSTORE PUSH3 0x6DE JUMP JUMPDEST DUP3 PUSH1 0x1F LT PUSH3 0x6AD JUMPI DUP1 MLOAD PUSH1 0xFF NOT AND DUP4 DUP1 ADD OR DUP6 SSTORE PUSH3 0x6DE JUMP JUMPDEST DUP3 DUP1 ADD PUSH1 0x1 ADD DUP6 SSTORE DUP3 ISZERO PUSH3 0x6DE JUMPI SWAP2 DUP3 ADD JUMPDEST DUP3 DUP2 GT ISZERO PUSH3 0x6DD JUMPI DUP3 MLOAD DUP3 SSTORE SWAP2 PUSH1 0x20 ADD SWAP2 SWAP1 PUSH1 0x1 ADD SWAP1 PUSH3 0x6C0 JUMP JUMPDEST JUMPDEST POP SWAP1 POP PUSH3 0x6ED SWAP2 SWAP1 PUSH3 0x6F1 JUMP JUMPDEST POP SWAP1 JUMP JUMPDEST JUMPDEST DUP1 DUP3 GT ISZERO PUSH3 0x70C JUMPI PUSH1 0x0 DUP2 PUSH1 0x0 SWAP1 SSTORE POP PUSH1 0x1 ADD PUSH3 0x6F2 JUMP JUMPDEST POP SWAP1 JUMP JUMPDEST PUSH1 0x0 DUP2 SWAP1 POP SWAP2 SWAP1 POP JUMP JUMPDEST PUSH1 0x0 PUSH1 0x2 DUP3 DIV SWAP1 POP PUSH1 0x1 DUP3 AND DUP1 PUSH3 0x733 JUMPI PUSH1 0x7F DUP3 AND SWAP2 POP JUMPDEST PUSH1 0x20 DUP3 LT DUP2 EQ ISZERO PUSH3 0x74A JUMPI PUSH3 0x749 PUSH3 0x7FC JUMP JUMPDEST JUMPDEST POP SWAP2 SWAP1 POP JUMP JUMPDEST PUSH1 0x0 PUSH3 0x75D DUP3 PUSH3 0x710 JUMP JUMPDEST SWAP2 POP PUSH32 0xFFFFFFFFFFFFFFFFFFFFFFFFFFFFFFFFFFFFFFFFFFFFFFFFFFFFFFFFFFFFFFFF DUP3 EQ ISZERO PUSH3 0x793 JUMPI PUSH3 0x792 PUSH3 0x79E JUMP JUMPDEST JUMPDEST PUSH1 0x1 DUP3 ADD SWAP1 POP SWAP2 SWAP1 POP JUMP JUMPDEST PUSH32 0x4E487B7100000000000000000000000000000000000000000000000000000000 PUSH1 0x0 MSTORE PUSH1 0x11 PUSH1 0x4 MSTORE PUSH1 0x24 PUSH1 0x0 REVERT JUMPDEST PUSH32 0x4E487B7100000000000000000000000000000000000000000000000000000000 PUSH1 0x0 MSTORE PUSH1 0x21 PUSH1 0x4 MSTORE PUSH1 0x24 PUSH1 0x0 REVERT JUMPDEST PUSH32 0x4E487B7100000000000000000000000000000000000000000000000000000000 PUSH1 0x0 MSTORE PUSH1 0x22 PUSH1 0x4 MSTORE PUSH1 0x24 PUSH1 0x0 REVERT JUMPDEST PUSH2 0x15BD DUP1 PUSH3 0x83B PUSH1 0x0 CODECOPY PUSH1 0x0 RETURN INVALID PUSH1 0x80 PUSH1 0x40 MSTORE CALLVALUE DUP1 ISZERO PUSH2 0x10 JUMPI PUSH1 0x0 DUP1 REVERT JUMPDEST POP PUSH1 0x4 CALLDATASIZE LT PUSH2 0xFF JUMPI PUSH1 0x0 CALLDATALOAD PUSH1 0xE0 SHR DUP1 PUSH4 0xA3EC138D GT PUSH2 0x97 JUMPI DUP1 PUSH4 0xD3808AE0 GT PUSH2 0x66 JUMPI DUP1 PUSH4 0xD3808AE0 EQ PUSH2 0x2A2 JUMPI DUP1 PUSH4 0xDF9F1A07 EQ PUSH2 0x2D2 JUMPI DUP1 PUSH4 0xF3A8286F EQ PUSH2 0x2F0 JUMPI DUP1 PUSH4 0xFE2442D7 EQ PUSH2 0x30E JUMPI PUSH2 0xFF JUMP JUMPDEST DUP1 PUSH4 0xA3EC138D EQ PUSH2 0x22E JUMPI DUP1 PUSH4 0xB9223946 EQ PUSH2 0x25E JUMPI DUP1 PUSH4 0xB9F05F2F EQ PUSH2 0x268 JUMPI DUP1 PUSH4 0xC19D93FB EQ PUSH2 0x284 JUMPI PUSH2 0xFF JUMP JUMPDEST DUP1 PUSH4 0x3477EE2E GT PUSH2 0xD3 JUMPI DUP1 PUSH4 0x3477EE2E EQ PUSH2 0x1A0 JUMPI DUP1 PUSH4 0x4763D4E7 EQ PUSH2 0x1D2 JUMPI DUP1 PUSH4 0x4C0A6AF0 EQ PUSH2 0x206 JUMPI DUP1 PUSH4 0x53357AD0 EQ PUSH2 0x210 JUMPI PUSH2 0xFF JUMP JUMPDEST DUP1 PUSH3 0xAA7464 EQ PUSH2 0x104 JUMPI DUP1 PUSH4 0x2A41742E EQ PUSH2 0x122 JUMPI DUP1 PUSH4 0x2C0A3F89 EQ PUSH2 0x152 JUMPI DUP1 PUSH4 0x2D35A8A2 EQ PUSH2 0x182 JUMPI JUMPDEST PUSH1 0x0 DUP1 REVERT JUMPDEST PUSH2 0x10C PUSH2 0x341 JUMP JUMPDEST PUSH1 0x40 MLOAD PUSH2 0x119 SWAP2 SWAP1 PUSH2 0x123D JUMP JUMPDEST PUSH1 0x40 MLOAD DUP1 SWAP2 SUB SWAP1 RETURN JUMPDEST PUSH2 0x13C PUSH1 0x4 DUP1 CALLDATASIZE SUB DUP2 ADD SWAP1 PUSH2 0x137 SWAP2 SWAP1 PUSH2 0xF6D JUMP JUMPDEST PUSH2 0x347 JUMP JUMPDEST PUSH1 0x40 MLOAD PUSH2 0x149 SWAP2 SWAP1 PUSH2 0x123D JUMP JUMPDEST PUSH1 0x40 MLOAD DUP1 SWAP2 SUB SWAP1 RETURN JUMPDEST PUSH2 0x16C PUSH1 0x4 DUP1 CALLDATASIZE SUB DUP2 ADD SWAP1 PUSH2 0x167 SWAP2 SWAP1 PUSH2 0xF6D JUMP JUMPDEST PUSH2 0x37C JUMP JUMPDEST PUSH1 0x40 MLOAD PUSH2 0x179 SWAP2 SWAP1 PUSH2 0x111B JUMP JUMPDEST PUSH1 0x40 MLOAD DUP1 SWAP2 SUB SWAP1 RETURN JUMPDEST PUSH2 0x18A PUSH2 0x6AA JUMP JUMPDEST PUSH1 0x40 MLOAD PUSH2 0x197 SWAP2 SWAP1 PUSH2 0x123D JUMP JUMPDEST PUSH1 0x40 MLOAD DUP1 SWAP2 SUB SWAP1 RETURN JUMPDEST PUSH2 0x1BA PUSH1 0x4 DUP1 CALLDATASIZE SUB DUP2 ADD SWAP1 PUSH2 0x1B5 SWAP2 SWAP1 PUSH2 0xF40 JUMP JUMPDEST PUSH2 0x6B0 JUMP JUMPDEST PUSH1 0x40 MLOAD PUSH2 0x1C9 SWAP4 SWAP3 SWAP2 SWAP1 PUSH2 0x1258 JUMP JUMPDEST PUSH1 0x40 MLOAD DUP1 SWAP2 SUB SWAP1 RETURN JUMPDEST PUSH2 0x1EC PUSH1 0x4 DUP1 CALLDATASIZE SUB DUP2 ADD SWAP1 PUSH2 0x1E7 SWAP2 SWAP1 PUSH2 0xED3 JUMP JUMPDEST PUSH2 0x762 JUMP JUMPDEST PUSH1 0x40 MLOAD PUSH2 0x1FD SWAP6 SWAP5 SWAP4 SWAP3 SWAP2 SWAP1 PUSH2 0x1136 JUMP JUMPDEST PUSH1 0x40 MLOAD DUP1 SWAP2 SUB SWAP1 RETURN JUMPDEST PUSH2 0x20E PUSH2 0x7B2 JUMP JUMPDEST STOP JUMPDEST PUSH2 0x218 PUSH2 0x879 JUMP JUMPDEST PUSH1 0x40 MLOAD PUSH2 0x225 SWAP2 SWAP1 PUSH2 0x1100 JUMP JUMPDEST PUSH1 0x40 MLOAD DUP1 SWAP2 SUB SWAP1 RETURN JUMPDEST PUSH2 0x248 PUSH1 0x4 DUP1 CALLDATASIZE SUB DUP2 ADD SWAP1 PUSH2 0x243 SWAP2 SWAP1 PUSH2 0xED3 JUMP JUMPDEST PUSH2 0x89D JUMP JUMPDEST PUSH1 0x40 MLOAD PUSH2 0x255 SWAP2 SWAP1 PUSH2 0x111B JUMP JUMPDEST PUSH1 0x40 MLOAD DUP1 SWAP2 SUB SWAP1 RETURN JUMPDEST PUSH2 0x266 PUSH2 0x8BD JUMP JUMPDEST STOP JUMPDEST PUSH2 0x282 PUSH1 0x4 DUP1 CALLDATASIZE SUB DUP2 ADD SWAP1 PUSH2 0x27D SWAP2 SWAP1 PUSH2 0xF00 JUMP JUMPDEST PUSH2 0x98D JUMP JUMPDEST STOP JUMPDEST PUSH2 0x28C PUSH2 0xC20 JUMP JUMPDEST PUSH1 0x40 MLOAD PUSH2 0x299 SWAP2 SWAP1 PUSH2 0x11C0 JUMP JUMPDEST PUSH1 0x40 MLOAD DUP1 SWAP2 SUB SWAP1 RETURN JUMPDEST PUSH2 0x2BC PUSH1 0x4 DUP1 CALLDATASIZE SUB DUP2 ADD SWAP1 PUSH2 0x2B7 SWAP2 SWAP1 PUSH2 0xF6D JUMP JUMPDEST PUSH2 0xC33 JUMP JUMPDEST PUSH1 0x40 MLOAD PUSH2 0x2C9 SWAP2 SWAP1 PUSH2 0x121B JUMP JUMPDEST PUSH1 0x40 MLOAD DUP1 SWAP2 SUB SWAP1 RETURN JUMPDEST PUSH2 0x2DA PUSH2 0xD1B JUMP JUMPDEST PUSH1 0x40 MLOAD PUSH2 0x2E7 SWAP2 SWAP1 PUSH2 0x123D JUMP JUMPDEST PUSH1 0x40 MLOAD DUP1 SWAP2 SUB SWAP1 RETURN JUMPDEST PUSH2 0x2F8 PUSH2 0xD21 JUMP JUMPDEST PUSH1 0x40 MLOAD PUSH2 0x305 SWAP2 SWAP1 PUSH2 0x123D JUMP JUMPDEST PUSH1 0x40 MLOAD DUP1 SWAP2 SUB SWAP1 RETURN JUMPDEST PUSH2 0x328 PUSH1 0x4 DUP1 CALLDATASIZE SUB DUP2 ADD SWAP1 PUSH2 0x323 SWAP2 SWAP1 PUSH2 0xF40 JUMP JUMPDEST PUSH2 0xD27 JUMP JUMPDEST PUSH1 0x40 MLOAD PUSH2 0x338 SWAP5 SWAP4 SWAP3 SWAP2 SWAP1 PUSH2 0x1296 JUMP JUMPDEST PUSH1 0x40 MLOAD DUP1 SWAP2 SUB SWAP1 RETURN JUMPDEST PUSH1 0x3 SLOAD DUP2 JUMP JUMPDEST PUSH1 0x0 PUSH1 0x8 PUSH1 0x0 DUP5 DUP2 MSTORE PUSH1 0x20 ADD SWAP1 DUP2 MSTORE PUSH1 0x20 ADD PUSH1 0x0 KECCAK256 PUSH1 0x4 ADD PUSH1 0x0 DUP4 DUP2 MSTORE PUSH1 0x20 ADD SWAP1 DUP2 MSTORE PUSH1 0x20 ADD PUSH1 0x0 KECCAK256 PUSH1 0x2 ADD SLOAD SWAP1 POP SWAP3 SWAP2 POP POP JUMP JUMPDEST PUSH1 0x0 PUSH1 0x1 DUP1 PUSH1 0x2 DUP2 GT ISZERO PUSH2 0x393 JUMPI PUSH2 0x392 PUSH2 0x1459 JUMP JUMPDEST JUMPDEST PUSH1 0xB PUSH1 0x0 SWAP1 SLOAD SWAP1 PUSH2 0x100 EXP SWAP1 DIV PUSH1 0xFF AND PUSH1 0x2 DUP2 GT ISZERO PUSH2 0x3B5 JUMPI PUSH2 0x3B4 PUSH2 0x1459 JUMP JUMPDEST JUMPDEST EQ PUSH2 0x3BF JUMPI PUSH1 0x0 DUP1 REVERT JUMPDEST PUSH1 0x0 PUSH1 0x9 PUSH1 0x0 CALLER PUSH20 0xFFFFFFFFFFFFFFFFFFFFFFFFFFFFFFFFFFFFFFFF AND PUSH20 0xFFFFFFFFFFFFFFFFFFFFFFFFFFFFFFFFFFFFFFFF AND DUP2 MSTORE PUSH1 0x20 ADD SWAP1 DUP2 MSTORE PUSH1 0x20 ADD PUSH1 0x0 KECCAK256 PUSH1 0x0 ADD PUSH1 0x0 SWAP1 SLOAD SWAP1 PUSH2 0x100 EXP SWAP1 DIV PUSH1 0xFF AND DUP1 ISZERO PUSH2 0x46A JUMPI POP PUSH1 0x9 PUSH1 0x0 CALLER PUSH20 0xFFFFFFFFFFFFFFFFFFFFFFFFFFFFFFFFFFFFFFFF AND PUSH20 0xFFFFFFFFFFFFFFFFFFFFFFFFFFFFFFFFFFFFFFFF AND DUP2 MSTORE PUSH1 0x20 ADD SWAP1 DUP2 MSTORE PUSH1 0x20 ADD PUSH1 0x0 KECCAK256 PUSH1 0x0 ADD PUSH1 0x1 SWAP1 SLOAD SWAP1 PUSH2 0x100 EXP SWAP1 DIV PUSH1 0xFF AND ISZERO JUMPDEST ISZERO PUSH2 0x69F JUMPI DUP5 PUSH1 0x9 PUSH1 0x0 CALLER PUSH20 0xFFFFFFFFFFFFFFFFFFFFFFFFFFFFFFFFFFFFFFFF AND PUSH20 0xFFFFFFFFFFFFFFFFFFFFFFFFFFFFFFFFFFFFFFFF AND DUP2 MSTORE PUSH1 0x20 ADD SWAP1 DUP2 MSTORE PUSH1 0x20 ADD PUSH1 0x0 KECCAK256 PUSH1 0x1 ADD DUP2 SWAP1 SSTORE POP DUP4 PUSH1 0x9 PUSH1 0x0 CALLER PUSH20 0xFFFFFFFFFFFFFFFFFFFFFFFFFFFFFFFFFFFFFFFF AND PUSH20 0xFFFFFFFFFFFFFFFFFFFFFFFFFFFFFFFFFFFFFFFF AND DUP2 MSTORE PUSH1 0x20 ADD SWAP1 DUP2 MSTORE PUSH1 0x20 ADD PUSH1 0x0 KECCAK256 PUSH1 0x3 ADD DUP2 SWAP1 SSTORE POP PUSH1 0x1 PUSH1 0x9 PUSH1 0x0 CALLER PUSH20 0xFFFFFFFFFFFFFFFFFFFFFFFFFFFFFFFFFFFFFFFF AND PUSH20 0xFFFFFFFFFFFFFFFFFFFFFFFFFFFFFFFFFFFFFFFF AND DUP2 MSTORE PUSH1 0x20 ADD SWAP1 DUP2 MSTORE PUSH1 0x20 ADD PUSH1 0x0 KECCAK256 PUSH1 0x0 ADD PUSH1 0x1 PUSH2 0x100 EXP DUP2 SLOAD DUP2 PUSH1 0xFF MUL NOT AND SWAP1 DUP4 ISZERO ISZERO MUL OR SWAP1 SSTORE POP PUSH1 0x8 PUSH1 0x0 DUP6 DUP2 MSTORE PUSH1 0x20 ADD SWAP1 DUP2 MSTORE PUSH1 0x20 ADD PUSH1 0x0 KECCAK256 PUSH1 0x3 ADD PUSH1 0x0 DUP2 SLOAD DUP1 SWAP3 SWAP2 SWAP1 PUSH2 0x57F SWAP1 PUSH2 0x13E1 JUMP JUMPDEST SWAP2 SWAP1 POP SSTORE POP PUSH1 0x6 PUSH1 0x0 DUP7 DUP2 MSTORE PUSH1 0x20 ADD SWAP1 DUP2 MSTORE PUSH1 0x20 ADD PUSH1 0x0 KECCAK256 PUSH1 0x2 ADD PUSH1 0x0 DUP2 SLOAD DUP1 SWAP3 SWAP2 SWAP1 PUSH2 0x5AB SWAP1 PUSH2 0x13E1 JUMP JUMPDEST SWAP2 SWAP1 POP SSTORE POP PUSH1 0x4 PUSH1 0x0 DUP2 SLOAD DUP1 SWAP3 SWAP2 SWAP1 PUSH2 0x5C3 SWAP1 PUSH2 0x13E1 JUMP JUMPDEST SWAP2 SWAP1 POP SSTORE POP PUSH1 0x1 SWAP1 POP DUP1 PUSH1 0xA PUSH1 0x0 CALLER PUSH20 0xFFFFFFFFFFFFFFFFFFFFFFFFFFFFFFFFFFFFFFFF AND PUSH20 0xFFFFFFFFFFFFFFFFFFFFFFFFFFFFFFFFFFFFFFFF AND DUP2 MSTORE PUSH1 0x20 ADD SWAP1 DUP2 MSTORE PUSH1 0x20 ADD PUSH1 0x0 KECCAK256 PUSH1 0x0 PUSH2 0x100 EXP DUP2 SLOAD DUP2 PUSH1 0xFF MUL NOT AND SWAP1 DUP4 ISZERO ISZERO MUL OR SWAP1 SSTORE POP PUSH1 0x8 PUSH1 0x0 DUP6 DUP2 MSTORE PUSH1 0x20 ADD SWAP1 DUP2 MSTORE PUSH1 0x20 ADD PUSH1 0x0 KECCAK256 PUSH1 0x4 ADD PUSH1 0x0 DUP7 DUP2 MSTORE PUSH1 0x20 ADD SWAP1 DUP2 MSTORE PUSH1 0x20 ADD PUSH1 0x0 KECCAK256 PUSH1 0x2 ADD PUSH1 0x0 DUP2 SLOAD DUP1 SWAP3 SWAP2 SWAP1 PUSH2 0x65E SWAP1 PUSH2 0x13E1 JUMP JUMPDEST SWAP2 SWAP1 POP SSTORE POP PUSH32 0x29A25B3D0B6FF7E5DE2A60A2E8E76D1BDAF4894EC18C598CC1687213F442C5CB DUP2 DUP7 DUP7 PUSH1 0x40 MLOAD PUSH2 0x696 SWAP4 SWAP3 SWAP2 SWAP1 PUSH2 0x1189 JUMP JUMPDEST PUSH1 0x40 MLOAD DUP1 SWAP2 SUB SWAP1 LOG1 JUMPDEST DUP1 SWAP3 POP POP POP SWAP3 SWAP2 POP POP JUMP JUMPDEST PUSH1 0x1 SLOAD DUP2 JUMP JUMPDEST PUSH1 0x6 PUSH1 0x20 MSTORE DUP1 PUSH1 0x0 MSTORE PUSH1 0x40 PUSH1 0x0 KECCAK256 PUSH1 0x0 SWAP2 POP SWAP1 POP DUP1 PUSH1 0x0 ADD SLOAD SWAP1 DUP1 PUSH1 0x1 ADD DUP1 SLOAD PUSH2 0x6D9 SWAP1 PUSH2 0x13AF JUMP JUMPDEST DUP1 PUSH1 0x1F ADD PUSH1 0x20 DUP1 SWAP2 DIV MUL PUSH1 0x20 ADD PUSH1 0x40 MLOAD SWAP1 DUP2 ADD PUSH1 0x40 MSTORE DUP1 SWAP3 SWAP2 SWAP1 DUP2 DUP2 MSTORE PUSH1 0x20 ADD DUP3 DUP1 SLOAD PUSH2 0x705 SWAP1 PUSH2 0x13AF JUMP JUMPDEST DUP1 ISZERO PUSH2 0x752 JUMPI DUP1 PUSH1 0x1F LT PUSH2 0x727 JUMPI PUSH2 0x100 DUP1 DUP4 SLOAD DIV MUL DUP4 MSTORE SWAP2 PUSH1 0x20 ADD SWAP2 PUSH2 0x752 JUMP JUMPDEST DUP3 ADD SWAP2 SWAP1 PUSH1 0x0 MSTORE PUSH1 0x20 PUSH1 0x0 KECCAK256 SWAP1 JUMPDEST DUP2 SLOAD DUP2 MSTORE SWAP1 PUSH1 0x1 ADD SWAP1 PUSH1 0x20 ADD DUP1 DUP4 GT PUSH2 0x735 JUMPI DUP3 SWAP1 SUB PUSH1 0x1F AND DUP3 ADD SWAP2 JUMPDEST POP POP POP POP POP SWAP1 DUP1 PUSH1 0x2 ADD SLOAD SWAP1 POP DUP4 JUMP JUMPDEST PUSH1 0x9 PUSH1 0x20 MSTORE DUP1 PUSH1 0x0 MSTORE PUSH1 0x40 PUSH1 0x0 KECCAK256 PUSH1 0x0 SWAP2 POP SWAP1 POP DUP1 PUSH1 0x0 ADD PUSH1 0x0 SWAP1 SLOAD SWAP1 PUSH2 0x100 EXP SWAP1 DIV PUSH1 0xFF AND SWAP1 DUP1 PUSH1 0x0 ADD PUSH1 0x1 SWAP1 SLOAD SWAP1 PUSH2 0x100 EXP SWAP1 DIV PUSH1 0xFF AND SWAP1 DUP1 PUSH1 0x1 ADD SLOAD SWAP1 DUP1 PUSH1 0x2 ADD SLOAD SWAP1 DUP1 PUSH1 0x3 ADD SLOAD SWAP1 POP DUP6 JUMP JUMPDEST PUSH1 0x0 DUP1 PUSH1 0x2 DUP2 GT ISZERO PUSH2 0x7C7 JUMPI PUSH2 0x7C6 PUSH2 0x1459 JUMP JUMPDEST JUMPDEST PUSH1 0xB PUSH1 0x0 SWAP1 SLOAD SWAP1 PUSH2 0x100 EXP SWAP1 DIV PUSH1 0xFF AND PUSH1 0x2 DUP2 GT ISZERO PUSH2 0x7E9 JUMPI PUSH2 0x7E8 PUSH2 0x1459 JUMP JUMPDEST JUMPDEST EQ PUSH2 0x7F3 JUMPI PUSH1 0x0 DUP1 REVERT JUMPDEST PUSH1 0x0 DUP1 SLOAD SWAP1 PUSH2 0x100 EXP SWAP1 DIV PUSH20 0xFFFFFFFFFFFFFFFFFFFFFFFFFFFFFFFFFFFFFFFF AND PUSH20 0xFFFFFFFFFFFFFFFFFFFFFFFFFFFFFFFFFFFFFFFF AND CALLER PUSH20 0xFFFFFFFFFFFFFFFFFFFFFFFFFFFFFFFFFFFFFFFF AND EQ PUSH2 0x84B JUMPI PUSH1 0x0 DUP1 REVERT JUMPDEST PUSH1 0x1 PUSH1 0xB PUSH1 0x0 PUSH2 0x100 EXP DUP2 SLOAD DUP2 PUSH1 0xFF MUL NOT AND SWAP1 DUP4 PUSH1 0x2 DUP2 GT ISZERO PUSH2 0x871 JUMPI PUSH2 0x870 PUSH2 0x1459 JUMP JUMPDEST JUMPDEST MUL OR SWAP1 SSTORE POP POP JUMP JUMPDEST PUSH1 0x0 DUP1 SLOAD SWAP1 PUSH2 0x100 EXP SWAP1 DIV PUSH20 0xFFFFFFFFFFFFFFFFFFFFFFFFFFFFFFFFFFFFFFFF AND DUP2 JUMP JUMPDEST PUSH1 0xA PUSH1 0x20 MSTORE DUP1 PUSH1 0x0 MSTORE PUSH1 0x40 PUSH1 0x0 KECCAK256 PUSH1 0x0 SWAP2 POP SLOAD SWAP1 PUSH2 0x100 EXP SWAP1 DIV PUSH1 0xFF AND DUP2 JUMP JUMPDEST PUSH1 0x1 DUP1 PUSH1 0x2 DUP2 GT ISZERO PUSH2 0x8D2 JUMPI PUSH2 0x8D1 PUSH2 0x1459 JUMP JUMPDEST JUMPDEST PUSH1 0xB PUSH1 0x0 SWAP1 SLOAD SWAP1 PUSH2 0x100 EXP SWAP1 DIV PUSH1 0xFF AND PUSH1 0x2 DUP2 GT ISZERO PUSH2 0x8F4 JUMPI PUSH2 0x8F3 PUSH2 0x1459 JUMP JUMPDEST JUMPDEST EQ PUSH2 0x8FE JUMPI PUSH1 0x0 DUP1 REVERT JUMPDEST PUSH1 0x0 DUP1 SLOAD SWAP1 PUSH2 0x100 EXP SWAP1 DIV PUSH20 0xFFFFFFFFFFFFFFFFFFFFFFFFFFFFFFFFFFFFFFFF AND PUSH20 0xFFFFFFFFFFFFFFFFFFFFFFFFFFFFFFFFFFFFFFFF AND CALLER PUSH20 0xFFFFFFFFFFFFFFFFFFFFFFFFFFFFFFFFFFFFFFFF AND EQ PUSH2 0x956 JUMPI PUSH1 0x0 DUP1 REVERT JUMPDEST PUSH1 0x2 PUSH1 0xB PUSH1 0x0 PUSH2 0x100 EXP DUP2 SLOAD DUP2 PUSH1 0xFF MUL NOT AND SWAP1 DUP4 PUSH1 0x2 DUP2 GT ISZERO PUSH2 0x97C JUMPI PUSH2 0x97B PUSH2 0x1459 JUMP JUMPDEST JUMPDEST MUL OR SWAP1 SSTORE POP PUSH1 0x4 SLOAD PUSH1 0x5 DUP2 SWAP1 SSTORE POP POP JUMP JUMPDEST PUSH1 0x0 DUP1 PUSH1 0x2 DUP2 GT ISZERO PUSH2 0x9A2 JUMPI PUSH2 0x9A1 PUSH2 0x1459 JUMP JUMPDEST JUMPDEST PUSH1 0xB PUSH1 0x0 SWAP1 SLOAD SWAP1 PUSH2 0x100 EXP SWAP1 DIV PUSH1 0xFF AND PUSH1 0x2 DUP2 GT ISZERO PUSH2 0x9C4 JUMPI PUSH2 0x9C3 PUSH2 0x1459 JUMP JUMPDEST JUMPDEST EQ PUSH2 0x9CE JUMPI PUSH1 0x0 DUP1 REVERT JUMPDEST PUSH1 0x0 DUP1 SLOAD SWAP1 PUSH2 0x100 EXP SWAP1 DIV PUSH20 0xFFFFFFFFFFFFFFFFFFFFFFFFFFFFFFFFFFFFFFFF AND PUSH20 0xFFFFFFFFFFFFFFFFFFFFFFFFFFFFFFFFFFFFFFFF AND CALLER PUSH20 0xFFFFFFFFFFFFFFFFFFFFFFFFFFFFFFFFFFFFFFFF AND EQ PUSH2 0xA26 JUMPI PUSH1 0x0 DUP1 REVERT JUMPDEST PUSH1 0x0 ISZERO ISZERO PUSH1 0x9 PUSH1 0x0 DUP6 PUSH20 0xFFFFFFFFFFFFFFFFFFFFFFFFFFFFFFFFFFFFFFFF AND PUSH20 0xFFFFFFFFFFFFFFFFFFFFFFFFFFFFFFFFFFFFFFFF AND DUP2 MSTORE PUSH1 0x20 ADD SWAP1 DUP2 MSTORE PUSH1 0x20 ADD PUSH1 0x0 KECCAK256 PUSH1 0x0 ADD PUSH1 0x0 SWAP1 SLOAD SWAP1 PUSH2 0x100 EXP SWAP1 DIV PUSH1 0xFF AND ISZERO ISZERO EQ PUSH2 0xABC JUMPI PUSH1 0x40 MLOAD PUSH32 0x8C379A000000000000000000000000000000000000000000000000000000000 DUP2 MSTORE PUSH1 0x4 ADD PUSH2 0xAB3 SWAP1 PUSH2 0x11FB JUMP JUMPDEST PUSH1 0x40 MLOAD DUP1 SWAP2 SUB SWAP1 REVERT JUMPDEST PUSH1 0x1 DUP3 LT ISZERO DUP1 ISZERO PUSH2 0xACF JUMPI POP PUSH1 0x2 SLOAD DUP3 GT ISZERO JUMPDEST PUSH2 0xB0E JUMPI PUSH1 0x40 MLOAD PUSH32 0x8C379A000000000000000000000000000000000000000000000000000000000 DUP2 MSTORE PUSH1 0x4 ADD PUSH2 0xB05 SWAP1 PUSH2 0x11DB JUMP JUMPDEST PUSH1 0x40 MLOAD DUP1 SWAP2 SUB SWAP1 REVERT JUMPDEST PUSH2 0xB16 PUSH2 0xE55 JUMP JUMPDEST PUSH1 0x1 DUP2 PUSH1 0x0 ADD SWAP1 ISZERO ISZERO SWAP1 DUP2 ISZERO ISZERO DUP2 MSTORE POP POP PUSH1 0x0 DUP2 PUSH1 0x20 ADD SWAP1 ISZERO ISZERO SWAP1 DUP2 ISZERO ISZERO DUP2 MSTORE POP POP PUSH1 0x0 DUP2 PUSH1 0x40 ADD DUP2 DUP2 MSTORE POP POP DUP3 DUP2 PUSH1 0x60 ADD DUP2 DUP2 MSTORE POP POP PUSH1 0x0 DUP2 PUSH1 0x80 ADD DUP2 DUP2 MSTORE POP POP DUP1 PUSH1 0x9 PUSH1 0x0 DUP7 PUSH20 0xFFFFFFFFFFFFFFFFFFFFFFFFFFFFFFFFFFFFFFFF AND PUSH20 0xFFFFFFFFFFFFFFFFFFFFFFFFFFFFFFFFFFFFFFFF AND DUP2 MSTORE PUSH1 0x20 ADD SWAP1 DUP2 MSTORE PUSH1 0x20 ADD PUSH1 0x0 KECCAK256 PUSH1 0x0 DUP3 ADD MLOAD DUP2 PUSH1 0x0 ADD PUSH1 0x0 PUSH2 0x100 EXP DUP2 SLOAD DUP2 PUSH1 0xFF MUL NOT AND SWAP1 DUP4 ISZERO ISZERO MUL OR SWAP1 SSTORE POP PUSH1 0x20 DUP3 ADD MLOAD DUP2 PUSH1 0x0 ADD PUSH1 0x1 PUSH2 0x100 EXP DUP2 SLOAD DUP2 PUSH1 0xFF MUL NOT AND SWAP1 DUP4 ISZERO ISZERO MUL OR SWAP1 SSTORE POP PUSH1 0x40 DUP3 ADD MLOAD DUP2 PUSH1 0x1 ADD SSTORE PUSH1 0x60 DUP3 ADD MLOAD DUP2 PUSH1 0x2 ADD SSTORE PUSH1 0x80 DUP3 ADD MLOAD DUP2 PUSH1 0x3 ADD SSTORE SWAP1 POP POP PUSH2 0xC02 DUP4 PUSH2 0xDDF JUMP JUMPDEST PUSH1 0x3 PUSH1 0x0 DUP2 SLOAD DUP1 SWAP3 SWAP2 SWAP1 PUSH2 0xC15 SWAP1 PUSH2 0x13E1 JUMP JUMPDEST SWAP2 SWAP1 POP SSTORE POP POP POP POP POP JUMP JUMPDEST PUSH1 0xB PUSH1 0x0 SWAP1 SLOAD SWAP1 PUSH2 0x100 EXP SWAP1 DIV PUSH1 0xFF AND DUP2 JUMP JUMPDEST PUSH2 0xC3B PUSH2 0xE88 JUMP JUMPDEST PUSH1 0x8 PUSH1 0x0 DUP5 DUP2 MSTORE PUSH1 0x20 ADD SWAP1 DUP2 MSTORE PUSH1 0x20 ADD PUSH1 0x0 KECCAK256 PUSH1 0x4 ADD PUSH1 0x0 DUP4 DUP2 MSTORE PUSH1 0x20 ADD SWAP1 DUP2 MSTORE PUSH1 0x20 ADD PUSH1 0x0 KECCAK256 PUSH1 0x40 MLOAD DUP1 PUSH1 0x60 ADD PUSH1 0x40 MSTORE SWAP1 DUP2 PUSH1 0x0 DUP3 ADD SLOAD DUP2 MSTORE PUSH1 0x20 ADD PUSH1 0x1 DUP3 ADD DUP1 SLOAD PUSH2 0xC87 SWAP1 PUSH2 0x13AF JUMP JUMPDEST DUP1 PUSH1 0x1F ADD PUSH1 0x20 DUP1 SWAP2 DIV MUL PUSH1 0x20 ADD PUSH1 0x40 MLOAD SWAP1 DUP2 ADD PUSH1 0x40 MSTORE DUP1 SWAP3 SWAP2 SWAP1 DUP2 DUP2 MSTORE PUSH1 0x20 ADD DUP3 DUP1 SLOAD PUSH2 0xCB3 SWAP1 PUSH2 0x13AF JUMP JUMPDEST DUP1 ISZERO PUSH2 0xD00 JUMPI DUP1 PUSH1 0x1F LT PUSH2 0xCD5 JUMPI PUSH2 0x100 DUP1 DUP4 SLOAD DIV MUL DUP4 MSTORE SWAP2 PUSH1 0x20 ADD SWAP2 PUSH2 0xD00 JUMP JUMPDEST DUP3 ADD SWAP2 SWAP1 PUSH1 0x0 MSTORE PUSH1 0x20 PUSH1 0x0 KECCAK256 SWAP1 JUMPDEST DUP2 SLOAD DUP2 MSTORE SWAP1 PUSH1 0x1 ADD SWAP1 PUSH1 0x20 ADD DUP1 DUP4 GT PUSH2 0xCE3 JUMPI DUP3 SWAP1 SUB PUSH1 0x1F AND DUP3 ADD SWAP2 JUMPDEST POP POP POP POP POP DUP2 MSTORE PUSH1 0x20 ADD PUSH1 0x2 DUP3 ADD SLOAD DUP2 MSTORE POP POP SWAP1 POP SWAP3 SWAP2 POP POP JUMP JUMPDEST PUSH1 0x2 SLOAD DUP2 JUMP JUMPDEST PUSH1 0x5 SLOAD DUP2 JUMP JUMPDEST PUSH1 0x8 PUSH1 0x20 MSTORE DUP1 PUSH1 0x0 MSTORE PUSH1 0x40 PUSH1 0x0 KECCAK256 PUSH1 0x0 SWAP2 POP SWAP1 POP DUP1 PUSH1 0x0 ADD SLOAD SWAP1 DUP1 PUSH1 0x1 ADD DUP1 SLOAD PUSH2 0xD50 SWAP1 PUSH2 0x13AF JUMP JUMPDEST DUP1 PUSH1 0x1F ADD PUSH1 0x20 DUP1 SWAP2 DIV MUL PUSH1 0x20 ADD PUSH1 0x40 MLOAD SWAP1 DUP2 ADD PUSH1 0x40 MSTORE DUP1 SWAP3 SWAP2 SWAP1 DUP2 DUP2 MSTORE PUSH1 0x20 ADD DUP3 DUP1 SLOAD PUSH2 0xD7C SWAP1 PUSH2 0x13AF JUMP JUMPDEST DUP1 ISZERO PUSH2 0xDC9 JUMPI DUP1 PUSH1 0x1F LT PUSH2 0xD9E JUMPI PUSH2 0x100 DUP1 DUP4 SLOAD DIV MUL DUP4 MSTORE SWAP2 PUSH1 0x20 ADD SWAP2 PUSH2 0xDC9 JUMP JUMPDEST DUP3 ADD SWAP2 SWAP1 PUSH1 0x0 MSTORE PUSH1 0x20 PUSH1 0x0 KECCAK256 SWAP1 JUMPDEST DUP2 SLOAD DUP2 MSTORE SWAP1 PUSH1 0x1 ADD SWAP1 PUSH1 0x20 ADD DUP1 DUP4 GT PUSH2 0xDAC JUMPI DUP3 SWAP1 SUB PUSH1 0x1F AND DUP3 ADD SWAP2 JUMPDEST POP POP POP POP POP SWAP1 DUP1 PUSH1 0x2 ADD SLOAD SWAP1 DUP1 PUSH1 0x3 ADD SLOAD SWAP1 POP DUP5 JUMP JUMPDEST PUSH1 0x0 PUSH1 0x1 SWAP1 POP JUMPDEST PUSH1 0x2 SLOAD DUP2 GT PUSH2 0xE51 JUMPI DUP2 PUSH1 0x8 PUSH1 0x0 DUP4 DUP2 MSTORE PUSH1 0x20 ADD SWAP1 DUP2 MSTORE PUSH1 0x20 ADD PUSH1 0x0 KECCAK256 PUSH1 0x0 ADD SLOAD EQ ISZERO PUSH2 0xE3E JUMPI PUSH1 0x8 PUSH1 0x0 DUP3 DUP2 MSTORE PUSH1 0x20 ADD SWAP1 DUP2 MSTORE PUSH1 0x20 ADD PUSH1 0x0 KECCAK256 PUSH1 0x2 ADD PUSH1 0x0 DUP2 SLOAD DUP1 SWAP3 SWAP2 SWAP1 PUSH2 0xE34 SWAP1 PUSH2 0x13E1 JUMP JUMPDEST SWAP2 SWAP1 POP SSTORE POP PUSH2 0xE51 JUMP JUMPDEST DUP1 DUP1 PUSH2 0xE49 SWAP1 PUSH2 0x13E1 JUMP JUMPDEST SWAP2 POP POP PUSH2 0xDE6 JUMP JUMPDEST POP POP JUMP JUMPDEST PUSH1 0x40 MLOAD DUP1 PUSH1 0xA0 ADD PUSH1 0x40 MSTORE DUP1 PUSH1 0x0 ISZERO ISZERO DUP2 MSTORE PUSH1 0x20 ADD PUSH1 0x0 ISZERO ISZERO DUP2 MSTORE PUSH1 0x20 ADD PUSH1 0x0 DUP2 MSTORE PUSH1 0x20 ADD PUSH1 0x0 DUP2 MSTORE PUSH1 0x20 ADD PUSH1 0x0 DUP2 MSTORE POP SWAP1 JUMP JUMPDEST PUSH1 0x40 MLOAD DUP1 PUSH1 0x60 ADD PUSH1 0x40 MSTORE DUP1 PUSH1 0x0 DUP2 MSTORE PUSH1 0x20 ADD PUSH1 0x60 DUP2 MSTORE PUSH1 0x20 ADD PUSH1 0x0 DUP2 MSTORE POP SWAP1 JUMP JUMPDEST PUSH1 0x0 DUP2 CALLDATALOAD SWAP1 POP PUSH2 0xEB8 DUP2 PUSH2 0x1559 JUMP JUMPDEST SWAP3 SWAP2 POP POP JUMP JUMPDEST PUSH1 0x0 DUP2 CALLDATALOAD SWAP1 POP PUSH2 0xECD DUP2 PUSH2 0x1570 JUMP JUMPDEST SWAP3 SWAP2 POP POP JUMP JUMPDEST PUSH1 0x0 PUSH1 0x20 DUP3 DUP5 SUB SLT ISZERO PUSH2 0xEE9 JUMPI PUSH2 0xEE8 PUSH2 0x14B7 JUMP JUMPDEST JUMPDEST PUSH1 0x0 PUSH2 0xEF7 DUP5 DUP3 DUP6 ADD PUSH2 0xEA9 JUMP JUMPDEST SWAP2 POP POP SWAP3 SWAP2 POP POP JUMP JUMPDEST PUSH1 0x0 DUP1 PUSH1 0x40 DUP4 DUP6 SUB SLT ISZERO PUSH2 0xF17 JUMPI PUSH2 0xF16 PUSH2 0x14B7 JUMP JUMPDEST JUMPDEST PUSH1 0x0 PUSH2 0xF25 DUP6 DUP3 DUP7 ADD PUSH2 0xEA9 JUMP JUMPDEST SWAP3 POP POP PUSH1 0x20 PUSH2 0xF36 DUP6 DUP3 DUP7 ADD PUSH2 0xEBE JUMP JUMPDEST SWAP2 POP POP SWAP3 POP SWAP3 SWAP1 POP JUMP JUMPDEST PUSH1 0x0 PUSH1 0x20 DUP3 DUP5 SUB SLT ISZERO PUSH2 0xF56 JUMPI PUSH2 0xF55 PUSH2 0x14B7 JUMP JUMPDEST JUMPDEST PUSH1 0x0 PUSH2 0xF64 DUP5 DUP3 DUP6 ADD PUSH2 0xEBE JUMP JUMPDEST SWAP2 POP POP SWAP3 SWAP2 POP POP JUMP JUMPDEST PUSH1 0x0 DUP1 PUSH1 0x40 DUP4 DUP6 SUB SLT ISZERO PUSH2 0xF84 JUMPI PUSH2 0xF83 PUSH2 0x14B7 JUMP JUMPDEST JUMPDEST PUSH1 0x0 PUSH2 0xF92 DUP6 DUP3 DUP7 ADD PUSH2 0xEBE JUMP JUMPDEST SWAP3 POP POP PUSH1 0x20 PUSH2 0xFA3 DUP6 DUP3 DUP7 ADD PUSH2 0xEBE JUMP JUMPDEST SWAP2 POP POP SWAP3 POP SWAP3 SWAP1 POP JUMP JUMPDEST PUSH2 0xFB6 DUP2 PUSH2 0x130F JUMP JUMPDEST DUP3 MSTORE POP POP JUMP JUMPDEST PUSH2 0xFC5 DUP2 PUSH2 0x1321 JUMP JUMPDEST DUP3 MSTORE POP POP JUMP JUMPDEST PUSH2 0xFD4 DUP2 PUSH2 0x136A JUMP JUMPDEST DUP3 MSTORE POP POP JUMP JUMPDEST PUSH1 0x0 PUSH2 0xFE5 DUP3 PUSH2 0x12E2 JUMP JUMPDEST PUSH2 0xFEF DUP2 DUP6 PUSH2 0x12ED JUMP JUMPDEST SWAP4 POP PUSH2 0xFFF DUP2 DUP6 PUSH1 0x20 DUP7 ADD PUSH2 0x137C JUMP JUMPDEST PUSH2 0x1008 DUP2 PUSH2 0x14BC JUMP JUMPDEST DUP5 ADD SWAP2 POP POP SWAP3 SWAP2 POP POP JUMP JUMPDEST PUSH1 0x0 PUSH2 0x101E DUP3 PUSH2 0x12E2 JUMP JUMPDEST PUSH2 0x1028 DUP2 DUP6 PUSH2 0x12FE JUMP JUMPDEST SWAP4 POP PUSH2 0x1038 DUP2 DUP6 PUSH1 0x20 DUP7 ADD PUSH2 0x137C JUMP JUMPDEST PUSH2 0x1041 DUP2 PUSH2 0x14BC JUMP JUMPDEST DUP5 ADD SWAP2 POP POP SWAP3 SWAP2 POP POP JUMP JUMPDEST PUSH1 0x0 PUSH2 0x1059 PUSH1 0x2A DUP4 PUSH2 0x12FE JUMP JUMPDEST SWAP2 POP PUSH2 0x1064 DUP3 PUSH2 0x14CD JUMP JUMPDEST PUSH1 0x40 DUP3 ADD SWAP1 POP SWAP2 SWAP1 POP JUMP JUMPDEST PUSH1 0x0 PUSH2 0x107C PUSH1 0x1C DUP4 PUSH2 0x12FE JUMP JUMPDEST SWAP2 POP PUSH2 0x1087 DUP3 PUSH2 0x151C JUMP JUMPDEST PUSH1 0x20 DUP3 ADD SWAP1 POP SWAP2 SWAP1 POP JUMP JUMPDEST PUSH1 0x0 PUSH1 0x60 DUP4 ADD PUSH1 0x0 DUP4 ADD MLOAD PUSH2 0x10AA PUSH1 0x0 DUP7 ADD DUP3 PUSH2 0x10E2 JUMP JUMPDEST POP PUSH1 0x20 DUP4 ADD MLOAD DUP5 DUP3 SUB PUSH1 0x20 DUP7 ADD MSTORE PUSH2 0x10C2 DUP3 DUP3 PUSH2 0xFDA JUMP JUMPDEST SWAP2 POP POP PUSH1 0x40 DUP4 ADD MLOAD PUSH2 0x10D7 PUSH1 0x40 DUP7 ADD DUP3 PUSH2 0x10E2 JUMP JUMPDEST POP DUP1 SWAP2 POP POP SWAP3 SWAP2 POP POP JUMP JUMPDEST PUSH2 0x10EB DUP2 PUSH2 0x1360 JUMP JUMPDEST DUP3 MSTORE POP POP JUMP JUMPDEST PUSH2 0x10FA DUP2 PUSH2 0x1360 JUMP JUMPDEST DUP3 MSTORE POP POP JUMP JUMPDEST PUSH1 0x0 PUSH1 0x20 DUP3 ADD SWAP1 POP PUSH2 0x1115 PUSH1 0x0 DUP4 ADD DUP5 PUSH2 0xFAD JUMP JUMPDEST SWAP3 SWAP2 POP POP JUMP JUMPDEST PUSH1 0x0 PUSH1 0x20 DUP3 ADD SWAP1 POP PUSH2 0x1130 PUSH1 0x0 DUP4 ADD DUP5 PUSH2 0xFBC JUMP JUMPDEST SWAP3 SWAP2 POP POP JUMP JUMPDEST PUSH1 0x0 PUSH1 0xA0 DUP3 ADD SWAP1 POP PUSH2 0x114B PUSH1 0x0 DUP4 ADD DUP9 PUSH2 0xFBC JUMP JUMPDEST PUSH2 0x1158 PUSH1 0x20 DUP4 ADD DUP8 PUSH2 0xFBC JUMP JUMPDEST PUSH2 0x1165 PUSH1 0x40 DUP4 ADD DUP7 PUSH2 0x10F1 JUMP JUMPDEST PUSH2 0x1172 PUSH1 0x60 DUP4 ADD DUP6 PUSH2 0x10F1 JUMP JUMPDEST PUSH2 0x117F PUSH1 0x80 DUP4 ADD DUP5 PUSH2 0x10F1 JUMP JUMPDEST SWAP7 SWAP6 POP POP POP POP POP POP JUMP JUMPDEST PUSH1 0x0 PUSH1 0x60 DUP3 ADD SWAP1 POP PUSH2 0x119E PUSH1 0x0 DUP4 ADD DUP7 PUSH2 0xFBC JUMP JUMPDEST PUSH2 0x11AB PUSH1 0x20 DUP4 ADD DUP6 PUSH2 0x10F1 JUMP JUMPDEST PUSH2 0x11B8 PUSH1 0x40 DUP4 ADD DUP5 PUSH2 0x10F1 JUMP JUMPDEST SWAP5 SWAP4 POP POP POP POP JUMP JUMPDEST PUSH1 0x0 PUSH1 0x20 DUP3 ADD SWAP1 POP PUSH2 0x11D5 PUSH1 0x0 DUP4 ADD DUP5 PUSH2 0xFCB JUMP JUMPDEST SWAP3 SWAP2 POP POP JUMP JUMPDEST PUSH1 0x0 PUSH1 0x20 DUP3 ADD SWAP1 POP DUP2 DUP2 SUB PUSH1 0x0 DUP4 ADD MSTORE PUSH2 0x11F4 DUP2 PUSH2 0x104C JUMP JUMPDEST SWAP1 POP SWAP2 SWAP1 POP JUMP JUMPDEST PUSH1 0x0 PUSH1 0x20 DUP3 ADD SWAP1 POP DUP2 DUP2 SUB PUSH1 0x0 DUP4 ADD MSTORE PUSH2 0x1214 DUP2 PUSH2 0x106F JUMP JUMPDEST SWAP1 POP SWAP2 SWAP1 POP JUMP JUMPDEST PUSH1 0x0 PUSH1 0x20 DUP3 ADD SWAP1 POP DUP2 DUP2 SUB PUSH1 0x0 DUP4 ADD MSTORE PUSH2 0x1235 DUP2 DUP5 PUSH2 0x1092 JUMP JUMPDEST SWAP1 POP SWAP3 SWAP2 POP POP JUMP JUMPDEST PUSH1 0x0 PUSH1 0x20 DUP3 ADD SWAP1 POP PUSH2 0x1252 PUSH1 0x0 DUP4 ADD DUP5 PUSH2 0x10F1 JUMP JUMPDEST SWAP3 SWAP2 POP POP JUMP JUMPDEST PUSH1 0x0 PUSH1 0x60 DUP3 ADD SWAP1 POP PUSH2 0x126D PUSH1 0x0 DUP4 ADD DUP7 PUSH2 0x10F1 JUMP JUMPDEST DUP2 DUP2 SUB PUSH1 0x20 DUP4 ADD MSTORE PUSH2 0x127F DUP2 DUP6 PUSH2 0x1013 JUMP JUMPDEST SWAP1 POP PUSH2 0x128E PUSH1 0x40 DUP4 ADD DUP5 PUSH2 0x10F1 JUMP JUMPDEST SWAP5 SWAP4 POP POP POP POP JUMP JUMPDEST PUSH1 0x0 PUSH1 0x80 DUP3 ADD SWAP1 POP PUSH2 0x12AB PUSH1 0x0 DUP4 ADD DUP8 PUSH2 0x10F1 JUMP JUMPDEST DUP2 DUP2 SUB PUSH1 0x20 DUP4 ADD MSTORE PUSH2 0x12BD DUP2 DUP7 PUSH2 0x1013 JUMP JUMPDEST SWAP1 POP PUSH2 0x12CC PUSH1 0x40 DUP4 ADD DUP6 PUSH2 0x10F1 JUMP JUMPDEST PUSH2 0x12D9 PUSH1 0x60 DUP4 ADD DUP5 PUSH2 0x10F1 JUMP JUMPDEST SWAP6 SWAP5 POP POP POP POP POP JUMP JUMPDEST PUSH1 0x0 DUP2 MLOAD SWAP1 POP SWAP2 SWAP1 POP JUMP JUMPDEST PUSH1 0x0 DUP3 DUP3 MSTORE PUSH1 0x20 DUP3 ADD SWAP1 POP SWAP3 SWAP2 POP POP JUMP JUMPDEST PUSH1 0x0 DUP3 DUP3 MSTORE PUSH1 0x20 DUP3 ADD SWAP1 POP SWAP3 SWAP2 POP POP JUMP JUMPDEST PUSH1 0x0 PUSH2 0x131A DUP3 PUSH2 0x1340 JUMP JUMPDEST SWAP1 POP SWAP2 SWAP1 POP JUMP JUMPDEST PUSH1 0x0 DUP2 ISZERO ISZERO SWAP1 POP SWAP2 SWAP1 POP JUMP JUMPDEST PUSH1 0x0 DUP2 SWAP1 POP PUSH2 0x133B DUP3 PUSH2 0x1545 JUMP JUMPDEST SWAP2 SWAP1 POP JUMP JUMPDEST PUSH1 0x0 PUSH20 0xFFFFFFFFFFFFFFFFFFFFFFFFFFFFFFFFFFFFFFFF DUP3 AND SWAP1 POP SWAP2 SWAP1 POP JUMP JUMPDEST PUSH1 0x0 DUP2 SWAP1 POP SWAP2 SWAP1 POP JUMP JUMPDEST PUSH1 0x0 PUSH2 0x1375 DUP3 PUSH2 0x132D JUMP JUMPDEST SWAP1 POP SWAP2 SWAP1 POP JUMP JUMPDEST PUSH1 0x0 JUMPDEST DUP4 DUP2 LT ISZERO PUSH2 0x139A JUMPI DUP1 DUP3 ADD MLOAD DUP2 DUP5 ADD MSTORE PUSH1 0x20 DUP2 ADD SWAP1 POP PUSH2 0x137F JUMP JUMPDEST DUP4 DUP2 GT ISZERO PUSH2 0x13A9 JUMPI PUSH1 0x0 DUP5 DUP5 ADD MSTORE JUMPDEST POP POP POP POP JUMP JUMPDEST PUSH1 0x0 PUSH1 0x2 DUP3 DIV SWAP1 POP PUSH1 0x1 DUP3 AND DUP1 PUSH2 0x13C7 JUMPI PUSH1 0x7F DUP3 AND SWAP2 POP JUMPDEST PUSH1 0x20 DUP3 LT DUP2 EQ ISZERO PUSH2 0x13DB JUMPI PUSH2 0x13DA PUSH2 0x1488 JUMP JUMPDEST JUMPDEST POP SWAP2 SWAP1 POP JUMP JUMPDEST PUSH1 0x0 PUSH2 0x13EC DUP3 PUSH2 0x1360 JUMP JUMPDEST SWAP2 POP PUSH32 0xFFFFFFFFFFFFFFFFFFFFFFFFFFFFFFFFFFFFFFFFFFFFFFFFFFFFFFFFFFFFFFFF DUP3 EQ ISZERO PUSH2 0x141F JUMPI PUSH2 0x141E PUSH2 0x142A JUMP JUMPDEST JUMPDEST PUSH1 0x1 DUP3 ADD SWAP1 POP SWAP2 SWAP1 POP JUMP JUMPDEST PUSH32 0x4E487B7100000000000000000000000000000000000000000000000000000000 PUSH1 0x0 MSTORE PUSH1 0x11 PUSH1 0x4 MSTORE PUSH1 0x24 PUSH1 0x0 REVERT JUMPDEST PUSH32 0x4E487B7100000000000000000000000000000000000000000000000000000000 PUSH1 0x0 MSTORE PUSH1 0x21 PUSH1 0x4 MSTORE PUSH1 0x24 PUSH1 0x0 REVERT JUMPDEST PUSH32 0x4E487B7100000000000000000000000000000000000000000000000000000000 PUSH1 0x0 MSTORE PUSH1 0x22 PUSH1 0x4 MSTORE PUSH1 0x24 PUSH1 0x0 REVERT JUMPDEST PUSH1 0x0 DUP1 REVERT JUMPDEST PUSH1 0x0 PUSH1 0x1F NOT PUSH1 0x1F DUP4 ADD AND SWAP1 POP SWAP2 SWAP1 POP JUMP JUMPDEST PUSH32 0x506C656173652070726F7669646520612076616C696420706F6C6C696E672073 PUSH1 0x0 DUP3 ADD MSTORE PUSH32 0x746174696F6E2049442E00000000000000000000000000000000000000000000 PUSH1 0x20 DUP3 ADD MSTORE POP JUMP JUMPDEST PUSH32 0x566F74657220697320616C726561647920726567697374657265642E00000000 PUSH1 0x0 DUP3 ADD MSTORE POP JUMP JUMPDEST PUSH1 0x3 DUP2 LT PUSH2 0x1556 JUMPI PUSH2 0x1555 PUSH2 0x1459 JUMP JUMPDEST JUMPDEST POP JUMP JUMPDEST PUSH2 0x1562 DUP2 PUSH2 0x130F JUMP JUMPDEST DUP2 EQ PUSH2 0x156D JUMPI PUSH1 0x0 DUP1 REVERT JUMPDEST POP JUMP JUMPDEST PUSH2 0x1579 DUP2 PUSH2 0x1360 JUMP JUMPDEST DUP2 EQ PUSH2 0x1584 JUMPI PUSH1 0x0 DUP1 REVERT JUMPDEST POP JUMP INVALID LOG2 PUSH5 0x6970667358 0x22 SLT KECCAK256 MOD MSIZE DUP16 STOP 0x4F 0x2E NUMBER SWAP12 ORIGIN EXTCODESIZE MOD DIV 0x1E 0xA5 0x23 0xDE DUP6 SWAP1 PUSH31 0x9ED652CEAA536E7E802CE8647964736F6C6343000807003300000000000000 "
				},
				"gasEstimates": {
					"creation": {
						"codeDepositCost": "1113000",
						"executionCost": "infinite",
						"totalCost": "infinite"
					},
					"external": {
						"addVoter(address,uint256)": "infinite",
						"candidates(uint256)": "infinite",
						"candidatesCount()": "2519",
						"castVote(uint256,uint256)": "infinite",
						"electionOwner()": "2600",
						"endVote()": "53073",
						"finalResult()": "2495",
						"getResultsPerCandidatePerStation(uint256,uint256)": "infinite",
						"getResultsPerStation1(uint256,uint256)": "infinite",
						"pollingStationCount()": "2473",
						"pollingStations(uint256)": "infinite",
						"startVote()": "28881",
						"state()": "2649",
						"totalRegisteredVoters()": "2453",
						"voterRegistry(address)": "infinite",
						"voters(address)": "2868"
					},
					"internal": {
						"addCandidate(string memory)": "infinite",
						"addPollingStation(string memory)": "infinite",
						"initCandidates()": "infinite",
						"initPollingStations()": "infinite",
						"registerAtPollingStation(uint256)": "28818"
					}
				},
				"methodIdentifiers": {
					"addVoter(address,uint256)": "b9f05f2f",
					"candidates(uint256)": "3477ee2e",
					"candidatesCount()": "2d35a8a2",
					"castVote(uint256,uint256)": "2c0a3f89",
					"electionOwner()": "53357ad0",
					"endVote()": "b9223946",
					"finalResult()": "f3a8286f",
					"getResultsPerCandidatePerStation(uint256,uint256)": "2a41742e",
					"getResultsPerStation1(uint256,uint256)": "d3808ae0",
					"pollingStationCount()": "df9f1a07",
					"pollingStations(uint256)": "fe2442d7",
					"startVote()": "4c0a6af0",
					"state()": "c19d93fb",
					"totalRegisteredVoters()": "00aa7464",
					"voterRegistry(address)": "4763d4e7",
					"voters(address)": "a3ec138d"
				}
			},
			"storageLayout": {
				"storage": [
					{
						"astId": 35,
						"contract": "contracts/ergasia.sol:Election",
						"label": "electionOwner",
						"offset": 0,
						"slot": "0",
						"type": "t_address"
					},
					{
						"astId": 37,
						"contract": "contracts/ergasia.sol:Election",
						"label": "candidatesCount",
						"offset": 0,
						"slot": "1",
						"type": "t_uint256"
					},
					{
						"astId": 39,
						"contract": "contracts/ergasia.sol:Election",
						"label": "pollingStationCount",
						"offset": 0,
						"slot": "2",
						"type": "t_uint256"
					},
					{
						"astId": 41,
						"contract": "contracts/ergasia.sol:Election",
						"label": "totalRegisteredVoters",
						"offset": 0,
						"slot": "3",
						"type": "t_uint256"
					},
					{
						"astId": 43,
						"contract": "contracts/ergasia.sol:Election",
						"label": "countResult",
						"offset": 0,
						"slot": "4",
						"type": "t_uint256"
					},
					{
						"astId": 45,
						"contract": "contracts/ergasia.sol:Election",
						"label": "finalResult",
						"offset": 0,
						"slot": "5",
						"type": "t_uint256"
					},
					{
						"astId": 50,
						"contract": "contracts/ergasia.sol:Election",
						"label": "candidates",
						"offset": 0,
						"slot": "6",
						"type": "t_mapping(t_uint256,t_struct(Candidate)8_storage)"
					},
					{
						"astId": 56,
						"contract": "contracts/ergasia.sol:Election",
						"label": "candidatesPerStation",
						"offset": 0,
						"slot": "7",
						"type": "t_mapping(t_uint256,t_array(t_struct(Candidate)8_storage)dyn_storage)"
					},
					{
						"astId": 61,
						"contract": "contracts/ergasia.sol:Election",
						"label": "pollingStations",
						"offset": 0,
						"slot": "8",
						"type": "t_mapping(t_uint256,t_struct(PollingStation)22_storage)"
					},
					{
						"astId": 66,
						"contract": "contracts/ergasia.sol:Election",
						"label": "voterRegistry",
						"offset": 0,
						"slot": "9",
						"type": "t_mapping(t_address,t_struct(Voter)33_storage)"
					},
					{
						"astId": 70,
						"contract": "contracts/ergasia.sol:Election",
						"label": "voters",
						"offset": 0,
						"slot": "10",
						"type": "t_mapping(t_address,t_bool)"
					},
					{
						"astId": 77,
						"contract": "contracts/ergasia.sol:Election",
						"label": "state",
						"offset": 0,
						"slot": "11",
						"type": "t_enum(State)74"
					}
				],
				"types": {
					"t_address": {
						"encoding": "inplace",
						"label": "address",
						"numberOfBytes": "20"
					},
					"t_array(t_struct(Candidate)8_storage)dyn_storage": {
						"base": "t_struct(Candidate)8_storage",
						"encoding": "dynamic_array",
						"label": "struct Election.Candidate[]",
						"numberOfBytes": "32"
					},
					"t_bool": {
						"encoding": "inplace",
						"label": "bool",
						"numberOfBytes": "1"
					},
					"t_enum(State)74": {
						"encoding": "inplace",
						"label": "enum Election.State",
						"numberOfBytes": "1"
					},
					"t_mapping(t_address,t_bool)": {
						"encoding": "mapping",
						"key": "t_address",
						"label": "mapping(address => bool)",
						"numberOfBytes": "32",
						"value": "t_bool"
					},
					"t_mapping(t_address,t_struct(Voter)33_storage)": {
						"encoding": "mapping",
						"key": "t_address",
						"label": "mapping(address => struct Election.Voter)",
						"numberOfBytes": "32",
						"value": "t_struct(Voter)33_storage"
					},
					"t_mapping(t_uint256,t_array(t_struct(Candidate)8_storage)dyn_storage)": {
						"encoding": "mapping",
						"key": "t_uint256",
						"label": "mapping(uint256 => struct Election.Candidate[])",
						"numberOfBytes": "32",
						"value": "t_array(t_struct(Candidate)8_storage)dyn_storage"
					},
					"t_mapping(t_uint256,t_struct(Candidate)8_storage)": {
						"encoding": "mapping",
						"key": "t_uint256",
						"label": "mapping(uint256 => struct Election.Candidate)",
						"numberOfBytes": "32",
						"value": "t_struct(Candidate)8_storage"
					},
					"t_mapping(t_uint256,t_struct(PollingStation)22_storage)": {
						"encoding": "mapping",
						"key": "t_uint256",
						"label": "mapping(uint256 => struct Election.PollingStation)",
						"numberOfBytes": "32",
						"value": "t_struct(PollingStation)22_storage"
					},
					"t_string_storage": {
						"encoding": "bytes",
						"label": "string",
						"numberOfBytes": "32"
					},
					"t_struct(Candidate)8_storage": {
						"encoding": "inplace",
						"label": "struct Election.Candidate",
						"members": [
							{
								"astId": 3,
								"contract": "contracts/ergasia.sol:Election",
								"label": "id",
								"offset": 0,
								"slot": "0",
								"type": "t_uint256"
							},
							{
								"astId": 5,
								"contract": "contracts/ergasia.sol:Election",
								"label": "name",
								"offset": 0,
								"slot": "1",
								"type": "t_string_storage"
							},
							{
								"astId": 7,
								"contract": "contracts/ergasia.sol:Election",
								"label": "votes",
								"offset": 0,
								"slot": "2",
								"type": "t_uint256"
							}
						],
						"numberOfBytes": "96"
					},
					"t_struct(PollingStation)22_storage": {
						"encoding": "inplace",
						"label": "struct Election.PollingStation",
						"members": [
							{
								"astId": 10,
								"contract": "contracts/ergasia.sol:Election",
								"label": "id",
								"offset": 0,
								"slot": "0",
								"type": "t_uint256"
							},
							{
								"astId": 12,
								"contract": "contracts/ergasia.sol:Election",
								"label": "name",
								"offset": 0,
								"slot": "1",
								"type": "t_string_storage"
							},
							{
								"astId": 14,
								"contract": "contracts/ergasia.sol:Election",
								"label": "votersRegistered",
								"offset": 0,
								"slot": "2",
								"type": "t_uint256"
							},
							{
								"astId": 16,
								"contract": "contracts/ergasia.sol:Election",
								"label": "votesCasted",
								"offset": 0,
								"slot": "3",
								"type": "t_uint256"
							},
							{
								"astId": 21,
								"contract": "contracts/ergasia.sol:Election",
								"label": "scoresPerCandidate",
								"offset": 0,
								"slot": "4",
								"type": "t_mapping(t_uint256,t_struct(Candidate)8_storage)"
							}
						],
						"numberOfBytes": "160"
					},
					"t_struct(Voter)33_storage": {
						"encoding": "inplace",
						"label": "struct Election.Voter",
						"members": [
							{
								"astId": 24,
								"contract": "contracts/ergasia.sol:Election",
								"label": "isEnrolled",
								"offset": 0,
								"slot": "0",
								"type": "t_bool"
							},
							{
								"astId": 26,
								"contract": "contracts/ergasia.sol:Election",
								"label": "hasVoted",
								"offset": 1,
								"slot": "0",
								"type": "t_bool"
							},
							{
								"astId": 28,
								"contract": "contracts/ergasia.sol:Election",
								"label": "choice",
								"offset": 0,
								"slot": "1",
								"type": "t_uint256"
							},
							{
								"astId": 30,
								"contract": "contracts/ergasia.sol:Election",
								"label": "enrolledPollingStationID",
								"offset": 0,
								"slot": "2",
								"type": "t_uint256"
							},
							{
								"astId": 32,
								"contract": "contracts/ergasia.sol:Election",
								"label": "votedPollingStationID",
								"offset": 0,
								"slot": "3",
								"type": "t_uint256"
							}
						],
						"numberOfBytes": "128"
					},
					"t_uint256": {
						"encoding": "inplace",
						"label": "uint256",
						"numberOfBytes": "32"
					}
				}
			},
			"userdoc": {
				"kind": "user",
				"methods": {},
				"version": 1
			}
		}
	}
}