{
	"contracts/ergasia.sol": {
		"Election": {
			"abi": [
				{
					"inputs": [],
					"stateMutability": "nonpayable",
					"type": "constructor"
				},
				{
					"anonymous": false,
					"inputs": [
						{
							"indexed": false,
							"internalType": "bool",
							"name": "voted",
							"type": "bool"
						},
						{
							"indexed": false,
							"internalType": "uint256",
							"name": "_choice",
							"type": "uint256"
						},
						{
							"indexed": false,
							"internalType": "uint256",
							"name": "_pollStationID",
							"type": "uint256"
						}
					],
					"name": "VoteCasted",
					"type": "event"
				},
				{
					"inputs": [
						{
							"internalType": "address",
							"name": "_voterAddress",
							"type": "address"
						},
						{
							"internalType": "uint256",
							"name": "_pollingStationID",
							"type": "uint256"
						}
					],
					"name": "addVoter",
					"outputs": [],
					"stateMutability": "nonpayable",
					"type": "function"
				},
				{
					"inputs": [
						{
							"internalType": "uint256",
							"name": "",
							"type": "uint256"
						}
					],
					"name": "candidates",
					"outputs": [
						{
							"internalType": "uint256",
							"name": "id",
							"type": "uint256"
						},
						{
							"internalType": "string",
							"name": "name",
							"type": "string"
						},
						{
							"internalType": "uint256",
							"name": "votes",
							"type": "uint256"
						}
					],
					"stateMutability": "view",
					"type": "function"
				},
				{
					"inputs": [],
					"name": "candidatesCount",
					"outputs": [
						{
							"internalType": "uint256",
							"name": "",
							"type": "uint256"
						}
					],
					"stateMutability": "view",
					"type": "function"
				},
				{
					"inputs": [
						{
							"internalType": "uint256",
							"name": "_choice",
							"type": "uint256"
						},
						{
							"internalType": "uint256",
							"name": "_pollingStationID",
							"type": "uint256"
						}
					],
					"name": "castVote",
					"outputs": [
						{
							"internalType": "bool",
							"name": "voted",
							"type": "bool"
						}
					],
					"stateMutability": "nonpayable",
					"type": "function"
				},
				{
					"inputs": [],
					"name": "electionOwner",
					"outputs": [
						{
							"internalType": "address",
							"name": "",
							"type": "address"
						}
					],
					"stateMutability": "view",
					"type": "function"
				},
				{
					"inputs": [],
					"name": "endVote",
					"outputs": [],
					"stateMutability": "nonpayable",
					"type": "function"
				},
				{
					"inputs": [],
					"name": "finalResult",
					"outputs": [
						{
							"internalType": "uint256",
							"name": "",
							"type": "uint256"
						}
					],
					"stateMutability": "view",
					"type": "function"
				},
				{
					"inputs": [],
					"name": "getResults",
					"outputs": [
						{
							"components": [
								{
									"internalType": "uint256",
									"name": "id",
									"type": "uint256"
								},
								{
									"internalType": "string",
									"name": "name",
									"type": "string"
								},
								{
									"internalType": "uint256",
									"name": "votes",
									"type": "uint256"
								}
							],
							"internalType": "struct Election.Candidate[][]",
							"name": "",
							"type": "tuple[][]"
						}
					],
					"stateMutability": "view",
					"type": "function"
				},
				{
					"inputs": [],
					"name": "pollingStationCount",
					"outputs": [
						{
							"internalType": "uint256",
							"name": "",
							"type": "uint256"
						}
					],
					"stateMutability": "view",
					"type": "function"
				},
				{
					"inputs": [
						{
							"internalType": "uint256",
							"name": "",
							"type": "uint256"
						}
					],
					"name": "pollingStations",
					"outputs": [
						{
							"internalType": "uint256",
							"name": "id",
							"type": "uint256"
						},
						{
							"internalType": "string",
							"name": "name",
							"type": "string"
						},
						{
							"internalType": "uint256",
							"name": "votersRegistered",
							"type": "uint256"
						},
						{
							"internalType": "uint256",
							"name": "votesCasted",
							"type": "uint256"
						}
					],
					"stateMutability": "view",
					"type": "function"
				},
				{
					"inputs": [
						{
							"internalType": "uint256",
							"name": "",
							"type": "uint256"
						},
						{
							"internalType": "uint256",
							"name": "",
							"type": "uint256"
						}
					],
					"name": "results",
					"outputs": [
						{
							"internalType": "uint256",
							"name": "id",
							"type": "uint256"
						},
						{
							"internalType": "string",
							"name": "name",
							"type": "string"
						},
						{
							"internalType": "uint256",
							"name": "votes",
							"type": "uint256"
						}
					],
					"stateMutability": "view",
					"type": "function"
				},
				{
					"inputs": [
						{
							"internalType": "uint256",
							"name": "",
							"type": "uint256"
						},
						{
							"internalType": "uint256",
							"name": "",
							"type": "uint256"
						}
					],
					"name": "resultsPerPollingStation",
					"outputs": [
						{
							"internalType": "uint256",
							"name": "id",
							"type": "uint256"
						},
						{
							"internalType": "string",
							"name": "name",
							"type": "string"
						},
						{
							"internalType": "uint256",
							"name": "votes",
							"type": "uint256"
						}
					],
					"stateMutability": "view",
					"type": "function"
				},
				{
					"inputs": [],
					"name": "startVote",
					"outputs": [],
					"stateMutability": "nonpayable",
					"type": "function"
				},
				{
					"inputs": [],
					"name": "state",
					"outputs": [
						{
							"internalType": "enum Election.State",
							"name": "",
							"type": "uint8"
						}
					],
					"stateMutability": "view",
					"type": "function"
				},
				{
					"inputs": [],
					"name": "totalRegisteredVoters",
					"outputs": [
						{
							"internalType": "uint256",
							"name": "",
							"type": "uint256"
						}
					],
					"stateMutability": "view",
					"type": "function"
				},
				{
					"inputs": [
						{
							"internalType": "address",
							"name": "",
							"type": "address"
						}
					],
					"name": "voterRegistry",
					"outputs": [
						{
							"internalType": "bool",
							"name": "isEnrolled",
							"type": "bool"
						},
						{
							"internalType": "bool",
							"name": "hasVoted",
							"type": "bool"
						},
						{
							"internalType": "uint256",
							"name": "choice",
							"type": "uint256"
						},
						{
							"internalType": "uint256",
							"name": "enrolledPollingStationID",
							"type": "uint256"
						},
						{
							"internalType": "uint256",
							"name": "votedPollingStationID",
							"type": "uint256"
						}
					],
					"stateMutability": "view",
					"type": "function"
				},
				{
					"inputs": [
						{
							"internalType": "address",
							"name": "",
							"type": "address"
						}
					],
					"name": "voters",
					"outputs": [
						{
							"internalType": "bool",
							"name": "",
							"type": "bool"
						}
					],
					"stateMutability": "view",
					"type": "function"
				}
			],
			"devdoc": {
				"kind": "dev",
				"methods": {
					"addVoter(address,uint256)": {
						"details": "Adds a voter to the voter registry. May only be called by 'owner'.",
						"params": {
							"_pollingStationID": "polling station ID in which voter is registered.",
							"_voterAddress": "address of voter"
						}
					}
				},
				"version": 1
			},
			"evm": {
				"assembly": "    /* \"contracts/ergasia.sol\":70:8226  contract Election {... */\n  mstore(0x40, 0x80)\n    /* \"contracts/ergasia.sol\":2253:2520  constructor() {... */\n  callvalue\n  dup1\n  iszero\n  tag_1\n  jumpi\n  0x00\n  dup1\n  revert\ntag_1:\n  pop\n    /* \"contracts/ergasia.sol\":2293:2303  msg.sender */\n  caller\n    /* \"contracts/ergasia.sol\":2277:2290  electionOwner */\n  0x00\n  dup1\n    /* \"contracts/ergasia.sol\":2277:2303  electionOwner = msg.sender */\n  0x0100\n  exp\n  dup2\n  sload\n  dup2\n  0xffffffffffffffffffffffffffffffffffffffff\n  mul\n  not\n  and\n  swap1\n  dup4\n  0xffffffffffffffffffffffffffffffffffffffff\n  and\n  mul\n  or\n  swap1\n  sstore\n  pop\n    /* \"contracts/ergasia.sol\":2352:2368  initCandidates() */\n  tag_4\n    /* \"contracts/ergasia.sol\":2352:2366  initCandidates */\n  shl(0x20, tag_5)\n    /* \"contracts/ergasia.sol\":2352:2368  initCandidates() */\n  0x20\n  shr\n  jump\t// in\ntag_4:\n    /* \"contracts/ergasia.sol\":2423:2444  initPollingStations() */\n  tag_6\n    /* \"contracts/ergasia.sol\":2423:2442  initPollingStations */\n  shl(0x20, tag_7)\n    /* \"contracts/ergasia.sol\":2423:2444  initPollingStations() */\n  0x20\n  shr\n  jump\t// in\ntag_6:\n    /* \"contracts/ergasia.sol\":2498:2511  State.Created */\n  0x00\n    /* \"contracts/ergasia.sol\":2490:2495  state */\n  0x0c\n  0x00\n    /* \"contracts/ergasia.sol\":2490:2511  state = State.Created */\n  0x0100\n  exp\n  dup2\n  sload\n  dup2\n  0xff\n  mul\n  not\n  and\n  swap1\n  dup4\n  0x02\n  dup2\n  gt\n  iszero\n  tag_8\n  jumpi\n  tag_9\n  tag_10\n  jump\t// in\ntag_9:\ntag_8:\n  mul\n  or\n  swap1\n  sstore\n  pop\n    /* \"contracts/ergasia.sol\":70:8226  contract Election {... */\n  jump(tag_11)\n    /* \"contracts/ergasia.sol\":2579:2806  function initCandidates() internal {... */\ntag_5:\n    /* \"contracts/ergasia.sol\":2624:2651  addCandidate(\"Candidate 1\") */\n  tag_13\n  mload(0x40)\n  dup1\n  0x40\n  add\n  0x40\n  mstore\n  dup1\n  0x0b\n  dup2\n  mstore\n  0x20\n  add\n  0x43616e6469646174652031000000000000000000000000000000000000000000\n  dup2\n  mstore\n  pop\n    /* \"contracts/ergasia.sol\":2624:2636  addCandidate */\n  shl(0x20, tag_14)\n    /* \"contracts/ergasia.sol\":2624:2651  addCandidate(\"Candidate 1\") */\n  0x20\n  shr\n  jump\t// in\ntag_13:\n    /* \"contracts/ergasia.sol\":2661:2688  addCandidate(\"Candidate 2\") */\n  tag_15\n  mload(0x40)\n  dup1\n  0x40\n  add\n  0x40\n  mstore\n  dup1\n  0x0b\n  dup2\n  mstore\n  0x20\n  add\n  0x43616e6469646174652032000000000000000000000000000000000000000000\n  dup2\n  mstore\n  pop\n    /* \"contracts/ergasia.sol\":2661:2673  addCandidate */\n  shl(0x20, tag_14)\n    /* \"contracts/ergasia.sol\":2661:2688  addCandidate(\"Candidate 2\") */\n  0x20\n  shr\n  jump\t// in\ntag_15:\n    /* \"contracts/ergasia.sol\":2698:2725  addCandidate(\"Candidate 3\") */\n  tag_16\n  mload(0x40)\n  dup1\n  0x40\n  add\n  0x40\n  mstore\n  dup1\n  0x0b\n  dup2\n  mstore\n  0x20\n  add\n  0x43616e6469646174652033000000000000000000000000000000000000000000\n  dup2\n  mstore\n  pop\n    /* \"contracts/ergasia.sol\":2698:2710  addCandidate */\n  shl(0x20, tag_14)\n    /* \"contracts/ergasia.sol\":2698:2725  addCandidate(\"Candidate 3\") */\n  0x20\n  shr\n  jump\t// in\ntag_16:\n    /* \"contracts/ergasia.sol\":2735:2762  addCandidate(\"Candidate 4\") */\n  tag_17\n  mload(0x40)\n  dup1\n  0x40\n  add\n  0x40\n  mstore\n  dup1\n  0x0b\n  dup2\n  mstore\n  0x20\n  add\n  0x43616e6469646174652034000000000000000000000000000000000000000000\n  dup2\n  mstore\n  pop\n    /* \"contracts/ergasia.sol\":2735:2747  addCandidate */\n  shl(0x20, tag_14)\n    /* \"contracts/ergasia.sol\":2735:2762  addCandidate(\"Candidate 4\") */\n  0x20\n  shr\n  jump\t// in\ntag_17:\n    /* \"contracts/ergasia.sol\":2772:2799  addCandidate(\"Candidate 5\") */\n  tag_18\n  mload(0x40)\n  dup1\n  0x40\n  add\n  0x40\n  mstore\n  dup1\n  0x0b\n  dup2\n  mstore\n  0x20\n  add\n  0x43616e6469646174652035000000000000000000000000000000000000000000\n  dup2\n  mstore\n  pop\n    /* \"contracts/ergasia.sol\":2772:2784  addCandidate */\n  shl(0x20, tag_14)\n    /* \"contracts/ergasia.sol\":2772:2799  addCandidate(\"Candidate 5\") */\n  0x20\n  shr\n  jump\t// in\ntag_18:\n    /* \"contracts/ergasia.sol\":2579:2806  function initCandidates() internal {... */\n  jump\t// out\n    /* \"contracts/ergasia.sol\":3149:3677  function initPollingStations() internal {... */\ntag_7:\n    /* \"contracts/ergasia.sol\":3199:3237  addPollingStation(\"Polling Station 1\") */\n  tag_20\n  mload(0x40)\n  dup1\n  0x40\n  add\n  0x40\n  mstore\n  dup1\n  0x11\n  dup2\n  mstore\n  0x20\n  add\n  0x506f6c6c696e672053746174696f6e2031000000000000000000000000000000\n  dup2\n  mstore\n  pop\n    /* \"contracts/ergasia.sol\":3199:3216  addPollingStation */\n  shl(0x20, tag_21)\n    /* \"contracts/ergasia.sol\":3199:3237  addPollingStation(\"Polling Station 1\") */\n  0x20\n  shr\n  jump\t// in\ntag_20:\n    /* \"contracts/ergasia.sol\":3247:3285  addPollingStation(\"Polling Station 2\") */\n  tag_22\n  mload(0x40)\n  dup1\n  0x40\n  add\n  0x40\n  mstore\n  dup1\n  0x11\n  dup2\n  mstore\n  0x20\n  add\n  0x506f6c6c696e672053746174696f6e2032000000000000000000000000000000\n  dup2\n  mstore\n  pop\n    /* \"contracts/ergasia.sol\":3247:3264  addPollingStation */\n  shl(0x20, tag_21)\n    /* \"contracts/ergasia.sol\":3247:3285  addPollingStation(\"Polling Station 2\") */\n  0x20\n  shr\n  jump\t// in\ntag_22:\n    /* \"contracts/ergasia.sol\":3295:3333  addPollingStation(\"Polling Station 3\") */\n  tag_23\n  mload(0x40)\n  dup1\n  0x40\n  add\n  0x40\n  mstore\n  dup1\n  0x11\n  dup2\n  mstore\n  0x20\n  add\n  0x506f6c6c696e672053746174696f6e2033000000000000000000000000000000\n  dup2\n  mstore\n  pop\n    /* \"contracts/ergasia.sol\":3295:3312  addPollingStation */\n  shl(0x20, tag_21)\n    /* \"contracts/ergasia.sol\":3295:3333  addPollingStation(\"Polling Station 3\") */\n  0x20\n  shr\n  jump\t// in\ntag_23:\n    /* \"contracts/ergasia.sol\":3343:3381  addPollingStation(\"Polling Station 4\") */\n  tag_24\n  mload(0x40)\n  dup1\n  0x40\n  add\n  0x40\n  mstore\n  dup1\n  0x11\n  dup2\n  mstore\n  0x20\n  add\n  0x506f6c6c696e672053746174696f6e2034000000000000000000000000000000\n  dup2\n  mstore\n  pop\n    /* \"contracts/ergasia.sol\":3343:3360  addPollingStation */\n  shl(0x20, tag_21)\n    /* \"contracts/ergasia.sol\":3343:3381  addPollingStation(\"Polling Station 4\") */\n  0x20\n  shr\n  jump\t// in\ntag_24:\n    /* \"contracts/ergasia.sol\":3391:3429  addPollingStation(\"Polling Station 5\") */\n  tag_25\n  mload(0x40)\n  dup1\n  0x40\n  add\n  0x40\n  mstore\n  dup1\n  0x11\n  dup2\n  mstore\n  0x20\n  add\n  0x506f6c6c696e672053746174696f6e2035000000000000000000000000000000\n  dup2\n  mstore\n  pop\n    /* \"contracts/ergasia.sol\":3391:3408  addPollingStation */\n  shl(0x20, tag_21)\n    /* \"contracts/ergasia.sol\":3391:3429  addPollingStation(\"Polling Station 5\") */\n  0x20\n  shr\n  jump\t// in\ntag_25:\n    /* \"contracts/ergasia.sol\":3439:3477  addPollingStation(\"Polling Station 6\") */\n  tag_26\n  mload(0x40)\n  dup1\n  0x40\n  add\n  0x40\n  mstore\n  dup1\n  0x11\n  dup2\n  mstore\n  0x20\n  add\n  0x506f6c6c696e672053746174696f6e2036000000000000000000000000000000\n  dup2\n  mstore\n  pop\n    /* \"contracts/ergasia.sol\":3439:3456  addPollingStation */\n  shl(0x20, tag_21)\n    /* \"contracts/ergasia.sol\":3439:3477  addPollingStation(\"Polling Station 6\") */\n  0x20\n  shr\n  jump\t// in\ntag_26:\n    /* \"contracts/ergasia.sol\":3487:3525  addPollingStation(\"Polling Station 7\") */\n  tag_27\n  mload(0x40)\n  dup1\n  0x40\n  add\n  0x40\n  mstore\n  dup1\n  0x11\n  dup2\n  mstore\n  0x20\n  add\n  0x506f6c6c696e672053746174696f6e2037000000000000000000000000000000\n  dup2\n  mstore\n  pop\n    /* \"contracts/ergasia.sol\":3487:3504  addPollingStation */\n  shl(0x20, tag_21)\n    /* \"contracts/ergasia.sol\":3487:3525  addPollingStation(\"Polling Station 7\") */\n  0x20\n  shr\n  jump\t// in\ntag_27:\n    /* \"contracts/ergasia.sol\":3535:3573  addPollingStation(\"Polling Station 8\") */\n  tag_28\n  mload(0x40)\n  dup1\n  0x40\n  add\n  0x40\n  mstore\n  dup1\n  0x11\n  dup2\n  mstore\n  0x20\n  add\n  0x506f6c6c696e672053746174696f6e2038000000000000000000000000000000\n  dup2\n  mstore\n  pop\n    /* \"contracts/ergasia.sol\":3535:3552  addPollingStation */\n  shl(0x20, tag_21)\n    /* \"contracts/ergasia.sol\":3535:3573  addPollingStation(\"Polling Station 8\") */\n  0x20\n  shr\n  jump\t// in\ntag_28:\n    /* \"contracts/ergasia.sol\":3583:3621  addPollingStation(\"Polling Station 9\") */\n  tag_29\n  mload(0x40)\n  dup1\n  0x40\n  add\n  0x40\n  mstore\n  dup1\n  0x11\n  dup2\n  mstore\n  0x20\n  add\n  0x506f6c6c696e672053746174696f6e2039000000000000000000000000000000\n  dup2\n  mstore\n  pop\n    /* \"contracts/ergasia.sol\":3583:3600  addPollingStation */\n  shl(0x20, tag_21)\n    /* \"contracts/ergasia.sol\":3583:3621  addPollingStation(\"Polling Station 9\") */\n  0x20\n  shr\n  jump\t// in\ntag_29:\n    /* \"contracts/ergasia.sol\":3631:3670  addPollingStation(\"Polling Station 10\") */\n  tag_30\n  mload(0x40)\n  dup1\n  0x40\n  add\n  0x40\n  mstore\n  dup1\n  0x12\n  dup2\n  mstore\n  0x20\n  add\n  0x506f6c6c696e672053746174696f6e2031300000000000000000000000000000\n  dup2\n  mstore\n  pop\n    /* \"contracts/ergasia.sol\":3631:3648  addPollingStation */\n  shl(0x20, tag_21)\n    /* \"contracts/ergasia.sol\":3631:3670  addPollingStation(\"Polling Station 10\") */\n  0x20\n  shr\n  jump\t// in\ntag_30:\n    /* \"contracts/ergasia.sol\":3149:3677  function initPollingStations() internal {... */\n  jump\t// out\n    /* \"contracts/ergasia.sol\":2926:3088  function addCandidate (string memory _name) private {... */\ntag_14:\n    /* \"contracts/ergasia.sol\":2988:3003  candidatesCount */\n  0x01\n  0x00\n    /* \"contracts/ergasia.sol\":2988:3005  candidatesCount++ */\n  dup2\n  sload\n  dup1\n  swap3\n  swap2\n  swap1\n  tag_32\n  swap1\n  tag_33\n  jump\t// in\ntag_32:\n  swap2\n  swap1\n  pop\n  sstore\n  pop\n    /* \"contracts/ergasia.sol\":3045:3081  Candidate(candidatesCount, _name, 0) */\n  mload(0x40)\n  dup1\n  0x60\n  add\n  0x40\n  mstore\n  dup1\n    /* \"contracts/ergasia.sol\":3055:3070  candidatesCount */\n  sload(0x01)\n    /* \"contracts/ergasia.sol\":3045:3081  Candidate(candidatesCount, _name, 0) */\n  dup2\n  mstore\n  0x20\n  add\n    /* \"contracts/ergasia.sol\":3072:3077  _name */\n  dup3\n    /* \"contracts/ergasia.sol\":3045:3081  Candidate(candidatesCount, _name, 0) */\n  dup2\n  mstore\n  0x20\n  add\n    /* \"contracts/ergasia.sol\":3079:3080  0 */\n  0x00\n    /* \"contracts/ergasia.sol\":3045:3081  Candidate(candidatesCount, _name, 0) */\n  dup2\n  mstore\n  pop\n    /* \"contracts/ergasia.sol\":3015:3025  candidates */\n  0x07\n    /* \"contracts/ergasia.sol\":3015:3042  candidates[candidatesCount] */\n  0x00\n    /* \"contracts/ergasia.sol\":3026:3041  candidatesCount */\n  sload(0x01)\n    /* \"contracts/ergasia.sol\":3015:3042  candidates[candidatesCount] */\n  dup2\n  mstore\n  0x20\n  add\n  swap1\n  dup2\n  mstore\n  0x20\n  add\n  0x00\n  keccak256\n    /* \"contracts/ergasia.sol\":3015:3081  candidates[candidatesCount] = Candidate(candidatesCount, _name, 0) */\n  0x00\n  dup3\n  add\n  mload\n  dup2\n  0x00\n  add\n  sstore\n  0x20\n  dup3\n  add\n  mload\n  dup2\n  0x01\n  add\n  swap1\n  dup1\n  mload\n  swap1\n  0x20\n  add\n  swap1\n  tag_34\n  swap3\n  swap2\n  swap1\n  tag_35\n  jump\t// in\ntag_34:\n  pop\n  0x40\n  dup3\n  add\n  mload\n  dup2\n  0x02\n  add\n  sstore\n  swap1\n  pop\n  pop\n    /* \"contracts/ergasia.sol\":2926:3088  function addCandidate (string memory _name) private {... */\n  pop\n  jump\t// out\n    /* \"contracts/ergasia.sol\":3800:3992  function addPollingStation (string memory _name) private {... */\ntag_21:\n    /* \"contracts/ergasia.sol\":3867:3886  pollingStationCount */\n  0x02\n  0x00\n    /* \"contracts/ergasia.sol\":3867:3888  pollingStationCount++ */\n  dup2\n  sload\n  dup1\n  swap3\n  swap2\n  swap1\n  tag_37\n  swap1\n  tag_33\n  jump\t// in\ntag_37:\n  swap2\n  swap1\n  pop\n  sstore\n  pop\n    /* \"contracts/ergasia.sol\":3937:3985  PollingStation(pollingStationCount, _name, 0, 0) */\n  mload(0x40)\n  dup1\n  0x80\n  add\n  0x40\n  mstore\n  dup1\n    /* \"contracts/ergasia.sol\":3952:3971  pollingStationCount */\n  sload(0x02)\n    /* \"contracts/ergasia.sol\":3937:3985  PollingStation(pollingStationCount, _name, 0, 0) */\n  dup2\n  mstore\n  0x20\n  add\n    /* \"contracts/ergasia.sol\":3973:3978  _name */\n  dup3\n    /* \"contracts/ergasia.sol\":3937:3985  PollingStation(pollingStationCount, _name, 0, 0) */\n  dup2\n  mstore\n  0x20\n  add\n    /* \"contracts/ergasia.sol\":3980:3981  0 */\n  0x00\n    /* \"contracts/ergasia.sol\":3937:3985  PollingStation(pollingStationCount, _name, 0, 0) */\n  dup2\n  mstore\n  0x20\n  add\n    /* \"contracts/ergasia.sol\":3983:3984  0 */\n  0x00\n    /* \"contracts/ergasia.sol\":3937:3985  PollingStation(pollingStationCount, _name, 0, 0) */\n  dup2\n  mstore\n  pop\n    /* \"contracts/ergasia.sol\":3898:3913  pollingStations */\n  0x08\n    /* \"contracts/ergasia.sol\":3898:3934  pollingStations[pollingStationCount] */\n  0x00\n    /* \"contracts/ergasia.sol\":3914:3933  pollingStationCount */\n  sload(0x02)\n    /* \"contracts/ergasia.sol\":3898:3934  pollingStations[pollingStationCount] */\n  dup2\n  mstore\n  0x20\n  add\n  swap1\n  dup2\n  mstore\n  0x20\n  add\n  0x00\n  keccak256\n    /* \"contracts/ergasia.sol\":3898:3985  pollingStations[pollingStationCount] = PollingStation(pollingStationCount, _name, 0, 0) */\n  0x00\n  dup3\n  add\n  mload\n  dup2\n  0x00\n  add\n  sstore\n  0x20\n  dup3\n  add\n  mload\n  dup2\n  0x01\n  add\n  swap1\n  dup1\n  mload\n  swap1\n  0x20\n  add\n  swap1\n  tag_38\n  swap3\n  swap2\n  swap1\n  tag_35\n  jump\t// in\ntag_38:\n  pop\n  0x40\n  dup3\n  add\n  mload\n  dup2\n  0x02\n  add\n  sstore\n  0x60\n  dup3\n  add\n  mload\n  dup2\n  0x03\n  add\n  sstore\n  swap1\n  pop\n  pop\n    /* \"contracts/ergasia.sol\":3800:3992  function addPollingStation (string memory _name) private {... */\n  pop\n  jump\t// out\n    /* \"contracts/ergasia.sol\":70:8226  contract Election {... */\ntag_35:\n  dup3\n  dup1\n  sload\n  tag_39\n  swap1\n  tag_40\n  jump\t// in\ntag_39:\n  swap1\n  0x00\n  mstore\n  keccak256(0x00, 0x20)\n  swap1\n  0x1f\n  add\n  0x20\n  swap1\n  div\n  dup2\n  add\n  swap3\n  dup3\n  tag_42\n  jumpi\n  0x00\n  dup6\n  sstore\n  jump(tag_41)\ntag_42:\n  dup3\n  0x1f\n  lt\n  tag_43\n  jumpi\n  dup1\n  mload\n  not(0xff)\n  and\n  dup4\n  dup1\n  add\n  or\n  dup6\n  sstore\n  jump(tag_41)\ntag_43:\n  dup3\n  dup1\n  add\n  0x01\n  add\n  dup6\n  sstore\n  dup3\n  iszero\n  tag_41\n  jumpi\n  swap2\n  dup3\n  add\ntag_44:\n  dup3\n  dup2\n  gt\n  iszero\n  tag_45\n  jumpi\n  dup3\n  mload\n  dup3\n  sstore\n  swap2\n  0x20\n  add\n  swap2\n  swap1\n  0x01\n  add\n  swap1\n  jump(tag_44)\ntag_45:\ntag_41:\n  pop\n  swap1\n  pop\n  tag_46\n  swap2\n  swap1\n  tag_47\n  jump\t// in\ntag_46:\n  pop\n  swap1\n  jump\t// out\ntag_47:\ntag_48:\n  dup1\n  dup3\n  gt\n  iszero\n  tag_49\n  jumpi\n  0x00\n  dup2\n  0x00\n  swap1\n  sstore\n  pop\n  0x01\n  add\n  jump(tag_48)\ntag_49:\n  pop\n  swap1\n  jump\t// out\n    /* \"#utility.yul\":7:84   */\ntag_51:\n    /* \"#utility.yul\":44:51   */\n  0x00\n    /* \"#utility.yul\":73:78   */\n  dup2\n    /* \"#utility.yul\":62:78   */\n  swap1\n  pop\n    /* \"#utility.yul\":7:84   */\n  swap2\n  swap1\n  pop\n  jump\t// out\n    /* \"#utility.yul\":90:410   */\ntag_40:\n    /* \"#utility.yul\":134:140   */\n  0x00\n    /* \"#utility.yul\":171:172   */\n  0x02\n    /* \"#utility.yul\":165:169   */\n  dup3\n    /* \"#utility.yul\":161:173   */\n  div\n    /* \"#utility.yul\":151:173   */\n  swap1\n  pop\n    /* \"#utility.yul\":218:219   */\n  0x01\n    /* \"#utility.yul\":212:216   */\n  dup3\n    /* \"#utility.yul\":208:220   */\n  and\n    /* \"#utility.yul\":239:257   */\n  dup1\n    /* \"#utility.yul\":229:310   */\n  tag_54\n  jumpi\n    /* \"#utility.yul\":295:299   */\n  0x7f\n    /* \"#utility.yul\":287:293   */\n  dup3\n    /* \"#utility.yul\":283:300   */\n  and\n    /* \"#utility.yul\":273:300   */\n  swap2\n  pop\n    /* \"#utility.yul\":229:310   */\ntag_54:\n    /* \"#utility.yul\":357:359   */\n  0x20\n    /* \"#utility.yul\":349:355   */\n  dup3\n    /* \"#utility.yul\":346:360   */\n  lt\n    /* \"#utility.yul\":326:344   */\n  dup2\n    /* \"#utility.yul\":323:361   */\n  eq\n    /* \"#utility.yul\":320:404   */\n  iszero\n  tag_55\n  jumpi\n    /* \"#utility.yul\":376:394   */\n  tag_56\n  tag_57\n  jump\t// in\ntag_56:\n    /* \"#utility.yul\":320:404   */\ntag_55:\n    /* \"#utility.yul\":141:410   */\n  pop\n    /* \"#utility.yul\":90:410   */\n  swap2\n  swap1\n  pop\n  jump\t// out\n    /* \"#utility.yul\":416:649   */\ntag_33:\n    /* \"#utility.yul\":455:458   */\n  0x00\n    /* \"#utility.yul\":478:502   */\n  tag_59\n    /* \"#utility.yul\":496:501   */\n  dup3\n    /* \"#utility.yul\":478:502   */\n  tag_51\n  jump\t// in\ntag_59:\n    /* \"#utility.yul\":469:502   */\n  swap2\n  pop\n    /* \"#utility.yul\":524:590   */\n  0xffffffffffffffffffffffffffffffffffffffffffffffffffffffffffffffff\n    /* \"#utility.yul\":517:522   */\n  dup3\n    /* \"#utility.yul\":514:591   */\n  eq\n    /* \"#utility.yul\":511:614   */\n  iszero\n  tag_60\n  jumpi\n    /* \"#utility.yul\":594:612   */\n  tag_61\n  tag_62\n  jump\t// in\ntag_61:\n    /* \"#utility.yul\":511:614   */\ntag_60:\n    /* \"#utility.yul\":641:642   */\n  0x01\n    /* \"#utility.yul\":634:639   */\n  dup3\n    /* \"#utility.yul\":630:643   */\n  add\n    /* \"#utility.yul\":623:643   */\n  swap1\n  pop\n    /* \"#utility.yul\":416:649   */\n  swap2\n  swap1\n  pop\n  jump\t// out\n    /* \"#utility.yul\":655:835   */\ntag_62:\n    /* \"#utility.yul\":703:780   */\n  0x4e487b7100000000000000000000000000000000000000000000000000000000\n    /* \"#utility.yul\":700:701   */\n  0x00\n    /* \"#utility.yul\":693:781   */\n  mstore\n    /* \"#utility.yul\":800:804   */\n  0x11\n    /* \"#utility.yul\":797:798   */\n  0x04\n    /* \"#utility.yul\":790:805   */\n  mstore\n    /* \"#utility.yul\":824:828   */\n  0x24\n    /* \"#utility.yul\":821:822   */\n  0x00\n    /* \"#utility.yul\":814:829   */\n  revert\n    /* \"#utility.yul\":841:1021   */\ntag_10:\n    /* \"#utility.yul\":889:966   */\n  0x4e487b7100000000000000000000000000000000000000000000000000000000\n    /* \"#utility.yul\":886:887   */\n  0x00\n    /* \"#utility.yul\":879:967   */\n  mstore\n    /* \"#utility.yul\":986:990   */\n  0x21\n    /* \"#utility.yul\":983:984   */\n  0x04\n    /* \"#utility.yul\":976:991   */\n  mstore\n    /* \"#utility.yul\":1010:1014   */\n  0x24\n    /* \"#utility.yul\":1007:1008   */\n  0x00\n    /* \"#utility.yul\":1000:1015   */\n  revert\n    /* \"#utility.yul\":1027:1207   */\ntag_57:\n    /* \"#utility.yul\":1075:1152   */\n  0x4e487b7100000000000000000000000000000000000000000000000000000000\n    /* \"#utility.yul\":1072:1073   */\n  0x00\n    /* \"#utility.yul\":1065:1153   */\n  mstore\n    /* \"#utility.yul\":1172:1176   */\n  0x22\n    /* \"#utility.yul\":1169:1170   */\n  0x04\n    /* \"#utility.yul\":1162:1177   */\n  mstore\n    /* \"#utility.yul\":1196:1200   */\n  0x24\n    /* \"#utility.yul\":1193:1194   */\n  0x00\n    /* \"#utility.yul\":1186:1201   */\n  revert\n    /* \"contracts/ergasia.sol\":70:8226  contract Election {... */\ntag_11:\n  dataSize(sub_0)\n  dup1\n  dataOffset(sub_0)\n  0x00\n  codecopy\n  0x00\n  return\nstop\n\nsub_0: assembly {\n        /* \"contracts/ergasia.sol\":70:8226  contract Election {... */\n      mstore(0x40, 0x80)\n      callvalue\n      dup1\n      iszero\n      tag_1\n      jumpi\n      0x00\n      dup1\n      revert\n    tag_1:\n      pop\n      jumpi(tag_2, lt(calldatasize, 0x04))\n      shr(0xe0, calldataload(0x00))\n      dup1\n      0xa3ec138d\n      gt\n      tag_20\n      jumpi\n      dup1\n      0xc19d93fb\n      gt\n      tag_21\n      jumpi\n      dup1\n      0xc19d93fb\n      eq\n      tag_15\n      jumpi\n      dup1\n      0xd70c6f4e\n      eq\n      tag_16\n      jumpi\n      dup1\n      0xdf9f1a07\n      eq\n      tag_17\n      jumpi\n      dup1\n      0xf3a8286f\n      eq\n      tag_18\n      jumpi\n      dup1\n      0xfe2442d7\n      eq\n      tag_19\n      jumpi\n      jump(tag_2)\n    tag_21:\n      dup1\n      0xa3ec138d\n      eq\n      tag_11\n      jumpi\n      dup1\n      0xb54b5d62\n      eq\n      tag_12\n      jumpi\n      dup1\n      0xb9223946\n      eq\n      tag_13\n      jumpi\n      dup1\n      0xb9f05f2f\n      eq\n      tag_14\n      jumpi\n      jump(tag_2)\n    tag_20:\n      dup1\n      0x4717f97c\n      gt\n      tag_22\n      jumpi\n      dup1\n      0x4717f97c\n      eq\n      tag_7\n      jumpi\n      dup1\n      0x4763d4e7\n      eq\n      tag_8\n      jumpi\n      dup1\n      0x4c0a6af0\n      eq\n      tag_9\n      jumpi\n      dup1\n      0x53357ad0\n      eq\n      tag_10\n      jumpi\n      jump(tag_2)\n    tag_22:\n      dup1\n      0xaa7464\n      eq\n      tag_3\n      jumpi\n      dup1\n      0x2c0a3f89\n      eq\n      tag_4\n      jumpi\n      dup1\n      0x2d35a8a2\n      eq\n      tag_5\n      jumpi\n      dup1\n      0x3477ee2e\n      eq\n      tag_6\n      jumpi\n    tag_2:\n      0x00\n      dup1\n      revert\n        /* \"contracts/ergasia.sol\":1363:1396  uint public totalRegisteredVoters */\n    tag_3:\n      tag_23\n      tag_24\n      jump\t// in\n    tag_23:\n      mload(0x40)\n      tag_25\n      swap2\n      swap1\n      tag_26\n      jump\t// in\n    tag_25:\n      mload(0x40)\n      dup1\n      swap2\n      sub\n      swap1\n      return\n        /* \"contracts/ergasia.sol\":6820:7618  function castVote(uint _choice, uint _pollingStationID) public inState(State.Voting) returns (bool voted) {... */\n    tag_4:\n      tag_27\n      0x04\n      dup1\n      calldatasize\n      sub\n      dup2\n      add\n      swap1\n      tag_28\n      swap2\n      swap1\n      tag_29\n      jump\t// in\n    tag_28:\n      tag_30\n      jump\t// in\n    tag_27:\n      mload(0x40)\n      tag_31\n      swap2\n      swap1\n      tag_32\n      jump\t// in\n    tag_31:\n      mload(0x40)\n      dup1\n      swap2\n      sub\n      swap1\n      return\n        /* \"contracts/ergasia.sol\":1221:1248  uint public candidatesCount */\n    tag_5:\n      tag_33\n      tag_34\n      jump\t// in\n    tag_33:\n      mload(0x40)\n      tag_35\n      swap2\n      swap1\n      tag_26\n      jump\t// in\n    tag_35:\n      mload(0x40)\n      dup1\n      swap2\n      sub\n      swap1\n      return\n        /* \"contracts/ergasia.sol\":1600:1644  mapping(uint => Candidate) public candidates */\n    tag_6:\n      tag_36\n      0x04\n      dup1\n      calldatasize\n      sub\n      dup2\n      add\n      swap1\n      tag_37\n      swap2\n      swap1\n      tag_38\n      jump\t// in\n    tag_37:\n      tag_39\n      jump\t// in\n    tag_36:\n      mload(0x40)\n      tag_40\n      swap4\n      swap3\n      swap2\n      swap1\n      tag_41\n      jump\t// in\n    tag_40:\n      mload(0x40)\n      dup1\n      swap2\n      sub\n      swap1\n      return\n        /* \"contracts/ergasia.sol\":7757:8224  function getResults() external view returns (Candidate[][] memory) {... */\n    tag_7:\n      tag_42\n      tag_43\n      jump\t// in\n    tag_42:\n      mload(0x40)\n      tag_44\n      swap2\n      swap1\n      tag_45\n      jump\t// in\n    tag_44:\n      mload(0x40)\n      dup1\n      swap2\n      sub\n      swap1\n      return\n        /* \"contracts/ergasia.sol\":1758:1804  mapping(address => Voter) public voterRegistry */\n    tag_8:\n      tag_46\n      0x04\n      dup1\n      calldatasize\n      sub\n      dup2\n      add\n      swap1\n      tag_47\n      swap2\n      swap1\n      tag_48\n      jump\t// in\n    tag_47:\n      tag_49\n      jump\t// in\n    tag_46:\n      mload(0x40)\n      tag_50\n      swap6\n      swap5\n      swap4\n      swap3\n      swap2\n      swap1\n      tag_51\n      jump\t// in\n    tag_50:\n      mload(0x40)\n      dup1\n      swap2\n      sub\n      swap1\n      return\n        /* \"contracts/ergasia.sol\":6720:6814  function startVote() public inState(State.Created) Owner {... */\n    tag_9:\n      tag_52\n      tag_53\n      jump\t// in\n    tag_52:\n      stop\n        /* \"contracts/ergasia.sol\":1187:1215  address public electionOwner */\n    tag_10:\n      tag_54\n      tag_55\n      jump\t// in\n    tag_54:\n      mload(0x40)\n      tag_56\n      swap2\n      swap1\n      tag_57\n      jump\t// in\n    tag_56:\n      mload(0x40)\n      dup1\n      swap2\n      sub\n      swap1\n      return\n        /* \"contracts/ergasia.sol\":1810:1848  mapping(address => bool) public voters */\n    tag_11:\n      tag_58\n      0x04\n      dup1\n      calldatasize\n      sub\n      dup2\n      add\n      swap1\n      tag_59\n      swap2\n      swap1\n      tag_48\n      jump\t// in\n    tag_59:\n      tag_60\n      jump\t// in\n    tag_58:\n      mload(0x40)\n      tag_61\n      swap2\n      swap1\n      tag_32\n      jump\t// in\n    tag_61:\n      mload(0x40)\n      dup1\n      swap2\n      sub\n      swap1\n      return\n        /* \"contracts/ergasia.sol\":1854:1929  mapping(uint => mapping(uint => Candidate)) public resultsPerPollingStation */\n    tag_12:\n      tag_62\n      0x04\n      dup1\n      calldatasize\n      sub\n      dup2\n      add\n      swap1\n      tag_63\n      swap2\n      swap1\n      tag_29\n      jump\t// in\n    tag_63:\n      tag_64\n      jump\t// in\n    tag_62:\n      mload(0x40)\n      tag_65\n      swap4\n      swap3\n      swap2\n      swap1\n      tag_41\n      jump\t// in\n    tag_65:\n      mload(0x40)\n      dup1\n      swap2\n      sub\n      swap1\n      return\n        /* \"contracts/ergasia.sol\":7624:7750  function endVote() public inState(State.Voting) Owner { ... */\n    tag_13:\n      tag_66\n      tag_67\n      jump\t// in\n    tag_66:\n      stop\n        /* \"contracts/ergasia.sol\":5266:6186  function addVoter(address _voterAddress, uint _pollingStationID) public inState(State.Created) Owner {... */\n    tag_14:\n      tag_68\n      0x04\n      dup1\n      calldatasize\n      sub\n      dup2\n      add\n      swap1\n      tag_69\n      swap2\n      swap1\n      tag_70\n      jump\t// in\n    tag_69:\n      tag_71\n      jump\t// in\n    tag_68:\n      stop\n        /* \"contracts/ergasia.sol\":1982:2000  State public state */\n    tag_15:\n      tag_72\n      tag_73\n      jump\t// in\n    tag_72:\n      mload(0x40)\n      tag_74\n      swap2\n      swap1\n      tag_75\n      jump\t// in\n    tag_74:\n      mload(0x40)\n      dup1\n      swap2\n      sub\n      swap1\n      return\n        /* \"contracts/ergasia.sol\":1565:1593  Candidate[][] public results */\n    tag_16:\n      tag_76\n      0x04\n      dup1\n      calldatasize\n      sub\n      dup2\n      add\n      swap1\n      tag_77\n      swap2\n      swap1\n      tag_29\n      jump\t// in\n    tag_77:\n      tag_78\n      jump\t// in\n    tag_76:\n      mload(0x40)\n      tag_79\n      swap4\n      swap3\n      swap2\n      swap1\n      tag_41\n      jump\t// in\n    tag_79:\n      mload(0x40)\n      dup1\n      swap2\n      sub\n      swap1\n      return\n        /* \"contracts/ergasia.sol\":1289:1320  uint public pollingStationCount */\n    tag_17:\n      tag_80\n      tag_81\n      jump\t// in\n    tag_80:\n      mload(0x40)\n      tag_82\n      swap2\n      swap1\n      tag_26\n      jump\t// in\n    tag_82:\n      mload(0x40)\n      dup1\n      swap2\n      sub\n      swap1\n      return\n        /* \"contracts/ergasia.sol\":1484:1507  uint public finalResult */\n    tag_18:\n      tag_83\n      tag_84\n      jump\t// in\n    tag_83:\n      mload(0x40)\n      tag_85\n      swap2\n      swap1\n      tag_26\n      jump\t// in\n    tag_85:\n      mload(0x40)\n      dup1\n      swap2\n      sub\n      swap1\n      return\n        /* \"contracts/ergasia.sol\":1674:1728  mapping(uint => PollingStation) public pollingStations */\n    tag_19:\n      tag_86\n      0x04\n      dup1\n      calldatasize\n      sub\n      dup2\n      add\n      swap1\n      tag_87\n      swap2\n      swap1\n      tag_38\n      jump\t// in\n    tag_87:\n      tag_88\n      jump\t// in\n    tag_86:\n      mload(0x40)\n      tag_89\n      swap5\n      swap4\n      swap3\n      swap2\n      swap1\n      tag_90\n      jump\t// in\n    tag_89:\n      mload(0x40)\n      dup1\n      swap2\n      sub\n      swap1\n      return\n        /* \"contracts/ergasia.sol\":1363:1396  uint public totalRegisteredVoters */\n    tag_24:\n      sload(0x03)\n      dup2\n      jump\t// out\n        /* \"contracts/ergasia.sol\":6820:7618  function castVote(uint _choice, uint _pollingStationID) public inState(State.Voting) returns (bool voted) {... */\n    tag_30:\n        /* \"contracts/ergasia.sol\":6914:6924  bool voted */\n      0x00\n        /* \"contracts/ergasia.sol\":6891:6903  State.Voting */\n      0x01\n        /* \"contracts/ergasia.sol\":2152:2158  _state */\n      dup1\n        /* \"contracts/ergasia.sol\":2143:2158  state == _state */\n      0x02\n      dup2\n      gt\n      iszero\n      tag_92\n      jumpi\n      tag_93\n      tag_94\n      jump\t// in\n    tag_93:\n    tag_92:\n        /* \"contracts/ergasia.sol\":2143:2148  state */\n      0x0c\n      0x00\n      swap1\n      sload\n      swap1\n      0x0100\n      exp\n      swap1\n      div\n      0xff\n      and\n        /* \"contracts/ergasia.sol\":2143:2158  state == _state */\n      0x02\n      dup2\n      gt\n      iszero\n      tag_95\n      jumpi\n      tag_96\n      tag_94\n      jump\t// in\n    tag_96:\n    tag_95:\n      eq\n        /* \"contracts/ergasia.sol\":2135:2159  require(state == _state) */\n      tag_97\n      jumpi\n      0x00\n      dup1\n      revert\n    tag_97:\n        /* \"contracts/ergasia.sol\":6937:6947  bool found */\n      0x00\n        /* \"contracts/ergasia.sol\":6970:6983  voterRegistry */\n      0x09\n        /* \"contracts/ergasia.sol\":6970:6995  voterRegistry[msg.sender] */\n      0x00\n        /* \"contracts/ergasia.sol\":6984:6994  msg.sender */\n      caller\n        /* \"contracts/ergasia.sol\":6970:6995  voterRegistry[msg.sender] */\n      0xffffffffffffffffffffffffffffffffffffffff\n      and\n      0xffffffffffffffffffffffffffffffffffffffff\n      and\n      dup2\n      mstore\n      0x20\n      add\n      swap1\n      dup2\n      mstore\n      0x20\n      add\n      0x00\n      keccak256\n        /* \"contracts/ergasia.sol\":6970:7006  voterRegistry[msg.sender].isEnrolled */\n      0x00\n      add\n      0x00\n      swap1\n      sload\n      swap1\n      0x0100\n      exp\n      swap1\n      div\n      0xff\n      and\n        /* \"contracts/ergasia.sol\":6970:7045  voterRegistry[msg.sender].isEnrolled && !voterRegistry[msg.sender].hasVoted */\n      dup1\n      iszero\n      tag_99\n      jumpi\n      pop\n        /* \"contracts/ergasia.sol\":7011:7024  voterRegistry */\n      0x09\n        /* \"contracts/ergasia.sol\":7011:7036  voterRegistry[msg.sender] */\n      0x00\n        /* \"contracts/ergasia.sol\":7025:7035  msg.sender */\n      caller\n        /* \"contracts/ergasia.sol\":7011:7036  voterRegistry[msg.sender] */\n      0xffffffffffffffffffffffffffffffffffffffff\n      and\n      0xffffffffffffffffffffffffffffffffffffffff\n      and\n      dup2\n      mstore\n      0x20\n      add\n      swap1\n      dup2\n      mstore\n      0x20\n      add\n      0x00\n      keccak256\n        /* \"contracts/ergasia.sol\":7011:7045  voterRegistry[msg.sender].hasVoted */\n      0x00\n      add\n      0x01\n      swap1\n      sload\n      swap1\n      0x0100\n      exp\n      swap1\n      div\n      0xff\n      and\n        /* \"contracts/ergasia.sol\":7010:7045  !voterRegistry[msg.sender].hasVoted */\n      iszero\n        /* \"contracts/ergasia.sol\":6970:7045  voterRegistry[msg.sender].isEnrolled && !voterRegistry[msg.sender].hasVoted */\n    tag_99:\n        /* \"contracts/ergasia.sol\":6966:7590  if (voterRegistry[msg.sender].isEnrolled && !voterRegistry[msg.sender].hasVoted) {... */\n      iszero\n      tag_100\n      jumpi\n        /* \"contracts/ergasia.sol\":7097:7104  _choice */\n      dup5\n        /* \"contracts/ergasia.sol\":7062:7075  voterRegistry */\n      0x09\n        /* \"contracts/ergasia.sol\":7062:7087  voterRegistry[msg.sender] */\n      0x00\n        /* \"contracts/ergasia.sol\":7076:7086  msg.sender */\n      caller\n        /* \"contracts/ergasia.sol\":7062:7087  voterRegistry[msg.sender] */\n      0xffffffffffffffffffffffffffffffffffffffff\n      and\n      0xffffffffffffffffffffffffffffffffffffffff\n      and\n      dup2\n      mstore\n      0x20\n      add\n      swap1\n      dup2\n      mstore\n      0x20\n      add\n      0x00\n      keccak256\n        /* \"contracts/ergasia.sol\":7062:7094  voterRegistry[msg.sender].choice */\n      0x01\n      add\n        /* \"contracts/ergasia.sol\":7062:7104  voterRegistry[msg.sender].choice = _choice */\n      dup2\n      swap1\n      sstore\n      pop\n        /* \"contracts/ergasia.sol\":7168:7185  _pollingStationID */\n      dup4\n        /* \"contracts/ergasia.sol\":7118:7131  voterRegistry */\n      0x09\n        /* \"contracts/ergasia.sol\":7118:7143  voterRegistry[msg.sender] */\n      0x00\n        /* \"contracts/ergasia.sol\":7132:7142  msg.sender */\n      caller\n        /* \"contracts/ergasia.sol\":7118:7143  voterRegistry[msg.sender] */\n      0xffffffffffffffffffffffffffffffffffffffff\n      and\n      0xffffffffffffffffffffffffffffffffffffffff\n      and\n      dup2\n      mstore\n      0x20\n      add\n      swap1\n      dup2\n      mstore\n      0x20\n      add\n      0x00\n      keccak256\n        /* \"contracts/ergasia.sol\":7118:7165  voterRegistry[msg.sender].votedPollingStationID */\n      0x03\n      add\n        /* \"contracts/ergasia.sol\":7118:7185  voterRegistry[msg.sender].votedPollingStationID = _pollingStationID */\n      dup2\n      swap1\n      sstore\n      pop\n        /* \"contracts/ergasia.sol\":7236:7240  true */\n      0x01\n        /* \"contracts/ergasia.sol\":7199:7212  voterRegistry */\n      0x09\n        /* \"contracts/ergasia.sol\":7199:7224  voterRegistry[msg.sender] */\n      0x00\n        /* \"contracts/ergasia.sol\":7213:7223  msg.sender */\n      caller\n        /* \"contracts/ergasia.sol\":7199:7224  voterRegistry[msg.sender] */\n      0xffffffffffffffffffffffffffffffffffffffff\n      and\n      0xffffffffffffffffffffffffffffffffffffffff\n      and\n      dup2\n      mstore\n      0x20\n      add\n      swap1\n      dup2\n      mstore\n      0x20\n      add\n      0x00\n      keccak256\n        /* \"contracts/ergasia.sol\":7199:7233  voterRegistry[msg.sender].hasVoted */\n      0x00\n      add\n      0x01\n        /* \"contracts/ergasia.sol\":7199:7240  voterRegistry[msg.sender].hasVoted = true */\n      0x0100\n      exp\n      dup2\n      sload\n      dup2\n      0xff\n      mul\n      not\n      and\n      swap1\n      dup4\n      iszero\n      iszero\n      mul\n      or\n      swap1\n      sstore\n      pop\n        /* \"contracts/ergasia.sol\":7255:7270  pollingStations */\n      0x08\n        /* \"contracts/ergasia.sol\":7255:7289  pollingStations[_pollingStationID] */\n      0x00\n        /* \"contracts/ergasia.sol\":7271:7288  _pollingStationID */\n      dup6\n        /* \"contracts/ergasia.sol\":7255:7289  pollingStations[_pollingStationID] */\n      dup2\n      mstore\n      0x20\n      add\n      swap1\n      dup2\n      mstore\n      0x20\n      add\n      0x00\n      keccak256\n        /* \"contracts/ergasia.sol\":7255:7301  pollingStations[_pollingStationID].votesCasted */\n      0x03\n      add\n      0x00\n        /* \"contracts/ergasia.sol\":7255:7303  pollingStations[_pollingStationID].votesCasted++ */\n      dup2\n      sload\n      dup1\n      swap3\n      swap2\n      swap1\n      tag_101\n      swap1\n      tag_102\n      jump\t// in\n    tag_101:\n      swap2\n      swap1\n      pop\n      sstore\n      pop\n        /* \"contracts/ergasia.sol\":7318:7328  candidates */\n      0x07\n        /* \"contracts/ergasia.sol\":7318:7337  candidates[_choice] */\n      0x00\n        /* \"contracts/ergasia.sol\":7329:7336  _choice */\n      dup7\n        /* \"contracts/ergasia.sol\":7318:7337  candidates[_choice] */\n      dup2\n      mstore\n      0x20\n      add\n      swap1\n      dup2\n      mstore\n      0x20\n      add\n      0x00\n      keccak256\n        /* \"contracts/ergasia.sol\":7318:7343  candidates[_choice].votes */\n      0x02\n      add\n      0x00\n        /* \"contracts/ergasia.sol\":7318:7345  candidates[_choice].votes++ */\n      dup2\n      sload\n      dup1\n      swap3\n      swap2\n      swap1\n      tag_103\n      swap1\n      tag_102\n      jump\t// in\n    tag_103:\n      swap2\n      swap1\n      pop\n      sstore\n      pop\n        /* \"contracts/ergasia.sol\":7360:7371  countResult */\n      0x04\n      0x00\n        /* \"contracts/ergasia.sol\":7360:7373  countResult++ */\n      dup2\n      sload\n      dup1\n      swap3\n      swap2\n      swap1\n      tag_104\n      swap1\n      tag_102\n      jump\t// in\n    tag_104:\n      swap2\n      swap1\n      pop\n      sstore\n      pop\n        /* \"contracts/ergasia.sol\":7395:7399  true */\n      0x01\n        /* \"contracts/ergasia.sol\":7387:7399  found = true */\n      swap1\n      pop\n        /* \"contracts/ergasia.sol\":7434:7439  found */\n      dup1\n        /* \"contracts/ergasia.sol\":7413:7419  voters */\n      0x0a\n        /* \"contracts/ergasia.sol\":7413:7431  voters[msg.sender] */\n      0x00\n        /* \"contracts/ergasia.sol\":7420:7430  msg.sender */\n      caller\n        /* \"contracts/ergasia.sol\":7413:7431  voters[msg.sender] */\n      0xffffffffffffffffffffffffffffffffffffffff\n      and\n      0xffffffffffffffffffffffffffffffffffffffff\n      and\n      dup2\n      mstore\n      0x20\n      add\n      swap1\n      dup2\n      mstore\n      0x20\n      add\n      0x00\n      keccak256\n      0x00\n        /* \"contracts/ergasia.sol\":7413:7439  voters[msg.sender] = found */\n      0x0100\n      exp\n      dup2\n      sload\n      dup2\n      0xff\n      mul\n      not\n      and\n      swap1\n      dup4\n      iszero\n      iszero\n      mul\n      or\n      swap1\n      sstore\n      pop\n        /* \"contracts/ergasia.sol\":7454:7478  resultsPerPollingStation */\n      0x0b\n        /* \"contracts/ergasia.sol\":7454:7497  resultsPerPollingStation[_pollingStationID] */\n      0x00\n        /* \"contracts/ergasia.sol\":7479:7496  _pollingStationID */\n      dup6\n        /* \"contracts/ergasia.sol\":7454:7497  resultsPerPollingStation[_pollingStationID] */\n      dup2\n      mstore\n      0x20\n      add\n      swap1\n      dup2\n      mstore\n      0x20\n      add\n      0x00\n      keccak256\n        /* \"contracts/ergasia.sol\":7454:7506  resultsPerPollingStation[_pollingStationID][_choice] */\n      0x00\n        /* \"contracts/ergasia.sol\":7498:7505  _choice */\n      dup7\n        /* \"contracts/ergasia.sol\":7454:7506  resultsPerPollingStation[_pollingStationID][_choice] */\n      dup2\n      mstore\n      0x20\n      add\n      swap1\n      dup2\n      mstore\n      0x20\n      add\n      0x00\n      keccak256\n        /* \"contracts/ergasia.sol\":7454:7512  resultsPerPollingStation[_pollingStationID][_choice].votes */\n      0x02\n      add\n      0x00\n        /* \"contracts/ergasia.sol\":7454:7514  resultsPerPollingStation[_pollingStationID][_choice].votes++ */\n      dup2\n      sload\n      dup1\n      swap3\n      swap2\n      swap1\n      tag_105\n      swap1\n      tag_102\n      jump\t// in\n    tag_105:\n      swap2\n      swap1\n      pop\n      sstore\n      pop\n        /* \"contracts/ergasia.sol\":7534:7579  VoteCasted(found, _choice, _pollingStationID) */\n      0x29a25b3d0b6ff7e5de2a60a2e8e76d1bdaf4894ec18c598cc1687213f442c5cb\n        /* \"contracts/ergasia.sol\":7545:7550  found */\n      dup2\n        /* \"contracts/ergasia.sol\":7552:7559  _choice */\n      dup7\n        /* \"contracts/ergasia.sol\":7561:7578  _pollingStationID */\n      dup7\n        /* \"contracts/ergasia.sol\":7534:7579  VoteCasted(found, _choice, _pollingStationID) */\n      mload(0x40)\n      tag_106\n      swap4\n      swap3\n      swap2\n      swap1\n      tag_107\n      jump\t// in\n    tag_106:\n      mload(0x40)\n      dup1\n      swap2\n      sub\n      swap1\n      log1\n        /* \"contracts/ergasia.sol\":6966:7590  if (voterRegistry[msg.sender].isEnrolled && !voterRegistry[msg.sender].hasVoted) {... */\n    tag_100:\n        /* \"contracts/ergasia.sol\":7606:7611  found */\n      dup1\n        /* \"contracts/ergasia.sol\":7599:7611  return found */\n      swap3\n      pop\n      pop\n        /* \"contracts/ergasia.sol\":6820:7618  function castVote(uint _choice, uint _pollingStationID) public inState(State.Voting) returns (bool voted) {... */\n      pop\n      swap3\n      swap2\n      pop\n      pop\n      jump\t// out\n        /* \"contracts/ergasia.sol\":1221:1248  uint public candidatesCount */\n    tag_34:\n      sload(0x01)\n      dup2\n      jump\t// out\n        /* \"contracts/ergasia.sol\":1600:1644  mapping(uint => Candidate) public candidates */\n    tag_39:\n      mstore(0x20, 0x07)\n      dup1\n      0x00\n      mstore\n      keccak256(0x00, 0x40)\n      0x00\n      swap2\n      pop\n      swap1\n      pop\n      dup1\n      0x00\n      add\n      sload\n      swap1\n      dup1\n      0x01\n      add\n      dup1\n      sload\n      tag_108\n      swap1\n      tag_109\n      jump\t// in\n    tag_108:\n      dup1\n      0x1f\n      add\n      0x20\n      dup1\n      swap2\n      div\n      mul\n      0x20\n      add\n      mload(0x40)\n      swap1\n      dup2\n      add\n      0x40\n      mstore\n      dup1\n      swap3\n      swap2\n      swap1\n      dup2\n      dup2\n      mstore\n      0x20\n      add\n      dup3\n      dup1\n      sload\n      tag_110\n      swap1\n      tag_109\n      jump\t// in\n    tag_110:\n      dup1\n      iszero\n      tag_111\n      jumpi\n      dup1\n      0x1f\n      lt\n      tag_112\n      jumpi\n      0x0100\n      dup1\n      dup4\n      sload\n      div\n      mul\n      dup4\n      mstore\n      swap2\n      0x20\n      add\n      swap2\n      jump(tag_111)\n    tag_112:\n      dup3\n      add\n      swap2\n      swap1\n      0x00\n      mstore\n      keccak256(0x00, 0x20)\n      swap1\n    tag_113:\n      dup2\n      sload\n      dup2\n      mstore\n      swap1\n      0x01\n      add\n      swap1\n      0x20\n      add\n      dup1\n      dup4\n      gt\n      tag_113\n      jumpi\n      dup3\n      swap1\n      sub\n      0x1f\n      and\n      dup3\n      add\n      swap2\n    tag_111:\n      pop\n      pop\n      pop\n      pop\n      pop\n      swap1\n      dup1\n      0x02\n      add\n      sload\n      swap1\n      pop\n      dup4\n      jump\t// out\n        /* \"contracts/ergasia.sol\":7757:8224  function getResults() external view returns (Candidate[][] memory) {... */\n    tag_43:\n        /* \"contracts/ergasia.sol\":7802:7822  Candidate[][] memory */\n      0x60\n        /* \"contracts/ergasia.sol\":7834:7858  Candidate[][] memory res */\n      0x00\n        /* \"contracts/ergasia.sol\":7879:7898  pollingStationCount */\n      sload(0x02)\n        /* \"contracts/ergasia.sol\":7861:7899  new Candidate[][](pollingStationCount) */\n      0xffffffffffffffff\n      dup2\n      gt\n      iszero\n      tag_115\n      jumpi\n      tag_116\n      tag_117\n      jump\t// in\n    tag_116:\n    tag_115:\n      mload(0x40)\n      swap1\n      dup1\n      dup3\n      mstore\n      dup1\n      0x20\n      mul\n      0x20\n      add\n      dup3\n      add\n      0x40\n      mstore\n      dup1\n      iszero\n      tag_118\n      jumpi\n      dup2\n      0x20\n      add\n    tag_119:\n      0x60\n      dup2\n      mstore\n      0x20\n      add\n      swap1\n      0x01\n      swap1\n      sub\n      swap1\n      dup2\n      tag_119\n      jumpi\n      swap1\n      pop\n    tag_118:\n      pop\n        /* \"contracts/ergasia.sol\":7834:7899  Candidate[][] memory res = new Candidate[][](pollingStationCount) */\n      swap1\n      pop\n        /* \"contracts/ergasia.sol\":7915:7921  uint i */\n      0x00\n        /* \"contracts/ergasia.sol\":7924:7925  1 */\n      0x01\n        /* \"contracts/ergasia.sol\":7915:7925  uint i = 1 */\n      swap1\n      pop\n        /* \"contracts/ergasia.sol\":7910:8197  for (uint i = 1; i <= pollingStationCount; i++) {... */\n    tag_120:\n        /* \"contracts/ergasia.sol\":7932:7951  pollingStationCount */\n      sload(0x02)\n        /* \"contracts/ergasia.sol\":7927:7928  i */\n      dup2\n        /* \"contracts/ergasia.sol\":7927:7951  i <= pollingStationCount */\n      gt\n        /* \"contracts/ergasia.sol\":7910:8197  for (uint i = 1; i <= pollingStationCount; i++) {... */\n      tag_121\n      jumpi\n        /* \"contracts/ergasia.sol\":7972:7995  Candidate[] memory list */\n      0x00\n        /* \"contracts/ergasia.sol\":8014:8029  candidatesCount */\n      sload(0x01)\n        /* \"contracts/ergasia.sol\":7998:8030  new Candidate[](candidatesCount) */\n      0xffffffffffffffff\n      dup2\n      gt\n      iszero\n      tag_123\n      jumpi\n      tag_124\n      tag_117\n      jump\t// in\n    tag_124:\n    tag_123:\n      mload(0x40)\n      swap1\n      dup1\n      dup3\n      mstore\n      dup1\n      0x20\n      mul\n      0x20\n      add\n      dup3\n      add\n      0x40\n      mstore\n      dup1\n      iszero\n      tag_125\n      jumpi\n      dup2\n      0x20\n      add\n    tag_126:\n      tag_127\n      tag_128\n      jump\t// in\n    tag_127:\n      dup2\n      mstore\n      0x20\n      add\n      swap1\n      0x01\n      swap1\n      sub\n      swap1\n      dup2\n      tag_126\n      jumpi\n      swap1\n      pop\n    tag_125:\n      pop\n        /* \"contracts/ergasia.sol\":7972:8030  Candidate[] memory list = new Candidate[](candidatesCount) */\n      swap1\n      pop\n        /* \"contracts/ergasia.sol\":8049:8055  uint j */\n      0x00\n        /* \"contracts/ergasia.sol\":8058:8059  1 */\n      0x01\n        /* \"contracts/ergasia.sol\":8049:8059  uint j = 1 */\n      swap1\n      pop\n        /* \"contracts/ergasia.sol\":8044:8161  for (uint j = 1; j <= candidatesCount; j++) {... */\n    tag_129:\n        /* \"contracts/ergasia.sol\":8066:8081  candidatesCount */\n      sload(0x01)\n        /* \"contracts/ergasia.sol\":8061:8062  j */\n      dup2\n        /* \"contracts/ergasia.sol\":8061:8081  j <= candidatesCount */\n      gt\n        /* \"contracts/ergasia.sol\":8044:8161  for (uint j = 1; j <= candidatesCount; j++) {... */\n      tag_130\n      jumpi\n        /* \"contracts/ergasia.sol\":8116:8140  resultsPerPollingStation */\n      0x0b\n        /* \"contracts/ergasia.sol\":8116:8143  resultsPerPollingStation[i] */\n      0x00\n        /* \"contracts/ergasia.sol\":8141:8142  i */\n      dup5\n        /* \"contracts/ergasia.sol\":8116:8143  resultsPerPollingStation[i] */\n      dup2\n      mstore\n      0x20\n      add\n      swap1\n      dup2\n      mstore\n      0x20\n      add\n      0x00\n      keccak256\n        /* \"contracts/ergasia.sol\":8116:8146  resultsPerPollingStation[i][j] */\n      0x00\n        /* \"contracts/ergasia.sol\":8144:8145  j */\n      dup3\n        /* \"contracts/ergasia.sol\":8116:8146  resultsPerPollingStation[i][j] */\n      dup2\n      mstore\n      0x20\n      add\n      swap1\n      dup2\n      mstore\n      0x20\n      add\n      0x00\n      keccak256\n        /* \"contracts/ergasia.sol\":8106:8146  list[j] = resultsPerPollingStation[i][j] */\n      mload(0x40)\n      dup1\n      0x60\n      add\n      0x40\n      mstore\n      swap1\n      dup2\n      0x00\n      dup3\n      add\n      sload\n      dup2\n      mstore\n      0x20\n      add\n      0x01\n      dup3\n      add\n      dup1\n      sload\n      tag_132\n      swap1\n      tag_109\n      jump\t// in\n    tag_132:\n      dup1\n      0x1f\n      add\n      0x20\n      dup1\n      swap2\n      div\n      mul\n      0x20\n      add\n      mload(0x40)\n      swap1\n      dup2\n      add\n      0x40\n      mstore\n      dup1\n      swap3\n      swap2\n      swap1\n      dup2\n      dup2\n      mstore\n      0x20\n      add\n      dup3\n      dup1\n      sload\n      tag_133\n      swap1\n      tag_109\n      jump\t// in\n    tag_133:\n      dup1\n      iszero\n      tag_134\n      jumpi\n      dup1\n      0x1f\n      lt\n      tag_135\n      jumpi\n      0x0100\n      dup1\n      dup4\n      sload\n      div\n      mul\n      dup4\n      mstore\n      swap2\n      0x20\n      add\n      swap2\n      jump(tag_134)\n    tag_135:\n      dup3\n      add\n      swap2\n      swap1\n      0x00\n      mstore\n      keccak256(0x00, 0x20)\n      swap1\n    tag_136:\n      dup2\n      sload\n      dup2\n      mstore\n      swap1\n      0x01\n      add\n      swap1\n      0x20\n      add\n      dup1\n      dup4\n      gt\n      tag_136\n      jumpi\n      dup3\n      swap1\n      sub\n      0x1f\n      and\n      dup3\n      add\n      swap2\n    tag_134:\n      pop\n      pop\n      pop\n      pop\n      pop\n      dup2\n      mstore\n      0x20\n      add\n      0x02\n      dup3\n      add\n      sload\n      dup2\n      mstore\n      pop\n      pop\n        /* \"contracts/ergasia.sol\":8106:8110  list */\n      dup3\n        /* \"contracts/ergasia.sol\":8111:8112  j */\n      dup3\n        /* \"contracts/ergasia.sol\":8106:8113  list[j] */\n      dup2\n      mload\n      dup2\n      lt\n      tag_137\n      jumpi\n      tag_138\n      tag_139\n      jump\t// in\n    tag_138:\n    tag_137:\n      0x20\n      mul\n      0x20\n      add\n      add\n        /* \"contracts/ergasia.sol\":8106:8146  list[j] = resultsPerPollingStation[i][j] */\n      dup2\n      swap1\n      mstore\n      pop\n        /* \"contracts/ergasia.sol\":8083:8086  j++ */\n      dup1\n      dup1\n      tag_140\n      swap1\n      tag_102\n      jump\t// in\n    tag_140:\n      swap2\n      pop\n      pop\n        /* \"contracts/ergasia.sol\":8044:8161  for (uint j = 1; j <= candidatesCount; j++) {... */\n      jump(tag_129)\n    tag_130:\n      pop\n        /* \"contracts/ergasia.sol\":8182:8186  list */\n      dup1\n        /* \"contracts/ergasia.sol\":8174:8177  res */\n      dup4\n        /* \"contracts/ergasia.sol\":8178:8179  i */\n      dup4\n        /* \"contracts/ergasia.sol\":8174:8180  res[i] */\n      dup2\n      mload\n      dup2\n      lt\n      tag_141\n      jumpi\n      tag_142\n      tag_139\n      jump\t// in\n    tag_142:\n    tag_141:\n      0x20\n      mul\n      0x20\n      add\n      add\n        /* \"contracts/ergasia.sol\":8174:8186  res[i]= list */\n      dup2\n      swap1\n      mstore\n      pop\n        /* \"contracts/ergasia.sol\":7958:8197  {... */\n      pop\n        /* \"contracts/ergasia.sol\":7953:7956  i++ */\n      dup1\n      dup1\n      tag_143\n      swap1\n      tag_102\n      jump\t// in\n    tag_143:\n      swap2\n      pop\n      pop\n        /* \"contracts/ergasia.sol\":7910:8197  for (uint i = 1; i <= pollingStationCount; i++) {... */\n      jump(tag_120)\n    tag_121:\n      pop\n        /* \"contracts/ergasia.sol\":8214:8217  res */\n      dup1\n        /* \"contracts/ergasia.sol\":8207:8217  return res */\n      swap2\n      pop\n      pop\n        /* \"contracts/ergasia.sol\":7757:8224  function getResults() external view returns (Candidate[][] memory) {... */\n      swap1\n      jump\t// out\n        /* \"contracts/ergasia.sol\":1758:1804  mapping(address => Voter) public voterRegistry */\n    tag_49:\n      mstore(0x20, 0x09)\n      dup1\n      0x00\n      mstore\n      keccak256(0x00, 0x40)\n      0x00\n      swap2\n      pop\n      swap1\n      pop\n      dup1\n      0x00\n      add\n      0x00\n      swap1\n      sload\n      swap1\n      0x0100\n      exp\n      swap1\n      div\n      0xff\n      and\n      swap1\n      dup1\n      0x00\n      add\n      0x01\n      swap1\n      sload\n      swap1\n      0x0100\n      exp\n      swap1\n      div\n      0xff\n      and\n      swap1\n      dup1\n      0x01\n      add\n      sload\n      swap1\n      dup1\n      0x02\n      add\n      sload\n      swap1\n      dup1\n      0x03\n      add\n      sload\n      swap1\n      pop\n      dup6\n      jump\t// out\n        /* \"contracts/ergasia.sol\":6720:6814  function startVote() public inState(State.Created) Owner {... */\n    tag_53:\n        /* \"contracts/ergasia.sol\":6756:6769  State.Created */\n      0x00\n        /* \"contracts/ergasia.sol\":2152:2158  _state */\n      dup1\n        /* \"contracts/ergasia.sol\":2143:2158  state == _state */\n      0x02\n      dup2\n      gt\n      iszero\n      tag_145\n      jumpi\n      tag_146\n      tag_94\n      jump\t// in\n    tag_146:\n    tag_145:\n        /* \"contracts/ergasia.sol\":2143:2148  state */\n      0x0c\n      0x00\n      swap1\n      sload\n      swap1\n      0x0100\n      exp\n      swap1\n      div\n      0xff\n      and\n        /* \"contracts/ergasia.sol\":2143:2158  state == _state */\n      0x02\n      dup2\n      gt\n      iszero\n      tag_147\n      jumpi\n      tag_148\n      tag_94\n      jump\t// in\n    tag_148:\n    tag_147:\n      eq\n        /* \"contracts/ergasia.sol\":2135:2159  require(state == _state) */\n      tag_149\n      jumpi\n      0x00\n      dup1\n      revert\n    tag_149:\n        /* \"contracts/ergasia.sol\":2056:2069  electionOwner */\n      0x00\n      dup1\n      sload\n      swap1\n      0x0100\n      exp\n      swap1\n      div\n      0xffffffffffffffffffffffffffffffffffffffff\n      and\n        /* \"contracts/ergasia.sol\":2042:2069  msg.sender == electionOwner */\n      0xffffffffffffffffffffffffffffffffffffffff\n      and\n        /* \"contracts/ergasia.sol\":2042:2052  msg.sender */\n      caller\n        /* \"contracts/ergasia.sol\":2042:2069  msg.sender == electionOwner */\n      0xffffffffffffffffffffffffffffffffffffffff\n      and\n      eq\n        /* \"contracts/ergasia.sol\":2034:2070  require(msg.sender == electionOwner) */\n      tag_151\n      jumpi\n      0x00\n      dup1\n      revert\n    tag_151:\n        /* \"contracts/ergasia.sol\":6795:6807  State.Voting */\n      0x01\n        /* \"contracts/ergasia.sol\":6787:6792  state */\n      0x0c\n      0x00\n        /* \"contracts/ergasia.sol\":6787:6807  state = State.Voting */\n      0x0100\n      exp\n      dup2\n      sload\n      dup2\n      0xff\n      mul\n      not\n      and\n      swap1\n      dup4\n      0x02\n      dup2\n      gt\n      iszero\n      tag_153\n      jumpi\n      tag_154\n      tag_94\n      jump\t// in\n    tag_154:\n    tag_153:\n      mul\n      or\n      swap1\n      sstore\n      pop\n        /* \"contracts/ergasia.sol\":6720:6814  function startVote() public inState(State.Created) Owner {... */\n      pop\n      jump\t// out\n        /* \"contracts/ergasia.sol\":1187:1215  address public electionOwner */\n    tag_55:\n      0x00\n      dup1\n      sload\n      swap1\n      0x0100\n      exp\n      swap1\n      div\n      0xffffffffffffffffffffffffffffffffffffffff\n      and\n      dup2\n      jump\t// out\n        /* \"contracts/ergasia.sol\":1810:1848  mapping(address => bool) public voters */\n    tag_60:\n      mstore(0x20, 0x0a)\n      dup1\n      0x00\n      mstore\n      keccak256(0x00, 0x40)\n      0x00\n      swap2\n      pop\n      sload\n      swap1\n      0x0100\n      exp\n      swap1\n      div\n      0xff\n      and\n      dup2\n      jump\t// out\n        /* \"contracts/ergasia.sol\":1854:1929  mapping(uint => mapping(uint => Candidate)) public resultsPerPollingStation */\n    tag_64:\n      mstore(0x20, 0x0b)\n      dup2\n      0x00\n      mstore\n      mstore(0x20, keccak256(0x00, 0x40))\n      dup1\n      0x00\n      mstore\n      keccak256(0x00, 0x40)\n      0x00\n      swap2\n      pop\n      swap2\n      pop\n      pop\n      dup1\n      0x00\n      add\n      sload\n      swap1\n      dup1\n      0x01\n      add\n      dup1\n      sload\n      tag_155\n      swap1\n      tag_109\n      jump\t// in\n    tag_155:\n      dup1\n      0x1f\n      add\n      0x20\n      dup1\n      swap2\n      div\n      mul\n      0x20\n      add\n      mload(0x40)\n      swap1\n      dup2\n      add\n      0x40\n      mstore\n      dup1\n      swap3\n      swap2\n      swap1\n      dup2\n      dup2\n      mstore\n      0x20\n      add\n      dup3\n      dup1\n      sload\n      tag_156\n      swap1\n      tag_109\n      jump\t// in\n    tag_156:\n      dup1\n      iszero\n      tag_157\n      jumpi\n      dup1\n      0x1f\n      lt\n      tag_158\n      jumpi\n      0x0100\n      dup1\n      dup4\n      sload\n      div\n      mul\n      dup4\n      mstore\n      swap2\n      0x20\n      add\n      swap2\n      jump(tag_157)\n    tag_158:\n      dup3\n      add\n      swap2\n      swap1\n      0x00\n      mstore\n      keccak256(0x00, 0x20)\n      swap1\n    tag_159:\n      dup2\n      sload\n      dup2\n      mstore\n      swap1\n      0x01\n      add\n      swap1\n      0x20\n      add\n      dup1\n      dup4\n      gt\n      tag_159\n      jumpi\n      dup3\n      swap1\n      sub\n      0x1f\n      and\n      dup3\n      add\n      swap2\n    tag_157:\n      pop\n      pop\n      pop\n      pop\n      pop\n      swap1\n      dup1\n      0x02\n      add\n      sload\n      swap1\n      pop\n      dup4\n      jump\t// out\n        /* \"contracts/ergasia.sol\":7624:7750  function endVote() public inState(State.Voting) Owner { ... */\n    tag_67:\n        /* \"contracts/ergasia.sol\":7658:7670  State.Voting */\n      0x01\n        /* \"contracts/ergasia.sol\":2152:2158  _state */\n      dup1\n        /* \"contracts/ergasia.sol\":2143:2158  state == _state */\n      0x02\n      dup2\n      gt\n      iszero\n      tag_161\n      jumpi\n      tag_162\n      tag_94\n      jump\t// in\n    tag_162:\n    tag_161:\n        /* \"contracts/ergasia.sol\":2143:2148  state */\n      0x0c\n      0x00\n      swap1\n      sload\n      swap1\n      0x0100\n      exp\n      swap1\n      div\n      0xff\n      and\n        /* \"contracts/ergasia.sol\":2143:2158  state == _state */\n      0x02\n      dup2\n      gt\n      iszero\n      tag_163\n      jumpi\n      tag_164\n      tag_94\n      jump\t// in\n    tag_164:\n    tag_163:\n      eq\n        /* \"contracts/ergasia.sol\":2135:2159  require(state == _state) */\n      tag_165\n      jumpi\n      0x00\n      dup1\n      revert\n    tag_165:\n        /* \"contracts/ergasia.sol\":2056:2069  electionOwner */\n      0x00\n      dup1\n      sload\n      swap1\n      0x0100\n      exp\n      swap1\n      div\n      0xffffffffffffffffffffffffffffffffffffffff\n      and\n        /* \"contracts/ergasia.sol\":2042:2069  msg.sender == electionOwner */\n      0xffffffffffffffffffffffffffffffffffffffff\n      and\n        /* \"contracts/ergasia.sol\":2042:2052  msg.sender */\n      caller\n        /* \"contracts/ergasia.sol\":2042:2069  msg.sender == electionOwner */\n      0xffffffffffffffffffffffffffffffffffffffff\n      and\n      eq\n        /* \"contracts/ergasia.sol\":2034:2070  require(msg.sender == electionOwner) */\n      tag_167\n      jumpi\n      0x00\n      dup1\n      revert\n    tag_167:\n        /* \"contracts/ergasia.sol\":7697:7708  State.Ended */\n      0x02\n        /* \"contracts/ergasia.sol\":7689:7694  state */\n      0x0c\n      0x00\n        /* \"contracts/ergasia.sol\":7689:7708  state = State.Ended */\n      0x0100\n      exp\n      dup2\n      sload\n      dup2\n      0xff\n      mul\n      not\n      and\n      swap1\n      dup4\n      0x02\n      dup2\n      gt\n      iszero\n      tag_169\n      jumpi\n      tag_170\n      tag_94\n      jump\t// in\n    tag_170:\n    tag_169:\n      mul\n      or\n      swap1\n      sstore\n      pop\n        /* \"contracts/ergasia.sol\":7732:7743  countResult */\n      sload(0x04)\n        /* \"contracts/ergasia.sol\":7718:7729  finalResult */\n      0x05\n        /* \"contracts/ergasia.sol\":7718:7743  finalResult = countResult */\n      dup2\n      swap1\n      sstore\n      pop\n        /* \"contracts/ergasia.sol\":7624:7750  function endVote() public inState(State.Voting) Owner { ... */\n      pop\n      jump\t// out\n        /* \"contracts/ergasia.sol\":5266:6186  function addVoter(address _voterAddress, uint _pollingStationID) public inState(State.Created) Owner {... */\n    tag_71:\n        /* \"contracts/ergasia.sol\":5346:5359  State.Created */\n      0x00\n        /* \"contracts/ergasia.sol\":2152:2158  _state */\n      dup1\n        /* \"contracts/ergasia.sol\":2143:2158  state == _state */\n      0x02\n      dup2\n      gt\n      iszero\n      tag_172\n      jumpi\n      tag_173\n      tag_94\n      jump\t// in\n    tag_173:\n    tag_172:\n        /* \"contracts/ergasia.sol\":2143:2148  state */\n      0x0c\n      0x00\n      swap1\n      sload\n      swap1\n      0x0100\n      exp\n      swap1\n      div\n      0xff\n      and\n        /* \"contracts/ergasia.sol\":2143:2158  state == _state */\n      0x02\n      dup2\n      gt\n      iszero\n      tag_174\n      jumpi\n      tag_175\n      tag_94\n      jump\t// in\n    tag_175:\n    tag_174:\n      eq\n        /* \"contracts/ergasia.sol\":2135:2159  require(state == _state) */\n      tag_176\n      jumpi\n      0x00\n      dup1\n      revert\n    tag_176:\n        /* \"contracts/ergasia.sol\":2056:2069  electionOwner */\n      0x00\n      dup1\n      sload\n      swap1\n      0x0100\n      exp\n      swap1\n      div\n      0xffffffffffffffffffffffffffffffffffffffff\n      and\n        /* \"contracts/ergasia.sol\":2042:2069  msg.sender == electionOwner */\n      0xffffffffffffffffffffffffffffffffffffffff\n      and\n        /* \"contracts/ergasia.sol\":2042:2052  msg.sender */\n      caller\n        /* \"contracts/ergasia.sol\":2042:2069  msg.sender == electionOwner */\n      0xffffffffffffffffffffffffffffffffffffffff\n      and\n      eq\n        /* \"contracts/ergasia.sol\":2034:2070  require(msg.sender == electionOwner) */\n      tag_178\n      jumpi\n      0x00\n      dup1\n      revert\n    tag_178:\n        /* \"contracts/ergasia.sol\":5485:5490  false */\n      0x00\n        /* \"contracts/ergasia.sol\":5442:5490  voterRegistry[_voterAddress].isEnrolled == false */\n      iszero\n      iszero\n        /* \"contracts/ergasia.sol\":5442:5455  voterRegistry */\n      0x09\n        /* \"contracts/ergasia.sol\":5442:5470  voterRegistry[_voterAddress] */\n      0x00\n        /* \"contracts/ergasia.sol\":5456:5469  _voterAddress */\n      dup6\n        /* \"contracts/ergasia.sol\":5442:5470  voterRegistry[_voterAddress] */\n      0xffffffffffffffffffffffffffffffffffffffff\n      and\n      0xffffffffffffffffffffffffffffffffffffffff\n      and\n      dup2\n      mstore\n      0x20\n      add\n      swap1\n      dup2\n      mstore\n      0x20\n      add\n      0x00\n      keccak256\n        /* \"contracts/ergasia.sol\":5442:5481  voterRegistry[_voterAddress].isEnrolled */\n      0x00\n      add\n      0x00\n      swap1\n      sload\n      swap1\n      0x0100\n      exp\n      swap1\n      div\n      0xff\n      and\n        /* \"contracts/ergasia.sol\":5442:5490  voterRegistry[_voterAddress].isEnrolled == false */\n      iszero\n      iszero\n      eq\n        /* \"contracts/ergasia.sol\":5434:5523  require(voterRegistry[_voterAddress].isEnrolled == false, \"Voter is already registered.\") */\n      tag_180\n      jumpi\n      mload(0x40)\n      0x08c379a000000000000000000000000000000000000000000000000000000000\n      dup2\n      mstore\n      0x04\n      add\n      tag_181\n      swap1\n      tag_182\n      jump\t// in\n    tag_181:\n      mload(0x40)\n      dup1\n      swap2\n      sub\n      swap1\n      revert\n    tag_180:\n        /* \"contracts/ergasia.sol\":5762:5763  1 */\n      0x01\n        /* \"contracts/ergasia.sol\":5742:5759  _pollingStationID */\n      dup3\n        /* \"contracts/ergasia.sol\":5742:5763  _pollingStationID >=1 */\n      lt\n      iszero\n        /* \"contracts/ergasia.sol\":5742:5807  _pollingStationID >=1 && _pollingStationID <= pollingStationCount */\n      dup1\n      iszero\n      tag_183\n      jumpi\n      pop\n        /* \"contracts/ergasia.sol\":5788:5807  pollingStationCount */\n      sload(0x02)\n        /* \"contracts/ergasia.sol\":5767:5784  _pollingStationID */\n      dup3\n        /* \"contracts/ergasia.sol\":5767:5807  _pollingStationID <= pollingStationCount */\n      gt\n      iszero\n        /* \"contracts/ergasia.sol\":5742:5807  _pollingStationID >=1 && _pollingStationID <= pollingStationCount */\n    tag_183:\n        /* \"contracts/ergasia.sol\":5734:5854  require(_pollingStationID >=1 && _pollingStationID <= pollingStationCount, \"Please provide a valid polling station ID.\") */\n      tag_184\n      jumpi\n      mload(0x40)\n      0x08c379a000000000000000000000000000000000000000000000000000000000\n      dup2\n      mstore\n      0x04\n      add\n      tag_185\n      swap1\n      tag_186\n      jump\t// in\n    tag_185:\n      mload(0x40)\n      dup1\n      swap2\n      sub\n      swap1\n      revert\n    tag_184:\n        /* \"contracts/ergasia.sol\":5865:5879  Voter memory v */\n      tag_187\n      tag_188\n      jump\t// in\n    tag_187:\n        /* \"contracts/ergasia.sol\":5904:5908  true */\n      0x01\n        /* \"contracts/ergasia.sol\":5889:5890  v */\n      dup2\n        /* \"contracts/ergasia.sol\":5889:5901  v.isEnrolled */\n      0x00\n      add\n        /* \"contracts/ergasia.sol\":5889:5908  v.isEnrolled = true */\n      swap1\n      iszero\n      iszero\n      swap1\n      dup2\n      iszero\n      iszero\n      dup2\n      mstore\n      pop\n      pop\n        /* \"contracts/ergasia.sol\":5931:5936  false */\n      0x00\n        /* \"contracts/ergasia.sol\":5918:5919  v */\n      dup2\n        /* \"contracts/ergasia.sol\":5918:5928  v.hasVoted */\n      0x20\n      add\n        /* \"contracts/ergasia.sol\":5918:5936  v.hasVoted = false */\n      swap1\n      iszero\n      iszero\n      swap1\n      dup2\n      iszero\n      iszero\n      dup2\n      mstore\n      pop\n      pop\n        /* \"contracts/ergasia.sol\":5957:5958  0 */\n      0x00\n        /* \"contracts/ergasia.sol\":5946:5947  v */\n      dup2\n        /* \"contracts/ergasia.sol\":5946:5954  v.choice */\n      0x40\n      add\n        /* \"contracts/ergasia.sol\":5946:5958  v.choice = 0 */\n      dup2\n      dup2\n      mstore\n      pop\n      pop\n        /* \"contracts/ergasia.sol\":5997:6014  _pollingStationID */\n      dup3\n        /* \"contracts/ergasia.sol\":5968:5969  v */\n      dup2\n        /* \"contracts/ergasia.sol\":5968:5994  v.enrolledPollingStationID */\n      0x60\n      add\n        /* \"contracts/ergasia.sol\":5968:6014  v.enrolledPollingStationID = _pollingStationID */\n      dup2\n      dup2\n      mstore\n      pop\n      pop\n        /* \"contracts/ergasia.sol\":6050:6051  0 */\n      0x00\n        /* \"contracts/ergasia.sol\":6024:6025  v */\n      dup2\n        /* \"contracts/ergasia.sol\":6024:6047  v.votedPollingStationID */\n      0x80\n      add\n        /* \"contracts/ergasia.sol\":6024:6051  v.votedPollingStationID = 0 */\n      dup2\n      dup2\n      mstore\n      pop\n      pop\n        /* \"contracts/ergasia.sol\":6092:6093  v */\n      dup1\n        /* \"contracts/ergasia.sol\":6061:6074  voterRegistry */\n      0x09\n        /* \"contracts/ergasia.sol\":6061:6089  voterRegistry[_voterAddress] */\n      0x00\n        /* \"contracts/ergasia.sol\":6075:6088  _voterAddress */\n      dup7\n        /* \"contracts/ergasia.sol\":6061:6089  voterRegistry[_voterAddress] */\n      0xffffffffffffffffffffffffffffffffffffffff\n      and\n      0xffffffffffffffffffffffffffffffffffffffff\n      and\n      dup2\n      mstore\n      0x20\n      add\n      swap1\n      dup2\n      mstore\n      0x20\n      add\n      0x00\n      keccak256\n        /* \"contracts/ergasia.sol\":6061:6093  voterRegistry[_voterAddress] = v */\n      0x00\n      dup3\n      add\n      mload\n      dup2\n      0x00\n      add\n      exp(0x0100, 0x00)\n      dup2\n      sload\n      dup2\n      0xff\n      mul\n      not\n      and\n      swap1\n      dup4\n      iszero\n      iszero\n      mul\n      or\n      swap1\n      sstore\n      pop\n      0x20\n      dup3\n      add\n      mload\n      dup2\n      0x00\n      add\n      exp(0x0100, 0x01)\n      dup2\n      sload\n      dup2\n      0xff\n      mul\n      not\n      and\n      swap1\n      dup4\n      iszero\n      iszero\n      mul\n      or\n      swap1\n      sstore\n      pop\n      0x40\n      dup3\n      add\n      mload\n      dup2\n      0x01\n      add\n      sstore\n      0x60\n      dup3\n      add\n      mload\n      dup2\n      0x02\n      add\n      sstore\n      0x80\n      dup3\n      add\n      mload\n      dup2\n      0x03\n      add\n      sstore\n      swap1\n      pop\n      pop\n        /* \"contracts/ergasia.sol\":6103:6146  registerAtPollingStation(_pollingStationID) */\n      tag_189\n        /* \"contracts/ergasia.sol\":6128:6145  _pollingStationID */\n      dup4\n        /* \"contracts/ergasia.sol\":6103:6127  registerAtPollingStation */\n      tag_190\n        /* \"contracts/ergasia.sol\":6103:6146  registerAtPollingStation(_pollingStationID) */\n      jump\t// in\n    tag_189:\n        /* \"contracts/ergasia.sol\":6156:6177  totalRegisteredVoters */\n      0x03\n      0x00\n        /* \"contracts/ergasia.sol\":6156:6179  totalRegisteredVoters++ */\n      dup2\n      sload\n      dup1\n      swap3\n      swap2\n      swap1\n      tag_191\n      swap1\n      tag_102\n      jump\t// in\n    tag_191:\n      swap2\n      swap1\n      pop\n      sstore\n      pop\n        /* \"contracts/ergasia.sol\":5367:6186  {... */\n      pop\n        /* \"contracts/ergasia.sol\":5266:6186  function addVoter(address _voterAddress, uint _pollingStationID) public inState(State.Created) Owner {... */\n      pop\n      pop\n      pop\n      jump\t// out\n        /* \"contracts/ergasia.sol\":1982:2000  State public state */\n    tag_73:\n      0x0c\n      0x00\n      swap1\n      sload\n      swap1\n      0x0100\n      exp\n      swap1\n      div\n      0xff\n      and\n      dup2\n      jump\t// out\n        /* \"contracts/ergasia.sol\":1565:1593  Candidate[][] public results */\n    tag_78:\n      0x06\n      dup3\n      dup2\n      sload\n      dup2\n      lt\n      tag_192\n      jumpi\n      0x00\n      dup1\n      revert\n    tag_192:\n      swap1\n      0x00\n      mstore\n      keccak256(0x00, 0x20)\n      add\n      dup2\n      dup2\n      sload\n      dup2\n      lt\n      tag_194\n      jumpi\n      0x00\n      dup1\n      revert\n    tag_194:\n      swap1\n      0x00\n      mstore\n      keccak256(0x00, 0x20)\n      swap1\n      0x03\n      mul\n      add\n      0x00\n      swap2\n      pop\n      swap2\n      pop\n      pop\n      dup1\n      0x00\n      add\n      sload\n      swap1\n      dup1\n      0x01\n      add\n      dup1\n      sload\n      tag_196\n      swap1\n      tag_109\n      jump\t// in\n    tag_196:\n      dup1\n      0x1f\n      add\n      0x20\n      dup1\n      swap2\n      div\n      mul\n      0x20\n      add\n      mload(0x40)\n      swap1\n      dup2\n      add\n      0x40\n      mstore\n      dup1\n      swap3\n      swap2\n      swap1\n      dup2\n      dup2\n      mstore\n      0x20\n      add\n      dup3\n      dup1\n      sload\n      tag_197\n      swap1\n      tag_109\n      jump\t// in\n    tag_197:\n      dup1\n      iszero\n      tag_198\n      jumpi\n      dup1\n      0x1f\n      lt\n      tag_199\n      jumpi\n      0x0100\n      dup1\n      dup4\n      sload\n      div\n      mul\n      dup4\n      mstore\n      swap2\n      0x20\n      add\n      swap2\n      jump(tag_198)\n    tag_199:\n      dup3\n      add\n      swap2\n      swap1\n      0x00\n      mstore\n      keccak256(0x00, 0x20)\n      swap1\n    tag_200:\n      dup2\n      sload\n      dup2\n      mstore\n      swap1\n      0x01\n      add\n      swap1\n      0x20\n      add\n      dup1\n      dup4\n      gt\n      tag_200\n      jumpi\n      dup3\n      swap1\n      sub\n      0x1f\n      and\n      dup3\n      add\n      swap2\n    tag_198:\n      pop\n      pop\n      pop\n      pop\n      pop\n      swap1\n      dup1\n      0x02\n      add\n      sload\n      swap1\n      pop\n      dup4\n      jump\t// out\n        /* \"contracts/ergasia.sol\":1289:1320  uint public pollingStationCount */\n    tag_81:\n      sload(0x02)\n      dup2\n      jump\t// out\n        /* \"contracts/ergasia.sol\":1484:1507  uint public finalResult */\n    tag_84:\n      sload(0x05)\n      dup2\n      jump\t// out\n        /* \"contracts/ergasia.sol\":1674:1728  mapping(uint => PollingStation) public pollingStations */\n    tag_88:\n      mstore(0x20, 0x08)\n      dup1\n      0x00\n      mstore\n      keccak256(0x00, 0x40)\n      0x00\n      swap2\n      pop\n      swap1\n      pop\n      dup1\n      0x00\n      add\n      sload\n      swap1\n      dup1\n      0x01\n      add\n      dup1\n      sload\n      tag_201\n      swap1\n      tag_109\n      jump\t// in\n    tag_201:\n      dup1\n      0x1f\n      add\n      0x20\n      dup1\n      swap2\n      div\n      mul\n      0x20\n      add\n      mload(0x40)\n      swap1\n      dup2\n      add\n      0x40\n      mstore\n      dup1\n      swap3\n      swap2\n      swap1\n      dup2\n      dup2\n      mstore\n      0x20\n      add\n      dup3\n      dup1\n      sload\n      tag_202\n      swap1\n      tag_109\n      jump\t// in\n    tag_202:\n      dup1\n      iszero\n      tag_203\n      jumpi\n      dup1\n      0x1f\n      lt\n      tag_204\n      jumpi\n      0x0100\n      dup1\n      dup4\n      sload\n      div\n      mul\n      dup4\n      mstore\n      swap2\n      0x20\n      add\n      swap2\n      jump(tag_203)\n    tag_204:\n      dup3\n      add\n      swap2\n      swap1\n      0x00\n      mstore\n      keccak256(0x00, 0x20)\n      swap1\n    tag_205:\n      dup2\n      sload\n      dup2\n      mstore\n      swap1\n      0x01\n      add\n      swap1\n      0x20\n      add\n      dup1\n      dup4\n      gt\n      tag_205\n      jumpi\n      dup3\n      swap1\n      sub\n      0x1f\n      and\n      dup3\n      add\n      swap2\n    tag_203:\n      pop\n      pop\n      pop\n      pop\n      pop\n      swap1\n      dup1\n      0x02\n      add\n      sload\n      swap1\n      dup1\n      0x03\n      add\n      sload\n      swap1\n      pop\n      dup5\n      jump\t// out\n        /* \"contracts/ergasia.sol\":6324:6606  function registerAtPollingStation(uint _stationID) internal {... */\n    tag_190:\n        /* \"contracts/ergasia.sol\":6399:6405  uint i */\n      0x00\n        /* \"contracts/ergasia.sol\":6408:6409  1 */\n      0x01\n        /* \"contracts/ergasia.sol\":6399:6409  uint i = 1 */\n      swap1\n      pop\n        /* \"contracts/ergasia.sol\":6394:6600  for (uint i = 1; i <= pollingStationCount; i++) {... */\n    tag_207:\n        /* \"contracts/ergasia.sol\":6416:6435  pollingStationCount */\n      sload(0x02)\n        /* \"contracts/ergasia.sol\":6411:6412  i */\n      dup2\n        /* \"contracts/ergasia.sol\":6411:6435  i <= pollingStationCount */\n      gt\n        /* \"contracts/ergasia.sol\":6394:6600  for (uint i = 1; i <= pollingStationCount; i++) {... */\n      tag_208\n      jumpi\n        /* \"contracts/ergasia.sol\":6485:6495  _stationID */\n      dup2\n        /* \"contracts/ergasia.sol\":6460:6475  pollingStations */\n      0x08\n        /* \"contracts/ergasia.sol\":6460:6478  pollingStations[i] */\n      0x00\n        /* \"contracts/ergasia.sol\":6476:6477  i */\n      dup4\n        /* \"contracts/ergasia.sol\":6460:6478  pollingStations[i] */\n      dup2\n      mstore\n      0x20\n      add\n      swap1\n      dup2\n      mstore\n      0x20\n      add\n      0x00\n      keccak256\n        /* \"contracts/ergasia.sol\":6460:6481  pollingStations[i].id */\n      0x00\n      add\n      sload\n        /* \"contracts/ergasia.sol\":6460:6495  pollingStations[i].id == _stationID */\n      eq\n        /* \"contracts/ergasia.sol\":6456:6590  if (pollingStations[i].id == _stationID) {... */\n      iszero\n      tag_210\n      jumpi\n        /* \"contracts/ergasia.sol\":6515:6530  pollingStations */\n      0x08\n        /* \"contracts/ergasia.sol\":6515:6533  pollingStations[i] */\n      0x00\n        /* \"contracts/ergasia.sol\":6531:6532  i */\n      dup3\n        /* \"contracts/ergasia.sol\":6515:6533  pollingStations[i] */\n      dup2\n      mstore\n      0x20\n      add\n      swap1\n      dup2\n      mstore\n      0x20\n      add\n      0x00\n      keccak256\n        /* \"contracts/ergasia.sol\":6515:6550  pollingStations[i].votersRegistered */\n      0x02\n      add\n      0x00\n        /* \"contracts/ergasia.sol\":6515:6552  pollingStations[i].votersRegistered++ */\n      dup2\n      sload\n      dup1\n      swap3\n      swap2\n      swap1\n      tag_211\n      swap1\n      tag_102\n      jump\t// in\n    tag_211:\n      swap2\n      swap1\n      pop\n      sstore\n      pop\n        /* \"contracts/ergasia.sol\":6570:6575  break */\n      jump(tag_208)\n        /* \"contracts/ergasia.sol\":6456:6590  if (pollingStations[i].id == _stationID) {... */\n    tag_210:\n        /* \"contracts/ergasia.sol\":6437:6440  i++ */\n      dup1\n      dup1\n      tag_212\n      swap1\n      tag_102\n      jump\t// in\n    tag_212:\n      swap2\n      pop\n      pop\n        /* \"contracts/ergasia.sol\":6394:6600  for (uint i = 1; i <= pollingStationCount; i++) {... */\n      jump(tag_207)\n    tag_208:\n      pop\n        /* \"contracts/ergasia.sol\":6324:6606  function registerAtPollingStation(uint _stationID) internal {... */\n      pop\n      jump\t// out\n    tag_128:\n      mload(0x40)\n      dup1\n      0x60\n      add\n      0x40\n      mstore\n      dup1\n      0x00\n      dup2\n      mstore\n      0x20\n      add\n      0x60\n      dup2\n      mstore\n      0x20\n      add\n      0x00\n      dup2\n      mstore\n      pop\n      swap1\n      jump\t// out\n    tag_188:\n      mload(0x40)\n      dup1\n      0xa0\n      add\n      0x40\n      mstore\n      dup1\n      iszero(iszero(0x00))\n      dup2\n      mstore\n      0x20\n      add\n      iszero(iszero(0x00))\n      dup2\n      mstore\n      0x20\n      add\n      0x00\n      dup2\n      mstore\n      0x20\n      add\n      0x00\n      dup2\n      mstore\n      0x20\n      add\n      0x00\n      dup2\n      mstore\n      pop\n      swap1\n      jump\t// out\n        /* \"#utility.yul\":7:146   */\n    tag_214:\n        /* \"#utility.yul\":53:58   */\n      0x00\n        /* \"#utility.yul\":91:97   */\n      dup2\n        /* \"#utility.yul\":78:98   */\n      calldataload\n        /* \"#utility.yul\":69:98   */\n      swap1\n      pop\n        /* \"#utility.yul\":107:140   */\n      tag_216\n        /* \"#utility.yul\":134:139   */\n      dup2\n        /* \"#utility.yul\":107:140   */\n      tag_217\n      jump\t// in\n    tag_216:\n        /* \"#utility.yul\":7:146   */\n      swap3\n      swap2\n      pop\n      pop\n      jump\t// out\n        /* \"#utility.yul\":152:291   */\n    tag_218:\n        /* \"#utility.yul\":198:203   */\n      0x00\n        /* \"#utility.yul\":236:242   */\n      dup2\n        /* \"#utility.yul\":223:243   */\n      calldataload\n        /* \"#utility.yul\":214:243   */\n      swap1\n      pop\n        /* \"#utility.yul\":252:285   */\n      tag_220\n        /* \"#utility.yul\":279:284   */\n      dup2\n        /* \"#utility.yul\":252:285   */\n      tag_221\n      jump\t// in\n    tag_220:\n        /* \"#utility.yul\":152:291   */\n      swap3\n      swap2\n      pop\n      pop\n      jump\t// out\n        /* \"#utility.yul\":297:626   */\n    tag_48:\n        /* \"#utility.yul\":356:362   */\n      0x00\n        /* \"#utility.yul\":405:407   */\n      0x20\n        /* \"#utility.yul\":393:402   */\n      dup3\n        /* \"#utility.yul\":384:391   */\n      dup5\n        /* \"#utility.yul\":380:403   */\n      sub\n        /* \"#utility.yul\":376:408   */\n      slt\n        /* \"#utility.yul\":373:492   */\n      iszero\n      tag_223\n      jumpi\n        /* \"#utility.yul\":411:490   */\n      tag_224\n      tag_225\n      jump\t// in\n    tag_224:\n        /* \"#utility.yul\":373:492   */\n    tag_223:\n        /* \"#utility.yul\":531:532   */\n      0x00\n        /* \"#utility.yul\":556:609   */\n      tag_226\n        /* \"#utility.yul\":601:608   */\n      dup5\n        /* \"#utility.yul\":592:598   */\n      dup3\n        /* \"#utility.yul\":581:590   */\n      dup6\n        /* \"#utility.yul\":577:599   */\n      add\n        /* \"#utility.yul\":556:609   */\n      tag_214\n      jump\t// in\n    tag_226:\n        /* \"#utility.yul\":546:609   */\n      swap2\n      pop\n        /* \"#utility.yul\":502:619   */\n      pop\n        /* \"#utility.yul\":297:626   */\n      swap3\n      swap2\n      pop\n      pop\n      jump\t// out\n        /* \"#utility.yul\":632:1106   */\n    tag_70:\n        /* \"#utility.yul\":700:706   */\n      0x00\n        /* \"#utility.yul\":708:714   */\n      dup1\n        /* \"#utility.yul\":757:759   */\n      0x40\n        /* \"#utility.yul\":745:754   */\n      dup4\n        /* \"#utility.yul\":736:743   */\n      dup6\n        /* \"#utility.yul\":732:755   */\n      sub\n        /* \"#utility.yul\":728:760   */\n      slt\n        /* \"#utility.yul\":725:844   */\n      iszero\n      tag_228\n      jumpi\n        /* \"#utility.yul\":763:842   */\n      tag_229\n      tag_225\n      jump\t// in\n    tag_229:\n        /* \"#utility.yul\":725:844   */\n    tag_228:\n        /* \"#utility.yul\":883:884   */\n      0x00\n        /* \"#utility.yul\":908:961   */\n      tag_230\n        /* \"#utility.yul\":953:960   */\n      dup6\n        /* \"#utility.yul\":944:950   */\n      dup3\n        /* \"#utility.yul\":933:942   */\n      dup7\n        /* \"#utility.yul\":929:951   */\n      add\n        /* \"#utility.yul\":908:961   */\n      tag_214\n      jump\t// in\n    tag_230:\n        /* \"#utility.yul\":898:961   */\n      swap3\n      pop\n        /* \"#utility.yul\":854:971   */\n      pop\n        /* \"#utility.yul\":1010:1012   */\n      0x20\n        /* \"#utility.yul\":1036:1089   */\n      tag_231\n        /* \"#utility.yul\":1081:1088   */\n      dup6\n        /* \"#utility.yul\":1072:1078   */\n      dup3\n        /* \"#utility.yul\":1061:1070   */\n      dup7\n        /* \"#utility.yul\":1057:1079   */\n      add\n        /* \"#utility.yul\":1036:1089   */\n      tag_218\n      jump\t// in\n    tag_231:\n        /* \"#utility.yul\":1026:1089   */\n      swap2\n      pop\n        /* \"#utility.yul\":981:1099   */\n      pop\n        /* \"#utility.yul\":632:1106   */\n      swap3\n      pop\n      swap3\n      swap1\n      pop\n      jump\t// out\n        /* \"#utility.yul\":1112:1441   */\n    tag_38:\n        /* \"#utility.yul\":1171:1177   */\n      0x00\n        /* \"#utility.yul\":1220:1222   */\n      0x20\n        /* \"#utility.yul\":1208:1217   */\n      dup3\n        /* \"#utility.yul\":1199:1206   */\n      dup5\n        /* \"#utility.yul\":1195:1218   */\n      sub\n        /* \"#utility.yul\":1191:1223   */\n      slt\n        /* \"#utility.yul\":1188:1307   */\n      iszero\n      tag_233\n      jumpi\n        /* \"#utility.yul\":1226:1305   */\n      tag_234\n      tag_225\n      jump\t// in\n    tag_234:\n        /* \"#utility.yul\":1188:1307   */\n    tag_233:\n        /* \"#utility.yul\":1346:1347   */\n      0x00\n        /* \"#utility.yul\":1371:1424   */\n      tag_235\n        /* \"#utility.yul\":1416:1423   */\n      dup5\n        /* \"#utility.yul\":1407:1413   */\n      dup3\n        /* \"#utility.yul\":1396:1405   */\n      dup6\n        /* \"#utility.yul\":1392:1414   */\n      add\n        /* \"#utility.yul\":1371:1424   */\n      tag_218\n      jump\t// in\n    tag_235:\n        /* \"#utility.yul\":1361:1424   */\n      swap2\n      pop\n        /* \"#utility.yul\":1317:1434   */\n      pop\n        /* \"#utility.yul\":1112:1441   */\n      swap3\n      swap2\n      pop\n      pop\n      jump\t// out\n        /* \"#utility.yul\":1447:1921   */\n    tag_29:\n        /* \"#utility.yul\":1515:1521   */\n      0x00\n        /* \"#utility.yul\":1523:1529   */\n      dup1\n        /* \"#utility.yul\":1572:1574   */\n      0x40\n        /* \"#utility.yul\":1560:1569   */\n      dup4\n        /* \"#utility.yul\":1551:1558   */\n      dup6\n        /* \"#utility.yul\":1547:1570   */\n      sub\n        /* \"#utility.yul\":1543:1575   */\n      slt\n        /* \"#utility.yul\":1540:1659   */\n      iszero\n      tag_237\n      jumpi\n        /* \"#utility.yul\":1578:1657   */\n      tag_238\n      tag_225\n      jump\t// in\n    tag_238:\n        /* \"#utility.yul\":1540:1659   */\n    tag_237:\n        /* \"#utility.yul\":1698:1699   */\n      0x00\n        /* \"#utility.yul\":1723:1776   */\n      tag_239\n        /* \"#utility.yul\":1768:1775   */\n      dup6\n        /* \"#utility.yul\":1759:1765   */\n      dup3\n        /* \"#utility.yul\":1748:1757   */\n      dup7\n        /* \"#utility.yul\":1744:1766   */\n      add\n        /* \"#utility.yul\":1723:1776   */\n      tag_218\n      jump\t// in\n    tag_239:\n        /* \"#utility.yul\":1713:1776   */\n      swap3\n      pop\n        /* \"#utility.yul\":1669:1786   */\n      pop\n        /* \"#utility.yul\":1825:1827   */\n      0x20\n        /* \"#utility.yul\":1851:1904   */\n      tag_240\n        /* \"#utility.yul\":1896:1903   */\n      dup6\n        /* \"#utility.yul\":1887:1893   */\n      dup3\n        /* \"#utility.yul\":1876:1885   */\n      dup7\n        /* \"#utility.yul\":1872:1894   */\n      add\n        /* \"#utility.yul\":1851:1904   */\n      tag_218\n      jump\t// in\n    tag_240:\n        /* \"#utility.yul\":1841:1904   */\n      swap2\n      pop\n        /* \"#utility.yul\":1796:1914   */\n      pop\n        /* \"#utility.yul\":1447:1921   */\n      swap3\n      pop\n      swap3\n      swap1\n      pop\n      jump\t// out\n        /* \"#utility.yul\":1927:2279   */\n    tag_241:\n        /* \"#utility.yul\":2094:2104   */\n      0x00\n        /* \"#utility.yul\":2129:2273   */\n      tag_243\n        /* \"#utility.yul\":2269:2272   */\n      dup4\n        /* \"#utility.yul\":2261:2267   */\n      dup4\n        /* \"#utility.yul\":2129:2273   */\n      tag_244\n      jump\t// in\n    tag_243:\n        /* \"#utility.yul\":2115:2273   */\n      swap1\n      pop\n        /* \"#utility.yul\":1927:2279   */\n      swap3\n      swap2\n      pop\n      pop\n      jump\t// out\n        /* \"#utility.yul\":2285:2537   */\n    tag_245:\n        /* \"#utility.yul\":2402:2412   */\n      0x00\n        /* \"#utility.yul\":2437:2531   */\n      tag_247\n        /* \"#utility.yul\":2527:2530   */\n      dup4\n        /* \"#utility.yul\":2519:2525   */\n      dup4\n        /* \"#utility.yul\":2437:2531   */\n      tag_248\n      jump\t// in\n    tag_247:\n        /* \"#utility.yul\":2423:2531   */\n      swap1\n      pop\n        /* \"#utility.yul\":2285:2537   */\n      swap3\n      swap2\n      pop\n      pop\n      jump\t// out\n        /* \"#utility.yul\":2543:2661   */\n    tag_249:\n        /* \"#utility.yul\":2630:2654   */\n      tag_251\n        /* \"#utility.yul\":2648:2653   */\n      dup2\n        /* \"#utility.yul\":2630:2654   */\n      tag_252\n      jump\t// in\n    tag_251:\n        /* \"#utility.yul\":2625:2628   */\n      dup3\n        /* \"#utility.yul\":2618:2655   */\n      mstore\n        /* \"#utility.yul\":2543:2661   */\n      pop\n      pop\n      jump\t// out\n        /* \"#utility.yul\":2737:4040   */\n    tag_253:\n        /* \"#utility.yul\":2954:2957   */\n      0x00\n        /* \"#utility.yul\":2983:3086   */\n      tag_255\n        /* \"#utility.yul\":3080:3085   */\n      dup3\n        /* \"#utility.yul\":2983:3086   */\n      tag_256\n      jump\t// in\n    tag_255:\n        /* \"#utility.yul\":3102:3237   */\n      tag_257\n        /* \"#utility.yul\":3230:3236   */\n      dup2\n        /* \"#utility.yul\":3225:3228   */\n      dup6\n        /* \"#utility.yul\":3102:3237   */\n      tag_258\n      jump\t// in\n    tag_257:\n        /* \"#utility.yul\":3095:3237   */\n      swap4\n      pop\n        /* \"#utility.yul\":3263:3266   */\n      dup4\n        /* \"#utility.yul\":3308:3312   */\n      0x20\n        /* \"#utility.yul\":3300:3306   */\n      dup3\n        /* \"#utility.yul\":3296:3313   */\n      mul\n        /* \"#utility.yul\":3291:3294   */\n      dup6\n        /* \"#utility.yul\":3287:3314   */\n      add\n        /* \"#utility.yul\":3338:3443   */\n      tag_259\n        /* \"#utility.yul\":3437:3442   */\n      dup6\n        /* \"#utility.yul\":3338:3443   */\n      tag_260\n      jump\t// in\n    tag_259:\n        /* \"#utility.yul\":3466:3473   */\n      dup1\n        /* \"#utility.yul\":3497:3498   */\n      0x00\n        /* \"#utility.yul\":3482:3995   */\n    tag_261:\n        /* \"#utility.yul\":3507:3513   */\n      dup6\n        /* \"#utility.yul\":3504:3505   */\n      dup2\n        /* \"#utility.yul\":3501:3514   */\n      lt\n        /* \"#utility.yul\":3482:3995   */\n      iszero\n      tag_263\n      jumpi\n        /* \"#utility.yul\":3578:3587   */\n      dup5\n        /* \"#utility.yul\":3572:3576   */\n      dup5\n        /* \"#utility.yul\":3568:3588   */\n      sub\n        /* \"#utility.yul\":3563:3566   */\n      dup10\n        /* \"#utility.yul\":3556:3589   */\n      mstore\n        /* \"#utility.yul\":3629:3635   */\n      dup2\n        /* \"#utility.yul\":3623:3636   */\n      mload\n        /* \"#utility.yul\":3657:3819   */\n      tag_264\n        /* \"#utility.yul\":3814:3818   */\n      dup6\n        /* \"#utility.yul\":3799:3812   */\n      dup3\n        /* \"#utility.yul\":3657:3819   */\n      tag_241\n      jump\t// in\n    tag_264:\n        /* \"#utility.yul\":3649:3819   */\n      swap5\n      pop\n        /* \"#utility.yul\":3842:3951   */\n      tag_265\n        /* \"#utility.yul\":3944:3950   */\n      dup4\n        /* \"#utility.yul\":3842:3951   */\n      tag_266\n      jump\t// in\n    tag_265:\n        /* \"#utility.yul\":3832:3951   */\n      swap3\n      pop\n        /* \"#utility.yul\":3980:3984   */\n      0x20\n        /* \"#utility.yul\":3975:3978   */\n      dup11\n        /* \"#utility.yul\":3971:3985   */\n      add\n        /* \"#utility.yul\":3964:3985   */\n      swap10\n      pop\n        /* \"#utility.yul\":3542:3995   */\n      pop\n        /* \"#utility.yul\":3529:3530   */\n      0x01\n        /* \"#utility.yul\":3526:3527   */\n      dup2\n        /* \"#utility.yul\":3522:3531   */\n      add\n        /* \"#utility.yul\":3517:3531   */\n      swap1\n      pop\n        /* \"#utility.yul\":3482:3995   */\n      jump(tag_261)\n    tag_263:\n        /* \"#utility.yul\":3486:3500   */\n      pop\n        /* \"#utility.yul\":4011:4015   */\n      dup3\n        /* \"#utility.yul\":4004:4015   */\n      swap8\n      pop\n        /* \"#utility.yul\":4031:4034   */\n      dup8\n        /* \"#utility.yul\":4024:4034   */\n      swap6\n      pop\n        /* \"#utility.yul\":2959:4040   */\n      pop\n      pop\n      pop\n      pop\n      pop\n        /* \"#utility.yul\":2737:4040   */\n      swap3\n      swap2\n      pop\n      pop\n      jump\t// out\n        /* \"#utility.yul\":4112:5195   */\n    tag_244:\n        /* \"#utility.yul\":4269:4272   */\n      0x00\n        /* \"#utility.yul\":4298:4376   */\n      tag_268\n        /* \"#utility.yul\":4370:4375   */\n      dup3\n        /* \"#utility.yul\":4298:4376   */\n      tag_269\n      jump\t// in\n    tag_268:\n        /* \"#utility.yul\":4392:4492   */\n      tag_270\n        /* \"#utility.yul\":4485:4491   */\n      dup2\n        /* \"#utility.yul\":4480:4483   */\n      dup6\n        /* \"#utility.yul\":4392:4492   */\n      tag_271\n      jump\t// in\n    tag_270:\n        /* \"#utility.yul\":4385:4492   */\n      swap4\n      pop\n        /* \"#utility.yul\":4518:4521   */\n      dup4\n        /* \"#utility.yul\":4563:4567   */\n      0x20\n        /* \"#utility.yul\":4555:4561   */\n      dup3\n        /* \"#utility.yul\":4551:4568   */\n      mul\n        /* \"#utility.yul\":4546:4549   */\n      dup6\n        /* \"#utility.yul\":4542:4569   */\n      add\n        /* \"#utility.yul\":4593:4673   */\n      tag_272\n        /* \"#utility.yul\":4667:4672   */\n      dup6\n        /* \"#utility.yul\":4593:4673   */\n      tag_273\n      jump\t// in\n    tag_272:\n        /* \"#utility.yul\":4696:4703   */\n      dup1\n        /* \"#utility.yul\":4727:4728   */\n      0x00\n        /* \"#utility.yul\":4712:5150   */\n    tag_274:\n        /* \"#utility.yul\":4737:4743   */\n      dup6\n        /* \"#utility.yul\":4734:4735   */\n      dup2\n        /* \"#utility.yul\":4731:4744   */\n      lt\n        /* \"#utility.yul\":4712:5150   */\n      iszero\n      tag_276\n      jumpi\n        /* \"#utility.yul\":4808:4817   */\n      dup5\n        /* \"#utility.yul\":4802:4806   */\n      dup5\n        /* \"#utility.yul\":4798:4818   */\n      sub\n        /* \"#utility.yul\":4793:4796   */\n      dup10\n        /* \"#utility.yul\":4786:4819   */\n      mstore\n        /* \"#utility.yul\":4859:4865   */\n      dup2\n        /* \"#utility.yul\":4853:4866   */\n      mload\n        /* \"#utility.yul\":4887:4999   */\n      tag_277\n        /* \"#utility.yul\":4994:4998   */\n      dup6\n        /* \"#utility.yul\":4979:4992   */\n      dup3\n        /* \"#utility.yul\":4887:4999   */\n      tag_245\n      jump\t// in\n    tag_277:\n        /* \"#utility.yul\":4879:4999   */\n      swap5\n      pop\n        /* \"#utility.yul\":5022:5106   */\n      tag_278\n        /* \"#utility.yul\":5099:5105   */\n      dup4\n        /* \"#utility.yul\":5022:5106   */\n      tag_279\n      jump\t// in\n    tag_278:\n        /* \"#utility.yul\":5012:5106   */\n      swap3\n      pop\n        /* \"#utility.yul\":5135:5139   */\n      0x20\n        /* \"#utility.yul\":5130:5133   */\n      dup11\n        /* \"#utility.yul\":5126:5140   */\n      add\n        /* \"#utility.yul\":5119:5140   */\n      swap10\n      pop\n        /* \"#utility.yul\":4772:5150   */\n      pop\n        /* \"#utility.yul\":4759:4760   */\n      0x01\n        /* \"#utility.yul\":4756:4757   */\n      dup2\n        /* \"#utility.yul\":4752:4761   */\n      add\n        /* \"#utility.yul\":4747:4761   */\n      swap1\n      pop\n        /* \"#utility.yul\":4712:5150   */\n      jump(tag_274)\n    tag_276:\n        /* \"#utility.yul\":4716:4730   */\n      pop\n        /* \"#utility.yul\":5166:5170   */\n      dup3\n        /* \"#utility.yul\":5159:5170   */\n      swap8\n      pop\n        /* \"#utility.yul\":5186:5189   */\n      dup8\n        /* \"#utility.yul\":5179:5189   */\n      swap6\n      pop\n        /* \"#utility.yul\":4274:5195   */\n      pop\n      pop\n      pop\n      pop\n      pop\n        /* \"#utility.yul\":4112:5195   */\n      swap3\n      swap2\n      pop\n      pop\n      jump\t// out\n        /* \"#utility.yul\":5201:5310   */\n    tag_280:\n        /* \"#utility.yul\":5282:5303   */\n      tag_282\n        /* \"#utility.yul\":5297:5302   */\n      dup2\n        /* \"#utility.yul\":5282:5303   */\n      tag_283\n      jump\t// in\n    tag_282:\n        /* \"#utility.yul\":5277:5280   */\n      dup3\n        /* \"#utility.yul\":5270:5304   */\n      mstore\n        /* \"#utility.yul\":5201:5310   */\n      pop\n      pop\n      jump\t// out\n        /* \"#utility.yul\":5316:5459   */\n    tag_284:\n        /* \"#utility.yul\":5409:5452   */\n      tag_286\n        /* \"#utility.yul\":5446:5451   */\n      dup2\n        /* \"#utility.yul\":5409:5452   */\n      tag_287\n      jump\t// in\n    tag_286:\n        /* \"#utility.yul\":5404:5407   */\n      dup3\n        /* \"#utility.yul\":5397:5453   */\n      mstore\n        /* \"#utility.yul\":5316:5459   */\n      pop\n      pop\n      jump\t// out\n        /* \"#utility.yul\":5465:5809   */\n    tag_288:\n        /* \"#utility.yul\":5543:5546   */\n      0x00\n        /* \"#utility.yul\":5571:5610   */\n      tag_290\n        /* \"#utility.yul\":5604:5609   */\n      dup3\n        /* \"#utility.yul\":5571:5610   */\n      tag_291\n      jump\t// in\n    tag_290:\n        /* \"#utility.yul\":5626:5687   */\n      tag_292\n        /* \"#utility.yul\":5680:5686   */\n      dup2\n        /* \"#utility.yul\":5675:5678   */\n      dup6\n        /* \"#utility.yul\":5626:5687   */\n      tag_293\n      jump\t// in\n    tag_292:\n        /* \"#utility.yul\":5619:5687   */\n      swap4\n      pop\n        /* \"#utility.yul\":5696:5748   */\n      tag_294\n        /* \"#utility.yul\":5741:5747   */\n      dup2\n        /* \"#utility.yul\":5736:5739   */\n      dup6\n        /* \"#utility.yul\":5729:5733   */\n      0x20\n        /* \"#utility.yul\":5722:5727   */\n      dup7\n        /* \"#utility.yul\":5718:5734   */\n      add\n        /* \"#utility.yul\":5696:5748   */\n      tag_295\n      jump\t// in\n    tag_294:\n        /* \"#utility.yul\":5773:5802   */\n      tag_296\n        /* \"#utility.yul\":5795:5801   */\n      dup2\n        /* \"#utility.yul\":5773:5802   */\n      tag_297\n      jump\t// in\n    tag_296:\n        /* \"#utility.yul\":5768:5771   */\n      dup5\n        /* \"#utility.yul\":5764:5803   */\n      add\n        /* \"#utility.yul\":5757:5803   */\n      swap2\n      pop\n        /* \"#utility.yul\":5547:5809   */\n      pop\n        /* \"#utility.yul\":5465:5809   */\n      swap3\n      swap2\n      pop\n      pop\n      jump\t// out\n        /* \"#utility.yul\":5815:6179   */\n    tag_298:\n        /* \"#utility.yul\":5903:5906   */\n      0x00\n        /* \"#utility.yul\":5931:5970   */\n      tag_300\n        /* \"#utility.yul\":5964:5969   */\n      dup3\n        /* \"#utility.yul\":5931:5970   */\n      tag_291\n      jump\t// in\n    tag_300:\n        /* \"#utility.yul\":5986:6057   */\n      tag_301\n        /* \"#utility.yul\":6050:6056   */\n      dup2\n        /* \"#utility.yul\":6045:6048   */\n      dup6\n        /* \"#utility.yul\":5986:6057   */\n      tag_302\n      jump\t// in\n    tag_301:\n        /* \"#utility.yul\":5979:6057   */\n      swap4\n      pop\n        /* \"#utility.yul\":6066:6118   */\n      tag_303\n        /* \"#utility.yul\":6111:6117   */\n      dup2\n        /* \"#utility.yul\":6106:6109   */\n      dup6\n        /* \"#utility.yul\":6099:6103   */\n      0x20\n        /* \"#utility.yul\":6092:6097   */\n      dup7\n        /* \"#utility.yul\":6088:6104   */\n      add\n        /* \"#utility.yul\":6066:6118   */\n      tag_295\n      jump\t// in\n    tag_303:\n        /* \"#utility.yul\":6143:6172   */\n      tag_304\n        /* \"#utility.yul\":6165:6171   */\n      dup2\n        /* \"#utility.yul\":6143:6172   */\n      tag_297\n      jump\t// in\n    tag_304:\n        /* \"#utility.yul\":6138:6141   */\n      dup5\n        /* \"#utility.yul\":6134:6173   */\n      add\n        /* \"#utility.yul\":6127:6173   */\n      swap2\n      pop\n        /* \"#utility.yul\":5907:6179   */\n      pop\n        /* \"#utility.yul\":5815:6179   */\n      swap3\n      swap2\n      pop\n      pop\n      jump\t// out\n        /* \"#utility.yul\":6185:6551   */\n    tag_305:\n        /* \"#utility.yul\":6327:6330   */\n      0x00\n        /* \"#utility.yul\":6348:6415   */\n      tag_307\n        /* \"#utility.yul\":6412:6414   */\n      0x2a\n        /* \"#utility.yul\":6407:6410   */\n      dup4\n        /* \"#utility.yul\":6348:6415   */\n      tag_302\n      jump\t// in\n    tag_307:\n        /* \"#utility.yul\":6341:6415   */\n      swap2\n      pop\n        /* \"#utility.yul\":6424:6517   */\n      tag_308\n        /* \"#utility.yul\":6513:6516   */\n      dup3\n        /* \"#utility.yul\":6424:6517   */\n      tag_309\n      jump\t// in\n    tag_308:\n        /* \"#utility.yul\":6542:6544   */\n      0x40\n        /* \"#utility.yul\":6537:6540   */\n      dup3\n        /* \"#utility.yul\":6533:6545   */\n      add\n        /* \"#utility.yul\":6526:6545   */\n      swap1\n      pop\n        /* \"#utility.yul\":6185:6551   */\n      swap2\n      swap1\n      pop\n      jump\t// out\n        /* \"#utility.yul\":6557:6923   */\n    tag_310:\n        /* \"#utility.yul\":6699:6702   */\n      0x00\n        /* \"#utility.yul\":6720:6787   */\n      tag_312\n        /* \"#utility.yul\":6784:6786   */\n      0x1c\n        /* \"#utility.yul\":6779:6782   */\n      dup4\n        /* \"#utility.yul\":6720:6787   */\n      tag_302\n      jump\t// in\n    tag_312:\n        /* \"#utility.yul\":6713:6787   */\n      swap2\n      pop\n        /* \"#utility.yul\":6796:6889   */\n      tag_313\n        /* \"#utility.yul\":6885:6888   */\n      dup3\n        /* \"#utility.yul\":6796:6889   */\n      tag_314\n      jump\t// in\n    tag_313:\n        /* \"#utility.yul\":6914:6916   */\n      0x20\n        /* \"#utility.yul\":6909:6912   */\n      dup3\n        /* \"#utility.yul\":6905:6917   */\n      add\n        /* \"#utility.yul\":6898:6917   */\n      swap1\n      pop\n        /* \"#utility.yul\":6557:6923   */\n      swap2\n      swap1\n      pop\n      jump\t// out\n        /* \"#utility.yul\":6991:7758   */\n    tag_248:\n        /* \"#utility.yul\":7098:7101   */\n      0x00\n        /* \"#utility.yul\":7134:7138   */\n      0x60\n        /* \"#utility.yul\":7129:7132   */\n      dup4\n        /* \"#utility.yul\":7125:7139   */\n      add\n        /* \"#utility.yul\":7219:7223   */\n      0x00\n        /* \"#utility.yul\":7212:7217   */\n      dup4\n        /* \"#utility.yul\":7208:7224   */\n      add\n        /* \"#utility.yul\":7202:7225   */\n      mload\n        /* \"#utility.yul\":7238:7301   */\n      tag_316\n        /* \"#utility.yul\":7295:7299   */\n      0x00\n        /* \"#utility.yul\":7290:7293   */\n      dup7\n        /* \"#utility.yul\":7286:7300   */\n      add\n        /* \"#utility.yul\":7272:7284   */\n      dup3\n        /* \"#utility.yul\":7238:7301   */\n      tag_317\n      jump\t// in\n    tag_316:\n        /* \"#utility.yul\":7149:7311   */\n      pop\n        /* \"#utility.yul\":7393:7397   */\n      0x20\n        /* \"#utility.yul\":7386:7391   */\n      dup4\n        /* \"#utility.yul\":7382:7398   */\n      add\n        /* \"#utility.yul\":7376:7399   */\n      mload\n        /* \"#utility.yul\":7446:7449   */\n      dup5\n        /* \"#utility.yul\":7440:7444   */\n      dup3\n        /* \"#utility.yul\":7436:7450   */\n      sub\n        /* \"#utility.yul\":7429:7433   */\n      0x20\n        /* \"#utility.yul\":7424:7427   */\n      dup7\n        /* \"#utility.yul\":7420:7434   */\n      add\n        /* \"#utility.yul\":7413:7451   */\n      mstore\n        /* \"#utility.yul\":7472:7545   */\n      tag_318\n        /* \"#utility.yul\":7540:7544   */\n      dup3\n        /* \"#utility.yul\":7526:7538   */\n      dup3\n        /* \"#utility.yul\":7472:7545   */\n      tag_288\n      jump\t// in\n    tag_318:\n        /* \"#utility.yul\":7464:7545   */\n      swap2\n      pop\n        /* \"#utility.yul\":7321:7556   */\n      pop\n        /* \"#utility.yul\":7639:7643   */\n      0x40\n        /* \"#utility.yul\":7632:7637   */\n      dup4\n        /* \"#utility.yul\":7628:7644   */\n      add\n        /* \"#utility.yul\":7622:7645   */\n      mload\n        /* \"#utility.yul\":7658:7721   */\n      tag_319\n        /* \"#utility.yul\":7715:7719   */\n      0x40\n        /* \"#utility.yul\":7710:7713   */\n      dup7\n        /* \"#utility.yul\":7706:7720   */\n      add\n        /* \"#utility.yul\":7692:7704   */\n      dup3\n        /* \"#utility.yul\":7658:7721   */\n      tag_317\n      jump\t// in\n    tag_319:\n        /* \"#utility.yul\":7566:7731   */\n      pop\n        /* \"#utility.yul\":7748:7752   */\n      dup1\n        /* \"#utility.yul\":7741:7752   */\n      swap2\n      pop\n        /* \"#utility.yul\":7103:7758   */\n      pop\n        /* \"#utility.yul\":6991:7758   */\n      swap3\n      swap2\n      pop\n      pop\n      jump\t// out\n        /* \"#utility.yul\":7764:7872   */\n    tag_317:\n        /* \"#utility.yul\":7841:7865   */\n      tag_321\n        /* \"#utility.yul\":7859:7864   */\n      dup2\n        /* \"#utility.yul\":7841:7865   */\n      tag_322\n      jump\t// in\n    tag_321:\n        /* \"#utility.yul\":7836:7839   */\n      dup3\n        /* \"#utility.yul\":7829:7866   */\n      mstore\n        /* \"#utility.yul\":7764:7872   */\n      pop\n      pop\n      jump\t// out\n        /* \"#utility.yul\":7878:7996   */\n    tag_323:\n        /* \"#utility.yul\":7965:7989   */\n      tag_325\n        /* \"#utility.yul\":7983:7988   */\n      dup2\n        /* \"#utility.yul\":7965:7989   */\n      tag_322\n      jump\t// in\n    tag_325:\n        /* \"#utility.yul\":7960:7963   */\n      dup3\n        /* \"#utility.yul\":7953:7990   */\n      mstore\n        /* \"#utility.yul\":7878:7996   */\n      pop\n      pop\n      jump\t// out\n        /* \"#utility.yul\":8002:8224   */\n    tag_57:\n        /* \"#utility.yul\":8095:8099   */\n      0x00\n        /* \"#utility.yul\":8133:8135   */\n      0x20\n        /* \"#utility.yul\":8122:8131   */\n      dup3\n        /* \"#utility.yul\":8118:8136   */\n      add\n        /* \"#utility.yul\":8110:8136   */\n      swap1\n      pop\n        /* \"#utility.yul\":8146:8217   */\n      tag_327\n        /* \"#utility.yul\":8214:8215   */\n      0x00\n        /* \"#utility.yul\":8203:8212   */\n      dup4\n        /* \"#utility.yul\":8199:8216   */\n      add\n        /* \"#utility.yul\":8190:8196   */\n      dup5\n        /* \"#utility.yul\":8146:8217   */\n      tag_249\n      jump\t// in\n    tag_327:\n        /* \"#utility.yul\":8002:8224   */\n      swap3\n      swap2\n      pop\n      pop\n      jump\t// out\n        /* \"#utility.yul\":8230:8799   */\n    tag_45:\n        /* \"#utility.yul\":8471:8475   */\n      0x00\n        /* \"#utility.yul\":8509:8511   */\n      0x20\n        /* \"#utility.yul\":8498:8507   */\n      dup3\n        /* \"#utility.yul\":8494:8512   */\n      add\n        /* \"#utility.yul\":8486:8512   */\n      swap1\n      pop\n        /* \"#utility.yul\":8558:8567   */\n      dup2\n        /* \"#utility.yul\":8552:8556   */\n      dup2\n        /* \"#utility.yul\":8548:8568   */\n      sub\n        /* \"#utility.yul\":8544:8545   */\n      0x00\n        /* \"#utility.yul\":8533:8542   */\n      dup4\n        /* \"#utility.yul\":8529:8546   */\n      add\n        /* \"#utility.yul\":8522:8569   */\n      mstore\n        /* \"#utility.yul\":8586:8792   */\n      tag_329\n        /* \"#utility.yul\":8787:8791   */\n      dup2\n        /* \"#utility.yul\":8778:8784   */\n      dup5\n        /* \"#utility.yul\":8586:8792   */\n      tag_253\n      jump\t// in\n    tag_329:\n        /* \"#utility.yul\":8578:8792   */\n      swap1\n      pop\n        /* \"#utility.yul\":8230:8799   */\n      swap3\n      swap2\n      pop\n      pop\n      jump\t// out\n        /* \"#utility.yul\":8805:9015   */\n    tag_32:\n        /* \"#utility.yul\":8892:8896   */\n      0x00\n        /* \"#utility.yul\":8930:8932   */\n      0x20\n        /* \"#utility.yul\":8919:8928   */\n      dup3\n        /* \"#utility.yul\":8915:8933   */\n      add\n        /* \"#utility.yul\":8907:8933   */\n      swap1\n      pop\n        /* \"#utility.yul\":8943:9008   */\n      tag_331\n        /* \"#utility.yul\":9005:9006   */\n      0x00\n        /* \"#utility.yul\":8994:9003   */\n      dup4\n        /* \"#utility.yul\":8990:9007   */\n      add\n        /* \"#utility.yul\":8981:8987   */\n      dup5\n        /* \"#utility.yul\":8943:9008   */\n      tag_280\n      jump\t// in\n    tag_331:\n        /* \"#utility.yul\":8805:9015   */\n      swap3\n      swap2\n      pop\n      pop\n      jump\t// out\n        /* \"#utility.yul\":9021:9661   */\n    tag_51:\n        /* \"#utility.yul\":9214:9218   */\n      0x00\n        /* \"#utility.yul\":9252:9255   */\n      0xa0\n        /* \"#utility.yul\":9241:9250   */\n      dup3\n        /* \"#utility.yul\":9237:9256   */\n      add\n        /* \"#utility.yul\":9229:9256   */\n      swap1\n      pop\n        /* \"#utility.yul\":9266:9331   */\n      tag_333\n        /* \"#utility.yul\":9328:9329   */\n      0x00\n        /* \"#utility.yul\":9317:9326   */\n      dup4\n        /* \"#utility.yul\":9313:9330   */\n      add\n        /* \"#utility.yul\":9304:9310   */\n      dup9\n        /* \"#utility.yul\":9266:9331   */\n      tag_280\n      jump\t// in\n    tag_333:\n        /* \"#utility.yul\":9341:9407   */\n      tag_334\n        /* \"#utility.yul\":9403:9405   */\n      0x20\n        /* \"#utility.yul\":9392:9401   */\n      dup4\n        /* \"#utility.yul\":9388:9406   */\n      add\n        /* \"#utility.yul\":9379:9385   */\n      dup8\n        /* \"#utility.yul\":9341:9407   */\n      tag_280\n      jump\t// in\n    tag_334:\n        /* \"#utility.yul\":9417:9489   */\n      tag_335\n        /* \"#utility.yul\":9485:9487   */\n      0x40\n        /* \"#utility.yul\":9474:9483   */\n      dup4\n        /* \"#utility.yul\":9470:9488   */\n      add\n        /* \"#utility.yul\":9461:9467   */\n      dup7\n        /* \"#utility.yul\":9417:9489   */\n      tag_323\n      jump\t// in\n    tag_335:\n        /* \"#utility.yul\":9499:9571   */\n      tag_336\n        /* \"#utility.yul\":9567:9569   */\n      0x60\n        /* \"#utility.yul\":9556:9565   */\n      dup4\n        /* \"#utility.yul\":9552:9570   */\n      add\n        /* \"#utility.yul\":9543:9549   */\n      dup6\n        /* \"#utility.yul\":9499:9571   */\n      tag_323\n      jump\t// in\n    tag_336:\n        /* \"#utility.yul\":9581:9654   */\n      tag_337\n        /* \"#utility.yul\":9649:9652   */\n      0x80\n        /* \"#utility.yul\":9638:9647   */\n      dup4\n        /* \"#utility.yul\":9634:9653   */\n      add\n        /* \"#utility.yul\":9625:9631   */\n      dup5\n        /* \"#utility.yul\":9581:9654   */\n      tag_323\n      jump\t// in\n    tag_337:\n        /* \"#utility.yul\":9021:9661   */\n      swap7\n      swap6\n      pop\n      pop\n      pop\n      pop\n      pop\n      pop\n      jump\t// out\n        /* \"#utility.yul\":9667:10097   */\n    tag_107:\n        /* \"#utility.yul\":9810:9814   */\n      0x00\n        /* \"#utility.yul\":9848:9850   */\n      0x60\n        /* \"#utility.yul\":9837:9846   */\n      dup3\n        /* \"#utility.yul\":9833:9851   */\n      add\n        /* \"#utility.yul\":9825:9851   */\n      swap1\n      pop\n        /* \"#utility.yul\":9861:9926   */\n      tag_339\n        /* \"#utility.yul\":9923:9924   */\n      0x00\n        /* \"#utility.yul\":9912:9921   */\n      dup4\n        /* \"#utility.yul\":9908:9925   */\n      add\n        /* \"#utility.yul\":9899:9905   */\n      dup7\n        /* \"#utility.yul\":9861:9926   */\n      tag_280\n      jump\t// in\n    tag_339:\n        /* \"#utility.yul\":9936:10008   */\n      tag_340\n        /* \"#utility.yul\":10004:10006   */\n      0x20\n        /* \"#utility.yul\":9993:10002   */\n      dup4\n        /* \"#utility.yul\":9989:10007   */\n      add\n        /* \"#utility.yul\":9980:9986   */\n      dup6\n        /* \"#utility.yul\":9936:10008   */\n      tag_323\n      jump\t// in\n    tag_340:\n        /* \"#utility.yul\":10018:10090   */\n      tag_341\n        /* \"#utility.yul\":10086:10088   */\n      0x40\n        /* \"#utility.yul\":10075:10084   */\n      dup4\n        /* \"#utility.yul\":10071:10089   */\n      add\n        /* \"#utility.yul\":10062:10068   */\n      dup5\n        /* \"#utility.yul\":10018:10090   */\n      tag_323\n      jump\t// in\n    tag_341:\n        /* \"#utility.yul\":9667:10097   */\n      swap5\n      swap4\n      pop\n      pop\n      pop\n      pop\n      jump\t// out\n        /* \"#utility.yul\":10103:10337   */\n    tag_75:\n        /* \"#utility.yul\":10202:10206   */\n      0x00\n        /* \"#utility.yul\":10240:10242   */\n      0x20\n        /* \"#utility.yul\":10229:10238   */\n      dup3\n        /* \"#utility.yul\":10225:10243   */\n      add\n        /* \"#utility.yul\":10217:10243   */\n      swap1\n      pop\n        /* \"#utility.yul\":10253:10330   */\n      tag_343\n        /* \"#utility.yul\":10327:10328   */\n      0x00\n        /* \"#utility.yul\":10316:10325   */\n      dup4\n        /* \"#utility.yul\":10312:10329   */\n      add\n        /* \"#utility.yul\":10303:10309   */\n      dup5\n        /* \"#utility.yul\":10253:10330   */\n      tag_284\n      jump\t// in\n    tag_343:\n        /* \"#utility.yul\":10103:10337   */\n      swap3\n      swap2\n      pop\n      pop\n      jump\t// out\n        /* \"#utility.yul\":10343:10762   */\n    tag_186:\n        /* \"#utility.yul\":10509:10513   */\n      0x00\n        /* \"#utility.yul\":10547:10549   */\n      0x20\n        /* \"#utility.yul\":10536:10545   */\n      dup3\n        /* \"#utility.yul\":10532:10550   */\n      add\n        /* \"#utility.yul\":10524:10550   */\n      swap1\n      pop\n        /* \"#utility.yul\":10596:10605   */\n      dup2\n        /* \"#utility.yul\":10590:10594   */\n      dup2\n        /* \"#utility.yul\":10586:10606   */\n      sub\n        /* \"#utility.yul\":10582:10583   */\n      0x00\n        /* \"#utility.yul\":10571:10580   */\n      dup4\n        /* \"#utility.yul\":10567:10584   */\n      add\n        /* \"#utility.yul\":10560:10607   */\n      mstore\n        /* \"#utility.yul\":10624:10755   */\n      tag_345\n        /* \"#utility.yul\":10750:10754   */\n      dup2\n        /* \"#utility.yul\":10624:10755   */\n      tag_305\n      jump\t// in\n    tag_345:\n        /* \"#utility.yul\":10616:10755   */\n      swap1\n      pop\n        /* \"#utility.yul\":10343:10762   */\n      swap2\n      swap1\n      pop\n      jump\t// out\n        /* \"#utility.yul\":10768:11187   */\n    tag_182:\n        /* \"#utility.yul\":10934:10938   */\n      0x00\n        /* \"#utility.yul\":10972:10974   */\n      0x20\n        /* \"#utility.yul\":10961:10970   */\n      dup3\n        /* \"#utility.yul\":10957:10975   */\n      add\n        /* \"#utility.yul\":10949:10975   */\n      swap1\n      pop\n        /* \"#utility.yul\":11021:11030   */\n      dup2\n        /* \"#utility.yul\":11015:11019   */\n      dup2\n        /* \"#utility.yul\":11011:11031   */\n      sub\n        /* \"#utility.yul\":11007:11008   */\n      0x00\n        /* \"#utility.yul\":10996:11005   */\n      dup4\n        /* \"#utility.yul\":10992:11009   */\n      add\n        /* \"#utility.yul\":10985:11032   */\n      mstore\n        /* \"#utility.yul\":11049:11180   */\n      tag_347\n        /* \"#utility.yul\":11175:11179   */\n      dup2\n        /* \"#utility.yul\":11049:11180   */\n      tag_310\n      jump\t// in\n    tag_347:\n        /* \"#utility.yul\":11041:11180   */\n      swap1\n      pop\n        /* \"#utility.yul\":10768:11187   */\n      swap2\n      swap1\n      pop\n      jump\t// out\n        /* \"#utility.yul\":11193:11415   */\n    tag_26:\n        /* \"#utility.yul\":11286:11290   */\n      0x00\n        /* \"#utility.yul\":11324:11326   */\n      0x20\n        /* \"#utility.yul\":11313:11322   */\n      dup3\n        /* \"#utility.yul\":11309:11327   */\n      add\n        /* \"#utility.yul\":11301:11327   */\n      swap1\n      pop\n        /* \"#utility.yul\":11337:11408   */\n      tag_349\n        /* \"#utility.yul\":11405:11406   */\n      0x00\n        /* \"#utility.yul\":11394:11403   */\n      dup4\n        /* \"#utility.yul\":11390:11407   */\n      add\n        /* \"#utility.yul\":11381:11387   */\n      dup5\n        /* \"#utility.yul\":11337:11408   */\n      tag_323\n      jump\t// in\n    tag_349:\n        /* \"#utility.yul\":11193:11415   */\n      swap3\n      swap2\n      pop\n      pop\n      jump\t// out\n        /* \"#utility.yul\":11421:11954   */\n    tag_41:\n        /* \"#utility.yul\":11590:11594   */\n      0x00\n        /* \"#utility.yul\":11628:11630   */\n      0x60\n        /* \"#utility.yul\":11617:11626   */\n      dup3\n        /* \"#utility.yul\":11613:11631   */\n      add\n        /* \"#utility.yul\":11605:11631   */\n      swap1\n      pop\n        /* \"#utility.yul\":11641:11712   */\n      tag_351\n        /* \"#utility.yul\":11709:11710   */\n      0x00\n        /* \"#utility.yul\":11698:11707   */\n      dup4\n        /* \"#utility.yul\":11694:11711   */\n      add\n        /* \"#utility.yul\":11685:11691   */\n      dup7\n        /* \"#utility.yul\":11641:11712   */\n      tag_323\n      jump\t// in\n    tag_351:\n        /* \"#utility.yul\":11759:11768   */\n      dup2\n        /* \"#utility.yul\":11753:11757   */\n      dup2\n        /* \"#utility.yul\":11749:11769   */\n      sub\n        /* \"#utility.yul\":11744:11746   */\n      0x20\n        /* \"#utility.yul\":11733:11742   */\n      dup4\n        /* \"#utility.yul\":11729:11747   */\n      add\n        /* \"#utility.yul\":11722:11770   */\n      mstore\n        /* \"#utility.yul\":11787:11865   */\n      tag_352\n        /* \"#utility.yul\":11860:11864   */\n      dup2\n        /* \"#utility.yul\":11851:11857   */\n      dup6\n        /* \"#utility.yul\":11787:11865   */\n      tag_298\n      jump\t// in\n    tag_352:\n        /* \"#utility.yul\":11779:11865   */\n      swap1\n      pop\n        /* \"#utility.yul\":11875:11947   */\n      tag_353\n        /* \"#utility.yul\":11943:11945   */\n      0x40\n        /* \"#utility.yul\":11932:11941   */\n      dup4\n        /* \"#utility.yul\":11928:11946   */\n      add\n        /* \"#utility.yul\":11919:11925   */\n      dup5\n        /* \"#utility.yul\":11875:11947   */\n      tag_323\n      jump\t// in\n    tag_353:\n        /* \"#utility.yul\":11421:11954   */\n      swap5\n      swap4\n      pop\n      pop\n      pop\n      pop\n      jump\t// out\n        /* \"#utility.yul\":11960:12604   */\n    tag_90:\n        /* \"#utility.yul\":12157:12161   */\n      0x00\n        /* \"#utility.yul\":12195:12198   */\n      0x80\n        /* \"#utility.yul\":12184:12193   */\n      dup3\n        /* \"#utility.yul\":12180:12199   */\n      add\n        /* \"#utility.yul\":12172:12199   */\n      swap1\n      pop\n        /* \"#utility.yul\":12209:12280   */\n      tag_355\n        /* \"#utility.yul\":12277:12278   */\n      0x00\n        /* \"#utility.yul\":12266:12275   */\n      dup4\n        /* \"#utility.yul\":12262:12279   */\n      add\n        /* \"#utility.yul\":12253:12259   */\n      dup8\n        /* \"#utility.yul\":12209:12280   */\n      tag_323\n      jump\t// in\n    tag_355:\n        /* \"#utility.yul\":12327:12336   */\n      dup2\n        /* \"#utility.yul\":12321:12325   */\n      dup2\n        /* \"#utility.yul\":12317:12337   */\n      sub\n        /* \"#utility.yul\":12312:12314   */\n      0x20\n        /* \"#utility.yul\":12301:12310   */\n      dup4\n        /* \"#utility.yul\":12297:12315   */\n      add\n        /* \"#utility.yul\":12290:12338   */\n      mstore\n        /* \"#utility.yul\":12355:12433   */\n      tag_356\n        /* \"#utility.yul\":12428:12432   */\n      dup2\n        /* \"#utility.yul\":12419:12425   */\n      dup7\n        /* \"#utility.yul\":12355:12433   */\n      tag_298\n      jump\t// in\n    tag_356:\n        /* \"#utility.yul\":12347:12433   */\n      swap1\n      pop\n        /* \"#utility.yul\":12443:12515   */\n      tag_357\n        /* \"#utility.yul\":12511:12513   */\n      0x40\n        /* \"#utility.yul\":12500:12509   */\n      dup4\n        /* \"#utility.yul\":12496:12514   */\n      add\n        /* \"#utility.yul\":12487:12493   */\n      dup6\n        /* \"#utility.yul\":12443:12515   */\n      tag_323\n      jump\t// in\n    tag_357:\n        /* \"#utility.yul\":12525:12597   */\n      tag_358\n        /* \"#utility.yul\":12593:12595   */\n      0x60\n        /* \"#utility.yul\":12582:12591   */\n      dup4\n        /* \"#utility.yul\":12578:12596   */\n      add\n        /* \"#utility.yul\":12569:12575   */\n      dup5\n        /* \"#utility.yul\":12525:12597   */\n      tag_323\n      jump\t// in\n    tag_358:\n        /* \"#utility.yul\":11960:12604   */\n      swap6\n      swap5\n      pop\n      pop\n      pop\n      pop\n      pop\n      jump\t// out\n        /* \"#utility.yul\":12691:12872   */\n    tag_260:\n        /* \"#utility.yul\":12807:12811   */\n      0x00\n        /* \"#utility.yul\":12830:12833   */\n      dup2\n        /* \"#utility.yul\":12822:12833   */\n      swap1\n      pop\n        /* \"#utility.yul\":12860:12864   */\n      0x20\n        /* \"#utility.yul\":12855:12858   */\n      dup3\n        /* \"#utility.yul\":12851:12865   */\n      add\n        /* \"#utility.yul\":12843:12865   */\n      swap1\n      pop\n        /* \"#utility.yul\":12691:12872   */\n      swap2\n      swap1\n      pop\n      jump\t// out\n        /* \"#utility.yul\":12878:13034   */\n    tag_273:\n        /* \"#utility.yul\":12969:12973   */\n      0x00\n        /* \"#utility.yul\":12992:12995   */\n      dup2\n        /* \"#utility.yul\":12984:12995   */\n      swap1\n      pop\n        /* \"#utility.yul\":13022:13026   */\n      0x20\n        /* \"#utility.yul\":13017:13020   */\n      dup3\n        /* \"#utility.yul\":13013:13027   */\n      add\n        /* \"#utility.yul\":13005:13027   */\n      swap1\n      pop\n        /* \"#utility.yul\":12878:13034   */\n      swap2\n      swap1\n      pop\n      jump\t// out\n        /* \"#utility.yul\":13040:13203   */\n    tag_256:\n        /* \"#utility.yul\":13156:13162   */\n      0x00\n        /* \"#utility.yul\":13190:13195   */\n      dup2\n        /* \"#utility.yul\":13184:13196   */\n      mload\n        /* \"#utility.yul\":13174:13196   */\n      swap1\n      pop\n        /* \"#utility.yul\":13040:13203   */\n      swap2\n      swap1\n      pop\n      jump\t// out\n        /* \"#utility.yul\":13209:13347   */\n    tag_269:\n        /* \"#utility.yul\":13300:13306   */\n      0x00\n        /* \"#utility.yul\":13334:13339   */\n      dup2\n        /* \"#utility.yul\":13328:13340   */\n      mload\n        /* \"#utility.yul\":13318:13340   */\n      swap1\n      pop\n        /* \"#utility.yul\":13209:13347   */\n      swap2\n      swap1\n      pop\n      jump\t// out\n        /* \"#utility.yul\":13353:13452   */\n    tag_291:\n        /* \"#utility.yul\":13405:13411   */\n      0x00\n        /* \"#utility.yul\":13439:13444   */\n      dup2\n        /* \"#utility.yul\":13433:13445   */\n      mload\n        /* \"#utility.yul\":13423:13445   */\n      swap1\n      pop\n        /* \"#utility.yul\":13353:13452   */\n      swap2\n      swap1\n      pop\n      jump\t// out\n        /* \"#utility.yul\":13458:13620   */\n    tag_266:\n        /* \"#utility.yul\":13577:13581   */\n      0x00\n        /* \"#utility.yul\":13609:13613   */\n      0x20\n        /* \"#utility.yul\":13604:13607   */\n      dup3\n        /* \"#utility.yul\":13600:13614   */\n      add\n        /* \"#utility.yul\":13592:13614   */\n      swap1\n      pop\n        /* \"#utility.yul\":13458:13620   */\n      swap2\n      swap1\n      pop\n      jump\t// out\n        /* \"#utility.yul\":13626:13763   */\n    tag_279:\n        /* \"#utility.yul\":13720:13724   */\n      0x00\n        /* \"#utility.yul\":13752:13756   */\n      0x20\n        /* \"#utility.yul\":13747:13750   */\n      dup3\n        /* \"#utility.yul\":13743:13757   */\n      add\n        /* \"#utility.yul\":13735:13757   */\n      swap1\n      pop\n        /* \"#utility.yul\":13626:13763   */\n      swap2\n      swap1\n      pop\n      jump\t// out\n        /* \"#utility.yul\":13769:14002   */\n    tag_258:\n        /* \"#utility.yul\":13917:13928   */\n      0x00\n        /* \"#utility.yul\":13951:13957   */\n      dup3\n        /* \"#utility.yul\":13946:13949   */\n      dup3\n        /* \"#utility.yul\":13939:13958   */\n      mstore\n        /* \"#utility.yul\":13991:13995   */\n      0x20\n        /* \"#utility.yul\":13986:13989   */\n      dup3\n        /* \"#utility.yul\":13982:13996   */\n      add\n        /* \"#utility.yul\":13967:13996   */\n      swap1\n      pop\n        /* \"#utility.yul\":13769:14002   */\n      swap3\n      swap2\n      pop\n      pop\n      jump\t// out\n        /* \"#utility.yul\":14008:14206   */\n    tag_271:\n        /* \"#utility.yul\":14121:14132   */\n      0x00\n        /* \"#utility.yul\":14155:14161   */\n      dup3\n        /* \"#utility.yul\":14150:14153   */\n      dup3\n        /* \"#utility.yul\":14143:14162   */\n      mstore\n        /* \"#utility.yul\":14195:14199   */\n      0x20\n        /* \"#utility.yul\":14190:14193   */\n      dup3\n        /* \"#utility.yul\":14186:14200   */\n      add\n        /* \"#utility.yul\":14171:14200   */\n      swap1\n      pop\n        /* \"#utility.yul\":14008:14206   */\n      swap3\n      swap2\n      pop\n      pop\n      jump\t// out\n        /* \"#utility.yul\":14212:14371   */\n    tag_293:\n        /* \"#utility.yul\":14286:14297   */\n      0x00\n        /* \"#utility.yul\":14320:14326   */\n      dup3\n        /* \"#utility.yul\":14315:14318   */\n      dup3\n        /* \"#utility.yul\":14308:14327   */\n      mstore\n        /* \"#utility.yul\":14360:14364   */\n      0x20\n        /* \"#utility.yul\":14355:14358   */\n      dup3\n        /* \"#utility.yul\":14351:14365   */\n      add\n        /* \"#utility.yul\":14336:14365   */\n      swap1\n      pop\n        /* \"#utility.yul\":14212:14371   */\n      swap3\n      swap2\n      pop\n      pop\n      jump\t// out\n        /* \"#utility.yul\":14377:14546   */\n    tag_302:\n        /* \"#utility.yul\":14461:14472   */\n      0x00\n        /* \"#utility.yul\":14495:14501   */\n      dup3\n        /* \"#utility.yul\":14490:14493   */\n      dup3\n        /* \"#utility.yul\":14483:14502   */\n      mstore\n        /* \"#utility.yul\":14535:14539   */\n      0x20\n        /* \"#utility.yul\":14530:14533   */\n      dup3\n        /* \"#utility.yul\":14526:14540   */\n      add\n        /* \"#utility.yul\":14511:14540   */\n      swap1\n      pop\n        /* \"#utility.yul\":14377:14546   */\n      swap3\n      swap2\n      pop\n      pop\n      jump\t// out\n        /* \"#utility.yul\":14552:14648   */\n    tag_252:\n        /* \"#utility.yul\":14589:14596   */\n      0x00\n        /* \"#utility.yul\":14618:14642   */\n      tag_373\n        /* \"#utility.yul\":14636:14641   */\n      dup3\n        /* \"#utility.yul\":14618:14642   */\n      tag_374\n      jump\t// in\n    tag_373:\n        /* \"#utility.yul\":14607:14642   */\n      swap1\n      pop\n        /* \"#utility.yul\":14552:14648   */\n      swap2\n      swap1\n      pop\n      jump\t// out\n        /* \"#utility.yul\":14654:14744   */\n    tag_283:\n        /* \"#utility.yul\":14688:14695   */\n      0x00\n        /* \"#utility.yul\":14731:14736   */\n      dup2\n        /* \"#utility.yul\":14724:14737   */\n      iszero\n        /* \"#utility.yul\":14717:14738   */\n      iszero\n        /* \"#utility.yul\":14706:14738   */\n      swap1\n      pop\n        /* \"#utility.yul\":14654:14744   */\n      swap2\n      swap1\n      pop\n      jump\t// out\n        /* \"#utility.yul\":14750:14877   */\n    tag_376:\n        /* \"#utility.yul\":14795:14802   */\n      0x00\n        /* \"#utility.yul\":14824:14829   */\n      dup2\n        /* \"#utility.yul\":14813:14829   */\n      swap1\n      pop\n        /* \"#utility.yul\":14830:14871   */\n      tag_378\n        /* \"#utility.yul\":14865:14870   */\n      dup3\n        /* \"#utility.yul\":14830:14871   */\n      tag_379\n      jump\t// in\n    tag_378:\n        /* \"#utility.yul\":14750:14877   */\n      swap2\n      swap1\n      pop\n      jump\t// out\n        /* \"#utility.yul\":14883:15009   */\n    tag_374:\n        /* \"#utility.yul\":14920:14927   */\n      0x00\n        /* \"#utility.yul\":14960:15002   */\n      0xffffffffffffffffffffffffffffffffffffffff\n        /* \"#utility.yul\":14953:14958   */\n      dup3\n        /* \"#utility.yul\":14949:15003   */\n      and\n        /* \"#utility.yul\":14938:15003   */\n      swap1\n      pop\n        /* \"#utility.yul\":14883:15009   */\n      swap2\n      swap1\n      pop\n      jump\t// out\n        /* \"#utility.yul\":15015:15092   */\n    tag_322:\n        /* \"#utility.yul\":15052:15059   */\n      0x00\n        /* \"#utility.yul\":15081:15086   */\n      dup2\n        /* \"#utility.yul\":15070:15086   */\n      swap1\n      pop\n        /* \"#utility.yul\":15015:15092   */\n      swap2\n      swap1\n      pop\n      jump\t// out\n        /* \"#utility.yul\":15098:15225   */\n    tag_287:\n        /* \"#utility.yul\":15154:15163   */\n      0x00\n        /* \"#utility.yul\":15187:15219   */\n      tag_383\n        /* \"#utility.yul\":15213:15218   */\n      dup3\n        /* \"#utility.yul\":15187:15219   */\n      tag_376\n      jump\t// in\n    tag_383:\n        /* \"#utility.yul\":15174:15219   */\n      swap1\n      pop\n        /* \"#utility.yul\":15098:15225   */\n      swap2\n      swap1\n      pop\n      jump\t// out\n        /* \"#utility.yul\":15231:15538   */\n    tag_295:\n        /* \"#utility.yul\":15299:15300   */\n      0x00\n        /* \"#utility.yul\":15309:15422   */\n    tag_385:\n        /* \"#utility.yul\":15323:15329   */\n      dup4\n        /* \"#utility.yul\":15320:15321   */\n      dup2\n        /* \"#utility.yul\":15317:15330   */\n      lt\n        /* \"#utility.yul\":15309:15422   */\n      iszero\n      tag_387\n      jumpi\n        /* \"#utility.yul\":15408:15409   */\n      dup1\n        /* \"#utility.yul\":15403:15406   */\n      dup3\n        /* \"#utility.yul\":15399:15410   */\n      add\n        /* \"#utility.yul\":15393:15411   */\n      mload\n        /* \"#utility.yul\":15389:15390   */\n      dup2\n        /* \"#utility.yul\":15384:15387   */\n      dup5\n        /* \"#utility.yul\":15380:15391   */\n      add\n        /* \"#utility.yul\":15373:15412   */\n      mstore\n        /* \"#utility.yul\":15345:15347   */\n      0x20\n        /* \"#utility.yul\":15342:15343   */\n      dup2\n        /* \"#utility.yul\":15338:15348   */\n      add\n        /* \"#utility.yul\":15333:15348   */\n      swap1\n      pop\n        /* \"#utility.yul\":15309:15422   */\n      jump(tag_385)\n    tag_387:\n        /* \"#utility.yul\":15440:15446   */\n      dup4\n        /* \"#utility.yul\":15437:15438   */\n      dup2\n        /* \"#utility.yul\":15434:15447   */\n      gt\n        /* \"#utility.yul\":15431:15532   */\n      iszero\n      tag_388\n      jumpi\n        /* \"#utility.yul\":15520:15521   */\n      0x00\n        /* \"#utility.yul\":15511:15517   */\n      dup5\n        /* \"#utility.yul\":15506:15509   */\n      dup5\n        /* \"#utility.yul\":15502:15518   */\n      add\n        /* \"#utility.yul\":15495:15522   */\n      mstore\n        /* \"#utility.yul\":15431:15532   */\n    tag_388:\n        /* \"#utility.yul\":15280:15538   */\n      pop\n        /* \"#utility.yul\":15231:15538   */\n      pop\n      pop\n      pop\n      jump\t// out\n        /* \"#utility.yul\":15544:15864   */\n    tag_109:\n        /* \"#utility.yul\":15588:15594   */\n      0x00\n        /* \"#utility.yul\":15625:15626   */\n      0x02\n        /* \"#utility.yul\":15619:15623   */\n      dup3\n        /* \"#utility.yul\":15615:15627   */\n      div\n        /* \"#utility.yul\":15605:15627   */\n      swap1\n      pop\n        /* \"#utility.yul\":15672:15673   */\n      0x01\n        /* \"#utility.yul\":15666:15670   */\n      dup3\n        /* \"#utility.yul\":15662:15674   */\n      and\n        /* \"#utility.yul\":15693:15711   */\n      dup1\n        /* \"#utility.yul\":15683:15764   */\n      tag_390\n      jumpi\n        /* \"#utility.yul\":15749:15753   */\n      0x7f\n        /* \"#utility.yul\":15741:15747   */\n      dup3\n        /* \"#utility.yul\":15737:15754   */\n      and\n        /* \"#utility.yul\":15727:15754   */\n      swap2\n      pop\n        /* \"#utility.yul\":15683:15764   */\n    tag_390:\n        /* \"#utility.yul\":15811:15813   */\n      0x20\n        /* \"#utility.yul\":15803:15809   */\n      dup3\n        /* \"#utility.yul\":15800:15814   */\n      lt\n        /* \"#utility.yul\":15780:15798   */\n      dup2\n        /* \"#utility.yul\":15777:15815   */\n      eq\n        /* \"#utility.yul\":15774:15858   */\n      iszero\n      tag_391\n      jumpi\n        /* \"#utility.yul\":15830:15848   */\n      tag_392\n      tag_393\n      jump\t// in\n    tag_392:\n        /* \"#utility.yul\":15774:15858   */\n    tag_391:\n        /* \"#utility.yul\":15595:15864   */\n      pop\n        /* \"#utility.yul\":15544:15864   */\n      swap2\n      swap1\n      pop\n      jump\t// out\n        /* \"#utility.yul\":15870:16103   */\n    tag_102:\n        /* \"#utility.yul\":15909:15912   */\n      0x00\n        /* \"#utility.yul\":15932:15956   */\n      tag_395\n        /* \"#utility.yul\":15950:15955   */\n      dup3\n        /* \"#utility.yul\":15932:15956   */\n      tag_322\n      jump\t// in\n    tag_395:\n        /* \"#utility.yul\":15923:15956   */\n      swap2\n      pop\n        /* \"#utility.yul\":15978:16044   */\n      0xffffffffffffffffffffffffffffffffffffffffffffffffffffffffffffffff\n        /* \"#utility.yul\":15971:15976   */\n      dup3\n        /* \"#utility.yul\":15968:16045   */\n      eq\n        /* \"#utility.yul\":15965:16068   */\n      iszero\n      tag_396\n      jumpi\n        /* \"#utility.yul\":16048:16066   */\n      tag_397\n      tag_398\n      jump\t// in\n    tag_397:\n        /* \"#utility.yul\":15965:16068   */\n    tag_396:\n        /* \"#utility.yul\":16095:16096   */\n      0x01\n        /* \"#utility.yul\":16088:16093   */\n      dup3\n        /* \"#utility.yul\":16084:16097   */\n      add\n        /* \"#utility.yul\":16077:16097   */\n      swap1\n      pop\n        /* \"#utility.yul\":15870:16103   */\n      swap2\n      swap1\n      pop\n      jump\t// out\n        /* \"#utility.yul\":16109:16289   */\n    tag_398:\n        /* \"#utility.yul\":16157:16234   */\n      0x4e487b7100000000000000000000000000000000000000000000000000000000\n        /* \"#utility.yul\":16154:16155   */\n      0x00\n        /* \"#utility.yul\":16147:16235   */\n      mstore\n        /* \"#utility.yul\":16254:16258   */\n      0x11\n        /* \"#utility.yul\":16251:16252   */\n      0x04\n        /* \"#utility.yul\":16244:16259   */\n      mstore\n        /* \"#utility.yul\":16278:16282   */\n      0x24\n        /* \"#utility.yul\":16275:16276   */\n      0x00\n        /* \"#utility.yul\":16268:16283   */\n      revert\n        /* \"#utility.yul\":16295:16475   */\n    tag_94:\n        /* \"#utility.yul\":16343:16420   */\n      0x4e487b7100000000000000000000000000000000000000000000000000000000\n        /* \"#utility.yul\":16340:16341   */\n      0x00\n        /* \"#utility.yul\":16333:16421   */\n      mstore\n        /* \"#utility.yul\":16440:16444   */\n      0x21\n        /* \"#utility.yul\":16437:16438   */\n      0x04\n        /* \"#utility.yul\":16430:16445   */\n      mstore\n        /* \"#utility.yul\":16464:16468   */\n      0x24\n        /* \"#utility.yul\":16461:16462   */\n      0x00\n        /* \"#utility.yul\":16454:16469   */\n      revert\n        /* \"#utility.yul\":16481:16661   */\n    tag_393:\n        /* \"#utility.yul\":16529:16606   */\n      0x4e487b7100000000000000000000000000000000000000000000000000000000\n        /* \"#utility.yul\":16526:16527   */\n      0x00\n        /* \"#utility.yul\":16519:16607   */\n      mstore\n        /* \"#utility.yul\":16626:16630   */\n      0x22\n        /* \"#utility.yul\":16623:16624   */\n      0x04\n        /* \"#utility.yul\":16616:16631   */\n      mstore\n        /* \"#utility.yul\":16650:16654   */\n      0x24\n        /* \"#utility.yul\":16647:16648   */\n      0x00\n        /* \"#utility.yul\":16640:16655   */\n      revert\n        /* \"#utility.yul\":16667:16847   */\n    tag_139:\n        /* \"#utility.yul\":16715:16792   */\n      0x4e487b7100000000000000000000000000000000000000000000000000000000\n        /* \"#utility.yul\":16712:16713   */\n      0x00\n        /* \"#utility.yul\":16705:16793   */\n      mstore\n        /* \"#utility.yul\":16812:16816   */\n      0x32\n        /* \"#utility.yul\":16809:16810   */\n      0x04\n        /* \"#utility.yul\":16802:16817   */\n      mstore\n        /* \"#utility.yul\":16836:16840   */\n      0x24\n        /* \"#utility.yul\":16833:16834   */\n      0x00\n        /* \"#utility.yul\":16826:16841   */\n      revert\n        /* \"#utility.yul\":16853:17033   */\n    tag_117:\n        /* \"#utility.yul\":16901:16978   */\n      0x4e487b7100000000000000000000000000000000000000000000000000000000\n        /* \"#utility.yul\":16898:16899   */\n      0x00\n        /* \"#utility.yul\":16891:16979   */\n      mstore\n        /* \"#utility.yul\":16998:17002   */\n      0x41\n        /* \"#utility.yul\":16995:16996   */\n      0x04\n        /* \"#utility.yul\":16988:17003   */\n      mstore\n        /* \"#utility.yul\":17022:17026   */\n      0x24\n        /* \"#utility.yul\":17019:17020   */\n      0x00\n        /* \"#utility.yul\":17012:17027   */\n      revert\n        /* \"#utility.yul\":17162:17279   */\n    tag_225:\n        /* \"#utility.yul\":17271:17272   */\n      0x00\n        /* \"#utility.yul\":17268:17269   */\n      dup1\n        /* \"#utility.yul\":17261:17273   */\n      revert\n        /* \"#utility.yul\":17285:17387   */\n    tag_297:\n        /* \"#utility.yul\":17326:17332   */\n      0x00\n        /* \"#utility.yul\":17377:17379   */\n      0x1f\n        /* \"#utility.yul\":17373:17380   */\n      not\n        /* \"#utility.yul\":17368:17370   */\n      0x1f\n        /* \"#utility.yul\":17361:17366   */\n      dup4\n        /* \"#utility.yul\":17357:17371   */\n      add\n        /* \"#utility.yul\":17353:17381   */\n      and\n        /* \"#utility.yul\":17343:17381   */\n      swap1\n      pop\n        /* \"#utility.yul\":17285:17387   */\n      swap2\n      swap1\n      pop\n      jump\t// out\n        /* \"#utility.yul\":17393:17622   */\n    tag_309:\n        /* \"#utility.yul\":17533:17567   */\n      0x506c656173652070726f7669646520612076616c696420706f6c6c696e672073\n        /* \"#utility.yul\":17529:17530   */\n      0x00\n        /* \"#utility.yul\":17521:17527   */\n      dup3\n        /* \"#utility.yul\":17517:17531   */\n      add\n        /* \"#utility.yul\":17510:17568   */\n      mstore\n        /* \"#utility.yul\":17602:17614   */\n      0x746174696f6e2049442e00000000000000000000000000000000000000000000\n        /* \"#utility.yul\":17597:17599   */\n      0x20\n        /* \"#utility.yul\":17589:17595   */\n      dup3\n        /* \"#utility.yul\":17585:17600   */\n      add\n        /* \"#utility.yul\":17578:17615   */\n      mstore\n        /* \"#utility.yul\":17393:17622   */\n      pop\n      jump\t// out\n        /* \"#utility.yul\":17628:17806   */\n    tag_314:\n        /* \"#utility.yul\":17768:17798   */\n      0x566f74657220697320616c726561647920726567697374657265642e00000000\n        /* \"#utility.yul\":17764:17765   */\n      0x00\n        /* \"#utility.yul\":17756:17762   */\n      dup3\n        /* \"#utility.yul\":17752:17766   */\n      add\n        /* \"#utility.yul\":17745:17799   */\n      mstore\n        /* \"#utility.yul\":17628:17806   */\n      pop\n      jump\t// out\n        /* \"#utility.yul\":17812:17925   */\n    tag_379:\n        /* \"#utility.yul\":17893:17894   */\n      0x03\n        /* \"#utility.yul\":17886:17891   */\n      dup2\n        /* \"#utility.yul\":17883:17895   */\n      lt\n        /* \"#utility.yul\":17873:17919   */\n      tag_411\n      jumpi\n        /* \"#utility.yul\":17899:17917   */\n      tag_412\n      tag_94\n      jump\t// in\n    tag_412:\n        /* \"#utility.yul\":17873:17919   */\n    tag_411:\n        /* \"#utility.yul\":17812:17925   */\n      pop\n      jump\t// out\n        /* \"#utility.yul\":17931:18053   */\n    tag_217:\n        /* \"#utility.yul\":18004:18028   */\n      tag_414\n        /* \"#utility.yul\":18022:18027   */\n      dup2\n        /* \"#utility.yul\":18004:18028   */\n      tag_252\n      jump\t// in\n    tag_414:\n        /* \"#utility.yul\":17997:18002   */\n      dup2\n        /* \"#utility.yul\":17994:18029   */\n      eq\n        /* \"#utility.yul\":17984:18047   */\n      tag_415\n      jumpi\n        /* \"#utility.yul\":18043:18044   */\n      0x00\n        /* \"#utility.yul\":18040:18041   */\n      dup1\n        /* \"#utility.yul\":18033:18045   */\n      revert\n        /* \"#utility.yul\":17984:18047   */\n    tag_415:\n        /* \"#utility.yul\":17931:18053   */\n      pop\n      jump\t// out\n        /* \"#utility.yul\":18059:18181   */\n    tag_221:\n        /* \"#utility.yul\":18132:18156   */\n      tag_417\n        /* \"#utility.yul\":18150:18155   */\n      dup2\n        /* \"#utility.yul\":18132:18156   */\n      tag_322\n      jump\t// in\n    tag_417:\n        /* \"#utility.yul\":18125:18130   */\n      dup2\n        /* \"#utility.yul\":18122:18157   */\n      eq\n        /* \"#utility.yul\":18112:18175   */\n      tag_418\n      jumpi\n        /* \"#utility.yul\":18171:18172   */\n      0x00\n        /* \"#utility.yul\":18168:18169   */\n      dup1\n        /* \"#utility.yul\":18161:18173   */\n      revert\n        /* \"#utility.yul\":18112:18175   */\n    tag_418:\n        /* \"#utility.yul\":18059:18181   */\n      pop\n      jump\t// out\n\n    auxdata: 0xa2646970667358221220b86f4d0bb536ddb1083e02e652bba42ecd62713a36920ee125994c2a4e6fae0764736f6c63430008070033\n}\n",
				"bytecode": {
					"linkReferences": {},
					"object": "60806040523480156200001157600080fd5b50336000806101000a81548173ffffffffffffffffffffffffffffffffffffffff021916908373ffffffffffffffffffffffffffffffffffffffff16021790555062000062620000a660201b60201c565b620000726200020660201b60201c565b6000600c60006101000a81548160ff021916908360028111156200009b576200009a6200074e565b5b0217905550620007ac565b620000ec6040518060400160405280600b81526020017f43616e6469646174652031000000000000000000000000000000000000000000815250620004c460201b60201c565b620001326040518060400160405280600b81526020017f43616e6469646174652032000000000000000000000000000000000000000000815250620004c460201b60201c565b620001786040518060400160405280600b81526020017f43616e6469646174652033000000000000000000000000000000000000000000815250620004c460201b60201c565b620001be6040518060400160405280600b81526020017f43616e6469646174652034000000000000000000000000000000000000000000815250620004c460201b60201c565b620002046040518060400160405280600b81526020017f43616e6469646174652035000000000000000000000000000000000000000000815250620004c460201b60201c565b565b6200024c6040518060400160405280601181526020017f506f6c6c696e672053746174696f6e20310000000000000000000000000000008152506200054a60201b60201c565b620002926040518060400160405280601181526020017f506f6c6c696e672053746174696f6e20320000000000000000000000000000008152506200054a60201b60201c565b620002d86040518060400160405280601181526020017f506f6c6c696e672053746174696f6e20330000000000000000000000000000008152506200054a60201b60201c565b6200031e6040518060400160405280601181526020017f506f6c6c696e672053746174696f6e20340000000000000000000000000000008152506200054a60201b60201c565b620003646040518060400160405280601181526020017f506f6c6c696e672053746174696f6e20350000000000000000000000000000008152506200054a60201b60201c565b620003aa6040518060400160405280601181526020017f506f6c6c696e672053746174696f6e20360000000000000000000000000000008152506200054a60201b60201c565b620003f06040518060400160405280601181526020017f506f6c6c696e672053746174696f6e20370000000000000000000000000000008152506200054a60201b60201c565b620004366040518060400160405280601181526020017f506f6c6c696e672053746174696f6e20380000000000000000000000000000008152506200054a60201b60201c565b6200047c6040518060400160405280601181526020017f506f6c6c696e672053746174696f6e20390000000000000000000000000000008152506200054a60201b60201c565b620004c26040518060400160405280601281526020017f506f6c6c696e672053746174696f6e20313000000000000000000000000000008152506200054a60201b60201c565b565b60016000815480929190620004d990620006d1565b919050555060405180606001604052806001548152602001828152602001600081525060076000600154815260200190815260200160002060008201518160000155602082015181600101908051906020019062000539929190620005e1565b506040820151816002015590505050565b600260008154809291906200055f90620006d1565b919050555060405180608001604052806002548152602001828152602001600081526020016000815250600860006002548152602001908152602001600020600082015181600001556020820151816001019080519060200190620005c6929190620005e1565b50604082015181600201556060820151816003015590505050565b828054620005ef906200069b565b90600052602060002090601f0160209004810192826200061357600085556200065f565b82601f106200062e57805160ff19168380011785556200065f565b828001600101855582156200065f579182015b828111156200065e57825182559160200191906001019062000641565b5b5090506200066e919062000672565b5090565b5b808211156200068d57600081600090555060010162000673565b5090565b6000819050919050565b60006002820490506001821680620006b457607f821691505b60208210811415620006cb57620006ca6200077d565b5b50919050565b6000620006de8262000691565b91507fffffffffffffffffffffffffffffffffffffffffffffffffffffffffffffffff8214156200071457620007136200071f565b5b600182019050919050565b7f4e487b7100000000000000000000000000000000000000000000000000000000600052601160045260246000fd5b7f4e487b7100000000000000000000000000000000000000000000000000000000600052602160045260246000fd5b7f4e487b7100000000000000000000000000000000000000000000000000000000600052602260045260246000fd5b611a5880620007bc6000396000f3fe608060405234801561001057600080fd5b506004361061010a5760003560e01c8063a3ec138d116100a2578063c19d93fb11610071578063c19d93fb146102af578063d70c6f4e146102cd578063df9f1a07146102ff578063f3a8286f1461031d578063fe2442d71461033b5761010a565b8063a3ec138d14610227578063b54b5d6214610257578063b922394614610289578063b9f05f2f146102935761010a565b80634717f97c116100de5780634717f97c146101ad5780634763d4e7146101cb5780634c0a6af0146101ff57806353357ad0146102095761010a565b8062aa74641461010f5780632c0a3f891461012d5780632d35a8a21461015d5780633477ee2e1461017b575b600080fd5b61011761036e565b6040516101249190611608565b60405180910390f35b61014760048036038101906101429190611226565b610374565b6040516101549190611508565b60405180910390f35b61016561069f565b6040516101729190611608565b60405180910390f35b610195600480360381019061019091906111f9565b6106a5565b6040516101a493929190611623565b60405180910390f35b6101b5610757565b6040516101c291906114e6565b60405180910390f35b6101e560048036038101906101e0919061118c565b610969565b6040516101f6959493929190611523565b60405180910390f35b6102076109b9565b005b610211610a80565b60405161021e91906114cb565b60405180910390f35b610241600480360381019061023c919061118c565b610aa4565b60405161024e9190611508565b60405180910390f35b610271600480360381019061026c9190611226565b610ac4565b60405161028093929190611623565b60405180910390f35b610291610b83565b005b6102ad60048036038101906102a891906111b9565b610c53565b005b6102b7610ee6565b6040516102c491906115ad565b60405180910390f35b6102e760048036038101906102e29190611226565b610ef9565b6040516102f693929190611623565b60405180910390f35b610307610fd4565b6040516103149190611608565b60405180910390f35b610325610fda565b6040516103329190611608565b60405180910390f35b610355600480360381019061035091906111f9565b610fe0565b6040516103659493929190611661565b60405180910390f35b60035481565b6000600180600281111561038b5761038a611896565b5b600c60009054906101000a900460ff1660028111156103ad576103ac611896565b5b146103b757600080fd5b6000600960003373ffffffffffffffffffffffffffffffffffffffff1673ffffffffffffffffffffffffffffffffffffffff16815260200190815260200160002060000160009054906101000a900460ff1680156104625750600960003373ffffffffffffffffffffffffffffffffffffffff1673ffffffffffffffffffffffffffffffffffffffff16815260200190815260200160002060000160019054906101000a900460ff16155b156106945784600960003373ffffffffffffffffffffffffffffffffffffffff1673ffffffffffffffffffffffffffffffffffffffff1681526020019081526020016000206001018190555083600960003373ffffffffffffffffffffffffffffffffffffffff1673ffffffffffffffffffffffffffffffffffffffff168152602001908152602001600020600301819055506001600960003373ffffffffffffffffffffffffffffffffffffffff1673ffffffffffffffffffffffffffffffffffffffff16815260200190815260200160002060000160016101000a81548160ff0219169083151502179055506008600085815260200190815260200160002060030160008154809291906105779061181e565b91905055506007600086815260200190815260200160002060020160008154809291906105a39061181e565b9190505550600460008154809291906105bb9061181e565b91905055506001905080600a60003373ffffffffffffffffffffffffffffffffffffffff1673ffffffffffffffffffffffffffffffffffffffff16815260200190815260200160002060006101000a81548160ff021916908315150217905550600b6000858152602001908152602001600020600086815260200190815260200160002060020160008154809291906106539061181e565b91905055507f29a25b3d0b6ff7e5de2a60a2e8e76d1bdaf4894ec18c598cc1687213f442c5cb81868660405161068b93929190611576565b60405180910390a15b809250505092915050565b60015481565b60076020528060005260406000206000915090508060000154908060010180546106ce906117ec565b80601f01602080910402602001604051908101604052809291908181526020018280546106fa906117ec565b80156107475780601f1061071c57610100808354040283529160200191610747565b820191906000526020600020905b81548152906001019060200180831161072a57829003601f168201915b5050505050908060020154905083565b6060600060025467ffffffffffffffff81111561077757610776611923565b5b6040519080825280602002602001820160405280156107aa57816020015b60608152602001906001900390816107955790505b5090506000600190505b600254811161096157600060015467ffffffffffffffff8111156107db576107da611923565b5b60405190808252806020026020018201604052801561081457816020015b61080161110e565b8152602001906001900390816107f95790505b5090506000600190505b600154811161092d57600b6000848152602001908152602001600020600082815260200190815260200160002060405180606001604052908160008201548152602001600182018054610870906117ec565b80601f016020809104026020016040519081016040528092919081815260200182805461089c906117ec565b80156108e95780601f106108be576101008083540402835291602001916108e9565b820191906000526020600020905b8154815290600101906020018083116108cc57829003601f168201915b5050505050815260200160028201548152505082828151811061090f5761090e6118f4565b5b602002602001018190525080806109259061181e565b91505061081e565b5080838381518110610942576109416118f4565b5b60200260200101819052505080806109599061181e565b9150506107b4565b508091505090565b60096020528060005260406000206000915090508060000160009054906101000a900460ff16908060000160019054906101000a900460ff16908060010154908060020154908060030154905085565b60008060028111156109ce576109cd611896565b5b600c60009054906101000a900460ff1660028111156109f0576109ef611896565b5b146109fa57600080fd5b60008054906101000a900473ffffffffffffffffffffffffffffffffffffffff1673ffffffffffffffffffffffffffffffffffffffff163373ffffffffffffffffffffffffffffffffffffffff1614610a5257600080fd5b6001600c60006101000a81548160ff02191690836002811115610a7857610a77611896565b5b021790555050565b60008054906101000a900473ffffffffffffffffffffffffffffffffffffffff1681565b600a6020528060005260406000206000915054906101000a900460ff1681565b600b60205281600052604060002060205280600052604060002060009150915050806000015490806001018054610afa906117ec565b80601f0160208091040260200160405190810160405280929190818152602001828054610b26906117ec565b8015610b735780601f10610b4857610100808354040283529160200191610b73565b820191906000526020600020905b815481529060010190602001808311610b5657829003601f168201915b5050505050908060020154905083565b6001806002811115610b9857610b97611896565b5b600c60009054906101000a900460ff166002811115610bba57610bb9611896565b5b14610bc457600080fd5b60008054906101000a900473ffffffffffffffffffffffffffffffffffffffff1673ffffffffffffffffffffffffffffffffffffffff163373ffffffffffffffffffffffffffffffffffffffff1614610c1c57600080fd5b6002600c60006101000a81548160ff02191690836002811115610c4257610c41611896565b5b021790555060045460058190555050565b6000806002811115610c6857610c67611896565b5b600c60009054906101000a900460ff166002811115610c8a57610c89611896565b5b14610c9457600080fd5b60008054906101000a900473ffffffffffffffffffffffffffffffffffffffff1673ffffffffffffffffffffffffffffffffffffffff163373ffffffffffffffffffffffffffffffffffffffff1614610cec57600080fd5b60001515600960008573ffffffffffffffffffffffffffffffffffffffff1673ffffffffffffffffffffffffffffffffffffffff16815260200190815260200160002060000160009054906101000a900460ff16151514610d82576040517f08c379a0000000000000000000000000000000000000000000000000000000008152600401610d79906115e8565b60405180910390fd5b60018210158015610d9557506002548211155b610dd4576040517f08c379a0000000000000000000000000000000000000000000000000000000008152600401610dcb906115c8565b60405180910390fd5b610ddc61112f565b60018160000190151590811515815250506000816020019015159081151581525050600081604001818152505082816060018181525050600081608001818152505080600960008673ffffffffffffffffffffffffffffffffffffffff1673ffffffffffffffffffffffffffffffffffffffff16815260200190815260200160002060008201518160000160006101000a81548160ff02191690831515021790555060208201518160000160016101000a81548160ff021916908315150217905550604082015181600101556060820151816002015560808201518160030155905050610ec883611098565b60036000815480929190610edb9061181e565b919050555050505050565b600c60009054906101000a900460ff1681565b60068281548110610f0957600080fd5b906000526020600020018181548110610f2157600080fd5b906000526020600020906003020160009150915050806000015490806001018054610f4b906117ec565b80601f0160208091040260200160405190810160405280929190818152602001828054610f77906117ec565b8015610fc45780601f10610f9957610100808354040283529160200191610fc4565b820191906000526020600020905b815481529060010190602001808311610fa757829003601f168201915b5050505050908060020154905083565b60025481565b60055481565b6008602052806000526040600020600091509050806000015490806001018054611009906117ec565b80601f0160208091040260200160405190810160405280929190818152602001828054611035906117ec565b80156110825780601f1061105757610100808354040283529160200191611082565b820191906000526020600020905b81548152906001019060200180831161106557829003601f168201915b5050505050908060020154908060030154905084565b6000600190505b600254811161110a5781600860008381526020019081526020016000206000015414156110f7576008600082815260200190815260200160002060020160008154809291906110ed9061181e565b919050555061110a565b80806111029061181e565b91505061109f565b5050565b60405180606001604052806000815260200160608152602001600081525090565b6040518060a001604052806000151581526020016000151581526020016000815260200160008152602001600081525090565b600081359050611171816119f4565b92915050565b60008135905061118681611a0b565b92915050565b6000602082840312156111a2576111a1611952565b5b60006111b084828501611162565b91505092915050565b600080604083850312156111d0576111cf611952565b5b60006111de85828601611162565b92505060206111ef85828601611177565b9150509250929050565b60006020828403121561120f5761120e611952565b5b600061121d84828501611177565b91505092915050565b6000806040838503121561123d5761123c611952565b5b600061124b85828601611177565b925050602061125c85828601611177565b9150509250929050565b60006112728383611312565b905092915050565b6000611286838361145d565b905092915050565b6112978161174c565b82525050565b60006112a8826116cd565b6112b28185611708565b9350836020820285016112c4856116ad565b8060005b8581101561130057848403895281516112e18582611266565b94506112ec836116ee565b925060208a019950506001810190506112c8565b50829750879550505050505092915050565b600061131d826116d8565b6113278185611719565b935083602082028501611339856116bd565b8060005b858110156113755784840389528151611356858261127a565b9450611361836116fb565b925060208a0199505060018101905061133d565b50829750879550505050505092915050565b6113908161175e565b82525050565b61139f816117a7565b82525050565b60006113b0826116e3565b6113ba818561172a565b93506113ca8185602086016117b9565b6113d381611957565b840191505092915050565b60006113e9826116e3565b6113f3818561173b565b93506114038185602086016117b9565b61140c81611957565b840191505092915050565b6000611424602a8361173b565b915061142f82611968565b604082019050919050565b6000611447601c8361173b565b9150611452826119b7565b602082019050919050565b600060608301600083015161147560008601826114ad565b506020830151848203602086015261148d82826113a5565b91505060408301516114a260408601826114ad565b508091505092915050565b6114b68161179d565b82525050565b6114c58161179d565b82525050565b60006020820190506114e0600083018461128e565b92915050565b60006020820190508181036000830152611500818461129d565b905092915050565b600060208201905061151d6000830184611387565b92915050565b600060a0820190506115386000830188611387565b6115456020830187611387565b61155260408301866114bc565b61155f60608301856114bc565b61156c60808301846114bc565b9695505050505050565b600060608201905061158b6000830186611387565b61159860208301856114bc565b6115a560408301846114bc565b949350505050565b60006020820190506115c26000830184611396565b92915050565b600060208201905081810360008301526115e181611417565b9050919050565b600060208201905081810360008301526116018161143a565b9050919050565b600060208201905061161d60008301846114bc565b92915050565b600060608201905061163860008301866114bc565b818103602083015261164a81856113de565b905061165960408301846114bc565b949350505050565b600060808201905061167660008301876114bc565b818103602083015261168881866113de565b905061169760408301856114bc565b6116a460608301846114bc565b95945050505050565b6000819050602082019050919050565b6000819050602082019050919050565b600081519050919050565b600081519050919050565b600081519050919050565b6000602082019050919050565b6000602082019050919050565b600082825260208201905092915050565b600082825260208201905092915050565b600082825260208201905092915050565b600082825260208201905092915050565b60006117578261177d565b9050919050565b60008115159050919050565b6000819050611778826119e0565b919050565b600073ffffffffffffffffffffffffffffffffffffffff82169050919050565b6000819050919050565b60006117b28261176a565b9050919050565b60005b838110156117d75780820151818401526020810190506117bc565b838111156117e6576000848401525b50505050565b6000600282049050600182168061180457607f821691505b60208210811415611818576118176118c5565b5b50919050565b60006118298261179d565b91507fffffffffffffffffffffffffffffffffffffffffffffffffffffffffffffffff82141561185c5761185b611867565b5b600182019050919050565b7f4e487b7100000000000000000000000000000000000000000000000000000000600052601160045260246000fd5b7f4e487b7100000000000000000000000000000000000000000000000000000000600052602160045260246000fd5b7f4e487b7100000000000000000000000000000000000000000000000000000000600052602260045260246000fd5b7f4e487b7100000000000000000000000000000000000000000000000000000000600052603260045260246000fd5b7f4e487b7100000000000000000000000000000000000000000000000000000000600052604160045260246000fd5b600080fd5b6000601f19601f8301169050919050565b7f506c656173652070726f7669646520612076616c696420706f6c6c696e67207360008201527f746174696f6e2049442e00000000000000000000000000000000000000000000602082015250565b7f566f74657220697320616c726561647920726567697374657265642e00000000600082015250565b600381106119f1576119f0611896565b5b50565b6119fd8161174c565b8114611a0857600080fd5b50565b611a148161179d565b8114611a1f57600080fd5b5056fea2646970667358221220b86f4d0bb536ddb1083e02e652bba42ecd62713a36920ee125994c2a4e6fae0764736f6c63430008070033",
					"opcodes": "PUSH1 0x80 PUSH1 0x40 MSTORE CALLVALUE DUP1 ISZERO PUSH3 0x11 JUMPI PUSH1 0x0 DUP1 REVERT JUMPDEST POP CALLER PUSH1 0x0 DUP1 PUSH2 0x100 EXP DUP2 SLOAD DUP2 PUSH20 0xFFFFFFFFFFFFFFFFFFFFFFFFFFFFFFFFFFFFFFFF MUL NOT AND SWAP1 DUP4 PUSH20 0xFFFFFFFFFFFFFFFFFFFFFFFFFFFFFFFFFFFFFFFF AND MUL OR SWAP1 SSTORE POP PUSH3 0x62 PUSH3 0xA6 PUSH1 0x20 SHL PUSH1 0x20 SHR JUMP JUMPDEST PUSH3 0x72 PUSH3 0x206 PUSH1 0x20 SHL PUSH1 0x20 SHR JUMP JUMPDEST PUSH1 0x0 PUSH1 0xC PUSH1 0x0 PUSH2 0x100 EXP DUP2 SLOAD DUP2 PUSH1 0xFF MUL NOT AND SWAP1 DUP4 PUSH1 0x2 DUP2 GT ISZERO PUSH3 0x9B JUMPI PUSH3 0x9A PUSH3 0x74E JUMP JUMPDEST JUMPDEST MUL OR SWAP1 SSTORE POP PUSH3 0x7AC JUMP JUMPDEST PUSH3 0xEC PUSH1 0x40 MLOAD DUP1 PUSH1 0x40 ADD PUSH1 0x40 MSTORE DUP1 PUSH1 0xB DUP2 MSTORE PUSH1 0x20 ADD PUSH32 0x43616E6469646174652031000000000000000000000000000000000000000000 DUP2 MSTORE POP PUSH3 0x4C4 PUSH1 0x20 SHL PUSH1 0x20 SHR JUMP JUMPDEST PUSH3 0x132 PUSH1 0x40 MLOAD DUP1 PUSH1 0x40 ADD PUSH1 0x40 MSTORE DUP1 PUSH1 0xB DUP2 MSTORE PUSH1 0x20 ADD PUSH32 0x43616E6469646174652032000000000000000000000000000000000000000000 DUP2 MSTORE POP PUSH3 0x4C4 PUSH1 0x20 SHL PUSH1 0x20 SHR JUMP JUMPDEST PUSH3 0x178 PUSH1 0x40 MLOAD DUP1 PUSH1 0x40 ADD PUSH1 0x40 MSTORE DUP1 PUSH1 0xB DUP2 MSTORE PUSH1 0x20 ADD PUSH32 0x43616E6469646174652033000000000000000000000000000000000000000000 DUP2 MSTORE POP PUSH3 0x4C4 PUSH1 0x20 SHL PUSH1 0x20 SHR JUMP JUMPDEST PUSH3 0x1BE PUSH1 0x40 MLOAD DUP1 PUSH1 0x40 ADD PUSH1 0x40 MSTORE DUP1 PUSH1 0xB DUP2 MSTORE PUSH1 0x20 ADD PUSH32 0x43616E6469646174652034000000000000000000000000000000000000000000 DUP2 MSTORE POP PUSH3 0x4C4 PUSH1 0x20 SHL PUSH1 0x20 SHR JUMP JUMPDEST PUSH3 0x204 PUSH1 0x40 MLOAD DUP1 PUSH1 0x40 ADD PUSH1 0x40 MSTORE DUP1 PUSH1 0xB DUP2 MSTORE PUSH1 0x20 ADD PUSH32 0x43616E6469646174652035000000000000000000000000000000000000000000 DUP2 MSTORE POP PUSH3 0x4C4 PUSH1 0x20 SHL PUSH1 0x20 SHR JUMP JUMPDEST JUMP JUMPDEST PUSH3 0x24C PUSH1 0x40 MLOAD DUP1 PUSH1 0x40 ADD PUSH1 0x40 MSTORE DUP1 PUSH1 0x11 DUP2 MSTORE PUSH1 0x20 ADD PUSH32 0x506F6C6C696E672053746174696F6E2031000000000000000000000000000000 DUP2 MSTORE POP PUSH3 0x54A PUSH1 0x20 SHL PUSH1 0x20 SHR JUMP JUMPDEST PUSH3 0x292 PUSH1 0x40 MLOAD DUP1 PUSH1 0x40 ADD PUSH1 0x40 MSTORE DUP1 PUSH1 0x11 DUP2 MSTORE PUSH1 0x20 ADD PUSH32 0x506F6C6C696E672053746174696F6E2032000000000000000000000000000000 DUP2 MSTORE POP PUSH3 0x54A PUSH1 0x20 SHL PUSH1 0x20 SHR JUMP JUMPDEST PUSH3 0x2D8 PUSH1 0x40 MLOAD DUP1 PUSH1 0x40 ADD PUSH1 0x40 MSTORE DUP1 PUSH1 0x11 DUP2 MSTORE PUSH1 0x20 ADD PUSH32 0x506F6C6C696E672053746174696F6E2033000000000000000000000000000000 DUP2 MSTORE POP PUSH3 0x54A PUSH1 0x20 SHL PUSH1 0x20 SHR JUMP JUMPDEST PUSH3 0x31E PUSH1 0x40 MLOAD DUP1 PUSH1 0x40 ADD PUSH1 0x40 MSTORE DUP1 PUSH1 0x11 DUP2 MSTORE PUSH1 0x20 ADD PUSH32 0x506F6C6C696E672053746174696F6E2034000000000000000000000000000000 DUP2 MSTORE POP PUSH3 0x54A PUSH1 0x20 SHL PUSH1 0x20 SHR JUMP JUMPDEST PUSH3 0x364 PUSH1 0x40 MLOAD DUP1 PUSH1 0x40 ADD PUSH1 0x40 MSTORE DUP1 PUSH1 0x11 DUP2 MSTORE PUSH1 0x20 ADD PUSH32 0x506F6C6C696E672053746174696F6E2035000000000000000000000000000000 DUP2 MSTORE POP PUSH3 0x54A PUSH1 0x20 SHL PUSH1 0x20 SHR JUMP JUMPDEST PUSH3 0x3AA PUSH1 0x40 MLOAD DUP1 PUSH1 0x40 ADD PUSH1 0x40 MSTORE DUP1 PUSH1 0x11 DUP2 MSTORE PUSH1 0x20 ADD PUSH32 0x506F6C6C696E672053746174696F6E2036000000000000000000000000000000 DUP2 MSTORE POP PUSH3 0x54A PUSH1 0x20 SHL PUSH1 0x20 SHR JUMP JUMPDEST PUSH3 0x3F0 PUSH1 0x40 MLOAD DUP1 PUSH1 0x40 ADD PUSH1 0x40 MSTORE DUP1 PUSH1 0x11 DUP2 MSTORE PUSH1 0x20 ADD PUSH32 0x506F6C6C696E672053746174696F6E2037000000000000000000000000000000 DUP2 MSTORE POP PUSH3 0x54A PUSH1 0x20 SHL PUSH1 0x20 SHR JUMP JUMPDEST PUSH3 0x436 PUSH1 0x40 MLOAD DUP1 PUSH1 0x40 ADD PUSH1 0x40 MSTORE DUP1 PUSH1 0x11 DUP2 MSTORE PUSH1 0x20 ADD PUSH32 0x506F6C6C696E672053746174696F6E2038000000000000000000000000000000 DUP2 MSTORE POP PUSH3 0x54A PUSH1 0x20 SHL PUSH1 0x20 SHR JUMP JUMPDEST PUSH3 0x47C PUSH1 0x40 MLOAD DUP1 PUSH1 0x40 ADD PUSH1 0x40 MSTORE DUP1 PUSH1 0x11 DUP2 MSTORE PUSH1 0x20 ADD PUSH32 0x506F6C6C696E672053746174696F6E2039000000000000000000000000000000 DUP2 MSTORE POP PUSH3 0x54A PUSH1 0x20 SHL PUSH1 0x20 SHR JUMP JUMPDEST PUSH3 0x4C2 PUSH1 0x40 MLOAD DUP1 PUSH1 0x40 ADD PUSH1 0x40 MSTORE DUP1 PUSH1 0x12 DUP2 MSTORE PUSH1 0x20 ADD PUSH32 0x506F6C6C696E672053746174696F6E2031300000000000000000000000000000 DUP2 MSTORE POP PUSH3 0x54A PUSH1 0x20 SHL PUSH1 0x20 SHR JUMP JUMPDEST JUMP JUMPDEST PUSH1 0x1 PUSH1 0x0 DUP2 SLOAD DUP1 SWAP3 SWAP2 SWAP1 PUSH3 0x4D9 SWAP1 PUSH3 0x6D1 JUMP JUMPDEST SWAP2 SWAP1 POP SSTORE POP PUSH1 0x40 MLOAD DUP1 PUSH1 0x60 ADD PUSH1 0x40 MSTORE DUP1 PUSH1 0x1 SLOAD DUP2 MSTORE PUSH1 0x20 ADD DUP3 DUP2 MSTORE PUSH1 0x20 ADD PUSH1 0x0 DUP2 MSTORE POP PUSH1 0x7 PUSH1 0x0 PUSH1 0x1 SLOAD DUP2 MSTORE PUSH1 0x20 ADD SWAP1 DUP2 MSTORE PUSH1 0x20 ADD PUSH1 0x0 KECCAK256 PUSH1 0x0 DUP3 ADD MLOAD DUP2 PUSH1 0x0 ADD SSTORE PUSH1 0x20 DUP3 ADD MLOAD DUP2 PUSH1 0x1 ADD SWAP1 DUP1 MLOAD SWAP1 PUSH1 0x20 ADD SWAP1 PUSH3 0x539 SWAP3 SWAP2 SWAP1 PUSH3 0x5E1 JUMP JUMPDEST POP PUSH1 0x40 DUP3 ADD MLOAD DUP2 PUSH1 0x2 ADD SSTORE SWAP1 POP POP POP JUMP JUMPDEST PUSH1 0x2 PUSH1 0x0 DUP2 SLOAD DUP1 SWAP3 SWAP2 SWAP1 PUSH3 0x55F SWAP1 PUSH3 0x6D1 JUMP JUMPDEST SWAP2 SWAP1 POP SSTORE POP PUSH1 0x40 MLOAD DUP1 PUSH1 0x80 ADD PUSH1 0x40 MSTORE DUP1 PUSH1 0x2 SLOAD DUP2 MSTORE PUSH1 0x20 ADD DUP3 DUP2 MSTORE PUSH1 0x20 ADD PUSH1 0x0 DUP2 MSTORE PUSH1 0x20 ADD PUSH1 0x0 DUP2 MSTORE POP PUSH1 0x8 PUSH1 0x0 PUSH1 0x2 SLOAD DUP2 MSTORE PUSH1 0x20 ADD SWAP1 DUP2 MSTORE PUSH1 0x20 ADD PUSH1 0x0 KECCAK256 PUSH1 0x0 DUP3 ADD MLOAD DUP2 PUSH1 0x0 ADD SSTORE PUSH1 0x20 DUP3 ADD MLOAD DUP2 PUSH1 0x1 ADD SWAP1 DUP1 MLOAD SWAP1 PUSH1 0x20 ADD SWAP1 PUSH3 0x5C6 SWAP3 SWAP2 SWAP1 PUSH3 0x5E1 JUMP JUMPDEST POP PUSH1 0x40 DUP3 ADD MLOAD DUP2 PUSH1 0x2 ADD SSTORE PUSH1 0x60 DUP3 ADD MLOAD DUP2 PUSH1 0x3 ADD SSTORE SWAP1 POP POP POP JUMP JUMPDEST DUP3 DUP1 SLOAD PUSH3 0x5EF SWAP1 PUSH3 0x69B JUMP JUMPDEST SWAP1 PUSH1 0x0 MSTORE PUSH1 0x20 PUSH1 0x0 KECCAK256 SWAP1 PUSH1 0x1F ADD PUSH1 0x20 SWAP1 DIV DUP2 ADD SWAP3 DUP3 PUSH3 0x613 JUMPI PUSH1 0x0 DUP6 SSTORE PUSH3 0x65F JUMP JUMPDEST DUP3 PUSH1 0x1F LT PUSH3 0x62E JUMPI DUP1 MLOAD PUSH1 0xFF NOT AND DUP4 DUP1 ADD OR DUP6 SSTORE PUSH3 0x65F JUMP JUMPDEST DUP3 DUP1 ADD PUSH1 0x1 ADD DUP6 SSTORE DUP3 ISZERO PUSH3 0x65F JUMPI SWAP2 DUP3 ADD JUMPDEST DUP3 DUP2 GT ISZERO PUSH3 0x65E JUMPI DUP3 MLOAD DUP3 SSTORE SWAP2 PUSH1 0x20 ADD SWAP2 SWAP1 PUSH1 0x1 ADD SWAP1 PUSH3 0x641 JUMP JUMPDEST JUMPDEST POP SWAP1 POP PUSH3 0x66E SWAP2 SWAP1 PUSH3 0x672 JUMP JUMPDEST POP SWAP1 JUMP JUMPDEST JUMPDEST DUP1 DUP3 GT ISZERO PUSH3 0x68D JUMPI PUSH1 0x0 DUP2 PUSH1 0x0 SWAP1 SSTORE POP PUSH1 0x1 ADD PUSH3 0x673 JUMP JUMPDEST POP SWAP1 JUMP JUMPDEST PUSH1 0x0 DUP2 SWAP1 POP SWAP2 SWAP1 POP JUMP JUMPDEST PUSH1 0x0 PUSH1 0x2 DUP3 DIV SWAP1 POP PUSH1 0x1 DUP3 AND DUP1 PUSH3 0x6B4 JUMPI PUSH1 0x7F DUP3 AND SWAP2 POP JUMPDEST PUSH1 0x20 DUP3 LT DUP2 EQ ISZERO PUSH3 0x6CB JUMPI PUSH3 0x6CA PUSH3 0x77D JUMP JUMPDEST JUMPDEST POP SWAP2 SWAP1 POP JUMP JUMPDEST PUSH1 0x0 PUSH3 0x6DE DUP3 PUSH3 0x691 JUMP JUMPDEST SWAP2 POP PUSH32 0xFFFFFFFFFFFFFFFFFFFFFFFFFFFFFFFFFFFFFFFFFFFFFFFFFFFFFFFFFFFFFFFF DUP3 EQ ISZERO PUSH3 0x714 JUMPI PUSH3 0x713 PUSH3 0x71F JUMP JUMPDEST JUMPDEST PUSH1 0x1 DUP3 ADD SWAP1 POP SWAP2 SWAP1 POP JUMP JUMPDEST PUSH32 0x4E487B7100000000000000000000000000000000000000000000000000000000 PUSH1 0x0 MSTORE PUSH1 0x11 PUSH1 0x4 MSTORE PUSH1 0x24 PUSH1 0x0 REVERT JUMPDEST PUSH32 0x4E487B7100000000000000000000000000000000000000000000000000000000 PUSH1 0x0 MSTORE PUSH1 0x21 PUSH1 0x4 MSTORE PUSH1 0x24 PUSH1 0x0 REVERT JUMPDEST PUSH32 0x4E487B7100000000000000000000000000000000000000000000000000000000 PUSH1 0x0 MSTORE PUSH1 0x22 PUSH1 0x4 MSTORE PUSH1 0x24 PUSH1 0x0 REVERT JUMPDEST PUSH2 0x1A58 DUP1 PUSH3 0x7BC PUSH1 0x0 CODECOPY PUSH1 0x0 RETURN INVALID PUSH1 0x80 PUSH1 0x40 MSTORE CALLVALUE DUP1 ISZERO PUSH2 0x10 JUMPI PUSH1 0x0 DUP1 REVERT JUMPDEST POP PUSH1 0x4 CALLDATASIZE LT PUSH2 0x10A JUMPI PUSH1 0x0 CALLDATALOAD PUSH1 0xE0 SHR DUP1 PUSH4 0xA3EC138D GT PUSH2 0xA2 JUMPI DUP1 PUSH4 0xC19D93FB GT PUSH2 0x71 JUMPI DUP1 PUSH4 0xC19D93FB EQ PUSH2 0x2AF JUMPI DUP1 PUSH4 0xD70C6F4E EQ PUSH2 0x2CD JUMPI DUP1 PUSH4 0xDF9F1A07 EQ PUSH2 0x2FF JUMPI DUP1 PUSH4 0xF3A8286F EQ PUSH2 0x31D JUMPI DUP1 PUSH4 0xFE2442D7 EQ PUSH2 0x33B JUMPI PUSH2 0x10A JUMP JUMPDEST DUP1 PUSH4 0xA3EC138D EQ PUSH2 0x227 JUMPI DUP1 PUSH4 0xB54B5D62 EQ PUSH2 0x257 JUMPI DUP1 PUSH4 0xB9223946 EQ PUSH2 0x289 JUMPI DUP1 PUSH4 0xB9F05F2F EQ PUSH2 0x293 JUMPI PUSH2 0x10A JUMP JUMPDEST DUP1 PUSH4 0x4717F97C GT PUSH2 0xDE JUMPI DUP1 PUSH4 0x4717F97C EQ PUSH2 0x1AD JUMPI DUP1 PUSH4 0x4763D4E7 EQ PUSH2 0x1CB JUMPI DUP1 PUSH4 0x4C0A6AF0 EQ PUSH2 0x1FF JUMPI DUP1 PUSH4 0x53357AD0 EQ PUSH2 0x209 JUMPI PUSH2 0x10A JUMP JUMPDEST DUP1 PUSH3 0xAA7464 EQ PUSH2 0x10F JUMPI DUP1 PUSH4 0x2C0A3F89 EQ PUSH2 0x12D JUMPI DUP1 PUSH4 0x2D35A8A2 EQ PUSH2 0x15D JUMPI DUP1 PUSH4 0x3477EE2E EQ PUSH2 0x17B JUMPI JUMPDEST PUSH1 0x0 DUP1 REVERT JUMPDEST PUSH2 0x117 PUSH2 0x36E JUMP JUMPDEST PUSH1 0x40 MLOAD PUSH2 0x124 SWAP2 SWAP1 PUSH2 0x1608 JUMP JUMPDEST PUSH1 0x40 MLOAD DUP1 SWAP2 SUB SWAP1 RETURN JUMPDEST PUSH2 0x147 PUSH1 0x4 DUP1 CALLDATASIZE SUB DUP2 ADD SWAP1 PUSH2 0x142 SWAP2 SWAP1 PUSH2 0x1226 JUMP JUMPDEST PUSH2 0x374 JUMP JUMPDEST PUSH1 0x40 MLOAD PUSH2 0x154 SWAP2 SWAP1 PUSH2 0x1508 JUMP JUMPDEST PUSH1 0x40 MLOAD DUP1 SWAP2 SUB SWAP1 RETURN JUMPDEST PUSH2 0x165 PUSH2 0x69F JUMP JUMPDEST PUSH1 0x40 MLOAD PUSH2 0x172 SWAP2 SWAP1 PUSH2 0x1608 JUMP JUMPDEST PUSH1 0x40 MLOAD DUP1 SWAP2 SUB SWAP1 RETURN JUMPDEST PUSH2 0x195 PUSH1 0x4 DUP1 CALLDATASIZE SUB DUP2 ADD SWAP1 PUSH2 0x190 SWAP2 SWAP1 PUSH2 0x11F9 JUMP JUMPDEST PUSH2 0x6A5 JUMP JUMPDEST PUSH1 0x40 MLOAD PUSH2 0x1A4 SWAP4 SWAP3 SWAP2 SWAP1 PUSH2 0x1623 JUMP JUMPDEST PUSH1 0x40 MLOAD DUP1 SWAP2 SUB SWAP1 RETURN JUMPDEST PUSH2 0x1B5 PUSH2 0x757 JUMP JUMPDEST PUSH1 0x40 MLOAD PUSH2 0x1C2 SWAP2 SWAP1 PUSH2 0x14E6 JUMP JUMPDEST PUSH1 0x40 MLOAD DUP1 SWAP2 SUB SWAP1 RETURN JUMPDEST PUSH2 0x1E5 PUSH1 0x4 DUP1 CALLDATASIZE SUB DUP2 ADD SWAP1 PUSH2 0x1E0 SWAP2 SWAP1 PUSH2 0x118C JUMP JUMPDEST PUSH2 0x969 JUMP JUMPDEST PUSH1 0x40 MLOAD PUSH2 0x1F6 SWAP6 SWAP5 SWAP4 SWAP3 SWAP2 SWAP1 PUSH2 0x1523 JUMP JUMPDEST PUSH1 0x40 MLOAD DUP1 SWAP2 SUB SWAP1 RETURN JUMPDEST PUSH2 0x207 PUSH2 0x9B9 JUMP JUMPDEST STOP JUMPDEST PUSH2 0x211 PUSH2 0xA80 JUMP JUMPDEST PUSH1 0x40 MLOAD PUSH2 0x21E SWAP2 SWAP1 PUSH2 0x14CB JUMP JUMPDEST PUSH1 0x40 MLOAD DUP1 SWAP2 SUB SWAP1 RETURN JUMPDEST PUSH2 0x241 PUSH1 0x4 DUP1 CALLDATASIZE SUB DUP2 ADD SWAP1 PUSH2 0x23C SWAP2 SWAP1 PUSH2 0x118C JUMP JUMPDEST PUSH2 0xAA4 JUMP JUMPDEST PUSH1 0x40 MLOAD PUSH2 0x24E SWAP2 SWAP1 PUSH2 0x1508 JUMP JUMPDEST PUSH1 0x40 MLOAD DUP1 SWAP2 SUB SWAP1 RETURN JUMPDEST PUSH2 0x271 PUSH1 0x4 DUP1 CALLDATASIZE SUB DUP2 ADD SWAP1 PUSH2 0x26C SWAP2 SWAP1 PUSH2 0x1226 JUMP JUMPDEST PUSH2 0xAC4 JUMP JUMPDEST PUSH1 0x40 MLOAD PUSH2 0x280 SWAP4 SWAP3 SWAP2 SWAP1 PUSH2 0x1623 JUMP JUMPDEST PUSH1 0x40 MLOAD DUP1 SWAP2 SUB SWAP1 RETURN JUMPDEST PUSH2 0x291 PUSH2 0xB83 JUMP JUMPDEST STOP JUMPDEST PUSH2 0x2AD PUSH1 0x4 DUP1 CALLDATASIZE SUB DUP2 ADD SWAP1 PUSH2 0x2A8 SWAP2 SWAP1 PUSH2 0x11B9 JUMP JUMPDEST PUSH2 0xC53 JUMP JUMPDEST STOP JUMPDEST PUSH2 0x2B7 PUSH2 0xEE6 JUMP JUMPDEST PUSH1 0x40 MLOAD PUSH2 0x2C4 SWAP2 SWAP1 PUSH2 0x15AD JUMP JUMPDEST PUSH1 0x40 MLOAD DUP1 SWAP2 SUB SWAP1 RETURN JUMPDEST PUSH2 0x2E7 PUSH1 0x4 DUP1 CALLDATASIZE SUB DUP2 ADD SWAP1 PUSH2 0x2E2 SWAP2 SWAP1 PUSH2 0x1226 JUMP JUMPDEST PUSH2 0xEF9 JUMP JUMPDEST PUSH1 0x40 MLOAD PUSH2 0x2F6 SWAP4 SWAP3 SWAP2 SWAP1 PUSH2 0x1623 JUMP JUMPDEST PUSH1 0x40 MLOAD DUP1 SWAP2 SUB SWAP1 RETURN JUMPDEST PUSH2 0x307 PUSH2 0xFD4 JUMP JUMPDEST PUSH1 0x40 MLOAD PUSH2 0x314 SWAP2 SWAP1 PUSH2 0x1608 JUMP JUMPDEST PUSH1 0x40 MLOAD DUP1 SWAP2 SUB SWAP1 RETURN JUMPDEST PUSH2 0x325 PUSH2 0xFDA JUMP JUMPDEST PUSH1 0x40 MLOAD PUSH2 0x332 SWAP2 SWAP1 PUSH2 0x1608 JUMP JUMPDEST PUSH1 0x40 MLOAD DUP1 SWAP2 SUB SWAP1 RETURN JUMPDEST PUSH2 0x355 PUSH1 0x4 DUP1 CALLDATASIZE SUB DUP2 ADD SWAP1 PUSH2 0x350 SWAP2 SWAP1 PUSH2 0x11F9 JUMP JUMPDEST PUSH2 0xFE0 JUMP JUMPDEST PUSH1 0x40 MLOAD PUSH2 0x365 SWAP5 SWAP4 SWAP3 SWAP2 SWAP1 PUSH2 0x1661 JUMP JUMPDEST PUSH1 0x40 MLOAD DUP1 SWAP2 SUB SWAP1 RETURN JUMPDEST PUSH1 0x3 SLOAD DUP2 JUMP JUMPDEST PUSH1 0x0 PUSH1 0x1 DUP1 PUSH1 0x2 DUP2 GT ISZERO PUSH2 0x38B JUMPI PUSH2 0x38A PUSH2 0x1896 JUMP JUMPDEST JUMPDEST PUSH1 0xC PUSH1 0x0 SWAP1 SLOAD SWAP1 PUSH2 0x100 EXP SWAP1 DIV PUSH1 0xFF AND PUSH1 0x2 DUP2 GT ISZERO PUSH2 0x3AD JUMPI PUSH2 0x3AC PUSH2 0x1896 JUMP JUMPDEST JUMPDEST EQ PUSH2 0x3B7 JUMPI PUSH1 0x0 DUP1 REVERT JUMPDEST PUSH1 0x0 PUSH1 0x9 PUSH1 0x0 CALLER PUSH20 0xFFFFFFFFFFFFFFFFFFFFFFFFFFFFFFFFFFFFFFFF AND PUSH20 0xFFFFFFFFFFFFFFFFFFFFFFFFFFFFFFFFFFFFFFFF AND DUP2 MSTORE PUSH1 0x20 ADD SWAP1 DUP2 MSTORE PUSH1 0x20 ADD PUSH1 0x0 KECCAK256 PUSH1 0x0 ADD PUSH1 0x0 SWAP1 SLOAD SWAP1 PUSH2 0x100 EXP SWAP1 DIV PUSH1 0xFF AND DUP1 ISZERO PUSH2 0x462 JUMPI POP PUSH1 0x9 PUSH1 0x0 CALLER PUSH20 0xFFFFFFFFFFFFFFFFFFFFFFFFFFFFFFFFFFFFFFFF AND PUSH20 0xFFFFFFFFFFFFFFFFFFFFFFFFFFFFFFFFFFFFFFFF AND DUP2 MSTORE PUSH1 0x20 ADD SWAP1 DUP2 MSTORE PUSH1 0x20 ADD PUSH1 0x0 KECCAK256 PUSH1 0x0 ADD PUSH1 0x1 SWAP1 SLOAD SWAP1 PUSH2 0x100 EXP SWAP1 DIV PUSH1 0xFF AND ISZERO JUMPDEST ISZERO PUSH2 0x694 JUMPI DUP5 PUSH1 0x9 PUSH1 0x0 CALLER PUSH20 0xFFFFFFFFFFFFFFFFFFFFFFFFFFFFFFFFFFFFFFFF AND PUSH20 0xFFFFFFFFFFFFFFFFFFFFFFFFFFFFFFFFFFFFFFFF AND DUP2 MSTORE PUSH1 0x20 ADD SWAP1 DUP2 MSTORE PUSH1 0x20 ADD PUSH1 0x0 KECCAK256 PUSH1 0x1 ADD DUP2 SWAP1 SSTORE POP DUP4 PUSH1 0x9 PUSH1 0x0 CALLER PUSH20 0xFFFFFFFFFFFFFFFFFFFFFFFFFFFFFFFFFFFFFFFF AND PUSH20 0xFFFFFFFFFFFFFFFFFFFFFFFFFFFFFFFFFFFFFFFF AND DUP2 MSTORE PUSH1 0x20 ADD SWAP1 DUP2 MSTORE PUSH1 0x20 ADD PUSH1 0x0 KECCAK256 PUSH1 0x3 ADD DUP2 SWAP1 SSTORE POP PUSH1 0x1 PUSH1 0x9 PUSH1 0x0 CALLER PUSH20 0xFFFFFFFFFFFFFFFFFFFFFFFFFFFFFFFFFFFFFFFF AND PUSH20 0xFFFFFFFFFFFFFFFFFFFFFFFFFFFFFFFFFFFFFFFF AND DUP2 MSTORE PUSH1 0x20 ADD SWAP1 DUP2 MSTORE PUSH1 0x20 ADD PUSH1 0x0 KECCAK256 PUSH1 0x0 ADD PUSH1 0x1 PUSH2 0x100 EXP DUP2 SLOAD DUP2 PUSH1 0xFF MUL NOT AND SWAP1 DUP4 ISZERO ISZERO MUL OR SWAP1 SSTORE POP PUSH1 0x8 PUSH1 0x0 DUP6 DUP2 MSTORE PUSH1 0x20 ADD SWAP1 DUP2 MSTORE PUSH1 0x20 ADD PUSH1 0x0 KECCAK256 PUSH1 0x3 ADD PUSH1 0x0 DUP2 SLOAD DUP1 SWAP3 SWAP2 SWAP1 PUSH2 0x577 SWAP1 PUSH2 0x181E JUMP JUMPDEST SWAP2 SWAP1 POP SSTORE POP PUSH1 0x7 PUSH1 0x0 DUP7 DUP2 MSTORE PUSH1 0x20 ADD SWAP1 DUP2 MSTORE PUSH1 0x20 ADD PUSH1 0x0 KECCAK256 PUSH1 0x2 ADD PUSH1 0x0 DUP2 SLOAD DUP1 SWAP3 SWAP2 SWAP1 PUSH2 0x5A3 SWAP1 PUSH2 0x181E JUMP JUMPDEST SWAP2 SWAP1 POP SSTORE POP PUSH1 0x4 PUSH1 0x0 DUP2 SLOAD DUP1 SWAP3 SWAP2 SWAP1 PUSH2 0x5BB SWAP1 PUSH2 0x181E JUMP JUMPDEST SWAP2 SWAP1 POP SSTORE POP PUSH1 0x1 SWAP1 POP DUP1 PUSH1 0xA PUSH1 0x0 CALLER PUSH20 0xFFFFFFFFFFFFFFFFFFFFFFFFFFFFFFFFFFFFFFFF AND PUSH20 0xFFFFFFFFFFFFFFFFFFFFFFFFFFFFFFFFFFFFFFFF AND DUP2 MSTORE PUSH1 0x20 ADD SWAP1 DUP2 MSTORE PUSH1 0x20 ADD PUSH1 0x0 KECCAK256 PUSH1 0x0 PUSH2 0x100 EXP DUP2 SLOAD DUP2 PUSH1 0xFF MUL NOT AND SWAP1 DUP4 ISZERO ISZERO MUL OR SWAP1 SSTORE POP PUSH1 0xB PUSH1 0x0 DUP6 DUP2 MSTORE PUSH1 0x20 ADD SWAP1 DUP2 MSTORE PUSH1 0x20 ADD PUSH1 0x0 KECCAK256 PUSH1 0x0 DUP7 DUP2 MSTORE PUSH1 0x20 ADD SWAP1 DUP2 MSTORE PUSH1 0x20 ADD PUSH1 0x0 KECCAK256 PUSH1 0x2 ADD PUSH1 0x0 DUP2 SLOAD DUP1 SWAP3 SWAP2 SWAP1 PUSH2 0x653 SWAP1 PUSH2 0x181E JUMP JUMPDEST SWAP2 SWAP1 POP SSTORE POP PUSH32 0x29A25B3D0B6FF7E5DE2A60A2E8E76D1BDAF4894EC18C598CC1687213F442C5CB DUP2 DUP7 DUP7 PUSH1 0x40 MLOAD PUSH2 0x68B SWAP4 SWAP3 SWAP2 SWAP1 PUSH2 0x1576 JUMP JUMPDEST PUSH1 0x40 MLOAD DUP1 SWAP2 SUB SWAP1 LOG1 JUMPDEST DUP1 SWAP3 POP POP POP SWAP3 SWAP2 POP POP JUMP JUMPDEST PUSH1 0x1 SLOAD DUP2 JUMP JUMPDEST PUSH1 0x7 PUSH1 0x20 MSTORE DUP1 PUSH1 0x0 MSTORE PUSH1 0x40 PUSH1 0x0 KECCAK256 PUSH1 0x0 SWAP2 POP SWAP1 POP DUP1 PUSH1 0x0 ADD SLOAD SWAP1 DUP1 PUSH1 0x1 ADD DUP1 SLOAD PUSH2 0x6CE SWAP1 PUSH2 0x17EC JUMP JUMPDEST DUP1 PUSH1 0x1F ADD PUSH1 0x20 DUP1 SWAP2 DIV MUL PUSH1 0x20 ADD PUSH1 0x40 MLOAD SWAP1 DUP2 ADD PUSH1 0x40 MSTORE DUP1 SWAP3 SWAP2 SWAP1 DUP2 DUP2 MSTORE PUSH1 0x20 ADD DUP3 DUP1 SLOAD PUSH2 0x6FA SWAP1 PUSH2 0x17EC JUMP JUMPDEST DUP1 ISZERO PUSH2 0x747 JUMPI DUP1 PUSH1 0x1F LT PUSH2 0x71C JUMPI PUSH2 0x100 DUP1 DUP4 SLOAD DIV MUL DUP4 MSTORE SWAP2 PUSH1 0x20 ADD SWAP2 PUSH2 0x747 JUMP JUMPDEST DUP3 ADD SWAP2 SWAP1 PUSH1 0x0 MSTORE PUSH1 0x20 PUSH1 0x0 KECCAK256 SWAP1 JUMPDEST DUP2 SLOAD DUP2 MSTORE SWAP1 PUSH1 0x1 ADD SWAP1 PUSH1 0x20 ADD DUP1 DUP4 GT PUSH2 0x72A JUMPI DUP3 SWAP1 SUB PUSH1 0x1F AND DUP3 ADD SWAP2 JUMPDEST POP POP POP POP POP SWAP1 DUP1 PUSH1 0x2 ADD SLOAD SWAP1 POP DUP4 JUMP JUMPDEST PUSH1 0x60 PUSH1 0x0 PUSH1 0x2 SLOAD PUSH8 0xFFFFFFFFFFFFFFFF DUP2 GT ISZERO PUSH2 0x777 JUMPI PUSH2 0x776 PUSH2 0x1923 JUMP JUMPDEST JUMPDEST PUSH1 0x40 MLOAD SWAP1 DUP1 DUP3 MSTORE DUP1 PUSH1 0x20 MUL PUSH1 0x20 ADD DUP3 ADD PUSH1 0x40 MSTORE DUP1 ISZERO PUSH2 0x7AA JUMPI DUP2 PUSH1 0x20 ADD JUMPDEST PUSH1 0x60 DUP2 MSTORE PUSH1 0x20 ADD SWAP1 PUSH1 0x1 SWAP1 SUB SWAP1 DUP2 PUSH2 0x795 JUMPI SWAP1 POP JUMPDEST POP SWAP1 POP PUSH1 0x0 PUSH1 0x1 SWAP1 POP JUMPDEST PUSH1 0x2 SLOAD DUP2 GT PUSH2 0x961 JUMPI PUSH1 0x0 PUSH1 0x1 SLOAD PUSH8 0xFFFFFFFFFFFFFFFF DUP2 GT ISZERO PUSH2 0x7DB JUMPI PUSH2 0x7DA PUSH2 0x1923 JUMP JUMPDEST JUMPDEST PUSH1 0x40 MLOAD SWAP1 DUP1 DUP3 MSTORE DUP1 PUSH1 0x20 MUL PUSH1 0x20 ADD DUP3 ADD PUSH1 0x40 MSTORE DUP1 ISZERO PUSH2 0x814 JUMPI DUP2 PUSH1 0x20 ADD JUMPDEST PUSH2 0x801 PUSH2 0x110E JUMP JUMPDEST DUP2 MSTORE PUSH1 0x20 ADD SWAP1 PUSH1 0x1 SWAP1 SUB SWAP1 DUP2 PUSH2 0x7F9 JUMPI SWAP1 POP JUMPDEST POP SWAP1 POP PUSH1 0x0 PUSH1 0x1 SWAP1 POP JUMPDEST PUSH1 0x1 SLOAD DUP2 GT PUSH2 0x92D JUMPI PUSH1 0xB PUSH1 0x0 DUP5 DUP2 MSTORE PUSH1 0x20 ADD SWAP1 DUP2 MSTORE PUSH1 0x20 ADD PUSH1 0x0 KECCAK256 PUSH1 0x0 DUP3 DUP2 MSTORE PUSH1 0x20 ADD SWAP1 DUP2 MSTORE PUSH1 0x20 ADD PUSH1 0x0 KECCAK256 PUSH1 0x40 MLOAD DUP1 PUSH1 0x60 ADD PUSH1 0x40 MSTORE SWAP1 DUP2 PUSH1 0x0 DUP3 ADD SLOAD DUP2 MSTORE PUSH1 0x20 ADD PUSH1 0x1 DUP3 ADD DUP1 SLOAD PUSH2 0x870 SWAP1 PUSH2 0x17EC JUMP JUMPDEST DUP1 PUSH1 0x1F ADD PUSH1 0x20 DUP1 SWAP2 DIV MUL PUSH1 0x20 ADD PUSH1 0x40 MLOAD SWAP1 DUP2 ADD PUSH1 0x40 MSTORE DUP1 SWAP3 SWAP2 SWAP1 DUP2 DUP2 MSTORE PUSH1 0x20 ADD DUP3 DUP1 SLOAD PUSH2 0x89C SWAP1 PUSH2 0x17EC JUMP JUMPDEST DUP1 ISZERO PUSH2 0x8E9 JUMPI DUP1 PUSH1 0x1F LT PUSH2 0x8BE JUMPI PUSH2 0x100 DUP1 DUP4 SLOAD DIV MUL DUP4 MSTORE SWAP2 PUSH1 0x20 ADD SWAP2 PUSH2 0x8E9 JUMP JUMPDEST DUP3 ADD SWAP2 SWAP1 PUSH1 0x0 MSTORE PUSH1 0x20 PUSH1 0x0 KECCAK256 SWAP1 JUMPDEST DUP2 SLOAD DUP2 MSTORE SWAP1 PUSH1 0x1 ADD SWAP1 PUSH1 0x20 ADD DUP1 DUP4 GT PUSH2 0x8CC JUMPI DUP3 SWAP1 SUB PUSH1 0x1F AND DUP3 ADD SWAP2 JUMPDEST POP POP POP POP POP DUP2 MSTORE PUSH1 0x20 ADD PUSH1 0x2 DUP3 ADD SLOAD DUP2 MSTORE POP POP DUP3 DUP3 DUP2 MLOAD DUP2 LT PUSH2 0x90F JUMPI PUSH2 0x90E PUSH2 0x18F4 JUMP JUMPDEST JUMPDEST PUSH1 0x20 MUL PUSH1 0x20 ADD ADD DUP2 SWAP1 MSTORE POP DUP1 DUP1 PUSH2 0x925 SWAP1 PUSH2 0x181E JUMP JUMPDEST SWAP2 POP POP PUSH2 0x81E JUMP JUMPDEST POP DUP1 DUP4 DUP4 DUP2 MLOAD DUP2 LT PUSH2 0x942 JUMPI PUSH2 0x941 PUSH2 0x18F4 JUMP JUMPDEST JUMPDEST PUSH1 0x20 MUL PUSH1 0x20 ADD ADD DUP2 SWAP1 MSTORE POP POP DUP1 DUP1 PUSH2 0x959 SWAP1 PUSH2 0x181E JUMP JUMPDEST SWAP2 POP POP PUSH2 0x7B4 JUMP JUMPDEST POP DUP1 SWAP2 POP POP SWAP1 JUMP JUMPDEST PUSH1 0x9 PUSH1 0x20 MSTORE DUP1 PUSH1 0x0 MSTORE PUSH1 0x40 PUSH1 0x0 KECCAK256 PUSH1 0x0 SWAP2 POP SWAP1 POP DUP1 PUSH1 0x0 ADD PUSH1 0x0 SWAP1 SLOAD SWAP1 PUSH2 0x100 EXP SWAP1 DIV PUSH1 0xFF AND SWAP1 DUP1 PUSH1 0x0 ADD PUSH1 0x1 SWAP1 SLOAD SWAP1 PUSH2 0x100 EXP SWAP1 DIV PUSH1 0xFF AND SWAP1 DUP1 PUSH1 0x1 ADD SLOAD SWAP1 DUP1 PUSH1 0x2 ADD SLOAD SWAP1 DUP1 PUSH1 0x3 ADD SLOAD SWAP1 POP DUP6 JUMP JUMPDEST PUSH1 0x0 DUP1 PUSH1 0x2 DUP2 GT ISZERO PUSH2 0x9CE JUMPI PUSH2 0x9CD PUSH2 0x1896 JUMP JUMPDEST JUMPDEST PUSH1 0xC PUSH1 0x0 SWAP1 SLOAD SWAP1 PUSH2 0x100 EXP SWAP1 DIV PUSH1 0xFF AND PUSH1 0x2 DUP2 GT ISZERO PUSH2 0x9F0 JUMPI PUSH2 0x9EF PUSH2 0x1896 JUMP JUMPDEST JUMPDEST EQ PUSH2 0x9FA JUMPI PUSH1 0x0 DUP1 REVERT JUMPDEST PUSH1 0x0 DUP1 SLOAD SWAP1 PUSH2 0x100 EXP SWAP1 DIV PUSH20 0xFFFFFFFFFFFFFFFFFFFFFFFFFFFFFFFFFFFFFFFF AND PUSH20 0xFFFFFFFFFFFFFFFFFFFFFFFFFFFFFFFFFFFFFFFF AND CALLER PUSH20 0xFFFFFFFFFFFFFFFFFFFFFFFFFFFFFFFFFFFFFFFF AND EQ PUSH2 0xA52 JUMPI PUSH1 0x0 DUP1 REVERT JUMPDEST PUSH1 0x1 PUSH1 0xC PUSH1 0x0 PUSH2 0x100 EXP DUP2 SLOAD DUP2 PUSH1 0xFF MUL NOT AND SWAP1 DUP4 PUSH1 0x2 DUP2 GT ISZERO PUSH2 0xA78 JUMPI PUSH2 0xA77 PUSH2 0x1896 JUMP JUMPDEST JUMPDEST MUL OR SWAP1 SSTORE POP POP JUMP JUMPDEST PUSH1 0x0 DUP1 SLOAD SWAP1 PUSH2 0x100 EXP SWAP1 DIV PUSH20 0xFFFFFFFFFFFFFFFFFFFFFFFFFFFFFFFFFFFFFFFF AND DUP2 JUMP JUMPDEST PUSH1 0xA PUSH1 0x20 MSTORE DUP1 PUSH1 0x0 MSTORE PUSH1 0x40 PUSH1 0x0 KECCAK256 PUSH1 0x0 SWAP2 POP SLOAD SWAP1 PUSH2 0x100 EXP SWAP1 DIV PUSH1 0xFF AND DUP2 JUMP JUMPDEST PUSH1 0xB PUSH1 0x20 MSTORE DUP2 PUSH1 0x0 MSTORE PUSH1 0x40 PUSH1 0x0 KECCAK256 PUSH1 0x20 MSTORE DUP1 PUSH1 0x0 MSTORE PUSH1 0x40 PUSH1 0x0 KECCAK256 PUSH1 0x0 SWAP2 POP SWAP2 POP POP DUP1 PUSH1 0x0 ADD SLOAD SWAP1 DUP1 PUSH1 0x1 ADD DUP1 SLOAD PUSH2 0xAFA SWAP1 PUSH2 0x17EC JUMP JUMPDEST DUP1 PUSH1 0x1F ADD PUSH1 0x20 DUP1 SWAP2 DIV MUL PUSH1 0x20 ADD PUSH1 0x40 MLOAD SWAP1 DUP2 ADD PUSH1 0x40 MSTORE DUP1 SWAP3 SWAP2 SWAP1 DUP2 DUP2 MSTORE PUSH1 0x20 ADD DUP3 DUP1 SLOAD PUSH2 0xB26 SWAP1 PUSH2 0x17EC JUMP JUMPDEST DUP1 ISZERO PUSH2 0xB73 JUMPI DUP1 PUSH1 0x1F LT PUSH2 0xB48 JUMPI PUSH2 0x100 DUP1 DUP4 SLOAD DIV MUL DUP4 MSTORE SWAP2 PUSH1 0x20 ADD SWAP2 PUSH2 0xB73 JUMP JUMPDEST DUP3 ADD SWAP2 SWAP1 PUSH1 0x0 MSTORE PUSH1 0x20 PUSH1 0x0 KECCAK256 SWAP1 JUMPDEST DUP2 SLOAD DUP2 MSTORE SWAP1 PUSH1 0x1 ADD SWAP1 PUSH1 0x20 ADD DUP1 DUP4 GT PUSH2 0xB56 JUMPI DUP3 SWAP1 SUB PUSH1 0x1F AND DUP3 ADD SWAP2 JUMPDEST POP POP POP POP POP SWAP1 DUP1 PUSH1 0x2 ADD SLOAD SWAP1 POP DUP4 JUMP JUMPDEST PUSH1 0x1 DUP1 PUSH1 0x2 DUP2 GT ISZERO PUSH2 0xB98 JUMPI PUSH2 0xB97 PUSH2 0x1896 JUMP JUMPDEST JUMPDEST PUSH1 0xC PUSH1 0x0 SWAP1 SLOAD SWAP1 PUSH2 0x100 EXP SWAP1 DIV PUSH1 0xFF AND PUSH1 0x2 DUP2 GT ISZERO PUSH2 0xBBA JUMPI PUSH2 0xBB9 PUSH2 0x1896 JUMP JUMPDEST JUMPDEST EQ PUSH2 0xBC4 JUMPI PUSH1 0x0 DUP1 REVERT JUMPDEST PUSH1 0x0 DUP1 SLOAD SWAP1 PUSH2 0x100 EXP SWAP1 DIV PUSH20 0xFFFFFFFFFFFFFFFFFFFFFFFFFFFFFFFFFFFFFFFF AND PUSH20 0xFFFFFFFFFFFFFFFFFFFFFFFFFFFFFFFFFFFFFFFF AND CALLER PUSH20 0xFFFFFFFFFFFFFFFFFFFFFFFFFFFFFFFFFFFFFFFF AND EQ PUSH2 0xC1C JUMPI PUSH1 0x0 DUP1 REVERT JUMPDEST PUSH1 0x2 PUSH1 0xC PUSH1 0x0 PUSH2 0x100 EXP DUP2 SLOAD DUP2 PUSH1 0xFF MUL NOT AND SWAP1 DUP4 PUSH1 0x2 DUP2 GT ISZERO PUSH2 0xC42 JUMPI PUSH2 0xC41 PUSH2 0x1896 JUMP JUMPDEST JUMPDEST MUL OR SWAP1 SSTORE POP PUSH1 0x4 SLOAD PUSH1 0x5 DUP2 SWAP1 SSTORE POP POP JUMP JUMPDEST PUSH1 0x0 DUP1 PUSH1 0x2 DUP2 GT ISZERO PUSH2 0xC68 JUMPI PUSH2 0xC67 PUSH2 0x1896 JUMP JUMPDEST JUMPDEST PUSH1 0xC PUSH1 0x0 SWAP1 SLOAD SWAP1 PUSH2 0x100 EXP SWAP1 DIV PUSH1 0xFF AND PUSH1 0x2 DUP2 GT ISZERO PUSH2 0xC8A JUMPI PUSH2 0xC89 PUSH2 0x1896 JUMP JUMPDEST JUMPDEST EQ PUSH2 0xC94 JUMPI PUSH1 0x0 DUP1 REVERT JUMPDEST PUSH1 0x0 DUP1 SLOAD SWAP1 PUSH2 0x100 EXP SWAP1 DIV PUSH20 0xFFFFFFFFFFFFFFFFFFFFFFFFFFFFFFFFFFFFFFFF AND PUSH20 0xFFFFFFFFFFFFFFFFFFFFFFFFFFFFFFFFFFFFFFFF AND CALLER PUSH20 0xFFFFFFFFFFFFFFFFFFFFFFFFFFFFFFFFFFFFFFFF AND EQ PUSH2 0xCEC JUMPI PUSH1 0x0 DUP1 REVERT JUMPDEST PUSH1 0x0 ISZERO ISZERO PUSH1 0x9 PUSH1 0x0 DUP6 PUSH20 0xFFFFFFFFFFFFFFFFFFFFFFFFFFFFFFFFFFFFFFFF AND PUSH20 0xFFFFFFFFFFFFFFFFFFFFFFFFFFFFFFFFFFFFFFFF AND DUP2 MSTORE PUSH1 0x20 ADD SWAP1 DUP2 MSTORE PUSH1 0x20 ADD PUSH1 0x0 KECCAK256 PUSH1 0x0 ADD PUSH1 0x0 SWAP1 SLOAD SWAP1 PUSH2 0x100 EXP SWAP1 DIV PUSH1 0xFF AND ISZERO ISZERO EQ PUSH2 0xD82 JUMPI PUSH1 0x40 MLOAD PUSH32 0x8C379A000000000000000000000000000000000000000000000000000000000 DUP2 MSTORE PUSH1 0x4 ADD PUSH2 0xD79 SWAP1 PUSH2 0x15E8 JUMP JUMPDEST PUSH1 0x40 MLOAD DUP1 SWAP2 SUB SWAP1 REVERT JUMPDEST PUSH1 0x1 DUP3 LT ISZERO DUP1 ISZERO PUSH2 0xD95 JUMPI POP PUSH1 0x2 SLOAD DUP3 GT ISZERO JUMPDEST PUSH2 0xDD4 JUMPI PUSH1 0x40 MLOAD PUSH32 0x8C379A000000000000000000000000000000000000000000000000000000000 DUP2 MSTORE PUSH1 0x4 ADD PUSH2 0xDCB SWAP1 PUSH2 0x15C8 JUMP JUMPDEST PUSH1 0x40 MLOAD DUP1 SWAP2 SUB SWAP1 REVERT JUMPDEST PUSH2 0xDDC PUSH2 0x112F JUMP JUMPDEST PUSH1 0x1 DUP2 PUSH1 0x0 ADD SWAP1 ISZERO ISZERO SWAP1 DUP2 ISZERO ISZERO DUP2 MSTORE POP POP PUSH1 0x0 DUP2 PUSH1 0x20 ADD SWAP1 ISZERO ISZERO SWAP1 DUP2 ISZERO ISZERO DUP2 MSTORE POP POP PUSH1 0x0 DUP2 PUSH1 0x40 ADD DUP2 DUP2 MSTORE POP POP DUP3 DUP2 PUSH1 0x60 ADD DUP2 DUP2 MSTORE POP POP PUSH1 0x0 DUP2 PUSH1 0x80 ADD DUP2 DUP2 MSTORE POP POP DUP1 PUSH1 0x9 PUSH1 0x0 DUP7 PUSH20 0xFFFFFFFFFFFFFFFFFFFFFFFFFFFFFFFFFFFFFFFF AND PUSH20 0xFFFFFFFFFFFFFFFFFFFFFFFFFFFFFFFFFFFFFFFF AND DUP2 MSTORE PUSH1 0x20 ADD SWAP1 DUP2 MSTORE PUSH1 0x20 ADD PUSH1 0x0 KECCAK256 PUSH1 0x0 DUP3 ADD MLOAD DUP2 PUSH1 0x0 ADD PUSH1 0x0 PUSH2 0x100 EXP DUP2 SLOAD DUP2 PUSH1 0xFF MUL NOT AND SWAP1 DUP4 ISZERO ISZERO MUL OR SWAP1 SSTORE POP PUSH1 0x20 DUP3 ADD MLOAD DUP2 PUSH1 0x0 ADD PUSH1 0x1 PUSH2 0x100 EXP DUP2 SLOAD DUP2 PUSH1 0xFF MUL NOT AND SWAP1 DUP4 ISZERO ISZERO MUL OR SWAP1 SSTORE POP PUSH1 0x40 DUP3 ADD MLOAD DUP2 PUSH1 0x1 ADD SSTORE PUSH1 0x60 DUP3 ADD MLOAD DUP2 PUSH1 0x2 ADD SSTORE PUSH1 0x80 DUP3 ADD MLOAD DUP2 PUSH1 0x3 ADD SSTORE SWAP1 POP POP PUSH2 0xEC8 DUP4 PUSH2 0x1098 JUMP JUMPDEST PUSH1 0x3 PUSH1 0x0 DUP2 SLOAD DUP1 SWAP3 SWAP2 SWAP1 PUSH2 0xEDB SWAP1 PUSH2 0x181E JUMP JUMPDEST SWAP2 SWAP1 POP SSTORE POP POP POP POP POP JUMP JUMPDEST PUSH1 0xC PUSH1 0x0 SWAP1 SLOAD SWAP1 PUSH2 0x100 EXP SWAP1 DIV PUSH1 0xFF AND DUP2 JUMP JUMPDEST PUSH1 0x6 DUP3 DUP2 SLOAD DUP2 LT PUSH2 0xF09 JUMPI PUSH1 0x0 DUP1 REVERT JUMPDEST SWAP1 PUSH1 0x0 MSTORE PUSH1 0x20 PUSH1 0x0 KECCAK256 ADD DUP2 DUP2 SLOAD DUP2 LT PUSH2 0xF21 JUMPI PUSH1 0x0 DUP1 REVERT JUMPDEST SWAP1 PUSH1 0x0 MSTORE PUSH1 0x20 PUSH1 0x0 KECCAK256 SWAP1 PUSH1 0x3 MUL ADD PUSH1 0x0 SWAP2 POP SWAP2 POP POP DUP1 PUSH1 0x0 ADD SLOAD SWAP1 DUP1 PUSH1 0x1 ADD DUP1 SLOAD PUSH2 0xF4B SWAP1 PUSH2 0x17EC JUMP JUMPDEST DUP1 PUSH1 0x1F ADD PUSH1 0x20 DUP1 SWAP2 DIV MUL PUSH1 0x20 ADD PUSH1 0x40 MLOAD SWAP1 DUP2 ADD PUSH1 0x40 MSTORE DUP1 SWAP3 SWAP2 SWAP1 DUP2 DUP2 MSTORE PUSH1 0x20 ADD DUP3 DUP1 SLOAD PUSH2 0xF77 SWAP1 PUSH2 0x17EC JUMP JUMPDEST DUP1 ISZERO PUSH2 0xFC4 JUMPI DUP1 PUSH1 0x1F LT PUSH2 0xF99 JUMPI PUSH2 0x100 DUP1 DUP4 SLOAD DIV MUL DUP4 MSTORE SWAP2 PUSH1 0x20 ADD SWAP2 PUSH2 0xFC4 JUMP JUMPDEST DUP3 ADD SWAP2 SWAP1 PUSH1 0x0 MSTORE PUSH1 0x20 PUSH1 0x0 KECCAK256 SWAP1 JUMPDEST DUP2 SLOAD DUP2 MSTORE SWAP1 PUSH1 0x1 ADD SWAP1 PUSH1 0x20 ADD DUP1 DUP4 GT PUSH2 0xFA7 JUMPI DUP3 SWAP1 SUB PUSH1 0x1F AND DUP3 ADD SWAP2 JUMPDEST POP POP POP POP POP SWAP1 DUP1 PUSH1 0x2 ADD SLOAD SWAP1 POP DUP4 JUMP JUMPDEST PUSH1 0x2 SLOAD DUP2 JUMP JUMPDEST PUSH1 0x5 SLOAD DUP2 JUMP JUMPDEST PUSH1 0x8 PUSH1 0x20 MSTORE DUP1 PUSH1 0x0 MSTORE PUSH1 0x40 PUSH1 0x0 KECCAK256 PUSH1 0x0 SWAP2 POP SWAP1 POP DUP1 PUSH1 0x0 ADD SLOAD SWAP1 DUP1 PUSH1 0x1 ADD DUP1 SLOAD PUSH2 0x1009 SWAP1 PUSH2 0x17EC JUMP JUMPDEST DUP1 PUSH1 0x1F ADD PUSH1 0x20 DUP1 SWAP2 DIV MUL PUSH1 0x20 ADD PUSH1 0x40 MLOAD SWAP1 DUP2 ADD PUSH1 0x40 MSTORE DUP1 SWAP3 SWAP2 SWAP1 DUP2 DUP2 MSTORE PUSH1 0x20 ADD DUP3 DUP1 SLOAD PUSH2 0x1035 SWAP1 PUSH2 0x17EC JUMP JUMPDEST DUP1 ISZERO PUSH2 0x1082 JUMPI DUP1 PUSH1 0x1F LT PUSH2 0x1057 JUMPI PUSH2 0x100 DUP1 DUP4 SLOAD DIV MUL DUP4 MSTORE SWAP2 PUSH1 0x20 ADD SWAP2 PUSH2 0x1082 JUMP JUMPDEST DUP3 ADD SWAP2 SWAP1 PUSH1 0x0 MSTORE PUSH1 0x20 PUSH1 0x0 KECCAK256 SWAP1 JUMPDEST DUP2 SLOAD DUP2 MSTORE SWAP1 PUSH1 0x1 ADD SWAP1 PUSH1 0x20 ADD DUP1 DUP4 GT PUSH2 0x1065 JUMPI DUP3 SWAP1 SUB PUSH1 0x1F AND DUP3 ADD SWAP2 JUMPDEST POP POP POP POP POP SWAP1 DUP1 PUSH1 0x2 ADD SLOAD SWAP1 DUP1 PUSH1 0x3 ADD SLOAD SWAP1 POP DUP5 JUMP JUMPDEST PUSH1 0x0 PUSH1 0x1 SWAP1 POP JUMPDEST PUSH1 0x2 SLOAD DUP2 GT PUSH2 0x110A JUMPI DUP2 PUSH1 0x8 PUSH1 0x0 DUP4 DUP2 MSTORE PUSH1 0x20 ADD SWAP1 DUP2 MSTORE PUSH1 0x20 ADD PUSH1 0x0 KECCAK256 PUSH1 0x0 ADD SLOAD EQ ISZERO PUSH2 0x10F7 JUMPI PUSH1 0x8 PUSH1 0x0 DUP3 DUP2 MSTORE PUSH1 0x20 ADD SWAP1 DUP2 MSTORE PUSH1 0x20 ADD PUSH1 0x0 KECCAK256 PUSH1 0x2 ADD PUSH1 0x0 DUP2 SLOAD DUP1 SWAP3 SWAP2 SWAP1 PUSH2 0x10ED SWAP1 PUSH2 0x181E JUMP JUMPDEST SWAP2 SWAP1 POP SSTORE POP PUSH2 0x110A JUMP JUMPDEST DUP1 DUP1 PUSH2 0x1102 SWAP1 PUSH2 0x181E JUMP JUMPDEST SWAP2 POP POP PUSH2 0x109F JUMP JUMPDEST POP POP JUMP JUMPDEST PUSH1 0x40 MLOAD DUP1 PUSH1 0x60 ADD PUSH1 0x40 MSTORE DUP1 PUSH1 0x0 DUP2 MSTORE PUSH1 0x20 ADD PUSH1 0x60 DUP2 MSTORE PUSH1 0x20 ADD PUSH1 0x0 DUP2 MSTORE POP SWAP1 JUMP JUMPDEST PUSH1 0x40 MLOAD DUP1 PUSH1 0xA0 ADD PUSH1 0x40 MSTORE DUP1 PUSH1 0x0 ISZERO ISZERO DUP2 MSTORE PUSH1 0x20 ADD PUSH1 0x0 ISZERO ISZERO DUP2 MSTORE PUSH1 0x20 ADD PUSH1 0x0 DUP2 MSTORE PUSH1 0x20 ADD PUSH1 0x0 DUP2 MSTORE PUSH1 0x20 ADD PUSH1 0x0 DUP2 MSTORE POP SWAP1 JUMP JUMPDEST PUSH1 0x0 DUP2 CALLDATALOAD SWAP1 POP PUSH2 0x1171 DUP2 PUSH2 0x19F4 JUMP JUMPDEST SWAP3 SWAP2 POP POP JUMP JUMPDEST PUSH1 0x0 DUP2 CALLDATALOAD SWAP1 POP PUSH2 0x1186 DUP2 PUSH2 0x1A0B JUMP JUMPDEST SWAP3 SWAP2 POP POP JUMP JUMPDEST PUSH1 0x0 PUSH1 0x20 DUP3 DUP5 SUB SLT ISZERO PUSH2 0x11A2 JUMPI PUSH2 0x11A1 PUSH2 0x1952 JUMP JUMPDEST JUMPDEST PUSH1 0x0 PUSH2 0x11B0 DUP5 DUP3 DUP6 ADD PUSH2 0x1162 JUMP JUMPDEST SWAP2 POP POP SWAP3 SWAP2 POP POP JUMP JUMPDEST PUSH1 0x0 DUP1 PUSH1 0x40 DUP4 DUP6 SUB SLT ISZERO PUSH2 0x11D0 JUMPI PUSH2 0x11CF PUSH2 0x1952 JUMP JUMPDEST JUMPDEST PUSH1 0x0 PUSH2 0x11DE DUP6 DUP3 DUP7 ADD PUSH2 0x1162 JUMP JUMPDEST SWAP3 POP POP PUSH1 0x20 PUSH2 0x11EF DUP6 DUP3 DUP7 ADD PUSH2 0x1177 JUMP JUMPDEST SWAP2 POP POP SWAP3 POP SWAP3 SWAP1 POP JUMP JUMPDEST PUSH1 0x0 PUSH1 0x20 DUP3 DUP5 SUB SLT ISZERO PUSH2 0x120F JUMPI PUSH2 0x120E PUSH2 0x1952 JUMP JUMPDEST JUMPDEST PUSH1 0x0 PUSH2 0x121D DUP5 DUP3 DUP6 ADD PUSH2 0x1177 JUMP JUMPDEST SWAP2 POP POP SWAP3 SWAP2 POP POP JUMP JUMPDEST PUSH1 0x0 DUP1 PUSH1 0x40 DUP4 DUP6 SUB SLT ISZERO PUSH2 0x123D JUMPI PUSH2 0x123C PUSH2 0x1952 JUMP JUMPDEST JUMPDEST PUSH1 0x0 PUSH2 0x124B DUP6 DUP3 DUP7 ADD PUSH2 0x1177 JUMP JUMPDEST SWAP3 POP POP PUSH1 0x20 PUSH2 0x125C DUP6 DUP3 DUP7 ADD PUSH2 0x1177 JUMP JUMPDEST SWAP2 POP POP SWAP3 POP SWAP3 SWAP1 POP JUMP JUMPDEST PUSH1 0x0 PUSH2 0x1272 DUP4 DUP4 PUSH2 0x1312 JUMP JUMPDEST SWAP1 POP SWAP3 SWAP2 POP POP JUMP JUMPDEST PUSH1 0x0 PUSH2 0x1286 DUP4 DUP4 PUSH2 0x145D JUMP JUMPDEST SWAP1 POP SWAP3 SWAP2 POP POP JUMP JUMPDEST PUSH2 0x1297 DUP2 PUSH2 0x174C JUMP JUMPDEST DUP3 MSTORE POP POP JUMP JUMPDEST PUSH1 0x0 PUSH2 0x12A8 DUP3 PUSH2 0x16CD JUMP JUMPDEST PUSH2 0x12B2 DUP2 DUP6 PUSH2 0x1708 JUMP JUMPDEST SWAP4 POP DUP4 PUSH1 0x20 DUP3 MUL DUP6 ADD PUSH2 0x12C4 DUP6 PUSH2 0x16AD JUMP JUMPDEST DUP1 PUSH1 0x0 JUMPDEST DUP6 DUP2 LT ISZERO PUSH2 0x1300 JUMPI DUP5 DUP5 SUB DUP10 MSTORE DUP2 MLOAD PUSH2 0x12E1 DUP6 DUP3 PUSH2 0x1266 JUMP JUMPDEST SWAP5 POP PUSH2 0x12EC DUP4 PUSH2 0x16EE JUMP JUMPDEST SWAP3 POP PUSH1 0x20 DUP11 ADD SWAP10 POP POP PUSH1 0x1 DUP2 ADD SWAP1 POP PUSH2 0x12C8 JUMP JUMPDEST POP DUP3 SWAP8 POP DUP8 SWAP6 POP POP POP POP POP POP SWAP3 SWAP2 POP POP JUMP JUMPDEST PUSH1 0x0 PUSH2 0x131D DUP3 PUSH2 0x16D8 JUMP JUMPDEST PUSH2 0x1327 DUP2 DUP6 PUSH2 0x1719 JUMP JUMPDEST SWAP4 POP DUP4 PUSH1 0x20 DUP3 MUL DUP6 ADD PUSH2 0x1339 DUP6 PUSH2 0x16BD JUMP JUMPDEST DUP1 PUSH1 0x0 JUMPDEST DUP6 DUP2 LT ISZERO PUSH2 0x1375 JUMPI DUP5 DUP5 SUB DUP10 MSTORE DUP2 MLOAD PUSH2 0x1356 DUP6 DUP3 PUSH2 0x127A JUMP JUMPDEST SWAP5 POP PUSH2 0x1361 DUP4 PUSH2 0x16FB JUMP JUMPDEST SWAP3 POP PUSH1 0x20 DUP11 ADD SWAP10 POP POP PUSH1 0x1 DUP2 ADD SWAP1 POP PUSH2 0x133D JUMP JUMPDEST POP DUP3 SWAP8 POP DUP8 SWAP6 POP POP POP POP POP POP SWAP3 SWAP2 POP POP JUMP JUMPDEST PUSH2 0x1390 DUP2 PUSH2 0x175E JUMP JUMPDEST DUP3 MSTORE POP POP JUMP JUMPDEST PUSH2 0x139F DUP2 PUSH2 0x17A7 JUMP JUMPDEST DUP3 MSTORE POP POP JUMP JUMPDEST PUSH1 0x0 PUSH2 0x13B0 DUP3 PUSH2 0x16E3 JUMP JUMPDEST PUSH2 0x13BA DUP2 DUP6 PUSH2 0x172A JUMP JUMPDEST SWAP4 POP PUSH2 0x13CA DUP2 DUP6 PUSH1 0x20 DUP7 ADD PUSH2 0x17B9 JUMP JUMPDEST PUSH2 0x13D3 DUP2 PUSH2 0x1957 JUMP JUMPDEST DUP5 ADD SWAP2 POP POP SWAP3 SWAP2 POP POP JUMP JUMPDEST PUSH1 0x0 PUSH2 0x13E9 DUP3 PUSH2 0x16E3 JUMP JUMPDEST PUSH2 0x13F3 DUP2 DUP6 PUSH2 0x173B JUMP JUMPDEST SWAP4 POP PUSH2 0x1403 DUP2 DUP6 PUSH1 0x20 DUP7 ADD PUSH2 0x17B9 JUMP JUMPDEST PUSH2 0x140C DUP2 PUSH2 0x1957 JUMP JUMPDEST DUP5 ADD SWAP2 POP POP SWAP3 SWAP2 POP POP JUMP JUMPDEST PUSH1 0x0 PUSH2 0x1424 PUSH1 0x2A DUP4 PUSH2 0x173B JUMP JUMPDEST SWAP2 POP PUSH2 0x142F DUP3 PUSH2 0x1968 JUMP JUMPDEST PUSH1 0x40 DUP3 ADD SWAP1 POP SWAP2 SWAP1 POP JUMP JUMPDEST PUSH1 0x0 PUSH2 0x1447 PUSH1 0x1C DUP4 PUSH2 0x173B JUMP JUMPDEST SWAP2 POP PUSH2 0x1452 DUP3 PUSH2 0x19B7 JUMP JUMPDEST PUSH1 0x20 DUP3 ADD SWAP1 POP SWAP2 SWAP1 POP JUMP JUMPDEST PUSH1 0x0 PUSH1 0x60 DUP4 ADD PUSH1 0x0 DUP4 ADD MLOAD PUSH2 0x1475 PUSH1 0x0 DUP7 ADD DUP3 PUSH2 0x14AD JUMP JUMPDEST POP PUSH1 0x20 DUP4 ADD MLOAD DUP5 DUP3 SUB PUSH1 0x20 DUP7 ADD MSTORE PUSH2 0x148D DUP3 DUP3 PUSH2 0x13A5 JUMP JUMPDEST SWAP2 POP POP PUSH1 0x40 DUP4 ADD MLOAD PUSH2 0x14A2 PUSH1 0x40 DUP7 ADD DUP3 PUSH2 0x14AD JUMP JUMPDEST POP DUP1 SWAP2 POP POP SWAP3 SWAP2 POP POP JUMP JUMPDEST PUSH2 0x14B6 DUP2 PUSH2 0x179D JUMP JUMPDEST DUP3 MSTORE POP POP JUMP JUMPDEST PUSH2 0x14C5 DUP2 PUSH2 0x179D JUMP JUMPDEST DUP3 MSTORE POP POP JUMP JUMPDEST PUSH1 0x0 PUSH1 0x20 DUP3 ADD SWAP1 POP PUSH2 0x14E0 PUSH1 0x0 DUP4 ADD DUP5 PUSH2 0x128E JUMP JUMPDEST SWAP3 SWAP2 POP POP JUMP JUMPDEST PUSH1 0x0 PUSH1 0x20 DUP3 ADD SWAP1 POP DUP2 DUP2 SUB PUSH1 0x0 DUP4 ADD MSTORE PUSH2 0x1500 DUP2 DUP5 PUSH2 0x129D JUMP JUMPDEST SWAP1 POP SWAP3 SWAP2 POP POP JUMP JUMPDEST PUSH1 0x0 PUSH1 0x20 DUP3 ADD SWAP1 POP PUSH2 0x151D PUSH1 0x0 DUP4 ADD DUP5 PUSH2 0x1387 JUMP JUMPDEST SWAP3 SWAP2 POP POP JUMP JUMPDEST PUSH1 0x0 PUSH1 0xA0 DUP3 ADD SWAP1 POP PUSH2 0x1538 PUSH1 0x0 DUP4 ADD DUP9 PUSH2 0x1387 JUMP JUMPDEST PUSH2 0x1545 PUSH1 0x20 DUP4 ADD DUP8 PUSH2 0x1387 JUMP JUMPDEST PUSH2 0x1552 PUSH1 0x40 DUP4 ADD DUP7 PUSH2 0x14BC JUMP JUMPDEST PUSH2 0x155F PUSH1 0x60 DUP4 ADD DUP6 PUSH2 0x14BC JUMP JUMPDEST PUSH2 0x156C PUSH1 0x80 DUP4 ADD DUP5 PUSH2 0x14BC JUMP JUMPDEST SWAP7 SWAP6 POP POP POP POP POP POP JUMP JUMPDEST PUSH1 0x0 PUSH1 0x60 DUP3 ADD SWAP1 POP PUSH2 0x158B PUSH1 0x0 DUP4 ADD DUP7 PUSH2 0x1387 JUMP JUMPDEST PUSH2 0x1598 PUSH1 0x20 DUP4 ADD DUP6 PUSH2 0x14BC JUMP JUMPDEST PUSH2 0x15A5 PUSH1 0x40 DUP4 ADD DUP5 PUSH2 0x14BC JUMP JUMPDEST SWAP5 SWAP4 POP POP POP POP JUMP JUMPDEST PUSH1 0x0 PUSH1 0x20 DUP3 ADD SWAP1 POP PUSH2 0x15C2 PUSH1 0x0 DUP4 ADD DUP5 PUSH2 0x1396 JUMP JUMPDEST SWAP3 SWAP2 POP POP JUMP JUMPDEST PUSH1 0x0 PUSH1 0x20 DUP3 ADD SWAP1 POP DUP2 DUP2 SUB PUSH1 0x0 DUP4 ADD MSTORE PUSH2 0x15E1 DUP2 PUSH2 0x1417 JUMP JUMPDEST SWAP1 POP SWAP2 SWAP1 POP JUMP JUMPDEST PUSH1 0x0 PUSH1 0x20 DUP3 ADD SWAP1 POP DUP2 DUP2 SUB PUSH1 0x0 DUP4 ADD MSTORE PUSH2 0x1601 DUP2 PUSH2 0x143A JUMP JUMPDEST SWAP1 POP SWAP2 SWAP1 POP JUMP JUMPDEST PUSH1 0x0 PUSH1 0x20 DUP3 ADD SWAP1 POP PUSH2 0x161D PUSH1 0x0 DUP4 ADD DUP5 PUSH2 0x14BC JUMP JUMPDEST SWAP3 SWAP2 POP POP JUMP JUMPDEST PUSH1 0x0 PUSH1 0x60 DUP3 ADD SWAP1 POP PUSH2 0x1638 PUSH1 0x0 DUP4 ADD DUP7 PUSH2 0x14BC JUMP JUMPDEST DUP2 DUP2 SUB PUSH1 0x20 DUP4 ADD MSTORE PUSH2 0x164A DUP2 DUP6 PUSH2 0x13DE JUMP JUMPDEST SWAP1 POP PUSH2 0x1659 PUSH1 0x40 DUP4 ADD DUP5 PUSH2 0x14BC JUMP JUMPDEST SWAP5 SWAP4 POP POP POP POP JUMP JUMPDEST PUSH1 0x0 PUSH1 0x80 DUP3 ADD SWAP1 POP PUSH2 0x1676 PUSH1 0x0 DUP4 ADD DUP8 PUSH2 0x14BC JUMP JUMPDEST DUP2 DUP2 SUB PUSH1 0x20 DUP4 ADD MSTORE PUSH2 0x1688 DUP2 DUP7 PUSH2 0x13DE JUMP JUMPDEST SWAP1 POP PUSH2 0x1697 PUSH1 0x40 DUP4 ADD DUP6 PUSH2 0x14BC JUMP JUMPDEST PUSH2 0x16A4 PUSH1 0x60 DUP4 ADD DUP5 PUSH2 0x14BC JUMP JUMPDEST SWAP6 SWAP5 POP POP POP POP POP JUMP JUMPDEST PUSH1 0x0 DUP2 SWAP1 POP PUSH1 0x20 DUP3 ADD SWAP1 POP SWAP2 SWAP1 POP JUMP JUMPDEST PUSH1 0x0 DUP2 SWAP1 POP PUSH1 0x20 DUP3 ADD SWAP1 POP SWAP2 SWAP1 POP JUMP JUMPDEST PUSH1 0x0 DUP2 MLOAD SWAP1 POP SWAP2 SWAP1 POP JUMP JUMPDEST PUSH1 0x0 DUP2 MLOAD SWAP1 POP SWAP2 SWAP1 POP JUMP JUMPDEST PUSH1 0x0 DUP2 MLOAD SWAP1 POP SWAP2 SWAP1 POP JUMP JUMPDEST PUSH1 0x0 PUSH1 0x20 DUP3 ADD SWAP1 POP SWAP2 SWAP1 POP JUMP JUMPDEST PUSH1 0x0 PUSH1 0x20 DUP3 ADD SWAP1 POP SWAP2 SWAP1 POP JUMP JUMPDEST PUSH1 0x0 DUP3 DUP3 MSTORE PUSH1 0x20 DUP3 ADD SWAP1 POP SWAP3 SWAP2 POP POP JUMP JUMPDEST PUSH1 0x0 DUP3 DUP3 MSTORE PUSH1 0x20 DUP3 ADD SWAP1 POP SWAP3 SWAP2 POP POP JUMP JUMPDEST PUSH1 0x0 DUP3 DUP3 MSTORE PUSH1 0x20 DUP3 ADD SWAP1 POP SWAP3 SWAP2 POP POP JUMP JUMPDEST PUSH1 0x0 DUP3 DUP3 MSTORE PUSH1 0x20 DUP3 ADD SWAP1 POP SWAP3 SWAP2 POP POP JUMP JUMPDEST PUSH1 0x0 PUSH2 0x1757 DUP3 PUSH2 0x177D JUMP JUMPDEST SWAP1 POP SWAP2 SWAP1 POP JUMP JUMPDEST PUSH1 0x0 DUP2 ISZERO ISZERO SWAP1 POP SWAP2 SWAP1 POP JUMP JUMPDEST PUSH1 0x0 DUP2 SWAP1 POP PUSH2 0x1778 DUP3 PUSH2 0x19E0 JUMP JUMPDEST SWAP2 SWAP1 POP JUMP JUMPDEST PUSH1 0x0 PUSH20 0xFFFFFFFFFFFFFFFFFFFFFFFFFFFFFFFFFFFFFFFF DUP3 AND SWAP1 POP SWAP2 SWAP1 POP JUMP JUMPDEST PUSH1 0x0 DUP2 SWAP1 POP SWAP2 SWAP1 POP JUMP JUMPDEST PUSH1 0x0 PUSH2 0x17B2 DUP3 PUSH2 0x176A JUMP JUMPDEST SWAP1 POP SWAP2 SWAP1 POP JUMP JUMPDEST PUSH1 0x0 JUMPDEST DUP4 DUP2 LT ISZERO PUSH2 0x17D7 JUMPI DUP1 DUP3 ADD MLOAD DUP2 DUP5 ADD MSTORE PUSH1 0x20 DUP2 ADD SWAP1 POP PUSH2 0x17BC JUMP JUMPDEST DUP4 DUP2 GT ISZERO PUSH2 0x17E6 JUMPI PUSH1 0x0 DUP5 DUP5 ADD MSTORE JUMPDEST POP POP POP POP JUMP JUMPDEST PUSH1 0x0 PUSH1 0x2 DUP3 DIV SWAP1 POP PUSH1 0x1 DUP3 AND DUP1 PUSH2 0x1804 JUMPI PUSH1 0x7F DUP3 AND SWAP2 POP JUMPDEST PUSH1 0x20 DUP3 LT DUP2 EQ ISZERO PUSH2 0x1818 JUMPI PUSH2 0x1817 PUSH2 0x18C5 JUMP JUMPDEST JUMPDEST POP SWAP2 SWAP1 POP JUMP JUMPDEST PUSH1 0x0 PUSH2 0x1829 DUP3 PUSH2 0x179D JUMP JUMPDEST SWAP2 POP PUSH32 0xFFFFFFFFFFFFFFFFFFFFFFFFFFFFFFFFFFFFFFFFFFFFFFFFFFFFFFFFFFFFFFFF DUP3 EQ ISZERO PUSH2 0x185C JUMPI PUSH2 0x185B PUSH2 0x1867 JUMP JUMPDEST JUMPDEST PUSH1 0x1 DUP3 ADD SWAP1 POP SWAP2 SWAP1 POP JUMP JUMPDEST PUSH32 0x4E487B7100000000000000000000000000000000000000000000000000000000 PUSH1 0x0 MSTORE PUSH1 0x11 PUSH1 0x4 MSTORE PUSH1 0x24 PUSH1 0x0 REVERT JUMPDEST PUSH32 0x4E487B7100000000000000000000000000000000000000000000000000000000 PUSH1 0x0 MSTORE PUSH1 0x21 PUSH1 0x4 MSTORE PUSH1 0x24 PUSH1 0x0 REVERT JUMPDEST PUSH32 0x4E487B7100000000000000000000000000000000000000000000000000000000 PUSH1 0x0 MSTORE PUSH1 0x22 PUSH1 0x4 MSTORE PUSH1 0x24 PUSH1 0x0 REVERT JUMPDEST PUSH32 0x4E487B7100000000000000000000000000000000000000000000000000000000 PUSH1 0x0 MSTORE PUSH1 0x32 PUSH1 0x4 MSTORE PUSH1 0x24 PUSH1 0x0 REVERT JUMPDEST PUSH32 0x4E487B7100000000000000000000000000000000000000000000000000000000 PUSH1 0x0 MSTORE PUSH1 0x41 PUSH1 0x4 MSTORE PUSH1 0x24 PUSH1 0x0 REVERT JUMPDEST PUSH1 0x0 DUP1 REVERT JUMPDEST PUSH1 0x0 PUSH1 0x1F NOT PUSH1 0x1F DUP4 ADD AND SWAP1 POP SWAP2 SWAP1 POP JUMP JUMPDEST PUSH32 0x506C656173652070726F7669646520612076616C696420706F6C6C696E672073 PUSH1 0x0 DUP3 ADD MSTORE PUSH32 0x746174696F6E2049442E00000000000000000000000000000000000000000000 PUSH1 0x20 DUP3 ADD MSTORE POP JUMP JUMPDEST PUSH32 0x566F74657220697320616C726561647920726567697374657265642E00000000 PUSH1 0x0 DUP3 ADD MSTORE POP JUMP JUMPDEST PUSH1 0x3 DUP2 LT PUSH2 0x19F1 JUMPI PUSH2 0x19F0 PUSH2 0x1896 JUMP JUMPDEST JUMPDEST POP JUMP JUMPDEST PUSH2 0x19FD DUP2 PUSH2 0x174C JUMP JUMPDEST DUP2 EQ PUSH2 0x1A08 JUMPI PUSH1 0x0 DUP1 REVERT JUMPDEST POP JUMP JUMPDEST PUSH2 0x1A14 DUP2 PUSH2 0x179D JUMP JUMPDEST DUP2 EQ PUSH2 0x1A1F JUMPI PUSH1 0x0 DUP1 REVERT JUMPDEST POP JUMP INVALID LOG2 PUSH5 0x6970667358 0x22 SLT KECCAK256 0xB8 PUSH16 0x4D0BB536DDB1083E02E652BBA42ECD62 PUSH18 0x3A36920EE125994C2A4E6FAE0764736F6C63 NUMBER STOP ADDMOD SMOD STOP CALLER "
				},
				"gasEstimates": {
					"creation": {
						"codeDepositCost": "1348800",
						"executionCost": "infinite",
						"totalCost": "infinite"
					},
					"external": {
						"addVoter(address,uint256)": "infinite",
						"candidates(uint256)": "infinite",
						"candidatesCount()": "2497",
						"castVote(uint256,uint256)": "infinite",
						"electionOwner()": "2600",
						"endVote()": "53095",
						"finalResult()": "2517",
						"getResults()": "infinite",
						"pollingStationCount()": "2495",
						"pollingStations(uint256)": "infinite",
						"results(uint256,uint256)": "infinite",
						"resultsPerPollingStation(uint256,uint256)": "infinite",
						"startVote()": "28881",
						"state()": "2582",
						"totalRegisteredVoters()": "2453",
						"voterRegistry(address)": "infinite",
						"voters(address)": "2868"
					},
					"internal": {
						"addCandidate(string memory)": "infinite",
						"addPollingStation(string memory)": "infinite",
						"initCandidates()": "infinite",
						"initPollingStations()": "infinite",
						"registerAtPollingStation(uint256)": "28818"
					}
				},
				"methodIdentifiers": {
					"addVoter(address,uint256)": "b9f05f2f",
					"candidates(uint256)": "3477ee2e",
					"candidatesCount()": "2d35a8a2",
					"castVote(uint256,uint256)": "2c0a3f89",
					"electionOwner()": "53357ad0",
					"endVote()": "b9223946",
					"finalResult()": "f3a8286f",
					"getResults()": "4717f97c",
					"pollingStationCount()": "df9f1a07",
					"pollingStations(uint256)": "fe2442d7",
					"results(uint256,uint256)": "d70c6f4e",
					"resultsPerPollingStation(uint256,uint256)": "b54b5d62",
					"startVote()": "4c0a6af0",
					"state()": "c19d93fb",
					"totalRegisteredVoters()": "00aa7464",
					"voterRegistry(address)": "4763d4e7",
					"voters(address)": "a3ec138d"
				}
			},
			"storageLayout": {
				"storage": [
					{
						"astId": 30,
						"contract": "contracts/ergasia.sol:Election",
						"label": "electionOwner",
						"offset": 0,
						"slot": "0",
						"type": "t_address"
					},
					{
						"astId": 32,
						"contract": "contracts/ergasia.sol:Election",
						"label": "candidatesCount",
						"offset": 0,
						"slot": "1",
						"type": "t_uint256"
					},
					{
						"astId": 34,
						"contract": "contracts/ergasia.sol:Election",
						"label": "pollingStationCount",
						"offset": 0,
						"slot": "2",
						"type": "t_uint256"
					},
					{
						"astId": 36,
						"contract": "contracts/ergasia.sol:Election",
						"label": "totalRegisteredVoters",
						"offset": 0,
						"slot": "3",
						"type": "t_uint256"
					},
					{
						"astId": 38,
						"contract": "contracts/ergasia.sol:Election",
						"label": "countResult",
						"offset": 0,
						"slot": "4",
						"type": "t_uint256"
					},
					{
						"astId": 40,
						"contract": "contracts/ergasia.sol:Election",
						"label": "finalResult",
						"offset": 0,
						"slot": "5",
						"type": "t_uint256"
					},
					{
						"astId": 45,
						"contract": "contracts/ergasia.sol:Election",
						"label": "results",
						"offset": 0,
						"slot": "6",
						"type": "t_array(t_array(t_struct(Candidate)8_storage)dyn_storage)dyn_storage"
					},
					{
						"astId": 50,
						"contract": "contracts/ergasia.sol:Election",
						"label": "candidates",
						"offset": 0,
						"slot": "7",
						"type": "t_mapping(t_uint256,t_struct(Candidate)8_storage)"
					},
					{
						"astId": 55,
						"contract": "contracts/ergasia.sol:Election",
						"label": "pollingStations",
						"offset": 0,
						"slot": "8",
						"type": "t_mapping(t_uint256,t_struct(PollingStation)17_storage)"
					},
					{
						"astId": 60,
						"contract": "contracts/ergasia.sol:Election",
						"label": "voterRegistry",
						"offset": 0,
						"slot": "9",
						"type": "t_mapping(t_address,t_struct(Voter)28_storage)"
					},
					{
						"astId": 64,
						"contract": "contracts/ergasia.sol:Election",
						"label": "voters",
						"offset": 0,
						"slot": "10",
						"type": "t_mapping(t_address,t_bool)"
					},
					{
						"astId": 71,
						"contract": "contracts/ergasia.sol:Election",
						"label": "resultsPerPollingStation",
						"offset": 0,
						"slot": "11",
						"type": "t_mapping(t_uint256,t_mapping(t_uint256,t_struct(Candidate)8_storage))"
					},
					{
						"astId": 78,
						"contract": "contracts/ergasia.sol:Election",
						"label": "state",
						"offset": 0,
						"slot": "12",
						"type": "t_enum(State)75"
					}
				],
				"types": {
					"t_address": {
						"encoding": "inplace",
						"label": "address",
						"numberOfBytes": "20"
					},
					"t_array(t_array(t_struct(Candidate)8_storage)dyn_storage)dyn_storage": {
						"base": "t_array(t_struct(Candidate)8_storage)dyn_storage",
						"encoding": "dynamic_array",
						"label": "struct Election.Candidate[][]",
						"numberOfBytes": "32"
					},
					"t_array(t_struct(Candidate)8_storage)dyn_storage": {
						"base": "t_struct(Candidate)8_storage",
						"encoding": "dynamic_array",
						"label": "struct Election.Candidate[]",
						"numberOfBytes": "32"
					},
					"t_bool": {
						"encoding": "inplace",
						"label": "bool",
						"numberOfBytes": "1"
					},
					"t_enum(State)75": {
						"encoding": "inplace",
						"label": "enum Election.State",
						"numberOfBytes": "1"
					},
					"t_mapping(t_address,t_bool)": {
						"encoding": "mapping",
						"key": "t_address",
						"label": "mapping(address => bool)",
						"numberOfBytes": "32",
						"value": "t_bool"
					},
					"t_mapping(t_address,t_struct(Voter)28_storage)": {
						"encoding": "mapping",
						"key": "t_address",
						"label": "mapping(address => struct Election.Voter)",
						"numberOfBytes": "32",
						"value": "t_struct(Voter)28_storage"
					},
					"t_mapping(t_uint256,t_mapping(t_uint256,t_struct(Candidate)8_storage))": {
						"encoding": "mapping",
						"key": "t_uint256",
						"label": "mapping(uint256 => mapping(uint256 => struct Election.Candidate))",
						"numberOfBytes": "32",
						"value": "t_mapping(t_uint256,t_struct(Candidate)8_storage)"
					},
					"t_mapping(t_uint256,t_struct(Candidate)8_storage)": {
						"encoding": "mapping",
						"key": "t_uint256",
						"label": "mapping(uint256 => struct Election.Candidate)",
						"numberOfBytes": "32",
						"value": "t_struct(Candidate)8_storage"
					},
					"t_mapping(t_uint256,t_struct(PollingStation)17_storage)": {
						"encoding": "mapping",
						"key": "t_uint256",
						"label": "mapping(uint256 => struct Election.PollingStation)",
						"numberOfBytes": "32",
						"value": "t_struct(PollingStation)17_storage"
					},
					"t_string_storage": {
						"encoding": "bytes",
						"label": "string",
						"numberOfBytes": "32"
					},
					"t_struct(Candidate)8_storage": {
						"encoding": "inplace",
						"label": "struct Election.Candidate",
						"members": [
							{
								"astId": 3,
								"contract": "contracts/ergasia.sol:Election",
								"label": "id",
								"offset": 0,
								"slot": "0",
								"type": "t_uint256"
							},
							{
								"astId": 5,
								"contract": "contracts/ergasia.sol:Election",
								"label": "name",
								"offset": 0,
								"slot": "1",
								"type": "t_string_storage"
							},
							{
								"astId": 7,
								"contract": "contracts/ergasia.sol:Election",
								"label": "votes",
								"offset": 0,
								"slot": "2",
								"type": "t_uint256"
							}
						],
						"numberOfBytes": "96"
					},
					"t_struct(PollingStation)17_storage": {
						"encoding": "inplace",
						"label": "struct Election.PollingStation",
						"members": [
							{
								"astId": 10,
								"contract": "contracts/ergasia.sol:Election",
								"label": "id",
								"offset": 0,
								"slot": "0",
								"type": "t_uint256"
							},
							{
								"astId": 12,
								"contract": "contracts/ergasia.sol:Election",
								"label": "name",
								"offset": 0,
								"slot": "1",
								"type": "t_string_storage"
							},
							{
								"astId": 14,
								"contract": "contracts/ergasia.sol:Election",
								"label": "votersRegistered",
								"offset": 0,
								"slot": "2",
								"type": "t_uint256"
							},
							{
								"astId": 16,
								"contract": "contracts/ergasia.sol:Election",
								"label": "votesCasted",
								"offset": 0,
								"slot": "3",
								"type": "t_uint256"
							}
						],
						"numberOfBytes": "128"
					},
					"t_struct(Voter)28_storage": {
						"encoding": "inplace",
						"label": "struct Election.Voter",
						"members": [
							{
								"astId": 19,
								"contract": "contracts/ergasia.sol:Election",
								"label": "isEnrolled",
								"offset": 0,
								"slot": "0",
								"type": "t_bool"
							},
							{
								"astId": 21,
								"contract": "contracts/ergasia.sol:Election",
								"label": "hasVoted",
								"offset": 1,
								"slot": "0",
								"type": "t_bool"
							},
							{
								"astId": 23,
								"contract": "contracts/ergasia.sol:Election",
								"label": "choice",
								"offset": 0,
								"slot": "1",
								"type": "t_uint256"
							},
							{
								"astId": 25,
								"contract": "contracts/ergasia.sol:Election",
								"label": "enrolledPollingStationID",
								"offset": 0,
								"slot": "2",
								"type": "t_uint256"
							},
							{
								"astId": 27,
								"contract": "contracts/ergasia.sol:Election",
								"label": "votedPollingStationID",
								"offset": 0,
								"slot": "3",
								"type": "t_uint256"
							}
						],
						"numberOfBytes": "128"
					},
					"t_uint256": {
						"encoding": "inplace",
						"label": "uint256",
						"numberOfBytes": "32"
					}
				}
			},
			"userdoc": {
				"kind": "user",
				"methods": {},
				"version": 1
			}
		}
	}
}