{
	"contracts/ergasia.sol": {
		"Election": {
			"abi": [
				{
					"inputs": [],
					"stateMutability": "nonpayable",
					"type": "constructor"
				},
				{
					"anonymous": false,
					"inputs": [
						{
							"indexed": false,
							"internalType": "bool",
							"name": "voted",
							"type": "bool"
						},
						{
							"indexed": false,
							"internalType": "uint256",
							"name": "_choice",
							"type": "uint256"
						},
						{
							"indexed": false,
							"internalType": "uint256",
							"name": "_pollStationID",
							"type": "uint256"
						}
					],
					"name": "VoteCasted",
					"type": "event"
				},
				{
					"inputs": [
						{
							"internalType": "address",
							"name": "_voterAddress",
							"type": "address"
						},
						{
							"internalType": "uint256",
							"name": "_pollingStationID",
							"type": "uint256"
						}
					],
					"name": "addVoter",
					"outputs": [],
					"stateMutability": "nonpayable",
					"type": "function"
				},
				{
					"inputs": [
						{
							"internalType": "uint256",
							"name": "",
							"type": "uint256"
						}
					],
					"name": "candidates",
					"outputs": [
						{
							"internalType": "uint256",
							"name": "id",
							"type": "uint256"
						},
						{
							"internalType": "string",
							"name": "name",
							"type": "string"
						},
						{
							"internalType": "uint256",
							"name": "votes",
							"type": "uint256"
						}
					],
					"stateMutability": "view",
					"type": "function"
				},
				{
					"inputs": [],
					"name": "candidatesCount",
					"outputs": [
						{
							"internalType": "uint256",
							"name": "",
							"type": "uint256"
						}
					],
					"stateMutability": "view",
					"type": "function"
				},
				{
					"inputs": [
						{
							"internalType": "uint256",
							"name": "_choice",
							"type": "uint256"
						},
						{
							"internalType": "uint256",
							"name": "_pollingStationID",
							"type": "uint256"
						}
					],
					"name": "castVote",
					"outputs": [
						{
							"internalType": "bool",
							"name": "voted",
							"type": "bool"
						}
					],
					"stateMutability": "nonpayable",
					"type": "function"
				},
				{
					"inputs": [],
					"name": "electionOwner",
					"outputs": [
						{
							"internalType": "address",
							"name": "",
							"type": "address"
						}
					],
					"stateMutability": "view",
					"type": "function"
				},
				{
					"inputs": [],
					"name": "endVote",
					"outputs": [],
					"stateMutability": "nonpayable",
					"type": "function"
				},
				{
					"inputs": [],
					"name": "finalResult",
					"outputs": [
						{
							"internalType": "uint256",
							"name": "",
							"type": "uint256"
						}
					],
					"stateMutability": "view",
					"type": "function"
				},
				{
					"inputs": [
						{
							"internalType": "uint256",
							"name": "_pStationID",
							"type": "uint256"
						},
						{
							"internalType": "uint256",
							"name": "_candidateID",
							"type": "uint256"
						}
					],
					"name": "getResultsPerStationPerCandidate",
					"outputs": [
						{
							"components": [
								{
									"internalType": "uint256",
									"name": "id",
									"type": "uint256"
								},
								{
									"internalType": "string",
									"name": "name",
									"type": "string"
								},
								{
									"internalType": "uint256",
									"name": "votes",
									"type": "uint256"
								}
							],
							"internalType": "struct Election.Candidate",
							"name": "",
							"type": "tuple"
						}
					],
					"stateMutability": "view",
					"type": "function"
				},
				{
					"inputs": [],
					"name": "pollingStationCount",
					"outputs": [
						{
							"internalType": "uint256",
							"name": "",
							"type": "uint256"
						}
					],
					"stateMutability": "view",
					"type": "function"
				},
				{
					"inputs": [
						{
							"internalType": "uint256",
							"name": "",
							"type": "uint256"
						}
					],
					"name": "pollingStations",
					"outputs": [
						{
							"internalType": "uint256",
							"name": "id",
							"type": "uint256"
						},
						{
							"internalType": "string",
							"name": "name",
							"type": "string"
						},
						{
							"internalType": "uint256",
							"name": "votersRegistered",
							"type": "uint256"
						},
						{
							"internalType": "uint256",
							"name": "votesCasted",
							"type": "uint256"
						}
					],
					"stateMutability": "view",
					"type": "function"
				},
				{
					"inputs": [],
					"name": "startElection",
					"outputs": [],
					"stateMutability": "nonpayable",
					"type": "function"
				},
				{
					"inputs": [],
					"name": "startVoting",
					"outputs": [],
					"stateMutability": "nonpayable",
					"type": "function"
				},
				{
					"inputs": [],
					"name": "state",
					"outputs": [
						{
							"internalType": "enum Election.State",
							"name": "",
							"type": "uint8"
						}
					],
					"stateMutability": "view",
					"type": "function"
				},
				{
					"inputs": [],
					"name": "totalRegisteredVoters",
					"outputs": [
						{
							"internalType": "uint256",
							"name": "",
							"type": "uint256"
						}
					],
					"stateMutability": "view",
					"type": "function"
				},
				{
					"inputs": [
						{
							"internalType": "address",
							"name": "",
							"type": "address"
						}
					],
					"name": "voterRegistry",
					"outputs": [
						{
							"internalType": "bool",
							"name": "isEnrolled",
							"type": "bool"
						},
						{
							"internalType": "bool",
							"name": "hasVoted",
							"type": "bool"
						},
						{
							"internalType": "uint256",
							"name": "choice",
							"type": "uint256"
						},
						{
							"internalType": "uint256",
							"name": "enrolledPollingStationID",
							"type": "uint256"
						},
						{
							"internalType": "uint256",
							"name": "votedPollingStationID",
							"type": "uint256"
						}
					],
					"stateMutability": "view",
					"type": "function"
				},
				{
					"inputs": [
						{
							"internalType": "address",
							"name": "",
							"type": "address"
						}
					],
					"name": "voters",
					"outputs": [
						{
							"internalType": "bool",
							"name": "",
							"type": "bool"
						}
					],
					"stateMutability": "view",
					"type": "function"
				}
			],
			"devdoc": {
				"kind": "dev",
				"methods": {
					"addVoter(address,uint256)": {
						"details": "Adds a voter to the voter registry. May only be called by 'owner'.",
						"params": {
							"_pollingStationID": "polling station ID in which voter is registered.",
							"_voterAddress": "address of voter"
						}
					}
				},
				"version": 1
			},
			"evm": {
				"assembly": "    /* \"contracts/ergasia.sol\":70:7630  contract Election {... */\n  mstore(0x40, 0x80)\n    /* \"contracts/ergasia.sol\":2303:2578  constructor() {... */\n  callvalue\n  dup1\n  iszero\n  tag_1\n  jumpi\n  0x00\n  dup1\n  revert\ntag_1:\n  pop\n    /* \"contracts/ergasia.sol\":2343:2353  msg.sender */\n  caller\n    /* \"contracts/ergasia.sol\":2327:2340  electionOwner */\n  0x00\n  dup1\n    /* \"contracts/ergasia.sol\":2327:2353  electionOwner = msg.sender */\n  0x0100\n  exp\n  dup2\n  sload\n  dup2\n  0xffffffffffffffffffffffffffffffffffffffff\n  mul\n  not\n  and\n  swap1\n  dup4\n  0xffffffffffffffffffffffffffffffffffffffff\n  and\n  mul\n  or\n  swap1\n  sstore\n  pop\n    /* \"contracts/ergasia.sol\":2408:2429  initPollingStations() */\n  tag_4\n    /* \"contracts/ergasia.sol\":2408:2427  initPollingStations */\n  shl(0x20, tag_5)\n    /* \"contracts/ergasia.sol\":2408:2429  initPollingStations() */\n  0x20\n  shr\n  jump\t// in\ntag_4:\n    /* \"contracts/ergasia.sol\":2486:2502  initCandidates() */\n  tag_6\n    /* \"contracts/ergasia.sol\":2486:2500  initCandidates */\n  shl(0x20, tag_7)\n    /* \"contracts/ergasia.sol\":2486:2502  initCandidates() */\n  0x20\n  shr\n  jump\t// in\ntag_6:\n    /* \"contracts/ergasia.sol\":2556:2569  State.Created */\n  0x00\n    /* \"contracts/ergasia.sol\":2548:2553  state */\n  0x0b\n  0x00\n    /* \"contracts/ergasia.sol\":2548:2569  state = State.Created */\n  0x0100\n  exp\n  dup2\n  sload\n  dup2\n  0xff\n  mul\n  not\n  and\n  swap1\n  dup4\n  0x03\n  dup2\n  gt\n  iszero\n  tag_8\n  jumpi\n  tag_9\n  tag_10\n  jump\t// in\ntag_9:\ntag_8:\n  mul\n  or\n  swap1\n  sstore\n  pop\n    /* \"contracts/ergasia.sol\":70:7630  contract Election {... */\n  jump(tag_11)\n    /* \"contracts/ergasia.sol\":3383:3911  function initPollingStations() internal {... */\ntag_5:\n    /* \"contracts/ergasia.sol\":3433:3471  addPollingStation(\"Polling Station 1\") */\n  tag_13\n  mload(0x40)\n  dup1\n  0x40\n  add\n  0x40\n  mstore\n  dup1\n  0x11\n  dup2\n  mstore\n  0x20\n  add\n  0x506f6c6c696e672053746174696f6e2031000000000000000000000000000000\n  dup2\n  mstore\n  pop\n    /* \"contracts/ergasia.sol\":3433:3450  addPollingStation */\n  shl(0x20, tag_14)\n    /* \"contracts/ergasia.sol\":3433:3471  addPollingStation(\"Polling Station 1\") */\n  0x20\n  shr\n  jump\t// in\ntag_13:\n    /* \"contracts/ergasia.sol\":3481:3519  addPollingStation(\"Polling Station 2\") */\n  tag_15\n  mload(0x40)\n  dup1\n  0x40\n  add\n  0x40\n  mstore\n  dup1\n  0x11\n  dup2\n  mstore\n  0x20\n  add\n  0x506f6c6c696e672053746174696f6e2032000000000000000000000000000000\n  dup2\n  mstore\n  pop\n    /* \"contracts/ergasia.sol\":3481:3498  addPollingStation */\n  shl(0x20, tag_14)\n    /* \"contracts/ergasia.sol\":3481:3519  addPollingStation(\"Polling Station 2\") */\n  0x20\n  shr\n  jump\t// in\ntag_15:\n    /* \"contracts/ergasia.sol\":3529:3567  addPollingStation(\"Polling Station 3\") */\n  tag_16\n  mload(0x40)\n  dup1\n  0x40\n  add\n  0x40\n  mstore\n  dup1\n  0x11\n  dup2\n  mstore\n  0x20\n  add\n  0x506f6c6c696e672053746174696f6e2033000000000000000000000000000000\n  dup2\n  mstore\n  pop\n    /* \"contracts/ergasia.sol\":3529:3546  addPollingStation */\n  shl(0x20, tag_14)\n    /* \"contracts/ergasia.sol\":3529:3567  addPollingStation(\"Polling Station 3\") */\n  0x20\n  shr\n  jump\t// in\ntag_16:\n    /* \"contracts/ergasia.sol\":3577:3615  addPollingStation(\"Polling Station 4\") */\n  tag_17\n  mload(0x40)\n  dup1\n  0x40\n  add\n  0x40\n  mstore\n  dup1\n  0x11\n  dup2\n  mstore\n  0x20\n  add\n  0x506f6c6c696e672053746174696f6e2034000000000000000000000000000000\n  dup2\n  mstore\n  pop\n    /* \"contracts/ergasia.sol\":3577:3594  addPollingStation */\n  shl(0x20, tag_14)\n    /* \"contracts/ergasia.sol\":3577:3615  addPollingStation(\"Polling Station 4\") */\n  0x20\n  shr\n  jump\t// in\ntag_17:\n    /* \"contracts/ergasia.sol\":3625:3663  addPollingStation(\"Polling Station 5\") */\n  tag_18\n  mload(0x40)\n  dup1\n  0x40\n  add\n  0x40\n  mstore\n  dup1\n  0x11\n  dup2\n  mstore\n  0x20\n  add\n  0x506f6c6c696e672053746174696f6e2035000000000000000000000000000000\n  dup2\n  mstore\n  pop\n    /* \"contracts/ergasia.sol\":3625:3642  addPollingStation */\n  shl(0x20, tag_14)\n    /* \"contracts/ergasia.sol\":3625:3663  addPollingStation(\"Polling Station 5\") */\n  0x20\n  shr\n  jump\t// in\ntag_18:\n    /* \"contracts/ergasia.sol\":3673:3711  addPollingStation(\"Polling Station 6\") */\n  tag_19\n  mload(0x40)\n  dup1\n  0x40\n  add\n  0x40\n  mstore\n  dup1\n  0x11\n  dup2\n  mstore\n  0x20\n  add\n  0x506f6c6c696e672053746174696f6e2036000000000000000000000000000000\n  dup2\n  mstore\n  pop\n    /* \"contracts/ergasia.sol\":3673:3690  addPollingStation */\n  shl(0x20, tag_14)\n    /* \"contracts/ergasia.sol\":3673:3711  addPollingStation(\"Polling Station 6\") */\n  0x20\n  shr\n  jump\t// in\ntag_19:\n    /* \"contracts/ergasia.sol\":3721:3759  addPollingStation(\"Polling Station 7\") */\n  tag_20\n  mload(0x40)\n  dup1\n  0x40\n  add\n  0x40\n  mstore\n  dup1\n  0x11\n  dup2\n  mstore\n  0x20\n  add\n  0x506f6c6c696e672053746174696f6e2037000000000000000000000000000000\n  dup2\n  mstore\n  pop\n    /* \"contracts/ergasia.sol\":3721:3738  addPollingStation */\n  shl(0x20, tag_14)\n    /* \"contracts/ergasia.sol\":3721:3759  addPollingStation(\"Polling Station 7\") */\n  0x20\n  shr\n  jump\t// in\ntag_20:\n    /* \"contracts/ergasia.sol\":3769:3807  addPollingStation(\"Polling Station 8\") */\n  tag_21\n  mload(0x40)\n  dup1\n  0x40\n  add\n  0x40\n  mstore\n  dup1\n  0x11\n  dup2\n  mstore\n  0x20\n  add\n  0x506f6c6c696e672053746174696f6e2038000000000000000000000000000000\n  dup2\n  mstore\n  pop\n    /* \"contracts/ergasia.sol\":3769:3786  addPollingStation */\n  shl(0x20, tag_14)\n    /* \"contracts/ergasia.sol\":3769:3807  addPollingStation(\"Polling Station 8\") */\n  0x20\n  shr\n  jump\t// in\ntag_21:\n    /* \"contracts/ergasia.sol\":3817:3855  addPollingStation(\"Polling Station 9\") */\n  tag_22\n  mload(0x40)\n  dup1\n  0x40\n  add\n  0x40\n  mstore\n  dup1\n  0x11\n  dup2\n  mstore\n  0x20\n  add\n  0x506f6c6c696e672053746174696f6e2039000000000000000000000000000000\n  dup2\n  mstore\n  pop\n    /* \"contracts/ergasia.sol\":3817:3834  addPollingStation */\n  shl(0x20, tag_14)\n    /* \"contracts/ergasia.sol\":3817:3855  addPollingStation(\"Polling Station 9\") */\n  0x20\n  shr\n  jump\t// in\ntag_22:\n    /* \"contracts/ergasia.sol\":3865:3904  addPollingStation(\"Polling Station 10\") */\n  tag_23\n  mload(0x40)\n  dup1\n  0x40\n  add\n  0x40\n  mstore\n  dup1\n  0x12\n  dup2\n  mstore\n  0x20\n  add\n  0x506f6c6c696e672053746174696f6e2031300000000000000000000000000000\n  dup2\n  mstore\n  pop\n    /* \"contracts/ergasia.sol\":3865:3882  addPollingStation */\n  shl(0x20, tag_14)\n    /* \"contracts/ergasia.sol\":3865:3904  addPollingStation(\"Polling Station 10\") */\n  0x20\n  shr\n  jump\t// in\ntag_23:\n    /* \"contracts/ergasia.sol\":3383:3911  function initPollingStations() internal {... */\n  jump\t// out\n    /* \"contracts/ergasia.sol\":2637:2864  function initCandidates() internal {... */\ntag_7:\n    /* \"contracts/ergasia.sol\":2682:2709  addCandidate(\"Candidate 1\") */\n  tag_25\n  mload(0x40)\n  dup1\n  0x40\n  add\n  0x40\n  mstore\n  dup1\n  0x0b\n  dup2\n  mstore\n  0x20\n  add\n  0x43616e6469646174652031000000000000000000000000000000000000000000\n  dup2\n  mstore\n  pop\n    /* \"contracts/ergasia.sol\":2682:2694  addCandidate */\n  shl(0x20, tag_26)\n    /* \"contracts/ergasia.sol\":2682:2709  addCandidate(\"Candidate 1\") */\n  0x20\n  shr\n  jump\t// in\ntag_25:\n    /* \"contracts/ergasia.sol\":2719:2746  addCandidate(\"Candidate 2\") */\n  tag_27\n  mload(0x40)\n  dup1\n  0x40\n  add\n  0x40\n  mstore\n  dup1\n  0x0b\n  dup2\n  mstore\n  0x20\n  add\n  0x43616e6469646174652032000000000000000000000000000000000000000000\n  dup2\n  mstore\n  pop\n    /* \"contracts/ergasia.sol\":2719:2731  addCandidate */\n  shl(0x20, tag_26)\n    /* \"contracts/ergasia.sol\":2719:2746  addCandidate(\"Candidate 2\") */\n  0x20\n  shr\n  jump\t// in\ntag_27:\n    /* \"contracts/ergasia.sol\":2756:2783  addCandidate(\"Candidate 3\") */\n  tag_28\n  mload(0x40)\n  dup1\n  0x40\n  add\n  0x40\n  mstore\n  dup1\n  0x0b\n  dup2\n  mstore\n  0x20\n  add\n  0x43616e6469646174652033000000000000000000000000000000000000000000\n  dup2\n  mstore\n  pop\n    /* \"contracts/ergasia.sol\":2756:2768  addCandidate */\n  shl(0x20, tag_26)\n    /* \"contracts/ergasia.sol\":2756:2783  addCandidate(\"Candidate 3\") */\n  0x20\n  shr\n  jump\t// in\ntag_28:\n    /* \"contracts/ergasia.sol\":2793:2820  addCandidate(\"Candidate 4\") */\n  tag_29\n  mload(0x40)\n  dup1\n  0x40\n  add\n  0x40\n  mstore\n  dup1\n  0x0b\n  dup2\n  mstore\n  0x20\n  add\n  0x43616e6469646174652034000000000000000000000000000000000000000000\n  dup2\n  mstore\n  pop\n    /* \"contracts/ergasia.sol\":2793:2805  addCandidate */\n  shl(0x20, tag_26)\n    /* \"contracts/ergasia.sol\":2793:2820  addCandidate(\"Candidate 4\") */\n  0x20\n  shr\n  jump\t// in\ntag_29:\n    /* \"contracts/ergasia.sol\":2830:2857  addCandidate(\"Candidate 5\") */\n  tag_30\n  mload(0x40)\n  dup1\n  0x40\n  add\n  0x40\n  mstore\n  dup1\n  0x0b\n  dup2\n  mstore\n  0x20\n  add\n  0x43616e6469646174652035000000000000000000000000000000000000000000\n  dup2\n  mstore\n  pop\n    /* \"contracts/ergasia.sol\":2830:2842  addCandidate */\n  shl(0x20, tag_26)\n    /* \"contracts/ergasia.sol\":2830:2857  addCandidate(\"Candidate 5\") */\n  0x20\n  shr\n  jump\t// in\ntag_30:\n    /* \"contracts/ergasia.sol\":2637:2864  function initCandidates() internal {... */\n  jump\t// out\n    /* \"contracts/ergasia.sol\":4034:4491  function addPollingStation (string memory _name) private {... */\ntag_14:\n    /* \"contracts/ergasia.sol\":4101:4120  pollingStationCount */\n  0x02\n  0x00\n    /* \"contracts/ergasia.sol\":4101:4122  pollingStationCount++ */\n  dup2\n  sload\n  dup1\n  swap3\n  swap2\n  swap1\n  tag_32\n  swap1\n  tag_33\n  jump\t// in\ntag_32:\n  swap2\n  swap1\n  pop\n  sstore\n  pop\n    /* \"contracts/ergasia.sol\":4244:4278  PollingStation storage pollStation */\n  0x00\n    /* \"contracts/ergasia.sol\":4281:4296  pollingStations */\n  0x08\n    /* \"contracts/ergasia.sol\":4281:4317  pollingStations[pollingStationCount] */\n  0x00\n    /* \"contracts/ergasia.sol\":4297:4316  pollingStationCount */\n  sload(0x02)\n    /* \"contracts/ergasia.sol\":4281:4317  pollingStations[pollingStationCount] */\n  dup2\n  mstore\n  0x20\n  add\n  swap1\n  dup2\n  mstore\n  0x20\n  add\n  0x00\n  keccak256\n    /* \"contracts/ergasia.sol\":4244:4317  PollingStation storage pollStation = pollingStations[pollingStationCount] */\n  swap1\n  pop\n    /* \"contracts/ergasia.sol\":4344:4363  pollingStationCount */\n  sload(0x02)\n    /* \"contracts/ergasia.sol\":4327:4338  pollStation */\n  dup2\n    /* \"contracts/ergasia.sol\":4327:4341  pollStation.id */\n  0x00\n  add\n    /* \"contracts/ergasia.sol\":4327:4363  pollStation.id = pollingStationCount */\n  dup2\n  swap1\n  sstore\n  pop\n    /* \"contracts/ergasia.sol\":4392:4397  _name */\n  dup2\n    /* \"contracts/ergasia.sol\":4373:4384  pollStation */\n  dup2\n    /* \"contracts/ergasia.sol\":4373:4389  pollStation.name */\n  0x01\n  add\n    /* \"contracts/ergasia.sol\":4373:4397  pollStation.name = _name */\n  swap1\n  dup1\n  mload\n  swap1\n  0x20\n  add\n  swap1\n  tag_34\n  swap3\n  swap2\n  swap1\n  tag_35\n  jump\t// in\ntag_34:\n  pop\n    /* \"contracts/ergasia.sol\":4438:4439  0 */\n  0x00\n    /* \"contracts/ergasia.sol\":4407:4418  pollStation */\n  dup2\n    /* \"contracts/ergasia.sol\":4407:4435  pollStation.votersRegistered */\n  0x02\n  add\n    /* \"contracts/ergasia.sol\":4407:4439  pollStation.votersRegistered = 0 */\n  dup2\n  swap1\n  sstore\n  pop\n    /* \"contracts/ergasia.sol\":4475:4476  0 */\n  0x00\n    /* \"contracts/ergasia.sol\":4449:4460  pollStation */\n  dup2\n    /* \"contracts/ergasia.sol\":4449:4472  pollStation.votesCasted */\n  0x03\n  add\n    /* \"contracts/ergasia.sol\":4449:4476  pollStation.votesCasted = 0 */\n  dup2\n  swap1\n  sstore\n  pop\n    /* \"contracts/ergasia.sol\":4091:4491  {... */\n  pop\n    /* \"contracts/ergasia.sol\":4034:4491  function addPollingStation (string memory _name) private {... */\n  pop\n  jump\t// out\n    /* \"contracts/ergasia.sol\":2984:3322  function addCandidate (string memory _name) private {... */\ntag_26:\n    /* \"contracts/ergasia.sol\":3046:3061  candidatesCount */\n  0x01\n  0x00\n    /* \"contracts/ergasia.sol\":3046:3063  candidatesCount++ */\n  dup2\n  sload\n  dup1\n  swap3\n  swap2\n  swap1\n  tag_37\n  swap1\n  tag_33\n  jump\t// in\ntag_37:\n  swap2\n  swap1\n  pop\n  sstore\n  pop\n    /* \"contracts/ergasia.sol\":3103:3139  Candidate(candidatesCount, _name, 0) */\n  mload(0x40)\n  dup1\n  0x60\n  add\n  0x40\n  mstore\n  dup1\n    /* \"contracts/ergasia.sol\":3113:3128  candidatesCount */\n  sload(0x01)\n    /* \"contracts/ergasia.sol\":3103:3139  Candidate(candidatesCount, _name, 0) */\n  dup2\n  mstore\n  0x20\n  add\n    /* \"contracts/ergasia.sol\":3130:3135  _name */\n  dup3\n    /* \"contracts/ergasia.sol\":3103:3139  Candidate(candidatesCount, _name, 0) */\n  dup2\n  mstore\n  0x20\n  add\n    /* \"contracts/ergasia.sol\":3137:3138  0 */\n  0x00\n    /* \"contracts/ergasia.sol\":3103:3139  Candidate(candidatesCount, _name, 0) */\n  dup2\n  mstore\n  pop\n    /* \"contracts/ergasia.sol\":3073:3083  candidates */\n  0x06\n    /* \"contracts/ergasia.sol\":3073:3100  candidates[candidatesCount] */\n  0x00\n    /* \"contracts/ergasia.sol\":3084:3099  candidatesCount */\n  sload(0x01)\n    /* \"contracts/ergasia.sol\":3073:3100  candidates[candidatesCount] */\n  dup2\n  mstore\n  0x20\n  add\n  swap1\n  dup2\n  mstore\n  0x20\n  add\n  0x00\n  keccak256\n    /* \"contracts/ergasia.sol\":3073:3139  candidates[candidatesCount] = Candidate(candidatesCount, _name, 0) */\n  0x00\n  dup3\n  add\n  mload\n  dup2\n  0x00\n  add\n  sstore\n  0x20\n  dup3\n  add\n  mload\n  dup2\n  0x01\n  add\n  swap1\n  dup1\n  mload\n  swap1\n  0x20\n  add\n  swap1\n  tag_38\n  swap3\n  swap2\n  swap1\n  tag_35\n  jump\t// in\ntag_38:\n  pop\n  0x40\n  dup3\n  add\n  mload\n  dup2\n  0x02\n  add\n  sstore\n  swap1\n  pop\n  pop\n    /* \"contracts/ergasia.sol\":3155:3161  uint i */\n  0x00\n    /* \"contracts/ergasia.sol\":3164:3165  1 */\n  0x01\n    /* \"contracts/ergasia.sol\":3155:3165  uint i = 1 */\n  swap1\n  pop\n    /* \"contracts/ergasia.sol\":3150:3316  for (uint i = 1; i <= pollingStationCount; i++) {... */\ntag_39:\n    /* \"contracts/ergasia.sol\":3172:3191  pollingStationCount */\n  sload(0x02)\n    /* \"contracts/ergasia.sol\":3167:3168  i */\n  dup2\n    /* \"contracts/ergasia.sol\":3167:3191  i <= pollingStationCount */\n  gt\n    /* \"contracts/ergasia.sol\":3150:3316  for (uint i = 1; i <= pollingStationCount; i++) {... */\n  tag_40\n  jumpi\n    /* \"contracts/ergasia.sol\":3269:3305  Candidate(candidatesCount, _name, 0) */\n  mload(0x40)\n  dup1\n  0x60\n  add\n  0x40\n  mstore\n  dup1\n    /* \"contracts/ergasia.sol\":3279:3294  candidatesCount */\n  sload(0x01)\n    /* \"contracts/ergasia.sol\":3269:3305  Candidate(candidatesCount, _name, 0) */\n  dup2\n  mstore\n  0x20\n  add\n    /* \"contracts/ergasia.sol\":3296:3301  _name */\n  dup4\n    /* \"contracts/ergasia.sol\":3269:3305  Candidate(candidatesCount, _name, 0) */\n  dup2\n  mstore\n  0x20\n  add\n    /* \"contracts/ergasia.sol\":3303:3304  0 */\n  0x00\n    /* \"contracts/ergasia.sol\":3269:3305  Candidate(candidatesCount, _name, 0) */\n  dup2\n  mstore\n  pop\n    /* \"contracts/ergasia.sol\":3212:3227  pollingStations */\n  0x08\n    /* \"contracts/ergasia.sol\":3212:3230  pollingStations[i] */\n  0x00\n    /* \"contracts/ergasia.sol\":3228:3229  i */\n  dup4\n    /* \"contracts/ergasia.sol\":3212:3230  pollingStations[i] */\n  dup2\n  mstore\n  0x20\n  add\n  swap1\n  dup2\n  mstore\n  0x20\n  add\n  0x00\n  keccak256\n    /* \"contracts/ergasia.sol\":3212:3249  pollingStations[i].scoresPerCandidate */\n  0x04\n  add\n    /* \"contracts/ergasia.sol\":3212:3266  pollingStations[i].scoresPerCandidate[candidatesCount] */\n  0x00\n    /* \"contracts/ergasia.sol\":3250:3265  candidatesCount */\n  sload(0x01)\n    /* \"contracts/ergasia.sol\":3212:3266  pollingStations[i].scoresPerCandidate[candidatesCount] */\n  dup2\n  mstore\n  0x20\n  add\n  swap1\n  dup2\n  mstore\n  0x20\n  add\n  0x00\n  keccak256\n    /* \"contracts/ergasia.sol\":3212:3305  pollingStations[i].scoresPerCandidate[candidatesCount] = Candidate(candidatesCount, _name, 0) */\n  0x00\n  dup3\n  add\n  mload\n  dup2\n  0x00\n  add\n  sstore\n  0x20\n  dup3\n  add\n  mload\n  dup2\n  0x01\n  add\n  swap1\n  dup1\n  mload\n  swap1\n  0x20\n  add\n  swap1\n  tag_42\n  swap3\n  swap2\n  swap1\n  tag_35\n  jump\t// in\ntag_42:\n  pop\n  0x40\n  dup3\n  add\n  mload\n  dup2\n  0x02\n  add\n  sstore\n  swap1\n  pop\n  pop\n    /* \"contracts/ergasia.sol\":3193:3196  i++ */\n  dup1\n  dup1\n  tag_43\n  swap1\n  tag_33\n  jump\t// in\ntag_43:\n  swap2\n  pop\n  pop\n    /* \"contracts/ergasia.sol\":3150:3316  for (uint i = 1; i <= pollingStationCount; i++) {... */\n  jump(tag_39)\ntag_40:\n  pop\n    /* \"contracts/ergasia.sol\":2984:3322  function addCandidate (string memory _name) private {... */\n  pop\n  jump\t// out\n    /* \"contracts/ergasia.sol\":70:7630  contract Election {... */\ntag_35:\n  dup3\n  dup1\n  sload\n  tag_44\n  swap1\n  tag_45\n  jump\t// in\ntag_44:\n  swap1\n  0x00\n  mstore\n  keccak256(0x00, 0x20)\n  swap1\n  0x1f\n  add\n  0x20\n  swap1\n  div\n  dup2\n  add\n  swap3\n  dup3\n  tag_47\n  jumpi\n  0x00\n  dup6\n  sstore\n  jump(tag_46)\ntag_47:\n  dup3\n  0x1f\n  lt\n  tag_48\n  jumpi\n  dup1\n  mload\n  not(0xff)\n  and\n  dup4\n  dup1\n  add\n  or\n  dup6\n  sstore\n  jump(tag_46)\ntag_48:\n  dup3\n  dup1\n  add\n  0x01\n  add\n  dup6\n  sstore\n  dup3\n  iszero\n  tag_46\n  jumpi\n  swap2\n  dup3\n  add\ntag_49:\n  dup3\n  dup2\n  gt\n  iszero\n  tag_50\n  jumpi\n  dup3\n  mload\n  dup3\n  sstore\n  swap2\n  0x20\n  add\n  swap2\n  swap1\n  0x01\n  add\n  swap1\n  jump(tag_49)\ntag_50:\ntag_46:\n  pop\n  swap1\n  pop\n  tag_51\n  swap2\n  swap1\n  tag_52\n  jump\t// in\ntag_51:\n  pop\n  swap1\n  jump\t// out\ntag_52:\ntag_53:\n  dup1\n  dup3\n  gt\n  iszero\n  tag_54\n  jumpi\n  0x00\n  dup2\n  0x00\n  swap1\n  sstore\n  pop\n  0x01\n  add\n  jump(tag_53)\ntag_54:\n  pop\n  swap1\n  jump\t// out\n    /* \"#utility.yul\":7:84   */\ntag_56:\n    /* \"#utility.yul\":44:51   */\n  0x00\n    /* \"#utility.yul\":73:78   */\n  dup2\n    /* \"#utility.yul\":62:78   */\n  swap1\n  pop\n    /* \"#utility.yul\":7:84   */\n  swap2\n  swap1\n  pop\n  jump\t// out\n    /* \"#utility.yul\":90:410   */\ntag_45:\n    /* \"#utility.yul\":134:140   */\n  0x00\n    /* \"#utility.yul\":171:172   */\n  0x02\n    /* \"#utility.yul\":165:169   */\n  dup3\n    /* \"#utility.yul\":161:173   */\n  div\n    /* \"#utility.yul\":151:173   */\n  swap1\n  pop\n    /* \"#utility.yul\":218:219   */\n  0x01\n    /* \"#utility.yul\":212:216   */\n  dup3\n    /* \"#utility.yul\":208:220   */\n  and\n    /* \"#utility.yul\":239:257   */\n  dup1\n    /* \"#utility.yul\":229:310   */\n  tag_59\n  jumpi\n    /* \"#utility.yul\":295:299   */\n  0x7f\n    /* \"#utility.yul\":287:293   */\n  dup3\n    /* \"#utility.yul\":283:300   */\n  and\n    /* \"#utility.yul\":273:300   */\n  swap2\n  pop\n    /* \"#utility.yul\":229:310   */\ntag_59:\n    /* \"#utility.yul\":357:359   */\n  0x20\n    /* \"#utility.yul\":349:355   */\n  dup3\n    /* \"#utility.yul\":346:360   */\n  lt\n    /* \"#utility.yul\":326:344   */\n  dup2\n    /* \"#utility.yul\":323:361   */\n  eq\n    /* \"#utility.yul\":320:404   */\n  iszero\n  tag_60\n  jumpi\n    /* \"#utility.yul\":376:394   */\n  tag_61\n  tag_62\n  jump\t// in\ntag_61:\n    /* \"#utility.yul\":320:404   */\ntag_60:\n    /* \"#utility.yul\":141:410   */\n  pop\n    /* \"#utility.yul\":90:410   */\n  swap2\n  swap1\n  pop\n  jump\t// out\n    /* \"#utility.yul\":416:649   */\ntag_33:\n    /* \"#utility.yul\":455:458   */\n  0x00\n    /* \"#utility.yul\":478:502   */\n  tag_64\n    /* \"#utility.yul\":496:501   */\n  dup3\n    /* \"#utility.yul\":478:502   */\n  tag_56\n  jump\t// in\ntag_64:\n    /* \"#utility.yul\":469:502   */\n  swap2\n  pop\n    /* \"#utility.yul\":524:590   */\n  0xffffffffffffffffffffffffffffffffffffffffffffffffffffffffffffffff\n    /* \"#utility.yul\":517:522   */\n  dup3\n    /* \"#utility.yul\":514:591   */\n  eq\n    /* \"#utility.yul\":511:614   */\n  iszero\n  tag_65\n  jumpi\n    /* \"#utility.yul\":594:612   */\n  tag_66\n  tag_67\n  jump\t// in\ntag_66:\n    /* \"#utility.yul\":511:614   */\ntag_65:\n    /* \"#utility.yul\":641:642   */\n  0x01\n    /* \"#utility.yul\":634:639   */\n  dup3\n    /* \"#utility.yul\":630:643   */\n  add\n    /* \"#utility.yul\":623:643   */\n  swap1\n  pop\n    /* \"#utility.yul\":416:649   */\n  swap2\n  swap1\n  pop\n  jump\t// out\n    /* \"#utility.yul\":655:835   */\ntag_67:\n    /* \"#utility.yul\":703:780   */\n  0x4e487b7100000000000000000000000000000000000000000000000000000000\n    /* \"#utility.yul\":700:701   */\n  0x00\n    /* \"#utility.yul\":693:781   */\n  mstore\n    /* \"#utility.yul\":800:804   */\n  0x11\n    /* \"#utility.yul\":797:798   */\n  0x04\n    /* \"#utility.yul\":790:805   */\n  mstore\n    /* \"#utility.yul\":824:828   */\n  0x24\n    /* \"#utility.yul\":821:822   */\n  0x00\n    /* \"#utility.yul\":814:829   */\n  revert\n    /* \"#utility.yul\":841:1021   */\ntag_10:\n    /* \"#utility.yul\":889:966   */\n  0x4e487b7100000000000000000000000000000000000000000000000000000000\n    /* \"#utility.yul\":886:887   */\n  0x00\n    /* \"#utility.yul\":879:967   */\n  mstore\n    /* \"#utility.yul\":986:990   */\n  0x21\n    /* \"#utility.yul\":983:984   */\n  0x04\n    /* \"#utility.yul\":976:991   */\n  mstore\n    /* \"#utility.yul\":1010:1014   */\n  0x24\n    /* \"#utility.yul\":1007:1008   */\n  0x00\n    /* \"#utility.yul\":1000:1015   */\n  revert\n    /* \"#utility.yul\":1027:1207   */\ntag_62:\n    /* \"#utility.yul\":1075:1152   */\n  0x4e487b7100000000000000000000000000000000000000000000000000000000\n    /* \"#utility.yul\":1072:1073   */\n  0x00\n    /* \"#utility.yul\":1065:1153   */\n  mstore\n    /* \"#utility.yul\":1172:1176   */\n  0x22\n    /* \"#utility.yul\":1169:1170   */\n  0x04\n    /* \"#utility.yul\":1162:1177   */\n  mstore\n    /* \"#utility.yul\":1196:1200   */\n  0x24\n    /* \"#utility.yul\":1193:1194   */\n  0x00\n    /* \"#utility.yul\":1186:1201   */\n  revert\n    /* \"contracts/ergasia.sol\":70:7630  contract Election {... */\ntag_11:\n  dataSize(sub_0)\n  dup1\n  dataOffset(sub_0)\n  0x00\n  codecopy\n  0x00\n  return\nstop\n\nsub_0: assembly {\n        /* \"contracts/ergasia.sol\":70:7630  contract Election {... */\n      mstore(0x40, 0x80)\n      callvalue\n      dup1\n      iszero\n      tag_1\n      jumpi\n      0x00\n      dup1\n      revert\n    tag_1:\n      pop\n      jumpi(tag_2, lt(calldatasize, 0x04))\n      shr(0xe0, calldataload(0x00))\n      dup1\n      0xa3ec138d\n      gt\n      tag_19\n      jumpi\n      dup1\n      0xdb3bd5fd\n      gt\n      tag_20\n      jumpi\n      dup1\n      0xdb3bd5fd\n      eq\n      tag_15\n      jumpi\n      dup1\n      0xdf9f1a07\n      eq\n      tag_16\n      jumpi\n      dup1\n      0xf3a8286f\n      eq\n      tag_17\n      jumpi\n      dup1\n      0xfe2442d7\n      eq\n      tag_18\n      jumpi\n      jump(tag_2)\n    tag_20:\n      dup1\n      0xa3ec138d\n      eq\n      tag_11\n      jumpi\n      dup1\n      0xb9223946\n      eq\n      tag_12\n      jumpi\n      dup1\n      0xb9f05f2f\n      eq\n      tag_13\n      jumpi\n      dup1\n      0xc19d93fb\n      eq\n      tag_14\n      jumpi\n      jump(tag_2)\n    tag_19:\n      dup1\n      0x3477ee2e\n      gt\n      tag_21\n      jumpi\n      dup1\n      0x3477ee2e\n      eq\n      tag_7\n      jumpi\n      dup1\n      0x4763d4e7\n      eq\n      tag_8\n      jumpi\n      dup1\n      0x53357ad0\n      eq\n      tag_9\n      jumpi\n      dup1\n      0x62d73eb8\n      eq\n      tag_10\n      jumpi\n      jump(tag_2)\n    tag_21:\n      dup1\n      0xaa7464\n      eq\n      tag_3\n      jumpi\n      dup1\n      0x1ec6b60a\n      eq\n      tag_4\n      jumpi\n      dup1\n      0x2c0a3f89\n      eq\n      tag_5\n      jumpi\n      dup1\n      0x2d35a8a2\n      eq\n      tag_6\n      jumpi\n    tag_2:\n      0x00\n      dup1\n      revert\n        /* \"contracts/ergasia.sol\":1418:1451  uint public totalRegisteredVoters */\n    tag_3:\n      tag_22\n      tag_23\n      jump\t// in\n    tag_22:\n      mload(0x40)\n      tag_24\n      swap2\n      swap1\n      tag_25\n      jump\t// in\n    tag_24:\n      mload(0x40)\n      dup1\n      swap2\n      sub\n      swap1\n      return\n        /* \"contracts/ergasia.sol\":6372:6468  function startVoting() public inState(State.Started) Owner {... */\n    tag_4:\n      tag_26\n      tag_27\n      jump\t// in\n    tag_26:\n      stop\n        /* \"contracts/ergasia.sol\":6475:7286  function castVote(uint _choice, uint _pollingStationID) public inState(State.Voting) returns (bool voted) {... */\n    tag_5:\n      tag_28\n      0x04\n      dup1\n      calldatasize\n      sub\n      dup2\n      add\n      swap1\n      tag_29\n      swap2\n      swap1\n      tag_30\n      jump\t// in\n    tag_29:\n      tag_31\n      jump\t// in\n    tag_28:\n      mload(0x40)\n      tag_32\n      swap2\n      swap1\n      tag_33\n      jump\t// in\n    tag_32:\n      mload(0x40)\n      dup1\n      swap2\n      sub\n      swap1\n      return\n        /* \"contracts/ergasia.sol\":1276:1303  uint public candidatesCount */\n    tag_6:\n      tag_34\n      tag_35\n      jump\t// in\n    tag_34:\n      mload(0x40)\n      tag_36\n      swap2\n      swap1\n      tag_25\n      jump\t// in\n    tag_36:\n      mload(0x40)\n      dup1\n      swap2\n      sub\n      swap1\n      return\n        /* \"contracts/ergasia.sol\":1621:1665  mapping(uint => Candidate) public candidates */\n    tag_7:\n      tag_37\n      0x04\n      dup1\n      calldatasize\n      sub\n      dup2\n      add\n      swap1\n      tag_38\n      swap2\n      swap1\n      tag_39\n      jump\t// in\n    tag_38:\n      tag_40\n      jump\t// in\n    tag_37:\n      mload(0x40)\n      tag_41\n      swap4\n      swap3\n      swap2\n      swap1\n      tag_42\n      jump\t// in\n    tag_41:\n      mload(0x40)\n      dup1\n      swap2\n      sub\n      swap1\n      return\n        /* \"contracts/ergasia.sol\":1880:1926  mapping(address => Voter) public voterRegistry */\n    tag_8:\n      tag_43\n      0x04\n      dup1\n      calldatasize\n      sub\n      dup2\n      add\n      swap1\n      tag_44\n      swap2\n      swap1\n      tag_45\n      jump\t// in\n    tag_44:\n      tag_46\n      jump\t// in\n    tag_43:\n      mload(0x40)\n      tag_47\n      swap6\n      swap5\n      swap4\n      swap3\n      swap2\n      swap1\n      tag_48\n      jump\t// in\n    tag_47:\n      mload(0x40)\n      dup1\n      swap2\n      sub\n      swap1\n      return\n        /* \"contracts/ergasia.sol\":1242:1270  address public electionOwner */\n    tag_9:\n      tag_49\n      tag_50\n      jump\t// in\n    tag_49:\n      mload(0x40)\n      tag_51\n      swap2\n      swap1\n      tag_52\n      jump\t// in\n    tag_51:\n      mload(0x40)\n      dup1\n      swap2\n      sub\n      swap1\n      return\n        /* \"contracts/ergasia.sol\":6162:6261  function startElection() public inState(State.Created) Owner {... */\n    tag_10:\n      tag_53\n      tag_54\n      jump\t// in\n    tag_53:\n      stop\n        /* \"contracts/ergasia.sol\":1932:1970  mapping(address => bool) public voters */\n    tag_11:\n      tag_55\n      0x04\n      dup1\n      calldatasize\n      sub\n      dup2\n      add\n      swap1\n      tag_56\n      swap2\n      swap1\n      tag_45\n      jump\t// in\n    tag_56:\n      tag_57\n      jump\t// in\n    tag_55:\n      mload(0x40)\n      tag_58\n      swap2\n      swap1\n      tag_33\n      jump\t// in\n    tag_58:\n      mload(0x40)\n      dup1\n      swap2\n      sub\n      swap1\n      return\n        /* \"contracts/ergasia.sol\":7292:7418  function endVote() public inState(State.Voting) Owner { ... */\n    tag_12:\n      tag_59\n      tag_60\n      jump\t// in\n    tag_59:\n      stop\n        /* \"contracts/ergasia.sol\":4715:5635  function addVoter(address _voterAddress, uint _pollingStationID) public inState(State.Created) Owner {... */\n    tag_13:\n      tag_61\n      0x04\n      dup1\n      calldatasize\n      sub\n      dup2\n      add\n      swap1\n      tag_62\n      swap2\n      swap1\n      tag_63\n      jump\t// in\n    tag_62:\n      tag_64\n      jump\t// in\n    tag_61:\n      stop\n        /* \"contracts/ergasia.sol\":2032:2050  State public state */\n    tag_14:\n      tag_65\n      tag_66\n      jump\t// in\n    tag_65:\n      mload(0x40)\n      tag_67\n      swap2\n      swap1\n      tag_68\n      jump\t// in\n    tag_67:\n      mload(0x40)\n      dup1\n      swap2\n      sub\n      swap1\n      return\n        /* \"contracts/ergasia.sol\":7424:7627  function getResultsPerStationPerCandidate(uint _pStationID, uint _candidateID) public view returns (Candidate memory) {... */\n    tag_15:\n      tag_69\n      0x04\n      dup1\n      calldatasize\n      sub\n      dup2\n      add\n      swap1\n      tag_70\n      swap2\n      swap1\n      tag_30\n      jump\t// in\n    tag_70:\n      tag_71\n      jump\t// in\n    tag_69:\n      mload(0x40)\n      tag_72\n      swap2\n      swap1\n      tag_73\n      jump\t// in\n    tag_72:\n      mload(0x40)\n      dup1\n      swap2\n      sub\n      swap1\n      return\n        /* \"contracts/ergasia.sol\":1344:1375  uint public pollingStationCount */\n    tag_16:\n      tag_74\n      tag_75\n      jump\t// in\n    tag_74:\n      mload(0x40)\n      tag_76\n      swap2\n      swap1\n      tag_25\n      jump\t// in\n    tag_76:\n      mload(0x40)\n      dup1\n      swap2\n      sub\n      swap1\n      return\n        /* \"contracts/ergasia.sol\":1539:1562  uint public finalResult */\n    tag_17:\n      tag_77\n      tag_78\n      jump\t// in\n    tag_77:\n      mload(0x40)\n      tag_79\n      swap2\n      swap1\n      tag_25\n      jump\t// in\n    tag_79:\n      mload(0x40)\n      dup1\n      swap2\n      sub\n      swap1\n      return\n        /* \"contracts/ergasia.sol\":1794:1848  mapping(uint => PollingStation) public pollingStations */\n    tag_18:\n      tag_80\n      0x04\n      dup1\n      calldatasize\n      sub\n      dup2\n      add\n      swap1\n      tag_81\n      swap2\n      swap1\n      tag_39\n      jump\t// in\n    tag_81:\n      tag_82\n      jump\t// in\n    tag_80:\n      mload(0x40)\n      tag_83\n      swap5\n      swap4\n      swap3\n      swap2\n      swap1\n      tag_84\n      jump\t// in\n    tag_83:\n      mload(0x40)\n      dup1\n      swap2\n      sub\n      swap1\n      return\n        /* \"contracts/ergasia.sol\":1418:1451  uint public totalRegisteredVoters */\n    tag_23:\n      sload(0x03)\n      dup2\n      jump\t// out\n        /* \"contracts/ergasia.sol\":6372:6468  function startVoting() public inState(State.Started) Owner {... */\n    tag_27:\n        /* \"contracts/ergasia.sol\":6410:6423  State.Started */\n      0x01\n        /* \"contracts/ergasia.sol\":2202:2208  _state */\n      dup1\n        /* \"contracts/ergasia.sol\":2193:2208  state == _state */\n      0x03\n      dup2\n      gt\n      iszero\n      tag_86\n      jumpi\n      tag_87\n      tag_88\n      jump\t// in\n    tag_87:\n    tag_86:\n        /* \"contracts/ergasia.sol\":2193:2198  state */\n      0x0b\n      0x00\n      swap1\n      sload\n      swap1\n      0x0100\n      exp\n      swap1\n      div\n      0xff\n      and\n        /* \"contracts/ergasia.sol\":2193:2208  state == _state */\n      0x03\n      dup2\n      gt\n      iszero\n      tag_89\n      jumpi\n      tag_90\n      tag_88\n      jump\t// in\n    tag_90:\n    tag_89:\n      eq\n        /* \"contracts/ergasia.sol\":2185:2209  require(state == _state) */\n      tag_91\n      jumpi\n      0x00\n      dup1\n      revert\n    tag_91:\n        /* \"contracts/ergasia.sol\":2106:2119  electionOwner */\n      0x00\n      dup1\n      sload\n      swap1\n      0x0100\n      exp\n      swap1\n      div\n      0xffffffffffffffffffffffffffffffffffffffff\n      and\n        /* \"contracts/ergasia.sol\":2092:2119  msg.sender == electionOwner */\n      0xffffffffffffffffffffffffffffffffffffffff\n      and\n        /* \"contracts/ergasia.sol\":2092:2102  msg.sender */\n      caller\n        /* \"contracts/ergasia.sol\":2092:2119  msg.sender == electionOwner */\n      0xffffffffffffffffffffffffffffffffffffffff\n      and\n      eq\n        /* \"contracts/ergasia.sol\":2084:2120  require(msg.sender == electionOwner) */\n      tag_93\n      jumpi\n      0x00\n      dup1\n      revert\n    tag_93:\n        /* \"contracts/ergasia.sol\":6449:6461  State.Voting */\n      0x02\n        /* \"contracts/ergasia.sol\":6441:6446  state */\n      0x0b\n      0x00\n        /* \"contracts/ergasia.sol\":6441:6461  state = State.Voting */\n      0x0100\n      exp\n      dup2\n      sload\n      dup2\n      0xff\n      mul\n      not\n      and\n      swap1\n      dup4\n      0x03\n      dup2\n      gt\n      iszero\n      tag_95\n      jumpi\n      tag_96\n      tag_88\n      jump\t// in\n    tag_96:\n    tag_95:\n      mul\n      or\n      swap1\n      sstore\n      pop\n        /* \"contracts/ergasia.sol\":6372:6468  function startVoting() public inState(State.Started) Owner {... */\n      pop\n      jump\t// out\n        /* \"contracts/ergasia.sol\":6475:7286  function castVote(uint _choice, uint _pollingStationID) public inState(State.Voting) returns (bool voted) {... */\n    tag_31:\n        /* \"contracts/ergasia.sol\":6569:6579  bool voted */\n      0x00\n        /* \"contracts/ergasia.sol\":6546:6558  State.Voting */\n      0x02\n        /* \"contracts/ergasia.sol\":2202:2208  _state */\n      dup1\n        /* \"contracts/ergasia.sol\":2193:2208  state == _state */\n      0x03\n      dup2\n      gt\n      iszero\n      tag_98\n      jumpi\n      tag_99\n      tag_88\n      jump\t// in\n    tag_99:\n    tag_98:\n        /* \"contracts/ergasia.sol\":2193:2198  state */\n      0x0b\n      0x00\n      swap1\n      sload\n      swap1\n      0x0100\n      exp\n      swap1\n      div\n      0xff\n      and\n        /* \"contracts/ergasia.sol\":2193:2208  state == _state */\n      0x03\n      dup2\n      gt\n      iszero\n      tag_100\n      jumpi\n      tag_101\n      tag_88\n      jump\t// in\n    tag_101:\n    tag_100:\n      eq\n        /* \"contracts/ergasia.sol\":2185:2209  require(state == _state) */\n      tag_102\n      jumpi\n      0x00\n      dup1\n      revert\n    tag_102:\n        /* \"contracts/ergasia.sol\":6592:6602  bool found */\n      0x00\n        /* \"contracts/ergasia.sol\":6625:6638  voterRegistry */\n      0x09\n        /* \"contracts/ergasia.sol\":6625:6650  voterRegistry[msg.sender] */\n      0x00\n        /* \"contracts/ergasia.sol\":6639:6649  msg.sender */\n      caller\n        /* \"contracts/ergasia.sol\":6625:6650  voterRegistry[msg.sender] */\n      0xffffffffffffffffffffffffffffffffffffffff\n      and\n      0xffffffffffffffffffffffffffffffffffffffff\n      and\n      dup2\n      mstore\n      0x20\n      add\n      swap1\n      dup2\n      mstore\n      0x20\n      add\n      0x00\n      keccak256\n        /* \"contracts/ergasia.sol\":6625:6661  voterRegistry[msg.sender].isEnrolled */\n      0x00\n      add\n      0x00\n      swap1\n      sload\n      swap1\n      0x0100\n      exp\n      swap1\n      div\n      0xff\n      and\n        /* \"contracts/ergasia.sol\":6625:6700  voterRegistry[msg.sender].isEnrolled && !voterRegistry[msg.sender].hasVoted */\n      dup1\n      iszero\n      tag_104\n      jumpi\n      pop\n        /* \"contracts/ergasia.sol\":6666:6679  voterRegistry */\n      0x09\n        /* \"contracts/ergasia.sol\":6666:6691  voterRegistry[msg.sender] */\n      0x00\n        /* \"contracts/ergasia.sol\":6680:6690  msg.sender */\n      caller\n        /* \"contracts/ergasia.sol\":6666:6691  voterRegistry[msg.sender] */\n      0xffffffffffffffffffffffffffffffffffffffff\n      and\n      0xffffffffffffffffffffffffffffffffffffffff\n      and\n      dup2\n      mstore\n      0x20\n      add\n      swap1\n      dup2\n      mstore\n      0x20\n      add\n      0x00\n      keccak256\n        /* \"contracts/ergasia.sol\":6666:6700  voterRegistry[msg.sender].hasVoted */\n      0x00\n      add\n      0x01\n      swap1\n      sload\n      swap1\n      0x0100\n      exp\n      swap1\n      div\n      0xff\n      and\n        /* \"contracts/ergasia.sol\":6665:6700  !voterRegistry[msg.sender].hasVoted */\n      iszero\n        /* \"contracts/ergasia.sol\":6625:6700  voterRegistry[msg.sender].isEnrolled && !voterRegistry[msg.sender].hasVoted */\n    tag_104:\n        /* \"contracts/ergasia.sol\":6621:7258  if (voterRegistry[msg.sender].isEnrolled && !voterRegistry[msg.sender].hasVoted) {... */\n      iszero\n      tag_105\n      jumpi\n        /* \"contracts/ergasia.sol\":6752:6759  _choice */\n      dup5\n        /* \"contracts/ergasia.sol\":6717:6730  voterRegistry */\n      0x09\n        /* \"contracts/ergasia.sol\":6717:6742  voterRegistry[msg.sender] */\n      0x00\n        /* \"contracts/ergasia.sol\":6731:6741  msg.sender */\n      caller\n        /* \"contracts/ergasia.sol\":6717:6742  voterRegistry[msg.sender] */\n      0xffffffffffffffffffffffffffffffffffffffff\n      and\n      0xffffffffffffffffffffffffffffffffffffffff\n      and\n      dup2\n      mstore\n      0x20\n      add\n      swap1\n      dup2\n      mstore\n      0x20\n      add\n      0x00\n      keccak256\n        /* \"contracts/ergasia.sol\":6717:6749  voterRegistry[msg.sender].choice */\n      0x01\n      add\n        /* \"contracts/ergasia.sol\":6717:6759  voterRegistry[msg.sender].choice = _choice */\n      dup2\n      swap1\n      sstore\n      pop\n        /* \"contracts/ergasia.sol\":6823:6840  _pollingStationID */\n      dup4\n        /* \"contracts/ergasia.sol\":6773:6786  voterRegistry */\n      0x09\n        /* \"contracts/ergasia.sol\":6773:6798  voterRegistry[msg.sender] */\n      0x00\n        /* \"contracts/ergasia.sol\":6787:6797  msg.sender */\n      caller\n        /* \"contracts/ergasia.sol\":6773:6798  voterRegistry[msg.sender] */\n      0xffffffffffffffffffffffffffffffffffffffff\n      and\n      0xffffffffffffffffffffffffffffffffffffffff\n      and\n      dup2\n      mstore\n      0x20\n      add\n      swap1\n      dup2\n      mstore\n      0x20\n      add\n      0x00\n      keccak256\n        /* \"contracts/ergasia.sol\":6773:6820  voterRegistry[msg.sender].votedPollingStationID */\n      0x03\n      add\n        /* \"contracts/ergasia.sol\":6773:6840  voterRegistry[msg.sender].votedPollingStationID = _pollingStationID */\n      dup2\n      swap1\n      sstore\n      pop\n        /* \"contracts/ergasia.sol\":6891:6895  true */\n      0x01\n        /* \"contracts/ergasia.sol\":6854:6867  voterRegistry */\n      0x09\n        /* \"contracts/ergasia.sol\":6854:6879  voterRegistry[msg.sender] */\n      0x00\n        /* \"contracts/ergasia.sol\":6868:6878  msg.sender */\n      caller\n        /* \"contracts/ergasia.sol\":6854:6879  voterRegistry[msg.sender] */\n      0xffffffffffffffffffffffffffffffffffffffff\n      and\n      0xffffffffffffffffffffffffffffffffffffffff\n      and\n      dup2\n      mstore\n      0x20\n      add\n      swap1\n      dup2\n      mstore\n      0x20\n      add\n      0x00\n      keccak256\n        /* \"contracts/ergasia.sol\":6854:6888  voterRegistry[msg.sender].hasVoted */\n      0x00\n      add\n      0x01\n        /* \"contracts/ergasia.sol\":6854:6895  voterRegistry[msg.sender].hasVoted = true */\n      0x0100\n      exp\n      dup2\n      sload\n      dup2\n      0xff\n      mul\n      not\n      and\n      swap1\n      dup4\n      iszero\n      iszero\n      mul\n      or\n      swap1\n      sstore\n      pop\n        /* \"contracts/ergasia.sol\":6910:6925  pollingStations */\n      0x08\n        /* \"contracts/ergasia.sol\":6910:6944  pollingStations[_pollingStationID] */\n      0x00\n        /* \"contracts/ergasia.sol\":6926:6943  _pollingStationID */\n      dup6\n        /* \"contracts/ergasia.sol\":6910:6944  pollingStations[_pollingStationID] */\n      dup2\n      mstore\n      0x20\n      add\n      swap1\n      dup2\n      mstore\n      0x20\n      add\n      0x00\n      keccak256\n        /* \"contracts/ergasia.sol\":6910:6956  pollingStations[_pollingStationID].votesCasted */\n      0x03\n      add\n      0x00\n        /* \"contracts/ergasia.sol\":6910:6958  pollingStations[_pollingStationID].votesCasted++ */\n      dup2\n      sload\n      dup1\n      swap3\n      swap2\n      swap1\n      tag_106\n      swap1\n      tag_107\n      jump\t// in\n    tag_106:\n      swap2\n      swap1\n      pop\n      sstore\n      pop\n        /* \"contracts/ergasia.sol\":6973:6983  candidates */\n      0x06\n        /* \"contracts/ergasia.sol\":6973:6992  candidates[_choice] */\n      0x00\n        /* \"contracts/ergasia.sol\":6984:6991  _choice */\n      dup7\n        /* \"contracts/ergasia.sol\":6973:6992  candidates[_choice] */\n      dup2\n      mstore\n      0x20\n      add\n      swap1\n      dup2\n      mstore\n      0x20\n      add\n      0x00\n      keccak256\n        /* \"contracts/ergasia.sol\":6973:6998  candidates[_choice].votes */\n      0x02\n      add\n      0x00\n        /* \"contracts/ergasia.sol\":6973:7000  candidates[_choice].votes++ */\n      dup2\n      sload\n      dup1\n      swap3\n      swap2\n      swap1\n      tag_108\n      swap1\n      tag_107\n      jump\t// in\n    tag_108:\n      swap2\n      swap1\n      pop\n      sstore\n      pop\n        /* \"contracts/ergasia.sol\":7015:7026  countResult */\n      0x04\n      0x00\n        /* \"contracts/ergasia.sol\":7015:7028  countResult++ */\n      dup2\n      sload\n      dup1\n      swap3\n      swap2\n      swap1\n      tag_109\n      swap1\n      tag_107\n      jump\t// in\n    tag_109:\n      swap2\n      swap1\n      pop\n      sstore\n      pop\n        /* \"contracts/ergasia.sol\":7050:7054  true */\n      0x01\n        /* \"contracts/ergasia.sol\":7042:7054  found = true */\n      swap1\n      pop\n        /* \"contracts/ergasia.sol\":7089:7094  found */\n      dup1\n        /* \"contracts/ergasia.sol\":7068:7074  voters */\n      0x0a\n        /* \"contracts/ergasia.sol\":7068:7086  voters[msg.sender] */\n      0x00\n        /* \"contracts/ergasia.sol\":7075:7085  msg.sender */\n      caller\n        /* \"contracts/ergasia.sol\":7068:7086  voters[msg.sender] */\n      0xffffffffffffffffffffffffffffffffffffffff\n      and\n      0xffffffffffffffffffffffffffffffffffffffff\n      and\n      dup2\n      mstore\n      0x20\n      add\n      swap1\n      dup2\n      mstore\n      0x20\n      add\n      0x00\n      keccak256\n      0x00\n        /* \"contracts/ergasia.sol\":7068:7094  voters[msg.sender] = found */\n      0x0100\n      exp\n      dup2\n      sload\n      dup2\n      0xff\n      mul\n      not\n      and\n      swap1\n      dup4\n      iszero\n      iszero\n      mul\n      or\n      swap1\n      sstore\n      pop\n        /* \"contracts/ergasia.sol\":7181:7182  1 */\n      0x01\n        /* \"contracts/ergasia.sol\":7109:7124  pollingStations */\n      0x08\n        /* \"contracts/ergasia.sol\":7109:7143  pollingStations[_pollingStationID] */\n      0x00\n        /* \"contracts/ergasia.sol\":7125:7142  _pollingStationID */\n      dup7\n        /* \"contracts/ergasia.sol\":7109:7143  pollingStations[_pollingStationID] */\n      dup2\n      mstore\n      0x20\n      add\n      swap1\n      dup2\n      mstore\n      0x20\n      add\n      0x00\n      keccak256\n        /* \"contracts/ergasia.sol\":7109:7162  pollingStations[_pollingStationID].scoresPerCandidate */\n      0x04\n      add\n        /* \"contracts/ergasia.sol\":7109:7171  pollingStations[_pollingStationID].scoresPerCandidate[_choice] */\n      0x00\n        /* \"contracts/ergasia.sol\":7163:7170  _choice */\n      dup8\n        /* \"contracts/ergasia.sol\":7109:7171  pollingStations[_pollingStationID].scoresPerCandidate[_choice] */\n      dup2\n      mstore\n      0x20\n      add\n      swap1\n      dup2\n      mstore\n      0x20\n      add\n      0x00\n      keccak256\n        /* \"contracts/ergasia.sol\":7109:7177  pollingStations[_pollingStationID].scoresPerCandidate[_choice].votes */\n      0x02\n      add\n      0x00\n        /* \"contracts/ergasia.sol\":7109:7182  pollingStations[_pollingStationID].scoresPerCandidate[_choice].votes += 1 */\n      dup3\n      dup3\n      sload\n      tag_110\n      swap2\n      swap1\n      tag_111\n      jump\t// in\n    tag_110:\n      swap3\n      pop\n      pop\n      dup2\n      swap1\n      sstore\n      pop\n        /* \"contracts/ergasia.sol\":7202:7247  VoteCasted(found, _choice, _pollingStationID) */\n      0x29a25b3d0b6ff7e5de2a60a2e8e76d1bdaf4894ec18c598cc1687213f442c5cb\n        /* \"contracts/ergasia.sol\":7213:7218  found */\n      dup2\n        /* \"contracts/ergasia.sol\":7220:7227  _choice */\n      dup7\n        /* \"contracts/ergasia.sol\":7229:7246  _pollingStationID */\n      dup7\n        /* \"contracts/ergasia.sol\":7202:7247  VoteCasted(found, _choice, _pollingStationID) */\n      mload(0x40)\n      tag_112\n      swap4\n      swap3\n      swap2\n      swap1\n      tag_113\n      jump\t// in\n    tag_112:\n      mload(0x40)\n      dup1\n      swap2\n      sub\n      swap1\n      log1\n        /* \"contracts/ergasia.sol\":6621:7258  if (voterRegistry[msg.sender].isEnrolled && !voterRegistry[msg.sender].hasVoted) {... */\n    tag_105:\n        /* \"contracts/ergasia.sol\":7274:7279  found */\n      dup1\n        /* \"contracts/ergasia.sol\":7267:7279  return found */\n      swap3\n      pop\n      pop\n        /* \"contracts/ergasia.sol\":6475:7286  function castVote(uint _choice, uint _pollingStationID) public inState(State.Voting) returns (bool voted) {... */\n      pop\n      swap3\n      swap2\n      pop\n      pop\n      jump\t// out\n        /* \"contracts/ergasia.sol\":1276:1303  uint public candidatesCount */\n    tag_35:\n      sload(0x01)\n      dup2\n      jump\t// out\n        /* \"contracts/ergasia.sol\":1621:1665  mapping(uint => Candidate) public candidates */\n    tag_40:\n      mstore(0x20, 0x06)\n      dup1\n      0x00\n      mstore\n      keccak256(0x00, 0x40)\n      0x00\n      swap2\n      pop\n      swap1\n      pop\n      dup1\n      0x00\n      add\n      sload\n      swap1\n      dup1\n      0x01\n      add\n      dup1\n      sload\n      tag_114\n      swap1\n      tag_115\n      jump\t// in\n    tag_114:\n      dup1\n      0x1f\n      add\n      0x20\n      dup1\n      swap2\n      div\n      mul\n      0x20\n      add\n      mload(0x40)\n      swap1\n      dup2\n      add\n      0x40\n      mstore\n      dup1\n      swap3\n      swap2\n      swap1\n      dup2\n      dup2\n      mstore\n      0x20\n      add\n      dup3\n      dup1\n      sload\n      tag_116\n      swap1\n      tag_115\n      jump\t// in\n    tag_116:\n      dup1\n      iszero\n      tag_117\n      jumpi\n      dup1\n      0x1f\n      lt\n      tag_118\n      jumpi\n      0x0100\n      dup1\n      dup4\n      sload\n      div\n      mul\n      dup4\n      mstore\n      swap2\n      0x20\n      add\n      swap2\n      jump(tag_117)\n    tag_118:\n      dup3\n      add\n      swap2\n      swap1\n      0x00\n      mstore\n      keccak256(0x00, 0x20)\n      swap1\n    tag_119:\n      dup2\n      sload\n      dup2\n      mstore\n      swap1\n      0x01\n      add\n      swap1\n      0x20\n      add\n      dup1\n      dup4\n      gt\n      tag_119\n      jumpi\n      dup3\n      swap1\n      sub\n      0x1f\n      and\n      dup3\n      add\n      swap2\n    tag_117:\n      pop\n      pop\n      pop\n      pop\n      pop\n      swap1\n      dup1\n      0x02\n      add\n      sload\n      swap1\n      pop\n      dup4\n      jump\t// out\n        /* \"contracts/ergasia.sol\":1880:1926  mapping(address => Voter) public voterRegistry */\n    tag_46:\n      mstore(0x20, 0x09)\n      dup1\n      0x00\n      mstore\n      keccak256(0x00, 0x40)\n      0x00\n      swap2\n      pop\n      swap1\n      pop\n      dup1\n      0x00\n      add\n      0x00\n      swap1\n      sload\n      swap1\n      0x0100\n      exp\n      swap1\n      div\n      0xff\n      and\n      swap1\n      dup1\n      0x00\n      add\n      0x01\n      swap1\n      sload\n      swap1\n      0x0100\n      exp\n      swap1\n      div\n      0xff\n      and\n      swap1\n      dup1\n      0x01\n      add\n      sload\n      swap1\n      dup1\n      0x02\n      add\n      sload\n      swap1\n      dup1\n      0x03\n      add\n      sload\n      swap1\n      pop\n      dup6\n      jump\t// out\n        /* \"contracts/ergasia.sol\":1242:1270  address public electionOwner */\n    tag_50:\n      0x00\n      dup1\n      sload\n      swap1\n      0x0100\n      exp\n      swap1\n      div\n      0xffffffffffffffffffffffffffffffffffffffff\n      and\n      dup2\n      jump\t// out\n        /* \"contracts/ergasia.sol\":6162:6261  function startElection() public inState(State.Created) Owner {... */\n    tag_54:\n        /* \"contracts/ergasia.sol\":6202:6215  State.Created */\n      0x00\n        /* \"contracts/ergasia.sol\":2202:2208  _state */\n      dup1\n        /* \"contracts/ergasia.sol\":2193:2208  state == _state */\n      0x03\n      dup2\n      gt\n      iszero\n      tag_121\n      jumpi\n      tag_122\n      tag_88\n      jump\t// in\n    tag_122:\n    tag_121:\n        /* \"contracts/ergasia.sol\":2193:2198  state */\n      0x0b\n      0x00\n      swap1\n      sload\n      swap1\n      0x0100\n      exp\n      swap1\n      div\n      0xff\n      and\n        /* \"contracts/ergasia.sol\":2193:2208  state == _state */\n      0x03\n      dup2\n      gt\n      iszero\n      tag_123\n      jumpi\n      tag_124\n      tag_88\n      jump\t// in\n    tag_124:\n    tag_123:\n      eq\n        /* \"contracts/ergasia.sol\":2185:2209  require(state == _state) */\n      tag_125\n      jumpi\n      0x00\n      dup1\n      revert\n    tag_125:\n        /* \"contracts/ergasia.sol\":2106:2119  electionOwner */\n      0x00\n      dup1\n      sload\n      swap1\n      0x0100\n      exp\n      swap1\n      div\n      0xffffffffffffffffffffffffffffffffffffffff\n      and\n        /* \"contracts/ergasia.sol\":2092:2119  msg.sender == electionOwner */\n      0xffffffffffffffffffffffffffffffffffffffff\n      and\n        /* \"contracts/ergasia.sol\":2092:2102  msg.sender */\n      caller\n        /* \"contracts/ergasia.sol\":2092:2119  msg.sender == electionOwner */\n      0xffffffffffffffffffffffffffffffffffffffff\n      and\n      eq\n        /* \"contracts/ergasia.sol\":2084:2120  require(msg.sender == electionOwner) */\n      tag_127\n      jumpi\n      0x00\n      dup1\n      revert\n    tag_127:\n        /* \"contracts/ergasia.sol\":6241:6254  State.Started */\n      0x01\n        /* \"contracts/ergasia.sol\":6233:6238  state */\n      0x0b\n      0x00\n        /* \"contracts/ergasia.sol\":6233:6254  state = State.Started */\n      0x0100\n      exp\n      dup2\n      sload\n      dup2\n      0xff\n      mul\n      not\n      and\n      swap1\n      dup4\n      0x03\n      dup2\n      gt\n      iszero\n      tag_129\n      jumpi\n      tag_130\n      tag_88\n      jump\t// in\n    tag_130:\n    tag_129:\n      mul\n      or\n      swap1\n      sstore\n      pop\n        /* \"contracts/ergasia.sol\":6162:6261  function startElection() public inState(State.Created) Owner {... */\n      pop\n      jump\t// out\n        /* \"contracts/ergasia.sol\":1932:1970  mapping(address => bool) public voters */\n    tag_57:\n      mstore(0x20, 0x0a)\n      dup1\n      0x00\n      mstore\n      keccak256(0x00, 0x40)\n      0x00\n      swap2\n      pop\n      sload\n      swap1\n      0x0100\n      exp\n      swap1\n      div\n      0xff\n      and\n      dup2\n      jump\t// out\n        /* \"contracts/ergasia.sol\":7292:7418  function endVote() public inState(State.Voting) Owner { ... */\n    tag_60:\n        /* \"contracts/ergasia.sol\":7326:7338  State.Voting */\n      0x02\n        /* \"contracts/ergasia.sol\":2202:2208  _state */\n      dup1\n        /* \"contracts/ergasia.sol\":2193:2208  state == _state */\n      0x03\n      dup2\n      gt\n      iszero\n      tag_132\n      jumpi\n      tag_133\n      tag_88\n      jump\t// in\n    tag_133:\n    tag_132:\n        /* \"contracts/ergasia.sol\":2193:2198  state */\n      0x0b\n      0x00\n      swap1\n      sload\n      swap1\n      0x0100\n      exp\n      swap1\n      div\n      0xff\n      and\n        /* \"contracts/ergasia.sol\":2193:2208  state == _state */\n      0x03\n      dup2\n      gt\n      iszero\n      tag_134\n      jumpi\n      tag_135\n      tag_88\n      jump\t// in\n    tag_135:\n    tag_134:\n      eq\n        /* \"contracts/ergasia.sol\":2185:2209  require(state == _state) */\n      tag_136\n      jumpi\n      0x00\n      dup1\n      revert\n    tag_136:\n        /* \"contracts/ergasia.sol\":2106:2119  electionOwner */\n      0x00\n      dup1\n      sload\n      swap1\n      0x0100\n      exp\n      swap1\n      div\n      0xffffffffffffffffffffffffffffffffffffffff\n      and\n        /* \"contracts/ergasia.sol\":2092:2119  msg.sender == electionOwner */\n      0xffffffffffffffffffffffffffffffffffffffff\n      and\n        /* \"contracts/ergasia.sol\":2092:2102  msg.sender */\n      caller\n        /* \"contracts/ergasia.sol\":2092:2119  msg.sender == electionOwner */\n      0xffffffffffffffffffffffffffffffffffffffff\n      and\n      eq\n        /* \"contracts/ergasia.sol\":2084:2120  require(msg.sender == electionOwner) */\n      tag_138\n      jumpi\n      0x00\n      dup1\n      revert\n    tag_138:\n        /* \"contracts/ergasia.sol\":7365:7376  State.Ended */\n      0x03\n        /* \"contracts/ergasia.sol\":7357:7362  state */\n      0x0b\n      0x00\n        /* \"contracts/ergasia.sol\":7357:7376  state = State.Ended */\n      0x0100\n      exp\n      dup2\n      sload\n      dup2\n      0xff\n      mul\n      not\n      and\n      swap1\n      dup4\n      0x03\n      dup2\n      gt\n      iszero\n      tag_140\n      jumpi\n      tag_141\n      tag_88\n      jump\t// in\n    tag_141:\n    tag_140:\n      mul\n      or\n      swap1\n      sstore\n      pop\n        /* \"contracts/ergasia.sol\":7400:7411  countResult */\n      sload(0x04)\n        /* \"contracts/ergasia.sol\":7386:7397  finalResult */\n      0x05\n        /* \"contracts/ergasia.sol\":7386:7411  finalResult = countResult */\n      dup2\n      swap1\n      sstore\n      pop\n        /* \"contracts/ergasia.sol\":7292:7418  function endVote() public inState(State.Voting) Owner { ... */\n      pop\n      jump\t// out\n        /* \"contracts/ergasia.sol\":4715:5635  function addVoter(address _voterAddress, uint _pollingStationID) public inState(State.Created) Owner {... */\n    tag_64:\n        /* \"contracts/ergasia.sol\":4795:4808  State.Created */\n      0x00\n        /* \"contracts/ergasia.sol\":2202:2208  _state */\n      dup1\n        /* \"contracts/ergasia.sol\":2193:2208  state == _state */\n      0x03\n      dup2\n      gt\n      iszero\n      tag_143\n      jumpi\n      tag_144\n      tag_88\n      jump\t// in\n    tag_144:\n    tag_143:\n        /* \"contracts/ergasia.sol\":2193:2198  state */\n      0x0b\n      0x00\n      swap1\n      sload\n      swap1\n      0x0100\n      exp\n      swap1\n      div\n      0xff\n      and\n        /* \"contracts/ergasia.sol\":2193:2208  state == _state */\n      0x03\n      dup2\n      gt\n      iszero\n      tag_145\n      jumpi\n      tag_146\n      tag_88\n      jump\t// in\n    tag_146:\n    tag_145:\n      eq\n        /* \"contracts/ergasia.sol\":2185:2209  require(state == _state) */\n      tag_147\n      jumpi\n      0x00\n      dup1\n      revert\n    tag_147:\n        /* \"contracts/ergasia.sol\":2106:2119  electionOwner */\n      0x00\n      dup1\n      sload\n      swap1\n      0x0100\n      exp\n      swap1\n      div\n      0xffffffffffffffffffffffffffffffffffffffff\n      and\n        /* \"contracts/ergasia.sol\":2092:2119  msg.sender == electionOwner */\n      0xffffffffffffffffffffffffffffffffffffffff\n      and\n        /* \"contracts/ergasia.sol\":2092:2102  msg.sender */\n      caller\n        /* \"contracts/ergasia.sol\":2092:2119  msg.sender == electionOwner */\n      0xffffffffffffffffffffffffffffffffffffffff\n      and\n      eq\n        /* \"contracts/ergasia.sol\":2084:2120  require(msg.sender == electionOwner) */\n      tag_149\n      jumpi\n      0x00\n      dup1\n      revert\n    tag_149:\n        /* \"contracts/ergasia.sol\":4934:4939  false */\n      0x00\n        /* \"contracts/ergasia.sol\":4891:4939  voterRegistry[_voterAddress].isEnrolled == false */\n      iszero\n      iszero\n        /* \"contracts/ergasia.sol\":4891:4904  voterRegistry */\n      0x09\n        /* \"contracts/ergasia.sol\":4891:4919  voterRegistry[_voterAddress] */\n      0x00\n        /* \"contracts/ergasia.sol\":4905:4918  _voterAddress */\n      dup6\n        /* \"contracts/ergasia.sol\":4891:4919  voterRegistry[_voterAddress] */\n      0xffffffffffffffffffffffffffffffffffffffff\n      and\n      0xffffffffffffffffffffffffffffffffffffffff\n      and\n      dup2\n      mstore\n      0x20\n      add\n      swap1\n      dup2\n      mstore\n      0x20\n      add\n      0x00\n      keccak256\n        /* \"contracts/ergasia.sol\":4891:4930  voterRegistry[_voterAddress].isEnrolled */\n      0x00\n      add\n      0x00\n      swap1\n      sload\n      swap1\n      0x0100\n      exp\n      swap1\n      div\n      0xff\n      and\n        /* \"contracts/ergasia.sol\":4891:4939  voterRegistry[_voterAddress].isEnrolled == false */\n      iszero\n      iszero\n      eq\n        /* \"contracts/ergasia.sol\":4883:4972  require(voterRegistry[_voterAddress].isEnrolled == false, \"Voter is already registered.\") */\n      tag_151\n      jumpi\n      mload(0x40)\n      0x08c379a000000000000000000000000000000000000000000000000000000000\n      dup2\n      mstore\n      0x04\n      add\n      tag_152\n      swap1\n      tag_153\n      jump\t// in\n    tag_152:\n      mload(0x40)\n      dup1\n      swap2\n      sub\n      swap1\n      revert\n    tag_151:\n        /* \"contracts/ergasia.sol\":5211:5212  1 */\n      0x01\n        /* \"contracts/ergasia.sol\":5191:5208  _pollingStationID */\n      dup3\n        /* \"contracts/ergasia.sol\":5191:5212  _pollingStationID >=1 */\n      lt\n      iszero\n        /* \"contracts/ergasia.sol\":5191:5256  _pollingStationID >=1 && _pollingStationID <= pollingStationCount */\n      dup1\n      iszero\n      tag_154\n      jumpi\n      pop\n        /* \"contracts/ergasia.sol\":5237:5256  pollingStationCount */\n      sload(0x02)\n        /* \"contracts/ergasia.sol\":5216:5233  _pollingStationID */\n      dup3\n        /* \"contracts/ergasia.sol\":5216:5256  _pollingStationID <= pollingStationCount */\n      gt\n      iszero\n        /* \"contracts/ergasia.sol\":5191:5256  _pollingStationID >=1 && _pollingStationID <= pollingStationCount */\n    tag_154:\n        /* \"contracts/ergasia.sol\":5183:5303  require(_pollingStationID >=1 && _pollingStationID <= pollingStationCount, \"Please provide a valid polling station ID.\") */\n      tag_155\n      jumpi\n      mload(0x40)\n      0x08c379a000000000000000000000000000000000000000000000000000000000\n      dup2\n      mstore\n      0x04\n      add\n      tag_156\n      swap1\n      tag_157\n      jump\t// in\n    tag_156:\n      mload(0x40)\n      dup1\n      swap2\n      sub\n      swap1\n      revert\n    tag_155:\n        /* \"contracts/ergasia.sol\":5314:5328  Voter memory v */\n      tag_158\n      tag_159\n      jump\t// in\n    tag_158:\n        /* \"contracts/ergasia.sol\":5353:5357  true */\n      0x01\n        /* \"contracts/ergasia.sol\":5338:5339  v */\n      dup2\n        /* \"contracts/ergasia.sol\":5338:5350  v.isEnrolled */\n      0x00\n      add\n        /* \"contracts/ergasia.sol\":5338:5357  v.isEnrolled = true */\n      swap1\n      iszero\n      iszero\n      swap1\n      dup2\n      iszero\n      iszero\n      dup2\n      mstore\n      pop\n      pop\n        /* \"contracts/ergasia.sol\":5380:5385  false */\n      0x00\n        /* \"contracts/ergasia.sol\":5367:5368  v */\n      dup2\n        /* \"contracts/ergasia.sol\":5367:5377  v.hasVoted */\n      0x20\n      add\n        /* \"contracts/ergasia.sol\":5367:5385  v.hasVoted = false */\n      swap1\n      iszero\n      iszero\n      swap1\n      dup2\n      iszero\n      iszero\n      dup2\n      mstore\n      pop\n      pop\n        /* \"contracts/ergasia.sol\":5406:5407  0 */\n      0x00\n        /* \"contracts/ergasia.sol\":5395:5396  v */\n      dup2\n        /* \"contracts/ergasia.sol\":5395:5403  v.choice */\n      0x40\n      add\n        /* \"contracts/ergasia.sol\":5395:5407  v.choice = 0 */\n      dup2\n      dup2\n      mstore\n      pop\n      pop\n        /* \"contracts/ergasia.sol\":5446:5463  _pollingStationID */\n      dup3\n        /* \"contracts/ergasia.sol\":5417:5418  v */\n      dup2\n        /* \"contracts/ergasia.sol\":5417:5443  v.enrolledPollingStationID */\n      0x60\n      add\n        /* \"contracts/ergasia.sol\":5417:5463  v.enrolledPollingStationID = _pollingStationID */\n      dup2\n      dup2\n      mstore\n      pop\n      pop\n        /* \"contracts/ergasia.sol\":5499:5500  0 */\n      0x00\n        /* \"contracts/ergasia.sol\":5473:5474  v */\n      dup2\n        /* \"contracts/ergasia.sol\":5473:5496  v.votedPollingStationID */\n      0x80\n      add\n        /* \"contracts/ergasia.sol\":5473:5500  v.votedPollingStationID = 0 */\n      dup2\n      dup2\n      mstore\n      pop\n      pop\n        /* \"contracts/ergasia.sol\":5541:5542  v */\n      dup1\n        /* \"contracts/ergasia.sol\":5510:5523  voterRegistry */\n      0x09\n        /* \"contracts/ergasia.sol\":5510:5538  voterRegistry[_voterAddress] */\n      0x00\n        /* \"contracts/ergasia.sol\":5524:5537  _voterAddress */\n      dup7\n        /* \"contracts/ergasia.sol\":5510:5538  voterRegistry[_voterAddress] */\n      0xffffffffffffffffffffffffffffffffffffffff\n      and\n      0xffffffffffffffffffffffffffffffffffffffff\n      and\n      dup2\n      mstore\n      0x20\n      add\n      swap1\n      dup2\n      mstore\n      0x20\n      add\n      0x00\n      keccak256\n        /* \"contracts/ergasia.sol\":5510:5542  voterRegistry[_voterAddress] = v */\n      0x00\n      dup3\n      add\n      mload\n      dup2\n      0x00\n      add\n      exp(0x0100, 0x00)\n      dup2\n      sload\n      dup2\n      0xff\n      mul\n      not\n      and\n      swap1\n      dup4\n      iszero\n      iszero\n      mul\n      or\n      swap1\n      sstore\n      pop\n      0x20\n      dup3\n      add\n      mload\n      dup2\n      0x00\n      add\n      exp(0x0100, 0x01)\n      dup2\n      sload\n      dup2\n      0xff\n      mul\n      not\n      and\n      swap1\n      dup4\n      iszero\n      iszero\n      mul\n      or\n      swap1\n      sstore\n      pop\n      0x40\n      dup3\n      add\n      mload\n      dup2\n      0x01\n      add\n      sstore\n      0x60\n      dup3\n      add\n      mload\n      dup2\n      0x02\n      add\n      sstore\n      0x80\n      dup3\n      add\n      mload\n      dup2\n      0x03\n      add\n      sstore\n      swap1\n      pop\n      pop\n        /* \"contracts/ergasia.sol\":5552:5595  registerAtPollingStation(_pollingStationID) */\n      tag_160\n        /* \"contracts/ergasia.sol\":5577:5594  _pollingStationID */\n      dup4\n        /* \"contracts/ergasia.sol\":5552:5576  registerAtPollingStation */\n      tag_161\n        /* \"contracts/ergasia.sol\":5552:5595  registerAtPollingStation(_pollingStationID) */\n      jump\t// in\n    tag_160:\n        /* \"contracts/ergasia.sol\":5605:5626  totalRegisteredVoters */\n      0x03\n      0x00\n        /* \"contracts/ergasia.sol\":5605:5628  totalRegisteredVoters++ */\n      dup2\n      sload\n      dup1\n      swap3\n      swap2\n      swap1\n      tag_162\n      swap1\n      tag_107\n      jump\t// in\n    tag_162:\n      swap2\n      swap1\n      pop\n      sstore\n      pop\n        /* \"contracts/ergasia.sol\":4816:5635  {... */\n      pop\n        /* \"contracts/ergasia.sol\":4715:5635  function addVoter(address _voterAddress, uint _pollingStationID) public inState(State.Created) Owner {... */\n      pop\n      pop\n      pop\n      jump\t// out\n        /* \"contracts/ergasia.sol\":2032:2050  State public state */\n    tag_66:\n      0x0b\n      0x00\n      swap1\n      sload\n      swap1\n      0x0100\n      exp\n      swap1\n      div\n      0xff\n      and\n      dup2\n      jump\t// out\n        /* \"contracts/ergasia.sol\":7424:7627  function getResultsPerStationPerCandidate(uint _pStationID, uint _candidateID) public view returns (Candidate memory) {... */\n    tag_71:\n        /* \"contracts/ergasia.sol\":7524:7540  Candidate memory */\n      tag_163\n      tag_164\n      jump\t// in\n    tag_163:\n        /* \"contracts/ergasia.sol\":7559:7574  pollingStations */\n      0x08\n        /* \"contracts/ergasia.sol\":7559:7587  pollingStations[_pStationID] */\n      0x00\n        /* \"contracts/ergasia.sol\":7575:7586  _pStationID */\n      dup5\n        /* \"contracts/ergasia.sol\":7559:7587  pollingStations[_pStationID] */\n      dup2\n      mstore\n      0x20\n      add\n      swap1\n      dup2\n      mstore\n      0x20\n      add\n      0x00\n      keccak256\n        /* \"contracts/ergasia.sol\":7559:7606  pollingStations[_pStationID].scoresPerCandidate */\n      0x04\n      add\n        /* \"contracts/ergasia.sol\":7559:7620  pollingStations[_pStationID].scoresPerCandidate[_candidateID] */\n      0x00\n        /* \"contracts/ergasia.sol\":7607:7619  _candidateID */\n      dup4\n        /* \"contracts/ergasia.sol\":7559:7620  pollingStations[_pStationID].scoresPerCandidate[_candidateID] */\n      dup2\n      mstore\n      0x20\n      add\n      swap1\n      dup2\n      mstore\n      0x20\n      add\n      0x00\n      keccak256\n        /* \"contracts/ergasia.sol\":7552:7620  return pollingStations[_pStationID].scoresPerCandidate[_candidateID] */\n      mload(0x40)\n      dup1\n      0x60\n      add\n      0x40\n      mstore\n      swap1\n      dup2\n      0x00\n      dup3\n      add\n      sload\n      dup2\n      mstore\n      0x20\n      add\n      0x01\n      dup3\n      add\n      dup1\n      sload\n      tag_166\n      swap1\n      tag_115\n      jump\t// in\n    tag_166:\n      dup1\n      0x1f\n      add\n      0x20\n      dup1\n      swap2\n      div\n      mul\n      0x20\n      add\n      mload(0x40)\n      swap1\n      dup2\n      add\n      0x40\n      mstore\n      dup1\n      swap3\n      swap2\n      swap1\n      dup2\n      dup2\n      mstore\n      0x20\n      add\n      dup3\n      dup1\n      sload\n      tag_167\n      swap1\n      tag_115\n      jump\t// in\n    tag_167:\n      dup1\n      iszero\n      tag_168\n      jumpi\n      dup1\n      0x1f\n      lt\n      tag_169\n      jumpi\n      0x0100\n      dup1\n      dup4\n      sload\n      div\n      mul\n      dup4\n      mstore\n      swap2\n      0x20\n      add\n      swap2\n      jump(tag_168)\n    tag_169:\n      dup3\n      add\n      swap2\n      swap1\n      0x00\n      mstore\n      keccak256(0x00, 0x20)\n      swap1\n    tag_170:\n      dup2\n      sload\n      dup2\n      mstore\n      swap1\n      0x01\n      add\n      swap1\n      0x20\n      add\n      dup1\n      dup4\n      gt\n      tag_170\n      jumpi\n      dup3\n      swap1\n      sub\n      0x1f\n      and\n      dup3\n      add\n      swap2\n    tag_168:\n      pop\n      pop\n      pop\n      pop\n      pop\n      dup2\n      mstore\n      0x20\n      add\n      0x02\n      dup3\n      add\n      sload\n      dup2\n      mstore\n      pop\n      pop\n      swap1\n      pop\n        /* \"contracts/ergasia.sol\":7424:7627  function getResultsPerStationPerCandidate(uint _pStationID, uint _candidateID) public view returns (Candidate memory) {... */\n      swap3\n      swap2\n      pop\n      pop\n      jump\t// out\n        /* \"contracts/ergasia.sol\":1344:1375  uint public pollingStationCount */\n    tag_75:\n      sload(0x02)\n      dup2\n      jump\t// out\n        /* \"contracts/ergasia.sol\":1539:1562  uint public finalResult */\n    tag_78:\n      sload(0x05)\n      dup2\n      jump\t// out\n        /* \"contracts/ergasia.sol\":1794:1848  mapping(uint => PollingStation) public pollingStations */\n    tag_82:\n      mstore(0x20, 0x08)\n      dup1\n      0x00\n      mstore\n      keccak256(0x00, 0x40)\n      0x00\n      swap2\n      pop\n      swap1\n      pop\n      dup1\n      0x00\n      add\n      sload\n      swap1\n      dup1\n      0x01\n      add\n      dup1\n      sload\n      tag_171\n      swap1\n      tag_115\n      jump\t// in\n    tag_171:\n      dup1\n      0x1f\n      add\n      0x20\n      dup1\n      swap2\n      div\n      mul\n      0x20\n      add\n      mload(0x40)\n      swap1\n      dup2\n      add\n      0x40\n      mstore\n      dup1\n      swap3\n      swap2\n      swap1\n      dup2\n      dup2\n      mstore\n      0x20\n      add\n      dup3\n      dup1\n      sload\n      tag_172\n      swap1\n      tag_115\n      jump\t// in\n    tag_172:\n      dup1\n      iszero\n      tag_173\n      jumpi\n      dup1\n      0x1f\n      lt\n      tag_174\n      jumpi\n      0x0100\n      dup1\n      dup4\n      sload\n      div\n      mul\n      dup4\n      mstore\n      swap2\n      0x20\n      add\n      swap2\n      jump(tag_173)\n    tag_174:\n      dup3\n      add\n      swap2\n      swap1\n      0x00\n      mstore\n      keccak256(0x00, 0x20)\n      swap1\n    tag_175:\n      dup2\n      sload\n      dup2\n      mstore\n      swap1\n      0x01\n      add\n      swap1\n      0x20\n      add\n      dup1\n      dup4\n      gt\n      tag_175\n      jumpi\n      dup3\n      swap1\n      sub\n      0x1f\n      and\n      dup3\n      add\n      swap2\n    tag_173:\n      pop\n      pop\n      pop\n      pop\n      pop\n      swap1\n      dup1\n      0x02\n      add\n      sload\n      swap1\n      dup1\n      0x03\n      add\n      sload\n      swap1\n      pop\n      dup5\n      jump\t// out\n        /* \"contracts/ergasia.sol\":5773:6055  function registerAtPollingStation(uint _stationID) internal {... */\n    tag_161:\n        /* \"contracts/ergasia.sol\":5848:5854  uint i */\n      0x00\n        /* \"contracts/ergasia.sol\":5857:5858  1 */\n      0x01\n        /* \"contracts/ergasia.sol\":5848:5858  uint i = 1 */\n      swap1\n      pop\n        /* \"contracts/ergasia.sol\":5843:6049  for (uint i = 1; i <= pollingStationCount; i++) {... */\n    tag_177:\n        /* \"contracts/ergasia.sol\":5865:5884  pollingStationCount */\n      sload(0x02)\n        /* \"contracts/ergasia.sol\":5860:5861  i */\n      dup2\n        /* \"contracts/ergasia.sol\":5860:5884  i <= pollingStationCount */\n      gt\n        /* \"contracts/ergasia.sol\":5843:6049  for (uint i = 1; i <= pollingStationCount; i++) {... */\n      tag_178\n      jumpi\n        /* \"contracts/ergasia.sol\":5934:5944  _stationID */\n      dup2\n        /* \"contracts/ergasia.sol\":5909:5924  pollingStations */\n      0x08\n        /* \"contracts/ergasia.sol\":5909:5927  pollingStations[i] */\n      0x00\n        /* \"contracts/ergasia.sol\":5925:5926  i */\n      dup4\n        /* \"contracts/ergasia.sol\":5909:5927  pollingStations[i] */\n      dup2\n      mstore\n      0x20\n      add\n      swap1\n      dup2\n      mstore\n      0x20\n      add\n      0x00\n      keccak256\n        /* \"contracts/ergasia.sol\":5909:5930  pollingStations[i].id */\n      0x00\n      add\n      sload\n        /* \"contracts/ergasia.sol\":5909:5944  pollingStations[i].id == _stationID */\n      eq\n        /* \"contracts/ergasia.sol\":5905:6039  if (pollingStations[i].id == _stationID) {... */\n      iszero\n      tag_180\n      jumpi\n        /* \"contracts/ergasia.sol\":5964:5979  pollingStations */\n      0x08\n        /* \"contracts/ergasia.sol\":5964:5982  pollingStations[i] */\n      0x00\n        /* \"contracts/ergasia.sol\":5980:5981  i */\n      dup3\n        /* \"contracts/ergasia.sol\":5964:5982  pollingStations[i] */\n      dup2\n      mstore\n      0x20\n      add\n      swap1\n      dup2\n      mstore\n      0x20\n      add\n      0x00\n      keccak256\n        /* \"contracts/ergasia.sol\":5964:5999  pollingStations[i].votersRegistered */\n      0x02\n      add\n      0x00\n        /* \"contracts/ergasia.sol\":5964:6001  pollingStations[i].votersRegistered++ */\n      dup2\n      sload\n      dup1\n      swap3\n      swap2\n      swap1\n      tag_181\n      swap1\n      tag_107\n      jump\t// in\n    tag_181:\n      swap2\n      swap1\n      pop\n      sstore\n      pop\n        /* \"contracts/ergasia.sol\":6019:6024  break */\n      jump(tag_178)\n        /* \"contracts/ergasia.sol\":5905:6039  if (pollingStations[i].id == _stationID) {... */\n    tag_180:\n        /* \"contracts/ergasia.sol\":5886:5889  i++ */\n      dup1\n      dup1\n      tag_182\n      swap1\n      tag_107\n      jump\t// in\n    tag_182:\n      swap2\n      pop\n      pop\n        /* \"contracts/ergasia.sol\":5843:6049  for (uint i = 1; i <= pollingStationCount; i++) {... */\n      jump(tag_177)\n    tag_178:\n      pop\n        /* \"contracts/ergasia.sol\":5773:6055  function registerAtPollingStation(uint _stationID) internal {... */\n      pop\n      jump\t// out\n    tag_159:\n      mload(0x40)\n      dup1\n      0xa0\n      add\n      0x40\n      mstore\n      dup1\n      iszero(iszero(0x00))\n      dup2\n      mstore\n      0x20\n      add\n      iszero(iszero(0x00))\n      dup2\n      mstore\n      0x20\n      add\n      0x00\n      dup2\n      mstore\n      0x20\n      add\n      0x00\n      dup2\n      mstore\n      0x20\n      add\n      0x00\n      dup2\n      mstore\n      pop\n      swap1\n      jump\t// out\n    tag_164:\n      mload(0x40)\n      dup1\n      0x60\n      add\n      0x40\n      mstore\n      dup1\n      0x00\n      dup2\n      mstore\n      0x20\n      add\n      0x60\n      dup2\n      mstore\n      0x20\n      add\n      0x00\n      dup2\n      mstore\n      pop\n      swap1\n      jump\t// out\n        /* \"#utility.yul\":7:146   */\n    tag_184:\n        /* \"#utility.yul\":53:58   */\n      0x00\n        /* \"#utility.yul\":91:97   */\n      dup2\n        /* \"#utility.yul\":78:98   */\n      calldataload\n        /* \"#utility.yul\":69:98   */\n      swap1\n      pop\n        /* \"#utility.yul\":107:140   */\n      tag_186\n        /* \"#utility.yul\":134:139   */\n      dup2\n        /* \"#utility.yul\":107:140   */\n      tag_187\n      jump\t// in\n    tag_186:\n        /* \"#utility.yul\":7:146   */\n      swap3\n      swap2\n      pop\n      pop\n      jump\t// out\n        /* \"#utility.yul\":152:291   */\n    tag_188:\n        /* \"#utility.yul\":198:203   */\n      0x00\n        /* \"#utility.yul\":236:242   */\n      dup2\n        /* \"#utility.yul\":223:243   */\n      calldataload\n        /* \"#utility.yul\":214:243   */\n      swap1\n      pop\n        /* \"#utility.yul\":252:285   */\n      tag_190\n        /* \"#utility.yul\":279:284   */\n      dup2\n        /* \"#utility.yul\":252:285   */\n      tag_191\n      jump\t// in\n    tag_190:\n        /* \"#utility.yul\":152:291   */\n      swap3\n      swap2\n      pop\n      pop\n      jump\t// out\n        /* \"#utility.yul\":297:626   */\n    tag_45:\n        /* \"#utility.yul\":356:362   */\n      0x00\n        /* \"#utility.yul\":405:407   */\n      0x20\n        /* \"#utility.yul\":393:402   */\n      dup3\n        /* \"#utility.yul\":384:391   */\n      dup5\n        /* \"#utility.yul\":380:403   */\n      sub\n        /* \"#utility.yul\":376:408   */\n      slt\n        /* \"#utility.yul\":373:492   */\n      iszero\n      tag_193\n      jumpi\n        /* \"#utility.yul\":411:490   */\n      tag_194\n      tag_195\n      jump\t// in\n    tag_194:\n        /* \"#utility.yul\":373:492   */\n    tag_193:\n        /* \"#utility.yul\":531:532   */\n      0x00\n        /* \"#utility.yul\":556:609   */\n      tag_196\n        /* \"#utility.yul\":601:608   */\n      dup5\n        /* \"#utility.yul\":592:598   */\n      dup3\n        /* \"#utility.yul\":581:590   */\n      dup6\n        /* \"#utility.yul\":577:599   */\n      add\n        /* \"#utility.yul\":556:609   */\n      tag_184\n      jump\t// in\n    tag_196:\n        /* \"#utility.yul\":546:609   */\n      swap2\n      pop\n        /* \"#utility.yul\":502:619   */\n      pop\n        /* \"#utility.yul\":297:626   */\n      swap3\n      swap2\n      pop\n      pop\n      jump\t// out\n        /* \"#utility.yul\":632:1106   */\n    tag_63:\n        /* \"#utility.yul\":700:706   */\n      0x00\n        /* \"#utility.yul\":708:714   */\n      dup1\n        /* \"#utility.yul\":757:759   */\n      0x40\n        /* \"#utility.yul\":745:754   */\n      dup4\n        /* \"#utility.yul\":736:743   */\n      dup6\n        /* \"#utility.yul\":732:755   */\n      sub\n        /* \"#utility.yul\":728:760   */\n      slt\n        /* \"#utility.yul\":725:844   */\n      iszero\n      tag_198\n      jumpi\n        /* \"#utility.yul\":763:842   */\n      tag_199\n      tag_195\n      jump\t// in\n    tag_199:\n        /* \"#utility.yul\":725:844   */\n    tag_198:\n        /* \"#utility.yul\":883:884   */\n      0x00\n        /* \"#utility.yul\":908:961   */\n      tag_200\n        /* \"#utility.yul\":953:960   */\n      dup6\n        /* \"#utility.yul\":944:950   */\n      dup3\n        /* \"#utility.yul\":933:942   */\n      dup7\n        /* \"#utility.yul\":929:951   */\n      add\n        /* \"#utility.yul\":908:961   */\n      tag_184\n      jump\t// in\n    tag_200:\n        /* \"#utility.yul\":898:961   */\n      swap3\n      pop\n        /* \"#utility.yul\":854:971   */\n      pop\n        /* \"#utility.yul\":1010:1012   */\n      0x20\n        /* \"#utility.yul\":1036:1089   */\n      tag_201\n        /* \"#utility.yul\":1081:1088   */\n      dup6\n        /* \"#utility.yul\":1072:1078   */\n      dup3\n        /* \"#utility.yul\":1061:1070   */\n      dup7\n        /* \"#utility.yul\":1057:1079   */\n      add\n        /* \"#utility.yul\":1036:1089   */\n      tag_188\n      jump\t// in\n    tag_201:\n        /* \"#utility.yul\":1026:1089   */\n      swap2\n      pop\n        /* \"#utility.yul\":981:1099   */\n      pop\n        /* \"#utility.yul\":632:1106   */\n      swap3\n      pop\n      swap3\n      swap1\n      pop\n      jump\t// out\n        /* \"#utility.yul\":1112:1441   */\n    tag_39:\n        /* \"#utility.yul\":1171:1177   */\n      0x00\n        /* \"#utility.yul\":1220:1222   */\n      0x20\n        /* \"#utility.yul\":1208:1217   */\n      dup3\n        /* \"#utility.yul\":1199:1206   */\n      dup5\n        /* \"#utility.yul\":1195:1218   */\n      sub\n        /* \"#utility.yul\":1191:1223   */\n      slt\n        /* \"#utility.yul\":1188:1307   */\n      iszero\n      tag_203\n      jumpi\n        /* \"#utility.yul\":1226:1305   */\n      tag_204\n      tag_195\n      jump\t// in\n    tag_204:\n        /* \"#utility.yul\":1188:1307   */\n    tag_203:\n        /* \"#utility.yul\":1346:1347   */\n      0x00\n        /* \"#utility.yul\":1371:1424   */\n      tag_205\n        /* \"#utility.yul\":1416:1423   */\n      dup5\n        /* \"#utility.yul\":1407:1413   */\n      dup3\n        /* \"#utility.yul\":1396:1405   */\n      dup6\n        /* \"#utility.yul\":1392:1414   */\n      add\n        /* \"#utility.yul\":1371:1424   */\n      tag_188\n      jump\t// in\n    tag_205:\n        /* \"#utility.yul\":1361:1424   */\n      swap2\n      pop\n        /* \"#utility.yul\":1317:1434   */\n      pop\n        /* \"#utility.yul\":1112:1441   */\n      swap3\n      swap2\n      pop\n      pop\n      jump\t// out\n        /* \"#utility.yul\":1447:1921   */\n    tag_30:\n        /* \"#utility.yul\":1515:1521   */\n      0x00\n        /* \"#utility.yul\":1523:1529   */\n      dup1\n        /* \"#utility.yul\":1572:1574   */\n      0x40\n        /* \"#utility.yul\":1560:1569   */\n      dup4\n        /* \"#utility.yul\":1551:1558   */\n      dup6\n        /* \"#utility.yul\":1547:1570   */\n      sub\n        /* \"#utility.yul\":1543:1575   */\n      slt\n        /* \"#utility.yul\":1540:1659   */\n      iszero\n      tag_207\n      jumpi\n        /* \"#utility.yul\":1578:1657   */\n      tag_208\n      tag_195\n      jump\t// in\n    tag_208:\n        /* \"#utility.yul\":1540:1659   */\n    tag_207:\n        /* \"#utility.yul\":1698:1699   */\n      0x00\n        /* \"#utility.yul\":1723:1776   */\n      tag_209\n        /* \"#utility.yul\":1768:1775   */\n      dup6\n        /* \"#utility.yul\":1759:1765   */\n      dup3\n        /* \"#utility.yul\":1748:1757   */\n      dup7\n        /* \"#utility.yul\":1744:1766   */\n      add\n        /* \"#utility.yul\":1723:1776   */\n      tag_188\n      jump\t// in\n    tag_209:\n        /* \"#utility.yul\":1713:1776   */\n      swap3\n      pop\n        /* \"#utility.yul\":1669:1786   */\n      pop\n        /* \"#utility.yul\":1825:1827   */\n      0x20\n        /* \"#utility.yul\":1851:1904   */\n      tag_210\n        /* \"#utility.yul\":1896:1903   */\n      dup6\n        /* \"#utility.yul\":1887:1893   */\n      dup3\n        /* \"#utility.yul\":1876:1885   */\n      dup7\n        /* \"#utility.yul\":1872:1894   */\n      add\n        /* \"#utility.yul\":1851:1904   */\n      tag_188\n      jump\t// in\n    tag_210:\n        /* \"#utility.yul\":1841:1904   */\n      swap2\n      pop\n        /* \"#utility.yul\":1796:1914   */\n      pop\n        /* \"#utility.yul\":1447:1921   */\n      swap3\n      pop\n      swap3\n      swap1\n      pop\n      jump\t// out\n        /* \"#utility.yul\":1927:2045   */\n    tag_211:\n        /* \"#utility.yul\":2014:2038   */\n      tag_213\n        /* \"#utility.yul\":2032:2037   */\n      dup2\n        /* \"#utility.yul\":2014:2038   */\n      tag_214\n      jump\t// in\n    tag_213:\n        /* \"#utility.yul\":2009:2012   */\n      dup3\n        /* \"#utility.yul\":2002:2039   */\n      mstore\n        /* \"#utility.yul\":1927:2045   */\n      pop\n      pop\n      jump\t// out\n        /* \"#utility.yul\":2051:2160   */\n    tag_215:\n        /* \"#utility.yul\":2132:2153   */\n      tag_217\n        /* \"#utility.yul\":2147:2152   */\n      dup2\n        /* \"#utility.yul\":2132:2153   */\n      tag_218\n      jump\t// in\n    tag_217:\n        /* \"#utility.yul\":2127:2130   */\n      dup3\n        /* \"#utility.yul\":2120:2154   */\n      mstore\n        /* \"#utility.yul\":2051:2160   */\n      pop\n      pop\n      jump\t// out\n        /* \"#utility.yul\":2166:2309   */\n    tag_219:\n        /* \"#utility.yul\":2259:2302   */\n      tag_221\n        /* \"#utility.yul\":2296:2301   */\n      dup2\n        /* \"#utility.yul\":2259:2302   */\n      tag_222\n      jump\t// in\n    tag_221:\n        /* \"#utility.yul\":2254:2257   */\n      dup3\n        /* \"#utility.yul\":2247:2303   */\n      mstore\n        /* \"#utility.yul\":2166:2309   */\n      pop\n      pop\n      jump\t// out\n        /* \"#utility.yul\":2315:2659   */\n    tag_223:\n        /* \"#utility.yul\":2393:2396   */\n      0x00\n        /* \"#utility.yul\":2421:2460   */\n      tag_225\n        /* \"#utility.yul\":2454:2459   */\n      dup3\n        /* \"#utility.yul\":2421:2460   */\n      tag_226\n      jump\t// in\n    tag_225:\n        /* \"#utility.yul\":2476:2537   */\n      tag_227\n        /* \"#utility.yul\":2530:2536   */\n      dup2\n        /* \"#utility.yul\":2525:2528   */\n      dup6\n        /* \"#utility.yul\":2476:2537   */\n      tag_228\n      jump\t// in\n    tag_227:\n        /* \"#utility.yul\":2469:2537   */\n      swap4\n      pop\n        /* \"#utility.yul\":2546:2598   */\n      tag_229\n        /* \"#utility.yul\":2591:2597   */\n      dup2\n        /* \"#utility.yul\":2586:2589   */\n      dup6\n        /* \"#utility.yul\":2579:2583   */\n      0x20\n        /* \"#utility.yul\":2572:2577   */\n      dup7\n        /* \"#utility.yul\":2568:2584   */\n      add\n        /* \"#utility.yul\":2546:2598   */\n      tag_230\n      jump\t// in\n    tag_229:\n        /* \"#utility.yul\":2623:2652   */\n      tag_231\n        /* \"#utility.yul\":2645:2651   */\n      dup2\n        /* \"#utility.yul\":2623:2652   */\n      tag_232\n      jump\t// in\n    tag_231:\n        /* \"#utility.yul\":2618:2621   */\n      dup5\n        /* \"#utility.yul\":2614:2653   */\n      add\n        /* \"#utility.yul\":2607:2653   */\n      swap2\n      pop\n        /* \"#utility.yul\":2397:2659   */\n      pop\n        /* \"#utility.yul\":2315:2659   */\n      swap3\n      swap2\n      pop\n      pop\n      jump\t// out\n        /* \"#utility.yul\":2665:3029   */\n    tag_233:\n        /* \"#utility.yul\":2753:2756   */\n      0x00\n        /* \"#utility.yul\":2781:2820   */\n      tag_235\n        /* \"#utility.yul\":2814:2819   */\n      dup3\n        /* \"#utility.yul\":2781:2820   */\n      tag_226\n      jump\t// in\n    tag_235:\n        /* \"#utility.yul\":2836:2907   */\n      tag_236\n        /* \"#utility.yul\":2900:2906   */\n      dup2\n        /* \"#utility.yul\":2895:2898   */\n      dup6\n        /* \"#utility.yul\":2836:2907   */\n      tag_237\n      jump\t// in\n    tag_236:\n        /* \"#utility.yul\":2829:2907   */\n      swap4\n      pop\n        /* \"#utility.yul\":2916:2968   */\n      tag_238\n        /* \"#utility.yul\":2961:2967   */\n      dup2\n        /* \"#utility.yul\":2956:2959   */\n      dup6\n        /* \"#utility.yul\":2949:2953   */\n      0x20\n        /* \"#utility.yul\":2942:2947   */\n      dup7\n        /* \"#utility.yul\":2938:2954   */\n      add\n        /* \"#utility.yul\":2916:2968   */\n      tag_230\n      jump\t// in\n    tag_238:\n        /* \"#utility.yul\":2993:3022   */\n      tag_239\n        /* \"#utility.yul\":3015:3021   */\n      dup2\n        /* \"#utility.yul\":2993:3022   */\n      tag_232\n      jump\t// in\n    tag_239:\n        /* \"#utility.yul\":2988:2991   */\n      dup5\n        /* \"#utility.yul\":2984:3023   */\n      add\n        /* \"#utility.yul\":2977:3023   */\n      swap2\n      pop\n        /* \"#utility.yul\":2757:3029   */\n      pop\n        /* \"#utility.yul\":2665:3029   */\n      swap3\n      swap2\n      pop\n      pop\n      jump\t// out\n        /* \"#utility.yul\":3035:3401   */\n    tag_240:\n        /* \"#utility.yul\":3177:3180   */\n      0x00\n        /* \"#utility.yul\":3198:3265   */\n      tag_242\n        /* \"#utility.yul\":3262:3264   */\n      0x2a\n        /* \"#utility.yul\":3257:3260   */\n      dup4\n        /* \"#utility.yul\":3198:3265   */\n      tag_237\n      jump\t// in\n    tag_242:\n        /* \"#utility.yul\":3191:3265   */\n      swap2\n      pop\n        /* \"#utility.yul\":3274:3367   */\n      tag_243\n        /* \"#utility.yul\":3363:3366   */\n      dup3\n        /* \"#utility.yul\":3274:3367   */\n      tag_244\n      jump\t// in\n    tag_243:\n        /* \"#utility.yul\":3392:3394   */\n      0x40\n        /* \"#utility.yul\":3387:3390   */\n      dup3\n        /* \"#utility.yul\":3383:3395   */\n      add\n        /* \"#utility.yul\":3376:3395   */\n      swap1\n      pop\n        /* \"#utility.yul\":3035:3401   */\n      swap2\n      swap1\n      pop\n      jump\t// out\n        /* \"#utility.yul\":3407:3773   */\n    tag_245:\n        /* \"#utility.yul\":3549:3552   */\n      0x00\n        /* \"#utility.yul\":3570:3637   */\n      tag_247\n        /* \"#utility.yul\":3634:3636   */\n      0x1c\n        /* \"#utility.yul\":3629:3632   */\n      dup4\n        /* \"#utility.yul\":3570:3637   */\n      tag_237\n      jump\t// in\n    tag_247:\n        /* \"#utility.yul\":3563:3637   */\n      swap2\n      pop\n        /* \"#utility.yul\":3646:3739   */\n      tag_248\n        /* \"#utility.yul\":3735:3738   */\n      dup3\n        /* \"#utility.yul\":3646:3739   */\n      tag_249\n      jump\t// in\n    tag_248:\n        /* \"#utility.yul\":3764:3766   */\n      0x20\n        /* \"#utility.yul\":3759:3762   */\n      dup3\n        /* \"#utility.yul\":3755:3767   */\n      add\n        /* \"#utility.yul\":3748:3767   */\n      swap1\n      pop\n        /* \"#utility.yul\":3407:3773   */\n      swap2\n      swap1\n      pop\n      jump\t// out\n        /* \"#utility.yul\":3841:4618   */\n    tag_250:\n        /* \"#utility.yul\":3958:3961   */\n      0x00\n        /* \"#utility.yul\":3994:3998   */\n      0x60\n        /* \"#utility.yul\":3989:3992   */\n      dup4\n        /* \"#utility.yul\":3985:3999   */\n      add\n        /* \"#utility.yul\":4079:4083   */\n      0x00\n        /* \"#utility.yul\":4072:4077   */\n      dup4\n        /* \"#utility.yul\":4068:4084   */\n      add\n        /* \"#utility.yul\":4062:4085   */\n      mload\n        /* \"#utility.yul\":4098:4161   */\n      tag_252\n        /* \"#utility.yul\":4155:4159   */\n      0x00\n        /* \"#utility.yul\":4150:4153   */\n      dup7\n        /* \"#utility.yul\":4146:4160   */\n      add\n        /* \"#utility.yul\":4132:4144   */\n      dup3\n        /* \"#utility.yul\":4098:4161   */\n      tag_253\n      jump\t// in\n    tag_252:\n        /* \"#utility.yul\":4009:4171   */\n      pop\n        /* \"#utility.yul\":4253:4257   */\n      0x20\n        /* \"#utility.yul\":4246:4251   */\n      dup4\n        /* \"#utility.yul\":4242:4258   */\n      add\n        /* \"#utility.yul\":4236:4259   */\n      mload\n        /* \"#utility.yul\":4306:4309   */\n      dup5\n        /* \"#utility.yul\":4300:4304   */\n      dup3\n        /* \"#utility.yul\":4296:4310   */\n      sub\n        /* \"#utility.yul\":4289:4293   */\n      0x20\n        /* \"#utility.yul\":4284:4287   */\n      dup7\n        /* \"#utility.yul\":4280:4294   */\n      add\n        /* \"#utility.yul\":4273:4311   */\n      mstore\n        /* \"#utility.yul\":4332:4405   */\n      tag_254\n        /* \"#utility.yul\":4400:4404   */\n      dup3\n        /* \"#utility.yul\":4386:4398   */\n      dup3\n        /* \"#utility.yul\":4332:4405   */\n      tag_223\n      jump\t// in\n    tag_254:\n        /* \"#utility.yul\":4324:4405   */\n      swap2\n      pop\n        /* \"#utility.yul\":4181:4416   */\n      pop\n        /* \"#utility.yul\":4499:4503   */\n      0x40\n        /* \"#utility.yul\":4492:4497   */\n      dup4\n        /* \"#utility.yul\":4488:4504   */\n      add\n        /* \"#utility.yul\":4482:4505   */\n      mload\n        /* \"#utility.yul\":4518:4581   */\n      tag_255\n        /* \"#utility.yul\":4575:4579   */\n      0x40\n        /* \"#utility.yul\":4570:4573   */\n      dup7\n        /* \"#utility.yul\":4566:4580   */\n      add\n        /* \"#utility.yul\":4552:4564   */\n      dup3\n        /* \"#utility.yul\":4518:4581   */\n      tag_253\n      jump\t// in\n    tag_255:\n        /* \"#utility.yul\":4426:4591   */\n      pop\n        /* \"#utility.yul\":4608:4612   */\n      dup1\n        /* \"#utility.yul\":4601:4612   */\n      swap2\n      pop\n        /* \"#utility.yul\":3963:4618   */\n      pop\n        /* \"#utility.yul\":3841:4618   */\n      swap3\n      swap2\n      pop\n      pop\n      jump\t// out\n        /* \"#utility.yul\":4624:4732   */\n    tag_253:\n        /* \"#utility.yul\":4701:4725   */\n      tag_257\n        /* \"#utility.yul\":4719:4724   */\n      dup2\n        /* \"#utility.yul\":4701:4725   */\n      tag_258\n      jump\t// in\n    tag_257:\n        /* \"#utility.yul\":4696:4699   */\n      dup3\n        /* \"#utility.yul\":4689:4726   */\n      mstore\n        /* \"#utility.yul\":4624:4732   */\n      pop\n      pop\n      jump\t// out\n        /* \"#utility.yul\":4738:4856   */\n    tag_259:\n        /* \"#utility.yul\":4825:4849   */\n      tag_261\n        /* \"#utility.yul\":4843:4848   */\n      dup2\n        /* \"#utility.yul\":4825:4849   */\n      tag_258\n      jump\t// in\n    tag_261:\n        /* \"#utility.yul\":4820:4823   */\n      dup3\n        /* \"#utility.yul\":4813:4850   */\n      mstore\n        /* \"#utility.yul\":4738:4856   */\n      pop\n      pop\n      jump\t// out\n        /* \"#utility.yul\":4862:5084   */\n    tag_52:\n        /* \"#utility.yul\":4955:4959   */\n      0x00\n        /* \"#utility.yul\":4993:4995   */\n      0x20\n        /* \"#utility.yul\":4982:4991   */\n      dup3\n        /* \"#utility.yul\":4978:4996   */\n      add\n        /* \"#utility.yul\":4970:4996   */\n      swap1\n      pop\n        /* \"#utility.yul\":5006:5077   */\n      tag_263\n        /* \"#utility.yul\":5074:5075   */\n      0x00\n        /* \"#utility.yul\":5063:5072   */\n      dup4\n        /* \"#utility.yul\":5059:5076   */\n      add\n        /* \"#utility.yul\":5050:5056   */\n      dup5\n        /* \"#utility.yul\":5006:5077   */\n      tag_211\n      jump\t// in\n    tag_263:\n        /* \"#utility.yul\":4862:5084   */\n      swap3\n      swap2\n      pop\n      pop\n      jump\t// out\n        /* \"#utility.yul\":5090:5300   */\n    tag_33:\n        /* \"#utility.yul\":5177:5181   */\n      0x00\n        /* \"#utility.yul\":5215:5217   */\n      0x20\n        /* \"#utility.yul\":5204:5213   */\n      dup3\n        /* \"#utility.yul\":5200:5218   */\n      add\n        /* \"#utility.yul\":5192:5218   */\n      swap1\n      pop\n        /* \"#utility.yul\":5228:5293   */\n      tag_265\n        /* \"#utility.yul\":5290:5291   */\n      0x00\n        /* \"#utility.yul\":5279:5288   */\n      dup4\n        /* \"#utility.yul\":5275:5292   */\n      add\n        /* \"#utility.yul\":5266:5272   */\n      dup5\n        /* \"#utility.yul\":5228:5293   */\n      tag_215\n      jump\t// in\n    tag_265:\n        /* \"#utility.yul\":5090:5300   */\n      swap3\n      swap2\n      pop\n      pop\n      jump\t// out\n        /* \"#utility.yul\":5306:5946   */\n    tag_48:\n        /* \"#utility.yul\":5499:5503   */\n      0x00\n        /* \"#utility.yul\":5537:5540   */\n      0xa0\n        /* \"#utility.yul\":5526:5535   */\n      dup3\n        /* \"#utility.yul\":5522:5541   */\n      add\n        /* \"#utility.yul\":5514:5541   */\n      swap1\n      pop\n        /* \"#utility.yul\":5551:5616   */\n      tag_267\n        /* \"#utility.yul\":5613:5614   */\n      0x00\n        /* \"#utility.yul\":5602:5611   */\n      dup4\n        /* \"#utility.yul\":5598:5615   */\n      add\n        /* \"#utility.yul\":5589:5595   */\n      dup9\n        /* \"#utility.yul\":5551:5616   */\n      tag_215\n      jump\t// in\n    tag_267:\n        /* \"#utility.yul\":5626:5692   */\n      tag_268\n        /* \"#utility.yul\":5688:5690   */\n      0x20\n        /* \"#utility.yul\":5677:5686   */\n      dup4\n        /* \"#utility.yul\":5673:5691   */\n      add\n        /* \"#utility.yul\":5664:5670   */\n      dup8\n        /* \"#utility.yul\":5626:5692   */\n      tag_215\n      jump\t// in\n    tag_268:\n        /* \"#utility.yul\":5702:5774   */\n      tag_269\n        /* \"#utility.yul\":5770:5772   */\n      0x40\n        /* \"#utility.yul\":5759:5768   */\n      dup4\n        /* \"#utility.yul\":5755:5773   */\n      add\n        /* \"#utility.yul\":5746:5752   */\n      dup7\n        /* \"#utility.yul\":5702:5774   */\n      tag_259\n      jump\t// in\n    tag_269:\n        /* \"#utility.yul\":5784:5856   */\n      tag_270\n        /* \"#utility.yul\":5852:5854   */\n      0x60\n        /* \"#utility.yul\":5841:5850   */\n      dup4\n        /* \"#utility.yul\":5837:5855   */\n      add\n        /* \"#utility.yul\":5828:5834   */\n      dup6\n        /* \"#utility.yul\":5784:5856   */\n      tag_259\n      jump\t// in\n    tag_270:\n        /* \"#utility.yul\":5866:5939   */\n      tag_271\n        /* \"#utility.yul\":5934:5937   */\n      0x80\n        /* \"#utility.yul\":5923:5932   */\n      dup4\n        /* \"#utility.yul\":5919:5938   */\n      add\n        /* \"#utility.yul\":5910:5916   */\n      dup5\n        /* \"#utility.yul\":5866:5939   */\n      tag_259\n      jump\t// in\n    tag_271:\n        /* \"#utility.yul\":5306:5946   */\n      swap7\n      swap6\n      pop\n      pop\n      pop\n      pop\n      pop\n      pop\n      jump\t// out\n        /* \"#utility.yul\":5952:6382   */\n    tag_113:\n        /* \"#utility.yul\":6095:6099   */\n      0x00\n        /* \"#utility.yul\":6133:6135   */\n      0x60\n        /* \"#utility.yul\":6122:6131   */\n      dup3\n        /* \"#utility.yul\":6118:6136   */\n      add\n        /* \"#utility.yul\":6110:6136   */\n      swap1\n      pop\n        /* \"#utility.yul\":6146:6211   */\n      tag_273\n        /* \"#utility.yul\":6208:6209   */\n      0x00\n        /* \"#utility.yul\":6197:6206   */\n      dup4\n        /* \"#utility.yul\":6193:6210   */\n      add\n        /* \"#utility.yul\":6184:6190   */\n      dup7\n        /* \"#utility.yul\":6146:6211   */\n      tag_215\n      jump\t// in\n    tag_273:\n        /* \"#utility.yul\":6221:6293   */\n      tag_274\n        /* \"#utility.yul\":6289:6291   */\n      0x20\n        /* \"#utility.yul\":6278:6287   */\n      dup4\n        /* \"#utility.yul\":6274:6292   */\n      add\n        /* \"#utility.yul\":6265:6271   */\n      dup6\n        /* \"#utility.yul\":6221:6293   */\n      tag_259\n      jump\t// in\n    tag_274:\n        /* \"#utility.yul\":6303:6375   */\n      tag_275\n        /* \"#utility.yul\":6371:6373   */\n      0x40\n        /* \"#utility.yul\":6360:6369   */\n      dup4\n        /* \"#utility.yul\":6356:6374   */\n      add\n        /* \"#utility.yul\":6347:6353   */\n      dup5\n        /* \"#utility.yul\":6303:6375   */\n      tag_259\n      jump\t// in\n    tag_275:\n        /* \"#utility.yul\":5952:6382   */\n      swap5\n      swap4\n      pop\n      pop\n      pop\n      pop\n      jump\t// out\n        /* \"#utility.yul\":6388:6622   */\n    tag_68:\n        /* \"#utility.yul\":6487:6491   */\n      0x00\n        /* \"#utility.yul\":6525:6527   */\n      0x20\n        /* \"#utility.yul\":6514:6523   */\n      dup3\n        /* \"#utility.yul\":6510:6528   */\n      add\n        /* \"#utility.yul\":6502:6528   */\n      swap1\n      pop\n        /* \"#utility.yul\":6538:6615   */\n      tag_277\n        /* \"#utility.yul\":6612:6613   */\n      0x00\n        /* \"#utility.yul\":6601:6610   */\n      dup4\n        /* \"#utility.yul\":6597:6614   */\n      add\n        /* \"#utility.yul\":6588:6594   */\n      dup5\n        /* \"#utility.yul\":6538:6615   */\n      tag_219\n      jump\t// in\n    tag_277:\n        /* \"#utility.yul\":6388:6622   */\n      swap3\n      swap2\n      pop\n      pop\n      jump\t// out\n        /* \"#utility.yul\":6628:7047   */\n    tag_157:\n        /* \"#utility.yul\":6794:6798   */\n      0x00\n        /* \"#utility.yul\":6832:6834   */\n      0x20\n        /* \"#utility.yul\":6821:6830   */\n      dup3\n        /* \"#utility.yul\":6817:6835   */\n      add\n        /* \"#utility.yul\":6809:6835   */\n      swap1\n      pop\n        /* \"#utility.yul\":6881:6890   */\n      dup2\n        /* \"#utility.yul\":6875:6879   */\n      dup2\n        /* \"#utility.yul\":6871:6891   */\n      sub\n        /* \"#utility.yul\":6867:6868   */\n      0x00\n        /* \"#utility.yul\":6856:6865   */\n      dup4\n        /* \"#utility.yul\":6852:6869   */\n      add\n        /* \"#utility.yul\":6845:6892   */\n      mstore\n        /* \"#utility.yul\":6909:7040   */\n      tag_279\n        /* \"#utility.yul\":7035:7039   */\n      dup2\n        /* \"#utility.yul\":6909:7040   */\n      tag_240\n      jump\t// in\n    tag_279:\n        /* \"#utility.yul\":6901:7040   */\n      swap1\n      pop\n        /* \"#utility.yul\":6628:7047   */\n      swap2\n      swap1\n      pop\n      jump\t// out\n        /* \"#utility.yul\":7053:7472   */\n    tag_153:\n        /* \"#utility.yul\":7219:7223   */\n      0x00\n        /* \"#utility.yul\":7257:7259   */\n      0x20\n        /* \"#utility.yul\":7246:7255   */\n      dup3\n        /* \"#utility.yul\":7242:7260   */\n      add\n        /* \"#utility.yul\":7234:7260   */\n      swap1\n      pop\n        /* \"#utility.yul\":7306:7315   */\n      dup2\n        /* \"#utility.yul\":7300:7304   */\n      dup2\n        /* \"#utility.yul\":7296:7316   */\n      sub\n        /* \"#utility.yul\":7292:7293   */\n      0x00\n        /* \"#utility.yul\":7281:7290   */\n      dup4\n        /* \"#utility.yul\":7277:7294   */\n      add\n        /* \"#utility.yul\":7270:7317   */\n      mstore\n        /* \"#utility.yul\":7334:7465   */\n      tag_281\n        /* \"#utility.yul\":7460:7464   */\n      dup2\n        /* \"#utility.yul\":7334:7465   */\n      tag_245\n      jump\t// in\n    tag_281:\n        /* \"#utility.yul\":7326:7465   */\n      swap1\n      pop\n        /* \"#utility.yul\":7053:7472   */\n      swap2\n      swap1\n      pop\n      jump\t// out\n        /* \"#utility.yul\":7478:7847   */\n    tag_73:\n        /* \"#utility.yul\":7619:7623   */\n      0x00\n        /* \"#utility.yul\":7657:7659   */\n      0x20\n        /* \"#utility.yul\":7646:7655   */\n      dup3\n        /* \"#utility.yul\":7642:7660   */\n      add\n        /* \"#utility.yul\":7634:7660   */\n      swap1\n      pop\n        /* \"#utility.yul\":7706:7715   */\n      dup2\n        /* \"#utility.yul\":7700:7704   */\n      dup2\n        /* \"#utility.yul\":7696:7716   */\n      sub\n        /* \"#utility.yul\":7692:7693   */\n      0x00\n        /* \"#utility.yul\":7681:7690   */\n      dup4\n        /* \"#utility.yul\":7677:7694   */\n      add\n        /* \"#utility.yul\":7670:7717   */\n      mstore\n        /* \"#utility.yul\":7734:7840   */\n      tag_283\n        /* \"#utility.yul\":7835:7839   */\n      dup2\n        /* \"#utility.yul\":7826:7832   */\n      dup5\n        /* \"#utility.yul\":7734:7840   */\n      tag_250\n      jump\t// in\n    tag_283:\n        /* \"#utility.yul\":7726:7840   */\n      swap1\n      pop\n        /* \"#utility.yul\":7478:7847   */\n      swap3\n      swap2\n      pop\n      pop\n      jump\t// out\n        /* \"#utility.yul\":7853:8075   */\n    tag_25:\n        /* \"#utility.yul\":7946:7950   */\n      0x00\n        /* \"#utility.yul\":7984:7986   */\n      0x20\n        /* \"#utility.yul\":7973:7982   */\n      dup3\n        /* \"#utility.yul\":7969:7987   */\n      add\n        /* \"#utility.yul\":7961:7987   */\n      swap1\n      pop\n        /* \"#utility.yul\":7997:8068   */\n      tag_285\n        /* \"#utility.yul\":8065:8066   */\n      0x00\n        /* \"#utility.yul\":8054:8063   */\n      dup4\n        /* \"#utility.yul\":8050:8067   */\n      add\n        /* \"#utility.yul\":8041:8047   */\n      dup5\n        /* \"#utility.yul\":7997:8068   */\n      tag_259\n      jump\t// in\n    tag_285:\n        /* \"#utility.yul\":7853:8075   */\n      swap3\n      swap2\n      pop\n      pop\n      jump\t// out\n        /* \"#utility.yul\":8081:8614   */\n    tag_42:\n        /* \"#utility.yul\":8250:8254   */\n      0x00\n        /* \"#utility.yul\":8288:8290   */\n      0x60\n        /* \"#utility.yul\":8277:8286   */\n      dup3\n        /* \"#utility.yul\":8273:8291   */\n      add\n        /* \"#utility.yul\":8265:8291   */\n      swap1\n      pop\n        /* \"#utility.yul\":8301:8372   */\n      tag_287\n        /* \"#utility.yul\":8369:8370   */\n      0x00\n        /* \"#utility.yul\":8358:8367   */\n      dup4\n        /* \"#utility.yul\":8354:8371   */\n      add\n        /* \"#utility.yul\":8345:8351   */\n      dup7\n        /* \"#utility.yul\":8301:8372   */\n      tag_259\n      jump\t// in\n    tag_287:\n        /* \"#utility.yul\":8419:8428   */\n      dup2\n        /* \"#utility.yul\":8413:8417   */\n      dup2\n        /* \"#utility.yul\":8409:8429   */\n      sub\n        /* \"#utility.yul\":8404:8406   */\n      0x20\n        /* \"#utility.yul\":8393:8402   */\n      dup4\n        /* \"#utility.yul\":8389:8407   */\n      add\n        /* \"#utility.yul\":8382:8430   */\n      mstore\n        /* \"#utility.yul\":8447:8525   */\n      tag_288\n        /* \"#utility.yul\":8520:8524   */\n      dup2\n        /* \"#utility.yul\":8511:8517   */\n      dup6\n        /* \"#utility.yul\":8447:8525   */\n      tag_233\n      jump\t// in\n    tag_288:\n        /* \"#utility.yul\":8439:8525   */\n      swap1\n      pop\n        /* \"#utility.yul\":8535:8607   */\n      tag_289\n        /* \"#utility.yul\":8603:8605   */\n      0x40\n        /* \"#utility.yul\":8592:8601   */\n      dup4\n        /* \"#utility.yul\":8588:8606   */\n      add\n        /* \"#utility.yul\":8579:8585   */\n      dup5\n        /* \"#utility.yul\":8535:8607   */\n      tag_259\n      jump\t// in\n    tag_289:\n        /* \"#utility.yul\":8081:8614   */\n      swap5\n      swap4\n      pop\n      pop\n      pop\n      pop\n      jump\t// out\n        /* \"#utility.yul\":8620:9264   */\n    tag_84:\n        /* \"#utility.yul\":8817:8821   */\n      0x00\n        /* \"#utility.yul\":8855:8858   */\n      0x80\n        /* \"#utility.yul\":8844:8853   */\n      dup3\n        /* \"#utility.yul\":8840:8859   */\n      add\n        /* \"#utility.yul\":8832:8859   */\n      swap1\n      pop\n        /* \"#utility.yul\":8869:8940   */\n      tag_291\n        /* \"#utility.yul\":8937:8938   */\n      0x00\n        /* \"#utility.yul\":8926:8935   */\n      dup4\n        /* \"#utility.yul\":8922:8939   */\n      add\n        /* \"#utility.yul\":8913:8919   */\n      dup8\n        /* \"#utility.yul\":8869:8940   */\n      tag_259\n      jump\t// in\n    tag_291:\n        /* \"#utility.yul\":8987:8996   */\n      dup2\n        /* \"#utility.yul\":8981:8985   */\n      dup2\n        /* \"#utility.yul\":8977:8997   */\n      sub\n        /* \"#utility.yul\":8972:8974   */\n      0x20\n        /* \"#utility.yul\":8961:8970   */\n      dup4\n        /* \"#utility.yul\":8957:8975   */\n      add\n        /* \"#utility.yul\":8950:8998   */\n      mstore\n        /* \"#utility.yul\":9015:9093   */\n      tag_292\n        /* \"#utility.yul\":9088:9092   */\n      dup2\n        /* \"#utility.yul\":9079:9085   */\n      dup7\n        /* \"#utility.yul\":9015:9093   */\n      tag_233\n      jump\t// in\n    tag_292:\n        /* \"#utility.yul\":9007:9093   */\n      swap1\n      pop\n        /* \"#utility.yul\":9103:9175   */\n      tag_293\n        /* \"#utility.yul\":9171:9173   */\n      0x40\n        /* \"#utility.yul\":9160:9169   */\n      dup4\n        /* \"#utility.yul\":9156:9174   */\n      add\n        /* \"#utility.yul\":9147:9153   */\n      dup6\n        /* \"#utility.yul\":9103:9175   */\n      tag_259\n      jump\t// in\n    tag_293:\n        /* \"#utility.yul\":9185:9257   */\n      tag_294\n        /* \"#utility.yul\":9253:9255   */\n      0x60\n        /* \"#utility.yul\":9242:9251   */\n      dup4\n        /* \"#utility.yul\":9238:9256   */\n      add\n        /* \"#utility.yul\":9229:9235   */\n      dup5\n        /* \"#utility.yul\":9185:9257   */\n      tag_259\n      jump\t// in\n    tag_294:\n        /* \"#utility.yul\":8620:9264   */\n      swap6\n      swap5\n      pop\n      pop\n      pop\n      pop\n      pop\n      jump\t// out\n        /* \"#utility.yul\":9351:9450   */\n    tag_226:\n        /* \"#utility.yul\":9403:9409   */\n      0x00\n        /* \"#utility.yul\":9437:9442   */\n      dup2\n        /* \"#utility.yul\":9431:9443   */\n      mload\n        /* \"#utility.yul\":9421:9443   */\n      swap1\n      pop\n        /* \"#utility.yul\":9351:9450   */\n      swap2\n      swap1\n      pop\n      jump\t// out\n        /* \"#utility.yul\":9456:9615   */\n    tag_228:\n        /* \"#utility.yul\":9530:9541   */\n      0x00\n        /* \"#utility.yul\":9564:9570   */\n      dup3\n        /* \"#utility.yul\":9559:9562   */\n      dup3\n        /* \"#utility.yul\":9552:9571   */\n      mstore\n        /* \"#utility.yul\":9604:9608   */\n      0x20\n        /* \"#utility.yul\":9599:9602   */\n      dup3\n        /* \"#utility.yul\":9595:9609   */\n      add\n        /* \"#utility.yul\":9580:9609   */\n      swap1\n      pop\n        /* \"#utility.yul\":9456:9615   */\n      swap3\n      swap2\n      pop\n      pop\n      jump\t// out\n        /* \"#utility.yul\":9621:9790   */\n    tag_237:\n        /* \"#utility.yul\":9705:9716   */\n      0x00\n        /* \"#utility.yul\":9739:9745   */\n      dup3\n        /* \"#utility.yul\":9734:9737   */\n      dup3\n        /* \"#utility.yul\":9727:9746   */\n      mstore\n        /* \"#utility.yul\":9779:9783   */\n      0x20\n        /* \"#utility.yul\":9774:9777   */\n      dup3\n        /* \"#utility.yul\":9770:9784   */\n      add\n        /* \"#utility.yul\":9755:9784   */\n      swap1\n      pop\n        /* \"#utility.yul\":9621:9790   */\n      swap3\n      swap2\n      pop\n      pop\n      jump\t// out\n        /* \"#utility.yul\":9796:10101   */\n    tag_111:\n        /* \"#utility.yul\":9836:9839   */\n      0x00\n        /* \"#utility.yul\":9855:9875   */\n      tag_301\n        /* \"#utility.yul\":9873:9874   */\n      dup3\n        /* \"#utility.yul\":9855:9875   */\n      tag_258\n      jump\t// in\n    tag_301:\n        /* \"#utility.yul\":9850:9875   */\n      swap2\n      pop\n        /* \"#utility.yul\":9889:9909   */\n      tag_302\n        /* \"#utility.yul\":9907:9908   */\n      dup4\n        /* \"#utility.yul\":9889:9909   */\n      tag_258\n      jump\t// in\n    tag_302:\n        /* \"#utility.yul\":9884:9909   */\n      swap3\n      pop\n        /* \"#utility.yul\":10043:10044   */\n      dup3\n        /* \"#utility.yul\":9975:10041   */\n      0xffffffffffffffffffffffffffffffffffffffffffffffffffffffffffffffff\n        /* \"#utility.yul\":9971:10045   */\n      sub\n        /* \"#utility.yul\":9968:9969   */\n      dup3\n        /* \"#utility.yul\":9965:10046   */\n      gt\n        /* \"#utility.yul\":9962:10069   */\n      iszero\n      tag_303\n      jumpi\n        /* \"#utility.yul\":10049:10067   */\n      tag_304\n      tag_305\n      jump\t// in\n    tag_304:\n        /* \"#utility.yul\":9962:10069   */\n    tag_303:\n        /* \"#utility.yul\":10093:10094   */\n      dup3\n        /* \"#utility.yul\":10090:10091   */\n      dup3\n        /* \"#utility.yul\":10086:10095   */\n      add\n        /* \"#utility.yul\":10079:10095   */\n      swap1\n      pop\n        /* \"#utility.yul\":9796:10101   */\n      swap3\n      swap2\n      pop\n      pop\n      jump\t// out\n        /* \"#utility.yul\":10107:10203   */\n    tag_214:\n        /* \"#utility.yul\":10144:10151   */\n      0x00\n        /* \"#utility.yul\":10173:10197   */\n      tag_307\n        /* \"#utility.yul\":10191:10196   */\n      dup3\n        /* \"#utility.yul\":10173:10197   */\n      tag_308\n      jump\t// in\n    tag_307:\n        /* \"#utility.yul\":10162:10197   */\n      swap1\n      pop\n        /* \"#utility.yul\":10107:10203   */\n      swap2\n      swap1\n      pop\n      jump\t// out\n        /* \"#utility.yul\":10209:10299   */\n    tag_218:\n        /* \"#utility.yul\":10243:10250   */\n      0x00\n        /* \"#utility.yul\":10286:10291   */\n      dup2\n        /* \"#utility.yul\":10279:10292   */\n      iszero\n        /* \"#utility.yul\":10272:10293   */\n      iszero\n        /* \"#utility.yul\":10261:10293   */\n      swap1\n      pop\n        /* \"#utility.yul\":10209:10299   */\n      swap2\n      swap1\n      pop\n      jump\t// out\n        /* \"#utility.yul\":10305:10432   */\n    tag_310:\n        /* \"#utility.yul\":10350:10357   */\n      0x00\n        /* \"#utility.yul\":10379:10384   */\n      dup2\n        /* \"#utility.yul\":10368:10384   */\n      swap1\n      pop\n        /* \"#utility.yul\":10385:10426   */\n      tag_312\n        /* \"#utility.yul\":10420:10425   */\n      dup3\n        /* \"#utility.yul\":10385:10426   */\n      tag_313\n      jump\t// in\n    tag_312:\n        /* \"#utility.yul\":10305:10432   */\n      swap2\n      swap1\n      pop\n      jump\t// out\n        /* \"#utility.yul\":10438:10564   */\n    tag_308:\n        /* \"#utility.yul\":10475:10482   */\n      0x00\n        /* \"#utility.yul\":10515:10557   */\n      0xffffffffffffffffffffffffffffffffffffffff\n        /* \"#utility.yul\":10508:10513   */\n      dup3\n        /* \"#utility.yul\":10504:10558   */\n      and\n        /* \"#utility.yul\":10493:10558   */\n      swap1\n      pop\n        /* \"#utility.yul\":10438:10564   */\n      swap2\n      swap1\n      pop\n      jump\t// out\n        /* \"#utility.yul\":10570:10647   */\n    tag_258:\n        /* \"#utility.yul\":10607:10614   */\n      0x00\n        /* \"#utility.yul\":10636:10641   */\n      dup2\n        /* \"#utility.yul\":10625:10641   */\n      swap1\n      pop\n        /* \"#utility.yul\":10570:10647   */\n      swap2\n      swap1\n      pop\n      jump\t// out\n        /* \"#utility.yul\":10653:10780   */\n    tag_222:\n        /* \"#utility.yul\":10709:10718   */\n      0x00\n        /* \"#utility.yul\":10742:10774   */\n      tag_317\n        /* \"#utility.yul\":10768:10773   */\n      dup3\n        /* \"#utility.yul\":10742:10774   */\n      tag_310\n      jump\t// in\n    tag_317:\n        /* \"#utility.yul\":10729:10774   */\n      swap1\n      pop\n        /* \"#utility.yul\":10653:10780   */\n      swap2\n      swap1\n      pop\n      jump\t// out\n        /* \"#utility.yul\":10786:11093   */\n    tag_230:\n        /* \"#utility.yul\":10854:10855   */\n      0x00\n        /* \"#utility.yul\":10864:10977   */\n    tag_319:\n        /* \"#utility.yul\":10878:10884   */\n      dup4\n        /* \"#utility.yul\":10875:10876   */\n      dup2\n        /* \"#utility.yul\":10872:10885   */\n      lt\n        /* \"#utility.yul\":10864:10977   */\n      iszero\n      tag_321\n      jumpi\n        /* \"#utility.yul\":10963:10964   */\n      dup1\n        /* \"#utility.yul\":10958:10961   */\n      dup3\n        /* \"#utility.yul\":10954:10965   */\n      add\n        /* \"#utility.yul\":10948:10966   */\n      mload\n        /* \"#utility.yul\":10944:10945   */\n      dup2\n        /* \"#utility.yul\":10939:10942   */\n      dup5\n        /* \"#utility.yul\":10935:10946   */\n      add\n        /* \"#utility.yul\":10928:10967   */\n      mstore\n        /* \"#utility.yul\":10900:10902   */\n      0x20\n        /* \"#utility.yul\":10897:10898   */\n      dup2\n        /* \"#utility.yul\":10893:10903   */\n      add\n        /* \"#utility.yul\":10888:10903   */\n      swap1\n      pop\n        /* \"#utility.yul\":10864:10977   */\n      jump(tag_319)\n    tag_321:\n        /* \"#utility.yul\":10995:11001   */\n      dup4\n        /* \"#utility.yul\":10992:10993   */\n      dup2\n        /* \"#utility.yul\":10989:11002   */\n      gt\n        /* \"#utility.yul\":10986:11087   */\n      iszero\n      tag_322\n      jumpi\n        /* \"#utility.yul\":11075:11076   */\n      0x00\n        /* \"#utility.yul\":11066:11072   */\n      dup5\n        /* \"#utility.yul\":11061:11064   */\n      dup5\n        /* \"#utility.yul\":11057:11073   */\n      add\n        /* \"#utility.yul\":11050:11077   */\n      mstore\n        /* \"#utility.yul\":10986:11087   */\n    tag_322:\n        /* \"#utility.yul\":10835:11093   */\n      pop\n        /* \"#utility.yul\":10786:11093   */\n      pop\n      pop\n      pop\n      jump\t// out\n        /* \"#utility.yul\":11099:11419   */\n    tag_115:\n        /* \"#utility.yul\":11143:11149   */\n      0x00\n        /* \"#utility.yul\":11180:11181   */\n      0x02\n        /* \"#utility.yul\":11174:11178   */\n      dup3\n        /* \"#utility.yul\":11170:11182   */\n      div\n        /* \"#utility.yul\":11160:11182   */\n      swap1\n      pop\n        /* \"#utility.yul\":11227:11228   */\n      0x01\n        /* \"#utility.yul\":11221:11225   */\n      dup3\n        /* \"#utility.yul\":11217:11229   */\n      and\n        /* \"#utility.yul\":11248:11266   */\n      dup1\n        /* \"#utility.yul\":11238:11319   */\n      tag_324\n      jumpi\n        /* \"#utility.yul\":11304:11308   */\n      0x7f\n        /* \"#utility.yul\":11296:11302   */\n      dup3\n        /* \"#utility.yul\":11292:11309   */\n      and\n        /* \"#utility.yul\":11282:11309   */\n      swap2\n      pop\n        /* \"#utility.yul\":11238:11319   */\n    tag_324:\n        /* \"#utility.yul\":11366:11368   */\n      0x20\n        /* \"#utility.yul\":11358:11364   */\n      dup3\n        /* \"#utility.yul\":11355:11369   */\n      lt\n        /* \"#utility.yul\":11335:11353   */\n      dup2\n        /* \"#utility.yul\":11332:11370   */\n      eq\n        /* \"#utility.yul\":11329:11413   */\n      iszero\n      tag_325\n      jumpi\n        /* \"#utility.yul\":11385:11403   */\n      tag_326\n      tag_327\n      jump\t// in\n    tag_326:\n        /* \"#utility.yul\":11329:11413   */\n    tag_325:\n        /* \"#utility.yul\":11150:11419   */\n      pop\n        /* \"#utility.yul\":11099:11419   */\n      swap2\n      swap1\n      pop\n      jump\t// out\n        /* \"#utility.yul\":11425:11658   */\n    tag_107:\n        /* \"#utility.yul\":11464:11467   */\n      0x00\n        /* \"#utility.yul\":11487:11511   */\n      tag_329\n        /* \"#utility.yul\":11505:11510   */\n      dup3\n        /* \"#utility.yul\":11487:11511   */\n      tag_258\n      jump\t// in\n    tag_329:\n        /* \"#utility.yul\":11478:11511   */\n      swap2\n      pop\n        /* \"#utility.yul\":11533:11599   */\n      0xffffffffffffffffffffffffffffffffffffffffffffffffffffffffffffffff\n        /* \"#utility.yul\":11526:11531   */\n      dup3\n        /* \"#utility.yul\":11523:11600   */\n      eq\n        /* \"#utility.yul\":11520:11623   */\n      iszero\n      tag_330\n      jumpi\n        /* \"#utility.yul\":11603:11621   */\n      tag_331\n      tag_305\n      jump\t// in\n    tag_331:\n        /* \"#utility.yul\":11520:11623   */\n    tag_330:\n        /* \"#utility.yul\":11650:11651   */\n      0x01\n        /* \"#utility.yul\":11643:11648   */\n      dup3\n        /* \"#utility.yul\":11639:11652   */\n      add\n        /* \"#utility.yul\":11632:11652   */\n      swap1\n      pop\n        /* \"#utility.yul\":11425:11658   */\n      swap2\n      swap1\n      pop\n      jump\t// out\n        /* \"#utility.yul\":11664:11844   */\n    tag_305:\n        /* \"#utility.yul\":11712:11789   */\n      0x4e487b7100000000000000000000000000000000000000000000000000000000\n        /* \"#utility.yul\":11709:11710   */\n      0x00\n        /* \"#utility.yul\":11702:11790   */\n      mstore\n        /* \"#utility.yul\":11809:11813   */\n      0x11\n        /* \"#utility.yul\":11806:11807   */\n      0x04\n        /* \"#utility.yul\":11799:11814   */\n      mstore\n        /* \"#utility.yul\":11833:11837   */\n      0x24\n        /* \"#utility.yul\":11830:11831   */\n      0x00\n        /* \"#utility.yul\":11823:11838   */\n      revert\n        /* \"#utility.yul\":11850:12030   */\n    tag_88:\n        /* \"#utility.yul\":11898:11975   */\n      0x4e487b7100000000000000000000000000000000000000000000000000000000\n        /* \"#utility.yul\":11895:11896   */\n      0x00\n        /* \"#utility.yul\":11888:11976   */\n      mstore\n        /* \"#utility.yul\":11995:11999   */\n      0x21\n        /* \"#utility.yul\":11992:11993   */\n      0x04\n        /* \"#utility.yul\":11985:12000   */\n      mstore\n        /* \"#utility.yul\":12019:12023   */\n      0x24\n        /* \"#utility.yul\":12016:12017   */\n      0x00\n        /* \"#utility.yul\":12009:12024   */\n      revert\n        /* \"#utility.yul\":12036:12216   */\n    tag_327:\n        /* \"#utility.yul\":12084:12161   */\n      0x4e487b7100000000000000000000000000000000000000000000000000000000\n        /* \"#utility.yul\":12081:12082   */\n      0x00\n        /* \"#utility.yul\":12074:12162   */\n      mstore\n        /* \"#utility.yul\":12181:12185   */\n      0x22\n        /* \"#utility.yul\":12178:12179   */\n      0x04\n        /* \"#utility.yul\":12171:12186   */\n      mstore\n        /* \"#utility.yul\":12205:12209   */\n      0x24\n        /* \"#utility.yul\":12202:12203   */\n      0x00\n        /* \"#utility.yul\":12195:12210   */\n      revert\n        /* \"#utility.yul\":12345:12462   */\n    tag_195:\n        /* \"#utility.yul\":12454:12455   */\n      0x00\n        /* \"#utility.yul\":12451:12452   */\n      dup1\n        /* \"#utility.yul\":12444:12456   */\n      revert\n        /* \"#utility.yul\":12468:12570   */\n    tag_232:\n        /* \"#utility.yul\":12509:12515   */\n      0x00\n        /* \"#utility.yul\":12560:12562   */\n      0x1f\n        /* \"#utility.yul\":12556:12563   */\n      not\n        /* \"#utility.yul\":12551:12553   */\n      0x1f\n        /* \"#utility.yul\":12544:12549   */\n      dup4\n        /* \"#utility.yul\":12540:12554   */\n      add\n        /* \"#utility.yul\":12536:12564   */\n      and\n        /* \"#utility.yul\":12526:12564   */\n      swap1\n      pop\n        /* \"#utility.yul\":12468:12570   */\n      swap2\n      swap1\n      pop\n      jump\t// out\n        /* \"#utility.yul\":12576:12805   */\n    tag_244:\n        /* \"#utility.yul\":12716:12750   */\n      0x506c656173652070726f7669646520612076616c696420706f6c6c696e672073\n        /* \"#utility.yul\":12712:12713   */\n      0x00\n        /* \"#utility.yul\":12704:12710   */\n      dup3\n        /* \"#utility.yul\":12700:12714   */\n      add\n        /* \"#utility.yul\":12693:12751   */\n      mstore\n        /* \"#utility.yul\":12785:12797   */\n      0x746174696f6e2049442e00000000000000000000000000000000000000000000\n        /* \"#utility.yul\":12780:12782   */\n      0x20\n        /* \"#utility.yul\":12772:12778   */\n      dup3\n        /* \"#utility.yul\":12768:12783   */\n      add\n        /* \"#utility.yul\":12761:12798   */\n      mstore\n        /* \"#utility.yul\":12576:12805   */\n      pop\n      jump\t// out\n        /* \"#utility.yul\":12811:12989   */\n    tag_249:\n        /* \"#utility.yul\":12951:12981   */\n      0x566f74657220697320616c726561647920726567697374657265642e00000000\n        /* \"#utility.yul\":12947:12948   */\n      0x00\n        /* \"#utility.yul\":12939:12945   */\n      dup3\n        /* \"#utility.yul\":12935:12949   */\n      add\n        /* \"#utility.yul\":12928:12982   */\n      mstore\n        /* \"#utility.yul\":12811:12989   */\n      pop\n      jump\t// out\n        /* \"#utility.yul\":12995:13108   */\n    tag_313:\n        /* \"#utility.yul\":13076:13077   */\n      0x04\n        /* \"#utility.yul\":13069:13074   */\n      dup2\n        /* \"#utility.yul\":13066:13078   */\n      lt\n        /* \"#utility.yul\":13056:13102   */\n      tag_342\n      jumpi\n        /* \"#utility.yul\":13082:13100   */\n      tag_343\n      tag_88\n      jump\t// in\n    tag_343:\n        /* \"#utility.yul\":13056:13102   */\n    tag_342:\n        /* \"#utility.yul\":12995:13108   */\n      pop\n      jump\t// out\n        /* \"#utility.yul\":13114:13236   */\n    tag_187:\n        /* \"#utility.yul\":13187:13211   */\n      tag_345\n        /* \"#utility.yul\":13205:13210   */\n      dup2\n        /* \"#utility.yul\":13187:13211   */\n      tag_214\n      jump\t// in\n    tag_345:\n        /* \"#utility.yul\":13180:13185   */\n      dup2\n        /* \"#utility.yul\":13177:13212   */\n      eq\n        /* \"#utility.yul\":13167:13230   */\n      tag_346\n      jumpi\n        /* \"#utility.yul\":13226:13227   */\n      0x00\n        /* \"#utility.yul\":13223:13224   */\n      dup1\n        /* \"#utility.yul\":13216:13228   */\n      revert\n        /* \"#utility.yul\":13167:13230   */\n    tag_346:\n        /* \"#utility.yul\":13114:13236   */\n      pop\n      jump\t// out\n        /* \"#utility.yul\":13242:13364   */\n    tag_191:\n        /* \"#utility.yul\":13315:13339   */\n      tag_348\n        /* \"#utility.yul\":13333:13338   */\n      dup2\n        /* \"#utility.yul\":13315:13339   */\n      tag_258\n      jump\t// in\n    tag_348:\n        /* \"#utility.yul\":13308:13313   */\n      dup2\n        /* \"#utility.yul\":13305:13340   */\n      eq\n        /* \"#utility.yul\":13295:13358   */\n      tag_349\n      jumpi\n        /* \"#utility.yul\":13354:13355   */\n      0x00\n        /* \"#utility.yul\":13351:13352   */\n      dup1\n        /* \"#utility.yul\":13344:13356   */\n      revert\n        /* \"#utility.yul\":13295:13358   */\n    tag_349:\n        /* \"#utility.yul\":13242:13364   */\n      pop\n      jump\t// out\n\n    auxdata: 0xa264697066735822122067f00211e7a8d53c73d5b1fae191b156e4b88708792c58f79148dff72b0f8fef64736f6c63430008070033\n}\n",
				"bytecode": {
					"linkReferences": {},
					"object": "60806040523480156200001157600080fd5b50336000806101000a81548173ffffffffffffffffffffffffffffffffffffffff021916908373ffffffffffffffffffffffffffffffffffffffff16021790555062000062620000a660201b60201c565b620000726200036460201b60201c565b6000600b60006101000a81548160ff021916908360038111156200009b576200009a620007cd565b5b02179055506200082b565b620000ec6040518060400160405280601181526020017f506f6c6c696e672053746174696f6e2031000000000000000000000000000000815250620004c460201b60201c565b620001326040518060400160405280601181526020017f506f6c6c696e672053746174696f6e2032000000000000000000000000000000815250620004c460201b60201c565b620001786040518060400160405280601181526020017f506f6c6c696e672053746174696f6e2033000000000000000000000000000000815250620004c460201b60201c565b620001be6040518060400160405280601181526020017f506f6c6c696e672053746174696f6e2034000000000000000000000000000000815250620004c460201b60201c565b620002046040518060400160405280601181526020017f506f6c6c696e672053746174696f6e2035000000000000000000000000000000815250620004c460201b60201c565b6200024a6040518060400160405280601181526020017f506f6c6c696e672053746174696f6e2036000000000000000000000000000000815250620004c460201b60201c565b620002906040518060400160405280601181526020017f506f6c6c696e672053746174696f6e2037000000000000000000000000000000815250620004c460201b60201c565b620002d66040518060400160405280601181526020017f506f6c6c696e672053746174696f6e2038000000000000000000000000000000815250620004c460201b60201c565b6200031c6040518060400160405280601181526020017f506f6c6c696e672053746174696f6e2039000000000000000000000000000000815250620004c460201b60201c565b620003626040518060400160405280601281526020017f506f6c6c696e672053746174696f6e2031300000000000000000000000000000815250620004c460201b60201c565b565b620003aa6040518060400160405280600b81526020017f43616e64696461746520310000000000000000000000000000000000000000008152506200053560201b60201c565b620003f06040518060400160405280600b81526020017f43616e64696461746520320000000000000000000000000000000000000000008152506200053560201b60201c565b620004366040518060400160405280600b81526020017f43616e64696461746520330000000000000000000000000000000000000000008152506200053560201b60201c565b6200047c6040518060400160405280600b81526020017f43616e64696461746520340000000000000000000000000000000000000000008152506200053560201b60201c565b620004c26040518060400160405280600b81526020017f43616e64696461746520350000000000000000000000000000000000000000008152506200053560201b60201c565b565b60026000815480929190620004d99062000750565b9190505550600060086000600254815260200190815260200160002090506002548160000181905550818160010190805190602001906200051c92919062000660565b5060008160020181905550600081600301819055505050565b600160008154809291906200054a9062000750565b9190505550604051806060016040528060015481526020018281526020016000815250600660006001548152602001908152602001600020600082015181600001556020820151816001019080519060200190620005aa92919062000660565b50604082015181600201559050506000600190505b60025481116200065c5760405180606001604052806001548152602001838152602001600081525060086000838152602001908152602001600020600401600060015481526020019081526020016000206000820151816000015560208201518160010190805190602001906200063892919062000660565b50604082015181600201559050508080620006539062000750565b915050620005bf565b5050565b8280546200066e906200071a565b90600052602060002090601f016020900481019282620006925760008555620006de565b82601f10620006ad57805160ff1916838001178555620006de565b82800160010185558215620006de579182015b82811115620006dd578251825591602001919060010190620006c0565b5b509050620006ed9190620006f1565b5090565b5b808211156200070c576000816000905550600101620006f2565b5090565b6000819050919050565b600060028204905060018216806200073357607f821691505b602082108114156200074a5762000749620007fc565b5b50919050565b60006200075d8262000710565b91507fffffffffffffffffffffffffffffffffffffffffffffffffffffffffffffffff8214156200079357620007926200079e565b5b600182019050919050565b7f4e487b7100000000000000000000000000000000000000000000000000000000600052601160045260246000fd5b7f4e487b7100000000000000000000000000000000000000000000000000000000600052602160045260246000fd5b7f4e487b7100000000000000000000000000000000000000000000000000000000600052602260045260246000fd5b611681806200083b6000396000f3fe608060405234801561001057600080fd5b50600436106100ff5760003560e01c8063a3ec138d11610097578063db3bd5fd11610066578063db3bd5fd1461027c578063df9f1a07146102ac578063f3a8286f146102ca578063fe2442d7146102e8576100ff565b8063a3ec138d14610208578063b922394614610238578063b9f05f2f14610242578063c19d93fb1461025e576100ff565b80633477ee2e116100d35780633477ee2e1461017a5780634763d4e7146101ac57806353357ad0146101e057806362d73eb8146101fe576100ff565b8062aa7464146101045780631ec6b60a146101225780632c0a3f891461012c5780632d35a8a21461015c575b600080fd5b61010c61031b565b60405161011991906112ab565b60405180910390f35b61012a610321565b005b61014660048036038101906101419190610fdb565b6103e8565b6040516101539190611189565b60405180910390f35b610164610718565b60405161017191906112ab565b60405180910390f35b610194600480360381019061018f9190610fae565b61071e565b6040516101a3939291906112c6565b60405180910390f35b6101c660048036038101906101c19190610f41565b6107d0565b6040516101d79594939291906111a4565b60405180910390f35b6101e8610820565b6040516101f5919061116e565b60405180910390f35b610206610844565b005b610222600480360381019061021d9190610f41565b61090b565b60405161022f9190611189565b60405180910390f35b61024061092b565b005b61025c60048036038101906102579190610f6e565b6109fb565b005b610266610c8e565b604051610273919061122e565b60405180910390f35b61029660048036038101906102919190610fdb565b610ca1565b6040516102a39190611289565b60405180910390f35b6102b4610d89565b6040516102c191906112ab565b60405180910390f35b6102d2610d8f565b6040516102df91906112ab565b60405180910390f35b61030260048036038101906102fd9190610fae565b610d95565b6040516103129493929190611304565b60405180910390f35b60035481565b60018060038111156103365761033561151d565b5b600b60009054906101000a900460ff1660038111156103585761035761151d565b5b1461036257600080fd5b60008054906101000a900473ffffffffffffffffffffffffffffffffffffffff1673ffffffffffffffffffffffffffffffffffffffff163373ffffffffffffffffffffffffffffffffffffffff16146103ba57600080fd5b6002600b60006101000a81548160ff021916908360038111156103e0576103df61151d565b5b021790555050565b600060028060038111156103ff576103fe61151d565b5b600b60009054906101000a900460ff1660038111156104215761042061151d565b5b1461042b57600080fd5b6000600960003373ffffffffffffffffffffffffffffffffffffffff1673ffffffffffffffffffffffffffffffffffffffff16815260200190815260200160002060000160009054906101000a900460ff1680156104d65750600960003373ffffffffffffffffffffffffffffffffffffffff1673ffffffffffffffffffffffffffffffffffffffff16815260200190815260200160002060000160019054906101000a900460ff16155b1561070d5784600960003373ffffffffffffffffffffffffffffffffffffffff1673ffffffffffffffffffffffffffffffffffffffff1681526020019081526020016000206001018190555083600960003373ffffffffffffffffffffffffffffffffffffffff1673ffffffffffffffffffffffffffffffffffffffff168152602001908152602001600020600301819055506001600960003373ffffffffffffffffffffffffffffffffffffffff1673ffffffffffffffffffffffffffffffffffffffff16815260200190815260200160002060000160016101000a81548160ff0219169083151502179055506008600085815260200190815260200160002060030160008154809291906105eb906114a5565b9190505550600660008681526020019081526020016000206002016000815480929190610617906114a5565b91905055506004600081548092919061062f906114a5565b91905055506001905080600a60003373ffffffffffffffffffffffffffffffffffffffff1673ffffffffffffffffffffffffffffffffffffffff16815260200190815260200160002060006101000a81548160ff021916908315150217905550600160086000868152602001908152602001600020600401600087815260200190815260200160002060020160008282546106ca919061137d565b925050819055507f29a25b3d0b6ff7e5de2a60a2e8e76d1bdaf4894ec18c598cc1687213f442c5cb818686604051610704939291906111f7565b60405180910390a15b809250505092915050565b60015481565b600660205280600052604060002060009150905080600001549080600101805461074790611473565b80601f016020809104026020016040519081016040528092919081815260200182805461077390611473565b80156107c05780601f10610795576101008083540402835291602001916107c0565b820191906000526020600020905b8154815290600101906020018083116107a357829003601f168201915b5050505050908060020154905083565b60096020528060005260406000206000915090508060000160009054906101000a900460ff16908060000160019054906101000a900460ff16908060010154908060020154908060030154905085565b60008054906101000a900473ffffffffffffffffffffffffffffffffffffffff1681565b60008060038111156108595761085861151d565b5b600b60009054906101000a900460ff16600381111561087b5761087a61151d565b5b1461088557600080fd5b60008054906101000a900473ffffffffffffffffffffffffffffffffffffffff1673ffffffffffffffffffffffffffffffffffffffff163373ffffffffffffffffffffffffffffffffffffffff16146108dd57600080fd5b6001600b60006101000a81548160ff021916908360038111156109035761090261151d565b5b021790555050565b600a6020528060005260406000206000915054906101000a900460ff1681565b60028060038111156109405761093f61151d565b5b600b60009054906101000a900460ff1660038111156109625761096161151d565b5b1461096c57600080fd5b60008054906101000a900473ffffffffffffffffffffffffffffffffffffffff1673ffffffffffffffffffffffffffffffffffffffff163373ffffffffffffffffffffffffffffffffffffffff16146109c457600080fd5b6003600b60006101000a81548160ff021916908360038111156109ea576109e961151d565b5b021790555060045460058190555050565b6000806003811115610a1057610a0f61151d565b5b600b60009054906101000a900460ff166003811115610a3257610a3161151d565b5b14610a3c57600080fd5b60008054906101000a900473ffffffffffffffffffffffffffffffffffffffff1673ffffffffffffffffffffffffffffffffffffffff163373ffffffffffffffffffffffffffffffffffffffff1614610a9457600080fd5b60001515600960008573ffffffffffffffffffffffffffffffffffffffff1673ffffffffffffffffffffffffffffffffffffffff16815260200190815260200160002060000160009054906101000a900460ff16151514610b2a576040517f08c379a0000000000000000000000000000000000000000000000000000000008152600401610b2190611269565b60405180910390fd5b60018210158015610b3d57506002548211155b610b7c576040517f08c379a0000000000000000000000000000000000000000000000000000000008152600401610b7390611249565b60405180910390fd5b610b84610ec3565b60018160000190151590811515815250506000816020019015159081151581525050600081604001818152505082816060018181525050600081608001818152505080600960008673ffffffffffffffffffffffffffffffffffffffff1673ffffffffffffffffffffffffffffffffffffffff16815260200190815260200160002060008201518160000160006101000a81548160ff02191690831515021790555060208201518160000160016101000a81548160ff021916908315150217905550604082015181600101556060820151816002015560808201518160030155905050610c7083610e4d565b60036000815480929190610c83906114a5565b919050555050505050565b600b60009054906101000a900460ff1681565b610ca9610ef6565b60086000848152602001908152602001600020600401600083815260200190815260200160002060405180606001604052908160008201548152602001600182018054610cf590611473565b80601f0160208091040260200160405190810160405280929190818152602001828054610d2190611473565b8015610d6e5780601f10610d4357610100808354040283529160200191610d6e565b820191906000526020600020905b815481529060010190602001808311610d5157829003601f168201915b50505050508152602001600282015481525050905092915050565b60025481565b60055481565b6008602052806000526040600020600091509050806000015490806001018054610dbe90611473565b80601f0160208091040260200160405190810160405280929190818152602001828054610dea90611473565b8015610e375780601f10610e0c57610100808354040283529160200191610e37565b820191906000526020600020905b815481529060010190602001808311610e1a57829003601f168201915b5050505050908060020154908060030154905084565b6000600190505b6002548111610ebf578160086000838152602001908152602001600020600001541415610eac57600860008281526020019081526020016000206002016000815480929190610ea2906114a5565b9190505550610ebf565b8080610eb7906114a5565b915050610e54565b5050565b6040518060a001604052806000151581526020016000151581526020016000815260200160008152602001600081525090565b60405180606001604052806000815260200160608152602001600081525090565b600081359050610f268161161d565b92915050565b600081359050610f3b81611634565b92915050565b600060208284031215610f5757610f5661157b565b5b6000610f6584828501610f17565b91505092915050565b60008060408385031215610f8557610f8461157b565b5b6000610f9385828601610f17565b9250506020610fa485828601610f2c565b9150509250929050565b600060208284031215610fc457610fc361157b565b5b6000610fd284828501610f2c565b91505092915050565b60008060408385031215610ff257610ff161157b565b5b600061100085828601610f2c565b925050602061101185828601610f2c565b9150509250929050565b611024816113d3565b82525050565b611033816113e5565b82525050565b6110428161142e565b82525050565b600061105382611350565b61105d818561135b565b935061106d818560208601611440565b61107681611580565b840191505092915050565b600061108c82611350565b611096818561136c565b93506110a6818560208601611440565b6110af81611580565b840191505092915050565b60006110c7602a8361136c565b91506110d282611591565b604082019050919050565b60006110ea601c8361136c565b91506110f5826115e0565b602082019050919050565b60006060830160008301516111186000860182611150565b50602083015184820360208601526111308282611048565b91505060408301516111456040860182611150565b508091505092915050565b61115981611424565b82525050565b61116881611424565b82525050565b6000602082019050611183600083018461101b565b92915050565b600060208201905061119e600083018461102a565b92915050565b600060a0820190506111b9600083018861102a565b6111c6602083018761102a565b6111d3604083018661115f565b6111e0606083018561115f565b6111ed608083018461115f565b9695505050505050565b600060608201905061120c600083018661102a565b611219602083018561115f565b611226604083018461115f565b949350505050565b60006020820190506112436000830184611039565b92915050565b60006020820190508181036000830152611262816110ba565b9050919050565b60006020820190508181036000830152611282816110dd565b9050919050565b600060208201905081810360008301526112a38184611100565b905092915050565b60006020820190506112c0600083018461115f565b92915050565b60006060820190506112db600083018661115f565b81810360208301526112ed8185611081565b90506112fc604083018461115f565b949350505050565b6000608082019050611319600083018761115f565b818103602083015261132b8186611081565b905061133a604083018561115f565b611347606083018461115f565b95945050505050565b600081519050919050565b600082825260208201905092915050565b600082825260208201905092915050565b600061138882611424565b915061139383611424565b9250827fffffffffffffffffffffffffffffffffffffffffffffffffffffffffffffffff038211156113c8576113c76114ee565b5b828201905092915050565b60006113de82611404565b9050919050565b60008115159050919050565b60008190506113ff82611609565b919050565b600073ffffffffffffffffffffffffffffffffffffffff82169050919050565b6000819050919050565b6000611439826113f1565b9050919050565b60005b8381101561145e578082015181840152602081019050611443565b8381111561146d576000848401525b50505050565b6000600282049050600182168061148b57607f821691505b6020821081141561149f5761149e61154c565b5b50919050565b60006114b082611424565b91507fffffffffffffffffffffffffffffffffffffffffffffffffffffffffffffffff8214156114e3576114e26114ee565b5b600182019050919050565b7f4e487b7100000000000000000000000000000000000000000000000000000000600052601160045260246000fd5b7f4e487b7100000000000000000000000000000000000000000000000000000000600052602160045260246000fd5b7f4e487b7100000000000000000000000000000000000000000000000000000000600052602260045260246000fd5b600080fd5b6000601f19601f8301169050919050565b7f506c656173652070726f7669646520612076616c696420706f6c6c696e67207360008201527f746174696f6e2049442e00000000000000000000000000000000000000000000602082015250565b7f566f74657220697320616c726561647920726567697374657265642e00000000600082015250565b6004811061161a5761161961151d565b5b50565b611626816113d3565b811461163157600080fd5b50565b61163d81611424565b811461164857600080fd5b5056fea264697066735822122067f00211e7a8d53c73d5b1fae191b156e4b88708792c58f79148dff72b0f8fef64736f6c63430008070033",
					"opcodes": "PUSH1 0x80 PUSH1 0x40 MSTORE CALLVALUE DUP1 ISZERO PUSH3 0x11 JUMPI PUSH1 0x0 DUP1 REVERT JUMPDEST POP CALLER PUSH1 0x0 DUP1 PUSH2 0x100 EXP DUP2 SLOAD DUP2 PUSH20 0xFFFFFFFFFFFFFFFFFFFFFFFFFFFFFFFFFFFFFFFF MUL NOT AND SWAP1 DUP4 PUSH20 0xFFFFFFFFFFFFFFFFFFFFFFFFFFFFFFFFFFFFFFFF AND MUL OR SWAP1 SSTORE POP PUSH3 0x62 PUSH3 0xA6 PUSH1 0x20 SHL PUSH1 0x20 SHR JUMP JUMPDEST PUSH3 0x72 PUSH3 0x364 PUSH1 0x20 SHL PUSH1 0x20 SHR JUMP JUMPDEST PUSH1 0x0 PUSH1 0xB PUSH1 0x0 PUSH2 0x100 EXP DUP2 SLOAD DUP2 PUSH1 0xFF MUL NOT AND SWAP1 DUP4 PUSH1 0x3 DUP2 GT ISZERO PUSH3 0x9B JUMPI PUSH3 0x9A PUSH3 0x7CD JUMP JUMPDEST JUMPDEST MUL OR SWAP1 SSTORE POP PUSH3 0x82B JUMP JUMPDEST PUSH3 0xEC PUSH1 0x40 MLOAD DUP1 PUSH1 0x40 ADD PUSH1 0x40 MSTORE DUP1 PUSH1 0x11 DUP2 MSTORE PUSH1 0x20 ADD PUSH32 0x506F6C6C696E672053746174696F6E2031000000000000000000000000000000 DUP2 MSTORE POP PUSH3 0x4C4 PUSH1 0x20 SHL PUSH1 0x20 SHR JUMP JUMPDEST PUSH3 0x132 PUSH1 0x40 MLOAD DUP1 PUSH1 0x40 ADD PUSH1 0x40 MSTORE DUP1 PUSH1 0x11 DUP2 MSTORE PUSH1 0x20 ADD PUSH32 0x506F6C6C696E672053746174696F6E2032000000000000000000000000000000 DUP2 MSTORE POP PUSH3 0x4C4 PUSH1 0x20 SHL PUSH1 0x20 SHR JUMP JUMPDEST PUSH3 0x178 PUSH1 0x40 MLOAD DUP1 PUSH1 0x40 ADD PUSH1 0x40 MSTORE DUP1 PUSH1 0x11 DUP2 MSTORE PUSH1 0x20 ADD PUSH32 0x506F6C6C696E672053746174696F6E2033000000000000000000000000000000 DUP2 MSTORE POP PUSH3 0x4C4 PUSH1 0x20 SHL PUSH1 0x20 SHR JUMP JUMPDEST PUSH3 0x1BE PUSH1 0x40 MLOAD DUP1 PUSH1 0x40 ADD PUSH1 0x40 MSTORE DUP1 PUSH1 0x11 DUP2 MSTORE PUSH1 0x20 ADD PUSH32 0x506F6C6C696E672053746174696F6E2034000000000000000000000000000000 DUP2 MSTORE POP PUSH3 0x4C4 PUSH1 0x20 SHL PUSH1 0x20 SHR JUMP JUMPDEST PUSH3 0x204 PUSH1 0x40 MLOAD DUP1 PUSH1 0x40 ADD PUSH1 0x40 MSTORE DUP1 PUSH1 0x11 DUP2 MSTORE PUSH1 0x20 ADD PUSH32 0x506F6C6C696E672053746174696F6E2035000000000000000000000000000000 DUP2 MSTORE POP PUSH3 0x4C4 PUSH1 0x20 SHL PUSH1 0x20 SHR JUMP JUMPDEST PUSH3 0x24A PUSH1 0x40 MLOAD DUP1 PUSH1 0x40 ADD PUSH1 0x40 MSTORE DUP1 PUSH1 0x11 DUP2 MSTORE PUSH1 0x20 ADD PUSH32 0x506F6C6C696E672053746174696F6E2036000000000000000000000000000000 DUP2 MSTORE POP PUSH3 0x4C4 PUSH1 0x20 SHL PUSH1 0x20 SHR JUMP JUMPDEST PUSH3 0x290 PUSH1 0x40 MLOAD DUP1 PUSH1 0x40 ADD PUSH1 0x40 MSTORE DUP1 PUSH1 0x11 DUP2 MSTORE PUSH1 0x20 ADD PUSH32 0x506F6C6C696E672053746174696F6E2037000000000000000000000000000000 DUP2 MSTORE POP PUSH3 0x4C4 PUSH1 0x20 SHL PUSH1 0x20 SHR JUMP JUMPDEST PUSH3 0x2D6 PUSH1 0x40 MLOAD DUP1 PUSH1 0x40 ADD PUSH1 0x40 MSTORE DUP1 PUSH1 0x11 DUP2 MSTORE PUSH1 0x20 ADD PUSH32 0x506F6C6C696E672053746174696F6E2038000000000000000000000000000000 DUP2 MSTORE POP PUSH3 0x4C4 PUSH1 0x20 SHL PUSH1 0x20 SHR JUMP JUMPDEST PUSH3 0x31C PUSH1 0x40 MLOAD DUP1 PUSH1 0x40 ADD PUSH1 0x40 MSTORE DUP1 PUSH1 0x11 DUP2 MSTORE PUSH1 0x20 ADD PUSH32 0x506F6C6C696E672053746174696F6E2039000000000000000000000000000000 DUP2 MSTORE POP PUSH3 0x4C4 PUSH1 0x20 SHL PUSH1 0x20 SHR JUMP JUMPDEST PUSH3 0x362 PUSH1 0x40 MLOAD DUP1 PUSH1 0x40 ADD PUSH1 0x40 MSTORE DUP1 PUSH1 0x12 DUP2 MSTORE PUSH1 0x20 ADD PUSH32 0x506F6C6C696E672053746174696F6E2031300000000000000000000000000000 DUP2 MSTORE POP PUSH3 0x4C4 PUSH1 0x20 SHL PUSH1 0x20 SHR JUMP JUMPDEST JUMP JUMPDEST PUSH3 0x3AA PUSH1 0x40 MLOAD DUP1 PUSH1 0x40 ADD PUSH1 0x40 MSTORE DUP1 PUSH1 0xB DUP2 MSTORE PUSH1 0x20 ADD PUSH32 0x43616E6469646174652031000000000000000000000000000000000000000000 DUP2 MSTORE POP PUSH3 0x535 PUSH1 0x20 SHL PUSH1 0x20 SHR JUMP JUMPDEST PUSH3 0x3F0 PUSH1 0x40 MLOAD DUP1 PUSH1 0x40 ADD PUSH1 0x40 MSTORE DUP1 PUSH1 0xB DUP2 MSTORE PUSH1 0x20 ADD PUSH32 0x43616E6469646174652032000000000000000000000000000000000000000000 DUP2 MSTORE POP PUSH3 0x535 PUSH1 0x20 SHL PUSH1 0x20 SHR JUMP JUMPDEST PUSH3 0x436 PUSH1 0x40 MLOAD DUP1 PUSH1 0x40 ADD PUSH1 0x40 MSTORE DUP1 PUSH1 0xB DUP2 MSTORE PUSH1 0x20 ADD PUSH32 0x43616E6469646174652033000000000000000000000000000000000000000000 DUP2 MSTORE POP PUSH3 0x535 PUSH1 0x20 SHL PUSH1 0x20 SHR JUMP JUMPDEST PUSH3 0x47C PUSH1 0x40 MLOAD DUP1 PUSH1 0x40 ADD PUSH1 0x40 MSTORE DUP1 PUSH1 0xB DUP2 MSTORE PUSH1 0x20 ADD PUSH32 0x43616E6469646174652034000000000000000000000000000000000000000000 DUP2 MSTORE POP PUSH3 0x535 PUSH1 0x20 SHL PUSH1 0x20 SHR JUMP JUMPDEST PUSH3 0x4C2 PUSH1 0x40 MLOAD DUP1 PUSH1 0x40 ADD PUSH1 0x40 MSTORE DUP1 PUSH1 0xB DUP2 MSTORE PUSH1 0x20 ADD PUSH32 0x43616E6469646174652035000000000000000000000000000000000000000000 DUP2 MSTORE POP PUSH3 0x535 PUSH1 0x20 SHL PUSH1 0x20 SHR JUMP JUMPDEST JUMP JUMPDEST PUSH1 0x2 PUSH1 0x0 DUP2 SLOAD DUP1 SWAP3 SWAP2 SWAP1 PUSH3 0x4D9 SWAP1 PUSH3 0x750 JUMP JUMPDEST SWAP2 SWAP1 POP SSTORE POP PUSH1 0x0 PUSH1 0x8 PUSH1 0x0 PUSH1 0x2 SLOAD DUP2 MSTORE PUSH1 0x20 ADD SWAP1 DUP2 MSTORE PUSH1 0x20 ADD PUSH1 0x0 KECCAK256 SWAP1 POP PUSH1 0x2 SLOAD DUP2 PUSH1 0x0 ADD DUP2 SWAP1 SSTORE POP DUP2 DUP2 PUSH1 0x1 ADD SWAP1 DUP1 MLOAD SWAP1 PUSH1 0x20 ADD SWAP1 PUSH3 0x51C SWAP3 SWAP2 SWAP1 PUSH3 0x660 JUMP JUMPDEST POP PUSH1 0x0 DUP2 PUSH1 0x2 ADD DUP2 SWAP1 SSTORE POP PUSH1 0x0 DUP2 PUSH1 0x3 ADD DUP2 SWAP1 SSTORE POP POP POP JUMP JUMPDEST PUSH1 0x1 PUSH1 0x0 DUP2 SLOAD DUP1 SWAP3 SWAP2 SWAP1 PUSH3 0x54A SWAP1 PUSH3 0x750 JUMP JUMPDEST SWAP2 SWAP1 POP SSTORE POP PUSH1 0x40 MLOAD DUP1 PUSH1 0x60 ADD PUSH1 0x40 MSTORE DUP1 PUSH1 0x1 SLOAD DUP2 MSTORE PUSH1 0x20 ADD DUP3 DUP2 MSTORE PUSH1 0x20 ADD PUSH1 0x0 DUP2 MSTORE POP PUSH1 0x6 PUSH1 0x0 PUSH1 0x1 SLOAD DUP2 MSTORE PUSH1 0x20 ADD SWAP1 DUP2 MSTORE PUSH1 0x20 ADD PUSH1 0x0 KECCAK256 PUSH1 0x0 DUP3 ADD MLOAD DUP2 PUSH1 0x0 ADD SSTORE PUSH1 0x20 DUP3 ADD MLOAD DUP2 PUSH1 0x1 ADD SWAP1 DUP1 MLOAD SWAP1 PUSH1 0x20 ADD SWAP1 PUSH3 0x5AA SWAP3 SWAP2 SWAP1 PUSH3 0x660 JUMP JUMPDEST POP PUSH1 0x40 DUP3 ADD MLOAD DUP2 PUSH1 0x2 ADD SSTORE SWAP1 POP POP PUSH1 0x0 PUSH1 0x1 SWAP1 POP JUMPDEST PUSH1 0x2 SLOAD DUP2 GT PUSH3 0x65C JUMPI PUSH1 0x40 MLOAD DUP1 PUSH1 0x60 ADD PUSH1 0x40 MSTORE DUP1 PUSH1 0x1 SLOAD DUP2 MSTORE PUSH1 0x20 ADD DUP4 DUP2 MSTORE PUSH1 0x20 ADD PUSH1 0x0 DUP2 MSTORE POP PUSH1 0x8 PUSH1 0x0 DUP4 DUP2 MSTORE PUSH1 0x20 ADD SWAP1 DUP2 MSTORE PUSH1 0x20 ADD PUSH1 0x0 KECCAK256 PUSH1 0x4 ADD PUSH1 0x0 PUSH1 0x1 SLOAD DUP2 MSTORE PUSH1 0x20 ADD SWAP1 DUP2 MSTORE PUSH1 0x20 ADD PUSH1 0x0 KECCAK256 PUSH1 0x0 DUP3 ADD MLOAD DUP2 PUSH1 0x0 ADD SSTORE PUSH1 0x20 DUP3 ADD MLOAD DUP2 PUSH1 0x1 ADD SWAP1 DUP1 MLOAD SWAP1 PUSH1 0x20 ADD SWAP1 PUSH3 0x638 SWAP3 SWAP2 SWAP1 PUSH3 0x660 JUMP JUMPDEST POP PUSH1 0x40 DUP3 ADD MLOAD DUP2 PUSH1 0x2 ADD SSTORE SWAP1 POP POP DUP1 DUP1 PUSH3 0x653 SWAP1 PUSH3 0x750 JUMP JUMPDEST SWAP2 POP POP PUSH3 0x5BF JUMP JUMPDEST POP POP JUMP JUMPDEST DUP3 DUP1 SLOAD PUSH3 0x66E SWAP1 PUSH3 0x71A JUMP JUMPDEST SWAP1 PUSH1 0x0 MSTORE PUSH1 0x20 PUSH1 0x0 KECCAK256 SWAP1 PUSH1 0x1F ADD PUSH1 0x20 SWAP1 DIV DUP2 ADD SWAP3 DUP3 PUSH3 0x692 JUMPI PUSH1 0x0 DUP6 SSTORE PUSH3 0x6DE JUMP JUMPDEST DUP3 PUSH1 0x1F LT PUSH3 0x6AD JUMPI DUP1 MLOAD PUSH1 0xFF NOT AND DUP4 DUP1 ADD OR DUP6 SSTORE PUSH3 0x6DE JUMP JUMPDEST DUP3 DUP1 ADD PUSH1 0x1 ADD DUP6 SSTORE DUP3 ISZERO PUSH3 0x6DE JUMPI SWAP2 DUP3 ADD JUMPDEST DUP3 DUP2 GT ISZERO PUSH3 0x6DD JUMPI DUP3 MLOAD DUP3 SSTORE SWAP2 PUSH1 0x20 ADD SWAP2 SWAP1 PUSH1 0x1 ADD SWAP1 PUSH3 0x6C0 JUMP JUMPDEST JUMPDEST POP SWAP1 POP PUSH3 0x6ED SWAP2 SWAP1 PUSH3 0x6F1 JUMP JUMPDEST POP SWAP1 JUMP JUMPDEST JUMPDEST DUP1 DUP3 GT ISZERO PUSH3 0x70C JUMPI PUSH1 0x0 DUP2 PUSH1 0x0 SWAP1 SSTORE POP PUSH1 0x1 ADD PUSH3 0x6F2 JUMP JUMPDEST POP SWAP1 JUMP JUMPDEST PUSH1 0x0 DUP2 SWAP1 POP SWAP2 SWAP1 POP JUMP JUMPDEST PUSH1 0x0 PUSH1 0x2 DUP3 DIV SWAP1 POP PUSH1 0x1 DUP3 AND DUP1 PUSH3 0x733 JUMPI PUSH1 0x7F DUP3 AND SWAP2 POP JUMPDEST PUSH1 0x20 DUP3 LT DUP2 EQ ISZERO PUSH3 0x74A JUMPI PUSH3 0x749 PUSH3 0x7FC JUMP JUMPDEST JUMPDEST POP SWAP2 SWAP1 POP JUMP JUMPDEST PUSH1 0x0 PUSH3 0x75D DUP3 PUSH3 0x710 JUMP JUMPDEST SWAP2 POP PUSH32 0xFFFFFFFFFFFFFFFFFFFFFFFFFFFFFFFFFFFFFFFFFFFFFFFFFFFFFFFFFFFFFFFF DUP3 EQ ISZERO PUSH3 0x793 JUMPI PUSH3 0x792 PUSH3 0x79E JUMP JUMPDEST JUMPDEST PUSH1 0x1 DUP3 ADD SWAP1 POP SWAP2 SWAP1 POP JUMP JUMPDEST PUSH32 0x4E487B7100000000000000000000000000000000000000000000000000000000 PUSH1 0x0 MSTORE PUSH1 0x11 PUSH1 0x4 MSTORE PUSH1 0x24 PUSH1 0x0 REVERT JUMPDEST PUSH32 0x4E487B7100000000000000000000000000000000000000000000000000000000 PUSH1 0x0 MSTORE PUSH1 0x21 PUSH1 0x4 MSTORE PUSH1 0x24 PUSH1 0x0 REVERT JUMPDEST PUSH32 0x4E487B7100000000000000000000000000000000000000000000000000000000 PUSH1 0x0 MSTORE PUSH1 0x22 PUSH1 0x4 MSTORE PUSH1 0x24 PUSH1 0x0 REVERT JUMPDEST PUSH2 0x1681 DUP1 PUSH3 0x83B PUSH1 0x0 CODECOPY PUSH1 0x0 RETURN INVALID PUSH1 0x80 PUSH1 0x40 MSTORE CALLVALUE DUP1 ISZERO PUSH2 0x10 JUMPI PUSH1 0x0 DUP1 REVERT JUMPDEST POP PUSH1 0x4 CALLDATASIZE LT PUSH2 0xFF JUMPI PUSH1 0x0 CALLDATALOAD PUSH1 0xE0 SHR DUP1 PUSH4 0xA3EC138D GT PUSH2 0x97 JUMPI DUP1 PUSH4 0xDB3BD5FD GT PUSH2 0x66 JUMPI DUP1 PUSH4 0xDB3BD5FD EQ PUSH2 0x27C JUMPI DUP1 PUSH4 0xDF9F1A07 EQ PUSH2 0x2AC JUMPI DUP1 PUSH4 0xF3A8286F EQ PUSH2 0x2CA JUMPI DUP1 PUSH4 0xFE2442D7 EQ PUSH2 0x2E8 JUMPI PUSH2 0xFF JUMP JUMPDEST DUP1 PUSH4 0xA3EC138D EQ PUSH2 0x208 JUMPI DUP1 PUSH4 0xB9223946 EQ PUSH2 0x238 JUMPI DUP1 PUSH4 0xB9F05F2F EQ PUSH2 0x242 JUMPI DUP1 PUSH4 0xC19D93FB EQ PUSH2 0x25E JUMPI PUSH2 0xFF JUMP JUMPDEST DUP1 PUSH4 0x3477EE2E GT PUSH2 0xD3 JUMPI DUP1 PUSH4 0x3477EE2E EQ PUSH2 0x17A JUMPI DUP1 PUSH4 0x4763D4E7 EQ PUSH2 0x1AC JUMPI DUP1 PUSH4 0x53357AD0 EQ PUSH2 0x1E0 JUMPI DUP1 PUSH4 0x62D73EB8 EQ PUSH2 0x1FE JUMPI PUSH2 0xFF JUMP JUMPDEST DUP1 PUSH3 0xAA7464 EQ PUSH2 0x104 JUMPI DUP1 PUSH4 0x1EC6B60A EQ PUSH2 0x122 JUMPI DUP1 PUSH4 0x2C0A3F89 EQ PUSH2 0x12C JUMPI DUP1 PUSH4 0x2D35A8A2 EQ PUSH2 0x15C JUMPI JUMPDEST PUSH1 0x0 DUP1 REVERT JUMPDEST PUSH2 0x10C PUSH2 0x31B JUMP JUMPDEST PUSH1 0x40 MLOAD PUSH2 0x119 SWAP2 SWAP1 PUSH2 0x12AB JUMP JUMPDEST PUSH1 0x40 MLOAD DUP1 SWAP2 SUB SWAP1 RETURN JUMPDEST PUSH2 0x12A PUSH2 0x321 JUMP JUMPDEST STOP JUMPDEST PUSH2 0x146 PUSH1 0x4 DUP1 CALLDATASIZE SUB DUP2 ADD SWAP1 PUSH2 0x141 SWAP2 SWAP1 PUSH2 0xFDB JUMP JUMPDEST PUSH2 0x3E8 JUMP JUMPDEST PUSH1 0x40 MLOAD PUSH2 0x153 SWAP2 SWAP1 PUSH2 0x1189 JUMP JUMPDEST PUSH1 0x40 MLOAD DUP1 SWAP2 SUB SWAP1 RETURN JUMPDEST PUSH2 0x164 PUSH2 0x718 JUMP JUMPDEST PUSH1 0x40 MLOAD PUSH2 0x171 SWAP2 SWAP1 PUSH2 0x12AB JUMP JUMPDEST PUSH1 0x40 MLOAD DUP1 SWAP2 SUB SWAP1 RETURN JUMPDEST PUSH2 0x194 PUSH1 0x4 DUP1 CALLDATASIZE SUB DUP2 ADD SWAP1 PUSH2 0x18F SWAP2 SWAP1 PUSH2 0xFAE JUMP JUMPDEST PUSH2 0x71E JUMP JUMPDEST PUSH1 0x40 MLOAD PUSH2 0x1A3 SWAP4 SWAP3 SWAP2 SWAP1 PUSH2 0x12C6 JUMP JUMPDEST PUSH1 0x40 MLOAD DUP1 SWAP2 SUB SWAP1 RETURN JUMPDEST PUSH2 0x1C6 PUSH1 0x4 DUP1 CALLDATASIZE SUB DUP2 ADD SWAP1 PUSH2 0x1C1 SWAP2 SWAP1 PUSH2 0xF41 JUMP JUMPDEST PUSH2 0x7D0 JUMP JUMPDEST PUSH1 0x40 MLOAD PUSH2 0x1D7 SWAP6 SWAP5 SWAP4 SWAP3 SWAP2 SWAP1 PUSH2 0x11A4 JUMP JUMPDEST PUSH1 0x40 MLOAD DUP1 SWAP2 SUB SWAP1 RETURN JUMPDEST PUSH2 0x1E8 PUSH2 0x820 JUMP JUMPDEST PUSH1 0x40 MLOAD PUSH2 0x1F5 SWAP2 SWAP1 PUSH2 0x116E JUMP JUMPDEST PUSH1 0x40 MLOAD DUP1 SWAP2 SUB SWAP1 RETURN JUMPDEST PUSH2 0x206 PUSH2 0x844 JUMP JUMPDEST STOP JUMPDEST PUSH2 0x222 PUSH1 0x4 DUP1 CALLDATASIZE SUB DUP2 ADD SWAP1 PUSH2 0x21D SWAP2 SWAP1 PUSH2 0xF41 JUMP JUMPDEST PUSH2 0x90B JUMP JUMPDEST PUSH1 0x40 MLOAD PUSH2 0x22F SWAP2 SWAP1 PUSH2 0x1189 JUMP JUMPDEST PUSH1 0x40 MLOAD DUP1 SWAP2 SUB SWAP1 RETURN JUMPDEST PUSH2 0x240 PUSH2 0x92B JUMP JUMPDEST STOP JUMPDEST PUSH2 0x25C PUSH1 0x4 DUP1 CALLDATASIZE SUB DUP2 ADD SWAP1 PUSH2 0x257 SWAP2 SWAP1 PUSH2 0xF6E JUMP JUMPDEST PUSH2 0x9FB JUMP JUMPDEST STOP JUMPDEST PUSH2 0x266 PUSH2 0xC8E JUMP JUMPDEST PUSH1 0x40 MLOAD PUSH2 0x273 SWAP2 SWAP1 PUSH2 0x122E JUMP JUMPDEST PUSH1 0x40 MLOAD DUP1 SWAP2 SUB SWAP1 RETURN JUMPDEST PUSH2 0x296 PUSH1 0x4 DUP1 CALLDATASIZE SUB DUP2 ADD SWAP1 PUSH2 0x291 SWAP2 SWAP1 PUSH2 0xFDB JUMP JUMPDEST PUSH2 0xCA1 JUMP JUMPDEST PUSH1 0x40 MLOAD PUSH2 0x2A3 SWAP2 SWAP1 PUSH2 0x1289 JUMP JUMPDEST PUSH1 0x40 MLOAD DUP1 SWAP2 SUB SWAP1 RETURN JUMPDEST PUSH2 0x2B4 PUSH2 0xD89 JUMP JUMPDEST PUSH1 0x40 MLOAD PUSH2 0x2C1 SWAP2 SWAP1 PUSH2 0x12AB JUMP JUMPDEST PUSH1 0x40 MLOAD DUP1 SWAP2 SUB SWAP1 RETURN JUMPDEST PUSH2 0x2D2 PUSH2 0xD8F JUMP JUMPDEST PUSH1 0x40 MLOAD PUSH2 0x2DF SWAP2 SWAP1 PUSH2 0x12AB JUMP JUMPDEST PUSH1 0x40 MLOAD DUP1 SWAP2 SUB SWAP1 RETURN JUMPDEST PUSH2 0x302 PUSH1 0x4 DUP1 CALLDATASIZE SUB DUP2 ADD SWAP1 PUSH2 0x2FD SWAP2 SWAP1 PUSH2 0xFAE JUMP JUMPDEST PUSH2 0xD95 JUMP JUMPDEST PUSH1 0x40 MLOAD PUSH2 0x312 SWAP5 SWAP4 SWAP3 SWAP2 SWAP1 PUSH2 0x1304 JUMP JUMPDEST PUSH1 0x40 MLOAD DUP1 SWAP2 SUB SWAP1 RETURN JUMPDEST PUSH1 0x3 SLOAD DUP2 JUMP JUMPDEST PUSH1 0x1 DUP1 PUSH1 0x3 DUP2 GT ISZERO PUSH2 0x336 JUMPI PUSH2 0x335 PUSH2 0x151D JUMP JUMPDEST JUMPDEST PUSH1 0xB PUSH1 0x0 SWAP1 SLOAD SWAP1 PUSH2 0x100 EXP SWAP1 DIV PUSH1 0xFF AND PUSH1 0x3 DUP2 GT ISZERO PUSH2 0x358 JUMPI PUSH2 0x357 PUSH2 0x151D JUMP JUMPDEST JUMPDEST EQ PUSH2 0x362 JUMPI PUSH1 0x0 DUP1 REVERT JUMPDEST PUSH1 0x0 DUP1 SLOAD SWAP1 PUSH2 0x100 EXP SWAP1 DIV PUSH20 0xFFFFFFFFFFFFFFFFFFFFFFFFFFFFFFFFFFFFFFFF AND PUSH20 0xFFFFFFFFFFFFFFFFFFFFFFFFFFFFFFFFFFFFFFFF AND CALLER PUSH20 0xFFFFFFFFFFFFFFFFFFFFFFFFFFFFFFFFFFFFFFFF AND EQ PUSH2 0x3BA JUMPI PUSH1 0x0 DUP1 REVERT JUMPDEST PUSH1 0x2 PUSH1 0xB PUSH1 0x0 PUSH2 0x100 EXP DUP2 SLOAD DUP2 PUSH1 0xFF MUL NOT AND SWAP1 DUP4 PUSH1 0x3 DUP2 GT ISZERO PUSH2 0x3E0 JUMPI PUSH2 0x3DF PUSH2 0x151D JUMP JUMPDEST JUMPDEST MUL OR SWAP1 SSTORE POP POP JUMP JUMPDEST PUSH1 0x0 PUSH1 0x2 DUP1 PUSH1 0x3 DUP2 GT ISZERO PUSH2 0x3FF JUMPI PUSH2 0x3FE PUSH2 0x151D JUMP JUMPDEST JUMPDEST PUSH1 0xB PUSH1 0x0 SWAP1 SLOAD SWAP1 PUSH2 0x100 EXP SWAP1 DIV PUSH1 0xFF AND PUSH1 0x3 DUP2 GT ISZERO PUSH2 0x421 JUMPI PUSH2 0x420 PUSH2 0x151D JUMP JUMPDEST JUMPDEST EQ PUSH2 0x42B JUMPI PUSH1 0x0 DUP1 REVERT JUMPDEST PUSH1 0x0 PUSH1 0x9 PUSH1 0x0 CALLER PUSH20 0xFFFFFFFFFFFFFFFFFFFFFFFFFFFFFFFFFFFFFFFF AND PUSH20 0xFFFFFFFFFFFFFFFFFFFFFFFFFFFFFFFFFFFFFFFF AND DUP2 MSTORE PUSH1 0x20 ADD SWAP1 DUP2 MSTORE PUSH1 0x20 ADD PUSH1 0x0 KECCAK256 PUSH1 0x0 ADD PUSH1 0x0 SWAP1 SLOAD SWAP1 PUSH2 0x100 EXP SWAP1 DIV PUSH1 0xFF AND DUP1 ISZERO PUSH2 0x4D6 JUMPI POP PUSH1 0x9 PUSH1 0x0 CALLER PUSH20 0xFFFFFFFFFFFFFFFFFFFFFFFFFFFFFFFFFFFFFFFF AND PUSH20 0xFFFFFFFFFFFFFFFFFFFFFFFFFFFFFFFFFFFFFFFF AND DUP2 MSTORE PUSH1 0x20 ADD SWAP1 DUP2 MSTORE PUSH1 0x20 ADD PUSH1 0x0 KECCAK256 PUSH1 0x0 ADD PUSH1 0x1 SWAP1 SLOAD SWAP1 PUSH2 0x100 EXP SWAP1 DIV PUSH1 0xFF AND ISZERO JUMPDEST ISZERO PUSH2 0x70D JUMPI DUP5 PUSH1 0x9 PUSH1 0x0 CALLER PUSH20 0xFFFFFFFFFFFFFFFFFFFFFFFFFFFFFFFFFFFFFFFF AND PUSH20 0xFFFFFFFFFFFFFFFFFFFFFFFFFFFFFFFFFFFFFFFF AND DUP2 MSTORE PUSH1 0x20 ADD SWAP1 DUP2 MSTORE PUSH1 0x20 ADD PUSH1 0x0 KECCAK256 PUSH1 0x1 ADD DUP2 SWAP1 SSTORE POP DUP4 PUSH1 0x9 PUSH1 0x0 CALLER PUSH20 0xFFFFFFFFFFFFFFFFFFFFFFFFFFFFFFFFFFFFFFFF AND PUSH20 0xFFFFFFFFFFFFFFFFFFFFFFFFFFFFFFFFFFFFFFFF AND DUP2 MSTORE PUSH1 0x20 ADD SWAP1 DUP2 MSTORE PUSH1 0x20 ADD PUSH1 0x0 KECCAK256 PUSH1 0x3 ADD DUP2 SWAP1 SSTORE POP PUSH1 0x1 PUSH1 0x9 PUSH1 0x0 CALLER PUSH20 0xFFFFFFFFFFFFFFFFFFFFFFFFFFFFFFFFFFFFFFFF AND PUSH20 0xFFFFFFFFFFFFFFFFFFFFFFFFFFFFFFFFFFFFFFFF AND DUP2 MSTORE PUSH1 0x20 ADD SWAP1 DUP2 MSTORE PUSH1 0x20 ADD PUSH1 0x0 KECCAK256 PUSH1 0x0 ADD PUSH1 0x1 PUSH2 0x100 EXP DUP2 SLOAD DUP2 PUSH1 0xFF MUL NOT AND SWAP1 DUP4 ISZERO ISZERO MUL OR SWAP1 SSTORE POP PUSH1 0x8 PUSH1 0x0 DUP6 DUP2 MSTORE PUSH1 0x20 ADD SWAP1 DUP2 MSTORE PUSH1 0x20 ADD PUSH1 0x0 KECCAK256 PUSH1 0x3 ADD PUSH1 0x0 DUP2 SLOAD DUP1 SWAP3 SWAP2 SWAP1 PUSH2 0x5EB SWAP1 PUSH2 0x14A5 JUMP JUMPDEST SWAP2 SWAP1 POP SSTORE POP PUSH1 0x6 PUSH1 0x0 DUP7 DUP2 MSTORE PUSH1 0x20 ADD SWAP1 DUP2 MSTORE PUSH1 0x20 ADD PUSH1 0x0 KECCAK256 PUSH1 0x2 ADD PUSH1 0x0 DUP2 SLOAD DUP1 SWAP3 SWAP2 SWAP1 PUSH2 0x617 SWAP1 PUSH2 0x14A5 JUMP JUMPDEST SWAP2 SWAP1 POP SSTORE POP PUSH1 0x4 PUSH1 0x0 DUP2 SLOAD DUP1 SWAP3 SWAP2 SWAP1 PUSH2 0x62F SWAP1 PUSH2 0x14A5 JUMP JUMPDEST SWAP2 SWAP1 POP SSTORE POP PUSH1 0x1 SWAP1 POP DUP1 PUSH1 0xA PUSH1 0x0 CALLER PUSH20 0xFFFFFFFFFFFFFFFFFFFFFFFFFFFFFFFFFFFFFFFF AND PUSH20 0xFFFFFFFFFFFFFFFFFFFFFFFFFFFFFFFFFFFFFFFF AND DUP2 MSTORE PUSH1 0x20 ADD SWAP1 DUP2 MSTORE PUSH1 0x20 ADD PUSH1 0x0 KECCAK256 PUSH1 0x0 PUSH2 0x100 EXP DUP2 SLOAD DUP2 PUSH1 0xFF MUL NOT AND SWAP1 DUP4 ISZERO ISZERO MUL OR SWAP1 SSTORE POP PUSH1 0x1 PUSH1 0x8 PUSH1 0x0 DUP7 DUP2 MSTORE PUSH1 0x20 ADD SWAP1 DUP2 MSTORE PUSH1 0x20 ADD PUSH1 0x0 KECCAK256 PUSH1 0x4 ADD PUSH1 0x0 DUP8 DUP2 MSTORE PUSH1 0x20 ADD SWAP1 DUP2 MSTORE PUSH1 0x20 ADD PUSH1 0x0 KECCAK256 PUSH1 0x2 ADD PUSH1 0x0 DUP3 DUP3 SLOAD PUSH2 0x6CA SWAP2 SWAP1 PUSH2 0x137D JUMP JUMPDEST SWAP3 POP POP DUP2 SWAP1 SSTORE POP PUSH32 0x29A25B3D0B6FF7E5DE2A60A2E8E76D1BDAF4894EC18C598CC1687213F442C5CB DUP2 DUP7 DUP7 PUSH1 0x40 MLOAD PUSH2 0x704 SWAP4 SWAP3 SWAP2 SWAP1 PUSH2 0x11F7 JUMP JUMPDEST PUSH1 0x40 MLOAD DUP1 SWAP2 SUB SWAP1 LOG1 JUMPDEST DUP1 SWAP3 POP POP POP SWAP3 SWAP2 POP POP JUMP JUMPDEST PUSH1 0x1 SLOAD DUP2 JUMP JUMPDEST PUSH1 0x6 PUSH1 0x20 MSTORE DUP1 PUSH1 0x0 MSTORE PUSH1 0x40 PUSH1 0x0 KECCAK256 PUSH1 0x0 SWAP2 POP SWAP1 POP DUP1 PUSH1 0x0 ADD SLOAD SWAP1 DUP1 PUSH1 0x1 ADD DUP1 SLOAD PUSH2 0x747 SWAP1 PUSH2 0x1473 JUMP JUMPDEST DUP1 PUSH1 0x1F ADD PUSH1 0x20 DUP1 SWAP2 DIV MUL PUSH1 0x20 ADD PUSH1 0x40 MLOAD SWAP1 DUP2 ADD PUSH1 0x40 MSTORE DUP1 SWAP3 SWAP2 SWAP1 DUP2 DUP2 MSTORE PUSH1 0x20 ADD DUP3 DUP1 SLOAD PUSH2 0x773 SWAP1 PUSH2 0x1473 JUMP JUMPDEST DUP1 ISZERO PUSH2 0x7C0 JUMPI DUP1 PUSH1 0x1F LT PUSH2 0x795 JUMPI PUSH2 0x100 DUP1 DUP4 SLOAD DIV MUL DUP4 MSTORE SWAP2 PUSH1 0x20 ADD SWAP2 PUSH2 0x7C0 JUMP JUMPDEST DUP3 ADD SWAP2 SWAP1 PUSH1 0x0 MSTORE PUSH1 0x20 PUSH1 0x0 KECCAK256 SWAP1 JUMPDEST DUP2 SLOAD DUP2 MSTORE SWAP1 PUSH1 0x1 ADD SWAP1 PUSH1 0x20 ADD DUP1 DUP4 GT PUSH2 0x7A3 JUMPI DUP3 SWAP1 SUB PUSH1 0x1F AND DUP3 ADD SWAP2 JUMPDEST POP POP POP POP POP SWAP1 DUP1 PUSH1 0x2 ADD SLOAD SWAP1 POP DUP4 JUMP JUMPDEST PUSH1 0x9 PUSH1 0x20 MSTORE DUP1 PUSH1 0x0 MSTORE PUSH1 0x40 PUSH1 0x0 KECCAK256 PUSH1 0x0 SWAP2 POP SWAP1 POP DUP1 PUSH1 0x0 ADD PUSH1 0x0 SWAP1 SLOAD SWAP1 PUSH2 0x100 EXP SWAP1 DIV PUSH1 0xFF AND SWAP1 DUP1 PUSH1 0x0 ADD PUSH1 0x1 SWAP1 SLOAD SWAP1 PUSH2 0x100 EXP SWAP1 DIV PUSH1 0xFF AND SWAP1 DUP1 PUSH1 0x1 ADD SLOAD SWAP1 DUP1 PUSH1 0x2 ADD SLOAD SWAP1 DUP1 PUSH1 0x3 ADD SLOAD SWAP1 POP DUP6 JUMP JUMPDEST PUSH1 0x0 DUP1 SLOAD SWAP1 PUSH2 0x100 EXP SWAP1 DIV PUSH20 0xFFFFFFFFFFFFFFFFFFFFFFFFFFFFFFFFFFFFFFFF AND DUP2 JUMP JUMPDEST PUSH1 0x0 DUP1 PUSH1 0x3 DUP2 GT ISZERO PUSH2 0x859 JUMPI PUSH2 0x858 PUSH2 0x151D JUMP JUMPDEST JUMPDEST PUSH1 0xB PUSH1 0x0 SWAP1 SLOAD SWAP1 PUSH2 0x100 EXP SWAP1 DIV PUSH1 0xFF AND PUSH1 0x3 DUP2 GT ISZERO PUSH2 0x87B JUMPI PUSH2 0x87A PUSH2 0x151D JUMP JUMPDEST JUMPDEST EQ PUSH2 0x885 JUMPI PUSH1 0x0 DUP1 REVERT JUMPDEST PUSH1 0x0 DUP1 SLOAD SWAP1 PUSH2 0x100 EXP SWAP1 DIV PUSH20 0xFFFFFFFFFFFFFFFFFFFFFFFFFFFFFFFFFFFFFFFF AND PUSH20 0xFFFFFFFFFFFFFFFFFFFFFFFFFFFFFFFFFFFFFFFF AND CALLER PUSH20 0xFFFFFFFFFFFFFFFFFFFFFFFFFFFFFFFFFFFFFFFF AND EQ PUSH2 0x8DD JUMPI PUSH1 0x0 DUP1 REVERT JUMPDEST PUSH1 0x1 PUSH1 0xB PUSH1 0x0 PUSH2 0x100 EXP DUP2 SLOAD DUP2 PUSH1 0xFF MUL NOT AND SWAP1 DUP4 PUSH1 0x3 DUP2 GT ISZERO PUSH2 0x903 JUMPI PUSH2 0x902 PUSH2 0x151D JUMP JUMPDEST JUMPDEST MUL OR SWAP1 SSTORE POP POP JUMP JUMPDEST PUSH1 0xA PUSH1 0x20 MSTORE DUP1 PUSH1 0x0 MSTORE PUSH1 0x40 PUSH1 0x0 KECCAK256 PUSH1 0x0 SWAP2 POP SLOAD SWAP1 PUSH2 0x100 EXP SWAP1 DIV PUSH1 0xFF AND DUP2 JUMP JUMPDEST PUSH1 0x2 DUP1 PUSH1 0x3 DUP2 GT ISZERO PUSH2 0x940 JUMPI PUSH2 0x93F PUSH2 0x151D JUMP JUMPDEST JUMPDEST PUSH1 0xB PUSH1 0x0 SWAP1 SLOAD SWAP1 PUSH2 0x100 EXP SWAP1 DIV PUSH1 0xFF AND PUSH1 0x3 DUP2 GT ISZERO PUSH2 0x962 JUMPI PUSH2 0x961 PUSH2 0x151D JUMP JUMPDEST JUMPDEST EQ PUSH2 0x96C JUMPI PUSH1 0x0 DUP1 REVERT JUMPDEST PUSH1 0x0 DUP1 SLOAD SWAP1 PUSH2 0x100 EXP SWAP1 DIV PUSH20 0xFFFFFFFFFFFFFFFFFFFFFFFFFFFFFFFFFFFFFFFF AND PUSH20 0xFFFFFFFFFFFFFFFFFFFFFFFFFFFFFFFFFFFFFFFF AND CALLER PUSH20 0xFFFFFFFFFFFFFFFFFFFFFFFFFFFFFFFFFFFFFFFF AND EQ PUSH2 0x9C4 JUMPI PUSH1 0x0 DUP1 REVERT JUMPDEST PUSH1 0x3 PUSH1 0xB PUSH1 0x0 PUSH2 0x100 EXP DUP2 SLOAD DUP2 PUSH1 0xFF MUL NOT AND SWAP1 DUP4 PUSH1 0x3 DUP2 GT ISZERO PUSH2 0x9EA JUMPI PUSH2 0x9E9 PUSH2 0x151D JUMP JUMPDEST JUMPDEST MUL OR SWAP1 SSTORE POP PUSH1 0x4 SLOAD PUSH1 0x5 DUP2 SWAP1 SSTORE POP POP JUMP JUMPDEST PUSH1 0x0 DUP1 PUSH1 0x3 DUP2 GT ISZERO PUSH2 0xA10 JUMPI PUSH2 0xA0F PUSH2 0x151D JUMP JUMPDEST JUMPDEST PUSH1 0xB PUSH1 0x0 SWAP1 SLOAD SWAP1 PUSH2 0x100 EXP SWAP1 DIV PUSH1 0xFF AND PUSH1 0x3 DUP2 GT ISZERO PUSH2 0xA32 JUMPI PUSH2 0xA31 PUSH2 0x151D JUMP JUMPDEST JUMPDEST EQ PUSH2 0xA3C JUMPI PUSH1 0x0 DUP1 REVERT JUMPDEST PUSH1 0x0 DUP1 SLOAD SWAP1 PUSH2 0x100 EXP SWAP1 DIV PUSH20 0xFFFFFFFFFFFFFFFFFFFFFFFFFFFFFFFFFFFFFFFF AND PUSH20 0xFFFFFFFFFFFFFFFFFFFFFFFFFFFFFFFFFFFFFFFF AND CALLER PUSH20 0xFFFFFFFFFFFFFFFFFFFFFFFFFFFFFFFFFFFFFFFF AND EQ PUSH2 0xA94 JUMPI PUSH1 0x0 DUP1 REVERT JUMPDEST PUSH1 0x0 ISZERO ISZERO PUSH1 0x9 PUSH1 0x0 DUP6 PUSH20 0xFFFFFFFFFFFFFFFFFFFFFFFFFFFFFFFFFFFFFFFF AND PUSH20 0xFFFFFFFFFFFFFFFFFFFFFFFFFFFFFFFFFFFFFFFF AND DUP2 MSTORE PUSH1 0x20 ADD SWAP1 DUP2 MSTORE PUSH1 0x20 ADD PUSH1 0x0 KECCAK256 PUSH1 0x0 ADD PUSH1 0x0 SWAP1 SLOAD SWAP1 PUSH2 0x100 EXP SWAP1 DIV PUSH1 0xFF AND ISZERO ISZERO EQ PUSH2 0xB2A JUMPI PUSH1 0x40 MLOAD PUSH32 0x8C379A000000000000000000000000000000000000000000000000000000000 DUP2 MSTORE PUSH1 0x4 ADD PUSH2 0xB21 SWAP1 PUSH2 0x1269 JUMP JUMPDEST PUSH1 0x40 MLOAD DUP1 SWAP2 SUB SWAP1 REVERT JUMPDEST PUSH1 0x1 DUP3 LT ISZERO DUP1 ISZERO PUSH2 0xB3D JUMPI POP PUSH1 0x2 SLOAD DUP3 GT ISZERO JUMPDEST PUSH2 0xB7C JUMPI PUSH1 0x40 MLOAD PUSH32 0x8C379A000000000000000000000000000000000000000000000000000000000 DUP2 MSTORE PUSH1 0x4 ADD PUSH2 0xB73 SWAP1 PUSH2 0x1249 JUMP JUMPDEST PUSH1 0x40 MLOAD DUP1 SWAP2 SUB SWAP1 REVERT JUMPDEST PUSH2 0xB84 PUSH2 0xEC3 JUMP JUMPDEST PUSH1 0x1 DUP2 PUSH1 0x0 ADD SWAP1 ISZERO ISZERO SWAP1 DUP2 ISZERO ISZERO DUP2 MSTORE POP POP PUSH1 0x0 DUP2 PUSH1 0x20 ADD SWAP1 ISZERO ISZERO SWAP1 DUP2 ISZERO ISZERO DUP2 MSTORE POP POP PUSH1 0x0 DUP2 PUSH1 0x40 ADD DUP2 DUP2 MSTORE POP POP DUP3 DUP2 PUSH1 0x60 ADD DUP2 DUP2 MSTORE POP POP PUSH1 0x0 DUP2 PUSH1 0x80 ADD DUP2 DUP2 MSTORE POP POP DUP1 PUSH1 0x9 PUSH1 0x0 DUP7 PUSH20 0xFFFFFFFFFFFFFFFFFFFFFFFFFFFFFFFFFFFFFFFF AND PUSH20 0xFFFFFFFFFFFFFFFFFFFFFFFFFFFFFFFFFFFFFFFF AND DUP2 MSTORE PUSH1 0x20 ADD SWAP1 DUP2 MSTORE PUSH1 0x20 ADD PUSH1 0x0 KECCAK256 PUSH1 0x0 DUP3 ADD MLOAD DUP2 PUSH1 0x0 ADD PUSH1 0x0 PUSH2 0x100 EXP DUP2 SLOAD DUP2 PUSH1 0xFF MUL NOT AND SWAP1 DUP4 ISZERO ISZERO MUL OR SWAP1 SSTORE POP PUSH1 0x20 DUP3 ADD MLOAD DUP2 PUSH1 0x0 ADD PUSH1 0x1 PUSH2 0x100 EXP DUP2 SLOAD DUP2 PUSH1 0xFF MUL NOT AND SWAP1 DUP4 ISZERO ISZERO MUL OR SWAP1 SSTORE POP PUSH1 0x40 DUP3 ADD MLOAD DUP2 PUSH1 0x1 ADD SSTORE PUSH1 0x60 DUP3 ADD MLOAD DUP2 PUSH1 0x2 ADD SSTORE PUSH1 0x80 DUP3 ADD MLOAD DUP2 PUSH1 0x3 ADD SSTORE SWAP1 POP POP PUSH2 0xC70 DUP4 PUSH2 0xE4D JUMP JUMPDEST PUSH1 0x3 PUSH1 0x0 DUP2 SLOAD DUP1 SWAP3 SWAP2 SWAP1 PUSH2 0xC83 SWAP1 PUSH2 0x14A5 JUMP JUMPDEST SWAP2 SWAP1 POP SSTORE POP POP POP POP POP JUMP JUMPDEST PUSH1 0xB PUSH1 0x0 SWAP1 SLOAD SWAP1 PUSH2 0x100 EXP SWAP1 DIV PUSH1 0xFF AND DUP2 JUMP JUMPDEST PUSH2 0xCA9 PUSH2 0xEF6 JUMP JUMPDEST PUSH1 0x8 PUSH1 0x0 DUP5 DUP2 MSTORE PUSH1 0x20 ADD SWAP1 DUP2 MSTORE PUSH1 0x20 ADD PUSH1 0x0 KECCAK256 PUSH1 0x4 ADD PUSH1 0x0 DUP4 DUP2 MSTORE PUSH1 0x20 ADD SWAP1 DUP2 MSTORE PUSH1 0x20 ADD PUSH1 0x0 KECCAK256 PUSH1 0x40 MLOAD DUP1 PUSH1 0x60 ADD PUSH1 0x40 MSTORE SWAP1 DUP2 PUSH1 0x0 DUP3 ADD SLOAD DUP2 MSTORE PUSH1 0x20 ADD PUSH1 0x1 DUP3 ADD DUP1 SLOAD PUSH2 0xCF5 SWAP1 PUSH2 0x1473 JUMP JUMPDEST DUP1 PUSH1 0x1F ADD PUSH1 0x20 DUP1 SWAP2 DIV MUL PUSH1 0x20 ADD PUSH1 0x40 MLOAD SWAP1 DUP2 ADD PUSH1 0x40 MSTORE DUP1 SWAP3 SWAP2 SWAP1 DUP2 DUP2 MSTORE PUSH1 0x20 ADD DUP3 DUP1 SLOAD PUSH2 0xD21 SWAP1 PUSH2 0x1473 JUMP JUMPDEST DUP1 ISZERO PUSH2 0xD6E JUMPI DUP1 PUSH1 0x1F LT PUSH2 0xD43 JUMPI PUSH2 0x100 DUP1 DUP4 SLOAD DIV MUL DUP4 MSTORE SWAP2 PUSH1 0x20 ADD SWAP2 PUSH2 0xD6E JUMP JUMPDEST DUP3 ADD SWAP2 SWAP1 PUSH1 0x0 MSTORE PUSH1 0x20 PUSH1 0x0 KECCAK256 SWAP1 JUMPDEST DUP2 SLOAD DUP2 MSTORE SWAP1 PUSH1 0x1 ADD SWAP1 PUSH1 0x20 ADD DUP1 DUP4 GT PUSH2 0xD51 JUMPI DUP3 SWAP1 SUB PUSH1 0x1F AND DUP3 ADD SWAP2 JUMPDEST POP POP POP POP POP DUP2 MSTORE PUSH1 0x20 ADD PUSH1 0x2 DUP3 ADD SLOAD DUP2 MSTORE POP POP SWAP1 POP SWAP3 SWAP2 POP POP JUMP JUMPDEST PUSH1 0x2 SLOAD DUP2 JUMP JUMPDEST PUSH1 0x5 SLOAD DUP2 JUMP JUMPDEST PUSH1 0x8 PUSH1 0x20 MSTORE DUP1 PUSH1 0x0 MSTORE PUSH1 0x40 PUSH1 0x0 KECCAK256 PUSH1 0x0 SWAP2 POP SWAP1 POP DUP1 PUSH1 0x0 ADD SLOAD SWAP1 DUP1 PUSH1 0x1 ADD DUP1 SLOAD PUSH2 0xDBE SWAP1 PUSH2 0x1473 JUMP JUMPDEST DUP1 PUSH1 0x1F ADD PUSH1 0x20 DUP1 SWAP2 DIV MUL PUSH1 0x20 ADD PUSH1 0x40 MLOAD SWAP1 DUP2 ADD PUSH1 0x40 MSTORE DUP1 SWAP3 SWAP2 SWAP1 DUP2 DUP2 MSTORE PUSH1 0x20 ADD DUP3 DUP1 SLOAD PUSH2 0xDEA SWAP1 PUSH2 0x1473 JUMP JUMPDEST DUP1 ISZERO PUSH2 0xE37 JUMPI DUP1 PUSH1 0x1F LT PUSH2 0xE0C JUMPI PUSH2 0x100 DUP1 DUP4 SLOAD DIV MUL DUP4 MSTORE SWAP2 PUSH1 0x20 ADD SWAP2 PUSH2 0xE37 JUMP JUMPDEST DUP3 ADD SWAP2 SWAP1 PUSH1 0x0 MSTORE PUSH1 0x20 PUSH1 0x0 KECCAK256 SWAP1 JUMPDEST DUP2 SLOAD DUP2 MSTORE SWAP1 PUSH1 0x1 ADD SWAP1 PUSH1 0x20 ADD DUP1 DUP4 GT PUSH2 0xE1A JUMPI DUP3 SWAP1 SUB PUSH1 0x1F AND DUP3 ADD SWAP2 JUMPDEST POP POP POP POP POP SWAP1 DUP1 PUSH1 0x2 ADD SLOAD SWAP1 DUP1 PUSH1 0x3 ADD SLOAD SWAP1 POP DUP5 JUMP JUMPDEST PUSH1 0x0 PUSH1 0x1 SWAP1 POP JUMPDEST PUSH1 0x2 SLOAD DUP2 GT PUSH2 0xEBF JUMPI DUP2 PUSH1 0x8 PUSH1 0x0 DUP4 DUP2 MSTORE PUSH1 0x20 ADD SWAP1 DUP2 MSTORE PUSH1 0x20 ADD PUSH1 0x0 KECCAK256 PUSH1 0x0 ADD SLOAD EQ ISZERO PUSH2 0xEAC JUMPI PUSH1 0x8 PUSH1 0x0 DUP3 DUP2 MSTORE PUSH1 0x20 ADD SWAP1 DUP2 MSTORE PUSH1 0x20 ADD PUSH1 0x0 KECCAK256 PUSH1 0x2 ADD PUSH1 0x0 DUP2 SLOAD DUP1 SWAP3 SWAP2 SWAP1 PUSH2 0xEA2 SWAP1 PUSH2 0x14A5 JUMP JUMPDEST SWAP2 SWAP1 POP SSTORE POP PUSH2 0xEBF JUMP JUMPDEST DUP1 DUP1 PUSH2 0xEB7 SWAP1 PUSH2 0x14A5 JUMP JUMPDEST SWAP2 POP POP PUSH2 0xE54 JUMP JUMPDEST POP POP JUMP JUMPDEST PUSH1 0x40 MLOAD DUP1 PUSH1 0xA0 ADD PUSH1 0x40 MSTORE DUP1 PUSH1 0x0 ISZERO ISZERO DUP2 MSTORE PUSH1 0x20 ADD PUSH1 0x0 ISZERO ISZERO DUP2 MSTORE PUSH1 0x20 ADD PUSH1 0x0 DUP2 MSTORE PUSH1 0x20 ADD PUSH1 0x0 DUP2 MSTORE PUSH1 0x20 ADD PUSH1 0x0 DUP2 MSTORE POP SWAP1 JUMP JUMPDEST PUSH1 0x40 MLOAD DUP1 PUSH1 0x60 ADD PUSH1 0x40 MSTORE DUP1 PUSH1 0x0 DUP2 MSTORE PUSH1 0x20 ADD PUSH1 0x60 DUP2 MSTORE PUSH1 0x20 ADD PUSH1 0x0 DUP2 MSTORE POP SWAP1 JUMP JUMPDEST PUSH1 0x0 DUP2 CALLDATALOAD SWAP1 POP PUSH2 0xF26 DUP2 PUSH2 0x161D JUMP JUMPDEST SWAP3 SWAP2 POP POP JUMP JUMPDEST PUSH1 0x0 DUP2 CALLDATALOAD SWAP1 POP PUSH2 0xF3B DUP2 PUSH2 0x1634 JUMP JUMPDEST SWAP3 SWAP2 POP POP JUMP JUMPDEST PUSH1 0x0 PUSH1 0x20 DUP3 DUP5 SUB SLT ISZERO PUSH2 0xF57 JUMPI PUSH2 0xF56 PUSH2 0x157B JUMP JUMPDEST JUMPDEST PUSH1 0x0 PUSH2 0xF65 DUP5 DUP3 DUP6 ADD PUSH2 0xF17 JUMP JUMPDEST SWAP2 POP POP SWAP3 SWAP2 POP POP JUMP JUMPDEST PUSH1 0x0 DUP1 PUSH1 0x40 DUP4 DUP6 SUB SLT ISZERO PUSH2 0xF85 JUMPI PUSH2 0xF84 PUSH2 0x157B JUMP JUMPDEST JUMPDEST PUSH1 0x0 PUSH2 0xF93 DUP6 DUP3 DUP7 ADD PUSH2 0xF17 JUMP JUMPDEST SWAP3 POP POP PUSH1 0x20 PUSH2 0xFA4 DUP6 DUP3 DUP7 ADD PUSH2 0xF2C JUMP JUMPDEST SWAP2 POP POP SWAP3 POP SWAP3 SWAP1 POP JUMP JUMPDEST PUSH1 0x0 PUSH1 0x20 DUP3 DUP5 SUB SLT ISZERO PUSH2 0xFC4 JUMPI PUSH2 0xFC3 PUSH2 0x157B JUMP JUMPDEST JUMPDEST PUSH1 0x0 PUSH2 0xFD2 DUP5 DUP3 DUP6 ADD PUSH2 0xF2C JUMP JUMPDEST SWAP2 POP POP SWAP3 SWAP2 POP POP JUMP JUMPDEST PUSH1 0x0 DUP1 PUSH1 0x40 DUP4 DUP6 SUB SLT ISZERO PUSH2 0xFF2 JUMPI PUSH2 0xFF1 PUSH2 0x157B JUMP JUMPDEST JUMPDEST PUSH1 0x0 PUSH2 0x1000 DUP6 DUP3 DUP7 ADD PUSH2 0xF2C JUMP JUMPDEST SWAP3 POP POP PUSH1 0x20 PUSH2 0x1011 DUP6 DUP3 DUP7 ADD PUSH2 0xF2C JUMP JUMPDEST SWAP2 POP POP SWAP3 POP SWAP3 SWAP1 POP JUMP JUMPDEST PUSH2 0x1024 DUP2 PUSH2 0x13D3 JUMP JUMPDEST DUP3 MSTORE POP POP JUMP JUMPDEST PUSH2 0x1033 DUP2 PUSH2 0x13E5 JUMP JUMPDEST DUP3 MSTORE POP POP JUMP JUMPDEST PUSH2 0x1042 DUP2 PUSH2 0x142E JUMP JUMPDEST DUP3 MSTORE POP POP JUMP JUMPDEST PUSH1 0x0 PUSH2 0x1053 DUP3 PUSH2 0x1350 JUMP JUMPDEST PUSH2 0x105D DUP2 DUP6 PUSH2 0x135B JUMP JUMPDEST SWAP4 POP PUSH2 0x106D DUP2 DUP6 PUSH1 0x20 DUP7 ADD PUSH2 0x1440 JUMP JUMPDEST PUSH2 0x1076 DUP2 PUSH2 0x1580 JUMP JUMPDEST DUP5 ADD SWAP2 POP POP SWAP3 SWAP2 POP POP JUMP JUMPDEST PUSH1 0x0 PUSH2 0x108C DUP3 PUSH2 0x1350 JUMP JUMPDEST PUSH2 0x1096 DUP2 DUP6 PUSH2 0x136C JUMP JUMPDEST SWAP4 POP PUSH2 0x10A6 DUP2 DUP6 PUSH1 0x20 DUP7 ADD PUSH2 0x1440 JUMP JUMPDEST PUSH2 0x10AF DUP2 PUSH2 0x1580 JUMP JUMPDEST DUP5 ADD SWAP2 POP POP SWAP3 SWAP2 POP POP JUMP JUMPDEST PUSH1 0x0 PUSH2 0x10C7 PUSH1 0x2A DUP4 PUSH2 0x136C JUMP JUMPDEST SWAP2 POP PUSH2 0x10D2 DUP3 PUSH2 0x1591 JUMP JUMPDEST PUSH1 0x40 DUP3 ADD SWAP1 POP SWAP2 SWAP1 POP JUMP JUMPDEST PUSH1 0x0 PUSH2 0x10EA PUSH1 0x1C DUP4 PUSH2 0x136C JUMP JUMPDEST SWAP2 POP PUSH2 0x10F5 DUP3 PUSH2 0x15E0 JUMP JUMPDEST PUSH1 0x20 DUP3 ADD SWAP1 POP SWAP2 SWAP1 POP JUMP JUMPDEST PUSH1 0x0 PUSH1 0x60 DUP4 ADD PUSH1 0x0 DUP4 ADD MLOAD PUSH2 0x1118 PUSH1 0x0 DUP7 ADD DUP3 PUSH2 0x1150 JUMP JUMPDEST POP PUSH1 0x20 DUP4 ADD MLOAD DUP5 DUP3 SUB PUSH1 0x20 DUP7 ADD MSTORE PUSH2 0x1130 DUP3 DUP3 PUSH2 0x1048 JUMP JUMPDEST SWAP2 POP POP PUSH1 0x40 DUP4 ADD MLOAD PUSH2 0x1145 PUSH1 0x40 DUP7 ADD DUP3 PUSH2 0x1150 JUMP JUMPDEST POP DUP1 SWAP2 POP POP SWAP3 SWAP2 POP POP JUMP JUMPDEST PUSH2 0x1159 DUP2 PUSH2 0x1424 JUMP JUMPDEST DUP3 MSTORE POP POP JUMP JUMPDEST PUSH2 0x1168 DUP2 PUSH2 0x1424 JUMP JUMPDEST DUP3 MSTORE POP POP JUMP JUMPDEST PUSH1 0x0 PUSH1 0x20 DUP3 ADD SWAP1 POP PUSH2 0x1183 PUSH1 0x0 DUP4 ADD DUP5 PUSH2 0x101B JUMP JUMPDEST SWAP3 SWAP2 POP POP JUMP JUMPDEST PUSH1 0x0 PUSH1 0x20 DUP3 ADD SWAP1 POP PUSH2 0x119E PUSH1 0x0 DUP4 ADD DUP5 PUSH2 0x102A JUMP JUMPDEST SWAP3 SWAP2 POP POP JUMP JUMPDEST PUSH1 0x0 PUSH1 0xA0 DUP3 ADD SWAP1 POP PUSH2 0x11B9 PUSH1 0x0 DUP4 ADD DUP9 PUSH2 0x102A JUMP JUMPDEST PUSH2 0x11C6 PUSH1 0x20 DUP4 ADD DUP8 PUSH2 0x102A JUMP JUMPDEST PUSH2 0x11D3 PUSH1 0x40 DUP4 ADD DUP7 PUSH2 0x115F JUMP JUMPDEST PUSH2 0x11E0 PUSH1 0x60 DUP4 ADD DUP6 PUSH2 0x115F JUMP JUMPDEST PUSH2 0x11ED PUSH1 0x80 DUP4 ADD DUP5 PUSH2 0x115F JUMP JUMPDEST SWAP7 SWAP6 POP POP POP POP POP POP JUMP JUMPDEST PUSH1 0x0 PUSH1 0x60 DUP3 ADD SWAP1 POP PUSH2 0x120C PUSH1 0x0 DUP4 ADD DUP7 PUSH2 0x102A JUMP JUMPDEST PUSH2 0x1219 PUSH1 0x20 DUP4 ADD DUP6 PUSH2 0x115F JUMP JUMPDEST PUSH2 0x1226 PUSH1 0x40 DUP4 ADD DUP5 PUSH2 0x115F JUMP JUMPDEST SWAP5 SWAP4 POP POP POP POP JUMP JUMPDEST PUSH1 0x0 PUSH1 0x20 DUP3 ADD SWAP1 POP PUSH2 0x1243 PUSH1 0x0 DUP4 ADD DUP5 PUSH2 0x1039 JUMP JUMPDEST SWAP3 SWAP2 POP POP JUMP JUMPDEST PUSH1 0x0 PUSH1 0x20 DUP3 ADD SWAP1 POP DUP2 DUP2 SUB PUSH1 0x0 DUP4 ADD MSTORE PUSH2 0x1262 DUP2 PUSH2 0x10BA JUMP JUMPDEST SWAP1 POP SWAP2 SWAP1 POP JUMP JUMPDEST PUSH1 0x0 PUSH1 0x20 DUP3 ADD SWAP1 POP DUP2 DUP2 SUB PUSH1 0x0 DUP4 ADD MSTORE PUSH2 0x1282 DUP2 PUSH2 0x10DD JUMP JUMPDEST SWAP1 POP SWAP2 SWAP1 POP JUMP JUMPDEST PUSH1 0x0 PUSH1 0x20 DUP3 ADD SWAP1 POP DUP2 DUP2 SUB PUSH1 0x0 DUP4 ADD MSTORE PUSH2 0x12A3 DUP2 DUP5 PUSH2 0x1100 JUMP JUMPDEST SWAP1 POP SWAP3 SWAP2 POP POP JUMP JUMPDEST PUSH1 0x0 PUSH1 0x20 DUP3 ADD SWAP1 POP PUSH2 0x12C0 PUSH1 0x0 DUP4 ADD DUP5 PUSH2 0x115F JUMP JUMPDEST SWAP3 SWAP2 POP POP JUMP JUMPDEST PUSH1 0x0 PUSH1 0x60 DUP3 ADD SWAP1 POP PUSH2 0x12DB PUSH1 0x0 DUP4 ADD DUP7 PUSH2 0x115F JUMP JUMPDEST DUP2 DUP2 SUB PUSH1 0x20 DUP4 ADD MSTORE PUSH2 0x12ED DUP2 DUP6 PUSH2 0x1081 JUMP JUMPDEST SWAP1 POP PUSH2 0x12FC PUSH1 0x40 DUP4 ADD DUP5 PUSH2 0x115F JUMP JUMPDEST SWAP5 SWAP4 POP POP POP POP JUMP JUMPDEST PUSH1 0x0 PUSH1 0x80 DUP3 ADD SWAP1 POP PUSH2 0x1319 PUSH1 0x0 DUP4 ADD DUP8 PUSH2 0x115F JUMP JUMPDEST DUP2 DUP2 SUB PUSH1 0x20 DUP4 ADD MSTORE PUSH2 0x132B DUP2 DUP7 PUSH2 0x1081 JUMP JUMPDEST SWAP1 POP PUSH2 0x133A PUSH1 0x40 DUP4 ADD DUP6 PUSH2 0x115F JUMP JUMPDEST PUSH2 0x1347 PUSH1 0x60 DUP4 ADD DUP5 PUSH2 0x115F JUMP JUMPDEST SWAP6 SWAP5 POP POP POP POP POP JUMP JUMPDEST PUSH1 0x0 DUP2 MLOAD SWAP1 POP SWAP2 SWAP1 POP JUMP JUMPDEST PUSH1 0x0 DUP3 DUP3 MSTORE PUSH1 0x20 DUP3 ADD SWAP1 POP SWAP3 SWAP2 POP POP JUMP JUMPDEST PUSH1 0x0 DUP3 DUP3 MSTORE PUSH1 0x20 DUP3 ADD SWAP1 POP SWAP3 SWAP2 POP POP JUMP JUMPDEST PUSH1 0x0 PUSH2 0x1388 DUP3 PUSH2 0x1424 JUMP JUMPDEST SWAP2 POP PUSH2 0x1393 DUP4 PUSH2 0x1424 JUMP JUMPDEST SWAP3 POP DUP3 PUSH32 0xFFFFFFFFFFFFFFFFFFFFFFFFFFFFFFFFFFFFFFFFFFFFFFFFFFFFFFFFFFFFFFFF SUB DUP3 GT ISZERO PUSH2 0x13C8 JUMPI PUSH2 0x13C7 PUSH2 0x14EE JUMP JUMPDEST JUMPDEST DUP3 DUP3 ADD SWAP1 POP SWAP3 SWAP2 POP POP JUMP JUMPDEST PUSH1 0x0 PUSH2 0x13DE DUP3 PUSH2 0x1404 JUMP JUMPDEST SWAP1 POP SWAP2 SWAP1 POP JUMP JUMPDEST PUSH1 0x0 DUP2 ISZERO ISZERO SWAP1 POP SWAP2 SWAP1 POP JUMP JUMPDEST PUSH1 0x0 DUP2 SWAP1 POP PUSH2 0x13FF DUP3 PUSH2 0x1609 JUMP JUMPDEST SWAP2 SWAP1 POP JUMP JUMPDEST PUSH1 0x0 PUSH20 0xFFFFFFFFFFFFFFFFFFFFFFFFFFFFFFFFFFFFFFFF DUP3 AND SWAP1 POP SWAP2 SWAP1 POP JUMP JUMPDEST PUSH1 0x0 DUP2 SWAP1 POP SWAP2 SWAP1 POP JUMP JUMPDEST PUSH1 0x0 PUSH2 0x1439 DUP3 PUSH2 0x13F1 JUMP JUMPDEST SWAP1 POP SWAP2 SWAP1 POP JUMP JUMPDEST PUSH1 0x0 JUMPDEST DUP4 DUP2 LT ISZERO PUSH2 0x145E JUMPI DUP1 DUP3 ADD MLOAD DUP2 DUP5 ADD MSTORE PUSH1 0x20 DUP2 ADD SWAP1 POP PUSH2 0x1443 JUMP JUMPDEST DUP4 DUP2 GT ISZERO PUSH2 0x146D JUMPI PUSH1 0x0 DUP5 DUP5 ADD MSTORE JUMPDEST POP POP POP POP JUMP JUMPDEST PUSH1 0x0 PUSH1 0x2 DUP3 DIV SWAP1 POP PUSH1 0x1 DUP3 AND DUP1 PUSH2 0x148B JUMPI PUSH1 0x7F DUP3 AND SWAP2 POP JUMPDEST PUSH1 0x20 DUP3 LT DUP2 EQ ISZERO PUSH2 0x149F JUMPI PUSH2 0x149E PUSH2 0x154C JUMP JUMPDEST JUMPDEST POP SWAP2 SWAP1 POP JUMP JUMPDEST PUSH1 0x0 PUSH2 0x14B0 DUP3 PUSH2 0x1424 JUMP JUMPDEST SWAP2 POP PUSH32 0xFFFFFFFFFFFFFFFFFFFFFFFFFFFFFFFFFFFFFFFFFFFFFFFFFFFFFFFFFFFFFFFF DUP3 EQ ISZERO PUSH2 0x14E3 JUMPI PUSH2 0x14E2 PUSH2 0x14EE JUMP JUMPDEST JUMPDEST PUSH1 0x1 DUP3 ADD SWAP1 POP SWAP2 SWAP1 POP JUMP JUMPDEST PUSH32 0x4E487B7100000000000000000000000000000000000000000000000000000000 PUSH1 0x0 MSTORE PUSH1 0x11 PUSH1 0x4 MSTORE PUSH1 0x24 PUSH1 0x0 REVERT JUMPDEST PUSH32 0x4E487B7100000000000000000000000000000000000000000000000000000000 PUSH1 0x0 MSTORE PUSH1 0x21 PUSH1 0x4 MSTORE PUSH1 0x24 PUSH1 0x0 REVERT JUMPDEST PUSH32 0x4E487B7100000000000000000000000000000000000000000000000000000000 PUSH1 0x0 MSTORE PUSH1 0x22 PUSH1 0x4 MSTORE PUSH1 0x24 PUSH1 0x0 REVERT JUMPDEST PUSH1 0x0 DUP1 REVERT JUMPDEST PUSH1 0x0 PUSH1 0x1F NOT PUSH1 0x1F DUP4 ADD AND SWAP1 POP SWAP2 SWAP1 POP JUMP JUMPDEST PUSH32 0x506C656173652070726F7669646520612076616C696420706F6C6C696E672073 PUSH1 0x0 DUP3 ADD MSTORE PUSH32 0x746174696F6E2049442E00000000000000000000000000000000000000000000 PUSH1 0x20 DUP3 ADD MSTORE POP JUMP JUMPDEST PUSH32 0x566F74657220697320616C726561647920726567697374657265642E00000000 PUSH1 0x0 DUP3 ADD MSTORE POP JUMP JUMPDEST PUSH1 0x4 DUP2 LT PUSH2 0x161A JUMPI PUSH2 0x1619 PUSH2 0x151D JUMP JUMPDEST JUMPDEST POP JUMP JUMPDEST PUSH2 0x1626 DUP2 PUSH2 0x13D3 JUMP JUMPDEST DUP2 EQ PUSH2 0x1631 JUMPI PUSH1 0x0 DUP1 REVERT JUMPDEST POP JUMP JUMPDEST PUSH2 0x163D DUP2 PUSH2 0x1424 JUMP JUMPDEST DUP2 EQ PUSH2 0x1648 JUMPI PUSH1 0x0 DUP1 REVERT JUMPDEST POP JUMP INVALID LOG2 PUSH5 0x6970667358 0x22 SLT KECCAK256 PUSH8 0xF00211E7A8D53C73 0xD5 0xB1 STATICCALL 0xE1 SWAP2 0xB1 JUMP 0xE4 0xB8 DUP8 ADDMOD PUSH26 0x2C58F79148DFF72B0F8FEF64736F6C6343000807003300000000 "
				},
				"gasEstimates": {
					"creation": {
						"codeDepositCost": "1152200",
						"executionCost": "infinite",
						"totalCost": "infinite"
					},
					"external": {
						"addVoter(address,uint256)": "infinite",
						"candidates(uint256)": "infinite",
						"candidatesCount()": "2519",
						"castVote(uint256,uint256)": "infinite",
						"electionOwner()": "2578",
						"endVote()": "53073",
						"finalResult()": "2495",
						"getResultsPerStationPerCandidate(uint256,uint256)": "infinite",
						"pollingStationCount()": "2473",
						"pollingStations(uint256)": "infinite",
						"startElection()": "28903",
						"startVoting()": "28860",
						"state()": "2649",
						"totalRegisteredVoters()": "2453",
						"voterRegistry(address)": "infinite",
						"voters(address)": "2868"
					},
					"internal": {
						"addCandidate(string memory)": "infinite",
						"addPollingStation(string memory)": "infinite",
						"initCandidates()": "infinite",
						"initPollingStations()": "infinite",
						"registerAtPollingStation(uint256)": "28818"
					}
				},
				"methodIdentifiers": {
					"addVoter(address,uint256)": "b9f05f2f",
					"candidates(uint256)": "3477ee2e",
					"candidatesCount()": "2d35a8a2",
					"castVote(uint256,uint256)": "2c0a3f89",
					"electionOwner()": "53357ad0",
					"endVote()": "b9223946",
					"finalResult()": "f3a8286f",
					"getResultsPerStationPerCandidate(uint256,uint256)": "db3bd5fd",
					"pollingStationCount()": "df9f1a07",
					"pollingStations(uint256)": "fe2442d7",
					"startElection()": "62d73eb8",
					"startVoting()": "1ec6b60a",
					"state()": "c19d93fb",
					"totalRegisteredVoters()": "00aa7464",
					"voterRegistry(address)": "4763d4e7",
					"voters(address)": "a3ec138d"
				}
			},
			"storageLayout": {
				"storage": [
					{
						"astId": 35,
						"contract": "contracts/ergasia.sol:Election",
						"label": "electionOwner",
						"offset": 0,
						"slot": "0",
						"type": "t_address"
					},
					{
						"astId": 37,
						"contract": "contracts/ergasia.sol:Election",
						"label": "candidatesCount",
						"offset": 0,
						"slot": "1",
						"type": "t_uint256"
					},
					{
						"astId": 39,
						"contract": "contracts/ergasia.sol:Election",
						"label": "pollingStationCount",
						"offset": 0,
						"slot": "2",
						"type": "t_uint256"
					},
					{
						"astId": 41,
						"contract": "contracts/ergasia.sol:Election",
						"label": "totalRegisteredVoters",
						"offset": 0,
						"slot": "3",
						"type": "t_uint256"
					},
					{
						"astId": 43,
						"contract": "contracts/ergasia.sol:Election",
						"label": "countResult",
						"offset": 0,
						"slot": "4",
						"type": "t_uint256"
					},
					{
						"astId": 45,
						"contract": "contracts/ergasia.sol:Election",
						"label": "finalResult",
						"offset": 0,
						"slot": "5",
						"type": "t_uint256"
					},
					{
						"astId": 50,
						"contract": "contracts/ergasia.sol:Election",
						"label": "candidates",
						"offset": 0,
						"slot": "6",
						"type": "t_mapping(t_uint256,t_struct(Candidate)8_storage)"
					},
					{
						"astId": 56,
						"contract": "contracts/ergasia.sol:Election",
						"label": "candidatesPerStation",
						"offset": 0,
						"slot": "7",
						"type": "t_mapping(t_uint256,t_array(t_struct(Candidate)8_storage)dyn_storage)"
					},
					{
						"astId": 61,
						"contract": "contracts/ergasia.sol:Election",
						"label": "pollingStations",
						"offset": 0,
						"slot": "8",
						"type": "t_mapping(t_uint256,t_struct(PollingStation)22_storage)"
					},
					{
						"astId": 66,
						"contract": "contracts/ergasia.sol:Election",
						"label": "voterRegistry",
						"offset": 0,
						"slot": "9",
						"type": "t_mapping(t_address,t_struct(Voter)33_storage)"
					},
					{
						"astId": 70,
						"contract": "contracts/ergasia.sol:Election",
						"label": "voters",
						"offset": 0,
						"slot": "10",
						"type": "t_mapping(t_address,t_bool)"
					},
					{
						"astId": 78,
						"contract": "contracts/ergasia.sol:Election",
						"label": "state",
						"offset": 0,
						"slot": "11",
						"type": "t_enum(State)75"
					}
				],
				"types": {
					"t_address": {
						"encoding": "inplace",
						"label": "address",
						"numberOfBytes": "20"
					},
					"t_array(t_struct(Candidate)8_storage)dyn_storage": {
						"base": "t_struct(Candidate)8_storage",
						"encoding": "dynamic_array",
						"label": "struct Election.Candidate[]",
						"numberOfBytes": "32"
					},
					"t_bool": {
						"encoding": "inplace",
						"label": "bool",
						"numberOfBytes": "1"
					},
					"t_enum(State)75": {
						"encoding": "inplace",
						"label": "enum Election.State",
						"numberOfBytes": "1"
					},
					"t_mapping(t_address,t_bool)": {
						"encoding": "mapping",
						"key": "t_address",
						"label": "mapping(address => bool)",
						"numberOfBytes": "32",
						"value": "t_bool"
					},
					"t_mapping(t_address,t_struct(Voter)33_storage)": {
						"encoding": "mapping",
						"key": "t_address",
						"label": "mapping(address => struct Election.Voter)",
						"numberOfBytes": "32",
						"value": "t_struct(Voter)33_storage"
					},
					"t_mapping(t_uint256,t_array(t_struct(Candidate)8_storage)dyn_storage)": {
						"encoding": "mapping",
						"key": "t_uint256",
						"label": "mapping(uint256 => struct Election.Candidate[])",
						"numberOfBytes": "32",
						"value": "t_array(t_struct(Candidate)8_storage)dyn_storage"
					},
					"t_mapping(t_uint256,t_struct(Candidate)8_storage)": {
						"encoding": "mapping",
						"key": "t_uint256",
						"label": "mapping(uint256 => struct Election.Candidate)",
						"numberOfBytes": "32",
						"value": "t_struct(Candidate)8_storage"
					},
					"t_mapping(t_uint256,t_struct(PollingStation)22_storage)": {
						"encoding": "mapping",
						"key": "t_uint256",
						"label": "mapping(uint256 => struct Election.PollingStation)",
						"numberOfBytes": "32",
						"value": "t_struct(PollingStation)22_storage"
					},
					"t_string_storage": {
						"encoding": "bytes",
						"label": "string",
						"numberOfBytes": "32"
					},
					"t_struct(Candidate)8_storage": {
						"encoding": "inplace",
						"label": "struct Election.Candidate",
						"members": [
							{
								"astId": 3,
								"contract": "contracts/ergasia.sol:Election",
								"label": "id",
								"offset": 0,
								"slot": "0",
								"type": "t_uint256"
							},
							{
								"astId": 5,
								"contract": "contracts/ergasia.sol:Election",
								"label": "name",
								"offset": 0,
								"slot": "1",
								"type": "t_string_storage"
							},
							{
								"astId": 7,
								"contract": "contracts/ergasia.sol:Election",
								"label": "votes",
								"offset": 0,
								"slot": "2",
								"type": "t_uint256"
							}
						],
						"numberOfBytes": "96"
					},
					"t_struct(PollingStation)22_storage": {
						"encoding": "inplace",
						"label": "struct Election.PollingStation",
						"members": [
							{
								"astId": 10,
								"contract": "contracts/ergasia.sol:Election",
								"label": "id",
								"offset": 0,
								"slot": "0",
								"type": "t_uint256"
							},
							{
								"astId": 12,
								"contract": "contracts/ergasia.sol:Election",
								"label": "name",
								"offset": 0,
								"slot": "1",
								"type": "t_string_storage"
							},
							{
								"astId": 14,
								"contract": "contracts/ergasia.sol:Election",
								"label": "votersRegistered",
								"offset": 0,
								"slot": "2",
								"type": "t_uint256"
							},
							{
								"astId": 16,
								"contract": "contracts/ergasia.sol:Election",
								"label": "votesCasted",
								"offset": 0,
								"slot": "3",
								"type": "t_uint256"
							},
							{
								"astId": 21,
								"contract": "contracts/ergasia.sol:Election",
								"label": "scoresPerCandidate",
								"offset": 0,
								"slot": "4",
								"type": "t_mapping(t_uint256,t_struct(Candidate)8_storage)"
							}
						],
						"numberOfBytes": "160"
					},
					"t_struct(Voter)33_storage": {
						"encoding": "inplace",
						"label": "struct Election.Voter",
						"members": [
							{
								"astId": 24,
								"contract": "contracts/ergasia.sol:Election",
								"label": "isEnrolled",
								"offset": 0,
								"slot": "0",
								"type": "t_bool"
							},
							{
								"astId": 26,
								"contract": "contracts/ergasia.sol:Election",
								"label": "hasVoted",
								"offset": 1,
								"slot": "0",
								"type": "t_bool"
							},
							{
								"astId": 28,
								"contract": "contracts/ergasia.sol:Election",
								"label": "choice",
								"offset": 0,
								"slot": "1",
								"type": "t_uint256"
							},
							{
								"astId": 30,
								"contract": "contracts/ergasia.sol:Election",
								"label": "enrolledPollingStationID",
								"offset": 0,
								"slot": "2",
								"type": "t_uint256"
							},
							{
								"astId": 32,
								"contract": "contracts/ergasia.sol:Election",
								"label": "votedPollingStationID",
								"offset": 0,
								"slot": "3",
								"type": "t_uint256"
							}
						],
						"numberOfBytes": "128"
					},
					"t_uint256": {
						"encoding": "inplace",
						"label": "uint256",
						"numberOfBytes": "32"
					}
				}
			},
			"userdoc": {
				"kind": "user",
				"methods": {},
				"version": 1
			}
		}
	}
}