{
	"contracts/ergasia.sol": {
		"Election": {
			"abi": [
				{
					"inputs": [],
					"stateMutability": "nonpayable",
					"type": "constructor"
				},
				{
					"anonymous": false,
					"inputs": [
						{
							"indexed": false,
							"internalType": "bool",
							"name": "voted",
							"type": "bool"
						},
						{
							"indexed": false,
							"internalType": "uint256",
							"name": "_choice",
							"type": "uint256"
						},
						{
							"indexed": false,
							"internalType": "uint256",
							"name": "_pollStationID",
							"type": "uint256"
						}
					],
					"name": "VoteCasted",
					"type": "event"
				},
				{
					"inputs": [
						{
							"internalType": "address",
							"name": "_voterAddress",
							"type": "address"
						},
						{
							"internalType": "uint256",
							"name": "_pollingStationID",
							"type": "uint256"
						}
					],
					"name": "addVoter",
					"outputs": [],
					"stateMutability": "nonpayable",
					"type": "function"
				},
				{
					"inputs": [
						{
							"internalType": "uint256",
							"name": "",
							"type": "uint256"
						}
					],
					"name": "candidates",
					"outputs": [
						{
							"internalType": "uint256",
							"name": "id",
							"type": "uint256"
						},
						{
							"internalType": "string",
							"name": "name",
							"type": "string"
						},
						{
							"internalType": "uint256",
							"name": "votes",
							"type": "uint256"
						}
					],
					"stateMutability": "view",
					"type": "function"
				},
				{
					"inputs": [],
					"name": "candidatesCount",
					"outputs": [
						{
							"internalType": "uint256",
							"name": "",
							"type": "uint256"
						}
					],
					"stateMutability": "view",
					"type": "function"
				},
				{
					"inputs": [
						{
							"internalType": "uint256",
							"name": "_choice",
							"type": "uint256"
						},
						{
							"internalType": "uint256",
							"name": "_pollingStationID",
							"type": "uint256"
						}
					],
					"name": "castVote",
					"outputs": [
						{
							"internalType": "bool",
							"name": "voted",
							"type": "bool"
						}
					],
					"stateMutability": "nonpayable",
					"type": "function"
				},
				{
					"inputs": [],
					"name": "electionOwner",
					"outputs": [
						{
							"internalType": "address",
							"name": "",
							"type": "address"
						}
					],
					"stateMutability": "view",
					"type": "function"
				},
				{
					"inputs": [],
					"name": "endVote",
					"outputs": [],
					"stateMutability": "nonpayable",
					"type": "function"
				},
				{
					"inputs": [],
					"name": "finalResult",
					"outputs": [
						{
							"internalType": "uint256",
							"name": "",
							"type": "uint256"
						}
					],
					"stateMutability": "view",
					"type": "function"
				},
				{
					"inputs": [],
					"name": "getResults1",
					"outputs": [
						{
							"internalType": "uint256[][]",
							"name": "",
							"type": "uint256[][]"
						}
					],
					"stateMutability": "view",
					"type": "function"
				},
				{
					"inputs": [],
					"name": "pollingStationCount",
					"outputs": [
						{
							"internalType": "uint256",
							"name": "",
							"type": "uint256"
						}
					],
					"stateMutability": "view",
					"type": "function"
				},
				{
					"inputs": [
						{
							"internalType": "uint256",
							"name": "",
							"type": "uint256"
						}
					],
					"name": "pollingStations",
					"outputs": [
						{
							"internalType": "uint256",
							"name": "id",
							"type": "uint256"
						},
						{
							"internalType": "string",
							"name": "name",
							"type": "string"
						},
						{
							"internalType": "uint256",
							"name": "votersRegistered",
							"type": "uint256"
						},
						{
							"internalType": "uint256",
							"name": "votesCasted",
							"type": "uint256"
						}
					],
					"stateMutability": "view",
					"type": "function"
				},
				{
					"inputs": [
						{
							"internalType": "uint256",
							"name": "",
							"type": "uint256"
						},
						{
							"internalType": "uint256",
							"name": "",
							"type": "uint256"
						}
					],
					"name": "results",
					"outputs": [
						{
							"internalType": "uint256",
							"name": "",
							"type": "uint256"
						}
					],
					"stateMutability": "view",
					"type": "function"
				},
				{
					"inputs": [
						{
							"internalType": "uint256",
							"name": "",
							"type": "uint256"
						},
						{
							"internalType": "uint256",
							"name": "",
							"type": "uint256"
						}
					],
					"name": "resultsPerPollingStation",
					"outputs": [
						{
							"internalType": "uint256",
							"name": "id",
							"type": "uint256"
						},
						{
							"internalType": "string",
							"name": "name",
							"type": "string"
						},
						{
							"internalType": "uint256",
							"name": "votes",
							"type": "uint256"
						}
					],
					"stateMutability": "view",
					"type": "function"
				},
				{
					"inputs": [
						{
							"internalType": "uint256",
							"name": "",
							"type": "uint256"
						},
						{
							"internalType": "uint256",
							"name": "",
							"type": "uint256"
						}
					],
					"name": "resultsPerPollingStation1",
					"outputs": [
						{
							"internalType": "uint256",
							"name": "id",
							"type": "uint256"
						},
						{
							"internalType": "string",
							"name": "name",
							"type": "string"
						},
						{
							"internalType": "uint256",
							"name": "votes",
							"type": "uint256"
						}
					],
					"stateMutability": "view",
					"type": "function"
				},
				{
					"inputs": [],
					"name": "startVote",
					"outputs": [],
					"stateMutability": "nonpayable",
					"type": "function"
				},
				{
					"inputs": [],
					"name": "state",
					"outputs": [
						{
							"internalType": "enum Election.State",
							"name": "",
							"type": "uint8"
						}
					],
					"stateMutability": "view",
					"type": "function"
				},
				{
					"inputs": [],
					"name": "totalRegisteredVoters",
					"outputs": [
						{
							"internalType": "uint256",
							"name": "",
							"type": "uint256"
						}
					],
					"stateMutability": "view",
					"type": "function"
				},
				{
					"inputs": [
						{
							"internalType": "address",
							"name": "",
							"type": "address"
						}
					],
					"name": "voterRegistry",
					"outputs": [
						{
							"internalType": "bool",
							"name": "isEnrolled",
							"type": "bool"
						},
						{
							"internalType": "bool",
							"name": "hasVoted",
							"type": "bool"
						},
						{
							"internalType": "uint256",
							"name": "choice",
							"type": "uint256"
						},
						{
							"internalType": "uint256",
							"name": "enrolledPollingStationID",
							"type": "uint256"
						},
						{
							"internalType": "uint256",
							"name": "votedPollingStationID",
							"type": "uint256"
						}
					],
					"stateMutability": "view",
					"type": "function"
				},
				{
					"inputs": [
						{
							"internalType": "address",
							"name": "",
							"type": "address"
						}
					],
					"name": "voters",
					"outputs": [
						{
							"internalType": "bool",
							"name": "",
							"type": "bool"
						}
					],
					"stateMutability": "view",
					"type": "function"
				}
			],
			"devdoc": {
				"kind": "dev",
				"methods": {
					"addVoter(address,uint256)": {
						"details": "Adds a voter to the voter registry. May only be called by 'owner'.",
						"params": {
							"_pollingStationID": "polling station ID in which voter is registered.",
							"_voterAddress": "address of voter"
						}
					}
				},
				"version": 1
			},
			"evm": {
				"assembly": "    /* \"contracts/ergasia.sol\":70:8036  contract Election {... */\n  mstore(0x40, 0x80)\n    /* \"contracts/ergasia.sol\":2315:2644  constructor() {... */\n  callvalue\n  dup1\n  iszero\n  tag_1\n  jumpi\n  0x00\n  dup1\n  revert\ntag_1:\n  pop\n    /* \"contracts/ergasia.sol\":2355:2365  msg.sender */\n  caller\n    /* \"contracts/ergasia.sol\":2339:2352  electionOwner */\n  0x00\n  dup1\n    /* \"contracts/ergasia.sol\":2339:2365  electionOwner = msg.sender */\n  0x0100\n  exp\n  dup2\n  sload\n  dup2\n  0xffffffffffffffffffffffffffffffffffffffff\n  mul\n  not\n  and\n  swap1\n  dup4\n  0xffffffffffffffffffffffffffffffffffffffff\n  and\n  mul\n  or\n  swap1\n  sstore\n  pop\n    /* \"contracts/ergasia.sol\":2414:2430  initCandidates() */\n  tag_4\n    /* \"contracts/ergasia.sol\":2414:2428  initCandidates */\n  shl(0x20, tag_5)\n    /* \"contracts/ergasia.sol\":2414:2430  initCandidates() */\n  0x20\n  shr\n  jump\t// in\ntag_4:\n    /* \"contracts/ergasia.sol\":2485:2506  initPollingStations() */\n  tag_6\n    /* \"contracts/ergasia.sol\":2485:2504  initPollingStations */\n  shl(0x20, tag_7)\n    /* \"contracts/ergasia.sol\":2485:2506  initPollingStations() */\n  0x20\n  shr\n  jump\t// in\ntag_6:\n    /* \"contracts/ergasia.sol\":2622:2635  State.Created */\n  0x00\n    /* \"contracts/ergasia.sol\":2614:2619  state */\n  0x0d\n  0x00\n    /* \"contracts/ergasia.sol\":2614:2635  state = State.Created */\n  0x0100\n  exp\n  dup2\n  sload\n  dup2\n  0xff\n  mul\n  not\n  and\n  swap1\n  dup4\n  0x02\n  dup2\n  gt\n  iszero\n  tag_8\n  jumpi\n  tag_9\n  tag_10\n  jump\t// in\ntag_9:\ntag_8:\n  mul\n  or\n  swap1\n  sstore\n  pop\n    /* \"contracts/ergasia.sol\":70:8036  contract Election {... */\n  jump(tag_11)\n    /* \"contracts/ergasia.sol\":2703:2930  function initCandidates() internal {... */\ntag_5:\n    /* \"contracts/ergasia.sol\":2748:2775  addCandidate(\"Candidate 1\") */\n  tag_13\n  mload(0x40)\n  dup1\n  0x40\n  add\n  0x40\n  mstore\n  dup1\n  0x0b\n  dup2\n  mstore\n  0x20\n  add\n  0x43616e6469646174652031000000000000000000000000000000000000000000\n  dup2\n  mstore\n  pop\n    /* \"contracts/ergasia.sol\":2748:2760  addCandidate */\n  shl(0x20, tag_14)\n    /* \"contracts/ergasia.sol\":2748:2775  addCandidate(\"Candidate 1\") */\n  0x20\n  shr\n  jump\t// in\ntag_13:\n    /* \"contracts/ergasia.sol\":2785:2812  addCandidate(\"Candidate 2\") */\n  tag_15\n  mload(0x40)\n  dup1\n  0x40\n  add\n  0x40\n  mstore\n  dup1\n  0x0b\n  dup2\n  mstore\n  0x20\n  add\n  0x43616e6469646174652032000000000000000000000000000000000000000000\n  dup2\n  mstore\n  pop\n    /* \"contracts/ergasia.sol\":2785:2797  addCandidate */\n  shl(0x20, tag_14)\n    /* \"contracts/ergasia.sol\":2785:2812  addCandidate(\"Candidate 2\") */\n  0x20\n  shr\n  jump\t// in\ntag_15:\n    /* \"contracts/ergasia.sol\":2822:2849  addCandidate(\"Candidate 3\") */\n  tag_16\n  mload(0x40)\n  dup1\n  0x40\n  add\n  0x40\n  mstore\n  dup1\n  0x0b\n  dup2\n  mstore\n  0x20\n  add\n  0x43616e6469646174652033000000000000000000000000000000000000000000\n  dup2\n  mstore\n  pop\n    /* \"contracts/ergasia.sol\":2822:2834  addCandidate */\n  shl(0x20, tag_14)\n    /* \"contracts/ergasia.sol\":2822:2849  addCandidate(\"Candidate 3\") */\n  0x20\n  shr\n  jump\t// in\ntag_16:\n    /* \"contracts/ergasia.sol\":2859:2886  addCandidate(\"Candidate 4\") */\n  tag_17\n  mload(0x40)\n  dup1\n  0x40\n  add\n  0x40\n  mstore\n  dup1\n  0x0b\n  dup2\n  mstore\n  0x20\n  add\n  0x43616e6469646174652034000000000000000000000000000000000000000000\n  dup2\n  mstore\n  pop\n    /* \"contracts/ergasia.sol\":2859:2871  addCandidate */\n  shl(0x20, tag_14)\n    /* \"contracts/ergasia.sol\":2859:2886  addCandidate(\"Candidate 4\") */\n  0x20\n  shr\n  jump\t// in\ntag_17:\n    /* \"contracts/ergasia.sol\":2896:2923  addCandidate(\"Candidate 5\") */\n  tag_18\n  mload(0x40)\n  dup1\n  0x40\n  add\n  0x40\n  mstore\n  dup1\n  0x0b\n  dup2\n  mstore\n  0x20\n  add\n  0x43616e6469646174652035000000000000000000000000000000000000000000\n  dup2\n  mstore\n  pop\n    /* \"contracts/ergasia.sol\":2896:2908  addCandidate */\n  shl(0x20, tag_14)\n    /* \"contracts/ergasia.sol\":2896:2923  addCandidate(\"Candidate 5\") */\n  0x20\n  shr\n  jump\t// in\ntag_18:\n    /* \"contracts/ergasia.sol\":2703:2930  function initCandidates() internal {... */\n  jump\t// out\n    /* \"contracts/ergasia.sol\":3273:3801  function initPollingStations() internal {... */\ntag_7:\n    /* \"contracts/ergasia.sol\":3323:3361  addPollingStation(\"Polling Station 1\") */\n  tag_20\n  mload(0x40)\n  dup1\n  0x40\n  add\n  0x40\n  mstore\n  dup1\n  0x11\n  dup2\n  mstore\n  0x20\n  add\n  0x506f6c6c696e672053746174696f6e2031000000000000000000000000000000\n  dup2\n  mstore\n  pop\n    /* \"contracts/ergasia.sol\":3323:3340  addPollingStation */\n  shl(0x20, tag_21)\n    /* \"contracts/ergasia.sol\":3323:3361  addPollingStation(\"Polling Station 1\") */\n  0x20\n  shr\n  jump\t// in\ntag_20:\n    /* \"contracts/ergasia.sol\":3371:3409  addPollingStation(\"Polling Station 2\") */\n  tag_22\n  mload(0x40)\n  dup1\n  0x40\n  add\n  0x40\n  mstore\n  dup1\n  0x11\n  dup2\n  mstore\n  0x20\n  add\n  0x506f6c6c696e672053746174696f6e2032000000000000000000000000000000\n  dup2\n  mstore\n  pop\n    /* \"contracts/ergasia.sol\":3371:3388  addPollingStation */\n  shl(0x20, tag_21)\n    /* \"contracts/ergasia.sol\":3371:3409  addPollingStation(\"Polling Station 2\") */\n  0x20\n  shr\n  jump\t// in\ntag_22:\n    /* \"contracts/ergasia.sol\":3419:3457  addPollingStation(\"Polling Station 3\") */\n  tag_23\n  mload(0x40)\n  dup1\n  0x40\n  add\n  0x40\n  mstore\n  dup1\n  0x11\n  dup2\n  mstore\n  0x20\n  add\n  0x506f6c6c696e672053746174696f6e2033000000000000000000000000000000\n  dup2\n  mstore\n  pop\n    /* \"contracts/ergasia.sol\":3419:3436  addPollingStation */\n  shl(0x20, tag_21)\n    /* \"contracts/ergasia.sol\":3419:3457  addPollingStation(\"Polling Station 3\") */\n  0x20\n  shr\n  jump\t// in\ntag_23:\n    /* \"contracts/ergasia.sol\":3467:3505  addPollingStation(\"Polling Station 4\") */\n  tag_24\n  mload(0x40)\n  dup1\n  0x40\n  add\n  0x40\n  mstore\n  dup1\n  0x11\n  dup2\n  mstore\n  0x20\n  add\n  0x506f6c6c696e672053746174696f6e2034000000000000000000000000000000\n  dup2\n  mstore\n  pop\n    /* \"contracts/ergasia.sol\":3467:3484  addPollingStation */\n  shl(0x20, tag_21)\n    /* \"contracts/ergasia.sol\":3467:3505  addPollingStation(\"Polling Station 4\") */\n  0x20\n  shr\n  jump\t// in\ntag_24:\n    /* \"contracts/ergasia.sol\":3515:3553  addPollingStation(\"Polling Station 5\") */\n  tag_25\n  mload(0x40)\n  dup1\n  0x40\n  add\n  0x40\n  mstore\n  dup1\n  0x11\n  dup2\n  mstore\n  0x20\n  add\n  0x506f6c6c696e672053746174696f6e2035000000000000000000000000000000\n  dup2\n  mstore\n  pop\n    /* \"contracts/ergasia.sol\":3515:3532  addPollingStation */\n  shl(0x20, tag_21)\n    /* \"contracts/ergasia.sol\":3515:3553  addPollingStation(\"Polling Station 5\") */\n  0x20\n  shr\n  jump\t// in\ntag_25:\n    /* \"contracts/ergasia.sol\":3563:3601  addPollingStation(\"Polling Station 6\") */\n  tag_26\n  mload(0x40)\n  dup1\n  0x40\n  add\n  0x40\n  mstore\n  dup1\n  0x11\n  dup2\n  mstore\n  0x20\n  add\n  0x506f6c6c696e672053746174696f6e2036000000000000000000000000000000\n  dup2\n  mstore\n  pop\n    /* \"contracts/ergasia.sol\":3563:3580  addPollingStation */\n  shl(0x20, tag_21)\n    /* \"contracts/ergasia.sol\":3563:3601  addPollingStation(\"Polling Station 6\") */\n  0x20\n  shr\n  jump\t// in\ntag_26:\n    /* \"contracts/ergasia.sol\":3611:3649  addPollingStation(\"Polling Station 7\") */\n  tag_27\n  mload(0x40)\n  dup1\n  0x40\n  add\n  0x40\n  mstore\n  dup1\n  0x11\n  dup2\n  mstore\n  0x20\n  add\n  0x506f6c6c696e672053746174696f6e2037000000000000000000000000000000\n  dup2\n  mstore\n  pop\n    /* \"contracts/ergasia.sol\":3611:3628  addPollingStation */\n  shl(0x20, tag_21)\n    /* \"contracts/ergasia.sol\":3611:3649  addPollingStation(\"Polling Station 7\") */\n  0x20\n  shr\n  jump\t// in\ntag_27:\n    /* \"contracts/ergasia.sol\":3659:3697  addPollingStation(\"Polling Station 8\") */\n  tag_28\n  mload(0x40)\n  dup1\n  0x40\n  add\n  0x40\n  mstore\n  dup1\n  0x11\n  dup2\n  mstore\n  0x20\n  add\n  0x506f6c6c696e672053746174696f6e2038000000000000000000000000000000\n  dup2\n  mstore\n  pop\n    /* \"contracts/ergasia.sol\":3659:3676  addPollingStation */\n  shl(0x20, tag_21)\n    /* \"contracts/ergasia.sol\":3659:3697  addPollingStation(\"Polling Station 8\") */\n  0x20\n  shr\n  jump\t// in\ntag_28:\n    /* \"contracts/ergasia.sol\":3707:3745  addPollingStation(\"Polling Station 9\") */\n  tag_29\n  mload(0x40)\n  dup1\n  0x40\n  add\n  0x40\n  mstore\n  dup1\n  0x11\n  dup2\n  mstore\n  0x20\n  add\n  0x506f6c6c696e672053746174696f6e2039000000000000000000000000000000\n  dup2\n  mstore\n  pop\n    /* \"contracts/ergasia.sol\":3707:3724  addPollingStation */\n  shl(0x20, tag_21)\n    /* \"contracts/ergasia.sol\":3707:3745  addPollingStation(\"Polling Station 9\") */\n  0x20\n  shr\n  jump\t// in\ntag_29:\n    /* \"contracts/ergasia.sol\":3755:3794  addPollingStation(\"Polling Station 10\") */\n  tag_30\n  mload(0x40)\n  dup1\n  0x40\n  add\n  0x40\n  mstore\n  dup1\n  0x12\n  dup2\n  mstore\n  0x20\n  add\n  0x506f6c6c696e672053746174696f6e2031300000000000000000000000000000\n  dup2\n  mstore\n  pop\n    /* \"contracts/ergasia.sol\":3755:3772  addPollingStation */\n  shl(0x20, tag_21)\n    /* \"contracts/ergasia.sol\":3755:3794  addPollingStation(\"Polling Station 10\") */\n  0x20\n  shr\n  jump\t// in\ntag_30:\n    /* \"contracts/ergasia.sol\":3273:3801  function initPollingStations() internal {... */\n  jump\t// out\n    /* \"contracts/ergasia.sol\":3050:3212  function addCandidate (string memory _name) private {... */\ntag_14:\n    /* \"contracts/ergasia.sol\":3112:3127  candidatesCount */\n  0x01\n  0x00\n    /* \"contracts/ergasia.sol\":3112:3129  candidatesCount++ */\n  dup2\n  sload\n  dup1\n  swap3\n  swap2\n  swap1\n  tag_32\n  swap1\n  tag_33\n  jump\t// in\ntag_32:\n  swap2\n  swap1\n  pop\n  sstore\n  pop\n    /* \"contracts/ergasia.sol\":3169:3205  Candidate(candidatesCount, _name, 0) */\n  mload(0x40)\n  dup1\n  0x60\n  add\n  0x40\n  mstore\n  dup1\n    /* \"contracts/ergasia.sol\":3179:3194  candidatesCount */\n  sload(0x01)\n    /* \"contracts/ergasia.sol\":3169:3205  Candidate(candidatesCount, _name, 0) */\n  dup2\n  mstore\n  0x20\n  add\n    /* \"contracts/ergasia.sol\":3196:3201  _name */\n  dup3\n    /* \"contracts/ergasia.sol\":3169:3205  Candidate(candidatesCount, _name, 0) */\n  dup2\n  mstore\n  0x20\n  add\n    /* \"contracts/ergasia.sol\":3203:3204  0 */\n  0x00\n    /* \"contracts/ergasia.sol\":3169:3205  Candidate(candidatesCount, _name, 0) */\n  dup2\n  mstore\n  pop\n    /* \"contracts/ergasia.sol\":3139:3149  candidates */\n  0x07\n    /* \"contracts/ergasia.sol\":3139:3166  candidates[candidatesCount] */\n  0x00\n    /* \"contracts/ergasia.sol\":3150:3165  candidatesCount */\n  sload(0x01)\n    /* \"contracts/ergasia.sol\":3139:3166  candidates[candidatesCount] */\n  dup2\n  mstore\n  0x20\n  add\n  swap1\n  dup2\n  mstore\n  0x20\n  add\n  0x00\n  keccak256\n    /* \"contracts/ergasia.sol\":3139:3205  candidates[candidatesCount] = Candidate(candidatesCount, _name, 0) */\n  0x00\n  dup3\n  add\n  mload\n  dup2\n  0x00\n  add\n  sstore\n  0x20\n  dup3\n  add\n  mload\n  dup2\n  0x01\n  add\n  swap1\n  dup1\n  mload\n  swap1\n  0x20\n  add\n  swap1\n  tag_34\n  swap3\n  swap2\n  swap1\n  tag_35\n  jump\t// in\ntag_34:\n  pop\n  0x40\n  dup3\n  add\n  mload\n  dup2\n  0x02\n  add\n  sstore\n  swap1\n  pop\n  pop\n    /* \"contracts/ergasia.sol\":3050:3212  function addCandidate (string memory _name) private {... */\n  pop\n  jump\t// out\n    /* \"contracts/ergasia.sol\":3924:4116  function addPollingStation (string memory _name) private {... */\ntag_21:\n    /* \"contracts/ergasia.sol\":3991:4010  pollingStationCount */\n  0x02\n  0x00\n    /* \"contracts/ergasia.sol\":3991:4012  pollingStationCount++ */\n  dup2\n  sload\n  dup1\n  swap3\n  swap2\n  swap1\n  tag_37\n  swap1\n  tag_33\n  jump\t// in\ntag_37:\n  swap2\n  swap1\n  pop\n  sstore\n  pop\n    /* \"contracts/ergasia.sol\":4061:4109  PollingStation(pollingStationCount, _name, 0, 0) */\n  mload(0x40)\n  dup1\n  0x80\n  add\n  0x40\n  mstore\n  dup1\n    /* \"contracts/ergasia.sol\":4076:4095  pollingStationCount */\n  sload(0x02)\n    /* \"contracts/ergasia.sol\":4061:4109  PollingStation(pollingStationCount, _name, 0, 0) */\n  dup2\n  mstore\n  0x20\n  add\n    /* \"contracts/ergasia.sol\":4097:4102  _name */\n  dup3\n    /* \"contracts/ergasia.sol\":4061:4109  PollingStation(pollingStationCount, _name, 0, 0) */\n  dup2\n  mstore\n  0x20\n  add\n    /* \"contracts/ergasia.sol\":4104:4105  0 */\n  0x00\n    /* \"contracts/ergasia.sol\":4061:4109  PollingStation(pollingStationCount, _name, 0, 0) */\n  dup2\n  mstore\n  0x20\n  add\n    /* \"contracts/ergasia.sol\":4107:4108  0 */\n  0x00\n    /* \"contracts/ergasia.sol\":4061:4109  PollingStation(pollingStationCount, _name, 0, 0) */\n  dup2\n  mstore\n  pop\n    /* \"contracts/ergasia.sol\":4022:4037  pollingStations */\n  0x08\n    /* \"contracts/ergasia.sol\":4022:4058  pollingStations[pollingStationCount] */\n  0x00\n    /* \"contracts/ergasia.sol\":4038:4057  pollingStationCount */\n  sload(0x02)\n    /* \"contracts/ergasia.sol\":4022:4058  pollingStations[pollingStationCount] */\n  dup2\n  mstore\n  0x20\n  add\n  swap1\n  dup2\n  mstore\n  0x20\n  add\n  0x00\n  keccak256\n    /* \"contracts/ergasia.sol\":4022:4109  pollingStations[pollingStationCount] = PollingStation(pollingStationCount, _name, 0, 0) */\n  0x00\n  dup3\n  add\n  mload\n  dup2\n  0x00\n  add\n  sstore\n  0x20\n  dup3\n  add\n  mload\n  dup2\n  0x01\n  add\n  swap1\n  dup1\n  mload\n  swap1\n  0x20\n  add\n  swap1\n  tag_38\n  swap3\n  swap2\n  swap1\n  tag_35\n  jump\t// in\ntag_38:\n  pop\n  0x40\n  dup3\n  add\n  mload\n  dup2\n  0x02\n  add\n  sstore\n  0x60\n  dup3\n  add\n  mload\n  dup2\n  0x03\n  add\n  sstore\n  swap1\n  pop\n  pop\n    /* \"contracts/ergasia.sol\":3924:4116  function addPollingStation (string memory _name) private {... */\n  pop\n  jump\t// out\n    /* \"contracts/ergasia.sol\":70:8036  contract Election {... */\ntag_35:\n  dup3\n  dup1\n  sload\n  tag_39\n  swap1\n  tag_40\n  jump\t// in\ntag_39:\n  swap1\n  0x00\n  mstore\n  keccak256(0x00, 0x20)\n  swap1\n  0x1f\n  add\n  0x20\n  swap1\n  div\n  dup2\n  add\n  swap3\n  dup3\n  tag_42\n  jumpi\n  0x00\n  dup6\n  sstore\n  jump(tag_41)\ntag_42:\n  dup3\n  0x1f\n  lt\n  tag_43\n  jumpi\n  dup1\n  mload\n  not(0xff)\n  and\n  dup4\n  dup1\n  add\n  or\n  dup6\n  sstore\n  jump(tag_41)\ntag_43:\n  dup3\n  dup1\n  add\n  0x01\n  add\n  dup6\n  sstore\n  dup3\n  iszero\n  tag_41\n  jumpi\n  swap2\n  dup3\n  add\ntag_44:\n  dup3\n  dup2\n  gt\n  iszero\n  tag_45\n  jumpi\n  dup3\n  mload\n  dup3\n  sstore\n  swap2\n  0x20\n  add\n  swap2\n  swap1\n  0x01\n  add\n  swap1\n  jump(tag_44)\ntag_45:\ntag_41:\n  pop\n  swap1\n  pop\n  tag_46\n  swap2\n  swap1\n  tag_47\n  jump\t// in\ntag_46:\n  pop\n  swap1\n  jump\t// out\ntag_47:\ntag_48:\n  dup1\n  dup3\n  gt\n  iszero\n  tag_49\n  jumpi\n  0x00\n  dup2\n  0x00\n  swap1\n  sstore\n  pop\n  0x01\n  add\n  jump(tag_48)\ntag_49:\n  pop\n  swap1\n  jump\t// out\n    /* \"#utility.yul\":7:84   */\ntag_51:\n    /* \"#utility.yul\":44:51   */\n  0x00\n    /* \"#utility.yul\":73:78   */\n  dup2\n    /* \"#utility.yul\":62:78   */\n  swap1\n  pop\n    /* \"#utility.yul\":7:84   */\n  swap2\n  swap1\n  pop\n  jump\t// out\n    /* \"#utility.yul\":90:410   */\ntag_40:\n    /* \"#utility.yul\":134:140   */\n  0x00\n    /* \"#utility.yul\":171:172   */\n  0x02\n    /* \"#utility.yul\":165:169   */\n  dup3\n    /* \"#utility.yul\":161:173   */\n  div\n    /* \"#utility.yul\":151:173   */\n  swap1\n  pop\n    /* \"#utility.yul\":218:219   */\n  0x01\n    /* \"#utility.yul\":212:216   */\n  dup3\n    /* \"#utility.yul\":208:220   */\n  and\n    /* \"#utility.yul\":239:257   */\n  dup1\n    /* \"#utility.yul\":229:310   */\n  tag_54\n  jumpi\n    /* \"#utility.yul\":295:299   */\n  0x7f\n    /* \"#utility.yul\":287:293   */\n  dup3\n    /* \"#utility.yul\":283:300   */\n  and\n    /* \"#utility.yul\":273:300   */\n  swap2\n  pop\n    /* \"#utility.yul\":229:310   */\ntag_54:\n    /* \"#utility.yul\":357:359   */\n  0x20\n    /* \"#utility.yul\":349:355   */\n  dup3\n    /* \"#utility.yul\":346:360   */\n  lt\n    /* \"#utility.yul\":326:344   */\n  dup2\n    /* \"#utility.yul\":323:361   */\n  eq\n    /* \"#utility.yul\":320:404   */\n  iszero\n  tag_55\n  jumpi\n    /* \"#utility.yul\":376:394   */\n  tag_56\n  tag_57\n  jump\t// in\ntag_56:\n    /* \"#utility.yul\":320:404   */\ntag_55:\n    /* \"#utility.yul\":141:410   */\n  pop\n    /* \"#utility.yul\":90:410   */\n  swap2\n  swap1\n  pop\n  jump\t// out\n    /* \"#utility.yul\":416:649   */\ntag_33:\n    /* \"#utility.yul\":455:458   */\n  0x00\n    /* \"#utility.yul\":478:502   */\n  tag_59\n    /* \"#utility.yul\":496:501   */\n  dup3\n    /* \"#utility.yul\":478:502   */\n  tag_51\n  jump\t// in\ntag_59:\n    /* \"#utility.yul\":469:502   */\n  swap2\n  pop\n    /* \"#utility.yul\":524:590   */\n  0xffffffffffffffffffffffffffffffffffffffffffffffffffffffffffffffff\n    /* \"#utility.yul\":517:522   */\n  dup3\n    /* \"#utility.yul\":514:591   */\n  eq\n    /* \"#utility.yul\":511:614   */\n  iszero\n  tag_60\n  jumpi\n    /* \"#utility.yul\":594:612   */\n  tag_61\n  tag_62\n  jump\t// in\ntag_61:\n    /* \"#utility.yul\":511:614   */\ntag_60:\n    /* \"#utility.yul\":641:642   */\n  0x01\n    /* \"#utility.yul\":634:639   */\n  dup3\n    /* \"#utility.yul\":630:643   */\n  add\n    /* \"#utility.yul\":623:643   */\n  swap1\n  pop\n    /* \"#utility.yul\":416:649   */\n  swap2\n  swap1\n  pop\n  jump\t// out\n    /* \"#utility.yul\":655:835   */\ntag_62:\n    /* \"#utility.yul\":703:780   */\n  0x4e487b7100000000000000000000000000000000000000000000000000000000\n    /* \"#utility.yul\":700:701   */\n  0x00\n    /* \"#utility.yul\":693:781   */\n  mstore\n    /* \"#utility.yul\":800:804   */\n  0x11\n    /* \"#utility.yul\":797:798   */\n  0x04\n    /* \"#utility.yul\":790:805   */\n  mstore\n    /* \"#utility.yul\":824:828   */\n  0x24\n    /* \"#utility.yul\":821:822   */\n  0x00\n    /* \"#utility.yul\":814:829   */\n  revert\n    /* \"#utility.yul\":841:1021   */\ntag_10:\n    /* \"#utility.yul\":889:966   */\n  0x4e487b7100000000000000000000000000000000000000000000000000000000\n    /* \"#utility.yul\":886:887   */\n  0x00\n    /* \"#utility.yul\":879:967   */\n  mstore\n    /* \"#utility.yul\":986:990   */\n  0x21\n    /* \"#utility.yul\":983:984   */\n  0x04\n    /* \"#utility.yul\":976:991   */\n  mstore\n    /* \"#utility.yul\":1010:1014   */\n  0x24\n    /* \"#utility.yul\":1007:1008   */\n  0x00\n    /* \"#utility.yul\":1000:1015   */\n  revert\n    /* \"#utility.yul\":1027:1207   */\ntag_57:\n    /* \"#utility.yul\":1075:1152   */\n  0x4e487b7100000000000000000000000000000000000000000000000000000000\n    /* \"#utility.yul\":1072:1073   */\n  0x00\n    /* \"#utility.yul\":1065:1153   */\n  mstore\n    /* \"#utility.yul\":1172:1176   */\n  0x22\n    /* \"#utility.yul\":1169:1170   */\n  0x04\n    /* \"#utility.yul\":1162:1177   */\n  mstore\n    /* \"#utility.yul\":1196:1200   */\n  0x24\n    /* \"#utility.yul\":1193:1194   */\n  0x00\n    /* \"#utility.yul\":1186:1201   */\n  revert\n    /* \"contracts/ergasia.sol\":70:8036  contract Election {... */\ntag_11:\n  dataSize(sub_0)\n  dup1\n  dataOffset(sub_0)\n  0x00\n  codecopy\n  0x00\n  return\nstop\n\nsub_0: assembly {\n        /* \"contracts/ergasia.sol\":70:8036  contract Election {... */\n      mstore(0x40, 0x80)\n      callvalue\n      dup1\n      iszero\n      tag_1\n      jumpi\n      0x00\n      dup1\n      revert\n    tag_1:\n      pop\n      jumpi(tag_2, lt(calldatasize, 0x04))\n      shr(0xe0, calldataload(0x00))\n      dup1\n      0xa3ec138d\n      gt\n      tag_21\n      jumpi\n      dup1\n      0xc19d93fb\n      gt\n      tag_22\n      jumpi\n      dup1\n      0xc19d93fb\n      eq\n      tag_16\n      jumpi\n      dup1\n      0xd70c6f4e\n      eq\n      tag_17\n      jumpi\n      dup1\n      0xdf9f1a07\n      eq\n      tag_18\n      jumpi\n      dup1\n      0xf3a8286f\n      eq\n      tag_19\n      jumpi\n      dup1\n      0xfe2442d7\n      eq\n      tag_20\n      jumpi\n      jump(tag_2)\n    tag_22:\n      dup1\n      0xa3ec138d\n      eq\n      tag_12\n      jumpi\n      dup1\n      0xb54b5d62\n      eq\n      tag_13\n      jumpi\n      dup1\n      0xb9223946\n      eq\n      tag_14\n      jumpi\n      dup1\n      0xb9f05f2f\n      eq\n      tag_15\n      jumpi\n      jump(tag_2)\n    tag_21:\n      dup1\n      0x3a873314\n      gt\n      tag_23\n      jumpi\n      dup1\n      0x3a873314\n      eq\n      tag_7\n      jumpi\n      dup1\n      0x4763d4e7\n      eq\n      tag_8\n      jumpi\n      dup1\n      0x4c0a6af0\n      eq\n      tag_9\n      jumpi\n      dup1\n      0x53357ad0\n      eq\n      tag_10\n      jumpi\n      dup1\n      0x853dca3a\n      eq\n      tag_11\n      jumpi\n      jump(tag_2)\n    tag_23:\n      dup1\n      0xaa7464\n      eq\n      tag_3\n      jumpi\n      dup1\n      0x2c0a3f89\n      eq\n      tag_4\n      jumpi\n      dup1\n      0x2d35a8a2\n      eq\n      tag_5\n      jumpi\n      dup1\n      0x3477ee2e\n      eq\n      tag_6\n      jumpi\n    tag_2:\n      0x00\n      dup1\n      revert\n        /* \"contracts/ergasia.sol\":1363:1396  uint public totalRegisteredVoters */\n    tag_3:\n      tag_24\n      tag_25\n      jump\t// in\n    tag_24:\n      mload(0x40)\n      tag_26\n      swap2\n      swap1\n      tag_27\n      jump\t// in\n    tag_26:\n      mload(0x40)\n      dup1\n      swap2\n      sub\n      swap1\n      return\n        /* \"contracts/ergasia.sol\":5894:6770  function castVote(uint _choice, uint _pollingStationID) public inState(State.Voting) returns (bool voted) {... */\n    tag_4:\n      tag_28\n      0x04\n      dup1\n      calldatasize\n      sub\n      dup2\n      add\n      swap1\n      tag_29\n      swap2\n      swap1\n      tag_30\n      jump\t// in\n    tag_29:\n      tag_31\n      jump\t// in\n    tag_28:\n      mload(0x40)\n      tag_32\n      swap2\n      swap1\n      tag_33\n      jump\t// in\n    tag_32:\n      mload(0x40)\n      dup1\n      swap2\n      sub\n      swap1\n      return\n        /* \"contracts/ergasia.sol\":1221:1248  uint public candidatesCount */\n    tag_5:\n      tag_34\n      tag_35\n      jump\t// in\n    tag_34:\n      mload(0x40)\n      tag_36\n      swap2\n      swap1\n      tag_27\n      jump\t// in\n    tag_36:\n      mload(0x40)\n      dup1\n      swap2\n      sub\n      swap1\n      return\n        /* \"contracts/ergasia.sol\":1595:1639  mapping(uint => Candidate) public candidates */\n    tag_6:\n      tag_37\n      0x04\n      dup1\n      calldatasize\n      sub\n      dup2\n      add\n      swap1\n      tag_38\n      swap2\n      swap1\n      tag_39\n      jump\t// in\n    tag_38:\n      tag_40\n      jump\t// in\n    tag_37:\n      mload(0x40)\n      tag_41\n      swap4\n      swap3\n      swap2\n      swap1\n      tag_42\n      jump\t// in\n    tag_41:\n      mload(0x40)\n      dup1\n      swap2\n      sub\n      swap1\n      return\n        /* \"contracts/ergasia.sol\":7413:7864  function getResults1() public view returns (uint[][] memory) {... */\n    tag_7:\n      tag_43\n      tag_44\n      jump\t// in\n    tag_43:\n      mload(0x40)\n      tag_45\n      swap2\n      swap1\n      tag_46\n      jump\t// in\n    tag_45:\n      mload(0x40)\n      dup1\n      swap2\n      sub\n      swap1\n      return\n        /* \"contracts/ergasia.sol\":1753:1799  mapping(address => Voter) public voterRegistry */\n    tag_8:\n      tag_47\n      0x04\n      dup1\n      calldatasize\n      sub\n      dup2\n      add\n      swap1\n      tag_48\n      swap2\n      swap1\n      tag_49\n      jump\t// in\n    tag_48:\n      tag_50\n      jump\t// in\n    tag_47:\n      mload(0x40)\n      tag_51\n      swap6\n      swap5\n      swap4\n      swap3\n      swap2\n      swap1\n      tag_52\n      jump\t// in\n    tag_51:\n      mload(0x40)\n      dup1\n      swap2\n      sub\n      swap1\n      return\n        /* \"contracts/ergasia.sol\":5794:5888  function startVote() public inState(State.Created) Owner {... */\n    tag_9:\n      tag_53\n      tag_54\n      jump\t// in\n    tag_53:\n      stop\n        /* \"contracts/ergasia.sol\":1187:1215  address public electionOwner */\n    tag_10:\n      tag_55\n      tag_56\n      jump\t// in\n    tag_55:\n      mload(0x40)\n      tag_57\n      swap2\n      swap1\n      tag_58\n      jump\t// in\n    tag_57:\n      mload(0x40)\n      dup1\n      swap2\n      sub\n      swap1\n      return\n        /* \"contracts/ergasia.sol\":1930:1991  mapping(uint => Candidate[]) public resultsPerPollingStation1 */\n    tag_11:\n      tag_59\n      0x04\n      dup1\n      calldatasize\n      sub\n      dup2\n      add\n      swap1\n      tag_60\n      swap2\n      swap1\n      tag_30\n      jump\t// in\n    tag_60:\n      tag_61\n      jump\t// in\n    tag_59:\n      mload(0x40)\n      tag_62\n      swap4\n      swap3\n      swap2\n      swap1\n      tag_42\n      jump\t// in\n    tag_62:\n      mload(0x40)\n      dup1\n      swap2\n      sub\n      swap1\n      return\n        /* \"contracts/ergasia.sol\":1805:1843  mapping(address => bool) public voters */\n    tag_12:\n      tag_63\n      0x04\n      dup1\n      calldatasize\n      sub\n      dup2\n      add\n      swap1\n      tag_64\n      swap2\n      swap1\n      tag_49\n      jump\t// in\n    tag_64:\n      tag_65\n      jump\t// in\n    tag_63:\n      mload(0x40)\n      tag_66\n      swap2\n      swap1\n      tag_33\n      jump\t// in\n    tag_66:\n      mload(0x40)\n      dup1\n      swap2\n      sub\n      swap1\n      return\n        /* \"contracts/ergasia.sol\":1849:1924  mapping(uint => mapping(uint => Candidate)) public resultsPerPollingStation */\n    tag_13:\n      tag_67\n      0x04\n      dup1\n      calldatasize\n      sub\n      dup2\n      add\n      swap1\n      tag_68\n      swap2\n      swap1\n      tag_30\n      jump\t// in\n    tag_68:\n      tag_69\n      jump\t// in\n    tag_67:\n      mload(0x40)\n      tag_70\n      swap4\n      swap3\n      swap2\n      swap1\n      tag_42\n      jump\t// in\n    tag_70:\n      mload(0x40)\n      dup1\n      swap2\n      sub\n      swap1\n      return\n        /* \"contracts/ergasia.sol\":6776:6902  function endVote() public inState(State.Voting) Owner { ... */\n    tag_14:\n      tag_71\n      tag_72\n      jump\t// in\n    tag_71:\n      stop\n        /* \"contracts/ergasia.sol\":4340:5260  function addVoter(address _voterAddress, uint _pollingStationID) public inState(State.Created) Owner {... */\n    tag_15:\n      tag_73\n      0x04\n      dup1\n      calldatasize\n      sub\n      dup2\n      add\n      swap1\n      tag_74\n      swap2\n      swap1\n      tag_75\n      jump\t// in\n    tag_74:\n      tag_76\n      jump\t// in\n    tag_73:\n      stop\n        /* \"contracts/ergasia.sol\":2044:2062  State public state */\n    tag_16:\n      tag_77\n      tag_78\n      jump\t// in\n    tag_77:\n      mload(0x40)\n      tag_79\n      swap2\n      swap1\n      tag_80\n      jump\t// in\n    tag_79:\n      mload(0x40)\n      dup1\n      swap2\n      sub\n      swap1\n      return\n        /* \"contracts/ergasia.sol\":1565:1588  uint[][] public results */\n    tag_17:\n      tag_81\n      0x04\n      dup1\n      calldatasize\n      sub\n      dup2\n      add\n      swap1\n      tag_82\n      swap2\n      swap1\n      tag_30\n      jump\t// in\n    tag_82:\n      tag_83\n      jump\t// in\n    tag_81:\n      mload(0x40)\n      tag_84\n      swap2\n      swap1\n      tag_27\n      jump\t// in\n    tag_84:\n      mload(0x40)\n      dup1\n      swap2\n      sub\n      swap1\n      return\n        /* \"contracts/ergasia.sol\":1289:1320  uint public pollingStationCount */\n    tag_18:\n      tag_85\n      tag_86\n      jump\t// in\n    tag_85:\n      mload(0x40)\n      tag_87\n      swap2\n      swap1\n      tag_27\n      jump\t// in\n    tag_87:\n      mload(0x40)\n      dup1\n      swap2\n      sub\n      swap1\n      return\n        /* \"contracts/ergasia.sol\":1484:1507  uint public finalResult */\n    tag_19:\n      tag_88\n      tag_89\n      jump\t// in\n    tag_88:\n      mload(0x40)\n      tag_90\n      swap2\n      swap1\n      tag_27\n      jump\t// in\n    tag_90:\n      mload(0x40)\n      dup1\n      swap2\n      sub\n      swap1\n      return\n        /* \"contracts/ergasia.sol\":1669:1723  mapping(uint => PollingStation) public pollingStations */\n    tag_20:\n      tag_91\n      0x04\n      dup1\n      calldatasize\n      sub\n      dup2\n      add\n      swap1\n      tag_92\n      swap2\n      swap1\n      tag_39\n      jump\t// in\n    tag_92:\n      tag_93\n      jump\t// in\n    tag_91:\n      mload(0x40)\n      tag_94\n      swap5\n      swap4\n      swap3\n      swap2\n      swap1\n      tag_95\n      jump\t// in\n    tag_94:\n      mload(0x40)\n      dup1\n      swap2\n      sub\n      swap1\n      return\n        /* \"contracts/ergasia.sol\":1363:1396  uint public totalRegisteredVoters */\n    tag_25:\n      sload(0x03)\n      dup2\n      jump\t// out\n        /* \"contracts/ergasia.sol\":5894:6770  function castVote(uint _choice, uint _pollingStationID) public inState(State.Voting) returns (bool voted) {... */\n    tag_31:\n        /* \"contracts/ergasia.sol\":5988:5998  bool voted */\n      0x00\n        /* \"contracts/ergasia.sol\":5965:5977  State.Voting */\n      0x01\n        /* \"contracts/ergasia.sol\":2214:2220  _state */\n      dup1\n        /* \"contracts/ergasia.sol\":2205:2220  state == _state */\n      0x02\n      dup2\n      gt\n      iszero\n      tag_97\n      jumpi\n      tag_98\n      tag_99\n      jump\t// in\n    tag_98:\n    tag_97:\n        /* \"contracts/ergasia.sol\":2205:2210  state */\n      0x0d\n      0x00\n      swap1\n      sload\n      swap1\n      0x0100\n      exp\n      swap1\n      div\n      0xff\n      and\n        /* \"contracts/ergasia.sol\":2205:2220  state == _state */\n      0x02\n      dup2\n      gt\n      iszero\n      tag_100\n      jumpi\n      tag_101\n      tag_99\n      jump\t// in\n    tag_101:\n    tag_100:\n      eq\n        /* \"contracts/ergasia.sol\":2197:2221  require(state == _state) */\n      tag_102\n      jumpi\n      0x00\n      dup1\n      revert\n    tag_102:\n        /* \"contracts/ergasia.sol\":6011:6021  bool found */\n      0x00\n        /* \"contracts/ergasia.sol\":6044:6057  voterRegistry */\n      0x09\n        /* \"contracts/ergasia.sol\":6044:6069  voterRegistry[msg.sender] */\n      0x00\n        /* \"contracts/ergasia.sol\":6058:6068  msg.sender */\n      caller\n        /* \"contracts/ergasia.sol\":6044:6069  voterRegistry[msg.sender] */\n      0xffffffffffffffffffffffffffffffffffffffff\n      and\n      0xffffffffffffffffffffffffffffffffffffffff\n      and\n      dup2\n      mstore\n      0x20\n      add\n      swap1\n      dup2\n      mstore\n      0x20\n      add\n      0x00\n      keccak256\n        /* \"contracts/ergasia.sol\":6044:6080  voterRegistry[msg.sender].isEnrolled */\n      0x00\n      add\n      0x00\n      swap1\n      sload\n      swap1\n      0x0100\n      exp\n      swap1\n      div\n      0xff\n      and\n        /* \"contracts/ergasia.sol\":6044:6119  voterRegistry[msg.sender].isEnrolled && !voterRegistry[msg.sender].hasVoted */\n      dup1\n      iszero\n      tag_104\n      jumpi\n      pop\n        /* \"contracts/ergasia.sol\":6085:6098  voterRegistry */\n      0x09\n        /* \"contracts/ergasia.sol\":6085:6110  voterRegistry[msg.sender] */\n      0x00\n        /* \"contracts/ergasia.sol\":6099:6109  msg.sender */\n      caller\n        /* \"contracts/ergasia.sol\":6085:6110  voterRegistry[msg.sender] */\n      0xffffffffffffffffffffffffffffffffffffffff\n      and\n      0xffffffffffffffffffffffffffffffffffffffff\n      and\n      dup2\n      mstore\n      0x20\n      add\n      swap1\n      dup2\n      mstore\n      0x20\n      add\n      0x00\n      keccak256\n        /* \"contracts/ergasia.sol\":6085:6119  voterRegistry[msg.sender].hasVoted */\n      0x00\n      add\n      0x01\n      swap1\n      sload\n      swap1\n      0x0100\n      exp\n      swap1\n      div\n      0xff\n      and\n        /* \"contracts/ergasia.sol\":6084:6119  !voterRegistry[msg.sender].hasVoted */\n      iszero\n        /* \"contracts/ergasia.sol\":6044:6119  voterRegistry[msg.sender].isEnrolled && !voterRegistry[msg.sender].hasVoted */\n    tag_104:\n        /* \"contracts/ergasia.sol\":6040:6742  if (voterRegistry[msg.sender].isEnrolled && !voterRegistry[msg.sender].hasVoted) {... */\n      iszero\n      tag_105\n      jumpi\n        /* \"contracts/ergasia.sol\":6171:6178  _choice */\n      dup5\n        /* \"contracts/ergasia.sol\":6136:6149  voterRegistry */\n      0x09\n        /* \"contracts/ergasia.sol\":6136:6161  voterRegistry[msg.sender] */\n      0x00\n        /* \"contracts/ergasia.sol\":6150:6160  msg.sender */\n      caller\n        /* \"contracts/ergasia.sol\":6136:6161  voterRegistry[msg.sender] */\n      0xffffffffffffffffffffffffffffffffffffffff\n      and\n      0xffffffffffffffffffffffffffffffffffffffff\n      and\n      dup2\n      mstore\n      0x20\n      add\n      swap1\n      dup2\n      mstore\n      0x20\n      add\n      0x00\n      keccak256\n        /* \"contracts/ergasia.sol\":6136:6168  voterRegistry[msg.sender].choice */\n      0x01\n      add\n        /* \"contracts/ergasia.sol\":6136:6178  voterRegistry[msg.sender].choice = _choice */\n      dup2\n      swap1\n      sstore\n      pop\n        /* \"contracts/ergasia.sol\":6242:6259  _pollingStationID */\n      dup4\n        /* \"contracts/ergasia.sol\":6192:6205  voterRegistry */\n      0x09\n        /* \"contracts/ergasia.sol\":6192:6217  voterRegistry[msg.sender] */\n      0x00\n        /* \"contracts/ergasia.sol\":6206:6216  msg.sender */\n      caller\n        /* \"contracts/ergasia.sol\":6192:6217  voterRegistry[msg.sender] */\n      0xffffffffffffffffffffffffffffffffffffffff\n      and\n      0xffffffffffffffffffffffffffffffffffffffff\n      and\n      dup2\n      mstore\n      0x20\n      add\n      swap1\n      dup2\n      mstore\n      0x20\n      add\n      0x00\n      keccak256\n        /* \"contracts/ergasia.sol\":6192:6239  voterRegistry[msg.sender].votedPollingStationID */\n      0x03\n      add\n        /* \"contracts/ergasia.sol\":6192:6259  voterRegistry[msg.sender].votedPollingStationID = _pollingStationID */\n      dup2\n      swap1\n      sstore\n      pop\n        /* \"contracts/ergasia.sol\":6310:6314  true */\n      0x01\n        /* \"contracts/ergasia.sol\":6273:6286  voterRegistry */\n      0x09\n        /* \"contracts/ergasia.sol\":6273:6298  voterRegistry[msg.sender] */\n      0x00\n        /* \"contracts/ergasia.sol\":6287:6297  msg.sender */\n      caller\n        /* \"contracts/ergasia.sol\":6273:6298  voterRegistry[msg.sender] */\n      0xffffffffffffffffffffffffffffffffffffffff\n      and\n      0xffffffffffffffffffffffffffffffffffffffff\n      and\n      dup2\n      mstore\n      0x20\n      add\n      swap1\n      dup2\n      mstore\n      0x20\n      add\n      0x00\n      keccak256\n        /* \"contracts/ergasia.sol\":6273:6307  voterRegistry[msg.sender].hasVoted */\n      0x00\n      add\n      0x01\n        /* \"contracts/ergasia.sol\":6273:6314  voterRegistry[msg.sender].hasVoted = true */\n      0x0100\n      exp\n      dup2\n      sload\n      dup2\n      0xff\n      mul\n      not\n      and\n      swap1\n      dup4\n      iszero\n      iszero\n      mul\n      or\n      swap1\n      sstore\n      pop\n        /* \"contracts/ergasia.sol\":6329:6344  pollingStations */\n      0x08\n        /* \"contracts/ergasia.sol\":6329:6363  pollingStations[_pollingStationID] */\n      0x00\n        /* \"contracts/ergasia.sol\":6345:6362  _pollingStationID */\n      dup6\n        /* \"contracts/ergasia.sol\":6329:6363  pollingStations[_pollingStationID] */\n      dup2\n      mstore\n      0x20\n      add\n      swap1\n      dup2\n      mstore\n      0x20\n      add\n      0x00\n      keccak256\n        /* \"contracts/ergasia.sol\":6329:6375  pollingStations[_pollingStationID].votesCasted */\n      0x03\n      add\n      0x00\n        /* \"contracts/ergasia.sol\":6329:6377  pollingStations[_pollingStationID].votesCasted++ */\n      dup2\n      sload\n      dup1\n      swap3\n      swap2\n      swap1\n      tag_106\n      swap1\n      tag_107\n      jump\t// in\n    tag_106:\n      swap2\n      swap1\n      pop\n      sstore\n      pop\n        /* \"contracts/ergasia.sol\":6392:6402  candidates */\n      0x07\n        /* \"contracts/ergasia.sol\":6392:6411  candidates[_choice] */\n      0x00\n        /* \"contracts/ergasia.sol\":6403:6410  _choice */\n      dup7\n        /* \"contracts/ergasia.sol\":6392:6411  candidates[_choice] */\n      dup2\n      mstore\n      0x20\n      add\n      swap1\n      dup2\n      mstore\n      0x20\n      add\n      0x00\n      keccak256\n        /* \"contracts/ergasia.sol\":6392:6417  candidates[_choice].votes */\n      0x02\n      add\n      0x00\n        /* \"contracts/ergasia.sol\":6392:6419  candidates[_choice].votes++ */\n      dup2\n      sload\n      dup1\n      swap3\n      swap2\n      swap1\n      tag_108\n      swap1\n      tag_107\n      jump\t// in\n    tag_108:\n      swap2\n      swap1\n      pop\n      sstore\n      pop\n        /* \"contracts/ergasia.sol\":6434:6445  countResult */\n      0x04\n      0x00\n        /* \"contracts/ergasia.sol\":6434:6447  countResult++ */\n      dup2\n      sload\n      dup1\n      swap3\n      swap2\n      swap1\n      tag_109\n      swap1\n      tag_107\n      jump\t// in\n    tag_109:\n      swap2\n      swap1\n      pop\n      sstore\n      pop\n        /* \"contracts/ergasia.sol\":6469:6473  true */\n      0x01\n        /* \"contracts/ergasia.sol\":6461:6473  found = true */\n      swap1\n      pop\n        /* \"contracts/ergasia.sol\":6508:6513  found */\n      dup1\n        /* \"contracts/ergasia.sol\":6487:6493  voters */\n      0x0a\n        /* \"contracts/ergasia.sol\":6487:6505  voters[msg.sender] */\n      0x00\n        /* \"contracts/ergasia.sol\":6494:6504  msg.sender */\n      caller\n        /* \"contracts/ergasia.sol\":6487:6505  voters[msg.sender] */\n      0xffffffffffffffffffffffffffffffffffffffff\n      and\n      0xffffffffffffffffffffffffffffffffffffffff\n      and\n      dup2\n      mstore\n      0x20\n      add\n      swap1\n      dup2\n      mstore\n      0x20\n      add\n      0x00\n      keccak256\n      0x00\n        /* \"contracts/ergasia.sol\":6487:6513  voters[msg.sender] = found */\n      0x0100\n      exp\n      dup2\n      sload\n      dup2\n      0xff\n      mul\n      not\n      and\n      swap1\n      dup4\n      iszero\n      iszero\n      mul\n      or\n      swap1\n      sstore\n      pop\n        /* \"contracts/ergasia.sol\":6605:6630  resultsPerPollingStation1 */\n      0x0c\n        /* \"contracts/ergasia.sol\":6605:6649  resultsPerPollingStation1[_pollingStationID] */\n      0x00\n        /* \"contracts/ergasia.sol\":6631:6648  _pollingStationID */\n      dup6\n        /* \"contracts/ergasia.sol\":6605:6649  resultsPerPollingStation1[_pollingStationID] */\n      dup2\n      mstore\n      0x20\n      add\n      swap1\n      dup2\n      mstore\n      0x20\n      add\n      0x00\n      keccak256\n        /* \"contracts/ergasia.sol\":6650:6657  _choice */\n      dup6\n        /* \"contracts/ergasia.sol\":6605:6658  resultsPerPollingStation1[_pollingStationID][_choice] */\n      dup2\n      sload\n      dup2\n      lt\n      tag_110\n      jumpi\n      tag_111\n      tag_112\n      jump\t// in\n    tag_111:\n    tag_110:\n      swap1\n      0x00\n      mstore\n      keccak256(0x00, 0x20)\n      swap1\n      0x03\n      mul\n      add\n        /* \"contracts/ergasia.sol\":6605:6664  resultsPerPollingStation1[_pollingStationID][_choice].votes */\n      0x02\n      add\n      0x00\n        /* \"contracts/ergasia.sol\":6605:6666  resultsPerPollingStation1[_pollingStationID][_choice].votes++ */\n      dup2\n      sload\n      dup1\n      swap3\n      swap2\n      swap1\n      tag_114\n      swap1\n      tag_107\n      jump\t// in\n    tag_114:\n      swap2\n      swap1\n      pop\n      sstore\n      pop\n        /* \"contracts/ergasia.sol\":6686:6731  VoteCasted(found, _choice, _pollingStationID) */\n      0x29a25b3d0b6ff7e5de2a60a2e8e76d1bdaf4894ec18c598cc1687213f442c5cb\n        /* \"contracts/ergasia.sol\":6697:6702  found */\n      dup2\n        /* \"contracts/ergasia.sol\":6704:6711  _choice */\n      dup7\n        /* \"contracts/ergasia.sol\":6713:6730  _pollingStationID */\n      dup7\n        /* \"contracts/ergasia.sol\":6686:6731  VoteCasted(found, _choice, _pollingStationID) */\n      mload(0x40)\n      tag_115\n      swap4\n      swap3\n      swap2\n      swap1\n      tag_116\n      jump\t// in\n    tag_115:\n      mload(0x40)\n      dup1\n      swap2\n      sub\n      swap1\n      log1\n        /* \"contracts/ergasia.sol\":6040:6742  if (voterRegistry[msg.sender].isEnrolled && !voterRegistry[msg.sender].hasVoted) {... */\n    tag_105:\n        /* \"contracts/ergasia.sol\":6758:6763  found */\n      dup1\n        /* \"contracts/ergasia.sol\":6751:6763  return found */\n      swap3\n      pop\n      pop\n        /* \"contracts/ergasia.sol\":5894:6770  function castVote(uint _choice, uint _pollingStationID) public inState(State.Voting) returns (bool voted) {... */\n      pop\n      swap3\n      swap2\n      pop\n      pop\n      jump\t// out\n        /* \"contracts/ergasia.sol\":1221:1248  uint public candidatesCount */\n    tag_35:\n      sload(0x01)\n      dup2\n      jump\t// out\n        /* \"contracts/ergasia.sol\":1595:1639  mapping(uint => Candidate) public candidates */\n    tag_40:\n      mstore(0x20, 0x07)\n      dup1\n      0x00\n      mstore\n      keccak256(0x00, 0x40)\n      0x00\n      swap2\n      pop\n      swap1\n      pop\n      dup1\n      0x00\n      add\n      sload\n      swap1\n      dup1\n      0x01\n      add\n      dup1\n      sload\n      tag_117\n      swap1\n      tag_118\n      jump\t// in\n    tag_117:\n      dup1\n      0x1f\n      add\n      0x20\n      dup1\n      swap2\n      div\n      mul\n      0x20\n      add\n      mload(0x40)\n      swap1\n      dup2\n      add\n      0x40\n      mstore\n      dup1\n      swap3\n      swap2\n      swap1\n      dup2\n      dup2\n      mstore\n      0x20\n      add\n      dup3\n      dup1\n      sload\n      tag_119\n      swap1\n      tag_118\n      jump\t// in\n    tag_119:\n      dup1\n      iszero\n      tag_120\n      jumpi\n      dup1\n      0x1f\n      lt\n      tag_121\n      jumpi\n      0x0100\n      dup1\n      dup4\n      sload\n      div\n      mul\n      dup4\n      mstore\n      swap2\n      0x20\n      add\n      swap2\n      jump(tag_120)\n    tag_121:\n      dup3\n      add\n      swap2\n      swap1\n      0x00\n      mstore\n      keccak256(0x00, 0x20)\n      swap1\n    tag_122:\n      dup2\n      sload\n      dup2\n      mstore\n      swap1\n      0x01\n      add\n      swap1\n      0x20\n      add\n      dup1\n      dup4\n      gt\n      tag_122\n      jumpi\n      dup3\n      swap1\n      sub\n      0x1f\n      and\n      dup3\n      add\n      swap2\n    tag_120:\n      pop\n      pop\n      pop\n      pop\n      pop\n      swap1\n      dup1\n      0x02\n      add\n      sload\n      swap1\n      pop\n      dup4\n      jump\t// out\n        /* \"contracts/ergasia.sol\":7413:7864  function getResults1() public view returns (uint[][] memory) {... */\n    tag_44:\n        /* \"contracts/ergasia.sol\":7457:7472  uint[][] memory */\n      0x60\n        /* \"contracts/ergasia.sol\":7484:7503  uint[][] memory res */\n      0x00\n        /* \"contracts/ergasia.sol\":7519:7538  pollingStationCount */\n      sload(0x02)\n        /* \"contracts/ergasia.sol\":7506:7539  new uint[][](pollingStationCount) */\n      0xffffffffffffffff\n      dup2\n      gt\n      iszero\n      tag_124\n      jumpi\n      tag_125\n      tag_126\n      jump\t// in\n    tag_125:\n    tag_124:\n      mload(0x40)\n      swap1\n      dup1\n      dup3\n      mstore\n      dup1\n      0x20\n      mul\n      0x20\n      add\n      dup3\n      add\n      0x40\n      mstore\n      dup1\n      iszero\n      tag_127\n      jumpi\n      dup2\n      0x20\n      add\n    tag_128:\n      0x60\n      dup2\n      mstore\n      0x20\n      add\n      swap1\n      0x01\n      swap1\n      sub\n      swap1\n      dup2\n      tag_128\n      jumpi\n      swap1\n      pop\n    tag_127:\n      pop\n        /* \"contracts/ergasia.sol\":7484:7539  uint[][] memory res = new uint[][](pollingStationCount) */\n      swap1\n      pop\n        /* \"contracts/ergasia.sol\":7555:7561  uint i */\n      0x00\n        /* \"contracts/ergasia.sol\":7564:7565  1 */\n      0x01\n        /* \"contracts/ergasia.sol\":7555:7565  uint i = 1 */\n      swap1\n      pop\n        /* \"contracts/ergasia.sol\":7550:7838  for (uint i = 1; i <= pollingStationCount; i++) {... */\n    tag_129:\n        /* \"contracts/ergasia.sol\":7572:7591  pollingStationCount */\n      sload(0x02)\n        /* \"contracts/ergasia.sol\":7567:7568  i */\n      dup2\n        /* \"contracts/ergasia.sol\":7567:7591  i <= pollingStationCount */\n      gt\n        /* \"contracts/ergasia.sol\":7550:7838  for (uint i = 1; i <= pollingStationCount; i++) {... */\n      tag_130\n      jumpi\n        /* \"contracts/ergasia.sol\":7612:7631  uint[] memory votes */\n      0x00\n        /* \"contracts/ergasia.sol\":7645:7660  candidatesCount */\n      sload(0x01)\n        /* \"contracts/ergasia.sol\":7634:7661  new uint[](candidatesCount) */\n      0xffffffffffffffff\n      dup2\n      gt\n      iszero\n      tag_132\n      jumpi\n      tag_133\n      tag_126\n      jump\t// in\n    tag_133:\n    tag_132:\n      mload(0x40)\n      swap1\n      dup1\n      dup3\n      mstore\n      dup1\n      0x20\n      mul\n      0x20\n      add\n      dup3\n      add\n      0x40\n      mstore\n      dup1\n      iszero\n      tag_134\n      jumpi\n      dup2\n      0x20\n      add\n      0x20\n      dup3\n      mul\n      dup1\n      calldatasize\n      dup4\n      calldatacopy\n      dup1\n      dup3\n      add\n      swap2\n      pop\n      pop\n      swap1\n      pop\n    tag_134:\n      pop\n        /* \"contracts/ergasia.sol\":7612:7661  uint[] memory votes = new uint[](candidatesCount) */\n      swap1\n      pop\n        /* \"contracts/ergasia.sol\":7680:7686  uint j */\n      0x00\n        /* \"contracts/ergasia.sol\":7689:7690  1 */\n      0x01\n        /* \"contracts/ergasia.sol\":7680:7690  uint j = 1 */\n      swap1\n      pop\n        /* \"contracts/ergasia.sol\":7675:7800  for (uint j = 1; j <= candidatesCount; j++) {... */\n    tag_135:\n        /* \"contracts/ergasia.sol\":7697:7712  candidatesCount */\n      sload(0x01)\n        /* \"contracts/ergasia.sol\":7692:7693  j */\n      dup2\n        /* \"contracts/ergasia.sol\":7692:7712  j <= candidatesCount */\n      gt\n        /* \"contracts/ergasia.sol\":7675:7800  for (uint j = 1; j <= candidatesCount; j++) {... */\n      tag_136\n      jumpi\n        /* \"contracts/ergasia.sol\":7748:7773  resultsPerPollingStation1 */\n      0x0c\n        /* \"contracts/ergasia.sol\":7748:7776  resultsPerPollingStation1[i] */\n      0x00\n        /* \"contracts/ergasia.sol\":7774:7775  i */\n      dup5\n        /* \"contracts/ergasia.sol\":7748:7776  resultsPerPollingStation1[i] */\n      dup2\n      mstore\n      0x20\n      add\n      swap1\n      dup2\n      mstore\n      0x20\n      add\n      0x00\n      keccak256\n        /* \"contracts/ergasia.sol\":7777:7778  j */\n      dup2\n        /* \"contracts/ergasia.sol\":7748:7779  resultsPerPollingStation1[i][j] */\n      dup2\n      sload\n      dup2\n      lt\n      tag_138\n      jumpi\n      tag_139\n      tag_112\n      jump\t// in\n    tag_139:\n    tag_138:\n      swap1\n      0x00\n      mstore\n      keccak256(0x00, 0x20)\n      swap1\n      0x03\n      mul\n      add\n        /* \"contracts/ergasia.sol\":7748:7785  resultsPerPollingStation1[i][j].votes */\n      0x02\n      add\n      sload\n        /* \"contracts/ergasia.sol\":7737:7742  votes */\n      dup3\n        /* \"contracts/ergasia.sol\":7743:7744  j */\n      dup3\n        /* \"contracts/ergasia.sol\":7737:7745  votes[j] */\n      dup2\n      mload\n      dup2\n      lt\n      tag_141\n      jumpi\n      tag_142\n      tag_112\n      jump\t// in\n    tag_142:\n    tag_141:\n      0x20\n      mul\n      0x20\n      add\n      add\n        /* \"contracts/ergasia.sol\":7737:7785  votes[j] = resultsPerPollingStation1[i][j].votes */\n      dup2\n      dup2\n      mstore\n      pop\n      pop\n        /* \"contracts/ergasia.sol\":7714:7717  j++ */\n      dup1\n      dup1\n      tag_143\n      swap1\n      tag_107\n      jump\t// in\n    tag_143:\n      swap2\n      pop\n      pop\n        /* \"contracts/ergasia.sol\":7675:7800  for (uint j = 1; j <= candidatesCount; j++) {... */\n      jump(tag_135)\n    tag_136:\n      pop\n        /* \"contracts/ergasia.sol\":7822:7827  votes */\n      dup1\n        /* \"contracts/ergasia.sol\":7813:7816  res */\n      dup4\n        /* \"contracts/ergasia.sol\":7817:7818  i */\n      dup4\n        /* \"contracts/ergasia.sol\":7813:7819  res[i] */\n      dup2\n      mload\n      dup2\n      lt\n      tag_144\n      jumpi\n      tag_145\n      tag_112\n      jump\t// in\n    tag_145:\n    tag_144:\n      0x20\n      mul\n      0x20\n      add\n      add\n        /* \"contracts/ergasia.sol\":7813:7827  res[i] = votes */\n      dup2\n      swap1\n      mstore\n      pop\n        /* \"contracts/ergasia.sol\":7598:7838  {... */\n      pop\n        /* \"contracts/ergasia.sol\":7593:7596  i++ */\n      dup1\n      dup1\n      tag_146\n      swap1\n      tag_107\n      jump\t// in\n    tag_146:\n      swap2\n      pop\n      pop\n        /* \"contracts/ergasia.sol\":7550:7838  for (uint i = 1; i <= pollingStationCount; i++) {... */\n      jump(tag_129)\n    tag_130:\n      pop\n        /* \"contracts/ergasia.sol\":7854:7857  res */\n      dup1\n        /* \"contracts/ergasia.sol\":7847:7857  return res */\n      swap2\n      pop\n      pop\n        /* \"contracts/ergasia.sol\":7413:7864  function getResults1() public view returns (uint[][] memory) {... */\n      swap1\n      jump\t// out\n        /* \"contracts/ergasia.sol\":1753:1799  mapping(address => Voter) public voterRegistry */\n    tag_50:\n      mstore(0x20, 0x09)\n      dup1\n      0x00\n      mstore\n      keccak256(0x00, 0x40)\n      0x00\n      swap2\n      pop\n      swap1\n      pop\n      dup1\n      0x00\n      add\n      0x00\n      swap1\n      sload\n      swap1\n      0x0100\n      exp\n      swap1\n      div\n      0xff\n      and\n      swap1\n      dup1\n      0x00\n      add\n      0x01\n      swap1\n      sload\n      swap1\n      0x0100\n      exp\n      swap1\n      div\n      0xff\n      and\n      swap1\n      dup1\n      0x01\n      add\n      sload\n      swap1\n      dup1\n      0x02\n      add\n      sload\n      swap1\n      dup1\n      0x03\n      add\n      sload\n      swap1\n      pop\n      dup6\n      jump\t// out\n        /* \"contracts/ergasia.sol\":5794:5888  function startVote() public inState(State.Created) Owner {... */\n    tag_54:\n        /* \"contracts/ergasia.sol\":5830:5843  State.Created */\n      0x00\n        /* \"contracts/ergasia.sol\":2214:2220  _state */\n      dup1\n        /* \"contracts/ergasia.sol\":2205:2220  state == _state */\n      0x02\n      dup2\n      gt\n      iszero\n      tag_148\n      jumpi\n      tag_149\n      tag_99\n      jump\t// in\n    tag_149:\n    tag_148:\n        /* \"contracts/ergasia.sol\":2205:2210  state */\n      0x0d\n      0x00\n      swap1\n      sload\n      swap1\n      0x0100\n      exp\n      swap1\n      div\n      0xff\n      and\n        /* \"contracts/ergasia.sol\":2205:2220  state == _state */\n      0x02\n      dup2\n      gt\n      iszero\n      tag_150\n      jumpi\n      tag_151\n      tag_99\n      jump\t// in\n    tag_151:\n    tag_150:\n      eq\n        /* \"contracts/ergasia.sol\":2197:2221  require(state == _state) */\n      tag_152\n      jumpi\n      0x00\n      dup1\n      revert\n    tag_152:\n        /* \"contracts/ergasia.sol\":2118:2131  electionOwner */\n      0x00\n      dup1\n      sload\n      swap1\n      0x0100\n      exp\n      swap1\n      div\n      0xffffffffffffffffffffffffffffffffffffffff\n      and\n        /* \"contracts/ergasia.sol\":2104:2131  msg.sender == electionOwner */\n      0xffffffffffffffffffffffffffffffffffffffff\n      and\n        /* \"contracts/ergasia.sol\":2104:2114  msg.sender */\n      caller\n        /* \"contracts/ergasia.sol\":2104:2131  msg.sender == electionOwner */\n      0xffffffffffffffffffffffffffffffffffffffff\n      and\n      eq\n        /* \"contracts/ergasia.sol\":2096:2132  require(msg.sender == electionOwner) */\n      tag_154\n      jumpi\n      0x00\n      dup1\n      revert\n    tag_154:\n        /* \"contracts/ergasia.sol\":5869:5881  State.Voting */\n      0x01\n        /* \"contracts/ergasia.sol\":5861:5866  state */\n      0x0d\n      0x00\n        /* \"contracts/ergasia.sol\":5861:5881  state = State.Voting */\n      0x0100\n      exp\n      dup2\n      sload\n      dup2\n      0xff\n      mul\n      not\n      and\n      swap1\n      dup4\n      0x02\n      dup2\n      gt\n      iszero\n      tag_156\n      jumpi\n      tag_157\n      tag_99\n      jump\t// in\n    tag_157:\n    tag_156:\n      mul\n      or\n      swap1\n      sstore\n      pop\n        /* \"contracts/ergasia.sol\":5794:5888  function startVote() public inState(State.Created) Owner {... */\n      pop\n      jump\t// out\n        /* \"contracts/ergasia.sol\":1187:1215  address public electionOwner */\n    tag_56:\n      0x00\n      dup1\n      sload\n      swap1\n      0x0100\n      exp\n      swap1\n      div\n      0xffffffffffffffffffffffffffffffffffffffff\n      and\n      dup2\n      jump\t// out\n        /* \"contracts/ergasia.sol\":1930:1991  mapping(uint => Candidate[]) public resultsPerPollingStation1 */\n    tag_61:\n      mstore(0x20, 0x0c)\n      dup2\n      0x00\n      mstore\n      keccak256(0x00, 0x40)\n      dup2\n      dup2\n      sload\n      dup2\n      lt\n      tag_158\n      jumpi\n      0x00\n      dup1\n      revert\n    tag_158:\n      swap1\n      0x00\n      mstore\n      keccak256(0x00, 0x20)\n      swap1\n      0x03\n      mul\n      add\n      0x00\n      swap2\n      pop\n      swap2\n      pop\n      pop\n      dup1\n      0x00\n      add\n      sload\n      swap1\n      dup1\n      0x01\n      add\n      dup1\n      sload\n      tag_160\n      swap1\n      tag_118\n      jump\t// in\n    tag_160:\n      dup1\n      0x1f\n      add\n      0x20\n      dup1\n      swap2\n      div\n      mul\n      0x20\n      add\n      mload(0x40)\n      swap1\n      dup2\n      add\n      0x40\n      mstore\n      dup1\n      swap3\n      swap2\n      swap1\n      dup2\n      dup2\n      mstore\n      0x20\n      add\n      dup3\n      dup1\n      sload\n      tag_161\n      swap1\n      tag_118\n      jump\t// in\n    tag_161:\n      dup1\n      iszero\n      tag_162\n      jumpi\n      dup1\n      0x1f\n      lt\n      tag_163\n      jumpi\n      0x0100\n      dup1\n      dup4\n      sload\n      div\n      mul\n      dup4\n      mstore\n      swap2\n      0x20\n      add\n      swap2\n      jump(tag_162)\n    tag_163:\n      dup3\n      add\n      swap2\n      swap1\n      0x00\n      mstore\n      keccak256(0x00, 0x20)\n      swap1\n    tag_164:\n      dup2\n      sload\n      dup2\n      mstore\n      swap1\n      0x01\n      add\n      swap1\n      0x20\n      add\n      dup1\n      dup4\n      gt\n      tag_164\n      jumpi\n      dup3\n      swap1\n      sub\n      0x1f\n      and\n      dup3\n      add\n      swap2\n    tag_162:\n      pop\n      pop\n      pop\n      pop\n      pop\n      swap1\n      dup1\n      0x02\n      add\n      sload\n      swap1\n      pop\n      dup4\n      jump\t// out\n        /* \"contracts/ergasia.sol\":1805:1843  mapping(address => bool) public voters */\n    tag_65:\n      mstore(0x20, 0x0a)\n      dup1\n      0x00\n      mstore\n      keccak256(0x00, 0x40)\n      0x00\n      swap2\n      pop\n      sload\n      swap1\n      0x0100\n      exp\n      swap1\n      div\n      0xff\n      and\n      dup2\n      jump\t// out\n        /* \"contracts/ergasia.sol\":1849:1924  mapping(uint => mapping(uint => Candidate)) public resultsPerPollingStation */\n    tag_69:\n      mstore(0x20, 0x0b)\n      dup2\n      0x00\n      mstore\n      mstore(0x20, keccak256(0x00, 0x40))\n      dup1\n      0x00\n      mstore\n      keccak256(0x00, 0x40)\n      0x00\n      swap2\n      pop\n      swap2\n      pop\n      pop\n      dup1\n      0x00\n      add\n      sload\n      swap1\n      dup1\n      0x01\n      add\n      dup1\n      sload\n      tag_165\n      swap1\n      tag_118\n      jump\t// in\n    tag_165:\n      dup1\n      0x1f\n      add\n      0x20\n      dup1\n      swap2\n      div\n      mul\n      0x20\n      add\n      mload(0x40)\n      swap1\n      dup2\n      add\n      0x40\n      mstore\n      dup1\n      swap3\n      swap2\n      swap1\n      dup2\n      dup2\n      mstore\n      0x20\n      add\n      dup3\n      dup1\n      sload\n      tag_166\n      swap1\n      tag_118\n      jump\t// in\n    tag_166:\n      dup1\n      iszero\n      tag_167\n      jumpi\n      dup1\n      0x1f\n      lt\n      tag_168\n      jumpi\n      0x0100\n      dup1\n      dup4\n      sload\n      div\n      mul\n      dup4\n      mstore\n      swap2\n      0x20\n      add\n      swap2\n      jump(tag_167)\n    tag_168:\n      dup3\n      add\n      swap2\n      swap1\n      0x00\n      mstore\n      keccak256(0x00, 0x20)\n      swap1\n    tag_169:\n      dup2\n      sload\n      dup2\n      mstore\n      swap1\n      0x01\n      add\n      swap1\n      0x20\n      add\n      dup1\n      dup4\n      gt\n      tag_169\n      jumpi\n      dup3\n      swap1\n      sub\n      0x1f\n      and\n      dup3\n      add\n      swap2\n    tag_167:\n      pop\n      pop\n      pop\n      pop\n      pop\n      swap1\n      dup1\n      0x02\n      add\n      sload\n      swap1\n      pop\n      dup4\n      jump\t// out\n        /* \"contracts/ergasia.sol\":6776:6902  function endVote() public inState(State.Voting) Owner { ... */\n    tag_72:\n        /* \"contracts/ergasia.sol\":6810:6822  State.Voting */\n      0x01\n        /* \"contracts/ergasia.sol\":2214:2220  _state */\n      dup1\n        /* \"contracts/ergasia.sol\":2205:2220  state == _state */\n      0x02\n      dup2\n      gt\n      iszero\n      tag_171\n      jumpi\n      tag_172\n      tag_99\n      jump\t// in\n    tag_172:\n    tag_171:\n        /* \"contracts/ergasia.sol\":2205:2210  state */\n      0x0d\n      0x00\n      swap1\n      sload\n      swap1\n      0x0100\n      exp\n      swap1\n      div\n      0xff\n      and\n        /* \"contracts/ergasia.sol\":2205:2220  state == _state */\n      0x02\n      dup2\n      gt\n      iszero\n      tag_173\n      jumpi\n      tag_174\n      tag_99\n      jump\t// in\n    tag_174:\n    tag_173:\n      eq\n        /* \"contracts/ergasia.sol\":2197:2221  require(state == _state) */\n      tag_175\n      jumpi\n      0x00\n      dup1\n      revert\n    tag_175:\n        /* \"contracts/ergasia.sol\":2118:2131  electionOwner */\n      0x00\n      dup1\n      sload\n      swap1\n      0x0100\n      exp\n      swap1\n      div\n      0xffffffffffffffffffffffffffffffffffffffff\n      and\n        /* \"contracts/ergasia.sol\":2104:2131  msg.sender == electionOwner */\n      0xffffffffffffffffffffffffffffffffffffffff\n      and\n        /* \"contracts/ergasia.sol\":2104:2114  msg.sender */\n      caller\n        /* \"contracts/ergasia.sol\":2104:2131  msg.sender == electionOwner */\n      0xffffffffffffffffffffffffffffffffffffffff\n      and\n      eq\n        /* \"contracts/ergasia.sol\":2096:2132  require(msg.sender == electionOwner) */\n      tag_177\n      jumpi\n      0x00\n      dup1\n      revert\n    tag_177:\n        /* \"contracts/ergasia.sol\":6849:6860  State.Ended */\n      0x02\n        /* \"contracts/ergasia.sol\":6841:6846  state */\n      0x0d\n      0x00\n        /* \"contracts/ergasia.sol\":6841:6860  state = State.Ended */\n      0x0100\n      exp\n      dup2\n      sload\n      dup2\n      0xff\n      mul\n      not\n      and\n      swap1\n      dup4\n      0x02\n      dup2\n      gt\n      iszero\n      tag_179\n      jumpi\n      tag_180\n      tag_99\n      jump\t// in\n    tag_180:\n    tag_179:\n      mul\n      or\n      swap1\n      sstore\n      pop\n        /* \"contracts/ergasia.sol\":6884:6895  countResult */\n      sload(0x04)\n        /* \"contracts/ergasia.sol\":6870:6881  finalResult */\n      0x05\n        /* \"contracts/ergasia.sol\":6870:6895  finalResult = countResult */\n      dup2\n      swap1\n      sstore\n      pop\n        /* \"contracts/ergasia.sol\":6776:6902  function endVote() public inState(State.Voting) Owner { ... */\n      pop\n      jump\t// out\n        /* \"contracts/ergasia.sol\":4340:5260  function addVoter(address _voterAddress, uint _pollingStationID) public inState(State.Created) Owner {... */\n    tag_76:\n        /* \"contracts/ergasia.sol\":4420:4433  State.Created */\n      0x00\n        /* \"contracts/ergasia.sol\":2214:2220  _state */\n      dup1\n        /* \"contracts/ergasia.sol\":2205:2220  state == _state */\n      0x02\n      dup2\n      gt\n      iszero\n      tag_182\n      jumpi\n      tag_183\n      tag_99\n      jump\t// in\n    tag_183:\n    tag_182:\n        /* \"contracts/ergasia.sol\":2205:2210  state */\n      0x0d\n      0x00\n      swap1\n      sload\n      swap1\n      0x0100\n      exp\n      swap1\n      div\n      0xff\n      and\n        /* \"contracts/ergasia.sol\":2205:2220  state == _state */\n      0x02\n      dup2\n      gt\n      iszero\n      tag_184\n      jumpi\n      tag_185\n      tag_99\n      jump\t// in\n    tag_185:\n    tag_184:\n      eq\n        /* \"contracts/ergasia.sol\":2197:2221  require(state == _state) */\n      tag_186\n      jumpi\n      0x00\n      dup1\n      revert\n    tag_186:\n        /* \"contracts/ergasia.sol\":2118:2131  electionOwner */\n      0x00\n      dup1\n      sload\n      swap1\n      0x0100\n      exp\n      swap1\n      div\n      0xffffffffffffffffffffffffffffffffffffffff\n      and\n        /* \"contracts/ergasia.sol\":2104:2131  msg.sender == electionOwner */\n      0xffffffffffffffffffffffffffffffffffffffff\n      and\n        /* \"contracts/ergasia.sol\":2104:2114  msg.sender */\n      caller\n        /* \"contracts/ergasia.sol\":2104:2131  msg.sender == electionOwner */\n      0xffffffffffffffffffffffffffffffffffffffff\n      and\n      eq\n        /* \"contracts/ergasia.sol\":2096:2132  require(msg.sender == electionOwner) */\n      tag_188\n      jumpi\n      0x00\n      dup1\n      revert\n    tag_188:\n        /* \"contracts/ergasia.sol\":4559:4564  false */\n      0x00\n        /* \"contracts/ergasia.sol\":4516:4564  voterRegistry[_voterAddress].isEnrolled == false */\n      iszero\n      iszero\n        /* \"contracts/ergasia.sol\":4516:4529  voterRegistry */\n      0x09\n        /* \"contracts/ergasia.sol\":4516:4544  voterRegistry[_voterAddress] */\n      0x00\n        /* \"contracts/ergasia.sol\":4530:4543  _voterAddress */\n      dup6\n        /* \"contracts/ergasia.sol\":4516:4544  voterRegistry[_voterAddress] */\n      0xffffffffffffffffffffffffffffffffffffffff\n      and\n      0xffffffffffffffffffffffffffffffffffffffff\n      and\n      dup2\n      mstore\n      0x20\n      add\n      swap1\n      dup2\n      mstore\n      0x20\n      add\n      0x00\n      keccak256\n        /* \"contracts/ergasia.sol\":4516:4555  voterRegistry[_voterAddress].isEnrolled */\n      0x00\n      add\n      0x00\n      swap1\n      sload\n      swap1\n      0x0100\n      exp\n      swap1\n      div\n      0xff\n      and\n        /* \"contracts/ergasia.sol\":4516:4564  voterRegistry[_voterAddress].isEnrolled == false */\n      iszero\n      iszero\n      eq\n        /* \"contracts/ergasia.sol\":4508:4597  require(voterRegistry[_voterAddress].isEnrolled == false, \"Voter is already registered.\") */\n      tag_190\n      jumpi\n      mload(0x40)\n      0x08c379a000000000000000000000000000000000000000000000000000000000\n      dup2\n      mstore\n      0x04\n      add\n      tag_191\n      swap1\n      tag_192\n      jump\t// in\n    tag_191:\n      mload(0x40)\n      dup1\n      swap2\n      sub\n      swap1\n      revert\n    tag_190:\n        /* \"contracts/ergasia.sol\":4836:4837  1 */\n      0x01\n        /* \"contracts/ergasia.sol\":4816:4833  _pollingStationID */\n      dup3\n        /* \"contracts/ergasia.sol\":4816:4837  _pollingStationID >=1 */\n      lt\n      iszero\n        /* \"contracts/ergasia.sol\":4816:4881  _pollingStationID >=1 && _pollingStationID <= pollingStationCount */\n      dup1\n      iszero\n      tag_193\n      jumpi\n      pop\n        /* \"contracts/ergasia.sol\":4862:4881  pollingStationCount */\n      sload(0x02)\n        /* \"contracts/ergasia.sol\":4841:4858  _pollingStationID */\n      dup3\n        /* \"contracts/ergasia.sol\":4841:4881  _pollingStationID <= pollingStationCount */\n      gt\n      iszero\n        /* \"contracts/ergasia.sol\":4816:4881  _pollingStationID >=1 && _pollingStationID <= pollingStationCount */\n    tag_193:\n        /* \"contracts/ergasia.sol\":4808:4928  require(_pollingStationID >=1 && _pollingStationID <= pollingStationCount, \"Please provide a valid polling station ID.\") */\n      tag_194\n      jumpi\n      mload(0x40)\n      0x08c379a000000000000000000000000000000000000000000000000000000000\n      dup2\n      mstore\n      0x04\n      add\n      tag_195\n      swap1\n      tag_196\n      jump\t// in\n    tag_195:\n      mload(0x40)\n      dup1\n      swap2\n      sub\n      swap1\n      revert\n    tag_194:\n        /* \"contracts/ergasia.sol\":4939:4953  Voter memory v */\n      tag_197\n      tag_198\n      jump\t// in\n    tag_197:\n        /* \"contracts/ergasia.sol\":4978:4982  true */\n      0x01\n        /* \"contracts/ergasia.sol\":4963:4964  v */\n      dup2\n        /* \"contracts/ergasia.sol\":4963:4975  v.isEnrolled */\n      0x00\n      add\n        /* \"contracts/ergasia.sol\":4963:4982  v.isEnrolled = true */\n      swap1\n      iszero\n      iszero\n      swap1\n      dup2\n      iszero\n      iszero\n      dup2\n      mstore\n      pop\n      pop\n        /* \"contracts/ergasia.sol\":5005:5010  false */\n      0x00\n        /* \"contracts/ergasia.sol\":4992:4993  v */\n      dup2\n        /* \"contracts/ergasia.sol\":4992:5002  v.hasVoted */\n      0x20\n      add\n        /* \"contracts/ergasia.sol\":4992:5010  v.hasVoted = false */\n      swap1\n      iszero\n      iszero\n      swap1\n      dup2\n      iszero\n      iszero\n      dup2\n      mstore\n      pop\n      pop\n        /* \"contracts/ergasia.sol\":5031:5032  0 */\n      0x00\n        /* \"contracts/ergasia.sol\":5020:5021  v */\n      dup2\n        /* \"contracts/ergasia.sol\":5020:5028  v.choice */\n      0x40\n      add\n        /* \"contracts/ergasia.sol\":5020:5032  v.choice = 0 */\n      dup2\n      dup2\n      mstore\n      pop\n      pop\n        /* \"contracts/ergasia.sol\":5071:5088  _pollingStationID */\n      dup3\n        /* \"contracts/ergasia.sol\":5042:5043  v */\n      dup2\n        /* \"contracts/ergasia.sol\":5042:5068  v.enrolledPollingStationID */\n      0x60\n      add\n        /* \"contracts/ergasia.sol\":5042:5088  v.enrolledPollingStationID = _pollingStationID */\n      dup2\n      dup2\n      mstore\n      pop\n      pop\n        /* \"contracts/ergasia.sol\":5124:5125  0 */\n      0x00\n        /* \"contracts/ergasia.sol\":5098:5099  v */\n      dup2\n        /* \"contracts/ergasia.sol\":5098:5121  v.votedPollingStationID */\n      0x80\n      add\n        /* \"contracts/ergasia.sol\":5098:5125  v.votedPollingStationID = 0 */\n      dup2\n      dup2\n      mstore\n      pop\n      pop\n        /* \"contracts/ergasia.sol\":5166:5167  v */\n      dup1\n        /* \"contracts/ergasia.sol\":5135:5148  voterRegistry */\n      0x09\n        /* \"contracts/ergasia.sol\":5135:5163  voterRegistry[_voterAddress] */\n      0x00\n        /* \"contracts/ergasia.sol\":5149:5162  _voterAddress */\n      dup7\n        /* \"contracts/ergasia.sol\":5135:5163  voterRegistry[_voterAddress] */\n      0xffffffffffffffffffffffffffffffffffffffff\n      and\n      0xffffffffffffffffffffffffffffffffffffffff\n      and\n      dup2\n      mstore\n      0x20\n      add\n      swap1\n      dup2\n      mstore\n      0x20\n      add\n      0x00\n      keccak256\n        /* \"contracts/ergasia.sol\":5135:5167  voterRegistry[_voterAddress] = v */\n      0x00\n      dup3\n      add\n      mload\n      dup2\n      0x00\n      add\n      exp(0x0100, 0x00)\n      dup2\n      sload\n      dup2\n      0xff\n      mul\n      not\n      and\n      swap1\n      dup4\n      iszero\n      iszero\n      mul\n      or\n      swap1\n      sstore\n      pop\n      0x20\n      dup3\n      add\n      mload\n      dup2\n      0x00\n      add\n      exp(0x0100, 0x01)\n      dup2\n      sload\n      dup2\n      0xff\n      mul\n      not\n      and\n      swap1\n      dup4\n      iszero\n      iszero\n      mul\n      or\n      swap1\n      sstore\n      pop\n      0x40\n      dup3\n      add\n      mload\n      dup2\n      0x01\n      add\n      sstore\n      0x60\n      dup3\n      add\n      mload\n      dup2\n      0x02\n      add\n      sstore\n      0x80\n      dup3\n      add\n      mload\n      dup2\n      0x03\n      add\n      sstore\n      swap1\n      pop\n      pop\n        /* \"contracts/ergasia.sol\":5177:5220  registerAtPollingStation(_pollingStationID) */\n      tag_199\n        /* \"contracts/ergasia.sol\":5202:5219  _pollingStationID */\n      dup4\n        /* \"contracts/ergasia.sol\":5177:5201  registerAtPollingStation */\n      tag_200\n        /* \"contracts/ergasia.sol\":5177:5220  registerAtPollingStation(_pollingStationID) */\n      jump\t// in\n    tag_199:\n        /* \"contracts/ergasia.sol\":5230:5251  totalRegisteredVoters */\n      0x03\n      0x00\n        /* \"contracts/ergasia.sol\":5230:5253  totalRegisteredVoters++ */\n      dup2\n      sload\n      dup1\n      swap3\n      swap2\n      swap1\n      tag_201\n      swap1\n      tag_107\n      jump\t// in\n    tag_201:\n      swap2\n      swap1\n      pop\n      sstore\n      pop\n        /* \"contracts/ergasia.sol\":4441:5260  {... */\n      pop\n        /* \"contracts/ergasia.sol\":4340:5260  function addVoter(address _voterAddress, uint _pollingStationID) public inState(State.Created) Owner {... */\n      pop\n      pop\n      pop\n      jump\t// out\n        /* \"contracts/ergasia.sol\":2044:2062  State public state */\n    tag_78:\n      0x0d\n      0x00\n      swap1\n      sload\n      swap1\n      0x0100\n      exp\n      swap1\n      div\n      0xff\n      and\n      dup2\n      jump\t// out\n        /* \"contracts/ergasia.sol\":1565:1588  uint[][] public results */\n    tag_83:\n      0x06\n      dup3\n      dup2\n      sload\n      dup2\n      lt\n      tag_202\n      jumpi\n      0x00\n      dup1\n      revert\n    tag_202:\n      swap1\n      0x00\n      mstore\n      keccak256(0x00, 0x20)\n      add\n      dup2\n      dup2\n      sload\n      dup2\n      lt\n      tag_204\n      jumpi\n      0x00\n      dup1\n      revert\n    tag_204:\n      swap1\n      0x00\n      mstore\n      keccak256(0x00, 0x20)\n      add\n      0x00\n      swap2\n      pop\n      swap2\n      pop\n      pop\n      sload\n      dup2\n      jump\t// out\n        /* \"contracts/ergasia.sol\":1289:1320  uint public pollingStationCount */\n    tag_86:\n      sload(0x02)\n      dup2\n      jump\t// out\n        /* \"contracts/ergasia.sol\":1484:1507  uint public finalResult */\n    tag_89:\n      sload(0x05)\n      dup2\n      jump\t// out\n        /* \"contracts/ergasia.sol\":1669:1723  mapping(uint => PollingStation) public pollingStations */\n    tag_93:\n      mstore(0x20, 0x08)\n      dup1\n      0x00\n      mstore\n      keccak256(0x00, 0x40)\n      0x00\n      swap2\n      pop\n      swap1\n      pop\n      dup1\n      0x00\n      add\n      sload\n      swap1\n      dup1\n      0x01\n      add\n      dup1\n      sload\n      tag_206\n      swap1\n      tag_118\n      jump\t// in\n    tag_206:\n      dup1\n      0x1f\n      add\n      0x20\n      dup1\n      swap2\n      div\n      mul\n      0x20\n      add\n      mload(0x40)\n      swap1\n      dup2\n      add\n      0x40\n      mstore\n      dup1\n      swap3\n      swap2\n      swap1\n      dup2\n      dup2\n      mstore\n      0x20\n      add\n      dup3\n      dup1\n      sload\n      tag_207\n      swap1\n      tag_118\n      jump\t// in\n    tag_207:\n      dup1\n      iszero\n      tag_208\n      jumpi\n      dup1\n      0x1f\n      lt\n      tag_209\n      jumpi\n      0x0100\n      dup1\n      dup4\n      sload\n      div\n      mul\n      dup4\n      mstore\n      swap2\n      0x20\n      add\n      swap2\n      jump(tag_208)\n    tag_209:\n      dup3\n      add\n      swap2\n      swap1\n      0x00\n      mstore\n      keccak256(0x00, 0x20)\n      swap1\n    tag_210:\n      dup2\n      sload\n      dup2\n      mstore\n      swap1\n      0x01\n      add\n      swap1\n      0x20\n      add\n      dup1\n      dup4\n      gt\n      tag_210\n      jumpi\n      dup3\n      swap1\n      sub\n      0x1f\n      and\n      dup3\n      add\n      swap2\n    tag_208:\n      pop\n      pop\n      pop\n      pop\n      pop\n      swap1\n      dup1\n      0x02\n      add\n      sload\n      swap1\n      dup1\n      0x03\n      add\n      sload\n      swap1\n      pop\n      dup5\n      jump\t// out\n        /* \"contracts/ergasia.sol\":5398:5680  function registerAtPollingStation(uint _stationID) internal {... */\n    tag_200:\n        /* \"contracts/ergasia.sol\":5473:5479  uint i */\n      0x00\n        /* \"contracts/ergasia.sol\":5482:5483  1 */\n      0x01\n        /* \"contracts/ergasia.sol\":5473:5483  uint i = 1 */\n      swap1\n      pop\n        /* \"contracts/ergasia.sol\":5468:5674  for (uint i = 1; i <= pollingStationCount; i++) {... */\n    tag_212:\n        /* \"contracts/ergasia.sol\":5490:5509  pollingStationCount */\n      sload(0x02)\n        /* \"contracts/ergasia.sol\":5485:5486  i */\n      dup2\n        /* \"contracts/ergasia.sol\":5485:5509  i <= pollingStationCount */\n      gt\n        /* \"contracts/ergasia.sol\":5468:5674  for (uint i = 1; i <= pollingStationCount; i++) {... */\n      tag_213\n      jumpi\n        /* \"contracts/ergasia.sol\":5559:5569  _stationID */\n      dup2\n        /* \"contracts/ergasia.sol\":5534:5549  pollingStations */\n      0x08\n        /* \"contracts/ergasia.sol\":5534:5552  pollingStations[i] */\n      0x00\n        /* \"contracts/ergasia.sol\":5550:5551  i */\n      dup4\n        /* \"contracts/ergasia.sol\":5534:5552  pollingStations[i] */\n      dup2\n      mstore\n      0x20\n      add\n      swap1\n      dup2\n      mstore\n      0x20\n      add\n      0x00\n      keccak256\n        /* \"contracts/ergasia.sol\":5534:5555  pollingStations[i].id */\n      0x00\n      add\n      sload\n        /* \"contracts/ergasia.sol\":5534:5569  pollingStations[i].id == _stationID */\n      eq\n        /* \"contracts/ergasia.sol\":5530:5664  if (pollingStations[i].id == _stationID) {... */\n      iszero\n      tag_215\n      jumpi\n        /* \"contracts/ergasia.sol\":5589:5604  pollingStations */\n      0x08\n        /* \"contracts/ergasia.sol\":5589:5607  pollingStations[i] */\n      0x00\n        /* \"contracts/ergasia.sol\":5605:5606  i */\n      dup3\n        /* \"contracts/ergasia.sol\":5589:5607  pollingStations[i] */\n      dup2\n      mstore\n      0x20\n      add\n      swap1\n      dup2\n      mstore\n      0x20\n      add\n      0x00\n      keccak256\n        /* \"contracts/ergasia.sol\":5589:5624  pollingStations[i].votersRegistered */\n      0x02\n      add\n      0x00\n        /* \"contracts/ergasia.sol\":5589:5626  pollingStations[i].votersRegistered++ */\n      dup2\n      sload\n      dup1\n      swap3\n      swap2\n      swap1\n      tag_216\n      swap1\n      tag_107\n      jump\t// in\n    tag_216:\n      swap2\n      swap1\n      pop\n      sstore\n      pop\n        /* \"contracts/ergasia.sol\":5644:5649  break */\n      jump(tag_213)\n        /* \"contracts/ergasia.sol\":5530:5664  if (pollingStations[i].id == _stationID) {... */\n    tag_215:\n        /* \"contracts/ergasia.sol\":5511:5514  i++ */\n      dup1\n      dup1\n      tag_217\n      swap1\n      tag_107\n      jump\t// in\n    tag_217:\n      swap2\n      pop\n      pop\n        /* \"contracts/ergasia.sol\":5468:5674  for (uint i = 1; i <= pollingStationCount; i++) {... */\n      jump(tag_212)\n    tag_213:\n      pop\n        /* \"contracts/ergasia.sol\":5398:5680  function registerAtPollingStation(uint _stationID) internal {... */\n      pop\n      jump\t// out\n    tag_198:\n      mload(0x40)\n      dup1\n      0xa0\n      add\n      0x40\n      mstore\n      dup1\n      iszero(iszero(0x00))\n      dup2\n      mstore\n      0x20\n      add\n      iszero(iszero(0x00))\n      dup2\n      mstore\n      0x20\n      add\n      0x00\n      dup2\n      mstore\n      0x20\n      add\n      0x00\n      dup2\n      mstore\n      0x20\n      add\n      0x00\n      dup2\n      mstore\n      pop\n      swap1\n      jump\t// out\n        /* \"#utility.yul\":7:146   */\n    tag_219:\n        /* \"#utility.yul\":53:58   */\n      0x00\n        /* \"#utility.yul\":91:97   */\n      dup2\n        /* \"#utility.yul\":78:98   */\n      calldataload\n        /* \"#utility.yul\":69:98   */\n      swap1\n      pop\n        /* \"#utility.yul\":107:140   */\n      tag_221\n        /* \"#utility.yul\":134:139   */\n      dup2\n        /* \"#utility.yul\":107:140   */\n      tag_222\n      jump\t// in\n    tag_221:\n        /* \"#utility.yul\":7:146   */\n      swap3\n      swap2\n      pop\n      pop\n      jump\t// out\n        /* \"#utility.yul\":152:291   */\n    tag_223:\n        /* \"#utility.yul\":198:203   */\n      0x00\n        /* \"#utility.yul\":236:242   */\n      dup2\n        /* \"#utility.yul\":223:243   */\n      calldataload\n        /* \"#utility.yul\":214:243   */\n      swap1\n      pop\n        /* \"#utility.yul\":252:285   */\n      tag_225\n        /* \"#utility.yul\":279:284   */\n      dup2\n        /* \"#utility.yul\":252:285   */\n      tag_226\n      jump\t// in\n    tag_225:\n        /* \"#utility.yul\":152:291   */\n      swap3\n      swap2\n      pop\n      pop\n      jump\t// out\n        /* \"#utility.yul\":297:626   */\n    tag_49:\n        /* \"#utility.yul\":356:362   */\n      0x00\n        /* \"#utility.yul\":405:407   */\n      0x20\n        /* \"#utility.yul\":393:402   */\n      dup3\n        /* \"#utility.yul\":384:391   */\n      dup5\n        /* \"#utility.yul\":380:403   */\n      sub\n        /* \"#utility.yul\":376:408   */\n      slt\n        /* \"#utility.yul\":373:492   */\n      iszero\n      tag_228\n      jumpi\n        /* \"#utility.yul\":411:490   */\n      tag_229\n      tag_230\n      jump\t// in\n    tag_229:\n        /* \"#utility.yul\":373:492   */\n    tag_228:\n        /* \"#utility.yul\":531:532   */\n      0x00\n        /* \"#utility.yul\":556:609   */\n      tag_231\n        /* \"#utility.yul\":601:608   */\n      dup5\n        /* \"#utility.yul\":592:598   */\n      dup3\n        /* \"#utility.yul\":581:590   */\n      dup6\n        /* \"#utility.yul\":577:599   */\n      add\n        /* \"#utility.yul\":556:609   */\n      tag_219\n      jump\t// in\n    tag_231:\n        /* \"#utility.yul\":546:609   */\n      swap2\n      pop\n        /* \"#utility.yul\":502:619   */\n      pop\n        /* \"#utility.yul\":297:626   */\n      swap3\n      swap2\n      pop\n      pop\n      jump\t// out\n        /* \"#utility.yul\":632:1106   */\n    tag_75:\n        /* \"#utility.yul\":700:706   */\n      0x00\n        /* \"#utility.yul\":708:714   */\n      dup1\n        /* \"#utility.yul\":757:759   */\n      0x40\n        /* \"#utility.yul\":745:754   */\n      dup4\n        /* \"#utility.yul\":736:743   */\n      dup6\n        /* \"#utility.yul\":732:755   */\n      sub\n        /* \"#utility.yul\":728:760   */\n      slt\n        /* \"#utility.yul\":725:844   */\n      iszero\n      tag_233\n      jumpi\n        /* \"#utility.yul\":763:842   */\n      tag_234\n      tag_230\n      jump\t// in\n    tag_234:\n        /* \"#utility.yul\":725:844   */\n    tag_233:\n        /* \"#utility.yul\":883:884   */\n      0x00\n        /* \"#utility.yul\":908:961   */\n      tag_235\n        /* \"#utility.yul\":953:960   */\n      dup6\n        /* \"#utility.yul\":944:950   */\n      dup3\n        /* \"#utility.yul\":933:942   */\n      dup7\n        /* \"#utility.yul\":929:951   */\n      add\n        /* \"#utility.yul\":908:961   */\n      tag_219\n      jump\t// in\n    tag_235:\n        /* \"#utility.yul\":898:961   */\n      swap3\n      pop\n        /* \"#utility.yul\":854:971   */\n      pop\n        /* \"#utility.yul\":1010:1012   */\n      0x20\n        /* \"#utility.yul\":1036:1089   */\n      tag_236\n        /* \"#utility.yul\":1081:1088   */\n      dup6\n        /* \"#utility.yul\":1072:1078   */\n      dup3\n        /* \"#utility.yul\":1061:1070   */\n      dup7\n        /* \"#utility.yul\":1057:1079   */\n      add\n        /* \"#utility.yul\":1036:1089   */\n      tag_223\n      jump\t// in\n    tag_236:\n        /* \"#utility.yul\":1026:1089   */\n      swap2\n      pop\n        /* \"#utility.yul\":981:1099   */\n      pop\n        /* \"#utility.yul\":632:1106   */\n      swap3\n      pop\n      swap3\n      swap1\n      pop\n      jump\t// out\n        /* \"#utility.yul\":1112:1441   */\n    tag_39:\n        /* \"#utility.yul\":1171:1177   */\n      0x00\n        /* \"#utility.yul\":1220:1222   */\n      0x20\n        /* \"#utility.yul\":1208:1217   */\n      dup3\n        /* \"#utility.yul\":1199:1206   */\n      dup5\n        /* \"#utility.yul\":1195:1218   */\n      sub\n        /* \"#utility.yul\":1191:1223   */\n      slt\n        /* \"#utility.yul\":1188:1307   */\n      iszero\n      tag_238\n      jumpi\n        /* \"#utility.yul\":1226:1305   */\n      tag_239\n      tag_230\n      jump\t// in\n    tag_239:\n        /* \"#utility.yul\":1188:1307   */\n    tag_238:\n        /* \"#utility.yul\":1346:1347   */\n      0x00\n        /* \"#utility.yul\":1371:1424   */\n      tag_240\n        /* \"#utility.yul\":1416:1423   */\n      dup5\n        /* \"#utility.yul\":1407:1413   */\n      dup3\n        /* \"#utility.yul\":1396:1405   */\n      dup6\n        /* \"#utility.yul\":1392:1414   */\n      add\n        /* \"#utility.yul\":1371:1424   */\n      tag_223\n      jump\t// in\n    tag_240:\n        /* \"#utility.yul\":1361:1424   */\n      swap2\n      pop\n        /* \"#utility.yul\":1317:1434   */\n      pop\n        /* \"#utility.yul\":1112:1441   */\n      swap3\n      swap2\n      pop\n      pop\n      jump\t// out\n        /* \"#utility.yul\":1447:1921   */\n    tag_30:\n        /* \"#utility.yul\":1515:1521   */\n      0x00\n        /* \"#utility.yul\":1523:1529   */\n      dup1\n        /* \"#utility.yul\":1572:1574   */\n      0x40\n        /* \"#utility.yul\":1560:1569   */\n      dup4\n        /* \"#utility.yul\":1551:1558   */\n      dup6\n        /* \"#utility.yul\":1547:1570   */\n      sub\n        /* \"#utility.yul\":1543:1575   */\n      slt\n        /* \"#utility.yul\":1540:1659   */\n      iszero\n      tag_242\n      jumpi\n        /* \"#utility.yul\":1578:1657   */\n      tag_243\n      tag_230\n      jump\t// in\n    tag_243:\n        /* \"#utility.yul\":1540:1659   */\n    tag_242:\n        /* \"#utility.yul\":1698:1699   */\n      0x00\n        /* \"#utility.yul\":1723:1776   */\n      tag_244\n        /* \"#utility.yul\":1768:1775   */\n      dup6\n        /* \"#utility.yul\":1759:1765   */\n      dup3\n        /* \"#utility.yul\":1748:1757   */\n      dup7\n        /* \"#utility.yul\":1744:1766   */\n      add\n        /* \"#utility.yul\":1723:1776   */\n      tag_223\n      jump\t// in\n    tag_244:\n        /* \"#utility.yul\":1713:1776   */\n      swap3\n      pop\n        /* \"#utility.yul\":1669:1786   */\n      pop\n        /* \"#utility.yul\":1825:1827   */\n      0x20\n        /* \"#utility.yul\":1851:1904   */\n      tag_245\n        /* \"#utility.yul\":1896:1903   */\n      dup6\n        /* \"#utility.yul\":1887:1893   */\n      dup3\n        /* \"#utility.yul\":1876:1885   */\n      dup7\n        /* \"#utility.yul\":1872:1894   */\n      add\n        /* \"#utility.yul\":1851:1904   */\n      tag_223\n      jump\t// in\n    tag_245:\n        /* \"#utility.yul\":1841:1904   */\n      swap2\n      pop\n        /* \"#utility.yul\":1796:1914   */\n      pop\n        /* \"#utility.yul\":1447:1921   */\n      swap3\n      pop\n      swap3\n      swap1\n      pop\n      jump\t// out\n        /* \"#utility.yul\":1927:2183   */\n    tag_246:\n        /* \"#utility.yul\":2046:2056   */\n      0x00\n        /* \"#utility.yul\":2081:2177   */\n      tag_248\n        /* \"#utility.yul\":2173:2176   */\n      dup4\n        /* \"#utility.yul\":2165:2171   */\n      dup4\n        /* \"#utility.yul\":2081:2177   */\n      tag_249\n      jump\t// in\n    tag_248:\n        /* \"#utility.yul\":2067:2177   */\n      swap1\n      pop\n        /* \"#utility.yul\":1927:2183   */\n      swap3\n      swap2\n      pop\n      pop\n      jump\t// out\n        /* \"#utility.yul\":2189:2368   */\n    tag_250:\n        /* \"#utility.yul\":2258:2268   */\n      0x00\n        /* \"#utility.yul\":2279:2325   */\n      tag_252\n        /* \"#utility.yul\":2321:2324   */\n      dup4\n        /* \"#utility.yul\":2313:2319   */\n      dup4\n        /* \"#utility.yul\":2279:2325   */\n      tag_253\n      jump\t// in\n    tag_252:\n        /* \"#utility.yul\":2357:2361   */\n      0x20\n        /* \"#utility.yul\":2352:2355   */\n      dup4\n        /* \"#utility.yul\":2348:2362   */\n      add\n        /* \"#utility.yul\":2334:2362   */\n      swap1\n      pop\n        /* \"#utility.yul\":2189:2368   */\n      swap3\n      swap2\n      pop\n      pop\n      jump\t// out\n        /* \"#utility.yul\":2374:2492   */\n    tag_254:\n        /* \"#utility.yul\":2461:2485   */\n      tag_256\n        /* \"#utility.yul\":2479:2484   */\n      dup2\n        /* \"#utility.yul\":2461:2485   */\n      tag_257\n      jump\t// in\n    tag_256:\n        /* \"#utility.yul\":2456:2459   */\n      dup3\n        /* \"#utility.yul\":2449:2486   */\n      mstore\n        /* \"#utility.yul\":2374:2492   */\n      pop\n      pop\n      jump\t// out\n        /* \"#utility.yul\":2532:3643   */\n    tag_258:\n        /* \"#utility.yul\":2701:2704   */\n      0x00\n        /* \"#utility.yul\":2730:2809   */\n      tag_260\n        /* \"#utility.yul\":2803:2808   */\n      dup3\n        /* \"#utility.yul\":2730:2809   */\n      tag_261\n      jump\t// in\n    tag_260:\n        /* \"#utility.yul\":2825:2936   */\n      tag_262\n        /* \"#utility.yul\":2929:2935   */\n      dup2\n        /* \"#utility.yul\":2924:2927   */\n      dup6\n        /* \"#utility.yul\":2825:2936   */\n      tag_263\n      jump\t// in\n    tag_262:\n        /* \"#utility.yul\":2818:2936   */\n      swap4\n      pop\n        /* \"#utility.yul\":2962:2965   */\n      dup4\n        /* \"#utility.yul\":3007:3011   */\n      0x20\n        /* \"#utility.yul\":2999:3005   */\n      dup3\n        /* \"#utility.yul\":2995:3012   */\n      mul\n        /* \"#utility.yul\":2990:2993   */\n      dup6\n        /* \"#utility.yul\":2986:3013   */\n      add\n        /* \"#utility.yul\":3037:3118   */\n      tag_264\n        /* \"#utility.yul\":3112:3117   */\n      dup6\n        /* \"#utility.yul\":3037:3118   */\n      tag_265\n      jump\t// in\n    tag_264:\n        /* \"#utility.yul\":3141:3148   */\n      dup1\n        /* \"#utility.yul\":3172:3173   */\n      0x00\n        /* \"#utility.yul\":3157:3598   */\n    tag_266:\n        /* \"#utility.yul\":3182:3188   */\n      dup6\n        /* \"#utility.yul\":3179:3180   */\n      dup2\n        /* \"#utility.yul\":3176:3189   */\n      lt\n        /* \"#utility.yul\":3157:3598   */\n      iszero\n      tag_268\n      jumpi\n        /* \"#utility.yul\":3253:3262   */\n      dup5\n        /* \"#utility.yul\":3247:3251   */\n      dup5\n        /* \"#utility.yul\":3243:3263   */\n      sub\n        /* \"#utility.yul\":3238:3241   */\n      dup10\n        /* \"#utility.yul\":3231:3264   */\n      mstore\n        /* \"#utility.yul\":3304:3310   */\n      dup2\n        /* \"#utility.yul\":3298:3311   */\n      mload\n        /* \"#utility.yul\":3332:3446   */\n      tag_269\n        /* \"#utility.yul\":3441:3445   */\n      dup6\n        /* \"#utility.yul\":3426:3439   */\n      dup3\n        /* \"#utility.yul\":3332:3446   */\n      tag_246\n      jump\t// in\n    tag_269:\n        /* \"#utility.yul\":3324:3446   */\n      swap5\n      pop\n        /* \"#utility.yul\":3469:3554   */\n      tag_270\n        /* \"#utility.yul\":3547:3553   */\n      dup4\n        /* \"#utility.yul\":3469:3554   */\n      tag_271\n      jump\t// in\n    tag_270:\n        /* \"#utility.yul\":3459:3554   */\n      swap3\n      pop\n        /* \"#utility.yul\":3583:3587   */\n      0x20\n        /* \"#utility.yul\":3578:3581   */\n      dup11\n        /* \"#utility.yul\":3574:3588   */\n      add\n        /* \"#utility.yul\":3567:3588   */\n      swap10\n      pop\n        /* \"#utility.yul\":3217:3598   */\n      pop\n        /* \"#utility.yul\":3204:3205   */\n      0x01\n        /* \"#utility.yul\":3201:3202   */\n      dup2\n        /* \"#utility.yul\":3197:3206   */\n      add\n        /* \"#utility.yul\":3192:3206   */\n      swap1\n      pop\n        /* \"#utility.yul\":3157:3598   */\n      jump(tag_266)\n    tag_268:\n        /* \"#utility.yul\":3161:3175   */\n      pop\n        /* \"#utility.yul\":3614:3618   */\n      dup3\n        /* \"#utility.yul\":3607:3618   */\n      swap8\n      pop\n        /* \"#utility.yul\":3634:3637   */\n      dup8\n        /* \"#utility.yul\":3627:3637   */\n      swap6\n      pop\n        /* \"#utility.yul\":2706:3643   */\n      pop\n      pop\n      pop\n      pop\n      pop\n        /* \"#utility.yul\":2532:3643   */\n      swap3\n      swap2\n      pop\n      pop\n      jump\t// out\n        /* \"#utility.yul\":3679:4391   */\n    tag_249:\n        /* \"#utility.yul\":3788:3791   */\n      0x00\n        /* \"#utility.yul\":3817:3871   */\n      tag_273\n        /* \"#utility.yul\":3865:3870   */\n      dup3\n        /* \"#utility.yul\":3817:3871   */\n      tag_274\n      jump\t// in\n    tag_273:\n        /* \"#utility.yul\":3887:3963   */\n      tag_275\n        /* \"#utility.yul\":3956:3962   */\n      dup2\n        /* \"#utility.yul\":3951:3954   */\n      dup6\n        /* \"#utility.yul\":3887:3963   */\n      tag_276\n      jump\t// in\n    tag_275:\n        /* \"#utility.yul\":3880:3963   */\n      swap4\n      pop\n        /* \"#utility.yul\":3987:4043   */\n      tag_277\n        /* \"#utility.yul\":4037:4042   */\n      dup4\n        /* \"#utility.yul\":3987:4043   */\n      tag_278\n      jump\t// in\n    tag_277:\n        /* \"#utility.yul\":4066:4073   */\n      dup1\n        /* \"#utility.yul\":4097:4098   */\n      0x00\n        /* \"#utility.yul\":4082:4366   */\n    tag_279:\n        /* \"#utility.yul\":4107:4113   */\n      dup4\n        /* \"#utility.yul\":4104:4105   */\n      dup2\n        /* \"#utility.yul\":4101:4114   */\n      lt\n        /* \"#utility.yul\":4082:4366   */\n      iszero\n      tag_281\n      jumpi\n        /* \"#utility.yul\":4183:4189   */\n      dup2\n        /* \"#utility.yul\":4177:4190   */\n      mload\n        /* \"#utility.yul\":4210:4273   */\n      tag_282\n        /* \"#utility.yul\":4269:4272   */\n      dup9\n        /* \"#utility.yul\":4254:4267   */\n      dup3\n        /* \"#utility.yul\":4210:4273   */\n      tag_250\n      jump\t// in\n    tag_282:\n        /* \"#utility.yul\":4203:4273   */\n      swap8\n      pop\n        /* \"#utility.yul\":4296:4356   */\n      tag_283\n        /* \"#utility.yul\":4349:4355   */\n      dup4\n        /* \"#utility.yul\":4296:4356   */\n      tag_284\n      jump\t// in\n    tag_283:\n        /* \"#utility.yul\":4286:4356   */\n      swap3\n      pop\n        /* \"#utility.yul\":4142:4366   */\n      pop\n        /* \"#utility.yul\":4129:4130   */\n      0x01\n        /* \"#utility.yul\":4126:4127   */\n      dup2\n        /* \"#utility.yul\":4122:4131   */\n      add\n        /* \"#utility.yul\":4117:4131   */\n      swap1\n      pop\n        /* \"#utility.yul\":4082:4366   */\n      jump(tag_279)\n    tag_281:\n        /* \"#utility.yul\":4086:4100   */\n      pop\n        /* \"#utility.yul\":4382:4385   */\n      dup6\n        /* \"#utility.yul\":4375:4385   */\n      swap4\n      pop\n        /* \"#utility.yul\":3793:4391   */\n      pop\n      pop\n      pop\n        /* \"#utility.yul\":3679:4391   */\n      swap3\n      swap2\n      pop\n      pop\n      jump\t// out\n        /* \"#utility.yul\":4397:4506   */\n    tag_285:\n        /* \"#utility.yul\":4478:4499   */\n      tag_287\n        /* \"#utility.yul\":4493:4498   */\n      dup2\n        /* \"#utility.yul\":4478:4499   */\n      tag_288\n      jump\t// in\n    tag_287:\n        /* \"#utility.yul\":4473:4476   */\n      dup3\n        /* \"#utility.yul\":4466:4500   */\n      mstore\n        /* \"#utility.yul\":4397:4506   */\n      pop\n      pop\n      jump\t// out\n        /* \"#utility.yul\":4512:4655   */\n    tag_289:\n        /* \"#utility.yul\":4605:4648   */\n      tag_291\n        /* \"#utility.yul\":4642:4647   */\n      dup2\n        /* \"#utility.yul\":4605:4648   */\n      tag_292\n      jump\t// in\n    tag_291:\n        /* \"#utility.yul\":4600:4603   */\n      dup3\n        /* \"#utility.yul\":4593:4649   */\n      mstore\n        /* \"#utility.yul\":4512:4655   */\n      pop\n      pop\n      jump\t// out\n        /* \"#utility.yul\":4661:5025   */\n    tag_293:\n        /* \"#utility.yul\":4749:4752   */\n      0x00\n        /* \"#utility.yul\":4777:4816   */\n      tag_295\n        /* \"#utility.yul\":4810:4815   */\n      dup3\n        /* \"#utility.yul\":4777:4816   */\n      tag_296\n      jump\t// in\n    tag_295:\n        /* \"#utility.yul\":4832:4903   */\n      tag_297\n        /* \"#utility.yul\":4896:4902   */\n      dup2\n        /* \"#utility.yul\":4891:4894   */\n      dup6\n        /* \"#utility.yul\":4832:4903   */\n      tag_298\n      jump\t// in\n    tag_297:\n        /* \"#utility.yul\":4825:4903   */\n      swap4\n      pop\n        /* \"#utility.yul\":4912:4964   */\n      tag_299\n        /* \"#utility.yul\":4957:4963   */\n      dup2\n        /* \"#utility.yul\":4952:4955   */\n      dup6\n        /* \"#utility.yul\":4945:4949   */\n      0x20\n        /* \"#utility.yul\":4938:4943   */\n      dup7\n        /* \"#utility.yul\":4934:4950   */\n      add\n        /* \"#utility.yul\":4912:4964   */\n      tag_300\n      jump\t// in\n    tag_299:\n        /* \"#utility.yul\":4989:5018   */\n      tag_301\n        /* \"#utility.yul\":5011:5017   */\n      dup2\n        /* \"#utility.yul\":4989:5018   */\n      tag_302\n      jump\t// in\n    tag_301:\n        /* \"#utility.yul\":4984:4987   */\n      dup5\n        /* \"#utility.yul\":4980:5019   */\n      add\n        /* \"#utility.yul\":4973:5019   */\n      swap2\n      pop\n        /* \"#utility.yul\":4753:5025   */\n      pop\n        /* \"#utility.yul\":4661:5025   */\n      swap3\n      swap2\n      pop\n      pop\n      jump\t// out\n        /* \"#utility.yul\":5031:5397   */\n    tag_303:\n        /* \"#utility.yul\":5173:5176   */\n      0x00\n        /* \"#utility.yul\":5194:5261   */\n      tag_305\n        /* \"#utility.yul\":5258:5260   */\n      0x2a\n        /* \"#utility.yul\":5253:5256   */\n      dup4\n        /* \"#utility.yul\":5194:5261   */\n      tag_298\n      jump\t// in\n    tag_305:\n        /* \"#utility.yul\":5187:5261   */\n      swap2\n      pop\n        /* \"#utility.yul\":5270:5363   */\n      tag_306\n        /* \"#utility.yul\":5359:5362   */\n      dup3\n        /* \"#utility.yul\":5270:5363   */\n      tag_307\n      jump\t// in\n    tag_306:\n        /* \"#utility.yul\":5388:5390   */\n      0x40\n        /* \"#utility.yul\":5383:5386   */\n      dup3\n        /* \"#utility.yul\":5379:5391   */\n      add\n        /* \"#utility.yul\":5372:5391   */\n      swap1\n      pop\n        /* \"#utility.yul\":5031:5397   */\n      swap2\n      swap1\n      pop\n      jump\t// out\n        /* \"#utility.yul\":5403:5769   */\n    tag_308:\n        /* \"#utility.yul\":5545:5548   */\n      0x00\n        /* \"#utility.yul\":5566:5633   */\n      tag_310\n        /* \"#utility.yul\":5630:5632   */\n      0x1c\n        /* \"#utility.yul\":5625:5628   */\n      dup4\n        /* \"#utility.yul\":5566:5633   */\n      tag_298\n      jump\t// in\n    tag_310:\n        /* \"#utility.yul\":5559:5633   */\n      swap2\n      pop\n        /* \"#utility.yul\":5642:5735   */\n      tag_311\n        /* \"#utility.yul\":5731:5734   */\n      dup3\n        /* \"#utility.yul\":5642:5735   */\n      tag_312\n      jump\t// in\n    tag_311:\n        /* \"#utility.yul\":5760:5762   */\n      0x20\n        /* \"#utility.yul\":5755:5758   */\n      dup3\n        /* \"#utility.yul\":5751:5763   */\n      add\n        /* \"#utility.yul\":5744:5763   */\n      swap1\n      pop\n        /* \"#utility.yul\":5403:5769   */\n      swap2\n      swap1\n      pop\n      jump\t// out\n        /* \"#utility.yul\":5775:5883   */\n    tag_253:\n        /* \"#utility.yul\":5852:5876   */\n      tag_314\n        /* \"#utility.yul\":5870:5875   */\n      dup2\n        /* \"#utility.yul\":5852:5876   */\n      tag_315\n      jump\t// in\n    tag_314:\n        /* \"#utility.yul\":5847:5850   */\n      dup3\n        /* \"#utility.yul\":5840:5877   */\n      mstore\n        /* \"#utility.yul\":5775:5883   */\n      pop\n      pop\n      jump\t// out\n        /* \"#utility.yul\":5889:6007   */\n    tag_316:\n        /* \"#utility.yul\":5976:6000   */\n      tag_318\n        /* \"#utility.yul\":5994:5999   */\n      dup2\n        /* \"#utility.yul\":5976:6000   */\n      tag_315\n      jump\t// in\n    tag_318:\n        /* \"#utility.yul\":5971:5974   */\n      dup3\n        /* \"#utility.yul\":5964:6001   */\n      mstore\n        /* \"#utility.yul\":5889:6007   */\n      pop\n      pop\n      jump\t// out\n        /* \"#utility.yul\":6013:6235   */\n    tag_58:\n        /* \"#utility.yul\":6106:6110   */\n      0x00\n        /* \"#utility.yul\":6144:6146   */\n      0x20\n        /* \"#utility.yul\":6133:6142   */\n      dup3\n        /* \"#utility.yul\":6129:6147   */\n      add\n        /* \"#utility.yul\":6121:6147   */\n      swap1\n      pop\n        /* \"#utility.yul\":6157:6228   */\n      tag_320\n        /* \"#utility.yul\":6225:6226   */\n      0x00\n        /* \"#utility.yul\":6214:6223   */\n      dup4\n        /* \"#utility.yul\":6210:6227   */\n      add\n        /* \"#utility.yul\":6201:6207   */\n      dup5\n        /* \"#utility.yul\":6157:6228   */\n      tag_254\n      jump\t// in\n    tag_320:\n        /* \"#utility.yul\":6013:6235   */\n      swap3\n      swap2\n      pop\n      pop\n      jump\t// out\n        /* \"#utility.yul\":6241:6714   */\n    tag_46:\n        /* \"#utility.yul\":6434:6438   */\n      0x00\n        /* \"#utility.yul\":6472:6474   */\n      0x20\n        /* \"#utility.yul\":6461:6470   */\n      dup3\n        /* \"#utility.yul\":6457:6475   */\n      add\n        /* \"#utility.yul\":6449:6475   */\n      swap1\n      pop\n        /* \"#utility.yul\":6521:6530   */\n      dup2\n        /* \"#utility.yul\":6515:6519   */\n      dup2\n        /* \"#utility.yul\":6511:6531   */\n      sub\n        /* \"#utility.yul\":6507:6508   */\n      0x00\n        /* \"#utility.yul\":6496:6505   */\n      dup4\n        /* \"#utility.yul\":6492:6509   */\n      add\n        /* \"#utility.yul\":6485:6532   */\n      mstore\n        /* \"#utility.yul\":6549:6707   */\n      tag_322\n        /* \"#utility.yul\":6702:6706   */\n      dup2\n        /* \"#utility.yul\":6693:6699   */\n      dup5\n        /* \"#utility.yul\":6549:6707   */\n      tag_258\n      jump\t// in\n    tag_322:\n        /* \"#utility.yul\":6541:6707   */\n      swap1\n      pop\n        /* \"#utility.yul\":6241:6714   */\n      swap3\n      swap2\n      pop\n      pop\n      jump\t// out\n        /* \"#utility.yul\":6720:6930   */\n    tag_33:\n        /* \"#utility.yul\":6807:6811   */\n      0x00\n        /* \"#utility.yul\":6845:6847   */\n      0x20\n        /* \"#utility.yul\":6834:6843   */\n      dup3\n        /* \"#utility.yul\":6830:6848   */\n      add\n        /* \"#utility.yul\":6822:6848   */\n      swap1\n      pop\n        /* \"#utility.yul\":6858:6923   */\n      tag_324\n        /* \"#utility.yul\":6920:6921   */\n      0x00\n        /* \"#utility.yul\":6909:6918   */\n      dup4\n        /* \"#utility.yul\":6905:6922   */\n      add\n        /* \"#utility.yul\":6896:6902   */\n      dup5\n        /* \"#utility.yul\":6858:6923   */\n      tag_285\n      jump\t// in\n    tag_324:\n        /* \"#utility.yul\":6720:6930   */\n      swap3\n      swap2\n      pop\n      pop\n      jump\t// out\n        /* \"#utility.yul\":6936:7576   */\n    tag_52:\n        /* \"#utility.yul\":7129:7133   */\n      0x00\n        /* \"#utility.yul\":7167:7170   */\n      0xa0\n        /* \"#utility.yul\":7156:7165   */\n      dup3\n        /* \"#utility.yul\":7152:7171   */\n      add\n        /* \"#utility.yul\":7144:7171   */\n      swap1\n      pop\n        /* \"#utility.yul\":7181:7246   */\n      tag_326\n        /* \"#utility.yul\":7243:7244   */\n      0x00\n        /* \"#utility.yul\":7232:7241   */\n      dup4\n        /* \"#utility.yul\":7228:7245   */\n      add\n        /* \"#utility.yul\":7219:7225   */\n      dup9\n        /* \"#utility.yul\":7181:7246   */\n      tag_285\n      jump\t// in\n    tag_326:\n        /* \"#utility.yul\":7256:7322   */\n      tag_327\n        /* \"#utility.yul\":7318:7320   */\n      0x20\n        /* \"#utility.yul\":7307:7316   */\n      dup4\n        /* \"#utility.yul\":7303:7321   */\n      add\n        /* \"#utility.yul\":7294:7300   */\n      dup8\n        /* \"#utility.yul\":7256:7322   */\n      tag_285\n      jump\t// in\n    tag_327:\n        /* \"#utility.yul\":7332:7404   */\n      tag_328\n        /* \"#utility.yul\":7400:7402   */\n      0x40\n        /* \"#utility.yul\":7389:7398   */\n      dup4\n        /* \"#utility.yul\":7385:7403   */\n      add\n        /* \"#utility.yul\":7376:7382   */\n      dup7\n        /* \"#utility.yul\":7332:7404   */\n      tag_316\n      jump\t// in\n    tag_328:\n        /* \"#utility.yul\":7414:7486   */\n      tag_329\n        /* \"#utility.yul\":7482:7484   */\n      0x60\n        /* \"#utility.yul\":7471:7480   */\n      dup4\n        /* \"#utility.yul\":7467:7485   */\n      add\n        /* \"#utility.yul\":7458:7464   */\n      dup6\n        /* \"#utility.yul\":7414:7486   */\n      tag_316\n      jump\t// in\n    tag_329:\n        /* \"#utility.yul\":7496:7569   */\n      tag_330\n        /* \"#utility.yul\":7564:7567   */\n      0x80\n        /* \"#utility.yul\":7553:7562   */\n      dup4\n        /* \"#utility.yul\":7549:7568   */\n      add\n        /* \"#utility.yul\":7540:7546   */\n      dup5\n        /* \"#utility.yul\":7496:7569   */\n      tag_316\n      jump\t// in\n    tag_330:\n        /* \"#utility.yul\":6936:7576   */\n      swap7\n      swap6\n      pop\n      pop\n      pop\n      pop\n      pop\n      pop\n      jump\t// out\n        /* \"#utility.yul\":7582:8012   */\n    tag_116:\n        /* \"#utility.yul\":7725:7729   */\n      0x00\n        /* \"#utility.yul\":7763:7765   */\n      0x60\n        /* \"#utility.yul\":7752:7761   */\n      dup3\n        /* \"#utility.yul\":7748:7766   */\n      add\n        /* \"#utility.yul\":7740:7766   */\n      swap1\n      pop\n        /* \"#utility.yul\":7776:7841   */\n      tag_332\n        /* \"#utility.yul\":7838:7839   */\n      0x00\n        /* \"#utility.yul\":7827:7836   */\n      dup4\n        /* \"#utility.yul\":7823:7840   */\n      add\n        /* \"#utility.yul\":7814:7820   */\n      dup7\n        /* \"#utility.yul\":7776:7841   */\n      tag_285\n      jump\t// in\n    tag_332:\n        /* \"#utility.yul\":7851:7923   */\n      tag_333\n        /* \"#utility.yul\":7919:7921   */\n      0x20\n        /* \"#utility.yul\":7908:7917   */\n      dup4\n        /* \"#utility.yul\":7904:7922   */\n      add\n        /* \"#utility.yul\":7895:7901   */\n      dup6\n        /* \"#utility.yul\":7851:7923   */\n      tag_316\n      jump\t// in\n    tag_333:\n        /* \"#utility.yul\":7933:8005   */\n      tag_334\n        /* \"#utility.yul\":8001:8003   */\n      0x40\n        /* \"#utility.yul\":7990:7999   */\n      dup4\n        /* \"#utility.yul\":7986:8004   */\n      add\n        /* \"#utility.yul\":7977:7983   */\n      dup5\n        /* \"#utility.yul\":7933:8005   */\n      tag_316\n      jump\t// in\n    tag_334:\n        /* \"#utility.yul\":7582:8012   */\n      swap5\n      swap4\n      pop\n      pop\n      pop\n      pop\n      jump\t// out\n        /* \"#utility.yul\":8018:8252   */\n    tag_80:\n        /* \"#utility.yul\":8117:8121   */\n      0x00\n        /* \"#utility.yul\":8155:8157   */\n      0x20\n        /* \"#utility.yul\":8144:8153   */\n      dup3\n        /* \"#utility.yul\":8140:8158   */\n      add\n        /* \"#utility.yul\":8132:8158   */\n      swap1\n      pop\n        /* \"#utility.yul\":8168:8245   */\n      tag_336\n        /* \"#utility.yul\":8242:8243   */\n      0x00\n        /* \"#utility.yul\":8231:8240   */\n      dup4\n        /* \"#utility.yul\":8227:8244   */\n      add\n        /* \"#utility.yul\":8218:8224   */\n      dup5\n        /* \"#utility.yul\":8168:8245   */\n      tag_289\n      jump\t// in\n    tag_336:\n        /* \"#utility.yul\":8018:8252   */\n      swap3\n      swap2\n      pop\n      pop\n      jump\t// out\n        /* \"#utility.yul\":8258:8677   */\n    tag_196:\n        /* \"#utility.yul\":8424:8428   */\n      0x00\n        /* \"#utility.yul\":8462:8464   */\n      0x20\n        /* \"#utility.yul\":8451:8460   */\n      dup3\n        /* \"#utility.yul\":8447:8465   */\n      add\n        /* \"#utility.yul\":8439:8465   */\n      swap1\n      pop\n        /* \"#utility.yul\":8511:8520   */\n      dup2\n        /* \"#utility.yul\":8505:8509   */\n      dup2\n        /* \"#utility.yul\":8501:8521   */\n      sub\n        /* \"#utility.yul\":8497:8498   */\n      0x00\n        /* \"#utility.yul\":8486:8495   */\n      dup4\n        /* \"#utility.yul\":8482:8499   */\n      add\n        /* \"#utility.yul\":8475:8522   */\n      mstore\n        /* \"#utility.yul\":8539:8670   */\n      tag_338\n        /* \"#utility.yul\":8665:8669   */\n      dup2\n        /* \"#utility.yul\":8539:8670   */\n      tag_303\n      jump\t// in\n    tag_338:\n        /* \"#utility.yul\":8531:8670   */\n      swap1\n      pop\n        /* \"#utility.yul\":8258:8677   */\n      swap2\n      swap1\n      pop\n      jump\t// out\n        /* \"#utility.yul\":8683:9102   */\n    tag_192:\n        /* \"#utility.yul\":8849:8853   */\n      0x00\n        /* \"#utility.yul\":8887:8889   */\n      0x20\n        /* \"#utility.yul\":8876:8885   */\n      dup3\n        /* \"#utility.yul\":8872:8890   */\n      add\n        /* \"#utility.yul\":8864:8890   */\n      swap1\n      pop\n        /* \"#utility.yul\":8936:8945   */\n      dup2\n        /* \"#utility.yul\":8930:8934   */\n      dup2\n        /* \"#utility.yul\":8926:8946   */\n      sub\n        /* \"#utility.yul\":8922:8923   */\n      0x00\n        /* \"#utility.yul\":8911:8920   */\n      dup4\n        /* \"#utility.yul\":8907:8924   */\n      add\n        /* \"#utility.yul\":8900:8947   */\n      mstore\n        /* \"#utility.yul\":8964:9095   */\n      tag_340\n        /* \"#utility.yul\":9090:9094   */\n      dup2\n        /* \"#utility.yul\":8964:9095   */\n      tag_308\n      jump\t// in\n    tag_340:\n        /* \"#utility.yul\":8956:9095   */\n      swap1\n      pop\n        /* \"#utility.yul\":8683:9102   */\n      swap2\n      swap1\n      pop\n      jump\t// out\n        /* \"#utility.yul\":9108:9330   */\n    tag_27:\n        /* \"#utility.yul\":9201:9205   */\n      0x00\n        /* \"#utility.yul\":9239:9241   */\n      0x20\n        /* \"#utility.yul\":9228:9237   */\n      dup3\n        /* \"#utility.yul\":9224:9242   */\n      add\n        /* \"#utility.yul\":9216:9242   */\n      swap1\n      pop\n        /* \"#utility.yul\":9252:9323   */\n      tag_342\n        /* \"#utility.yul\":9320:9321   */\n      0x00\n        /* \"#utility.yul\":9309:9318   */\n      dup4\n        /* \"#utility.yul\":9305:9322   */\n      add\n        /* \"#utility.yul\":9296:9302   */\n      dup5\n        /* \"#utility.yul\":9252:9323   */\n      tag_316\n      jump\t// in\n    tag_342:\n        /* \"#utility.yul\":9108:9330   */\n      swap3\n      swap2\n      pop\n      pop\n      jump\t// out\n        /* \"#utility.yul\":9336:9869   */\n    tag_42:\n        /* \"#utility.yul\":9505:9509   */\n      0x00\n        /* \"#utility.yul\":9543:9545   */\n      0x60\n        /* \"#utility.yul\":9532:9541   */\n      dup3\n        /* \"#utility.yul\":9528:9546   */\n      add\n        /* \"#utility.yul\":9520:9546   */\n      swap1\n      pop\n        /* \"#utility.yul\":9556:9627   */\n      tag_344\n        /* \"#utility.yul\":9624:9625   */\n      0x00\n        /* \"#utility.yul\":9613:9622   */\n      dup4\n        /* \"#utility.yul\":9609:9626   */\n      add\n        /* \"#utility.yul\":9600:9606   */\n      dup7\n        /* \"#utility.yul\":9556:9627   */\n      tag_316\n      jump\t// in\n    tag_344:\n        /* \"#utility.yul\":9674:9683   */\n      dup2\n        /* \"#utility.yul\":9668:9672   */\n      dup2\n        /* \"#utility.yul\":9664:9684   */\n      sub\n        /* \"#utility.yul\":9659:9661   */\n      0x20\n        /* \"#utility.yul\":9648:9657   */\n      dup4\n        /* \"#utility.yul\":9644:9662   */\n      add\n        /* \"#utility.yul\":9637:9685   */\n      mstore\n        /* \"#utility.yul\":9702:9780   */\n      tag_345\n        /* \"#utility.yul\":9775:9779   */\n      dup2\n        /* \"#utility.yul\":9766:9772   */\n      dup6\n        /* \"#utility.yul\":9702:9780   */\n      tag_293\n      jump\t// in\n    tag_345:\n        /* \"#utility.yul\":9694:9780   */\n      swap1\n      pop\n        /* \"#utility.yul\":9790:9862   */\n      tag_346\n        /* \"#utility.yul\":9858:9860   */\n      0x40\n        /* \"#utility.yul\":9847:9856   */\n      dup4\n        /* \"#utility.yul\":9843:9861   */\n      add\n        /* \"#utility.yul\":9834:9840   */\n      dup5\n        /* \"#utility.yul\":9790:9862   */\n      tag_316\n      jump\t// in\n    tag_346:\n        /* \"#utility.yul\":9336:9869   */\n      swap5\n      swap4\n      pop\n      pop\n      pop\n      pop\n      jump\t// out\n        /* \"#utility.yul\":9875:10519   */\n    tag_95:\n        /* \"#utility.yul\":10072:10076   */\n      0x00\n        /* \"#utility.yul\":10110:10113   */\n      0x80\n        /* \"#utility.yul\":10099:10108   */\n      dup3\n        /* \"#utility.yul\":10095:10114   */\n      add\n        /* \"#utility.yul\":10087:10114   */\n      swap1\n      pop\n        /* \"#utility.yul\":10124:10195   */\n      tag_348\n        /* \"#utility.yul\":10192:10193   */\n      0x00\n        /* \"#utility.yul\":10181:10190   */\n      dup4\n        /* \"#utility.yul\":10177:10194   */\n      add\n        /* \"#utility.yul\":10168:10174   */\n      dup8\n        /* \"#utility.yul\":10124:10195   */\n      tag_316\n      jump\t// in\n    tag_348:\n        /* \"#utility.yul\":10242:10251   */\n      dup2\n        /* \"#utility.yul\":10236:10240   */\n      dup2\n        /* \"#utility.yul\":10232:10252   */\n      sub\n        /* \"#utility.yul\":10227:10229   */\n      0x20\n        /* \"#utility.yul\":10216:10225   */\n      dup4\n        /* \"#utility.yul\":10212:10230   */\n      add\n        /* \"#utility.yul\":10205:10253   */\n      mstore\n        /* \"#utility.yul\":10270:10348   */\n      tag_349\n        /* \"#utility.yul\":10343:10347   */\n      dup2\n        /* \"#utility.yul\":10334:10340   */\n      dup7\n        /* \"#utility.yul\":10270:10348   */\n      tag_293\n      jump\t// in\n    tag_349:\n        /* \"#utility.yul\":10262:10348   */\n      swap1\n      pop\n        /* \"#utility.yul\":10358:10430   */\n      tag_350\n        /* \"#utility.yul\":10426:10428   */\n      0x40\n        /* \"#utility.yul\":10415:10424   */\n      dup4\n        /* \"#utility.yul\":10411:10429   */\n      add\n        /* \"#utility.yul\":10402:10408   */\n      dup6\n        /* \"#utility.yul\":10358:10430   */\n      tag_316\n      jump\t// in\n    tag_350:\n        /* \"#utility.yul\":10440:10512   */\n      tag_351\n        /* \"#utility.yul\":10508:10510   */\n      0x60\n        /* \"#utility.yul\":10497:10506   */\n      dup4\n        /* \"#utility.yul\":10493:10511   */\n      add\n        /* \"#utility.yul\":10484:10490   */\n      dup5\n        /* \"#utility.yul\":10440:10512   */\n      tag_316\n      jump\t// in\n    tag_351:\n        /* \"#utility.yul\":9875:10519   */\n      swap6\n      swap5\n      pop\n      pop\n      pop\n      pop\n      pop\n      jump\t// out\n        /* \"#utility.yul\":10606:10763   */\n    tag_265:\n        /* \"#utility.yul\":10698:10702   */\n      0x00\n        /* \"#utility.yul\":10721:10724   */\n      dup2\n        /* \"#utility.yul\":10713:10724   */\n      swap1\n      pop\n        /* \"#utility.yul\":10751:10755   */\n      0x20\n        /* \"#utility.yul\":10746:10749   */\n      dup3\n        /* \"#utility.yul\":10742:10756   */\n      add\n        /* \"#utility.yul\":10734:10756   */\n      swap1\n      pop\n        /* \"#utility.yul\":10606:10763   */\n      swap2\n      swap1\n      pop\n      jump\t// out\n        /* \"#utility.yul\":10769:10901   */\n    tag_278:\n        /* \"#utility.yul\":10836:10840   */\n      0x00\n        /* \"#utility.yul\":10859:10862   */\n      dup2\n        /* \"#utility.yul\":10851:10862   */\n      swap1\n      pop\n        /* \"#utility.yul\":10889:10893   */\n      0x20\n        /* \"#utility.yul\":10884:10887   */\n      dup3\n        /* \"#utility.yul\":10880:10894   */\n      add\n        /* \"#utility.yul\":10872:10894   */\n      swap1\n      pop\n        /* \"#utility.yul\":10769:10901   */\n      swap2\n      swap1\n      pop\n      jump\t// out\n        /* \"#utility.yul\":10907:11046   */\n    tag_261:\n        /* \"#utility.yul\":10999:11005   */\n      0x00\n        /* \"#utility.yul\":11033:11038   */\n      dup2\n        /* \"#utility.yul\":11027:11039   */\n      mload\n        /* \"#utility.yul\":11017:11039   */\n      swap1\n      pop\n        /* \"#utility.yul\":10907:11046   */\n      swap2\n      swap1\n      pop\n      jump\t// out\n        /* \"#utility.yul\":11052:11166   */\n    tag_274:\n        /* \"#utility.yul\":11119:11125   */\n      0x00\n        /* \"#utility.yul\":11153:11158   */\n      dup2\n        /* \"#utility.yul\":11147:11159   */\n      mload\n        /* \"#utility.yul\":11137:11159   */\n      swap1\n      pop\n        /* \"#utility.yul\":11052:11166   */\n      swap2\n      swap1\n      pop\n      jump\t// out\n        /* \"#utility.yul\":11172:11271   */\n    tag_296:\n        /* \"#utility.yul\":11224:11230   */\n      0x00\n        /* \"#utility.yul\":11258:11263   */\n      dup2\n        /* \"#utility.yul\":11252:11264   */\n      mload\n        /* \"#utility.yul\":11242:11264   */\n      swap1\n      pop\n        /* \"#utility.yul\":11172:11271   */\n      swap2\n      swap1\n      pop\n      jump\t// out\n        /* \"#utility.yul\":11277:11415   */\n    tag_271:\n        /* \"#utility.yul\":11372:11376   */\n      0x00\n        /* \"#utility.yul\":11404:11408   */\n      0x20\n        /* \"#utility.yul\":11399:11402   */\n      dup3\n        /* \"#utility.yul\":11395:11409   */\n      add\n        /* \"#utility.yul\":11387:11409   */\n      swap1\n      pop\n        /* \"#utility.yul\":11277:11415   */\n      swap2\n      swap1\n      pop\n      jump\t// out\n        /* \"#utility.yul\":11421:11534   */\n    tag_284:\n        /* \"#utility.yul\":11491:11495   */\n      0x00\n        /* \"#utility.yul\":11523:11527   */\n      0x20\n        /* \"#utility.yul\":11518:11521   */\n      dup3\n        /* \"#utility.yul\":11514:11528   */\n      add\n        /* \"#utility.yul\":11506:11528   */\n      swap1\n      pop\n        /* \"#utility.yul\":11421:11534   */\n      swap2\n      swap1\n      pop\n      jump\t// out\n        /* \"#utility.yul\":11540:11749   */\n    tag_263:\n        /* \"#utility.yul\":11664:11675   */\n      0x00\n        /* \"#utility.yul\":11698:11704   */\n      dup3\n        /* \"#utility.yul\":11693:11696   */\n      dup3\n        /* \"#utility.yul\":11686:11705   */\n      mstore\n        /* \"#utility.yul\":11738:11742   */\n      0x20\n        /* \"#utility.yul\":11733:11736   */\n      dup3\n        /* \"#utility.yul\":11729:11743   */\n      add\n        /* \"#utility.yul\":11714:11743   */\n      swap1\n      pop\n        /* \"#utility.yul\":11540:11749   */\n      swap3\n      swap2\n      pop\n      pop\n      jump\t// out\n        /* \"#utility.yul\":11755:11929   */\n    tag_276:\n        /* \"#utility.yul\":11844:11855   */\n      0x00\n        /* \"#utility.yul\":11878:11884   */\n      dup3\n        /* \"#utility.yul\":11873:11876   */\n      dup3\n        /* \"#utility.yul\":11866:11885   */\n      mstore\n        /* \"#utility.yul\":11918:11922   */\n      0x20\n        /* \"#utility.yul\":11913:11916   */\n      dup3\n        /* \"#utility.yul\":11909:11923   */\n      add\n        /* \"#utility.yul\":11894:11923   */\n      swap1\n      pop\n        /* \"#utility.yul\":11755:11929   */\n      swap3\n      swap2\n      pop\n      pop\n      jump\t// out\n        /* \"#utility.yul\":11935:12104   */\n    tag_298:\n        /* \"#utility.yul\":12019:12030   */\n      0x00\n        /* \"#utility.yul\":12053:12059   */\n      dup3\n        /* \"#utility.yul\":12048:12051   */\n      dup3\n        /* \"#utility.yul\":12041:12060   */\n      mstore\n        /* \"#utility.yul\":12093:12097   */\n      0x20\n        /* \"#utility.yul\":12088:12091   */\n      dup3\n        /* \"#utility.yul\":12084:12098   */\n      add\n        /* \"#utility.yul\":12069:12098   */\n      swap1\n      pop\n        /* \"#utility.yul\":11935:12104   */\n      swap3\n      swap2\n      pop\n      pop\n      jump\t// out\n        /* \"#utility.yul\":12110:12206   */\n    tag_257:\n        /* \"#utility.yul\":12147:12154   */\n      0x00\n        /* \"#utility.yul\":12176:12200   */\n      tag_365\n        /* \"#utility.yul\":12194:12199   */\n      dup3\n        /* \"#utility.yul\":12176:12200   */\n      tag_366\n      jump\t// in\n    tag_365:\n        /* \"#utility.yul\":12165:12200   */\n      swap1\n      pop\n        /* \"#utility.yul\":12110:12206   */\n      swap2\n      swap1\n      pop\n      jump\t// out\n        /* \"#utility.yul\":12212:12302   */\n    tag_288:\n        /* \"#utility.yul\":12246:12253   */\n      0x00\n        /* \"#utility.yul\":12289:12294   */\n      dup2\n        /* \"#utility.yul\":12282:12295   */\n      iszero\n        /* \"#utility.yul\":12275:12296   */\n      iszero\n        /* \"#utility.yul\":12264:12296   */\n      swap1\n      pop\n        /* \"#utility.yul\":12212:12302   */\n      swap2\n      swap1\n      pop\n      jump\t// out\n        /* \"#utility.yul\":12308:12435   */\n    tag_368:\n        /* \"#utility.yul\":12353:12360   */\n      0x00\n        /* \"#utility.yul\":12382:12387   */\n      dup2\n        /* \"#utility.yul\":12371:12387   */\n      swap1\n      pop\n        /* \"#utility.yul\":12388:12429   */\n      tag_370\n        /* \"#utility.yul\":12423:12428   */\n      dup3\n        /* \"#utility.yul\":12388:12429   */\n      tag_371\n      jump\t// in\n    tag_370:\n        /* \"#utility.yul\":12308:12435   */\n      swap2\n      swap1\n      pop\n      jump\t// out\n        /* \"#utility.yul\":12441:12567   */\n    tag_366:\n        /* \"#utility.yul\":12478:12485   */\n      0x00\n        /* \"#utility.yul\":12518:12560   */\n      0xffffffffffffffffffffffffffffffffffffffff\n        /* \"#utility.yul\":12511:12516   */\n      dup3\n        /* \"#utility.yul\":12507:12561   */\n      and\n        /* \"#utility.yul\":12496:12561   */\n      swap1\n      pop\n        /* \"#utility.yul\":12441:12567   */\n      swap2\n      swap1\n      pop\n      jump\t// out\n        /* \"#utility.yul\":12573:12650   */\n    tag_315:\n        /* \"#utility.yul\":12610:12617   */\n      0x00\n        /* \"#utility.yul\":12639:12644   */\n      dup2\n        /* \"#utility.yul\":12628:12644   */\n      swap1\n      pop\n        /* \"#utility.yul\":12573:12650   */\n      swap2\n      swap1\n      pop\n      jump\t// out\n        /* \"#utility.yul\":12656:12783   */\n    tag_292:\n        /* \"#utility.yul\":12712:12721   */\n      0x00\n        /* \"#utility.yul\":12745:12777   */\n      tag_375\n        /* \"#utility.yul\":12771:12776   */\n      dup3\n        /* \"#utility.yul\":12745:12777   */\n      tag_368\n      jump\t// in\n    tag_375:\n        /* \"#utility.yul\":12732:12777   */\n      swap1\n      pop\n        /* \"#utility.yul\":12656:12783   */\n      swap2\n      swap1\n      pop\n      jump\t// out\n        /* \"#utility.yul\":12789:13096   */\n    tag_300:\n        /* \"#utility.yul\":12857:12858   */\n      0x00\n        /* \"#utility.yul\":12867:12980   */\n    tag_377:\n        /* \"#utility.yul\":12881:12887   */\n      dup4\n        /* \"#utility.yul\":12878:12879   */\n      dup2\n        /* \"#utility.yul\":12875:12888   */\n      lt\n        /* \"#utility.yul\":12867:12980   */\n      iszero\n      tag_379\n      jumpi\n        /* \"#utility.yul\":12966:12967   */\n      dup1\n        /* \"#utility.yul\":12961:12964   */\n      dup3\n        /* \"#utility.yul\":12957:12968   */\n      add\n        /* \"#utility.yul\":12951:12969   */\n      mload\n        /* \"#utility.yul\":12947:12948   */\n      dup2\n        /* \"#utility.yul\":12942:12945   */\n      dup5\n        /* \"#utility.yul\":12938:12949   */\n      add\n        /* \"#utility.yul\":12931:12970   */\n      mstore\n        /* \"#utility.yul\":12903:12905   */\n      0x20\n        /* \"#utility.yul\":12900:12901   */\n      dup2\n        /* \"#utility.yul\":12896:12906   */\n      add\n        /* \"#utility.yul\":12891:12906   */\n      swap1\n      pop\n        /* \"#utility.yul\":12867:12980   */\n      jump(tag_377)\n    tag_379:\n        /* \"#utility.yul\":12998:13004   */\n      dup4\n        /* \"#utility.yul\":12995:12996   */\n      dup2\n        /* \"#utility.yul\":12992:13005   */\n      gt\n        /* \"#utility.yul\":12989:13090   */\n      iszero\n      tag_380\n      jumpi\n        /* \"#utility.yul\":13078:13079   */\n      0x00\n        /* \"#utility.yul\":13069:13075   */\n      dup5\n        /* \"#utility.yul\":13064:13067   */\n      dup5\n        /* \"#utility.yul\":13060:13076   */\n      add\n        /* \"#utility.yul\":13053:13080   */\n      mstore\n        /* \"#utility.yul\":12989:13090   */\n    tag_380:\n        /* \"#utility.yul\":12838:13096   */\n      pop\n        /* \"#utility.yul\":12789:13096   */\n      pop\n      pop\n      pop\n      jump\t// out\n        /* \"#utility.yul\":13102:13422   */\n    tag_118:\n        /* \"#utility.yul\":13146:13152   */\n      0x00\n        /* \"#utility.yul\":13183:13184   */\n      0x02\n        /* \"#utility.yul\":13177:13181   */\n      dup3\n        /* \"#utility.yul\":13173:13185   */\n      div\n        /* \"#utility.yul\":13163:13185   */\n      swap1\n      pop\n        /* \"#utility.yul\":13230:13231   */\n      0x01\n        /* \"#utility.yul\":13224:13228   */\n      dup3\n        /* \"#utility.yul\":13220:13232   */\n      and\n        /* \"#utility.yul\":13251:13269   */\n      dup1\n        /* \"#utility.yul\":13241:13322   */\n      tag_382\n      jumpi\n        /* \"#utility.yul\":13307:13311   */\n      0x7f\n        /* \"#utility.yul\":13299:13305   */\n      dup3\n        /* \"#utility.yul\":13295:13312   */\n      and\n        /* \"#utility.yul\":13285:13312   */\n      swap2\n      pop\n        /* \"#utility.yul\":13241:13322   */\n    tag_382:\n        /* \"#utility.yul\":13369:13371   */\n      0x20\n        /* \"#utility.yul\":13361:13367   */\n      dup3\n        /* \"#utility.yul\":13358:13372   */\n      lt\n        /* \"#utility.yul\":13338:13356   */\n      dup2\n        /* \"#utility.yul\":13335:13373   */\n      eq\n        /* \"#utility.yul\":13332:13416   */\n      iszero\n      tag_383\n      jumpi\n        /* \"#utility.yul\":13388:13406   */\n      tag_384\n      tag_385\n      jump\t// in\n    tag_384:\n        /* \"#utility.yul\":13332:13416   */\n    tag_383:\n        /* \"#utility.yul\":13153:13422   */\n      pop\n        /* \"#utility.yul\":13102:13422   */\n      swap2\n      swap1\n      pop\n      jump\t// out\n        /* \"#utility.yul\":13428:13661   */\n    tag_107:\n        /* \"#utility.yul\":13467:13470   */\n      0x00\n        /* \"#utility.yul\":13490:13514   */\n      tag_387\n        /* \"#utility.yul\":13508:13513   */\n      dup3\n        /* \"#utility.yul\":13490:13514   */\n      tag_315\n      jump\t// in\n    tag_387:\n        /* \"#utility.yul\":13481:13514   */\n      swap2\n      pop\n        /* \"#utility.yul\":13536:13602   */\n      0xffffffffffffffffffffffffffffffffffffffffffffffffffffffffffffffff\n        /* \"#utility.yul\":13529:13534   */\n      dup3\n        /* \"#utility.yul\":13526:13603   */\n      eq\n        /* \"#utility.yul\":13523:13626   */\n      iszero\n      tag_388\n      jumpi\n        /* \"#utility.yul\":13606:13624   */\n      tag_389\n      tag_390\n      jump\t// in\n    tag_389:\n        /* \"#utility.yul\":13523:13626   */\n    tag_388:\n        /* \"#utility.yul\":13653:13654   */\n      0x01\n        /* \"#utility.yul\":13646:13651   */\n      dup3\n        /* \"#utility.yul\":13642:13655   */\n      add\n        /* \"#utility.yul\":13635:13655   */\n      swap1\n      pop\n        /* \"#utility.yul\":13428:13661   */\n      swap2\n      swap1\n      pop\n      jump\t// out\n        /* \"#utility.yul\":13667:13847   */\n    tag_390:\n        /* \"#utility.yul\":13715:13792   */\n      0x4e487b7100000000000000000000000000000000000000000000000000000000\n        /* \"#utility.yul\":13712:13713   */\n      0x00\n        /* \"#utility.yul\":13705:13793   */\n      mstore\n        /* \"#utility.yul\":13812:13816   */\n      0x11\n        /* \"#utility.yul\":13809:13810   */\n      0x04\n        /* \"#utility.yul\":13802:13817   */\n      mstore\n        /* \"#utility.yul\":13836:13840   */\n      0x24\n        /* \"#utility.yul\":13833:13834   */\n      0x00\n        /* \"#utility.yul\":13826:13841   */\n      revert\n        /* \"#utility.yul\":13853:14033   */\n    tag_99:\n        /* \"#utility.yul\":13901:13978   */\n      0x4e487b7100000000000000000000000000000000000000000000000000000000\n        /* \"#utility.yul\":13898:13899   */\n      0x00\n        /* \"#utility.yul\":13891:13979   */\n      mstore\n        /* \"#utility.yul\":13998:14002   */\n      0x21\n        /* \"#utility.yul\":13995:13996   */\n      0x04\n        /* \"#utility.yul\":13988:14003   */\n      mstore\n        /* \"#utility.yul\":14022:14026   */\n      0x24\n        /* \"#utility.yul\":14019:14020   */\n      0x00\n        /* \"#utility.yul\":14012:14027   */\n      revert\n        /* \"#utility.yul\":14039:14219   */\n    tag_385:\n        /* \"#utility.yul\":14087:14164   */\n      0x4e487b7100000000000000000000000000000000000000000000000000000000\n        /* \"#utility.yul\":14084:14085   */\n      0x00\n        /* \"#utility.yul\":14077:14165   */\n      mstore\n        /* \"#utility.yul\":14184:14188   */\n      0x22\n        /* \"#utility.yul\":14181:14182   */\n      0x04\n        /* \"#utility.yul\":14174:14189   */\n      mstore\n        /* \"#utility.yul\":14208:14212   */\n      0x24\n        /* \"#utility.yul\":14205:14206   */\n      0x00\n        /* \"#utility.yul\":14198:14213   */\n      revert\n        /* \"#utility.yul\":14225:14405   */\n    tag_112:\n        /* \"#utility.yul\":14273:14350   */\n      0x4e487b7100000000000000000000000000000000000000000000000000000000\n        /* \"#utility.yul\":14270:14271   */\n      0x00\n        /* \"#utility.yul\":14263:14351   */\n      mstore\n        /* \"#utility.yul\":14370:14374   */\n      0x32\n        /* \"#utility.yul\":14367:14368   */\n      0x04\n        /* \"#utility.yul\":14360:14375   */\n      mstore\n        /* \"#utility.yul\":14394:14398   */\n      0x24\n        /* \"#utility.yul\":14391:14392   */\n      0x00\n        /* \"#utility.yul\":14384:14399   */\n      revert\n        /* \"#utility.yul\":14411:14591   */\n    tag_126:\n        /* \"#utility.yul\":14459:14536   */\n      0x4e487b7100000000000000000000000000000000000000000000000000000000\n        /* \"#utility.yul\":14456:14457   */\n      0x00\n        /* \"#utility.yul\":14449:14537   */\n      mstore\n        /* \"#utility.yul\":14556:14560   */\n      0x41\n        /* \"#utility.yul\":14553:14554   */\n      0x04\n        /* \"#utility.yul\":14546:14561   */\n      mstore\n        /* \"#utility.yul\":14580:14584   */\n      0x24\n        /* \"#utility.yul\":14577:14578   */\n      0x00\n        /* \"#utility.yul\":14570:14585   */\n      revert\n        /* \"#utility.yul\":14720:14837   */\n    tag_230:\n        /* \"#utility.yul\":14829:14830   */\n      0x00\n        /* \"#utility.yul\":14826:14827   */\n      dup1\n        /* \"#utility.yul\":14819:14831   */\n      revert\n        /* \"#utility.yul\":14843:14945   */\n    tag_302:\n        /* \"#utility.yul\":14884:14890   */\n      0x00\n        /* \"#utility.yul\":14935:14937   */\n      0x1f\n        /* \"#utility.yul\":14931:14938   */\n      not\n        /* \"#utility.yul\":14926:14928   */\n      0x1f\n        /* \"#utility.yul\":14919:14924   */\n      dup4\n        /* \"#utility.yul\":14915:14929   */\n      add\n        /* \"#utility.yul\":14911:14939   */\n      and\n        /* \"#utility.yul\":14901:14939   */\n      swap1\n      pop\n        /* \"#utility.yul\":14843:14945   */\n      swap2\n      swap1\n      pop\n      jump\t// out\n        /* \"#utility.yul\":14951:15180   */\n    tag_307:\n        /* \"#utility.yul\":15091:15125   */\n      0x506c656173652070726f7669646520612076616c696420706f6c6c696e672073\n        /* \"#utility.yul\":15087:15088   */\n      0x00\n        /* \"#utility.yul\":15079:15085   */\n      dup3\n        /* \"#utility.yul\":15075:15089   */\n      add\n        /* \"#utility.yul\":15068:15126   */\n      mstore\n        /* \"#utility.yul\":15160:15172   */\n      0x746174696f6e2049442e00000000000000000000000000000000000000000000\n        /* \"#utility.yul\":15155:15157   */\n      0x20\n        /* \"#utility.yul\":15147:15153   */\n      dup3\n        /* \"#utility.yul\":15143:15158   */\n      add\n        /* \"#utility.yul\":15136:15173   */\n      mstore\n        /* \"#utility.yul\":14951:15180   */\n      pop\n      jump\t// out\n        /* \"#utility.yul\":15186:15364   */\n    tag_312:\n        /* \"#utility.yul\":15326:15356   */\n      0x566f74657220697320616c726561647920726567697374657265642e00000000\n        /* \"#utility.yul\":15322:15323   */\n      0x00\n        /* \"#utility.yul\":15314:15320   */\n      dup3\n        /* \"#utility.yul\":15310:15324   */\n      add\n        /* \"#utility.yul\":15303:15357   */\n      mstore\n        /* \"#utility.yul\":15186:15364   */\n      pop\n      jump\t// out\n        /* \"#utility.yul\":15370:15483   */\n    tag_371:\n        /* \"#utility.yul\":15451:15452   */\n      0x03\n        /* \"#utility.yul\":15444:15449   */\n      dup2\n        /* \"#utility.yul\":15441:15453   */\n      lt\n        /* \"#utility.yul\":15431:15477   */\n      tag_403\n      jumpi\n        /* \"#utility.yul\":15457:15475   */\n      tag_404\n      tag_99\n      jump\t// in\n    tag_404:\n        /* \"#utility.yul\":15431:15477   */\n    tag_403:\n        /* \"#utility.yul\":15370:15483   */\n      pop\n      jump\t// out\n        /* \"#utility.yul\":15489:15611   */\n    tag_222:\n        /* \"#utility.yul\":15562:15586   */\n      tag_406\n        /* \"#utility.yul\":15580:15585   */\n      dup2\n        /* \"#utility.yul\":15562:15586   */\n      tag_257\n      jump\t// in\n    tag_406:\n        /* \"#utility.yul\":15555:15560   */\n      dup2\n        /* \"#utility.yul\":15552:15587   */\n      eq\n        /* \"#utility.yul\":15542:15605   */\n      tag_407\n      jumpi\n        /* \"#utility.yul\":15601:15602   */\n      0x00\n        /* \"#utility.yul\":15598:15599   */\n      dup1\n        /* \"#utility.yul\":15591:15603   */\n      revert\n        /* \"#utility.yul\":15542:15605   */\n    tag_407:\n        /* \"#utility.yul\":15489:15611   */\n      pop\n      jump\t// out\n        /* \"#utility.yul\":15617:15739   */\n    tag_226:\n        /* \"#utility.yul\":15690:15714   */\n      tag_409\n        /* \"#utility.yul\":15708:15713   */\n      dup2\n        /* \"#utility.yul\":15690:15714   */\n      tag_315\n      jump\t// in\n    tag_409:\n        /* \"#utility.yul\":15683:15688   */\n      dup2\n        /* \"#utility.yul\":15680:15715   */\n      eq\n        /* \"#utility.yul\":15670:15733   */\n      tag_410\n      jumpi\n        /* \"#utility.yul\":15729:15730   */\n      0x00\n        /* \"#utility.yul\":15726:15727   */\n      dup1\n        /* \"#utility.yul\":15719:15731   */\n      revert\n        /* \"#utility.yul\":15670:15733   */\n    tag_410:\n        /* \"#utility.yul\":15617:15739   */\n      pop\n      jump\t// out\n\n    auxdata: 0xa264697066735822122048b9698a0a42aabd2e8c2868a4dc40e70d2b107fc96b35aa5e080ca3226d222864736f6c63430008070033\n}\n",
				"bytecode": {
					"linkReferences": {},
					"object": "60806040523480156200001157600080fd5b50336000806101000a81548173ffffffffffffffffffffffffffffffffffffffff021916908373ffffffffffffffffffffffffffffffffffffffff16021790555062000062620000a660201b60201c565b620000726200020660201b60201c565b6000600d60006101000a81548160ff021916908360028111156200009b576200009a6200074e565b5b0217905550620007ac565b620000ec6040518060400160405280600b81526020017f43616e6469646174652031000000000000000000000000000000000000000000815250620004c460201b60201c565b620001326040518060400160405280600b81526020017f43616e6469646174652032000000000000000000000000000000000000000000815250620004c460201b60201c565b620001786040518060400160405280600b81526020017f43616e6469646174652033000000000000000000000000000000000000000000815250620004c460201b60201c565b620001be6040518060400160405280600b81526020017f43616e6469646174652034000000000000000000000000000000000000000000815250620004c460201b60201c565b620002046040518060400160405280600b81526020017f43616e6469646174652035000000000000000000000000000000000000000000815250620004c460201b60201c565b565b6200024c6040518060400160405280601181526020017f506f6c6c696e672053746174696f6e20310000000000000000000000000000008152506200054a60201b60201c565b620002926040518060400160405280601181526020017f506f6c6c696e672053746174696f6e20320000000000000000000000000000008152506200054a60201b60201c565b620002d86040518060400160405280601181526020017f506f6c6c696e672053746174696f6e20330000000000000000000000000000008152506200054a60201b60201c565b6200031e6040518060400160405280601181526020017f506f6c6c696e672053746174696f6e20340000000000000000000000000000008152506200054a60201b60201c565b620003646040518060400160405280601181526020017f506f6c6c696e672053746174696f6e20350000000000000000000000000000008152506200054a60201b60201c565b620003aa6040518060400160405280601181526020017f506f6c6c696e672053746174696f6e20360000000000000000000000000000008152506200054a60201b60201c565b620003f06040518060400160405280601181526020017f506f6c6c696e672053746174696f6e20370000000000000000000000000000008152506200054a60201b60201c565b620004366040518060400160405280601181526020017f506f6c6c696e672053746174696f6e20380000000000000000000000000000008152506200054a60201b60201c565b6200047c6040518060400160405280601181526020017f506f6c6c696e672053746174696f6e20390000000000000000000000000000008152506200054a60201b60201c565b620004c26040518060400160405280601281526020017f506f6c6c696e672053746174696f6e20313000000000000000000000000000008152506200054a60201b60201c565b565b60016000815480929190620004d990620006d1565b919050555060405180606001604052806001548152602001828152602001600081525060076000600154815260200190815260200160002060008201518160000155602082015181600101908051906020019062000539929190620005e1565b506040820151816002015590505050565b600260008154809291906200055f90620006d1565b919050555060405180608001604052806002548152602001828152602001600081526020016000815250600860006002548152602001908152602001600020600082015181600001556020820151816001019080519060200190620005c6929190620005e1565b50604082015181600201556060820151816003015590505050565b828054620005ef906200069b565b90600052602060002090601f0160209004810192826200061357600085556200065f565b82601f106200062e57805160ff19168380011785556200065f565b828001600101855582156200065f579182015b828111156200065e57825182559160200191906001019062000641565b5b5090506200066e919062000672565b5090565b5b808211156200068d57600081600090555060010162000673565b5090565b6000819050919050565b60006002820490506001821680620006b457607f821691505b60208210811415620006cb57620006ca6200077d565b5b50919050565b6000620006de8262000691565b91507fffffffffffffffffffffffffffffffffffffffffffffffffffffffffffffffff8214156200071457620007136200071f565b5b600182019050919050565b7f4e487b7100000000000000000000000000000000000000000000000000000000600052601160045260246000fd5b7f4e487b7100000000000000000000000000000000000000000000000000000000600052602160045260246000fd5b7f4e487b7100000000000000000000000000000000000000000000000000000000600052602260045260246000fd5b61195d80620007bc6000396000f3fe608060405234801561001057600080fd5b50600436106101155760003560e01c8063a3ec138d116100a2578063c19d93fb11610071578063c19d93fb146102ec578063d70c6f4e1461030a578063df9f1a071461033a578063f3a8286f14610358578063fe2442d71461037657610115565b8063a3ec138d14610264578063b54b5d6214610294578063b9223946146102c6578063b9f05f2f146102d057610115565b80633a873314116100e95780633a873314146101b85780634763d4e7146101d65780634c0a6af01461020a57806353357ad014610214578063853dca3a1461023257610115565b8062aa74641461011a5780632c0a3f89146101385780632d35a8a2146101685780633477ee2e14610186575b600080fd5b6101226103a9565b60405161012f919061151e565b60405180910390f35b610152600480360381019061014d91906111d8565b6103af565b60405161015f919061141e565b60405180910390f35b6101706106e9565b60405161017d919061151e565b60405180910390f35b6101a0600480360381019061019b91906111ab565b6106ef565b6040516101af93929190611539565b60405180910390f35b6101c06107a1565b6040516101cd91906113fc565b60405180910390f35b6101f060048036038101906101eb919061113e565b61090b565b604051610201959493929190611439565b60405180910390f35b61021261095b565b005b61021c610a22565b60405161022991906113e1565b60405180910390f35b61024c600480360381019061024791906111d8565b610a46565b60405161025b93929190611539565b60405180910390f35b61027e6004803603810190610279919061113e565b610b15565b60405161028b919061141e565b60405180910390f35b6102ae60048036038101906102a991906111d8565b610b35565b6040516102bd93929190611539565b60405180910390f35b6102ce610bf4565b005b6102ea60048036038101906102e5919061116b565b610cc4565b005b6102f4610f57565b60405161030191906114c3565b60405180910390f35b610324600480360381019061031f91906111d8565b610f6a565b604051610331919061151e565b60405180910390f35b610342610fa7565b60405161034f919061151e565b60405180910390f35b610360610fad565b60405161036d919061151e565b60405180910390f35b610390600480360381019061038b91906111ab565b610fb3565b6040516103a09493929190611577565b60405180910390f35b60035481565b600060018060028111156103c6576103c561179b565b5b600d60009054906101000a900460ff1660028111156103e8576103e761179b565b5b146103f257600080fd5b6000600960003373ffffffffffffffffffffffffffffffffffffffff1673ffffffffffffffffffffffffffffffffffffffff16815260200190815260200160002060000160009054906101000a900460ff16801561049d5750600960003373ffffffffffffffffffffffffffffffffffffffff1673ffffffffffffffffffffffffffffffffffffffff16815260200190815260200160002060000160019054906101000a900460ff16155b156106de5784600960003373ffffffffffffffffffffffffffffffffffffffff1673ffffffffffffffffffffffffffffffffffffffff1681526020019081526020016000206001018190555083600960003373ffffffffffffffffffffffffffffffffffffffff1673ffffffffffffffffffffffffffffffffffffffff168152602001908152602001600020600301819055506001600960003373ffffffffffffffffffffffffffffffffffffffff1673ffffffffffffffffffffffffffffffffffffffff16815260200190815260200160002060000160016101000a81548160ff0219169083151502179055506008600085815260200190815260200160002060030160008154809291906105b290611723565b91905055506007600086815260200190815260200160002060020160008154809291906105de90611723565b9190505550600460008154809291906105f690611723565b91905055506001905080600a60003373ffffffffffffffffffffffffffffffffffffffff1673ffffffffffffffffffffffffffffffffffffffff16815260200190815260200160002060006101000a81548160ff021916908315150217905550600c6000858152602001908152602001600020858154811061067b5761067a6117f9565b5b9060005260206000209060030201600201600081548092919061069d90611723565b91905055507f29a25b3d0b6ff7e5de2a60a2e8e76d1bdaf4894ec18c598cc1687213f442c5cb8186866040516106d59392919061148c565b60405180910390a15b809250505092915050565b60015481565b6007602052806000526040600020600091509050806000015490806001018054610718906116f1565b80601f0160208091040260200160405190810160405280929190818152602001828054610744906116f1565b80156107915780601f1061076657610100808354040283529160200191610791565b820191906000526020600020905b81548152906001019060200180831161077457829003601f168201915b5050505050908060020154905083565b6060600060025467ffffffffffffffff8111156107c1576107c0611828565b5b6040519080825280602002602001820160405280156107f457816020015b60608152602001906001900390816107df5790505b5090506000600190505b600254811161090357600060015467ffffffffffffffff81111561082557610824611828565b5b6040519080825280602002602001820160405280156108535781602001602082028036833780820191505090505b5090506000600190505b60015481116108cf57600c6000848152602001908152602001600020818154811061088b5761088a6117f9565b5b9060005260206000209060030201600201548282815181106108b0576108af6117f9565b5b60200260200101818152505080806108c790611723565b91505061085d565b50808383815181106108e4576108e36117f9565b5b60200260200101819052505080806108fb90611723565b9150506107fe565b508091505090565b60096020528060005260406000206000915090508060000160009054906101000a900460ff16908060000160019054906101000a900460ff16908060010154908060020154908060030154905085565b60008060028111156109705761096f61179b565b5b600d60009054906101000a900460ff1660028111156109925761099161179b565b5b1461099c57600080fd5b60008054906101000a900473ffffffffffffffffffffffffffffffffffffffff1673ffffffffffffffffffffffffffffffffffffffff163373ffffffffffffffffffffffffffffffffffffffff16146109f457600080fd5b6001600d60006101000a81548160ff02191690836002811115610a1a57610a1961179b565b5b021790555050565b60008054906101000a900473ffffffffffffffffffffffffffffffffffffffff1681565b600c6020528160005260406000208181548110610a6257600080fd5b906000526020600020906003020160009150915050806000015490806001018054610a8c906116f1565b80601f0160208091040260200160405190810160405280929190818152602001828054610ab8906116f1565b8015610b055780601f10610ada57610100808354040283529160200191610b05565b820191906000526020600020905b815481529060010190602001808311610ae857829003601f168201915b5050505050908060020154905083565b600a6020528060005260406000206000915054906101000a900460ff1681565b600b60205281600052604060002060205280600052604060002060009150915050806000015490806001018054610b6b906116f1565b80601f0160208091040260200160405190810160405280929190818152602001828054610b97906116f1565b8015610be45780601f10610bb957610100808354040283529160200191610be4565b820191906000526020600020905b815481529060010190602001808311610bc757829003601f168201915b5050505050908060020154905083565b6001806002811115610c0957610c0861179b565b5b600d60009054906101000a900460ff166002811115610c2b57610c2a61179b565b5b14610c3557600080fd5b60008054906101000a900473ffffffffffffffffffffffffffffffffffffffff1673ffffffffffffffffffffffffffffffffffffffff163373ffffffffffffffffffffffffffffffffffffffff1614610c8d57600080fd5b6002600d60006101000a81548160ff02191690836002811115610cb357610cb261179b565b5b021790555060045460058190555050565b6000806002811115610cd957610cd861179b565b5b600d60009054906101000a900460ff166002811115610cfb57610cfa61179b565b5b14610d0557600080fd5b60008054906101000a900473ffffffffffffffffffffffffffffffffffffffff1673ffffffffffffffffffffffffffffffffffffffff163373ffffffffffffffffffffffffffffffffffffffff1614610d5d57600080fd5b60001515600960008573ffffffffffffffffffffffffffffffffffffffff1673ffffffffffffffffffffffffffffffffffffffff16815260200190815260200160002060000160009054906101000a900460ff16151514610df3576040517f08c379a0000000000000000000000000000000000000000000000000000000008152600401610dea906114fe565b60405180910390fd5b60018210158015610e0657506002548211155b610e45576040517f08c379a0000000000000000000000000000000000000000000000000000000008152600401610e3c906114de565b60405180910390fd5b610e4d6110e1565b60018160000190151590811515815250506000816020019015159081151581525050600081604001818152505082816060018181525050600081608001818152505080600960008673ffffffffffffffffffffffffffffffffffffffff1673ffffffffffffffffffffffffffffffffffffffff16815260200190815260200160002060008201518160000160006101000a81548160ff02191690831515021790555060208201518160000160016101000a81548160ff021916908315150217905550604082015181600101556060820151816002015560808201518160030155905050610f398361106b565b60036000815480929190610f4c90611723565b919050555050505050565b600d60009054906101000a900460ff1681565b60068281548110610f7a57600080fd5b906000526020600020018181548110610f9257600080fd5b90600052602060002001600091509150505481565b60025481565b60055481565b6008602052806000526040600020600091509050806000015490806001018054610fdc906116f1565b80601f0160208091040260200160405190810160405280929190818152602001828054611008906116f1565b80156110555780601f1061102a57610100808354040283529160200191611055565b820191906000526020600020905b81548152906001019060200180831161103857829003601f168201915b5050505050908060020154908060030154905084565b6000600190505b60025481116110dd5781600860008381526020019081526020016000206000015414156110ca576008600082815260200190815260200160002060020160008154809291906110c090611723565b91905055506110dd565b80806110d590611723565b915050611072565b5050565b6040518060a001604052806000151581526020016000151581526020016000815260200160008152602001600081525090565b600081359050611123816118f9565b92915050565b60008135905061113881611910565b92915050565b60006020828403121561115457611153611857565b5b600061116284828501611114565b91505092915050565b6000806040838503121561118257611181611857565b5b600061119085828601611114565b92505060206111a185828601611129565b9150509250929050565b6000602082840312156111c1576111c0611857565b5b60006111cf84828501611129565b91505092915050565b600080604083850312156111ef576111ee611857565b5b60006111fd85828601611129565b925050602061120e85828601611129565b9150509250929050565b600061122483836112c8565b905092915050565b600061123883836113c3565b60208301905092915050565b61124d81611651565b82525050565b600061125e826115e3565b611268818561161e565b93508360208202850161127a856115c3565b8060005b858110156112b657848403895281516112978582611218565b94506112a283611604565b925060208a0199505060018101905061127e565b50829750879550505050505092915050565b60006112d3826115ee565b6112dd818561162f565b93506112e8836115d3565b8060005b83811015611319578151611300888261122c565b975061130b83611611565b9250506001810190506112ec565b5085935050505092915050565b61132f81611663565b82525050565b61133e816116ac565b82525050565b600061134f826115f9565b6113598185611640565b93506113698185602086016116be565b6113728161185c565b840191505092915050565b600061138a602a83611640565b91506113958261186d565b604082019050919050565b60006113ad601c83611640565b91506113b8826118bc565b602082019050919050565b6113cc816116a2565b82525050565b6113db816116a2565b82525050565b60006020820190506113f66000830184611244565b92915050565b600060208201905081810360008301526114168184611253565b905092915050565b60006020820190506114336000830184611326565b92915050565b600060a08201905061144e6000830188611326565b61145b6020830187611326565b61146860408301866113d2565b61147560608301856113d2565b61148260808301846113d2565b9695505050505050565b60006060820190506114a16000830186611326565b6114ae60208301856113d2565b6114bb60408301846113d2565b949350505050565b60006020820190506114d86000830184611335565b92915050565b600060208201905081810360008301526114f78161137d565b9050919050565b60006020820190508181036000830152611517816113a0565b9050919050565b600060208201905061153360008301846113d2565b92915050565b600060608201905061154e60008301866113d2565b81810360208301526115608185611344565b905061156f60408301846113d2565b949350505050565b600060808201905061158c60008301876113d2565b818103602083015261159e8186611344565b90506115ad60408301856113d2565b6115ba60608301846113d2565b95945050505050565b6000819050602082019050919050565b6000819050602082019050919050565b600081519050919050565b600081519050919050565b600081519050919050565b6000602082019050919050565b6000602082019050919050565b600082825260208201905092915050565b600082825260208201905092915050565b600082825260208201905092915050565b600061165c82611682565b9050919050565b60008115159050919050565b600081905061167d826118e5565b919050565b600073ffffffffffffffffffffffffffffffffffffffff82169050919050565b6000819050919050565b60006116b78261166f565b9050919050565b60005b838110156116dc5780820151818401526020810190506116c1565b838111156116eb576000848401525b50505050565b6000600282049050600182168061170957607f821691505b6020821081141561171d5761171c6117ca565b5b50919050565b600061172e826116a2565b91507fffffffffffffffffffffffffffffffffffffffffffffffffffffffffffffffff8214156117615761176061176c565b5b600182019050919050565b7f4e487b7100000000000000000000000000000000000000000000000000000000600052601160045260246000fd5b7f4e487b7100000000000000000000000000000000000000000000000000000000600052602160045260246000fd5b7f4e487b7100000000000000000000000000000000000000000000000000000000600052602260045260246000fd5b7f4e487b7100000000000000000000000000000000000000000000000000000000600052603260045260246000fd5b7f4e487b7100000000000000000000000000000000000000000000000000000000600052604160045260246000fd5b600080fd5b6000601f19601f8301169050919050565b7f506c656173652070726f7669646520612076616c696420706f6c6c696e67207360008201527f746174696f6e2049442e00000000000000000000000000000000000000000000602082015250565b7f566f74657220697320616c726561647920726567697374657265642e00000000600082015250565b600381106118f6576118f561179b565b5b50565b61190281611651565b811461190d57600080fd5b50565b611919816116a2565b811461192457600080fd5b5056fea264697066735822122048b9698a0a42aabd2e8c2868a4dc40e70d2b107fc96b35aa5e080ca3226d222864736f6c63430008070033",
					"opcodes": "PUSH1 0x80 PUSH1 0x40 MSTORE CALLVALUE DUP1 ISZERO PUSH3 0x11 JUMPI PUSH1 0x0 DUP1 REVERT JUMPDEST POP CALLER PUSH1 0x0 DUP1 PUSH2 0x100 EXP DUP2 SLOAD DUP2 PUSH20 0xFFFFFFFFFFFFFFFFFFFFFFFFFFFFFFFFFFFFFFFF MUL NOT AND SWAP1 DUP4 PUSH20 0xFFFFFFFFFFFFFFFFFFFFFFFFFFFFFFFFFFFFFFFF AND MUL OR SWAP1 SSTORE POP PUSH3 0x62 PUSH3 0xA6 PUSH1 0x20 SHL PUSH1 0x20 SHR JUMP JUMPDEST PUSH3 0x72 PUSH3 0x206 PUSH1 0x20 SHL PUSH1 0x20 SHR JUMP JUMPDEST PUSH1 0x0 PUSH1 0xD PUSH1 0x0 PUSH2 0x100 EXP DUP2 SLOAD DUP2 PUSH1 0xFF MUL NOT AND SWAP1 DUP4 PUSH1 0x2 DUP2 GT ISZERO PUSH3 0x9B JUMPI PUSH3 0x9A PUSH3 0x74E JUMP JUMPDEST JUMPDEST MUL OR SWAP1 SSTORE POP PUSH3 0x7AC JUMP JUMPDEST PUSH3 0xEC PUSH1 0x40 MLOAD DUP1 PUSH1 0x40 ADD PUSH1 0x40 MSTORE DUP1 PUSH1 0xB DUP2 MSTORE PUSH1 0x20 ADD PUSH32 0x43616E6469646174652031000000000000000000000000000000000000000000 DUP2 MSTORE POP PUSH3 0x4C4 PUSH1 0x20 SHL PUSH1 0x20 SHR JUMP JUMPDEST PUSH3 0x132 PUSH1 0x40 MLOAD DUP1 PUSH1 0x40 ADD PUSH1 0x40 MSTORE DUP1 PUSH1 0xB DUP2 MSTORE PUSH1 0x20 ADD PUSH32 0x43616E6469646174652032000000000000000000000000000000000000000000 DUP2 MSTORE POP PUSH3 0x4C4 PUSH1 0x20 SHL PUSH1 0x20 SHR JUMP JUMPDEST PUSH3 0x178 PUSH1 0x40 MLOAD DUP1 PUSH1 0x40 ADD PUSH1 0x40 MSTORE DUP1 PUSH1 0xB DUP2 MSTORE PUSH1 0x20 ADD PUSH32 0x43616E6469646174652033000000000000000000000000000000000000000000 DUP2 MSTORE POP PUSH3 0x4C4 PUSH1 0x20 SHL PUSH1 0x20 SHR JUMP JUMPDEST PUSH3 0x1BE PUSH1 0x40 MLOAD DUP1 PUSH1 0x40 ADD PUSH1 0x40 MSTORE DUP1 PUSH1 0xB DUP2 MSTORE PUSH1 0x20 ADD PUSH32 0x43616E6469646174652034000000000000000000000000000000000000000000 DUP2 MSTORE POP PUSH3 0x4C4 PUSH1 0x20 SHL PUSH1 0x20 SHR JUMP JUMPDEST PUSH3 0x204 PUSH1 0x40 MLOAD DUP1 PUSH1 0x40 ADD PUSH1 0x40 MSTORE DUP1 PUSH1 0xB DUP2 MSTORE PUSH1 0x20 ADD PUSH32 0x43616E6469646174652035000000000000000000000000000000000000000000 DUP2 MSTORE POP PUSH3 0x4C4 PUSH1 0x20 SHL PUSH1 0x20 SHR JUMP JUMPDEST JUMP JUMPDEST PUSH3 0x24C PUSH1 0x40 MLOAD DUP1 PUSH1 0x40 ADD PUSH1 0x40 MSTORE DUP1 PUSH1 0x11 DUP2 MSTORE PUSH1 0x20 ADD PUSH32 0x506F6C6C696E672053746174696F6E2031000000000000000000000000000000 DUP2 MSTORE POP PUSH3 0x54A PUSH1 0x20 SHL PUSH1 0x20 SHR JUMP JUMPDEST PUSH3 0x292 PUSH1 0x40 MLOAD DUP1 PUSH1 0x40 ADD PUSH1 0x40 MSTORE DUP1 PUSH1 0x11 DUP2 MSTORE PUSH1 0x20 ADD PUSH32 0x506F6C6C696E672053746174696F6E2032000000000000000000000000000000 DUP2 MSTORE POP PUSH3 0x54A PUSH1 0x20 SHL PUSH1 0x20 SHR JUMP JUMPDEST PUSH3 0x2D8 PUSH1 0x40 MLOAD DUP1 PUSH1 0x40 ADD PUSH1 0x40 MSTORE DUP1 PUSH1 0x11 DUP2 MSTORE PUSH1 0x20 ADD PUSH32 0x506F6C6C696E672053746174696F6E2033000000000000000000000000000000 DUP2 MSTORE POP PUSH3 0x54A PUSH1 0x20 SHL PUSH1 0x20 SHR JUMP JUMPDEST PUSH3 0x31E PUSH1 0x40 MLOAD DUP1 PUSH1 0x40 ADD PUSH1 0x40 MSTORE DUP1 PUSH1 0x11 DUP2 MSTORE PUSH1 0x20 ADD PUSH32 0x506F6C6C696E672053746174696F6E2034000000000000000000000000000000 DUP2 MSTORE POP PUSH3 0x54A PUSH1 0x20 SHL PUSH1 0x20 SHR JUMP JUMPDEST PUSH3 0x364 PUSH1 0x40 MLOAD DUP1 PUSH1 0x40 ADD PUSH1 0x40 MSTORE DUP1 PUSH1 0x11 DUP2 MSTORE PUSH1 0x20 ADD PUSH32 0x506F6C6C696E672053746174696F6E2035000000000000000000000000000000 DUP2 MSTORE POP PUSH3 0x54A PUSH1 0x20 SHL PUSH1 0x20 SHR JUMP JUMPDEST PUSH3 0x3AA PUSH1 0x40 MLOAD DUP1 PUSH1 0x40 ADD PUSH1 0x40 MSTORE DUP1 PUSH1 0x11 DUP2 MSTORE PUSH1 0x20 ADD PUSH32 0x506F6C6C696E672053746174696F6E2036000000000000000000000000000000 DUP2 MSTORE POP PUSH3 0x54A PUSH1 0x20 SHL PUSH1 0x20 SHR JUMP JUMPDEST PUSH3 0x3F0 PUSH1 0x40 MLOAD DUP1 PUSH1 0x40 ADD PUSH1 0x40 MSTORE DUP1 PUSH1 0x11 DUP2 MSTORE PUSH1 0x20 ADD PUSH32 0x506F6C6C696E672053746174696F6E2037000000000000000000000000000000 DUP2 MSTORE POP PUSH3 0x54A PUSH1 0x20 SHL PUSH1 0x20 SHR JUMP JUMPDEST PUSH3 0x436 PUSH1 0x40 MLOAD DUP1 PUSH1 0x40 ADD PUSH1 0x40 MSTORE DUP1 PUSH1 0x11 DUP2 MSTORE PUSH1 0x20 ADD PUSH32 0x506F6C6C696E672053746174696F6E2038000000000000000000000000000000 DUP2 MSTORE POP PUSH3 0x54A PUSH1 0x20 SHL PUSH1 0x20 SHR JUMP JUMPDEST PUSH3 0x47C PUSH1 0x40 MLOAD DUP1 PUSH1 0x40 ADD PUSH1 0x40 MSTORE DUP1 PUSH1 0x11 DUP2 MSTORE PUSH1 0x20 ADD PUSH32 0x506F6C6C696E672053746174696F6E2039000000000000000000000000000000 DUP2 MSTORE POP PUSH3 0x54A PUSH1 0x20 SHL PUSH1 0x20 SHR JUMP JUMPDEST PUSH3 0x4C2 PUSH1 0x40 MLOAD DUP1 PUSH1 0x40 ADD PUSH1 0x40 MSTORE DUP1 PUSH1 0x12 DUP2 MSTORE PUSH1 0x20 ADD PUSH32 0x506F6C6C696E672053746174696F6E2031300000000000000000000000000000 DUP2 MSTORE POP PUSH3 0x54A PUSH1 0x20 SHL PUSH1 0x20 SHR JUMP JUMPDEST JUMP JUMPDEST PUSH1 0x1 PUSH1 0x0 DUP2 SLOAD DUP1 SWAP3 SWAP2 SWAP1 PUSH3 0x4D9 SWAP1 PUSH3 0x6D1 JUMP JUMPDEST SWAP2 SWAP1 POP SSTORE POP PUSH1 0x40 MLOAD DUP1 PUSH1 0x60 ADD PUSH1 0x40 MSTORE DUP1 PUSH1 0x1 SLOAD DUP2 MSTORE PUSH1 0x20 ADD DUP3 DUP2 MSTORE PUSH1 0x20 ADD PUSH1 0x0 DUP2 MSTORE POP PUSH1 0x7 PUSH1 0x0 PUSH1 0x1 SLOAD DUP2 MSTORE PUSH1 0x20 ADD SWAP1 DUP2 MSTORE PUSH1 0x20 ADD PUSH1 0x0 KECCAK256 PUSH1 0x0 DUP3 ADD MLOAD DUP2 PUSH1 0x0 ADD SSTORE PUSH1 0x20 DUP3 ADD MLOAD DUP2 PUSH1 0x1 ADD SWAP1 DUP1 MLOAD SWAP1 PUSH1 0x20 ADD SWAP1 PUSH3 0x539 SWAP3 SWAP2 SWAP1 PUSH3 0x5E1 JUMP JUMPDEST POP PUSH1 0x40 DUP3 ADD MLOAD DUP2 PUSH1 0x2 ADD SSTORE SWAP1 POP POP POP JUMP JUMPDEST PUSH1 0x2 PUSH1 0x0 DUP2 SLOAD DUP1 SWAP3 SWAP2 SWAP1 PUSH3 0x55F SWAP1 PUSH3 0x6D1 JUMP JUMPDEST SWAP2 SWAP1 POP SSTORE POP PUSH1 0x40 MLOAD DUP1 PUSH1 0x80 ADD PUSH1 0x40 MSTORE DUP1 PUSH1 0x2 SLOAD DUP2 MSTORE PUSH1 0x20 ADD DUP3 DUP2 MSTORE PUSH1 0x20 ADD PUSH1 0x0 DUP2 MSTORE PUSH1 0x20 ADD PUSH1 0x0 DUP2 MSTORE POP PUSH1 0x8 PUSH1 0x0 PUSH1 0x2 SLOAD DUP2 MSTORE PUSH1 0x20 ADD SWAP1 DUP2 MSTORE PUSH1 0x20 ADD PUSH1 0x0 KECCAK256 PUSH1 0x0 DUP3 ADD MLOAD DUP2 PUSH1 0x0 ADD SSTORE PUSH1 0x20 DUP3 ADD MLOAD DUP2 PUSH1 0x1 ADD SWAP1 DUP1 MLOAD SWAP1 PUSH1 0x20 ADD SWAP1 PUSH3 0x5C6 SWAP3 SWAP2 SWAP1 PUSH3 0x5E1 JUMP JUMPDEST POP PUSH1 0x40 DUP3 ADD MLOAD DUP2 PUSH1 0x2 ADD SSTORE PUSH1 0x60 DUP3 ADD MLOAD DUP2 PUSH1 0x3 ADD SSTORE SWAP1 POP POP POP JUMP JUMPDEST DUP3 DUP1 SLOAD PUSH3 0x5EF SWAP1 PUSH3 0x69B JUMP JUMPDEST SWAP1 PUSH1 0x0 MSTORE PUSH1 0x20 PUSH1 0x0 KECCAK256 SWAP1 PUSH1 0x1F ADD PUSH1 0x20 SWAP1 DIV DUP2 ADD SWAP3 DUP3 PUSH3 0x613 JUMPI PUSH1 0x0 DUP6 SSTORE PUSH3 0x65F JUMP JUMPDEST DUP3 PUSH1 0x1F LT PUSH3 0x62E JUMPI DUP1 MLOAD PUSH1 0xFF NOT AND DUP4 DUP1 ADD OR DUP6 SSTORE PUSH3 0x65F JUMP JUMPDEST DUP3 DUP1 ADD PUSH1 0x1 ADD DUP6 SSTORE DUP3 ISZERO PUSH3 0x65F JUMPI SWAP2 DUP3 ADD JUMPDEST DUP3 DUP2 GT ISZERO PUSH3 0x65E JUMPI DUP3 MLOAD DUP3 SSTORE SWAP2 PUSH1 0x20 ADD SWAP2 SWAP1 PUSH1 0x1 ADD SWAP1 PUSH3 0x641 JUMP JUMPDEST JUMPDEST POP SWAP1 POP PUSH3 0x66E SWAP2 SWAP1 PUSH3 0x672 JUMP JUMPDEST POP SWAP1 JUMP JUMPDEST JUMPDEST DUP1 DUP3 GT ISZERO PUSH3 0x68D JUMPI PUSH1 0x0 DUP2 PUSH1 0x0 SWAP1 SSTORE POP PUSH1 0x1 ADD PUSH3 0x673 JUMP JUMPDEST POP SWAP1 JUMP JUMPDEST PUSH1 0x0 DUP2 SWAP1 POP SWAP2 SWAP1 POP JUMP JUMPDEST PUSH1 0x0 PUSH1 0x2 DUP3 DIV SWAP1 POP PUSH1 0x1 DUP3 AND DUP1 PUSH3 0x6B4 JUMPI PUSH1 0x7F DUP3 AND SWAP2 POP JUMPDEST PUSH1 0x20 DUP3 LT DUP2 EQ ISZERO PUSH3 0x6CB JUMPI PUSH3 0x6CA PUSH3 0x77D JUMP JUMPDEST JUMPDEST POP SWAP2 SWAP1 POP JUMP JUMPDEST PUSH1 0x0 PUSH3 0x6DE DUP3 PUSH3 0x691 JUMP JUMPDEST SWAP2 POP PUSH32 0xFFFFFFFFFFFFFFFFFFFFFFFFFFFFFFFFFFFFFFFFFFFFFFFFFFFFFFFFFFFFFFFF DUP3 EQ ISZERO PUSH3 0x714 JUMPI PUSH3 0x713 PUSH3 0x71F JUMP JUMPDEST JUMPDEST PUSH1 0x1 DUP3 ADD SWAP1 POP SWAP2 SWAP1 POP JUMP JUMPDEST PUSH32 0x4E487B7100000000000000000000000000000000000000000000000000000000 PUSH1 0x0 MSTORE PUSH1 0x11 PUSH1 0x4 MSTORE PUSH1 0x24 PUSH1 0x0 REVERT JUMPDEST PUSH32 0x4E487B7100000000000000000000000000000000000000000000000000000000 PUSH1 0x0 MSTORE PUSH1 0x21 PUSH1 0x4 MSTORE PUSH1 0x24 PUSH1 0x0 REVERT JUMPDEST PUSH32 0x4E487B7100000000000000000000000000000000000000000000000000000000 PUSH1 0x0 MSTORE PUSH1 0x22 PUSH1 0x4 MSTORE PUSH1 0x24 PUSH1 0x0 REVERT JUMPDEST PUSH2 0x195D DUP1 PUSH3 0x7BC PUSH1 0x0 CODECOPY PUSH1 0x0 RETURN INVALID PUSH1 0x80 PUSH1 0x40 MSTORE CALLVALUE DUP1 ISZERO PUSH2 0x10 JUMPI PUSH1 0x0 DUP1 REVERT JUMPDEST POP PUSH1 0x4 CALLDATASIZE LT PUSH2 0x115 JUMPI PUSH1 0x0 CALLDATALOAD PUSH1 0xE0 SHR DUP1 PUSH4 0xA3EC138D GT PUSH2 0xA2 JUMPI DUP1 PUSH4 0xC19D93FB GT PUSH2 0x71 JUMPI DUP1 PUSH4 0xC19D93FB EQ PUSH2 0x2EC JUMPI DUP1 PUSH4 0xD70C6F4E EQ PUSH2 0x30A JUMPI DUP1 PUSH4 0xDF9F1A07 EQ PUSH2 0x33A JUMPI DUP1 PUSH4 0xF3A8286F EQ PUSH2 0x358 JUMPI DUP1 PUSH4 0xFE2442D7 EQ PUSH2 0x376 JUMPI PUSH2 0x115 JUMP JUMPDEST DUP1 PUSH4 0xA3EC138D EQ PUSH2 0x264 JUMPI DUP1 PUSH4 0xB54B5D62 EQ PUSH2 0x294 JUMPI DUP1 PUSH4 0xB9223946 EQ PUSH2 0x2C6 JUMPI DUP1 PUSH4 0xB9F05F2F EQ PUSH2 0x2D0 JUMPI PUSH2 0x115 JUMP JUMPDEST DUP1 PUSH4 0x3A873314 GT PUSH2 0xE9 JUMPI DUP1 PUSH4 0x3A873314 EQ PUSH2 0x1B8 JUMPI DUP1 PUSH4 0x4763D4E7 EQ PUSH2 0x1D6 JUMPI DUP1 PUSH4 0x4C0A6AF0 EQ PUSH2 0x20A JUMPI DUP1 PUSH4 0x53357AD0 EQ PUSH2 0x214 JUMPI DUP1 PUSH4 0x853DCA3A EQ PUSH2 0x232 JUMPI PUSH2 0x115 JUMP JUMPDEST DUP1 PUSH3 0xAA7464 EQ PUSH2 0x11A JUMPI DUP1 PUSH4 0x2C0A3F89 EQ PUSH2 0x138 JUMPI DUP1 PUSH4 0x2D35A8A2 EQ PUSH2 0x168 JUMPI DUP1 PUSH4 0x3477EE2E EQ PUSH2 0x186 JUMPI JUMPDEST PUSH1 0x0 DUP1 REVERT JUMPDEST PUSH2 0x122 PUSH2 0x3A9 JUMP JUMPDEST PUSH1 0x40 MLOAD PUSH2 0x12F SWAP2 SWAP1 PUSH2 0x151E JUMP JUMPDEST PUSH1 0x40 MLOAD DUP1 SWAP2 SUB SWAP1 RETURN JUMPDEST PUSH2 0x152 PUSH1 0x4 DUP1 CALLDATASIZE SUB DUP2 ADD SWAP1 PUSH2 0x14D SWAP2 SWAP1 PUSH2 0x11D8 JUMP JUMPDEST PUSH2 0x3AF JUMP JUMPDEST PUSH1 0x40 MLOAD PUSH2 0x15F SWAP2 SWAP1 PUSH2 0x141E JUMP JUMPDEST PUSH1 0x40 MLOAD DUP1 SWAP2 SUB SWAP1 RETURN JUMPDEST PUSH2 0x170 PUSH2 0x6E9 JUMP JUMPDEST PUSH1 0x40 MLOAD PUSH2 0x17D SWAP2 SWAP1 PUSH2 0x151E JUMP JUMPDEST PUSH1 0x40 MLOAD DUP1 SWAP2 SUB SWAP1 RETURN JUMPDEST PUSH2 0x1A0 PUSH1 0x4 DUP1 CALLDATASIZE SUB DUP2 ADD SWAP1 PUSH2 0x19B SWAP2 SWAP1 PUSH2 0x11AB JUMP JUMPDEST PUSH2 0x6EF JUMP JUMPDEST PUSH1 0x40 MLOAD PUSH2 0x1AF SWAP4 SWAP3 SWAP2 SWAP1 PUSH2 0x1539 JUMP JUMPDEST PUSH1 0x40 MLOAD DUP1 SWAP2 SUB SWAP1 RETURN JUMPDEST PUSH2 0x1C0 PUSH2 0x7A1 JUMP JUMPDEST PUSH1 0x40 MLOAD PUSH2 0x1CD SWAP2 SWAP1 PUSH2 0x13FC JUMP JUMPDEST PUSH1 0x40 MLOAD DUP1 SWAP2 SUB SWAP1 RETURN JUMPDEST PUSH2 0x1F0 PUSH1 0x4 DUP1 CALLDATASIZE SUB DUP2 ADD SWAP1 PUSH2 0x1EB SWAP2 SWAP1 PUSH2 0x113E JUMP JUMPDEST PUSH2 0x90B JUMP JUMPDEST PUSH1 0x40 MLOAD PUSH2 0x201 SWAP6 SWAP5 SWAP4 SWAP3 SWAP2 SWAP1 PUSH2 0x1439 JUMP JUMPDEST PUSH1 0x40 MLOAD DUP1 SWAP2 SUB SWAP1 RETURN JUMPDEST PUSH2 0x212 PUSH2 0x95B JUMP JUMPDEST STOP JUMPDEST PUSH2 0x21C PUSH2 0xA22 JUMP JUMPDEST PUSH1 0x40 MLOAD PUSH2 0x229 SWAP2 SWAP1 PUSH2 0x13E1 JUMP JUMPDEST PUSH1 0x40 MLOAD DUP1 SWAP2 SUB SWAP1 RETURN JUMPDEST PUSH2 0x24C PUSH1 0x4 DUP1 CALLDATASIZE SUB DUP2 ADD SWAP1 PUSH2 0x247 SWAP2 SWAP1 PUSH2 0x11D8 JUMP JUMPDEST PUSH2 0xA46 JUMP JUMPDEST PUSH1 0x40 MLOAD PUSH2 0x25B SWAP4 SWAP3 SWAP2 SWAP1 PUSH2 0x1539 JUMP JUMPDEST PUSH1 0x40 MLOAD DUP1 SWAP2 SUB SWAP1 RETURN JUMPDEST PUSH2 0x27E PUSH1 0x4 DUP1 CALLDATASIZE SUB DUP2 ADD SWAP1 PUSH2 0x279 SWAP2 SWAP1 PUSH2 0x113E JUMP JUMPDEST PUSH2 0xB15 JUMP JUMPDEST PUSH1 0x40 MLOAD PUSH2 0x28B SWAP2 SWAP1 PUSH2 0x141E JUMP JUMPDEST PUSH1 0x40 MLOAD DUP1 SWAP2 SUB SWAP1 RETURN JUMPDEST PUSH2 0x2AE PUSH1 0x4 DUP1 CALLDATASIZE SUB DUP2 ADD SWAP1 PUSH2 0x2A9 SWAP2 SWAP1 PUSH2 0x11D8 JUMP JUMPDEST PUSH2 0xB35 JUMP JUMPDEST PUSH1 0x40 MLOAD PUSH2 0x2BD SWAP4 SWAP3 SWAP2 SWAP1 PUSH2 0x1539 JUMP JUMPDEST PUSH1 0x40 MLOAD DUP1 SWAP2 SUB SWAP1 RETURN JUMPDEST PUSH2 0x2CE PUSH2 0xBF4 JUMP JUMPDEST STOP JUMPDEST PUSH2 0x2EA PUSH1 0x4 DUP1 CALLDATASIZE SUB DUP2 ADD SWAP1 PUSH2 0x2E5 SWAP2 SWAP1 PUSH2 0x116B JUMP JUMPDEST PUSH2 0xCC4 JUMP JUMPDEST STOP JUMPDEST PUSH2 0x2F4 PUSH2 0xF57 JUMP JUMPDEST PUSH1 0x40 MLOAD PUSH2 0x301 SWAP2 SWAP1 PUSH2 0x14C3 JUMP JUMPDEST PUSH1 0x40 MLOAD DUP1 SWAP2 SUB SWAP1 RETURN JUMPDEST PUSH2 0x324 PUSH1 0x4 DUP1 CALLDATASIZE SUB DUP2 ADD SWAP1 PUSH2 0x31F SWAP2 SWAP1 PUSH2 0x11D8 JUMP JUMPDEST PUSH2 0xF6A JUMP JUMPDEST PUSH1 0x40 MLOAD PUSH2 0x331 SWAP2 SWAP1 PUSH2 0x151E JUMP JUMPDEST PUSH1 0x40 MLOAD DUP1 SWAP2 SUB SWAP1 RETURN JUMPDEST PUSH2 0x342 PUSH2 0xFA7 JUMP JUMPDEST PUSH1 0x40 MLOAD PUSH2 0x34F SWAP2 SWAP1 PUSH2 0x151E JUMP JUMPDEST PUSH1 0x40 MLOAD DUP1 SWAP2 SUB SWAP1 RETURN JUMPDEST PUSH2 0x360 PUSH2 0xFAD JUMP JUMPDEST PUSH1 0x40 MLOAD PUSH2 0x36D SWAP2 SWAP1 PUSH2 0x151E JUMP JUMPDEST PUSH1 0x40 MLOAD DUP1 SWAP2 SUB SWAP1 RETURN JUMPDEST PUSH2 0x390 PUSH1 0x4 DUP1 CALLDATASIZE SUB DUP2 ADD SWAP1 PUSH2 0x38B SWAP2 SWAP1 PUSH2 0x11AB JUMP JUMPDEST PUSH2 0xFB3 JUMP JUMPDEST PUSH1 0x40 MLOAD PUSH2 0x3A0 SWAP5 SWAP4 SWAP3 SWAP2 SWAP1 PUSH2 0x1577 JUMP JUMPDEST PUSH1 0x40 MLOAD DUP1 SWAP2 SUB SWAP1 RETURN JUMPDEST PUSH1 0x3 SLOAD DUP2 JUMP JUMPDEST PUSH1 0x0 PUSH1 0x1 DUP1 PUSH1 0x2 DUP2 GT ISZERO PUSH2 0x3C6 JUMPI PUSH2 0x3C5 PUSH2 0x179B JUMP JUMPDEST JUMPDEST PUSH1 0xD PUSH1 0x0 SWAP1 SLOAD SWAP1 PUSH2 0x100 EXP SWAP1 DIV PUSH1 0xFF AND PUSH1 0x2 DUP2 GT ISZERO PUSH2 0x3E8 JUMPI PUSH2 0x3E7 PUSH2 0x179B JUMP JUMPDEST JUMPDEST EQ PUSH2 0x3F2 JUMPI PUSH1 0x0 DUP1 REVERT JUMPDEST PUSH1 0x0 PUSH1 0x9 PUSH1 0x0 CALLER PUSH20 0xFFFFFFFFFFFFFFFFFFFFFFFFFFFFFFFFFFFFFFFF AND PUSH20 0xFFFFFFFFFFFFFFFFFFFFFFFFFFFFFFFFFFFFFFFF AND DUP2 MSTORE PUSH1 0x20 ADD SWAP1 DUP2 MSTORE PUSH1 0x20 ADD PUSH1 0x0 KECCAK256 PUSH1 0x0 ADD PUSH1 0x0 SWAP1 SLOAD SWAP1 PUSH2 0x100 EXP SWAP1 DIV PUSH1 0xFF AND DUP1 ISZERO PUSH2 0x49D JUMPI POP PUSH1 0x9 PUSH1 0x0 CALLER PUSH20 0xFFFFFFFFFFFFFFFFFFFFFFFFFFFFFFFFFFFFFFFF AND PUSH20 0xFFFFFFFFFFFFFFFFFFFFFFFFFFFFFFFFFFFFFFFF AND DUP2 MSTORE PUSH1 0x20 ADD SWAP1 DUP2 MSTORE PUSH1 0x20 ADD PUSH1 0x0 KECCAK256 PUSH1 0x0 ADD PUSH1 0x1 SWAP1 SLOAD SWAP1 PUSH2 0x100 EXP SWAP1 DIV PUSH1 0xFF AND ISZERO JUMPDEST ISZERO PUSH2 0x6DE JUMPI DUP5 PUSH1 0x9 PUSH1 0x0 CALLER PUSH20 0xFFFFFFFFFFFFFFFFFFFFFFFFFFFFFFFFFFFFFFFF AND PUSH20 0xFFFFFFFFFFFFFFFFFFFFFFFFFFFFFFFFFFFFFFFF AND DUP2 MSTORE PUSH1 0x20 ADD SWAP1 DUP2 MSTORE PUSH1 0x20 ADD PUSH1 0x0 KECCAK256 PUSH1 0x1 ADD DUP2 SWAP1 SSTORE POP DUP4 PUSH1 0x9 PUSH1 0x0 CALLER PUSH20 0xFFFFFFFFFFFFFFFFFFFFFFFFFFFFFFFFFFFFFFFF AND PUSH20 0xFFFFFFFFFFFFFFFFFFFFFFFFFFFFFFFFFFFFFFFF AND DUP2 MSTORE PUSH1 0x20 ADD SWAP1 DUP2 MSTORE PUSH1 0x20 ADD PUSH1 0x0 KECCAK256 PUSH1 0x3 ADD DUP2 SWAP1 SSTORE POP PUSH1 0x1 PUSH1 0x9 PUSH1 0x0 CALLER PUSH20 0xFFFFFFFFFFFFFFFFFFFFFFFFFFFFFFFFFFFFFFFF AND PUSH20 0xFFFFFFFFFFFFFFFFFFFFFFFFFFFFFFFFFFFFFFFF AND DUP2 MSTORE PUSH1 0x20 ADD SWAP1 DUP2 MSTORE PUSH1 0x20 ADD PUSH1 0x0 KECCAK256 PUSH1 0x0 ADD PUSH1 0x1 PUSH2 0x100 EXP DUP2 SLOAD DUP2 PUSH1 0xFF MUL NOT AND SWAP1 DUP4 ISZERO ISZERO MUL OR SWAP1 SSTORE POP PUSH1 0x8 PUSH1 0x0 DUP6 DUP2 MSTORE PUSH1 0x20 ADD SWAP1 DUP2 MSTORE PUSH1 0x20 ADD PUSH1 0x0 KECCAK256 PUSH1 0x3 ADD PUSH1 0x0 DUP2 SLOAD DUP1 SWAP3 SWAP2 SWAP1 PUSH2 0x5B2 SWAP1 PUSH2 0x1723 JUMP JUMPDEST SWAP2 SWAP1 POP SSTORE POP PUSH1 0x7 PUSH1 0x0 DUP7 DUP2 MSTORE PUSH1 0x20 ADD SWAP1 DUP2 MSTORE PUSH1 0x20 ADD PUSH1 0x0 KECCAK256 PUSH1 0x2 ADD PUSH1 0x0 DUP2 SLOAD DUP1 SWAP3 SWAP2 SWAP1 PUSH2 0x5DE SWAP1 PUSH2 0x1723 JUMP JUMPDEST SWAP2 SWAP1 POP SSTORE POP PUSH1 0x4 PUSH1 0x0 DUP2 SLOAD DUP1 SWAP3 SWAP2 SWAP1 PUSH2 0x5F6 SWAP1 PUSH2 0x1723 JUMP JUMPDEST SWAP2 SWAP1 POP SSTORE POP PUSH1 0x1 SWAP1 POP DUP1 PUSH1 0xA PUSH1 0x0 CALLER PUSH20 0xFFFFFFFFFFFFFFFFFFFFFFFFFFFFFFFFFFFFFFFF AND PUSH20 0xFFFFFFFFFFFFFFFFFFFFFFFFFFFFFFFFFFFFFFFF AND DUP2 MSTORE PUSH1 0x20 ADD SWAP1 DUP2 MSTORE PUSH1 0x20 ADD PUSH1 0x0 KECCAK256 PUSH1 0x0 PUSH2 0x100 EXP DUP2 SLOAD DUP2 PUSH1 0xFF MUL NOT AND SWAP1 DUP4 ISZERO ISZERO MUL OR SWAP1 SSTORE POP PUSH1 0xC PUSH1 0x0 DUP6 DUP2 MSTORE PUSH1 0x20 ADD SWAP1 DUP2 MSTORE PUSH1 0x20 ADD PUSH1 0x0 KECCAK256 DUP6 DUP2 SLOAD DUP2 LT PUSH2 0x67B JUMPI PUSH2 0x67A PUSH2 0x17F9 JUMP JUMPDEST JUMPDEST SWAP1 PUSH1 0x0 MSTORE PUSH1 0x20 PUSH1 0x0 KECCAK256 SWAP1 PUSH1 0x3 MUL ADD PUSH1 0x2 ADD PUSH1 0x0 DUP2 SLOAD DUP1 SWAP3 SWAP2 SWAP1 PUSH2 0x69D SWAP1 PUSH2 0x1723 JUMP JUMPDEST SWAP2 SWAP1 POP SSTORE POP PUSH32 0x29A25B3D0B6FF7E5DE2A60A2E8E76D1BDAF4894EC18C598CC1687213F442C5CB DUP2 DUP7 DUP7 PUSH1 0x40 MLOAD PUSH2 0x6D5 SWAP4 SWAP3 SWAP2 SWAP1 PUSH2 0x148C JUMP JUMPDEST PUSH1 0x40 MLOAD DUP1 SWAP2 SUB SWAP1 LOG1 JUMPDEST DUP1 SWAP3 POP POP POP SWAP3 SWAP2 POP POP JUMP JUMPDEST PUSH1 0x1 SLOAD DUP2 JUMP JUMPDEST PUSH1 0x7 PUSH1 0x20 MSTORE DUP1 PUSH1 0x0 MSTORE PUSH1 0x40 PUSH1 0x0 KECCAK256 PUSH1 0x0 SWAP2 POP SWAP1 POP DUP1 PUSH1 0x0 ADD SLOAD SWAP1 DUP1 PUSH1 0x1 ADD DUP1 SLOAD PUSH2 0x718 SWAP1 PUSH2 0x16F1 JUMP JUMPDEST DUP1 PUSH1 0x1F ADD PUSH1 0x20 DUP1 SWAP2 DIV MUL PUSH1 0x20 ADD PUSH1 0x40 MLOAD SWAP1 DUP2 ADD PUSH1 0x40 MSTORE DUP1 SWAP3 SWAP2 SWAP1 DUP2 DUP2 MSTORE PUSH1 0x20 ADD DUP3 DUP1 SLOAD PUSH2 0x744 SWAP1 PUSH2 0x16F1 JUMP JUMPDEST DUP1 ISZERO PUSH2 0x791 JUMPI DUP1 PUSH1 0x1F LT PUSH2 0x766 JUMPI PUSH2 0x100 DUP1 DUP4 SLOAD DIV MUL DUP4 MSTORE SWAP2 PUSH1 0x20 ADD SWAP2 PUSH2 0x791 JUMP JUMPDEST DUP3 ADD SWAP2 SWAP1 PUSH1 0x0 MSTORE PUSH1 0x20 PUSH1 0x0 KECCAK256 SWAP1 JUMPDEST DUP2 SLOAD DUP2 MSTORE SWAP1 PUSH1 0x1 ADD SWAP1 PUSH1 0x20 ADD DUP1 DUP4 GT PUSH2 0x774 JUMPI DUP3 SWAP1 SUB PUSH1 0x1F AND DUP3 ADD SWAP2 JUMPDEST POP POP POP POP POP SWAP1 DUP1 PUSH1 0x2 ADD SLOAD SWAP1 POP DUP4 JUMP JUMPDEST PUSH1 0x60 PUSH1 0x0 PUSH1 0x2 SLOAD PUSH8 0xFFFFFFFFFFFFFFFF DUP2 GT ISZERO PUSH2 0x7C1 JUMPI PUSH2 0x7C0 PUSH2 0x1828 JUMP JUMPDEST JUMPDEST PUSH1 0x40 MLOAD SWAP1 DUP1 DUP3 MSTORE DUP1 PUSH1 0x20 MUL PUSH1 0x20 ADD DUP3 ADD PUSH1 0x40 MSTORE DUP1 ISZERO PUSH2 0x7F4 JUMPI DUP2 PUSH1 0x20 ADD JUMPDEST PUSH1 0x60 DUP2 MSTORE PUSH1 0x20 ADD SWAP1 PUSH1 0x1 SWAP1 SUB SWAP1 DUP2 PUSH2 0x7DF JUMPI SWAP1 POP JUMPDEST POP SWAP1 POP PUSH1 0x0 PUSH1 0x1 SWAP1 POP JUMPDEST PUSH1 0x2 SLOAD DUP2 GT PUSH2 0x903 JUMPI PUSH1 0x0 PUSH1 0x1 SLOAD PUSH8 0xFFFFFFFFFFFFFFFF DUP2 GT ISZERO PUSH2 0x825 JUMPI PUSH2 0x824 PUSH2 0x1828 JUMP JUMPDEST JUMPDEST PUSH1 0x40 MLOAD SWAP1 DUP1 DUP3 MSTORE DUP1 PUSH1 0x20 MUL PUSH1 0x20 ADD DUP3 ADD PUSH1 0x40 MSTORE DUP1 ISZERO PUSH2 0x853 JUMPI DUP2 PUSH1 0x20 ADD PUSH1 0x20 DUP3 MUL DUP1 CALLDATASIZE DUP4 CALLDATACOPY DUP1 DUP3 ADD SWAP2 POP POP SWAP1 POP JUMPDEST POP SWAP1 POP PUSH1 0x0 PUSH1 0x1 SWAP1 POP JUMPDEST PUSH1 0x1 SLOAD DUP2 GT PUSH2 0x8CF JUMPI PUSH1 0xC PUSH1 0x0 DUP5 DUP2 MSTORE PUSH1 0x20 ADD SWAP1 DUP2 MSTORE PUSH1 0x20 ADD PUSH1 0x0 KECCAK256 DUP2 DUP2 SLOAD DUP2 LT PUSH2 0x88B JUMPI PUSH2 0x88A PUSH2 0x17F9 JUMP JUMPDEST JUMPDEST SWAP1 PUSH1 0x0 MSTORE PUSH1 0x20 PUSH1 0x0 KECCAK256 SWAP1 PUSH1 0x3 MUL ADD PUSH1 0x2 ADD SLOAD DUP3 DUP3 DUP2 MLOAD DUP2 LT PUSH2 0x8B0 JUMPI PUSH2 0x8AF PUSH2 0x17F9 JUMP JUMPDEST JUMPDEST PUSH1 0x20 MUL PUSH1 0x20 ADD ADD DUP2 DUP2 MSTORE POP POP DUP1 DUP1 PUSH2 0x8C7 SWAP1 PUSH2 0x1723 JUMP JUMPDEST SWAP2 POP POP PUSH2 0x85D JUMP JUMPDEST POP DUP1 DUP4 DUP4 DUP2 MLOAD DUP2 LT PUSH2 0x8E4 JUMPI PUSH2 0x8E3 PUSH2 0x17F9 JUMP JUMPDEST JUMPDEST PUSH1 0x20 MUL PUSH1 0x20 ADD ADD DUP2 SWAP1 MSTORE POP POP DUP1 DUP1 PUSH2 0x8FB SWAP1 PUSH2 0x1723 JUMP JUMPDEST SWAP2 POP POP PUSH2 0x7FE JUMP JUMPDEST POP DUP1 SWAP2 POP POP SWAP1 JUMP JUMPDEST PUSH1 0x9 PUSH1 0x20 MSTORE DUP1 PUSH1 0x0 MSTORE PUSH1 0x40 PUSH1 0x0 KECCAK256 PUSH1 0x0 SWAP2 POP SWAP1 POP DUP1 PUSH1 0x0 ADD PUSH1 0x0 SWAP1 SLOAD SWAP1 PUSH2 0x100 EXP SWAP1 DIV PUSH1 0xFF AND SWAP1 DUP1 PUSH1 0x0 ADD PUSH1 0x1 SWAP1 SLOAD SWAP1 PUSH2 0x100 EXP SWAP1 DIV PUSH1 0xFF AND SWAP1 DUP1 PUSH1 0x1 ADD SLOAD SWAP1 DUP1 PUSH1 0x2 ADD SLOAD SWAP1 DUP1 PUSH1 0x3 ADD SLOAD SWAP1 POP DUP6 JUMP JUMPDEST PUSH1 0x0 DUP1 PUSH1 0x2 DUP2 GT ISZERO PUSH2 0x970 JUMPI PUSH2 0x96F PUSH2 0x179B JUMP JUMPDEST JUMPDEST PUSH1 0xD PUSH1 0x0 SWAP1 SLOAD SWAP1 PUSH2 0x100 EXP SWAP1 DIV PUSH1 0xFF AND PUSH1 0x2 DUP2 GT ISZERO PUSH2 0x992 JUMPI PUSH2 0x991 PUSH2 0x179B JUMP JUMPDEST JUMPDEST EQ PUSH2 0x99C JUMPI PUSH1 0x0 DUP1 REVERT JUMPDEST PUSH1 0x0 DUP1 SLOAD SWAP1 PUSH2 0x100 EXP SWAP1 DIV PUSH20 0xFFFFFFFFFFFFFFFFFFFFFFFFFFFFFFFFFFFFFFFF AND PUSH20 0xFFFFFFFFFFFFFFFFFFFFFFFFFFFFFFFFFFFFFFFF AND CALLER PUSH20 0xFFFFFFFFFFFFFFFFFFFFFFFFFFFFFFFFFFFFFFFF AND EQ PUSH2 0x9F4 JUMPI PUSH1 0x0 DUP1 REVERT JUMPDEST PUSH1 0x1 PUSH1 0xD PUSH1 0x0 PUSH2 0x100 EXP DUP2 SLOAD DUP2 PUSH1 0xFF MUL NOT AND SWAP1 DUP4 PUSH1 0x2 DUP2 GT ISZERO PUSH2 0xA1A JUMPI PUSH2 0xA19 PUSH2 0x179B JUMP JUMPDEST JUMPDEST MUL OR SWAP1 SSTORE POP POP JUMP JUMPDEST PUSH1 0x0 DUP1 SLOAD SWAP1 PUSH2 0x100 EXP SWAP1 DIV PUSH20 0xFFFFFFFFFFFFFFFFFFFFFFFFFFFFFFFFFFFFFFFF AND DUP2 JUMP JUMPDEST PUSH1 0xC PUSH1 0x20 MSTORE DUP2 PUSH1 0x0 MSTORE PUSH1 0x40 PUSH1 0x0 KECCAK256 DUP2 DUP2 SLOAD DUP2 LT PUSH2 0xA62 JUMPI PUSH1 0x0 DUP1 REVERT JUMPDEST SWAP1 PUSH1 0x0 MSTORE PUSH1 0x20 PUSH1 0x0 KECCAK256 SWAP1 PUSH1 0x3 MUL ADD PUSH1 0x0 SWAP2 POP SWAP2 POP POP DUP1 PUSH1 0x0 ADD SLOAD SWAP1 DUP1 PUSH1 0x1 ADD DUP1 SLOAD PUSH2 0xA8C SWAP1 PUSH2 0x16F1 JUMP JUMPDEST DUP1 PUSH1 0x1F ADD PUSH1 0x20 DUP1 SWAP2 DIV MUL PUSH1 0x20 ADD PUSH1 0x40 MLOAD SWAP1 DUP2 ADD PUSH1 0x40 MSTORE DUP1 SWAP3 SWAP2 SWAP1 DUP2 DUP2 MSTORE PUSH1 0x20 ADD DUP3 DUP1 SLOAD PUSH2 0xAB8 SWAP1 PUSH2 0x16F1 JUMP JUMPDEST DUP1 ISZERO PUSH2 0xB05 JUMPI DUP1 PUSH1 0x1F LT PUSH2 0xADA JUMPI PUSH2 0x100 DUP1 DUP4 SLOAD DIV MUL DUP4 MSTORE SWAP2 PUSH1 0x20 ADD SWAP2 PUSH2 0xB05 JUMP JUMPDEST DUP3 ADD SWAP2 SWAP1 PUSH1 0x0 MSTORE PUSH1 0x20 PUSH1 0x0 KECCAK256 SWAP1 JUMPDEST DUP2 SLOAD DUP2 MSTORE SWAP1 PUSH1 0x1 ADD SWAP1 PUSH1 0x20 ADD DUP1 DUP4 GT PUSH2 0xAE8 JUMPI DUP3 SWAP1 SUB PUSH1 0x1F AND DUP3 ADD SWAP2 JUMPDEST POP POP POP POP POP SWAP1 DUP1 PUSH1 0x2 ADD SLOAD SWAP1 POP DUP4 JUMP JUMPDEST PUSH1 0xA PUSH1 0x20 MSTORE DUP1 PUSH1 0x0 MSTORE PUSH1 0x40 PUSH1 0x0 KECCAK256 PUSH1 0x0 SWAP2 POP SLOAD SWAP1 PUSH2 0x100 EXP SWAP1 DIV PUSH1 0xFF AND DUP2 JUMP JUMPDEST PUSH1 0xB PUSH1 0x20 MSTORE DUP2 PUSH1 0x0 MSTORE PUSH1 0x40 PUSH1 0x0 KECCAK256 PUSH1 0x20 MSTORE DUP1 PUSH1 0x0 MSTORE PUSH1 0x40 PUSH1 0x0 KECCAK256 PUSH1 0x0 SWAP2 POP SWAP2 POP POP DUP1 PUSH1 0x0 ADD SLOAD SWAP1 DUP1 PUSH1 0x1 ADD DUP1 SLOAD PUSH2 0xB6B SWAP1 PUSH2 0x16F1 JUMP JUMPDEST DUP1 PUSH1 0x1F ADD PUSH1 0x20 DUP1 SWAP2 DIV MUL PUSH1 0x20 ADD PUSH1 0x40 MLOAD SWAP1 DUP2 ADD PUSH1 0x40 MSTORE DUP1 SWAP3 SWAP2 SWAP1 DUP2 DUP2 MSTORE PUSH1 0x20 ADD DUP3 DUP1 SLOAD PUSH2 0xB97 SWAP1 PUSH2 0x16F1 JUMP JUMPDEST DUP1 ISZERO PUSH2 0xBE4 JUMPI DUP1 PUSH1 0x1F LT PUSH2 0xBB9 JUMPI PUSH2 0x100 DUP1 DUP4 SLOAD DIV MUL DUP4 MSTORE SWAP2 PUSH1 0x20 ADD SWAP2 PUSH2 0xBE4 JUMP JUMPDEST DUP3 ADD SWAP2 SWAP1 PUSH1 0x0 MSTORE PUSH1 0x20 PUSH1 0x0 KECCAK256 SWAP1 JUMPDEST DUP2 SLOAD DUP2 MSTORE SWAP1 PUSH1 0x1 ADD SWAP1 PUSH1 0x20 ADD DUP1 DUP4 GT PUSH2 0xBC7 JUMPI DUP3 SWAP1 SUB PUSH1 0x1F AND DUP3 ADD SWAP2 JUMPDEST POP POP POP POP POP SWAP1 DUP1 PUSH1 0x2 ADD SLOAD SWAP1 POP DUP4 JUMP JUMPDEST PUSH1 0x1 DUP1 PUSH1 0x2 DUP2 GT ISZERO PUSH2 0xC09 JUMPI PUSH2 0xC08 PUSH2 0x179B JUMP JUMPDEST JUMPDEST PUSH1 0xD PUSH1 0x0 SWAP1 SLOAD SWAP1 PUSH2 0x100 EXP SWAP1 DIV PUSH1 0xFF AND PUSH1 0x2 DUP2 GT ISZERO PUSH2 0xC2B JUMPI PUSH2 0xC2A PUSH2 0x179B JUMP JUMPDEST JUMPDEST EQ PUSH2 0xC35 JUMPI PUSH1 0x0 DUP1 REVERT JUMPDEST PUSH1 0x0 DUP1 SLOAD SWAP1 PUSH2 0x100 EXP SWAP1 DIV PUSH20 0xFFFFFFFFFFFFFFFFFFFFFFFFFFFFFFFFFFFFFFFF AND PUSH20 0xFFFFFFFFFFFFFFFFFFFFFFFFFFFFFFFFFFFFFFFF AND CALLER PUSH20 0xFFFFFFFFFFFFFFFFFFFFFFFFFFFFFFFFFFFFFFFF AND EQ PUSH2 0xC8D JUMPI PUSH1 0x0 DUP1 REVERT JUMPDEST PUSH1 0x2 PUSH1 0xD PUSH1 0x0 PUSH2 0x100 EXP DUP2 SLOAD DUP2 PUSH1 0xFF MUL NOT AND SWAP1 DUP4 PUSH1 0x2 DUP2 GT ISZERO PUSH2 0xCB3 JUMPI PUSH2 0xCB2 PUSH2 0x179B JUMP JUMPDEST JUMPDEST MUL OR SWAP1 SSTORE POP PUSH1 0x4 SLOAD PUSH1 0x5 DUP2 SWAP1 SSTORE POP POP JUMP JUMPDEST PUSH1 0x0 DUP1 PUSH1 0x2 DUP2 GT ISZERO PUSH2 0xCD9 JUMPI PUSH2 0xCD8 PUSH2 0x179B JUMP JUMPDEST JUMPDEST PUSH1 0xD PUSH1 0x0 SWAP1 SLOAD SWAP1 PUSH2 0x100 EXP SWAP1 DIV PUSH1 0xFF AND PUSH1 0x2 DUP2 GT ISZERO PUSH2 0xCFB JUMPI PUSH2 0xCFA PUSH2 0x179B JUMP JUMPDEST JUMPDEST EQ PUSH2 0xD05 JUMPI PUSH1 0x0 DUP1 REVERT JUMPDEST PUSH1 0x0 DUP1 SLOAD SWAP1 PUSH2 0x100 EXP SWAP1 DIV PUSH20 0xFFFFFFFFFFFFFFFFFFFFFFFFFFFFFFFFFFFFFFFF AND PUSH20 0xFFFFFFFFFFFFFFFFFFFFFFFFFFFFFFFFFFFFFFFF AND CALLER PUSH20 0xFFFFFFFFFFFFFFFFFFFFFFFFFFFFFFFFFFFFFFFF AND EQ PUSH2 0xD5D JUMPI PUSH1 0x0 DUP1 REVERT JUMPDEST PUSH1 0x0 ISZERO ISZERO PUSH1 0x9 PUSH1 0x0 DUP6 PUSH20 0xFFFFFFFFFFFFFFFFFFFFFFFFFFFFFFFFFFFFFFFF AND PUSH20 0xFFFFFFFFFFFFFFFFFFFFFFFFFFFFFFFFFFFFFFFF AND DUP2 MSTORE PUSH1 0x20 ADD SWAP1 DUP2 MSTORE PUSH1 0x20 ADD PUSH1 0x0 KECCAK256 PUSH1 0x0 ADD PUSH1 0x0 SWAP1 SLOAD SWAP1 PUSH2 0x100 EXP SWAP1 DIV PUSH1 0xFF AND ISZERO ISZERO EQ PUSH2 0xDF3 JUMPI PUSH1 0x40 MLOAD PUSH32 0x8C379A000000000000000000000000000000000000000000000000000000000 DUP2 MSTORE PUSH1 0x4 ADD PUSH2 0xDEA SWAP1 PUSH2 0x14FE JUMP JUMPDEST PUSH1 0x40 MLOAD DUP1 SWAP2 SUB SWAP1 REVERT JUMPDEST PUSH1 0x1 DUP3 LT ISZERO DUP1 ISZERO PUSH2 0xE06 JUMPI POP PUSH1 0x2 SLOAD DUP3 GT ISZERO JUMPDEST PUSH2 0xE45 JUMPI PUSH1 0x40 MLOAD PUSH32 0x8C379A000000000000000000000000000000000000000000000000000000000 DUP2 MSTORE PUSH1 0x4 ADD PUSH2 0xE3C SWAP1 PUSH2 0x14DE JUMP JUMPDEST PUSH1 0x40 MLOAD DUP1 SWAP2 SUB SWAP1 REVERT JUMPDEST PUSH2 0xE4D PUSH2 0x10E1 JUMP JUMPDEST PUSH1 0x1 DUP2 PUSH1 0x0 ADD SWAP1 ISZERO ISZERO SWAP1 DUP2 ISZERO ISZERO DUP2 MSTORE POP POP PUSH1 0x0 DUP2 PUSH1 0x20 ADD SWAP1 ISZERO ISZERO SWAP1 DUP2 ISZERO ISZERO DUP2 MSTORE POP POP PUSH1 0x0 DUP2 PUSH1 0x40 ADD DUP2 DUP2 MSTORE POP POP DUP3 DUP2 PUSH1 0x60 ADD DUP2 DUP2 MSTORE POP POP PUSH1 0x0 DUP2 PUSH1 0x80 ADD DUP2 DUP2 MSTORE POP POP DUP1 PUSH1 0x9 PUSH1 0x0 DUP7 PUSH20 0xFFFFFFFFFFFFFFFFFFFFFFFFFFFFFFFFFFFFFFFF AND PUSH20 0xFFFFFFFFFFFFFFFFFFFFFFFFFFFFFFFFFFFFFFFF AND DUP2 MSTORE PUSH1 0x20 ADD SWAP1 DUP2 MSTORE PUSH1 0x20 ADD PUSH1 0x0 KECCAK256 PUSH1 0x0 DUP3 ADD MLOAD DUP2 PUSH1 0x0 ADD PUSH1 0x0 PUSH2 0x100 EXP DUP2 SLOAD DUP2 PUSH1 0xFF MUL NOT AND SWAP1 DUP4 ISZERO ISZERO MUL OR SWAP1 SSTORE POP PUSH1 0x20 DUP3 ADD MLOAD DUP2 PUSH1 0x0 ADD PUSH1 0x1 PUSH2 0x100 EXP DUP2 SLOAD DUP2 PUSH1 0xFF MUL NOT AND SWAP1 DUP4 ISZERO ISZERO MUL OR SWAP1 SSTORE POP PUSH1 0x40 DUP3 ADD MLOAD DUP2 PUSH1 0x1 ADD SSTORE PUSH1 0x60 DUP3 ADD MLOAD DUP2 PUSH1 0x2 ADD SSTORE PUSH1 0x80 DUP3 ADD MLOAD DUP2 PUSH1 0x3 ADD SSTORE SWAP1 POP POP PUSH2 0xF39 DUP4 PUSH2 0x106B JUMP JUMPDEST PUSH1 0x3 PUSH1 0x0 DUP2 SLOAD DUP1 SWAP3 SWAP2 SWAP1 PUSH2 0xF4C SWAP1 PUSH2 0x1723 JUMP JUMPDEST SWAP2 SWAP1 POP SSTORE POP POP POP POP POP JUMP JUMPDEST PUSH1 0xD PUSH1 0x0 SWAP1 SLOAD SWAP1 PUSH2 0x100 EXP SWAP1 DIV PUSH1 0xFF AND DUP2 JUMP JUMPDEST PUSH1 0x6 DUP3 DUP2 SLOAD DUP2 LT PUSH2 0xF7A JUMPI PUSH1 0x0 DUP1 REVERT JUMPDEST SWAP1 PUSH1 0x0 MSTORE PUSH1 0x20 PUSH1 0x0 KECCAK256 ADD DUP2 DUP2 SLOAD DUP2 LT PUSH2 0xF92 JUMPI PUSH1 0x0 DUP1 REVERT JUMPDEST SWAP1 PUSH1 0x0 MSTORE PUSH1 0x20 PUSH1 0x0 KECCAK256 ADD PUSH1 0x0 SWAP2 POP SWAP2 POP POP SLOAD DUP2 JUMP JUMPDEST PUSH1 0x2 SLOAD DUP2 JUMP JUMPDEST PUSH1 0x5 SLOAD DUP2 JUMP JUMPDEST PUSH1 0x8 PUSH1 0x20 MSTORE DUP1 PUSH1 0x0 MSTORE PUSH1 0x40 PUSH1 0x0 KECCAK256 PUSH1 0x0 SWAP2 POP SWAP1 POP DUP1 PUSH1 0x0 ADD SLOAD SWAP1 DUP1 PUSH1 0x1 ADD DUP1 SLOAD PUSH2 0xFDC SWAP1 PUSH2 0x16F1 JUMP JUMPDEST DUP1 PUSH1 0x1F ADD PUSH1 0x20 DUP1 SWAP2 DIV MUL PUSH1 0x20 ADD PUSH1 0x40 MLOAD SWAP1 DUP2 ADD PUSH1 0x40 MSTORE DUP1 SWAP3 SWAP2 SWAP1 DUP2 DUP2 MSTORE PUSH1 0x20 ADD DUP3 DUP1 SLOAD PUSH2 0x1008 SWAP1 PUSH2 0x16F1 JUMP JUMPDEST DUP1 ISZERO PUSH2 0x1055 JUMPI DUP1 PUSH1 0x1F LT PUSH2 0x102A JUMPI PUSH2 0x100 DUP1 DUP4 SLOAD DIV MUL DUP4 MSTORE SWAP2 PUSH1 0x20 ADD SWAP2 PUSH2 0x1055 JUMP JUMPDEST DUP3 ADD SWAP2 SWAP1 PUSH1 0x0 MSTORE PUSH1 0x20 PUSH1 0x0 KECCAK256 SWAP1 JUMPDEST DUP2 SLOAD DUP2 MSTORE SWAP1 PUSH1 0x1 ADD SWAP1 PUSH1 0x20 ADD DUP1 DUP4 GT PUSH2 0x1038 JUMPI DUP3 SWAP1 SUB PUSH1 0x1F AND DUP3 ADD SWAP2 JUMPDEST POP POP POP POP POP SWAP1 DUP1 PUSH1 0x2 ADD SLOAD SWAP1 DUP1 PUSH1 0x3 ADD SLOAD SWAP1 POP DUP5 JUMP JUMPDEST PUSH1 0x0 PUSH1 0x1 SWAP1 POP JUMPDEST PUSH1 0x2 SLOAD DUP2 GT PUSH2 0x10DD JUMPI DUP2 PUSH1 0x8 PUSH1 0x0 DUP4 DUP2 MSTORE PUSH1 0x20 ADD SWAP1 DUP2 MSTORE PUSH1 0x20 ADD PUSH1 0x0 KECCAK256 PUSH1 0x0 ADD SLOAD EQ ISZERO PUSH2 0x10CA JUMPI PUSH1 0x8 PUSH1 0x0 DUP3 DUP2 MSTORE PUSH1 0x20 ADD SWAP1 DUP2 MSTORE PUSH1 0x20 ADD PUSH1 0x0 KECCAK256 PUSH1 0x2 ADD PUSH1 0x0 DUP2 SLOAD DUP1 SWAP3 SWAP2 SWAP1 PUSH2 0x10C0 SWAP1 PUSH2 0x1723 JUMP JUMPDEST SWAP2 SWAP1 POP SSTORE POP PUSH2 0x10DD JUMP JUMPDEST DUP1 DUP1 PUSH2 0x10D5 SWAP1 PUSH2 0x1723 JUMP JUMPDEST SWAP2 POP POP PUSH2 0x1072 JUMP JUMPDEST POP POP JUMP JUMPDEST PUSH1 0x40 MLOAD DUP1 PUSH1 0xA0 ADD PUSH1 0x40 MSTORE DUP1 PUSH1 0x0 ISZERO ISZERO DUP2 MSTORE PUSH1 0x20 ADD PUSH1 0x0 ISZERO ISZERO DUP2 MSTORE PUSH1 0x20 ADD PUSH1 0x0 DUP2 MSTORE PUSH1 0x20 ADD PUSH1 0x0 DUP2 MSTORE PUSH1 0x20 ADD PUSH1 0x0 DUP2 MSTORE POP SWAP1 JUMP JUMPDEST PUSH1 0x0 DUP2 CALLDATALOAD SWAP1 POP PUSH2 0x1123 DUP2 PUSH2 0x18F9 JUMP JUMPDEST SWAP3 SWAP2 POP POP JUMP JUMPDEST PUSH1 0x0 DUP2 CALLDATALOAD SWAP1 POP PUSH2 0x1138 DUP2 PUSH2 0x1910 JUMP JUMPDEST SWAP3 SWAP2 POP POP JUMP JUMPDEST PUSH1 0x0 PUSH1 0x20 DUP3 DUP5 SUB SLT ISZERO PUSH2 0x1154 JUMPI PUSH2 0x1153 PUSH2 0x1857 JUMP JUMPDEST JUMPDEST PUSH1 0x0 PUSH2 0x1162 DUP5 DUP3 DUP6 ADD PUSH2 0x1114 JUMP JUMPDEST SWAP2 POP POP SWAP3 SWAP2 POP POP JUMP JUMPDEST PUSH1 0x0 DUP1 PUSH1 0x40 DUP4 DUP6 SUB SLT ISZERO PUSH2 0x1182 JUMPI PUSH2 0x1181 PUSH2 0x1857 JUMP JUMPDEST JUMPDEST PUSH1 0x0 PUSH2 0x1190 DUP6 DUP3 DUP7 ADD PUSH2 0x1114 JUMP JUMPDEST SWAP3 POP POP PUSH1 0x20 PUSH2 0x11A1 DUP6 DUP3 DUP7 ADD PUSH2 0x1129 JUMP JUMPDEST SWAP2 POP POP SWAP3 POP SWAP3 SWAP1 POP JUMP JUMPDEST PUSH1 0x0 PUSH1 0x20 DUP3 DUP5 SUB SLT ISZERO PUSH2 0x11C1 JUMPI PUSH2 0x11C0 PUSH2 0x1857 JUMP JUMPDEST JUMPDEST PUSH1 0x0 PUSH2 0x11CF DUP5 DUP3 DUP6 ADD PUSH2 0x1129 JUMP JUMPDEST SWAP2 POP POP SWAP3 SWAP2 POP POP JUMP JUMPDEST PUSH1 0x0 DUP1 PUSH1 0x40 DUP4 DUP6 SUB SLT ISZERO PUSH2 0x11EF JUMPI PUSH2 0x11EE PUSH2 0x1857 JUMP JUMPDEST JUMPDEST PUSH1 0x0 PUSH2 0x11FD DUP6 DUP3 DUP7 ADD PUSH2 0x1129 JUMP JUMPDEST SWAP3 POP POP PUSH1 0x20 PUSH2 0x120E DUP6 DUP3 DUP7 ADD PUSH2 0x1129 JUMP JUMPDEST SWAP2 POP POP SWAP3 POP SWAP3 SWAP1 POP JUMP JUMPDEST PUSH1 0x0 PUSH2 0x1224 DUP4 DUP4 PUSH2 0x12C8 JUMP JUMPDEST SWAP1 POP SWAP3 SWAP2 POP POP JUMP JUMPDEST PUSH1 0x0 PUSH2 0x1238 DUP4 DUP4 PUSH2 0x13C3 JUMP JUMPDEST PUSH1 0x20 DUP4 ADD SWAP1 POP SWAP3 SWAP2 POP POP JUMP JUMPDEST PUSH2 0x124D DUP2 PUSH2 0x1651 JUMP JUMPDEST DUP3 MSTORE POP POP JUMP JUMPDEST PUSH1 0x0 PUSH2 0x125E DUP3 PUSH2 0x15E3 JUMP JUMPDEST PUSH2 0x1268 DUP2 DUP6 PUSH2 0x161E JUMP JUMPDEST SWAP4 POP DUP4 PUSH1 0x20 DUP3 MUL DUP6 ADD PUSH2 0x127A DUP6 PUSH2 0x15C3 JUMP JUMPDEST DUP1 PUSH1 0x0 JUMPDEST DUP6 DUP2 LT ISZERO PUSH2 0x12B6 JUMPI DUP5 DUP5 SUB DUP10 MSTORE DUP2 MLOAD PUSH2 0x1297 DUP6 DUP3 PUSH2 0x1218 JUMP JUMPDEST SWAP5 POP PUSH2 0x12A2 DUP4 PUSH2 0x1604 JUMP JUMPDEST SWAP3 POP PUSH1 0x20 DUP11 ADD SWAP10 POP POP PUSH1 0x1 DUP2 ADD SWAP1 POP PUSH2 0x127E JUMP JUMPDEST POP DUP3 SWAP8 POP DUP8 SWAP6 POP POP POP POP POP POP SWAP3 SWAP2 POP POP JUMP JUMPDEST PUSH1 0x0 PUSH2 0x12D3 DUP3 PUSH2 0x15EE JUMP JUMPDEST PUSH2 0x12DD DUP2 DUP6 PUSH2 0x162F JUMP JUMPDEST SWAP4 POP PUSH2 0x12E8 DUP4 PUSH2 0x15D3 JUMP JUMPDEST DUP1 PUSH1 0x0 JUMPDEST DUP4 DUP2 LT ISZERO PUSH2 0x1319 JUMPI DUP2 MLOAD PUSH2 0x1300 DUP9 DUP3 PUSH2 0x122C JUMP JUMPDEST SWAP8 POP PUSH2 0x130B DUP4 PUSH2 0x1611 JUMP JUMPDEST SWAP3 POP POP PUSH1 0x1 DUP2 ADD SWAP1 POP PUSH2 0x12EC JUMP JUMPDEST POP DUP6 SWAP4 POP POP POP POP SWAP3 SWAP2 POP POP JUMP JUMPDEST PUSH2 0x132F DUP2 PUSH2 0x1663 JUMP JUMPDEST DUP3 MSTORE POP POP JUMP JUMPDEST PUSH2 0x133E DUP2 PUSH2 0x16AC JUMP JUMPDEST DUP3 MSTORE POP POP JUMP JUMPDEST PUSH1 0x0 PUSH2 0x134F DUP3 PUSH2 0x15F9 JUMP JUMPDEST PUSH2 0x1359 DUP2 DUP6 PUSH2 0x1640 JUMP JUMPDEST SWAP4 POP PUSH2 0x1369 DUP2 DUP6 PUSH1 0x20 DUP7 ADD PUSH2 0x16BE JUMP JUMPDEST PUSH2 0x1372 DUP2 PUSH2 0x185C JUMP JUMPDEST DUP5 ADD SWAP2 POP POP SWAP3 SWAP2 POP POP JUMP JUMPDEST PUSH1 0x0 PUSH2 0x138A PUSH1 0x2A DUP4 PUSH2 0x1640 JUMP JUMPDEST SWAP2 POP PUSH2 0x1395 DUP3 PUSH2 0x186D JUMP JUMPDEST PUSH1 0x40 DUP3 ADD SWAP1 POP SWAP2 SWAP1 POP JUMP JUMPDEST PUSH1 0x0 PUSH2 0x13AD PUSH1 0x1C DUP4 PUSH2 0x1640 JUMP JUMPDEST SWAP2 POP PUSH2 0x13B8 DUP3 PUSH2 0x18BC JUMP JUMPDEST PUSH1 0x20 DUP3 ADD SWAP1 POP SWAP2 SWAP1 POP JUMP JUMPDEST PUSH2 0x13CC DUP2 PUSH2 0x16A2 JUMP JUMPDEST DUP3 MSTORE POP POP JUMP JUMPDEST PUSH2 0x13DB DUP2 PUSH2 0x16A2 JUMP JUMPDEST DUP3 MSTORE POP POP JUMP JUMPDEST PUSH1 0x0 PUSH1 0x20 DUP3 ADD SWAP1 POP PUSH2 0x13F6 PUSH1 0x0 DUP4 ADD DUP5 PUSH2 0x1244 JUMP JUMPDEST SWAP3 SWAP2 POP POP JUMP JUMPDEST PUSH1 0x0 PUSH1 0x20 DUP3 ADD SWAP1 POP DUP2 DUP2 SUB PUSH1 0x0 DUP4 ADD MSTORE PUSH2 0x1416 DUP2 DUP5 PUSH2 0x1253 JUMP JUMPDEST SWAP1 POP SWAP3 SWAP2 POP POP JUMP JUMPDEST PUSH1 0x0 PUSH1 0x20 DUP3 ADD SWAP1 POP PUSH2 0x1433 PUSH1 0x0 DUP4 ADD DUP5 PUSH2 0x1326 JUMP JUMPDEST SWAP3 SWAP2 POP POP JUMP JUMPDEST PUSH1 0x0 PUSH1 0xA0 DUP3 ADD SWAP1 POP PUSH2 0x144E PUSH1 0x0 DUP4 ADD DUP9 PUSH2 0x1326 JUMP JUMPDEST PUSH2 0x145B PUSH1 0x20 DUP4 ADD DUP8 PUSH2 0x1326 JUMP JUMPDEST PUSH2 0x1468 PUSH1 0x40 DUP4 ADD DUP7 PUSH2 0x13D2 JUMP JUMPDEST PUSH2 0x1475 PUSH1 0x60 DUP4 ADD DUP6 PUSH2 0x13D2 JUMP JUMPDEST PUSH2 0x1482 PUSH1 0x80 DUP4 ADD DUP5 PUSH2 0x13D2 JUMP JUMPDEST SWAP7 SWAP6 POP POP POP POP POP POP JUMP JUMPDEST PUSH1 0x0 PUSH1 0x60 DUP3 ADD SWAP1 POP PUSH2 0x14A1 PUSH1 0x0 DUP4 ADD DUP7 PUSH2 0x1326 JUMP JUMPDEST PUSH2 0x14AE PUSH1 0x20 DUP4 ADD DUP6 PUSH2 0x13D2 JUMP JUMPDEST PUSH2 0x14BB PUSH1 0x40 DUP4 ADD DUP5 PUSH2 0x13D2 JUMP JUMPDEST SWAP5 SWAP4 POP POP POP POP JUMP JUMPDEST PUSH1 0x0 PUSH1 0x20 DUP3 ADD SWAP1 POP PUSH2 0x14D8 PUSH1 0x0 DUP4 ADD DUP5 PUSH2 0x1335 JUMP JUMPDEST SWAP3 SWAP2 POP POP JUMP JUMPDEST PUSH1 0x0 PUSH1 0x20 DUP3 ADD SWAP1 POP DUP2 DUP2 SUB PUSH1 0x0 DUP4 ADD MSTORE PUSH2 0x14F7 DUP2 PUSH2 0x137D JUMP JUMPDEST SWAP1 POP SWAP2 SWAP1 POP JUMP JUMPDEST PUSH1 0x0 PUSH1 0x20 DUP3 ADD SWAP1 POP DUP2 DUP2 SUB PUSH1 0x0 DUP4 ADD MSTORE PUSH2 0x1517 DUP2 PUSH2 0x13A0 JUMP JUMPDEST SWAP1 POP SWAP2 SWAP1 POP JUMP JUMPDEST PUSH1 0x0 PUSH1 0x20 DUP3 ADD SWAP1 POP PUSH2 0x1533 PUSH1 0x0 DUP4 ADD DUP5 PUSH2 0x13D2 JUMP JUMPDEST SWAP3 SWAP2 POP POP JUMP JUMPDEST PUSH1 0x0 PUSH1 0x60 DUP3 ADD SWAP1 POP PUSH2 0x154E PUSH1 0x0 DUP4 ADD DUP7 PUSH2 0x13D2 JUMP JUMPDEST DUP2 DUP2 SUB PUSH1 0x20 DUP4 ADD MSTORE PUSH2 0x1560 DUP2 DUP6 PUSH2 0x1344 JUMP JUMPDEST SWAP1 POP PUSH2 0x156F PUSH1 0x40 DUP4 ADD DUP5 PUSH2 0x13D2 JUMP JUMPDEST SWAP5 SWAP4 POP POP POP POP JUMP JUMPDEST PUSH1 0x0 PUSH1 0x80 DUP3 ADD SWAP1 POP PUSH2 0x158C PUSH1 0x0 DUP4 ADD DUP8 PUSH2 0x13D2 JUMP JUMPDEST DUP2 DUP2 SUB PUSH1 0x20 DUP4 ADD MSTORE PUSH2 0x159E DUP2 DUP7 PUSH2 0x1344 JUMP JUMPDEST SWAP1 POP PUSH2 0x15AD PUSH1 0x40 DUP4 ADD DUP6 PUSH2 0x13D2 JUMP JUMPDEST PUSH2 0x15BA PUSH1 0x60 DUP4 ADD DUP5 PUSH2 0x13D2 JUMP JUMPDEST SWAP6 SWAP5 POP POP POP POP POP JUMP JUMPDEST PUSH1 0x0 DUP2 SWAP1 POP PUSH1 0x20 DUP3 ADD SWAP1 POP SWAP2 SWAP1 POP JUMP JUMPDEST PUSH1 0x0 DUP2 SWAP1 POP PUSH1 0x20 DUP3 ADD SWAP1 POP SWAP2 SWAP1 POP JUMP JUMPDEST PUSH1 0x0 DUP2 MLOAD SWAP1 POP SWAP2 SWAP1 POP JUMP JUMPDEST PUSH1 0x0 DUP2 MLOAD SWAP1 POP SWAP2 SWAP1 POP JUMP JUMPDEST PUSH1 0x0 DUP2 MLOAD SWAP1 POP SWAP2 SWAP1 POP JUMP JUMPDEST PUSH1 0x0 PUSH1 0x20 DUP3 ADD SWAP1 POP SWAP2 SWAP1 POP JUMP JUMPDEST PUSH1 0x0 PUSH1 0x20 DUP3 ADD SWAP1 POP SWAP2 SWAP1 POP JUMP JUMPDEST PUSH1 0x0 DUP3 DUP3 MSTORE PUSH1 0x20 DUP3 ADD SWAP1 POP SWAP3 SWAP2 POP POP JUMP JUMPDEST PUSH1 0x0 DUP3 DUP3 MSTORE PUSH1 0x20 DUP3 ADD SWAP1 POP SWAP3 SWAP2 POP POP JUMP JUMPDEST PUSH1 0x0 DUP3 DUP3 MSTORE PUSH1 0x20 DUP3 ADD SWAP1 POP SWAP3 SWAP2 POP POP JUMP JUMPDEST PUSH1 0x0 PUSH2 0x165C DUP3 PUSH2 0x1682 JUMP JUMPDEST SWAP1 POP SWAP2 SWAP1 POP JUMP JUMPDEST PUSH1 0x0 DUP2 ISZERO ISZERO SWAP1 POP SWAP2 SWAP1 POP JUMP JUMPDEST PUSH1 0x0 DUP2 SWAP1 POP PUSH2 0x167D DUP3 PUSH2 0x18E5 JUMP JUMPDEST SWAP2 SWAP1 POP JUMP JUMPDEST PUSH1 0x0 PUSH20 0xFFFFFFFFFFFFFFFFFFFFFFFFFFFFFFFFFFFFFFFF DUP3 AND SWAP1 POP SWAP2 SWAP1 POP JUMP JUMPDEST PUSH1 0x0 DUP2 SWAP1 POP SWAP2 SWAP1 POP JUMP JUMPDEST PUSH1 0x0 PUSH2 0x16B7 DUP3 PUSH2 0x166F JUMP JUMPDEST SWAP1 POP SWAP2 SWAP1 POP JUMP JUMPDEST PUSH1 0x0 JUMPDEST DUP4 DUP2 LT ISZERO PUSH2 0x16DC JUMPI DUP1 DUP3 ADD MLOAD DUP2 DUP5 ADD MSTORE PUSH1 0x20 DUP2 ADD SWAP1 POP PUSH2 0x16C1 JUMP JUMPDEST DUP4 DUP2 GT ISZERO PUSH2 0x16EB JUMPI PUSH1 0x0 DUP5 DUP5 ADD MSTORE JUMPDEST POP POP POP POP JUMP JUMPDEST PUSH1 0x0 PUSH1 0x2 DUP3 DIV SWAP1 POP PUSH1 0x1 DUP3 AND DUP1 PUSH2 0x1709 JUMPI PUSH1 0x7F DUP3 AND SWAP2 POP JUMPDEST PUSH1 0x20 DUP3 LT DUP2 EQ ISZERO PUSH2 0x171D JUMPI PUSH2 0x171C PUSH2 0x17CA JUMP JUMPDEST JUMPDEST POP SWAP2 SWAP1 POP JUMP JUMPDEST PUSH1 0x0 PUSH2 0x172E DUP3 PUSH2 0x16A2 JUMP JUMPDEST SWAP2 POP PUSH32 0xFFFFFFFFFFFFFFFFFFFFFFFFFFFFFFFFFFFFFFFFFFFFFFFFFFFFFFFFFFFFFFFF DUP3 EQ ISZERO PUSH2 0x1761 JUMPI PUSH2 0x1760 PUSH2 0x176C JUMP JUMPDEST JUMPDEST PUSH1 0x1 DUP3 ADD SWAP1 POP SWAP2 SWAP1 POP JUMP JUMPDEST PUSH32 0x4E487B7100000000000000000000000000000000000000000000000000000000 PUSH1 0x0 MSTORE PUSH1 0x11 PUSH1 0x4 MSTORE PUSH1 0x24 PUSH1 0x0 REVERT JUMPDEST PUSH32 0x4E487B7100000000000000000000000000000000000000000000000000000000 PUSH1 0x0 MSTORE PUSH1 0x21 PUSH1 0x4 MSTORE PUSH1 0x24 PUSH1 0x0 REVERT JUMPDEST PUSH32 0x4E487B7100000000000000000000000000000000000000000000000000000000 PUSH1 0x0 MSTORE PUSH1 0x22 PUSH1 0x4 MSTORE PUSH1 0x24 PUSH1 0x0 REVERT JUMPDEST PUSH32 0x4E487B7100000000000000000000000000000000000000000000000000000000 PUSH1 0x0 MSTORE PUSH1 0x32 PUSH1 0x4 MSTORE PUSH1 0x24 PUSH1 0x0 REVERT JUMPDEST PUSH32 0x4E487B7100000000000000000000000000000000000000000000000000000000 PUSH1 0x0 MSTORE PUSH1 0x41 PUSH1 0x4 MSTORE PUSH1 0x24 PUSH1 0x0 REVERT JUMPDEST PUSH1 0x0 DUP1 REVERT JUMPDEST PUSH1 0x0 PUSH1 0x1F NOT PUSH1 0x1F DUP4 ADD AND SWAP1 POP SWAP2 SWAP1 POP JUMP JUMPDEST PUSH32 0x506C656173652070726F7669646520612076616C696420706F6C6C696E672073 PUSH1 0x0 DUP3 ADD MSTORE PUSH32 0x746174696F6E2049442E00000000000000000000000000000000000000000000 PUSH1 0x20 DUP3 ADD MSTORE POP JUMP JUMPDEST PUSH32 0x566F74657220697320616C726561647920726567697374657265642E00000000 PUSH1 0x0 DUP3 ADD MSTORE POP JUMP JUMPDEST PUSH1 0x3 DUP2 LT PUSH2 0x18F6 JUMPI PUSH2 0x18F5 PUSH2 0x179B JUMP JUMPDEST JUMPDEST POP JUMP JUMPDEST PUSH2 0x1902 DUP2 PUSH2 0x1651 JUMP JUMPDEST DUP2 EQ PUSH2 0x190D JUMPI PUSH1 0x0 DUP1 REVERT JUMPDEST POP JUMP JUMPDEST PUSH2 0x1919 DUP2 PUSH2 0x16A2 JUMP JUMPDEST DUP2 EQ PUSH2 0x1924 JUMPI PUSH1 0x0 DUP1 REVERT JUMPDEST POP JUMP INVALID LOG2 PUSH5 0x6970667358 0x22 SLT KECCAK256 BASEFEE 0xB9 PUSH10 0x8A0A42AABD2E8C2868A4 0xDC BLOCKHASH 0xE7 0xD 0x2B LT PUSH32 0xC96B35AA5E080CA3226D222864736F6C63430008070033000000000000000000 "
				},
				"gasEstimates": {
					"creation": {
						"codeDepositCost": "1298600",
						"executionCost": "infinite",
						"totalCost": "infinite"
					},
					"external": {
						"addVoter(address,uint256)": "infinite",
						"candidates(uint256)": "infinite",
						"candidatesCount()": "2497",
						"castVote(uint256,uint256)": "infinite",
						"electionOwner()": "2600",
						"endVote()": "53095",
						"finalResult()": "2517",
						"getResults1()": "infinite",
						"pollingStationCount()": "2495",
						"pollingStations(uint256)": "infinite",
						"results(uint256,uint256)": "infinite",
						"resultsPerPollingStation(uint256,uint256)": "infinite",
						"resultsPerPollingStation1(uint256,uint256)": "infinite",
						"startVote()": "28881",
						"state()": "2582",
						"totalRegisteredVoters()": "2453",
						"voterRegistry(address)": "infinite",
						"voters(address)": "2868"
					},
					"internal": {
						"addCandidate(string memory)": "infinite",
						"addPollingStation(string memory)": "infinite",
						"initCandidates()": "infinite",
						"initPollingStations()": "infinite",
						"registerAtPollingStation(uint256)": "28818"
					}
				},
				"methodIdentifiers": {
					"addVoter(address,uint256)": "b9f05f2f",
					"candidates(uint256)": "3477ee2e",
					"candidatesCount()": "2d35a8a2",
					"castVote(uint256,uint256)": "2c0a3f89",
					"electionOwner()": "53357ad0",
					"endVote()": "b9223946",
					"finalResult()": "f3a8286f",
					"getResults1()": "3a873314",
					"pollingStationCount()": "df9f1a07",
					"pollingStations(uint256)": "fe2442d7",
					"results(uint256,uint256)": "d70c6f4e",
					"resultsPerPollingStation(uint256,uint256)": "b54b5d62",
					"resultsPerPollingStation1(uint256,uint256)": "853dca3a",
					"startVote()": "4c0a6af0",
					"state()": "c19d93fb",
					"totalRegisteredVoters()": "00aa7464",
					"voterRegistry(address)": "4763d4e7",
					"voters(address)": "a3ec138d"
				}
			},
			"storageLayout": {
				"storage": [
					{
						"astId": 30,
						"contract": "contracts/ergasia.sol:Election",
						"label": "electionOwner",
						"offset": 0,
						"slot": "0",
						"type": "t_address"
					},
					{
						"astId": 32,
						"contract": "contracts/ergasia.sol:Election",
						"label": "candidatesCount",
						"offset": 0,
						"slot": "1",
						"type": "t_uint256"
					},
					{
						"astId": 34,
						"contract": "contracts/ergasia.sol:Election",
						"label": "pollingStationCount",
						"offset": 0,
						"slot": "2",
						"type": "t_uint256"
					},
					{
						"astId": 36,
						"contract": "contracts/ergasia.sol:Election",
						"label": "totalRegisteredVoters",
						"offset": 0,
						"slot": "3",
						"type": "t_uint256"
					},
					{
						"astId": 38,
						"contract": "contracts/ergasia.sol:Election",
						"label": "countResult",
						"offset": 0,
						"slot": "4",
						"type": "t_uint256"
					},
					{
						"astId": 40,
						"contract": "contracts/ergasia.sol:Election",
						"label": "finalResult",
						"offset": 0,
						"slot": "5",
						"type": "t_uint256"
					},
					{
						"astId": 44,
						"contract": "contracts/ergasia.sol:Election",
						"label": "results",
						"offset": 0,
						"slot": "6",
						"type": "t_array(t_array(t_uint256)dyn_storage)dyn_storage"
					},
					{
						"astId": 49,
						"contract": "contracts/ergasia.sol:Election",
						"label": "candidates",
						"offset": 0,
						"slot": "7",
						"type": "t_mapping(t_uint256,t_struct(Candidate)8_storage)"
					},
					{
						"astId": 54,
						"contract": "contracts/ergasia.sol:Election",
						"label": "pollingStations",
						"offset": 0,
						"slot": "8",
						"type": "t_mapping(t_uint256,t_struct(PollingStation)17_storage)"
					},
					{
						"astId": 59,
						"contract": "contracts/ergasia.sol:Election",
						"label": "voterRegistry",
						"offset": 0,
						"slot": "9",
						"type": "t_mapping(t_address,t_struct(Voter)28_storage)"
					},
					{
						"astId": 63,
						"contract": "contracts/ergasia.sol:Election",
						"label": "voters",
						"offset": 0,
						"slot": "10",
						"type": "t_mapping(t_address,t_bool)"
					},
					{
						"astId": 70,
						"contract": "contracts/ergasia.sol:Election",
						"label": "resultsPerPollingStation",
						"offset": 0,
						"slot": "11",
						"type": "t_mapping(t_uint256,t_mapping(t_uint256,t_struct(Candidate)8_storage))"
					},
					{
						"astId": 76,
						"contract": "contracts/ergasia.sol:Election",
						"label": "resultsPerPollingStation1",
						"offset": 0,
						"slot": "12",
						"type": "t_mapping(t_uint256,t_array(t_struct(Candidate)8_storage)dyn_storage)"
					},
					{
						"astId": 83,
						"contract": "contracts/ergasia.sol:Election",
						"label": "state",
						"offset": 0,
						"slot": "13",
						"type": "t_enum(State)80"
					}
				],
				"types": {
					"t_address": {
						"encoding": "inplace",
						"label": "address",
						"numberOfBytes": "20"
					},
					"t_array(t_array(t_uint256)dyn_storage)dyn_storage": {
						"base": "t_array(t_uint256)dyn_storage",
						"encoding": "dynamic_array",
						"label": "uint256[][]",
						"numberOfBytes": "32"
					},
					"t_array(t_struct(Candidate)8_storage)dyn_storage": {
						"base": "t_struct(Candidate)8_storage",
						"encoding": "dynamic_array",
						"label": "struct Election.Candidate[]",
						"numberOfBytes": "32"
					},
					"t_array(t_uint256)dyn_storage": {
						"base": "t_uint256",
						"encoding": "dynamic_array",
						"label": "uint256[]",
						"numberOfBytes": "32"
					},
					"t_bool": {
						"encoding": "inplace",
						"label": "bool",
						"numberOfBytes": "1"
					},
					"t_enum(State)80": {
						"encoding": "inplace",
						"label": "enum Election.State",
						"numberOfBytes": "1"
					},
					"t_mapping(t_address,t_bool)": {
						"encoding": "mapping",
						"key": "t_address",
						"label": "mapping(address => bool)",
						"numberOfBytes": "32",
						"value": "t_bool"
					},
					"t_mapping(t_address,t_struct(Voter)28_storage)": {
						"encoding": "mapping",
						"key": "t_address",
						"label": "mapping(address => struct Election.Voter)",
						"numberOfBytes": "32",
						"value": "t_struct(Voter)28_storage"
					},
					"t_mapping(t_uint256,t_array(t_struct(Candidate)8_storage)dyn_storage)": {
						"encoding": "mapping",
						"key": "t_uint256",
						"label": "mapping(uint256 => struct Election.Candidate[])",
						"numberOfBytes": "32",
						"value": "t_array(t_struct(Candidate)8_storage)dyn_storage"
					},
					"t_mapping(t_uint256,t_mapping(t_uint256,t_struct(Candidate)8_storage))": {
						"encoding": "mapping",
						"key": "t_uint256",
						"label": "mapping(uint256 => mapping(uint256 => struct Election.Candidate))",
						"numberOfBytes": "32",
						"value": "t_mapping(t_uint256,t_struct(Candidate)8_storage)"
					},
					"t_mapping(t_uint256,t_struct(Candidate)8_storage)": {
						"encoding": "mapping",
						"key": "t_uint256",
						"label": "mapping(uint256 => struct Election.Candidate)",
						"numberOfBytes": "32",
						"value": "t_struct(Candidate)8_storage"
					},
					"t_mapping(t_uint256,t_struct(PollingStation)17_storage)": {
						"encoding": "mapping",
						"key": "t_uint256",
						"label": "mapping(uint256 => struct Election.PollingStation)",
						"numberOfBytes": "32",
						"value": "t_struct(PollingStation)17_storage"
					},
					"t_string_storage": {
						"encoding": "bytes",
						"label": "string",
						"numberOfBytes": "32"
					},
					"t_struct(Candidate)8_storage": {
						"encoding": "inplace",
						"label": "struct Election.Candidate",
						"members": [
							{
								"astId": 3,
								"contract": "contracts/ergasia.sol:Election",
								"label": "id",
								"offset": 0,
								"slot": "0",
								"type": "t_uint256"
							},
							{
								"astId": 5,
								"contract": "contracts/ergasia.sol:Election",
								"label": "name",
								"offset": 0,
								"slot": "1",
								"type": "t_string_storage"
							},
							{
								"astId": 7,
								"contract": "contracts/ergasia.sol:Election",
								"label": "votes",
								"offset": 0,
								"slot": "2",
								"type": "t_uint256"
							}
						],
						"numberOfBytes": "96"
					},
					"t_struct(PollingStation)17_storage": {
						"encoding": "inplace",
						"label": "struct Election.PollingStation",
						"members": [
							{
								"astId": 10,
								"contract": "contracts/ergasia.sol:Election",
								"label": "id",
								"offset": 0,
								"slot": "0",
								"type": "t_uint256"
							},
							{
								"astId": 12,
								"contract": "contracts/ergasia.sol:Election",
								"label": "name",
								"offset": 0,
								"slot": "1",
								"type": "t_string_storage"
							},
							{
								"astId": 14,
								"contract": "contracts/ergasia.sol:Election",
								"label": "votersRegistered",
								"offset": 0,
								"slot": "2",
								"type": "t_uint256"
							},
							{
								"astId": 16,
								"contract": "contracts/ergasia.sol:Election",
								"label": "votesCasted",
								"offset": 0,
								"slot": "3",
								"type": "t_uint256"
							}
						],
						"numberOfBytes": "128"
					},
					"t_struct(Voter)28_storage": {
						"encoding": "inplace",
						"label": "struct Election.Voter",
						"members": [
							{
								"astId": 19,
								"contract": "contracts/ergasia.sol:Election",
								"label": "isEnrolled",
								"offset": 0,
								"slot": "0",
								"type": "t_bool"
							},
							{
								"astId": 21,
								"contract": "contracts/ergasia.sol:Election",
								"label": "hasVoted",
								"offset": 1,
								"slot": "0",
								"type": "t_bool"
							},
							{
								"astId": 23,
								"contract": "contracts/ergasia.sol:Election",
								"label": "choice",
								"offset": 0,
								"slot": "1",
								"type": "t_uint256"
							},
							{
								"astId": 25,
								"contract": "contracts/ergasia.sol:Election",
								"label": "enrolledPollingStationID",
								"offset": 0,
								"slot": "2",
								"type": "t_uint256"
							},
							{
								"astId": 27,
								"contract": "contracts/ergasia.sol:Election",
								"label": "votedPollingStationID",
								"offset": 0,
								"slot": "3",
								"type": "t_uint256"
							}
						],
						"numberOfBytes": "128"
					},
					"t_uint256": {
						"encoding": "inplace",
						"label": "uint256",
						"numberOfBytes": "32"
					}
				}
			},
			"userdoc": {
				"kind": "user",
				"methods": {},
				"version": 1
			}
		}
	}
}