{
	"contracts/ergasia.sol": {
		"Election": {
			"abi": [
				{
					"inputs": [],
					"stateMutability": "nonpayable",
					"type": "constructor"
				},
				{
					"anonymous": false,
					"inputs": [
						{
							"indexed": false,
							"internalType": "bool",
							"name": "voted",
							"type": "bool"
						},
						{
							"indexed": false,
							"internalType": "uint256",
							"name": "_choice",
							"type": "uint256"
						},
						{
							"indexed": false,
							"internalType": "uint256",
							"name": "_pollStationID",
							"type": "uint256"
						}
					],
					"name": "VoteCasted",
					"type": "event"
				},
				{
					"inputs": [
						{
							"internalType": "address",
							"name": "_voterAddress",
							"type": "address"
						},
						{
							"internalType": "uint256",
							"name": "_pollingStationID",
							"type": "uint256"
						}
					],
					"name": "addVoter",
					"outputs": [],
					"stateMutability": "nonpayable",
					"type": "function"
				},
				{
					"inputs": [
						{
							"internalType": "uint256",
							"name": "",
							"type": "uint256"
						}
					],
					"name": "candidates",
					"outputs": [
						{
							"internalType": "uint256",
							"name": "id",
							"type": "uint256"
						},
						{
							"internalType": "string",
							"name": "name",
							"type": "string"
						},
						{
							"internalType": "uint256",
							"name": "votes",
							"type": "uint256"
						}
					],
					"stateMutability": "view",
					"type": "function"
				},
				{
					"inputs": [],
					"name": "candidatesCount",
					"outputs": [
						{
							"internalType": "uint256",
							"name": "",
							"type": "uint256"
						}
					],
					"stateMutability": "view",
					"type": "function"
				},
				{
					"inputs": [
						{
							"internalType": "uint256",
							"name": "_choice",
							"type": "uint256"
						},
						{
							"internalType": "uint256",
							"name": "_pollingStationID",
							"type": "uint256"
						}
					],
					"name": "castVote",
					"outputs": [
						{
							"internalType": "bool",
							"name": "voted",
							"type": "bool"
						}
					],
					"stateMutability": "nonpayable",
					"type": "function"
				},
				{
					"inputs": [],
					"name": "electionOwner",
					"outputs": [
						{
							"internalType": "address",
							"name": "",
							"type": "address"
						}
					],
					"stateMutability": "view",
					"type": "function"
				},
				{
					"inputs": [],
					"name": "endVote",
					"outputs": [],
					"stateMutability": "nonpayable",
					"type": "function"
				},
				{
					"inputs": [],
					"name": "finalResult",
					"outputs": [
						{
							"internalType": "uint256",
							"name": "",
							"type": "uint256"
						}
					],
					"stateMutability": "view",
					"type": "function"
				},
				{
					"inputs": [
						{
							"internalType": "uint256",
							"name": "_pStationID",
							"type": "uint256"
						}
					],
					"name": "getResultsPerStation",
					"outputs": [
						{
							"internalType": "uint256[]",
							"name": "",
							"type": "uint256[]"
						}
					],
					"stateMutability": "view",
					"type": "function"
				},
				{
					"inputs": [
						{
							"internalType": "uint256",
							"name": "_pStationID",
							"type": "uint256"
						},
						{
							"internalType": "uint256",
							"name": "_candidateID",
							"type": "uint256"
						}
					],
					"name": "getResultsPerStation1",
					"outputs": [
						{
							"components": [
								{
									"internalType": "uint256",
									"name": "id",
									"type": "uint256"
								},
								{
									"internalType": "string",
									"name": "name",
									"type": "string"
								},
								{
									"internalType": "uint256",
									"name": "votes",
									"type": "uint256"
								}
							],
							"internalType": "struct Election.Candidate",
							"name": "",
							"type": "tuple"
						}
					],
					"stateMutability": "view",
					"type": "function"
				},
				{
					"inputs": [
						{
							"internalType": "uint256",
							"name": "_pStationID",
							"type": "uint256"
						},
						{
							"internalType": "uint256",
							"name": "_candidateID",
							"type": "uint256"
						}
					],
					"name": "getVotes",
					"outputs": [
						{
							"internalType": "uint256",
							"name": "",
							"type": "uint256"
						}
					],
					"stateMutability": "view",
					"type": "function"
				},
				{
					"inputs": [],
					"name": "pollingStationCount",
					"outputs": [
						{
							"internalType": "uint256",
							"name": "",
							"type": "uint256"
						}
					],
					"stateMutability": "view",
					"type": "function"
				},
				{
					"inputs": [
						{
							"internalType": "uint256",
							"name": "",
							"type": "uint256"
						}
					],
					"name": "pollingStations",
					"outputs": [
						{
							"internalType": "uint256",
							"name": "id",
							"type": "uint256"
						},
						{
							"internalType": "string",
							"name": "name",
							"type": "string"
						},
						{
							"internalType": "uint256",
							"name": "votersRegistered",
							"type": "uint256"
						},
						{
							"internalType": "uint256",
							"name": "votesCasted",
							"type": "uint256"
						}
					],
					"stateMutability": "view",
					"type": "function"
				},
				{
					"inputs": [],
					"name": "startVote",
					"outputs": [],
					"stateMutability": "nonpayable",
					"type": "function"
				},
				{
					"inputs": [],
					"name": "state",
					"outputs": [
						{
							"internalType": "enum Election.State",
							"name": "",
							"type": "uint8"
						}
					],
					"stateMutability": "view",
					"type": "function"
				},
				{
					"inputs": [],
					"name": "totalRegisteredVoters",
					"outputs": [
						{
							"internalType": "uint256",
							"name": "",
							"type": "uint256"
						}
					],
					"stateMutability": "view",
					"type": "function"
				},
				{
					"inputs": [
						{
							"internalType": "address",
							"name": "",
							"type": "address"
						}
					],
					"name": "voterRegistry",
					"outputs": [
						{
							"internalType": "bool",
							"name": "isEnrolled",
							"type": "bool"
						},
						{
							"internalType": "bool",
							"name": "hasVoted",
							"type": "bool"
						},
						{
							"internalType": "uint256",
							"name": "choice",
							"type": "uint256"
						},
						{
							"internalType": "uint256",
							"name": "enrolledPollingStationID",
							"type": "uint256"
						},
						{
							"internalType": "uint256",
							"name": "votedPollingStationID",
							"type": "uint256"
						}
					],
					"stateMutability": "view",
					"type": "function"
				},
				{
					"inputs": [
						{
							"internalType": "address",
							"name": "",
							"type": "address"
						}
					],
					"name": "voters",
					"outputs": [
						{
							"internalType": "bool",
							"name": "",
							"type": "bool"
						}
					],
					"stateMutability": "view",
					"type": "function"
				}
			],
			"devdoc": {
				"kind": "dev",
				"methods": {
					"addVoter(address,uint256)": {
						"details": "Adds a voter to the voter registry. May only be called by 'owner'.",
						"params": {
							"_pollingStationID": "polling station ID in which voter is registered.",
							"_voterAddress": "address of voter"
						}
					}
				},
				"version": 1
			},
			"evm": {
				"assembly": "    /* \"contracts/ergasia.sol\":70:8348  contract Election {... */\n  mstore(0x40, 0x80)\n    /* \"contracts/ergasia.sol\":2348:2623  constructor() {... */\n  callvalue\n  dup1\n  iszero\n  tag_1\n  jumpi\n  0x00\n  dup1\n  revert\ntag_1:\n  pop\n    /* \"contracts/ergasia.sol\":2388:2398  msg.sender */\n  caller\n    /* \"contracts/ergasia.sol\":2372:2385  electionOwner */\n  0x00\n  dup1\n    /* \"contracts/ergasia.sol\":2372:2398  electionOwner = msg.sender */\n  0x0100\n  exp\n  dup2\n  sload\n  dup2\n  0xffffffffffffffffffffffffffffffffffffffff\n  mul\n  not\n  and\n  swap1\n  dup4\n  0xffffffffffffffffffffffffffffffffffffffff\n  and\n  mul\n  or\n  swap1\n  sstore\n  pop\n    /* \"contracts/ergasia.sol\":2453:2474  initPollingStations() */\n  tag_4\n    /* \"contracts/ergasia.sol\":2453:2472  initPollingStations */\n  shl(0x20, tag_5)\n    /* \"contracts/ergasia.sol\":2453:2474  initPollingStations() */\n  0x20\n  shr\n  jump\t// in\ntag_4:\n    /* \"contracts/ergasia.sol\":2531:2547  initCandidates() */\n  tag_6\n    /* \"contracts/ergasia.sol\":2531:2545  initCandidates */\n  shl(0x20, tag_7)\n    /* \"contracts/ergasia.sol\":2531:2547  initCandidates() */\n  0x20\n  shr\n  jump\t// in\ntag_6:\n    /* \"contracts/ergasia.sol\":2601:2614  State.Created */\n  0x00\n    /* \"contracts/ergasia.sol\":2593:2598  state */\n  0x0c\n  0x00\n    /* \"contracts/ergasia.sol\":2593:2614  state = State.Created */\n  0x0100\n  exp\n  dup2\n  sload\n  dup2\n  0xff\n  mul\n  not\n  and\n  swap1\n  dup4\n  0x02\n  dup2\n  gt\n  iszero\n  tag_8\n  jumpi\n  tag_9\n  tag_10\n  jump\t// in\ntag_9:\ntag_8:\n  mul\n  or\n  swap1\n  sstore\n  pop\n    /* \"contracts/ergasia.sol\":70:8348  contract Election {... */\n  jump(tag_11)\n    /* \"contracts/ergasia.sol\":3505:4033  function initPollingStations() internal {... */\ntag_5:\n    /* \"contracts/ergasia.sol\":3555:3593  addPollingStation(\"Polling Station 1\") */\n  tag_13\n  mload(0x40)\n  dup1\n  0x40\n  add\n  0x40\n  mstore\n  dup1\n  0x11\n  dup2\n  mstore\n  0x20\n  add\n  0x506f6c6c696e672053746174696f6e2031000000000000000000000000000000\n  dup2\n  mstore\n  pop\n    /* \"contracts/ergasia.sol\":3555:3572  addPollingStation */\n  shl(0x20, tag_14)\n    /* \"contracts/ergasia.sol\":3555:3593  addPollingStation(\"Polling Station 1\") */\n  0x20\n  shr\n  jump\t// in\ntag_13:\n    /* \"contracts/ergasia.sol\":3603:3641  addPollingStation(\"Polling Station 2\") */\n  tag_15\n  mload(0x40)\n  dup1\n  0x40\n  add\n  0x40\n  mstore\n  dup1\n  0x11\n  dup2\n  mstore\n  0x20\n  add\n  0x506f6c6c696e672053746174696f6e2032000000000000000000000000000000\n  dup2\n  mstore\n  pop\n    /* \"contracts/ergasia.sol\":3603:3620  addPollingStation */\n  shl(0x20, tag_14)\n    /* \"contracts/ergasia.sol\":3603:3641  addPollingStation(\"Polling Station 2\") */\n  0x20\n  shr\n  jump\t// in\ntag_15:\n    /* \"contracts/ergasia.sol\":3651:3689  addPollingStation(\"Polling Station 3\") */\n  tag_16\n  mload(0x40)\n  dup1\n  0x40\n  add\n  0x40\n  mstore\n  dup1\n  0x11\n  dup2\n  mstore\n  0x20\n  add\n  0x506f6c6c696e672053746174696f6e2033000000000000000000000000000000\n  dup2\n  mstore\n  pop\n    /* \"contracts/ergasia.sol\":3651:3668  addPollingStation */\n  shl(0x20, tag_14)\n    /* \"contracts/ergasia.sol\":3651:3689  addPollingStation(\"Polling Station 3\") */\n  0x20\n  shr\n  jump\t// in\ntag_16:\n    /* \"contracts/ergasia.sol\":3699:3737  addPollingStation(\"Polling Station 4\") */\n  tag_17\n  mload(0x40)\n  dup1\n  0x40\n  add\n  0x40\n  mstore\n  dup1\n  0x11\n  dup2\n  mstore\n  0x20\n  add\n  0x506f6c6c696e672053746174696f6e2034000000000000000000000000000000\n  dup2\n  mstore\n  pop\n    /* \"contracts/ergasia.sol\":3699:3716  addPollingStation */\n  shl(0x20, tag_14)\n    /* \"contracts/ergasia.sol\":3699:3737  addPollingStation(\"Polling Station 4\") */\n  0x20\n  shr\n  jump\t// in\ntag_17:\n    /* \"contracts/ergasia.sol\":3747:3785  addPollingStation(\"Polling Station 5\") */\n  tag_18\n  mload(0x40)\n  dup1\n  0x40\n  add\n  0x40\n  mstore\n  dup1\n  0x11\n  dup2\n  mstore\n  0x20\n  add\n  0x506f6c6c696e672053746174696f6e2035000000000000000000000000000000\n  dup2\n  mstore\n  pop\n    /* \"contracts/ergasia.sol\":3747:3764  addPollingStation */\n  shl(0x20, tag_14)\n    /* \"contracts/ergasia.sol\":3747:3785  addPollingStation(\"Polling Station 5\") */\n  0x20\n  shr\n  jump\t// in\ntag_18:\n    /* \"contracts/ergasia.sol\":3795:3833  addPollingStation(\"Polling Station 6\") */\n  tag_19\n  mload(0x40)\n  dup1\n  0x40\n  add\n  0x40\n  mstore\n  dup1\n  0x11\n  dup2\n  mstore\n  0x20\n  add\n  0x506f6c6c696e672053746174696f6e2036000000000000000000000000000000\n  dup2\n  mstore\n  pop\n    /* \"contracts/ergasia.sol\":3795:3812  addPollingStation */\n  shl(0x20, tag_14)\n    /* \"contracts/ergasia.sol\":3795:3833  addPollingStation(\"Polling Station 6\") */\n  0x20\n  shr\n  jump\t// in\ntag_19:\n    /* \"contracts/ergasia.sol\":3843:3881  addPollingStation(\"Polling Station 7\") */\n  tag_20\n  mload(0x40)\n  dup1\n  0x40\n  add\n  0x40\n  mstore\n  dup1\n  0x11\n  dup2\n  mstore\n  0x20\n  add\n  0x506f6c6c696e672053746174696f6e2037000000000000000000000000000000\n  dup2\n  mstore\n  pop\n    /* \"contracts/ergasia.sol\":3843:3860  addPollingStation */\n  shl(0x20, tag_14)\n    /* \"contracts/ergasia.sol\":3843:3881  addPollingStation(\"Polling Station 7\") */\n  0x20\n  shr\n  jump\t// in\ntag_20:\n    /* \"contracts/ergasia.sol\":3891:3929  addPollingStation(\"Polling Station 8\") */\n  tag_21\n  mload(0x40)\n  dup1\n  0x40\n  add\n  0x40\n  mstore\n  dup1\n  0x11\n  dup2\n  mstore\n  0x20\n  add\n  0x506f6c6c696e672053746174696f6e2038000000000000000000000000000000\n  dup2\n  mstore\n  pop\n    /* \"contracts/ergasia.sol\":3891:3908  addPollingStation */\n  shl(0x20, tag_14)\n    /* \"contracts/ergasia.sol\":3891:3929  addPollingStation(\"Polling Station 8\") */\n  0x20\n  shr\n  jump\t// in\ntag_21:\n    /* \"contracts/ergasia.sol\":3939:3977  addPollingStation(\"Polling Station 9\") */\n  tag_22\n  mload(0x40)\n  dup1\n  0x40\n  add\n  0x40\n  mstore\n  dup1\n  0x11\n  dup2\n  mstore\n  0x20\n  add\n  0x506f6c6c696e672053746174696f6e2039000000000000000000000000000000\n  dup2\n  mstore\n  pop\n    /* \"contracts/ergasia.sol\":3939:3956  addPollingStation */\n  shl(0x20, tag_14)\n    /* \"contracts/ergasia.sol\":3939:3977  addPollingStation(\"Polling Station 9\") */\n  0x20\n  shr\n  jump\t// in\ntag_22:\n    /* \"contracts/ergasia.sol\":3987:4026  addPollingStation(\"Polling Station 10\") */\n  tag_23\n  mload(0x40)\n  dup1\n  0x40\n  add\n  0x40\n  mstore\n  dup1\n  0x12\n  dup2\n  mstore\n  0x20\n  add\n  0x506f6c6c696e672053746174696f6e2031300000000000000000000000000000\n  dup2\n  mstore\n  pop\n    /* \"contracts/ergasia.sol\":3987:4004  addPollingStation */\n  shl(0x20, tag_14)\n    /* \"contracts/ergasia.sol\":3987:4026  addPollingStation(\"Polling Station 10\") */\n  0x20\n  shr\n  jump\t// in\ntag_23:\n    /* \"contracts/ergasia.sol\":3505:4033  function initPollingStations() internal {... */\n  jump\t// out\n    /* \"contracts/ergasia.sol\":2682:2909  function initCandidates() internal {... */\ntag_7:\n    /* \"contracts/ergasia.sol\":2727:2754  addCandidate(\"Candidate 1\") */\n  tag_25\n  mload(0x40)\n  dup1\n  0x40\n  add\n  0x40\n  mstore\n  dup1\n  0x0b\n  dup2\n  mstore\n  0x20\n  add\n  0x43616e6469646174652031000000000000000000000000000000000000000000\n  dup2\n  mstore\n  pop\n    /* \"contracts/ergasia.sol\":2727:2739  addCandidate */\n  shl(0x20, tag_26)\n    /* \"contracts/ergasia.sol\":2727:2754  addCandidate(\"Candidate 1\") */\n  0x20\n  shr\n  jump\t// in\ntag_25:\n    /* \"contracts/ergasia.sol\":2764:2791  addCandidate(\"Candidate 2\") */\n  tag_27\n  mload(0x40)\n  dup1\n  0x40\n  add\n  0x40\n  mstore\n  dup1\n  0x0b\n  dup2\n  mstore\n  0x20\n  add\n  0x43616e6469646174652032000000000000000000000000000000000000000000\n  dup2\n  mstore\n  pop\n    /* \"contracts/ergasia.sol\":2764:2776  addCandidate */\n  shl(0x20, tag_26)\n    /* \"contracts/ergasia.sol\":2764:2791  addCandidate(\"Candidate 2\") */\n  0x20\n  shr\n  jump\t// in\ntag_27:\n    /* \"contracts/ergasia.sol\":2801:2828  addCandidate(\"Candidate 3\") */\n  tag_28\n  mload(0x40)\n  dup1\n  0x40\n  add\n  0x40\n  mstore\n  dup1\n  0x0b\n  dup2\n  mstore\n  0x20\n  add\n  0x43616e6469646174652033000000000000000000000000000000000000000000\n  dup2\n  mstore\n  pop\n    /* \"contracts/ergasia.sol\":2801:2813  addCandidate */\n  shl(0x20, tag_26)\n    /* \"contracts/ergasia.sol\":2801:2828  addCandidate(\"Candidate 3\") */\n  0x20\n  shr\n  jump\t// in\ntag_28:\n    /* \"contracts/ergasia.sol\":2838:2865  addCandidate(\"Candidate 4\") */\n  tag_29\n  mload(0x40)\n  dup1\n  0x40\n  add\n  0x40\n  mstore\n  dup1\n  0x0b\n  dup2\n  mstore\n  0x20\n  add\n  0x43616e6469646174652034000000000000000000000000000000000000000000\n  dup2\n  mstore\n  pop\n    /* \"contracts/ergasia.sol\":2838:2850  addCandidate */\n  shl(0x20, tag_26)\n    /* \"contracts/ergasia.sol\":2838:2865  addCandidate(\"Candidate 4\") */\n  0x20\n  shr\n  jump\t// in\ntag_29:\n    /* \"contracts/ergasia.sol\":2875:2902  addCandidate(\"Candidate 5\") */\n  tag_30\n  mload(0x40)\n  dup1\n  0x40\n  add\n  0x40\n  mstore\n  dup1\n  0x0b\n  dup2\n  mstore\n  0x20\n  add\n  0x43616e6469646174652035000000000000000000000000000000000000000000\n  dup2\n  mstore\n  pop\n    /* \"contracts/ergasia.sol\":2875:2887  addCandidate */\n  shl(0x20, tag_26)\n    /* \"contracts/ergasia.sol\":2875:2902  addCandidate(\"Candidate 5\") */\n  0x20\n  shr\n  jump\t// in\ntag_30:\n    /* \"contracts/ergasia.sol\":2682:2909  function initCandidates() internal {... */\n  jump\t// out\n    /* \"contracts/ergasia.sol\":4156:4817  function addPollingStation (string memory _name) private {... */\ntag_14:\n    /* \"contracts/ergasia.sol\":4223:4242  pollingStationCount */\n  0x02\n  0x00\n    /* \"contracts/ergasia.sol\":4223:4244  pollingStationCount++ */\n  dup2\n  sload\n  dup1\n  swap3\n  swap2\n  swap1\n  tag_32\n  swap1\n  tag_33\n  jump\t// in\ntag_32:\n  swap2\n  swap1\n  pop\n  sstore\n  pop\n    /* \"contracts/ergasia.sol\":4366:4400  PollingStation storage pollStation */\n  0x00\n    /* \"contracts/ergasia.sol\":4403:4418  pollingStations */\n  0x08\n    /* \"contracts/ergasia.sol\":4403:4439  pollingStations[pollingStationCount] */\n  0x00\n    /* \"contracts/ergasia.sol\":4419:4438  pollingStationCount */\n  sload(0x02)\n    /* \"contracts/ergasia.sol\":4403:4439  pollingStations[pollingStationCount] */\n  dup2\n  mstore\n  0x20\n  add\n  swap1\n  dup2\n  mstore\n  0x20\n  add\n  0x00\n  keccak256\n    /* \"contracts/ergasia.sol\":4366:4439  PollingStation storage pollStation = pollingStations[pollingStationCount] */\n  swap1\n  pop\n    /* \"contracts/ergasia.sol\":4466:4485  pollingStationCount */\n  sload(0x02)\n    /* \"contracts/ergasia.sol\":4449:4460  pollStation */\n  dup2\n    /* \"contracts/ergasia.sol\":4449:4463  pollStation.id */\n  0x00\n  add\n    /* \"contracts/ergasia.sol\":4449:4485  pollStation.id = pollingStationCount */\n  dup2\n  swap1\n  sstore\n  pop\n    /* \"contracts/ergasia.sol\":4514:4519  _name */\n  dup2\n    /* \"contracts/ergasia.sol\":4495:4506  pollStation */\n  dup2\n    /* \"contracts/ergasia.sol\":4495:4511  pollStation.name */\n  0x01\n  add\n    /* \"contracts/ergasia.sol\":4495:4519  pollStation.name = _name */\n  swap1\n  dup1\n  mload\n  swap1\n  0x20\n  add\n  swap1\n  tag_34\n  swap3\n  swap2\n  swap1\n  tag_35\n  jump\t// in\ntag_34:\n  pop\n    /* \"contracts/ergasia.sol\":4560:4561  0 */\n  0x00\n    /* \"contracts/ergasia.sol\":4529:4540  pollStation */\n  dup2\n    /* \"contracts/ergasia.sol\":4529:4557  pollStation.votersRegistered */\n  0x02\n  add\n    /* \"contracts/ergasia.sol\":4529:4561  pollStation.votersRegistered = 0 */\n  dup2\n  swap1\n  sstore\n  pop\n    /* \"contracts/ergasia.sol\":4597:4598  0 */\n  0x00\n    /* \"contracts/ergasia.sol\":4571:4582  pollStation */\n  dup2\n    /* \"contracts/ergasia.sol\":4571:4594  pollStation.votesCasted */\n  0x03\n  add\n    /* \"contracts/ergasia.sol\":4571:4598  pollStation.votesCasted = 0 */\n  dup2\n  swap1\n  sstore\n  pop\n    /* \"contracts/ergasia.sol\":4213:4817  {... */\n  pop\n    /* \"contracts/ergasia.sol\":4156:4817  function addPollingStation (string memory _name) private {... */\n  pop\n  jump\t// out\n    /* \"contracts/ergasia.sol\":3029:3444  function addCandidate (string memory _name) private {... */\ntag_26:\n    /* \"contracts/ergasia.sol\":3091:3106  candidatesCount */\n  0x01\n  0x00\n    /* \"contracts/ergasia.sol\":3091:3108  candidatesCount++ */\n  dup2\n  sload\n  dup1\n  swap3\n  swap2\n  swap1\n  tag_37\n  swap1\n  tag_33\n  jump\t// in\ntag_37:\n  swap2\n  swap1\n  pop\n  sstore\n  pop\n    /* \"contracts/ergasia.sol\":3148:3184  Candidate(candidatesCount, _name, 0) */\n  mload(0x40)\n  dup1\n  0x60\n  add\n  0x40\n  mstore\n  dup1\n    /* \"contracts/ergasia.sol\":3158:3173  candidatesCount */\n  sload(0x01)\n    /* \"contracts/ergasia.sol\":3148:3184  Candidate(candidatesCount, _name, 0) */\n  dup2\n  mstore\n  0x20\n  add\n    /* \"contracts/ergasia.sol\":3175:3180  _name */\n  dup3\n    /* \"contracts/ergasia.sol\":3148:3184  Candidate(candidatesCount, _name, 0) */\n  dup2\n  mstore\n  0x20\n  add\n    /* \"contracts/ergasia.sol\":3182:3183  0 */\n  0x00\n    /* \"contracts/ergasia.sol\":3148:3184  Candidate(candidatesCount, _name, 0) */\n  dup2\n  mstore\n  pop\n    /* \"contracts/ergasia.sol\":3118:3128  candidates */\n  0x06\n    /* \"contracts/ergasia.sol\":3118:3145  candidates[candidatesCount] */\n  0x00\n    /* \"contracts/ergasia.sol\":3129:3144  candidatesCount */\n  sload(0x01)\n    /* \"contracts/ergasia.sol\":3118:3145  candidates[candidatesCount] */\n  dup2\n  mstore\n  0x20\n  add\n  swap1\n  dup2\n  mstore\n  0x20\n  add\n  0x00\n  keccak256\n    /* \"contracts/ergasia.sol\":3118:3184  candidates[candidatesCount] = Candidate(candidatesCount, _name, 0) */\n  0x00\n  dup3\n  add\n  mload\n  dup2\n  0x00\n  add\n  sstore\n  0x20\n  dup3\n  add\n  mload\n  dup2\n  0x01\n  add\n  swap1\n  dup1\n  mload\n  swap1\n  0x20\n  add\n  swap1\n  tag_38\n  swap3\n  swap2\n  swap1\n  tag_35\n  jump\t// in\ntag_38:\n  pop\n  0x40\n  dup3\n  add\n  mload\n  dup2\n  0x02\n  add\n  sstore\n  swap1\n  pop\n  pop\n    /* \"contracts/ergasia.sol\":3200:3206  uint i */\n  0x00\n    /* \"contracts/ergasia.sol\":3209:3210  1 */\n  0x01\n    /* \"contracts/ergasia.sol\":3200:3210  uint i = 1 */\n  swap1\n  pop\n    /* \"contracts/ergasia.sol\":3195:3438  for (uint i = 1; i <= pollingStationCount; i++) {... */\ntag_39:\n    /* \"contracts/ergasia.sol\":3217:3236  pollingStationCount */\n  sload(0x02)\n    /* \"contracts/ergasia.sol\":3212:3213  i */\n  dup2\n    /* \"contracts/ergasia.sol\":3212:3236  i <= pollingStationCount */\n  gt\n    /* \"contracts/ergasia.sol\":3195:3438  for (uint i = 1; i <= pollingStationCount; i++) {... */\n  tag_40\n  jumpi\n    /* \"contracts/ergasia.sol\":3314:3350  Candidate(candidatesCount, _name, 0) */\n  mload(0x40)\n  dup1\n  0x60\n  add\n  0x40\n  mstore\n  dup1\n    /* \"contracts/ergasia.sol\":3324:3339  candidatesCount */\n  sload(0x01)\n    /* \"contracts/ergasia.sol\":3314:3350  Candidate(candidatesCount, _name, 0) */\n  dup2\n  mstore\n  0x20\n  add\n    /* \"contracts/ergasia.sol\":3341:3346  _name */\n  dup4\n    /* \"contracts/ergasia.sol\":3314:3350  Candidate(candidatesCount, _name, 0) */\n  dup2\n  mstore\n  0x20\n  add\n    /* \"contracts/ergasia.sol\":3348:3349  0 */\n  0x00\n    /* \"contracts/ergasia.sol\":3314:3350  Candidate(candidatesCount, _name, 0) */\n  dup2\n  mstore\n  pop\n    /* \"contracts/ergasia.sol\":3257:3272  pollingStations */\n  0x08\n    /* \"contracts/ergasia.sol\":3257:3275  pollingStations[i] */\n  0x00\n    /* \"contracts/ergasia.sol\":3273:3274  i */\n  dup4\n    /* \"contracts/ergasia.sol\":3257:3275  pollingStations[i] */\n  dup2\n  mstore\n  0x20\n  add\n  swap1\n  dup2\n  mstore\n  0x20\n  add\n  0x00\n  keccak256\n    /* \"contracts/ergasia.sol\":3257:3294  pollingStations[i].scoresPerCandidate */\n  0x04\n  add\n    /* \"contracts/ergasia.sol\":3257:3311  pollingStations[i].scoresPerCandidate[candidatesCount] */\n  0x00\n    /* \"contracts/ergasia.sol\":3295:3310  candidatesCount */\n  sload(0x01)\n    /* \"contracts/ergasia.sol\":3257:3311  pollingStations[i].scoresPerCandidate[candidatesCount] */\n  dup2\n  mstore\n  0x20\n  add\n  swap1\n  dup2\n  mstore\n  0x20\n  add\n  0x00\n  keccak256\n    /* \"contracts/ergasia.sol\":3257:3350  pollingStations[i].scoresPerCandidate[candidatesCount] = Candidate(candidatesCount, _name, 0) */\n  0x00\n  dup3\n  add\n  mload\n  dup2\n  0x00\n  add\n  sstore\n  0x20\n  dup3\n  add\n  mload\n  dup2\n  0x01\n  add\n  swap1\n  dup1\n  mload\n  swap1\n  0x20\n  add\n  swap1\n  tag_42\n  swap3\n  swap2\n  swap1\n  tag_35\n  jump\t// in\ntag_42:\n  pop\n  0x40\n  dup3\n  add\n  mload\n  dup2\n  0x02\n  add\n  sstore\n  swap1\n  pop\n  pop\n    /* \"contracts/ergasia.sol\":3391:3427  Candidate(candidatesCount, _name, 0) */\n  mload(0x40)\n  dup1\n  0x60\n  add\n  0x40\n  mstore\n  dup1\n    /* \"contracts/ergasia.sol\":3401:3416  candidatesCount */\n  sload(0x01)\n    /* \"contracts/ergasia.sol\":3391:3427  Candidate(candidatesCount, _name, 0) */\n  dup2\n  mstore\n  0x20\n  add\n    /* \"contracts/ergasia.sol\":3418:3423  _name */\n  dup4\n    /* \"contracts/ergasia.sol\":3391:3427  Candidate(candidatesCount, _name, 0) */\n  dup2\n  mstore\n  0x20\n  add\n    /* \"contracts/ergasia.sol\":3425:3426  0 */\n  0x00\n    /* \"contracts/ergasia.sol\":3391:3427  Candidate(candidatesCount, _name, 0) */\n  dup2\n  mstore\n  pop\n    /* \"contracts/ergasia.sol\":3364:3368  list */\n  0x0b\n    /* \"contracts/ergasia.sol\":3364:3371  list[i] */\n  0x00\n    /* \"contracts/ergasia.sol\":3369:3370  i */\n  dup4\n    /* \"contracts/ergasia.sol\":3364:3371  list[i] */\n  dup2\n  mstore\n  0x20\n  add\n  swap1\n  dup2\n  mstore\n  0x20\n  add\n  0x00\n  keccak256\n    /* \"contracts/ergasia.sol\":3364:3388  list[i][candidatesCount] */\n  0x00\n    /* \"contracts/ergasia.sol\":3372:3387  candidatesCount */\n  sload(0x01)\n    /* \"contracts/ergasia.sol\":3364:3388  list[i][candidatesCount] */\n  dup2\n  mstore\n  0x20\n  add\n  swap1\n  dup2\n  mstore\n  0x20\n  add\n  0x00\n  keccak256\n    /* \"contracts/ergasia.sol\":3364:3427  list[i][candidatesCount] = Candidate(candidatesCount, _name, 0) */\n  0x00\n  dup3\n  add\n  mload\n  dup2\n  0x00\n  add\n  sstore\n  0x20\n  dup3\n  add\n  mload\n  dup2\n  0x01\n  add\n  swap1\n  dup1\n  mload\n  swap1\n  0x20\n  add\n  swap1\n  tag_43\n  swap3\n  swap2\n  swap1\n  tag_35\n  jump\t// in\ntag_43:\n  pop\n  0x40\n  dup3\n  add\n  mload\n  dup2\n  0x02\n  add\n  sstore\n  swap1\n  pop\n  pop\n    /* \"contracts/ergasia.sol\":3238:3241  i++ */\n  dup1\n  dup1\n  tag_44\n  swap1\n  tag_33\n  jump\t// in\ntag_44:\n  swap2\n  pop\n  pop\n    /* \"contracts/ergasia.sol\":3195:3438  for (uint i = 1; i <= pollingStationCount; i++) {... */\n  jump(tag_39)\ntag_40:\n  pop\n    /* \"contracts/ergasia.sol\":3029:3444  function addCandidate (string memory _name) private {... */\n  pop\n  jump\t// out\n    /* \"contracts/ergasia.sol\":70:8348  contract Election {... */\ntag_35:\n  dup3\n  dup1\n  sload\n  tag_45\n  swap1\n  tag_46\n  jump\t// in\ntag_45:\n  swap1\n  0x00\n  mstore\n  keccak256(0x00, 0x20)\n  swap1\n  0x1f\n  add\n  0x20\n  swap1\n  div\n  dup2\n  add\n  swap3\n  dup3\n  tag_48\n  jumpi\n  0x00\n  dup6\n  sstore\n  jump(tag_47)\ntag_48:\n  dup3\n  0x1f\n  lt\n  tag_49\n  jumpi\n  dup1\n  mload\n  not(0xff)\n  and\n  dup4\n  dup1\n  add\n  or\n  dup6\n  sstore\n  jump(tag_47)\ntag_49:\n  dup3\n  dup1\n  add\n  0x01\n  add\n  dup6\n  sstore\n  dup3\n  iszero\n  tag_47\n  jumpi\n  swap2\n  dup3\n  add\ntag_50:\n  dup3\n  dup2\n  gt\n  iszero\n  tag_51\n  jumpi\n  dup3\n  mload\n  dup3\n  sstore\n  swap2\n  0x20\n  add\n  swap2\n  swap1\n  0x01\n  add\n  swap1\n  jump(tag_50)\ntag_51:\ntag_47:\n  pop\n  swap1\n  pop\n  tag_52\n  swap2\n  swap1\n  tag_53\n  jump\t// in\ntag_52:\n  pop\n  swap1\n  jump\t// out\ntag_53:\ntag_54:\n  dup1\n  dup3\n  gt\n  iszero\n  tag_55\n  jumpi\n  0x00\n  dup2\n  0x00\n  swap1\n  sstore\n  pop\n  0x01\n  add\n  jump(tag_54)\ntag_55:\n  pop\n  swap1\n  jump\t// out\n    /* \"#utility.yul\":7:84   */\ntag_57:\n    /* \"#utility.yul\":44:51   */\n  0x00\n    /* \"#utility.yul\":73:78   */\n  dup2\n    /* \"#utility.yul\":62:78   */\n  swap1\n  pop\n    /* \"#utility.yul\":7:84   */\n  swap2\n  swap1\n  pop\n  jump\t// out\n    /* \"#utility.yul\":90:410   */\ntag_46:\n    /* \"#utility.yul\":134:140   */\n  0x00\n    /* \"#utility.yul\":171:172   */\n  0x02\n    /* \"#utility.yul\":165:169   */\n  dup3\n    /* \"#utility.yul\":161:173   */\n  div\n    /* \"#utility.yul\":151:173   */\n  swap1\n  pop\n    /* \"#utility.yul\":218:219   */\n  0x01\n    /* \"#utility.yul\":212:216   */\n  dup3\n    /* \"#utility.yul\":208:220   */\n  and\n    /* \"#utility.yul\":239:257   */\n  dup1\n    /* \"#utility.yul\":229:310   */\n  tag_60\n  jumpi\n    /* \"#utility.yul\":295:299   */\n  0x7f\n    /* \"#utility.yul\":287:293   */\n  dup3\n    /* \"#utility.yul\":283:300   */\n  and\n    /* \"#utility.yul\":273:300   */\n  swap2\n  pop\n    /* \"#utility.yul\":229:310   */\ntag_60:\n    /* \"#utility.yul\":357:359   */\n  0x20\n    /* \"#utility.yul\":349:355   */\n  dup3\n    /* \"#utility.yul\":346:360   */\n  lt\n    /* \"#utility.yul\":326:344   */\n  dup2\n    /* \"#utility.yul\":323:361   */\n  eq\n    /* \"#utility.yul\":320:404   */\n  iszero\n  tag_61\n  jumpi\n    /* \"#utility.yul\":376:394   */\n  tag_62\n  tag_63\n  jump\t// in\ntag_62:\n    /* \"#utility.yul\":320:404   */\ntag_61:\n    /* \"#utility.yul\":141:410   */\n  pop\n    /* \"#utility.yul\":90:410   */\n  swap2\n  swap1\n  pop\n  jump\t// out\n    /* \"#utility.yul\":416:649   */\ntag_33:\n    /* \"#utility.yul\":455:458   */\n  0x00\n    /* \"#utility.yul\":478:502   */\n  tag_65\n    /* \"#utility.yul\":496:501   */\n  dup3\n    /* \"#utility.yul\":478:502   */\n  tag_57\n  jump\t// in\ntag_65:\n    /* \"#utility.yul\":469:502   */\n  swap2\n  pop\n    /* \"#utility.yul\":524:590   */\n  0xffffffffffffffffffffffffffffffffffffffffffffffffffffffffffffffff\n    /* \"#utility.yul\":517:522   */\n  dup3\n    /* \"#utility.yul\":514:591   */\n  eq\n    /* \"#utility.yul\":511:614   */\n  iszero\n  tag_66\n  jumpi\n    /* \"#utility.yul\":594:612   */\n  tag_67\n  tag_68\n  jump\t// in\ntag_67:\n    /* \"#utility.yul\":511:614   */\ntag_66:\n    /* \"#utility.yul\":641:642   */\n  0x01\n    /* \"#utility.yul\":634:639   */\n  dup3\n    /* \"#utility.yul\":630:643   */\n  add\n    /* \"#utility.yul\":623:643   */\n  swap1\n  pop\n    /* \"#utility.yul\":416:649   */\n  swap2\n  swap1\n  pop\n  jump\t// out\n    /* \"#utility.yul\":655:835   */\ntag_68:\n    /* \"#utility.yul\":703:780   */\n  0x4e487b7100000000000000000000000000000000000000000000000000000000\n    /* \"#utility.yul\":700:701   */\n  0x00\n    /* \"#utility.yul\":693:781   */\n  mstore\n    /* \"#utility.yul\":800:804   */\n  0x11\n    /* \"#utility.yul\":797:798   */\n  0x04\n    /* \"#utility.yul\":790:805   */\n  mstore\n    /* \"#utility.yul\":824:828   */\n  0x24\n    /* \"#utility.yul\":821:822   */\n  0x00\n    /* \"#utility.yul\":814:829   */\n  revert\n    /* \"#utility.yul\":841:1021   */\ntag_10:\n    /* \"#utility.yul\":889:966   */\n  0x4e487b7100000000000000000000000000000000000000000000000000000000\n    /* \"#utility.yul\":886:887   */\n  0x00\n    /* \"#utility.yul\":879:967   */\n  mstore\n    /* \"#utility.yul\":986:990   */\n  0x21\n    /* \"#utility.yul\":983:984   */\n  0x04\n    /* \"#utility.yul\":976:991   */\n  mstore\n    /* \"#utility.yul\":1010:1014   */\n  0x24\n    /* \"#utility.yul\":1007:1008   */\n  0x00\n    /* \"#utility.yul\":1000:1015   */\n  revert\n    /* \"#utility.yul\":1027:1207   */\ntag_63:\n    /* \"#utility.yul\":1075:1152   */\n  0x4e487b7100000000000000000000000000000000000000000000000000000000\n    /* \"#utility.yul\":1072:1073   */\n  0x00\n    /* \"#utility.yul\":1065:1153   */\n  mstore\n    /* \"#utility.yul\":1172:1176   */\n  0x22\n    /* \"#utility.yul\":1169:1170   */\n  0x04\n    /* \"#utility.yul\":1162:1177   */\n  mstore\n    /* \"#utility.yul\":1196:1200   */\n  0x24\n    /* \"#utility.yul\":1193:1194   */\n  0x00\n    /* \"#utility.yul\":1186:1201   */\n  revert\n    /* \"contracts/ergasia.sol\":70:8348  contract Election {... */\ntag_11:\n  dataSize(sub_0)\n  dup1\n  dataOffset(sub_0)\n  0x00\n  codecopy\n  0x00\n  return\nstop\n\nsub_0: assembly {\n        /* \"contracts/ergasia.sol\":70:8348  contract Election {... */\n      mstore(0x40, 0x80)\n      callvalue\n      dup1\n      iszero\n      tag_1\n      jumpi\n      0x00\n      dup1\n      revert\n    tag_1:\n      pop\n      jumpi(tag_2, lt(calldatasize, 0x04))\n      shr(0xe0, calldataload(0x00))\n      dup1\n      0x91f36633\n      gt\n      tag_20\n      jumpi\n      dup1\n      0xc19d93fb\n      gt\n      tag_21\n      jumpi\n      dup1\n      0xc19d93fb\n      eq\n      tag_15\n      jumpi\n      dup1\n      0xd3808ae0\n      eq\n      tag_16\n      jumpi\n      dup1\n      0xdf9f1a07\n      eq\n      tag_17\n      jumpi\n      dup1\n      0xf3a8286f\n      eq\n      tag_18\n      jumpi\n      dup1\n      0xfe2442d7\n      eq\n      tag_19\n      jumpi\n      jump(tag_2)\n    tag_21:\n      dup1\n      0x91f36633\n      eq\n      tag_11\n      jumpi\n      dup1\n      0xa3ec138d\n      eq\n      tag_12\n      jumpi\n      dup1\n      0xb9223946\n      eq\n      tag_13\n      jumpi\n      dup1\n      0xb9f05f2f\n      eq\n      tag_14\n      jumpi\n      jump(tag_2)\n    tag_20:\n      dup1\n      0x3477ee2e\n      gt\n      tag_22\n      jumpi\n      dup1\n      0x3477ee2e\n      eq\n      tag_7\n      jumpi\n      dup1\n      0x4763d4e7\n      eq\n      tag_8\n      jumpi\n      dup1\n      0x4c0a6af0\n      eq\n      tag_9\n      jumpi\n      dup1\n      0x53357ad0\n      eq\n      tag_10\n      jumpi\n      jump(tag_2)\n    tag_22:\n      dup1\n      0xaa7464\n      eq\n      tag_3\n      jumpi\n      dup1\n      0x23a1b11c\n      eq\n      tag_4\n      jumpi\n      dup1\n      0x2c0a3f89\n      eq\n      tag_5\n      jumpi\n      dup1\n      0x2d35a8a2\n      eq\n      tag_6\n      jumpi\n    tag_2:\n      0x00\n      dup1\n      revert\n        /* \"contracts/ergasia.sol\":1418:1451  uint public totalRegisteredVoters */\n    tag_3:\n      tag_23\n      tag_24\n      jump\t// in\n    tag_23:\n      mload(0x40)\n      tag_25\n      swap2\n      swap1\n      tag_26\n      jump\t// in\n    tag_25:\n      mload(0x40)\n      dup1\n      swap2\n      sub\n      swap1\n      return\n        /* \"contracts/ergasia.sol\":8062:8345  function getResultsPerStation(uint _pStationID) public view returns (uint[] memory) {... */\n    tag_4:\n      tag_27\n      0x04\n      dup1\n      calldatasize\n      sub\n      dup2\n      add\n      swap1\n      tag_28\n      swap2\n      swap1\n      tag_29\n      jump\t// in\n    tag_28:\n      tag_30\n      jump\t// in\n    tag_27:\n      mload(0x40)\n      tag_31\n      swap2\n      swap1\n      tag_32\n      jump\t// in\n    tag_31:\n      mload(0x40)\n      dup1\n      swap2\n      sub\n      swap1\n      return\n        /* \"contracts/ergasia.sol\":6595:7547  function castVote(uint _choice, uint _pollingStationID) public inState(State.Voting) returns (bool voted) {... */\n    tag_5:\n      tag_33\n      0x04\n      dup1\n      calldatasize\n      sub\n      dup2\n      add\n      swap1\n      tag_34\n      swap2\n      swap1\n      tag_35\n      jump\t// in\n    tag_34:\n      tag_36\n      jump\t// in\n    tag_33:\n      mload(0x40)\n      tag_37\n      swap2\n      swap1\n      tag_38\n      jump\t// in\n    tag_37:\n      mload(0x40)\n      dup1\n      swap2\n      sub\n      swap1\n      return\n        /* \"contracts/ergasia.sol\":1276:1303  uint public candidatesCount */\n    tag_6:\n      tag_39\n      tag_40\n      jump\t// in\n    tag_39:\n      mload(0x40)\n      tag_41\n      swap2\n      swap1\n      tag_26\n      jump\t// in\n    tag_41:\n      mload(0x40)\n      dup1\n      swap2\n      sub\n      swap1\n      return\n        /* \"contracts/ergasia.sol\":1621:1665  mapping(uint => Candidate) public candidates */\n    tag_7:\n      tag_42\n      0x04\n      dup1\n      calldatasize\n      sub\n      dup2\n      add\n      swap1\n      tag_43\n      swap2\n      swap1\n      tag_29\n      jump\t// in\n    tag_43:\n      tag_44\n      jump\t// in\n    tag_42:\n      mload(0x40)\n      tag_45\n      swap4\n      swap3\n      swap2\n      swap1\n      tag_46\n      jump\t// in\n    tag_45:\n      mload(0x40)\n      dup1\n      swap2\n      sub\n      swap1\n      return\n        /* \"contracts/ergasia.sol\":1880:1926  mapping(address => Voter) public voterRegistry */\n    tag_8:\n      tag_47\n      0x04\n      dup1\n      calldatasize\n      sub\n      dup2\n      add\n      swap1\n      tag_48\n      swap2\n      swap1\n      tag_49\n      jump\t// in\n    tag_48:\n      tag_50\n      jump\t// in\n    tag_47:\n      mload(0x40)\n      tag_51\n      swap6\n      swap5\n      swap4\n      swap3\n      swap2\n      swap1\n      tag_52\n      jump\t// in\n    tag_51:\n      mload(0x40)\n      dup1\n      swap2\n      sub\n      swap1\n      return\n        /* \"contracts/ergasia.sol\":6495:6589  function startVote() public inState(State.Created) Owner {... */\n    tag_9:\n      tag_53\n      tag_54\n      jump\t// in\n    tag_53:\n      stop\n        /* \"contracts/ergasia.sol\":1242:1270  address public electionOwner */\n    tag_10:\n      tag_55\n      tag_56\n      jump\t// in\n    tag_55:\n      mload(0x40)\n      tag_57\n      swap2\n      swap1\n      tag_58\n      jump\t// in\n    tag_57:\n      mload(0x40)\n      dup1\n      swap2\n      sub\n      swap1\n      return\n        /* \"contracts/ergasia.sol\":7883:8056  function getVotes(uint _pStationID, uint _candidateID) public view returns (uint) {... */\n    tag_11:\n      tag_59\n      0x04\n      dup1\n      calldatasize\n      sub\n      dup2\n      add\n      swap1\n      tag_60\n      swap2\n      swap1\n      tag_35\n      jump\t// in\n    tag_60:\n      tag_61\n      jump\t// in\n    tag_59:\n      mload(0x40)\n      tag_62\n      swap2\n      swap1\n      tag_26\n      jump\t// in\n    tag_62:\n      mload(0x40)\n      dup1\n      swap2\n      sub\n      swap1\n      return\n        /* \"contracts/ergasia.sol\":1932:1970  mapping(address => bool) public voters */\n    tag_12:\n      tag_63\n      0x04\n      dup1\n      calldatasize\n      sub\n      dup2\n      add\n      swap1\n      tag_64\n      swap2\n      swap1\n      tag_49\n      jump\t// in\n    tag_64:\n      tag_65\n      jump\t// in\n    tag_63:\n      mload(0x40)\n      tag_66\n      swap2\n      swap1\n      tag_38\n      jump\t// in\n    tag_66:\n      mload(0x40)\n      dup1\n      swap2\n      sub\n      swap1\n      return\n        /* \"contracts/ergasia.sol\":7553:7679  function endVote() public inState(State.Voting) Owner { ... */\n    tag_13:\n      tag_67\n      tag_68\n      jump\t// in\n    tag_67:\n      stop\n        /* \"contracts/ergasia.sol\":5041:5961  function addVoter(address _voterAddress, uint _pollingStationID) public inState(State.Created) Owner {... */\n    tag_14:\n      tag_69\n      0x04\n      dup1\n      calldatasize\n      sub\n      dup2\n      add\n      swap1\n      tag_70\n      swap2\n      swap1\n      tag_71\n      jump\t// in\n    tag_70:\n      tag_72\n      jump\t// in\n    tag_69:\n      stop\n        /* \"contracts/ergasia.sol\":2077:2095  State public state */\n    tag_15:\n      tag_73\n      tag_74\n      jump\t// in\n    tag_73:\n      mload(0x40)\n      tag_75\n      swap2\n      swap1\n      tag_76\n      jump\t// in\n    tag_75:\n      mload(0x40)\n      dup1\n      swap2\n      sub\n      swap1\n      return\n        /* \"contracts/ergasia.sol\":7685:7877  function getResultsPerStation1(uint _pStationID, uint _candidateID) public view returns (Candidate memory) {... */\n    tag_16:\n      tag_77\n      0x04\n      dup1\n      calldatasize\n      sub\n      dup2\n      add\n      swap1\n      tag_78\n      swap2\n      swap1\n      tag_35\n      jump\t// in\n    tag_78:\n      tag_79\n      jump\t// in\n    tag_77:\n      mload(0x40)\n      tag_80\n      swap2\n      swap1\n      tag_81\n      jump\t// in\n    tag_80:\n      mload(0x40)\n      dup1\n      swap2\n      sub\n      swap1\n      return\n        /* \"contracts/ergasia.sol\":1344:1375  uint public pollingStationCount */\n    tag_17:\n      tag_82\n      tag_83\n      jump\t// in\n    tag_82:\n      mload(0x40)\n      tag_84\n      swap2\n      swap1\n      tag_26\n      jump\t// in\n    tag_84:\n      mload(0x40)\n      dup1\n      swap2\n      sub\n      swap1\n      return\n        /* \"contracts/ergasia.sol\":1539:1562  uint public finalResult */\n    tag_18:\n      tag_85\n      tag_86\n      jump\t// in\n    tag_85:\n      mload(0x40)\n      tag_87\n      swap2\n      swap1\n      tag_26\n      jump\t// in\n    tag_87:\n      mload(0x40)\n      dup1\n      swap2\n      sub\n      swap1\n      return\n        /* \"contracts/ergasia.sol\":1794:1848  mapping(uint => PollingStation) public pollingStations */\n    tag_19:\n      tag_88\n      0x04\n      dup1\n      calldatasize\n      sub\n      dup2\n      add\n      swap1\n      tag_89\n      swap2\n      swap1\n      tag_29\n      jump\t// in\n    tag_89:\n      tag_90\n      jump\t// in\n    tag_88:\n      mload(0x40)\n      tag_91\n      swap5\n      swap4\n      swap3\n      swap2\n      swap1\n      tag_92\n      jump\t// in\n    tag_91:\n      mload(0x40)\n      dup1\n      swap2\n      sub\n      swap1\n      return\n        /* \"contracts/ergasia.sol\":1418:1451  uint public totalRegisteredVoters */\n    tag_24:\n      sload(0x03)\n      dup2\n      jump\t// out\n        /* \"contracts/ergasia.sol\":8062:8345  function getResultsPerStation(uint _pStationID) public view returns (uint[] memory) {... */\n    tag_30:\n        /* \"contracts/ergasia.sol\":8131:8144  uint[] memory */\n      0x60\n        /* \"contracts/ergasia.sol\":8156:8174  uint[] memory list */\n      0x00\n        /* \"contracts/ergasia.sol\":8188:8203  candidatesCount */\n      sload(0x01)\n        /* \"contracts/ergasia.sol\":8177:8204  new uint[](candidatesCount) */\n      0xffffffffffffffff\n      dup2\n      gt\n      iszero\n      tag_94\n      jumpi\n      tag_95\n      tag_96\n      jump\t// in\n    tag_95:\n    tag_94:\n      mload(0x40)\n      swap1\n      dup1\n      dup3\n      mstore\n      dup1\n      0x20\n      mul\n      0x20\n      add\n      dup3\n      add\n      0x40\n      mstore\n      dup1\n      iszero\n      tag_97\n      jumpi\n      dup2\n      0x20\n      add\n      0x20\n      dup3\n      mul\n      dup1\n      calldatasize\n      dup4\n      calldatacopy\n      dup1\n      dup3\n      add\n      swap2\n      pop\n      pop\n      swap1\n      pop\n    tag_97:\n      pop\n        /* \"contracts/ergasia.sol\":8156:8204  uint[] memory list = new uint[](candidatesCount) */\n      swap1\n      pop\n        /* \"contracts/ergasia.sol\":8220:8226  uint i */\n      0x00\n        /* \"contracts/ergasia.sol\":8229:8230  1 */\n      0x01\n        /* \"contracts/ergasia.sol\":8220:8230  uint i = 1 */\n      swap1\n      pop\n        /* \"contracts/ergasia.sol\":8215:8318  for (uint i = 1; i <= candidatesCount; i++) {... */\n    tag_98:\n        /* \"contracts/ergasia.sol\":8237:8252  candidatesCount */\n      sload(0x01)\n        /* \"contracts/ergasia.sol\":8232:8233  i */\n      dup2\n        /* \"contracts/ergasia.sol\":8232:8252  i <= candidatesCount */\n      gt\n        /* \"contracts/ergasia.sol\":8215:8318  for (uint i = 1; i <= candidatesCount; i++) {... */\n      tag_99\n      jumpi\n        /* \"contracts/ergasia.sol\":8282:8306  getVotes(_pStationID, i) */\n      tag_101\n        /* \"contracts/ergasia.sol\":8291:8302  _pStationID */\n      dup5\n        /* \"contracts/ergasia.sol\":8304:8305  i */\n      dup3\n        /* \"contracts/ergasia.sol\":8282:8290  getVotes */\n      tag_61\n        /* \"contracts/ergasia.sol\":8282:8306  getVotes(_pStationID, i) */\n      jump\t// in\n    tag_101:\n        /* \"contracts/ergasia.sol\":8272:8276  list */\n      dup3\n        /* \"contracts/ergasia.sol\":8277:8278  i */\n      dup3\n        /* \"contracts/ergasia.sol\":8272:8279  list[i] */\n      dup2\n      mload\n      dup2\n      lt\n      tag_102\n      jumpi\n      tag_103\n      tag_104\n      jump\t// in\n    tag_103:\n    tag_102:\n      0x20\n      mul\n      0x20\n      add\n      add\n        /* \"contracts/ergasia.sol\":8272:8306  list[i] = getVotes(_pStationID, i) */\n      dup2\n      dup2\n      mstore\n      pop\n      pop\n        /* \"contracts/ergasia.sol\":8254:8257  i++ */\n      dup1\n      dup1\n      tag_105\n      swap1\n      tag_106\n      jump\t// in\n    tag_105:\n      swap2\n      pop\n      pop\n        /* \"contracts/ergasia.sol\":8215:8318  for (uint i = 1; i <= candidatesCount; i++) {... */\n      jump(tag_98)\n    tag_99:\n      pop\n        /* \"contracts/ergasia.sol\":8334:8338  list */\n      dup1\n        /* \"contracts/ergasia.sol\":8327:8338  return list */\n      swap2\n      pop\n      pop\n        /* \"contracts/ergasia.sol\":8062:8345  function getResultsPerStation(uint _pStationID) public view returns (uint[] memory) {... */\n      swap2\n      swap1\n      pop\n      jump\t// out\n        /* \"contracts/ergasia.sol\":6595:7547  function castVote(uint _choice, uint _pollingStationID) public inState(State.Voting) returns (bool voted) {... */\n    tag_36:\n        /* \"contracts/ergasia.sol\":6689:6699  bool voted */\n      0x00\n        /* \"contracts/ergasia.sol\":6666:6678  State.Voting */\n      0x01\n        /* \"contracts/ergasia.sol\":2247:2253  _state */\n      dup1\n        /* \"contracts/ergasia.sol\":2238:2253  state == _state */\n      0x02\n      dup2\n      gt\n      iszero\n      tag_108\n      jumpi\n      tag_109\n      tag_110\n      jump\t// in\n    tag_109:\n    tag_108:\n        /* \"contracts/ergasia.sol\":2238:2243  state */\n      0x0c\n      0x00\n      swap1\n      sload\n      swap1\n      0x0100\n      exp\n      swap1\n      div\n      0xff\n      and\n        /* \"contracts/ergasia.sol\":2238:2253  state == _state */\n      0x02\n      dup2\n      gt\n      iszero\n      tag_111\n      jumpi\n      tag_112\n      tag_110\n      jump\t// in\n    tag_112:\n    tag_111:\n      eq\n        /* \"contracts/ergasia.sol\":2230:2254  require(state == _state) */\n      tag_113\n      jumpi\n      0x00\n      dup1\n      revert\n    tag_113:\n        /* \"contracts/ergasia.sol\":6712:6722  bool found */\n      0x00\n        /* \"contracts/ergasia.sol\":6745:6758  voterRegistry */\n      0x09\n        /* \"contracts/ergasia.sol\":6745:6770  voterRegistry[msg.sender] */\n      0x00\n        /* \"contracts/ergasia.sol\":6759:6769  msg.sender */\n      caller\n        /* \"contracts/ergasia.sol\":6745:6770  voterRegistry[msg.sender] */\n      0xffffffffffffffffffffffffffffffffffffffff\n      and\n      0xffffffffffffffffffffffffffffffffffffffff\n      and\n      dup2\n      mstore\n      0x20\n      add\n      swap1\n      dup2\n      mstore\n      0x20\n      add\n      0x00\n      keccak256\n        /* \"contracts/ergasia.sol\":6745:6781  voterRegistry[msg.sender].isEnrolled */\n      0x00\n      add\n      0x00\n      swap1\n      sload\n      swap1\n      0x0100\n      exp\n      swap1\n      div\n      0xff\n      and\n        /* \"contracts/ergasia.sol\":6745:6820  voterRegistry[msg.sender].isEnrolled && !voterRegistry[msg.sender].hasVoted */\n      dup1\n      iszero\n      tag_115\n      jumpi\n      pop\n        /* \"contracts/ergasia.sol\":6786:6799  voterRegistry */\n      0x09\n        /* \"contracts/ergasia.sol\":6786:6811  voterRegistry[msg.sender] */\n      0x00\n        /* \"contracts/ergasia.sol\":6800:6810  msg.sender */\n      caller\n        /* \"contracts/ergasia.sol\":6786:6811  voterRegistry[msg.sender] */\n      0xffffffffffffffffffffffffffffffffffffffff\n      and\n      0xffffffffffffffffffffffffffffffffffffffff\n      and\n      dup2\n      mstore\n      0x20\n      add\n      swap1\n      dup2\n      mstore\n      0x20\n      add\n      0x00\n      keccak256\n        /* \"contracts/ergasia.sol\":6786:6820  voterRegistry[msg.sender].hasVoted */\n      0x00\n      add\n      0x01\n      swap1\n      sload\n      swap1\n      0x0100\n      exp\n      swap1\n      div\n      0xff\n      and\n        /* \"contracts/ergasia.sol\":6785:6820  !voterRegistry[msg.sender].hasVoted */\n      iszero\n        /* \"contracts/ergasia.sol\":6745:6820  voterRegistry[msg.sender].isEnrolled && !voterRegistry[msg.sender].hasVoted */\n    tag_115:\n        /* \"contracts/ergasia.sol\":6741:7519  if (voterRegistry[msg.sender].isEnrolled && !voterRegistry[msg.sender].hasVoted) {... */\n      iszero\n      tag_116\n      jumpi\n        /* \"contracts/ergasia.sol\":6872:6879  _choice */\n      dup5\n        /* \"contracts/ergasia.sol\":6837:6850  voterRegistry */\n      0x09\n        /* \"contracts/ergasia.sol\":6837:6862  voterRegistry[msg.sender] */\n      0x00\n        /* \"contracts/ergasia.sol\":6851:6861  msg.sender */\n      caller\n        /* \"contracts/ergasia.sol\":6837:6862  voterRegistry[msg.sender] */\n      0xffffffffffffffffffffffffffffffffffffffff\n      and\n      0xffffffffffffffffffffffffffffffffffffffff\n      and\n      dup2\n      mstore\n      0x20\n      add\n      swap1\n      dup2\n      mstore\n      0x20\n      add\n      0x00\n      keccak256\n        /* \"contracts/ergasia.sol\":6837:6869  voterRegistry[msg.sender].choice */\n      0x01\n      add\n        /* \"contracts/ergasia.sol\":6837:6879  voterRegistry[msg.sender].choice = _choice */\n      dup2\n      swap1\n      sstore\n      pop\n        /* \"contracts/ergasia.sol\":6943:6960  _pollingStationID */\n      dup4\n        /* \"contracts/ergasia.sol\":6893:6906  voterRegistry */\n      0x09\n        /* \"contracts/ergasia.sol\":6893:6918  voterRegistry[msg.sender] */\n      0x00\n        /* \"contracts/ergasia.sol\":6907:6917  msg.sender */\n      caller\n        /* \"contracts/ergasia.sol\":6893:6918  voterRegistry[msg.sender] */\n      0xffffffffffffffffffffffffffffffffffffffff\n      and\n      0xffffffffffffffffffffffffffffffffffffffff\n      and\n      dup2\n      mstore\n      0x20\n      add\n      swap1\n      dup2\n      mstore\n      0x20\n      add\n      0x00\n      keccak256\n        /* \"contracts/ergasia.sol\":6893:6940  voterRegistry[msg.sender].votedPollingStationID */\n      0x03\n      add\n        /* \"contracts/ergasia.sol\":6893:6960  voterRegistry[msg.sender].votedPollingStationID = _pollingStationID */\n      dup2\n      swap1\n      sstore\n      pop\n        /* \"contracts/ergasia.sol\":7011:7015  true */\n      0x01\n        /* \"contracts/ergasia.sol\":6974:6987  voterRegistry */\n      0x09\n        /* \"contracts/ergasia.sol\":6974:6999  voterRegistry[msg.sender] */\n      0x00\n        /* \"contracts/ergasia.sol\":6988:6998  msg.sender */\n      caller\n        /* \"contracts/ergasia.sol\":6974:6999  voterRegistry[msg.sender] */\n      0xffffffffffffffffffffffffffffffffffffffff\n      and\n      0xffffffffffffffffffffffffffffffffffffffff\n      and\n      dup2\n      mstore\n      0x20\n      add\n      swap1\n      dup2\n      mstore\n      0x20\n      add\n      0x00\n      keccak256\n        /* \"contracts/ergasia.sol\":6974:7008  voterRegistry[msg.sender].hasVoted */\n      0x00\n      add\n      0x01\n        /* \"contracts/ergasia.sol\":6974:7015  voterRegistry[msg.sender].hasVoted = true */\n      0x0100\n      exp\n      dup2\n      sload\n      dup2\n      0xff\n      mul\n      not\n      and\n      swap1\n      dup4\n      iszero\n      iszero\n      mul\n      or\n      swap1\n      sstore\n      pop\n        /* \"contracts/ergasia.sol\":7030:7045  pollingStations */\n      0x08\n        /* \"contracts/ergasia.sol\":7030:7064  pollingStations[_pollingStationID] */\n      0x00\n        /* \"contracts/ergasia.sol\":7046:7063  _pollingStationID */\n      dup6\n        /* \"contracts/ergasia.sol\":7030:7064  pollingStations[_pollingStationID] */\n      dup2\n      mstore\n      0x20\n      add\n      swap1\n      dup2\n      mstore\n      0x20\n      add\n      0x00\n      keccak256\n        /* \"contracts/ergasia.sol\":7030:7076  pollingStations[_pollingStationID].votesCasted */\n      0x03\n      add\n      0x00\n        /* \"contracts/ergasia.sol\":7030:7078  pollingStations[_pollingStationID].votesCasted++ */\n      dup2\n      sload\n      dup1\n      swap3\n      swap2\n      swap1\n      tag_117\n      swap1\n      tag_106\n      jump\t// in\n    tag_117:\n      swap2\n      swap1\n      pop\n      sstore\n      pop\n        /* \"contracts/ergasia.sol\":7093:7103  candidates */\n      0x06\n        /* \"contracts/ergasia.sol\":7093:7112  candidates[_choice] */\n      0x00\n        /* \"contracts/ergasia.sol\":7104:7111  _choice */\n      dup7\n        /* \"contracts/ergasia.sol\":7093:7112  candidates[_choice] */\n      dup2\n      mstore\n      0x20\n      add\n      swap1\n      dup2\n      mstore\n      0x20\n      add\n      0x00\n      keccak256\n        /* \"contracts/ergasia.sol\":7093:7118  candidates[_choice].votes */\n      0x02\n      add\n      0x00\n        /* \"contracts/ergasia.sol\":7093:7120  candidates[_choice].votes++ */\n      dup2\n      sload\n      dup1\n      swap3\n      swap2\n      swap1\n      tag_118\n      swap1\n      tag_106\n      jump\t// in\n    tag_118:\n      swap2\n      swap1\n      pop\n      sstore\n      pop\n        /* \"contracts/ergasia.sol\":7135:7146  countResult */\n      0x04\n      0x00\n        /* \"contracts/ergasia.sol\":7135:7148  countResult++ */\n      dup2\n      sload\n      dup1\n      swap3\n      swap2\n      swap1\n      tag_119\n      swap1\n      tag_106\n      jump\t// in\n    tag_119:\n      swap2\n      swap1\n      pop\n      sstore\n      pop\n        /* \"contracts/ergasia.sol\":7170:7174  true */\n      0x01\n        /* \"contracts/ergasia.sol\":7162:7174  found = true */\n      swap1\n      pop\n        /* \"contracts/ergasia.sol\":7209:7214  found */\n      dup1\n        /* \"contracts/ergasia.sol\":7188:7194  voters */\n      0x0a\n        /* \"contracts/ergasia.sol\":7188:7206  voters[msg.sender] */\n      0x00\n        /* \"contracts/ergasia.sol\":7195:7205  msg.sender */\n      caller\n        /* \"contracts/ergasia.sol\":7188:7206  voters[msg.sender] */\n      0xffffffffffffffffffffffffffffffffffffffff\n      and\n      0xffffffffffffffffffffffffffffffffffffffff\n      and\n      dup2\n      mstore\n      0x20\n      add\n      swap1\n      dup2\n      mstore\n      0x20\n      add\n      0x00\n      keccak256\n      0x00\n        /* \"contracts/ergasia.sol\":7188:7214  voters[msg.sender] = found */\n      0x0100\n      exp\n      dup2\n      sload\n      dup2\n      0xff\n      mul\n      not\n      and\n      swap1\n      dup4\n      iszero\n      iszero\n      mul\n      or\n      swap1\n      sstore\n      pop\n        /* \"contracts/ergasia.sol\":7301:7302  1 */\n      0x01\n        /* \"contracts/ergasia.sol\":7229:7244  pollingStations */\n      0x08\n        /* \"contracts/ergasia.sol\":7229:7263  pollingStations[_pollingStationID] */\n      0x00\n        /* \"contracts/ergasia.sol\":7245:7262  _pollingStationID */\n      dup7\n        /* \"contracts/ergasia.sol\":7229:7263  pollingStations[_pollingStationID] */\n      dup2\n      mstore\n      0x20\n      add\n      swap1\n      dup2\n      mstore\n      0x20\n      add\n      0x00\n      keccak256\n        /* \"contracts/ergasia.sol\":7229:7282  pollingStations[_pollingStationID].scoresPerCandidate */\n      0x04\n      add\n        /* \"contracts/ergasia.sol\":7229:7291  pollingStations[_pollingStationID].scoresPerCandidate[_choice] */\n      0x00\n        /* \"contracts/ergasia.sol\":7283:7290  _choice */\n      dup8\n        /* \"contracts/ergasia.sol\":7229:7291  pollingStations[_pollingStationID].scoresPerCandidate[_choice] */\n      dup2\n      mstore\n      0x20\n      add\n      swap1\n      dup2\n      mstore\n      0x20\n      add\n      0x00\n      keccak256\n        /* \"contracts/ergasia.sol\":7229:7297  pollingStations[_pollingStationID].scoresPerCandidate[_choice].votes */\n      0x02\n      add\n      0x00\n        /* \"contracts/ergasia.sol\":7229:7302  pollingStations[_pollingStationID].scoresPerCandidate[_choice].votes += 1 */\n      dup3\n      dup3\n      sload\n      tag_120\n      swap2\n      swap1\n      tag_121\n      jump\t// in\n    tag_120:\n      swap3\n      pop\n      pop\n      dup2\n      swap1\n      sstore\n      pop\n        /* \"contracts/ergasia.sol\":7316:7320  list */\n      0x0b\n        /* \"contracts/ergasia.sol\":7316:7339  list[_pollingStationID] */\n      0x00\n        /* \"contracts/ergasia.sol\":7321:7338  _pollingStationID */\n      dup6\n        /* \"contracts/ergasia.sol\":7316:7339  list[_pollingStationID] */\n      dup2\n      mstore\n      0x20\n      add\n      swap1\n      dup2\n      mstore\n      0x20\n      add\n      0x00\n      keccak256\n        /* \"contracts/ergasia.sol\":7316:7348  list[_pollingStationID][_choice] */\n      0x00\n        /* \"contracts/ergasia.sol\":7340:7347  _choice */\n      dup7\n        /* \"contracts/ergasia.sol\":7316:7348  list[_pollingStationID][_choice] */\n      dup2\n      mstore\n      0x20\n      add\n      swap1\n      dup2\n      mstore\n      0x20\n      add\n      0x00\n      keccak256\n        /* \"contracts/ergasia.sol\":7316:7354  list[_pollingStationID][_choice].votes */\n      0x02\n      add\n      0x00\n        /* \"contracts/ergasia.sol\":7316:7356  list[_pollingStationID][_choice].votes++ */\n      dup2\n      sload\n      dup1\n      swap3\n      swap2\n      swap1\n      tag_122\n      swap1\n      tag_106\n      jump\t// in\n    tag_122:\n      swap2\n      swap1\n      pop\n      sstore\n      pop\n        /* \"contracts/ergasia.sol\":7463:7508  VoteCasted(found, _choice, _pollingStationID) */\n      0x29a25b3d0b6ff7e5de2a60a2e8e76d1bdaf4894ec18c598cc1687213f442c5cb\n        /* \"contracts/ergasia.sol\":7474:7479  found */\n      dup2\n        /* \"contracts/ergasia.sol\":7481:7488  _choice */\n      dup7\n        /* \"contracts/ergasia.sol\":7490:7507  _pollingStationID */\n      dup7\n        /* \"contracts/ergasia.sol\":7463:7508  VoteCasted(found, _choice, _pollingStationID) */\n      mload(0x40)\n      tag_123\n      swap4\n      swap3\n      swap2\n      swap1\n      tag_124\n      jump\t// in\n    tag_123:\n      mload(0x40)\n      dup1\n      swap2\n      sub\n      swap1\n      log1\n        /* \"contracts/ergasia.sol\":6741:7519  if (voterRegistry[msg.sender].isEnrolled && !voterRegistry[msg.sender].hasVoted) {... */\n    tag_116:\n        /* \"contracts/ergasia.sol\":7535:7540  found */\n      dup1\n        /* \"contracts/ergasia.sol\":7528:7540  return found */\n      swap3\n      pop\n      pop\n        /* \"contracts/ergasia.sol\":6595:7547  function castVote(uint _choice, uint _pollingStationID) public inState(State.Voting) returns (bool voted) {... */\n      pop\n      swap3\n      swap2\n      pop\n      pop\n      jump\t// out\n        /* \"contracts/ergasia.sol\":1276:1303  uint public candidatesCount */\n    tag_40:\n      sload(0x01)\n      dup2\n      jump\t// out\n        /* \"contracts/ergasia.sol\":1621:1665  mapping(uint => Candidate) public candidates */\n    tag_44:\n      mstore(0x20, 0x06)\n      dup1\n      0x00\n      mstore\n      keccak256(0x00, 0x40)\n      0x00\n      swap2\n      pop\n      swap1\n      pop\n      dup1\n      0x00\n      add\n      sload\n      swap1\n      dup1\n      0x01\n      add\n      dup1\n      sload\n      tag_125\n      swap1\n      tag_126\n      jump\t// in\n    tag_125:\n      dup1\n      0x1f\n      add\n      0x20\n      dup1\n      swap2\n      div\n      mul\n      0x20\n      add\n      mload(0x40)\n      swap1\n      dup2\n      add\n      0x40\n      mstore\n      dup1\n      swap3\n      swap2\n      swap1\n      dup2\n      dup2\n      mstore\n      0x20\n      add\n      dup3\n      dup1\n      sload\n      tag_127\n      swap1\n      tag_126\n      jump\t// in\n    tag_127:\n      dup1\n      iszero\n      tag_128\n      jumpi\n      dup1\n      0x1f\n      lt\n      tag_129\n      jumpi\n      0x0100\n      dup1\n      dup4\n      sload\n      div\n      mul\n      dup4\n      mstore\n      swap2\n      0x20\n      add\n      swap2\n      jump(tag_128)\n    tag_129:\n      dup3\n      add\n      swap2\n      swap1\n      0x00\n      mstore\n      keccak256(0x00, 0x20)\n      swap1\n    tag_130:\n      dup2\n      sload\n      dup2\n      mstore\n      swap1\n      0x01\n      add\n      swap1\n      0x20\n      add\n      dup1\n      dup4\n      gt\n      tag_130\n      jumpi\n      dup3\n      swap1\n      sub\n      0x1f\n      and\n      dup3\n      add\n      swap2\n    tag_128:\n      pop\n      pop\n      pop\n      pop\n      pop\n      swap1\n      dup1\n      0x02\n      add\n      sload\n      swap1\n      pop\n      dup4\n      jump\t// out\n        /* \"contracts/ergasia.sol\":1880:1926  mapping(address => Voter) public voterRegistry */\n    tag_50:\n      mstore(0x20, 0x09)\n      dup1\n      0x00\n      mstore\n      keccak256(0x00, 0x40)\n      0x00\n      swap2\n      pop\n      swap1\n      pop\n      dup1\n      0x00\n      add\n      0x00\n      swap1\n      sload\n      swap1\n      0x0100\n      exp\n      swap1\n      div\n      0xff\n      and\n      swap1\n      dup1\n      0x00\n      add\n      0x01\n      swap1\n      sload\n      swap1\n      0x0100\n      exp\n      swap1\n      div\n      0xff\n      and\n      swap1\n      dup1\n      0x01\n      add\n      sload\n      swap1\n      dup1\n      0x02\n      add\n      sload\n      swap1\n      dup1\n      0x03\n      add\n      sload\n      swap1\n      pop\n      dup6\n      jump\t// out\n        /* \"contracts/ergasia.sol\":6495:6589  function startVote() public inState(State.Created) Owner {... */\n    tag_54:\n        /* \"contracts/ergasia.sol\":6531:6544  State.Created */\n      0x00\n        /* \"contracts/ergasia.sol\":2247:2253  _state */\n      dup1\n        /* \"contracts/ergasia.sol\":2238:2253  state == _state */\n      0x02\n      dup2\n      gt\n      iszero\n      tag_132\n      jumpi\n      tag_133\n      tag_110\n      jump\t// in\n    tag_133:\n    tag_132:\n        /* \"contracts/ergasia.sol\":2238:2243  state */\n      0x0c\n      0x00\n      swap1\n      sload\n      swap1\n      0x0100\n      exp\n      swap1\n      div\n      0xff\n      and\n        /* \"contracts/ergasia.sol\":2238:2253  state == _state */\n      0x02\n      dup2\n      gt\n      iszero\n      tag_134\n      jumpi\n      tag_135\n      tag_110\n      jump\t// in\n    tag_135:\n    tag_134:\n      eq\n        /* \"contracts/ergasia.sol\":2230:2254  require(state == _state) */\n      tag_136\n      jumpi\n      0x00\n      dup1\n      revert\n    tag_136:\n        /* \"contracts/ergasia.sol\":2151:2164  electionOwner */\n      0x00\n      dup1\n      sload\n      swap1\n      0x0100\n      exp\n      swap1\n      div\n      0xffffffffffffffffffffffffffffffffffffffff\n      and\n        /* \"contracts/ergasia.sol\":2137:2164  msg.sender == electionOwner */\n      0xffffffffffffffffffffffffffffffffffffffff\n      and\n        /* \"contracts/ergasia.sol\":2137:2147  msg.sender */\n      caller\n        /* \"contracts/ergasia.sol\":2137:2164  msg.sender == electionOwner */\n      0xffffffffffffffffffffffffffffffffffffffff\n      and\n      eq\n        /* \"contracts/ergasia.sol\":2129:2165  require(msg.sender == electionOwner) */\n      tag_138\n      jumpi\n      0x00\n      dup1\n      revert\n    tag_138:\n        /* \"contracts/ergasia.sol\":6570:6582  State.Voting */\n      0x01\n        /* \"contracts/ergasia.sol\":6562:6567  state */\n      0x0c\n      0x00\n        /* \"contracts/ergasia.sol\":6562:6582  state = State.Voting */\n      0x0100\n      exp\n      dup2\n      sload\n      dup2\n      0xff\n      mul\n      not\n      and\n      swap1\n      dup4\n      0x02\n      dup2\n      gt\n      iszero\n      tag_140\n      jumpi\n      tag_141\n      tag_110\n      jump\t// in\n    tag_141:\n    tag_140:\n      mul\n      or\n      swap1\n      sstore\n      pop\n        /* \"contracts/ergasia.sol\":6495:6589  function startVote() public inState(State.Created) Owner {... */\n      pop\n      jump\t// out\n        /* \"contracts/ergasia.sol\":1242:1270  address public electionOwner */\n    tag_56:\n      0x00\n      dup1\n      sload\n      swap1\n      0x0100\n      exp\n      swap1\n      div\n      0xffffffffffffffffffffffffffffffffffffffff\n      and\n      dup2\n      jump\t// out\n        /* \"contracts/ergasia.sol\":7883:8056  function getVotes(uint _pStationID, uint _candidateID) public view returns (uint) {... */\n    tag_61:\n        /* \"contracts/ergasia.sol\":7959:7963  uint */\n      0x00\n        /* \"contracts/ergasia.sol\":7982:7997  pollingStations */\n      0x08\n        /* \"contracts/ergasia.sol\":7982:8010  pollingStations[_pStationID] */\n      0x00\n        /* \"contracts/ergasia.sol\":7998:8009  _pStationID */\n      dup5\n        /* \"contracts/ergasia.sol\":7982:8010  pollingStations[_pStationID] */\n      dup2\n      mstore\n      0x20\n      add\n      swap1\n      dup2\n      mstore\n      0x20\n      add\n      0x00\n      keccak256\n        /* \"contracts/ergasia.sol\":7982:8029  pollingStations[_pStationID].scoresPerCandidate */\n      0x04\n      add\n        /* \"contracts/ergasia.sol\":7982:8043  pollingStations[_pStationID].scoresPerCandidate[_candidateID] */\n      0x00\n        /* \"contracts/ergasia.sol\":8030:8042  _candidateID */\n      dup4\n        /* \"contracts/ergasia.sol\":7982:8043  pollingStations[_pStationID].scoresPerCandidate[_candidateID] */\n      dup2\n      mstore\n      0x20\n      add\n      swap1\n      dup2\n      mstore\n      0x20\n      add\n      0x00\n      keccak256\n        /* \"contracts/ergasia.sol\":7982:8049  pollingStations[_pStationID].scoresPerCandidate[_candidateID].votes */\n      0x02\n      add\n      sload\n        /* \"contracts/ergasia.sol\":7975:8049  return pollingStations[_pStationID].scoresPerCandidate[_candidateID].votes */\n      swap1\n      pop\n        /* \"contracts/ergasia.sol\":7883:8056  function getVotes(uint _pStationID, uint _candidateID) public view returns (uint) {... */\n      swap3\n      swap2\n      pop\n      pop\n      jump\t// out\n        /* \"contracts/ergasia.sol\":1932:1970  mapping(address => bool) public voters */\n    tag_65:\n      mstore(0x20, 0x0a)\n      dup1\n      0x00\n      mstore\n      keccak256(0x00, 0x40)\n      0x00\n      swap2\n      pop\n      sload\n      swap1\n      0x0100\n      exp\n      swap1\n      div\n      0xff\n      and\n      dup2\n      jump\t// out\n        /* \"contracts/ergasia.sol\":7553:7679  function endVote() public inState(State.Voting) Owner { ... */\n    tag_68:\n        /* \"contracts/ergasia.sol\":7587:7599  State.Voting */\n      0x01\n        /* \"contracts/ergasia.sol\":2247:2253  _state */\n      dup1\n        /* \"contracts/ergasia.sol\":2238:2253  state == _state */\n      0x02\n      dup2\n      gt\n      iszero\n      tag_144\n      jumpi\n      tag_145\n      tag_110\n      jump\t// in\n    tag_145:\n    tag_144:\n        /* \"contracts/ergasia.sol\":2238:2243  state */\n      0x0c\n      0x00\n      swap1\n      sload\n      swap1\n      0x0100\n      exp\n      swap1\n      div\n      0xff\n      and\n        /* \"contracts/ergasia.sol\":2238:2253  state == _state */\n      0x02\n      dup2\n      gt\n      iszero\n      tag_146\n      jumpi\n      tag_147\n      tag_110\n      jump\t// in\n    tag_147:\n    tag_146:\n      eq\n        /* \"contracts/ergasia.sol\":2230:2254  require(state == _state) */\n      tag_148\n      jumpi\n      0x00\n      dup1\n      revert\n    tag_148:\n        /* \"contracts/ergasia.sol\":2151:2164  electionOwner */\n      0x00\n      dup1\n      sload\n      swap1\n      0x0100\n      exp\n      swap1\n      div\n      0xffffffffffffffffffffffffffffffffffffffff\n      and\n        /* \"contracts/ergasia.sol\":2137:2164  msg.sender == electionOwner */\n      0xffffffffffffffffffffffffffffffffffffffff\n      and\n        /* \"contracts/ergasia.sol\":2137:2147  msg.sender */\n      caller\n        /* \"contracts/ergasia.sol\":2137:2164  msg.sender == electionOwner */\n      0xffffffffffffffffffffffffffffffffffffffff\n      and\n      eq\n        /* \"contracts/ergasia.sol\":2129:2165  require(msg.sender == electionOwner) */\n      tag_150\n      jumpi\n      0x00\n      dup1\n      revert\n    tag_150:\n        /* \"contracts/ergasia.sol\":7626:7637  State.Ended */\n      0x02\n        /* \"contracts/ergasia.sol\":7618:7623  state */\n      0x0c\n      0x00\n        /* \"contracts/ergasia.sol\":7618:7637  state = State.Ended */\n      0x0100\n      exp\n      dup2\n      sload\n      dup2\n      0xff\n      mul\n      not\n      and\n      swap1\n      dup4\n      0x02\n      dup2\n      gt\n      iszero\n      tag_152\n      jumpi\n      tag_153\n      tag_110\n      jump\t// in\n    tag_153:\n    tag_152:\n      mul\n      or\n      swap1\n      sstore\n      pop\n        /* \"contracts/ergasia.sol\":7661:7672  countResult */\n      sload(0x04)\n        /* \"contracts/ergasia.sol\":7647:7658  finalResult */\n      0x05\n        /* \"contracts/ergasia.sol\":7647:7672  finalResult = countResult */\n      dup2\n      swap1\n      sstore\n      pop\n        /* \"contracts/ergasia.sol\":7553:7679  function endVote() public inState(State.Voting) Owner { ... */\n      pop\n      jump\t// out\n        /* \"contracts/ergasia.sol\":5041:5961  function addVoter(address _voterAddress, uint _pollingStationID) public inState(State.Created) Owner {... */\n    tag_72:\n        /* \"contracts/ergasia.sol\":5121:5134  State.Created */\n      0x00\n        /* \"contracts/ergasia.sol\":2247:2253  _state */\n      dup1\n        /* \"contracts/ergasia.sol\":2238:2253  state == _state */\n      0x02\n      dup2\n      gt\n      iszero\n      tag_155\n      jumpi\n      tag_156\n      tag_110\n      jump\t// in\n    tag_156:\n    tag_155:\n        /* \"contracts/ergasia.sol\":2238:2243  state */\n      0x0c\n      0x00\n      swap1\n      sload\n      swap1\n      0x0100\n      exp\n      swap1\n      div\n      0xff\n      and\n        /* \"contracts/ergasia.sol\":2238:2253  state == _state */\n      0x02\n      dup2\n      gt\n      iszero\n      tag_157\n      jumpi\n      tag_158\n      tag_110\n      jump\t// in\n    tag_158:\n    tag_157:\n      eq\n        /* \"contracts/ergasia.sol\":2230:2254  require(state == _state) */\n      tag_159\n      jumpi\n      0x00\n      dup1\n      revert\n    tag_159:\n        /* \"contracts/ergasia.sol\":2151:2164  electionOwner */\n      0x00\n      dup1\n      sload\n      swap1\n      0x0100\n      exp\n      swap1\n      div\n      0xffffffffffffffffffffffffffffffffffffffff\n      and\n        /* \"contracts/ergasia.sol\":2137:2164  msg.sender == electionOwner */\n      0xffffffffffffffffffffffffffffffffffffffff\n      and\n        /* \"contracts/ergasia.sol\":2137:2147  msg.sender */\n      caller\n        /* \"contracts/ergasia.sol\":2137:2164  msg.sender == electionOwner */\n      0xffffffffffffffffffffffffffffffffffffffff\n      and\n      eq\n        /* \"contracts/ergasia.sol\":2129:2165  require(msg.sender == electionOwner) */\n      tag_161\n      jumpi\n      0x00\n      dup1\n      revert\n    tag_161:\n        /* \"contracts/ergasia.sol\":5260:5265  false */\n      0x00\n        /* \"contracts/ergasia.sol\":5217:5265  voterRegistry[_voterAddress].isEnrolled == false */\n      iszero\n      iszero\n        /* \"contracts/ergasia.sol\":5217:5230  voterRegistry */\n      0x09\n        /* \"contracts/ergasia.sol\":5217:5245  voterRegistry[_voterAddress] */\n      0x00\n        /* \"contracts/ergasia.sol\":5231:5244  _voterAddress */\n      dup6\n        /* \"contracts/ergasia.sol\":5217:5245  voterRegistry[_voterAddress] */\n      0xffffffffffffffffffffffffffffffffffffffff\n      and\n      0xffffffffffffffffffffffffffffffffffffffff\n      and\n      dup2\n      mstore\n      0x20\n      add\n      swap1\n      dup2\n      mstore\n      0x20\n      add\n      0x00\n      keccak256\n        /* \"contracts/ergasia.sol\":5217:5256  voterRegistry[_voterAddress].isEnrolled */\n      0x00\n      add\n      0x00\n      swap1\n      sload\n      swap1\n      0x0100\n      exp\n      swap1\n      div\n      0xff\n      and\n        /* \"contracts/ergasia.sol\":5217:5265  voterRegistry[_voterAddress].isEnrolled == false */\n      iszero\n      iszero\n      eq\n        /* \"contracts/ergasia.sol\":5209:5298  require(voterRegistry[_voterAddress].isEnrolled == false, \"Voter is already registered.\") */\n      tag_163\n      jumpi\n      mload(0x40)\n      0x08c379a000000000000000000000000000000000000000000000000000000000\n      dup2\n      mstore\n      0x04\n      add\n      tag_164\n      swap1\n      tag_165\n      jump\t// in\n    tag_164:\n      mload(0x40)\n      dup1\n      swap2\n      sub\n      swap1\n      revert\n    tag_163:\n        /* \"contracts/ergasia.sol\":5537:5538  1 */\n      0x01\n        /* \"contracts/ergasia.sol\":5517:5534  _pollingStationID */\n      dup3\n        /* \"contracts/ergasia.sol\":5517:5538  _pollingStationID >=1 */\n      lt\n      iszero\n        /* \"contracts/ergasia.sol\":5517:5582  _pollingStationID >=1 && _pollingStationID <= pollingStationCount */\n      dup1\n      iszero\n      tag_166\n      jumpi\n      pop\n        /* \"contracts/ergasia.sol\":5563:5582  pollingStationCount */\n      sload(0x02)\n        /* \"contracts/ergasia.sol\":5542:5559  _pollingStationID */\n      dup3\n        /* \"contracts/ergasia.sol\":5542:5582  _pollingStationID <= pollingStationCount */\n      gt\n      iszero\n        /* \"contracts/ergasia.sol\":5517:5582  _pollingStationID >=1 && _pollingStationID <= pollingStationCount */\n    tag_166:\n        /* \"contracts/ergasia.sol\":5509:5629  require(_pollingStationID >=1 && _pollingStationID <= pollingStationCount, \"Please provide a valid polling station ID.\") */\n      tag_167\n      jumpi\n      mload(0x40)\n      0x08c379a000000000000000000000000000000000000000000000000000000000\n      dup2\n      mstore\n      0x04\n      add\n      tag_168\n      swap1\n      tag_169\n      jump\t// in\n    tag_168:\n      mload(0x40)\n      dup1\n      swap2\n      sub\n      swap1\n      revert\n    tag_167:\n        /* \"contracts/ergasia.sol\":5640:5654  Voter memory v */\n      tag_170\n      tag_171\n      jump\t// in\n    tag_170:\n        /* \"contracts/ergasia.sol\":5679:5683  true */\n      0x01\n        /* \"contracts/ergasia.sol\":5664:5665  v */\n      dup2\n        /* \"contracts/ergasia.sol\":5664:5676  v.isEnrolled */\n      0x00\n      add\n        /* \"contracts/ergasia.sol\":5664:5683  v.isEnrolled = true */\n      swap1\n      iszero\n      iszero\n      swap1\n      dup2\n      iszero\n      iszero\n      dup2\n      mstore\n      pop\n      pop\n        /* \"contracts/ergasia.sol\":5706:5711  false */\n      0x00\n        /* \"contracts/ergasia.sol\":5693:5694  v */\n      dup2\n        /* \"contracts/ergasia.sol\":5693:5703  v.hasVoted */\n      0x20\n      add\n        /* \"contracts/ergasia.sol\":5693:5711  v.hasVoted = false */\n      swap1\n      iszero\n      iszero\n      swap1\n      dup2\n      iszero\n      iszero\n      dup2\n      mstore\n      pop\n      pop\n        /* \"contracts/ergasia.sol\":5732:5733  0 */\n      0x00\n        /* \"contracts/ergasia.sol\":5721:5722  v */\n      dup2\n        /* \"contracts/ergasia.sol\":5721:5729  v.choice */\n      0x40\n      add\n        /* \"contracts/ergasia.sol\":5721:5733  v.choice = 0 */\n      dup2\n      dup2\n      mstore\n      pop\n      pop\n        /* \"contracts/ergasia.sol\":5772:5789  _pollingStationID */\n      dup3\n        /* \"contracts/ergasia.sol\":5743:5744  v */\n      dup2\n        /* \"contracts/ergasia.sol\":5743:5769  v.enrolledPollingStationID */\n      0x60\n      add\n        /* \"contracts/ergasia.sol\":5743:5789  v.enrolledPollingStationID = _pollingStationID */\n      dup2\n      dup2\n      mstore\n      pop\n      pop\n        /* \"contracts/ergasia.sol\":5825:5826  0 */\n      0x00\n        /* \"contracts/ergasia.sol\":5799:5800  v */\n      dup2\n        /* \"contracts/ergasia.sol\":5799:5822  v.votedPollingStationID */\n      0x80\n      add\n        /* \"contracts/ergasia.sol\":5799:5826  v.votedPollingStationID = 0 */\n      dup2\n      dup2\n      mstore\n      pop\n      pop\n        /* \"contracts/ergasia.sol\":5867:5868  v */\n      dup1\n        /* \"contracts/ergasia.sol\":5836:5849  voterRegistry */\n      0x09\n        /* \"contracts/ergasia.sol\":5836:5864  voterRegistry[_voterAddress] */\n      0x00\n        /* \"contracts/ergasia.sol\":5850:5863  _voterAddress */\n      dup7\n        /* \"contracts/ergasia.sol\":5836:5864  voterRegistry[_voterAddress] */\n      0xffffffffffffffffffffffffffffffffffffffff\n      and\n      0xffffffffffffffffffffffffffffffffffffffff\n      and\n      dup2\n      mstore\n      0x20\n      add\n      swap1\n      dup2\n      mstore\n      0x20\n      add\n      0x00\n      keccak256\n        /* \"contracts/ergasia.sol\":5836:5868  voterRegistry[_voterAddress] = v */\n      0x00\n      dup3\n      add\n      mload\n      dup2\n      0x00\n      add\n      exp(0x0100, 0x00)\n      dup2\n      sload\n      dup2\n      0xff\n      mul\n      not\n      and\n      swap1\n      dup4\n      iszero\n      iszero\n      mul\n      or\n      swap1\n      sstore\n      pop\n      0x20\n      dup3\n      add\n      mload\n      dup2\n      0x00\n      add\n      exp(0x0100, 0x01)\n      dup2\n      sload\n      dup2\n      0xff\n      mul\n      not\n      and\n      swap1\n      dup4\n      iszero\n      iszero\n      mul\n      or\n      swap1\n      sstore\n      pop\n      0x40\n      dup3\n      add\n      mload\n      dup2\n      0x01\n      add\n      sstore\n      0x60\n      dup3\n      add\n      mload\n      dup2\n      0x02\n      add\n      sstore\n      0x80\n      dup3\n      add\n      mload\n      dup2\n      0x03\n      add\n      sstore\n      swap1\n      pop\n      pop\n        /* \"contracts/ergasia.sol\":5878:5921  registerAtPollingStation(_pollingStationID) */\n      tag_172\n        /* \"contracts/ergasia.sol\":5903:5920  _pollingStationID */\n      dup4\n        /* \"contracts/ergasia.sol\":5878:5902  registerAtPollingStation */\n      tag_173\n        /* \"contracts/ergasia.sol\":5878:5921  registerAtPollingStation(_pollingStationID) */\n      jump\t// in\n    tag_172:\n        /* \"contracts/ergasia.sol\":5931:5952  totalRegisteredVoters */\n      0x03\n      0x00\n        /* \"contracts/ergasia.sol\":5931:5954  totalRegisteredVoters++ */\n      dup2\n      sload\n      dup1\n      swap3\n      swap2\n      swap1\n      tag_174\n      swap1\n      tag_106\n      jump\t// in\n    tag_174:\n      swap2\n      swap1\n      pop\n      sstore\n      pop\n        /* \"contracts/ergasia.sol\":5142:5961  {... */\n      pop\n        /* \"contracts/ergasia.sol\":5041:5961  function addVoter(address _voterAddress, uint _pollingStationID) public inState(State.Created) Owner {... */\n      pop\n      pop\n      pop\n      jump\t// out\n        /* \"contracts/ergasia.sol\":2077:2095  State public state */\n    tag_74:\n      0x0c\n      0x00\n      swap1\n      sload\n      swap1\n      0x0100\n      exp\n      swap1\n      div\n      0xff\n      and\n      dup2\n      jump\t// out\n        /* \"contracts/ergasia.sol\":7685:7877  function getResultsPerStation1(uint _pStationID, uint _candidateID) public view returns (Candidate memory) {... */\n    tag_79:\n        /* \"contracts/ergasia.sol\":7774:7790  Candidate memory */\n      tag_175\n      tag_176\n      jump\t// in\n    tag_175:\n        /* \"contracts/ergasia.sol\":7809:7824  pollingStations */\n      0x08\n        /* \"contracts/ergasia.sol\":7809:7837  pollingStations[_pStationID] */\n      0x00\n        /* \"contracts/ergasia.sol\":7825:7836  _pStationID */\n      dup5\n        /* \"contracts/ergasia.sol\":7809:7837  pollingStations[_pStationID] */\n      dup2\n      mstore\n      0x20\n      add\n      swap1\n      dup2\n      mstore\n      0x20\n      add\n      0x00\n      keccak256\n        /* \"contracts/ergasia.sol\":7809:7856  pollingStations[_pStationID].scoresPerCandidate */\n      0x04\n      add\n        /* \"contracts/ergasia.sol\":7809:7870  pollingStations[_pStationID].scoresPerCandidate[_candidateID] */\n      0x00\n        /* \"contracts/ergasia.sol\":7857:7869  _candidateID */\n      dup4\n        /* \"contracts/ergasia.sol\":7809:7870  pollingStations[_pStationID].scoresPerCandidate[_candidateID] */\n      dup2\n      mstore\n      0x20\n      add\n      swap1\n      dup2\n      mstore\n      0x20\n      add\n      0x00\n      keccak256\n        /* \"contracts/ergasia.sol\":7802:7870  return pollingStations[_pStationID].scoresPerCandidate[_candidateID] */\n      mload(0x40)\n      dup1\n      0x60\n      add\n      0x40\n      mstore\n      swap1\n      dup2\n      0x00\n      dup3\n      add\n      sload\n      dup2\n      mstore\n      0x20\n      add\n      0x01\n      dup3\n      add\n      dup1\n      sload\n      tag_178\n      swap1\n      tag_126\n      jump\t// in\n    tag_178:\n      dup1\n      0x1f\n      add\n      0x20\n      dup1\n      swap2\n      div\n      mul\n      0x20\n      add\n      mload(0x40)\n      swap1\n      dup2\n      add\n      0x40\n      mstore\n      dup1\n      swap3\n      swap2\n      swap1\n      dup2\n      dup2\n      mstore\n      0x20\n      add\n      dup3\n      dup1\n      sload\n      tag_179\n      swap1\n      tag_126\n      jump\t// in\n    tag_179:\n      dup1\n      iszero\n      tag_180\n      jumpi\n      dup1\n      0x1f\n      lt\n      tag_181\n      jumpi\n      0x0100\n      dup1\n      dup4\n      sload\n      div\n      mul\n      dup4\n      mstore\n      swap2\n      0x20\n      add\n      swap2\n      jump(tag_180)\n    tag_181:\n      dup3\n      add\n      swap2\n      swap1\n      0x00\n      mstore\n      keccak256(0x00, 0x20)\n      swap1\n    tag_182:\n      dup2\n      sload\n      dup2\n      mstore\n      swap1\n      0x01\n      add\n      swap1\n      0x20\n      add\n      dup1\n      dup4\n      gt\n      tag_182\n      jumpi\n      dup3\n      swap1\n      sub\n      0x1f\n      and\n      dup3\n      add\n      swap2\n    tag_180:\n      pop\n      pop\n      pop\n      pop\n      pop\n      dup2\n      mstore\n      0x20\n      add\n      0x02\n      dup3\n      add\n      sload\n      dup2\n      mstore\n      pop\n      pop\n      swap1\n      pop\n        /* \"contracts/ergasia.sol\":7685:7877  function getResultsPerStation1(uint _pStationID, uint _candidateID) public view returns (Candidate memory) {... */\n      swap3\n      swap2\n      pop\n      pop\n      jump\t// out\n        /* \"contracts/ergasia.sol\":1344:1375  uint public pollingStationCount */\n    tag_83:\n      sload(0x02)\n      dup2\n      jump\t// out\n        /* \"contracts/ergasia.sol\":1539:1562  uint public finalResult */\n    tag_86:\n      sload(0x05)\n      dup2\n      jump\t// out\n        /* \"contracts/ergasia.sol\":1794:1848  mapping(uint => PollingStation) public pollingStations */\n    tag_90:\n      mstore(0x20, 0x08)\n      dup1\n      0x00\n      mstore\n      keccak256(0x00, 0x40)\n      0x00\n      swap2\n      pop\n      swap1\n      pop\n      dup1\n      0x00\n      add\n      sload\n      swap1\n      dup1\n      0x01\n      add\n      dup1\n      sload\n      tag_183\n      swap1\n      tag_126\n      jump\t// in\n    tag_183:\n      dup1\n      0x1f\n      add\n      0x20\n      dup1\n      swap2\n      div\n      mul\n      0x20\n      add\n      mload(0x40)\n      swap1\n      dup2\n      add\n      0x40\n      mstore\n      dup1\n      swap3\n      swap2\n      swap1\n      dup2\n      dup2\n      mstore\n      0x20\n      add\n      dup3\n      dup1\n      sload\n      tag_184\n      swap1\n      tag_126\n      jump\t// in\n    tag_184:\n      dup1\n      iszero\n      tag_185\n      jumpi\n      dup1\n      0x1f\n      lt\n      tag_186\n      jumpi\n      0x0100\n      dup1\n      dup4\n      sload\n      div\n      mul\n      dup4\n      mstore\n      swap2\n      0x20\n      add\n      swap2\n      jump(tag_185)\n    tag_186:\n      dup3\n      add\n      swap2\n      swap1\n      0x00\n      mstore\n      keccak256(0x00, 0x20)\n      swap1\n    tag_187:\n      dup2\n      sload\n      dup2\n      mstore\n      swap1\n      0x01\n      add\n      swap1\n      0x20\n      add\n      dup1\n      dup4\n      gt\n      tag_187\n      jumpi\n      dup3\n      swap1\n      sub\n      0x1f\n      and\n      dup3\n      add\n      swap2\n    tag_185:\n      pop\n      pop\n      pop\n      pop\n      pop\n      swap1\n      dup1\n      0x02\n      add\n      sload\n      swap1\n      dup1\n      0x03\n      add\n      sload\n      swap1\n      pop\n      dup5\n      jump\t// out\n        /* \"contracts/ergasia.sol\":6099:6381  function registerAtPollingStation(uint _stationID) internal {... */\n    tag_173:\n        /* \"contracts/ergasia.sol\":6174:6180  uint i */\n      0x00\n        /* \"contracts/ergasia.sol\":6183:6184  1 */\n      0x01\n        /* \"contracts/ergasia.sol\":6174:6184  uint i = 1 */\n      swap1\n      pop\n        /* \"contracts/ergasia.sol\":6169:6375  for (uint i = 1; i <= pollingStationCount; i++) {... */\n    tag_189:\n        /* \"contracts/ergasia.sol\":6191:6210  pollingStationCount */\n      sload(0x02)\n        /* \"contracts/ergasia.sol\":6186:6187  i */\n      dup2\n        /* \"contracts/ergasia.sol\":6186:6210  i <= pollingStationCount */\n      gt\n        /* \"contracts/ergasia.sol\":6169:6375  for (uint i = 1; i <= pollingStationCount; i++) {... */\n      tag_190\n      jumpi\n        /* \"contracts/ergasia.sol\":6260:6270  _stationID */\n      dup2\n        /* \"contracts/ergasia.sol\":6235:6250  pollingStations */\n      0x08\n        /* \"contracts/ergasia.sol\":6235:6253  pollingStations[i] */\n      0x00\n        /* \"contracts/ergasia.sol\":6251:6252  i */\n      dup4\n        /* \"contracts/ergasia.sol\":6235:6253  pollingStations[i] */\n      dup2\n      mstore\n      0x20\n      add\n      swap1\n      dup2\n      mstore\n      0x20\n      add\n      0x00\n      keccak256\n        /* \"contracts/ergasia.sol\":6235:6256  pollingStations[i].id */\n      0x00\n      add\n      sload\n        /* \"contracts/ergasia.sol\":6235:6270  pollingStations[i].id == _stationID */\n      eq\n        /* \"contracts/ergasia.sol\":6231:6365  if (pollingStations[i].id == _stationID) {... */\n      iszero\n      tag_192\n      jumpi\n        /* \"contracts/ergasia.sol\":6290:6305  pollingStations */\n      0x08\n        /* \"contracts/ergasia.sol\":6290:6308  pollingStations[i] */\n      0x00\n        /* \"contracts/ergasia.sol\":6306:6307  i */\n      dup3\n        /* \"contracts/ergasia.sol\":6290:6308  pollingStations[i] */\n      dup2\n      mstore\n      0x20\n      add\n      swap1\n      dup2\n      mstore\n      0x20\n      add\n      0x00\n      keccak256\n        /* \"contracts/ergasia.sol\":6290:6325  pollingStations[i].votersRegistered */\n      0x02\n      add\n      0x00\n        /* \"contracts/ergasia.sol\":6290:6327  pollingStations[i].votersRegistered++ */\n      dup2\n      sload\n      dup1\n      swap3\n      swap2\n      swap1\n      tag_193\n      swap1\n      tag_106\n      jump\t// in\n    tag_193:\n      swap2\n      swap1\n      pop\n      sstore\n      pop\n        /* \"contracts/ergasia.sol\":6345:6350  break */\n      jump(tag_190)\n        /* \"contracts/ergasia.sol\":6231:6365  if (pollingStations[i].id == _stationID) {... */\n    tag_192:\n        /* \"contracts/ergasia.sol\":6212:6215  i++ */\n      dup1\n      dup1\n      tag_194\n      swap1\n      tag_106\n      jump\t// in\n    tag_194:\n      swap2\n      pop\n      pop\n        /* \"contracts/ergasia.sol\":6169:6375  for (uint i = 1; i <= pollingStationCount; i++) {... */\n      jump(tag_189)\n    tag_190:\n      pop\n        /* \"contracts/ergasia.sol\":6099:6381  function registerAtPollingStation(uint _stationID) internal {... */\n      pop\n      jump\t// out\n    tag_171:\n      mload(0x40)\n      dup1\n      0xa0\n      add\n      0x40\n      mstore\n      dup1\n      iszero(iszero(0x00))\n      dup2\n      mstore\n      0x20\n      add\n      iszero(iszero(0x00))\n      dup2\n      mstore\n      0x20\n      add\n      0x00\n      dup2\n      mstore\n      0x20\n      add\n      0x00\n      dup2\n      mstore\n      0x20\n      add\n      0x00\n      dup2\n      mstore\n      pop\n      swap1\n      jump\t// out\n    tag_176:\n      mload(0x40)\n      dup1\n      0x60\n      add\n      0x40\n      mstore\n      dup1\n      0x00\n      dup2\n      mstore\n      0x20\n      add\n      0x60\n      dup2\n      mstore\n      0x20\n      add\n      0x00\n      dup2\n      mstore\n      pop\n      swap1\n      jump\t// out\n        /* \"#utility.yul\":7:146   */\n    tag_196:\n        /* \"#utility.yul\":53:58   */\n      0x00\n        /* \"#utility.yul\":91:97   */\n      dup2\n        /* \"#utility.yul\":78:98   */\n      calldataload\n        /* \"#utility.yul\":69:98   */\n      swap1\n      pop\n        /* \"#utility.yul\":107:140   */\n      tag_198\n        /* \"#utility.yul\":134:139   */\n      dup2\n        /* \"#utility.yul\":107:140   */\n      tag_199\n      jump\t// in\n    tag_198:\n        /* \"#utility.yul\":7:146   */\n      swap3\n      swap2\n      pop\n      pop\n      jump\t// out\n        /* \"#utility.yul\":152:291   */\n    tag_200:\n        /* \"#utility.yul\":198:203   */\n      0x00\n        /* \"#utility.yul\":236:242   */\n      dup2\n        /* \"#utility.yul\":223:243   */\n      calldataload\n        /* \"#utility.yul\":214:243   */\n      swap1\n      pop\n        /* \"#utility.yul\":252:285   */\n      tag_202\n        /* \"#utility.yul\":279:284   */\n      dup2\n        /* \"#utility.yul\":252:285   */\n      tag_203\n      jump\t// in\n    tag_202:\n        /* \"#utility.yul\":152:291   */\n      swap3\n      swap2\n      pop\n      pop\n      jump\t// out\n        /* \"#utility.yul\":297:626   */\n    tag_49:\n        /* \"#utility.yul\":356:362   */\n      0x00\n        /* \"#utility.yul\":405:407   */\n      0x20\n        /* \"#utility.yul\":393:402   */\n      dup3\n        /* \"#utility.yul\":384:391   */\n      dup5\n        /* \"#utility.yul\":380:403   */\n      sub\n        /* \"#utility.yul\":376:408   */\n      slt\n        /* \"#utility.yul\":373:492   */\n      iszero\n      tag_205\n      jumpi\n        /* \"#utility.yul\":411:490   */\n      tag_206\n      tag_207\n      jump\t// in\n    tag_206:\n        /* \"#utility.yul\":373:492   */\n    tag_205:\n        /* \"#utility.yul\":531:532   */\n      0x00\n        /* \"#utility.yul\":556:609   */\n      tag_208\n        /* \"#utility.yul\":601:608   */\n      dup5\n        /* \"#utility.yul\":592:598   */\n      dup3\n        /* \"#utility.yul\":581:590   */\n      dup6\n        /* \"#utility.yul\":577:599   */\n      add\n        /* \"#utility.yul\":556:609   */\n      tag_196\n      jump\t// in\n    tag_208:\n        /* \"#utility.yul\":546:609   */\n      swap2\n      pop\n        /* \"#utility.yul\":502:619   */\n      pop\n        /* \"#utility.yul\":297:626   */\n      swap3\n      swap2\n      pop\n      pop\n      jump\t// out\n        /* \"#utility.yul\":632:1106   */\n    tag_71:\n        /* \"#utility.yul\":700:706   */\n      0x00\n        /* \"#utility.yul\":708:714   */\n      dup1\n        /* \"#utility.yul\":757:759   */\n      0x40\n        /* \"#utility.yul\":745:754   */\n      dup4\n        /* \"#utility.yul\":736:743   */\n      dup6\n        /* \"#utility.yul\":732:755   */\n      sub\n        /* \"#utility.yul\":728:760   */\n      slt\n        /* \"#utility.yul\":725:844   */\n      iszero\n      tag_210\n      jumpi\n        /* \"#utility.yul\":763:842   */\n      tag_211\n      tag_207\n      jump\t// in\n    tag_211:\n        /* \"#utility.yul\":725:844   */\n    tag_210:\n        /* \"#utility.yul\":883:884   */\n      0x00\n        /* \"#utility.yul\":908:961   */\n      tag_212\n        /* \"#utility.yul\":953:960   */\n      dup6\n        /* \"#utility.yul\":944:950   */\n      dup3\n        /* \"#utility.yul\":933:942   */\n      dup7\n        /* \"#utility.yul\":929:951   */\n      add\n        /* \"#utility.yul\":908:961   */\n      tag_196\n      jump\t// in\n    tag_212:\n        /* \"#utility.yul\":898:961   */\n      swap3\n      pop\n        /* \"#utility.yul\":854:971   */\n      pop\n        /* \"#utility.yul\":1010:1012   */\n      0x20\n        /* \"#utility.yul\":1036:1089   */\n      tag_213\n        /* \"#utility.yul\":1081:1088   */\n      dup6\n        /* \"#utility.yul\":1072:1078   */\n      dup3\n        /* \"#utility.yul\":1061:1070   */\n      dup7\n        /* \"#utility.yul\":1057:1079   */\n      add\n        /* \"#utility.yul\":1036:1089   */\n      tag_200\n      jump\t// in\n    tag_213:\n        /* \"#utility.yul\":1026:1089   */\n      swap2\n      pop\n        /* \"#utility.yul\":981:1099   */\n      pop\n        /* \"#utility.yul\":632:1106   */\n      swap3\n      pop\n      swap3\n      swap1\n      pop\n      jump\t// out\n        /* \"#utility.yul\":1112:1441   */\n    tag_29:\n        /* \"#utility.yul\":1171:1177   */\n      0x00\n        /* \"#utility.yul\":1220:1222   */\n      0x20\n        /* \"#utility.yul\":1208:1217   */\n      dup3\n        /* \"#utility.yul\":1199:1206   */\n      dup5\n        /* \"#utility.yul\":1195:1218   */\n      sub\n        /* \"#utility.yul\":1191:1223   */\n      slt\n        /* \"#utility.yul\":1188:1307   */\n      iszero\n      tag_215\n      jumpi\n        /* \"#utility.yul\":1226:1305   */\n      tag_216\n      tag_207\n      jump\t// in\n    tag_216:\n        /* \"#utility.yul\":1188:1307   */\n    tag_215:\n        /* \"#utility.yul\":1346:1347   */\n      0x00\n        /* \"#utility.yul\":1371:1424   */\n      tag_217\n        /* \"#utility.yul\":1416:1423   */\n      dup5\n        /* \"#utility.yul\":1407:1413   */\n      dup3\n        /* \"#utility.yul\":1396:1405   */\n      dup6\n        /* \"#utility.yul\":1392:1414   */\n      add\n        /* \"#utility.yul\":1371:1424   */\n      tag_200\n      jump\t// in\n    tag_217:\n        /* \"#utility.yul\":1361:1424   */\n      swap2\n      pop\n        /* \"#utility.yul\":1317:1434   */\n      pop\n        /* \"#utility.yul\":1112:1441   */\n      swap3\n      swap2\n      pop\n      pop\n      jump\t// out\n        /* \"#utility.yul\":1447:1921   */\n    tag_35:\n        /* \"#utility.yul\":1515:1521   */\n      0x00\n        /* \"#utility.yul\":1523:1529   */\n      dup1\n        /* \"#utility.yul\":1572:1574   */\n      0x40\n        /* \"#utility.yul\":1560:1569   */\n      dup4\n        /* \"#utility.yul\":1551:1558   */\n      dup6\n        /* \"#utility.yul\":1547:1570   */\n      sub\n        /* \"#utility.yul\":1543:1575   */\n      slt\n        /* \"#utility.yul\":1540:1659   */\n      iszero\n      tag_219\n      jumpi\n        /* \"#utility.yul\":1578:1657   */\n      tag_220\n      tag_207\n      jump\t// in\n    tag_220:\n        /* \"#utility.yul\":1540:1659   */\n    tag_219:\n        /* \"#utility.yul\":1698:1699   */\n      0x00\n        /* \"#utility.yul\":1723:1776   */\n      tag_221\n        /* \"#utility.yul\":1768:1775   */\n      dup6\n        /* \"#utility.yul\":1759:1765   */\n      dup3\n        /* \"#utility.yul\":1748:1757   */\n      dup7\n        /* \"#utility.yul\":1744:1766   */\n      add\n        /* \"#utility.yul\":1723:1776   */\n      tag_200\n      jump\t// in\n    tag_221:\n        /* \"#utility.yul\":1713:1776   */\n      swap3\n      pop\n        /* \"#utility.yul\":1669:1786   */\n      pop\n        /* \"#utility.yul\":1825:1827   */\n      0x20\n        /* \"#utility.yul\":1851:1904   */\n      tag_222\n        /* \"#utility.yul\":1896:1903   */\n      dup6\n        /* \"#utility.yul\":1887:1893   */\n      dup3\n        /* \"#utility.yul\":1876:1885   */\n      dup7\n        /* \"#utility.yul\":1872:1894   */\n      add\n        /* \"#utility.yul\":1851:1904   */\n      tag_200\n      jump\t// in\n    tag_222:\n        /* \"#utility.yul\":1841:1904   */\n      swap2\n      pop\n        /* \"#utility.yul\":1796:1914   */\n      pop\n        /* \"#utility.yul\":1447:1921   */\n      swap3\n      pop\n      swap3\n      swap1\n      pop\n      jump\t// out\n        /* \"#utility.yul\":1927:2106   */\n    tag_223:\n        /* \"#utility.yul\":1996:2006   */\n      0x00\n        /* \"#utility.yul\":2017:2063   */\n      tag_225\n        /* \"#utility.yul\":2059:2062   */\n      dup4\n        /* \"#utility.yul\":2051:2057   */\n      dup4\n        /* \"#utility.yul\":2017:2063   */\n      tag_226\n      jump\t// in\n    tag_225:\n        /* \"#utility.yul\":2095:2099   */\n      0x20\n        /* \"#utility.yul\":2090:2093   */\n      dup4\n        /* \"#utility.yul\":2086:2100   */\n      add\n        /* \"#utility.yul\":2072:2100   */\n      swap1\n      pop\n        /* \"#utility.yul\":1927:2106   */\n      swap3\n      swap2\n      pop\n      pop\n      jump\t// out\n        /* \"#utility.yul\":2112:2230   */\n    tag_227:\n        /* \"#utility.yul\":2199:2223   */\n      tag_229\n        /* \"#utility.yul\":2217:2222   */\n      dup2\n        /* \"#utility.yul\":2199:2223   */\n      tag_230\n      jump\t// in\n    tag_229:\n        /* \"#utility.yul\":2194:2197   */\n      dup3\n        /* \"#utility.yul\":2187:2224   */\n      mstore\n        /* \"#utility.yul\":2112:2230   */\n      pop\n      pop\n      jump\t// out\n        /* \"#utility.yul\":2266:2998   */\n    tag_231:\n        /* \"#utility.yul\":2385:2388   */\n      0x00\n        /* \"#utility.yul\":2414:2468   */\n      tag_233\n        /* \"#utility.yul\":2462:2467   */\n      dup3\n        /* \"#utility.yul\":2414:2468   */\n      tag_234\n      jump\t// in\n    tag_233:\n        /* \"#utility.yul\":2484:2570   */\n      tag_235\n        /* \"#utility.yul\":2563:2569   */\n      dup2\n        /* \"#utility.yul\":2558:2561   */\n      dup6\n        /* \"#utility.yul\":2484:2570   */\n      tag_236\n      jump\t// in\n    tag_235:\n        /* \"#utility.yul\":2477:2570   */\n      swap4\n      pop\n        /* \"#utility.yul\":2594:2650   */\n      tag_237\n        /* \"#utility.yul\":2644:2649   */\n      dup4\n        /* \"#utility.yul\":2594:2650   */\n      tag_238\n      jump\t// in\n    tag_237:\n        /* \"#utility.yul\":2673:2680   */\n      dup1\n        /* \"#utility.yul\":2704:2705   */\n      0x00\n        /* \"#utility.yul\":2689:2973   */\n    tag_239:\n        /* \"#utility.yul\":2714:2720   */\n      dup4\n        /* \"#utility.yul\":2711:2712   */\n      dup2\n        /* \"#utility.yul\":2708:2721   */\n      lt\n        /* \"#utility.yul\":2689:2973   */\n      iszero\n      tag_241\n      jumpi\n        /* \"#utility.yul\":2790:2796   */\n      dup2\n        /* \"#utility.yul\":2784:2797   */\n      mload\n        /* \"#utility.yul\":2817:2880   */\n      tag_242\n        /* \"#utility.yul\":2876:2879   */\n      dup9\n        /* \"#utility.yul\":2861:2874   */\n      dup3\n        /* \"#utility.yul\":2817:2880   */\n      tag_223\n      jump\t// in\n    tag_242:\n        /* \"#utility.yul\":2810:2880   */\n      swap8\n      pop\n        /* \"#utility.yul\":2903:2963   */\n      tag_243\n        /* \"#utility.yul\":2956:2962   */\n      dup4\n        /* \"#utility.yul\":2903:2963   */\n      tag_244\n      jump\t// in\n    tag_243:\n        /* \"#utility.yul\":2893:2963   */\n      swap3\n      pop\n        /* \"#utility.yul\":2749:2973   */\n      pop\n        /* \"#utility.yul\":2736:2737   */\n      0x01\n        /* \"#utility.yul\":2733:2734   */\n      dup2\n        /* \"#utility.yul\":2729:2738   */\n      add\n        /* \"#utility.yul\":2724:2738   */\n      swap1\n      pop\n        /* \"#utility.yul\":2689:2973   */\n      jump(tag_239)\n    tag_241:\n        /* \"#utility.yul\":2693:2707   */\n      pop\n        /* \"#utility.yul\":2989:2992   */\n      dup6\n        /* \"#utility.yul\":2982:2992   */\n      swap4\n      pop\n        /* \"#utility.yul\":2390:2998   */\n      pop\n      pop\n      pop\n        /* \"#utility.yul\":2266:2998   */\n      swap3\n      swap2\n      pop\n      pop\n      jump\t// out\n        /* \"#utility.yul\":3004:3113   */\n    tag_245:\n        /* \"#utility.yul\":3085:3106   */\n      tag_247\n        /* \"#utility.yul\":3100:3105   */\n      dup2\n        /* \"#utility.yul\":3085:3106   */\n      tag_248\n      jump\t// in\n    tag_247:\n        /* \"#utility.yul\":3080:3083   */\n      dup3\n        /* \"#utility.yul\":3073:3107   */\n      mstore\n        /* \"#utility.yul\":3004:3113   */\n      pop\n      pop\n      jump\t// out\n        /* \"#utility.yul\":3119:3262   */\n    tag_249:\n        /* \"#utility.yul\":3212:3255   */\n      tag_251\n        /* \"#utility.yul\":3249:3254   */\n      dup2\n        /* \"#utility.yul\":3212:3255   */\n      tag_252\n      jump\t// in\n    tag_251:\n        /* \"#utility.yul\":3207:3210   */\n      dup3\n        /* \"#utility.yul\":3200:3256   */\n      mstore\n        /* \"#utility.yul\":3119:3262   */\n      pop\n      pop\n      jump\t// out\n        /* \"#utility.yul\":3268:3612   */\n    tag_253:\n        /* \"#utility.yul\":3346:3349   */\n      0x00\n        /* \"#utility.yul\":3374:3413   */\n      tag_255\n        /* \"#utility.yul\":3407:3412   */\n      dup3\n        /* \"#utility.yul\":3374:3413   */\n      tag_256\n      jump\t// in\n    tag_255:\n        /* \"#utility.yul\":3429:3490   */\n      tag_257\n        /* \"#utility.yul\":3483:3489   */\n      dup2\n        /* \"#utility.yul\":3478:3481   */\n      dup6\n        /* \"#utility.yul\":3429:3490   */\n      tag_258\n      jump\t// in\n    tag_257:\n        /* \"#utility.yul\":3422:3490   */\n      swap4\n      pop\n        /* \"#utility.yul\":3499:3551   */\n      tag_259\n        /* \"#utility.yul\":3544:3550   */\n      dup2\n        /* \"#utility.yul\":3539:3542   */\n      dup6\n        /* \"#utility.yul\":3532:3536   */\n      0x20\n        /* \"#utility.yul\":3525:3530   */\n      dup7\n        /* \"#utility.yul\":3521:3537   */\n      add\n        /* \"#utility.yul\":3499:3551   */\n      tag_260\n      jump\t// in\n    tag_259:\n        /* \"#utility.yul\":3576:3605   */\n      tag_261\n        /* \"#utility.yul\":3598:3604   */\n      dup2\n        /* \"#utility.yul\":3576:3605   */\n      tag_262\n      jump\t// in\n    tag_261:\n        /* \"#utility.yul\":3571:3574   */\n      dup5\n        /* \"#utility.yul\":3567:3606   */\n      add\n        /* \"#utility.yul\":3560:3606   */\n      swap2\n      pop\n        /* \"#utility.yul\":3350:3612   */\n      pop\n        /* \"#utility.yul\":3268:3612   */\n      swap3\n      swap2\n      pop\n      pop\n      jump\t// out\n        /* \"#utility.yul\":3618:3982   */\n    tag_263:\n        /* \"#utility.yul\":3706:3709   */\n      0x00\n        /* \"#utility.yul\":3734:3773   */\n      tag_265\n        /* \"#utility.yul\":3767:3772   */\n      dup3\n        /* \"#utility.yul\":3734:3773   */\n      tag_256\n      jump\t// in\n    tag_265:\n        /* \"#utility.yul\":3789:3860   */\n      tag_266\n        /* \"#utility.yul\":3853:3859   */\n      dup2\n        /* \"#utility.yul\":3848:3851   */\n      dup6\n        /* \"#utility.yul\":3789:3860   */\n      tag_267\n      jump\t// in\n    tag_266:\n        /* \"#utility.yul\":3782:3860   */\n      swap4\n      pop\n        /* \"#utility.yul\":3869:3921   */\n      tag_268\n        /* \"#utility.yul\":3914:3920   */\n      dup2\n        /* \"#utility.yul\":3909:3912   */\n      dup6\n        /* \"#utility.yul\":3902:3906   */\n      0x20\n        /* \"#utility.yul\":3895:3900   */\n      dup7\n        /* \"#utility.yul\":3891:3907   */\n      add\n        /* \"#utility.yul\":3869:3921   */\n      tag_260\n      jump\t// in\n    tag_268:\n        /* \"#utility.yul\":3946:3975   */\n      tag_269\n        /* \"#utility.yul\":3968:3974   */\n      dup2\n        /* \"#utility.yul\":3946:3975   */\n      tag_262\n      jump\t// in\n    tag_269:\n        /* \"#utility.yul\":3941:3944   */\n      dup5\n        /* \"#utility.yul\":3937:3976   */\n      add\n        /* \"#utility.yul\":3930:3976   */\n      swap2\n      pop\n        /* \"#utility.yul\":3710:3982   */\n      pop\n        /* \"#utility.yul\":3618:3982   */\n      swap3\n      swap2\n      pop\n      pop\n      jump\t// out\n        /* \"#utility.yul\":3988:4354   */\n    tag_270:\n        /* \"#utility.yul\":4130:4133   */\n      0x00\n        /* \"#utility.yul\":4151:4218   */\n      tag_272\n        /* \"#utility.yul\":4215:4217   */\n      0x2a\n        /* \"#utility.yul\":4210:4213   */\n      dup4\n        /* \"#utility.yul\":4151:4218   */\n      tag_267\n      jump\t// in\n    tag_272:\n        /* \"#utility.yul\":4144:4218   */\n      swap2\n      pop\n        /* \"#utility.yul\":4227:4320   */\n      tag_273\n        /* \"#utility.yul\":4316:4319   */\n      dup3\n        /* \"#utility.yul\":4227:4320   */\n      tag_274\n      jump\t// in\n    tag_273:\n        /* \"#utility.yul\":4345:4347   */\n      0x40\n        /* \"#utility.yul\":4340:4343   */\n      dup3\n        /* \"#utility.yul\":4336:4348   */\n      add\n        /* \"#utility.yul\":4329:4348   */\n      swap1\n      pop\n        /* \"#utility.yul\":3988:4354   */\n      swap2\n      swap1\n      pop\n      jump\t// out\n        /* \"#utility.yul\":4360:4726   */\n    tag_275:\n        /* \"#utility.yul\":4502:4505   */\n      0x00\n        /* \"#utility.yul\":4523:4590   */\n      tag_277\n        /* \"#utility.yul\":4587:4589   */\n      0x1c\n        /* \"#utility.yul\":4582:4585   */\n      dup4\n        /* \"#utility.yul\":4523:4590   */\n      tag_267\n      jump\t// in\n    tag_277:\n        /* \"#utility.yul\":4516:4590   */\n      swap2\n      pop\n        /* \"#utility.yul\":4599:4692   */\n      tag_278\n        /* \"#utility.yul\":4688:4691   */\n      dup3\n        /* \"#utility.yul\":4599:4692   */\n      tag_279\n      jump\t// in\n    tag_278:\n        /* \"#utility.yul\":4717:4719   */\n      0x20\n        /* \"#utility.yul\":4712:4715   */\n      dup3\n        /* \"#utility.yul\":4708:4720   */\n      add\n        /* \"#utility.yul\":4701:4720   */\n      swap1\n      pop\n        /* \"#utility.yul\":4360:4726   */\n      swap2\n      swap1\n      pop\n      jump\t// out\n        /* \"#utility.yul\":4794:5571   */\n    tag_280:\n        /* \"#utility.yul\":4911:4914   */\n      0x00\n        /* \"#utility.yul\":4947:4951   */\n      0x60\n        /* \"#utility.yul\":4942:4945   */\n      dup4\n        /* \"#utility.yul\":4938:4952   */\n      add\n        /* \"#utility.yul\":5032:5036   */\n      0x00\n        /* \"#utility.yul\":5025:5030   */\n      dup4\n        /* \"#utility.yul\":5021:5037   */\n      add\n        /* \"#utility.yul\":5015:5038   */\n      mload\n        /* \"#utility.yul\":5051:5114   */\n      tag_282\n        /* \"#utility.yul\":5108:5112   */\n      0x00\n        /* \"#utility.yul\":5103:5106   */\n      dup7\n        /* \"#utility.yul\":5099:5113   */\n      add\n        /* \"#utility.yul\":5085:5097   */\n      dup3\n        /* \"#utility.yul\":5051:5114   */\n      tag_226\n      jump\t// in\n    tag_282:\n        /* \"#utility.yul\":4962:5124   */\n      pop\n        /* \"#utility.yul\":5206:5210   */\n      0x20\n        /* \"#utility.yul\":5199:5204   */\n      dup4\n        /* \"#utility.yul\":5195:5211   */\n      add\n        /* \"#utility.yul\":5189:5212   */\n      mload\n        /* \"#utility.yul\":5259:5262   */\n      dup5\n        /* \"#utility.yul\":5253:5257   */\n      dup3\n        /* \"#utility.yul\":5249:5263   */\n      sub\n        /* \"#utility.yul\":5242:5246   */\n      0x20\n        /* \"#utility.yul\":5237:5240   */\n      dup7\n        /* \"#utility.yul\":5233:5247   */\n      add\n        /* \"#utility.yul\":5226:5264   */\n      mstore\n        /* \"#utility.yul\":5285:5358   */\n      tag_283\n        /* \"#utility.yul\":5353:5357   */\n      dup3\n        /* \"#utility.yul\":5339:5351   */\n      dup3\n        /* \"#utility.yul\":5285:5358   */\n      tag_253\n      jump\t// in\n    tag_283:\n        /* \"#utility.yul\":5277:5358   */\n      swap2\n      pop\n        /* \"#utility.yul\":5134:5369   */\n      pop\n        /* \"#utility.yul\":5452:5456   */\n      0x40\n        /* \"#utility.yul\":5445:5450   */\n      dup4\n        /* \"#utility.yul\":5441:5457   */\n      add\n        /* \"#utility.yul\":5435:5458   */\n      mload\n        /* \"#utility.yul\":5471:5534   */\n      tag_284\n        /* \"#utility.yul\":5528:5532   */\n      0x40\n        /* \"#utility.yul\":5523:5526   */\n      dup7\n        /* \"#utility.yul\":5519:5533   */\n      add\n        /* \"#utility.yul\":5505:5517   */\n      dup3\n        /* \"#utility.yul\":5471:5534   */\n      tag_226\n      jump\t// in\n    tag_284:\n        /* \"#utility.yul\":5379:5544   */\n      pop\n        /* \"#utility.yul\":5561:5565   */\n      dup1\n        /* \"#utility.yul\":5554:5565   */\n      swap2\n      pop\n        /* \"#utility.yul\":4916:5571   */\n      pop\n        /* \"#utility.yul\":4794:5571   */\n      swap3\n      swap2\n      pop\n      pop\n      jump\t// out\n        /* \"#utility.yul\":5577:5685   */\n    tag_226:\n        /* \"#utility.yul\":5654:5678   */\n      tag_286\n        /* \"#utility.yul\":5672:5677   */\n      dup2\n        /* \"#utility.yul\":5654:5678   */\n      tag_287\n      jump\t// in\n    tag_286:\n        /* \"#utility.yul\":5649:5652   */\n      dup3\n        /* \"#utility.yul\":5642:5679   */\n      mstore\n        /* \"#utility.yul\":5577:5685   */\n      pop\n      pop\n      jump\t// out\n        /* \"#utility.yul\":5691:5809   */\n    tag_288:\n        /* \"#utility.yul\":5778:5802   */\n      tag_290\n        /* \"#utility.yul\":5796:5801   */\n      dup2\n        /* \"#utility.yul\":5778:5802   */\n      tag_287\n      jump\t// in\n    tag_290:\n        /* \"#utility.yul\":5773:5776   */\n      dup3\n        /* \"#utility.yul\":5766:5803   */\n      mstore\n        /* \"#utility.yul\":5691:5809   */\n      pop\n      pop\n      jump\t// out\n        /* \"#utility.yul\":5815:6037   */\n    tag_58:\n        /* \"#utility.yul\":5908:5912   */\n      0x00\n        /* \"#utility.yul\":5946:5948   */\n      0x20\n        /* \"#utility.yul\":5935:5944   */\n      dup3\n        /* \"#utility.yul\":5931:5949   */\n      add\n        /* \"#utility.yul\":5923:5949   */\n      swap1\n      pop\n        /* \"#utility.yul\":5959:6030   */\n      tag_292\n        /* \"#utility.yul\":6027:6028   */\n      0x00\n        /* \"#utility.yul\":6016:6025   */\n      dup4\n        /* \"#utility.yul\":6012:6029   */\n      add\n        /* \"#utility.yul\":6003:6009   */\n      dup5\n        /* \"#utility.yul\":5959:6030   */\n      tag_227\n      jump\t// in\n    tag_292:\n        /* \"#utility.yul\":5815:6037   */\n      swap3\n      swap2\n      pop\n      pop\n      jump\t// out\n        /* \"#utility.yul\":6043:6416   */\n    tag_32:\n        /* \"#utility.yul\":6186:6190   */\n      0x00\n        /* \"#utility.yul\":6224:6226   */\n      0x20\n        /* \"#utility.yul\":6213:6222   */\n      dup3\n        /* \"#utility.yul\":6209:6227   */\n      add\n        /* \"#utility.yul\":6201:6227   */\n      swap1\n      pop\n        /* \"#utility.yul\":6273:6282   */\n      dup2\n        /* \"#utility.yul\":6267:6271   */\n      dup2\n        /* \"#utility.yul\":6263:6283   */\n      sub\n        /* \"#utility.yul\":6259:6260   */\n      0x00\n        /* \"#utility.yul\":6248:6257   */\n      dup4\n        /* \"#utility.yul\":6244:6261   */\n      add\n        /* \"#utility.yul\":6237:6284   */\n      mstore\n        /* \"#utility.yul\":6301:6409   */\n      tag_294\n        /* \"#utility.yul\":6404:6408   */\n      dup2\n        /* \"#utility.yul\":6395:6401   */\n      dup5\n        /* \"#utility.yul\":6301:6409   */\n      tag_231\n      jump\t// in\n    tag_294:\n        /* \"#utility.yul\":6293:6409   */\n      swap1\n      pop\n        /* \"#utility.yul\":6043:6416   */\n      swap3\n      swap2\n      pop\n      pop\n      jump\t// out\n        /* \"#utility.yul\":6422:6632   */\n    tag_38:\n        /* \"#utility.yul\":6509:6513   */\n      0x00\n        /* \"#utility.yul\":6547:6549   */\n      0x20\n        /* \"#utility.yul\":6536:6545   */\n      dup3\n        /* \"#utility.yul\":6532:6550   */\n      add\n        /* \"#utility.yul\":6524:6550   */\n      swap1\n      pop\n        /* \"#utility.yul\":6560:6625   */\n      tag_296\n        /* \"#utility.yul\":6622:6623   */\n      0x00\n        /* \"#utility.yul\":6611:6620   */\n      dup4\n        /* \"#utility.yul\":6607:6624   */\n      add\n        /* \"#utility.yul\":6598:6604   */\n      dup5\n        /* \"#utility.yul\":6560:6625   */\n      tag_245\n      jump\t// in\n    tag_296:\n        /* \"#utility.yul\":6422:6632   */\n      swap3\n      swap2\n      pop\n      pop\n      jump\t// out\n        /* \"#utility.yul\":6638:7278   */\n    tag_52:\n        /* \"#utility.yul\":6831:6835   */\n      0x00\n        /* \"#utility.yul\":6869:6872   */\n      0xa0\n        /* \"#utility.yul\":6858:6867   */\n      dup3\n        /* \"#utility.yul\":6854:6873   */\n      add\n        /* \"#utility.yul\":6846:6873   */\n      swap1\n      pop\n        /* \"#utility.yul\":6883:6948   */\n      tag_298\n        /* \"#utility.yul\":6945:6946   */\n      0x00\n        /* \"#utility.yul\":6934:6943   */\n      dup4\n        /* \"#utility.yul\":6930:6947   */\n      add\n        /* \"#utility.yul\":6921:6927   */\n      dup9\n        /* \"#utility.yul\":6883:6948   */\n      tag_245\n      jump\t// in\n    tag_298:\n        /* \"#utility.yul\":6958:7024   */\n      tag_299\n        /* \"#utility.yul\":7020:7022   */\n      0x20\n        /* \"#utility.yul\":7009:7018   */\n      dup4\n        /* \"#utility.yul\":7005:7023   */\n      add\n        /* \"#utility.yul\":6996:7002   */\n      dup8\n        /* \"#utility.yul\":6958:7024   */\n      tag_245\n      jump\t// in\n    tag_299:\n        /* \"#utility.yul\":7034:7106   */\n      tag_300\n        /* \"#utility.yul\":7102:7104   */\n      0x40\n        /* \"#utility.yul\":7091:7100   */\n      dup4\n        /* \"#utility.yul\":7087:7105   */\n      add\n        /* \"#utility.yul\":7078:7084   */\n      dup7\n        /* \"#utility.yul\":7034:7106   */\n      tag_288\n      jump\t// in\n    tag_300:\n        /* \"#utility.yul\":7116:7188   */\n      tag_301\n        /* \"#utility.yul\":7184:7186   */\n      0x60\n        /* \"#utility.yul\":7173:7182   */\n      dup4\n        /* \"#utility.yul\":7169:7187   */\n      add\n        /* \"#utility.yul\":7160:7166   */\n      dup6\n        /* \"#utility.yul\":7116:7188   */\n      tag_288\n      jump\t// in\n    tag_301:\n        /* \"#utility.yul\":7198:7271   */\n      tag_302\n        /* \"#utility.yul\":7266:7269   */\n      0x80\n        /* \"#utility.yul\":7255:7264   */\n      dup4\n        /* \"#utility.yul\":7251:7270   */\n      add\n        /* \"#utility.yul\":7242:7248   */\n      dup5\n        /* \"#utility.yul\":7198:7271   */\n      tag_288\n      jump\t// in\n    tag_302:\n        /* \"#utility.yul\":6638:7278   */\n      swap7\n      swap6\n      pop\n      pop\n      pop\n      pop\n      pop\n      pop\n      jump\t// out\n        /* \"#utility.yul\":7284:7714   */\n    tag_124:\n        /* \"#utility.yul\":7427:7431   */\n      0x00\n        /* \"#utility.yul\":7465:7467   */\n      0x60\n        /* \"#utility.yul\":7454:7463   */\n      dup3\n        /* \"#utility.yul\":7450:7468   */\n      add\n        /* \"#utility.yul\":7442:7468   */\n      swap1\n      pop\n        /* \"#utility.yul\":7478:7543   */\n      tag_304\n        /* \"#utility.yul\":7540:7541   */\n      0x00\n        /* \"#utility.yul\":7529:7538   */\n      dup4\n        /* \"#utility.yul\":7525:7542   */\n      add\n        /* \"#utility.yul\":7516:7522   */\n      dup7\n        /* \"#utility.yul\":7478:7543   */\n      tag_245\n      jump\t// in\n    tag_304:\n        /* \"#utility.yul\":7553:7625   */\n      tag_305\n        /* \"#utility.yul\":7621:7623   */\n      0x20\n        /* \"#utility.yul\":7610:7619   */\n      dup4\n        /* \"#utility.yul\":7606:7624   */\n      add\n        /* \"#utility.yul\":7597:7603   */\n      dup6\n        /* \"#utility.yul\":7553:7625   */\n      tag_288\n      jump\t// in\n    tag_305:\n        /* \"#utility.yul\":7635:7707   */\n      tag_306\n        /* \"#utility.yul\":7703:7705   */\n      0x40\n        /* \"#utility.yul\":7692:7701   */\n      dup4\n        /* \"#utility.yul\":7688:7706   */\n      add\n        /* \"#utility.yul\":7679:7685   */\n      dup5\n        /* \"#utility.yul\":7635:7707   */\n      tag_288\n      jump\t// in\n    tag_306:\n        /* \"#utility.yul\":7284:7714   */\n      swap5\n      swap4\n      pop\n      pop\n      pop\n      pop\n      jump\t// out\n        /* \"#utility.yul\":7720:7954   */\n    tag_76:\n        /* \"#utility.yul\":7819:7823   */\n      0x00\n        /* \"#utility.yul\":7857:7859   */\n      0x20\n        /* \"#utility.yul\":7846:7855   */\n      dup3\n        /* \"#utility.yul\":7842:7860   */\n      add\n        /* \"#utility.yul\":7834:7860   */\n      swap1\n      pop\n        /* \"#utility.yul\":7870:7947   */\n      tag_308\n        /* \"#utility.yul\":7944:7945   */\n      0x00\n        /* \"#utility.yul\":7933:7942   */\n      dup4\n        /* \"#utility.yul\":7929:7946   */\n      add\n        /* \"#utility.yul\":7920:7926   */\n      dup5\n        /* \"#utility.yul\":7870:7947   */\n      tag_249\n      jump\t// in\n    tag_308:\n        /* \"#utility.yul\":7720:7954   */\n      swap3\n      swap2\n      pop\n      pop\n      jump\t// out\n        /* \"#utility.yul\":7960:8379   */\n    tag_169:\n        /* \"#utility.yul\":8126:8130   */\n      0x00\n        /* \"#utility.yul\":8164:8166   */\n      0x20\n        /* \"#utility.yul\":8153:8162   */\n      dup3\n        /* \"#utility.yul\":8149:8167   */\n      add\n        /* \"#utility.yul\":8141:8167   */\n      swap1\n      pop\n        /* \"#utility.yul\":8213:8222   */\n      dup2\n        /* \"#utility.yul\":8207:8211   */\n      dup2\n        /* \"#utility.yul\":8203:8223   */\n      sub\n        /* \"#utility.yul\":8199:8200   */\n      0x00\n        /* \"#utility.yul\":8188:8197   */\n      dup4\n        /* \"#utility.yul\":8184:8201   */\n      add\n        /* \"#utility.yul\":8177:8224   */\n      mstore\n        /* \"#utility.yul\":8241:8372   */\n      tag_310\n        /* \"#utility.yul\":8367:8371   */\n      dup2\n        /* \"#utility.yul\":8241:8372   */\n      tag_270\n      jump\t// in\n    tag_310:\n        /* \"#utility.yul\":8233:8372   */\n      swap1\n      pop\n        /* \"#utility.yul\":7960:8379   */\n      swap2\n      swap1\n      pop\n      jump\t// out\n        /* \"#utility.yul\":8385:8804   */\n    tag_165:\n        /* \"#utility.yul\":8551:8555   */\n      0x00\n        /* \"#utility.yul\":8589:8591   */\n      0x20\n        /* \"#utility.yul\":8578:8587   */\n      dup3\n        /* \"#utility.yul\":8574:8592   */\n      add\n        /* \"#utility.yul\":8566:8592   */\n      swap1\n      pop\n        /* \"#utility.yul\":8638:8647   */\n      dup2\n        /* \"#utility.yul\":8632:8636   */\n      dup2\n        /* \"#utility.yul\":8628:8648   */\n      sub\n        /* \"#utility.yul\":8624:8625   */\n      0x00\n        /* \"#utility.yul\":8613:8622   */\n      dup4\n        /* \"#utility.yul\":8609:8626   */\n      add\n        /* \"#utility.yul\":8602:8649   */\n      mstore\n        /* \"#utility.yul\":8666:8797   */\n      tag_312\n        /* \"#utility.yul\":8792:8796   */\n      dup2\n        /* \"#utility.yul\":8666:8797   */\n      tag_275\n      jump\t// in\n    tag_312:\n        /* \"#utility.yul\":8658:8797   */\n      swap1\n      pop\n        /* \"#utility.yul\":8385:8804   */\n      swap2\n      swap1\n      pop\n      jump\t// out\n        /* \"#utility.yul\":8810:9179   */\n    tag_81:\n        /* \"#utility.yul\":8951:8955   */\n      0x00\n        /* \"#utility.yul\":8989:8991   */\n      0x20\n        /* \"#utility.yul\":8978:8987   */\n      dup3\n        /* \"#utility.yul\":8974:8992   */\n      add\n        /* \"#utility.yul\":8966:8992   */\n      swap1\n      pop\n        /* \"#utility.yul\":9038:9047   */\n      dup2\n        /* \"#utility.yul\":9032:9036   */\n      dup2\n        /* \"#utility.yul\":9028:9048   */\n      sub\n        /* \"#utility.yul\":9024:9025   */\n      0x00\n        /* \"#utility.yul\":9013:9022   */\n      dup4\n        /* \"#utility.yul\":9009:9026   */\n      add\n        /* \"#utility.yul\":9002:9049   */\n      mstore\n        /* \"#utility.yul\":9066:9172   */\n      tag_314\n        /* \"#utility.yul\":9167:9171   */\n      dup2\n        /* \"#utility.yul\":9158:9164   */\n      dup5\n        /* \"#utility.yul\":9066:9172   */\n      tag_280\n      jump\t// in\n    tag_314:\n        /* \"#utility.yul\":9058:9172   */\n      swap1\n      pop\n        /* \"#utility.yul\":8810:9179   */\n      swap3\n      swap2\n      pop\n      pop\n      jump\t// out\n        /* \"#utility.yul\":9185:9407   */\n    tag_26:\n        /* \"#utility.yul\":9278:9282   */\n      0x00\n        /* \"#utility.yul\":9316:9318   */\n      0x20\n        /* \"#utility.yul\":9305:9314   */\n      dup3\n        /* \"#utility.yul\":9301:9319   */\n      add\n        /* \"#utility.yul\":9293:9319   */\n      swap1\n      pop\n        /* \"#utility.yul\":9329:9400   */\n      tag_316\n        /* \"#utility.yul\":9397:9398   */\n      0x00\n        /* \"#utility.yul\":9386:9395   */\n      dup4\n        /* \"#utility.yul\":9382:9399   */\n      add\n        /* \"#utility.yul\":9373:9379   */\n      dup5\n        /* \"#utility.yul\":9329:9400   */\n      tag_288\n      jump\t// in\n    tag_316:\n        /* \"#utility.yul\":9185:9407   */\n      swap3\n      swap2\n      pop\n      pop\n      jump\t// out\n        /* \"#utility.yul\":9413:9946   */\n    tag_46:\n        /* \"#utility.yul\":9582:9586   */\n      0x00\n        /* \"#utility.yul\":9620:9622   */\n      0x60\n        /* \"#utility.yul\":9609:9618   */\n      dup3\n        /* \"#utility.yul\":9605:9623   */\n      add\n        /* \"#utility.yul\":9597:9623   */\n      swap1\n      pop\n        /* \"#utility.yul\":9633:9704   */\n      tag_318\n        /* \"#utility.yul\":9701:9702   */\n      0x00\n        /* \"#utility.yul\":9690:9699   */\n      dup4\n        /* \"#utility.yul\":9686:9703   */\n      add\n        /* \"#utility.yul\":9677:9683   */\n      dup7\n        /* \"#utility.yul\":9633:9704   */\n      tag_288\n      jump\t// in\n    tag_318:\n        /* \"#utility.yul\":9751:9760   */\n      dup2\n        /* \"#utility.yul\":9745:9749   */\n      dup2\n        /* \"#utility.yul\":9741:9761   */\n      sub\n        /* \"#utility.yul\":9736:9738   */\n      0x20\n        /* \"#utility.yul\":9725:9734   */\n      dup4\n        /* \"#utility.yul\":9721:9739   */\n      add\n        /* \"#utility.yul\":9714:9762   */\n      mstore\n        /* \"#utility.yul\":9779:9857   */\n      tag_319\n        /* \"#utility.yul\":9852:9856   */\n      dup2\n        /* \"#utility.yul\":9843:9849   */\n      dup6\n        /* \"#utility.yul\":9779:9857   */\n      tag_263\n      jump\t// in\n    tag_319:\n        /* \"#utility.yul\":9771:9857   */\n      swap1\n      pop\n        /* \"#utility.yul\":9867:9939   */\n      tag_320\n        /* \"#utility.yul\":9935:9937   */\n      0x40\n        /* \"#utility.yul\":9924:9933   */\n      dup4\n        /* \"#utility.yul\":9920:9938   */\n      add\n        /* \"#utility.yul\":9911:9917   */\n      dup5\n        /* \"#utility.yul\":9867:9939   */\n      tag_288\n      jump\t// in\n    tag_320:\n        /* \"#utility.yul\":9413:9946   */\n      swap5\n      swap4\n      pop\n      pop\n      pop\n      pop\n      jump\t// out\n        /* \"#utility.yul\":9952:10596   */\n    tag_92:\n        /* \"#utility.yul\":10149:10153   */\n      0x00\n        /* \"#utility.yul\":10187:10190   */\n      0x80\n        /* \"#utility.yul\":10176:10185   */\n      dup3\n        /* \"#utility.yul\":10172:10191   */\n      add\n        /* \"#utility.yul\":10164:10191   */\n      swap1\n      pop\n        /* \"#utility.yul\":10201:10272   */\n      tag_322\n        /* \"#utility.yul\":10269:10270   */\n      0x00\n        /* \"#utility.yul\":10258:10267   */\n      dup4\n        /* \"#utility.yul\":10254:10271   */\n      add\n        /* \"#utility.yul\":10245:10251   */\n      dup8\n        /* \"#utility.yul\":10201:10272   */\n      tag_288\n      jump\t// in\n    tag_322:\n        /* \"#utility.yul\":10319:10328   */\n      dup2\n        /* \"#utility.yul\":10313:10317   */\n      dup2\n        /* \"#utility.yul\":10309:10329   */\n      sub\n        /* \"#utility.yul\":10304:10306   */\n      0x20\n        /* \"#utility.yul\":10293:10302   */\n      dup4\n        /* \"#utility.yul\":10289:10307   */\n      add\n        /* \"#utility.yul\":10282:10330   */\n      mstore\n        /* \"#utility.yul\":10347:10425   */\n      tag_323\n        /* \"#utility.yul\":10420:10424   */\n      dup2\n        /* \"#utility.yul\":10411:10417   */\n      dup7\n        /* \"#utility.yul\":10347:10425   */\n      tag_263\n      jump\t// in\n    tag_323:\n        /* \"#utility.yul\":10339:10425   */\n      swap1\n      pop\n        /* \"#utility.yul\":10435:10507   */\n      tag_324\n        /* \"#utility.yul\":10503:10505   */\n      0x40\n        /* \"#utility.yul\":10492:10501   */\n      dup4\n        /* \"#utility.yul\":10488:10506   */\n      add\n        /* \"#utility.yul\":10479:10485   */\n      dup6\n        /* \"#utility.yul\":10435:10507   */\n      tag_288\n      jump\t// in\n    tag_324:\n        /* \"#utility.yul\":10517:10589   */\n      tag_325\n        /* \"#utility.yul\":10585:10587   */\n      0x60\n        /* \"#utility.yul\":10574:10583   */\n      dup4\n        /* \"#utility.yul\":10570:10588   */\n      add\n        /* \"#utility.yul\":10561:10567   */\n      dup5\n        /* \"#utility.yul\":10517:10589   */\n      tag_288\n      jump\t// in\n    tag_325:\n        /* \"#utility.yul\":9952:10596   */\n      swap6\n      swap5\n      pop\n      pop\n      pop\n      pop\n      pop\n      jump\t// out\n        /* \"#utility.yul\":10683:10815   */\n    tag_238:\n        /* \"#utility.yul\":10750:10754   */\n      0x00\n        /* \"#utility.yul\":10773:10776   */\n      dup2\n        /* \"#utility.yul\":10765:10776   */\n      swap1\n      pop\n        /* \"#utility.yul\":10803:10807   */\n      0x20\n        /* \"#utility.yul\":10798:10801   */\n      dup3\n        /* \"#utility.yul\":10794:10808   */\n      add\n        /* \"#utility.yul\":10786:10808   */\n      swap1\n      pop\n        /* \"#utility.yul\":10683:10815   */\n      swap2\n      swap1\n      pop\n      jump\t// out\n        /* \"#utility.yul\":10821:10935   */\n    tag_234:\n        /* \"#utility.yul\":10888:10894   */\n      0x00\n        /* \"#utility.yul\":10922:10927   */\n      dup2\n        /* \"#utility.yul\":10916:10928   */\n      mload\n        /* \"#utility.yul\":10906:10928   */\n      swap1\n      pop\n        /* \"#utility.yul\":10821:10935   */\n      swap2\n      swap1\n      pop\n      jump\t// out\n        /* \"#utility.yul\":10941:11040   */\n    tag_256:\n        /* \"#utility.yul\":10993:10999   */\n      0x00\n        /* \"#utility.yul\":11027:11032   */\n      dup2\n        /* \"#utility.yul\":11021:11033   */\n      mload\n        /* \"#utility.yul\":11011:11033   */\n      swap1\n      pop\n        /* \"#utility.yul\":10941:11040   */\n      swap2\n      swap1\n      pop\n      jump\t// out\n        /* \"#utility.yul\":11046:11159   */\n    tag_244:\n        /* \"#utility.yul\":11116:11120   */\n      0x00\n        /* \"#utility.yul\":11148:11152   */\n      0x20\n        /* \"#utility.yul\":11143:11146   */\n      dup3\n        /* \"#utility.yul\":11139:11153   */\n      add\n        /* \"#utility.yul\":11131:11153   */\n      swap1\n      pop\n        /* \"#utility.yul\":11046:11159   */\n      swap2\n      swap1\n      pop\n      jump\t// out\n        /* \"#utility.yul\":11165:11349   */\n    tag_236:\n        /* \"#utility.yul\":11264:11275   */\n      0x00\n        /* \"#utility.yul\":11298:11304   */\n      dup3\n        /* \"#utility.yul\":11293:11296   */\n      dup3\n        /* \"#utility.yul\":11286:11305   */\n      mstore\n        /* \"#utility.yul\":11338:11342   */\n      0x20\n        /* \"#utility.yul\":11333:11336   */\n      dup3\n        /* \"#utility.yul\":11329:11343   */\n      add\n        /* \"#utility.yul\":11314:11343   */\n      swap1\n      pop\n        /* \"#utility.yul\":11165:11349   */\n      swap3\n      swap2\n      pop\n      pop\n      jump\t// out\n        /* \"#utility.yul\":11355:11514   */\n    tag_258:\n        /* \"#utility.yul\":11429:11440   */\n      0x00\n        /* \"#utility.yul\":11463:11469   */\n      dup3\n        /* \"#utility.yul\":11458:11461   */\n      dup3\n        /* \"#utility.yul\":11451:11470   */\n      mstore\n        /* \"#utility.yul\":11503:11507   */\n      0x20\n        /* \"#utility.yul\":11498:11501   */\n      dup3\n        /* \"#utility.yul\":11494:11508   */\n      add\n        /* \"#utility.yul\":11479:11508   */\n      swap1\n      pop\n        /* \"#utility.yul\":11355:11514   */\n      swap3\n      swap2\n      pop\n      pop\n      jump\t// out\n        /* \"#utility.yul\":11520:11689   */\n    tag_267:\n        /* \"#utility.yul\":11604:11615   */\n      0x00\n        /* \"#utility.yul\":11638:11644   */\n      dup3\n        /* \"#utility.yul\":11633:11636   */\n      dup3\n        /* \"#utility.yul\":11626:11645   */\n      mstore\n        /* \"#utility.yul\":11678:11682   */\n      0x20\n        /* \"#utility.yul\":11673:11676   */\n      dup3\n        /* \"#utility.yul\":11669:11683   */\n      add\n        /* \"#utility.yul\":11654:11683   */\n      swap1\n      pop\n        /* \"#utility.yul\":11520:11689   */\n      swap3\n      swap2\n      pop\n      pop\n      jump\t// out\n        /* \"#utility.yul\":11695:12000   */\n    tag_121:\n        /* \"#utility.yul\":11735:11738   */\n      0x00\n        /* \"#utility.yul\":11754:11774   */\n      tag_336\n        /* \"#utility.yul\":11772:11773   */\n      dup3\n        /* \"#utility.yul\":11754:11774   */\n      tag_287\n      jump\t// in\n    tag_336:\n        /* \"#utility.yul\":11749:11774   */\n      swap2\n      pop\n        /* \"#utility.yul\":11788:11808   */\n      tag_337\n        /* \"#utility.yul\":11806:11807   */\n      dup4\n        /* \"#utility.yul\":11788:11808   */\n      tag_287\n      jump\t// in\n    tag_337:\n        /* \"#utility.yul\":11783:11808   */\n      swap3\n      pop\n        /* \"#utility.yul\":11942:11943   */\n      dup3\n        /* \"#utility.yul\":11874:11940   */\n      0xffffffffffffffffffffffffffffffffffffffffffffffffffffffffffffffff\n        /* \"#utility.yul\":11870:11944   */\n      sub\n        /* \"#utility.yul\":11867:11868   */\n      dup3\n        /* \"#utility.yul\":11864:11945   */\n      gt\n        /* \"#utility.yul\":11861:11968   */\n      iszero\n      tag_338\n      jumpi\n        /* \"#utility.yul\":11948:11966   */\n      tag_339\n      tag_340\n      jump\t// in\n    tag_339:\n        /* \"#utility.yul\":11861:11968   */\n    tag_338:\n        /* \"#utility.yul\":11992:11993   */\n      dup3\n        /* \"#utility.yul\":11989:11990   */\n      dup3\n        /* \"#utility.yul\":11985:11994   */\n      add\n        /* \"#utility.yul\":11978:11994   */\n      swap1\n      pop\n        /* \"#utility.yul\":11695:12000   */\n      swap3\n      swap2\n      pop\n      pop\n      jump\t// out\n        /* \"#utility.yul\":12006:12102   */\n    tag_230:\n        /* \"#utility.yul\":12043:12050   */\n      0x00\n        /* \"#utility.yul\":12072:12096   */\n      tag_342\n        /* \"#utility.yul\":12090:12095   */\n      dup3\n        /* \"#utility.yul\":12072:12096   */\n      tag_343\n      jump\t// in\n    tag_342:\n        /* \"#utility.yul\":12061:12096   */\n      swap1\n      pop\n        /* \"#utility.yul\":12006:12102   */\n      swap2\n      swap1\n      pop\n      jump\t// out\n        /* \"#utility.yul\":12108:12198   */\n    tag_248:\n        /* \"#utility.yul\":12142:12149   */\n      0x00\n        /* \"#utility.yul\":12185:12190   */\n      dup2\n        /* \"#utility.yul\":12178:12191   */\n      iszero\n        /* \"#utility.yul\":12171:12192   */\n      iszero\n        /* \"#utility.yul\":12160:12192   */\n      swap1\n      pop\n        /* \"#utility.yul\":12108:12198   */\n      swap2\n      swap1\n      pop\n      jump\t// out\n        /* \"#utility.yul\":12204:12331   */\n    tag_345:\n        /* \"#utility.yul\":12249:12256   */\n      0x00\n        /* \"#utility.yul\":12278:12283   */\n      dup2\n        /* \"#utility.yul\":12267:12283   */\n      swap1\n      pop\n        /* \"#utility.yul\":12284:12325   */\n      tag_347\n        /* \"#utility.yul\":12319:12324   */\n      dup3\n        /* \"#utility.yul\":12284:12325   */\n      tag_348\n      jump\t// in\n    tag_347:\n        /* \"#utility.yul\":12204:12331   */\n      swap2\n      swap1\n      pop\n      jump\t// out\n        /* \"#utility.yul\":12337:12463   */\n    tag_343:\n        /* \"#utility.yul\":12374:12381   */\n      0x00\n        /* \"#utility.yul\":12414:12456   */\n      0xffffffffffffffffffffffffffffffffffffffff\n        /* \"#utility.yul\":12407:12412   */\n      dup3\n        /* \"#utility.yul\":12403:12457   */\n      and\n        /* \"#utility.yul\":12392:12457   */\n      swap1\n      pop\n        /* \"#utility.yul\":12337:12463   */\n      swap2\n      swap1\n      pop\n      jump\t// out\n        /* \"#utility.yul\":12469:12546   */\n    tag_287:\n        /* \"#utility.yul\":12506:12513   */\n      0x00\n        /* \"#utility.yul\":12535:12540   */\n      dup2\n        /* \"#utility.yul\":12524:12540   */\n      swap1\n      pop\n        /* \"#utility.yul\":12469:12546   */\n      swap2\n      swap1\n      pop\n      jump\t// out\n        /* \"#utility.yul\":12552:12679   */\n    tag_252:\n        /* \"#utility.yul\":12608:12617   */\n      0x00\n        /* \"#utility.yul\":12641:12673   */\n      tag_352\n        /* \"#utility.yul\":12667:12672   */\n      dup3\n        /* \"#utility.yul\":12641:12673   */\n      tag_345\n      jump\t// in\n    tag_352:\n        /* \"#utility.yul\":12628:12673   */\n      swap1\n      pop\n        /* \"#utility.yul\":12552:12679   */\n      swap2\n      swap1\n      pop\n      jump\t// out\n        /* \"#utility.yul\":12685:12992   */\n    tag_260:\n        /* \"#utility.yul\":12753:12754   */\n      0x00\n        /* \"#utility.yul\":12763:12876   */\n    tag_354:\n        /* \"#utility.yul\":12777:12783   */\n      dup4\n        /* \"#utility.yul\":12774:12775   */\n      dup2\n        /* \"#utility.yul\":12771:12784   */\n      lt\n        /* \"#utility.yul\":12763:12876   */\n      iszero\n      tag_356\n      jumpi\n        /* \"#utility.yul\":12862:12863   */\n      dup1\n        /* \"#utility.yul\":12857:12860   */\n      dup3\n        /* \"#utility.yul\":12853:12864   */\n      add\n        /* \"#utility.yul\":12847:12865   */\n      mload\n        /* \"#utility.yul\":12843:12844   */\n      dup2\n        /* \"#utility.yul\":12838:12841   */\n      dup5\n        /* \"#utility.yul\":12834:12845   */\n      add\n        /* \"#utility.yul\":12827:12866   */\n      mstore\n        /* \"#utility.yul\":12799:12801   */\n      0x20\n        /* \"#utility.yul\":12796:12797   */\n      dup2\n        /* \"#utility.yul\":12792:12802   */\n      add\n        /* \"#utility.yul\":12787:12802   */\n      swap1\n      pop\n        /* \"#utility.yul\":12763:12876   */\n      jump(tag_354)\n    tag_356:\n        /* \"#utility.yul\":12894:12900   */\n      dup4\n        /* \"#utility.yul\":12891:12892   */\n      dup2\n        /* \"#utility.yul\":12888:12901   */\n      gt\n        /* \"#utility.yul\":12885:12986   */\n      iszero\n      tag_357\n      jumpi\n        /* \"#utility.yul\":12974:12975   */\n      0x00\n        /* \"#utility.yul\":12965:12971   */\n      dup5\n        /* \"#utility.yul\":12960:12963   */\n      dup5\n        /* \"#utility.yul\":12956:12972   */\n      add\n        /* \"#utility.yul\":12949:12976   */\n      mstore\n        /* \"#utility.yul\":12885:12986   */\n    tag_357:\n        /* \"#utility.yul\":12734:12992   */\n      pop\n        /* \"#utility.yul\":12685:12992   */\n      pop\n      pop\n      pop\n      jump\t// out\n        /* \"#utility.yul\":12998:13318   */\n    tag_126:\n        /* \"#utility.yul\":13042:13048   */\n      0x00\n        /* \"#utility.yul\":13079:13080   */\n      0x02\n        /* \"#utility.yul\":13073:13077   */\n      dup3\n        /* \"#utility.yul\":13069:13081   */\n      div\n        /* \"#utility.yul\":13059:13081   */\n      swap1\n      pop\n        /* \"#utility.yul\":13126:13127   */\n      0x01\n        /* \"#utility.yul\":13120:13124   */\n      dup3\n        /* \"#utility.yul\":13116:13128   */\n      and\n        /* \"#utility.yul\":13147:13165   */\n      dup1\n        /* \"#utility.yul\":13137:13218   */\n      tag_359\n      jumpi\n        /* \"#utility.yul\":13203:13207   */\n      0x7f\n        /* \"#utility.yul\":13195:13201   */\n      dup3\n        /* \"#utility.yul\":13191:13208   */\n      and\n        /* \"#utility.yul\":13181:13208   */\n      swap2\n      pop\n        /* \"#utility.yul\":13137:13218   */\n    tag_359:\n        /* \"#utility.yul\":13265:13267   */\n      0x20\n        /* \"#utility.yul\":13257:13263   */\n      dup3\n        /* \"#utility.yul\":13254:13268   */\n      lt\n        /* \"#utility.yul\":13234:13252   */\n      dup2\n        /* \"#utility.yul\":13231:13269   */\n      eq\n        /* \"#utility.yul\":13228:13312   */\n      iszero\n      tag_360\n      jumpi\n        /* \"#utility.yul\":13284:13302   */\n      tag_361\n      tag_362\n      jump\t// in\n    tag_361:\n        /* \"#utility.yul\":13228:13312   */\n    tag_360:\n        /* \"#utility.yul\":13049:13318   */\n      pop\n        /* \"#utility.yul\":12998:13318   */\n      swap2\n      swap1\n      pop\n      jump\t// out\n        /* \"#utility.yul\":13324:13557   */\n    tag_106:\n        /* \"#utility.yul\":13363:13366   */\n      0x00\n        /* \"#utility.yul\":13386:13410   */\n      tag_364\n        /* \"#utility.yul\":13404:13409   */\n      dup3\n        /* \"#utility.yul\":13386:13410   */\n      tag_287\n      jump\t// in\n    tag_364:\n        /* \"#utility.yul\":13377:13410   */\n      swap2\n      pop\n        /* \"#utility.yul\":13432:13498   */\n      0xffffffffffffffffffffffffffffffffffffffffffffffffffffffffffffffff\n        /* \"#utility.yul\":13425:13430   */\n      dup3\n        /* \"#utility.yul\":13422:13499   */\n      eq\n        /* \"#utility.yul\":13419:13522   */\n      iszero\n      tag_365\n      jumpi\n        /* \"#utility.yul\":13502:13520   */\n      tag_366\n      tag_340\n      jump\t// in\n    tag_366:\n        /* \"#utility.yul\":13419:13522   */\n    tag_365:\n        /* \"#utility.yul\":13549:13550   */\n      0x01\n        /* \"#utility.yul\":13542:13547   */\n      dup3\n        /* \"#utility.yul\":13538:13551   */\n      add\n        /* \"#utility.yul\":13531:13551   */\n      swap1\n      pop\n        /* \"#utility.yul\":13324:13557   */\n      swap2\n      swap1\n      pop\n      jump\t// out\n        /* \"#utility.yul\":13563:13743   */\n    tag_340:\n        /* \"#utility.yul\":13611:13688   */\n      0x4e487b7100000000000000000000000000000000000000000000000000000000\n        /* \"#utility.yul\":13608:13609   */\n      0x00\n        /* \"#utility.yul\":13601:13689   */\n      mstore\n        /* \"#utility.yul\":13708:13712   */\n      0x11\n        /* \"#utility.yul\":13705:13706   */\n      0x04\n        /* \"#utility.yul\":13698:13713   */\n      mstore\n        /* \"#utility.yul\":13732:13736   */\n      0x24\n        /* \"#utility.yul\":13729:13730   */\n      0x00\n        /* \"#utility.yul\":13722:13737   */\n      revert\n        /* \"#utility.yul\":13749:13929   */\n    tag_110:\n        /* \"#utility.yul\":13797:13874   */\n      0x4e487b7100000000000000000000000000000000000000000000000000000000\n        /* \"#utility.yul\":13794:13795   */\n      0x00\n        /* \"#utility.yul\":13787:13875   */\n      mstore\n        /* \"#utility.yul\":13894:13898   */\n      0x21\n        /* \"#utility.yul\":13891:13892   */\n      0x04\n        /* \"#utility.yul\":13884:13899   */\n      mstore\n        /* \"#utility.yul\":13918:13922   */\n      0x24\n        /* \"#utility.yul\":13915:13916   */\n      0x00\n        /* \"#utility.yul\":13908:13923   */\n      revert\n        /* \"#utility.yul\":13935:14115   */\n    tag_362:\n        /* \"#utility.yul\":13983:14060   */\n      0x4e487b7100000000000000000000000000000000000000000000000000000000\n        /* \"#utility.yul\":13980:13981   */\n      0x00\n        /* \"#utility.yul\":13973:14061   */\n      mstore\n        /* \"#utility.yul\":14080:14084   */\n      0x22\n        /* \"#utility.yul\":14077:14078   */\n      0x04\n        /* \"#utility.yul\":14070:14085   */\n      mstore\n        /* \"#utility.yul\":14104:14108   */\n      0x24\n        /* \"#utility.yul\":14101:14102   */\n      0x00\n        /* \"#utility.yul\":14094:14109   */\n      revert\n        /* \"#utility.yul\":14121:14301   */\n    tag_104:\n        /* \"#utility.yul\":14169:14246   */\n      0x4e487b7100000000000000000000000000000000000000000000000000000000\n        /* \"#utility.yul\":14166:14167   */\n      0x00\n        /* \"#utility.yul\":14159:14247   */\n      mstore\n        /* \"#utility.yul\":14266:14270   */\n      0x32\n        /* \"#utility.yul\":14263:14264   */\n      0x04\n        /* \"#utility.yul\":14256:14271   */\n      mstore\n        /* \"#utility.yul\":14290:14294   */\n      0x24\n        /* \"#utility.yul\":14287:14288   */\n      0x00\n        /* \"#utility.yul\":14280:14295   */\n      revert\n        /* \"#utility.yul\":14307:14487   */\n    tag_96:\n        /* \"#utility.yul\":14355:14432   */\n      0x4e487b7100000000000000000000000000000000000000000000000000000000\n        /* \"#utility.yul\":14352:14353   */\n      0x00\n        /* \"#utility.yul\":14345:14433   */\n      mstore\n        /* \"#utility.yul\":14452:14456   */\n      0x41\n        /* \"#utility.yul\":14449:14450   */\n      0x04\n        /* \"#utility.yul\":14442:14457   */\n      mstore\n        /* \"#utility.yul\":14476:14480   */\n      0x24\n        /* \"#utility.yul\":14473:14474   */\n      0x00\n        /* \"#utility.yul\":14466:14481   */\n      revert\n        /* \"#utility.yul\":14616:14733   */\n    tag_207:\n        /* \"#utility.yul\":14725:14726   */\n      0x00\n        /* \"#utility.yul\":14722:14723   */\n      dup1\n        /* \"#utility.yul\":14715:14727   */\n      revert\n        /* \"#utility.yul\":14739:14841   */\n    tag_262:\n        /* \"#utility.yul\":14780:14786   */\n      0x00\n        /* \"#utility.yul\":14831:14833   */\n      0x1f\n        /* \"#utility.yul\":14827:14834   */\n      not\n        /* \"#utility.yul\":14822:14824   */\n      0x1f\n        /* \"#utility.yul\":14815:14820   */\n      dup4\n        /* \"#utility.yul\":14811:14825   */\n      add\n        /* \"#utility.yul\":14807:14835   */\n      and\n        /* \"#utility.yul\":14797:14835   */\n      swap1\n      pop\n        /* \"#utility.yul\":14739:14841   */\n      swap2\n      swap1\n      pop\n      jump\t// out\n        /* \"#utility.yul\":14847:15076   */\n    tag_274:\n        /* \"#utility.yul\":14987:15021   */\n      0x506c656173652070726f7669646520612076616c696420706f6c6c696e672073\n        /* \"#utility.yul\":14983:14984   */\n      0x00\n        /* \"#utility.yul\":14975:14981   */\n      dup3\n        /* \"#utility.yul\":14971:14985   */\n      add\n        /* \"#utility.yul\":14964:15022   */\n      mstore\n        /* \"#utility.yul\":15056:15068   */\n      0x746174696f6e2049442e00000000000000000000000000000000000000000000\n        /* \"#utility.yul\":15051:15053   */\n      0x20\n        /* \"#utility.yul\":15043:15049   */\n      dup3\n        /* \"#utility.yul\":15039:15054   */\n      add\n        /* \"#utility.yul\":15032:15069   */\n      mstore\n        /* \"#utility.yul\":14847:15076   */\n      pop\n      jump\t// out\n        /* \"#utility.yul\":15082:15260   */\n    tag_279:\n        /* \"#utility.yul\":15222:15252   */\n      0x566f74657220697320616c726561647920726567697374657265642e00000000\n        /* \"#utility.yul\":15218:15219   */\n      0x00\n        /* \"#utility.yul\":15210:15216   */\n      dup3\n        /* \"#utility.yul\":15206:15220   */\n      add\n        /* \"#utility.yul\":15199:15253   */\n      mstore\n        /* \"#utility.yul\":15082:15260   */\n      pop\n      jump\t// out\n        /* \"#utility.yul\":15266:15379   */\n    tag_348:\n        /* \"#utility.yul\":15347:15348   */\n      0x03\n        /* \"#utility.yul\":15340:15345   */\n      dup2\n        /* \"#utility.yul\":15337:15349   */\n      lt\n        /* \"#utility.yul\":15327:15373   */\n      tag_379\n      jumpi\n        /* \"#utility.yul\":15353:15371   */\n      tag_380\n      tag_110\n      jump\t// in\n    tag_380:\n        /* \"#utility.yul\":15327:15373   */\n    tag_379:\n        /* \"#utility.yul\":15266:15379   */\n      pop\n      jump\t// out\n        /* \"#utility.yul\":15385:15507   */\n    tag_199:\n        /* \"#utility.yul\":15458:15482   */\n      tag_382\n        /* \"#utility.yul\":15476:15481   */\n      dup2\n        /* \"#utility.yul\":15458:15482   */\n      tag_230\n      jump\t// in\n    tag_382:\n        /* \"#utility.yul\":15451:15456   */\n      dup2\n        /* \"#utility.yul\":15448:15483   */\n      eq\n        /* \"#utility.yul\":15438:15501   */\n      tag_383\n      jumpi\n        /* \"#utility.yul\":15497:15498   */\n      0x00\n        /* \"#utility.yul\":15494:15495   */\n      dup1\n        /* \"#utility.yul\":15487:15499   */\n      revert\n        /* \"#utility.yul\":15438:15501   */\n    tag_383:\n        /* \"#utility.yul\":15385:15507   */\n      pop\n      jump\t// out\n        /* \"#utility.yul\":15513:15635   */\n    tag_203:\n        /* \"#utility.yul\":15586:15610   */\n      tag_385\n        /* \"#utility.yul\":15604:15609   */\n      dup2\n        /* \"#utility.yul\":15586:15610   */\n      tag_287\n      jump\t// in\n    tag_385:\n        /* \"#utility.yul\":15579:15584   */\n      dup2\n        /* \"#utility.yul\":15576:15611   */\n      eq\n        /* \"#utility.yul\":15566:15629   */\n      tag_386\n      jumpi\n        /* \"#utility.yul\":15625:15626   */\n      0x00\n        /* \"#utility.yul\":15622:15623   */\n      dup1\n        /* \"#utility.yul\":15615:15627   */\n      revert\n        /* \"#utility.yul\":15566:15629   */\n    tag_386:\n        /* \"#utility.yul\":15513:15635   */\n      pop\n      jump\t// out\n\n    auxdata: 0xa26469706673582212208697ee399268508a372e2a96737f6871bcbc6c5d50cfec9403c71080c3483d9064736f6c63430008070033\n}\n",
				"bytecode": {
					"linkReferences": {},
					"object": "60806040523480156200001157600080fd5b50336000806101000a81548173ffffffffffffffffffffffffffffffffffffffff021916908373ffffffffffffffffffffffffffffffffffffffff16021790555062000062620000a660201b60201c565b620000726200036460201b60201c565b6000600c60006101000a81548160ff021916908360028111156200009b576200009a62000847565b5b0217905550620008a5565b620000ec6040518060400160405280601181526020017f506f6c6c696e672053746174696f6e2031000000000000000000000000000000815250620004c460201b60201c565b620001326040518060400160405280601181526020017f506f6c6c696e672053746174696f6e2032000000000000000000000000000000815250620004c460201b60201c565b620001786040518060400160405280601181526020017f506f6c6c696e672053746174696f6e2033000000000000000000000000000000815250620004c460201b60201c565b620001be6040518060400160405280601181526020017f506f6c6c696e672053746174696f6e2034000000000000000000000000000000815250620004c460201b60201c565b620002046040518060400160405280601181526020017f506f6c6c696e672053746174696f6e2035000000000000000000000000000000815250620004c460201b60201c565b6200024a6040518060400160405280601181526020017f506f6c6c696e672053746174696f6e2036000000000000000000000000000000815250620004c460201b60201c565b620002906040518060400160405280601181526020017f506f6c6c696e672053746174696f6e2037000000000000000000000000000000815250620004c460201b60201c565b620002d66040518060400160405280601181526020017f506f6c6c696e672053746174696f6e2038000000000000000000000000000000815250620004c460201b60201c565b6200031c6040518060400160405280601181526020017f506f6c6c696e672053746174696f6e2039000000000000000000000000000000815250620004c460201b60201c565b620003626040518060400160405280601281526020017f506f6c6c696e672053746174696f6e2031300000000000000000000000000000815250620004c460201b60201c565b565b620003aa6040518060400160405280600b81526020017f43616e64696461746520310000000000000000000000000000000000000000008152506200053560201b60201c565b620003f06040518060400160405280600b81526020017f43616e64696461746520320000000000000000000000000000000000000000008152506200053560201b60201c565b620004366040518060400160405280600b81526020017f43616e64696461746520330000000000000000000000000000000000000000008152506200053560201b60201c565b6200047c6040518060400160405280600b81526020017f43616e64696461746520340000000000000000000000000000000000000000008152506200053560201b60201c565b620004c26040518060400160405280600b81526020017f43616e64696461746520350000000000000000000000000000000000000000008152506200053560201b60201c565b565b60026000815480929190620004d990620007ca565b9190505550600060086000600254815260200190815260200160002090506002548160000181905550818160010190805190602001906200051c929190620006da565b5060008160020181905550600081600301819055505050565b600160008154809291906200054a90620007ca565b9190505550604051806060016040528060015481526020018281526020016000815250600660006001548152602001908152602001600020600082015181600001556020820151816001019080519060200190620005aa929190620006da565b50604082015181600201559050506000600190505b6002548111620006d657604051806060016040528060015481526020018381526020016000815250600860008381526020019081526020016000206004016000600154815260200190815260200160002060008201518160000155602082015181600101908051906020019062000638929190620006da565b5060408201518160020155905050604051806060016040528060015481526020018381526020016000815250600b600083815260200190815260200160002060006001548152602001908152602001600020600082015181600001556020820151816001019080519060200190620006b2929190620006da565b50604082015181600201559050508080620006cd90620007ca565b915050620005bf565b5050565b828054620006e89062000794565b90600052602060002090601f0160209004810192826200070c576000855562000758565b82601f106200072757805160ff191683800117855562000758565b8280016001018555821562000758579182015b82811115620007575782518255916020019190600101906200073a565b5b5090506200076791906200076b565b5090565b5b80821115620007865760008160009055506001016200076c565b5090565b6000819050919050565b60006002820490506001821680620007ad57607f821691505b60208210811415620007c457620007c362000876565b5b50919050565b6000620007d7826200078a565b91507fffffffffffffffffffffffffffffffffffffffffffffffffffffffffffffffff8214156200080d576200080c62000818565b5b600182019050919050565b7f4e487b7100000000000000000000000000000000000000000000000000000000600052601160045260246000fd5b7f4e487b7100000000000000000000000000000000000000000000000000000000600052602160045260246000fd5b7f4e487b7100000000000000000000000000000000000000000000000000000000600052602260045260246000fd5b61186380620008b56000396000f3fe608060405234801561001057600080fd5b506004361061010a5760003560e01c806391f36633116100a2578063c19d93fb11610071578063c19d93fb146102bf578063d3808ae0146102dd578063df9f1a071461030d578063f3a8286f1461032b578063fe2442d7146103495761010a565b806391f3663314610239578063a3ec138d14610269578063b922394614610299578063b9f05f2f146102a35761010a565b80633477ee2e116100de5780633477ee2e146101ab5780634763d4e7146101dd5780634c0a6af01461021157806353357ad01461021b5761010a565b8062aa74641461010f57806323a1b11c1461012d5780632c0a3f891461015d5780632d35a8a21461018d575b600080fd5b61011761037c565b60405161012491906113f6565b60405180910390f35b61014760048036038101906101429190611061565b610382565b60405161015491906112b2565b60405180910390f35b6101776004803603810190610172919061108e565b610429565b60405161018491906112d4565b60405180910390f35b610195610796565b6040516101a291906113f6565b60405180910390f35b6101c560048036038101906101c09190611061565b61079c565b6040516101d493929190611411565b60405180910390f35b6101f760048036038101906101f29190610ff4565b61084e565b6040516102089594939291906112ef565b60405180910390f35b61021961089e565b005b610223610965565b6040516102309190611297565b60405180910390f35b610253600480360381019061024e919061108e565b610989565b60405161026091906113f6565b60405180910390f35b610283600480360381019061027e9190610ff4565b6109be565b60405161029091906112d4565b60405180910390f35b6102a16109de565b005b6102bd60048036038101906102b89190611021565b610aae565b005b6102c7610d41565b6040516102d49190611379565b60405180910390f35b6102f760048036038101906102f2919061108e565b610d54565b60405161030491906113d4565b60405180910390f35b610315610e3c565b60405161032291906113f6565b60405180910390f35b610333610e42565b60405161034091906113f6565b60405180910390f35b610363600480360381019061035e9190611061565b610e48565b604051610373949392919061144f565b60405180910390f35b60035481565b6060600060015467ffffffffffffffff8111156103a2576103a161172e565b5b6040519080825280602002602001820160405280156103d05781602001602082028036833780820191505090505b5090506000600190505b600154811161041f576103ed8482610989565b828281518110610400576103ff6116ff565b5b602002602001018181525050808061041790611629565b9150506103da565b5080915050919050565b600060018060028111156104405761043f6116a1565b5b600c60009054906101000a900460ff166002811115610462576104616116a1565b5b1461046c57600080fd5b6000600960003373ffffffffffffffffffffffffffffffffffffffff1673ffffffffffffffffffffffffffffffffffffffff16815260200190815260200160002060000160009054906101000a900460ff1680156105175750600960003373ffffffffffffffffffffffffffffffffffffffff1673ffffffffffffffffffffffffffffffffffffffff16815260200190815260200160002060000160019054906101000a900460ff16155b1561078b5784600960003373ffffffffffffffffffffffffffffffffffffffff1673ffffffffffffffffffffffffffffffffffffffff1681526020019081526020016000206001018190555083600960003373ffffffffffffffffffffffffffffffffffffffff1673ffffffffffffffffffffffffffffffffffffffff168152602001908152602001600020600301819055506001600960003373ffffffffffffffffffffffffffffffffffffffff1673ffffffffffffffffffffffffffffffffffffffff16815260200190815260200160002060000160016101000a81548160ff02191690831515021790555060086000858152602001908152602001600020600301600081548092919061062c90611629565b919050555060066000868152602001908152602001600020600201600081548092919061065890611629565b91905055506004600081548092919061067090611629565b91905055506001905080600a60003373ffffffffffffffffffffffffffffffffffffffff1673ffffffffffffffffffffffffffffffffffffffff16815260200190815260200160002060006101000a81548160ff0219169083151502179055506001600860008681526020019081526020016000206004016000878152602001908152602001600020600201600082825461070b9190611501565b92505081905550600b60008581526020019081526020016000206000868152602001908152602001600020600201600081548092919061074a90611629565b91905055507f29a25b3d0b6ff7e5de2a60a2e8e76d1bdaf4894ec18c598cc1687213f442c5cb81868660405161078293929190611342565b60405180910390a15b809250505092915050565b60015481565b60066020528060005260406000206000915090508060000154908060010180546107c5906115f7565b80601f01602080910402602001604051908101604052809291908181526020018280546107f1906115f7565b801561083e5780601f106108135761010080835404028352916020019161083e565b820191906000526020600020905b81548152906001019060200180831161082157829003601f168201915b5050505050908060020154905083565b60096020528060005260406000206000915090508060000160009054906101000a900460ff16908060000160019054906101000a900460ff16908060010154908060020154908060030154905085565b60008060028111156108b3576108b26116a1565b5b600c60009054906101000a900460ff1660028111156108d5576108d46116a1565b5b146108df57600080fd5b60008054906101000a900473ffffffffffffffffffffffffffffffffffffffff1673ffffffffffffffffffffffffffffffffffffffff163373ffffffffffffffffffffffffffffffffffffffff161461093757600080fd5b6001600c60006101000a81548160ff0219169083600281111561095d5761095c6116a1565b5b021790555050565b60008054906101000a900473ffffffffffffffffffffffffffffffffffffffff1681565b600060086000848152602001908152602001600020600401600083815260200190815260200160002060020154905092915050565b600a6020528060005260406000206000915054906101000a900460ff1681565b60018060028111156109f3576109f26116a1565b5b600c60009054906101000a900460ff166002811115610a1557610a146116a1565b5b14610a1f57600080fd5b60008054906101000a900473ffffffffffffffffffffffffffffffffffffffff1673ffffffffffffffffffffffffffffffffffffffff163373ffffffffffffffffffffffffffffffffffffffff1614610a7757600080fd5b6002600c60006101000a81548160ff02191690836002811115610a9d57610a9c6116a1565b5b021790555060045460058190555050565b6000806002811115610ac357610ac26116a1565b5b600c60009054906101000a900460ff166002811115610ae557610ae46116a1565b5b14610aef57600080fd5b60008054906101000a900473ffffffffffffffffffffffffffffffffffffffff1673ffffffffffffffffffffffffffffffffffffffff163373ffffffffffffffffffffffffffffffffffffffff1614610b4757600080fd5b60001515600960008573ffffffffffffffffffffffffffffffffffffffff1673ffffffffffffffffffffffffffffffffffffffff16815260200190815260200160002060000160009054906101000a900460ff16151514610bdd576040517f08c379a0000000000000000000000000000000000000000000000000000000008152600401610bd4906113b4565b60405180910390fd5b60018210158015610bf057506002548211155b610c2f576040517f08c379a0000000000000000000000000000000000000000000000000000000008152600401610c2690611394565b60405180910390fd5b610c37610f76565b60018160000190151590811515815250506000816020019015159081151581525050600081604001818152505082816060018181525050600081608001818152505080600960008673ffffffffffffffffffffffffffffffffffffffff1673ffffffffffffffffffffffffffffffffffffffff16815260200190815260200160002060008201518160000160006101000a81548160ff02191690831515021790555060208201518160000160016101000a81548160ff021916908315150217905550604082015181600101556060820151816002015560808201518160030155905050610d2383610f00565b60036000815480929190610d3690611629565b919050555050505050565b600c60009054906101000a900460ff1681565b610d5c610fa9565b60086000848152602001908152602001600020600401600083815260200190815260200160002060405180606001604052908160008201548152602001600182018054610da8906115f7565b80601f0160208091040260200160405190810160405280929190818152602001828054610dd4906115f7565b8015610e215780601f10610df657610100808354040283529160200191610e21565b820191906000526020600020905b815481529060010190602001808311610e0457829003601f168201915b50505050508152602001600282015481525050905092915050565b60025481565b60055481565b6008602052806000526040600020600091509050806000015490806001018054610e71906115f7565b80601f0160208091040260200160405190810160405280929190818152602001828054610e9d906115f7565b8015610eea5780601f10610ebf57610100808354040283529160200191610eea565b820191906000526020600020905b815481529060010190602001808311610ecd57829003601f168201915b5050505050908060020154908060030154905084565b6000600190505b6002548111610f72578160086000838152602001908152602001600020600001541415610f5f57600860008281526020019081526020016000206002016000815480929190610f5590611629565b9190505550610f72565b8080610f6a90611629565b915050610f07565b5050565b6040518060a001604052806000151581526020016000151581526020016000815260200160008152602001600081525090565b60405180606001604052806000815260200160608152602001600081525090565b600081359050610fd9816117ff565b92915050565b600081359050610fee81611816565b92915050565b60006020828403121561100a5761100961175d565b5b600061101884828501610fca565b91505092915050565b600080604083850312156110385761103761175d565b5b600061104685828601610fca565b925050602061105785828601610fdf565b9150509250929050565b6000602082840312156110775761107661175d565b5b600061108584828501610fdf565b91505092915050565b600080604083850312156110a5576110a461175d565b5b60006110b385828601610fdf565b92505060206110c485828601610fdf565b9150509250929050565b60006110da8383611279565b60208301905092915050565b6110ef81611557565b82525050565b6000611100826114ab565b61110a81856114ce565b93506111158361149b565b8060005b8381101561114657815161112d88826110ce565b9750611138836114c1565b925050600181019050611119565b5085935050505092915050565b61115c81611569565b82525050565b61116b816115b2565b82525050565b600061117c826114b6565b61118681856114df565b93506111968185602086016115c4565b61119f81611762565b840191505092915050565b60006111b5826114b6565b6111bf81856114f0565b93506111cf8185602086016115c4565b6111d881611762565b840191505092915050565b60006111f0602a836114f0565b91506111fb82611773565b604082019050919050565b6000611213601c836114f0565b915061121e826117c2565b602082019050919050565b60006060830160008301516112416000860182611279565b50602083015184820360208601526112598282611171565b915050604083015161126e6040860182611279565b508091505092915050565b611282816115a8565b82525050565b611291816115a8565b82525050565b60006020820190506112ac60008301846110e6565b92915050565b600060208201905081810360008301526112cc81846110f5565b905092915050565b60006020820190506112e96000830184611153565b92915050565b600060a0820190506113046000830188611153565b6113116020830187611153565b61131e6040830186611288565b61132b6060830185611288565b6113386080830184611288565b9695505050505050565b60006060820190506113576000830186611153565b6113646020830185611288565b6113716040830184611288565b949350505050565b600060208201905061138e6000830184611162565b92915050565b600060208201905081810360008301526113ad816111e3565b9050919050565b600060208201905081810360008301526113cd81611206565b9050919050565b600060208201905081810360008301526113ee8184611229565b905092915050565b600060208201905061140b6000830184611288565b92915050565b60006060820190506114266000830186611288565b818103602083015261143881856111aa565b90506114476040830184611288565b949350505050565b60006080820190506114646000830187611288565b818103602083015261147681866111aa565b90506114856040830185611288565b6114926060830184611288565b95945050505050565b6000819050602082019050919050565b600081519050919050565b600081519050919050565b6000602082019050919050565b600082825260208201905092915050565b600082825260208201905092915050565b600082825260208201905092915050565b600061150c826115a8565b9150611517836115a8565b9250827fffffffffffffffffffffffffffffffffffffffffffffffffffffffffffffffff0382111561154c5761154b611672565b5b828201905092915050565b600061156282611588565b9050919050565b60008115159050919050565b6000819050611583826117eb565b919050565b600073ffffffffffffffffffffffffffffffffffffffff82169050919050565b6000819050919050565b60006115bd82611575565b9050919050565b60005b838110156115e25780820151818401526020810190506115c7565b838111156115f1576000848401525b50505050565b6000600282049050600182168061160f57607f821691505b60208210811415611623576116226116d0565b5b50919050565b6000611634826115a8565b91507fffffffffffffffffffffffffffffffffffffffffffffffffffffffffffffffff82141561166757611666611672565b5b600182019050919050565b7f4e487b7100000000000000000000000000000000000000000000000000000000600052601160045260246000fd5b7f4e487b7100000000000000000000000000000000000000000000000000000000600052602160045260246000fd5b7f4e487b7100000000000000000000000000000000000000000000000000000000600052602260045260246000fd5b7f4e487b7100000000000000000000000000000000000000000000000000000000600052603260045260246000fd5b7f4e487b7100000000000000000000000000000000000000000000000000000000600052604160045260246000fd5b600080fd5b6000601f19601f8301169050919050565b7f506c656173652070726f7669646520612076616c696420706f6c6c696e67207360008201527f746174696f6e2049442e00000000000000000000000000000000000000000000602082015250565b7f566f74657220697320616c726561647920726567697374657265642e00000000600082015250565b600381106117fc576117fb6116a1565b5b50565b61180881611557565b811461181357600080fd5b50565b61181f816115a8565b811461182a57600080fd5b5056fea26469706673582212208697ee399268508a372e2a96737f6871bcbc6c5d50cfec9403c71080c3483d9064736f6c63430008070033",
					"opcodes": "PUSH1 0x80 PUSH1 0x40 MSTORE CALLVALUE DUP1 ISZERO PUSH3 0x11 JUMPI PUSH1 0x0 DUP1 REVERT JUMPDEST POP CALLER PUSH1 0x0 DUP1 PUSH2 0x100 EXP DUP2 SLOAD DUP2 PUSH20 0xFFFFFFFFFFFFFFFFFFFFFFFFFFFFFFFFFFFFFFFF MUL NOT AND SWAP1 DUP4 PUSH20 0xFFFFFFFFFFFFFFFFFFFFFFFFFFFFFFFFFFFFFFFF AND MUL OR SWAP1 SSTORE POP PUSH3 0x62 PUSH3 0xA6 PUSH1 0x20 SHL PUSH1 0x20 SHR JUMP JUMPDEST PUSH3 0x72 PUSH3 0x364 PUSH1 0x20 SHL PUSH1 0x20 SHR JUMP JUMPDEST PUSH1 0x0 PUSH1 0xC PUSH1 0x0 PUSH2 0x100 EXP DUP2 SLOAD DUP2 PUSH1 0xFF MUL NOT AND SWAP1 DUP4 PUSH1 0x2 DUP2 GT ISZERO PUSH3 0x9B JUMPI PUSH3 0x9A PUSH3 0x847 JUMP JUMPDEST JUMPDEST MUL OR SWAP1 SSTORE POP PUSH3 0x8A5 JUMP JUMPDEST PUSH3 0xEC PUSH1 0x40 MLOAD DUP1 PUSH1 0x40 ADD PUSH1 0x40 MSTORE DUP1 PUSH1 0x11 DUP2 MSTORE PUSH1 0x20 ADD PUSH32 0x506F6C6C696E672053746174696F6E2031000000000000000000000000000000 DUP2 MSTORE POP PUSH3 0x4C4 PUSH1 0x20 SHL PUSH1 0x20 SHR JUMP JUMPDEST PUSH3 0x132 PUSH1 0x40 MLOAD DUP1 PUSH1 0x40 ADD PUSH1 0x40 MSTORE DUP1 PUSH1 0x11 DUP2 MSTORE PUSH1 0x20 ADD PUSH32 0x506F6C6C696E672053746174696F6E2032000000000000000000000000000000 DUP2 MSTORE POP PUSH3 0x4C4 PUSH1 0x20 SHL PUSH1 0x20 SHR JUMP JUMPDEST PUSH3 0x178 PUSH1 0x40 MLOAD DUP1 PUSH1 0x40 ADD PUSH1 0x40 MSTORE DUP1 PUSH1 0x11 DUP2 MSTORE PUSH1 0x20 ADD PUSH32 0x506F6C6C696E672053746174696F6E2033000000000000000000000000000000 DUP2 MSTORE POP PUSH3 0x4C4 PUSH1 0x20 SHL PUSH1 0x20 SHR JUMP JUMPDEST PUSH3 0x1BE PUSH1 0x40 MLOAD DUP1 PUSH1 0x40 ADD PUSH1 0x40 MSTORE DUP1 PUSH1 0x11 DUP2 MSTORE PUSH1 0x20 ADD PUSH32 0x506F6C6C696E672053746174696F6E2034000000000000000000000000000000 DUP2 MSTORE POP PUSH3 0x4C4 PUSH1 0x20 SHL PUSH1 0x20 SHR JUMP JUMPDEST PUSH3 0x204 PUSH1 0x40 MLOAD DUP1 PUSH1 0x40 ADD PUSH1 0x40 MSTORE DUP1 PUSH1 0x11 DUP2 MSTORE PUSH1 0x20 ADD PUSH32 0x506F6C6C696E672053746174696F6E2035000000000000000000000000000000 DUP2 MSTORE POP PUSH3 0x4C4 PUSH1 0x20 SHL PUSH1 0x20 SHR JUMP JUMPDEST PUSH3 0x24A PUSH1 0x40 MLOAD DUP1 PUSH1 0x40 ADD PUSH1 0x40 MSTORE DUP1 PUSH1 0x11 DUP2 MSTORE PUSH1 0x20 ADD PUSH32 0x506F6C6C696E672053746174696F6E2036000000000000000000000000000000 DUP2 MSTORE POP PUSH3 0x4C4 PUSH1 0x20 SHL PUSH1 0x20 SHR JUMP JUMPDEST PUSH3 0x290 PUSH1 0x40 MLOAD DUP1 PUSH1 0x40 ADD PUSH1 0x40 MSTORE DUP1 PUSH1 0x11 DUP2 MSTORE PUSH1 0x20 ADD PUSH32 0x506F6C6C696E672053746174696F6E2037000000000000000000000000000000 DUP2 MSTORE POP PUSH3 0x4C4 PUSH1 0x20 SHL PUSH1 0x20 SHR JUMP JUMPDEST PUSH3 0x2D6 PUSH1 0x40 MLOAD DUP1 PUSH1 0x40 ADD PUSH1 0x40 MSTORE DUP1 PUSH1 0x11 DUP2 MSTORE PUSH1 0x20 ADD PUSH32 0x506F6C6C696E672053746174696F6E2038000000000000000000000000000000 DUP2 MSTORE POP PUSH3 0x4C4 PUSH1 0x20 SHL PUSH1 0x20 SHR JUMP JUMPDEST PUSH3 0x31C PUSH1 0x40 MLOAD DUP1 PUSH1 0x40 ADD PUSH1 0x40 MSTORE DUP1 PUSH1 0x11 DUP2 MSTORE PUSH1 0x20 ADD PUSH32 0x506F6C6C696E672053746174696F6E2039000000000000000000000000000000 DUP2 MSTORE POP PUSH3 0x4C4 PUSH1 0x20 SHL PUSH1 0x20 SHR JUMP JUMPDEST PUSH3 0x362 PUSH1 0x40 MLOAD DUP1 PUSH1 0x40 ADD PUSH1 0x40 MSTORE DUP1 PUSH1 0x12 DUP2 MSTORE PUSH1 0x20 ADD PUSH32 0x506F6C6C696E672053746174696F6E2031300000000000000000000000000000 DUP2 MSTORE POP PUSH3 0x4C4 PUSH1 0x20 SHL PUSH1 0x20 SHR JUMP JUMPDEST JUMP JUMPDEST PUSH3 0x3AA PUSH1 0x40 MLOAD DUP1 PUSH1 0x40 ADD PUSH1 0x40 MSTORE DUP1 PUSH1 0xB DUP2 MSTORE PUSH1 0x20 ADD PUSH32 0x43616E6469646174652031000000000000000000000000000000000000000000 DUP2 MSTORE POP PUSH3 0x535 PUSH1 0x20 SHL PUSH1 0x20 SHR JUMP JUMPDEST PUSH3 0x3F0 PUSH1 0x40 MLOAD DUP1 PUSH1 0x40 ADD PUSH1 0x40 MSTORE DUP1 PUSH1 0xB DUP2 MSTORE PUSH1 0x20 ADD PUSH32 0x43616E6469646174652032000000000000000000000000000000000000000000 DUP2 MSTORE POP PUSH3 0x535 PUSH1 0x20 SHL PUSH1 0x20 SHR JUMP JUMPDEST PUSH3 0x436 PUSH1 0x40 MLOAD DUP1 PUSH1 0x40 ADD PUSH1 0x40 MSTORE DUP1 PUSH1 0xB DUP2 MSTORE PUSH1 0x20 ADD PUSH32 0x43616E6469646174652033000000000000000000000000000000000000000000 DUP2 MSTORE POP PUSH3 0x535 PUSH1 0x20 SHL PUSH1 0x20 SHR JUMP JUMPDEST PUSH3 0x47C PUSH1 0x40 MLOAD DUP1 PUSH1 0x40 ADD PUSH1 0x40 MSTORE DUP1 PUSH1 0xB DUP2 MSTORE PUSH1 0x20 ADD PUSH32 0x43616E6469646174652034000000000000000000000000000000000000000000 DUP2 MSTORE POP PUSH3 0x535 PUSH1 0x20 SHL PUSH1 0x20 SHR JUMP JUMPDEST PUSH3 0x4C2 PUSH1 0x40 MLOAD DUP1 PUSH1 0x40 ADD PUSH1 0x40 MSTORE DUP1 PUSH1 0xB DUP2 MSTORE PUSH1 0x20 ADD PUSH32 0x43616E6469646174652035000000000000000000000000000000000000000000 DUP2 MSTORE POP PUSH3 0x535 PUSH1 0x20 SHL PUSH1 0x20 SHR JUMP JUMPDEST JUMP JUMPDEST PUSH1 0x2 PUSH1 0x0 DUP2 SLOAD DUP1 SWAP3 SWAP2 SWAP1 PUSH3 0x4D9 SWAP1 PUSH3 0x7CA JUMP JUMPDEST SWAP2 SWAP1 POP SSTORE POP PUSH1 0x0 PUSH1 0x8 PUSH1 0x0 PUSH1 0x2 SLOAD DUP2 MSTORE PUSH1 0x20 ADD SWAP1 DUP2 MSTORE PUSH1 0x20 ADD PUSH1 0x0 KECCAK256 SWAP1 POP PUSH1 0x2 SLOAD DUP2 PUSH1 0x0 ADD DUP2 SWAP1 SSTORE POP DUP2 DUP2 PUSH1 0x1 ADD SWAP1 DUP1 MLOAD SWAP1 PUSH1 0x20 ADD SWAP1 PUSH3 0x51C SWAP3 SWAP2 SWAP1 PUSH3 0x6DA JUMP JUMPDEST POP PUSH1 0x0 DUP2 PUSH1 0x2 ADD DUP2 SWAP1 SSTORE POP PUSH1 0x0 DUP2 PUSH1 0x3 ADD DUP2 SWAP1 SSTORE POP POP POP JUMP JUMPDEST PUSH1 0x1 PUSH1 0x0 DUP2 SLOAD DUP1 SWAP3 SWAP2 SWAP1 PUSH3 0x54A SWAP1 PUSH3 0x7CA JUMP JUMPDEST SWAP2 SWAP1 POP SSTORE POP PUSH1 0x40 MLOAD DUP1 PUSH1 0x60 ADD PUSH1 0x40 MSTORE DUP1 PUSH1 0x1 SLOAD DUP2 MSTORE PUSH1 0x20 ADD DUP3 DUP2 MSTORE PUSH1 0x20 ADD PUSH1 0x0 DUP2 MSTORE POP PUSH1 0x6 PUSH1 0x0 PUSH1 0x1 SLOAD DUP2 MSTORE PUSH1 0x20 ADD SWAP1 DUP2 MSTORE PUSH1 0x20 ADD PUSH1 0x0 KECCAK256 PUSH1 0x0 DUP3 ADD MLOAD DUP2 PUSH1 0x0 ADD SSTORE PUSH1 0x20 DUP3 ADD MLOAD DUP2 PUSH1 0x1 ADD SWAP1 DUP1 MLOAD SWAP1 PUSH1 0x20 ADD SWAP1 PUSH3 0x5AA SWAP3 SWAP2 SWAP1 PUSH3 0x6DA JUMP JUMPDEST POP PUSH1 0x40 DUP3 ADD MLOAD DUP2 PUSH1 0x2 ADD SSTORE SWAP1 POP POP PUSH1 0x0 PUSH1 0x1 SWAP1 POP JUMPDEST PUSH1 0x2 SLOAD DUP2 GT PUSH3 0x6D6 JUMPI PUSH1 0x40 MLOAD DUP1 PUSH1 0x60 ADD PUSH1 0x40 MSTORE DUP1 PUSH1 0x1 SLOAD DUP2 MSTORE PUSH1 0x20 ADD DUP4 DUP2 MSTORE PUSH1 0x20 ADD PUSH1 0x0 DUP2 MSTORE POP PUSH1 0x8 PUSH1 0x0 DUP4 DUP2 MSTORE PUSH1 0x20 ADD SWAP1 DUP2 MSTORE PUSH1 0x20 ADD PUSH1 0x0 KECCAK256 PUSH1 0x4 ADD PUSH1 0x0 PUSH1 0x1 SLOAD DUP2 MSTORE PUSH1 0x20 ADD SWAP1 DUP2 MSTORE PUSH1 0x20 ADD PUSH1 0x0 KECCAK256 PUSH1 0x0 DUP3 ADD MLOAD DUP2 PUSH1 0x0 ADD SSTORE PUSH1 0x20 DUP3 ADD MLOAD DUP2 PUSH1 0x1 ADD SWAP1 DUP1 MLOAD SWAP1 PUSH1 0x20 ADD SWAP1 PUSH3 0x638 SWAP3 SWAP2 SWAP1 PUSH3 0x6DA JUMP JUMPDEST POP PUSH1 0x40 DUP3 ADD MLOAD DUP2 PUSH1 0x2 ADD SSTORE SWAP1 POP POP PUSH1 0x40 MLOAD DUP1 PUSH1 0x60 ADD PUSH1 0x40 MSTORE DUP1 PUSH1 0x1 SLOAD DUP2 MSTORE PUSH1 0x20 ADD DUP4 DUP2 MSTORE PUSH1 0x20 ADD PUSH1 0x0 DUP2 MSTORE POP PUSH1 0xB PUSH1 0x0 DUP4 DUP2 MSTORE PUSH1 0x20 ADD SWAP1 DUP2 MSTORE PUSH1 0x20 ADD PUSH1 0x0 KECCAK256 PUSH1 0x0 PUSH1 0x1 SLOAD DUP2 MSTORE PUSH1 0x20 ADD SWAP1 DUP2 MSTORE PUSH1 0x20 ADD PUSH1 0x0 KECCAK256 PUSH1 0x0 DUP3 ADD MLOAD DUP2 PUSH1 0x0 ADD SSTORE PUSH1 0x20 DUP3 ADD MLOAD DUP2 PUSH1 0x1 ADD SWAP1 DUP1 MLOAD SWAP1 PUSH1 0x20 ADD SWAP1 PUSH3 0x6B2 SWAP3 SWAP2 SWAP1 PUSH3 0x6DA JUMP JUMPDEST POP PUSH1 0x40 DUP3 ADD MLOAD DUP2 PUSH1 0x2 ADD SSTORE SWAP1 POP POP DUP1 DUP1 PUSH3 0x6CD SWAP1 PUSH3 0x7CA JUMP JUMPDEST SWAP2 POP POP PUSH3 0x5BF JUMP JUMPDEST POP POP JUMP JUMPDEST DUP3 DUP1 SLOAD PUSH3 0x6E8 SWAP1 PUSH3 0x794 JUMP JUMPDEST SWAP1 PUSH1 0x0 MSTORE PUSH1 0x20 PUSH1 0x0 KECCAK256 SWAP1 PUSH1 0x1F ADD PUSH1 0x20 SWAP1 DIV DUP2 ADD SWAP3 DUP3 PUSH3 0x70C JUMPI PUSH1 0x0 DUP6 SSTORE PUSH3 0x758 JUMP JUMPDEST DUP3 PUSH1 0x1F LT PUSH3 0x727 JUMPI DUP1 MLOAD PUSH1 0xFF NOT AND DUP4 DUP1 ADD OR DUP6 SSTORE PUSH3 0x758 JUMP JUMPDEST DUP3 DUP1 ADD PUSH1 0x1 ADD DUP6 SSTORE DUP3 ISZERO PUSH3 0x758 JUMPI SWAP2 DUP3 ADD JUMPDEST DUP3 DUP2 GT ISZERO PUSH3 0x757 JUMPI DUP3 MLOAD DUP3 SSTORE SWAP2 PUSH1 0x20 ADD SWAP2 SWAP1 PUSH1 0x1 ADD SWAP1 PUSH3 0x73A JUMP JUMPDEST JUMPDEST POP SWAP1 POP PUSH3 0x767 SWAP2 SWAP1 PUSH3 0x76B JUMP JUMPDEST POP SWAP1 JUMP JUMPDEST JUMPDEST DUP1 DUP3 GT ISZERO PUSH3 0x786 JUMPI PUSH1 0x0 DUP2 PUSH1 0x0 SWAP1 SSTORE POP PUSH1 0x1 ADD PUSH3 0x76C JUMP JUMPDEST POP SWAP1 JUMP JUMPDEST PUSH1 0x0 DUP2 SWAP1 POP SWAP2 SWAP1 POP JUMP JUMPDEST PUSH1 0x0 PUSH1 0x2 DUP3 DIV SWAP1 POP PUSH1 0x1 DUP3 AND DUP1 PUSH3 0x7AD JUMPI PUSH1 0x7F DUP3 AND SWAP2 POP JUMPDEST PUSH1 0x20 DUP3 LT DUP2 EQ ISZERO PUSH3 0x7C4 JUMPI PUSH3 0x7C3 PUSH3 0x876 JUMP JUMPDEST JUMPDEST POP SWAP2 SWAP1 POP JUMP JUMPDEST PUSH1 0x0 PUSH3 0x7D7 DUP3 PUSH3 0x78A JUMP JUMPDEST SWAP2 POP PUSH32 0xFFFFFFFFFFFFFFFFFFFFFFFFFFFFFFFFFFFFFFFFFFFFFFFFFFFFFFFFFFFFFFFF DUP3 EQ ISZERO PUSH3 0x80D JUMPI PUSH3 0x80C PUSH3 0x818 JUMP JUMPDEST JUMPDEST PUSH1 0x1 DUP3 ADD SWAP1 POP SWAP2 SWAP1 POP JUMP JUMPDEST PUSH32 0x4E487B7100000000000000000000000000000000000000000000000000000000 PUSH1 0x0 MSTORE PUSH1 0x11 PUSH1 0x4 MSTORE PUSH1 0x24 PUSH1 0x0 REVERT JUMPDEST PUSH32 0x4E487B7100000000000000000000000000000000000000000000000000000000 PUSH1 0x0 MSTORE PUSH1 0x21 PUSH1 0x4 MSTORE PUSH1 0x24 PUSH1 0x0 REVERT JUMPDEST PUSH32 0x4E487B7100000000000000000000000000000000000000000000000000000000 PUSH1 0x0 MSTORE PUSH1 0x22 PUSH1 0x4 MSTORE PUSH1 0x24 PUSH1 0x0 REVERT JUMPDEST PUSH2 0x1863 DUP1 PUSH3 0x8B5 PUSH1 0x0 CODECOPY PUSH1 0x0 RETURN INVALID PUSH1 0x80 PUSH1 0x40 MSTORE CALLVALUE DUP1 ISZERO PUSH2 0x10 JUMPI PUSH1 0x0 DUP1 REVERT JUMPDEST POP PUSH1 0x4 CALLDATASIZE LT PUSH2 0x10A JUMPI PUSH1 0x0 CALLDATALOAD PUSH1 0xE0 SHR DUP1 PUSH4 0x91F36633 GT PUSH2 0xA2 JUMPI DUP1 PUSH4 0xC19D93FB GT PUSH2 0x71 JUMPI DUP1 PUSH4 0xC19D93FB EQ PUSH2 0x2BF JUMPI DUP1 PUSH4 0xD3808AE0 EQ PUSH2 0x2DD JUMPI DUP1 PUSH4 0xDF9F1A07 EQ PUSH2 0x30D JUMPI DUP1 PUSH4 0xF3A8286F EQ PUSH2 0x32B JUMPI DUP1 PUSH4 0xFE2442D7 EQ PUSH2 0x349 JUMPI PUSH2 0x10A JUMP JUMPDEST DUP1 PUSH4 0x91F36633 EQ PUSH2 0x239 JUMPI DUP1 PUSH4 0xA3EC138D EQ PUSH2 0x269 JUMPI DUP1 PUSH4 0xB9223946 EQ PUSH2 0x299 JUMPI DUP1 PUSH4 0xB9F05F2F EQ PUSH2 0x2A3 JUMPI PUSH2 0x10A JUMP JUMPDEST DUP1 PUSH4 0x3477EE2E GT PUSH2 0xDE JUMPI DUP1 PUSH4 0x3477EE2E EQ PUSH2 0x1AB JUMPI DUP1 PUSH4 0x4763D4E7 EQ PUSH2 0x1DD JUMPI DUP1 PUSH4 0x4C0A6AF0 EQ PUSH2 0x211 JUMPI DUP1 PUSH4 0x53357AD0 EQ PUSH2 0x21B JUMPI PUSH2 0x10A JUMP JUMPDEST DUP1 PUSH3 0xAA7464 EQ PUSH2 0x10F JUMPI DUP1 PUSH4 0x23A1B11C EQ PUSH2 0x12D JUMPI DUP1 PUSH4 0x2C0A3F89 EQ PUSH2 0x15D JUMPI DUP1 PUSH4 0x2D35A8A2 EQ PUSH2 0x18D JUMPI JUMPDEST PUSH1 0x0 DUP1 REVERT JUMPDEST PUSH2 0x117 PUSH2 0x37C JUMP JUMPDEST PUSH1 0x40 MLOAD PUSH2 0x124 SWAP2 SWAP1 PUSH2 0x13F6 JUMP JUMPDEST PUSH1 0x40 MLOAD DUP1 SWAP2 SUB SWAP1 RETURN JUMPDEST PUSH2 0x147 PUSH1 0x4 DUP1 CALLDATASIZE SUB DUP2 ADD SWAP1 PUSH2 0x142 SWAP2 SWAP1 PUSH2 0x1061 JUMP JUMPDEST PUSH2 0x382 JUMP JUMPDEST PUSH1 0x40 MLOAD PUSH2 0x154 SWAP2 SWAP1 PUSH2 0x12B2 JUMP JUMPDEST PUSH1 0x40 MLOAD DUP1 SWAP2 SUB SWAP1 RETURN JUMPDEST PUSH2 0x177 PUSH1 0x4 DUP1 CALLDATASIZE SUB DUP2 ADD SWAP1 PUSH2 0x172 SWAP2 SWAP1 PUSH2 0x108E JUMP JUMPDEST PUSH2 0x429 JUMP JUMPDEST PUSH1 0x40 MLOAD PUSH2 0x184 SWAP2 SWAP1 PUSH2 0x12D4 JUMP JUMPDEST PUSH1 0x40 MLOAD DUP1 SWAP2 SUB SWAP1 RETURN JUMPDEST PUSH2 0x195 PUSH2 0x796 JUMP JUMPDEST PUSH1 0x40 MLOAD PUSH2 0x1A2 SWAP2 SWAP1 PUSH2 0x13F6 JUMP JUMPDEST PUSH1 0x40 MLOAD DUP1 SWAP2 SUB SWAP1 RETURN JUMPDEST PUSH2 0x1C5 PUSH1 0x4 DUP1 CALLDATASIZE SUB DUP2 ADD SWAP1 PUSH2 0x1C0 SWAP2 SWAP1 PUSH2 0x1061 JUMP JUMPDEST PUSH2 0x79C JUMP JUMPDEST PUSH1 0x40 MLOAD PUSH2 0x1D4 SWAP4 SWAP3 SWAP2 SWAP1 PUSH2 0x1411 JUMP JUMPDEST PUSH1 0x40 MLOAD DUP1 SWAP2 SUB SWAP1 RETURN JUMPDEST PUSH2 0x1F7 PUSH1 0x4 DUP1 CALLDATASIZE SUB DUP2 ADD SWAP1 PUSH2 0x1F2 SWAP2 SWAP1 PUSH2 0xFF4 JUMP JUMPDEST PUSH2 0x84E JUMP JUMPDEST PUSH1 0x40 MLOAD PUSH2 0x208 SWAP6 SWAP5 SWAP4 SWAP3 SWAP2 SWAP1 PUSH2 0x12EF JUMP JUMPDEST PUSH1 0x40 MLOAD DUP1 SWAP2 SUB SWAP1 RETURN JUMPDEST PUSH2 0x219 PUSH2 0x89E JUMP JUMPDEST STOP JUMPDEST PUSH2 0x223 PUSH2 0x965 JUMP JUMPDEST PUSH1 0x40 MLOAD PUSH2 0x230 SWAP2 SWAP1 PUSH2 0x1297 JUMP JUMPDEST PUSH1 0x40 MLOAD DUP1 SWAP2 SUB SWAP1 RETURN JUMPDEST PUSH2 0x253 PUSH1 0x4 DUP1 CALLDATASIZE SUB DUP2 ADD SWAP1 PUSH2 0x24E SWAP2 SWAP1 PUSH2 0x108E JUMP JUMPDEST PUSH2 0x989 JUMP JUMPDEST PUSH1 0x40 MLOAD PUSH2 0x260 SWAP2 SWAP1 PUSH2 0x13F6 JUMP JUMPDEST PUSH1 0x40 MLOAD DUP1 SWAP2 SUB SWAP1 RETURN JUMPDEST PUSH2 0x283 PUSH1 0x4 DUP1 CALLDATASIZE SUB DUP2 ADD SWAP1 PUSH2 0x27E SWAP2 SWAP1 PUSH2 0xFF4 JUMP JUMPDEST PUSH2 0x9BE JUMP JUMPDEST PUSH1 0x40 MLOAD PUSH2 0x290 SWAP2 SWAP1 PUSH2 0x12D4 JUMP JUMPDEST PUSH1 0x40 MLOAD DUP1 SWAP2 SUB SWAP1 RETURN JUMPDEST PUSH2 0x2A1 PUSH2 0x9DE JUMP JUMPDEST STOP JUMPDEST PUSH2 0x2BD PUSH1 0x4 DUP1 CALLDATASIZE SUB DUP2 ADD SWAP1 PUSH2 0x2B8 SWAP2 SWAP1 PUSH2 0x1021 JUMP JUMPDEST PUSH2 0xAAE JUMP JUMPDEST STOP JUMPDEST PUSH2 0x2C7 PUSH2 0xD41 JUMP JUMPDEST PUSH1 0x40 MLOAD PUSH2 0x2D4 SWAP2 SWAP1 PUSH2 0x1379 JUMP JUMPDEST PUSH1 0x40 MLOAD DUP1 SWAP2 SUB SWAP1 RETURN JUMPDEST PUSH2 0x2F7 PUSH1 0x4 DUP1 CALLDATASIZE SUB DUP2 ADD SWAP1 PUSH2 0x2F2 SWAP2 SWAP1 PUSH2 0x108E JUMP JUMPDEST PUSH2 0xD54 JUMP JUMPDEST PUSH1 0x40 MLOAD PUSH2 0x304 SWAP2 SWAP1 PUSH2 0x13D4 JUMP JUMPDEST PUSH1 0x40 MLOAD DUP1 SWAP2 SUB SWAP1 RETURN JUMPDEST PUSH2 0x315 PUSH2 0xE3C JUMP JUMPDEST PUSH1 0x40 MLOAD PUSH2 0x322 SWAP2 SWAP1 PUSH2 0x13F6 JUMP JUMPDEST PUSH1 0x40 MLOAD DUP1 SWAP2 SUB SWAP1 RETURN JUMPDEST PUSH2 0x333 PUSH2 0xE42 JUMP JUMPDEST PUSH1 0x40 MLOAD PUSH2 0x340 SWAP2 SWAP1 PUSH2 0x13F6 JUMP JUMPDEST PUSH1 0x40 MLOAD DUP1 SWAP2 SUB SWAP1 RETURN JUMPDEST PUSH2 0x363 PUSH1 0x4 DUP1 CALLDATASIZE SUB DUP2 ADD SWAP1 PUSH2 0x35E SWAP2 SWAP1 PUSH2 0x1061 JUMP JUMPDEST PUSH2 0xE48 JUMP JUMPDEST PUSH1 0x40 MLOAD PUSH2 0x373 SWAP5 SWAP4 SWAP3 SWAP2 SWAP1 PUSH2 0x144F JUMP JUMPDEST PUSH1 0x40 MLOAD DUP1 SWAP2 SUB SWAP1 RETURN JUMPDEST PUSH1 0x3 SLOAD DUP2 JUMP JUMPDEST PUSH1 0x60 PUSH1 0x0 PUSH1 0x1 SLOAD PUSH8 0xFFFFFFFFFFFFFFFF DUP2 GT ISZERO PUSH2 0x3A2 JUMPI PUSH2 0x3A1 PUSH2 0x172E JUMP JUMPDEST JUMPDEST PUSH1 0x40 MLOAD SWAP1 DUP1 DUP3 MSTORE DUP1 PUSH1 0x20 MUL PUSH1 0x20 ADD DUP3 ADD PUSH1 0x40 MSTORE DUP1 ISZERO PUSH2 0x3D0 JUMPI DUP2 PUSH1 0x20 ADD PUSH1 0x20 DUP3 MUL DUP1 CALLDATASIZE DUP4 CALLDATACOPY DUP1 DUP3 ADD SWAP2 POP POP SWAP1 POP JUMPDEST POP SWAP1 POP PUSH1 0x0 PUSH1 0x1 SWAP1 POP JUMPDEST PUSH1 0x1 SLOAD DUP2 GT PUSH2 0x41F JUMPI PUSH2 0x3ED DUP5 DUP3 PUSH2 0x989 JUMP JUMPDEST DUP3 DUP3 DUP2 MLOAD DUP2 LT PUSH2 0x400 JUMPI PUSH2 0x3FF PUSH2 0x16FF JUMP JUMPDEST JUMPDEST PUSH1 0x20 MUL PUSH1 0x20 ADD ADD DUP2 DUP2 MSTORE POP POP DUP1 DUP1 PUSH2 0x417 SWAP1 PUSH2 0x1629 JUMP JUMPDEST SWAP2 POP POP PUSH2 0x3DA JUMP JUMPDEST POP DUP1 SWAP2 POP POP SWAP2 SWAP1 POP JUMP JUMPDEST PUSH1 0x0 PUSH1 0x1 DUP1 PUSH1 0x2 DUP2 GT ISZERO PUSH2 0x440 JUMPI PUSH2 0x43F PUSH2 0x16A1 JUMP JUMPDEST JUMPDEST PUSH1 0xC PUSH1 0x0 SWAP1 SLOAD SWAP1 PUSH2 0x100 EXP SWAP1 DIV PUSH1 0xFF AND PUSH1 0x2 DUP2 GT ISZERO PUSH2 0x462 JUMPI PUSH2 0x461 PUSH2 0x16A1 JUMP JUMPDEST JUMPDEST EQ PUSH2 0x46C JUMPI PUSH1 0x0 DUP1 REVERT JUMPDEST PUSH1 0x0 PUSH1 0x9 PUSH1 0x0 CALLER PUSH20 0xFFFFFFFFFFFFFFFFFFFFFFFFFFFFFFFFFFFFFFFF AND PUSH20 0xFFFFFFFFFFFFFFFFFFFFFFFFFFFFFFFFFFFFFFFF AND DUP2 MSTORE PUSH1 0x20 ADD SWAP1 DUP2 MSTORE PUSH1 0x20 ADD PUSH1 0x0 KECCAK256 PUSH1 0x0 ADD PUSH1 0x0 SWAP1 SLOAD SWAP1 PUSH2 0x100 EXP SWAP1 DIV PUSH1 0xFF AND DUP1 ISZERO PUSH2 0x517 JUMPI POP PUSH1 0x9 PUSH1 0x0 CALLER PUSH20 0xFFFFFFFFFFFFFFFFFFFFFFFFFFFFFFFFFFFFFFFF AND PUSH20 0xFFFFFFFFFFFFFFFFFFFFFFFFFFFFFFFFFFFFFFFF AND DUP2 MSTORE PUSH1 0x20 ADD SWAP1 DUP2 MSTORE PUSH1 0x20 ADD PUSH1 0x0 KECCAK256 PUSH1 0x0 ADD PUSH1 0x1 SWAP1 SLOAD SWAP1 PUSH2 0x100 EXP SWAP1 DIV PUSH1 0xFF AND ISZERO JUMPDEST ISZERO PUSH2 0x78B JUMPI DUP5 PUSH1 0x9 PUSH1 0x0 CALLER PUSH20 0xFFFFFFFFFFFFFFFFFFFFFFFFFFFFFFFFFFFFFFFF AND PUSH20 0xFFFFFFFFFFFFFFFFFFFFFFFFFFFFFFFFFFFFFFFF AND DUP2 MSTORE PUSH1 0x20 ADD SWAP1 DUP2 MSTORE PUSH1 0x20 ADD PUSH1 0x0 KECCAK256 PUSH1 0x1 ADD DUP2 SWAP1 SSTORE POP DUP4 PUSH1 0x9 PUSH1 0x0 CALLER PUSH20 0xFFFFFFFFFFFFFFFFFFFFFFFFFFFFFFFFFFFFFFFF AND PUSH20 0xFFFFFFFFFFFFFFFFFFFFFFFFFFFFFFFFFFFFFFFF AND DUP2 MSTORE PUSH1 0x20 ADD SWAP1 DUP2 MSTORE PUSH1 0x20 ADD PUSH1 0x0 KECCAK256 PUSH1 0x3 ADD DUP2 SWAP1 SSTORE POP PUSH1 0x1 PUSH1 0x9 PUSH1 0x0 CALLER PUSH20 0xFFFFFFFFFFFFFFFFFFFFFFFFFFFFFFFFFFFFFFFF AND PUSH20 0xFFFFFFFFFFFFFFFFFFFFFFFFFFFFFFFFFFFFFFFF AND DUP2 MSTORE PUSH1 0x20 ADD SWAP1 DUP2 MSTORE PUSH1 0x20 ADD PUSH1 0x0 KECCAK256 PUSH1 0x0 ADD PUSH1 0x1 PUSH2 0x100 EXP DUP2 SLOAD DUP2 PUSH1 0xFF MUL NOT AND SWAP1 DUP4 ISZERO ISZERO MUL OR SWAP1 SSTORE POP PUSH1 0x8 PUSH1 0x0 DUP6 DUP2 MSTORE PUSH1 0x20 ADD SWAP1 DUP2 MSTORE PUSH1 0x20 ADD PUSH1 0x0 KECCAK256 PUSH1 0x3 ADD PUSH1 0x0 DUP2 SLOAD DUP1 SWAP3 SWAP2 SWAP1 PUSH2 0x62C SWAP1 PUSH2 0x1629 JUMP JUMPDEST SWAP2 SWAP1 POP SSTORE POP PUSH1 0x6 PUSH1 0x0 DUP7 DUP2 MSTORE PUSH1 0x20 ADD SWAP1 DUP2 MSTORE PUSH1 0x20 ADD PUSH1 0x0 KECCAK256 PUSH1 0x2 ADD PUSH1 0x0 DUP2 SLOAD DUP1 SWAP3 SWAP2 SWAP1 PUSH2 0x658 SWAP1 PUSH2 0x1629 JUMP JUMPDEST SWAP2 SWAP1 POP SSTORE POP PUSH1 0x4 PUSH1 0x0 DUP2 SLOAD DUP1 SWAP3 SWAP2 SWAP1 PUSH2 0x670 SWAP1 PUSH2 0x1629 JUMP JUMPDEST SWAP2 SWAP1 POP SSTORE POP PUSH1 0x1 SWAP1 POP DUP1 PUSH1 0xA PUSH1 0x0 CALLER PUSH20 0xFFFFFFFFFFFFFFFFFFFFFFFFFFFFFFFFFFFFFFFF AND PUSH20 0xFFFFFFFFFFFFFFFFFFFFFFFFFFFFFFFFFFFFFFFF AND DUP2 MSTORE PUSH1 0x20 ADD SWAP1 DUP2 MSTORE PUSH1 0x20 ADD PUSH1 0x0 KECCAK256 PUSH1 0x0 PUSH2 0x100 EXP DUP2 SLOAD DUP2 PUSH1 0xFF MUL NOT AND SWAP1 DUP4 ISZERO ISZERO MUL OR SWAP1 SSTORE POP PUSH1 0x1 PUSH1 0x8 PUSH1 0x0 DUP7 DUP2 MSTORE PUSH1 0x20 ADD SWAP1 DUP2 MSTORE PUSH1 0x20 ADD PUSH1 0x0 KECCAK256 PUSH1 0x4 ADD PUSH1 0x0 DUP8 DUP2 MSTORE PUSH1 0x20 ADD SWAP1 DUP2 MSTORE PUSH1 0x20 ADD PUSH1 0x0 KECCAK256 PUSH1 0x2 ADD PUSH1 0x0 DUP3 DUP3 SLOAD PUSH2 0x70B SWAP2 SWAP1 PUSH2 0x1501 JUMP JUMPDEST SWAP3 POP POP DUP2 SWAP1 SSTORE POP PUSH1 0xB PUSH1 0x0 DUP6 DUP2 MSTORE PUSH1 0x20 ADD SWAP1 DUP2 MSTORE PUSH1 0x20 ADD PUSH1 0x0 KECCAK256 PUSH1 0x0 DUP7 DUP2 MSTORE PUSH1 0x20 ADD SWAP1 DUP2 MSTORE PUSH1 0x20 ADD PUSH1 0x0 KECCAK256 PUSH1 0x2 ADD PUSH1 0x0 DUP2 SLOAD DUP1 SWAP3 SWAP2 SWAP1 PUSH2 0x74A SWAP1 PUSH2 0x1629 JUMP JUMPDEST SWAP2 SWAP1 POP SSTORE POP PUSH32 0x29A25B3D0B6FF7E5DE2A60A2E8E76D1BDAF4894EC18C598CC1687213F442C5CB DUP2 DUP7 DUP7 PUSH1 0x40 MLOAD PUSH2 0x782 SWAP4 SWAP3 SWAP2 SWAP1 PUSH2 0x1342 JUMP JUMPDEST PUSH1 0x40 MLOAD DUP1 SWAP2 SUB SWAP1 LOG1 JUMPDEST DUP1 SWAP3 POP POP POP SWAP3 SWAP2 POP POP JUMP JUMPDEST PUSH1 0x1 SLOAD DUP2 JUMP JUMPDEST PUSH1 0x6 PUSH1 0x20 MSTORE DUP1 PUSH1 0x0 MSTORE PUSH1 0x40 PUSH1 0x0 KECCAK256 PUSH1 0x0 SWAP2 POP SWAP1 POP DUP1 PUSH1 0x0 ADD SLOAD SWAP1 DUP1 PUSH1 0x1 ADD DUP1 SLOAD PUSH2 0x7C5 SWAP1 PUSH2 0x15F7 JUMP JUMPDEST DUP1 PUSH1 0x1F ADD PUSH1 0x20 DUP1 SWAP2 DIV MUL PUSH1 0x20 ADD PUSH1 0x40 MLOAD SWAP1 DUP2 ADD PUSH1 0x40 MSTORE DUP1 SWAP3 SWAP2 SWAP1 DUP2 DUP2 MSTORE PUSH1 0x20 ADD DUP3 DUP1 SLOAD PUSH2 0x7F1 SWAP1 PUSH2 0x15F7 JUMP JUMPDEST DUP1 ISZERO PUSH2 0x83E JUMPI DUP1 PUSH1 0x1F LT PUSH2 0x813 JUMPI PUSH2 0x100 DUP1 DUP4 SLOAD DIV MUL DUP4 MSTORE SWAP2 PUSH1 0x20 ADD SWAP2 PUSH2 0x83E JUMP JUMPDEST DUP3 ADD SWAP2 SWAP1 PUSH1 0x0 MSTORE PUSH1 0x20 PUSH1 0x0 KECCAK256 SWAP1 JUMPDEST DUP2 SLOAD DUP2 MSTORE SWAP1 PUSH1 0x1 ADD SWAP1 PUSH1 0x20 ADD DUP1 DUP4 GT PUSH2 0x821 JUMPI DUP3 SWAP1 SUB PUSH1 0x1F AND DUP3 ADD SWAP2 JUMPDEST POP POP POP POP POP SWAP1 DUP1 PUSH1 0x2 ADD SLOAD SWAP1 POP DUP4 JUMP JUMPDEST PUSH1 0x9 PUSH1 0x20 MSTORE DUP1 PUSH1 0x0 MSTORE PUSH1 0x40 PUSH1 0x0 KECCAK256 PUSH1 0x0 SWAP2 POP SWAP1 POP DUP1 PUSH1 0x0 ADD PUSH1 0x0 SWAP1 SLOAD SWAP1 PUSH2 0x100 EXP SWAP1 DIV PUSH1 0xFF AND SWAP1 DUP1 PUSH1 0x0 ADD PUSH1 0x1 SWAP1 SLOAD SWAP1 PUSH2 0x100 EXP SWAP1 DIV PUSH1 0xFF AND SWAP1 DUP1 PUSH1 0x1 ADD SLOAD SWAP1 DUP1 PUSH1 0x2 ADD SLOAD SWAP1 DUP1 PUSH1 0x3 ADD SLOAD SWAP1 POP DUP6 JUMP JUMPDEST PUSH1 0x0 DUP1 PUSH1 0x2 DUP2 GT ISZERO PUSH2 0x8B3 JUMPI PUSH2 0x8B2 PUSH2 0x16A1 JUMP JUMPDEST JUMPDEST PUSH1 0xC PUSH1 0x0 SWAP1 SLOAD SWAP1 PUSH2 0x100 EXP SWAP1 DIV PUSH1 0xFF AND PUSH1 0x2 DUP2 GT ISZERO PUSH2 0x8D5 JUMPI PUSH2 0x8D4 PUSH2 0x16A1 JUMP JUMPDEST JUMPDEST EQ PUSH2 0x8DF JUMPI PUSH1 0x0 DUP1 REVERT JUMPDEST PUSH1 0x0 DUP1 SLOAD SWAP1 PUSH2 0x100 EXP SWAP1 DIV PUSH20 0xFFFFFFFFFFFFFFFFFFFFFFFFFFFFFFFFFFFFFFFF AND PUSH20 0xFFFFFFFFFFFFFFFFFFFFFFFFFFFFFFFFFFFFFFFF AND CALLER PUSH20 0xFFFFFFFFFFFFFFFFFFFFFFFFFFFFFFFFFFFFFFFF AND EQ PUSH2 0x937 JUMPI PUSH1 0x0 DUP1 REVERT JUMPDEST PUSH1 0x1 PUSH1 0xC PUSH1 0x0 PUSH2 0x100 EXP DUP2 SLOAD DUP2 PUSH1 0xFF MUL NOT AND SWAP1 DUP4 PUSH1 0x2 DUP2 GT ISZERO PUSH2 0x95D JUMPI PUSH2 0x95C PUSH2 0x16A1 JUMP JUMPDEST JUMPDEST MUL OR SWAP1 SSTORE POP POP JUMP JUMPDEST PUSH1 0x0 DUP1 SLOAD SWAP1 PUSH2 0x100 EXP SWAP1 DIV PUSH20 0xFFFFFFFFFFFFFFFFFFFFFFFFFFFFFFFFFFFFFFFF AND DUP2 JUMP JUMPDEST PUSH1 0x0 PUSH1 0x8 PUSH1 0x0 DUP5 DUP2 MSTORE PUSH1 0x20 ADD SWAP1 DUP2 MSTORE PUSH1 0x20 ADD PUSH1 0x0 KECCAK256 PUSH1 0x4 ADD PUSH1 0x0 DUP4 DUP2 MSTORE PUSH1 0x20 ADD SWAP1 DUP2 MSTORE PUSH1 0x20 ADD PUSH1 0x0 KECCAK256 PUSH1 0x2 ADD SLOAD SWAP1 POP SWAP3 SWAP2 POP POP JUMP JUMPDEST PUSH1 0xA PUSH1 0x20 MSTORE DUP1 PUSH1 0x0 MSTORE PUSH1 0x40 PUSH1 0x0 KECCAK256 PUSH1 0x0 SWAP2 POP SLOAD SWAP1 PUSH2 0x100 EXP SWAP1 DIV PUSH1 0xFF AND DUP2 JUMP JUMPDEST PUSH1 0x1 DUP1 PUSH1 0x2 DUP2 GT ISZERO PUSH2 0x9F3 JUMPI PUSH2 0x9F2 PUSH2 0x16A1 JUMP JUMPDEST JUMPDEST PUSH1 0xC PUSH1 0x0 SWAP1 SLOAD SWAP1 PUSH2 0x100 EXP SWAP1 DIV PUSH1 0xFF AND PUSH1 0x2 DUP2 GT ISZERO PUSH2 0xA15 JUMPI PUSH2 0xA14 PUSH2 0x16A1 JUMP JUMPDEST JUMPDEST EQ PUSH2 0xA1F JUMPI PUSH1 0x0 DUP1 REVERT JUMPDEST PUSH1 0x0 DUP1 SLOAD SWAP1 PUSH2 0x100 EXP SWAP1 DIV PUSH20 0xFFFFFFFFFFFFFFFFFFFFFFFFFFFFFFFFFFFFFFFF AND PUSH20 0xFFFFFFFFFFFFFFFFFFFFFFFFFFFFFFFFFFFFFFFF AND CALLER PUSH20 0xFFFFFFFFFFFFFFFFFFFFFFFFFFFFFFFFFFFFFFFF AND EQ PUSH2 0xA77 JUMPI PUSH1 0x0 DUP1 REVERT JUMPDEST PUSH1 0x2 PUSH1 0xC PUSH1 0x0 PUSH2 0x100 EXP DUP2 SLOAD DUP2 PUSH1 0xFF MUL NOT AND SWAP1 DUP4 PUSH1 0x2 DUP2 GT ISZERO PUSH2 0xA9D JUMPI PUSH2 0xA9C PUSH2 0x16A1 JUMP JUMPDEST JUMPDEST MUL OR SWAP1 SSTORE POP PUSH1 0x4 SLOAD PUSH1 0x5 DUP2 SWAP1 SSTORE POP POP JUMP JUMPDEST PUSH1 0x0 DUP1 PUSH1 0x2 DUP2 GT ISZERO PUSH2 0xAC3 JUMPI PUSH2 0xAC2 PUSH2 0x16A1 JUMP JUMPDEST JUMPDEST PUSH1 0xC PUSH1 0x0 SWAP1 SLOAD SWAP1 PUSH2 0x100 EXP SWAP1 DIV PUSH1 0xFF AND PUSH1 0x2 DUP2 GT ISZERO PUSH2 0xAE5 JUMPI PUSH2 0xAE4 PUSH2 0x16A1 JUMP JUMPDEST JUMPDEST EQ PUSH2 0xAEF JUMPI PUSH1 0x0 DUP1 REVERT JUMPDEST PUSH1 0x0 DUP1 SLOAD SWAP1 PUSH2 0x100 EXP SWAP1 DIV PUSH20 0xFFFFFFFFFFFFFFFFFFFFFFFFFFFFFFFFFFFFFFFF AND PUSH20 0xFFFFFFFFFFFFFFFFFFFFFFFFFFFFFFFFFFFFFFFF AND CALLER PUSH20 0xFFFFFFFFFFFFFFFFFFFFFFFFFFFFFFFFFFFFFFFF AND EQ PUSH2 0xB47 JUMPI PUSH1 0x0 DUP1 REVERT JUMPDEST PUSH1 0x0 ISZERO ISZERO PUSH1 0x9 PUSH1 0x0 DUP6 PUSH20 0xFFFFFFFFFFFFFFFFFFFFFFFFFFFFFFFFFFFFFFFF AND PUSH20 0xFFFFFFFFFFFFFFFFFFFFFFFFFFFFFFFFFFFFFFFF AND DUP2 MSTORE PUSH1 0x20 ADD SWAP1 DUP2 MSTORE PUSH1 0x20 ADD PUSH1 0x0 KECCAK256 PUSH1 0x0 ADD PUSH1 0x0 SWAP1 SLOAD SWAP1 PUSH2 0x100 EXP SWAP1 DIV PUSH1 0xFF AND ISZERO ISZERO EQ PUSH2 0xBDD JUMPI PUSH1 0x40 MLOAD PUSH32 0x8C379A000000000000000000000000000000000000000000000000000000000 DUP2 MSTORE PUSH1 0x4 ADD PUSH2 0xBD4 SWAP1 PUSH2 0x13B4 JUMP JUMPDEST PUSH1 0x40 MLOAD DUP1 SWAP2 SUB SWAP1 REVERT JUMPDEST PUSH1 0x1 DUP3 LT ISZERO DUP1 ISZERO PUSH2 0xBF0 JUMPI POP PUSH1 0x2 SLOAD DUP3 GT ISZERO JUMPDEST PUSH2 0xC2F JUMPI PUSH1 0x40 MLOAD PUSH32 0x8C379A000000000000000000000000000000000000000000000000000000000 DUP2 MSTORE PUSH1 0x4 ADD PUSH2 0xC26 SWAP1 PUSH2 0x1394 JUMP JUMPDEST PUSH1 0x40 MLOAD DUP1 SWAP2 SUB SWAP1 REVERT JUMPDEST PUSH2 0xC37 PUSH2 0xF76 JUMP JUMPDEST PUSH1 0x1 DUP2 PUSH1 0x0 ADD SWAP1 ISZERO ISZERO SWAP1 DUP2 ISZERO ISZERO DUP2 MSTORE POP POP PUSH1 0x0 DUP2 PUSH1 0x20 ADD SWAP1 ISZERO ISZERO SWAP1 DUP2 ISZERO ISZERO DUP2 MSTORE POP POP PUSH1 0x0 DUP2 PUSH1 0x40 ADD DUP2 DUP2 MSTORE POP POP DUP3 DUP2 PUSH1 0x60 ADD DUP2 DUP2 MSTORE POP POP PUSH1 0x0 DUP2 PUSH1 0x80 ADD DUP2 DUP2 MSTORE POP POP DUP1 PUSH1 0x9 PUSH1 0x0 DUP7 PUSH20 0xFFFFFFFFFFFFFFFFFFFFFFFFFFFFFFFFFFFFFFFF AND PUSH20 0xFFFFFFFFFFFFFFFFFFFFFFFFFFFFFFFFFFFFFFFF AND DUP2 MSTORE PUSH1 0x20 ADD SWAP1 DUP2 MSTORE PUSH1 0x20 ADD PUSH1 0x0 KECCAK256 PUSH1 0x0 DUP3 ADD MLOAD DUP2 PUSH1 0x0 ADD PUSH1 0x0 PUSH2 0x100 EXP DUP2 SLOAD DUP2 PUSH1 0xFF MUL NOT AND SWAP1 DUP4 ISZERO ISZERO MUL OR SWAP1 SSTORE POP PUSH1 0x20 DUP3 ADD MLOAD DUP2 PUSH1 0x0 ADD PUSH1 0x1 PUSH2 0x100 EXP DUP2 SLOAD DUP2 PUSH1 0xFF MUL NOT AND SWAP1 DUP4 ISZERO ISZERO MUL OR SWAP1 SSTORE POP PUSH1 0x40 DUP3 ADD MLOAD DUP2 PUSH1 0x1 ADD SSTORE PUSH1 0x60 DUP3 ADD MLOAD DUP2 PUSH1 0x2 ADD SSTORE PUSH1 0x80 DUP3 ADD MLOAD DUP2 PUSH1 0x3 ADD SSTORE SWAP1 POP POP PUSH2 0xD23 DUP4 PUSH2 0xF00 JUMP JUMPDEST PUSH1 0x3 PUSH1 0x0 DUP2 SLOAD DUP1 SWAP3 SWAP2 SWAP1 PUSH2 0xD36 SWAP1 PUSH2 0x1629 JUMP JUMPDEST SWAP2 SWAP1 POP SSTORE POP POP POP POP POP JUMP JUMPDEST PUSH1 0xC PUSH1 0x0 SWAP1 SLOAD SWAP1 PUSH2 0x100 EXP SWAP1 DIV PUSH1 0xFF AND DUP2 JUMP JUMPDEST PUSH2 0xD5C PUSH2 0xFA9 JUMP JUMPDEST PUSH1 0x8 PUSH1 0x0 DUP5 DUP2 MSTORE PUSH1 0x20 ADD SWAP1 DUP2 MSTORE PUSH1 0x20 ADD PUSH1 0x0 KECCAK256 PUSH1 0x4 ADD PUSH1 0x0 DUP4 DUP2 MSTORE PUSH1 0x20 ADD SWAP1 DUP2 MSTORE PUSH1 0x20 ADD PUSH1 0x0 KECCAK256 PUSH1 0x40 MLOAD DUP1 PUSH1 0x60 ADD PUSH1 0x40 MSTORE SWAP1 DUP2 PUSH1 0x0 DUP3 ADD SLOAD DUP2 MSTORE PUSH1 0x20 ADD PUSH1 0x1 DUP3 ADD DUP1 SLOAD PUSH2 0xDA8 SWAP1 PUSH2 0x15F7 JUMP JUMPDEST DUP1 PUSH1 0x1F ADD PUSH1 0x20 DUP1 SWAP2 DIV MUL PUSH1 0x20 ADD PUSH1 0x40 MLOAD SWAP1 DUP2 ADD PUSH1 0x40 MSTORE DUP1 SWAP3 SWAP2 SWAP1 DUP2 DUP2 MSTORE PUSH1 0x20 ADD DUP3 DUP1 SLOAD PUSH2 0xDD4 SWAP1 PUSH2 0x15F7 JUMP JUMPDEST DUP1 ISZERO PUSH2 0xE21 JUMPI DUP1 PUSH1 0x1F LT PUSH2 0xDF6 JUMPI PUSH2 0x100 DUP1 DUP4 SLOAD DIV MUL DUP4 MSTORE SWAP2 PUSH1 0x20 ADD SWAP2 PUSH2 0xE21 JUMP JUMPDEST DUP3 ADD SWAP2 SWAP1 PUSH1 0x0 MSTORE PUSH1 0x20 PUSH1 0x0 KECCAK256 SWAP1 JUMPDEST DUP2 SLOAD DUP2 MSTORE SWAP1 PUSH1 0x1 ADD SWAP1 PUSH1 0x20 ADD DUP1 DUP4 GT PUSH2 0xE04 JUMPI DUP3 SWAP1 SUB PUSH1 0x1F AND DUP3 ADD SWAP2 JUMPDEST POP POP POP POP POP DUP2 MSTORE PUSH1 0x20 ADD PUSH1 0x2 DUP3 ADD SLOAD DUP2 MSTORE POP POP SWAP1 POP SWAP3 SWAP2 POP POP JUMP JUMPDEST PUSH1 0x2 SLOAD DUP2 JUMP JUMPDEST PUSH1 0x5 SLOAD DUP2 JUMP JUMPDEST PUSH1 0x8 PUSH1 0x20 MSTORE DUP1 PUSH1 0x0 MSTORE PUSH1 0x40 PUSH1 0x0 KECCAK256 PUSH1 0x0 SWAP2 POP SWAP1 POP DUP1 PUSH1 0x0 ADD SLOAD SWAP1 DUP1 PUSH1 0x1 ADD DUP1 SLOAD PUSH2 0xE71 SWAP1 PUSH2 0x15F7 JUMP JUMPDEST DUP1 PUSH1 0x1F ADD PUSH1 0x20 DUP1 SWAP2 DIV MUL PUSH1 0x20 ADD PUSH1 0x40 MLOAD SWAP1 DUP2 ADD PUSH1 0x40 MSTORE DUP1 SWAP3 SWAP2 SWAP1 DUP2 DUP2 MSTORE PUSH1 0x20 ADD DUP3 DUP1 SLOAD PUSH2 0xE9D SWAP1 PUSH2 0x15F7 JUMP JUMPDEST DUP1 ISZERO PUSH2 0xEEA JUMPI DUP1 PUSH1 0x1F LT PUSH2 0xEBF JUMPI PUSH2 0x100 DUP1 DUP4 SLOAD DIV MUL DUP4 MSTORE SWAP2 PUSH1 0x20 ADD SWAP2 PUSH2 0xEEA JUMP JUMPDEST DUP3 ADD SWAP2 SWAP1 PUSH1 0x0 MSTORE PUSH1 0x20 PUSH1 0x0 KECCAK256 SWAP1 JUMPDEST DUP2 SLOAD DUP2 MSTORE SWAP1 PUSH1 0x1 ADD SWAP1 PUSH1 0x20 ADD DUP1 DUP4 GT PUSH2 0xECD JUMPI DUP3 SWAP1 SUB PUSH1 0x1F AND DUP3 ADD SWAP2 JUMPDEST POP POP POP POP POP SWAP1 DUP1 PUSH1 0x2 ADD SLOAD SWAP1 DUP1 PUSH1 0x3 ADD SLOAD SWAP1 POP DUP5 JUMP JUMPDEST PUSH1 0x0 PUSH1 0x1 SWAP1 POP JUMPDEST PUSH1 0x2 SLOAD DUP2 GT PUSH2 0xF72 JUMPI DUP2 PUSH1 0x8 PUSH1 0x0 DUP4 DUP2 MSTORE PUSH1 0x20 ADD SWAP1 DUP2 MSTORE PUSH1 0x20 ADD PUSH1 0x0 KECCAK256 PUSH1 0x0 ADD SLOAD EQ ISZERO PUSH2 0xF5F JUMPI PUSH1 0x8 PUSH1 0x0 DUP3 DUP2 MSTORE PUSH1 0x20 ADD SWAP1 DUP2 MSTORE PUSH1 0x20 ADD PUSH1 0x0 KECCAK256 PUSH1 0x2 ADD PUSH1 0x0 DUP2 SLOAD DUP1 SWAP3 SWAP2 SWAP1 PUSH2 0xF55 SWAP1 PUSH2 0x1629 JUMP JUMPDEST SWAP2 SWAP1 POP SSTORE POP PUSH2 0xF72 JUMP JUMPDEST DUP1 DUP1 PUSH2 0xF6A SWAP1 PUSH2 0x1629 JUMP JUMPDEST SWAP2 POP POP PUSH2 0xF07 JUMP JUMPDEST POP POP JUMP JUMPDEST PUSH1 0x40 MLOAD DUP1 PUSH1 0xA0 ADD PUSH1 0x40 MSTORE DUP1 PUSH1 0x0 ISZERO ISZERO DUP2 MSTORE PUSH1 0x20 ADD PUSH1 0x0 ISZERO ISZERO DUP2 MSTORE PUSH1 0x20 ADD PUSH1 0x0 DUP2 MSTORE PUSH1 0x20 ADD PUSH1 0x0 DUP2 MSTORE PUSH1 0x20 ADD PUSH1 0x0 DUP2 MSTORE POP SWAP1 JUMP JUMPDEST PUSH1 0x40 MLOAD DUP1 PUSH1 0x60 ADD PUSH1 0x40 MSTORE DUP1 PUSH1 0x0 DUP2 MSTORE PUSH1 0x20 ADD PUSH1 0x60 DUP2 MSTORE PUSH1 0x20 ADD PUSH1 0x0 DUP2 MSTORE POP SWAP1 JUMP JUMPDEST PUSH1 0x0 DUP2 CALLDATALOAD SWAP1 POP PUSH2 0xFD9 DUP2 PUSH2 0x17FF JUMP JUMPDEST SWAP3 SWAP2 POP POP JUMP JUMPDEST PUSH1 0x0 DUP2 CALLDATALOAD SWAP1 POP PUSH2 0xFEE DUP2 PUSH2 0x1816 JUMP JUMPDEST SWAP3 SWAP2 POP POP JUMP JUMPDEST PUSH1 0x0 PUSH1 0x20 DUP3 DUP5 SUB SLT ISZERO PUSH2 0x100A JUMPI PUSH2 0x1009 PUSH2 0x175D JUMP JUMPDEST JUMPDEST PUSH1 0x0 PUSH2 0x1018 DUP5 DUP3 DUP6 ADD PUSH2 0xFCA JUMP JUMPDEST SWAP2 POP POP SWAP3 SWAP2 POP POP JUMP JUMPDEST PUSH1 0x0 DUP1 PUSH1 0x40 DUP4 DUP6 SUB SLT ISZERO PUSH2 0x1038 JUMPI PUSH2 0x1037 PUSH2 0x175D JUMP JUMPDEST JUMPDEST PUSH1 0x0 PUSH2 0x1046 DUP6 DUP3 DUP7 ADD PUSH2 0xFCA JUMP JUMPDEST SWAP3 POP POP PUSH1 0x20 PUSH2 0x1057 DUP6 DUP3 DUP7 ADD PUSH2 0xFDF JUMP JUMPDEST SWAP2 POP POP SWAP3 POP SWAP3 SWAP1 POP JUMP JUMPDEST PUSH1 0x0 PUSH1 0x20 DUP3 DUP5 SUB SLT ISZERO PUSH2 0x1077 JUMPI PUSH2 0x1076 PUSH2 0x175D JUMP JUMPDEST JUMPDEST PUSH1 0x0 PUSH2 0x1085 DUP5 DUP3 DUP6 ADD PUSH2 0xFDF JUMP JUMPDEST SWAP2 POP POP SWAP3 SWAP2 POP POP JUMP JUMPDEST PUSH1 0x0 DUP1 PUSH1 0x40 DUP4 DUP6 SUB SLT ISZERO PUSH2 0x10A5 JUMPI PUSH2 0x10A4 PUSH2 0x175D JUMP JUMPDEST JUMPDEST PUSH1 0x0 PUSH2 0x10B3 DUP6 DUP3 DUP7 ADD PUSH2 0xFDF JUMP JUMPDEST SWAP3 POP POP PUSH1 0x20 PUSH2 0x10C4 DUP6 DUP3 DUP7 ADD PUSH2 0xFDF JUMP JUMPDEST SWAP2 POP POP SWAP3 POP SWAP3 SWAP1 POP JUMP JUMPDEST PUSH1 0x0 PUSH2 0x10DA DUP4 DUP4 PUSH2 0x1279 JUMP JUMPDEST PUSH1 0x20 DUP4 ADD SWAP1 POP SWAP3 SWAP2 POP POP JUMP JUMPDEST PUSH2 0x10EF DUP2 PUSH2 0x1557 JUMP JUMPDEST DUP3 MSTORE POP POP JUMP JUMPDEST PUSH1 0x0 PUSH2 0x1100 DUP3 PUSH2 0x14AB JUMP JUMPDEST PUSH2 0x110A DUP2 DUP6 PUSH2 0x14CE JUMP JUMPDEST SWAP4 POP PUSH2 0x1115 DUP4 PUSH2 0x149B JUMP JUMPDEST DUP1 PUSH1 0x0 JUMPDEST DUP4 DUP2 LT ISZERO PUSH2 0x1146 JUMPI DUP2 MLOAD PUSH2 0x112D DUP9 DUP3 PUSH2 0x10CE JUMP JUMPDEST SWAP8 POP PUSH2 0x1138 DUP4 PUSH2 0x14C1 JUMP JUMPDEST SWAP3 POP POP PUSH1 0x1 DUP2 ADD SWAP1 POP PUSH2 0x1119 JUMP JUMPDEST POP DUP6 SWAP4 POP POP POP POP SWAP3 SWAP2 POP POP JUMP JUMPDEST PUSH2 0x115C DUP2 PUSH2 0x1569 JUMP JUMPDEST DUP3 MSTORE POP POP JUMP JUMPDEST PUSH2 0x116B DUP2 PUSH2 0x15B2 JUMP JUMPDEST DUP3 MSTORE POP POP JUMP JUMPDEST PUSH1 0x0 PUSH2 0x117C DUP3 PUSH2 0x14B6 JUMP JUMPDEST PUSH2 0x1186 DUP2 DUP6 PUSH2 0x14DF JUMP JUMPDEST SWAP4 POP PUSH2 0x1196 DUP2 DUP6 PUSH1 0x20 DUP7 ADD PUSH2 0x15C4 JUMP JUMPDEST PUSH2 0x119F DUP2 PUSH2 0x1762 JUMP JUMPDEST DUP5 ADD SWAP2 POP POP SWAP3 SWAP2 POP POP JUMP JUMPDEST PUSH1 0x0 PUSH2 0x11B5 DUP3 PUSH2 0x14B6 JUMP JUMPDEST PUSH2 0x11BF DUP2 DUP6 PUSH2 0x14F0 JUMP JUMPDEST SWAP4 POP PUSH2 0x11CF DUP2 DUP6 PUSH1 0x20 DUP7 ADD PUSH2 0x15C4 JUMP JUMPDEST PUSH2 0x11D8 DUP2 PUSH2 0x1762 JUMP JUMPDEST DUP5 ADD SWAP2 POP POP SWAP3 SWAP2 POP POP JUMP JUMPDEST PUSH1 0x0 PUSH2 0x11F0 PUSH1 0x2A DUP4 PUSH2 0x14F0 JUMP JUMPDEST SWAP2 POP PUSH2 0x11FB DUP3 PUSH2 0x1773 JUMP JUMPDEST PUSH1 0x40 DUP3 ADD SWAP1 POP SWAP2 SWAP1 POP JUMP JUMPDEST PUSH1 0x0 PUSH2 0x1213 PUSH1 0x1C DUP4 PUSH2 0x14F0 JUMP JUMPDEST SWAP2 POP PUSH2 0x121E DUP3 PUSH2 0x17C2 JUMP JUMPDEST PUSH1 0x20 DUP3 ADD SWAP1 POP SWAP2 SWAP1 POP JUMP JUMPDEST PUSH1 0x0 PUSH1 0x60 DUP4 ADD PUSH1 0x0 DUP4 ADD MLOAD PUSH2 0x1241 PUSH1 0x0 DUP7 ADD DUP3 PUSH2 0x1279 JUMP JUMPDEST POP PUSH1 0x20 DUP4 ADD MLOAD DUP5 DUP3 SUB PUSH1 0x20 DUP7 ADD MSTORE PUSH2 0x1259 DUP3 DUP3 PUSH2 0x1171 JUMP JUMPDEST SWAP2 POP POP PUSH1 0x40 DUP4 ADD MLOAD PUSH2 0x126E PUSH1 0x40 DUP7 ADD DUP3 PUSH2 0x1279 JUMP JUMPDEST POP DUP1 SWAP2 POP POP SWAP3 SWAP2 POP POP JUMP JUMPDEST PUSH2 0x1282 DUP2 PUSH2 0x15A8 JUMP JUMPDEST DUP3 MSTORE POP POP JUMP JUMPDEST PUSH2 0x1291 DUP2 PUSH2 0x15A8 JUMP JUMPDEST DUP3 MSTORE POP POP JUMP JUMPDEST PUSH1 0x0 PUSH1 0x20 DUP3 ADD SWAP1 POP PUSH2 0x12AC PUSH1 0x0 DUP4 ADD DUP5 PUSH2 0x10E6 JUMP JUMPDEST SWAP3 SWAP2 POP POP JUMP JUMPDEST PUSH1 0x0 PUSH1 0x20 DUP3 ADD SWAP1 POP DUP2 DUP2 SUB PUSH1 0x0 DUP4 ADD MSTORE PUSH2 0x12CC DUP2 DUP5 PUSH2 0x10F5 JUMP JUMPDEST SWAP1 POP SWAP3 SWAP2 POP POP JUMP JUMPDEST PUSH1 0x0 PUSH1 0x20 DUP3 ADD SWAP1 POP PUSH2 0x12E9 PUSH1 0x0 DUP4 ADD DUP5 PUSH2 0x1153 JUMP JUMPDEST SWAP3 SWAP2 POP POP JUMP JUMPDEST PUSH1 0x0 PUSH1 0xA0 DUP3 ADD SWAP1 POP PUSH2 0x1304 PUSH1 0x0 DUP4 ADD DUP9 PUSH2 0x1153 JUMP JUMPDEST PUSH2 0x1311 PUSH1 0x20 DUP4 ADD DUP8 PUSH2 0x1153 JUMP JUMPDEST PUSH2 0x131E PUSH1 0x40 DUP4 ADD DUP7 PUSH2 0x1288 JUMP JUMPDEST PUSH2 0x132B PUSH1 0x60 DUP4 ADD DUP6 PUSH2 0x1288 JUMP JUMPDEST PUSH2 0x1338 PUSH1 0x80 DUP4 ADD DUP5 PUSH2 0x1288 JUMP JUMPDEST SWAP7 SWAP6 POP POP POP POP POP POP JUMP JUMPDEST PUSH1 0x0 PUSH1 0x60 DUP3 ADD SWAP1 POP PUSH2 0x1357 PUSH1 0x0 DUP4 ADD DUP7 PUSH2 0x1153 JUMP JUMPDEST PUSH2 0x1364 PUSH1 0x20 DUP4 ADD DUP6 PUSH2 0x1288 JUMP JUMPDEST PUSH2 0x1371 PUSH1 0x40 DUP4 ADD DUP5 PUSH2 0x1288 JUMP JUMPDEST SWAP5 SWAP4 POP POP POP POP JUMP JUMPDEST PUSH1 0x0 PUSH1 0x20 DUP3 ADD SWAP1 POP PUSH2 0x138E PUSH1 0x0 DUP4 ADD DUP5 PUSH2 0x1162 JUMP JUMPDEST SWAP3 SWAP2 POP POP JUMP JUMPDEST PUSH1 0x0 PUSH1 0x20 DUP3 ADD SWAP1 POP DUP2 DUP2 SUB PUSH1 0x0 DUP4 ADD MSTORE PUSH2 0x13AD DUP2 PUSH2 0x11E3 JUMP JUMPDEST SWAP1 POP SWAP2 SWAP1 POP JUMP JUMPDEST PUSH1 0x0 PUSH1 0x20 DUP3 ADD SWAP1 POP DUP2 DUP2 SUB PUSH1 0x0 DUP4 ADD MSTORE PUSH2 0x13CD DUP2 PUSH2 0x1206 JUMP JUMPDEST SWAP1 POP SWAP2 SWAP1 POP JUMP JUMPDEST PUSH1 0x0 PUSH1 0x20 DUP3 ADD SWAP1 POP DUP2 DUP2 SUB PUSH1 0x0 DUP4 ADD MSTORE PUSH2 0x13EE DUP2 DUP5 PUSH2 0x1229 JUMP JUMPDEST SWAP1 POP SWAP3 SWAP2 POP POP JUMP JUMPDEST PUSH1 0x0 PUSH1 0x20 DUP3 ADD SWAP1 POP PUSH2 0x140B PUSH1 0x0 DUP4 ADD DUP5 PUSH2 0x1288 JUMP JUMPDEST SWAP3 SWAP2 POP POP JUMP JUMPDEST PUSH1 0x0 PUSH1 0x60 DUP3 ADD SWAP1 POP PUSH2 0x1426 PUSH1 0x0 DUP4 ADD DUP7 PUSH2 0x1288 JUMP JUMPDEST DUP2 DUP2 SUB PUSH1 0x20 DUP4 ADD MSTORE PUSH2 0x1438 DUP2 DUP6 PUSH2 0x11AA JUMP JUMPDEST SWAP1 POP PUSH2 0x1447 PUSH1 0x40 DUP4 ADD DUP5 PUSH2 0x1288 JUMP JUMPDEST SWAP5 SWAP4 POP POP POP POP JUMP JUMPDEST PUSH1 0x0 PUSH1 0x80 DUP3 ADD SWAP1 POP PUSH2 0x1464 PUSH1 0x0 DUP4 ADD DUP8 PUSH2 0x1288 JUMP JUMPDEST DUP2 DUP2 SUB PUSH1 0x20 DUP4 ADD MSTORE PUSH2 0x1476 DUP2 DUP7 PUSH2 0x11AA JUMP JUMPDEST SWAP1 POP PUSH2 0x1485 PUSH1 0x40 DUP4 ADD DUP6 PUSH2 0x1288 JUMP JUMPDEST PUSH2 0x1492 PUSH1 0x60 DUP4 ADD DUP5 PUSH2 0x1288 JUMP JUMPDEST SWAP6 SWAP5 POP POP POP POP POP JUMP JUMPDEST PUSH1 0x0 DUP2 SWAP1 POP PUSH1 0x20 DUP3 ADD SWAP1 POP SWAP2 SWAP1 POP JUMP JUMPDEST PUSH1 0x0 DUP2 MLOAD SWAP1 POP SWAP2 SWAP1 POP JUMP JUMPDEST PUSH1 0x0 DUP2 MLOAD SWAP1 POP SWAP2 SWAP1 POP JUMP JUMPDEST PUSH1 0x0 PUSH1 0x20 DUP3 ADD SWAP1 POP SWAP2 SWAP1 POP JUMP JUMPDEST PUSH1 0x0 DUP3 DUP3 MSTORE PUSH1 0x20 DUP3 ADD SWAP1 POP SWAP3 SWAP2 POP POP JUMP JUMPDEST PUSH1 0x0 DUP3 DUP3 MSTORE PUSH1 0x20 DUP3 ADD SWAP1 POP SWAP3 SWAP2 POP POP JUMP JUMPDEST PUSH1 0x0 DUP3 DUP3 MSTORE PUSH1 0x20 DUP3 ADD SWAP1 POP SWAP3 SWAP2 POP POP JUMP JUMPDEST PUSH1 0x0 PUSH2 0x150C DUP3 PUSH2 0x15A8 JUMP JUMPDEST SWAP2 POP PUSH2 0x1517 DUP4 PUSH2 0x15A8 JUMP JUMPDEST SWAP3 POP DUP3 PUSH32 0xFFFFFFFFFFFFFFFFFFFFFFFFFFFFFFFFFFFFFFFFFFFFFFFFFFFFFFFFFFFFFFFF SUB DUP3 GT ISZERO PUSH2 0x154C JUMPI PUSH2 0x154B PUSH2 0x1672 JUMP JUMPDEST JUMPDEST DUP3 DUP3 ADD SWAP1 POP SWAP3 SWAP2 POP POP JUMP JUMPDEST PUSH1 0x0 PUSH2 0x1562 DUP3 PUSH2 0x1588 JUMP JUMPDEST SWAP1 POP SWAP2 SWAP1 POP JUMP JUMPDEST PUSH1 0x0 DUP2 ISZERO ISZERO SWAP1 POP SWAP2 SWAP1 POP JUMP JUMPDEST PUSH1 0x0 DUP2 SWAP1 POP PUSH2 0x1583 DUP3 PUSH2 0x17EB JUMP JUMPDEST SWAP2 SWAP1 POP JUMP JUMPDEST PUSH1 0x0 PUSH20 0xFFFFFFFFFFFFFFFFFFFFFFFFFFFFFFFFFFFFFFFF DUP3 AND SWAP1 POP SWAP2 SWAP1 POP JUMP JUMPDEST PUSH1 0x0 DUP2 SWAP1 POP SWAP2 SWAP1 POP JUMP JUMPDEST PUSH1 0x0 PUSH2 0x15BD DUP3 PUSH2 0x1575 JUMP JUMPDEST SWAP1 POP SWAP2 SWAP1 POP JUMP JUMPDEST PUSH1 0x0 JUMPDEST DUP4 DUP2 LT ISZERO PUSH2 0x15E2 JUMPI DUP1 DUP3 ADD MLOAD DUP2 DUP5 ADD MSTORE PUSH1 0x20 DUP2 ADD SWAP1 POP PUSH2 0x15C7 JUMP JUMPDEST DUP4 DUP2 GT ISZERO PUSH2 0x15F1 JUMPI PUSH1 0x0 DUP5 DUP5 ADD MSTORE JUMPDEST POP POP POP POP JUMP JUMPDEST PUSH1 0x0 PUSH1 0x2 DUP3 DIV SWAP1 POP PUSH1 0x1 DUP3 AND DUP1 PUSH2 0x160F JUMPI PUSH1 0x7F DUP3 AND SWAP2 POP JUMPDEST PUSH1 0x20 DUP3 LT DUP2 EQ ISZERO PUSH2 0x1623 JUMPI PUSH2 0x1622 PUSH2 0x16D0 JUMP JUMPDEST JUMPDEST POP SWAP2 SWAP1 POP JUMP JUMPDEST PUSH1 0x0 PUSH2 0x1634 DUP3 PUSH2 0x15A8 JUMP JUMPDEST SWAP2 POP PUSH32 0xFFFFFFFFFFFFFFFFFFFFFFFFFFFFFFFFFFFFFFFFFFFFFFFFFFFFFFFFFFFFFFFF DUP3 EQ ISZERO PUSH2 0x1667 JUMPI PUSH2 0x1666 PUSH2 0x1672 JUMP JUMPDEST JUMPDEST PUSH1 0x1 DUP3 ADD SWAP1 POP SWAP2 SWAP1 POP JUMP JUMPDEST PUSH32 0x4E487B7100000000000000000000000000000000000000000000000000000000 PUSH1 0x0 MSTORE PUSH1 0x11 PUSH1 0x4 MSTORE PUSH1 0x24 PUSH1 0x0 REVERT JUMPDEST PUSH32 0x4E487B7100000000000000000000000000000000000000000000000000000000 PUSH1 0x0 MSTORE PUSH1 0x21 PUSH1 0x4 MSTORE PUSH1 0x24 PUSH1 0x0 REVERT JUMPDEST PUSH32 0x4E487B7100000000000000000000000000000000000000000000000000000000 PUSH1 0x0 MSTORE PUSH1 0x22 PUSH1 0x4 MSTORE PUSH1 0x24 PUSH1 0x0 REVERT JUMPDEST PUSH32 0x4E487B7100000000000000000000000000000000000000000000000000000000 PUSH1 0x0 MSTORE PUSH1 0x32 PUSH1 0x4 MSTORE PUSH1 0x24 PUSH1 0x0 REVERT JUMPDEST PUSH32 0x4E487B7100000000000000000000000000000000000000000000000000000000 PUSH1 0x0 MSTORE PUSH1 0x41 PUSH1 0x4 MSTORE PUSH1 0x24 PUSH1 0x0 REVERT JUMPDEST PUSH1 0x0 DUP1 REVERT JUMPDEST PUSH1 0x0 PUSH1 0x1F NOT PUSH1 0x1F DUP4 ADD AND SWAP1 POP SWAP2 SWAP1 POP JUMP JUMPDEST PUSH32 0x506C656173652070726F7669646520612076616C696420706F6C6C696E672073 PUSH1 0x0 DUP3 ADD MSTORE PUSH32 0x746174696F6E2049442E00000000000000000000000000000000000000000000 PUSH1 0x20 DUP3 ADD MSTORE POP JUMP JUMPDEST PUSH32 0x566F74657220697320616C726561647920726567697374657265642E00000000 PUSH1 0x0 DUP3 ADD MSTORE POP JUMP JUMPDEST PUSH1 0x3 DUP2 LT PUSH2 0x17FC JUMPI PUSH2 0x17FB PUSH2 0x16A1 JUMP JUMPDEST JUMPDEST POP JUMP JUMPDEST PUSH2 0x1808 DUP2 PUSH2 0x1557 JUMP JUMPDEST DUP2 EQ PUSH2 0x1813 JUMPI PUSH1 0x0 DUP1 REVERT JUMPDEST POP JUMP JUMPDEST PUSH2 0x181F DUP2 PUSH2 0x15A8 JUMP JUMPDEST DUP2 EQ PUSH2 0x182A JUMPI PUSH1 0x0 DUP1 REVERT JUMPDEST POP JUMP INVALID LOG2 PUSH5 0x6970667358 0x22 SLT KECCAK256 DUP7 SWAP8 0xEE CODECOPY SWAP3 PUSH9 0x508A372E2A96737F68 PUSH18 0xBCBC6C5D50CFEC9403C71080C3483D906473 PUSH16 0x6C634300080700330000000000000000 "
				},
				"gasEstimates": {
					"creation": {
						"codeDepositCost": "1248600",
						"executionCost": "infinite",
						"totalCost": "infinite"
					},
					"external": {
						"addVoter(address,uint256)": "infinite",
						"candidates(uint256)": "infinite",
						"candidatesCount()": "2519",
						"castVote(uint256,uint256)": "infinite",
						"electionOwner()": "2600",
						"endVote()": "53095",
						"finalResult()": "2517",
						"getResultsPerStation(uint256)": "infinite",
						"getResultsPerStation1(uint256,uint256)": "infinite",
						"getVotes(uint256,uint256)": "infinite",
						"pollingStationCount()": "2495",
						"pollingStations(uint256)": "infinite",
						"startVote()": "28881",
						"state()": "2582",
						"totalRegisteredVoters()": "2453",
						"voterRegistry(address)": "infinite",
						"voters(address)": "2890"
					},
					"internal": {
						"addCandidate(string memory)": "infinite",
						"addPollingStation(string memory)": "infinite",
						"initCandidates()": "infinite",
						"initPollingStations()": "infinite",
						"registerAtPollingStation(uint256)": "28818"
					}
				},
				"methodIdentifiers": {
					"addVoter(address,uint256)": "b9f05f2f",
					"candidates(uint256)": "3477ee2e",
					"candidatesCount()": "2d35a8a2",
					"castVote(uint256,uint256)": "2c0a3f89",
					"electionOwner()": "53357ad0",
					"endVote()": "b9223946",
					"finalResult()": "f3a8286f",
					"getResultsPerStation(uint256)": "23a1b11c",
					"getResultsPerStation1(uint256,uint256)": "d3808ae0",
					"getVotes(uint256,uint256)": "91f36633",
					"pollingStationCount()": "df9f1a07",
					"pollingStations(uint256)": "fe2442d7",
					"startVote()": "4c0a6af0",
					"state()": "c19d93fb",
					"totalRegisteredVoters()": "00aa7464",
					"voterRegistry(address)": "4763d4e7",
					"voters(address)": "a3ec138d"
				}
			},
			"storageLayout": {
				"storage": [
					{
						"astId": 35,
						"contract": "contracts/ergasia.sol:Election",
						"label": "electionOwner",
						"offset": 0,
						"slot": "0",
						"type": "t_address"
					},
					{
						"astId": 37,
						"contract": "contracts/ergasia.sol:Election",
						"label": "candidatesCount",
						"offset": 0,
						"slot": "1",
						"type": "t_uint256"
					},
					{
						"astId": 39,
						"contract": "contracts/ergasia.sol:Election",
						"label": "pollingStationCount",
						"offset": 0,
						"slot": "2",
						"type": "t_uint256"
					},
					{
						"astId": 41,
						"contract": "contracts/ergasia.sol:Election",
						"label": "totalRegisteredVoters",
						"offset": 0,
						"slot": "3",
						"type": "t_uint256"
					},
					{
						"astId": 43,
						"contract": "contracts/ergasia.sol:Election",
						"label": "countResult",
						"offset": 0,
						"slot": "4",
						"type": "t_uint256"
					},
					{
						"astId": 45,
						"contract": "contracts/ergasia.sol:Election",
						"label": "finalResult",
						"offset": 0,
						"slot": "5",
						"type": "t_uint256"
					},
					{
						"astId": 50,
						"contract": "contracts/ergasia.sol:Election",
						"label": "candidates",
						"offset": 0,
						"slot": "6",
						"type": "t_mapping(t_uint256,t_struct(Candidate)8_storage)"
					},
					{
						"astId": 56,
						"contract": "contracts/ergasia.sol:Election",
						"label": "candidatesPerStation",
						"offset": 0,
						"slot": "7",
						"type": "t_mapping(t_uint256,t_array(t_struct(Candidate)8_storage)dyn_storage)"
					},
					{
						"astId": 61,
						"contract": "contracts/ergasia.sol:Election",
						"label": "pollingStations",
						"offset": 0,
						"slot": "8",
						"type": "t_mapping(t_uint256,t_struct(PollingStation)22_storage)"
					},
					{
						"astId": 66,
						"contract": "contracts/ergasia.sol:Election",
						"label": "voterRegistry",
						"offset": 0,
						"slot": "9",
						"type": "t_mapping(t_address,t_struct(Voter)33_storage)"
					},
					{
						"astId": 70,
						"contract": "contracts/ergasia.sol:Election",
						"label": "voters",
						"offset": 0,
						"slot": "10",
						"type": "t_mapping(t_address,t_bool)"
					},
					{
						"astId": 77,
						"contract": "contracts/ergasia.sol:Election",
						"label": "list",
						"offset": 0,
						"slot": "11",
						"type": "t_mapping(t_uint256,t_mapping(t_uint256,t_struct(Candidate)8_storage))"
					},
					{
						"astId": 84,
						"contract": "contracts/ergasia.sol:Election",
						"label": "state",
						"offset": 0,
						"slot": "12",
						"type": "t_enum(State)81"
					}
				],
				"types": {
					"t_address": {
						"encoding": "inplace",
						"label": "address",
						"numberOfBytes": "20"
					},
					"t_array(t_struct(Candidate)8_storage)dyn_storage": {
						"base": "t_struct(Candidate)8_storage",
						"encoding": "dynamic_array",
						"label": "struct Election.Candidate[]",
						"numberOfBytes": "32"
					},
					"t_bool": {
						"encoding": "inplace",
						"label": "bool",
						"numberOfBytes": "1"
					},
					"t_enum(State)81": {
						"encoding": "inplace",
						"label": "enum Election.State",
						"numberOfBytes": "1"
					},
					"t_mapping(t_address,t_bool)": {
						"encoding": "mapping",
						"key": "t_address",
						"label": "mapping(address => bool)",
						"numberOfBytes": "32",
						"value": "t_bool"
					},
					"t_mapping(t_address,t_struct(Voter)33_storage)": {
						"encoding": "mapping",
						"key": "t_address",
						"label": "mapping(address => struct Election.Voter)",
						"numberOfBytes": "32",
						"value": "t_struct(Voter)33_storage"
					},
					"t_mapping(t_uint256,t_array(t_struct(Candidate)8_storage)dyn_storage)": {
						"encoding": "mapping",
						"key": "t_uint256",
						"label": "mapping(uint256 => struct Election.Candidate[])",
						"numberOfBytes": "32",
						"value": "t_array(t_struct(Candidate)8_storage)dyn_storage"
					},
					"t_mapping(t_uint256,t_mapping(t_uint256,t_struct(Candidate)8_storage))": {
						"encoding": "mapping",
						"key": "t_uint256",
						"label": "mapping(uint256 => mapping(uint256 => struct Election.Candidate))",
						"numberOfBytes": "32",
						"value": "t_mapping(t_uint256,t_struct(Candidate)8_storage)"
					},
					"t_mapping(t_uint256,t_struct(Candidate)8_storage)": {
						"encoding": "mapping",
						"key": "t_uint256",
						"label": "mapping(uint256 => struct Election.Candidate)",
						"numberOfBytes": "32",
						"value": "t_struct(Candidate)8_storage"
					},
					"t_mapping(t_uint256,t_struct(PollingStation)22_storage)": {
						"encoding": "mapping",
						"key": "t_uint256",
						"label": "mapping(uint256 => struct Election.PollingStation)",
						"numberOfBytes": "32",
						"value": "t_struct(PollingStation)22_storage"
					},
					"t_string_storage": {
						"encoding": "bytes",
						"label": "string",
						"numberOfBytes": "32"
					},
					"t_struct(Candidate)8_storage": {
						"encoding": "inplace",
						"label": "struct Election.Candidate",
						"members": [
							{
								"astId": 3,
								"contract": "contracts/ergasia.sol:Election",
								"label": "id",
								"offset": 0,
								"slot": "0",
								"type": "t_uint256"
							},
							{
								"astId": 5,
								"contract": "contracts/ergasia.sol:Election",
								"label": "name",
								"offset": 0,
								"slot": "1",
								"type": "t_string_storage"
							},
							{
								"astId": 7,
								"contract": "contracts/ergasia.sol:Election",
								"label": "votes",
								"offset": 0,
								"slot": "2",
								"type": "t_uint256"
							}
						],
						"numberOfBytes": "96"
					},
					"t_struct(PollingStation)22_storage": {
						"encoding": "inplace",
						"label": "struct Election.PollingStation",
						"members": [
							{
								"astId": 10,
								"contract": "contracts/ergasia.sol:Election",
								"label": "id",
								"offset": 0,
								"slot": "0",
								"type": "t_uint256"
							},
							{
								"astId": 12,
								"contract": "contracts/ergasia.sol:Election",
								"label": "name",
								"offset": 0,
								"slot": "1",
								"type": "t_string_storage"
							},
							{
								"astId": 14,
								"contract": "contracts/ergasia.sol:Election",
								"label": "votersRegistered",
								"offset": 0,
								"slot": "2",
								"type": "t_uint256"
							},
							{
								"astId": 16,
								"contract": "contracts/ergasia.sol:Election",
								"label": "votesCasted",
								"offset": 0,
								"slot": "3",
								"type": "t_uint256"
							},
							{
								"astId": 21,
								"contract": "contracts/ergasia.sol:Election",
								"label": "scoresPerCandidate",
								"offset": 0,
								"slot": "4",
								"type": "t_mapping(t_uint256,t_struct(Candidate)8_storage)"
							}
						],
						"numberOfBytes": "160"
					},
					"t_struct(Voter)33_storage": {
						"encoding": "inplace",
						"label": "struct Election.Voter",
						"members": [
							{
								"astId": 24,
								"contract": "contracts/ergasia.sol:Election",
								"label": "isEnrolled",
								"offset": 0,
								"slot": "0",
								"type": "t_bool"
							},
							{
								"astId": 26,
								"contract": "contracts/ergasia.sol:Election",
								"label": "hasVoted",
								"offset": 1,
								"slot": "0",
								"type": "t_bool"
							},
							{
								"astId": 28,
								"contract": "contracts/ergasia.sol:Election",
								"label": "choice",
								"offset": 0,
								"slot": "1",
								"type": "t_uint256"
							},
							{
								"astId": 30,
								"contract": "contracts/ergasia.sol:Election",
								"label": "enrolledPollingStationID",
								"offset": 0,
								"slot": "2",
								"type": "t_uint256"
							},
							{
								"astId": 32,
								"contract": "contracts/ergasia.sol:Election",
								"label": "votedPollingStationID",
								"offset": 0,
								"slot": "3",
								"type": "t_uint256"
							}
						],
						"numberOfBytes": "128"
					},
					"t_uint256": {
						"encoding": "inplace",
						"label": "uint256",
						"numberOfBytes": "32"
					}
				}
			},
			"userdoc": {
				"kind": "user",
				"methods": {},
				"version": 1
			}
		}
	}
}